{
  "_format": "hh-sol-artifact-1",
  "contractName": "LSP0ERC725Account",
  "sourceName": "contracts/LSP0ERC725Account/LSP0ERC725Account.sol",
  "abi": [
    {
      "inputs": [
        {
          "internalType": "address",
          "name": "newOwner",
          "type": "address"
        }
      ],
      "stateMutability": "payable",
      "type": "constructor"
    },
    {
      "inputs": [],
      "name": "CannotTransferOwnershipToSelf",
      "type": "error"
    },
    {
      "inputs": [],
      "name": "ERC725X_ContractDeploymentFailed",
      "type": "error"
    },
    {
      "inputs": [],
      "name": "ERC725X_CreateOperationsRequireEmptyRecipientAddress",
      "type": "error"
    },
    {
      "inputs": [],
      "name": "ERC725X_ExecuteParametersLengthMismatch",
      "type": "error"
    },
    {
      "inputs": [
        {
          "internalType": "uint256",
          "name": "balance",
          "type": "uint256"
        },
        {
          "internalType": "uint256",
          "name": "value",
          "type": "uint256"
        }
      ],
      "name": "ERC725X_InsufficientBalance",
      "type": "error"
    },
    {
      "inputs": [],
      "name": "ERC725X_MsgValueDisallowedInDelegateCall",
      "type": "error"
    },
    {
      "inputs": [],
      "name": "ERC725X_MsgValueDisallowedInStaticCall",
      "type": "error"
    },
    {
      "inputs": [],
      "name": "ERC725X_NoContractBytecodeProvided",
      "type": "error"
    },
    {
      "inputs": [
        {
          "internalType": "uint256",
          "name": "operationTypeProvided",
          "type": "uint256"
        }
      ],
      "name": "ERC725X_UnknownOperationType",
      "type": "error"
    },
    {
      "inputs": [
        {
          "internalType": "uint256",
          "name": "dataKeysLength",
          "type": "uint256"
        },
        {
          "internalType": "uint256",
          "name": "dataValuesLength",
          "type": "uint256"
        }
      ],
      "name": "ERC725Y_DataKeysValuesLengthMismatch",
      "type": "error"
    },
    {
      "inputs": [
        {
          "internalType": "bool",
          "name": "postCall",
          "type": "bool"
        }
      ],
      "name": "LSP20CallingVerifierFailed",
      "type": "error"
    },
    {
      "inputs": [
        {
          "internalType": "bool",
          "name": "postCall",
          "type": "bool"
        },
        {
          "internalType": "bytes",
          "name": "returnedData",
          "type": "bytes"
        }
      ],
      "name": "LSP20InvalidMagicValue",
      "type": "error"
    },
    {
      "inputs": [
        {
          "internalType": "bytes4",
          "name": "functionSelector",
          "type": "bytes4"
        }
      ],
      "name": "NoExtensionFoundForFunctionSelector",
      "type": "error"
    },
    {
      "inputs": [
        {
          "internalType": "uint256",
          "name": "renounceOwnershipStart",
          "type": "uint256"
        },
        {
          "internalType": "uint256",
          "name": "renounceOwnershipEnd",
          "type": "uint256"
        }
      ],
      "name": "NotInRenounceOwnershipInterval",
      "type": "error"
    },
    {
      "anonymous": false,
      "inputs": [
        {
          "indexed": true,
          "internalType": "uint256",
          "name": "operationType",
          "type": "uint256"
        },
        {
          "indexed": true,
          "internalType": "address",
          "name": "contractAddress",
          "type": "address"
        },
        {
          "indexed": true,
          "internalType": "uint256",
          "name": "value",
          "type": "uint256"
        },
        {
          "indexed": false,
          "internalType": "bytes32",
          "name": "salt",
          "type": "bytes32"
        }
      ],
      "name": "ContractCreated",
      "type": "event"
    },
    {
      "anonymous": false,
      "inputs": [
        {
          "indexed": true,
          "internalType": "bytes32",
          "name": "dataKey",
          "type": "bytes32"
        },
        {
          "indexed": false,
          "internalType": "bytes",
          "name": "dataValue",
          "type": "bytes"
        }
      ],
      "name": "DataChanged",
      "type": "event"
    },
    {
      "anonymous": false,
      "inputs": [
        {
          "indexed": true,
          "internalType": "uint256",
          "name": "operationType",
          "type": "uint256"
        },
        {
          "indexed": true,
          "internalType": "address",
          "name": "target",
          "type": "address"
        },
        {
          "indexed": true,
          "internalType": "uint256",
          "name": "value",
          "type": "uint256"
        },
        {
          "indexed": false,
          "internalType": "bytes4",
          "name": "selector",
          "type": "bytes4"
        }
      ],
      "name": "Executed",
      "type": "event"
    },
    {
      "anonymous": false,
      "inputs": [],
      "name": "OwnershipRenounced",
      "type": "event"
    },
    {
      "anonymous": false,
      "inputs": [
        {
          "indexed": true,
          "internalType": "address",
          "name": "previousOwner",
          "type": "address"
        },
        {
          "indexed": true,
          "internalType": "address",
          "name": "newOwner",
          "type": "address"
        }
      ],
      "name": "OwnershipTransferStarted",
      "type": "event"
    },
    {
      "anonymous": false,
      "inputs": [
        {
          "indexed": true,
          "internalType": "address",
          "name": "previousOwner",
          "type": "address"
        },
        {
          "indexed": true,
          "internalType": "address",
          "name": "newOwner",
          "type": "address"
        }
      ],
      "name": "OwnershipTransferred",
      "type": "event"
    },
    {
      "anonymous": false,
      "inputs": [],
      "name": "RenounceOwnershipStarted",
      "type": "event"
    },
    {
      "anonymous": false,
      "inputs": [
        {
          "indexed": true,
          "internalType": "address",
          "name": "from",
          "type": "address"
        },
        {
          "indexed": true,
          "internalType": "uint256",
          "name": "value",
          "type": "uint256"
        },
        {
          "indexed": true,
          "internalType": "bytes32",
          "name": "typeId",
          "type": "bytes32"
        },
        {
          "indexed": false,
          "internalType": "bytes",
          "name": "receivedData",
          "type": "bytes"
        },
        {
          "indexed": false,
          "internalType": "bytes",
          "name": "returnedValue",
          "type": "bytes"
        }
      ],
      "name": "UniversalReceiver",
      "type": "event"
    },
    {
      "anonymous": false,
      "inputs": [
        {
          "indexed": true,
          "internalType": "address",
          "name": "sender",
          "type": "address"
        },
        {
          "indexed": true,
          "internalType": "uint256",
          "name": "value",
          "type": "uint256"
        }
      ],
      "name": "ValueReceived",
      "type": "event"
    },
    {
      "stateMutability": "payable",
      "type": "fallback"
    },
    {
      "inputs": [],
      "name": "RENOUNCE_OWNERSHIP_CONFIRMATION_DELAY",
      "outputs": [
        {
          "internalType": "uint256",
          "name": "",
          "type": "uint256"
        }
      ],
      "stateMutability": "view",
      "type": "function"
    },
    {
      "inputs": [],
      "name": "RENOUNCE_OWNERSHIP_CONFIRMATION_PERIOD",
      "outputs": [
        {
          "internalType": "uint256",
          "name": "",
          "type": "uint256"
        }
      ],
      "stateMutability": "view",
      "type": "function"
    },
    {
      "inputs": [],
      "name": "acceptOwnership",
      "outputs": [],
      "stateMutability": "nonpayable",
      "type": "function"
    },
    {
      "inputs": [
        {
          "internalType": "bytes[]",
          "name": "data",
          "type": "bytes[]"
        }
      ],
      "name": "batchCalls",
      "outputs": [
        {
          "internalType": "bytes[]",
          "name": "results",
          "type": "bytes[]"
        }
      ],
      "stateMutability": "nonpayable",
      "type": "function"
    },
    {
      "inputs": [
        {
          "internalType": "uint256[]",
          "name": "operationsType",
          "type": "uint256[]"
        },
        {
          "internalType": "address[]",
          "name": "targets",
          "type": "address[]"
        },
        {
          "internalType": "uint256[]",
          "name": "values",
          "type": "uint256[]"
        },
        {
          "internalType": "bytes[]",
          "name": "datas",
          "type": "bytes[]"
        }
      ],
      "name": "execute",
      "outputs": [
        {
          "internalType": "bytes[]",
          "name": "",
          "type": "bytes[]"
        }
      ],
      "stateMutability": "payable",
      "type": "function"
    },
    {
      "inputs": [
        {
          "internalType": "uint256",
          "name": "operationType",
          "type": "uint256"
        },
        {
          "internalType": "address",
          "name": "target",
          "type": "address"
        },
        {
          "internalType": "uint256",
          "name": "value",
          "type": "uint256"
        },
        {
          "internalType": "bytes",
          "name": "data",
          "type": "bytes"
        }
      ],
      "name": "execute",
      "outputs": [
        {
          "internalType": "bytes",
          "name": "",
          "type": "bytes"
        }
      ],
      "stateMutability": "payable",
      "type": "function"
    },
    {
      "inputs": [
        {
          "internalType": "bytes32[]",
          "name": "dataKeys",
          "type": "bytes32[]"
        }
      ],
      "name": "getData",
      "outputs": [
        {
          "internalType": "bytes[]",
          "name": "dataValues",
          "type": "bytes[]"
        }
      ],
      "stateMutability": "view",
      "type": "function"
    },
    {
      "inputs": [
        {
          "internalType": "bytes32",
          "name": "dataKey",
          "type": "bytes32"
        }
      ],
      "name": "getData",
      "outputs": [
        {
          "internalType": "bytes",
          "name": "dataValue",
          "type": "bytes"
        }
      ],
      "stateMutability": "view",
      "type": "function"
    },
    {
      "inputs": [
        {
          "internalType": "bytes32",
          "name": "dataHash",
          "type": "bytes32"
        },
        {
          "internalType": "bytes",
          "name": "signature",
          "type": "bytes"
        }
      ],
      "name": "isValidSignature",
      "outputs": [
        {
          "internalType": "bytes4",
          "name": "magicValue",
          "type": "bytes4"
        }
      ],
      "stateMutability": "view",
      "type": "function"
    },
    {
      "inputs": [],
      "name": "owner",
      "outputs": [
        {
          "internalType": "address",
          "name": "",
          "type": "address"
        }
      ],
      "stateMutability": "view",
      "type": "function"
    },
    {
      "inputs": [],
      "name": "pendingOwner",
      "outputs": [
        {
          "internalType": "address",
          "name": "",
          "type": "address"
        }
      ],
      "stateMutability": "view",
      "type": "function"
    },
    {
      "inputs": [],
      "name": "renounceOwnership",
      "outputs": [],
      "stateMutability": "nonpayable",
      "type": "function"
    },
    {
      "inputs": [
        {
          "internalType": "bytes32[]",
          "name": "dataKeys",
          "type": "bytes32[]"
        },
        {
          "internalType": "bytes[]",
          "name": "dataValues",
          "type": "bytes[]"
        }
      ],
      "name": "setData",
      "outputs": [],
      "stateMutability": "payable",
      "type": "function"
    },
    {
      "inputs": [
        {
          "internalType": "bytes32",
          "name": "dataKey",
          "type": "bytes32"
        },
        {
          "internalType": "bytes",
          "name": "dataValue",
          "type": "bytes"
        }
      ],
      "name": "setData",
      "outputs": [],
      "stateMutability": "payable",
      "type": "function"
    },
    {
      "inputs": [
        {
          "internalType": "bytes4",
          "name": "interfaceId",
          "type": "bytes4"
        }
      ],
      "name": "supportsInterface",
      "outputs": [
        {
          "internalType": "bool",
          "name": "",
          "type": "bool"
        }
      ],
      "stateMutability": "view",
      "type": "function"
    },
    {
      "inputs": [
        {
          "internalType": "address",
          "name": "newOwner",
          "type": "address"
        }
      ],
      "name": "transferOwnership",
      "outputs": [],
      "stateMutability": "nonpayable",
      "type": "function"
    },
    {
      "inputs": [
        {
          "internalType": "bytes32",
          "name": "typeId",
          "type": "bytes32"
        },
        {
          "internalType": "bytes",
          "name": "receivedData",
          "type": "bytes"
        }
      ],
      "name": "universalReceiver",
      "outputs": [
        {
          "internalType": "bytes",
          "name": "returnedValues",
          "type": "bytes"
        }
      ],
      "stateMutability": "payable",
      "type": "function"
    },
    {
      "stateMutability": "payable",
      "type": "receive"
    }
  ],
  "bytecode": "0x608060405260405162003507380380620035078339810160408190526200002691620000df565b34156200005b57604051349033907f7e71433ddf847725166244795048ecf3e3f9f35628254ecbf73605666423349390600090a35b62000071816200007860201b620010d61760201c565b5062000111565b6000546001600160a01b03828116911614620000dc57600080546001600160a01b038381166001600160a01b0319831681178455604051919092169283917f8be0079c531659141344cd1fd0a4f28419497f9722a3daafe3b4186f6b6457e09190a3505b50565b600060208284031215620000f257600080fd5b81516001600160a01b03811681146200010a57600080fd5b9392505050565b6133e680620001216000396000f3fe6080604052600436106101125760003560e01c80636963d438116100a55780637f23690c11610074578063e30c397811610059578063e30c39781461035a578063ead3fbdf14610194578063f2fde38b146103785761014d565b80637f23690c146103155780638da5cb5b146103285761014d565b80636963d438146102b85780636bb56a14146102d8578063715018a6146102eb57806379ba5097146103005761014d565b80631626ba7e116100e15780631626ba7e1461021f57806344c028fe146102585780634e3e6e9c1461027857806354f6127f146102985761014d565b806301bfba611461019457806301ffc9a7146101bc57806313ced88d146101ec57806314a6e2931461020c5761014d565b3661014d57341561014b57604051349033907f7e71433ddf847725166244795048ecf3e3f9f35628254ecbf73605666423349390600090a35b005b341561018157604051349033907f7e71433ddf847725166244795048ecf3e3f9f35628254ecbf73605666423349390600090a35b600436101561018c57005b61014b610398565b3480156101a057600080fd5b506101a9606481565b6040519081526020015b60405180910390f35b3480156101c857600080fd5b506101dc6101d73660046128d8565b610466565b60405190151581526020016101b3565b6101ff6101fa366004612aed565b610523565b6040516101b39190612c4d565b61014b61021a366004612caf565b6105da565b34801561022b57600080fd5b5061023f61023a366004612d13565b610730565b6040516001600160e01b031990911681526020016101b3565b61026b610266366004612d50565b6108aa565b6040516101b39190612da5565b34801561028457600080fd5b506101ff610293366004612db8565b61092d565b3480156102a457600080fd5b5061026b6102b3366004612ded565b6109e1565b3480156102c457600080fd5b506101ff6102d3366004612e06565b6109ec565b61026b6102e6366004612e7b565b610b51565b3480156102f757600080fd5b5061014b610d00565b34801561030c57600080fd5b5061014b610d57565b61014b610323366004612d13565b610dec565b34801561033457600080fd5b506000546001600160a01b03165b6040516001600160a01b0390911681526020016101b3565b34801561036657600080fd5b506003546001600160a01b0316610342565b34801561038457600080fd5b5061014b610393366004612ef7565b610e74565b60006103af6000356001600160e01b03191661113b565b90506000356001600160e01b0319161580156103d257506001600160a01b038116155b156103da5750565b6001600160a01b03811661042d576040517fbb370b2b0000000000000000000000000000000000000000000000000000000081526001600160e01b03196000351660048201526024015b60405180910390fd5b36600080373360601b365234601436015260008060343601600080855af13d6000803e80801561045c573d6000f35b3d6000fd5b505050565b60006001600160e01b03198216630b135d3f60e11b14806104b057506001600160e01b031982167f0f15a0af00000000000000000000000000000000000000000000000000000000145b806104cb57506001600160e01b03198216631aed5a8560e21b145b806104ff57506001600160e01b031982167f94be599900000000000000000000000000000000000000000000000000000000145b8061050e575061050e82611193565b8061051d575061051d826111d1565b92915050565b6060341561055957604051349033907f7e71433ddf847725166244795048ecf3e3f9f35628254ecbf73605666423349390600090a35b6000546001600160a01b031633819003610581576105798686868661120e565b9150506105d2565b600061058c8261136c565b9050600061059c8888888861120e565b905081156105cd576105cd83826040516020016105b99190612c4d565b60405160208183030381529060405261153a565b925050505b949350505050565b341561060e57604051349033907f7e71433ddf847725166244795048ecf3e3f9f35628254ecbf73605666423349390600090a35b805182511461065657815181516040517f43a3c26600000000000000000000000000000000000000000000000000000000815260048101929092526024820152604401610424565b6000546001600160a01b0316338190036106c05760005b83518110156106ba576106b284828151811061068b5761068b612f12565b60200260200101518483815181106106a5576106a5612f12565b6020026020010151611696565b60010161066d565b50505050565b60006106cb8261136c565b905060005b8451811015610710576107088582815181106106ee576106ee612f12565b60200260200101518583815181106106a5576106a5612f12565b6001016106d0565b5080156106ba576106ba826040518060200160405280600081525061153a565b6000806107456000546001600160a01b031690565b90506001600160a01b0381163b1561086257600080826001600160a01b0316631626ba7e60e01b878760405160240161077f929190612f28565b60408051601f198184030181529181526020820180516001600160e01b03166001600160e01b03199094169390931790925290516107bd9190612f41565b600060405180830381855afa9150503d80600081146107f8576040519150601f19603f3d011682016040523d82523d6000602084013e6107fd565b606091505b50915091506000828015610812575081516020145b801561083957508151630b135d3f60e11b906108379084016020908101908501612f5d565b145b90508061084e576001600160e01b0319610857565b630b135d3f60e11b5b94505050505061051d565b61086c848461170a565b6001600160a01b0316816001600160a01b031614610892576001600160e01b031961089b565b630b135d3f60e11b5b91505061051d565b5092915050565b606034156108e057604051349033907f7e71433ddf847725166244795048ecf3e3f9f35628254ecbf73605666423349390600090a35b6000546001600160a01b031633819003610900576105798686868661172e565b600061090b8261136c565b9050600061091b8888888861172e565b905081156105cd576105cd838261153a565b6060815167ffffffffffffffff81111561094957610949612902565b60405190808252806020026020018201604052801561097c57816020015b60608152602001906001900390816109675790505b50905060005b82518110156109db576109ad8382815181106109a0576109a0612f12565b6020026020010151611884565b8282815181106109bf576109bf612f12565b60200260200101819052506109d48160010190565b9050610982565b50919050565b606061051d82611884565b60608167ffffffffffffffff811115610a0757610a07612902565b604051908082528060200260200182016040528015610a3a57816020015b6060815260200190600190039081610a255790505b50905060005b828110156108a35760008030868685818110610a5e57610a5e612f12565b9050602002810190610a709190612f76565b604051610a7e929190612fbd565b600060405180830381855af49150503d8060008114610ab9576040519150601f19603f3d011682016040523d82523d6000602084013e610abe565b606091505b509150915081610b2057805115610ad85780518082602001fd5b60405162461bcd60e51b815260206004820152601960248201527f4c5350303a20626174636843616c6c73207265766572746564000000000000006044820152606401610424565b80848481518110610b3357610b33612f12565b60200260200101819052505050610b4a8160010190565b9050610a40565b60603415610b8757604051349033907f7e71433ddf847725166244795048ecf3e3f9f35628254ecbf73605666423349390600090a35b6000610bb27f0cfc51aec37c55a4d0b1a65c6255c4bf2fbdf6277f3cc0730c45b828b6db8b47611884565b905060606014825110610c01576000610bca83612fcd565b60601c9050610be081631aed5a8560e21b611926565b15610bff57610bfc6001600160a01b03821688888833346119af565b91505b505b6000610c2d7f0cfc51aec37c55a4d0b10000000000000000000000000000000000000000000088611af7565b90506000610c3a82611884565b905060606014825110610c89576000610c5283612fcd565b60601c9050610c6881631aed5a8560e21b611926565b15610c8757610c846001600160a01b0382168b8b8b33346119af565b91505b505b8381604051602001610c9c929190613009565b60405160208183030381529060405295508834336001600160a01b03167f9c3ba68eb5742b8e3961aea0afc7371a71bf433c8a67a831803b64c064a178c28b8b8b604051610cec93929190613057565b60405180910390a450505050509392505050565b6000546001600160a01b031633819003610d1f57610d1c611b60565b50565b6000610d2a8261136c565b9050610d34611b60565b8015610d5357610d53826040518060200160405280600081525061153a565b5050565b6000546001600160a01b0316610d6b611c61565b604080516020810190915260008152610db0906001600160a01b038316907fa4e59c931d14f7c8a7a35027f92ee40b5f2886b9fdcdb78f30bc5ecce5a2f81490611cfc565b604080516020810190915260008152610d1c9033907fceca317f109c43507871523e82dc2a3cc64dfa18f12da0b6db14f6e23f99553890611cfc565b3415610e2057604051349033907f7e71433ddf847725166244795048ecf3e3f9f35628254ecbf73605666423349390600090a35b6000546001600160a01b031633819003610e3e576104618383611696565b6000610e498261136c565b9050610e558484611696565b80156106ba576106ba826040518060200160405280600081525061153a565b6000546001600160a01b031633819003610f9957610e9182611d87565b816001600160a01b0316816001600160a01b03167f38d16b8cac22d99fc7c124b9cd0de2d3fa1faef420bfe791d8c362d765e2270060405160405180910390a3604080516020810190915260008152610f16906001600160a01b038416907fe17117c9d2665d1dbeb479ed8058bbebde3c50ac50e2e65619f60006caac692690611cfc565b6000546001600160a01b03828116911614610d535760405162461bcd60e51b815260206004820152603f60248201527f4c535031343a206e65774f776e6572204d55535420616363657074206f776e6560448201527f727368697020696e2061207365706172617465207472616e73616374696f6e006064820152608401610424565b6000610fa48261136c565b9050610faf83611d87565b826001600160a01b0316826001600160a01b03167f38d16b8cac22d99fc7c124b9cd0de2d3fa1faef420bfe791d8c362d765e2270060405160405180910390a3604080516020810190915260008152611034906001600160a01b038516907fe17117c9d2665d1dbeb479ed8058bbebde3c50ac50e2e65619f60006caac692690611cfc565b6000546001600160a01b038381169116146110b75760405162461bcd60e51b815260206004820152603f60248201527f4c535031343a206e65774f776e6572204d55535420616363657074206f776e6560448201527f727368697020696e2061207365706172617465207472616e73616374696f6e006064820152608401610424565b801561046157610461826040518060200160405280600081525061153a565b6000546001600160a01b03828116911614610d1c57600080546001600160a01b038381166001600160a01b0319831681178455604051919092169283917f8be0079c531659141344cd1fd0a4f28419497f9722a3daafe3b4186f6b6457e09190a35050565b6000806111727fcee78b4094da86011096000000000000000000000000000000000000000000006001600160e01b03198516611af7565b9050600061117f82611884565b61118890612fcd565b60601c949350505050565b60006001600160e01b031982167fa918fa6b00000000000000000000000000000000000000000000000000000000148061051d575061051d82611df0565b6000806111e46301ffc9a760e01b61113b565b90506001600160a01b0381166111fd5750600092915050565b6112078184611926565b9392505050565b60608351855114158061122f57508251845114158061122f57508151835114155b15611266576040517f3ff55f4d00000000000000000000000000000000000000000000000000000000815260040160405180910390fd5b6000855167ffffffffffffffff81111561128257611282612902565b6040519080825280602002602001820160405280156112b557816020015b60608152602001906001900390816112a05790505b50905060005b8651811015611362576113348782815181106112d9576112d9612f12565b60200260200101518783815181106112f3576112f3612f12565b602002602001015187848151811061130d5761130d612f12565b602002602001015187858151811061132757611327612f12565b602002602001015161172e565b82828151811061134657611346612f12565b602002602001018190525061135b8160010190565b90506112bb565b5095945050505050565b6000806000836001600160a01b0316639bf04b1160e01b333460003660405160240161139b949392919061307d565b60408051601f198184030181529181526020820180516001600160e01b03166001600160e01b03199094169390931790925290516113d99190612f41565b6000604051808303816000865af19150503d8060008114611416576040519150601f19603f3d011682016040523d82523d6000602084013e61141b565b606091505b50915091508161143057611430600082611e2e565b6020815110156114585760008160405163034223b160e61b81526004016104249291906130a6565b60008180602001905181019061146e9190612f5d565b90507fffffff000000000000000000000000000000000000000000000000000000000081167f9bf04b0000000000000000000000000000000000000000000000000000000000146114d75760008260405163034223b160e61b81526004016104249291906130a6565b7f01000000000000000000000000000000000000000000000000000000000000007fff00000000000000000000000000000000000000000000000000000000000000600383901a60f81b161461152e576000611531565b60015b95945050505050565b600080836001600160a01b031663d3fc45d360e01b333460003660405160200161156794939291906130c1565b604051602081830303815290604052805190602001208560405160240161158f929190612f28565b60408051601f198184030181529181526020820180516001600160e01b03166001600160e01b03199094169390931790925290516115cd9190612f41565b6000604051808303816000865af19150503d806000811461160a576040519150601f19603f3d011682016040523d82523d6000602084013e61160f565b606091505b50915091508161162457611624600182611e2e565b602081511080611673575080517fd3fc45d300000000000000000000000000000000000000000000000000000000906116669083016020908101908401612f5d565b6001600160e01b03191614155b156106ba5760018160405163034223b160e61b81526004016104249291906130a6565b60008281526001602052604090206116ae8282613176565b50817fece574603820d07bc9b91f2a932baadf4628aabcb8afba49776529c14a6104b2610100835111156116ef576116ea836000610100611e74565b6116f1565b825b6040516116fe9190612da5565b60405180910390a25050565b60008060006117198585611f9c565b9150915061172681611fe1565b509392505050565b60608461174757611740848484612146565b90506105d2565b60018503611781576001600160a01b0384161561177757604051631820c12560e11b815260040160405180910390fd5b6117408383612272565b600285036117bb576001600160a01b038416156117b157604051631820c12560e11b815260040160405180910390fd5b611740838361238c565b600385036118055782156117fb576040517f72f2bc6a00000000000000000000000000000000000000000000000000000000815260040160405180910390fd5b6117408483612477565b6004850361184f578215611845576040517f5ac8313500000000000000000000000000000000000000000000000000000000815260040160405180910390fd5b611740848361256d565b6040517f7583b3bc00000000000000000000000000000000000000000000000000000000815260048101869052602401610424565b60008181526001602052604090208054606091906118a1906130f4565b80601f01602080910402602001604051908101604052809291908181526020018280546118cd906130f4565b801561191a5780601f106118ef5761010080835404028352916020019161191a565b820191906000526020600020905b8154815290600101906020018083116118fd57829003601f168201915b50505050509050919050565b604080516001600160e01b03198316602480830191909152825180830390910181526044909101909152602080820180516001600160e01b03166301ffc9a760e01b178152825160009392849283928392918391908a617530fa92503d91506000519050828015611998575060208210155b80156119a45750600081115b979650505050505050565b60606000636bb56a1460e01b8787876040516024016119d093929190613236565b60408051601f19818403018152918152602080830180516001600160e01b03166001600160e01b03199095169490941790935251611a12928791879101613250565b6040516020818303038152906040529050600080896001600160a01b031683604051611a3e9190612f41565b6000604051808303816000865af19150503d8060008114611a7b576040519150601f19603f3d011682016040523d82523d6000602084013e611a80565b606091505b5091509150611ac582826040518060400160405280602081526020017f43616c6c20746f20756e6976657273616c5265636569766572206661696c6564815250612619565b508051600003611ad55780611ae9565b80806020019051810190611ae9919061328f565b9a9950505050505050505050565b604080517fffffffffffffffffffff00000000000000000000000000000000000000000000841660208201526000602a82018190526bffffffffffffffffffffffff198416602c830152918291016040516020818303038152906040529050806105d2906132fd565b6002544390600090611b7490606490613337565b90506000611b83606483613337565b905080831115611bd0576002839055600380546001600160a01b03191690556040517f81b7f830f1f0084db6497c486cbe6974c86488dcc4e3738eab94ab6d6b1653e790600090a1505050565b81831015611c14576040517f8b9bf5070000000000000000000000000000000000000000000000000000000081526004810183905260248101829052604401610424565b611c1e60006110d6565b60006002819055600380546001600160a01b03191690556040517fd1f66c3d2bc1993a86be5e3d33709d98f0442381befcedd29f578b9b2506b1ce9190a1505050565b6003546001600160a01b03163314611ce15760405162461bcd60e51b815260206004820152602560248201527f4c535031343a2063616c6c6572206973206e6f74207468652070656e64696e6760448201527f4f776e65720000000000000000000000000000000000000000000000000000006064820152608401610424565b611cea336110d6565b600380546001600160a01b0319169055565b611d0d83631aed5a8560e21b611926565b1561046157604051631aed5a8560e21b81526001600160a01b03841690636bb56a1490611d409085908590600401612f28565b6000604051808303816000875af1158015611d5f573d6000803e3d6000fd5b505050506040513d6000823e601f3d908101601f191682016040526106ba919081019061328f565b306001600160a01b03821603611dc9576040517f43b248cd00000000000000000000000000000000000000000000000000000000815260040160405180910390fd5b600380546001600160a01b0319166001600160a01b03929092169190911790556000600255565b60006001600160e01b031982167f714df77c00000000000000000000000000000000000000000000000000000000148061051d575061051d82612632565b805115611e3e5780518082602001fd5b6040517f8c6a8ae30000000000000000000000000000000000000000000000000000000081528215156004820152602401610424565b606081611e8281601f613337565b1015611ed05760405162461bcd60e51b815260206004820152600e60248201527f736c6963655f6f766572666c6f770000000000000000000000000000000000006044820152606401610424565b611eda8284613337565b84511015611f2a5760405162461bcd60e51b815260206004820152601160248201527f736c6963655f6f75744f66426f756e64730000000000000000000000000000006044820152606401610424565b606082158015611f495760405191506000825260208201604052611f93565b6040519150601f8416801560200281840101858101878315602002848b0101015b81831015611f82578051835260209283019201611f6a565b5050858452601f01601f1916604052505b50949350505050565b6000808251604103611fd25760208301516040840151606085015160001a611fc687828585612680565b94509450505050611fda565b506000905060025b9250929050565b6000816004811115611ff557611ff561334f565b03611ffd5750565b60018160048111156120115761201161334f565b0361205e5760405162461bcd60e51b815260206004820152601860248201527f45434453413a20696e76616c6964207369676e617475726500000000000000006044820152606401610424565b60028160048111156120725761207261334f565b036120bf5760405162461bcd60e51b815260206004820152601f60248201527f45434453413a20696e76616c6964207369676e6174757265206c656e677468006044820152606401610424565b60038160048111156120d3576120d361334f565b03610d1c5760405162461bcd60e51b815260206004820152602260248201527f45434453413a20696e76616c6964207369676e6174757265202773272076616c60448201527f75650000000000000000000000000000000000000000000000000000000000006064820152608401610424565b606082471015612172576040516301bf351f60e31b815247600482015260248101849052604401610424565b826001600160a01b03851660007f4810874456b8e6487bd861375cf6abd8e1c8bb5858c8ce36a86a04dabfac199e6121a986613365565b6040516001600160e01b0319909116815260200160405180910390a4600080856001600160a01b031685856040516121e19190612f41565b60006040518083038185875af1925050503d806000811461221e576040519150601f19603f3d011682016040523d82523d6000602084013e612223565b606091505b509150915061226882826040518060400160405280601681526020017f455243373235583a20556e6b6e6f776e204572726f7200000000000000000000815250612619565b9695505050505050565b60608247101561229e576040516301bf351f60e31b815247600482015260248101849052604401610424565b81516000036122c05760405163b81cd8d960e01b815260040160405180910390fd5b600082516020840185f090506001600160a01b03811661230c576040517f0b07489b00000000000000000000000000000000000000000000000000000000815260040160405180910390fd5b6040516bffffffffffffffffffffffff19606083901b166020820152603401604051602081830303815290604052915083816001600160a01b031660017fa1fb700aaee2ae4a2ff6f91ce7eba292f89c2f5488b8ec4c5c5c8150692595c36000801b60405161237d91815260200190565b60405180910390a45092915050565b606081516000036123b05760405163b81cd8d960e01b815260040160405180910390fd5b60006123c983602085516123c49190613399565b612744565b905060006123e6846000602087516123e19190613399565b611e74565b905060006123f58684846127aa565b6040516bffffffffffffffffffffffff19606083901b166020820152909150603401604051602081830303815290604052935085816001600160a01b031660027fa1fb700aaee2ae4a2ff6f91ce7eba292f89c2f5488b8ec4c5c5c8150692595c38660405161246691815260200190565b60405180910390a450505092915050565b606060006001600160a01b03841660037f4810874456b8e6487bd861375cf6abd8e1c8bb5858c8ce36a86a04dabfac199e6124b186613365565b6040516001600160e01b0319909116815260200160405180910390a4600080846001600160a01b0316846040516124e89190612f41565b600060405180830381855afa9150503d8060008114612523576040519150601f19603f3d011682016040523d82523d6000602084013e612528565b606091505b509150915061153182826040518060400160405280601681526020017f455243373235583a20556e6b6e6f776e204572726f7200000000000000000000815250612619565b606060006001600160a01b03841660047f4810874456b8e6487bd861375cf6abd8e1c8bb5858c8ce36a86a04dabfac199e6125a786613365565b6040516001600160e01b0319909116815260200160405180910390a4600080846001600160a01b0316846040516125de9190612f41565b600060405180830381855af49150503d8060008114612523576040519150601f19603f3d011682016040523d82523d6000602084013e612528565b60608315612628575081611207565b61120783836128ae565b60006001600160e01b031982167f570ef07300000000000000000000000000000000000000000000000000000000148061051d57506301ffc9a760e01b6001600160e01b031983161461051d565b6000807f7fffffffffffffffffffffffffffffff5d576e7357a4501ddfe92f46681b20a08311156126b7575060009050600361273b565b6040805160008082526020820180845289905260ff881692820192909252606081018690526080810185905260019060a0016020604051602081039080840390855afa15801561270b573d6000803e3d6000fd5b5050604051601f1901519150506001600160a01b0381166127345760006001925092505061273b565b9150600090505b94509492505050565b6000612751826020613337565b835110156127a15760405162461bcd60e51b815260206004820152601560248201527f746f427974657333325f6f75744f66426f756e647300000000000000000000006044820152606401610424565b50016020015190565b6000834710156127fc5760405162461bcd60e51b815260206004820152601d60248201527f437265617465323a20696e73756666696369656e742062616c616e63650000006044820152606401610424565b815160000361284d5760405162461bcd60e51b815260206004820181905260248201527f437265617465323a2062797465636f6465206c656e677468206973207a65726f6044820152606401610424565b8282516020840186f590506001600160a01b0381166112075760405162461bcd60e51b815260206004820152601960248201527f437265617465323a204661696c6564206f6e206465706c6f79000000000000006044820152606401610424565b8151156128be5781518083602001fd5b8060405162461bcd60e51b81526004016104249190612da5565b6000602082840312156128ea57600080fd5b81356001600160e01b03198116811461120757600080fd5b634e487b7160e01b600052604160045260246000fd5b604051601f8201601f1916810167ffffffffffffffff8111828210171561294157612941612902565b604052919050565b600067ffffffffffffffff82111561296357612963612902565b5060051b60200190565b600082601f83011261297e57600080fd5b8135602061299361298e83612949565b612918565b82815260059290921b840181019181810190868411156129b257600080fd5b8286015b848110156129cd57803583529183019183016129b6565b509695505050505050565b80356001600160a01b03811681146129ef57600080fd5b919050565b600067ffffffffffffffff821115612a0e57612a0e612902565b50601f01601f191660200190565b600082601f830112612a2d57600080fd5b8135612a3b61298e826129f4565b818152846020838601011115612a5057600080fd5b816020850160208301376000918101602001919091529392505050565b600082601f830112612a7e57600080fd5b81356020612a8e61298e83612949565b82815260059290921b84018101918181019086841115612aad57600080fd5b8286015b848110156129cd57803567ffffffffffffffff811115612ad15760008081fd5b612adf8986838b0101612a1c565b845250918301918301612ab1565b60008060008060808587031215612b0357600080fd5b843567ffffffffffffffff80821115612b1b57600080fd5b612b278883890161296d565b9550602091508187013581811115612b3e57600080fd5b8701601f81018913612b4f57600080fd5b8035612b5d61298e82612949565b81815260059190911b8201840190848101908b831115612b7c57600080fd5b928501925b82841015612ba157612b92846129d8565b82529285019290850190612b81565b97505050506040870135915080821115612bba57600080fd5b612bc68883890161296d565b93506060870135915080821115612bdc57600080fd5b50612be987828801612a6d565b91505092959194509250565b60005b83811015612c10578181015183820152602001612bf8565b838111156106ba5750506000910152565b60008151808452612c39816020860160208601612bf5565b601f01601f19169290920160200192915050565b6000602080830181845280855180835260408601915060408160051b870101925083870160005b82811015612ca257603f19888603018452612c90858351612c21565b94509285019290850190600101612c74565b5092979650505050505050565b60008060408385031215612cc257600080fd5b823567ffffffffffffffff80821115612cda57600080fd5b612ce68683870161296d565b93506020850135915080821115612cfc57600080fd5b50612d0985828601612a6d565b9150509250929050565b60008060408385031215612d2657600080fd5b82359150602083013567ffffffffffffffff811115612d4457600080fd5b612d0985828601612a1c565b60008060008060808587031215612d6657600080fd5b84359350612d76602086016129d8565b925060408501359150606085013567ffffffffffffffff811115612d9957600080fd5b612be987828801612a1c565b6020815260006112076020830184612c21565b600060208284031215612dca57600080fd5b813567ffffffffffffffff811115612de157600080fd5b6105d28482850161296d565b600060208284031215612dff57600080fd5b5035919050565b60008060208385031215612e1957600080fd5b823567ffffffffffffffff80821115612e3157600080fd5b818501915085601f830112612e4557600080fd5b813581811115612e5457600080fd5b8660208260051b8501011115612e6957600080fd5b60209290920196919550909350505050565b600080600060408486031215612e9057600080fd5b83359250602084013567ffffffffffffffff80821115612eaf57600080fd5b818601915086601f830112612ec357600080fd5b813581811115612ed257600080fd5b876020828501011115612ee457600080fd5b6020830194508093505050509250925092565b600060208284031215612f0957600080fd5b611207826129d8565b634e487b7160e01b600052603260045260246000fd5b8281526040602082015260006105d26040830184612c21565b60008251612f53818460208701612bf5565b9190910192915050565b600060208284031215612f6f57600080fd5b5051919050565b6000808335601e19843603018112612f8d57600080fd5b83018035915067ffffffffffffffff821115612fa857600080fd5b602001915036819003821315611fda57600080fd5b8183823760009101908152919050565b805160208201516bffffffffffffffffffffffff1980821692919060148310156130015780818460140360031b1b83161693505b505050919050565b60408152600061301c6040830185612c21565b82810360208401526115318185612c21565b81835281816020850137506000828201602090810191909152601f909101601f19169091010190565b60408152600061306b60408301858761302e565b82810360208401526122688185612c21565b6001600160a01b038516815283602082015260606040820152600061226860608301848661302e565b82151581526040602082015260006105d26040830184612c21565b6bffffffffffffffffffffffff198560601b16815283601482015281836034830137600091016034019081529392505050565b600181811c9082168061310857607f821691505b6020821081036109db57634e487b7160e01b600052602260045260246000fd5b601f82111561046157600081815260208120601f850160051c8101602086101561314f5750805b601f850160051c820191505b8181101561316e5782815560010161315b565b505050505050565b815167ffffffffffffffff81111561319057613190612902565b6131a48161319e84546130f4565b84613128565b602080601f8311600181146131d957600084156131c15750858301515b600019600386901b1c1916600185901b17855561316e565b600085815260208120601f198616915b82811015613208578886015182559484019460019091019084016131e9565b50858210156132265787850151600019600388901b60f8161c191681555b5050505050600190811b01905550565b83815260406020820152600061153160408301848661302e565b60008451613262818460208901612bf5565b60609490941b6bffffffffffffffffffffffff191691909301908152601481019190915260340192915050565b6000602082840312156132a157600080fd5b815167ffffffffffffffff8111156132b857600080fd5b8201601f810184136132c957600080fd5b80516132d761298e826129f4565b8181528560208385010111156132ec57600080fd5b611531826020830160208601612bf5565b805160208083015191908110156109db5760001960209190910360031b1b16919050565b634e487b7160e01b600052601160045260246000fd5b6000821982111561334a5761334a613321565b500190565b634e487b7160e01b600052602160045260246000fd5b6000815160208301516001600160e01b0319808216935060048310156130015760049290920360031b82901b161692915050565b6000828210156133ab576133ab613321565b50039056fea26469706673582212207b77f419f4b392f99b86adfcfd64b92f4257fdb96a5f73128bda82d61a50b54364736f6c634300080f0033",
  "linkReferences": {},
  "deployedLinkReferences": {}
}