{
  "_format": "hh-sol-artifact-1",
  "contractName": "LSP0ERC725AccountInit",
  "sourceName": "contracts/LSP0ERC725Account/LSP0ERC725AccountInit.sol",
  "abi": [
    {
      "inputs": [],
      "stateMutability": "nonpayable",
      "type": "constructor"
    },
    {
      "inputs": [],
      "name": "CannotTransferOwnershipToSelf",
      "type": "error"
    },
    {
      "inputs": [],
      "name": "ERC725X_ContractDeploymentFailed",
      "type": "error"
    },
    {
      "inputs": [],
      "name": "ERC725X_CreateOperationsRequireEmptyRecipientAddress",
      "type": "error"
    },
    {
      "inputs": [],
      "name": "ERC725X_ExecuteParametersLengthMismatch",
      "type": "error"
    },
    {
      "inputs": [
        {
          "internalType": "uint256",
          "name": "balance",
          "type": "uint256"
        },
        {
          "internalType": "uint256",
          "name": "value",
          "type": "uint256"
        }
      ],
      "name": "ERC725X_InsufficientBalance",
      "type": "error"
    },
    {
      "inputs": [],
      "name": "ERC725X_MsgValueDisallowedInDelegateCall",
      "type": "error"
    },
    {
      "inputs": [],
      "name": "ERC725X_MsgValueDisallowedInStaticCall",
      "type": "error"
    },
    {
      "inputs": [],
      "name": "ERC725X_NoContractBytecodeProvided",
      "type": "error"
    },
    {
      "inputs": [
        {
          "internalType": "uint256",
          "name": "operationTypeProvided",
          "type": "uint256"
        }
      ],
      "name": "ERC725X_UnknownOperationType",
      "type": "error"
    },
    {
      "inputs": [
        {
          "internalType": "uint256",
          "name": "dataKeysLength",
          "type": "uint256"
        },
        {
          "internalType": "uint256",
          "name": "dataValuesLength",
          "type": "uint256"
        }
      ],
      "name": "ERC725Y_DataKeysValuesLengthMismatch",
      "type": "error"
    },
    {
      "inputs": [
        {
          "internalType": "bool",
          "name": "postCall",
          "type": "bool"
        }
      ],
      "name": "LSP20CallingVerifierFailed",
      "type": "error"
    },
    {
      "inputs": [
        {
          "internalType": "bool",
          "name": "postCall",
          "type": "bool"
        },
        {
          "internalType": "bytes",
          "name": "returnedData",
          "type": "bytes"
        }
      ],
      "name": "LSP20InvalidMagicValue",
      "type": "error"
    },
    {
      "inputs": [
        {
          "internalType": "bytes4",
          "name": "functionSelector",
          "type": "bytes4"
        }
      ],
      "name": "NoExtensionFoundForFunctionSelector",
      "type": "error"
    },
    {
      "inputs": [
        {
          "internalType": "uint256",
          "name": "renounceOwnershipStart",
          "type": "uint256"
        },
        {
          "internalType": "uint256",
          "name": "renounceOwnershipEnd",
          "type": "uint256"
        }
      ],
      "name": "NotInRenounceOwnershipInterval",
      "type": "error"
    },
    {
      "anonymous": false,
      "inputs": [
        {
          "indexed": true,
          "internalType": "uint256",
          "name": "operationType",
          "type": "uint256"
        },
        {
          "indexed": true,
          "internalType": "address",
          "name": "contractAddress",
          "type": "address"
        },
        {
          "indexed": true,
          "internalType": "uint256",
          "name": "value",
          "type": "uint256"
        },
        {
          "indexed": false,
          "internalType": "bytes32",
          "name": "salt",
          "type": "bytes32"
        }
      ],
      "name": "ContractCreated",
      "type": "event"
    },
    {
      "anonymous": false,
      "inputs": [
        {
          "indexed": true,
          "internalType": "bytes32",
          "name": "dataKey",
          "type": "bytes32"
        },
        {
          "indexed": false,
          "internalType": "bytes",
          "name": "dataValue",
          "type": "bytes"
        }
      ],
      "name": "DataChanged",
      "type": "event"
    },
    {
      "anonymous": false,
      "inputs": [
        {
          "indexed": true,
          "internalType": "uint256",
          "name": "operationType",
          "type": "uint256"
        },
        {
          "indexed": true,
          "internalType": "address",
          "name": "target",
          "type": "address"
        },
        {
          "indexed": true,
          "internalType": "uint256",
          "name": "value",
          "type": "uint256"
        },
        {
          "indexed": false,
          "internalType": "bytes4",
          "name": "selector",
          "type": "bytes4"
        }
      ],
      "name": "Executed",
      "type": "event"
    },
    {
      "anonymous": false,
      "inputs": [
        {
          "indexed": false,
          "internalType": "uint8",
          "name": "version",
          "type": "uint8"
        }
      ],
      "name": "Initialized",
      "type": "event"
    },
    {
      "anonymous": false,
      "inputs": [],
      "name": "OwnershipRenounced",
      "type": "event"
    },
    {
      "anonymous": false,
      "inputs": [
        {
          "indexed": true,
          "internalType": "address",
          "name": "previousOwner",
          "type": "address"
        },
        {
          "indexed": true,
          "internalType": "address",
          "name": "newOwner",
          "type": "address"
        }
      ],
      "name": "OwnershipTransferStarted",
      "type": "event"
    },
    {
      "anonymous": false,
      "inputs": [
        {
          "indexed": true,
          "internalType": "address",
          "name": "previousOwner",
          "type": "address"
        },
        {
          "indexed": true,
          "internalType": "address",
          "name": "newOwner",
          "type": "address"
        }
      ],
      "name": "OwnershipTransferred",
      "type": "event"
    },
    {
      "anonymous": false,
      "inputs": [],
      "name": "RenounceOwnershipStarted",
      "type": "event"
    },
    {
      "anonymous": false,
      "inputs": [
        {
          "indexed": true,
          "internalType": "address",
          "name": "from",
          "type": "address"
        },
        {
          "indexed": true,
          "internalType": "uint256",
          "name": "value",
          "type": "uint256"
        },
        {
          "indexed": true,
          "internalType": "bytes32",
          "name": "typeId",
          "type": "bytes32"
        },
        {
          "indexed": false,
          "internalType": "bytes",
          "name": "receivedData",
          "type": "bytes"
        },
        {
          "indexed": false,
          "internalType": "bytes",
          "name": "returnedValue",
          "type": "bytes"
        }
      ],
      "name": "UniversalReceiver",
      "type": "event"
    },
    {
      "anonymous": false,
      "inputs": [
        {
          "indexed": true,
          "internalType": "address",
          "name": "sender",
          "type": "address"
        },
        {
          "indexed": true,
          "internalType": "uint256",
          "name": "value",
          "type": "uint256"
        }
      ],
      "name": "ValueReceived",
      "type": "event"
    },
    {
      "stateMutability": "payable",
      "type": "fallback"
    },
    {
      "inputs": [],
      "name": "RENOUNCE_OWNERSHIP_CONFIRMATION_DELAY",
      "outputs": [
        {
          "internalType": "uint256",
          "name": "",
          "type": "uint256"
        }
      ],
      "stateMutability": "view",
      "type": "function"
    },
    {
      "inputs": [],
      "name": "RENOUNCE_OWNERSHIP_CONFIRMATION_PERIOD",
      "outputs": [
        {
          "internalType": "uint256",
          "name": "",
          "type": "uint256"
        }
      ],
      "stateMutability": "view",
      "type": "function"
    },
    {
      "inputs": [],
      "name": "acceptOwnership",
      "outputs": [],
      "stateMutability": "nonpayable",
      "type": "function"
    },
    {
      "inputs": [
        {
          "internalType": "bytes[]",
          "name": "data",
          "type": "bytes[]"
        }
      ],
      "name": "batchCalls",
      "outputs": [
        {
          "internalType": "bytes[]",
          "name": "results",
          "type": "bytes[]"
        }
      ],
      "stateMutability": "nonpayable",
      "type": "function"
    },
    {
      "inputs": [
        {
          "internalType": "uint256[]",
          "name": "operationsType",
          "type": "uint256[]"
        },
        {
          "internalType": "address[]",
          "name": "targets",
          "type": "address[]"
        },
        {
          "internalType": "uint256[]",
          "name": "values",
          "type": "uint256[]"
        },
        {
          "internalType": "bytes[]",
          "name": "datas",
          "type": "bytes[]"
        }
      ],
      "name": "execute",
      "outputs": [
        {
          "internalType": "bytes[]",
          "name": "",
          "type": "bytes[]"
        }
      ],
      "stateMutability": "payable",
      "type": "function"
    },
    {
      "inputs": [
        {
          "internalType": "uint256",
          "name": "operationType",
          "type": "uint256"
        },
        {
          "internalType": "address",
          "name": "target",
          "type": "address"
        },
        {
          "internalType": "uint256",
          "name": "value",
          "type": "uint256"
        },
        {
          "internalType": "bytes",
          "name": "data",
          "type": "bytes"
        }
      ],
      "name": "execute",
      "outputs": [
        {
          "internalType": "bytes",
          "name": "",
          "type": "bytes"
        }
      ],
      "stateMutability": "payable",
      "type": "function"
    },
    {
      "inputs": [
        {
          "internalType": "bytes32[]",
          "name": "dataKeys",
          "type": "bytes32[]"
        }
      ],
      "name": "getData",
      "outputs": [
        {
          "internalType": "bytes[]",
          "name": "dataValues",
          "type": "bytes[]"
        }
      ],
      "stateMutability": "view",
      "type": "function"
    },
    {
      "inputs": [
        {
          "internalType": "bytes32",
          "name": "dataKey",
          "type": "bytes32"
        }
      ],
      "name": "getData",
      "outputs": [
        {
          "internalType": "bytes",
          "name": "dataValue",
          "type": "bytes"
        }
      ],
      "stateMutability": "view",
      "type": "function"
    },
    {
      "inputs": [
        {
          "internalType": "address",
          "name": "newOwner",
          "type": "address"
        }
      ],
      "name": "initialize",
      "outputs": [],
      "stateMutability": "payable",
      "type": "function"
    },
    {
      "inputs": [
        {
          "internalType": "bytes32",
          "name": "dataHash",
          "type": "bytes32"
        },
        {
          "internalType": "bytes",
          "name": "signature",
          "type": "bytes"
        }
      ],
      "name": "isValidSignature",
      "outputs": [
        {
          "internalType": "bytes4",
          "name": "magicValue",
          "type": "bytes4"
        }
      ],
      "stateMutability": "view",
      "type": "function"
    },
    {
      "inputs": [],
      "name": "owner",
      "outputs": [
        {
          "internalType": "address",
          "name": "",
          "type": "address"
        }
      ],
      "stateMutability": "view",
      "type": "function"
    },
    {
      "inputs": [],
      "name": "pendingOwner",
      "outputs": [
        {
          "internalType": "address",
          "name": "",
          "type": "address"
        }
      ],
      "stateMutability": "view",
      "type": "function"
    },
    {
      "inputs": [],
      "name": "renounceOwnership",
      "outputs": [],
      "stateMutability": "nonpayable",
      "type": "function"
    },
    {
      "inputs": [
        {
          "internalType": "bytes32[]",
          "name": "dataKeys",
          "type": "bytes32[]"
        },
        {
          "internalType": "bytes[]",
          "name": "dataValues",
          "type": "bytes[]"
        }
      ],
      "name": "setData",
      "outputs": [],
      "stateMutability": "payable",
      "type": "function"
    },
    {
      "inputs": [
        {
          "internalType": "bytes32",
          "name": "dataKey",
          "type": "bytes32"
        },
        {
          "internalType": "bytes",
          "name": "dataValue",
          "type": "bytes"
        }
      ],
      "name": "setData",
      "outputs": [],
      "stateMutability": "payable",
      "type": "function"
    },
    {
      "inputs": [
        {
          "internalType": "bytes4",
          "name": "interfaceId",
          "type": "bytes4"
        }
      ],
      "name": "supportsInterface",
      "outputs": [
        {
          "internalType": "bool",
          "name": "",
          "type": "bool"
        }
      ],
      "stateMutability": "view",
      "type": "function"
    },
    {
      "inputs": [
        {
          "internalType": "address",
          "name": "newOwner",
          "type": "address"
        }
      ],
      "name": "transferOwnership",
      "outputs": [],
      "stateMutability": "nonpayable",
      "type": "function"
    },
    {
      "inputs": [
        {
          "internalType": "bytes32",
          "name": "typeId",
          "type": "bytes32"
        },
        {
          "internalType": "bytes",
          "name": "receivedData",
          "type": "bytes"
        }
      ],
      "name": "universalReceiver",
      "outputs": [
        {
          "internalType": "bytes",
          "name": "returnedValues",
          "type": "bytes"
        }
      ],
      "stateMutability": "payable",
      "type": "function"
    },
    {
      "stateMutability": "payable",
      "type": "receive"
    }
  ],
  "bytecode": "0x60806040523480156200001157600080fd5b506200001c62000022565b620000e4565b600054610100900460ff16156200008f5760405162461bcd60e51b815260206004820152602760248201527f496e697469616c697a61626c653a20636f6e747261637420697320696e697469604482015266616c697a696e6760c81b606482015260840160405180910390fd5b60005460ff9081161015620000e2576000805460ff191660ff9081179091556040519081527f7f26b83ff96e1f2b6a682f133852f6798a09c465da95921460cefb38474024989060200160405180910390a15b565b61367980620000f46000396000f3fe60806040526004361061012d5760003560e01c80636bb56a14116100a55780638da5cb5b11610074578063e30c397811610059578063e30c39781461038e578063ead3fbdf146101af578063f2fde38b146103ac57610168565b80638da5cb5b14610343578063c4d66de81461037b57610168565b80636bb56a14146102f3578063715018a61461030657806379ba50971461031b5780637f23690c1461033057610168565b80631626ba7e116100fc5780634e3e6e9c116100e15780634e3e6e9c1461029357806354f6127f146102b35780636963d438146102d357610168565b80631626ba7e1461023a57806344c028fe1461027357610168565b806301bfba61146101af57806301ffc9a7146101d757806313ced88d1461020757806314a6e2931461022757610168565b3661016857341561016657604051349033907f7e71433ddf847725166244795048ecf3e3f9f35628254ecbf73605666423349390600090a35b005b341561019c57604051349033907f7e71433ddf847725166244795048ecf3e3f9f35628254ecbf73605666423349390600090a35b60043610156101a757005b6101666103cc565b3480156101bb57600080fd5b506101c4606481565b6040519081526020015b60405180910390f35b3480156101e357600080fd5b506101f76101f2366004612b6b565b61049a565b60405190151581526020016101ce565b61021a610215366004612d80565b610557565b6040516101ce9190612ee0565b610166610235366004612f42565b610614565b34801561024657600080fd5b5061025a610255366004612fa6565b610770565b6040516001600160e01b031990911681526020016101ce565b610286610281366004612fe3565b6108dd565b6040516101ce9190613038565b34801561029f57600080fd5b5061021a6102ae36600461304b565b610966565b3480156102bf57600080fd5b506102866102ce366004613080565b610a1a565b3480156102df57600080fd5b5061021a6102ee366004613099565b610a25565b61028661030136600461310e565b610b8a565b34801561031257600080fd5b50610166610d39565b34801561032757600080fd5b50610166610d96565b61016661033e366004612fa6565b610e31565b34801561034f57600080fd5b506000546201000090046001600160a01b03165b6040516001600160a01b0390911681526020016101ce565b61016661038936600461318a565b610ebf565b34801561039a57600080fd5b506003546001600160a01b0316610363565b3480156103b857600080fd5b506101666103c736600461318a565b610fe0565b60006103e36000356001600160e01b031916611254565b90506000356001600160e01b03191615801561040657506001600160a01b038116155b1561040e5750565b6001600160a01b038116610461576040517fbb370b2b0000000000000000000000000000000000000000000000000000000081526001600160e01b03196000351660048201526024015b60405180910390fd5b36600080373360601b365234601436015260008060343601600080855af13d6000803e808015610490573d6000f35b3d6000fd5b505050565b60006001600160e01b03198216630b135d3f60e11b14806104e457506001600160e01b031982167f0f15a0af00000000000000000000000000000000000000000000000000000000145b806104ff57506001600160e01b03198216631aed5a8560e21b145b8061053357506001600160e01b031982167f94be599900000000000000000000000000000000000000000000000000000000145b806105425750610542826112ac565b806105515750610551826112ea565b92915050565b6060341561058d57604051349033907f7e71433ddf847725166244795048ecf3e3f9f35628254ecbf73605666423349390600090a35b6000546201000090046001600160a01b0316338190036105bb576105b386868686611327565b91505061060c565b60006105c682611485565b905060006105d688888888611327565b905081156106075761060783826040516020016105f39190612ee0565b604051602081830303815290604052611653565b925050505b949350505050565b341561064857604051349033907f7e71433ddf847725166244795048ecf3e3f9f35628254ecbf73605666423349390600090a35b805182511461069057815181516040517f43a3c26600000000000000000000000000000000000000000000000000000000815260048101929092526024820152604401610458565b6000546201000090046001600160a01b0316338190036107005760005b83518110156106fa576106f28482815181106106cb576106cb6131a5565b60200260200101518483815181106106e5576106e56131a5565b60200260200101516117af565b6001016106ad565b50505050565b600061070b82611485565b905060005b84518110156107505761074885828151811061072e5761072e6131a5565b60200260200101518583815181106106e5576106e56131a5565b600101610710565b5080156106fa576106fa8260405180602001604052806000815250611653565b600080546201000090046001600160a01b0316803b1561089557600080826001600160a01b0316631626ba7e60e01b87876040516024016107b29291906131bb565b60408051601f198184030181529181526020820180516001600160e01b03166001600160e01b03199094169390931790925290516107f091906131d4565b600060405180830381855afa9150503d806000811461082b576040519150601f19603f3d011682016040523d82523d6000602084013e610830565b606091505b50915091506000828015610845575081516020145b801561086c57508151630b135d3f60e11b9061086a90840160209081019085016131f0565b145b905080610881576001600160e01b031961088a565b630b135d3f60e11b5b945050505050610551565b61089f8484611823565b6001600160a01b0316816001600160a01b0316146108c5576001600160e01b03196108ce565b630b135d3f60e11b5b915050610551565b5092915050565b6060341561091357604051349033907f7e71433ddf847725166244795048ecf3e3f9f35628254ecbf73605666423349390600090a35b6000546201000090046001600160a01b031633819003610939576105b386868686611847565b600061094482611485565b9050600061095488888888611847565b90508115610607576106078382611653565b6060815167ffffffffffffffff81111561098257610982612b95565b6040519080825280602002602001820160405280156109b557816020015b60608152602001906001900390816109a05790505b50905060005b8251811015610a14576109e68382815181106109d9576109d96131a5565b602002602001015161199d565b8282815181106109f8576109f86131a5565b6020026020010181905250610a0d8160010190565b90506109bb565b50919050565b60606105518261199d565b60608167ffffffffffffffff811115610a4057610a40612b95565b604051908082528060200260200182016040528015610a7357816020015b6060815260200190600190039081610a5e5790505b50905060005b828110156108d65760008030868685818110610a9757610a976131a5565b9050602002810190610aa99190613209565b604051610ab7929190613250565b600060405180830381855af49150503d8060008114610af2576040519150601f19603f3d011682016040523d82523d6000602084013e610af7565b606091505b509150915081610b5957805115610b115780518082602001fd5b60405162461bcd60e51b815260206004820152601960248201527f4c5350303a20626174636843616c6c73207265766572746564000000000000006044820152606401610458565b80848481518110610b6c57610b6c6131a5565b60200260200101819052505050610b838160010190565b9050610a79565b60603415610bc057604051349033907f7e71433ddf847725166244795048ecf3e3f9f35628254ecbf73605666423349390600090a35b6000610beb7f0cfc51aec37c55a4d0b1a65c6255c4bf2fbdf6277f3cc0730c45b828b6db8b4761199d565b905060606014825110610c3a576000610c0383613260565b60601c9050610c1981631aed5a8560e21b611a3f565b15610c3857610c356001600160a01b0382168888883334611ac8565b91505b505b6000610c667f0cfc51aec37c55a4d0b10000000000000000000000000000000000000000000088611c10565b90506000610c738261199d565b905060606014825110610cc2576000610c8b83613260565b60601c9050610ca181631aed5a8560e21b611a3f565b15610cc057610cbd6001600160a01b0382168b8b8b3334611ac8565b91505b505b8381604051602001610cd592919061329c565b60405160208183030381529060405295508834336001600160a01b03167f9c3ba68eb5742b8e3961aea0afc7371a71bf433c8a67a831803b64c064a178c28b8b8b604051610d25939291906132ea565b60405180910390a450505050509392505050565b6000546201000090046001600160a01b031633819003610d5e57610d5b611c79565b50565b6000610d6982611485565b9050610d73611c79565b8015610d9257610d928260405180602001604052806000815250611653565b5050565b6000546201000090046001600160a01b0316610db0611d94565b604080516020810190915260008152610df5906001600160a01b038316907fa4e59c931d14f7c8a7a35027f92ee40b5f2886b9fdcdb78f30bc5ecce5a2f81490611e3c565b604080516020810190915260008152610d5b9033907fceca317f109c43507871523e82dc2a3cc64dfa18f12da0b6db14f6e23f99553890611e3c565b3415610e6557604051349033907f7e71433ddf847725166244795048ecf3e3f9f35628254ecbf73605666423349390600090a35b6000546201000090046001600160a01b031633819003610e895761049583836117af565b6000610e9482611485565b9050610ea084846117af565b80156106fa576106fa8260405180602001604052806000815250611653565b600054610100900460ff1615808015610edf5750600054600160ff909116105b80610ef95750303b158015610ef9575060005460ff166001145b610f6b5760405162461bcd60e51b815260206004820152602e60248201527f496e697469616c697a61626c653a20636f6e747261637420697320616c72656160448201527f647920696e697469616c697a65640000000000000000000000000000000000006064820152608401610458565b6000805460ff191660011790558015610f8e576000805461ff0019166101001790555b610f9782611ec7565b8015610d92576000805461ff0019169055604051600181527f7f26b83ff96e1f2b6a682f133852f6798a09c465da95921460cefb38474024989060200160405180910390a15050565b6000546201000090046001600160a01b0316338190036111115761100382611f81565b816001600160a01b0316816001600160a01b03167f38d16b8cac22d99fc7c124b9cd0de2d3fa1faef420bfe791d8c362d765e2270060405160405180910390a3604080516020810190915260008152611088906001600160a01b038416907fe17117c9d2665d1dbeb479ed8058bbebde3c50ac50e2e65619f60006caac692690611e3c565b6000546001600160a01b03828116620100009092041614610d925760405162461bcd60e51b815260206004820152603f60248201527f4c535031343a206e65774f776e6572204d55535420616363657074206f776e6560448201527f727368697020696e2061207365706172617465207472616e73616374696f6e006064820152608401610458565b600061111c82611485565b905061112783611f81565b826001600160a01b0316826001600160a01b03167f38d16b8cac22d99fc7c124b9cd0de2d3fa1faef420bfe791d8c362d765e2270060405160405180910390a36040805160208101909152600081526111ac906001600160a01b038516907fe17117c9d2665d1dbeb479ed8058bbebde3c50ac50e2e65619f60006caac692690611e3c565b6000546001600160a01b038381166201000090920416146112355760405162461bcd60e51b815260206004820152603f60248201527f4c535031343a206e65774f776e6572204d55535420616363657074206f776e6560448201527f727368697020696e2061207365706172617465207472616e73616374696f6e006064820152608401610458565b8015610495576104958260405180602001604052806000815250611653565b60008061128b7fcee78b4094da86011096000000000000000000000000000000000000000000006001600160e01b03198516611c10565b905060006112988261199d565b6112a190613260565b60601c949350505050565b60006001600160e01b031982167fa918fa6b000000000000000000000000000000000000000000000000000000001480610551575061055182611ff7565b6000806112fd6301ffc9a760e01b611254565b90506001600160a01b0381166113165750600092915050565b6113208184611a3f565b9392505050565b60608351855114158061134857508251845114158061134857508151835114155b1561137f576040517f3ff55f4d00000000000000000000000000000000000000000000000000000000815260040160405180910390fd5b6000855167ffffffffffffffff81111561139b5761139b612b95565b6040519080825280602002602001820160405280156113ce57816020015b60608152602001906001900390816113b95790505b50905060005b865181101561147b5761144d8782815181106113f2576113f26131a5565b602002602001015187838151811061140c5761140c6131a5565b6020026020010151878481518110611426576114266131a5565b6020026020010151878581518110611440576114406131a5565b6020026020010151611847565b82828151811061145f5761145f6131a5565b60200260200101819052506114748160010190565b90506113d4565b5095945050505050565b6000806000836001600160a01b0316639bf04b1160e01b33346000366040516024016114b49493929190613310565b60408051601f198184030181529181526020820180516001600160e01b03166001600160e01b03199094169390931790925290516114f291906131d4565b6000604051808303816000865af19150503d806000811461152f576040519150601f19603f3d011682016040523d82523d6000602084013e611534565b606091505b50915091508161154957611549600082612035565b6020815110156115715760008160405163034223b160e61b8152600401610458929190613339565b60008180602001905181019061158791906131f0565b90507fffffff000000000000000000000000000000000000000000000000000000000081167f9bf04b0000000000000000000000000000000000000000000000000000000000146115f05760008260405163034223b160e61b8152600401610458929190613339565b7f01000000000000000000000000000000000000000000000000000000000000007fff00000000000000000000000000000000000000000000000000000000000000600383901a60f81b161461164757600061164a565b60015b95945050505050565b600080836001600160a01b031663d3fc45d360e01b33346000366040516020016116809493929190613354565b60405160208183030381529060405280519060200120856040516024016116a89291906131bb565b60408051601f198184030181529181526020820180516001600160e01b03166001600160e01b03199094169390931790925290516116e691906131d4565b6000604051808303816000865af19150503d8060008114611723576040519150601f19603f3d011682016040523d82523d6000602084013e611728565b606091505b50915091508161173d5761173d600182612035565b60208151108061178c575080517fd3fc45d3000000000000000000000000000000000000000000000000000000009061177f90830160209081019084016131f0565b6001600160e01b03191614155b156106fa5760018160405163034223b160e61b8152600401610458929190613339565b60008281526001602052604090206117c78282613409565b50817fece574603820d07bc9b91f2a932baadf4628aabcb8afba49776529c14a6104b2610100835111156118085761180383600061010061207b565b61180a565b825b6040516118179190613038565b60405180910390a25050565b600080600061183285856121a3565b9150915061183f816121e8565b509392505050565b6060846118605761185984848461234d565b905061060c565b6001850361189a576001600160a01b0384161561189057604051631820c12560e11b815260040160405180910390fd5b6118598383612479565b600285036118d4576001600160a01b038416156118ca57604051631820c12560e11b815260040160405180910390fd5b6118598383612593565b6003850361191e578215611914576040517f72f2bc6a00000000000000000000000000000000000000000000000000000000815260040160405180910390fd5b611859848361267e565b6004850361196857821561195e576040517f5ac8313500000000000000000000000000000000000000000000000000000000815260040160405180910390fd5b6118598483612774565b6040517f7583b3bc00000000000000000000000000000000000000000000000000000000815260048101869052602401610458565b60008181526001602052604090208054606091906119ba90613387565b80601f01602080910402602001604051908101604052809291908181526020018280546119e690613387565b8015611a335780601f10611a0857610100808354040283529160200191611a33565b820191906000526020600020905b815481529060010190602001808311611a1657829003601f168201915b50505050509050919050565b604080516001600160e01b03198316602480830191909152825180830390910181526044909101909152602080820180516001600160e01b03166301ffc9a760e01b178152825160009392849283928392918391908a617530fa92503d91506000519050828015611ab1575060208210155b8015611abd5750600081115b979650505050505050565b60606000636bb56a1460e01b878787604051602401611ae9939291906134c9565b60408051601f19818403018152918152602080830180516001600160e01b03166001600160e01b03199095169490941790935251611b2b9287918791016134e3565b6040516020818303038152906040529050600080896001600160a01b031683604051611b5791906131d4565b6000604051808303816000865af19150503d8060008114611b94576040519150601f19603f3d011682016040523d82523d6000602084013e611b99565b606091505b5091509150611bde82826040518060400160405280602081526020017f43616c6c20746f20756e6976657273616c5265636569766572206661696c6564815250612820565b508051600003611bee5780611c02565b80806020019051810190611c029190613522565b9a9950505050505050505050565b604080517fffffffffffffffffffff00000000000000000000000000000000000000000000841660208201526000602a82018190526bffffffffffffffffffffffff198416602c8301529182910160405160208183030381529060405290508061060c90613590565b6002544390600090611c8d906064906135ca565b90506000611c9c6064836135ca565b905080831115611cf65760028390556003805473ffffffffffffffffffffffffffffffffffffffff191690556040517f81b7f830f1f0084db6497c486cbe6974c86488dcc4e3738eab94ab6d6b1653e790600090a1505050565b81831015611d3a576040517f8b9bf5070000000000000000000000000000000000000000000000000000000081526004810183905260248101829052604401610458565b611d446000612839565b600060028190556003805473ffffffffffffffffffffffffffffffffffffffff191690556040517fd1f66c3d2bc1993a86be5e3d33709d98f0442381befcedd29f578b9b2506b1ce9190a1505050565b6003546001600160a01b03163314611e145760405162461bcd60e51b815260206004820152602560248201527f4c535031343a2063616c6c6572206973206e6f74207468652070656e64696e6760448201527f4f776e65720000000000000000000000000000000000000000000000000000006064820152608401610458565b611e1d33612839565b6003805473ffffffffffffffffffffffffffffffffffffffff19169055565b611e4d83631aed5a8560e21b611a3f565b1561049557604051631aed5a8560e21b81526001600160a01b03841690636bb56a1490611e8090859085906004016131bb565b6000604051808303816000875af1158015611e9f573d6000803e3d6000fd5b505050506040513d6000823e601f3d908101601f191682016040526106fa9190810190613522565b600054610100900460ff16611f445760405162461bcd60e51b815260206004820152602b60248201527f496e697469616c697a61626c653a20636f6e7472616374206973206e6f74206960448201527f6e697469616c697a696e670000000000000000000000000000000000000000006064820152608401610458565b3415611f7857604051349033907f7e71433ddf847725166244795048ecf3e3f9f35628254ecbf73605666423349390600090a35b610d5b81612839565b306001600160a01b03821603611fc3576040517f43b248cd00000000000000000000000000000000000000000000000000000000815260040160405180910390fd5b6003805473ffffffffffffffffffffffffffffffffffffffff19166001600160a01b03929092169190911790556000600255565b60006001600160e01b031982167f714df77c0000000000000000000000000000000000000000000000000000000014806105515750610551826128c5565b8051156120455780518082602001fd5b6040517f8c6a8ae30000000000000000000000000000000000000000000000000000000081528215156004820152602401610458565b60608161208981601f6135ca565b10156120d75760405162461bcd60e51b815260206004820152600e60248201527f736c6963655f6f766572666c6f770000000000000000000000000000000000006044820152606401610458565b6120e182846135ca565b845110156121315760405162461bcd60e51b815260206004820152601160248201527f736c6963655f6f75744f66426f756e64730000000000000000000000000000006044820152606401610458565b606082158015612150576040519150600082526020820160405261219a565b6040519150601f8416801560200281840101858101878315602002848b0101015b81831015612189578051835260209283019201612171565b5050858452601f01601f1916604052505b50949350505050565b60008082516041036121d95760208301516040840151606085015160001a6121cd87828585612913565b945094505050506121e1565b506000905060025b9250929050565b60008160048111156121fc576121fc6135e2565b036122045750565b6001816004811115612218576122186135e2565b036122655760405162461bcd60e51b815260206004820152601860248201527f45434453413a20696e76616c6964207369676e617475726500000000000000006044820152606401610458565b6002816004811115612279576122796135e2565b036122c65760405162461bcd60e51b815260206004820152601f60248201527f45434453413a20696e76616c6964207369676e6174757265206c656e677468006044820152606401610458565b60038160048111156122da576122da6135e2565b03610d5b5760405162461bcd60e51b815260206004820152602260248201527f45434453413a20696e76616c6964207369676e6174757265202773272076616c60448201527f75650000000000000000000000000000000000000000000000000000000000006064820152608401610458565b606082471015612379576040516301bf351f60e31b815247600482015260248101849052604401610458565b826001600160a01b03851660007f4810874456b8e6487bd861375cf6abd8e1c8bb5858c8ce36a86a04dabfac199e6123b0866135f8565b6040516001600160e01b0319909116815260200160405180910390a4600080856001600160a01b031685856040516123e891906131d4565b60006040518083038185875af1925050503d8060008114612425576040519150601f19603f3d011682016040523d82523d6000602084013e61242a565b606091505b509150915061246f82826040518060400160405280601681526020017f455243373235583a20556e6b6e6f776e204572726f7200000000000000000000815250612820565b9695505050505050565b6060824710156124a5576040516301bf351f60e31b815247600482015260248101849052604401610458565b81516000036124c75760405163b81cd8d960e01b815260040160405180910390fd5b600082516020840185f090506001600160a01b038116612513576040517f0b07489b00000000000000000000000000000000000000000000000000000000815260040160405180910390fd5b6040516bffffffffffffffffffffffff19606083901b166020820152603401604051602081830303815290604052915083816001600160a01b031660017fa1fb700aaee2ae4a2ff6f91ce7eba292f89c2f5488b8ec4c5c5c8150692595c36000801b60405161258491815260200190565b60405180910390a45092915050565b606081516000036125b75760405163b81cd8d960e01b815260040160405180910390fd5b60006125d083602085516125cb919061362c565b6129d7565b905060006125ed846000602087516125e8919061362c565b61207b565b905060006125fc868484612a3d565b6040516bffffffffffffffffffffffff19606083901b166020820152909150603401604051602081830303815290604052935085816001600160a01b031660027fa1fb700aaee2ae4a2ff6f91ce7eba292f89c2f5488b8ec4c5c5c8150692595c38660405161266d91815260200190565b60405180910390a450505092915050565b606060006001600160a01b03841660037f4810874456b8e6487bd861375cf6abd8e1c8bb5858c8ce36a86a04dabfac199e6126b8866135f8565b6040516001600160e01b0319909116815260200160405180910390a4600080846001600160a01b0316846040516126ef91906131d4565b600060405180830381855afa9150503d806000811461272a576040519150601f19603f3d011682016040523d82523d6000602084013e61272f565b606091505b509150915061164a82826040518060400160405280601681526020017f455243373235583a20556e6b6e6f776e204572726f7200000000000000000000815250612820565b606060006001600160a01b03841660047f4810874456b8e6487bd861375cf6abd8e1c8bb5858c8ce36a86a04dabfac199e6127ae866135f8565b6040516001600160e01b0319909116815260200160405180910390a4600080846001600160a01b0316846040516127e591906131d4565b600060405180830381855af49150503d806000811461272a576040519150601f19603f3d011682016040523d82523d6000602084013e61272f565b6060831561282f575081611320565b6113208383612b41565b6000546001600160a01b03828116620100009092041614610d5b57600080546001600160a01b03838116620100008181027fffffffffffffffffffff0000000000000000000000000000000000000000ffff851617855560405193049190911692909183917f8be0079c531659141344cd1fd0a4f28419497f9722a3daafe3b4186f6b6457e091a35050565b60006001600160e01b031982167f570ef07300000000000000000000000000000000000000000000000000000000148061055157506301ffc9a760e01b6001600160e01b0319831614610551565b6000807f7fffffffffffffffffffffffffffffff5d576e7357a4501ddfe92f46681b20a083111561294a57506000905060036129ce565b6040805160008082526020820180845289905260ff881692820192909252606081018690526080810185905260019060a0016020604051602081039080840390855afa15801561299e573d6000803e3d6000fd5b5050604051601f1901519150506001600160a01b0381166129c7576000600192509250506129ce565b9150600090505b94509492505050565b60006129e48260206135ca565b83511015612a345760405162461bcd60e51b815260206004820152601560248201527f746f427974657333325f6f75744f66426f756e647300000000000000000000006044820152606401610458565b50016020015190565b600083471015612a8f5760405162461bcd60e51b815260206004820152601d60248201527f437265617465323a20696e73756666696369656e742062616c616e63650000006044820152606401610458565b8151600003612ae05760405162461bcd60e51b815260206004820181905260248201527f437265617465323a2062797465636f6465206c656e677468206973207a65726f6044820152606401610458565b8282516020840186f590506001600160a01b0381166113205760405162461bcd60e51b815260206004820152601960248201527f437265617465323a204661696c6564206f6e206465706c6f79000000000000006044820152606401610458565b815115612b515781518083602001fd5b8060405162461bcd60e51b81526004016104589190613038565b600060208284031215612b7d57600080fd5b81356001600160e01b03198116811461132057600080fd5b634e487b7160e01b600052604160045260246000fd5b604051601f8201601f1916810167ffffffffffffffff81118282101715612bd457612bd4612b95565b604052919050565b600067ffffffffffffffff821115612bf657612bf6612b95565b5060051b60200190565b600082601f830112612c1157600080fd5b81356020612c26612c2183612bdc565b612bab565b82815260059290921b84018101918181019086841115612c4557600080fd5b8286015b84811015612c605780358352918301918301612c49565b509695505050505050565b80356001600160a01b0381168114612c8257600080fd5b919050565b600067ffffffffffffffff821115612ca157612ca1612b95565b50601f01601f191660200190565b600082601f830112612cc057600080fd5b8135612cce612c2182612c87565b818152846020838601011115612ce357600080fd5b816020850160208301376000918101602001919091529392505050565b600082601f830112612d1157600080fd5b81356020612d21612c2183612bdc565b82815260059290921b84018101918181019086841115612d4057600080fd5b8286015b84811015612c6057803567ffffffffffffffff811115612d645760008081fd5b612d728986838b0101612caf565b845250918301918301612d44565b60008060008060808587031215612d9657600080fd5b843567ffffffffffffffff80821115612dae57600080fd5b612dba88838901612c00565b9550602091508187013581811115612dd157600080fd5b8701601f81018913612de257600080fd5b8035612df0612c2182612bdc565b81815260059190911b8201840190848101908b831115612e0f57600080fd5b928501925b82841015612e3457612e2584612c6b565b82529285019290850190612e14565b97505050506040870135915080821115612e4d57600080fd5b612e5988838901612c00565b93506060870135915080821115612e6f57600080fd5b50612e7c87828801612d00565b91505092959194509250565b60005b83811015612ea3578181015183820152602001612e8b565b838111156106fa5750506000910152565b60008151808452612ecc816020860160208601612e88565b601f01601f19169290920160200192915050565b6000602080830181845280855180835260408601915060408160051b870101925083870160005b82811015612f3557603f19888603018452612f23858351612eb4565b94509285019290850190600101612f07565b5092979650505050505050565b60008060408385031215612f5557600080fd5b823567ffffffffffffffff80821115612f6d57600080fd5b612f7986838701612c00565b93506020850135915080821115612f8f57600080fd5b50612f9c85828601612d00565b9150509250929050565b60008060408385031215612fb957600080fd5b82359150602083013567ffffffffffffffff811115612fd757600080fd5b612f9c85828601612caf565b60008060008060808587031215612ff957600080fd5b8435935061300960208601612c6b565b925060408501359150606085013567ffffffffffffffff81111561302c57600080fd5b612e7c87828801612caf565b6020815260006113206020830184612eb4565b60006020828403121561305d57600080fd5b813567ffffffffffffffff81111561307457600080fd5b61060c84828501612c00565b60006020828403121561309257600080fd5b5035919050565b600080602083850312156130ac57600080fd5b823567ffffffffffffffff808211156130c457600080fd5b818501915085601f8301126130d857600080fd5b8135818111156130e757600080fd5b8660208260051b85010111156130fc57600080fd5b60209290920196919550909350505050565b60008060006040848603121561312357600080fd5b83359250602084013567ffffffffffffffff8082111561314257600080fd5b818601915086601f83011261315657600080fd5b81358181111561316557600080fd5b87602082850101111561317757600080fd5b6020830194508093505050509250925092565b60006020828403121561319c57600080fd5b61132082612c6b565b634e487b7160e01b600052603260045260246000fd5b82815260406020820152600061060c6040830184612eb4565b600082516131e6818460208701612e88565b9190910192915050565b60006020828403121561320257600080fd5b5051919050565b6000808335601e1984360301811261322057600080fd5b83018035915067ffffffffffffffff82111561323b57600080fd5b6020019150368190038213156121e157600080fd5b8183823760009101908152919050565b805160208201516bffffffffffffffffffffffff1980821692919060148310156132945780818460140360031b1b83161693505b505050919050565b6040815260006132af6040830185612eb4565b828103602084015261164a8185612eb4565b81835281816020850137506000828201602090810191909152601f909101601f19169091010190565b6040815260006132fe6040830185876132c1565b828103602084015261246f8185612eb4565b6001600160a01b038516815283602082015260606040820152600061246f6060830184866132c1565b821515815260406020820152600061060c6040830184612eb4565b6bffffffffffffffffffffffff198560601b16815283601482015281836034830137600091016034019081529392505050565b600181811c9082168061339b57607f821691505b602082108103610a1457634e487b7160e01b600052602260045260246000fd5b601f82111561049557600081815260208120601f850160051c810160208610156133e25750805b601f850160051c820191505b81811015613401578281556001016133ee565b505050505050565b815167ffffffffffffffff81111561342357613423612b95565b613437816134318454613387565b846133bb565b602080601f83116001811461346c57600084156134545750858301515b600019600386901b1c1916600185901b178555613401565b600085815260208120601f198616915b8281101561349b5788860151825594840194600190910190840161347c565b50858210156134b95787850151600019600388901b60f8161c191681555b5050505050600190811b01905550565b83815260406020820152600061164a6040830184866132c1565b600084516134f5818460208901612e88565b60609490941b6bffffffffffffffffffffffff191691909301908152601481019190915260340192915050565b60006020828403121561353457600080fd5b815167ffffffffffffffff81111561354b57600080fd5b8201601f8101841361355c57600080fd5b805161356a612c2182612c87565b81815285602083850101111561357f57600080fd5b61164a826020830160208601612e88565b80516020808301519190811015610a145760001960209190910360031b1b16919050565b634e487b7160e01b600052601160045260246000fd5b600082198211156135dd576135dd6135b4565b500190565b634e487b7160e01b600052602160045260246000fd5b6000815160208301516001600160e01b0319808216935060048310156132945760049290920360031b82901b161692915050565b60008282101561363e5761363e6135b4565b50039056fea26469706673582212208d8cdc1ba894d01a79b3ca1cf2d73b49fee447de82e5533ff662199caa6ceadf64736f6c634300080f0033",
  "linkReferences": {},
  "deployedLinkReferences": {}
}