{
  "_format": "hh-sol-artifact-1",
  "contractName": "LSP11BasicSocialRecoveryInit",
  "sourceName": "contracts/LSP11BasicSocialRecovery/LSP11BasicSocialRecoveryInit.sol",
  "abi": [
    {
      "inputs": [],
      "stateMutability": "nonpayable",
      "type": "constructor"
    },
    {
      "inputs": [],
      "name": "AddressZeroNotAllowed",
      "type": "error"
    },
    {
      "inputs": [
        {
          "internalType": "address",
          "name": "caller",
          "type": "address"
        }
      ],
      "name": "CallerIsNotGuardian",
      "type": "error"
    },
    {
      "inputs": [
        {
          "internalType": "address",
          "name": "addressToAdd",
          "type": "address"
        }
      ],
      "name": "GuardianAlreadyExist",
      "type": "error"
    },
    {
      "inputs": [
        {
          "internalType": "address",
          "name": "addressToRemove",
          "type": "address"
        }
      ],
      "name": "GuardianDoNotExist",
      "type": "error"
    },
    {
      "inputs": [
        {
          "internalType": "uint256",
          "name": "guardianThreshold",
          "type": "uint256"
        }
      ],
      "name": "GuardiansNumberCannotGoBelowThreshold",
      "type": "error"
    },
    {
      "inputs": [],
      "name": "SecretHashCannotBeZero",
      "type": "error"
    },
    {
      "inputs": [
        {
          "internalType": "uint256",
          "name": "thresholdGiven",
          "type": "uint256"
        },
        {
          "internalType": "uint256",
          "name": "guardianNumber",
          "type": "uint256"
        }
      ],
      "name": "ThresholdCannotBeHigherThanGuardiansNumber",
      "type": "error"
    },
    {
      "inputs": [
        {
          "internalType": "address",
          "name": "recoverer",
          "type": "address"
        },
        {
          "internalType": "uint256",
          "name": "selections",
          "type": "uint256"
        },
        {
          "internalType": "uint256",
          "name": "guardiansThreshold",
          "type": "uint256"
        }
      ],
      "name": "ThresholdNotReachedForRecoverer",
      "type": "error"
    },
    {
      "inputs": [],
      "name": "WrongPlainSecret",
      "type": "error"
    },
    {
      "anonymous": false,
      "inputs": [
        {
          "indexed": true,
          "internalType": "address",
          "name": "newGuardian",
          "type": "address"
        }
      ],
      "name": "GuardianAdded",
      "type": "event"
    },
    {
      "anonymous": false,
      "inputs": [
        {
          "indexed": true,
          "internalType": "address",
          "name": "removedGuardian",
          "type": "address"
        }
      ],
      "name": "GuardianRemoved",
      "type": "event"
    },
    {
      "anonymous": false,
      "inputs": [
        {
          "indexed": true,
          "internalType": "uint256",
          "name": "guardianThreshold",
          "type": "uint256"
        }
      ],
      "name": "GuardiansThresholdChanged",
      "type": "event"
    },
    {
      "anonymous": false,
      "inputs": [
        {
          "indexed": false,
          "internalType": "uint8",
          "name": "version",
          "type": "uint8"
        }
      ],
      "name": "Initialized",
      "type": "event"
    },
    {
      "anonymous": false,
      "inputs": [
        {
          "indexed": true,
          "internalType": "address",
          "name": "previousOwner",
          "type": "address"
        },
        {
          "indexed": true,
          "internalType": "address",
          "name": "newOwner",
          "type": "address"
        }
      ],
      "name": "OwnershipTransferred",
      "type": "event"
    },
    {
      "anonymous": false,
      "inputs": [
        {
          "indexed": true,
          "internalType": "uint256",
          "name": "recoveryCounter",
          "type": "uint256"
        },
        {
          "indexed": true,
          "internalType": "address",
          "name": "newController",
          "type": "address"
        },
        {
          "indexed": true,
          "internalType": "bytes32",
          "name": "newSecretHash",
          "type": "bytes32"
        },
        {
          "indexed": false,
          "internalType": "address[]",
          "name": "guardians",
          "type": "address[]"
        }
      ],
      "name": "RecoveryProcessSuccessful",
      "type": "event"
    },
    {
      "anonymous": false,
      "inputs": [
        {
          "indexed": true,
          "internalType": "bytes32",
          "name": "secretHash",
          "type": "bytes32"
        }
      ],
      "name": "SecretHashChanged",
      "type": "event"
    },
    {
      "anonymous": false,
      "inputs": [
        {
          "indexed": true,
          "internalType": "uint256",
          "name": "recoveryCounter",
          "type": "uint256"
        },
        {
          "indexed": true,
          "internalType": "address",
          "name": "guardian",
          "type": "address"
        },
        {
          "indexed": true,
          "internalType": "address",
          "name": "addressSelected",
          "type": "address"
        }
      ],
      "name": "SelectedNewController",
      "type": "event"
    },
    {
      "inputs": [
        {
          "internalType": "address",
          "name": "newGuardian",
          "type": "address"
        }
      ],
      "name": "addGuardian",
      "outputs": [],
      "stateMutability": "nonpayable",
      "type": "function"
    },
    {
      "inputs": [
        {
          "internalType": "address",
          "name": "guardian",
          "type": "address"
        }
      ],
      "name": "getGuardianChoice",
      "outputs": [
        {
          "internalType": "address",
          "name": "",
          "type": "address"
        }
      ],
      "stateMutability": "view",
      "type": "function"
    },
    {
      "inputs": [],
      "name": "getGuardians",
      "outputs": [
        {
          "internalType": "address[]",
          "name": "",
          "type": "address[]"
        }
      ],
      "stateMutability": "view",
      "type": "function"
    },
    {
      "inputs": [],
      "name": "getGuardiansThreshold",
      "outputs": [
        {
          "internalType": "uint256",
          "name": "",
          "type": "uint256"
        }
      ],
      "stateMutability": "view",
      "type": "function"
    },
    {
      "inputs": [],
      "name": "getRecoveryCounter",
      "outputs": [
        {
          "internalType": "uint256",
          "name": "",
          "type": "uint256"
        }
      ],
      "stateMutability": "view",
      "type": "function"
    },
    {
      "inputs": [],
      "name": "getRecoverySecretHash",
      "outputs": [
        {
          "internalType": "bytes32",
          "name": "",
          "type": "bytes32"
        }
      ],
      "stateMutability": "view",
      "type": "function"
    },
    {
      "inputs": [
        {
          "internalType": "address",
          "name": "target_",
          "type": "address"
        },
        {
          "internalType": "address",
          "name": "_owner",
          "type": "address"
        }
      ],
      "name": "initialize",
      "outputs": [],
      "stateMutability": "nonpayable",
      "type": "function"
    },
    {
      "inputs": [
        {
          "internalType": "address",
          "name": "_address",
          "type": "address"
        }
      ],
      "name": "isGuardian",
      "outputs": [
        {
          "internalType": "bool",
          "name": "",
          "type": "bool"
        }
      ],
      "stateMutability": "view",
      "type": "function"
    },
    {
      "inputs": [],
      "name": "owner",
      "outputs": [
        {
          "internalType": "address",
          "name": "",
          "type": "address"
        }
      ],
      "stateMutability": "view",
      "type": "function"
    },
    {
      "inputs": [
        {
          "internalType": "address",
          "name": "recoverer",
          "type": "address"
        },
        {
          "internalType": "string",
          "name": "plainSecret",
          "type": "string"
        },
        {
          "internalType": "bytes32",
          "name": "newSecretHash",
          "type": "bytes32"
        }
      ],
      "name": "recoverOwnership",
      "outputs": [],
      "stateMutability": "nonpayable",
      "type": "function"
    },
    {
      "inputs": [
        {
          "internalType": "address",
          "name": "existingGuardian",
          "type": "address"
        }
      ],
      "name": "removeGuardian",
      "outputs": [],
      "stateMutability": "nonpayable",
      "type": "function"
    },
    {
      "inputs": [],
      "name": "renounceOwnership",
      "outputs": [],
      "stateMutability": "nonpayable",
      "type": "function"
    },
    {
      "inputs": [
        {
          "internalType": "address",
          "name": "addressSelected",
          "type": "address"
        }
      ],
      "name": "selectNewController",
      "outputs": [],
      "stateMutability": "nonpayable",
      "type": "function"
    },
    {
      "inputs": [
        {
          "internalType": "uint256",
          "name": "newThreshold",
          "type": "uint256"
        }
      ],
      "name": "setGuardiansThreshold",
      "outputs": [],
      "stateMutability": "nonpayable",
      "type": "function"
    },
    {
      "inputs": [
        {
          "internalType": "bytes32",
          "name": "newRecoverSecretHash",
          "type": "bytes32"
        }
      ],
      "name": "setRecoverySecretHash",
      "outputs": [],
      "stateMutability": "nonpayable",
      "type": "function"
    },
    {
      "inputs": [
        {
          "internalType": "bytes4",
          "name": "_interfaceId",
          "type": "bytes4"
        }
      ],
      "name": "supportsInterface",
      "outputs": [
        {
          "internalType": "bool",
          "name": "",
          "type": "bool"
        }
      ],
      "stateMutability": "view",
      "type": "function"
    },
    {
      "inputs": [],
      "name": "target",
      "outputs": [
        {
          "internalType": "address",
          "name": "",
          "type": "address"
        }
      ],
      "stateMutability": "view",
      "type": "function"
    },
    {
      "inputs": [
        {
          "internalType": "address",
          "name": "newOwner",
          "type": "address"
        }
      ],
      "name": "transferOwnership",
      "outputs": [],
      "stateMutability": "nonpayable",
      "type": "function"
    }
  ],
  "bytecode": "0x608060405234801561001057600080fd5b5061001961001e565b6100de565b600054610100900460ff161561008a5760405162461bcd60e51b815260206004820152602760248201527f496e697469616c697a61626c653a20636f6e747261637420697320696e697469604482015266616c697a696e6760c81b606482015260840160405180910390fd5b60005460ff90811610156100dc576000805460ff191660ff9081179091556040519081527f7f26b83ff96e1f2b6a682f133852f6798a09c465da95921460cefb38474024989060200160405180910390a15b565b6118c3806100ed6000396000f3fe608060405234801561001057600080fd5b50600436106101365760003560e01c80638f9083bb116100b2578063d4b8399211610081578063f6a22f0211610066578063f6a22f0214610270578063f799e38d146102a9578063f79c8b77146102bc57600080fd5b8063d4b839921461024c578063f2fde38b1461025d57600080fd5b80638f9083bb1461020b578063a526d83b14610213578063aa7806d614610226578063ae8481b21461023957600080fd5b8063485cc9551161010957806371404156116100ee57806371404156146101c5578063715018a6146101d85780638da5cb5b146101e057600080fd5b8063485cc9551461019d5780636bfed20b146101b257600080fd5b806301ffc9a71461013b5780630665f04b146101635780630c68ba2114610178578063187c53481461018b575b600080fd5b61014e6101493660046113cf565b6102c4565b60405190151581526020015b60405180910390f35b61016b61032d565b60405161015a91906113f9565b61014e61018636600461145b565b61033e565b6002545b60405190815260200161015a565b6101b06101ab366004611478565b61035e565b005b6101b06101c03660046114b1565b610487565b6101b06101d336600461145b565b610519565b6101b0610608565b6000546201000090046001600160a01b03165b6040516001600160a01b03909116815260200161015a565b60045461018f565b6101b061022136600461145b565b61061c565b6101b061023436600461145b565b6106c2565b6101b0610247366004611539565b61077e565b6001546001600160a01b03166101f3565b6101b061026b36600461145b565b6108cf565b6101f361027e36600461145b565b60035460009081526005602090815260408083206001600160a01b0394851684529091529020541690565b6101b06102b73660046114b1565b61095f565b60035461018f565b60006001600160e01b031982167f049a28f100000000000000000000000000000000000000000000000000000000148061032757507f01ffc9a7000000000000000000000000000000000000000000000000000000006001600160e01b03198316145b92915050565b606061033960066109b8565b905090565b6001600160a01b0381166000908152600760205260408120541515610327565b600054610100900460ff161580801561037e5750600054600160ff909116105b806103985750303b158015610398575060005460ff166001145b61040f5760405162461bcd60e51b815260206004820152602e60248201527f496e697469616c697a61626c653a20636f6e747261637420697320616c72656160448201527f647920696e697469616c697a656400000000000000000000000000000000000060648201526084015b60405180910390fd5b6000805460ff191660011790558015610432576000805461ff0019166101001790555b61043c83836109cc565b8015610482576000805461ff0019169055604051600181527f7f26b83ff96e1f2b6a682f133852f6798a09c465da95921460cefb38474024989060200160405180910390a15b505050565b61048f610a82565b6104996006610ae3565b8111156104e657806104ab6006610ae3565b6040517fe3db80bd00000000000000000000000000000000000000000000000000000000815260048101929092526024820152604401610406565b600281905560405181907f7146d20a2c7b7c75c203774c9f241b61698fac43a4a81ccd828f0d816239279090600090a250565b610521610a82565b6001600160a01b03811660009081526007602052604090205461057b576040517f3d8e524e0000000000000000000000000000000000000000000000000000000081526001600160a01b0382166004820152602401610406565b6002546105886006610ae3565b036105c5576002546040517f2711377700000000000000000000000000000000000000000000000000000000815260040161040691815260200190565b6105d0600682610aed565b506040516001600160a01b038216907fb8107d0c6b40be480ce3172ee66ba6d64b71f6b1685a851340036e6e2e3e3c5290600090a250565b610610610a82565b61061a6000610b02565b565b610624610a82565b6001600160a01b0381166000908152600760205260409020541561067f576040517fd52858db0000000000000000000000000000000000000000000000000000000081526001600160a01b0382166004820152602401610406565b61068a600682610b8e565b506040516001600160a01b038216907f038596bb31e2e7d3d9f184d4c98b310103f6d7f5830e5eec32bffe6f1728f96990600090a250565b3360009081526007602052604090205461070a576040517f5560e16d000000000000000000000000000000000000000000000000000000008152336004820152602401610406565b6003546000818152600560209081526040808320338085529252808320805473ffffffffffffffffffffffffffffffffffffffff19166001600160a01b0387169081179091559051909284917fe43f3c1093c69ab76b2cf6246090acb2f8eab7f19ba9942dfc8b8ec446e3a3de9190a45050565b600354600061078d60066109b8565b6001549091506001600160a01b03166107a98684878786610ba3565b600380549060006107b9836115eb565b9091555050600484905560405184907f2e8c5419a62207ade549fe0b66c1c85c16f5e1ed654815dee3a3f3ac41770df390600090a26000816001600160a01b0316638da5cb5b6040518163ffffffff1660e01b8152600401602060405180830381865afa15801561082e573d6000803e3d6000fd5b505050506040513d601f19601f820116820180604052508101906108529190611604565b9050600080610865848a623f3f7f610d39565b91509150610874838383611010565b5086896001600160a01b0316877ff4ff8803d6b43af46d48c200977209829c2f42f19f27eda1c89dbf26a28009cd886040516108b091906113f9565b60405180910390a46108c48686518761110d565b505050505050505050565b6108d7610a82565b6001600160a01b0381166109535760405162461bcd60e51b815260206004820152602660248201527f4f776e61626c653a206e6577206f776e657220697320746865207a65726f206160448201527f64647265737300000000000000000000000000000000000000000000000000006064820152608401610406565b61095c81610b02565b50565b610967610a82565b8061098557604051633fb0b80160e11b815260040160405180910390fd5b600481905560405181907f2e8c5419a62207ade549fe0b66c1c85c16f5e1ed654815dee3a3f3ac41770df390600090a250565b606060006109c58361118b565b9392505050565b600054610100900460ff16610a495760405162461bcd60e51b815260206004820152602b60248201527f496e697469616c697a61626c653a20636f6e7472616374206973206e6f74206960448201527f6e697469616c697a696e670000000000000000000000000000000000000000006064820152608401610406565b610a5282610b02565b6001805473ffffffffffffffffffffffffffffffffffffffff19166001600160a01b039290921691909117905550565b6000546001600160a01b036201000090910416331461061a5760405162461bcd60e51b815260206004820181905260248201527f4f776e61626c653a2063616c6c6572206973206e6f7420746865206f776e65726044820152606401610406565b6000610327825490565b60006109c5836001600160a01b0384166111e7565b6000546001600160a01b0382811662010000909204161461095c57600080546001600160a01b03838116620100008181027fffffffffffffffffffff0000000000000000000000000000000000000000ffff851617855560405193049190911692909183917f8be0079c531659141344cd1fd0a4f28419497f9722a3daafe3b4186f6b6457e091a35050565b60006109c5836001600160a01b0384166112da565b6001600160a01b038516610be3576040517f0855380c00000000000000000000000000000000000000000000000000000000815260040160405180910390fd5b6000805b8251811015610c5a57600086815260056020526040812084516001600160a01b038a169290869085908110610c1e57610c1e611621565b6020908102919091018101516001600160a01b03908116835290820192909252604001600020541603610c52576001909101905b600101610be7565b5060025480821015610cb1576040517ff78f05070000000000000000000000000000000000000000000000000000000081526001600160a01b03881660048201526024810183905260448101829052606401610406565b83610ccf57604051633fb0b80160e11b815260040160405180910390fd5b60045485604051602001610ce39190611663565b6040516020818303038152906040528051906020012014610d30576040517f6fa723c300000000000000000000000000000000000000000000000000000000815260040160405180910390fd5b50505050505050565b604080516003808252608082019092526060918291906020820183803683370190505060408051600380825260808201909252919350816020015b6060815260200190600190039081610d74579050506040517f54f6127f0000000000000000000000000000000000000000000000000000000081527fdf30dba06db6a30e65354d9a64c609861f089545ca58c6b4dbe31a5f338cb0e360048201529091506000906001600160a01b038716906354f6127f90602401600060405180830381865afa158015610e0c573d6000803e3d6000fd5b505050506040513d6000823e601f3d908101601f19168201604052610e34919081019061167f565b610e3d906116ed565b60801c90506000610e4f82600161172e565b90507fdf30dba06db6a30e65354d9a64c609861f089545ca58c6b4dbe31a5f338cb0e360001b84600081518110610e8857610e88611621565b60200260200101818152505080604051602001610ec1919060809190911b6fffffffffffffffffffffffffffffffff1916815260100190565b60405160208183030381529060405283600081518110610ee357610ee3611621565b6020908102919091010152610f187fdf30dba06db6a30e65354d9a64c609861f089545ca58c6b4dbe31a5f338cb0e383611329565b84600181518110610f2b57610f2b611621565b60200260200101818152505085604051602001610f60919060609190911b6bffffffffffffffffffffffff1916815260140190565b60405160208183030381529060405283600181518110610f8257610f82611621565b6020026020010181905250610fa7694b80742de2bf82acb36360b01b8760601b61137c565b84600281518110610fba57610fba611621565b60200260200101818152505084604051602001610fd991815260200190565b60405160208183030381529060405283600281518110610ffb57610ffb611621565b60200260200101819052505050935093915050565b606060006314a6e29360e01b848460405160240161102f92919061178e565b60408051601f198184030181529181526020820180517bffffffffffffffffffffffffffffffffffffffffffffffffffffffff166001600160e01b03199094169390931790925290517f09c5eabe0000000000000000000000000000000000000000000000000000000081529091506001600160a01b038616906309c5eabe906110bd908490600401611826565b6000604051808303816000875af11580156110dc573d6000803e3d6000fd5b505050506040513d6000823e601f3d908101601f19168201604052611104919081019061167f565b95945050505050565b60005b828110156111855760056000858152602001908152602001600020600083838151811061113f5761113f611621565b6020908102919091018101516001600160a01b03168252810191909152604001600020805473ffffffffffffffffffffffffffffffffffffffff19169055600101611110565b50505050565b6060816000018054806020026020016040519081016040528092919081815260200182805480156111db57602002820191906000526020600020905b8154815260200190600101908083116111c7575b50505050509050919050565b600081815260018301602052604081205480156112d057600061120b600183611839565b855490915060009061121f90600190611839565b905081811461128457600086600001828154811061123f5761123f611621565b906000526020600020015490508087600001848154811061126257611262611621565b6000918252602080832090910192909255918252600188019052604090208390555b855486908061129557611295611850565b600190038181906000526020600020016000905590558560010160008681526020019081526020016000206000905560019350505050610327565b6000915050610327565b600081815260018301602052604081205461132157508154600181810184556000848152602080822090930184905584548482528286019093526040902091909155610327565b506000610327565b604080516fffffffffffffffffffffffffffffffff198085166020830152608084901b1660308201526000918291015b60405160208183030381529060405290508061137490611866565b949350505050565b604080517fffffffffffffffffffff00000000000000000000000000000000000000000000841660208201526000602a82018190526bffffffffffffffffffffffff198416602c83015291829101611359565b6000602082840312156113e157600080fd5b81356001600160e01b0319811681146109c557600080fd5b6020808252825182820181905260009190848201906040850190845b8181101561143a5783516001600160a01b031683529284019291840191600101611415565b50909695505050505050565b6001600160a01b038116811461095c57600080fd5b60006020828403121561146d57600080fd5b81356109c581611446565b6000806040838503121561148b57600080fd5b823561149681611446565b915060208301356114a681611446565b809150509250929050565b6000602082840312156114c357600080fd5b5035919050565b634e487b7160e01b600052604160045260246000fd5b604051601f8201601f1916810167ffffffffffffffff81118282101715611509576115096114ca565b604052919050565b600067ffffffffffffffff82111561152b5761152b6114ca565b50601f01601f191660200190565b60008060006060848603121561154e57600080fd5b833561155981611446565b9250602084013567ffffffffffffffff81111561157557600080fd5b8401601f8101861361158657600080fd5b803561159961159482611511565b6114e0565b8181528760208385010111156115ae57600080fd5b81602084016020830137600060208383010152809450505050604084013590509250925092565b634e487b7160e01b600052601160045260246000fd5b6000600182016115fd576115fd6115d5565b5060010190565b60006020828403121561161657600080fd5b81516109c581611446565b634e487b7160e01b600052603260045260246000fd5b60005b8381101561165257818101518382015260200161163a565b838111156111855750506000910152565b60008251611675818460208701611637565b9190910192915050565b60006020828403121561169157600080fd5b815167ffffffffffffffff8111156116a857600080fd5b8201601f810184136116b957600080fd5b80516116c761159482611511565b8181528560208385010111156116dc57600080fd5b611104826020830160208601611637565b6000815160208301516fffffffffffffffffffffffffffffffff19808216935060108310156117265780818460100360031b1b83161693505b505050919050565b60006fffffffffffffffffffffffffffffffff808316818516808303821115611759576117596115d5565b01949350505050565b6000815180845261177a816020860160208601611637565b601f01601f19169290920160200192915050565b604080825283519082018190526000906020906060840190828701845b828110156117c7578151845292840192908401906001016117ab565b50505083810382850152845180825282820190600581901b8301840187850160005b8381101561181757601f19868403018552611805838351611762565b948701949250908601906001016117e9565b50909998505050505050505050565b6020815260006109c56020830184611762565b60008282101561184b5761184b6115d5565b500390565b634e487b7160e01b600052603160045260246000fd5b80516020808301519190811015611887576000198160200360031b1b821691505b5091905056fea26469706673582212208508461b606795a30144536b42650a413d4c59fa4db48c5e6986f978b56cf2f364736f6c634300080f0033",
  "linkReferences": {},
  "deployedLinkReferences": {}
}