{
  "_format": "hh-sol-artifact-1",
  "contractName": "LSP11BasicSocialRecovery",
  "sourceName": "contracts/LSP11BasicSocialRecovery/LSP11BasicSocialRecovery.sol",
  "abi": [
    {
      "inputs": [
        {
          "internalType": "address",
          "name": "_owner",
          "type": "address"
        },
        {
          "internalType": "address",
          "name": "target_",
          "type": "address"
        }
      ],
      "stateMutability": "nonpayable",
      "type": "constructor"
    },
    {
      "inputs": [],
      "name": "AddressZeroNotAllowed",
      "type": "error"
    },
    {
      "inputs": [
        {
          "internalType": "address",
          "name": "caller",
          "type": "address"
        }
      ],
      "name": "CallerIsNotGuardian",
      "type": "error"
    },
    {
      "inputs": [
        {
          "internalType": "address",
          "name": "addressToAdd",
          "type": "address"
        }
      ],
      "name": "GuardianAlreadyExist",
      "type": "error"
    },
    {
      "inputs": [
        {
          "internalType": "address",
          "name": "addressToRemove",
          "type": "address"
        }
      ],
      "name": "GuardianDoNotExist",
      "type": "error"
    },
    {
      "inputs": [
        {
          "internalType": "uint256",
          "name": "guardianThreshold",
          "type": "uint256"
        }
      ],
      "name": "GuardiansNumberCannotGoBelowThreshold",
      "type": "error"
    },
    {
      "inputs": [],
      "name": "SecretHashCannotBeZero",
      "type": "error"
    },
    {
      "inputs": [
        {
          "internalType": "uint256",
          "name": "thresholdGiven",
          "type": "uint256"
        },
        {
          "internalType": "uint256",
          "name": "guardianNumber",
          "type": "uint256"
        }
      ],
      "name": "ThresholdCannotBeHigherThanGuardiansNumber",
      "type": "error"
    },
    {
      "inputs": [
        {
          "internalType": "address",
          "name": "recoverer",
          "type": "address"
        },
        {
          "internalType": "uint256",
          "name": "selections",
          "type": "uint256"
        },
        {
          "internalType": "uint256",
          "name": "guardiansThreshold",
          "type": "uint256"
        }
      ],
      "name": "ThresholdNotReachedForRecoverer",
      "type": "error"
    },
    {
      "inputs": [],
      "name": "WrongPlainSecret",
      "type": "error"
    },
    {
      "anonymous": false,
      "inputs": [
        {
          "indexed": true,
          "internalType": "address",
          "name": "newGuardian",
          "type": "address"
        }
      ],
      "name": "GuardianAdded",
      "type": "event"
    },
    {
      "anonymous": false,
      "inputs": [
        {
          "indexed": true,
          "internalType": "address",
          "name": "removedGuardian",
          "type": "address"
        }
      ],
      "name": "GuardianRemoved",
      "type": "event"
    },
    {
      "anonymous": false,
      "inputs": [
        {
          "indexed": true,
          "internalType": "uint256",
          "name": "guardianThreshold",
          "type": "uint256"
        }
      ],
      "name": "GuardiansThresholdChanged",
      "type": "event"
    },
    {
      "anonymous": false,
      "inputs": [
        {
          "indexed": true,
          "internalType": "address",
          "name": "previousOwner",
          "type": "address"
        },
        {
          "indexed": true,
          "internalType": "address",
          "name": "newOwner",
          "type": "address"
        }
      ],
      "name": "OwnershipTransferred",
      "type": "event"
    },
    {
      "anonymous": false,
      "inputs": [
        {
          "indexed": true,
          "internalType": "uint256",
          "name": "recoveryCounter",
          "type": "uint256"
        },
        {
          "indexed": true,
          "internalType": "address",
          "name": "newController",
          "type": "address"
        },
        {
          "indexed": true,
          "internalType": "bytes32",
          "name": "newSecretHash",
          "type": "bytes32"
        },
        {
          "indexed": false,
          "internalType": "address[]",
          "name": "guardians",
          "type": "address[]"
        }
      ],
      "name": "RecoveryProcessSuccessful",
      "type": "event"
    },
    {
      "anonymous": false,
      "inputs": [
        {
          "indexed": true,
          "internalType": "bytes32",
          "name": "secretHash",
          "type": "bytes32"
        }
      ],
      "name": "SecretHashChanged",
      "type": "event"
    },
    {
      "anonymous": false,
      "inputs": [
        {
          "indexed": true,
          "internalType": "uint256",
          "name": "recoveryCounter",
          "type": "uint256"
        },
        {
          "indexed": true,
          "internalType": "address",
          "name": "guardian",
          "type": "address"
        },
        {
          "indexed": true,
          "internalType": "address",
          "name": "addressSelected",
          "type": "address"
        }
      ],
      "name": "SelectedNewController",
      "type": "event"
    },
    {
      "inputs": [
        {
          "internalType": "address",
          "name": "newGuardian",
          "type": "address"
        }
      ],
      "name": "addGuardian",
      "outputs": [],
      "stateMutability": "nonpayable",
      "type": "function"
    },
    {
      "inputs": [
        {
          "internalType": "address",
          "name": "guardian",
          "type": "address"
        }
      ],
      "name": "getGuardianChoice",
      "outputs": [
        {
          "internalType": "address",
          "name": "",
          "type": "address"
        }
      ],
      "stateMutability": "view",
      "type": "function"
    },
    {
      "inputs": [],
      "name": "getGuardians",
      "outputs": [
        {
          "internalType": "address[]",
          "name": "",
          "type": "address[]"
        }
      ],
      "stateMutability": "view",
      "type": "function"
    },
    {
      "inputs": [],
      "name": "getGuardiansThreshold",
      "outputs": [
        {
          "internalType": "uint256",
          "name": "",
          "type": "uint256"
        }
      ],
      "stateMutability": "view",
      "type": "function"
    },
    {
      "inputs": [],
      "name": "getRecoveryCounter",
      "outputs": [
        {
          "internalType": "uint256",
          "name": "",
          "type": "uint256"
        }
      ],
      "stateMutability": "view",
      "type": "function"
    },
    {
      "inputs": [],
      "name": "getRecoverySecretHash",
      "outputs": [
        {
          "internalType": "bytes32",
          "name": "",
          "type": "bytes32"
        }
      ],
      "stateMutability": "view",
      "type": "function"
    },
    {
      "inputs": [
        {
          "internalType": "address",
          "name": "_address",
          "type": "address"
        }
      ],
      "name": "isGuardian",
      "outputs": [
        {
          "internalType": "bool",
          "name": "",
          "type": "bool"
        }
      ],
      "stateMutability": "view",
      "type": "function"
    },
    {
      "inputs": [],
      "name": "owner",
      "outputs": [
        {
          "internalType": "address",
          "name": "",
          "type": "address"
        }
      ],
      "stateMutability": "view",
      "type": "function"
    },
    {
      "inputs": [
        {
          "internalType": "address",
          "name": "recoverer",
          "type": "address"
        },
        {
          "internalType": "string",
          "name": "plainSecret",
          "type": "string"
        },
        {
          "internalType": "bytes32",
          "name": "newSecretHash",
          "type": "bytes32"
        }
      ],
      "name": "recoverOwnership",
      "outputs": [],
      "stateMutability": "nonpayable",
      "type": "function"
    },
    {
      "inputs": [
        {
          "internalType": "address",
          "name": "existingGuardian",
          "type": "address"
        }
      ],
      "name": "removeGuardian",
      "outputs": [],
      "stateMutability": "nonpayable",
      "type": "function"
    },
    {
      "inputs": [],
      "name": "renounceOwnership",
      "outputs": [],
      "stateMutability": "nonpayable",
      "type": "function"
    },
    {
      "inputs": [
        {
          "internalType": "address",
          "name": "addressSelected",
          "type": "address"
        }
      ],
      "name": "selectNewController",
      "outputs": [],
      "stateMutability": "nonpayable",
      "type": "function"
    },
    {
      "inputs": [
        {
          "internalType": "uint256",
          "name": "newThreshold",
          "type": "uint256"
        }
      ],
      "name": "setGuardiansThreshold",
      "outputs": [],
      "stateMutability": "nonpayable",
      "type": "function"
    },
    {
      "inputs": [
        {
          "internalType": "bytes32",
          "name": "newRecoverSecretHash",
          "type": "bytes32"
        }
      ],
      "name": "setRecoverySecretHash",
      "outputs": [],
      "stateMutability": "nonpayable",
      "type": "function"
    },
    {
      "inputs": [
        {
          "internalType": "bytes4",
          "name": "_interfaceId",
          "type": "bytes4"
        }
      ],
      "name": "supportsInterface",
      "outputs": [
        {
          "internalType": "bool",
          "name": "",
          "type": "bool"
        }
      ],
      "stateMutability": "view",
      "type": "function"
    },
    {
      "inputs": [],
      "name": "target",
      "outputs": [
        {
          "internalType": "address",
          "name": "",
          "type": "address"
        }
      ],
      "stateMutability": "view",
      "type": "function"
    },
    {
      "inputs": [
        {
          "internalType": "address",
          "name": "newOwner",
          "type": "address"
        }
      ],
      "name": "transferOwnership",
      "outputs": [],
      "stateMutability": "nonpayable",
      "type": "function"
    }
  ],
  "bytecode": "0x60806040523480156200001157600080fd5b50604051620017a7380380620017a78339810160408190526200003491620000f5565b6200004a826200007160201b620008601760201c565b600180546001600160a01b0319166001600160a01b0392909216919091179055506200012d565b6000546001600160a01b03828116911614620000d557600080546001600160a01b038381166001600160a01b0319831681178455604051919092169283917f8be0079c531659141344cd1fd0a4f28419497f9722a3daafe3b4186f6b6457e09190a3505b50565b80516001600160a01b0381168114620000f057600080fd5b919050565b600080604083850312156200010957600080fd5b6200011483620000d8565b91506200012460208401620000d8565b90509250929050565b61166a806200013d6000396000f3fe608060405234801561001057600080fd5b506004361061011b5760003560e01c80638f9083bb116100b2578063d4b8399211610081578063f6a22f0211610066578063f6a22f021461023c578063f799e38d14610275578063f79c8b771461028857600080fd5b8063d4b8399214610218578063f2fde38b1461022957600080fd5b80638f9083bb146101d7578063a526d83b146101df578063aa7806d6146101f2578063ae8481b21461020557600080fd5b80636bfed20b116100ee5780636bfed20b146101825780637140415614610197578063715018a6146101aa5780638da5cb5b146101b257600080fd5b806301ffc9a7146101205780630665f04b146101485780630c68ba211461015d578063187c534814610170575b600080fd5b61013361012e3660046111af565b610290565b60405190151581526020015b60405180910390f35b6101506102f9565b60405161013f91906111d9565b61013361016b36600461123b565b61030a565b6002545b60405190815260200161013f565b610195610190366004611258565b61032a565b005b6101956101a536600461123b565b6103c1565b6101956104b0565b6000546001600160a01b03165b6040516001600160a01b03909116815260200161013f565b600454610174565b6101956101ed36600461123b565b6104c4565b61019561020036600461123b565b61056a565b6101956102133660046112e0565b610626565b6001546001600160a01b03166101bf565b61019561023736600461123b565b610777565b6101bf61024a36600461123b565b60035460009081526005602090815260408083206001600160a01b0394851684529091529020541690565b610195610283366004611258565b610807565b600354610174565b60006001600160e01b031982167f049a28f10000000000000000000000000000000000000000000000000000000014806102f357507f01ffc9a7000000000000000000000000000000000000000000000000000000006001600160e01b03198316145b92915050565b606061030560066108d2565b905090565b6001600160a01b03811660009081526007602052604081205415156102f3565b6103326108e6565b61033c600661094f565b81111561038e578061034e600661094f565b6040517fe3db80bd000000000000000000000000000000000000000000000000000000008152600481019290925260248201526044015b60405180910390fd5b600281905560405181907f7146d20a2c7b7c75c203774c9f241b61698fac43a4a81ccd828f0d816239279090600090a250565b6103c96108e6565b6001600160a01b038116600090815260076020526040902054610423576040517f3d8e524e0000000000000000000000000000000000000000000000000000000081526001600160a01b0382166004820152602401610385565b600254610430600661094f565b0361046d576002546040517f2711377700000000000000000000000000000000000000000000000000000000815260040161038591815260200190565b610478600682610959565b506040516001600160a01b038216907fb8107d0c6b40be480ce3172ee66ba6d64b71f6b1685a851340036e6e2e3e3c5290600090a250565b6104b86108e6565b6104c26000610860565b565b6104cc6108e6565b6001600160a01b03811660009081526007602052604090205415610527576040517fd52858db0000000000000000000000000000000000000000000000000000000081526001600160a01b0382166004820152602401610385565b61053260068261096e565b506040516001600160a01b038216907f038596bb31e2e7d3d9f184d4c98b310103f6d7f5830e5eec32bffe6f1728f96990600090a250565b336000908152600760205260409020546105b2576040517f5560e16d000000000000000000000000000000000000000000000000000000008152336004820152602401610385565b6003546000818152600560209081526040808320338085529252808320805473ffffffffffffffffffffffffffffffffffffffff19166001600160a01b0387169081179091559051909284917fe43f3c1093c69ab76b2cf6246090acb2f8eab7f19ba9942dfc8b8ec446e3a3de9190a45050565b600354600061063560066108d2565b6001549091506001600160a01b03166106518684878786610983565b6003805490600061066183611392565b9091555050600484905560405184907f2e8c5419a62207ade549fe0b66c1c85c16f5e1ed654815dee3a3f3ac41770df390600090a26000816001600160a01b0316638da5cb5b6040518163ffffffff1660e01b8152600401602060405180830381865afa1580156106d6573d6000803e3d6000fd5b505050506040513d601f19601f820116820180604052508101906106fa91906113ab565b905060008061070d848a623f3f7f610b19565b9150915061071c838383610df0565b5086896001600160a01b0316877ff4ff8803d6b43af46d48c200977209829c2f42f19f27eda1c89dbf26a28009cd8860405161075891906111d9565b60405180910390a461076c86865187610eed565b505050505050505050565b61077f6108e6565b6001600160a01b0381166107fb5760405162461bcd60e51b815260206004820152602660248201527f4f776e61626c653a206e6577206f776e657220697320746865207a65726f206160448201527f64647265737300000000000000000000000000000000000000000000000000006064820152608401610385565b61080481610860565b50565b61080f6108e6565b8061082d57604051633fb0b80160e11b815260040160405180910390fd5b600481905560405181907f2e8c5419a62207ade549fe0b66c1c85c16f5e1ed654815dee3a3f3ac41770df390600090a250565b6000546001600160a01b0382811691161461080457600080546001600160a01b0383811673ffffffffffffffffffffffffffffffffffffffff19831681178455604051919092169283917f8be0079c531659141344cd1fd0a4f28419497f9722a3daafe3b4186f6b6457e09190a35050565b606060006108df83610f6b565b9392505050565b336108f96000546001600160a01b031690565b6001600160a01b0316146104c25760405162461bcd60e51b815260206004820181905260248201527f4f776e61626c653a2063616c6c6572206973206e6f7420746865206f776e65726044820152606401610385565b60006102f3825490565b60006108df836001600160a01b038416610fc7565b60006108df836001600160a01b0384166110ba565b6001600160a01b0385166109c3576040517f0855380c00000000000000000000000000000000000000000000000000000000815260040160405180910390fd5b6000805b8251811015610a3a57600086815260056020526040812084516001600160a01b038a1692908690859081106109fe576109fe6113c8565b6020908102919091018101516001600160a01b03908116835290820192909252604001600020541603610a32576001909101905b6001016109c7565b5060025480821015610a91576040517ff78f05070000000000000000000000000000000000000000000000000000000081526001600160a01b03881660048201526024810183905260448101829052606401610385565b83610aaf57604051633fb0b80160e11b815260040160405180910390fd5b60045485604051602001610ac3919061140a565b6040516020818303038152906040528051906020012014610b10576040517f6fa723c300000000000000000000000000000000000000000000000000000000815260040160405180910390fd5b50505050505050565b604080516003808252608082019092526060918291906020820183803683370190505060408051600380825260808201909252919350816020015b6060815260200190600190039081610b54579050506040517f54f6127f0000000000000000000000000000000000000000000000000000000081527fdf30dba06db6a30e65354d9a64c609861f089545ca58c6b4dbe31a5f338cb0e360048201529091506000906001600160a01b038716906354f6127f90602401600060405180830381865afa158015610bec573d6000803e3d6000fd5b505050506040513d6000823e601f3d908101601f19168201604052610c149190810190611426565b610c1d90611494565b60801c90506000610c2f8260016114d5565b90507fdf30dba06db6a30e65354d9a64c609861f089545ca58c6b4dbe31a5f338cb0e360001b84600081518110610c6857610c686113c8565b60200260200101818152505080604051602001610ca1919060809190911b6fffffffffffffffffffffffffffffffff1916815260100190565b60405160208183030381529060405283600081518110610cc357610cc36113c8565b6020908102919091010152610cf87fdf30dba06db6a30e65354d9a64c609861f089545ca58c6b4dbe31a5f338cb0e383611109565b84600181518110610d0b57610d0b6113c8565b60200260200101818152505085604051602001610d40919060609190911b6bffffffffffffffffffffffff1916815260140190565b60405160208183030381529060405283600181518110610d6257610d626113c8565b6020026020010181905250610d87694b80742de2bf82acb36360b01b8760601b61115c565b84600281518110610d9a57610d9a6113c8565b60200260200101818152505084604051602001610db991815260200190565b60405160208183030381529060405283600281518110610ddb57610ddb6113c8565b60200260200101819052505050935093915050565b606060006314a6e29360e01b8484604051602401610e0f929190611535565b60408051601f198184030181529181526020820180517bffffffffffffffffffffffffffffffffffffffffffffffffffffffff166001600160e01b03199094169390931790925290517f09c5eabe0000000000000000000000000000000000000000000000000000000081529091506001600160a01b038616906309c5eabe90610e9d9084906004016115cd565b6000604051808303816000875af1158015610ebc573d6000803e3d6000fd5b505050506040513d6000823e601f3d908101601f19168201604052610ee49190810190611426565b95945050505050565b60005b82811015610f6557600560008581526020019081526020016000206000838381518110610f1f57610f1f6113c8565b6020908102919091018101516001600160a01b03168252810191909152604001600020805473ffffffffffffffffffffffffffffffffffffffff19169055600101610ef0565b50505050565b606081600001805480602002602001604051908101604052809291908181526020018280548015610fbb57602002820191906000526020600020905b815481526020019060010190808311610fa7575b50505050509050919050565b600081815260018301602052604081205480156110b0576000610feb6001836115e0565b8554909150600090610fff906001906115e0565b905081811461106457600086600001828154811061101f5761101f6113c8565b9060005260206000200154905080876000018481548110611042576110426113c8565b6000918252602080832090910192909255918252600188019052604090208390555b8554869080611075576110756115f7565b6001900381819060005260206000200160009055905585600101600086815260200190815260200160002060009055600193505050506102f3565b60009150506102f3565b6000818152600183016020526040812054611101575081546001818101845560008481526020808220909301849055845484825282860190935260409020919091556102f3565b5060006102f3565b604080516fffffffffffffffffffffffffffffffff198085166020830152608084901b1660308201526000918291015b6040516020818303038152906040529050806111549061160d565b949350505050565b604080517fffffffffffffffffffff00000000000000000000000000000000000000000000841660208201526000602a82018190526bffffffffffffffffffffffff198416602c83015291829101611139565b6000602082840312156111c157600080fd5b81356001600160e01b0319811681146108df57600080fd5b6020808252825182820181905260009190848201906040850190845b8181101561121a5783516001600160a01b0316835292840192918401916001016111f5565b50909695505050505050565b6001600160a01b038116811461080457600080fd5b60006020828403121561124d57600080fd5b81356108df81611226565b60006020828403121561126a57600080fd5b5035919050565b634e487b7160e01b600052604160045260246000fd5b604051601f8201601f1916810167ffffffffffffffff811182821017156112b0576112b0611271565b604052919050565b600067ffffffffffffffff8211156112d2576112d2611271565b50601f01601f191660200190565b6000806000606084860312156112f557600080fd5b833561130081611226565b9250602084013567ffffffffffffffff81111561131c57600080fd5b8401601f8101861361132d57600080fd5b803561134061133b826112b8565b611287565b81815287602083850101111561135557600080fd5b81602084016020830137600060208383010152809450505050604084013590509250925092565b634e487b7160e01b600052601160045260246000fd5b6000600182016113a4576113a461137c565b5060010190565b6000602082840312156113bd57600080fd5b81516108df81611226565b634e487b7160e01b600052603260045260246000fd5b60005b838110156113f95781810151838201526020016113e1565b83811115610f655750506000910152565b6000825161141c8184602087016113de565b9190910192915050565b60006020828403121561143857600080fd5b815167ffffffffffffffff81111561144f57600080fd5b8201601f8101841361146057600080fd5b805161146e61133b826112b8565b81815285602083850101111561148357600080fd5b610ee48260208301602086016113de565b6000815160208301516fffffffffffffffffffffffffffffffff19808216935060108310156114cd5780818460100360031b1b83161693505b505050919050565b60006fffffffffffffffffffffffffffffffff8083168185168083038211156115005761150061137c565b01949350505050565b600081518084526115218160208601602086016113de565b601f01601f19169290920160200192915050565b604080825283519082018190526000906020906060840190828701845b8281101561156e57815184529284019290840190600101611552565b50505083810382850152845180825282820190600581901b8301840187850160005b838110156115be57601f198684030185526115ac838351611509565b94870194925090860190600101611590565b50909998505050505050505050565b6020815260006108df6020830184611509565b6000828210156115f2576115f261137c565b500390565b634e487b7160e01b600052603160045260246000fd5b8051602080830151919081101561162e576000198160200360031b1b821691505b5091905056fea2646970667358221220e0416d7fbab85ac69698aa39dd995e3ceb43c6773fd2c9fab64fd20e8bca7d1c64736f6c634300080f0033",
  "linkReferences": {},
  "deployedLinkReferences": {}
}