{
  "_format": "hh-sol-artifact-1",
  "contractName": "LSP6KeyManagerInit",
  "sourceName": "contracts/LSP6KeyManager/LSP6KeyManagerInit.sol",
  "abi": [
    {
      "inputs": [],
      "stateMutability": "nonpayable",
      "type": "constructor"
    },
    {
      "inputs": [
        {
          "internalType": "bytes32",
          "name": "dataKey",
          "type": "bytes32"
        },
        {
          "internalType": "bytes",
          "name": "invalidValue",
          "type": "bytes"
        }
      ],
      "name": "AddressPermissionArrayIndexValueNotAnAddress",
      "type": "error"
    },
    {
      "inputs": [],
      "name": "BatchExecuteParamsLengthMismatch",
      "type": "error"
    },
    {
      "inputs": [],
      "name": "BatchExecuteRelayCallParamsLengthMismatch",
      "type": "error"
    },
    {
      "inputs": [
        {
          "internalType": "address",
          "name": "caller",
          "type": "address"
        }
      ],
      "name": "CallerIsNotTheTarget",
      "type": "error"
    },
    {
      "inputs": [],
      "name": "CallingKeyManagerNotAllowed",
      "type": "error"
    },
    {
      "inputs": [],
      "name": "CannotSendValueToSetData",
      "type": "error"
    },
    {
      "inputs": [],
      "name": "DelegateCallDisallowedViaKeyManager",
      "type": "error"
    },
    {
      "inputs": [
        {
          "internalType": "bytes4",
          "name": "invalidFunction",
          "type": "bytes4"
        }
      ],
      "name": "InvalidERC725Function",
      "type": "error"
    },
    {
      "inputs": [
        {
          "internalType": "bytes",
          "name": "allowedCallsValue",
          "type": "bytes"
        }
      ],
      "name": "InvalidEncodedAllowedCalls",
      "type": "error"
    },
    {
      "inputs": [
        {
          "internalType": "bytes",
          "name": "value",
          "type": "bytes"
        },
        {
          "internalType": "string",
          "name": "context",
          "type": "string"
        }
      ],
      "name": "InvalidEncodedAllowedERC725YDataKeys",
      "type": "error"
    },
    {
      "inputs": [],
      "name": "InvalidLSP6Target",
      "type": "error"
    },
    {
      "inputs": [
        {
          "internalType": "bytes",
          "name": "payload",
          "type": "bytes"
        }
      ],
      "name": "InvalidPayload",
      "type": "error"
    },
    {
      "inputs": [
        {
          "internalType": "address",
          "name": "signer",
          "type": "address"
        },
        {
          "internalType": "uint256",
          "name": "invalidNonce",
          "type": "uint256"
        },
        {
          "internalType": "bytes",
          "name": "signature",
          "type": "bytes"
        }
      ],
      "name": "InvalidRelayNonce",
      "type": "error"
    },
    {
      "inputs": [
        {
          "internalType": "address",
          "name": "from",
          "type": "address"
        }
      ],
      "name": "InvalidWhitelistedCall",
      "type": "error"
    },
    {
      "inputs": [
        {
          "internalType": "uint256",
          "name": "totalValues",
          "type": "uint256"
        },
        {
          "internalType": "uint256",
          "name": "msgValue",
          "type": "uint256"
        }
      ],
      "name": "LSP6BatchExcessiveValueSent",
      "type": "error"
    },
    {
      "inputs": [
        {
          "internalType": "uint256",
          "name": "totalValues",
          "type": "uint256"
        },
        {
          "internalType": "uint256",
          "name": "msgValue",
          "type": "uint256"
        }
      ],
      "name": "LSP6BatchInsufficientValueSent",
      "type": "error"
    },
    {
      "inputs": [
        {
          "internalType": "address",
          "name": "from",
          "type": "address"
        }
      ],
      "name": "NoCallsAllowed",
      "type": "error"
    },
    {
      "inputs": [
        {
          "internalType": "address",
          "name": "from",
          "type": "address"
        }
      ],
      "name": "NoERC725YDataKeysAllowed",
      "type": "error"
    },
    {
      "inputs": [
        {
          "internalType": "address",
          "name": "from",
          "type": "address"
        }
      ],
      "name": "NoPermissionsSet",
      "type": "error"
    },
    {
      "inputs": [
        {
          "internalType": "address",
          "name": "from",
          "type": "address"
        },
        {
          "internalType": "address",
          "name": "to",
          "type": "address"
        },
        {
          "internalType": "bytes4",
          "name": "selector",
          "type": "bytes4"
        }
      ],
      "name": "NotAllowedCall",
      "type": "error"
    },
    {
      "inputs": [
        {
          "internalType": "address",
          "name": "from",
          "type": "address"
        },
        {
          "internalType": "bytes32",
          "name": "disallowedKey",
          "type": "bytes32"
        }
      ],
      "name": "NotAllowedERC725YDataKey",
      "type": "error"
    },
    {
      "inputs": [
        {
          "internalType": "address",
          "name": "from",
          "type": "address"
        },
        {
          "internalType": "string",
          "name": "permission",
          "type": "string"
        }
      ],
      "name": "NotAuthorised",
      "type": "error"
    },
    {
      "inputs": [
        {
          "internalType": "bytes32",
          "name": "dataKey",
          "type": "bytes32"
        }
      ],
      "name": "NotRecognisedPermissionKey",
      "type": "error"
    },
    {
      "anonymous": false,
      "inputs": [
        {
          "indexed": false,
          "internalType": "uint8",
          "name": "version",
          "type": "uint8"
        }
      ],
      "name": "Initialized",
      "type": "event"
    },
    {
      "anonymous": false,
      "inputs": [
        {
          "indexed": true,
          "internalType": "address",
          "name": "signer",
          "type": "address"
        },
        {
          "indexed": true,
          "internalType": "uint256",
          "name": "value",
          "type": "uint256"
        },
        {
          "indexed": true,
          "internalType": "bytes4",
          "name": "selector",
          "type": "bytes4"
        }
      ],
      "name": "VerifiedCall",
      "type": "event"
    },
    {
      "inputs": [
        {
          "internalType": "bytes",
          "name": "payload",
          "type": "bytes"
        }
      ],
      "name": "execute",
      "outputs": [
        {
          "internalType": "bytes",
          "name": "",
          "type": "bytes"
        }
      ],
      "stateMutability": "payable",
      "type": "function"
    },
    {
      "inputs": [
        {
          "internalType": "uint256[]",
          "name": "values",
          "type": "uint256[]"
        },
        {
          "internalType": "bytes[]",
          "name": "payloads",
          "type": "bytes[]"
        }
      ],
      "name": "execute",
      "outputs": [
        {
          "internalType": "bytes[]",
          "name": "",
          "type": "bytes[]"
        }
      ],
      "stateMutability": "payable",
      "type": "function"
    },
    {
      "inputs": [
        {
          "internalType": "bytes",
          "name": "signature",
          "type": "bytes"
        },
        {
          "internalType": "uint256",
          "name": "nonce",
          "type": "uint256"
        },
        {
          "internalType": "bytes",
          "name": "payload",
          "type": "bytes"
        }
      ],
      "name": "executeRelayCall",
      "outputs": [
        {
          "internalType": "bytes",
          "name": "",
          "type": "bytes"
        }
      ],
      "stateMutability": "payable",
      "type": "function"
    },
    {
      "inputs": [
        {
          "internalType": "bytes[]",
          "name": "signatures",
          "type": "bytes[]"
        },
        {
          "internalType": "uint256[]",
          "name": "nonces",
          "type": "uint256[]"
        },
        {
          "internalType": "uint256[]",
          "name": "values",
          "type": "uint256[]"
        },
        {
          "internalType": "bytes[]",
          "name": "payloads",
          "type": "bytes[]"
        }
      ],
      "name": "executeRelayCall",
      "outputs": [
        {
          "internalType": "bytes[]",
          "name": "",
          "type": "bytes[]"
        }
      ],
      "stateMutability": "payable",
      "type": "function"
    },
    {
      "inputs": [
        {
          "internalType": "address",
          "name": "from",
          "type": "address"
        },
        {
          "internalType": "uint128",
          "name": "channelId",
          "type": "uint128"
        }
      ],
      "name": "getNonce",
      "outputs": [
        {
          "internalType": "uint256",
          "name": "",
          "type": "uint256"
        }
      ],
      "stateMutability": "view",
      "type": "function"
    },
    {
      "inputs": [
        {
          "internalType": "address",
          "name": "target_",
          "type": "address"
        }
      ],
      "name": "initialize",
      "outputs": [],
      "stateMutability": "nonpayable",
      "type": "function"
    },
    {
      "inputs": [
        {
          "internalType": "bytes32",
          "name": "dataHash",
          "type": "bytes32"
        },
        {
          "internalType": "bytes",
          "name": "signature",
          "type": "bytes"
        }
      ],
      "name": "isValidSignature",
      "outputs": [
        {
          "internalType": "bytes4",
          "name": "magicValue",
          "type": "bytes4"
        }
      ],
      "stateMutability": "view",
      "type": "function"
    },
    {
      "inputs": [
        {
          "internalType": "address",
          "name": "caller",
          "type": "address"
        },
        {
          "internalType": "uint256",
          "name": "msgValue",
          "type": "uint256"
        },
        {
          "internalType": "bytes",
          "name": "data",
          "type": "bytes"
        }
      ],
      "name": "lsp20VerifyCall",
      "outputs": [
        {
          "internalType": "bytes4",
          "name": "",
          "type": "bytes4"
        }
      ],
      "stateMutability": "nonpayable",
      "type": "function"
    },
    {
      "inputs": [
        {
          "internalType": "bytes32",
          "name": "",
          "type": "bytes32"
        },
        {
          "internalType": "bytes",
          "name": "",
          "type": "bytes"
        }
      ],
      "name": "lsp20VerifyCallResult",
      "outputs": [
        {
          "internalType": "bytes4",
          "name": "",
          "type": "bytes4"
        }
      ],
      "stateMutability": "nonpayable",
      "type": "function"
    },
    {
      "inputs": [
        {
          "internalType": "bytes4",
          "name": "interfaceId",
          "type": "bytes4"
        }
      ],
      "name": "supportsInterface",
      "outputs": [
        {
          "internalType": "bool",
          "name": "",
          "type": "bool"
        }
      ],
      "stateMutability": "view",
      "type": "function"
    },
    {
      "inputs": [],
      "name": "target",
      "outputs": [
        {
          "internalType": "address",
          "name": "",
          "type": "address"
        }
      ],
      "stateMutability": "view",
      "type": "function"
    }
  ],
  "bytecode": "0x60806040523480156200001157600080fd5b506200001c62000022565b620000e4565b600054610100900460ff16156200008f5760405162461bcd60e51b815260206004820152602760248201527f496e697469616c697a61626c653a20636f6e747261637420697320696e697469604482015266616c697a696e6760c81b606482015260840160405180910390fd5b60005460ff9081161015620000e2576000805460ff191660ff9081179091556040519081527f7f26b83ff96e1f2b6a682f133852f6798a09c465da95921460cefb38474024989060200160405180910390a15b565b613cee80620000f46000396000f3fe6080604052600436106100bc5760003560e01c8063b44581d911610074578063c4d66de81161004e578063c4d66de814610233578063d3fc45d314610255578063d4b839921461027557600080fd5b8063b44581d914610182578063bd68663a14610200578063bf3e1f7b1461022057600080fd5b80631626ba7e116100a55780631626ba7e14610116578063902d5fa01461014f5780639bf04b111461016257600080fd5b806301ffc9a7146100c157806309c5eabe146100f6575b600080fd5b3480156100cd57600080fd5b506100e16100dc36600461314d565b6102ac565b60405190151581526020015b60405180910390f35b6101096101043660046131b9565b610317565b6040516100ed9190613253565b34801561012257600080fd5b5061013661013136600461332b565b61032b565b6040516001600160e01b031990911681526020016100ed565b61010961015d366004613372565b610389565b34801561016e57600080fd5b5061013661017d3660046133f9565b6103a1565b34801561018e57600080fd5b506101f261019d366004613447565b6001600160a01b03821660009081526001602090815260408083206fffffffffffffffffffffffffffffffff851684529091529020546fffffffffffffffffffffffffffffffff19608083901b161792915050565b6040519081526020016100ed565b61021361020e366004613587565b61051c565b6040516100ed9190613646565b61021361022e3660046136a8565b6106fc565b34801561023f57600080fd5b5061025361024e366004613708565b61088c565b005b34801561026157600080fd5b5061013661027036600461332b565b6109ae565b34801561028157600080fd5b506000546201000090046001600160a01b03166040516001600160a01b0390911681526020016100ed565b60006001600160e01b031982167ffb4374140000000000000000000000000000000000000000000000000000000014806102f657506001600160e01b03198216630b135d3f60e11b145b8061031157506301ffc9a760e01b6001600160e01b03198316145b92915050565b6060610324348484610a1c565b9392505050565b6000806103388484610b17565b600054909150610366906220000090610360906201000090046001600160a01b031684610b3b565b81161490565b610378576001600160e01b0319610381565b630b135d3f60e11b5b949350505050565b60606103988585348686610be9565b95945050505050565b600080546201000090046001600160a01b031633146103da576040516368e8738b60e01b81523360048201526024015b60405180910390fd5b6000631fc8da4360e21b6103ee8486613723565b6001600160e01b031916148061041d57506314a6e29360e01b6104118486613723565b6001600160e01b031916145b15610426575060015b6104308187610db7565b61043c86868686610e0e565b6104468385613723565b6001600160e01b03191685336001600160a01b03167fa54458b75709e42f79700ffb6cfc57c7e224d8a77a52c457ee7ecb8e2263628060405160405180910390a4806104e157604051629bf04b60e81b60208201527f010000000000000000000000000000000000000000000000000000000000000060238201526024016040516020818303038152906040526104dc90613753565b610512565b604051629bf04b60e81b60208201526000602382015260240160405160208183030381529060405261051290613753565b9695505050505050565b86516060908614158061052f5750858414155b8061053a5750838214155b15610571576040517fb4d50d2100000000000000000000000000000000000000000000000000000000815260040160405180910390fd5b60008267ffffffffffffffff81111561058c5761058c613266565b6040519080825280602002602001820160405280156105bf57816020015b60608152602001906001900390816105aa5790505b5090506000805b848110156106c457348888838181106105e1576105e161378b565b90506020020135836105f391906137b7565b925082111561061e57604051630c28c92b60e21b8152600481018390523460248201526044016103d1565b6106968b82815181106106335761063361378b565b60200260200101518b8b8481811061064d5761064d61378b565b905060200201358a8a858181106106665761066661378b565b9050602002013589898681811061067f5761067f61378b565b905060200281019061069191906137cf565b610be9565b8382815181106106a8576106a861378b565b60200260200101819052506106bd8160010190565b90506105c6565b50348110156106ef5760405163528c345b60e11b8152600481018290523460248201526044016103d1565b5098975050505050505050565b6060838214610737576040517f55a187db00000000000000000000000000000000000000000000000000000000815260040160405180910390fd5b60008267ffffffffffffffff81111561075257610752613266565b60405190808252806020026020018201604052801561078557816020015b60608152602001906001900390816107705790505b5090506000805b8481101561085757348888838181106107a7576107a761378b565b90506020020135836107b991906137b7565b92508211156107e457604051630c28c92b60e21b8152600481018390523460248201526044016103d1565b6108298888838181106107f9576107f961378b565b905060200201358787848181106108125761081261378b565b905060200281019061082491906137cf565b610a1c565b83828151811061083b5761083b61378b565b60200260200101819052506108508160010190565b905061078c565b50348110156108825760405163528c345b60e11b8152600481018290523460248201526044016103d1565b5095945050505050565b600054610100900460ff16158080156108ac5750600054600160ff909116105b806108c65750303b1580156108c6575060005460ff166001145b6109385760405162461bcd60e51b815260206004820152602e60248201527f496e697469616c697a61626c653a20636f6e747261637420697320616c72656160448201527f647920696e697469616c697a656400000000000000000000000000000000000060648201526084016103d1565b6000805460ff19166001179055801561095b576000805461ff0019166101001790555b610964826110b1565b80156109aa576000805461ff0019169055604051600181527f7f26b83ff96e1f2b6a682f133852f6798a09c465da95921460cefb38474024989060200160405180910390a15b5050565b600080546201000090046001600160a01b031633146109e2576040516368e8738b60e01b81523360048201526024016103d1565b6109f46000805460ff60b01b19169055565b507fd3fc45d30000000000000000000000000000000000000000000000000000000092915050565b60606004821015610a44578282604051630d886ef360e21b81526004016103d1929190613816565b6000631fc8da4360e21b610a588486613723565b6001600160e01b0319161480610a8757506314a6e29360e01b610a7b8486613723565b6001600160e01b031916145b15610a90575060015b610a9a8133610db7565b610aa633868686610e0e565b610ab08385613723565b6001600160e01b03191685336001600160a01b03167fa54458b75709e42f79700ffb6cfc57c7e224d8a77a52c457ee7ecb8e2263628060405160405180910390a46000610afe8686866111b5565b905081610398576103986000805460ff60b01b19169055565b6000806000610b26858561129b565b91509150610b33816112e0565b509392505050565b6000806001600160a01b0384166354f6127f610b7b7f4b80742de2bf82acb36300000000000000000000000000000000000000000000606087901b611445565b6040518263ffffffff1660e01b8152600401610b9991815260200190565b600060405180830381865afa158015610bb6573d6000803e3d6000fd5b505050506040513d6000823e601f3d908101601f19168201604052610bde9190810190613845565b9050610381816138b3565b60606004821015610c11578282604051630d886ef360e21b81526004016103d1929190613816565b600060064687878787604051602001610c2f969594939291906138da565b60408051601f1981840301815291905290506000610c5788610c5130856114ae565b90610b17565b90506000631fc8da4360e21b610c6d8688613723565b6001600160e01b0319161480610c9c57506314a6e29360e01b610c908688613723565b6001600160e01b031916145b15610ca5575060015b610caf8183610db7565b610cb982896114e1565b610cf55781888a6040517fc9bd9eb90000000000000000000000000000000000000000000000000000000081526004016103d193929190613909565b6001600160a01b038216600090815260016020908152604080832060808c901c84529091528120805491610d2883613931565b9190505550610d3982888888610e0e565b610d438587613723565b6001600160e01b03191687836001600160a01b03167fa54458b75709e42f79700ffb6cfc57c7e224d8a77a52c457ee7ecb8e2263628060405160405180910390a46000610d918888886111b5565b905081610daa57610daa6000805460ff60b01b19169055565b9998505050505050505050565b600054600160b01b900460ff1615610df2576000546109aa908290610deb906201000090046001600160a01b031682610b3b565b608061152c565b816109aa576000805460ff60b01b1916600160b01b1790555050565b60008054610e2b906201000090046001600160a01b031686610b3b565b905080610e6f576040517ff292052a0000000000000000000000000000000000000000000000000000000081526001600160a01b03861660048201526024016103d1565b6000610e7b8385613723565b90507f80dc96f4000000000000000000000000000000000000000000000000000000006001600160e01b0319821601610f15578415610ecd576040516316694a7f60e21b815260040160405180910390fd5b600080610edd856004818961394a565b810190610eea919061332b565b6000549193509150610f0e906201000090046001600160a01b03168986858561153c565b50506110a9565b7feb591d6d000000000000000000000000000000000000000000000000000000006001600160e01b0319821601610fa6578415610f65576040516316694a7f60e21b815260040160405180910390fd5b600080610f75856004818961394a565b810190610f829190613974565b6000549193509150610f0e906201000090046001600160a01b0316898685856115a5565b7fbb3fd702000000000000000000000000000000000000000000000000000000006001600160e01b0319821601610ffb57600054610ff6906201000090046001600160a01b0316878487876116d5565b6110a9565b6001600160e01b031981167ff2fde38b00000000000000000000000000000000000000000000000000000000148061105c57506001600160e01b031981167f79ba509700000000000000000000000000000000000000000000000000000000145b1561106b57610ff68683611837565b6040517f2ba8851c0000000000000000000000000000000000000000000000000000000081526001600160e01b0319821660048201526024016103d1565b505050505050565b600054610100900460ff1661112e5760405162461bcd60e51b815260206004820152602b60248201527f496e697469616c697a61626c653a20636f6e7472616374206973206e6f74206960448201527f6e697469616c697a696e6700000000000000000000000000000000000000000060648201526084016103d1565b6001600160a01b03811661116e576040517ffc85457900000000000000000000000000000000000000000000000000000000815260040160405180910390fd5b6000805460ff60b01b19620100006001600160a01b03851602167fffffffffffffffffff000000000000000000000000000000000000000000ffff90911617905550565b50565b600080546060919081906201000090046001600160a01b0316865a9087876040516111e1929190613a23565b600060405180830381858888f193505050503d806000811461121f576040519150601f19603f3d011682016040523d82523d6000602084013e611224565b606091505b5091509150600061126b83836040518060400160405280601e81526020017f4c5350363a206661696c656420657865637574696e67207061796c6f6164000081525061186c565b9050805160000361127c5780611290565b808060200190518101906112909190613845565b979650505050505050565b60008082516041036112d15760208301516040840151606085015160001a6112c587828585611885565b945094505050506112d9565b506000905060025b9250929050565b60008160048111156112f4576112f4613a33565b036112fc5750565b600181600481111561131057611310613a33565b0361135d5760405162461bcd60e51b815260206004820152601860248201527f45434453413a20696e76616c6964207369676e6174757265000000000000000060448201526064016103d1565b600281600481111561137157611371613a33565b036113be5760405162461bcd60e51b815260206004820152601f60248201527f45434453413a20696e76616c6964207369676e6174757265206c656e6774680060448201526064016103d1565b60038160048111156113d2576113d2613a33565b036111b25760405162461bcd60e51b815260206004820152602260248201527f45434453413a20696e76616c6964207369676e6174757265202773272076616c60448201527f756500000000000000000000000000000000000000000000000000000000000060648201526084016103d1565b604080517fffffffffffffffffffff00000000000000000000000000000000000000000000841660208201526000602a82018190526bffffffffffffffffffffffff198416602c83015291829101604051602081830303815290604052905080610381906138b3565b600082826040516020016114c3929190613a49565b60405160208183030381529060405280519060200120905092915050565b6001600160a01b0382166000908152600160209081526040808320608085901c845290915281205461152470010000000000000000000000000000000084613aa7565b149392505050565b611537838383611949565b505050565b600061154986848461197c565b90506203ffff198101611593576202000080851603611568575061159e565b61157685856204000061152c565b610ff6858461158e6001600160a01b038a1683611ba6565b611c46565b6110a985858361152c565b5050505050565b600080835167ffffffffffffffff8111156115c2576115c2613266565b6040519080825280602002602001820160405280156115eb578160200160208202803683370190505b5090506000805b61162f898783815181106116085761160861378b565b60200260200101518784815181106116225761162261378b565b602002602001015161197c565b91506203ffff1982016116455760019350611675565b61165088888461152c565b60018382815181106116645761166461378b565b911515602092830291909101909101525b600181019050855181106115f25783156116ca57620200008088160361169e575050505061159e565b6116ac88886204000061152c565b6116ca88876116c46001600160a01b038d1683611ba6565b86611d9d565b505050505050505050565b6116e360846064838561394a565b6116ec91613ac9565b608014611710578181604051630d886ef360e21b81526004016103d1929190613816565b600061172060246004848661394a565b61172991613ac9565b9050600061173b60446030858761394a565b61174491613ae7565b60601c9050308103611782576040517fa431b23600000000000000000000000000000000000000000000000000000000815260040160405180910390fd5b8161179b576117948787878787611fd2565b505061159e565b60018214806117aa5750600282145b156117df5760006117bf60646044868861394a565b6117c891613ac9565b151590506117d78787836120c5565b50505061159e565b600382036117f4576117948787878787612144565b6004820361182e576040517f80d6ebae00000000000000000000000000000000000000000000000000000000815260040160405180910390fd5b50505050505050565b6001808216146109aa57600061184d6001612170565b90508281604051631ded6b7360e11b81526004016103d1929190613b1a565b6060831561187b575081610324565b610324838361255e565b6000807f7fffffffffffffffffffffffffffffff5d576e7357a4501ddfe92f46681b20a08311156118bc5750600090506003611940565b6040805160008082526020820180845289905260ff881692820192909252606081018690526080810185905260019060a0016020604051602081039080840390855afa158015611910573d6000803e3d6000fd5b5050604051601f1901519150506001600160a01b03811661193957600060019250925050611940565b9150600090505b94509492505050565b808216811461153757600061195d82612170565b90508381604051631ded6b7360e11b81526004016103d1929190613b1a565b60007f20cf245f92495cf19acab2659b39f67a000000000000000000000000000000006fffffffffffffffffffffffffffffffff198416016119ca576119c3848484612588565b9050610324565b7fb47f8bd21d4100000000000000000000000000000000000000000000000000007fffffffffffff0000000000000000000000000000000000000000000000000000841601611afb577fb47f8bd21d407d534c9d000000000000000000000000000000000000000000006001600160a01b0319841601611a4e576119c384846126d0565b7fb47f8bd21d40c6c59b39000000000000000000000000000000000000000000006001600160a01b0319841601611a8a576119c3848484612760565b7fb47f8bd21d407993d6ef000000000000000000000000000000000000000000006001600160a01b0319841601611ac6576119c384848461280e565b6040517f0f7d735b000000000000000000000000000000000000000000000000000000008152600481018490526024016103d1565b7f0cfc51aec37c55a4d0b1a65c6255c4bf2fbdf6277f3cc0730c45b828b6db8b47831480611b5257506001600160a01b031983167f0cfc51aec37c55a4d0b100000000000000000000000000000000000000000000145b15611b61576119c38484612838565b7f311874bf6b2579feef6a000000000000000000000000000000000000000000006001600160a01b0319841601611b9c576119c384846128be565b5062040000610324565b60606001600160a01b0383166354f6127f611be37f4b80742de2bf866c29110000000000000000000000000000000000000000000085851b611445565b6040518263ffffffff1660e01b8152600401611c0191815260200190565b600060405180830381865afa158015611c1e573d6000803e3d6000fd5b505050506040513d6000823e601f3d908101601f191682016040526103249190810190613845565b8051600003611c735760405163ed7fa50960e01b81526001600160a01b03841660048201526024016103d1565b6000806000805b8451841015611d7257848481518110611c9557611c9561378b565b01602001516001600160f81b03191685611cb08660016137b7565b81518110611cc057611cc061378b565b016020908101516040516001600160f81b031993841692810192909252919091166021820152602201604051602081830303815290604052611d0190613b3c565b60f01c92506020831115611d2a578460405163ae6cbd3760e01b81526004016103d19190613b88565b611d35836020613bda565b611d40906008613bf1565b8585016022015160001990911b908116925090508581168203611d665750505050505050565b92820160020192611c7a565b60405163557ae07960e01b81526001600160a01b0388166004820152602481018790526044016103d1565b8151600003611dca5760405163ed7fa50960e01b81526001600160a01b03851660048201526024016103d1565b8251600090818080805b8751841015611f4b57878481518110611def57611def61378b565b01602001516001600160f81b03191688611e0a8660016137b7565b81518110611e1a57611e1a61378b565b016020908101516040516001600160f81b031993841692810192909252919091166021820152602201604051602081830303815290604052611e5b90613b3c565b60f01c92506020831115611e84578760405163ae6cbd3760e01b81526004016103d19190613b88565b611e8f836020613bda565b611e9a906008613bf1565b8885016022015160001990911b9081169250905060005b85811015611f3e57878181518110611ecb57611ecb61378b565b6020026020010151611f365782828b8381518110611eeb57611eeb61378b565b60200260200101511603611f36576001888281518110611f0d57611f0d61378b565b91151560209283029190910190910152600187019650858703611f365750505050505050611fcc565b600101611eb1565b5092820160020192611dd4565b60005b85811015611fc457878181518110611f6857611f6861378b565b6020026020010151611fbc578a8a8281518110611f8757611f8761378b565b602090810291909101015160405163557ae07960e01b81526001600160a01b03909216600483015260248201526044016103d1565b600101611f4e565b505050505050505b50505050565b6000611fe260646044848661394a565b611feb91613ac9565b1580159150610100858116149060a48411906104008088161490849061200f575082155b1561202157612021888861020061152c565b8015801561202d575081155b8015612037575083155b1561204957612049888861080061152c565b818015612054575080155b1561206657612066888861080061152c565b808015612071575083155b1561207f575050505061159e565b82801561208a575081155b80156120935750835b156120a1575050505061159e565b8080156120ab5750825b156120b9575050505061159e565b6116ca89898888612944565b6120d383836201000061152c565b610100828116148180156120e5575080155b15611fcc5760408051631ded6b7360e11b81526001600160a01b03861660048201526024810191909152601360448201527f53555045525f5452414e5346455256414c55450000000000000000000000000060648201526084016103d1565b611000838116148015612157575061159e565b612164858561200061152c565b6110a986868585612944565b606060001982016121b457505060408051808201909152601181527f5452414e534645524f574e455253484950000000000000000000000000000000602082015290565b60031982016121f657505060408051808201909152600f81527f454449545045524d495353494f4e530000000000000000000000000000000000602082015290565b600119820161223857505060408051808201909152600d81527f414444434f4e54524f4c4c455200000000000000000000000000000000000000602082015290565b600719820161227a57505060408051808201909152600d81527f414444455854454e53494f4e5300000000000000000000000000000000000000602082015290565b600f1982016122bc57505060408051808201909152601081527f4348414e4745455854454e53494f4e5300000000000000000000000000000000602082015290565b601f1982016122fe57505060408051808201909152601c81527f414444554e4956455253414c524543454956455244454c454741544500000000602082015290565b603f19820161234057505060408051808201909152601f81527f4348414e4745554e4956455253414c524543454956455244454c454741544500602082015290565b607f19820161238257505060408051808201909152600a81527f5245454e5452414e435900000000000000000000000000000000000000000000602082015290565b6203ffff1982016123c657505060408051808201909152600781527f5345544441544100000000000000000000000000000000000000000000000000602082015290565b6107ff19820161240957505060408051808201909152600481527f43414c4c00000000000000000000000000000000000000000000000000000000602082015290565b611fff19820161244c57505060408051808201909152600a81527f53544154494343414c4c00000000000000000000000000000000000000000000602082015290565b617fff19820161248f57505060408051808201909152600c81527f44454c454741544543414c4c0000000000000000000000000000000000000000602082015290565b61ffff1982016124d257505060408051808201909152600681527f4445504c4f590000000000000000000000000000000000000000000000000000602082015290565b6101ff19820161251557505060408051808201909152600d81527f5452414e5346455256414c554500000000000000000000000000000000000000602082015290565b621fffff19820161255957505060408051808201909152600481527f5349474e00000000000000000000000000000000000000000000000000000000602082015290565b919050565b81511561256e5781518083602001fd5b8060405162461bcd60e51b81526004016103d19190613253565b6040516354f6127f60e01b81526004810183905260009081906001600160a01b038616906354f6127f90602401600060405180830381865afa1580156125d2573d6000803e3d6000fd5b505050506040513d6000823e601f3d908101601f191682016040526125fa9190810190613845565b90507f20cf245f92495cf19acab2659b39f679e0f76aba35a7394b241ce5a0cc734f1d840161266a57600061262e84613c10565b60801c905061263c82613c10565b60801c6fffffffffffffffffffffffffffffffff82161161265e576004612661565b60025b92505050610324565b82511580159061267c57508251601414155b156126b75783836040517f8f4afa380000000000000000000000000000000000000000000000000000000081526004016103d1929190613c4d565b8051156126c5576004610398565b600295945050505050565b6040516354f6127f60e01b81526004810182905260009081906001600160a01b038516906354f6127f90602401600060405180830381865afa15801561271a573d6000803e3d6000fd5b505050506040513d6000823e601f3d908101601f191682016040526127429190810190613845565b61274b906138b3565b14612757576004610324565b50600292915050565b600061276b82612b32565b61278a578160405163187e77ab60e01b81526004016103d19190613253565b6040516354f6127f60e01b8152600481018490526001600160a01b038516906354f6127f90602401600060405180830381865afa1580156127cf573d6000803e3d6000fd5b505050506040513d6000823e601f3d908101601f191682016040526127f79190810190613845565b5115612804576004610381565b6002949350505050565b600061281982612c28565b61278a578160405163ae6cbd3760e01b81526004016103d19190613c66565b6040516354f6127f60e01b8152600481018290526000906001600160a01b038416906354f6127f90602401600060405180830381865afa158015612880573d6000803e3d6000fd5b505050506040513d6000823e601f3d908101601f191682016040526128a89190810190613845565b51156128b5576040610324565b50602092915050565b6040516354f6127f60e01b8152600481018290526000906001600160a01b038416906354f6127f90602401600060405180830381865afa158015612906573d6000803e3d6000fd5b505050506040513d6000823e601f3d908101601f1916820160405261292e9190810190613845565b511561293b576010610324565b50600892915050565b6000806000806129548686612d0e565b9296509094509250905060006129736001600160a01b038a1689612da1565b905080516000036129bb576040517f6cb605870000000000000000000000000000000000000000000000000000000081526001600160a01b03891660048201526024016103d1565b60006129c8868486612dde565b905060005b8251811015612adc5782516129e38260226137b7565b1115612a04578260405163187e77ab60e01b81526004016103d19190613253565b6000612a1c84612a158460026137b7565b6020612eb2565b905063ffffffff196020612a2f836138b3565b63ffffffff19911b1603612a7a576040517f6fd203c50000000000000000000000000000000000000000000000000000000081526001600160a01b038c1660048201526024016103d1565b612a848184612fda565b8015612a955750612a958188613001565b8015612aa65750612aa68188613044565b8015612ab75750612ab7818661307c565b15612ac9575050505050505050611fcc565b50612ad56022826137b7565b90506129cd565b506040517f45147bce0000000000000000000000000000000000000000000000000000000081526001600160a01b03808b166004830152861660248201526001600160e01b0319841660448201526064016103d1565b6000805b8251811015612c0e578251612b4c8260016137b7565b10612b5a5750600092915050565b6000838281518110612b6e57612b6e61378b565b01602001516001600160f81b03191684612b898460016137b7565b81518110612b9957612b9961378b565b016020908101516040516001600160f81b031993841692810192909252919091166021820152602201604051602081830303815290604052612bda90613b3c565b60f01c905060208114612bf1575060009392505050565b612bfc8160026137b7565b612c0690836137b7565b915050612b36565b82518103612c1f5750600192915050565b50600092915050565b6000805b8251811015612c0e578251612c428260016137b7565b10612c505750600092915050565b6000838281518110612c6457612c6461378b565b01602001516001600160f81b03191684612c7f8460016137b7565b81518110612c8f57612c8f61378b565b016020908101516040516001600160f81b031993841692810192909252919091166021820152602201604051602081830303815290604052612cd090613b3c565b60f01c9050801580612ce25750602081115b15612cf1575060009392505050565b612cfc8160026137b7565b612d0690836137b7565b915050612c2c565b600080808080612d2260246004888a61394a565b612d2b91613ac9565b90506000612d3d60446030898b61394a565b612d4691613ae7565b60601c90506000612d5b606460448a8c61394a565b612d6491613ac9565b9050600060a8891015612d78576000612d8f565b612d8660a860a48b8d61394a565b612d8f91613723565b939a9299509097509195509350505050565b60606001600160a01b0383166354f6127f611be37f4b80742de2bf393a64c70000000000000000000000000000000000000000000085851b611445565b60008084612e35576001600160e01b03198416158015612dfc575082155b80612e1057506001600160e01b0319841615155b15612e3557507c02000000000000000000000000000000000000000000000000000000005b60038503612e5d57507c04000000000000000000000000000000000000000000000000000000005b60048503612e8557507c08000000000000000000000000000000000000000000000000000000005b8215610381577c010000000000000000000000000000000000000000000000000000000017949350505050565b606081612ec081601f6137b7565b1015612f0e5760405162461bcd60e51b815260206004820152600e60248201527f736c6963655f6f766572666c6f7700000000000000000000000000000000000060448201526064016103d1565b612f1882846137b7565b84511015612f685760405162461bcd60e51b815260206004820152601160248201527f736c6963655f6f75744f66426f756e647300000000000000000000000000000060448201526064016103d1565b606082158015612f875760405191506000825260208201604052612fd1565b6040519150601f8416801560200281840101858101878315602002848b0101015b81831015612fc0578051835260209283019201612fa8565b5050858452601f01601f1916604052505b50949350505050565b600080612fe684613753565b83166001600160e01b03199081169084161491505092915050565b600080602061300f856138b3565b901b60601c90506001600160a01b038114806103815750806001600160a01b0316836001600160a01b03161491505092915050565b60008060c0613052856138b3565b901b90506001600160e01b0319808216148061038157506103816001600160a01b038416826130c8565b60008060e061308a856138b3565b901b90506001600160e01b03198381161515908083161480610398575080801561039857506001600160e01b03198481169083161495945050505050565b604080516001600160e01b03198316602480830191909152825180830390910181526044909101909152602080820180516001600160e01b03166301ffc9a760e01b178152825160009392849283928392918391908a617530fa92503d9150600051905082801561313a575060208210155b8015611290575015159695505050505050565b60006020828403121561315f57600080fd5b81356001600160e01b03198116811461032457600080fd5b60008083601f84011261318957600080fd5b50813567ffffffffffffffff8111156131a157600080fd5b6020830191508360208285010111156112d957600080fd5b600080602083850312156131cc57600080fd5b823567ffffffffffffffff8111156131e357600080fd5b6131ef85828601613177565b90969095509350505050565b60005b838110156132165781810151838201526020016131fe565b83811115611fcc5750506000910152565b6000815180845261323f8160208601602086016131fb565b601f01601f19169290920160200192915050565b6020815260006103246020830184613227565b634e487b7160e01b600052604160045260246000fd5b604051601f8201601f1916810167ffffffffffffffff811182821017156132a5576132a5613266565b604052919050565b600067ffffffffffffffff8211156132c7576132c7613266565b50601f01601f191660200190565b600082601f8301126132e657600080fd5b81356132f96132f4826132ad565b61327c565b81815284602083860101111561330e57600080fd5b816020850160208301376000918101602001919091529392505050565b6000806040838503121561333e57600080fd5b82359150602083013567ffffffffffffffff81111561335c57600080fd5b613368858286016132d5565b9150509250929050565b6000806000806060858703121561338857600080fd5b843567ffffffffffffffff808211156133a057600080fd5b6133ac888389016132d5565b95506020870135945060408701359150808211156133c957600080fd5b506133d687828801613177565b95989497509550505050565b80356001600160a01b038116811461255957600080fd5b6000806000806060858703121561340f57600080fd5b613418856133e2565b935060208501359250604085013567ffffffffffffffff81111561343b57600080fd5b6133d687828801613177565b6000806040838503121561345a57600080fd5b613463836133e2565b915060208301356fffffffffffffffffffffffffffffffff8116811461348857600080fd5b809150509250929050565b600067ffffffffffffffff8211156134ad576134ad613266565b5060051b60200190565b600082601f8301126134c857600080fd5b813560206134d86132f483613493565b82815260059290921b840181019181810190868411156134f757600080fd5b8286015b8481101561353757803567ffffffffffffffff81111561351b5760008081fd5b6135298986838b01016132d5565b8452509183019183016134fb565b509695505050505050565b60008083601f84011261355457600080fd5b50813567ffffffffffffffff81111561356c57600080fd5b6020830191508360208260051b85010111156112d957600080fd5b60008060008060008060006080888a0312156135a257600080fd5b873567ffffffffffffffff808211156135ba57600080fd5b6135c68b838c016134b7565b985060208a01359150808211156135dc57600080fd5b6135e88b838c01613542565b909850965060408a013591508082111561360157600080fd5b61360d8b838c01613542565b909650945060608a013591508082111561362657600080fd5b506136338a828b01613542565b989b979a50959850939692959293505050565b6000602080830181845280855180835260408601915060408160051b870101925083870160005b8281101561369b57603f19888603018452613689858351613227565b9450928501929085019060010161366d565b5092979650505050505050565b600080600080604085870312156136be57600080fd5b843567ffffffffffffffff808211156136d657600080fd5b6136e288838901613542565b909650945060208701359150808211156136fb57600080fd5b506133d687828801613542565b60006020828403121561371a57600080fd5b610324826133e2565b6001600160e01b0319813581811691600485101561374b5780818660040360031b1b83161692505b505092915050565b6000815160208301516001600160e01b0319808216935060048310156137835780818460040360031b1b83161693505b505050919050565b634e487b7160e01b600052603260045260246000fd5b634e487b7160e01b600052601160045260246000fd5b600082198211156137ca576137ca6137a1565b500190565b6000808335601e198436030181126137e657600080fd5b83018035915067ffffffffffffffff82111561380157600080fd5b6020019150368190038213156112d957600080fd5b60208152816020820152818360408301376000818301604090810191909152601f909201601f19160101919050565b60006020828403121561385757600080fd5b815167ffffffffffffffff81111561386e57600080fd5b8201601f8101841361387f57600080fd5b805161388d6132f4826132ad565b8181528560208385010111156138a257600080fd5b6103988260208301602086016131fb565b805160208083015191908110156138d4576000198160200360031b1b821691505b50919050565b868152856020820152846040820152836060820152818360808301376000910160800190815295945050505050565b6001600160a01b03841681528260208201526060604082015260006103986060830184613227565b600060018201613943576139436137a1565b5060010190565b6000808585111561395a57600080fd5b8386111561396757600080fd5b5050820193919092039150565b6000806040838503121561398757600080fd5b823567ffffffffffffffff8082111561399f57600080fd5b818501915085601f8301126139b357600080fd5b813560206139c36132f483613493565b82815260059290921b840181019181810190898411156139e257600080fd5b948201945b83861015613a00578535825294820194908201906139e7565b96505086013592505080821115613a1657600080fd5b50613368858286016134b7565b8183823760009101908152919050565b634e487b7160e01b600052602160045260246000fd5b7f190000000000000000000000000000000000000000000000000000000000000081526bffffffffffffffffffffffff198360601b16600282015260008251613a998160168501602087016131fb565b919091016016019392505050565b600082613ac457634e487b7160e01b600052601260045260246000fd5b500690565b8035602083101561031157600019602084900360031b1b1692915050565b6bffffffffffffffffffffffff19813581811691601485101561374b5760149490940360031b84901b1690921692915050565b6001600160a01b03831681526040602082015260006103816040830184613227565b6000815160208301517fffff000000000000000000000000000000000000000000000000000000000000808216935060028310156137835760029290920360031b82901b161692915050565b604081526000613b9b6040830184613227565b8281036020840152601c81527f636f756c646e2774204445434f44452066726f6d2073746f726167650000000060208201526040810191505092915050565b600082821015613bec57613bec6137a1565b500390565b6000816000190483118215151615613c0b57613c0b6137a1565b500290565b6000815160208301516fffffffffffffffffffffffffffffffff19808216935060108310156137835760109290920360031b82901b161692915050565b8281526040602082015260006103816040830184613227565b604081526000613c796040830184613227565b8281036020840152602081527f636f756c646e27742056414c49444154452074686520646174612076616c75656020820152604081019150509291505056fea264697066735822122020c08c22eaaadeafbec56117fac1f90abaabfa09f38493fbf0eedf40a125e6c564736f6c634300080f0033",
  "linkReferences": {},
  "deployedLinkReferences": {}
}