{
  "_format": "hh-sol-artifact-1",
  "contractName": "LSP6KeyManager",
  "sourceName": "contracts/LSP6KeyManager/LSP6KeyManager.sol",
  "abi": [
    {
      "inputs": [
        {
          "internalType": "address",
          "name": "target_",
          "type": "address"
        }
      ],
      "stateMutability": "nonpayable",
      "type": "constructor"
    },
    {
      "inputs": [
        {
          "internalType": "bytes32",
          "name": "dataKey",
          "type": "bytes32"
        },
        {
          "internalType": "bytes",
          "name": "invalidValue",
          "type": "bytes"
        }
      ],
      "name": "AddressPermissionArrayIndexValueNotAnAddress",
      "type": "error"
    },
    {
      "inputs": [],
      "name": "BatchExecuteParamsLengthMismatch",
      "type": "error"
    },
    {
      "inputs": [],
      "name": "BatchExecuteRelayCallParamsLengthMismatch",
      "type": "error"
    },
    {
      "inputs": [
        {
          "internalType": "address",
          "name": "caller",
          "type": "address"
        }
      ],
      "name": "CallerIsNotTheTarget",
      "type": "error"
    },
    {
      "inputs": [],
      "name": "CallingKeyManagerNotAllowed",
      "type": "error"
    },
    {
      "inputs": [],
      "name": "CannotSendValueToSetData",
      "type": "error"
    },
    {
      "inputs": [],
      "name": "DelegateCallDisallowedViaKeyManager",
      "type": "error"
    },
    {
      "inputs": [
        {
          "internalType": "bytes4",
          "name": "invalidFunction",
          "type": "bytes4"
        }
      ],
      "name": "InvalidERC725Function",
      "type": "error"
    },
    {
      "inputs": [
        {
          "internalType": "bytes",
          "name": "allowedCallsValue",
          "type": "bytes"
        }
      ],
      "name": "InvalidEncodedAllowedCalls",
      "type": "error"
    },
    {
      "inputs": [
        {
          "internalType": "bytes",
          "name": "value",
          "type": "bytes"
        },
        {
          "internalType": "string",
          "name": "context",
          "type": "string"
        }
      ],
      "name": "InvalidEncodedAllowedERC725YDataKeys",
      "type": "error"
    },
    {
      "inputs": [],
      "name": "InvalidLSP6Target",
      "type": "error"
    },
    {
      "inputs": [
        {
          "internalType": "bytes",
          "name": "payload",
          "type": "bytes"
        }
      ],
      "name": "InvalidPayload",
      "type": "error"
    },
    {
      "inputs": [
        {
          "internalType": "address",
          "name": "signer",
          "type": "address"
        },
        {
          "internalType": "uint256",
          "name": "invalidNonce",
          "type": "uint256"
        },
        {
          "internalType": "bytes",
          "name": "signature",
          "type": "bytes"
        }
      ],
      "name": "InvalidRelayNonce",
      "type": "error"
    },
    {
      "inputs": [
        {
          "internalType": "address",
          "name": "from",
          "type": "address"
        }
      ],
      "name": "InvalidWhitelistedCall",
      "type": "error"
    },
    {
      "inputs": [
        {
          "internalType": "uint256",
          "name": "totalValues",
          "type": "uint256"
        },
        {
          "internalType": "uint256",
          "name": "msgValue",
          "type": "uint256"
        }
      ],
      "name": "LSP6BatchExcessiveValueSent",
      "type": "error"
    },
    {
      "inputs": [
        {
          "internalType": "uint256",
          "name": "totalValues",
          "type": "uint256"
        },
        {
          "internalType": "uint256",
          "name": "msgValue",
          "type": "uint256"
        }
      ],
      "name": "LSP6BatchInsufficientValueSent",
      "type": "error"
    },
    {
      "inputs": [
        {
          "internalType": "address",
          "name": "from",
          "type": "address"
        }
      ],
      "name": "NoCallsAllowed",
      "type": "error"
    },
    {
      "inputs": [
        {
          "internalType": "address",
          "name": "from",
          "type": "address"
        }
      ],
      "name": "NoERC725YDataKeysAllowed",
      "type": "error"
    },
    {
      "inputs": [
        {
          "internalType": "address",
          "name": "from",
          "type": "address"
        }
      ],
      "name": "NoPermissionsSet",
      "type": "error"
    },
    {
      "inputs": [
        {
          "internalType": "address",
          "name": "from",
          "type": "address"
        },
        {
          "internalType": "address",
          "name": "to",
          "type": "address"
        },
        {
          "internalType": "bytes4",
          "name": "selector",
          "type": "bytes4"
        }
      ],
      "name": "NotAllowedCall",
      "type": "error"
    },
    {
      "inputs": [
        {
          "internalType": "address",
          "name": "from",
          "type": "address"
        },
        {
          "internalType": "bytes32",
          "name": "disallowedKey",
          "type": "bytes32"
        }
      ],
      "name": "NotAllowedERC725YDataKey",
      "type": "error"
    },
    {
      "inputs": [
        {
          "internalType": "address",
          "name": "from",
          "type": "address"
        },
        {
          "internalType": "string",
          "name": "permission",
          "type": "string"
        }
      ],
      "name": "NotAuthorised",
      "type": "error"
    },
    {
      "inputs": [
        {
          "internalType": "bytes32",
          "name": "dataKey",
          "type": "bytes32"
        }
      ],
      "name": "NotRecognisedPermissionKey",
      "type": "error"
    },
    {
      "anonymous": false,
      "inputs": [
        {
          "indexed": true,
          "internalType": "address",
          "name": "signer",
          "type": "address"
        },
        {
          "indexed": true,
          "internalType": "uint256",
          "name": "value",
          "type": "uint256"
        },
        {
          "indexed": true,
          "internalType": "bytes4",
          "name": "selector",
          "type": "bytes4"
        }
      ],
      "name": "VerifiedCall",
      "type": "event"
    },
    {
      "inputs": [
        {
          "internalType": "bytes",
          "name": "payload",
          "type": "bytes"
        }
      ],
      "name": "execute",
      "outputs": [
        {
          "internalType": "bytes",
          "name": "",
          "type": "bytes"
        }
      ],
      "stateMutability": "payable",
      "type": "function"
    },
    {
      "inputs": [
        {
          "internalType": "uint256[]",
          "name": "values",
          "type": "uint256[]"
        },
        {
          "internalType": "bytes[]",
          "name": "payloads",
          "type": "bytes[]"
        }
      ],
      "name": "execute",
      "outputs": [
        {
          "internalType": "bytes[]",
          "name": "",
          "type": "bytes[]"
        }
      ],
      "stateMutability": "payable",
      "type": "function"
    },
    {
      "inputs": [
        {
          "internalType": "bytes",
          "name": "signature",
          "type": "bytes"
        },
        {
          "internalType": "uint256",
          "name": "nonce",
          "type": "uint256"
        },
        {
          "internalType": "bytes",
          "name": "payload",
          "type": "bytes"
        }
      ],
      "name": "executeRelayCall",
      "outputs": [
        {
          "internalType": "bytes",
          "name": "",
          "type": "bytes"
        }
      ],
      "stateMutability": "payable",
      "type": "function"
    },
    {
      "inputs": [
        {
          "internalType": "bytes[]",
          "name": "signatures",
          "type": "bytes[]"
        },
        {
          "internalType": "uint256[]",
          "name": "nonces",
          "type": "uint256[]"
        },
        {
          "internalType": "uint256[]",
          "name": "values",
          "type": "uint256[]"
        },
        {
          "internalType": "bytes[]",
          "name": "payloads",
          "type": "bytes[]"
        }
      ],
      "name": "executeRelayCall",
      "outputs": [
        {
          "internalType": "bytes[]",
          "name": "",
          "type": "bytes[]"
        }
      ],
      "stateMutability": "payable",
      "type": "function"
    },
    {
      "inputs": [
        {
          "internalType": "address",
          "name": "from",
          "type": "address"
        },
        {
          "internalType": "uint128",
          "name": "channelId",
          "type": "uint128"
        }
      ],
      "name": "getNonce",
      "outputs": [
        {
          "internalType": "uint256",
          "name": "",
          "type": "uint256"
        }
      ],
      "stateMutability": "view",
      "type": "function"
    },
    {
      "inputs": [
        {
          "internalType": "bytes32",
          "name": "dataHash",
          "type": "bytes32"
        },
        {
          "internalType": "bytes",
          "name": "signature",
          "type": "bytes"
        }
      ],
      "name": "isValidSignature",
      "outputs": [
        {
          "internalType": "bytes4",
          "name": "magicValue",
          "type": "bytes4"
        }
      ],
      "stateMutability": "view",
      "type": "function"
    },
    {
      "inputs": [
        {
          "internalType": "address",
          "name": "caller",
          "type": "address"
        },
        {
          "internalType": "uint256",
          "name": "msgValue",
          "type": "uint256"
        },
        {
          "internalType": "bytes",
          "name": "data",
          "type": "bytes"
        }
      ],
      "name": "lsp20VerifyCall",
      "outputs": [
        {
          "internalType": "bytes4",
          "name": "",
          "type": "bytes4"
        }
      ],
      "stateMutability": "nonpayable",
      "type": "function"
    },
    {
      "inputs": [
        {
          "internalType": "bytes32",
          "name": "",
          "type": "bytes32"
        },
        {
          "internalType": "bytes",
          "name": "",
          "type": "bytes"
        }
      ],
      "name": "lsp20VerifyCallResult",
      "outputs": [
        {
          "internalType": "bytes4",
          "name": "",
          "type": "bytes4"
        }
      ],
      "stateMutability": "nonpayable",
      "type": "function"
    },
    {
      "inputs": [
        {
          "internalType": "bytes4",
          "name": "interfaceId",
          "type": "bytes4"
        }
      ],
      "name": "supportsInterface",
      "outputs": [
        {
          "internalType": "bool",
          "name": "",
          "type": "bool"
        }
      ],
      "stateMutability": "view",
      "type": "function"
    },
    {
      "inputs": [],
      "name": "target",
      "outputs": [
        {
          "internalType": "address",
          "name": "",
          "type": "address"
        }
      ],
      "stateMutability": "view",
      "type": "function"
    }
  ],
  "bytecode": "0x60806040523480156200001157600080fd5b5060405162003b0238038062003b0283398101604081905262000034916200007e565b6001600160a01b0381166200005c5760405163fc85457960e01b815260040160405180910390fd5b600080546001600160a81b0319166001600160a01b03831617905550620000b0565b6000602082840312156200009157600080fd5b81516001600160a01b0381168114620000a957600080fd5b9392505050565b613a4280620000c06000396000f3fe6080604052600436106100b15760003560e01c8063b44581d911610069578063bf3e1f7b1161004e578063bf3e1f7b14610215578063d3fc45d314610228578063d4b839921461024857600080fd5b8063b44581d914610177578063bd68663a146101f557600080fd5b80631626ba7e1161009a5780631626ba7e1461010b578063902d5fa0146101445780639bf04b111461015757600080fd5b806301ffc9a7146100b657806309c5eabe146100eb575b600080fd5b3480156100c257600080fd5b506100d66100d1366004612ebc565b610270565b60405190151581526020015b60405180910390f35b6100fe6100f9366004612f28565b6102db565b6040516100e29190612fc2565b34801561011757600080fd5b5061012b61012636600461309a565b6102ef565b6040516001600160e01b031990911681526020016100e2565b6100fe6101523660046130e1565b610347565b34801561016357600080fd5b5061012b610172366004613168565b61035f565b34801561018357600080fd5b506101e76101923660046131b6565b6001600160a01b03821660009081526001602090815260408083206fffffffffffffffffffffffffffffffff851684529091529020546fffffffffffffffffffffffffffffffff19608083901b161792915050565b6040519081526020016100e2565b6102086102033660046132f6565b6104d4565b6040516100e291906133b5565b610208610223366004613417565b6106b4565b34801561023457600080fd5b5061012b61024336600461309a565b610844565b34801561025457600080fd5b506000546040516001600160a01b0390911681526020016100e2565b60006001600160e01b031982167ffb4374140000000000000000000000000000000000000000000000000000000014806102ba57506001600160e01b03198216630b135d3f60e11b145b806102d557506301ffc9a760e01b6001600160e01b03198316145b92915050565b60606102e83484846108ac565b9392505050565b6000806102fc84846109a7565b60005490915061032490622000009061031e906001600160a01b0316846109cb565b81161490565b610336576001600160e01b031961033f565b630b135d3f60e11b5b949350505050565b60606103568585348686610a79565b95945050505050565b600080546001600160a01b03163314610392576040516368e8738b60e01b81523360048201526024015b60405180910390fd5b6000631fc8da4360e21b6103a68486613477565b6001600160e01b03191614806103d557506314a6e29360e01b6103c98486613477565b6001600160e01b031916145b156103de575060015b6103e88187610c47565b6103f486868686610c9c565b6103fe8385613477565b6001600160e01b03191685336001600160a01b03167fa54458b75709e42f79700ffb6cfc57c7e224d8a77a52c457ee7ecb8e2263628060405160405180910390a48061049957604051629bf04b60e81b60208201527f01000000000000000000000000000000000000000000000000000000000000006023820152602401604051602081830303815290604052610494906134a7565b6104ca565b604051629bf04b60e81b6020820152600060238201526024016040516020818303038152906040526104ca906134a7565b9695505050505050565b8651606090861415806104e75750858414155b806104f25750838214155b15610529576040517fb4d50d2100000000000000000000000000000000000000000000000000000000815260040160405180910390fd5b60008267ffffffffffffffff81111561054457610544612fd5565b60405190808252806020026020018201604052801561057757816020015b60608152602001906001900390816105625790505b5090506000805b8481101561067c5734888883818110610599576105996134df565b90506020020135836105ab919061350b565b92508211156105d657604051630c28c92b60e21b815260048101839052346024820152604401610389565b61064e8b82815181106105eb576105eb6134df565b60200260200101518b8b84818110610605576106056134df565b905060200201358a8a8581811061061e5761061e6134df565b90506020020135898986818110610637576106376134df565b90506020028101906106499190613523565b610a79565b838281518110610660576106606134df565b60200260200101819052506106758160010190565b905061057e565b50348110156106a75760405163528c345b60e11b815260048101829052346024820152604401610389565b5098975050505050505050565b60608382146106ef576040517f55a187db00000000000000000000000000000000000000000000000000000000815260040160405180910390fd5b60008267ffffffffffffffff81111561070a5761070a612fd5565b60405190808252806020026020018201604052801561073d57816020015b60608152602001906001900390816107285790505b5090506000805b8481101561080f573488888381811061075f5761075f6134df565b9050602002013583610771919061350b565b925082111561079c57604051630c28c92b60e21b815260048101839052346024820152604401610389565b6107e18888838181106107b1576107b16134df565b905060200201358787848181106107ca576107ca6134df565b90506020028101906107dc9190613523565b6108ac565b8382815181106107f3576107f36134df565b60200260200101819052506108088160010190565b9050610744565b503481101561083a5760405163528c345b60e11b815260048101829052346024820152604401610389565b5095945050505050565b600080546001600160a01b03163314610872576040516368e8738b60e01b8152336004820152602401610389565b6108846000805460ff60a01b19169055565b507fd3fc45d30000000000000000000000000000000000000000000000000000000092915050565b606060048210156108d4578282604051630d886ef360e21b815260040161038992919061356a565b6000631fc8da4360e21b6108e88486613477565b6001600160e01b031916148061091757506314a6e29360e01b61090b8486613477565b6001600160e01b031916145b15610920575060015b61092a8133610c47565b61093633868686610c9c565b6109408385613477565b6001600160e01b03191685336001600160a01b03167fa54458b75709e42f79700ffb6cfc57c7e224d8a77a52c457ee7ecb8e2263628060405160405180910390a4600061098e868686610f27565b905081610356576103566000805460ff60a01b19169055565b60008060006109b68585611007565b915091506109c38161104c565b509392505050565b6000806001600160a01b0384166354f6127f610a0b7f4b80742de2bf82acb36300000000000000000000000000000000000000000000606087901b6111b4565b6040518263ffffffff1660e01b8152600401610a2991815260200190565b600060405180830381865afa158015610a46573d6000803e3d6000fd5b505050506040513d6000823e601f3d908101601f19168201604052610a6e9190810190613599565b905061033f81613607565b60606004821015610aa1578282604051630d886ef360e21b815260040161038992919061356a565b600060064687878787604051602001610abf9695949392919061362e565b60408051601f1981840301815291905290506000610ae788610ae1308561121d565b906109a7565b90506000631fc8da4360e21b610afd8688613477565b6001600160e01b0319161480610b2c57506314a6e29360e01b610b208688613477565b6001600160e01b031916145b15610b35575060015b610b3f8183610c47565b610b498289611250565b610b855781888a6040517fc9bd9eb90000000000000000000000000000000000000000000000000000000081526004016103899392919061365d565b6001600160a01b038216600090815260016020908152604080832060808c901c84529091528120805491610bb883613685565b9190505550610bc982888888610c9c565b610bd38587613477565b6001600160e01b03191687836001600160a01b03167fa54458b75709e42f79700ffb6cfc57c7e224d8a77a52c457ee7ecb8e2263628060405160405180910390a46000610c21888888610f27565b905081610c3a57610c3a6000805460ff60a01b19169055565b9998505050505050505050565b600054600160a01b900460ff1615610c8057600054610c7c908290610c75906001600160a01b0316826109cb565b608061129b565b5050565b81610c7c576000805460ff60a01b1916600160a01b1790555050565b60008054610cb3906001600160a01b0316866109cb565b905080610cf7576040517ff292052a0000000000000000000000000000000000000000000000000000000081526001600160a01b0386166004820152602401610389565b6000610d038385613477565b90507f80dc96f4000000000000000000000000000000000000000000000000000000006001600160e01b0319821601610d97578415610d55576040516316694a7f60e21b815260040160405180910390fd5b600080610d65856004818961369e565b810190610d72919061309a565b6000549193509150610d90906001600160a01b0316898685856112ab565b5050610f1f565b7feb591d6d000000000000000000000000000000000000000000000000000000006001600160e01b0319821601610e22578415610de7576040516316694a7f60e21b815260040160405180910390fd5b600080610df7856004818961369e565b810190610e0491906136c8565b6000549193509150610d90906001600160a01b031689868585611314565b7fbb3fd702000000000000000000000000000000000000000000000000000000006001600160e01b0319821601610e7157600054610e6c906001600160a01b031687848787611444565b610f1f565b6001600160e01b031981167ff2fde38b000000000000000000000000000000000000000000000000000000001480610ed257506001600160e01b031981167f79ba509700000000000000000000000000000000000000000000000000000000145b15610ee157610e6c86836115a6565b6040517f2ba8851c0000000000000000000000000000000000000000000000000000000081526001600160e01b031982166004820152602401610389565b505050505050565b600080546060919081906001600160a01b0316865a908787604051610f4d929190613777565b600060405180830381858888f193505050503d8060008114610f8b576040519150601f19603f3d011682016040523d82523d6000602084013e610f90565b606091505b50915091506000610fd783836040518060400160405280601e81526020017f4c5350363a206661696c656420657865637574696e67207061796c6f616400008152506115db565b90508051600003610fe85780610ffc565b80806020019051810190610ffc9190613599565b979650505050505050565b600080825160410361103d5760208301516040840151606085015160001a611031878285856115f4565b94509450505050611045565b506000905060025b9250929050565b600081600481111561106057611060613787565b036110685750565b600181600481111561107c5761107c613787565b036110c95760405162461bcd60e51b815260206004820152601860248201527f45434453413a20696e76616c6964207369676e617475726500000000000000006044820152606401610389565b60028160048111156110dd576110dd613787565b0361112a5760405162461bcd60e51b815260206004820152601f60248201527f45434453413a20696e76616c6964207369676e6174757265206c656e677468006044820152606401610389565b600381600481111561113e5761113e613787565b036111b15760405162461bcd60e51b815260206004820152602260248201527f45434453413a20696e76616c6964207369676e6174757265202773272076616c60448201527f75650000000000000000000000000000000000000000000000000000000000006064820152608401610389565b50565b604080517fffffffffffffffffffff00000000000000000000000000000000000000000000841660208201526000602a82018190526bffffffffffffffffffffffff198416602c8301529182910160405160208183030381529060405290508061033f90613607565b6000828260405160200161123292919061379d565b60405160208183030381529060405280519060200120905092915050565b6001600160a01b0382166000908152600160209081526040808320608085901c8452909152812054611293700100000000000000000000000000000000846137fb565b149392505050565b6112a68383836116b8565b505050565b60006112b88684846116eb565b90506203ffff1981016113025762020000808516036112d7575061130d565b6112e585856204000061129b565b610e6c85846112fd6001600160a01b038a1683611915565b6119b5565b610f1f85858361129b565b5050505050565b600080835167ffffffffffffffff81111561133157611331612fd5565b60405190808252806020026020018201604052801561135a578160200160208202803683370190505b5090506000805b61139e89878381518110611377576113776134df565b6020026020010151878481518110611391576113916134df565b60200260200101516116eb565b91506203ffff1982016113b457600193506113e4565b6113bf88888461129b565b60018382815181106113d3576113d36134df565b911515602092830291909101909101525b6001810190508551811061136157831561143957620200008088160361140d575050505061130d565b61141b88886204000061129b565b61143988876114336001600160a01b038d1683611915565b86611b0c565b505050505050505050565b61145260846064838561369e565b61145b9161381d565b60801461147f578181604051630d886ef360e21b815260040161038992919061356a565b600061148f60246004848661369e565b6114989161381d565b905060006114aa60446030858761369e565b6114b39161383b565b60601c90503081036114f1576040517fa431b23600000000000000000000000000000000000000000000000000000000815260040160405180910390fd5b8161150a576115038787878787611d41565b505061130d565b60018214806115195750600282145b1561154e57600061152e60646044868861369e565b6115379161381d565b15159050611546878783611e34565b50505061130d565b60038203611563576115038787878787611eb3565b6004820361159d576040517f80d6ebae00000000000000000000000000000000000000000000000000000000815260040160405180910390fd5b50505050505050565b600180821614610c7c5760006115bc6001611edf565b90508281604051631ded6b7360e11b815260040161038992919061386e565b606083156115ea5750816102e8565b6102e883836122cd565b6000807f7fffffffffffffffffffffffffffffff5d576e7357a4501ddfe92f46681b20a083111561162b57506000905060036116af565b6040805160008082526020820180845289905260ff881692820192909252606081018690526080810185905260019060a0016020604051602081039080840390855afa15801561167f573d6000803e3d6000fd5b5050604051601f1901519150506001600160a01b0381166116a8576000600192509250506116af565b9150600090505b94509492505050565b80821681146112a65760006116cc82611edf565b90508381604051631ded6b7360e11b815260040161038992919061386e565b60007f20cf245f92495cf19acab2659b39f67a000000000000000000000000000000006fffffffffffffffffffffffffffffffff19841601611739576117328484846122f7565b90506102e8565b7fb47f8bd21d4100000000000000000000000000000000000000000000000000007fffffffffffff000000000000000000000000000000000000000000000000000084160161186a577fb47f8bd21d407d534c9d000000000000000000000000000000000000000000006001600160a01b03198416016117bd57611732848461243f565b7fb47f8bd21d40c6c59b39000000000000000000000000000000000000000000006001600160a01b03198416016117f9576117328484846124cf565b7fb47f8bd21d407993d6ef000000000000000000000000000000000000000000006001600160a01b03198416016118355761173284848461257d565b6040517f0f7d735b00000000000000000000000000000000000000000000000000000000815260048101849052602401610389565b7f0cfc51aec37c55a4d0b1a65c6255c4bf2fbdf6277f3cc0730c45b828b6db8b478314806118c157506001600160a01b031983167f0cfc51aec37c55a4d0b100000000000000000000000000000000000000000000145b156118d05761173284846125a7565b7f311874bf6b2579feef6a000000000000000000000000000000000000000000006001600160a01b031984160161190b57611732848461262d565b50620400006102e8565b60606001600160a01b0383166354f6127f6119527f4b80742de2bf866c29110000000000000000000000000000000000000000000085851b6111b4565b6040518263ffffffff1660e01b815260040161197091815260200190565b600060405180830381865afa15801561198d573d6000803e3d6000fd5b505050506040513d6000823e601f3d908101601f191682016040526102e89190810190613599565b80516000036119e25760405163ed7fa50960e01b81526001600160a01b0384166004820152602401610389565b6000806000805b8451841015611ae157848481518110611a0457611a046134df565b01602001516001600160f81b03191685611a1f86600161350b565b81518110611a2f57611a2f6134df565b016020908101516040516001600160f81b031993841692810192909252919091166021820152602201604051602081830303815290604052611a7090613890565b60f01c92506020831115611a99578460405163ae6cbd3760e01b815260040161038991906138dc565b611aa483602061392e565b611aaf906008613945565b8585016022015160001990911b908116925090508581168203611ad55750505050505050565b928201600201926119e9565b60405163557ae07960e01b81526001600160a01b038816600482015260248101879052604401610389565b8151600003611b395760405163ed7fa50960e01b81526001600160a01b0385166004820152602401610389565b8251600090818080805b8751841015611cba57878481518110611b5e57611b5e6134df565b01602001516001600160f81b03191688611b7986600161350b565b81518110611b8957611b896134df565b016020908101516040516001600160f81b031993841692810192909252919091166021820152602201604051602081830303815290604052611bca90613890565b60f01c92506020831115611bf3578760405163ae6cbd3760e01b815260040161038991906138dc565b611bfe83602061392e565b611c09906008613945565b8885016022015160001990911b9081169250905060005b85811015611cad57878181518110611c3a57611c3a6134df565b6020026020010151611ca55782828b8381518110611c5a57611c5a6134df565b60200260200101511603611ca5576001888281518110611c7c57611c7c6134df565b91151560209283029190910190910152600187019650858703611ca55750505050505050611d3b565b600101611c20565b5092820160020192611b43565b60005b85811015611d3357878181518110611cd757611cd76134df565b6020026020010151611d2b578a8a8281518110611cf657611cf66134df565b602090810291909101015160405163557ae07960e01b81526001600160a01b0390921660048301526024820152604401610389565b600101611cbd565b505050505050505b50505050565b6000611d5160646044848661369e565b611d5a9161381d565b1580159150610100858116149060a484119061040080881614908490611d7e575082155b15611d9057611d90888861020061129b565b80158015611d9c575081155b8015611da6575083155b15611db857611db8888861080061129b565b818015611dc3575080155b15611dd557611dd5888861080061129b565b808015611de0575083155b15611dee575050505061130d565b828015611df9575081155b8015611e025750835b15611e10575050505061130d565b808015611e1a5750825b15611e28575050505061130d565b611439898988886126b3565b611e4283836201000061129b565b61010082811614818015611e54575080155b15611d3b5760408051631ded6b7360e11b81526001600160a01b03861660048201526024810191909152601360448201527f53555045525f5452414e5346455256414c5545000000000000000000000000006064820152608401610389565b611000838116148015611ec6575061130d565b611ed3858561200061129b565b610f1f868685856126b3565b60606000198201611f2357505060408051808201909152601181527f5452414e534645524f574e455253484950000000000000000000000000000000602082015290565b6003198201611f6557505060408051808201909152600f81527f454449545045524d495353494f4e530000000000000000000000000000000000602082015290565b6001198201611fa757505060408051808201909152600d81527f414444434f4e54524f4c4c455200000000000000000000000000000000000000602082015290565b6007198201611fe957505060408051808201909152600d81527f414444455854454e53494f4e5300000000000000000000000000000000000000602082015290565b600f19820161202b57505060408051808201909152601081527f4348414e4745455854454e53494f4e5300000000000000000000000000000000602082015290565b601f19820161206d57505060408051808201909152601c81527f414444554e4956455253414c524543454956455244454c454741544500000000602082015290565b603f1982016120af57505060408051808201909152601f81527f4348414e4745554e4956455253414c524543454956455244454c454741544500602082015290565b607f1982016120f157505060408051808201909152600a81527f5245454e5452414e435900000000000000000000000000000000000000000000602082015290565b6203ffff19820161213557505060408051808201909152600781527f5345544441544100000000000000000000000000000000000000000000000000602082015290565b6107ff19820161217857505060408051808201909152600481527f43414c4c00000000000000000000000000000000000000000000000000000000602082015290565b611fff1982016121bb57505060408051808201909152600a81527f53544154494343414c4c00000000000000000000000000000000000000000000602082015290565b617fff1982016121fe57505060408051808201909152600c81527f44454c454741544543414c4c0000000000000000000000000000000000000000602082015290565b61ffff19820161224157505060408051808201909152600681527f4445504c4f590000000000000000000000000000000000000000000000000000602082015290565b6101ff19820161228457505060408051808201909152600d81527f5452414e5346455256414c554500000000000000000000000000000000000000602082015290565b621fffff1982016122c857505060408051808201909152600481527f5349474e00000000000000000000000000000000000000000000000000000000602082015290565b919050565b8151156122dd5781518083602001fd5b8060405162461bcd60e51b81526004016103899190612fc2565b6040516354f6127f60e01b81526004810183905260009081906001600160a01b038616906354f6127f90602401600060405180830381865afa158015612341573d6000803e3d6000fd5b505050506040513d6000823e601f3d908101601f191682016040526123699190810190613599565b90507f20cf245f92495cf19acab2659b39f679e0f76aba35a7394b241ce5a0cc734f1d84016123d957600061239d84613964565b60801c90506123ab82613964565b60801c6fffffffffffffffffffffffffffffffff8216116123cd5760046123d0565b60025b925050506102e8565b8251158015906123eb57508251601414155b156124265783836040517f8f4afa380000000000000000000000000000000000000000000000000000000081526004016103899291906139a1565b805115612434576004610356565b600295945050505050565b6040516354f6127f60e01b81526004810182905260009081906001600160a01b038516906354f6127f90602401600060405180830381865afa158015612489573d6000803e3d6000fd5b505050506040513d6000823e601f3d908101601f191682016040526124b19190810190613599565b6124ba90613607565b146124c65760046102e8565b50600292915050565b60006124da826128a1565b6124f9578160405163187e77ab60e01b81526004016103899190612fc2565b6040516354f6127f60e01b8152600481018490526001600160a01b038516906354f6127f90602401600060405180830381865afa15801561253e573d6000803e3d6000fd5b505050506040513d6000823e601f3d908101601f191682016040526125669190810190613599565b511561257357600461033f565b6002949350505050565b600061258882612997565b6124f9578160405163ae6cbd3760e01b815260040161038991906139ba565b6040516354f6127f60e01b8152600481018290526000906001600160a01b038416906354f6127f90602401600060405180830381865afa1580156125ef573d6000803e3d6000fd5b505050506040513d6000823e601f3d908101601f191682016040526126179190810190613599565b51156126245760406102e8565b50602092915050565b6040516354f6127f60e01b8152600481018290526000906001600160a01b038416906354f6127f90602401600060405180830381865afa158015612675573d6000803e3d6000fd5b505050506040513d6000823e601f3d908101601f1916820160405261269d9190810190613599565b51156126aa5760106102e8565b50600892915050565b6000806000806126c38686612a7d565b9296509094509250905060006126e26001600160a01b038a1689612b10565b9050805160000361272a576040517f6cb605870000000000000000000000000000000000000000000000000000000081526001600160a01b0389166004820152602401610389565b6000612737868486612b4d565b905060005b825181101561284b57825161275282602261350b565b1115612773578260405163187e77ab60e01b81526004016103899190612fc2565b600061278b8461278484600261350b565b6020612c21565b905063ffffffff19602061279e83613607565b63ffffffff19911b16036127e9576040517f6fd203c50000000000000000000000000000000000000000000000000000000081526001600160a01b038c166004820152602401610389565b6127f38184612d49565b801561280457506128048188612d70565b801561281557506128158188612db3565b801561282657506128268186612deb565b15612838575050505050505050611d3b565b5061284460228261350b565b905061273c565b506040517f45147bce0000000000000000000000000000000000000000000000000000000081526001600160a01b03808b166004830152861660248201526001600160e01b031984166044820152606401610389565b6000805b825181101561297d5782516128bb82600161350b565b106128c95750600092915050565b60008382815181106128dd576128dd6134df565b01602001516001600160f81b031916846128f884600161350b565b81518110612908576129086134df565b016020908101516040516001600160f81b03199384169281019290925291909116602182015260220160405160208183030381529060405261294990613890565b60f01c905060208114612960575060009392505050565b61296b81600261350b565b612975908361350b565b9150506128a5565b8251810361298e5750600192915050565b50600092915050565b6000805b825181101561297d5782516129b182600161350b565b106129bf5750600092915050565b60008382815181106129d3576129d36134df565b01602001516001600160f81b031916846129ee84600161350b565b815181106129fe576129fe6134df565b016020908101516040516001600160f81b031993841692810192909252919091166021820152602201604051602081830303815290604052612a3f90613890565b60f01c9050801580612a515750602081115b15612a60575060009392505050565b612a6b81600261350b565b612a75908361350b565b91505061299b565b600080808080612a9160246004888a61369e565b612a9a9161381d565b90506000612aac60446030898b61369e565b612ab59161383b565b60601c90506000612aca606460448a8c61369e565b612ad39161381d565b9050600060a8891015612ae7576000612afe565b612af560a860a48b8d61369e565b612afe91613477565b939a9299509097509195509350505050565b60606001600160a01b0383166354f6127f6119527f4b80742de2bf393a64c70000000000000000000000000000000000000000000085851b6111b4565b60008084612ba4576001600160e01b03198416158015612b6b575082155b80612b7f57506001600160e01b0319841615155b15612ba457507c02000000000000000000000000000000000000000000000000000000005b60038503612bcc57507c04000000000000000000000000000000000000000000000000000000005b60048503612bf457507c08000000000000000000000000000000000000000000000000000000005b821561033f577c010000000000000000000000000000000000000000000000000000000017949350505050565b606081612c2f81601f61350b565b1015612c7d5760405162461bcd60e51b815260206004820152600e60248201527f736c6963655f6f766572666c6f770000000000000000000000000000000000006044820152606401610389565b612c87828461350b565b84511015612cd75760405162461bcd60e51b815260206004820152601160248201527f736c6963655f6f75744f66426f756e64730000000000000000000000000000006044820152606401610389565b606082158015612cf65760405191506000825260208201604052612d40565b6040519150601f8416801560200281840101858101878315602002848b0101015b81831015612d2f578051835260209283019201612d17565b5050858452601f01601f1916604052505b50949350505050565b600080612d55846134a7565b83166001600160e01b03199081169084161491505092915050565b6000806020612d7e85613607565b901b60601c90506001600160a01b0381148061033f5750806001600160a01b0316836001600160a01b03161491505092915050565b60008060c0612dc185613607565b901b90506001600160e01b0319808216148061033f575061033f6001600160a01b03841682612e37565b60008060e0612df985613607565b901b90506001600160e01b03198381161515908083161480610356575080801561035657506001600160e01b03198481169083161495945050505050565b604080516001600160e01b03198316602480830191909152825180830390910181526044909101909152602080820180516001600160e01b03166301ffc9a760e01b178152825160009392849283928392918391908a617530fa92503d91506000519050828015612ea9575060208210155b8015610ffc575015159695505050505050565b600060208284031215612ece57600080fd5b81356001600160e01b0319811681146102e857600080fd5b60008083601f840112612ef857600080fd5b50813567ffffffffffffffff811115612f1057600080fd5b60208301915083602082850101111561104557600080fd5b60008060208385031215612f3b57600080fd5b823567ffffffffffffffff811115612f5257600080fd5b612f5e85828601612ee6565b90969095509350505050565b60005b83811015612f85578181015183820152602001612f6d565b83811115611d3b5750506000910152565b60008151808452612fae816020860160208601612f6a565b601f01601f19169290920160200192915050565b6020815260006102e86020830184612f96565b634e487b7160e01b600052604160045260246000fd5b604051601f8201601f1916810167ffffffffffffffff8111828210171561301457613014612fd5565b604052919050565b600067ffffffffffffffff82111561303657613036612fd5565b50601f01601f191660200190565b600082601f83011261305557600080fd5b81356130686130638261301c565b612feb565b81815284602083860101111561307d57600080fd5b816020850160208301376000918101602001919091529392505050565b600080604083850312156130ad57600080fd5b82359150602083013567ffffffffffffffff8111156130cb57600080fd5b6130d785828601613044565b9150509250929050565b600080600080606085870312156130f757600080fd5b843567ffffffffffffffff8082111561310f57600080fd5b61311b88838901613044565b955060208701359450604087013591508082111561313857600080fd5b5061314587828801612ee6565b95989497509550505050565b80356001600160a01b03811681146122c857600080fd5b6000806000806060858703121561317e57600080fd5b61318785613151565b935060208501359250604085013567ffffffffffffffff8111156131aa57600080fd5b61314587828801612ee6565b600080604083850312156131c957600080fd5b6131d283613151565b915060208301356fffffffffffffffffffffffffffffffff811681146131f757600080fd5b809150509250929050565b600067ffffffffffffffff82111561321c5761321c612fd5565b5060051b60200190565b600082601f83011261323757600080fd5b8135602061324761306383613202565b82815260059290921b8401810191818101908684111561326657600080fd5b8286015b848110156132a657803567ffffffffffffffff81111561328a5760008081fd5b6132988986838b0101613044565b84525091830191830161326a565b509695505050505050565b60008083601f8401126132c357600080fd5b50813567ffffffffffffffff8111156132db57600080fd5b6020830191508360208260051b850101111561104557600080fd5b60008060008060008060006080888a03121561331157600080fd5b873567ffffffffffffffff8082111561332957600080fd5b6133358b838c01613226565b985060208a013591508082111561334b57600080fd5b6133578b838c016132b1565b909850965060408a013591508082111561337057600080fd5b61337c8b838c016132b1565b909650945060608a013591508082111561339557600080fd5b506133a28a828b016132b1565b989b979a50959850939692959293505050565b6000602080830181845280855180835260408601915060408160051b870101925083870160005b8281101561340a57603f198886030184526133f8858351612f96565b945092850192908501906001016133dc565b5092979650505050505050565b6000806000806040858703121561342d57600080fd5b843567ffffffffffffffff8082111561344557600080fd5b613451888389016132b1565b9096509450602087013591508082111561346a57600080fd5b50613145878288016132b1565b6001600160e01b0319813581811691600485101561349f5780818660040360031b1b83161692505b505092915050565b6000815160208301516001600160e01b0319808216935060048310156134d75780818460040360031b1b83161693505b505050919050565b634e487b7160e01b600052603260045260246000fd5b634e487b7160e01b600052601160045260246000fd5b6000821982111561351e5761351e6134f5565b500190565b6000808335601e1984360301811261353a57600080fd5b83018035915067ffffffffffffffff82111561355557600080fd5b60200191503681900382131561104557600080fd5b60208152816020820152818360408301376000818301604090810191909152601f909201601f19160101919050565b6000602082840312156135ab57600080fd5b815167ffffffffffffffff8111156135c257600080fd5b8201601f810184136135d357600080fd5b80516135e16130638261301c565b8181528560208385010111156135f657600080fd5b610356826020830160208601612f6a565b80516020808301519190811015613628576000198160200360031b1b821691505b50919050565b868152856020820152846040820152836060820152818360808301376000910160800190815295945050505050565b6001600160a01b03841681528260208201526060604082015260006103566060830184612f96565b600060018201613697576136976134f5565b5060010190565b600080858511156136ae57600080fd5b838611156136bb57600080fd5b5050820193919092039150565b600080604083850312156136db57600080fd5b823567ffffffffffffffff808211156136f357600080fd5b818501915085601f83011261370757600080fd5b8135602061371761306383613202565b82815260059290921b8401810191818101908984111561373657600080fd5b948201945b838610156137545785358252948201949082019061373b565b9650508601359250508082111561376a57600080fd5b506130d785828601613226565b8183823760009101908152919050565b634e487b7160e01b600052602160045260246000fd5b7f190000000000000000000000000000000000000000000000000000000000000081526bffffffffffffffffffffffff198360601b166002820152600082516137ed816016850160208701612f6a565b919091016016019392505050565b60008261381857634e487b7160e01b600052601260045260246000fd5b500690565b803560208310156102d557600019602084900360031b1b1692915050565b6bffffffffffffffffffffffff19813581811691601485101561349f5760149490940360031b84901b1690921692915050565b6001600160a01b038316815260406020820152600061033f6040830184612f96565b6000815160208301517fffff000000000000000000000000000000000000000000000000000000000000808216935060028310156134d75760029290920360031b82901b161692915050565b6040815260006138ef6040830184612f96565b8281036020840152601c81527f636f756c646e2774204445434f44452066726f6d2073746f726167650000000060208201526040810191505092915050565b600082821015613940576139406134f5565b500390565b600081600019048311821515161561395f5761395f6134f5565b500290565b6000815160208301516fffffffffffffffffffffffffffffffff19808216935060108310156134d75760109290920360031b82901b161692915050565b82815260406020820152600061033f6040830184612f96565b6040815260006139cd6040830184612f96565b8281036020840152602081527f636f756c646e27742056414c49444154452074686520646174612076616c75656020820152604081019150509291505056fea2646970667358221220f5c0b99408b345a14d6605f62c6039f3a518dc038e14139d0137c73d0a99e44764736f6c634300080f0033",
  "linkReferences": {},
  "deployedLinkReferences": {}
}