{
  "_format": "hh-sol-artifact-1",
  "contractName": "LSP7CompatibleERC20MintableInit",
  "sourceName": "contracts/LSP7DigitalAsset/presets/LSP7CompatibleERC20MintableInit.sol",
  "abi": [
    {
      "inputs": [],
      "stateMutability": "nonpayable",
      "type": "constructor"
    },
    {
      "inputs": [
        {
          "internalType": "uint256",
          "name": "dataKeysLength",
          "type": "uint256"
        },
        {
          "internalType": "uint256",
          "name": "dataValuesLength",
          "type": "uint256"
        }
      ],
      "name": "ERC725Y_DataKeysValuesLengthMismatch",
      "type": "error"
    },
    {
      "inputs": [],
      "name": "ERC725Y_MsgValueDisallowed",
      "type": "error"
    },
    {
      "inputs": [],
      "name": "LSP4TokenNameNotEditable",
      "type": "error"
    },
    {
      "inputs": [],
      "name": "LSP4TokenSymbolNotEditable",
      "type": "error"
    },
    {
      "inputs": [
        {
          "internalType": "address",
          "name": "tokenOwner",
          "type": "address"
        },
        {
          "internalType": "uint256",
          "name": "authorizedAmount",
          "type": "uint256"
        },
        {
          "internalType": "address",
          "name": "operator",
          "type": "address"
        },
        {
          "internalType": "uint256",
          "name": "amount",
          "type": "uint256"
        }
      ],
      "name": "LSP7AmountExceedsAuthorizedAmount",
      "type": "error"
    },
    {
      "inputs": [
        {
          "internalType": "uint256",
          "name": "balance",
          "type": "uint256"
        },
        {
          "internalType": "address",
          "name": "tokenOwner",
          "type": "address"
        },
        {
          "internalType": "uint256",
          "name": "amount",
          "type": "uint256"
        }
      ],
      "name": "LSP7AmountExceedsBalance",
      "type": "error"
    },
    {
      "inputs": [],
      "name": "LSP7CannotSendToSelf",
      "type": "error"
    },
    {
      "inputs": [],
      "name": "LSP7CannotSendWithAddressZero",
      "type": "error"
    },
    {
      "inputs": [],
      "name": "LSP7CannotUseAddressZeroAsOperator",
      "type": "error"
    },
    {
      "inputs": [],
      "name": "LSP7InvalidTransferBatch",
      "type": "error"
    },
    {
      "inputs": [
        {
          "internalType": "address",
          "name": "tokenReceiver",
          "type": "address"
        }
      ],
      "name": "LSP7NotifyTokenReceiverContractMissingLSP1Interface",
      "type": "error"
    },
    {
      "inputs": [
        {
          "internalType": "address",
          "name": "tokenReceiver",
          "type": "address"
        }
      ],
      "name": "LSP7NotifyTokenReceiverIsEOA",
      "type": "error"
    },
    {
      "inputs": [],
      "name": "LSP7TokenOwnerCannotBeOperator",
      "type": "error"
    },
    {
      "anonymous": false,
      "inputs": [
        {
          "indexed": true,
          "internalType": "address",
          "name": "owner",
          "type": "address"
        },
        {
          "indexed": true,
          "internalType": "address",
          "name": "spender",
          "type": "address"
        },
        {
          "indexed": false,
          "internalType": "uint256",
          "name": "value",
          "type": "uint256"
        }
      ],
      "name": "Approval",
      "type": "event"
    },
    {
      "anonymous": false,
      "inputs": [
        {
          "indexed": true,
          "internalType": "address",
          "name": "operator",
          "type": "address"
        },
        {
          "indexed": true,
          "internalType": "address",
          "name": "tokenOwner",
          "type": "address"
        },
        {
          "indexed": true,
          "internalType": "uint256",
          "name": "amount",
          "type": "uint256"
        }
      ],
      "name": "AuthorizedOperator",
      "type": "event"
    },
    {
      "anonymous": false,
      "inputs": [
        {
          "indexed": true,
          "internalType": "bytes32",
          "name": "dataKey",
          "type": "bytes32"
        },
        {
          "indexed": false,
          "internalType": "bytes",
          "name": "dataValue",
          "type": "bytes"
        }
      ],
      "name": "DataChanged",
      "type": "event"
    },
    {
      "anonymous": false,
      "inputs": [
        {
          "indexed": false,
          "internalType": "uint8",
          "name": "version",
          "type": "uint8"
        }
      ],
      "name": "Initialized",
      "type": "event"
    },
    {
      "anonymous": false,
      "inputs": [
        {
          "indexed": true,
          "internalType": "address",
          "name": "previousOwner",
          "type": "address"
        },
        {
          "indexed": true,
          "internalType": "address",
          "name": "newOwner",
          "type": "address"
        }
      ],
      "name": "OwnershipTransferred",
      "type": "event"
    },
    {
      "anonymous": false,
      "inputs": [
        {
          "indexed": true,
          "internalType": "address",
          "name": "operator",
          "type": "address"
        },
        {
          "indexed": true,
          "internalType": "address",
          "name": "tokenOwner",
          "type": "address"
        }
      ],
      "name": "RevokedOperator",
      "type": "event"
    },
    {
      "anonymous": false,
      "inputs": [
        {
          "indexed": true,
          "internalType": "address",
          "name": "from",
          "type": "address"
        },
        {
          "indexed": true,
          "internalType": "address",
          "name": "to",
          "type": "address"
        },
        {
          "indexed": false,
          "internalType": "uint256",
          "name": "value",
          "type": "uint256"
        }
      ],
      "name": "Transfer",
      "type": "event"
    },
    {
      "anonymous": false,
      "inputs": [
        {
          "indexed": true,
          "internalType": "address",
          "name": "operator",
          "type": "address"
        },
        {
          "indexed": true,
          "internalType": "address",
          "name": "from",
          "type": "address"
        },
        {
          "indexed": true,
          "internalType": "address",
          "name": "to",
          "type": "address"
        },
        {
          "indexed": false,
          "internalType": "uint256",
          "name": "amount",
          "type": "uint256"
        },
        {
          "indexed": false,
          "internalType": "bool",
          "name": "allowNonLSP1Recipient",
          "type": "bool"
        },
        {
          "indexed": false,
          "internalType": "bytes",
          "name": "data",
          "type": "bytes"
        }
      ],
      "name": "Transfer",
      "type": "event"
    },
    {
      "inputs": [
        {
          "internalType": "address",
          "name": "tokenOwner",
          "type": "address"
        },
        {
          "internalType": "address",
          "name": "operator",
          "type": "address"
        }
      ],
      "name": "allowance",
      "outputs": [
        {
          "internalType": "uint256",
          "name": "",
          "type": "uint256"
        }
      ],
      "stateMutability": "view",
      "type": "function"
    },
    {
      "inputs": [
        {
          "internalType": "address",
          "name": "operator",
          "type": "address"
        },
        {
          "internalType": "uint256",
          "name": "amount",
          "type": "uint256"
        }
      ],
      "name": "approve",
      "outputs": [
        {
          "internalType": "bool",
          "name": "",
          "type": "bool"
        }
      ],
      "stateMutability": "nonpayable",
      "type": "function"
    },
    {
      "inputs": [
        {
          "internalType": "address",
          "name": "operator",
          "type": "address"
        },
        {
          "internalType": "uint256",
          "name": "amount",
          "type": "uint256"
        }
      ],
      "name": "authorizeOperator",
      "outputs": [],
      "stateMutability": "nonpayable",
      "type": "function"
    },
    {
      "inputs": [
        {
          "internalType": "address",
          "name": "operator",
          "type": "address"
        },
        {
          "internalType": "address",
          "name": "tokenOwner",
          "type": "address"
        }
      ],
      "name": "authorizedAmountFor",
      "outputs": [
        {
          "internalType": "uint256",
          "name": "",
          "type": "uint256"
        }
      ],
      "stateMutability": "view",
      "type": "function"
    },
    {
      "inputs": [
        {
          "internalType": "address",
          "name": "tokenOwner",
          "type": "address"
        }
      ],
      "name": "balanceOf",
      "outputs": [
        {
          "internalType": "uint256",
          "name": "",
          "type": "uint256"
        }
      ],
      "stateMutability": "view",
      "type": "function"
    },
    {
      "inputs": [],
      "name": "decimals",
      "outputs": [
        {
          "internalType": "uint8",
          "name": "",
          "type": "uint8"
        }
      ],
      "stateMutability": "view",
      "type": "function"
    },
    {
      "inputs": [
        {
          "internalType": "bytes32[]",
          "name": "dataKeys",
          "type": "bytes32[]"
        }
      ],
      "name": "getData",
      "outputs": [
        {
          "internalType": "bytes[]",
          "name": "dataValues",
          "type": "bytes[]"
        }
      ],
      "stateMutability": "view",
      "type": "function"
    },
    {
      "inputs": [
        {
          "internalType": "bytes32",
          "name": "dataKey",
          "type": "bytes32"
        }
      ],
      "name": "getData",
      "outputs": [
        {
          "internalType": "bytes",
          "name": "dataValue",
          "type": "bytes"
        }
      ],
      "stateMutability": "view",
      "type": "function"
    },
    {
      "inputs": [
        {
          "internalType": "string",
          "name": "name_",
          "type": "string"
        },
        {
          "internalType": "string",
          "name": "symbol_",
          "type": "string"
        },
        {
          "internalType": "address",
          "name": "newOwner_",
          "type": "address"
        }
      ],
      "name": "initialize",
      "outputs": [],
      "stateMutability": "nonpayable",
      "type": "function"
    },
    {
      "inputs": [
        {
          "internalType": "address",
          "name": "to",
          "type": "address"
        },
        {
          "internalType": "uint256",
          "name": "amount",
          "type": "uint256"
        },
        {
          "internalType": "bool",
          "name": "allowNonLSP1Recipient",
          "type": "bool"
        },
        {
          "internalType": "bytes",
          "name": "data",
          "type": "bytes"
        }
      ],
      "name": "mint",
      "outputs": [],
      "stateMutability": "nonpayable",
      "type": "function"
    },
    {
      "inputs": [],
      "name": "name",
      "outputs": [
        {
          "internalType": "string",
          "name": "",
          "type": "string"
        }
      ],
      "stateMutability": "view",
      "type": "function"
    },
    {
      "inputs": [],
      "name": "owner",
      "outputs": [
        {
          "internalType": "address",
          "name": "",
          "type": "address"
        }
      ],
      "stateMutability": "view",
      "type": "function"
    },
    {
      "inputs": [],
      "name": "renounceOwnership",
      "outputs": [],
      "stateMutability": "nonpayable",
      "type": "function"
    },
    {
      "inputs": [
        {
          "internalType": "address",
          "name": "operator",
          "type": "address"
        }
      ],
      "name": "revokeOperator",
      "outputs": [],
      "stateMutability": "nonpayable",
      "type": "function"
    },
    {
      "inputs": [
        {
          "internalType": "bytes32[]",
          "name": "dataKeys",
          "type": "bytes32[]"
        },
        {
          "internalType": "bytes[]",
          "name": "dataValues",
          "type": "bytes[]"
        }
      ],
      "name": "setData",
      "outputs": [],
      "stateMutability": "payable",
      "type": "function"
    },
    {
      "inputs": [
        {
          "internalType": "bytes32",
          "name": "dataKey",
          "type": "bytes32"
        },
        {
          "internalType": "bytes",
          "name": "dataValue",
          "type": "bytes"
        }
      ],
      "name": "setData",
      "outputs": [],
      "stateMutability": "payable",
      "type": "function"
    },
    {
      "inputs": [
        {
          "internalType": "bytes4",
          "name": "interfaceId",
          "type": "bytes4"
        }
      ],
      "name": "supportsInterface",
      "outputs": [
        {
          "internalType": "bool",
          "name": "",
          "type": "bool"
        }
      ],
      "stateMutability": "view",
      "type": "function"
    },
    {
      "inputs": [],
      "name": "symbol",
      "outputs": [
        {
          "internalType": "string",
          "name": "",
          "type": "string"
        }
      ],
      "stateMutability": "view",
      "type": "function"
    },
    {
      "inputs": [],
      "name": "totalSupply",
      "outputs": [
        {
          "internalType": "uint256",
          "name": "",
          "type": "uint256"
        }
      ],
      "stateMutability": "view",
      "type": "function"
    },
    {
      "inputs": [
        {
          "internalType": "address",
          "name": "from",
          "type": "address"
        },
        {
          "internalType": "address",
          "name": "to",
          "type": "address"
        },
        {
          "internalType": "uint256",
          "name": "amount",
          "type": "uint256"
        },
        {
          "internalType": "bool",
          "name": "allowNonLSP1Recipient",
          "type": "bool"
        },
        {
          "internalType": "bytes",
          "name": "data",
          "type": "bytes"
        }
      ],
      "name": "transfer",
      "outputs": [],
      "stateMutability": "nonpayable",
      "type": "function"
    },
    {
      "inputs": [
        {
          "internalType": "address",
          "name": "to",
          "type": "address"
        },
        {
          "internalType": "uint256",
          "name": "amount",
          "type": "uint256"
        }
      ],
      "name": "transfer",
      "outputs": [
        {
          "internalType": "bool",
          "name": "",
          "type": "bool"
        }
      ],
      "stateMutability": "nonpayable",
      "type": "function"
    },
    {
      "inputs": [
        {
          "internalType": "address[]",
          "name": "from",
          "type": "address[]"
        },
        {
          "internalType": "address[]",
          "name": "to",
          "type": "address[]"
        },
        {
          "internalType": "uint256[]",
          "name": "amount",
          "type": "uint256[]"
        },
        {
          "internalType": "bool[]",
          "name": "allowNonLSP1Recipient",
          "type": "bool[]"
        },
        {
          "internalType": "bytes[]",
          "name": "data",
          "type": "bytes[]"
        }
      ],
      "name": "transferBatch",
      "outputs": [],
      "stateMutability": "nonpayable",
      "type": "function"
    },
    {
      "inputs": [
        {
          "internalType": "address",
          "name": "from",
          "type": "address"
        },
        {
          "internalType": "address",
          "name": "to",
          "type": "address"
        },
        {
          "internalType": "uint256",
          "name": "amount",
          "type": "uint256"
        }
      ],
      "name": "transferFrom",
      "outputs": [
        {
          "internalType": "bool",
          "name": "",
          "type": "bool"
        }
      ],
      "stateMutability": "nonpayable",
      "type": "function"
    },
    {
      "inputs": [
        {
          "internalType": "address",
          "name": "newOwner",
          "type": "address"
        }
      ],
      "name": "transferOwnership",
      "outputs": [],
      "stateMutability": "nonpayable",
      "type": "function"
    }
  ],
  "bytecode": "0x60806040523480156200001157600080fd5b506200001c62000022565b620000e4565b600054610100900460ff16156200008f5760405162461bcd60e51b815260206004820152602760248201527f496e697469616c697a61626c653a20636f6e747261637420697320696e697469604482015266616c697a696e6760c81b606482015260840160405180910390fd5b60005460ff9081161015620000e2576000805460ff191660ff9081179091556040519081527f7f26b83ff96e1f2b6a682f133852f6798a09c465da95921460cefb38474024989060200160405180910390a15b565b61255780620000f46000396000f3fe60806040526004361061018b5760003560e01c806365aeaa95116100d65780638da5cb5b1161007f578063dd62ed3e11610059578063dd62ed3e14610459578063f2fde38b14610479578063fad8b32a1461049957600080fd5b80638da5cb5b146103ed57806395d89b4114610424578063a9059cbb1461043957600080fd5b80637580d920116100b05780637580d9201461039a578063760d9bba146103ba5780637f23690c146103da57600080fd5b806365aeaa951461032f57806370a082311461034f578063715018a61461038557600080fd5b806323b872dd1161013857806347980aa31161011257806347980aa3146102c25780634e3e6e9c146102e257806354f6127f1461030f57600080fd5b806323b872dd1461025b5780632d7667c91461027b578063313ce5671461029b57600080fd5b8063095ea7b311610169578063095ea7b31461020957806314a6e2931461022957806318160ddd1461023c57600080fd5b806301ffc9a71461019057806306fdde03146101c5578063077f224a146101e7575b600080fd5b34801561019c57600080fd5b506101b06101ab366004611b13565b6104b9565b60405190151581526020015b60405180910390f35b3480156101d157600080fd5b506101da6104ca565b6040516101bc9190611b95565b3480156101f357600080fd5b50610207610202366004611c89565b6104f7565b005b34801561021557600080fd5b506101b0610224366004611cfd565b610622565b610207610237366004611e31565b610637565b34801561024857600080fd5b506003545b6040519081526020016101bc565b34801561026757600080fd5b506101b0610276366004611e95565b6106fb565b34801561028757600080fd5b50610207610296366004611fa5565b610724565b3480156102a757600080fd5b506102b061082c565b60405160ff90911681526020016101bc565b3480156102ce57600080fd5b506102076102dd366004611cfd565b610845565b3480156102ee57600080fd5b506103026102fd366004612077565b610854565b6040516101bc91906120b4565b34801561031b57600080fd5b506101da61032a366004612116565b610908565b34801561033b57600080fd5b5061024d61034a36600461212f565b610913565b34801561035b57600080fd5b5061024d61036a366004612162565b6001600160a01b031660009081526004602052604090205490565b34801561039157600080fd5b50610207610979565b3480156103a657600080fd5b506102076103b536600461217d565b61098d565b3480156103c657600080fd5b506102076103d53660046121e5565b6109a1565b6102076103e8366004612251565b610aa9565b3480156103f957600080fd5b506000546201000090046001600160a01b03166040516001600160a01b0390911681526020016101bc565b34801561043057600080fd5b506101da610ada565b34801561044557600080fd5b506101b0610454366004611cfd565b610b07565b34801561046557600080fd5b5061024d61047436600461212f565b610b26565b34801561048557600080fd5b50610207610494366004612162565b610b39565b3480156104a557600080fd5b506102076104b4366004612162565b610bc9565b60006104c482610bd5565b92915050565b606060006104c47fdeba1e292f8ba88238e10ab3c7f88bd4be4fac56cad5194b6ecceaf653468af1610c13565b600054610100900460ff16158080156105175750600054600160ff909116105b806105315750303b158015610531575060005460ff166001145b6105a85760405162461bcd60e51b815260206004820152602e60248201527f496e697469616c697a61626c653a20636f6e747261637420697320616c72656160448201527f647920696e697469616c697a656400000000000000000000000000000000000060648201526084015b60405180910390fd5b6000805460ff1916600117905580156105cb576000805461ff0019166101001790555b6105d6848484610cb5565b801561061c576000805461ff0019169055604051600181527f7f26b83ff96e1f2b6a682f133852f6798a09c465da95921460cefb38474024989060200160405180910390a15b50505050565b600061062e8383610845565b50600192915050565b61063f610d2b565b341561065e5760405163f36ba73760e01b815260040160405180910390fd5b80518251146106a657815181516040517f43a3c2660000000000000000000000000000000000000000000000000000000081526004810192909252602482015260440161059f565b60005b82518110156106f6576106ee8382815181106106c7576106c761228e565b60200260200101518383815181106106e1576106e161228e565b6020026020010151610d8c565b6001016106a9565b505050565b600061071a8484846001604051806020016040528060008152506109a1565b5060019392505050565b8451845181141580610737575083518114155b80610743575082518114155b8061074f575081518114155b15610786576040517f263eee8d00000000000000000000000000000000000000000000000000000000815260040160405180910390fd5b60005b818110156108235761081b8782815181106107a6576107a661228e565b60200260200101518783815181106107c0576107c061228e565b60200260200101518784815181106107da576107da61228e565b60200260200101518785815181106107f4576107f461228e565b602002602001015187868151811061080e5761080e61228e565b60200260200101516109a1565b600101610789565b50505050505050565b60025460009060ff1661083f5750601290565b50600090565b610850338383610d96565b5050565b6060815167ffffffffffffffff81111561087057610870611ba8565b6040519080825280602002602001820160405280156108a357816020015b606081526020019060019003908161088e5790505b50905060005b8251811015610902576108d48382815181106108c7576108c761228e565b6020026020010151610c13565b8282815181106108e6576108e661228e565b60200260200101819052506108fb8160010190565b90506108a9565b50919050565b60606104c482610c13565b6000826001600160a01b0316826001600160a01b03160361094d57506001600160a01b0381166000908152600460205260409020546104c4565b506001600160a01b038082166000908152600560209081526040808320938616835292905220546104c4565b610981610d2b565b61098b6000610df3565b565b610995610d2b565b61061c84848484610e7f565b836001600160a01b0316856001600160a01b0316036109ec576040517fb9afb00000000000000000000000000000000000000000000000000000000000815260040160405180910390fd5b336001600160a01b0386168114610a94576001600160a01b0380871660009081526005602090815260408083209385168352929052205480851115610a7e576040517ff3a6b6910000000000000000000000000000000000000000000000000000000081526001600160a01b03808916600483015260248201839052831660448201526064810186905260840161059f565b610a928783610a8d88856122ba565b610d96565b505b610aa18686868686610ed2565b505050505050565b610ab1610d2b565b3415610ad05760405163f36ba73760e01b815260040160405180910390fd5b6108508282610d8c565b606060006104c47f2f0a68ab07768e01943a599e73362a0e17a63a72e94dd2e384d2c1d4db932756610c13565b600061062e3384846001604051806020016040528060008152506109a1565b6000610b328284610913565b9392505050565b610b41610d2b565b6001600160a01b038116610bbd5760405162461bcd60e51b815260206004820152602660248201527f4f776e61626c653a206e6577206f776e657220697320746865207a65726f206160448201527f6464726573730000000000000000000000000000000000000000000000000000606482015260840161059f565b610bc681610df3565b50565b610bc633826000610d96565b60006001600160e01b031982167fda1f85e40000000000000000000000000000000000000000000000000000000014806104c457506104c482610f33565b6000818152600160205260409020805460609190610c30906122d1565b80601f0160208091040260200160405190810160405280929190818152602001828054610c5c906122d1565b8015610ca95780601f10610c7e57610100808354040283529160200191610ca9565b820191906000526020600020905b815481529060010190602001808311610c8c57829003601f168201915b50505050509050919050565b600054610100900460ff16610d205760405162461bcd60e51b815260206004820152602b60248201527f496e697469616c697a61626c653a20636f6e7472616374206973206e6f74206960448201526a6e697469616c697a696e6760a81b606482015260840161059f565b6106f6838383610f81565b6000546001600160a01b036201000090910416331461098b5760405162461bcd60e51b815260206004820181905260248201527f4f776e61626c653a2063616c6c6572206973206e6f7420746865206f776e6572604482015260640161059f565b6108508282610ff9565b610da183838361111f565b816001600160a01b0316836001600160a01b03167f8c5be1e5ebec7d5bd14f71427d1e84f3dd0314c0f7b2291e5b200ac8c7c3b92583604051610de691815260200190565b60405180910390a3505050565b6000546001600160a01b03828116620100009092041614610bc657600080546001600160a01b03838116620100008181027fffffffffffffffffffff0000000000000000000000000000000000000000ffff851617855560405193049190911692909183917f8be0079c531659141344cd1fd0a4f28419497f9722a3daafe3b4186f6b6457e091a35050565b610e8b84848484611263565b6040518381526001600160a01b038516906000907fddf252ad1be2c89b69c2b068fc378daa952ba7f163c4a11628f55a4df523b3ef9060200160405180910390a350505050565b610edf8585858585611360565b836001600160a01b0316856001600160a01b03167fddf252ad1be2c89b69c2b068fc378daa952ba7f163c4a11628f55a4df523b3ef85604051610f2491815260200190565b60405180910390a35050505050565b60006001600160e01b031982167f714df77c0000000000000000000000000000000000000000000000000000000014806104c457506301ffc9a760e01b6001600160e01b03198316146104c4565b600054610100900460ff16610fec5760405162461bcd60e51b815260206004820152602b60248201527f496e697469616c697a61626c653a20636f6e7472616374206973206e6f74206960448201526a6e697469616c697a696e6760a81b606482015260840161059f565b6106f68383836000611506565b7f2145e1d6d074577dc71ef54c3807742b41b053a9352ae6b491331509acb9750f8201611052576040517f85c169bd00000000000000000000000000000000000000000000000000000000815260040160405180910390fd5b7fd0f59754f88971fe6bc5a6618cc9d5f1e859c58d16b22d1c7b2d3e2b246cd8aa82016110ab576040517f76755b3800000000000000000000000000000000000000000000000000000000815260040160405180910390fd5b60008281526001602052604090206110c3828261234b565b50817fece574603820d07bc9b91f2a932baadf4628aabcb8afba49776529c14a6104b261010083511115611104576110ff83600061010061158a565b611106565b825b6040516111139190611b95565b60405180910390a25050565b6001600160a01b03821661115f576040517f6355e76600000000000000000000000000000000000000000000000000000000815260040160405180910390fd5b826001600160a01b0316826001600160a01b0316036111aa576040517fdab7504700000000000000000000000000000000000000000000000000000000815260040160405180910390fd5b6001600160a01b038084166000908152600560209081526040808320938616835292905220819055801561121e5780836001600160a01b0316836001600160a01b03167fd66aff874162a96578e919097b6f6d153dfd89a5cec41bb331fdb0c4aec16e2c60405160405180910390a4505050565b826001600160a01b0316826001600160a01b03167f50546e66e5f44d728365dc3908c63bc5cfeeab470722c1677e3073a6ac294aa160405160405180910390a3505050565b6001600160a01b03841661128a57604051630d2d5ec360e41b815260040160405180910390fd5b33836003600082825461129d919061240b565b90915550506001600160a01b038516600090815260046020526040812080548692906112ca90849061240b565b92505081905550846001600160a01b031660006001600160a01b0316826001600160a01b03167f3997e418d2cef0b3b0e907b1e39605c3f7d32dbd061e82ea5b4a770d46a160a687878760405161132393929190612423565b60405180910390a4600080868685604051602001611344949392919061244d565b6040516020818303038152906040529050610aa18685836116b2565b6001600160a01b038516158061137d57506001600160a01b038416155b1561139b57604051630d2d5ec360e41b815260040160405180910390fd5b6001600160a01b03851660009081526004602052604090205480841115611407576040517f08d47949000000000000000000000000000000000000000000000000000000008152600481018290526001600160a01b03871660248201526044810185905260640161059f565b336001600160a01b038716600090815260046020526040812080548792906114309084906122ba565b90915550506001600160a01b0386166000908152600460205260408120805487929061145d90849061240b565b92505081905550856001600160a01b0316876001600160a01b0316826001600160a01b03167f3997e418d2cef0b3b0e907b1e39605c3f7d32dbd061e82ea5b4a770d46a160a68888886040516114b593929190612423565b60405180910390a46000878787866040516020016114d6949392919061244d565b60405160208183030381529060405290506114f188826117ec565b6114fc8786836116b2565b5050505050505050565b600054610100900460ff166115715760405162461bcd60e51b815260206004820152602b60248201527f496e697469616c697a61626c653a20636f6e7472616374206973206e6f74206960448201526a6e697469616c697a696e6760a81b606482015260840161059f565b6002805460ff191682151517905561061c848484611897565b60608161159881601f61240b565b10156115e65760405162461bcd60e51b815260206004820152600e60248201527f736c6963655f6f766572666c6f77000000000000000000000000000000000000604482015260640161059f565b6115f0828461240b565b845110156116405760405162461bcd60e51b815260206004820152601160248201527f736c6963655f6f75744f66426f756e6473000000000000000000000000000000604482015260640161059f565b60608215801561165f57604051915060008252602082016040526116a9565b6040519150601f8416801560200281840101858101878315602002848b0101015b81831015611698578051835260209283019201611680565b5050858452601f01601f1916604052505b50949350505050565b6116c383631aed5a8560e21b6119c1565b1561175d57604051631aed5a8560e21b81526001600160a01b03841690636bb56a1490611716907f20804611b3e2ea21c480dc465142210acf4a2485947541770ec1fb87dee4a55c90859060040161249a565b6000604051808303816000875af1158015611735573d6000803e3d6000fd5b505050506040513d6000823e601f3d908101601f1916820160405261061c91908101906124b3565b816106f6576001600160a01b0383163b156117af576040517fa608fbb60000000000000000000000000000000000000000000000000000000081526001600160a01b038416600482015260240161059f565b6040517f26c247f40000000000000000000000000000000000000000000000000000000081526001600160a01b038416600482015260240161059f565b6117fd82631aed5a8560e21b6119c1565b1561085057604051631aed5a8560e21b81526001600160a01b03831690636bb56a1490611850907f429ac7a06903dbc9c13dfcb3c9d11df8194581fa047c96d7a4171fc7402958ea90859060040161249a565b6000604051808303816000875af115801561186f573d6000803e3d6000fd5b505050506040513d6000823e601f3d908101601f191682016040526106f691908101906124b3565b600054610100900460ff166119025760405162461bcd60e51b815260206004820152602b60248201527f496e697469616c697a61626c653a20636f6e7472616374206973206e6f74206960448201526a6e697469616c697a696e6760a81b606482015260840161059f565b61190b81611a5f565b61196d7feafec4d89fa9619884b60000a4d96624a38f7ac2d8d9a604ecf07c12c77e480c60001b6040518060400160405280600481526020017fa4d9662400000000000000000000000000000000000000000000000000000000815250611aca565b6119977fdeba1e292f8ba88238e10ab3c7f88bd4be4fac56cad5194b6ecceaf653468af184611aca565b6106f67f2f0a68ab07768e01943a599e73362a0e17a63a72e94dd2e384d2c1d4db93275683611aca565b604080516001600160e01b03198316602480830191909152825180830390910181526044909101909152602080820180517bffffffffffffffffffffffffffffffffffffffffffffffffffffffff166301ffc9a760e01b178152825160009392849283928392918391908a617530fa92503d91506000519050828015611a48575060208210155b8015611a545750600081115b979650505050505050565b600054610100900460ff16610b415760405162461bcd60e51b815260206004820152602b60248201527f496e697469616c697a61626c653a20636f6e7472616374206973206e6f74206960448201526a6e697469616c697a696e6760a81b606482015260840161059f565b6000828152600160205260409020611ae2828261234b565b50817fece574603820d07bc9b91f2a932baadf4628aabcb8afba49776529c14a6104b2826040516111139190611b95565b600060208284031215611b2557600080fd5b81356001600160e01b031981168114610b3257600080fd5b60005b83811015611b58578181015183820152602001611b40565b8381111561061c5750506000910152565b60008151808452611b81816020860160208601611b3d565b601f01601f19169290920160200192915050565b602081526000610b326020830184611b69565b634e487b7160e01b600052604160045260246000fd5b604051601f8201601f1916810167ffffffffffffffff81118282101715611be757611be7611ba8565b604052919050565b600067ffffffffffffffff821115611c0957611c09611ba8565b50601f01601f191660200190565b600082601f830112611c2857600080fd5b8135611c3b611c3682611bef565b611bbe565b818152846020838601011115611c5057600080fd5b816020850160208301376000918101602001919091529392505050565b80356001600160a01b0381168114611c8457600080fd5b919050565b600080600060608486031215611c9e57600080fd5b833567ffffffffffffffff80821115611cb657600080fd5b611cc287838801611c17565b94506020860135915080821115611cd857600080fd5b50611ce586828701611c17565b925050611cf460408501611c6d565b90509250925092565b60008060408385031215611d1057600080fd5b611d1983611c6d565b946020939093013593505050565b600067ffffffffffffffff821115611d4157611d41611ba8565b5060051b60200190565b600082601f830112611d5c57600080fd5b81356020611d6c611c3683611d27565b82815260059290921b84018101918181019086841115611d8b57600080fd5b8286015b84811015611da65780358352918301918301611d8f565b509695505050505050565b600082601f830112611dc257600080fd5b81356020611dd2611c3683611d27565b82815260059290921b84018101918181019086841115611df157600080fd5b8286015b84811015611da657803567ffffffffffffffff811115611e155760008081fd5b611e238986838b0101611c17565b845250918301918301611df5565b60008060408385031215611e4457600080fd5b823567ffffffffffffffff80821115611e5c57600080fd5b611e6886838701611d4b565b93506020850135915080821115611e7e57600080fd5b50611e8b85828601611db1565b9150509250929050565b600080600060608486031215611eaa57600080fd5b611eb384611c6d565b9250611ec160208501611c6d565b9150604084013590509250925092565b600082601f830112611ee257600080fd5b81356020611ef2611c3683611d27565b82815260059290921b84018101918181019086841115611f1157600080fd5b8286015b84811015611da657611f2681611c6d565b8352918301918301611f15565b80358015158114611c8457600080fd5b600082601f830112611f5457600080fd5b81356020611f64611c3683611d27565b82815260059290921b84018101918181019086841115611f8357600080fd5b8286015b84811015611da657611f9881611f33565b8352918301918301611f87565b600080600080600060a08688031215611fbd57600080fd5b853567ffffffffffffffff80821115611fd557600080fd5b611fe189838a01611ed1565b96506020880135915080821115611ff757600080fd5b61200389838a01611ed1565b9550604088013591508082111561201957600080fd5b61202589838a01611d4b565b9450606088013591508082111561203b57600080fd5b61204789838a01611f43565b9350608088013591508082111561205d57600080fd5b5061206a88828901611db1565b9150509295509295909350565b60006020828403121561208957600080fd5b813567ffffffffffffffff8111156120a057600080fd5b6120ac84828501611d4b565b949350505050565b6000602080830181845280855180835260408601915060408160051b870101925083870160005b8281101561210957603f198886030184526120f7858351611b69565b945092850192908501906001016120db565b5092979650505050505050565b60006020828403121561212857600080fd5b5035919050565b6000806040838503121561214257600080fd5b61214b83611c6d565b915061215960208401611c6d565b90509250929050565b60006020828403121561217457600080fd5b610b3282611c6d565b6000806000806080858703121561219357600080fd5b61219c85611c6d565b9350602085013592506121b160408601611f33565b9150606085013567ffffffffffffffff8111156121cd57600080fd5b6121d987828801611c17565b91505092959194509250565b600080600080600060a086880312156121fd57600080fd5b61220686611c6d565b945061221460208701611c6d565b93506040860135925061222960608701611f33565b9150608086013567ffffffffffffffff81111561224557600080fd5b61206a88828901611c17565b6000806040838503121561226457600080fd5b82359150602083013567ffffffffffffffff81111561228257600080fd5b611e8b85828601611c17565b634e487b7160e01b600052603260045260246000fd5b634e487b7160e01b600052601160045260246000fd5b6000828210156122cc576122cc6122a4565b500390565b600181811c908216806122e557607f821691505b60208210810361090257634e487b7160e01b600052602260045260246000fd5b601f8211156106f657600081815260208120601f850160051c8101602086101561232c5750805b601f850160051c820191505b81811015610aa157828155600101612338565b815167ffffffffffffffff81111561236557612365611ba8565b6123798161237384546122d1565b84612305565b602080601f8311600181146123ae57600084156123965750858301515b600019600386901b1c1916600185901b178555610aa1565b600085815260208120601f198616915b828110156123dd578886015182559484019460019091019084016123be565b50858210156123fb5787850151600019600388901b60f8161c191681555b5050505050600190811b01905550565b6000821982111561241e5761241e6122a4565b500190565b83815282151560208201526060604082015260006124446060830184611b69565b95945050505050565b60006bffffffffffffffffffffffff19808760601b168352808660601b16601484015250836028830152825161248a816048850160208701611b3d565b9190910160480195945050505050565b8281526040602082015260006120ac6040830184611b69565b6000602082840312156124c557600080fd5b815167ffffffffffffffff8111156124dc57600080fd5b8201601f810184136124ed57600080fd5b80516124fb611c3682611bef565b81815285602083850101111561251057600080fd5b612444826020830160208601611b3d56fea26469706673582212202c0e6b5b541eb4886bcc76b19a7039487bdf8732e0d9e6da3f1e4d769af157a464736f6c634300080f0033",
  "linkReferences": {},
  "deployedLinkReferences": {}
}