{
  "_format": "hh-sol-artifact-1",
  "contractName": "LSP7Mintable",
  "sourceName": "contracts/LSP7DigitalAsset/presets/LSP7Mintable.sol",
  "abi": [
    {
      "inputs": [
        {
          "internalType": "string",
          "name": "name_",
          "type": "string"
        },
        {
          "internalType": "string",
          "name": "symbol_",
          "type": "string"
        },
        {
          "internalType": "address",
          "name": "newOwner_",
          "type": "address"
        },
        {
          "internalType": "bool",
          "name": "isNonDivisible_",
          "type": "bool"
        }
      ],
      "stateMutability": "nonpayable",
      "type": "constructor"
    },
    {
      "inputs": [
        {
          "internalType": "uint256",
          "name": "dataKeysLength",
          "type": "uint256"
        },
        {
          "internalType": "uint256",
          "name": "dataValuesLength",
          "type": "uint256"
        }
      ],
      "name": "ERC725Y_DataKeysValuesLengthMismatch",
      "type": "error"
    },
    {
      "inputs": [],
      "name": "ERC725Y_MsgValueDisallowed",
      "type": "error"
    },
    {
      "inputs": [],
      "name": "LSP4TokenNameNotEditable",
      "type": "error"
    },
    {
      "inputs": [],
      "name": "LSP4TokenSymbolNotEditable",
      "type": "error"
    },
    {
      "inputs": [
        {
          "internalType": "address",
          "name": "tokenOwner",
          "type": "address"
        },
        {
          "internalType": "uint256",
          "name": "authorizedAmount",
          "type": "uint256"
        },
        {
          "internalType": "address",
          "name": "operator",
          "type": "address"
        },
        {
          "internalType": "uint256",
          "name": "amount",
          "type": "uint256"
        }
      ],
      "name": "LSP7AmountExceedsAuthorizedAmount",
      "type": "error"
    },
    {
      "inputs": [
        {
          "internalType": "uint256",
          "name": "balance",
          "type": "uint256"
        },
        {
          "internalType": "address",
          "name": "tokenOwner",
          "type": "address"
        },
        {
          "internalType": "uint256",
          "name": "amount",
          "type": "uint256"
        }
      ],
      "name": "LSP7AmountExceedsBalance",
      "type": "error"
    },
    {
      "inputs": [],
      "name": "LSP7CannotSendToSelf",
      "type": "error"
    },
    {
      "inputs": [],
      "name": "LSP7CannotSendWithAddressZero",
      "type": "error"
    },
    {
      "inputs": [],
      "name": "LSP7CannotUseAddressZeroAsOperator",
      "type": "error"
    },
    {
      "inputs": [],
      "name": "LSP7InvalidTransferBatch",
      "type": "error"
    },
    {
      "inputs": [
        {
          "internalType": "address",
          "name": "tokenReceiver",
          "type": "address"
        }
      ],
      "name": "LSP7NotifyTokenReceiverContractMissingLSP1Interface",
      "type": "error"
    },
    {
      "inputs": [
        {
          "internalType": "address",
          "name": "tokenReceiver",
          "type": "address"
        }
      ],
      "name": "LSP7NotifyTokenReceiverIsEOA",
      "type": "error"
    },
    {
      "inputs": [],
      "name": "LSP7TokenOwnerCannotBeOperator",
      "type": "error"
    },
    {
      "anonymous": false,
      "inputs": [
        {
          "indexed": true,
          "internalType": "address",
          "name": "operator",
          "type": "address"
        },
        {
          "indexed": true,
          "internalType": "address",
          "name": "tokenOwner",
          "type": "address"
        },
        {
          "indexed": true,
          "internalType": "uint256",
          "name": "amount",
          "type": "uint256"
        }
      ],
      "name": "AuthorizedOperator",
      "type": "event"
    },
    {
      "anonymous": false,
      "inputs": [
        {
          "indexed": true,
          "internalType": "bytes32",
          "name": "dataKey",
          "type": "bytes32"
        },
        {
          "indexed": false,
          "internalType": "bytes",
          "name": "dataValue",
          "type": "bytes"
        }
      ],
      "name": "DataChanged",
      "type": "event"
    },
    {
      "anonymous": false,
      "inputs": [
        {
          "indexed": true,
          "internalType": "address",
          "name": "previousOwner",
          "type": "address"
        },
        {
          "indexed": true,
          "internalType": "address",
          "name": "newOwner",
          "type": "address"
        }
      ],
      "name": "OwnershipTransferred",
      "type": "event"
    },
    {
      "anonymous": false,
      "inputs": [
        {
          "indexed": true,
          "internalType": "address",
          "name": "operator",
          "type": "address"
        },
        {
          "indexed": true,
          "internalType": "address",
          "name": "tokenOwner",
          "type": "address"
        }
      ],
      "name": "RevokedOperator",
      "type": "event"
    },
    {
      "anonymous": false,
      "inputs": [
        {
          "indexed": true,
          "internalType": "address",
          "name": "operator",
          "type": "address"
        },
        {
          "indexed": true,
          "internalType": "address",
          "name": "from",
          "type": "address"
        },
        {
          "indexed": true,
          "internalType": "address",
          "name": "to",
          "type": "address"
        },
        {
          "indexed": false,
          "internalType": "uint256",
          "name": "amount",
          "type": "uint256"
        },
        {
          "indexed": false,
          "internalType": "bool",
          "name": "allowNonLSP1Recipient",
          "type": "bool"
        },
        {
          "indexed": false,
          "internalType": "bytes",
          "name": "data",
          "type": "bytes"
        }
      ],
      "name": "Transfer",
      "type": "event"
    },
    {
      "inputs": [
        {
          "internalType": "address",
          "name": "operator",
          "type": "address"
        },
        {
          "internalType": "uint256",
          "name": "amount",
          "type": "uint256"
        }
      ],
      "name": "authorizeOperator",
      "outputs": [],
      "stateMutability": "nonpayable",
      "type": "function"
    },
    {
      "inputs": [
        {
          "internalType": "address",
          "name": "operator",
          "type": "address"
        },
        {
          "internalType": "address",
          "name": "tokenOwner",
          "type": "address"
        }
      ],
      "name": "authorizedAmountFor",
      "outputs": [
        {
          "internalType": "uint256",
          "name": "",
          "type": "uint256"
        }
      ],
      "stateMutability": "view",
      "type": "function"
    },
    {
      "inputs": [
        {
          "internalType": "address",
          "name": "tokenOwner",
          "type": "address"
        }
      ],
      "name": "balanceOf",
      "outputs": [
        {
          "internalType": "uint256",
          "name": "",
          "type": "uint256"
        }
      ],
      "stateMutability": "view",
      "type": "function"
    },
    {
      "inputs": [],
      "name": "decimals",
      "outputs": [
        {
          "internalType": "uint8",
          "name": "",
          "type": "uint8"
        }
      ],
      "stateMutability": "view",
      "type": "function"
    },
    {
      "inputs": [
        {
          "internalType": "bytes32[]",
          "name": "dataKeys",
          "type": "bytes32[]"
        }
      ],
      "name": "getData",
      "outputs": [
        {
          "internalType": "bytes[]",
          "name": "dataValues",
          "type": "bytes[]"
        }
      ],
      "stateMutability": "view",
      "type": "function"
    },
    {
      "inputs": [
        {
          "internalType": "bytes32",
          "name": "dataKey",
          "type": "bytes32"
        }
      ],
      "name": "getData",
      "outputs": [
        {
          "internalType": "bytes",
          "name": "dataValue",
          "type": "bytes"
        }
      ],
      "stateMutability": "view",
      "type": "function"
    },
    {
      "inputs": [
        {
          "internalType": "address",
          "name": "to",
          "type": "address"
        },
        {
          "internalType": "uint256",
          "name": "amount",
          "type": "uint256"
        },
        {
          "internalType": "bool",
          "name": "allowNonLSP1Recipient",
          "type": "bool"
        },
        {
          "internalType": "bytes",
          "name": "data",
          "type": "bytes"
        }
      ],
      "name": "mint",
      "outputs": [],
      "stateMutability": "nonpayable",
      "type": "function"
    },
    {
      "inputs": [],
      "name": "owner",
      "outputs": [
        {
          "internalType": "address",
          "name": "",
          "type": "address"
        }
      ],
      "stateMutability": "view",
      "type": "function"
    },
    {
      "inputs": [],
      "name": "renounceOwnership",
      "outputs": [],
      "stateMutability": "nonpayable",
      "type": "function"
    },
    {
      "inputs": [
        {
          "internalType": "address",
          "name": "operator",
          "type": "address"
        }
      ],
      "name": "revokeOperator",
      "outputs": [],
      "stateMutability": "nonpayable",
      "type": "function"
    },
    {
      "inputs": [
        {
          "internalType": "bytes32[]",
          "name": "dataKeys",
          "type": "bytes32[]"
        },
        {
          "internalType": "bytes[]",
          "name": "dataValues",
          "type": "bytes[]"
        }
      ],
      "name": "setData",
      "outputs": [],
      "stateMutability": "payable",
      "type": "function"
    },
    {
      "inputs": [
        {
          "internalType": "bytes32",
          "name": "dataKey",
          "type": "bytes32"
        },
        {
          "internalType": "bytes",
          "name": "dataValue",
          "type": "bytes"
        }
      ],
      "name": "setData",
      "outputs": [],
      "stateMutability": "payable",
      "type": "function"
    },
    {
      "inputs": [
        {
          "internalType": "bytes4",
          "name": "interfaceId",
          "type": "bytes4"
        }
      ],
      "name": "supportsInterface",
      "outputs": [
        {
          "internalType": "bool",
          "name": "",
          "type": "bool"
        }
      ],
      "stateMutability": "view",
      "type": "function"
    },
    {
      "inputs": [],
      "name": "totalSupply",
      "outputs": [
        {
          "internalType": "uint256",
          "name": "",
          "type": "uint256"
        }
      ],
      "stateMutability": "view",
      "type": "function"
    },
    {
      "inputs": [
        {
          "internalType": "address",
          "name": "from",
          "type": "address"
        },
        {
          "internalType": "address",
          "name": "to",
          "type": "address"
        },
        {
          "internalType": "uint256",
          "name": "amount",
          "type": "uint256"
        },
        {
          "internalType": "bool",
          "name": "allowNonLSP1Recipient",
          "type": "bool"
        },
        {
          "internalType": "bytes",
          "name": "data",
          "type": "bytes"
        }
      ],
      "name": "transfer",
      "outputs": [],
      "stateMutability": "nonpayable",
      "type": "function"
    },
    {
      "inputs": [
        {
          "internalType": "address[]",
          "name": "from",
          "type": "address[]"
        },
        {
          "internalType": "address[]",
          "name": "to",
          "type": "address[]"
        },
        {
          "internalType": "uint256[]",
          "name": "amount",
          "type": "uint256[]"
        },
        {
          "internalType": "bool[]",
          "name": "allowNonLSP1Recipient",
          "type": "bool[]"
        },
        {
          "internalType": "bytes[]",
          "name": "data",
          "type": "bytes[]"
        }
      ],
      "name": "transferBatch",
      "outputs": [],
      "stateMutability": "nonpayable",
      "type": "function"
    },
    {
      "inputs": [
        {
          "internalType": "address",
          "name": "newOwner",
          "type": "address"
        }
      ],
      "name": "transferOwnership",
      "outputs": [],
      "stateMutability": "nonpayable",
      "type": "function"
    }
  ],
  "bytecode": "0x60806040523480156200001157600080fd5b50604051620022c4380380620022c4833981016040819052620000349162000344565b83838383838383806001600160a01b038116620000a65760405162461bcd60e51b815260206004820152602660248201527f4f776e61626c653a206e6577206f776e657220697320746865207a65726f206160448201526564647265737360d01b606482015260840160405180910390fd5b620000bc81620001aa60201b620008c91760201c565b50620001137feafec4d89fa9619884b60000a4d96624a38f7ac2d8d9a604ecf07c12c77e480c60001b604051806040016040528060048152602001632936598960e21b8152506200021160201b620009461760201c565b6200014d7fdeba1e292f8ba88238e10ab3c7f88bd4be4fac56cad5194b6ecceaf653468af160001b846200021160201b620009461760201c565b620001877f2f0a68ab07768e01943a599e73362a0e17a63a72e94dd2e384d2c1d4db93275660001b836200021160201b620009461760201c565b50506002805460ff19169215159290921790915550620005799650505050505050565b6000546001600160a01b038281169116146200020e57600080546001600160a01b038381166001600160a01b0319831681178455604051919092169283917f8be0079c531659141344cd1fd0a4f28419497f9722a3daafe3b4186f6b6457e09190a3505b50565b60008281526001602052604090206200022b828262000478565b50817fece574603820d07bc9b91f2a932baadf4628aabcb8afba49776529c14a6104b2826040516200025e919062000544565b60405180910390a25050565b634e487b7160e01b600052604160045260246000fd5b60005b838110156200029d57818101518382015260200162000283565b83811115620002ad576000848401525b50505050565b600082601f830112620002c557600080fd5b81516001600160401b0380821115620002e257620002e26200026a565b604051601f8301601f19908116603f011681019082821181831017156200030d576200030d6200026a565b816040528381528660208588010111156200032757600080fd5b6200033a84602083016020890162000280565b9695505050505050565b600080600080608085870312156200035b57600080fd5b84516001600160401b03808211156200037357600080fd5b6200038188838901620002b3565b955060208701519150808211156200039857600080fd5b50620003a787828801620002b3565b604087015190945090506001600160a01b0381168114620003c757600080fd5b60608601519092508015158114620003de57600080fd5b939692955090935050565b600181811c90821680620003fe57607f821691505b6020821081036200041f57634e487b7160e01b600052602260045260246000fd5b50919050565b601f8211156200047357600081815260208120601f850160051c810160208610156200044e5750805b601f850160051c820191505b818110156200046f578281556001016200045a565b5050505b505050565b81516001600160401b038111156200049457620004946200026a565b620004ac81620004a58454620003e9565b8462000425565b602080601f831160018114620004e45760008415620004cb5750858301515b600019600386901b1c1916600185901b1785556200046f565b600085815260208120601f198616915b828110156200051557888601518255948401946001909101908401620004f4565b5085821015620005345787850151600019600388901b60f8161c191681555b5050505050600190811b01905550565b60208152600082518060208401526200056581604085016020870162000280565b601f01601f19169190910160400192915050565b611d3b80620005896000396000f3fe60806040526004361061010e5760003560e01c806365aeaa95116100a5578063760d9bba116100745780638da5cb5b116100595780638da5cb5b146102fb578063f2fde38b14610323578063fad8b32a1461034357600080fd5b8063760d9bba146102c85780637f23690c146102e857600080fd5b806365aeaa951461023d57806370a082311461025d578063715018a6146102935780637580d920146102a857600080fd5b8063313ce567116100e1578063313ce5671461019c57806347980aa3146101c35780634e3e6e9c146101e357806354f6127f1461021057600080fd5b806301ffc9a71461011357806314a6e2931461014857806318160ddd1461015d5780632d7667c91461017c575b600080fd5b34801561011f57600080fd5b5061013361012e3660046113a0565b610363565b60405190151581526020015b60405180910390f35b61015b6101563660046115a0565b6103a7565b005b34801561016957600080fd5b506003545b60405190815260200161013f565b34801561018857600080fd5b5061015b6101973660046116f4565b610470565b3480156101a857600080fd5b506101b1610578565b60405160ff909116815260200161013f565b3480156101cf57600080fd5b5061015b6101de3660046117c6565b610591565b3480156101ef57600080fd5b506102036101fe3660046117f0565b6105a0565b60405161013f9190611885565b34801561021c57600080fd5b5061023061022b3660046118e7565b610654565b60405161013f9190611900565b34801561024957600080fd5b5061016e610258366004611913565b61065f565b34801561026957600080fd5b5061016e610278366004611946565b6001600160a01b031660009081526004602052604090205490565b34801561029f57600080fd5b5061015b6106c6565b3480156102b457600080fd5b5061015b6102c3366004611961565b6106da565b3480156102d457600080fd5b5061015b6102e33660046119c9565b6106f4565b61015b6102f6366004611a35565b6107fc565b34801561030757600080fd5b506000546040516001600160a01b03909116815260200161013f565b34801561032f57600080fd5b5061015b61033e366004611946565b61082d565b34801561034f57600080fd5b5061015b61035e366004611946565b6108bd565b60006001600160e01b031982167fda1f85e40000000000000000000000000000000000000000000000000000000014806103a157506103a18261099b565b92915050565b6103af6109e9565b34156103ce5760405163f36ba73760e01b815260040160405180910390fd5b805182511461041b57815181516040517f43a3c266000000000000000000000000000000000000000000000000000000008152600481019290925260248201526044015b60405180910390fd5b60005b825181101561046b5761046383828151811061043c5761043c611a72565b602002602001015183838151811061045657610456611a72565b6020026020010151610a52565b60010161041e565b505050565b8451845181141580610483575083518114155b8061048f575082518114155b8061049b575081518114155b156104d2576040517f263eee8d00000000000000000000000000000000000000000000000000000000815260040160405180910390fd5b60005b8181101561056f576105678782815181106104f2576104f2611a72565b602002602001015187838151811061050c5761050c611a72565b602002602001015187848151811061052657610526611a72565b602002602001015187858151811061054057610540611a72565b602002602001015187868151811061055a5761055a611a72565b60200260200101516106f4565b6001016104d5565b50505050505050565b60025460009060ff1661058b5750601290565b50600090565b61059c338383610b6c565b5050565b6060815167ffffffffffffffff8111156105bc576105bc6113d1565b6040519080825280602002602001820160405280156105ef57816020015b60608152602001906001900390816105da5790505b50905060005b825181101561064e5761062083828151811061061357610613611a72565b6020026020010151610cb0565b82828151811061063257610632611a72565b60200260200101819052506106478160010190565b90506105f5565b50919050565b60606103a182610cb0565b6000826001600160a01b0316826001600160a01b03160361069957506001600160a01b0381166000908152600460205260409020546103a1565b506001600160a01b0380821660009081526005602090815260408083209386168352929052205492915050565b6106ce6109e9565b6106d860006108c9565b565b6106e26109e9565b6106ee84848484610d52565b50505050565b836001600160a01b0316856001600160a01b03160361073f576040517fb9afb00000000000000000000000000000000000000000000000000000000000815260040160405180910390fd5b336001600160a01b03861681146107e7576001600160a01b03808716600090815260056020908152604080832093851683529290522054808511156107d1576040517ff3a6b6910000000000000000000000000000000000000000000000000000000081526001600160a01b038089166004830152602482018390528316604482015260648101869052608401610412565b6107e587836107e08885611a9e565b610b6c565b505b6107f48686868686610e4f565b505050505050565b6108046109e9565b34156108235760405163f36ba73760e01b815260040160405180910390fd5b61059c8282610a52565b6108356109e9565b6001600160a01b0381166108b15760405162461bcd60e51b815260206004820152602660248201527f4f776e61626c653a206e6577206f776e657220697320746865207a65726f206160448201527f64647265737300000000000000000000000000000000000000000000000000006064820152608401610412565b6108ba816108c9565b50565b6108ba33826000610b6c565b6000546001600160a01b038281169116146108ba57600080546001600160a01b038381167fffffffffffffffffffffffff0000000000000000000000000000000000000000831681178455604051919092169283917f8be0079c531659141344cd1fd0a4f28419497f9722a3daafe3b4186f6b6457e09190a35050565b600082815260016020526040902061095e8282611b2f565b50817fece574603820d07bc9b91f2a932baadf4628aabcb8afba49776529c14a6104b28260405161098f9190611900565b60405180910390a25050565b60006001600160e01b031982167f714df77c0000000000000000000000000000000000000000000000000000000014806103a157506301ffc9a760e01b6001600160e01b03198316146103a1565b336109fc6000546001600160a01b031690565b6001600160a01b0316146106d85760405162461bcd60e51b815260206004820181905260248201527f4f776e61626c653a2063616c6c6572206973206e6f7420746865206f776e65726044820152606401610412565b7f2145e1d6d074577dc71ef54c3807742b41b053a9352ae6b491331509acb9750f8201610aab576040517f85c169bd00000000000000000000000000000000000000000000000000000000815260040160405180910390fd5b7fd0f59754f88971fe6bc5a6618cc9d5f1e859c58d16b22d1c7b2d3e2b246cd8aa8201610b04576040517f76755b3800000000000000000000000000000000000000000000000000000000815260040160405180910390fd5b6000828152600160205260409020610b1c8282611b2f565b50817fece574603820d07bc9b91f2a932baadf4628aabcb8afba49776529c14a6104b261010083511115610b5d57610b58836000610100610ff5565b610b5f565b825b60405161098f9190611900565b6001600160a01b038216610bac576040517f6355e76600000000000000000000000000000000000000000000000000000000815260040160405180910390fd5b826001600160a01b0316826001600160a01b031603610bf7576040517fdab7504700000000000000000000000000000000000000000000000000000000815260040160405180910390fd5b6001600160a01b0380841660009081526005602090815260408083209386168352929052208190558015610c6b5780836001600160a01b0316836001600160a01b03167fd66aff874162a96578e919097b6f6d153dfd89a5cec41bb331fdb0c4aec16e2c60405160405180910390a4505050565b826001600160a01b0316826001600160a01b03167f50546e66e5f44d728365dc3908c63bc5cfeeab470722c1677e3073a6ac294aa160405160405180910390a3505050565b6000818152600160205260409020805460609190610ccd90611ab5565b80601f0160208091040260200160405190810160405280929190818152602001828054610cf990611ab5565b8015610d465780601f10610d1b57610100808354040283529160200191610d46565b820191906000526020600020905b815481529060010190602001808311610d2957829003601f168201915b50505050509050919050565b6001600160a01b038416610d7957604051630d2d5ec360e41b815260040160405180910390fd5b338360036000828254610d8c9190611bef565b90915550506001600160a01b03851660009081526004602052604081208054869290610db9908490611bef565b92505081905550846001600160a01b031660006001600160a01b0316826001600160a01b03167f3997e418d2cef0b3b0e907b1e39605c3f7d32dbd061e82ea5b4a770d46a160a6878787604051610e1293929190611c07565b60405180910390a4600080868685604051602001610e339493929190611c31565b60405160208183030381529060405290506107f486858361111d565b6001600160a01b0385161580610e6c57506001600160a01b038416155b15610e8a57604051630d2d5ec360e41b815260040160405180910390fd5b6001600160a01b03851660009081526004602052604090205480841115610ef6576040517f08d47949000000000000000000000000000000000000000000000000000000008152600481018290526001600160a01b038716602482015260448101859052606401610412565b336001600160a01b03871660009081526004602052604081208054879290610f1f908490611a9e565b90915550506001600160a01b03861660009081526004602052604081208054879290610f4c908490611bef565b92505081905550856001600160a01b0316876001600160a01b0316826001600160a01b03167f3997e418d2cef0b3b0e907b1e39605c3f7d32dbd061e82ea5b4a770d46a160a6888888604051610fa493929190611c07565b60405180910390a4600087878786604051602001610fc59493929190611c31565b6040516020818303038152906040529050610fe08882611257565b610feb87868361111d565b5050505050505050565b60608161100381601f611bef565b10156110515760405162461bcd60e51b815260206004820152600e60248201527f736c6963655f6f766572666c6f770000000000000000000000000000000000006044820152606401610412565b61105b8284611bef565b845110156110ab5760405162461bcd60e51b815260206004820152601160248201527f736c6963655f6f75744f66426f756e64730000000000000000000000000000006044820152606401610412565b6060821580156110ca5760405191506000825260208201604052611114565b6040519150601f8416801560200281840101858101878315602002848b0101015b818310156111035780518352602092830192016110eb565b5050858452601f01601f1916604052505b50949350505050565b61112e83631aed5a8560e21b611302565b156111c857604051631aed5a8560e21b81526001600160a01b03841690636bb56a1490611181907f20804611b3e2ea21c480dc465142210acf4a2485947541770ec1fb87dee4a55c908590600401611c7e565b6000604051808303816000875af11580156111a0573d6000803e3d6000fd5b505050506040513d6000823e601f3d908101601f191682016040526106ee9190810190611c97565b8161046b576001600160a01b0383163b1561121a576040517fa608fbb60000000000000000000000000000000000000000000000000000000081526001600160a01b0384166004820152602401610412565b6040517f26c247f40000000000000000000000000000000000000000000000000000000081526001600160a01b0384166004820152602401610412565b61126882631aed5a8560e21b611302565b1561059c57604051631aed5a8560e21b81526001600160a01b03831690636bb56a14906112bb907f429ac7a06903dbc9c13dfcb3c9d11df8194581fa047c96d7a4171fc7402958ea908590600401611c7e565b6000604051808303816000875af11580156112da573d6000803e3d6000fd5b505050506040513d6000823e601f3d908101601f1916820160405261046b9190810190611c97565b604080516001600160e01b03198316602480830191909152825180830390910181526044909101909152602080820180517bffffffffffffffffffffffffffffffffffffffffffffffffffffffff166301ffc9a760e01b178152825160009392849283928392918391908a617530fa92503d91506000519050828015611389575060208210155b80156113955750600081115b979650505050505050565b6000602082840312156113b257600080fd5b81356001600160e01b0319811681146113ca57600080fd5b9392505050565b634e487b7160e01b600052604160045260246000fd5b604051601f8201601f1916810167ffffffffffffffff81118282101715611410576114106113d1565b604052919050565b600067ffffffffffffffff821115611432576114326113d1565b5060051b60200190565b600082601f83011261144d57600080fd5b8135602061146261145d83611418565b6113e7565b82815260059290921b8401810191818101908684111561148157600080fd5b8286015b8481101561149c5780358352918301918301611485565b509695505050505050565b600067ffffffffffffffff8211156114c1576114c16113d1565b50601f01601f191660200190565b600082601f8301126114e057600080fd5b81356114ee61145d826114a7565b81815284602083860101111561150357600080fd5b816020850160208301376000918101602001919091529392505050565b600082601f83011261153157600080fd5b8135602061154161145d83611418565b82815260059290921b8401810191818101908684111561156057600080fd5b8286015b8481101561149c57803567ffffffffffffffff8111156115845760008081fd5b6115928986838b01016114cf565b845250918301918301611564565b600080604083850312156115b357600080fd5b823567ffffffffffffffff808211156115cb57600080fd5b6115d78683870161143c565b935060208501359150808211156115ed57600080fd5b506115fa85828601611520565b9150509250929050565b80356001600160a01b038116811461161b57600080fd5b919050565b600082601f83011261163157600080fd5b8135602061164161145d83611418565b82815260059290921b8401810191818101908684111561166057600080fd5b8286015b8481101561149c5761167581611604565b8352918301918301611664565b8035801515811461161b57600080fd5b600082601f8301126116a357600080fd5b813560206116b361145d83611418565b82815260059290921b840181019181810190868411156116d257600080fd5b8286015b8481101561149c576116e781611682565b83529183019183016116d6565b600080600080600060a0868803121561170c57600080fd5b853567ffffffffffffffff8082111561172457600080fd5b61173089838a01611620565b9650602088013591508082111561174657600080fd5b61175289838a01611620565b9550604088013591508082111561176857600080fd5b61177489838a0161143c565b9450606088013591508082111561178a57600080fd5b61179689838a01611692565b935060808801359150808211156117ac57600080fd5b506117b988828901611520565b9150509295509295909350565b600080604083850312156117d957600080fd5b6117e283611604565b946020939093013593505050565b60006020828403121561180257600080fd5b813567ffffffffffffffff81111561181957600080fd5b6118258482850161143c565b949350505050565b60005b83811015611848578181015183820152602001611830565b838111156106ee5750506000910152565b6000815180845261187181602086016020860161182d565b601f01601f19169290920160200192915050565b6000602080830181845280855180835260408601915060408160051b870101925083870160005b828110156118da57603f198886030184526118c8858351611859565b945092850192908501906001016118ac565b5092979650505050505050565b6000602082840312156118f957600080fd5b5035919050565b6020815260006113ca6020830184611859565b6000806040838503121561192657600080fd5b61192f83611604565b915061193d60208401611604565b90509250929050565b60006020828403121561195857600080fd5b6113ca82611604565b6000806000806080858703121561197757600080fd5b61198085611604565b93506020850135925061199560408601611682565b9150606085013567ffffffffffffffff8111156119b157600080fd5b6119bd878288016114cf565b91505092959194509250565b600080600080600060a086880312156119e157600080fd5b6119ea86611604565b94506119f860208701611604565b935060408601359250611a0d60608701611682565b9150608086013567ffffffffffffffff811115611a2957600080fd5b6117b9888289016114cf565b60008060408385031215611a4857600080fd5b82359150602083013567ffffffffffffffff811115611a6657600080fd5b6115fa858286016114cf565b634e487b7160e01b600052603260045260246000fd5b634e487b7160e01b600052601160045260246000fd5b600082821015611ab057611ab0611a88565b500390565b600181811c90821680611ac957607f821691505b60208210810361064e57634e487b7160e01b600052602260045260246000fd5b601f82111561046b57600081815260208120601f850160051c81016020861015611b105750805b601f850160051c820191505b818110156107f457828155600101611b1c565b815167ffffffffffffffff811115611b4957611b496113d1565b611b5d81611b578454611ab5565b84611ae9565b602080601f831160018114611b925760008415611b7a5750858301515b600019600386901b1c1916600185901b1785556107f4565b600085815260208120601f198616915b82811015611bc157888601518255948401946001909101908401611ba2565b5085821015611bdf5787850151600019600388901b60f8161c191681555b5050505050600190811b01905550565b60008219821115611c0257611c02611a88565b500190565b8381528215156020820152606060408201526000611c286060830184611859565b95945050505050565b60006bffffffffffffffffffffffff19808760601b168352808660601b166014840152508360288301528251611c6e81604885016020870161182d565b9190910160480195945050505050565b8281526040602082015260006118256040830184611859565b600060208284031215611ca957600080fd5b815167ffffffffffffffff811115611cc057600080fd5b8201601f81018413611cd157600080fd5b8051611cdf61145d826114a7565b818152856020838501011115611cf457600080fd5b611c2882602083016020860161182d56fea264697066735822122072567a1e3ef578f051d791e7f8b11f86e8cfbc414e411d3728c540f58dd5cbd364736f6c634300080f0033",
  "linkReferences": {},
  "deployedLinkReferences": {}
}