{
  "_format": "hh-sol-artifact-1",
  "contractName": "LSP7MintableInit",
  "sourceName": "contracts/LSP7DigitalAsset/presets/LSP7MintableInit.sol",
  "abi": [
    {
      "inputs": [],
      "stateMutability": "nonpayable",
      "type": "constructor"
    },
    {
      "inputs": [
        {
          "internalType": "uint256",
          "name": "dataKeysLength",
          "type": "uint256"
        },
        {
          "internalType": "uint256",
          "name": "dataValuesLength",
          "type": "uint256"
        }
      ],
      "name": "ERC725Y_DataKeysValuesLengthMismatch",
      "type": "error"
    },
    {
      "inputs": [],
      "name": "ERC725Y_MsgValueDisallowed",
      "type": "error"
    },
    {
      "inputs": [],
      "name": "LSP4TokenNameNotEditable",
      "type": "error"
    },
    {
      "inputs": [],
      "name": "LSP4TokenSymbolNotEditable",
      "type": "error"
    },
    {
      "inputs": [
        {
          "internalType": "address",
          "name": "tokenOwner",
          "type": "address"
        },
        {
          "internalType": "uint256",
          "name": "authorizedAmount",
          "type": "uint256"
        },
        {
          "internalType": "address",
          "name": "operator",
          "type": "address"
        },
        {
          "internalType": "uint256",
          "name": "amount",
          "type": "uint256"
        }
      ],
      "name": "LSP7AmountExceedsAuthorizedAmount",
      "type": "error"
    },
    {
      "inputs": [
        {
          "internalType": "uint256",
          "name": "balance",
          "type": "uint256"
        },
        {
          "internalType": "address",
          "name": "tokenOwner",
          "type": "address"
        },
        {
          "internalType": "uint256",
          "name": "amount",
          "type": "uint256"
        }
      ],
      "name": "LSP7AmountExceedsBalance",
      "type": "error"
    },
    {
      "inputs": [],
      "name": "LSP7CannotSendToSelf",
      "type": "error"
    },
    {
      "inputs": [],
      "name": "LSP7CannotSendWithAddressZero",
      "type": "error"
    },
    {
      "inputs": [],
      "name": "LSP7CannotUseAddressZeroAsOperator",
      "type": "error"
    },
    {
      "inputs": [],
      "name": "LSP7InvalidTransferBatch",
      "type": "error"
    },
    {
      "inputs": [
        {
          "internalType": "address",
          "name": "tokenReceiver",
          "type": "address"
        }
      ],
      "name": "LSP7NotifyTokenReceiverContractMissingLSP1Interface",
      "type": "error"
    },
    {
      "inputs": [
        {
          "internalType": "address",
          "name": "tokenReceiver",
          "type": "address"
        }
      ],
      "name": "LSP7NotifyTokenReceiverIsEOA",
      "type": "error"
    },
    {
      "inputs": [],
      "name": "LSP7TokenOwnerCannotBeOperator",
      "type": "error"
    },
    {
      "anonymous": false,
      "inputs": [
        {
          "indexed": true,
          "internalType": "address",
          "name": "operator",
          "type": "address"
        },
        {
          "indexed": true,
          "internalType": "address",
          "name": "tokenOwner",
          "type": "address"
        },
        {
          "indexed": true,
          "internalType": "uint256",
          "name": "amount",
          "type": "uint256"
        }
      ],
      "name": "AuthorizedOperator",
      "type": "event"
    },
    {
      "anonymous": false,
      "inputs": [
        {
          "indexed": true,
          "internalType": "bytes32",
          "name": "dataKey",
          "type": "bytes32"
        },
        {
          "indexed": false,
          "internalType": "bytes",
          "name": "dataValue",
          "type": "bytes"
        }
      ],
      "name": "DataChanged",
      "type": "event"
    },
    {
      "anonymous": false,
      "inputs": [
        {
          "indexed": false,
          "internalType": "uint8",
          "name": "version",
          "type": "uint8"
        }
      ],
      "name": "Initialized",
      "type": "event"
    },
    {
      "anonymous": false,
      "inputs": [
        {
          "indexed": true,
          "internalType": "address",
          "name": "previousOwner",
          "type": "address"
        },
        {
          "indexed": true,
          "internalType": "address",
          "name": "newOwner",
          "type": "address"
        }
      ],
      "name": "OwnershipTransferred",
      "type": "event"
    },
    {
      "anonymous": false,
      "inputs": [
        {
          "indexed": true,
          "internalType": "address",
          "name": "operator",
          "type": "address"
        },
        {
          "indexed": true,
          "internalType": "address",
          "name": "tokenOwner",
          "type": "address"
        }
      ],
      "name": "RevokedOperator",
      "type": "event"
    },
    {
      "anonymous": false,
      "inputs": [
        {
          "indexed": true,
          "internalType": "address",
          "name": "operator",
          "type": "address"
        },
        {
          "indexed": true,
          "internalType": "address",
          "name": "from",
          "type": "address"
        },
        {
          "indexed": true,
          "internalType": "address",
          "name": "to",
          "type": "address"
        },
        {
          "indexed": false,
          "internalType": "uint256",
          "name": "amount",
          "type": "uint256"
        },
        {
          "indexed": false,
          "internalType": "bool",
          "name": "allowNonLSP1Recipient",
          "type": "bool"
        },
        {
          "indexed": false,
          "internalType": "bytes",
          "name": "data",
          "type": "bytes"
        }
      ],
      "name": "Transfer",
      "type": "event"
    },
    {
      "inputs": [
        {
          "internalType": "address",
          "name": "operator",
          "type": "address"
        },
        {
          "internalType": "uint256",
          "name": "amount",
          "type": "uint256"
        }
      ],
      "name": "authorizeOperator",
      "outputs": [],
      "stateMutability": "nonpayable",
      "type": "function"
    },
    {
      "inputs": [
        {
          "internalType": "address",
          "name": "operator",
          "type": "address"
        },
        {
          "internalType": "address",
          "name": "tokenOwner",
          "type": "address"
        }
      ],
      "name": "authorizedAmountFor",
      "outputs": [
        {
          "internalType": "uint256",
          "name": "",
          "type": "uint256"
        }
      ],
      "stateMutability": "view",
      "type": "function"
    },
    {
      "inputs": [
        {
          "internalType": "address",
          "name": "tokenOwner",
          "type": "address"
        }
      ],
      "name": "balanceOf",
      "outputs": [
        {
          "internalType": "uint256",
          "name": "",
          "type": "uint256"
        }
      ],
      "stateMutability": "view",
      "type": "function"
    },
    {
      "inputs": [],
      "name": "decimals",
      "outputs": [
        {
          "internalType": "uint8",
          "name": "",
          "type": "uint8"
        }
      ],
      "stateMutability": "view",
      "type": "function"
    },
    {
      "inputs": [
        {
          "internalType": "bytes32[]",
          "name": "dataKeys",
          "type": "bytes32[]"
        }
      ],
      "name": "getData",
      "outputs": [
        {
          "internalType": "bytes[]",
          "name": "dataValues",
          "type": "bytes[]"
        }
      ],
      "stateMutability": "view",
      "type": "function"
    },
    {
      "inputs": [
        {
          "internalType": "bytes32",
          "name": "dataKey",
          "type": "bytes32"
        }
      ],
      "name": "getData",
      "outputs": [
        {
          "internalType": "bytes",
          "name": "dataValue",
          "type": "bytes"
        }
      ],
      "stateMutability": "view",
      "type": "function"
    },
    {
      "inputs": [
        {
          "internalType": "string",
          "name": "name_",
          "type": "string"
        },
        {
          "internalType": "string",
          "name": "symbol_",
          "type": "string"
        },
        {
          "internalType": "address",
          "name": "newOwner_",
          "type": "address"
        },
        {
          "internalType": "bool",
          "name": "isNonDivisible_",
          "type": "bool"
        }
      ],
      "name": "initialize",
      "outputs": [],
      "stateMutability": "nonpayable",
      "type": "function"
    },
    {
      "inputs": [
        {
          "internalType": "address",
          "name": "to",
          "type": "address"
        },
        {
          "internalType": "uint256",
          "name": "amount",
          "type": "uint256"
        },
        {
          "internalType": "bool",
          "name": "allowNonLSP1Recipient",
          "type": "bool"
        },
        {
          "internalType": "bytes",
          "name": "data",
          "type": "bytes"
        }
      ],
      "name": "mint",
      "outputs": [],
      "stateMutability": "nonpayable",
      "type": "function"
    },
    {
      "inputs": [],
      "name": "owner",
      "outputs": [
        {
          "internalType": "address",
          "name": "",
          "type": "address"
        }
      ],
      "stateMutability": "view",
      "type": "function"
    },
    {
      "inputs": [],
      "name": "renounceOwnership",
      "outputs": [],
      "stateMutability": "nonpayable",
      "type": "function"
    },
    {
      "inputs": [
        {
          "internalType": "address",
          "name": "operator",
          "type": "address"
        }
      ],
      "name": "revokeOperator",
      "outputs": [],
      "stateMutability": "nonpayable",
      "type": "function"
    },
    {
      "inputs": [
        {
          "internalType": "bytes32[]",
          "name": "dataKeys",
          "type": "bytes32[]"
        },
        {
          "internalType": "bytes[]",
          "name": "dataValues",
          "type": "bytes[]"
        }
      ],
      "name": "setData",
      "outputs": [],
      "stateMutability": "payable",
      "type": "function"
    },
    {
      "inputs": [
        {
          "internalType": "bytes32",
          "name": "dataKey",
          "type": "bytes32"
        },
        {
          "internalType": "bytes",
          "name": "dataValue",
          "type": "bytes"
        }
      ],
      "name": "setData",
      "outputs": [],
      "stateMutability": "payable",
      "type": "function"
    },
    {
      "inputs": [
        {
          "internalType": "bytes4",
          "name": "interfaceId",
          "type": "bytes4"
        }
      ],
      "name": "supportsInterface",
      "outputs": [
        {
          "internalType": "bool",
          "name": "",
          "type": "bool"
        }
      ],
      "stateMutability": "view",
      "type": "function"
    },
    {
      "inputs": [],
      "name": "totalSupply",
      "outputs": [
        {
          "internalType": "uint256",
          "name": "",
          "type": "uint256"
        }
      ],
      "stateMutability": "view",
      "type": "function"
    },
    {
      "inputs": [
        {
          "internalType": "address",
          "name": "from",
          "type": "address"
        },
        {
          "internalType": "address",
          "name": "to",
          "type": "address"
        },
        {
          "internalType": "uint256",
          "name": "amount",
          "type": "uint256"
        },
        {
          "internalType": "bool",
          "name": "allowNonLSP1Recipient",
          "type": "bool"
        },
        {
          "internalType": "bytes",
          "name": "data",
          "type": "bytes"
        }
      ],
      "name": "transfer",
      "outputs": [],
      "stateMutability": "nonpayable",
      "type": "function"
    },
    {
      "inputs": [
        {
          "internalType": "address[]",
          "name": "from",
          "type": "address[]"
        },
        {
          "internalType": "address[]",
          "name": "to",
          "type": "address[]"
        },
        {
          "internalType": "uint256[]",
          "name": "amount",
          "type": "uint256[]"
        },
        {
          "internalType": "bool[]",
          "name": "allowNonLSP1Recipient",
          "type": "bool[]"
        },
        {
          "internalType": "bytes[]",
          "name": "data",
          "type": "bytes[]"
        }
      ],
      "name": "transferBatch",
      "outputs": [],
      "stateMutability": "nonpayable",
      "type": "function"
    },
    {
      "inputs": [
        {
          "internalType": "address",
          "name": "newOwner",
          "type": "address"
        }
      ],
      "name": "transferOwnership",
      "outputs": [],
      "stateMutability": "nonpayable",
      "type": "function"
    }
  ],
  "bytecode": "0x608060405234801561001057600080fd5b5061001961001e565b6100de565b600054610100900460ff161561008a5760405162461bcd60e51b815260206004820152602760248201527f496e697469616c697a61626c653a20636f6e747261637420697320696e697469604482015266616c697a696e6760c81b606482015260840160405180910390fd5b60005460ff90811610156100dc576000805460ff191660ff9081179091556040519081527f7f26b83ff96e1f2b6a682f133852f6798a09c465da95921460cefb38474024989060200160405180910390a15b565b6121c980620000ee6000396000f3fe6080604052600436106101295760003560e01c806365aeaa95116100a5578063760d9bba116100745780638da5cb5b116100595780638da5cb5b14610336578063f2fde38b1461036d578063fad8b32a1461038d57600080fd5b8063760d9bba146103035780637f23690c1461032357600080fd5b806365aeaa951461027857806370a0823114610298578063715018a6146102ce5780637580d920146102e357600080fd5b8063313ce567116100fc5780634e3e6e9c116100e15780634e3e6e9c146101fe57806354f6127f1461022b5780635c108a431461025857600080fd5b8063313ce567146101b757806347980aa3146101de57600080fd5b806301ffc9a71461012e57806314a6e2931461016357806318160ddd146101785780632d7667c914610197575b600080fd5b34801561013a57600080fd5b5061014e6101493660046117a9565b6103ad565b60405190151581526020015b60405180910390f35b6101766101713660046119a9565b6103f1565b005b34801561018457600080fd5b506003545b60405190815260200161015a565b3480156101a357600080fd5b506101766101b2366004611afd565b6104ba565b3480156101c357600080fd5b506101cc6105c2565b60405160ff909116815260200161015a565b3480156101ea57600080fd5b506101766101f9366004611bcf565b6105db565b34801561020a57600080fd5b5061021e610219366004611bf9565b6105ea565b60405161015a9190611c8e565b34801561023757600080fd5b5061024b610246366004611cf0565b61069e565b60405161015a9190611d09565b34801561026457600080fd5b50610176610273366004611d1c565b6106a9565b34801561028457600080fd5b50610189610293366004611da1565b6107d1565b3480156102a457600080fd5b506101896102b3366004611dd4565b6001600160a01b031660009081526004602052604090205490565b3480156102da57600080fd5b50610176610838565b3480156102ef57600080fd5b506101766102fe366004611def565b61084c565b34801561030f57600080fd5b5061017661031e366004611e57565b610866565b610176610331366004611ec3565b61096e565b34801561034257600080fd5b506000546201000090046001600160a01b03166040516001600160a01b03909116815260200161015a565b34801561037957600080fd5b50610176610388366004611dd4565b61099f565b34801561039957600080fd5b506101766103a8366004611dd4565b610a2f565b60006001600160e01b031982167fda1f85e40000000000000000000000000000000000000000000000000000000014806103eb57506103eb82610a3b565b92915050565b6103f9610a89565b34156104185760405163f36ba73760e01b815260040160405180910390fd5b805182511461046557815181516040517f43a3c266000000000000000000000000000000000000000000000000000000008152600481019290925260248201526044015b60405180910390fd5b60005b82518110156104b5576104ad83828151811061048657610486611f00565b60200260200101518383815181106104a0576104a0611f00565b6020026020010151610aea565b600101610468565b505050565b84518451811415806104cd575083518114155b806104d9575082518114155b806104e5575081518114155b1561051c576040517f263eee8d00000000000000000000000000000000000000000000000000000000815260040160405180910390fd5b60005b818110156105b9576105b187828151811061053c5761053c611f00565b602002602001015187838151811061055657610556611f00565b602002602001015187848151811061057057610570611f00565b602002602001015187858151811061058a5761058a611f00565b60200260200101518786815181106105a4576105a4611f00565b6020026020010151610866565b60010161051f565b50505050505050565b60025460009060ff166105d55750601290565b50600090565b6105e6338383610c10565b5050565b6060815167ffffffffffffffff811115610606576106066117da565b60405190808252806020026020018201604052801561063957816020015b60608152602001906001900390816106245790505b50905060005b82518110156106985761066a83828151811061065d5761065d611f00565b6020026020010151610d54565b82828151811061067c5761067c611f00565b60200260200101819052506106918160010190565b905061063f565b50919050565b60606103eb82610d54565b600054610100900460ff16158080156106c95750600054600160ff909116105b806106e35750303b1580156106e3575060005460ff166001145b6107555760405162461bcd60e51b815260206004820152602e60248201527f496e697469616c697a61626c653a20636f6e747261637420697320616c72656160448201527f647920696e697469616c697a6564000000000000000000000000000000000000606482015260840161045c565b6000805460ff191660011790558015610778576000805461ff0019166101001790555b61078485858585610df6565b80156107ca576000805461ff0019169055604051600181527f7f26b83ff96e1f2b6a682f133852f6798a09c465da95921460cefb38474024989060200160405180910390a15b5050505050565b6000826001600160a01b0316826001600160a01b03160361080b57506001600160a01b0381166000908152600460205260409020546103eb565b506001600160a01b0380821660009081526005602090815260408083209386168352929052205492915050565b610840610a89565b61084a6000610e6d565b565b610854610a89565b61086084848484610ef9565b50505050565b836001600160a01b0316856001600160a01b0316036108b1576040517fb9afb00000000000000000000000000000000000000000000000000000000000815260040160405180910390fd5b336001600160a01b0386168114610959576001600160a01b0380871660009081526005602090815260408083209385168352929052205480851115610943576040517ff3a6b6910000000000000000000000000000000000000000000000000000000081526001600160a01b03808916600483015260248201839052831660448201526064810186905260840161045c565b61095787836109528885611f2c565b610c10565b505b6109668686868686610ff6565b505050505050565b610976610a89565b34156109955760405163f36ba73760e01b815260040160405180910390fd5b6105e68282610aea565b6109a7610a89565b6001600160a01b038116610a235760405162461bcd60e51b815260206004820152602660248201527f4f776e61626c653a206e6577206f776e657220697320746865207a65726f206160448201527f6464726573730000000000000000000000000000000000000000000000000000606482015260840161045c565b610a2c81610e6d565b50565b610a2c33826000610c10565b60006001600160e01b031982167f714df77c0000000000000000000000000000000000000000000000000000000014806103eb57506301ffc9a760e01b6001600160e01b03198316146103eb565b6000546001600160a01b036201000090910416331461084a5760405162461bcd60e51b815260206004820181905260248201527f4f776e61626c653a2063616c6c6572206973206e6f7420746865206f776e6572604482015260640161045c565b7f2145e1d6d074577dc71ef54c3807742b41b053a9352ae6b491331509acb9750f8201610b43576040517f85c169bd00000000000000000000000000000000000000000000000000000000815260040160405180910390fd5b7fd0f59754f88971fe6bc5a6618cc9d5f1e859c58d16b22d1c7b2d3e2b246cd8aa8201610b9c576040517f76755b3800000000000000000000000000000000000000000000000000000000815260040160405180910390fd5b6000828152600160205260409020610bb48282611fbd565b50817fece574603820d07bc9b91f2a932baadf4628aabcb8afba49776529c14a6104b261010083511115610bf557610bf083600061010061119c565b610bf7565b825b604051610c049190611d09565b60405180910390a25050565b6001600160a01b038216610c50576040517f6355e76600000000000000000000000000000000000000000000000000000000815260040160405180910390fd5b826001600160a01b0316826001600160a01b031603610c9b576040517fdab7504700000000000000000000000000000000000000000000000000000000815260040160405180910390fd5b6001600160a01b0380841660009081526005602090815260408083209386168352929052208190558015610d0f5780836001600160a01b0316836001600160a01b03167fd66aff874162a96578e919097b6f6d153dfd89a5cec41bb331fdb0c4aec16e2c60405160405180910390a4505050565b826001600160a01b0316826001600160a01b03167f50546e66e5f44d728365dc3908c63bc5cfeeab470722c1677e3073a6ac294aa160405160405180910390a3505050565b6000818152600160205260409020805460609190610d7190611f43565b80601f0160208091040260200160405190810160405280929190818152602001828054610d9d90611f43565b8015610dea5780601f10610dbf57610100808354040283529160200191610dea565b820191906000526020600020905b815481529060010190602001808311610dcd57829003601f168201915b50505050509050919050565b600054610100900460ff16610e615760405162461bcd60e51b815260206004820152602b60248201527f496e697469616c697a61626c653a20636f6e7472616374206973206e6f74206960448201526a6e697469616c697a696e6760a81b606482015260840161045c565b610860848484846112c4565b6000546001600160a01b03828116620100009092041614610a2c57600080546001600160a01b03838116620100008181027fffffffffffffffffffff0000000000000000000000000000000000000000ffff851617855560405193049190911692909183917f8be0079c531659141344cd1fd0a4f28419497f9722a3daafe3b4186f6b6457e091a35050565b6001600160a01b038416610f2057604051630d2d5ec360e41b815260040160405180910390fd5b338360036000828254610f33919061207d565b90915550506001600160a01b03851660009081526004602052604081208054869290610f6090849061207d565b92505081905550846001600160a01b031660006001600160a01b0316826001600160a01b03167f3997e418d2cef0b3b0e907b1e39605c3f7d32dbd061e82ea5b4a770d46a160a6878787604051610fb993929190612095565b60405180910390a4600080868685604051602001610fda94939291906120bf565b6040516020818303038152906040529050610966868583611348565b6001600160a01b038516158061101357506001600160a01b038416155b1561103157604051630d2d5ec360e41b815260040160405180910390fd5b6001600160a01b0385166000908152600460205260409020548084111561109d576040517f08d47949000000000000000000000000000000000000000000000000000000008152600481018290526001600160a01b03871660248201526044810185905260640161045c565b336001600160a01b038716600090815260046020526040812080548792906110c6908490611f2c565b90915550506001600160a01b038616600090815260046020526040812080548792906110f390849061207d565b92505081905550856001600160a01b0316876001600160a01b0316826001600160a01b03167f3997e418d2cef0b3b0e907b1e39605c3f7d32dbd061e82ea5b4a770d46a160a688888860405161114b93929190612095565b60405180910390a460008787878660405160200161116c94939291906120bf565b60405160208183030381529060405290506111878882611482565b611192878683611348565b5050505050505050565b6060816111aa81601f61207d565b10156111f85760405162461bcd60e51b815260206004820152600e60248201527f736c6963655f6f766572666c6f77000000000000000000000000000000000000604482015260640161045c565b611202828461207d565b845110156112525760405162461bcd60e51b815260206004820152601160248201527f736c6963655f6f75744f66426f756e6473000000000000000000000000000000604482015260640161045c565b60608215801561127157604051915060008252602082016040526112bb565b6040519150601f8416801560200281840101858101878315602002848b0101015b818310156112aa578051835260209283019201611292565b5050858452601f01601f1916604052505b50949350505050565b600054610100900460ff1661132f5760405162461bcd60e51b815260206004820152602b60248201527f496e697469616c697a61626c653a20636f6e7472616374206973206e6f74206960448201526a6e697469616c697a696e6760a81b606482015260840161045c565b6002805460ff191682151517905561086084848461152d565b61135983631aed5a8560e21b611657565b156113f357604051631aed5a8560e21b81526001600160a01b03841690636bb56a14906113ac907f20804611b3e2ea21c480dc465142210acf4a2485947541770ec1fb87dee4a55c90859060040161210c565b6000604051808303816000875af11580156113cb573d6000803e3d6000fd5b505050506040513d6000823e601f3d908101601f191682016040526108609190810190612125565b816104b5576001600160a01b0383163b15611445576040517fa608fbb60000000000000000000000000000000000000000000000000000000081526001600160a01b038416600482015260240161045c565b6040517f26c247f40000000000000000000000000000000000000000000000000000000081526001600160a01b038416600482015260240161045c565b61149382631aed5a8560e21b611657565b156105e657604051631aed5a8560e21b81526001600160a01b03831690636bb56a14906114e6907f429ac7a06903dbc9c13dfcb3c9d11df8194581fa047c96d7a4171fc7402958ea90859060040161210c565b6000604051808303816000875af1158015611505573d6000803e3d6000fd5b505050506040513d6000823e601f3d908101601f191682016040526104b59190810190612125565b600054610100900460ff166115985760405162461bcd60e51b815260206004820152602b60248201527f496e697469616c697a61626c653a20636f6e7472616374206973206e6f74206960448201526a6e697469616c697a696e6760a81b606482015260840161045c565b6115a1816116f5565b6116037feafec4d89fa9619884b60000a4d96624a38f7ac2d8d9a604ecf07c12c77e480c60001b6040518060400160405280600481526020017fa4d9662400000000000000000000000000000000000000000000000000000000815250611760565b61162d7fdeba1e292f8ba88238e10ab3c7f88bd4be4fac56cad5194b6ecceaf653468af184611760565b6104b57f2f0a68ab07768e01943a599e73362a0e17a63a72e94dd2e384d2c1d4db93275683611760565b604080516001600160e01b03198316602480830191909152825180830390910181526044909101909152602080820180517bffffffffffffffffffffffffffffffffffffffffffffffffffffffff166301ffc9a760e01b178152825160009392849283928392918391908a617530fa92503d915060005190508280156116de575060208210155b80156116ea5750600081115b979650505050505050565b600054610100900460ff166109a75760405162461bcd60e51b815260206004820152602b60248201527f496e697469616c697a61626c653a20636f6e7472616374206973206e6f74206960448201526a6e697469616c697a696e6760a81b606482015260840161045c565b60008281526001602052604090206117788282611fbd565b50817fece574603820d07bc9b91f2a932baadf4628aabcb8afba49776529c14a6104b282604051610c049190611d09565b6000602082840312156117bb57600080fd5b81356001600160e01b0319811681146117d357600080fd5b9392505050565b634e487b7160e01b600052604160045260246000fd5b604051601f8201601f1916810167ffffffffffffffff81118282101715611819576118196117da565b604052919050565b600067ffffffffffffffff82111561183b5761183b6117da565b5060051b60200190565b600082601f83011261185657600080fd5b8135602061186b61186683611821565b6117f0565b82815260059290921b8401810191818101908684111561188a57600080fd5b8286015b848110156118a5578035835291830191830161188e565b509695505050505050565b600067ffffffffffffffff8211156118ca576118ca6117da565b50601f01601f191660200190565b600082601f8301126118e957600080fd5b81356118f7611866826118b0565b81815284602083860101111561190c57600080fd5b816020850160208301376000918101602001919091529392505050565b600082601f83011261193a57600080fd5b8135602061194a61186683611821565b82815260059290921b8401810191818101908684111561196957600080fd5b8286015b848110156118a557803567ffffffffffffffff81111561198d5760008081fd5b61199b8986838b01016118d8565b84525091830191830161196d565b600080604083850312156119bc57600080fd5b823567ffffffffffffffff808211156119d457600080fd5b6119e086838701611845565b935060208501359150808211156119f657600080fd5b50611a0385828601611929565b9150509250929050565b80356001600160a01b0381168114611a2457600080fd5b919050565b600082601f830112611a3a57600080fd5b81356020611a4a61186683611821565b82815260059290921b84018101918181019086841115611a6957600080fd5b8286015b848110156118a557611a7e81611a0d565b8352918301918301611a6d565b80358015158114611a2457600080fd5b600082601f830112611aac57600080fd5b81356020611abc61186683611821565b82815260059290921b84018101918181019086841115611adb57600080fd5b8286015b848110156118a557611af081611a8b565b8352918301918301611adf565b600080600080600060a08688031215611b1557600080fd5b853567ffffffffffffffff80821115611b2d57600080fd5b611b3989838a01611a29565b96506020880135915080821115611b4f57600080fd5b611b5b89838a01611a29565b95506040880135915080821115611b7157600080fd5b611b7d89838a01611845565b94506060880135915080821115611b9357600080fd5b611b9f89838a01611a9b565b93506080880135915080821115611bb557600080fd5b50611bc288828901611929565b9150509295509295909350565b60008060408385031215611be257600080fd5b611beb83611a0d565b946020939093013593505050565b600060208284031215611c0b57600080fd5b813567ffffffffffffffff811115611c2257600080fd5b611c2e84828501611845565b949350505050565b60005b83811015611c51578181015183820152602001611c39565b838111156108605750506000910152565b60008151808452611c7a816020860160208601611c36565b601f01601f19169290920160200192915050565b6000602080830181845280855180835260408601915060408160051b870101925083870160005b82811015611ce357603f19888603018452611cd1858351611c62565b94509285019290850190600101611cb5565b5092979650505050505050565b600060208284031215611d0257600080fd5b5035919050565b6020815260006117d36020830184611c62565b60008060008060808587031215611d3257600080fd5b843567ffffffffffffffff80821115611d4a57600080fd5b611d56888389016118d8565b95506020870135915080821115611d6c57600080fd5b50611d79878288016118d8565b935050611d8860408601611a0d565b9150611d9660608601611a8b565b905092959194509250565b60008060408385031215611db457600080fd5b611dbd83611a0d565b9150611dcb60208401611a0d565b90509250929050565b600060208284031215611de657600080fd5b6117d382611a0d565b60008060008060808587031215611e0557600080fd5b611e0e85611a0d565b935060208501359250611e2360408601611a8b565b9150606085013567ffffffffffffffff811115611e3f57600080fd5b611e4b878288016118d8565b91505092959194509250565b600080600080600060a08688031215611e6f57600080fd5b611e7886611a0d565b9450611e8660208701611a0d565b935060408601359250611e9b60608701611a8b565b9150608086013567ffffffffffffffff811115611eb757600080fd5b611bc2888289016118d8565b60008060408385031215611ed657600080fd5b82359150602083013567ffffffffffffffff811115611ef457600080fd5b611a03858286016118d8565b634e487b7160e01b600052603260045260246000fd5b634e487b7160e01b600052601160045260246000fd5b600082821015611f3e57611f3e611f16565b500390565b600181811c90821680611f5757607f821691505b60208210810361069857634e487b7160e01b600052602260045260246000fd5b601f8211156104b557600081815260208120601f850160051c81016020861015611f9e5750805b601f850160051c820191505b8181101561096657828155600101611faa565b815167ffffffffffffffff811115611fd757611fd76117da565b611feb81611fe58454611f43565b84611f77565b602080601f83116001811461202057600084156120085750858301515b600019600386901b1c1916600185901b178555610966565b600085815260208120601f198616915b8281101561204f57888601518255948401946001909101908401612030565b508582101561206d5787850151600019600388901b60f8161c191681555b5050505050600190811b01905550565b6000821982111561209057612090611f16565b500190565b83815282151560208201526060604082015260006120b66060830184611c62565b95945050505050565b60006bffffffffffffffffffffffff19808760601b168352808660601b1660148401525083602883015282516120fc816048850160208701611c36565b9190910160480195945050505050565b828152604060208201526000611c2e6040830184611c62565b60006020828403121561213757600080fd5b815167ffffffffffffffff81111561214e57600080fd5b8201601f8101841361215f57600080fd5b805161216d611866826118b0565b81815285602083850101111561218257600080fd5b6120b6826020830160208601611c3656fea2646970667358221220f6da2a7380f09e05afe494c740f863ab84c3f820ce7d0291b23c3c7806bc3aa864736f6c634300080f0033",
  "linkReferences": {},
  "deployedLinkReferences": {}
}