{
  "_format": "hh-sol-artifact-1",
  "contractName": "LSP7CompatibleERC20Mintable",
  "sourceName": "contracts/LSP7DigitalAsset/presets/LSP7CompatibleERC20Mintable.sol",
  "abi": [
    {
      "inputs": [
        {
          "internalType": "string",
          "name": "name_",
          "type": "string"
        },
        {
          "internalType": "string",
          "name": "symbol_",
          "type": "string"
        },
        {
          "internalType": "address",
          "name": "newOwner_",
          "type": "address"
        }
      ],
      "stateMutability": "nonpayable",
      "type": "constructor"
    },
    {
      "inputs": [
        {
          "internalType": "uint256",
          "name": "dataKeysLength",
          "type": "uint256"
        },
        {
          "internalType": "uint256",
          "name": "dataValuesLength",
          "type": "uint256"
        }
      ],
      "name": "ERC725Y_DataKeysValuesLengthMismatch",
      "type": "error"
    },
    {
      "inputs": [],
      "name": "ERC725Y_MsgValueDisallowed",
      "type": "error"
    },
    {
      "inputs": [],
      "name": "LSP4TokenNameNotEditable",
      "type": "error"
    },
    {
      "inputs": [],
      "name": "LSP4TokenSymbolNotEditable",
      "type": "error"
    },
    {
      "inputs": [
        {
          "internalType": "address",
          "name": "tokenOwner",
          "type": "address"
        },
        {
          "internalType": "uint256",
          "name": "authorizedAmount",
          "type": "uint256"
        },
        {
          "internalType": "address",
          "name": "operator",
          "type": "address"
        },
        {
          "internalType": "uint256",
          "name": "amount",
          "type": "uint256"
        }
      ],
      "name": "LSP7AmountExceedsAuthorizedAmount",
      "type": "error"
    },
    {
      "inputs": [
        {
          "internalType": "uint256",
          "name": "balance",
          "type": "uint256"
        },
        {
          "internalType": "address",
          "name": "tokenOwner",
          "type": "address"
        },
        {
          "internalType": "uint256",
          "name": "amount",
          "type": "uint256"
        }
      ],
      "name": "LSP7AmountExceedsBalance",
      "type": "error"
    },
    {
      "inputs": [],
      "name": "LSP7CannotSendToSelf",
      "type": "error"
    },
    {
      "inputs": [],
      "name": "LSP7CannotSendWithAddressZero",
      "type": "error"
    },
    {
      "inputs": [],
      "name": "LSP7CannotUseAddressZeroAsOperator",
      "type": "error"
    },
    {
      "inputs": [],
      "name": "LSP7InvalidTransferBatch",
      "type": "error"
    },
    {
      "inputs": [
        {
          "internalType": "address",
          "name": "tokenReceiver",
          "type": "address"
        }
      ],
      "name": "LSP7NotifyTokenReceiverContractMissingLSP1Interface",
      "type": "error"
    },
    {
      "inputs": [
        {
          "internalType": "address",
          "name": "tokenReceiver",
          "type": "address"
        }
      ],
      "name": "LSP7NotifyTokenReceiverIsEOA",
      "type": "error"
    },
    {
      "inputs": [],
      "name": "LSP7TokenOwnerCannotBeOperator",
      "type": "error"
    },
    {
      "anonymous": false,
      "inputs": [
        {
          "indexed": true,
          "internalType": "address",
          "name": "owner",
          "type": "address"
        },
        {
          "indexed": true,
          "internalType": "address",
          "name": "spender",
          "type": "address"
        },
        {
          "indexed": false,
          "internalType": "uint256",
          "name": "value",
          "type": "uint256"
        }
      ],
      "name": "Approval",
      "type": "event"
    },
    {
      "anonymous": false,
      "inputs": [
        {
          "indexed": true,
          "internalType": "address",
          "name": "operator",
          "type": "address"
        },
        {
          "indexed": true,
          "internalType": "address",
          "name": "tokenOwner",
          "type": "address"
        },
        {
          "indexed": true,
          "internalType": "uint256",
          "name": "amount",
          "type": "uint256"
        }
      ],
      "name": "AuthorizedOperator",
      "type": "event"
    },
    {
      "anonymous": false,
      "inputs": [
        {
          "indexed": true,
          "internalType": "bytes32",
          "name": "dataKey",
          "type": "bytes32"
        },
        {
          "indexed": false,
          "internalType": "bytes",
          "name": "dataValue",
          "type": "bytes"
        }
      ],
      "name": "DataChanged",
      "type": "event"
    },
    {
      "anonymous": false,
      "inputs": [
        {
          "indexed": true,
          "internalType": "address",
          "name": "previousOwner",
          "type": "address"
        },
        {
          "indexed": true,
          "internalType": "address",
          "name": "newOwner",
          "type": "address"
        }
      ],
      "name": "OwnershipTransferred",
      "type": "event"
    },
    {
      "anonymous": false,
      "inputs": [
        {
          "indexed": true,
          "internalType": "address",
          "name": "operator",
          "type": "address"
        },
        {
          "indexed": true,
          "internalType": "address",
          "name": "tokenOwner",
          "type": "address"
        }
      ],
      "name": "RevokedOperator",
      "type": "event"
    },
    {
      "anonymous": false,
      "inputs": [
        {
          "indexed": true,
          "internalType": "address",
          "name": "from",
          "type": "address"
        },
        {
          "indexed": true,
          "internalType": "address",
          "name": "to",
          "type": "address"
        },
        {
          "indexed": false,
          "internalType": "uint256",
          "name": "value",
          "type": "uint256"
        }
      ],
      "name": "Transfer",
      "type": "event"
    },
    {
      "anonymous": false,
      "inputs": [
        {
          "indexed": true,
          "internalType": "address",
          "name": "operator",
          "type": "address"
        },
        {
          "indexed": true,
          "internalType": "address",
          "name": "from",
          "type": "address"
        },
        {
          "indexed": true,
          "internalType": "address",
          "name": "to",
          "type": "address"
        },
        {
          "indexed": false,
          "internalType": "uint256",
          "name": "amount",
          "type": "uint256"
        },
        {
          "indexed": false,
          "internalType": "bool",
          "name": "allowNonLSP1Recipient",
          "type": "bool"
        },
        {
          "indexed": false,
          "internalType": "bytes",
          "name": "data",
          "type": "bytes"
        }
      ],
      "name": "Transfer",
      "type": "event"
    },
    {
      "inputs": [
        {
          "internalType": "address",
          "name": "tokenOwner",
          "type": "address"
        },
        {
          "internalType": "address",
          "name": "operator",
          "type": "address"
        }
      ],
      "name": "allowance",
      "outputs": [
        {
          "internalType": "uint256",
          "name": "",
          "type": "uint256"
        }
      ],
      "stateMutability": "view",
      "type": "function"
    },
    {
      "inputs": [
        {
          "internalType": "address",
          "name": "operator",
          "type": "address"
        },
        {
          "internalType": "uint256",
          "name": "amount",
          "type": "uint256"
        }
      ],
      "name": "approve",
      "outputs": [
        {
          "internalType": "bool",
          "name": "",
          "type": "bool"
        }
      ],
      "stateMutability": "nonpayable",
      "type": "function"
    },
    {
      "inputs": [
        {
          "internalType": "address",
          "name": "operator",
          "type": "address"
        },
        {
          "internalType": "uint256",
          "name": "amount",
          "type": "uint256"
        }
      ],
      "name": "authorizeOperator",
      "outputs": [],
      "stateMutability": "nonpayable",
      "type": "function"
    },
    {
      "inputs": [
        {
          "internalType": "address",
          "name": "operator",
          "type": "address"
        },
        {
          "internalType": "address",
          "name": "tokenOwner",
          "type": "address"
        }
      ],
      "name": "authorizedAmountFor",
      "outputs": [
        {
          "internalType": "uint256",
          "name": "",
          "type": "uint256"
        }
      ],
      "stateMutability": "view",
      "type": "function"
    },
    {
      "inputs": [
        {
          "internalType": "address",
          "name": "tokenOwner",
          "type": "address"
        }
      ],
      "name": "balanceOf",
      "outputs": [
        {
          "internalType": "uint256",
          "name": "",
          "type": "uint256"
        }
      ],
      "stateMutability": "view",
      "type": "function"
    },
    {
      "inputs": [],
      "name": "decimals",
      "outputs": [
        {
          "internalType": "uint8",
          "name": "",
          "type": "uint8"
        }
      ],
      "stateMutability": "view",
      "type": "function"
    },
    {
      "inputs": [
        {
          "internalType": "bytes32[]",
          "name": "dataKeys",
          "type": "bytes32[]"
        }
      ],
      "name": "getData",
      "outputs": [
        {
          "internalType": "bytes[]",
          "name": "dataValues",
          "type": "bytes[]"
        }
      ],
      "stateMutability": "view",
      "type": "function"
    },
    {
      "inputs": [
        {
          "internalType": "bytes32",
          "name": "dataKey",
          "type": "bytes32"
        }
      ],
      "name": "getData",
      "outputs": [
        {
          "internalType": "bytes",
          "name": "dataValue",
          "type": "bytes"
        }
      ],
      "stateMutability": "view",
      "type": "function"
    },
    {
      "inputs": [
        {
          "internalType": "address",
          "name": "to",
          "type": "address"
        },
        {
          "internalType": "uint256",
          "name": "amount",
          "type": "uint256"
        },
        {
          "internalType": "bool",
          "name": "allowNonLSP1Recipient",
          "type": "bool"
        },
        {
          "internalType": "bytes",
          "name": "data",
          "type": "bytes"
        }
      ],
      "name": "mint",
      "outputs": [],
      "stateMutability": "nonpayable",
      "type": "function"
    },
    {
      "inputs": [],
      "name": "name",
      "outputs": [
        {
          "internalType": "string",
          "name": "",
          "type": "string"
        }
      ],
      "stateMutability": "view",
      "type": "function"
    },
    {
      "inputs": [],
      "name": "owner",
      "outputs": [
        {
          "internalType": "address",
          "name": "",
          "type": "address"
        }
      ],
      "stateMutability": "view",
      "type": "function"
    },
    {
      "inputs": [],
      "name": "renounceOwnership",
      "outputs": [],
      "stateMutability": "nonpayable",
      "type": "function"
    },
    {
      "inputs": [
        {
          "internalType": "address",
          "name": "operator",
          "type": "address"
        }
      ],
      "name": "revokeOperator",
      "outputs": [],
      "stateMutability": "nonpayable",
      "type": "function"
    },
    {
      "inputs": [
        {
          "internalType": "bytes32[]",
          "name": "dataKeys",
          "type": "bytes32[]"
        },
        {
          "internalType": "bytes[]",
          "name": "dataValues",
          "type": "bytes[]"
        }
      ],
      "name": "setData",
      "outputs": [],
      "stateMutability": "payable",
      "type": "function"
    },
    {
      "inputs": [
        {
          "internalType": "bytes32",
          "name": "dataKey",
          "type": "bytes32"
        },
        {
          "internalType": "bytes",
          "name": "dataValue",
          "type": "bytes"
        }
      ],
      "name": "setData",
      "outputs": [],
      "stateMutability": "payable",
      "type": "function"
    },
    {
      "inputs": [
        {
          "internalType": "bytes4",
          "name": "interfaceId",
          "type": "bytes4"
        }
      ],
      "name": "supportsInterface",
      "outputs": [
        {
          "internalType": "bool",
          "name": "",
          "type": "bool"
        }
      ],
      "stateMutability": "view",
      "type": "function"
    },
    {
      "inputs": [],
      "name": "symbol",
      "outputs": [
        {
          "internalType": "string",
          "name": "",
          "type": "string"
        }
      ],
      "stateMutability": "view",
      "type": "function"
    },
    {
      "inputs": [],
      "name": "totalSupply",
      "outputs": [
        {
          "internalType": "uint256",
          "name": "",
          "type": "uint256"
        }
      ],
      "stateMutability": "view",
      "type": "function"
    },
    {
      "inputs": [
        {
          "internalType": "address",
          "name": "from",
          "type": "address"
        },
        {
          "internalType": "address",
          "name": "to",
          "type": "address"
        },
        {
          "internalType": "uint256",
          "name": "amount",
          "type": "uint256"
        },
        {
          "internalType": "bool",
          "name": "allowNonLSP1Recipient",
          "type": "bool"
        },
        {
          "internalType": "bytes",
          "name": "data",
          "type": "bytes"
        }
      ],
      "name": "transfer",
      "outputs": [],
      "stateMutability": "nonpayable",
      "type": "function"
    },
    {
      "inputs": [
        {
          "internalType": "address",
          "name": "to",
          "type": "address"
        },
        {
          "internalType": "uint256",
          "name": "amount",
          "type": "uint256"
        }
      ],
      "name": "transfer",
      "outputs": [
        {
          "internalType": "bool",
          "name": "",
          "type": "bool"
        }
      ],
      "stateMutability": "nonpayable",
      "type": "function"
    },
    {
      "inputs": [
        {
          "internalType": "address[]",
          "name": "from",
          "type": "address[]"
        },
        {
          "internalType": "address[]",
          "name": "to",
          "type": "address[]"
        },
        {
          "internalType": "uint256[]",
          "name": "amount",
          "type": "uint256[]"
        },
        {
          "internalType": "bool[]",
          "name": "allowNonLSP1Recipient",
          "type": "bool[]"
        },
        {
          "internalType": "bytes[]",
          "name": "data",
          "type": "bytes[]"
        }
      ],
      "name": "transferBatch",
      "outputs": [],
      "stateMutability": "nonpayable",
      "type": "function"
    },
    {
      "inputs": [
        {
          "internalType": "address",
          "name": "from",
          "type": "address"
        },
        {
          "internalType": "address",
          "name": "to",
          "type": "address"
        },
        {
          "internalType": "uint256",
          "name": "amount",
          "type": "uint256"
        }
      ],
      "name": "transferFrom",
      "outputs": [
        {
          "internalType": "bool",
          "name": "",
          "type": "bool"
        }
      ],
      "stateMutability": "nonpayable",
      "type": "function"
    },
    {
      "inputs": [
        {
          "internalType": "address",
          "name": "newOwner",
          "type": "address"
        }
      ],
      "name": "transferOwnership",
      "outputs": [],
      "stateMutability": "nonpayable",
      "type": "function"
    }
  ],
  "bytecode": "0x60806040523480156200001157600080fd5b50604051620025f2380380620025f283398101604081905262000034916200034a565b8282828282826000838383806001600160a01b038116620000aa5760405162461bcd60e51b815260206004820152602660248201527f4f776e61626c653a206e6577206f776e657220697320746865207a65726f206160448201526564647265737360d01b606482015260840160405180910390fd5b620000c081620001b060201b62000a7b1760201c565b50620001177feafec4d89fa9619884b60000a4d96624a38f7ac2d8d9a604ecf07c12c77e480c60001b604051806040016040528060048152602001632936598960e21b8152506200021760201b62000af81760201c565b620001517fdeba1e292f8ba88238e10ab3c7f88bd4be4fac56cad5194b6ecceaf653468af160001b846200021760201b62000af81760201c565b6200018b7f2f0a68ab07768e01943a599e73362a0e17a63a72e94dd2e384d2c1d4db93275660001b836200021760201b62000af81760201c565b50506002805460ff191692151592909217909155506200056798505050505050505050565b6000546001600160a01b038281169116146200021457600080546001600160a01b038381166001600160a01b0319831681178455604051919092169283917f8be0079c531659141344cd1fd0a4f28419497f9722a3daafe3b4186f6b6457e09190a3505b50565b600082815260016020526040902062000231828262000466565b50817fece574603820d07bc9b91f2a932baadf4628aabcb8afba49776529c14a6104b28260405162000264919062000532565b60405180910390a25050565b634e487b7160e01b600052604160045260246000fd5b60005b83811015620002a357818101518382015260200162000289565b83811115620002b3576000848401525b50505050565b600082601f830112620002cb57600080fd5b81516001600160401b0380821115620002e857620002e862000270565b604051601f8301601f19908116603f0116810190828211818310171562000313576200031362000270565b816040528381528660208588010111156200032d57600080fd5b6200034084602083016020890162000286565b9695505050505050565b6000806000606084860312156200036057600080fd5b83516001600160401b03808211156200037857600080fd5b6200038687838801620002b9565b945060208601519150808211156200039d57600080fd5b50620003ac86828701620002b9565b604086015190935090506001600160a01b0381168114620003cc57600080fd5b809150509250925092565b600181811c90821680620003ec57607f821691505b6020821081036200040d57634e487b7160e01b600052602260045260246000fd5b50919050565b601f8211156200046157600081815260208120601f850160051c810160208610156200043c5750805b601f850160051c820191505b818110156200045d5782815560010162000448565b5050505b505050565b81516001600160401b0381111562000482576200048262000270565b6200049a81620004938454620003d7565b8462000413565b602080601f831160018114620004d25760008415620004b95750858301515b600019600386901b1c1916600185901b1785556200045d565b600085815260208120601f198616915b828110156200050357888601518255948401946001909101908401620004e2565b5085821015620005225787850151600019600388901b60f8161c191681555b5050505050600190811b01905550565b60208152600082518060208401526200055381604085016020870162000286565b601f01601f19169190910160400192915050565b61207b80620005776000396000f3fe6080604052600436106101805760003560e01c806365aeaa95116100d65780638da5cb5b1161007f578063dd62ed3e11610059578063dd62ed3e1461041f578063f2fde38b1461043f578063fad8b32a1461045f57600080fd5b80638da5cb5b146103c257806395d89b41146103ea578063a9059cbb146103ff57600080fd5b80637580d920116100b05780637580d9201461036f578063760d9bba1461038f5780637f23690c146103af57600080fd5b806365aeaa951461030457806370a0823114610324578063715018a61461035a57600080fd5b806323b872dd1161013857806347980aa31161011257806347980aa3146102975780634e3e6e9c146102b757806354f6127f146102e457600080fd5b806323b872dd146102305780632d7667c914610250578063313ce5671461027057600080fd5b8063095ea7b311610169578063095ea7b3146101dc57806314a6e293146101fc57806318160ddd1461021157600080fd5b806301ffc9a71461018557806306fdde03146101ba575b600080fd5b34801561019157600080fd5b506101a56101a03660046116ab565b61047f565b60405190151581526020015b60405180910390f35b3480156101c657600080fd5b506101cf610490565b6040516101b1919061172d565b3480156101e857600080fd5b506101a56101f736600461175c565b6104bd565b61020f61020a366004611955565b6104d2565b005b34801561021d57600080fd5b506003545b6040519081526020016101b1565b34801561023c57600080fd5b506101a561024b3660046119b9565b61059b565b34801561025c57600080fd5b5061020f61026b366004611ac9565b6105c4565b34801561027c57600080fd5b506102856106cc565b60405160ff90911681526020016101b1565b3480156102a357600080fd5b5061020f6102b236600461175c565b6106e5565b3480156102c357600080fd5b506102d76102d2366004611b9b565b6106f4565b6040516101b19190611bd8565b3480156102f057600080fd5b506101cf6102ff366004611c3a565b6107a8565b34801561031057600080fd5b5061022261031f366004611c53565b6107b3565b34801561033057600080fd5b5061022261033f366004611c86565b6001600160a01b031660009081526004602052604090205490565b34801561036657600080fd5b5061020f610819565b34801561037b57600080fd5b5061020f61038a366004611ca1565b61082d565b34801561039b57600080fd5b5061020f6103aa366004611d09565b610847565b61020f6103bd366004611d75565b61094f565b3480156103ce57600080fd5b506000546040516001600160a01b0390911681526020016101b1565b3480156103f657600080fd5b506101cf610980565b34801561040b57600080fd5b506101a561041a36600461175c565b6109ad565b34801561042b57600080fd5b5061022261043a366004611c53565b6109cc565b34801561044b57600080fd5b5061020f61045a366004611c86565b6109df565b34801561046b57600080fd5b5061020f61047a366004611c86565b610a6f565b600061048a82610b4d565b92915050565b6060600061048a7fdeba1e292f8ba88238e10ab3c7f88bd4be4fac56cad5194b6ecceaf653468af1610b8b565b60006104c983836106e5565b50600192915050565b6104da610c2d565b34156104f95760405163f36ba73760e01b815260040160405180910390fd5b805182511461054657815181516040517f43a3c266000000000000000000000000000000000000000000000000000000008152600481019290925260248201526044015b60405180910390fd5b60005b82518110156105965761058e83828151811061056757610567611db2565b602002602001015183838151811061058157610581611db2565b6020026020010151610c96565b600101610549565b505050565b60006105ba848484600160405180602001604052806000815250610847565b5060019392505050565b84518451811415806105d7575083518114155b806105e3575082518114155b806105ef575081518114155b15610626576040517f263eee8d00000000000000000000000000000000000000000000000000000000815260040160405180910390fd5b60005b818110156106c3576106bb87828151811061064657610646611db2565b602002602001015187838151811061066057610660611db2565b602002602001015187848151811061067a5761067a611db2565b602002602001015187858151811061069457610694611db2565b60200260200101518786815181106106ae576106ae611db2565b6020026020010151610847565b600101610629565b50505050505050565b60025460009060ff166106df5750601290565b50600090565b6106f0338383610ca0565b5050565b6060815167ffffffffffffffff81111561071057610710611786565b60405190808252806020026020018201604052801561074357816020015b606081526020019060019003908161072e5790505b50905060005b82518110156107a25761077483828151811061076757610767611db2565b6020026020010151610b8b565b82828151811061078657610786611db2565b602002602001018190525061079b8160010190565b9050610749565b50919050565b606061048a82610b8b565b6000826001600160a01b0316826001600160a01b0316036107ed57506001600160a01b03811660009081526004602052604090205461048a565b506001600160a01b0380821660009081526005602090815260408083209386168352929052205461048a565b610821610c2d565b61082b6000610a7b565b565b610835610c2d565b61084184848484610cfd565b50505050565b836001600160a01b0316856001600160a01b031603610892576040517fb9afb00000000000000000000000000000000000000000000000000000000000815260040160405180910390fd5b336001600160a01b038616811461093a576001600160a01b0380871660009081526005602090815260408083209385168352929052205480851115610924576040517ff3a6b6910000000000000000000000000000000000000000000000000000000081526001600160a01b03808916600483015260248201839052831660448201526064810186905260840161053d565b61093887836109338885611dde565b610ca0565b505b6109478686868686610d50565b505050505050565b610957610c2d565b34156109765760405163f36ba73760e01b815260040160405180910390fd5b6106f08282610c96565b6060600061048a7f2f0a68ab07768e01943a599e73362a0e17a63a72e94dd2e384d2c1d4db932756610b8b565b60006104c9338484600160405180602001604052806000815250610847565b60006109d882846107b3565b9392505050565b6109e7610c2d565b6001600160a01b038116610a635760405162461bcd60e51b815260206004820152602660248201527f4f776e61626c653a206e6577206f776e657220697320746865207a65726f206160448201527f6464726573730000000000000000000000000000000000000000000000000000606482015260840161053d565b610a6c81610a7b565b50565b610a6c33826000610ca0565b6000546001600160a01b03828116911614610a6c57600080546001600160a01b038381167fffffffffffffffffffffffff0000000000000000000000000000000000000000831681178455604051919092169283917f8be0079c531659141344cd1fd0a4f28419497f9722a3daafe3b4186f6b6457e09190a35050565b6000828152600160205260409020610b108282611e6f565b50817fece574603820d07bc9b91f2a932baadf4628aabcb8afba49776529c14a6104b282604051610b41919061172d565b60405180910390a25050565b60006001600160e01b031982167fda1f85e400000000000000000000000000000000000000000000000000000000148061048a575061048a82610db1565b6000818152600160205260409020805460609190610ba890611df5565b80601f0160208091040260200160405190810160405280929190818152602001828054610bd490611df5565b8015610c215780601f10610bf657610100808354040283529160200191610c21565b820191906000526020600020905b815481529060010190602001808311610c0457829003601f168201915b50505050509050919050565b33610c406000546001600160a01b031690565b6001600160a01b03161461082b5760405162461bcd60e51b815260206004820181905260248201527f4f776e61626c653a2063616c6c6572206973206e6f7420746865206f776e6572604482015260640161053d565b6106f08282610dff565b610cab838383610f19565b816001600160a01b0316836001600160a01b03167f8c5be1e5ebec7d5bd14f71427d1e84f3dd0314c0f7b2291e5b200ac8c7c3b92583604051610cf091815260200190565b60405180910390a3505050565b610d098484848461105d565b6040518381526001600160a01b038516906000907fddf252ad1be2c89b69c2b068fc378daa952ba7f163c4a11628f55a4df523b3ef9060200160405180910390a350505050565b610d5d858585858561115a565b836001600160a01b0316856001600160a01b03167fddf252ad1be2c89b69c2b068fc378daa952ba7f163c4a11628f55a4df523b3ef85604051610da291815260200190565b60405180910390a35050505050565b60006001600160e01b031982167f714df77c00000000000000000000000000000000000000000000000000000000148061048a57506301ffc9a760e01b6001600160e01b031983161461048a565b7f2145e1d6d074577dc71ef54c3807742b41b053a9352ae6b491331509acb9750f8201610e58576040517f85c169bd00000000000000000000000000000000000000000000000000000000815260040160405180910390fd5b7fd0f59754f88971fe6bc5a6618cc9d5f1e859c58d16b22d1c7b2d3e2b246cd8aa8201610eb1576040517f76755b3800000000000000000000000000000000000000000000000000000000815260040160405180910390fd5b6000828152600160205260409020610ec98282611e6f565b50817fece574603820d07bc9b91f2a932baadf4628aabcb8afba49776529c14a6104b261010083511115610f0a57610f05836000610100611300565b610f0c565b825b604051610b41919061172d565b6001600160a01b038216610f59576040517f6355e76600000000000000000000000000000000000000000000000000000000815260040160405180910390fd5b826001600160a01b0316826001600160a01b031603610fa4576040517fdab7504700000000000000000000000000000000000000000000000000000000815260040160405180910390fd5b6001600160a01b03808416600090815260056020908152604080832093861683529290522081905580156110185780836001600160a01b0316836001600160a01b03167fd66aff874162a96578e919097b6f6d153dfd89a5cec41bb331fdb0c4aec16e2c60405160405180910390a4505050565b826001600160a01b0316826001600160a01b03167f50546e66e5f44d728365dc3908c63bc5cfeeab470722c1677e3073a6ac294aa160405160405180910390a3505050565b6001600160a01b03841661108457604051630d2d5ec360e41b815260040160405180910390fd5b3383600360008282546110979190611f2f565b90915550506001600160a01b038516600090815260046020526040812080548692906110c4908490611f2f565b92505081905550846001600160a01b031660006001600160a01b0316826001600160a01b03167f3997e418d2cef0b3b0e907b1e39605c3f7d32dbd061e82ea5b4a770d46a160a687878760405161111d93929190611f47565b60405180910390a460008086868560405160200161113e9493929190611f71565b6040516020818303038152906040529050610947868583611428565b6001600160a01b038516158061117757506001600160a01b038416155b1561119557604051630d2d5ec360e41b815260040160405180910390fd5b6001600160a01b03851660009081526004602052604090205480841115611201576040517f08d47949000000000000000000000000000000000000000000000000000000008152600481018290526001600160a01b03871660248201526044810185905260640161053d565b336001600160a01b0387166000908152600460205260408120805487929061122a908490611dde565b90915550506001600160a01b03861660009081526004602052604081208054879290611257908490611f2f565b92505081905550856001600160a01b0316876001600160a01b0316826001600160a01b03167f3997e418d2cef0b3b0e907b1e39605c3f7d32dbd061e82ea5b4a770d46a160a68888886040516112af93929190611f47565b60405180910390a46000878787866040516020016112d09493929190611f71565b60405160208183030381529060405290506112eb8882611562565b6112f6878683611428565b5050505050505050565b60608161130e81601f611f2f565b101561135c5760405162461bcd60e51b815260206004820152600e60248201527f736c6963655f6f766572666c6f77000000000000000000000000000000000000604482015260640161053d565b6113668284611f2f565b845110156113b65760405162461bcd60e51b815260206004820152601160248201527f736c6963655f6f75744f66426f756e6473000000000000000000000000000000604482015260640161053d565b6060821580156113d5576040519150600082526020820160405261141f565b6040519150601f8416801560200281840101858101878315602002848b0101015b8183101561140e5780518352602092830192016113f6565b5050858452601f01601f1916604052505b50949350505050565b61143983631aed5a8560e21b61160d565b156114d357604051631aed5a8560e21b81526001600160a01b03841690636bb56a149061148c907f20804611b3e2ea21c480dc465142210acf4a2485947541770ec1fb87dee4a55c908590600401611fbe565b6000604051808303816000875af11580156114ab573d6000803e3d6000fd5b505050506040513d6000823e601f3d908101601f191682016040526108419190810190611fd7565b81610596576001600160a01b0383163b15611525576040517fa608fbb60000000000000000000000000000000000000000000000000000000081526001600160a01b038416600482015260240161053d565b6040517f26c247f40000000000000000000000000000000000000000000000000000000081526001600160a01b038416600482015260240161053d565b61157382631aed5a8560e21b61160d565b156106f057604051631aed5a8560e21b81526001600160a01b03831690636bb56a14906115c6907f429ac7a06903dbc9c13dfcb3c9d11df8194581fa047c96d7a4171fc7402958ea908590600401611fbe565b6000604051808303816000875af11580156115e5573d6000803e3d6000fd5b505050506040513d6000823e601f3d908101601f191682016040526105969190810190611fd7565b604080516001600160e01b03198316602480830191909152825180830390910181526044909101909152602080820180517bffffffffffffffffffffffffffffffffffffffffffffffffffffffff166301ffc9a760e01b178152825160009392849283928392918391908a617530fa92503d91506000519050828015611694575060208210155b80156116a05750600081115b979650505050505050565b6000602082840312156116bd57600080fd5b81356001600160e01b0319811681146109d857600080fd5b60005b838110156116f05781810151838201526020016116d8565b838111156108415750506000910152565b600081518084526117198160208601602086016116d5565b601f01601f19169290920160200192915050565b6020815260006109d86020830184611701565b80356001600160a01b038116811461175757600080fd5b919050565b6000806040838503121561176f57600080fd5b61177883611740565b946020939093013593505050565b634e487b7160e01b600052604160045260246000fd5b604051601f8201601f1916810167ffffffffffffffff811182821017156117c5576117c5611786565b604052919050565b600067ffffffffffffffff8211156117e7576117e7611786565b5060051b60200190565b600082601f83011261180257600080fd5b81356020611817611812836117cd565b61179c565b82815260059290921b8401810191818101908684111561183657600080fd5b8286015b84811015611851578035835291830191830161183a565b509695505050505050565b600067ffffffffffffffff82111561187657611876611786565b50601f01601f191660200190565b600082601f83011261189557600080fd5b81356118a36118128261185c565b8181528460208386010111156118b857600080fd5b816020850160208301376000918101602001919091529392505050565b600082601f8301126118e657600080fd5b813560206118f6611812836117cd565b82815260059290921b8401810191818101908684111561191557600080fd5b8286015b8481101561185157803567ffffffffffffffff8111156119395760008081fd5b6119478986838b0101611884565b845250918301918301611919565b6000806040838503121561196857600080fd5b823567ffffffffffffffff8082111561198057600080fd5b61198c868387016117f1565b935060208501359150808211156119a257600080fd5b506119af858286016118d5565b9150509250929050565b6000806000606084860312156119ce57600080fd5b6119d784611740565b92506119e560208501611740565b9150604084013590509250925092565b600082601f830112611a0657600080fd5b81356020611a16611812836117cd565b82815260059290921b84018101918181019086841115611a3557600080fd5b8286015b8481101561185157611a4a81611740565b8352918301918301611a39565b8035801515811461175757600080fd5b600082601f830112611a7857600080fd5b81356020611a88611812836117cd565b82815260059290921b84018101918181019086841115611aa757600080fd5b8286015b8481101561185157611abc81611a57565b8352918301918301611aab565b600080600080600060a08688031215611ae157600080fd5b853567ffffffffffffffff80821115611af957600080fd5b611b0589838a016119f5565b96506020880135915080821115611b1b57600080fd5b611b2789838a016119f5565b95506040880135915080821115611b3d57600080fd5b611b4989838a016117f1565b94506060880135915080821115611b5f57600080fd5b611b6b89838a01611a67565b93506080880135915080821115611b8157600080fd5b50611b8e888289016118d5565b9150509295509295909350565b600060208284031215611bad57600080fd5b813567ffffffffffffffff811115611bc457600080fd5b611bd0848285016117f1565b949350505050565b6000602080830181845280855180835260408601915060408160051b870101925083870160005b82811015611c2d57603f19888603018452611c1b858351611701565b94509285019290850190600101611bff565b5092979650505050505050565b600060208284031215611c4c57600080fd5b5035919050565b60008060408385031215611c6657600080fd5b611c6f83611740565b9150611c7d60208401611740565b90509250929050565b600060208284031215611c9857600080fd5b6109d882611740565b60008060008060808587031215611cb757600080fd5b611cc085611740565b935060208501359250611cd560408601611a57565b9150606085013567ffffffffffffffff811115611cf157600080fd5b611cfd87828801611884565b91505092959194509250565b600080600080600060a08688031215611d2157600080fd5b611d2a86611740565b9450611d3860208701611740565b935060408601359250611d4d60608701611a57565b9150608086013567ffffffffffffffff811115611d6957600080fd5b611b8e88828901611884565b60008060408385031215611d8857600080fd5b82359150602083013567ffffffffffffffff811115611da657600080fd5b6119af85828601611884565b634e487b7160e01b600052603260045260246000fd5b634e487b7160e01b600052601160045260246000fd5b600082821015611df057611df0611dc8565b500390565b600181811c90821680611e0957607f821691505b6020821081036107a257634e487b7160e01b600052602260045260246000fd5b601f82111561059657600081815260208120601f850160051c81016020861015611e505750805b601f850160051c820191505b8181101561094757828155600101611e5c565b815167ffffffffffffffff811115611e8957611e89611786565b611e9d81611e978454611df5565b84611e29565b602080601f831160018114611ed25760008415611eba5750858301515b600019600386901b1c1916600185901b178555610947565b600085815260208120601f198616915b82811015611f0157888601518255948401946001909101908401611ee2565b5085821015611f1f5787850151600019600388901b60f8161c191681555b5050505050600190811b01905550565b60008219821115611f4257611f42611dc8565b500190565b8381528215156020820152606060408201526000611f686060830184611701565b95945050505050565b60006bffffffffffffffffffffffff19808760601b168352808660601b166014840152508360288301528251611fae8160488501602087016116d5565b9190910160480195945050505050565b828152604060208201526000611bd06040830184611701565b600060208284031215611fe957600080fd5b815167ffffffffffffffff81111561200057600080fd5b8201601f8101841361201157600080fd5b805161201f6118128261185c565b81815285602083850101111561203457600080fd5b611f688260208301602086016116d556fea26469706673582212208a9430312fd37e4b3b64d303e6a0d40d692b2453b13e2d7c2b9aa9985377eb8264736f6c634300080f0033",
  "linkReferences": {},
  "deployedLinkReferences": {}
}