{
  "_format": "hh-sol-artifact-1",
  "contractName": "LSP8MintableInit",
  "sourceName": "contracts/LSP8IdentifiableDigitalAsset/presets/LSP8MintableInit.sol",
  "abi": [
    {
      "inputs": [],
      "stateMutability": "nonpayable",
      "type": "constructor"
    },
    {
      "inputs": [
        {
          "internalType": "uint256",
          "name": "dataKeysLength",
          "type": "uint256"
        },
        {
          "internalType": "uint256",
          "name": "dataValuesLength",
          "type": "uint256"
        }
      ],
      "name": "ERC725Y_DataKeysValuesLengthMismatch",
      "type": "error"
    },
    {
      "inputs": [],
      "name": "ERC725Y_MsgValueDisallowed",
      "type": "error"
    },
    {
      "inputs": [],
      "name": "LSP4TokenNameNotEditable",
      "type": "error"
    },
    {
      "inputs": [],
      "name": "LSP4TokenSymbolNotEditable",
      "type": "error"
    },
    {
      "inputs": [],
      "name": "LSP8CannotSendToAddressZero",
      "type": "error"
    },
    {
      "inputs": [],
      "name": "LSP8CannotSendToSelf",
      "type": "error"
    },
    {
      "inputs": [],
      "name": "LSP8CannotUseAddressZeroAsOperator",
      "type": "error"
    },
    {
      "inputs": [],
      "name": "LSP8InvalidTransferBatch",
      "type": "error"
    },
    {
      "inputs": [
        {
          "internalType": "bytes32",
          "name": "tokenId",
          "type": "bytes32"
        }
      ],
      "name": "LSP8NonExistentTokenId",
      "type": "error"
    },
    {
      "inputs": [
        {
          "internalType": "address",
          "name": "operator",
          "type": "address"
        },
        {
          "internalType": "bytes32",
          "name": "tokenId",
          "type": "bytes32"
        }
      ],
      "name": "LSP8NonExistingOperator",
      "type": "error"
    },
    {
      "inputs": [
        {
          "internalType": "bytes32",
          "name": "tokenId",
          "type": "bytes32"
        },
        {
          "internalType": "address",
          "name": "caller",
          "type": "address"
        }
      ],
      "name": "LSP8NotTokenOperator",
      "type": "error"
    },
    {
      "inputs": [
        {
          "internalType": "address",
          "name": "tokenOwner",
          "type": "address"
        },
        {
          "internalType": "bytes32",
          "name": "tokenId",
          "type": "bytes32"
        },
        {
          "internalType": "address",
          "name": "caller",
          "type": "address"
        }
      ],
      "name": "LSP8NotTokenOwner",
      "type": "error"
    },
    {
      "inputs": [
        {
          "internalType": "address",
          "name": "tokenReceiver",
          "type": "address"
        }
      ],
      "name": "LSP8NotifyTokenReceiverContractMissingLSP1Interface",
      "type": "error"
    },
    {
      "inputs": [
        {
          "internalType": "address",
          "name": "tokenReceiver",
          "type": "address"
        }
      ],
      "name": "LSP8NotifyTokenReceiverIsEOA",
      "type": "error"
    },
    {
      "inputs": [
        {
          "internalType": "address",
          "name": "operator",
          "type": "address"
        },
        {
          "internalType": "bytes32",
          "name": "tokenId",
          "type": "bytes32"
        }
      ],
      "name": "LSP8OperatorAlreadyAuthorized",
      "type": "error"
    },
    {
      "inputs": [
        {
          "internalType": "bytes32",
          "name": "tokenId",
          "type": "bytes32"
        }
      ],
      "name": "LSP8TokenIdAlreadyMinted",
      "type": "error"
    },
    {
      "inputs": [],
      "name": "LSP8TokenOwnerCannotBeOperator",
      "type": "error"
    },
    {
      "anonymous": false,
      "inputs": [
        {
          "indexed": true,
          "internalType": "address",
          "name": "operator",
          "type": "address"
        },
        {
          "indexed": true,
          "internalType": "address",
          "name": "tokenOwner",
          "type": "address"
        },
        {
          "indexed": true,
          "internalType": "bytes32",
          "name": "tokenId",
          "type": "bytes32"
        }
      ],
      "name": "AuthorizedOperator",
      "type": "event"
    },
    {
      "anonymous": false,
      "inputs": [
        {
          "indexed": true,
          "internalType": "bytes32",
          "name": "dataKey",
          "type": "bytes32"
        },
        {
          "indexed": false,
          "internalType": "bytes",
          "name": "dataValue",
          "type": "bytes"
        }
      ],
      "name": "DataChanged",
      "type": "event"
    },
    {
      "anonymous": false,
      "inputs": [
        {
          "indexed": false,
          "internalType": "uint8",
          "name": "version",
          "type": "uint8"
        }
      ],
      "name": "Initialized",
      "type": "event"
    },
    {
      "anonymous": false,
      "inputs": [
        {
          "indexed": true,
          "internalType": "address",
          "name": "previousOwner",
          "type": "address"
        },
        {
          "indexed": true,
          "internalType": "address",
          "name": "newOwner",
          "type": "address"
        }
      ],
      "name": "OwnershipTransferred",
      "type": "event"
    },
    {
      "anonymous": false,
      "inputs": [
        {
          "indexed": true,
          "internalType": "address",
          "name": "operator",
          "type": "address"
        },
        {
          "indexed": true,
          "internalType": "address",
          "name": "tokenOwner",
          "type": "address"
        },
        {
          "indexed": true,
          "internalType": "bytes32",
          "name": "tokenId",
          "type": "bytes32"
        }
      ],
      "name": "RevokedOperator",
      "type": "event"
    },
    {
      "anonymous": false,
      "inputs": [
        {
          "indexed": false,
          "internalType": "address",
          "name": "operator",
          "type": "address"
        },
        {
          "indexed": true,
          "internalType": "address",
          "name": "from",
          "type": "address"
        },
        {
          "indexed": true,
          "internalType": "address",
          "name": "to",
          "type": "address"
        },
        {
          "indexed": true,
          "internalType": "bytes32",
          "name": "tokenId",
          "type": "bytes32"
        },
        {
          "indexed": false,
          "internalType": "bool",
          "name": "allowNonLSP1Recipient",
          "type": "bool"
        },
        {
          "indexed": false,
          "internalType": "bytes",
          "name": "data",
          "type": "bytes"
        }
      ],
      "name": "Transfer",
      "type": "event"
    },
    {
      "inputs": [
        {
          "internalType": "address",
          "name": "operator",
          "type": "address"
        },
        {
          "internalType": "bytes32",
          "name": "tokenId",
          "type": "bytes32"
        }
      ],
      "name": "authorizeOperator",
      "outputs": [],
      "stateMutability": "nonpayable",
      "type": "function"
    },
    {
      "inputs": [
        {
          "internalType": "address",
          "name": "tokenOwner",
          "type": "address"
        }
      ],
      "name": "balanceOf",
      "outputs": [
        {
          "internalType": "uint256",
          "name": "",
          "type": "uint256"
        }
      ],
      "stateMutability": "view",
      "type": "function"
    },
    {
      "inputs": [
        {
          "internalType": "bytes32[]",
          "name": "dataKeys",
          "type": "bytes32[]"
        }
      ],
      "name": "getData",
      "outputs": [
        {
          "internalType": "bytes[]",
          "name": "dataValues",
          "type": "bytes[]"
        }
      ],
      "stateMutability": "view",
      "type": "function"
    },
    {
      "inputs": [
        {
          "internalType": "bytes32",
          "name": "dataKey",
          "type": "bytes32"
        }
      ],
      "name": "getData",
      "outputs": [
        {
          "internalType": "bytes",
          "name": "dataValue",
          "type": "bytes"
        }
      ],
      "stateMutability": "view",
      "type": "function"
    },
    {
      "inputs": [
        {
          "internalType": "bytes32",
          "name": "tokenId",
          "type": "bytes32"
        }
      ],
      "name": "getOperatorsOf",
      "outputs": [
        {
          "internalType": "address[]",
          "name": "",
          "type": "address[]"
        }
      ],
      "stateMutability": "view",
      "type": "function"
    },
    {
      "inputs": [
        {
          "internalType": "string",
          "name": "name_",
          "type": "string"
        },
        {
          "internalType": "string",
          "name": "symbol_",
          "type": "string"
        },
        {
          "internalType": "address",
          "name": "newOwner_",
          "type": "address"
        }
      ],
      "name": "initialize",
      "outputs": [],
      "stateMutability": "nonpayable",
      "type": "function"
    },
    {
      "inputs": [
        {
          "internalType": "address",
          "name": "operator",
          "type": "address"
        },
        {
          "internalType": "bytes32",
          "name": "tokenId",
          "type": "bytes32"
        }
      ],
      "name": "isOperatorFor",
      "outputs": [
        {
          "internalType": "bool",
          "name": "",
          "type": "bool"
        }
      ],
      "stateMutability": "view",
      "type": "function"
    },
    {
      "inputs": [
        {
          "internalType": "address",
          "name": "to",
          "type": "address"
        },
        {
          "internalType": "bytes32",
          "name": "tokenId",
          "type": "bytes32"
        },
        {
          "internalType": "bool",
          "name": "allowNonLSP1Recipient",
          "type": "bool"
        },
        {
          "internalType": "bytes",
          "name": "data",
          "type": "bytes"
        }
      ],
      "name": "mint",
      "outputs": [],
      "stateMutability": "nonpayable",
      "type": "function"
    },
    {
      "inputs": [],
      "name": "owner",
      "outputs": [
        {
          "internalType": "address",
          "name": "",
          "type": "address"
        }
      ],
      "stateMutability": "view",
      "type": "function"
    },
    {
      "inputs": [],
      "name": "renounceOwnership",
      "outputs": [],
      "stateMutability": "nonpayable",
      "type": "function"
    },
    {
      "inputs": [
        {
          "internalType": "address",
          "name": "operator",
          "type": "address"
        },
        {
          "internalType": "bytes32",
          "name": "tokenId",
          "type": "bytes32"
        }
      ],
      "name": "revokeOperator",
      "outputs": [],
      "stateMutability": "nonpayable",
      "type": "function"
    },
    {
      "inputs": [
        {
          "internalType": "bytes32[]",
          "name": "dataKeys",
          "type": "bytes32[]"
        },
        {
          "internalType": "bytes[]",
          "name": "dataValues",
          "type": "bytes[]"
        }
      ],
      "name": "setData",
      "outputs": [],
      "stateMutability": "payable",
      "type": "function"
    },
    {
      "inputs": [
        {
          "internalType": "bytes32",
          "name": "dataKey",
          "type": "bytes32"
        },
        {
          "internalType": "bytes",
          "name": "dataValue",
          "type": "bytes"
        }
      ],
      "name": "setData",
      "outputs": [],
      "stateMutability": "payable",
      "type": "function"
    },
    {
      "inputs": [
        {
          "internalType": "bytes4",
          "name": "interfaceId",
          "type": "bytes4"
        }
      ],
      "name": "supportsInterface",
      "outputs": [
        {
          "internalType": "bool",
          "name": "",
          "type": "bool"
        }
      ],
      "stateMutability": "view",
      "type": "function"
    },
    {
      "inputs": [
        {
          "internalType": "address",
          "name": "tokenOwner",
          "type": "address"
        }
      ],
      "name": "tokenIdsOf",
      "outputs": [
        {
          "internalType": "bytes32[]",
          "name": "",
          "type": "bytes32[]"
        }
      ],
      "stateMutability": "view",
      "type": "function"
    },
    {
      "inputs": [
        {
          "internalType": "bytes32",
          "name": "tokenId",
          "type": "bytes32"
        }
      ],
      "name": "tokenOwnerOf",
      "outputs": [
        {
          "internalType": "address",
          "name": "",
          "type": "address"
        }
      ],
      "stateMutability": "view",
      "type": "function"
    },
    {
      "inputs": [],
      "name": "totalSupply",
      "outputs": [
        {
          "internalType": "uint256",
          "name": "",
          "type": "uint256"
        }
      ],
      "stateMutability": "view",
      "type": "function"
    },
    {
      "inputs": [
        {
          "internalType": "address",
          "name": "from",
          "type": "address"
        },
        {
          "internalType": "address",
          "name": "to",
          "type": "address"
        },
        {
          "internalType": "bytes32",
          "name": "tokenId",
          "type": "bytes32"
        },
        {
          "internalType": "bool",
          "name": "allowNonLSP1Recipient",
          "type": "bool"
        },
        {
          "internalType": "bytes",
          "name": "data",
          "type": "bytes"
        }
      ],
      "name": "transfer",
      "outputs": [],
      "stateMutability": "nonpayable",
      "type": "function"
    },
    {
      "inputs": [
        {
          "internalType": "address[]",
          "name": "from",
          "type": "address[]"
        },
        {
          "internalType": "address[]",
          "name": "to",
          "type": "address[]"
        },
        {
          "internalType": "bytes32[]",
          "name": "tokenId",
          "type": "bytes32[]"
        },
        {
          "internalType": "bool[]",
          "name": "allowNonLSP1Recipient",
          "type": "bool[]"
        },
        {
          "internalType": "bytes[]",
          "name": "data",
          "type": "bytes[]"
        }
      ],
      "name": "transferBatch",
      "outputs": [],
      "stateMutability": "nonpayable",
      "type": "function"
    },
    {
      "inputs": [
        {
          "internalType": "address",
          "name": "newOwner",
          "type": "address"
        }
      ],
      "name": "transferOwnership",
      "outputs": [],
      "stateMutability": "nonpayable",
      "type": "function"
    }
  ],
  "bytecode": "0x60806040523480156200001157600080fd5b506200001c62000022565b620000e4565b600054610100900460ff16156200008f5760405162461bcd60e51b815260206004820152602760248201527f496e697469616c697a61626c653a20636f6e747261637420697320696e697469604482015266616c697a696e6760c81b606482015260840160405180910390fd5b60005460ff9081161015620000e2576000805460ff191660ff9081179091556040519081527f7f26b83ff96e1f2b6a682f133852f6798a09c465da95921460cefb38474024989060200160405180910390a15b565b61272380620000f46000396000f3fe60806040526004361061015f5760003560e01c806354f6127f116100c05780638da5cb5b11610074578063af255b6111610059578063af255b61146103c5578063cf5182ba146103e5578063f2fde38b1461040557600080fd5b80638da5cb5b14610374578063a3b261f21461039857600080fd5b8063715018a6116100a5578063715018a61461032c5780637e87632c146103415780637f23690c1461036157600080fd5b806354f6127f146102df57806370a082311461030c57600080fd5b8063217b22701161011757806349a6078d116100fc57806349a6078d146102655780634e3e6e9c14610292578063511b6952146102bf57600080fd5b8063217b22701461020d5780632a3654a41461024557600080fd5b80630b0c6d82116101485780630b0c6d82146101bb57806314a6e293146101db57806318160ddd146101ee57600080fd5b806301ffc9a714610164578063077f224a14610199575b600080fd5b34801561017057600080fd5b5061018461017f366004611cb2565b610425565b60405190151581526020015b60405180910390f35b3480156101a557600080fd5b506101b96101b4366004611dbd565b610469565b005b3480156101c757600080fd5b506101b96101d6366004611e31565b610594565b6101b96101e9366004611f65565b61064b565b3480156101fa57600080fd5b506002545b604051908152602001610190565b34801561021957600080fd5b5061022d610228366004611fc9565b61070a565b6040516001600160a01b039091168152602001610190565b34801561025157600080fd5b50610184610260366004611e31565b610743565b34801561027157600080fd5b50610285610280366004611fc9565b61075f565b6040516101909190611fe2565b34801561029e57600080fd5b506102b26102ad36600461202f565b610781565b60405161019091906120bc565b3480156102cb57600080fd5b506101b96102da36600461212e565b610835565b3480156102eb57600080fd5b506102ff6102fa366004611fc9565b61089d565b60405161019091906121a7565b34801561031857600080fd5b506101ff6103273660046121ba565b6108a8565b34801561033857600080fd5b506101b96108c9565b34801561034d57600080fd5b506101b961035c366004612299565b6108dd565b6101b961036f36600461235e565b6109e5565b34801561038057600080fd5b506000546201000090046001600160a01b031661022d565b3480156103a457600080fd5b506103b86103b33660046121ba565b610a1a565b604051610190919061239b565b3480156103d157600080fd5b506101b96103e03660046123d3565b610a3e565b3480156103f157600080fd5b506101b9610400366004611e31565b610a52565b34801561041157600080fd5b506101b96104203660046121ba565b610ba3565b60006001600160e01b031982167f622e7a01000000000000000000000000000000000000000000000000000000001480610463575061046382610c33565b92915050565b600054610100900460ff16158080156104895750600054600160ff909116105b806104a35750303b1580156104a3575060005460ff166001145b61051a5760405162461bcd60e51b815260206004820152602e60248201527f496e697469616c697a61626c653a20636f6e747261637420697320616c72656160448201527f647920696e697469616c697a656400000000000000000000000000000000000060648201526084015b60405180910390fd5b6000805460ff19166001179055801561053d576000805461ff0019166101001790555b610548848484610c81565b801561058e576000805461ff0019169055604051600181527f7f26b83ff96e1f2b6a682f133852f6798a09c465da95921460cefb38474024989060200160405180910390a15b50505050565b600061059f8261070a565b90506001600160a01b03811633146105e257604051632d938f5160e11b81526001600160a01b038216600482015260248101839052336044820152606401610511565b6001600160a01b03831661060957604051639577b8b360e01b815260040160405180910390fd5b826001600160a01b0316816001600160a01b03160361063b576040516344fed6b160e11b815260040160405180910390fd5b610646838284610cf7565b505050565b610653610da1565b34156106725760405163f36ba73760e01b815260040160405180910390fd5b80518251146106ba57815181516040517f43a3c26600000000000000000000000000000000000000000000000000000000815260048101929092526024820152604401610511565b60005b8251811015610646576107028382815181106106db576106db61243b565b60200260200101518383815181106106f5576106f561243b565b6020026020010151610e02565b6001016106bd565b6000818152600360205260408120546001600160a01b03168061046357604051635747cd1b60e11b815260048101849052602401610511565b600061074e82610f28565b6107588383610f60565b9392505050565b606061076a82610f28565b600082815260056020526040902061046390610fa9565b6060815167ffffffffffffffff81111561079d5761079d611cdc565b6040519080825280602002602001820160405280156107d057816020015b60608152602001906001900390816107bb5790505b50905060005b825181101561082f576108018382815181106107f4576107f461243b565b6020026020010151610fb6565b8282815181106108135761081361243b565b60200260200101819052506108288160010190565b90506107d6565b50919050565b336108408185610f60565b610888576040517f1294d2a9000000000000000000000000000000000000000000000000000000008152600481018590526001600160a01b0382166024820152604401610511565b6108958686868686611058565b505050505050565b606061046382610fb6565b6001600160a01b038116600090815260046020526040812061046390611238565b6108d1610da1565b6108db6000611242565b565b84518451811415806108f0575083518114155b806108fc575082518114155b80610908575081518114155b1561093f576040517f93a8311900000000000000000000000000000000000000000000000000000000815260040160405180910390fd5b60005b818110156109dc576109d487828151811061095f5761095f61243b565b60200260200101518783815181106109795761097961243b565b60200260200101518784815181106109935761099361243b565b60200260200101518785815181106109ad576109ad61243b565b60200260200101518786815181106109c7576109c761243b565b6020026020010151610835565b600101610942565b50505050505050565b6109ed610da1565b3415610a0c5760405163f36ba73760e01b815260040160405180910390fd5b610a168282610e02565b5050565b6001600160a01b038116600090815260046020526040902060609061046390610fa9565b610a46610da1565b61058e848484846112ce565b6000610a5d8261070a565b90506001600160a01b0381163314610aa057604051632d938f5160e11b81526001600160a01b038216600482015260248101839052336044820152606401610511565b6001600160a01b038316610ac757604051639577b8b360e01b815260040160405180910390fd5b826001600160a01b0316816001600160a01b031603610af9576040516344fed6b160e11b815260040160405180910390fd5b6000828152600560205260408120610b11908561142e565b905080610b5c576040517fa7626b680000000000000000000000000000000000000000000000000000000081526001600160a01b038516600482015260248101849052604401610511565b82826001600160a01b0316856001600160a01b03167f34b797fc5a526f7bf1d2b5de25f6564fd85ae364e3ee939aee7c1ac27871a98860405160405180910390a450505050565b610bab610da1565b6001600160a01b038116610c275760405162461bcd60e51b815260206004820152602660248201527f4f776e61626c653a206e6577206f776e657220697320746865207a65726f206160448201527f64647265737300000000000000000000000000000000000000000000000000006064820152608401610511565b610c3081611242565b50565b60006001600160e01b031982167f714df77c00000000000000000000000000000000000000000000000000000000148061046357506301ffc9a760e01b6001600160e01b0319831614610463565b600054610100900460ff16610cec5760405162461bcd60e51b815260206004820152602b60248201527f496e697469616c697a61626c653a20636f6e7472616374206973206e6f74206960448201526a6e697469616c697a696e6760a81b6064820152608401610511565b610646838383611443565b6000818152600560205260408120610d0f90856114b9565b905080610d5a576040517f4aa31a8c0000000000000000000000000000000000000000000000000000000081526001600160a01b038516600482015260248101839052604401610511565b81836001600160a01b0316856001600160a01b03167f17d5389f6ab6adb2647dfa0aa365c323d37adacc30b33a65310b6158ce1373d560405160405180910390a450505050565b6000546001600160a01b03620100009091041633146108db5760405162461bcd60e51b815260206004820181905260248201527f4f776e61626c653a2063616c6c6572206973206e6f7420746865206f776e65726044820152606401610511565b7f2145e1d6d074577dc71ef54c3807742b41b053a9352ae6b491331509acb9750f8201610e5b576040517f85c169bd00000000000000000000000000000000000000000000000000000000815260040160405180910390fd5b7fd0f59754f88971fe6bc5a6618cc9d5f1e859c58d16b22d1c7b2d3e2b246cd8aa8201610eb4576040517f76755b3800000000000000000000000000000000000000000000000000000000815260040160405180910390fd5b6000828152600160205260409020610ecc82826124cb565b50817fece574603820d07bc9b91f2a932baadf4628aabcb8afba49776529c14a6104b261010083511115610f0d57610f088360006101006114ce565b610f0f565b825b604051610f1c91906121a7565b60405180910390a25050565b6000818152600360205260409020546001600160a01b0316610c3057604051635747cd1b60e11b815260048101829052602401610511565b600080610f6c8361070a565b9050806001600160a01b0316846001600160a01b03161480610fa157506000838152600560205260409020610fa190856115f6565b949350505050565b6060600061075883611618565b6000818152600160205260409020805460609190610fd390612451565b80601f0160208091040260200160405190810160405280929190818152602001828054610fff90612451565b801561104c5780601f106110215761010080835404028352916020019161104c565b820191906000526020600020905b81548152906001019060200180831161102f57829003601f168201915b50505050509050919050565b836001600160a01b0316856001600160a01b0316036110a3576040517f5d67d6c100000000000000000000000000000000000000000000000000000000815260040160405180910390fd5b60006110ae8461070a565b9050856001600160a01b0316816001600160a01b0316146110fc57604051632d938f5160e11b81526001600160a01b0380831660048301526024820186905287166044820152606401610511565b6001600160a01b038516611123576040516324ecef4d60e01b815260040160405180910390fd5b3361112e8786611673565b6001600160a01b038716600090815260046020526040902061115090866116c1565b506001600160a01b038616600090815260046020526040902061117390866116cd565b5060008581526003602052604090819020805473ffffffffffffffffffffffffffffffffffffffff19166001600160a01b0389811691821790925591518792918a16907fb333c813a7426a7a11e2b190cad52c44119421594b47f6f32ace6d8c7207b2bf906111e79086908a908a9061258b565b60405180910390a460008787878660405160200161120894939291906125be565b604051602081830303815290604052905061122388826116d9565b61122e878683611784565b5050505050505050565b6000610463825490565b6000546001600160a01b03828116620100009092041614610c3057600080546001600160a01b03838116620100008181027fffffffffffffffffffff0000000000000000000000000000000000000000ffff851617855560405193049190911692909183917f8be0079c531659141344cd1fd0a4f28419497f9722a3daafe3b4186f6b6457e091a35050565b6001600160a01b0384166112f5576040516324ecef4d60e01b815260040160405180910390fd5b6000838152600360205260409020546001600160a01b031615611347576040517f34c7b51100000000000000000000000000000000000000000000000000000000815260048101849052602401610511565b3360016002600082825461135b9190612621565b90915550506001600160a01b038516600090815260046020526040902061138290856116cd565b50600084815260036020526040808220805473ffffffffffffffffffffffffffffffffffffffff19166001600160a01b03891690811790915590518692907fb333c813a7426a7a11e2b190cad52c44119421594b47f6f32ace6d8c7207b2bf906113f19086908990899061258b565b60405180910390a460008086868560405160200161141294939291906125be565b6040516020818303038152906040529050610895868583611784565b6000610758836001600160a01b0384166118be565b600054610100900460ff166114ae5760405162461bcd60e51b815260206004820152602b60248201527f496e697469616c697a61626c653a20636f6e7472616374206973206e6f74206960448201526a6e697469616c697a696e6760a81b6064820152608401610511565b61064683838361190d565b6000610758836001600160a01b038416611a37565b6060816114dc81601f612621565b101561152a5760405162461bcd60e51b815260206004820152600e60248201527f736c6963655f6f766572666c6f770000000000000000000000000000000000006044820152606401610511565b6115348284612621565b845110156115845760405162461bcd60e51b815260206004820152601160248201527f736c6963655f6f75744f66426f756e64730000000000000000000000000000006044820152606401610511565b6060821580156115a357604051915060008252602082016040526115ed565b6040519150601f8416801560200281840101858101878315602002848b0101015b818310156115dc5780518352602092830192016115c4565b5050858452601f01601f1916604052505b50949350505050565b6001600160a01b03811660009081526001830160205260408120541515610758565b60608160000180548060200260200160405190810160405280929190818152602001828054801561104c57602002820191906000526020600020905b8154815260200190600101908083116116545750505050509050919050565b60008181526005602052604081209061168b82611238565b905060005b818110156116ba5760006116a48482611b2a565b90506116b1818787610cf7565b50600101611690565b5050505050565b60006107588383611a37565b600061075883836118be565b6116ea82631aed5a8560e21b611b36565b15610a1657604051631aed5a8560e21b81526001600160a01b03831690636bb56a149061173d907fb23eae7e6d1564b295b4c3e3be402d9a2f0776c57bdf365903496f6fa481ab00908590600401612639565b6000604051808303816000875af115801561175c573d6000803e3d6000fd5b505050506040513d6000823e601f3d908101601f191682016040526106469190810190612652565b61179583631aed5a8560e21b611b36565b1561182f57604051631aed5a8560e21b81526001600160a01b03841690636bb56a14906117e8907f0b084a55ebf70fd3c06fd755269dac2212c4d3f0f4d09079780bfa50c1b2984d908590600401612639565b6000604051808303816000875af1158015611807573d6000803e3d6000fd5b505050506040513d6000823e601f3d908101601f1916820160405261058e9190810190612652565b81610646576001600160a01b0383163b15611881576040517f4349776d0000000000000000000000000000000000000000000000000000000081526001600160a01b0384166004820152602401610511565b6040517f031731370000000000000000000000000000000000000000000000000000000081526001600160a01b0384166004820152602401610511565b600081815260018301602052604081205461190557508154600181810184556000848152602080822090930184905584548482528286019093526040902091909155610463565b506000610463565b600054610100900460ff166119785760405162461bcd60e51b815260206004820152602b60248201527f496e697469616c697a61626c653a20636f6e7472616374206973206e6f74206960448201526a6e697469616c697a696e6760a81b6064820152608401610511565b61198181611bd4565b6119e37feafec4d89fa9619884b60000a4d96624a38f7ac2d8d9a604ecf07c12c77e480c60001b6040518060400160405280600481526020017fa4d9662400000000000000000000000000000000000000000000000000000000815250611c3f565b611a0d7fdeba1e292f8ba88238e10ab3c7f88bd4be4fac56cad5194b6ecceaf653468af184611c3f565b6106467f2f0a68ab07768e01943a599e73362a0e17a63a72e94dd2e384d2c1d4db93275683611c3f565b60008181526001830160205260408120548015611b20576000611a5b6001836126c0565b8554909150600090611a6f906001906126c0565b9050818114611ad4576000866000018281548110611a8f57611a8f61243b565b9060005260206000200154905080876000018481548110611ab257611ab261243b565b6000918252602080832090910192909255918252600188019052604090208390555b8554869080611ae557611ae56126d7565b600190038181906000526020600020016000905590558560010160008681526020019081526020016000206000905560019350505050610463565b6000915050610463565b60006107588383611c88565b604080516001600160e01b03198316602480830191909152825180830390910181526044909101909152602080820180517bffffffffffffffffffffffffffffffffffffffffffffffffffffffff166301ffc9a760e01b178152825160009392849283928392918391908a617530fa92503d91506000519050828015611bbd575060208210155b8015611bc95750600081115b979650505050505050565b600054610100900460ff16610bab5760405162461bcd60e51b815260206004820152602b60248201527f496e697469616c697a61626c653a20636f6e7472616374206973206e6f74206960448201526a6e697469616c697a696e6760a81b6064820152608401610511565b6000828152600160205260409020611c5782826124cb565b50817fece574603820d07bc9b91f2a932baadf4628aabcb8afba49776529c14a6104b282604051610f1c91906121a7565b6000826000018281548110611c9f57611c9f61243b565b9060005260206000200154905092915050565b600060208284031215611cc457600080fd5b81356001600160e01b03198116811461075857600080fd5b634e487b7160e01b600052604160045260246000fd5b604051601f8201601f1916810167ffffffffffffffff81118282101715611d1b57611d1b611cdc565b604052919050565b600067ffffffffffffffff821115611d3d57611d3d611cdc565b50601f01601f191660200190565b600082601f830112611d5c57600080fd5b8135611d6f611d6a82611d23565b611cf2565b818152846020838601011115611d8457600080fd5b816020850160208301376000918101602001919091529392505050565b80356001600160a01b0381168114611db857600080fd5b919050565b600080600060608486031215611dd257600080fd5b833567ffffffffffffffff80821115611dea57600080fd5b611df687838801611d4b565b94506020860135915080821115611e0c57600080fd5b50611e1986828701611d4b565b925050611e2860408501611da1565b90509250925092565b60008060408385031215611e4457600080fd5b611e4d83611da1565b946020939093013593505050565b600067ffffffffffffffff821115611e7557611e75611cdc565b5060051b60200190565b600082601f830112611e9057600080fd5b81356020611ea0611d6a83611e5b565b82815260059290921b84018101918181019086841115611ebf57600080fd5b8286015b84811015611eda5780358352918301918301611ec3565b509695505050505050565b600082601f830112611ef657600080fd5b81356020611f06611d6a83611e5b565b82815260059290921b84018101918181019086841115611f2557600080fd5b8286015b84811015611eda57803567ffffffffffffffff811115611f495760008081fd5b611f578986838b0101611d4b565b845250918301918301611f29565b60008060408385031215611f7857600080fd5b823567ffffffffffffffff80821115611f9057600080fd5b611f9c86838701611e7f565b93506020850135915080821115611fb257600080fd5b50611fbf85828601611ee5565b9150509250929050565b600060208284031215611fdb57600080fd5b5035919050565b6020808252825182820181905260009190848201906040850190845b818110156120235783516001600160a01b031683529284019291840191600101611ffe565b50909695505050505050565b60006020828403121561204157600080fd5b813567ffffffffffffffff81111561205857600080fd5b610fa184828501611e7f565b60005b8381101561207f578181015183820152602001612067565b8381111561058e5750506000910152565b600081518084526120a8816020860160208601612064565b601f01601f19169290920160200192915050565b6000602080830181845280855180835260408601915060408160051b870101925083870160005b8281101561211157603f198886030184526120ff858351612090565b945092850192908501906001016120e3565b5092979650505050505050565b80358015158114611db857600080fd5b600080600080600060a0868803121561214657600080fd5b61214f86611da1565b945061215d60208701611da1565b9350604086013592506121726060870161211e565b9150608086013567ffffffffffffffff81111561218e57600080fd5b61219a88828901611d4b565b9150509295509295909350565b6020815260006107586020830184612090565b6000602082840312156121cc57600080fd5b61075882611da1565b600082601f8301126121e657600080fd5b813560206121f6611d6a83611e5b565b82815260059290921b8401810191818101908684111561221557600080fd5b8286015b84811015611eda5761222a81611da1565b8352918301918301612219565b600082601f83011261224857600080fd5b81356020612258611d6a83611e5b565b82815260059290921b8401810191818101908684111561227757600080fd5b8286015b84811015611eda5761228c8161211e565b835291830191830161227b565b600080600080600060a086880312156122b157600080fd5b853567ffffffffffffffff808211156122c957600080fd5b6122d589838a016121d5565b965060208801359150808211156122eb57600080fd5b6122f789838a016121d5565b9550604088013591508082111561230d57600080fd5b61231989838a01611e7f565b9450606088013591508082111561232f57600080fd5b61233b89838a01612237565b9350608088013591508082111561235157600080fd5b5061219a88828901611ee5565b6000806040838503121561237157600080fd5b82359150602083013567ffffffffffffffff81111561238f57600080fd5b611fbf85828601611d4b565b6020808252825182820181905260009190848201906040850190845b81811015612023578351835292840192918401916001016123b7565b600080600080608085870312156123e957600080fd5b6123f285611da1565b9350602085013592506124076040860161211e565b9150606085013567ffffffffffffffff81111561242357600080fd5b61242f87828801611d4b565b91505092959194509250565b634e487b7160e01b600052603260045260246000fd5b600181811c9082168061246557607f821691505b60208210810361082f57634e487b7160e01b600052602260045260246000fd5b601f82111561064657600081815260208120601f850160051c810160208610156124ac5750805b601f850160051c820191505b81811015610895578281556001016124b8565b815167ffffffffffffffff8111156124e5576124e5611cdc565b6124f9816124f38454612451565b84612485565b602080601f83116001811461252e57600084156125165750858301515b600019600386901b1c1916600185901b178555610895565b600085815260208120601f198616915b8281101561255d5788860151825594840194600190910190840161253e565b508582101561257b5787850151600019600388901b60f8161c191681555b5050505050600190811b01905550565b6001600160a01b038416815282151560208201526060604082015260006125b56060830184612090565b95945050505050565b60006bffffffffffffffffffffffff19808760601b168352808660601b1660148401525083602883015282516125fb816048850160208701612064565b9190910160480195945050505050565b634e487b7160e01b600052601160045260246000fd5b600082198211156126345761263461260b565b500190565b828152604060208201526000610fa16040830184612090565b60006020828403121561266457600080fd5b815167ffffffffffffffff81111561267b57600080fd5b8201601f8101841361268c57600080fd5b805161269a611d6a82611d23565b8181528560208385010111156126af57600080fd5b6125b5826020830160208601612064565b6000828210156126d2576126d261260b565b500390565b634e487b7160e01b600052603160045260246000fdfea2646970667358221220abfd6f09822d3b7902e8261b2707d281dd9f4bf1f302f7f319de996f118bdd5e64736f6c634300080f0033",
  "linkReferences": {},
  "deployedLinkReferences": {}
}