{
  "_format": "hh-sol-artifact-1",
  "contractName": "LSP8CompatibleERC721Mintable",
  "sourceName": "contracts/LSP8IdentifiableDigitalAsset/presets/LSP8CompatibleERC721Mintable.sol",
  "abi": [
    {
      "inputs": [
        {
          "internalType": "string",
          "name": "name_",
          "type": "string"
        },
        {
          "internalType": "string",
          "name": "symbol_",
          "type": "string"
        },
        {
          "internalType": "address",
          "name": "newOwner_",
          "type": "address"
        }
      ],
      "stateMutability": "nonpayable",
      "type": "constructor"
    },
    {
      "inputs": [
        {
          "internalType": "uint256",
          "name": "dataKeysLength",
          "type": "uint256"
        },
        {
          "internalType": "uint256",
          "name": "dataValuesLength",
          "type": "uint256"
        }
      ],
      "name": "ERC725Y_DataKeysValuesLengthMismatch",
      "type": "error"
    },
    {
      "inputs": [],
      "name": "ERC725Y_MsgValueDisallowed",
      "type": "error"
    },
    {
      "inputs": [],
      "name": "LSP4TokenNameNotEditable",
      "type": "error"
    },
    {
      "inputs": [],
      "name": "LSP4TokenSymbolNotEditable",
      "type": "error"
    },
    {
      "inputs": [],
      "name": "LSP8CannotSendToAddressZero",
      "type": "error"
    },
    {
      "inputs": [],
      "name": "LSP8CannotSendToSelf",
      "type": "error"
    },
    {
      "inputs": [],
      "name": "LSP8CannotUseAddressZeroAsOperator",
      "type": "error"
    },
    {
      "inputs": [],
      "name": "LSP8InvalidTransferBatch",
      "type": "error"
    },
    {
      "inputs": [
        {
          "internalType": "bytes32",
          "name": "tokenId",
          "type": "bytes32"
        }
      ],
      "name": "LSP8NonExistentTokenId",
      "type": "error"
    },
    {
      "inputs": [
        {
          "internalType": "address",
          "name": "operator",
          "type": "address"
        },
        {
          "internalType": "bytes32",
          "name": "tokenId",
          "type": "bytes32"
        }
      ],
      "name": "LSP8NonExistingOperator",
      "type": "error"
    },
    {
      "inputs": [
        {
          "internalType": "bytes32",
          "name": "tokenId",
          "type": "bytes32"
        },
        {
          "internalType": "address",
          "name": "caller",
          "type": "address"
        }
      ],
      "name": "LSP8NotTokenOperator",
      "type": "error"
    },
    {
      "inputs": [
        {
          "internalType": "address",
          "name": "tokenOwner",
          "type": "address"
        },
        {
          "internalType": "bytes32",
          "name": "tokenId",
          "type": "bytes32"
        },
        {
          "internalType": "address",
          "name": "caller",
          "type": "address"
        }
      ],
      "name": "LSP8NotTokenOwner",
      "type": "error"
    },
    {
      "inputs": [
        {
          "internalType": "address",
          "name": "tokenReceiver",
          "type": "address"
        }
      ],
      "name": "LSP8NotifyTokenReceiverContractMissingLSP1Interface",
      "type": "error"
    },
    {
      "inputs": [
        {
          "internalType": "address",
          "name": "tokenReceiver",
          "type": "address"
        }
      ],
      "name": "LSP8NotifyTokenReceiverIsEOA",
      "type": "error"
    },
    {
      "inputs": [
        {
          "internalType": "address",
          "name": "operator",
          "type": "address"
        },
        {
          "internalType": "bytes32",
          "name": "tokenId",
          "type": "bytes32"
        }
      ],
      "name": "LSP8OperatorAlreadyAuthorized",
      "type": "error"
    },
    {
      "inputs": [
        {
          "internalType": "bytes32",
          "name": "tokenId",
          "type": "bytes32"
        }
      ],
      "name": "LSP8TokenIdAlreadyMinted",
      "type": "error"
    },
    {
      "inputs": [],
      "name": "LSP8TokenOwnerCannotBeOperator",
      "type": "error"
    },
    {
      "anonymous": false,
      "inputs": [
        {
          "indexed": true,
          "internalType": "address",
          "name": "owner",
          "type": "address"
        },
        {
          "indexed": true,
          "internalType": "address",
          "name": "approved",
          "type": "address"
        },
        {
          "indexed": true,
          "internalType": "uint256",
          "name": "tokenId",
          "type": "uint256"
        }
      ],
      "name": "Approval",
      "type": "event"
    },
    {
      "anonymous": false,
      "inputs": [
        {
          "indexed": true,
          "internalType": "address",
          "name": "_owner",
          "type": "address"
        },
        {
          "indexed": true,
          "internalType": "address",
          "name": "_operator",
          "type": "address"
        },
        {
          "indexed": false,
          "internalType": "bool",
          "name": "_approved",
          "type": "bool"
        }
      ],
      "name": "ApprovalForAll",
      "type": "event"
    },
    {
      "anonymous": false,
      "inputs": [
        {
          "indexed": true,
          "internalType": "address",
          "name": "operator",
          "type": "address"
        },
        {
          "indexed": true,
          "internalType": "address",
          "name": "tokenOwner",
          "type": "address"
        },
        {
          "indexed": true,
          "internalType": "bytes32",
          "name": "tokenId",
          "type": "bytes32"
        }
      ],
      "name": "AuthorizedOperator",
      "type": "event"
    },
    {
      "anonymous": false,
      "inputs": [
        {
          "indexed": true,
          "internalType": "bytes32",
          "name": "dataKey",
          "type": "bytes32"
        },
        {
          "indexed": false,
          "internalType": "bytes",
          "name": "dataValue",
          "type": "bytes"
        }
      ],
      "name": "DataChanged",
      "type": "event"
    },
    {
      "anonymous": false,
      "inputs": [
        {
          "indexed": true,
          "internalType": "address",
          "name": "previousOwner",
          "type": "address"
        },
        {
          "indexed": true,
          "internalType": "address",
          "name": "newOwner",
          "type": "address"
        }
      ],
      "name": "OwnershipTransferred",
      "type": "event"
    },
    {
      "anonymous": false,
      "inputs": [
        {
          "indexed": true,
          "internalType": "address",
          "name": "operator",
          "type": "address"
        },
        {
          "indexed": true,
          "internalType": "address",
          "name": "tokenOwner",
          "type": "address"
        },
        {
          "indexed": true,
          "internalType": "bytes32",
          "name": "tokenId",
          "type": "bytes32"
        }
      ],
      "name": "RevokedOperator",
      "type": "event"
    },
    {
      "anonymous": false,
      "inputs": [
        {
          "indexed": true,
          "internalType": "address",
          "name": "from",
          "type": "address"
        },
        {
          "indexed": true,
          "internalType": "address",
          "name": "to",
          "type": "address"
        },
        {
          "indexed": true,
          "internalType": "uint256",
          "name": "tokenId",
          "type": "uint256"
        }
      ],
      "name": "Transfer",
      "type": "event"
    },
    {
      "anonymous": false,
      "inputs": [
        {
          "indexed": false,
          "internalType": "address",
          "name": "operator",
          "type": "address"
        },
        {
          "indexed": true,
          "internalType": "address",
          "name": "from",
          "type": "address"
        },
        {
          "indexed": true,
          "internalType": "address",
          "name": "to",
          "type": "address"
        },
        {
          "indexed": true,
          "internalType": "bytes32",
          "name": "tokenId",
          "type": "bytes32"
        },
        {
          "indexed": false,
          "internalType": "bool",
          "name": "allowNonLSP1Recipient",
          "type": "bool"
        },
        {
          "indexed": false,
          "internalType": "bytes",
          "name": "data",
          "type": "bytes"
        }
      ],
      "name": "Transfer",
      "type": "event"
    },
    {
      "inputs": [
        {
          "internalType": "address",
          "name": "operator",
          "type": "address"
        },
        {
          "internalType": "uint256",
          "name": "tokenId",
          "type": "uint256"
        }
      ],
      "name": "approve",
      "outputs": [],
      "stateMutability": "nonpayable",
      "type": "function"
    },
    {
      "inputs": [
        {
          "internalType": "address",
          "name": "operator",
          "type": "address"
        },
        {
          "internalType": "bytes32",
          "name": "tokenId",
          "type": "bytes32"
        }
      ],
      "name": "authorizeOperator",
      "outputs": [],
      "stateMutability": "nonpayable",
      "type": "function"
    },
    {
      "inputs": [
        {
          "internalType": "address",
          "name": "tokenOwner",
          "type": "address"
        }
      ],
      "name": "balanceOf",
      "outputs": [
        {
          "internalType": "uint256",
          "name": "",
          "type": "uint256"
        }
      ],
      "stateMutability": "view",
      "type": "function"
    },
    {
      "inputs": [
        {
          "internalType": "uint256",
          "name": "tokenId",
          "type": "uint256"
        }
      ],
      "name": "getApproved",
      "outputs": [
        {
          "internalType": "address",
          "name": "",
          "type": "address"
        }
      ],
      "stateMutability": "view",
      "type": "function"
    },
    {
      "inputs": [
        {
          "internalType": "bytes32[]",
          "name": "dataKeys",
          "type": "bytes32[]"
        }
      ],
      "name": "getData",
      "outputs": [
        {
          "internalType": "bytes[]",
          "name": "dataValues",
          "type": "bytes[]"
        }
      ],
      "stateMutability": "view",
      "type": "function"
    },
    {
      "inputs": [
        {
          "internalType": "bytes32",
          "name": "dataKey",
          "type": "bytes32"
        }
      ],
      "name": "getData",
      "outputs": [
        {
          "internalType": "bytes",
          "name": "dataValue",
          "type": "bytes"
        }
      ],
      "stateMutability": "view",
      "type": "function"
    },
    {
      "inputs": [
        {
          "internalType": "bytes32",
          "name": "tokenId",
          "type": "bytes32"
        }
      ],
      "name": "getOperatorsOf",
      "outputs": [
        {
          "internalType": "address[]",
          "name": "",
          "type": "address[]"
        }
      ],
      "stateMutability": "view",
      "type": "function"
    },
    {
      "inputs": [
        {
          "internalType": "address",
          "name": "tokenOwner",
          "type": "address"
        },
        {
          "internalType": "address",
          "name": "operator",
          "type": "address"
        }
      ],
      "name": "isApprovedForAll",
      "outputs": [
        {
          "internalType": "bool",
          "name": "",
          "type": "bool"
        }
      ],
      "stateMutability": "view",
      "type": "function"
    },
    {
      "inputs": [
        {
          "internalType": "address",
          "name": "operator",
          "type": "address"
        },
        {
          "internalType": "bytes32",
          "name": "tokenId",
          "type": "bytes32"
        }
      ],
      "name": "isOperatorFor",
      "outputs": [
        {
          "internalType": "bool",
          "name": "",
          "type": "bool"
        }
      ],
      "stateMutability": "view",
      "type": "function"
    },
    {
      "inputs": [
        {
          "internalType": "address",
          "name": "to",
          "type": "address"
        },
        {
          "internalType": "bytes32",
          "name": "tokenId",
          "type": "bytes32"
        },
        {
          "internalType": "bool",
          "name": "allowNonLSP1Recipient",
          "type": "bool"
        },
        {
          "internalType": "bytes",
          "name": "data",
          "type": "bytes"
        }
      ],
      "name": "mint",
      "outputs": [],
      "stateMutability": "nonpayable",
      "type": "function"
    },
    {
      "inputs": [],
      "name": "name",
      "outputs": [
        {
          "internalType": "string",
          "name": "",
          "type": "string"
        }
      ],
      "stateMutability": "view",
      "type": "function"
    },
    {
      "inputs": [],
      "name": "owner",
      "outputs": [
        {
          "internalType": "address",
          "name": "",
          "type": "address"
        }
      ],
      "stateMutability": "view",
      "type": "function"
    },
    {
      "inputs": [
        {
          "internalType": "uint256",
          "name": "tokenId",
          "type": "uint256"
        }
      ],
      "name": "ownerOf",
      "outputs": [
        {
          "internalType": "address",
          "name": "",
          "type": "address"
        }
      ],
      "stateMutability": "view",
      "type": "function"
    },
    {
      "inputs": [],
      "name": "renounceOwnership",
      "outputs": [],
      "stateMutability": "nonpayable",
      "type": "function"
    },
    {
      "inputs": [
        {
          "internalType": "address",
          "name": "operator",
          "type": "address"
        },
        {
          "internalType": "bytes32",
          "name": "tokenId",
          "type": "bytes32"
        }
      ],
      "name": "revokeOperator",
      "outputs": [],
      "stateMutability": "nonpayable",
      "type": "function"
    },
    {
      "inputs": [
        {
          "internalType": "address",
          "name": "from",
          "type": "address"
        },
        {
          "internalType": "address",
          "name": "to",
          "type": "address"
        },
        {
          "internalType": "uint256",
          "name": "tokenId",
          "type": "uint256"
        }
      ],
      "name": "safeTransferFrom",
      "outputs": [],
      "stateMutability": "nonpayable",
      "type": "function"
    },
    {
      "inputs": [
        {
          "internalType": "address",
          "name": "from",
          "type": "address"
        },
        {
          "internalType": "address",
          "name": "to",
          "type": "address"
        },
        {
          "internalType": "uint256",
          "name": "tokenId",
          "type": "uint256"
        },
        {
          "internalType": "bytes",
          "name": "data",
          "type": "bytes"
        }
      ],
      "name": "safeTransferFrom",
      "outputs": [],
      "stateMutability": "nonpayable",
      "type": "function"
    },
    {
      "inputs": [
        {
          "internalType": "address",
          "name": "operator",
          "type": "address"
        },
        {
          "internalType": "bool",
          "name": "approved",
          "type": "bool"
        }
      ],
      "name": "setApprovalForAll",
      "outputs": [],
      "stateMutability": "nonpayable",
      "type": "function"
    },
    {
      "inputs": [
        {
          "internalType": "bytes32[]",
          "name": "dataKeys",
          "type": "bytes32[]"
        },
        {
          "internalType": "bytes[]",
          "name": "dataValues",
          "type": "bytes[]"
        }
      ],
      "name": "setData",
      "outputs": [],
      "stateMutability": "payable",
      "type": "function"
    },
    {
      "inputs": [
        {
          "internalType": "bytes32",
          "name": "dataKey",
          "type": "bytes32"
        },
        {
          "internalType": "bytes",
          "name": "dataValue",
          "type": "bytes"
        }
      ],
      "name": "setData",
      "outputs": [],
      "stateMutability": "payable",
      "type": "function"
    },
    {
      "inputs": [
        {
          "internalType": "bytes4",
          "name": "interfaceId",
          "type": "bytes4"
        }
      ],
      "name": "supportsInterface",
      "outputs": [
        {
          "internalType": "bool",
          "name": "",
          "type": "bool"
        }
      ],
      "stateMutability": "view",
      "type": "function"
    },
    {
      "inputs": [],
      "name": "symbol",
      "outputs": [
        {
          "internalType": "string",
          "name": "",
          "type": "string"
        }
      ],
      "stateMutability": "view",
      "type": "function"
    },
    {
      "inputs": [
        {
          "internalType": "address",
          "name": "tokenOwner",
          "type": "address"
        }
      ],
      "name": "tokenIdsOf",
      "outputs": [
        {
          "internalType": "bytes32[]",
          "name": "",
          "type": "bytes32[]"
        }
      ],
      "stateMutability": "view",
      "type": "function"
    },
    {
      "inputs": [
        {
          "internalType": "bytes32",
          "name": "tokenId",
          "type": "bytes32"
        }
      ],
      "name": "tokenOwnerOf",
      "outputs": [
        {
          "internalType": "address",
          "name": "",
          "type": "address"
        }
      ],
      "stateMutability": "view",
      "type": "function"
    },
    {
      "inputs": [
        {
          "internalType": "uint256",
          "name": "",
          "type": "uint256"
        }
      ],
      "name": "tokenURI",
      "outputs": [
        {
          "internalType": "string",
          "name": "",
          "type": "string"
        }
      ],
      "stateMutability": "view",
      "type": "function"
    },
    {
      "inputs": [],
      "name": "totalSupply",
      "outputs": [
        {
          "internalType": "uint256",
          "name": "",
          "type": "uint256"
        }
      ],
      "stateMutability": "view",
      "type": "function"
    },
    {
      "inputs": [
        {
          "internalType": "address",
          "name": "from",
          "type": "address"
        },
        {
          "internalType": "address",
          "name": "to",
          "type": "address"
        },
        {
          "internalType": "bytes32",
          "name": "tokenId",
          "type": "bytes32"
        },
        {
          "internalType": "bool",
          "name": "allowNonLSP1Recipient",
          "type": "bool"
        },
        {
          "internalType": "bytes",
          "name": "data",
          "type": "bytes"
        }
      ],
      "name": "transfer",
      "outputs": [],
      "stateMutability": "nonpayable",
      "type": "function"
    },
    {
      "inputs": [
        {
          "internalType": "address[]",
          "name": "from",
          "type": "address[]"
        },
        {
          "internalType": "address[]",
          "name": "to",
          "type": "address[]"
        },
        {
          "internalType": "bytes32[]",
          "name": "tokenId",
          "type": "bytes32[]"
        },
        {
          "internalType": "bool[]",
          "name": "allowNonLSP1Recipient",
          "type": "bool[]"
        },
        {
          "internalType": "bytes[]",
          "name": "data",
          "type": "bytes[]"
        }
      ],
      "name": "transferBatch",
      "outputs": [],
      "stateMutability": "nonpayable",
      "type": "function"
    },
    {
      "inputs": [
        {
          "internalType": "address",
          "name": "from",
          "type": "address"
        },
        {
          "internalType": "address",
          "name": "to",
          "type": "address"
        },
        {
          "internalType": "uint256",
          "name": "tokenId",
          "type": "uint256"
        }
      ],
      "name": "transferFrom",
      "outputs": [],
      "stateMutability": "nonpayable",
      "type": "function"
    },
    {
      "inputs": [
        {
          "internalType": "address",
          "name": "newOwner",
          "type": "address"
        }
      ],
      "name": "transferOwnership",
      "outputs": [],
      "stateMutability": "nonpayable",
      "type": "function"
    }
  ],
  "bytecode": "0x60806040523480156200001157600080fd5b506040516200315438038062003154833981016040819052620000349162000335565b828282828282828282806001600160a01b038116620000a85760405162461bcd60e51b815260206004820152602660248201527f4f776e61626c653a206e6577206f776e657220697320746865207a65726f206160448201526564647265737360d01b606482015260840160405180910390fd5b620000be816200019b60201b62000d551760201c565b50620001157feafec4d89fa9619884b60000a4d96624a38f7ac2d8d9a604ecf07c12c77e480c60001b604051806040016040528060048152602001632936598960e21b8152506200020260201b62000dc71760201c565b6200014f7fdeba1e292f8ba88238e10ab3c7f88bd4be4fac56cad5194b6ecceaf653468af160001b846200020260201b62000dc71760201c565b620001897f2f0a68ab07768e01943a599e73362a0e17a63a72e94dd2e384d2c1d4db93275660001b836200020260201b62000dc71760201c565b50505050505050505050505062000552565b6000546001600160a01b03828116911614620001ff57600080546001600160a01b038381166001600160a01b0319831681178455604051919092169283917f8be0079c531659141344cd1fd0a4f28419497f9722a3daafe3b4186f6b6457e09190a3505b50565b60008281526001602052604090206200021c828262000451565b50817fece574603820d07bc9b91f2a932baadf4628aabcb8afba49776529c14a6104b2826040516200024f91906200051d565b60405180910390a25050565b634e487b7160e01b600052604160045260246000fd5b60005b838110156200028e57818101518382015260200162000274565b838111156200029e576000848401525b50505050565b600082601f830112620002b657600080fd5b81516001600160401b0380821115620002d357620002d36200025b565b604051601f8301601f19908116603f01168101908282118183101715620002fe57620002fe6200025b565b816040528381528660208588010111156200031857600080fd5b6200032b84602083016020890162000271565b9695505050505050565b6000806000606084860312156200034b57600080fd5b83516001600160401b03808211156200036357600080fd5b6200037187838801620002a4565b945060208601519150808211156200038857600080fd5b506200039786828701620002a4565b604086015190935090506001600160a01b0381168114620003b757600080fd5b809150509250925092565b600181811c90821680620003d757607f821691505b602082108103620003f857634e487b7160e01b600052602260045260246000fd5b50919050565b601f8211156200044c57600081815260208120601f850160051c81016020861015620004275750805b601f850160051c820191505b81811015620004485782815560010162000433565b5050505b505050565b81516001600160401b038111156200046d576200046d6200025b565b62000485816200047e8454620003c2565b84620003fe565b602080601f831160018114620004bd5760008415620004a45750858301515b600019600386901b1c1916600185901b17855562000448565b600085815260208120601f198616915b82811015620004ee57888601518255948401946001909101908401620004cd565b50858210156200050d5787850151600019600388901b60f8161c191681555b5050505050600190811b01905550565b60208152600082518060208401526200053e81604085016020870162000271565b601f01601f19169190910160400192915050565b612bf280620005626000396000f3fe6080604052600436106101cd5760003560e01c80636352211e116100f7578063a22cb46511610095578063c87b56dd11610064578063c87b56dd14610537578063cf5182ba14610557578063e985e9c514610577578063f2fde38b146105c057600080fd5b8063a22cb465146104aa578063a3b261f2146104ca578063af255b61146104f7578063b88d4fde1461051757600080fd5b80637e87632c116100d15780637e87632c146104445780637f23690c146104645780638da5cb5b1461047757806395d89b411461049557600080fd5b80636352211e146103ef57806370a082311461040f578063715018a61461042f57600080fd5b8063217b22701161016f57806349a6078d1161013e57806349a6078d146103555780634e3e6e9c14610382578063511b6952146103af57806354f6127f146103cf57600080fd5b8063217b2270146102d557806323b872dd146102f55780632a3654a41461031557806342842e0e1461033557600080fd5b8063095ea7b3116101ab578063095ea7b3146102615780630b0c6d821461028357806314a6e293146102a357806318160ddd146102b657600080fd5b806301ffc9a7146101d257806306fdde0314610207578063081812fc14610229575b600080fd5b3480156101de57600080fd5b506101f26101ed3660046120c9565b6105e0565b60405190151581526020015b60405180910390f35b34801561021357600080fd5b5061021c610658565b6040516101fe919061213e565b34801561023557600080fd5b50610249610244366004612151565b610685565b6040516001600160a01b0390911681526020016101fe565b34801561026d57600080fd5b5061028161027c366004612186565b6106dc565b005b34801561028f57600080fd5b5061028161029e366004612186565b610733565b6102816102b136600461237f565b6107ef565b3480156102c257600080fd5b506002545b6040519081526020016101fe565b3480156102e157600080fd5b506102496102f0366004612151565b6108ae565b34801561030157600080fd5b506102816103103660046123e3565b6108e7565b34801561032157600080fd5b506101f2610330366004612186565b610907565b34801561034157600080fd5b506102816103503660046123e3565b610923565b34801561036157600080fd5b50610375610370366004612151565b61093e565b6040516101fe919061241f565b34801561038e57600080fd5b506103a261039d36600461246c565b610960565b6040516101fe91906124a1565b3480156103bb57600080fd5b506102816103ca366004612513565b610a14565b3480156103db57600080fd5b5061021c6103ea366004612151565b610a63565b3480156103fb57600080fd5b5061024961040a366004612151565b610a6e565b34801561041b57600080fd5b506102c761042a36600461258c565b610a79565b34801561043b57600080fd5b50610281610a9a565b34801561045057600080fd5b5061028161045f36600461266b565b610aae565b610281610472366004612730565b610bb6565b34801561048357600080fd5b506000546001600160a01b0316610249565b3480156104a157600080fd5b5061021c610beb565b3480156104b657600080fd5b506102816104c536600461276d565b610c18565b3480156104d657600080fd5b506104ea6104e536600461258c565b610c23565b6040516101fe91906127a0565b34801561050357600080fd5b506102816105123660046127d8565b610c47565b34801561052357600080fd5b50610281610532366004612840565b610c61565b34801561054357600080fd5b5061021c610552366004612151565b610c6d565b34801561056357600080fd5b50610281610572366004612186565b610cbb565b34801561058357600080fd5b506101f2610592366004612890565b6001600160a01b03918216600090815260076020908152604080832093909416825291909152205460ff1690565b3480156105cc57600080fd5b506102816105db36600461258c565b610cc5565b60006001600160e01b031982167f80ac58cd00000000000000000000000000000000000000000000000000000000148061064357506001600160e01b031982167f5b5e139f00000000000000000000000000000000000000000000000000000000145b80610652575061065282610e1c565b92915050565b606060006106527fdeba1e292f8ba88238e10ab3c7f88bd4be4fac56cad5194b6ecceaf653468af1610e5a565b60008161069181610efc565b6000818152600560205260408120906106a982610f34565b9050806000036106be57506000949350505050565b6106d36106cc6001836128d0565b8390610f3e565b95945050505050565b6106e68282610cbb565b806001600160a01b0383166106fa826108ae565b6001600160a01b03167f8c5be1e5ebec7d5bd14f71427d1e84f3dd0314c0f7b2291e5b200ac8c7c3b92560405160405180910390a45050565b600061073e826108ae565b90506001600160a01b038116331461078657604051632d938f5160e11b81526001600160a01b0382166004820152602481018390523360448201526064015b60405180910390fd5b6001600160a01b0383166107ad57604051639577b8b360e01b815260040160405180910390fd5b826001600160a01b0316816001600160a01b0316036107df576040516344fed6b160e11b815260040160405180910390fd5b6107ea838284610f4a565b505050565b6107f7610ff4565b34156108165760405163f36ba73760e01b815260040160405180910390fd5b805182511461085e57815181516040517f43a3c2660000000000000000000000000000000000000000000000000000000081526004810192909252602482015260440161077d565b60005b82518110156107ea576108a683828151811061087f5761087f6128e7565b6020026020010151838381518110610899576108996128e7565b602002602001015161105d565b600101610861565b6000818152600360205260408120546001600160a01b03168061065257604051635747cd1b60e11b81526004810184905260240161077d565b6107ea83838360001b600160405180602001604052806000815250611067565b600061091282610efc565b61091c838361111b565b9392505050565b6107ea83838360405180602001604052806000815250611164565b606061094982610efc565b6000828152600560205260409020610652906111f2565b6060815167ffffffffffffffff81111561097c5761097c6121b0565b6040519080825280602002602001820160405280156109af57816020015b606081526020019060019003908161099a5790505b50905060005b8251811015610a0e576109e08382815181106109d3576109d36128e7565b6020026020010151610e5a565b8282815181106109f2576109f26128e7565b6020026020010181905250610a078160010190565b90506109b5565b50919050565b33610a1f818561111b565b610a4e57604051631294d2a960e01b8152600481018590526001600160a01b038216602482015260440161077d565b610a5b8686868686611067565b505050505050565b606061065282610e5a565b6000610652826108ae565b6001600160a01b038116600090815260046020526040812061065290610f34565b610aa2610ff4565b610aac6000610d55565b565b8451845181141580610ac1575083518114155b80610acd575082518114155b80610ad9575081518114155b15610b10576040517f93a8311900000000000000000000000000000000000000000000000000000000815260040160405180910390fd5b60005b81811015610bad57610ba5878281518110610b3057610b306128e7565b6020026020010151878381518110610b4a57610b4a6128e7565b6020026020010151878481518110610b6457610b646128e7565b6020026020010151878581518110610b7e57610b7e6128e7565b6020026020010151878681518110610b9857610b986128e7565b6020026020010151610a14565b600101610b13565b50505050505050565b610bbe610ff4565b3415610bdd5760405163f36ba73760e01b815260040160405180910390fd5b610be7828261105d565b5050565b606060006106527f2f0a68ab07768e01943a599e73362a0e17a63a72e94dd2e384d2c1d4db932756610e5a565b610be73383836111ff565b6001600160a01b0381166000908152600460205260409020606090610652906111f2565b610c4f610ff4565b610c5b848484846112f3565b50505050565b610c5b84848484611164565b60606000610c9a7f9afb95cacc9f95858ec44aa8c3b685511002e30ae54415823f406128b85b238e610e5a565b905060006024905060006106d38383848651610cb691906128d0565b61133d565b6106e68282611465565b610ccd610ff4565b6001600160a01b038116610d495760405162461bcd60e51b815260206004820152602660248201527f4f776e61626c653a206e6577206f776e657220697320746865207a65726f206160448201527f6464726573730000000000000000000000000000000000000000000000000000606482015260840161077d565b610d5281610d55565b50565b6000546001600160a01b03828116911614610d5257600080546001600160a01b0383811673ffffffffffffffffffffffffffffffffffffffff19831681178455604051919092169283917f8be0079c531659141344cd1fd0a4f28419497f9722a3daafe3b4186f6b6457e09190a35050565b6000828152600160205260409020610ddf8282612977565b50817fece574603820d07bc9b91f2a932baadf4628aabcb8afba49776529c14a6104b282604051610e10919061213e565b60405180910390a25050565b60006001600160e01b031982167f622e7a010000000000000000000000000000000000000000000000000000000014806106525750610652826115b6565b6000818152600160205260409020805460609190610e77906128fd565b80601f0160208091040260200160405190810160405280929190818152602001828054610ea3906128fd565b8015610ef05780601f10610ec557610100808354040283529160200191610ef0565b820191906000526020600020905b815481529060010190602001808311610ed357829003601f168201915b50505050509050919050565b6000818152600360205260409020546001600160a01b0316610d5257604051635747cd1b60e11b81526004810182905260240161077d565b6000610652825490565b600061091c8383611604565b6000818152600560205260408120610f62908561162e565b905080610fad576040517f4aa31a8c0000000000000000000000000000000000000000000000000000000081526001600160a01b03851660048201526024810183905260440161077d565b81836001600160a01b0316856001600160a01b03167f17d5389f6ab6adb2647dfa0aa365c323d37adacc30b33a65310b6158ce1373d560405160405180910390a450505050565b336110076000546001600160a01b031690565b6001600160a01b031614610aac5760405162461bcd60e51b815260206004820181905260248201527f4f776e61626c653a2063616c6c6572206973206e6f7420746865206f776e6572604482015260640161077d565b610be78282611643565b6001600160a01b03851660009081526007602090815260408083203380855292529091205460ff161580156110a357506110a1818561111b565b155b156110d357604051631294d2a960e01b8152600481018590526001600160a01b038216602482015260440161077d565b60405184906001600160a01b0380881691908916907fddf252ad1be2c89b69c2b068fc378daa952ba7f163c4a11628f55a4df523b3ef90600090a4610a5b868686868661175d565b600080611127836108ae565b9050806001600160a01b0316846001600160a01b0316148061115c5750600083815260056020526040902061115c908561193d565b949350505050565b611172848484600185611067565b61117e8484848461195f565b610c5b576040805162461bcd60e51b81526020600482015260248101919091527f4c535038436f6d70617469626c654552433732313a207472616e73666572207460448201527f6f206e6f6e20455243373231526563656976657220696d706c656d656e746572606482015260840161077d565b6060600061091c83611ab8565b816001600160a01b0316836001600160a01b0316036112865760405162461bcd60e51b815260206004820152602760248201527f4c535038436f6d70617469626c654552433732313a20617070726f766520746f60448201527f2063616c6c657200000000000000000000000000000000000000000000000000606482015260840161077d565b6001600160a01b03838116600081815260076020908152604080832094871680845294825291829020805460ff191686151590811790915591519182527f17307eab39ab6107e8899845ad3d59bd9653f200f220920489ca2b5937696c31910160405180910390a3505050565b6112ff84848484611b13565b60405183906001600160a01b038616906000907fddf252ad1be2c89b69c2b068fc378daa952ba7f163c4a11628f55a4df523b3ef908290a450505050565b60608161134b81601f612a37565b10156113995760405162461bcd60e51b815260206004820152600e60248201527f736c6963655f6f766572666c6f77000000000000000000000000000000000000604482015260640161077d565b6113a38284612a37565b845110156113f35760405162461bcd60e51b815260206004820152601160248201527f736c6963655f6f75744f66426f756e6473000000000000000000000000000000604482015260640161077d565b606082158015611412576040519150600082526020820160405261145c565b6040519150601f8416801560200281840101858101878315602002848b0101015b8183101561144b578051835260209283019201611433565b5050858452601f01601f1916604052505b50949350505050565b6000611470826108ae565b90506001600160a01b03811633146114b357604051632d938f5160e11b81526001600160a01b03821660048201526024810183905233604482015260640161077d565b6001600160a01b0383166114da57604051639577b8b360e01b815260040160405180910390fd5b826001600160a01b0316816001600160a01b03160361150c576040516344fed6b160e11b815260040160405180910390fd5b60008281526005602052604081206115249085611c73565b90508061156f576040517fa7626b680000000000000000000000000000000000000000000000000000000081526001600160a01b03851660048201526024810184905260440161077d565b82826001600160a01b0316856001600160a01b03167f34b797fc5a526f7bf1d2b5de25f6564fd85ae364e3ee939aee7c1ac27871a98860405160405180910390a450505050565b60006001600160e01b031982167f714df77c00000000000000000000000000000000000000000000000000000000148061065257506301ffc9a760e01b6001600160e01b0319831614610652565b600082600001828154811061161b5761161b6128e7565b9060005260206000200154905092915050565b600061091c836001600160a01b038416611c88565b7f2145e1d6d074577dc71ef54c3807742b41b053a9352ae6b491331509acb9750f820161169c576040517f85c169bd00000000000000000000000000000000000000000000000000000000815260040160405180910390fd5b7fd0f59754f88971fe6bc5a6618cc9d5f1e859c58d16b22d1c7b2d3e2b246cd8aa82016116f5576040517f76755b3800000000000000000000000000000000000000000000000000000000815260040160405180910390fd5b600082815260016020526040902061170d8282612977565b50817fece574603820d07bc9b91f2a932baadf4628aabcb8afba49776529c14a6104b26101008351111561174e5761174983600061010061133d565b611750565b825b604051610e10919061213e565b836001600160a01b0316856001600160a01b0316036117a8576040517f5d67d6c100000000000000000000000000000000000000000000000000000000815260040160405180910390fd5b60006117b3846108ae565b9050856001600160a01b0316816001600160a01b03161461180157604051632d938f5160e11b81526001600160a01b038083166004830152602482018690528716604482015260640161077d565b6001600160a01b038516611828576040516324ecef4d60e01b815260040160405180910390fd5b336118338786611d7b565b6001600160a01b03871660009081526004602052604090206118559086611dc9565b506001600160a01b03861660009081526004602052604090206118789086611dd5565b5060008581526003602052604090819020805473ffffffffffffffffffffffffffffffffffffffff19166001600160a01b0389811691821790925591518792918a16907fb333c813a7426a7a11e2b190cad52c44119421594b47f6f32ace6d8c7207b2bf906118ec9086908a908a90612a4f565b60405180910390a460008787878660405160200161190d9493929190612a79565b60405160208183030381529060405290506119288882611de1565b611933878683611e8c565b5050505050505050565b6001600160a01b0381166000908152600183016020526040812054151561091c565b60006001600160a01b0384163b15611aad57604051630a85bd0160e11b81526001600160a01b0385169063150b7a02906119a3903390899088908890600401612ac6565b6020604051808303816000875af19250505080156119de575060408051601f3d908101601f191682019092526119db91810190612b02565b60015b611a93573d808015611a0c576040519150601f19603f3d011682016040523d82523d6000602084013e611a11565b606091505b508051600003611a8b576040805162461bcd60e51b81526020600482015260248101919091527f4c535038436f6d70617469626c654552433732313a207472616e73666572207460448201527f6f206e6f6e20455243373231526563656976657220696d706c656d656e746572606482015260840161077d565b805181602001fd5b6001600160e01b031916630a85bd0160e11b14905061115c565b506001949350505050565b606081600001805480602002602001604051908101604052809291908181526020018280548015610ef057602002820191906000526020600020905b815481526020019060010190808311611af45750505050509050919050565b6001600160a01b038416611b3a576040516324ecef4d60e01b815260040160405180910390fd5b6000838152600360205260409020546001600160a01b031615611b8c576040517f34c7b5110000000000000000000000000000000000000000000000000000000081526004810184905260240161077d565b33600160026000828254611ba09190612a37565b90915550506001600160a01b0385166000908152600460205260409020611bc79085611dd5565b50600084815260036020526040808220805473ffffffffffffffffffffffffffffffffffffffff19166001600160a01b03891690811790915590518692907fb333c813a7426a7a11e2b190cad52c44119421594b47f6f32ace6d8c7207b2bf90611c3690869089908990612a4f565b60405180910390a4600080868685604051602001611c579493929190612a79565b6040516020818303038152906040529050610a5b868583611e8c565b600061091c836001600160a01b038416611fc6565b60008181526001830160205260408120548015611d71576000611cac6001836128d0565b8554909150600090611cc0906001906128d0565b9050818114611d25576000866000018281548110611ce057611ce06128e7565b9060005260206000200154905080876000018481548110611d0357611d036128e7565b6000918252602080832090910192909255918252600188019052604090208390555b8554869080611d3657611d36612b1f565b600190038181906000526020600020016000905590558560010160008681526020019081526020016000206000905560019350505050610652565b6000915050610652565b600081815260056020526040812090611d9382610f34565b905060005b81811015611dc2576000611dac8482610f3e565b9050611db9818787610f4a565b50600101611d98565b5050505050565b600061091c8383611c88565b600061091c8383611fc6565b611df282631aed5a8560e21b612015565b15610be757604051631aed5a8560e21b81526001600160a01b03831690636bb56a1490611e45907fb23eae7e6d1564b295b4c3e3be402d9a2f0776c57bdf365903496f6fa481ab00908590600401612b35565b6000604051808303816000875af1158015611e64573d6000803e3d6000fd5b505050506040513d6000823e601f3d908101601f191682016040526107ea9190810190612b4e565b611e9d83631aed5a8560e21b612015565b15611f3757604051631aed5a8560e21b81526001600160a01b03841690636bb56a1490611ef0907f0b084a55ebf70fd3c06fd755269dac2212c4d3f0f4d09079780bfa50c1b2984d908590600401612b35565b6000604051808303816000875af1158015611f0f573d6000803e3d6000fd5b505050506040513d6000823e601f3d908101601f19168201604052610c5b9190810190612b4e565b816107ea576001600160a01b0383163b15611f89576040517f4349776d0000000000000000000000000000000000000000000000000000000081526001600160a01b038416600482015260240161077d565b6040517f031731370000000000000000000000000000000000000000000000000000000081526001600160a01b038416600482015260240161077d565b600081815260018301602052604081205461200d57508154600181810184556000848152602080822090930184905584548482528286019093526040902091909155610652565b506000610652565b604080516001600160e01b03198316602480830191909152825180830390910181526044909101909152602080820180517bffffffffffffffffffffffffffffffffffffffffffffffffffffffff166301ffc9a760e01b178152825160009392849283928392918391908a617530fa92503d9150600051905082801561209c575060208210155b80156120a85750600081115b979650505050505050565b6001600160e01b031981168114610d5257600080fd5b6000602082840312156120db57600080fd5b813561091c816120b3565b60005b838110156121015781810151838201526020016120e9565b83811115610c5b5750506000910152565b6000815180845261212a8160208601602086016120e6565b601f01601f19169290920160200192915050565b60208152600061091c6020830184612112565b60006020828403121561216357600080fd5b5035919050565b80356001600160a01b038116811461218157600080fd5b919050565b6000806040838503121561219957600080fd5b6121a28361216a565b946020939093013593505050565b634e487b7160e01b600052604160045260246000fd5b604051601f8201601f1916810167ffffffffffffffff811182821017156121ef576121ef6121b0565b604052919050565b600067ffffffffffffffff821115612211576122116121b0565b5060051b60200190565b600082601f83011261222c57600080fd5b8135602061224161223c836121f7565b6121c6565b82815260059290921b8401810191818101908684111561226057600080fd5b8286015b8481101561227b5780358352918301918301612264565b509695505050505050565b600067ffffffffffffffff8211156122a0576122a06121b0565b50601f01601f191660200190565b600082601f8301126122bf57600080fd5b81356122cd61223c82612286565b8181528460208386010111156122e257600080fd5b816020850160208301376000918101602001919091529392505050565b600082601f83011261231057600080fd5b8135602061232061223c836121f7565b82815260059290921b8401810191818101908684111561233f57600080fd5b8286015b8481101561227b57803567ffffffffffffffff8111156123635760008081fd5b6123718986838b01016122ae565b845250918301918301612343565b6000806040838503121561239257600080fd5b823567ffffffffffffffff808211156123aa57600080fd5b6123b68683870161221b565b935060208501359150808211156123cc57600080fd5b506123d9858286016122ff565b9150509250929050565b6000806000606084860312156123f857600080fd5b6124018461216a565b925061240f6020850161216a565b9150604084013590509250925092565b6020808252825182820181905260009190848201906040850190845b818110156124605783516001600160a01b03168352928401929184019160010161243b565b50909695505050505050565b60006020828403121561247e57600080fd5b813567ffffffffffffffff81111561249557600080fd5b61115c8482850161221b565b6000602080830181845280855180835260408601915060408160051b870101925083870160005b828110156124f657603f198886030184526124e4858351612112565b945092850192908501906001016124c8565b5092979650505050505050565b8035801515811461218157600080fd5b600080600080600060a0868803121561252b57600080fd5b6125348661216a565b94506125426020870161216a565b93506040860135925061255760608701612503565b9150608086013567ffffffffffffffff81111561257357600080fd5b61257f888289016122ae565b9150509295509295909350565b60006020828403121561259e57600080fd5b61091c8261216a565b600082601f8301126125b857600080fd5b813560206125c861223c836121f7565b82815260059290921b840181019181810190868411156125e757600080fd5b8286015b8481101561227b576125fc8161216a565b83529183019183016125eb565b600082601f83011261261a57600080fd5b8135602061262a61223c836121f7565b82815260059290921b8401810191818101908684111561264957600080fd5b8286015b8481101561227b5761265e81612503565b835291830191830161264d565b600080600080600060a0868803121561268357600080fd5b853567ffffffffffffffff8082111561269b57600080fd5b6126a789838a016125a7565b965060208801359150808211156126bd57600080fd5b6126c989838a016125a7565b955060408801359150808211156126df57600080fd5b6126eb89838a0161221b565b9450606088013591508082111561270157600080fd5b61270d89838a01612609565b9350608088013591508082111561272357600080fd5b5061257f888289016122ff565b6000806040838503121561274357600080fd5b82359150602083013567ffffffffffffffff81111561276157600080fd5b6123d9858286016122ae565b6000806040838503121561278057600080fd5b6127898361216a565b915061279760208401612503565b90509250929050565b6020808252825182820181905260009190848201906040850190845b81811015612460578351835292840192918401916001016127bc565b600080600080608085870312156127ee57600080fd5b6127f78561216a565b93506020850135925061280c60408601612503565b9150606085013567ffffffffffffffff81111561282857600080fd5b612834878288016122ae565b91505092959194509250565b6000806000806080858703121561285657600080fd5b61285f8561216a565b935061286d6020860161216a565b925060408501359150606085013567ffffffffffffffff81111561282857600080fd5b600080604083850312156128a357600080fd5b6128ac8361216a565b91506127976020840161216a565b634e487b7160e01b600052601160045260246000fd5b6000828210156128e2576128e26128ba565b500390565b634e487b7160e01b600052603260045260246000fd5b600181811c9082168061291157607f821691505b602082108103610a0e57634e487b7160e01b600052602260045260246000fd5b601f8211156107ea57600081815260208120601f850160051c810160208610156129585750805b601f850160051c820191505b81811015610a5b57828155600101612964565b815167ffffffffffffffff811115612991576129916121b0565b6129a58161299f84546128fd565b84612931565b602080601f8311600181146129da57600084156129c25750858301515b600019600386901b1c1916600185901b178555610a5b565b600085815260208120601f198616915b82811015612a09578886015182559484019460019091019084016129ea565b5085821015612a275787850151600019600388901b60f8161c191681555b5050505050600190811b01905550565b60008219821115612a4a57612a4a6128ba565b500190565b6001600160a01b038416815282151560208201526060604082015260006106d36060830184612112565b60006bffffffffffffffffffffffff19808760601b168352808660601b166014840152508360288301528251612ab68160488501602087016120e6565b9190910160480195945050505050565b60006001600160a01b03808716835280861660208401525083604083015260806060830152612af86080830184612112565b9695505050505050565b600060208284031215612b1457600080fd5b815161091c816120b3565b634e487b7160e01b600052603160045260246000fd5b82815260406020820152600061115c6040830184612112565b600060208284031215612b6057600080fd5b815167ffffffffffffffff811115612b7757600080fd5b8201601f81018413612b8857600080fd5b8051612b9661223c82612286565b818152856020838501011115612bab57600080fd5b6106d38260208301602086016120e656fea26469706673582212208c0436807a5af260c857f82ac3b34c1fef26486275b329df7a552dd6423094ea64736f6c634300080f0033",
  "linkReferences": {},
  "deployedLinkReferences": {}
}