{
  "_format": "hh-sol-artifact-1",
  "contractName": "LSP8Mintable",
  "sourceName": "contracts/LSP8IdentifiableDigitalAsset/presets/LSP8Mintable.sol",
  "abi": [
    {
      "inputs": [
        {
          "internalType": "string",
          "name": "name_",
          "type": "string"
        },
        {
          "internalType": "string",
          "name": "symbol_",
          "type": "string"
        },
        {
          "internalType": "address",
          "name": "newOwner_",
          "type": "address"
        }
      ],
      "stateMutability": "nonpayable",
      "type": "constructor"
    },
    {
      "inputs": [
        {
          "internalType": "uint256",
          "name": "dataKeysLength",
          "type": "uint256"
        },
        {
          "internalType": "uint256",
          "name": "dataValuesLength",
          "type": "uint256"
        }
      ],
      "name": "ERC725Y_DataKeysValuesLengthMismatch",
      "type": "error"
    },
    {
      "inputs": [],
      "name": "ERC725Y_MsgValueDisallowed",
      "type": "error"
    },
    {
      "inputs": [],
      "name": "LSP4TokenNameNotEditable",
      "type": "error"
    },
    {
      "inputs": [],
      "name": "LSP4TokenSymbolNotEditable",
      "type": "error"
    },
    {
      "inputs": [],
      "name": "LSP8CannotSendToAddressZero",
      "type": "error"
    },
    {
      "inputs": [],
      "name": "LSP8CannotSendToSelf",
      "type": "error"
    },
    {
      "inputs": [],
      "name": "LSP8CannotUseAddressZeroAsOperator",
      "type": "error"
    },
    {
      "inputs": [],
      "name": "LSP8InvalidTransferBatch",
      "type": "error"
    },
    {
      "inputs": [
        {
          "internalType": "bytes32",
          "name": "tokenId",
          "type": "bytes32"
        }
      ],
      "name": "LSP8NonExistentTokenId",
      "type": "error"
    },
    {
      "inputs": [
        {
          "internalType": "address",
          "name": "operator",
          "type": "address"
        },
        {
          "internalType": "bytes32",
          "name": "tokenId",
          "type": "bytes32"
        }
      ],
      "name": "LSP8NonExistingOperator",
      "type": "error"
    },
    {
      "inputs": [
        {
          "internalType": "bytes32",
          "name": "tokenId",
          "type": "bytes32"
        },
        {
          "internalType": "address",
          "name": "caller",
          "type": "address"
        }
      ],
      "name": "LSP8NotTokenOperator",
      "type": "error"
    },
    {
      "inputs": [
        {
          "internalType": "address",
          "name": "tokenOwner",
          "type": "address"
        },
        {
          "internalType": "bytes32",
          "name": "tokenId",
          "type": "bytes32"
        },
        {
          "internalType": "address",
          "name": "caller",
          "type": "address"
        }
      ],
      "name": "LSP8NotTokenOwner",
      "type": "error"
    },
    {
      "inputs": [
        {
          "internalType": "address",
          "name": "tokenReceiver",
          "type": "address"
        }
      ],
      "name": "LSP8NotifyTokenReceiverContractMissingLSP1Interface",
      "type": "error"
    },
    {
      "inputs": [
        {
          "internalType": "address",
          "name": "tokenReceiver",
          "type": "address"
        }
      ],
      "name": "LSP8NotifyTokenReceiverIsEOA",
      "type": "error"
    },
    {
      "inputs": [
        {
          "internalType": "address",
          "name": "operator",
          "type": "address"
        },
        {
          "internalType": "bytes32",
          "name": "tokenId",
          "type": "bytes32"
        }
      ],
      "name": "LSP8OperatorAlreadyAuthorized",
      "type": "error"
    },
    {
      "inputs": [
        {
          "internalType": "bytes32",
          "name": "tokenId",
          "type": "bytes32"
        }
      ],
      "name": "LSP8TokenIdAlreadyMinted",
      "type": "error"
    },
    {
      "inputs": [],
      "name": "LSP8TokenOwnerCannotBeOperator",
      "type": "error"
    },
    {
      "anonymous": false,
      "inputs": [
        {
          "indexed": true,
          "internalType": "address",
          "name": "operator",
          "type": "address"
        },
        {
          "indexed": true,
          "internalType": "address",
          "name": "tokenOwner",
          "type": "address"
        },
        {
          "indexed": true,
          "internalType": "bytes32",
          "name": "tokenId",
          "type": "bytes32"
        }
      ],
      "name": "AuthorizedOperator",
      "type": "event"
    },
    {
      "anonymous": false,
      "inputs": [
        {
          "indexed": true,
          "internalType": "bytes32",
          "name": "dataKey",
          "type": "bytes32"
        },
        {
          "indexed": false,
          "internalType": "bytes",
          "name": "dataValue",
          "type": "bytes"
        }
      ],
      "name": "DataChanged",
      "type": "event"
    },
    {
      "anonymous": false,
      "inputs": [
        {
          "indexed": true,
          "internalType": "address",
          "name": "previousOwner",
          "type": "address"
        },
        {
          "indexed": true,
          "internalType": "address",
          "name": "newOwner",
          "type": "address"
        }
      ],
      "name": "OwnershipTransferred",
      "type": "event"
    },
    {
      "anonymous": false,
      "inputs": [
        {
          "indexed": true,
          "internalType": "address",
          "name": "operator",
          "type": "address"
        },
        {
          "indexed": true,
          "internalType": "address",
          "name": "tokenOwner",
          "type": "address"
        },
        {
          "indexed": true,
          "internalType": "bytes32",
          "name": "tokenId",
          "type": "bytes32"
        }
      ],
      "name": "RevokedOperator",
      "type": "event"
    },
    {
      "anonymous": false,
      "inputs": [
        {
          "indexed": false,
          "internalType": "address",
          "name": "operator",
          "type": "address"
        },
        {
          "indexed": true,
          "internalType": "address",
          "name": "from",
          "type": "address"
        },
        {
          "indexed": true,
          "internalType": "address",
          "name": "to",
          "type": "address"
        },
        {
          "indexed": true,
          "internalType": "bytes32",
          "name": "tokenId",
          "type": "bytes32"
        },
        {
          "indexed": false,
          "internalType": "bool",
          "name": "allowNonLSP1Recipient",
          "type": "bool"
        },
        {
          "indexed": false,
          "internalType": "bytes",
          "name": "data",
          "type": "bytes"
        }
      ],
      "name": "Transfer",
      "type": "event"
    },
    {
      "inputs": [
        {
          "internalType": "address",
          "name": "operator",
          "type": "address"
        },
        {
          "internalType": "bytes32",
          "name": "tokenId",
          "type": "bytes32"
        }
      ],
      "name": "authorizeOperator",
      "outputs": [],
      "stateMutability": "nonpayable",
      "type": "function"
    },
    {
      "inputs": [
        {
          "internalType": "address",
          "name": "tokenOwner",
          "type": "address"
        }
      ],
      "name": "balanceOf",
      "outputs": [
        {
          "internalType": "uint256",
          "name": "",
          "type": "uint256"
        }
      ],
      "stateMutability": "view",
      "type": "function"
    },
    {
      "inputs": [
        {
          "internalType": "bytes32[]",
          "name": "dataKeys",
          "type": "bytes32[]"
        }
      ],
      "name": "getData",
      "outputs": [
        {
          "internalType": "bytes[]",
          "name": "dataValues",
          "type": "bytes[]"
        }
      ],
      "stateMutability": "view",
      "type": "function"
    },
    {
      "inputs": [
        {
          "internalType": "bytes32",
          "name": "dataKey",
          "type": "bytes32"
        }
      ],
      "name": "getData",
      "outputs": [
        {
          "internalType": "bytes",
          "name": "dataValue",
          "type": "bytes"
        }
      ],
      "stateMutability": "view",
      "type": "function"
    },
    {
      "inputs": [
        {
          "internalType": "bytes32",
          "name": "tokenId",
          "type": "bytes32"
        }
      ],
      "name": "getOperatorsOf",
      "outputs": [
        {
          "internalType": "address[]",
          "name": "",
          "type": "address[]"
        }
      ],
      "stateMutability": "view",
      "type": "function"
    },
    {
      "inputs": [
        {
          "internalType": "address",
          "name": "operator",
          "type": "address"
        },
        {
          "internalType": "bytes32",
          "name": "tokenId",
          "type": "bytes32"
        }
      ],
      "name": "isOperatorFor",
      "outputs": [
        {
          "internalType": "bool",
          "name": "",
          "type": "bool"
        }
      ],
      "stateMutability": "view",
      "type": "function"
    },
    {
      "inputs": [
        {
          "internalType": "address",
          "name": "to",
          "type": "address"
        },
        {
          "internalType": "bytes32",
          "name": "tokenId",
          "type": "bytes32"
        },
        {
          "internalType": "bool",
          "name": "allowNonLSP1Recipient",
          "type": "bool"
        },
        {
          "internalType": "bytes",
          "name": "data",
          "type": "bytes"
        }
      ],
      "name": "mint",
      "outputs": [],
      "stateMutability": "nonpayable",
      "type": "function"
    },
    {
      "inputs": [],
      "name": "owner",
      "outputs": [
        {
          "internalType": "address",
          "name": "",
          "type": "address"
        }
      ],
      "stateMutability": "view",
      "type": "function"
    },
    {
      "inputs": [],
      "name": "renounceOwnership",
      "outputs": [],
      "stateMutability": "nonpayable",
      "type": "function"
    },
    {
      "inputs": [
        {
          "internalType": "address",
          "name": "operator",
          "type": "address"
        },
        {
          "internalType": "bytes32",
          "name": "tokenId",
          "type": "bytes32"
        }
      ],
      "name": "revokeOperator",
      "outputs": [],
      "stateMutability": "nonpayable",
      "type": "function"
    },
    {
      "inputs": [
        {
          "internalType": "bytes32[]",
          "name": "dataKeys",
          "type": "bytes32[]"
        },
        {
          "internalType": "bytes[]",
          "name": "dataValues",
          "type": "bytes[]"
        }
      ],
      "name": "setData",
      "outputs": [],
      "stateMutability": "payable",
      "type": "function"
    },
    {
      "inputs": [
        {
          "internalType": "bytes32",
          "name": "dataKey",
          "type": "bytes32"
        },
        {
          "internalType": "bytes",
          "name": "dataValue",
          "type": "bytes"
        }
      ],
      "name": "setData",
      "outputs": [],
      "stateMutability": "payable",
      "type": "function"
    },
    {
      "inputs": [
        {
          "internalType": "bytes4",
          "name": "interfaceId",
          "type": "bytes4"
        }
      ],
      "name": "supportsInterface",
      "outputs": [
        {
          "internalType": "bool",
          "name": "",
          "type": "bool"
        }
      ],
      "stateMutability": "view",
      "type": "function"
    },
    {
      "inputs": [
        {
          "internalType": "address",
          "name": "tokenOwner",
          "type": "address"
        }
      ],
      "name": "tokenIdsOf",
      "outputs": [
        {
          "internalType": "bytes32[]",
          "name": "",
          "type": "bytes32[]"
        }
      ],
      "stateMutability": "view",
      "type": "function"
    },
    {
      "inputs": [
        {
          "internalType": "bytes32",
          "name": "tokenId",
          "type": "bytes32"
        }
      ],
      "name": "tokenOwnerOf",
      "outputs": [
        {
          "internalType": "address",
          "name": "",
          "type": "address"
        }
      ],
      "stateMutability": "view",
      "type": "function"
    },
    {
      "inputs": [],
      "name": "totalSupply",
      "outputs": [
        {
          "internalType": "uint256",
          "name": "",
          "type": "uint256"
        }
      ],
      "stateMutability": "view",
      "type": "function"
    },
    {
      "inputs": [
        {
          "internalType": "address",
          "name": "from",
          "type": "address"
        },
        {
          "internalType": "address",
          "name": "to",
          "type": "address"
        },
        {
          "internalType": "bytes32",
          "name": "tokenId",
          "type": "bytes32"
        },
        {
          "internalType": "bool",
          "name": "allowNonLSP1Recipient",
          "type": "bool"
        },
        {
          "internalType": "bytes",
          "name": "data",
          "type": "bytes"
        }
      ],
      "name": "transfer",
      "outputs": [],
      "stateMutability": "nonpayable",
      "type": "function"
    },
    {
      "inputs": [
        {
          "internalType": "address[]",
          "name": "from",
          "type": "address[]"
        },
        {
          "internalType": "address[]",
          "name": "to",
          "type": "address[]"
        },
        {
          "internalType": "bytes32[]",
          "name": "tokenId",
          "type": "bytes32[]"
        },
        {
          "internalType": "bool[]",
          "name": "allowNonLSP1Recipient",
          "type": "bool[]"
        },
        {
          "internalType": "bytes[]",
          "name": "data",
          "type": "bytes[]"
        }
      ],
      "name": "transferBatch",
      "outputs": [],
      "stateMutability": "nonpayable",
      "type": "function"
    },
    {
      "inputs": [
        {
          "internalType": "address",
          "name": "newOwner",
          "type": "address"
        }
      ],
      "name": "transferOwnership",
      "outputs": [],
      "stateMutability": "nonpayable",
      "type": "function"
    }
  ],
  "bytecode": "0x60806040523480156200001157600080fd5b50604051620028173803806200281783398101604081905262000034916200032f565b828282828282806001600160a01b038116620000a55760405162461bcd60e51b815260206004820152602660248201527f4f776e61626c653a206e6577206f776e657220697320746865207a65726f206160448201526564647265737360d01b606482015260840160405180910390fd5b620000bb816200019560201b62000ad21760201c565b50620001127feafec4d89fa9619884b60000a4d96624a38f7ac2d8d9a604ecf07c12c77e480c60001b604051806040016040528060048152602001632936598960e21b815250620001fc60201b62000b441760201c565b6200014c7fdeba1e292f8ba88238e10ab3c7f88bd4be4fac56cad5194b6ecceaf653468af160001b84620001fc60201b62000b441760201c565b620001867f2f0a68ab07768e01943a599e73362a0e17a63a72e94dd2e384d2c1d4db93275660001b83620001fc60201b62000b441760201c565b5050505050505050506200054c565b6000546001600160a01b03828116911614620001f957600080546001600160a01b038381166001600160a01b0319831681178455604051919092169283917f8be0079c531659141344cd1fd0a4f28419497f9722a3daafe3b4186f6b6457e09190a3505b50565b60008281526001602052604090206200021682826200044b565b50817fece574603820d07bc9b91f2a932baadf4628aabcb8afba49776529c14a6104b28260405162000249919062000517565b60405180910390a25050565b634e487b7160e01b600052604160045260246000fd5b60005b83811015620002885781810151838201526020016200026e565b8381111562000298576000848401525b50505050565b600082601f830112620002b057600080fd5b81516001600160401b0380821115620002cd57620002cd62000255565b604051601f8301601f19908116603f01168101908282118183101715620002f857620002f862000255565b816040528381528660208588010111156200031257600080fd5b620003258460208301602089016200026b565b9695505050505050565b6000806000606084860312156200034557600080fd5b83516001600160401b03808211156200035d57600080fd5b6200036b878388016200029e565b945060208601519150808211156200038257600080fd5b5062000391868287016200029e565b604086015190935090506001600160a01b0381168114620003b157600080fd5b809150509250925092565b600181811c90821680620003d157607f821691505b602082108103620003f257634e487b7160e01b600052602260045260246000fd5b50919050565b601f8211156200044657600081815260208120601f850160051c81016020861015620004215750805b601f850160051c820191505b8181101562000442578281556001016200042d565b5050505b505050565b81516001600160401b0381111562000467576200046762000255565b6200047f81620004788454620003bc565b84620003f8565b602080601f831160018114620004b757600084156200049e5750858301515b600019600386901b1c1916600185901b17855562000442565b600085815260208120601f198616915b82811015620004e857888601518255948401946001909101908401620004c7565b5085821015620005075787850151600019600388901b60f8161c191681555b5050505050600190811b01905550565b6020815260008251806020840152620005388160408501602087016200026b565b601f01601f19169190910160400192915050565b6122bb806200055c6000396000f3fe6080604052600436106101445760003560e01c806354f6127f116100c05780638da5cb5b11610074578063af255b6111610059578063af255b6114610384578063cf5182ba146103a4578063f2fde38b146103c457600080fd5b80638da5cb5b14610339578063a3b261f21461035757600080fd5b8063715018a6116100a5578063715018a6146102f15780637e87632c146103065780637f23690c1461032657600080fd5b806354f6127f146102a457806370a08231146102d157600080fd5b8063217b22701161011757806349a6078d116100fc57806349a6078d1461022a5780634e3e6e9c14610257578063511b69521461028457600080fd5b8063217b2270146101d25780632a3654a41461020a57600080fd5b806301ffc9a7146101495780630b0c6d821461017e57806314a6e293146101a057806318160ddd146101b3575b600080fd5b34801561015557600080fd5b506101696101643660046118be565b6103e4565b60405190151581526020015b60405180910390f35b34801561018a57600080fd5b5061019e610199366004611904565b610428565b005b61019e6101ae366004611afd565b6104e4565b3480156101bf57600080fd5b506002545b604051908152602001610175565b3480156101de57600080fd5b506101f26101ed366004611b61565b6105a3565b6040516001600160a01b039091168152602001610175565b34801561021657600080fd5b50610169610225366004611904565b6105dc565b34801561023657600080fd5b5061024a610245366004611b61565b6105f8565b6040516101759190611b7a565b34801561026357600080fd5b50610277610272366004611bc7565b61061a565b6040516101759190611c54565b34801561029057600080fd5b5061019e61029f366004611cc6565b6106ce565b3480156102b057600080fd5b506102c46102bf366004611b61565b610736565b6040516101759190611d3f565b3480156102dd57600080fd5b506101c46102ec366004611d52565b610741565b3480156102fd57600080fd5b5061019e610762565b34801561031257600080fd5b5061019e610321366004611e31565b610776565b61019e610334366004611ef6565b61087e565b34801561034557600080fd5b506000546001600160a01b03166101f2565b34801561036357600080fd5b50610377610372366004611d52565b6108b3565b6040516101759190611f33565b34801561039057600080fd5b5061019e61039f366004611f6b565b6108d7565b3480156103b057600080fd5b5061019e6103bf366004611904565b6108f1565b3480156103d057600080fd5b5061019e6103df366004611d52565b610a42565b60006001600160e01b031982167f622e7a01000000000000000000000000000000000000000000000000000000001480610422575061042282610b99565b92915050565b6000610433826105a3565b90506001600160a01b038116331461047b57604051632d938f5160e11b81526001600160a01b0382166004820152602481018390523360448201526064015b60405180910390fd5b6001600160a01b0383166104a257604051639577b8b360e01b815260040160405180910390fd5b826001600160a01b0316816001600160a01b0316036104d4576040516344fed6b160e11b815260040160405180910390fd5b6104df838284610be7565b505050565b6104ec610c91565b341561050b5760405163f36ba73760e01b815260040160405180910390fd5b805182511461055357815181516040517f43a3c26600000000000000000000000000000000000000000000000000000000815260048101929092526024820152604401610472565b60005b82518110156104df5761059b83828151811061057457610574611fd3565b602002602001015183838151811061058e5761058e611fd3565b6020026020010151610cfa565b600101610556565b6000818152600360205260408120546001600160a01b03168061042257604051635747cd1b60e11b815260048101849052602401610472565b60006105e782610e14565b6105f18383610e4c565b9392505050565b606061060382610e14565b600082815260056020526040902061042290610e95565b6060815167ffffffffffffffff8111156106365761063661192e565b60405190808252806020026020018201604052801561066957816020015b60608152602001906001900390816106545790505b50905060005b82518110156106c85761069a83828151811061068d5761068d611fd3565b6020026020010151610ea2565b8282815181106106ac576106ac611fd3565b60200260200101819052506106c18160010190565b905061066f565b50919050565b336106d98185610e4c565b610721576040517f1294d2a9000000000000000000000000000000000000000000000000000000008152600481018590526001600160a01b0382166024820152604401610472565b61072e8686868686610f44565b505050505050565b606061042282610ea2565b6001600160a01b038116600090815260046020526040812061042290611124565b61076a610c91565b6107746000610ad2565b565b8451845181141580610789575083518114155b80610795575082518114155b806107a1575081518114155b156107d8576040517f93a8311900000000000000000000000000000000000000000000000000000000815260040160405180910390fd5b60005b818110156108755761086d8782815181106107f8576107f8611fd3565b602002602001015187838151811061081257610812611fd3565b602002602001015187848151811061082c5761082c611fd3565b602002602001015187858151811061084657610846611fd3565b602002602001015187868151811061086057610860611fd3565b60200260200101516106ce565b6001016107db565b50505050505050565b610886610c91565b34156108a55760405163f36ba73760e01b815260040160405180910390fd5b6108af8282610cfa565b5050565b6001600160a01b038116600090815260046020526040902060609061042290610e95565b6108df610c91565b6108eb8484848461112e565b50505050565b60006108fc826105a3565b90506001600160a01b038116331461093f57604051632d938f5160e11b81526001600160a01b038216600482015260248101839052336044820152606401610472565b6001600160a01b03831661096657604051639577b8b360e01b815260040160405180910390fd5b826001600160a01b0316816001600160a01b031603610998576040516344fed6b160e11b815260040160405180910390fd5b60008281526005602052604081206109b0908561128e565b9050806109fb576040517fa7626b680000000000000000000000000000000000000000000000000000000081526001600160a01b038516600482015260248101849052604401610472565b82826001600160a01b0316856001600160a01b03167f34b797fc5a526f7bf1d2b5de25f6564fd85ae364e3ee939aee7c1ac27871a98860405160405180910390a450505050565b610a4a610c91565b6001600160a01b038116610ac65760405162461bcd60e51b815260206004820152602660248201527f4f776e61626c653a206e6577206f776e657220697320746865207a65726f206160448201527f64647265737300000000000000000000000000000000000000000000000000006064820152608401610472565b610acf81610ad2565b50565b6000546001600160a01b03828116911614610acf57600080546001600160a01b0383811673ffffffffffffffffffffffffffffffffffffffff19831681178455604051919092169283917f8be0079c531659141344cd1fd0a4f28419497f9722a3daafe3b4186f6b6457e09190a35050565b6000828152600160205260409020610b5c8282612063565b50817fece574603820d07bc9b91f2a932baadf4628aabcb8afba49776529c14a6104b282604051610b8d9190611d3f565b60405180910390a25050565b60006001600160e01b031982167f714df77c00000000000000000000000000000000000000000000000000000000148061042257506301ffc9a760e01b6001600160e01b0319831614610422565b6000818152600560205260408120610bff90856112a3565b905080610c4a576040517f4aa31a8c0000000000000000000000000000000000000000000000000000000081526001600160a01b038516600482015260248101839052604401610472565b81836001600160a01b0316856001600160a01b03167f17d5389f6ab6adb2647dfa0aa365c323d37adacc30b33a65310b6158ce1373d560405160405180910390a450505050565b33610ca46000546001600160a01b031690565b6001600160a01b0316146107745760405162461bcd60e51b815260206004820181905260248201527f4f776e61626c653a2063616c6c6572206973206e6f7420746865206f776e65726044820152606401610472565b7f2145e1d6d074577dc71ef54c3807742b41b053a9352ae6b491331509acb9750f8201610d53576040517f85c169bd00000000000000000000000000000000000000000000000000000000815260040160405180910390fd5b7fd0f59754f88971fe6bc5a6618cc9d5f1e859c58d16b22d1c7b2d3e2b246cd8aa8201610dac576040517f76755b3800000000000000000000000000000000000000000000000000000000815260040160405180910390fd5b6000828152600160205260409020610dc48282612063565b50817fece574603820d07bc9b91f2a932baadf4628aabcb8afba49776529c14a6104b261010083511115610e0557610e008360006101006112b8565b610e07565b825b604051610b8d9190611d3f565b6000818152600360205260409020546001600160a01b0316610acf57604051635747cd1b60e11b815260048101829052602401610472565b600080610e58836105a3565b9050806001600160a01b0316846001600160a01b03161480610e8d57506000838152600560205260409020610e8d90856113e0565b949350505050565b606060006105f183611402565b6000818152600160205260409020805460609190610ebf90611fe9565b80601f0160208091040260200160405190810160405280929190818152602001828054610eeb90611fe9565b8015610f385780601f10610f0d57610100808354040283529160200191610f38565b820191906000526020600020905b815481529060010190602001808311610f1b57829003601f168201915b50505050509050919050565b836001600160a01b0316856001600160a01b031603610f8f576040517f5d67d6c100000000000000000000000000000000000000000000000000000000815260040160405180910390fd5b6000610f9a846105a3565b9050856001600160a01b0316816001600160a01b031614610fe857604051632d938f5160e11b81526001600160a01b0380831660048301526024820186905287166044820152606401610472565b6001600160a01b03851661100f576040516324ecef4d60e01b815260040160405180910390fd5b3361101a878661145d565b6001600160a01b038716600090815260046020526040902061103c90866114ab565b506001600160a01b038616600090815260046020526040902061105f90866114b7565b5060008581526003602052604090819020805473ffffffffffffffffffffffffffffffffffffffff19166001600160a01b0389811691821790925591518792918a16907fb333c813a7426a7a11e2b190cad52c44119421594b47f6f32ace6d8c7207b2bf906110d39086908a908a90612123565b60405180910390a46000878787866040516020016110f49493929190612156565b604051602081830303815290604052905061110f88826114c3565b61111a87868361156e565b5050505050505050565b6000610422825490565b6001600160a01b038416611155576040516324ecef4d60e01b815260040160405180910390fd5b6000838152600360205260409020546001600160a01b0316156111a7576040517f34c7b51100000000000000000000000000000000000000000000000000000000815260048101849052602401610472565b336001600260008282546111bb91906121b9565b90915550506001600160a01b03851660009081526004602052604090206111e290856114b7565b50600084815260036020526040808220805473ffffffffffffffffffffffffffffffffffffffff19166001600160a01b03891690811790915590518692907fb333c813a7426a7a11e2b190cad52c44119421594b47f6f32ace6d8c7207b2bf9061125190869089908990612123565b60405180910390a46000808686856040516020016112729493929190612156565b604051602081830303815290604052905061072e86858361156e565b60006105f1836001600160a01b0384166116a8565b60006105f1836001600160a01b0384166116f7565b6060816112c681601f6121b9565b10156113145760405162461bcd60e51b815260206004820152600e60248201527f736c6963655f6f766572666c6f770000000000000000000000000000000000006044820152606401610472565b61131e82846121b9565b8451101561136e5760405162461bcd60e51b815260206004820152601160248201527f736c6963655f6f75744f66426f756e64730000000000000000000000000000006044820152606401610472565b60608215801561138d57604051915060008252602082016040526113d7565b6040519150601f8416801560200281840101858101878315602002848b0101015b818310156113c65780518352602092830192016113ae565b5050858452601f01601f1916604052505b50949350505050565b6001600160a01b038116600090815260018301602052604081205415156105f1565b606081600001805480602002602001604051908101604052809291908181526020018280548015610f3857602002820191906000526020600020905b81548152602001906001019080831161143e5750505050509050919050565b60008181526005602052604081209061147582611124565b905060005b818110156114a457600061148e84826117ea565b905061149b818787610be7565b5060010161147a565b5050505050565b60006105f183836116f7565b60006105f183836116a8565b6114d482631aed5a8560e21b6117f6565b156108af57604051631aed5a8560e21b81526001600160a01b03831690636bb56a1490611527907fb23eae7e6d1564b295b4c3e3be402d9a2f0776c57bdf365903496f6fa481ab009085906004016121d1565b6000604051808303816000875af1158015611546573d6000803e3d6000fd5b505050506040513d6000823e601f3d908101601f191682016040526104df91908101906121ea565b61157f83631aed5a8560e21b6117f6565b1561161957604051631aed5a8560e21b81526001600160a01b03841690636bb56a14906115d2907f0b084a55ebf70fd3c06fd755269dac2212c4d3f0f4d09079780bfa50c1b2984d9085906004016121d1565b6000604051808303816000875af11580156115f1573d6000803e3d6000fd5b505050506040513d6000823e601f3d908101601f191682016040526108eb91908101906121ea565b816104df576001600160a01b0383163b1561166b576040517f4349776d0000000000000000000000000000000000000000000000000000000081526001600160a01b0384166004820152602401610472565b6040517f031731370000000000000000000000000000000000000000000000000000000081526001600160a01b0384166004820152602401610472565b60008181526001830160205260408120546116ef57508154600181810184556000848152602080822090930184905584548482528286019093526040902091909155610422565b506000610422565b600081815260018301602052604081205480156117e057600061171b600183612258565b855490915060009061172f90600190612258565b905081811461179457600086600001828154811061174f5761174f611fd3565b906000526020600020015490508087600001848154811061177257611772611fd3565b6000918252602080832090910192909255918252600188019052604090208390555b85548690806117a5576117a561226f565b600190038181906000526020600020016000905590558560010160008681526020019081526020016000206000905560019350505050610422565b6000915050610422565b60006105f18383611894565b604080516001600160e01b03198316602480830191909152825180830390910181526044909101909152602080820180517bffffffffffffffffffffffffffffffffffffffffffffffffffffffff166301ffc9a760e01b178152825160009392849283928392918391908a617530fa92503d9150600051905082801561187d575060208210155b80156118895750600081115b979650505050505050565b60008260000182815481106118ab576118ab611fd3565b9060005260206000200154905092915050565b6000602082840312156118d057600080fd5b81356001600160e01b0319811681146105f157600080fd5b80356001600160a01b03811681146118ff57600080fd5b919050565b6000806040838503121561191757600080fd5b611920836118e8565b946020939093013593505050565b634e487b7160e01b600052604160045260246000fd5b604051601f8201601f1916810167ffffffffffffffff8111828210171561196d5761196d61192e565b604052919050565b600067ffffffffffffffff82111561198f5761198f61192e565b5060051b60200190565b600082601f8301126119aa57600080fd5b813560206119bf6119ba83611975565b611944565b82815260059290921b840181019181810190868411156119de57600080fd5b8286015b848110156119f957803583529183019183016119e2565b509695505050505050565b600067ffffffffffffffff821115611a1e57611a1e61192e565b50601f01601f191660200190565b600082601f830112611a3d57600080fd5b8135611a4b6119ba82611a04565b818152846020838601011115611a6057600080fd5b816020850160208301376000918101602001919091529392505050565b600082601f830112611a8e57600080fd5b81356020611a9e6119ba83611975565b82815260059290921b84018101918181019086841115611abd57600080fd5b8286015b848110156119f957803567ffffffffffffffff811115611ae15760008081fd5b611aef8986838b0101611a2c565b845250918301918301611ac1565b60008060408385031215611b1057600080fd5b823567ffffffffffffffff80821115611b2857600080fd5b611b3486838701611999565b93506020850135915080821115611b4a57600080fd5b50611b5785828601611a7d565b9150509250929050565b600060208284031215611b7357600080fd5b5035919050565b6020808252825182820181905260009190848201906040850190845b81811015611bbb5783516001600160a01b031683529284019291840191600101611b96565b50909695505050505050565b600060208284031215611bd957600080fd5b813567ffffffffffffffff811115611bf057600080fd5b610e8d84828501611999565b60005b83811015611c17578181015183820152602001611bff565b838111156108eb5750506000910152565b60008151808452611c40816020860160208601611bfc565b601f01601f19169290920160200192915050565b6000602080830181845280855180835260408601915060408160051b870101925083870160005b82811015611ca957603f19888603018452611c97858351611c28565b94509285019290850190600101611c7b565b5092979650505050505050565b803580151581146118ff57600080fd5b600080600080600060a08688031215611cde57600080fd5b611ce7866118e8565b9450611cf5602087016118e8565b935060408601359250611d0a60608701611cb6565b9150608086013567ffffffffffffffff811115611d2657600080fd5b611d3288828901611a2c565b9150509295509295909350565b6020815260006105f16020830184611c28565b600060208284031215611d6457600080fd5b6105f1826118e8565b600082601f830112611d7e57600080fd5b81356020611d8e6119ba83611975565b82815260059290921b84018101918181019086841115611dad57600080fd5b8286015b848110156119f957611dc2816118e8565b8352918301918301611db1565b600082601f830112611de057600080fd5b81356020611df06119ba83611975565b82815260059290921b84018101918181019086841115611e0f57600080fd5b8286015b848110156119f957611e2481611cb6565b8352918301918301611e13565b600080600080600060a08688031215611e4957600080fd5b853567ffffffffffffffff80821115611e6157600080fd5b611e6d89838a01611d6d565b96506020880135915080821115611e8357600080fd5b611e8f89838a01611d6d565b95506040880135915080821115611ea557600080fd5b611eb189838a01611999565b94506060880135915080821115611ec757600080fd5b611ed389838a01611dcf565b93506080880135915080821115611ee957600080fd5b50611d3288828901611a7d565b60008060408385031215611f0957600080fd5b82359150602083013567ffffffffffffffff811115611f2757600080fd5b611b5785828601611a2c565b6020808252825182820181905260009190848201906040850190845b81811015611bbb57835183529284019291840191600101611f4f565b60008060008060808587031215611f8157600080fd5b611f8a856118e8565b935060208501359250611f9f60408601611cb6565b9150606085013567ffffffffffffffff811115611fbb57600080fd5b611fc787828801611a2c565b91505092959194509250565b634e487b7160e01b600052603260045260246000fd5b600181811c90821680611ffd57607f821691505b6020821081036106c857634e487b7160e01b600052602260045260246000fd5b601f8211156104df57600081815260208120601f850160051c810160208610156120445750805b601f850160051c820191505b8181101561072e57828155600101612050565b815167ffffffffffffffff81111561207d5761207d61192e565b6120918161208b8454611fe9565b8461201d565b602080601f8311600181146120c657600084156120ae5750858301515b600019600386901b1c1916600185901b17855561072e565b600085815260208120601f198616915b828110156120f5578886015182559484019460019091019084016120d6565b50858210156121135787850151600019600388901b60f8161c191681555b5050505050600190811b01905550565b6001600160a01b0384168152821515602082015260606040820152600061214d6060830184611c28565b95945050505050565b60006bffffffffffffffffffffffff19808760601b168352808660601b166014840152508360288301528251612193816048850160208701611bfc565b9190910160480195945050505050565b634e487b7160e01b600052601160045260246000fd5b600082198211156121cc576121cc6121a3565b500190565b828152604060208201526000610e8d6040830184611c28565b6000602082840312156121fc57600080fd5b815167ffffffffffffffff81111561221357600080fd5b8201601f8101841361222457600080fd5b80516122326119ba82611a04565b81815285602083850101111561224757600080fd5b61214d826020830160208601611bfc565b60008282101561226a5761226a6121a3565b500390565b634e487b7160e01b600052603160045260246000fdfea2646970667358221220739239dd587ff6f305c41411e1d2f495e450c69e95eb3f46359ef7e1e26864a064736f6c634300080f0033",
  "linkReferences": {},
  "deployedLinkReferences": {}
}