{
  "_format": "hh-sol-artifact-1",
  "contractName": "LSP9Vault",
  "sourceName": "contracts/LSP9Vault/LSP9Vault.sol",
  "abi": [
    {
      "inputs": [
        {
          "internalType": "address",
          "name": "newOwner",
          "type": "address"
        }
      ],
      "stateMutability": "payable",
      "type": "constructor"
    },
    {
      "inputs": [],
      "name": "CannotTransferOwnershipToSelf",
      "type": "error"
    },
    {
      "inputs": [],
      "name": "ERC725X_ContractDeploymentFailed",
      "type": "error"
    },
    {
      "inputs": [],
      "name": "ERC725X_CreateOperationsRequireEmptyRecipientAddress",
      "type": "error"
    },
    {
      "inputs": [],
      "name": "ERC725X_ExecuteParametersLengthMismatch",
      "type": "error"
    },
    {
      "inputs": [
        {
          "internalType": "uint256",
          "name": "balance",
          "type": "uint256"
        },
        {
          "internalType": "uint256",
          "name": "value",
          "type": "uint256"
        }
      ],
      "name": "ERC725X_InsufficientBalance",
      "type": "error"
    },
    {
      "inputs": [],
      "name": "ERC725X_MsgValueDisallowedInStaticCall",
      "type": "error"
    },
    {
      "inputs": [],
      "name": "ERC725X_NoContractBytecodeProvided",
      "type": "error"
    },
    {
      "inputs": [
        {
          "internalType": "uint256",
          "name": "operationTypeProvided",
          "type": "uint256"
        }
      ],
      "name": "ERC725X_UnknownOperationType",
      "type": "error"
    },
    {
      "inputs": [
        {
          "internalType": "uint256",
          "name": "dataKeysLength",
          "type": "uint256"
        },
        {
          "internalType": "uint256",
          "name": "dataValuesLength",
          "type": "uint256"
        }
      ],
      "name": "ERC725Y_DataKeysValuesLengthMismatch",
      "type": "error"
    },
    {
      "inputs": [],
      "name": "ERC725Y_MsgValueDisallowed",
      "type": "error"
    },
    {
      "inputs": [
        {
          "internalType": "bytes32",
          "name": "dataKey",
          "type": "bytes32"
        }
      ],
      "name": "LSP1DelegateNotAllowedToSetDataKey",
      "type": "error"
    },
    {
      "inputs": [
        {
          "internalType": "bytes4",
          "name": "functionSelector",
          "type": "bytes4"
        }
      ],
      "name": "NoExtensionFoundForFunctionSelector",
      "type": "error"
    },
    {
      "inputs": [
        {
          "internalType": "uint256",
          "name": "renounceOwnershipStart",
          "type": "uint256"
        },
        {
          "internalType": "uint256",
          "name": "renounceOwnershipEnd",
          "type": "uint256"
        }
      ],
      "name": "NotInRenounceOwnershipInterval",
      "type": "error"
    },
    {
      "anonymous": false,
      "inputs": [
        {
          "indexed": true,
          "internalType": "uint256",
          "name": "operationType",
          "type": "uint256"
        },
        {
          "indexed": true,
          "internalType": "address",
          "name": "contractAddress",
          "type": "address"
        },
        {
          "indexed": true,
          "internalType": "uint256",
          "name": "value",
          "type": "uint256"
        },
        {
          "indexed": false,
          "internalType": "bytes32",
          "name": "salt",
          "type": "bytes32"
        }
      ],
      "name": "ContractCreated",
      "type": "event"
    },
    {
      "anonymous": false,
      "inputs": [
        {
          "indexed": true,
          "internalType": "bytes32",
          "name": "dataKey",
          "type": "bytes32"
        },
        {
          "indexed": false,
          "internalType": "bytes",
          "name": "dataValue",
          "type": "bytes"
        }
      ],
      "name": "DataChanged",
      "type": "event"
    },
    {
      "anonymous": false,
      "inputs": [
        {
          "indexed": true,
          "internalType": "uint256",
          "name": "operationType",
          "type": "uint256"
        },
        {
          "indexed": true,
          "internalType": "address",
          "name": "target",
          "type": "address"
        },
        {
          "indexed": true,
          "internalType": "uint256",
          "name": "value",
          "type": "uint256"
        },
        {
          "indexed": false,
          "internalType": "bytes4",
          "name": "selector",
          "type": "bytes4"
        }
      ],
      "name": "Executed",
      "type": "event"
    },
    {
      "anonymous": false,
      "inputs": [],
      "name": "OwnershipRenounced",
      "type": "event"
    },
    {
      "anonymous": false,
      "inputs": [
        {
          "indexed": true,
          "internalType": "address",
          "name": "previousOwner",
          "type": "address"
        },
        {
          "indexed": true,
          "internalType": "address",
          "name": "newOwner",
          "type": "address"
        }
      ],
      "name": "OwnershipTransferStarted",
      "type": "event"
    },
    {
      "anonymous": false,
      "inputs": [
        {
          "indexed": true,
          "internalType": "address",
          "name": "previousOwner",
          "type": "address"
        },
        {
          "indexed": true,
          "internalType": "address",
          "name": "newOwner",
          "type": "address"
        }
      ],
      "name": "OwnershipTransferred",
      "type": "event"
    },
    {
      "anonymous": false,
      "inputs": [],
      "name": "RenounceOwnershipStarted",
      "type": "event"
    },
    {
      "anonymous": false,
      "inputs": [
        {
          "indexed": true,
          "internalType": "address",
          "name": "from",
          "type": "address"
        },
        {
          "indexed": true,
          "internalType": "uint256",
          "name": "value",
          "type": "uint256"
        },
        {
          "indexed": true,
          "internalType": "bytes32",
          "name": "typeId",
          "type": "bytes32"
        },
        {
          "indexed": false,
          "internalType": "bytes",
          "name": "receivedData",
          "type": "bytes"
        },
        {
          "indexed": false,
          "internalType": "bytes",
          "name": "returnedValue",
          "type": "bytes"
        }
      ],
      "name": "UniversalReceiver",
      "type": "event"
    },
    {
      "anonymous": false,
      "inputs": [
        {
          "indexed": true,
          "internalType": "address",
          "name": "sender",
          "type": "address"
        },
        {
          "indexed": true,
          "internalType": "uint256",
          "name": "value",
          "type": "uint256"
        }
      ],
      "name": "ValueReceived",
      "type": "event"
    },
    {
      "stateMutability": "payable",
      "type": "fallback"
    },
    {
      "inputs": [],
      "name": "RENOUNCE_OWNERSHIP_CONFIRMATION_DELAY",
      "outputs": [
        {
          "internalType": "uint256",
          "name": "",
          "type": "uint256"
        }
      ],
      "stateMutability": "view",
      "type": "function"
    },
    {
      "inputs": [],
      "name": "RENOUNCE_OWNERSHIP_CONFIRMATION_PERIOD",
      "outputs": [
        {
          "internalType": "uint256",
          "name": "",
          "type": "uint256"
        }
      ],
      "stateMutability": "view",
      "type": "function"
    },
    {
      "inputs": [],
      "name": "acceptOwnership",
      "outputs": [],
      "stateMutability": "nonpayable",
      "type": "function"
    },
    {
      "inputs": [
        {
          "internalType": "bytes[]",
          "name": "data",
          "type": "bytes[]"
        }
      ],
      "name": "batchCalls",
      "outputs": [
        {
          "internalType": "bytes[]",
          "name": "results",
          "type": "bytes[]"
        }
      ],
      "stateMutability": "nonpayable",
      "type": "function"
    },
    {
      "inputs": [
        {
          "internalType": "uint256[]",
          "name": "operationsType",
          "type": "uint256[]"
        },
        {
          "internalType": "address[]",
          "name": "targets",
          "type": "address[]"
        },
        {
          "internalType": "uint256[]",
          "name": "values",
          "type": "uint256[]"
        },
        {
          "internalType": "bytes[]",
          "name": "datas",
          "type": "bytes[]"
        }
      ],
      "name": "execute",
      "outputs": [
        {
          "internalType": "bytes[]",
          "name": "",
          "type": "bytes[]"
        }
      ],
      "stateMutability": "payable",
      "type": "function"
    },
    {
      "inputs": [
        {
          "internalType": "uint256",
          "name": "operationType",
          "type": "uint256"
        },
        {
          "internalType": "address",
          "name": "target",
          "type": "address"
        },
        {
          "internalType": "uint256",
          "name": "value",
          "type": "uint256"
        },
        {
          "internalType": "bytes",
          "name": "data",
          "type": "bytes"
        }
      ],
      "name": "execute",
      "outputs": [
        {
          "internalType": "bytes",
          "name": "",
          "type": "bytes"
        }
      ],
      "stateMutability": "payable",
      "type": "function"
    },
    {
      "inputs": [
        {
          "internalType": "bytes32[]",
          "name": "dataKeys",
          "type": "bytes32[]"
        }
      ],
      "name": "getData",
      "outputs": [
        {
          "internalType": "bytes[]",
          "name": "dataValues",
          "type": "bytes[]"
        }
      ],
      "stateMutability": "view",
      "type": "function"
    },
    {
      "inputs": [
        {
          "internalType": "bytes32",
          "name": "dataKey",
          "type": "bytes32"
        }
      ],
      "name": "getData",
      "outputs": [
        {
          "internalType": "bytes",
          "name": "dataValue",
          "type": "bytes"
        }
      ],
      "stateMutability": "view",
      "type": "function"
    },
    {
      "inputs": [],
      "name": "owner",
      "outputs": [
        {
          "internalType": "address",
          "name": "",
          "type": "address"
        }
      ],
      "stateMutability": "view",
      "type": "function"
    },
    {
      "inputs": [],
      "name": "pendingOwner",
      "outputs": [
        {
          "internalType": "address",
          "name": "",
          "type": "address"
        }
      ],
      "stateMutability": "view",
      "type": "function"
    },
    {
      "inputs": [],
      "name": "renounceOwnership",
      "outputs": [],
      "stateMutability": "nonpayable",
      "type": "function"
    },
    {
      "inputs": [
        {
          "internalType": "bytes32[]",
          "name": "dataKeys",
          "type": "bytes32[]"
        },
        {
          "internalType": "bytes[]",
          "name": "dataValues",
          "type": "bytes[]"
        }
      ],
      "name": "setData",
      "outputs": [],
      "stateMutability": "payable",
      "type": "function"
    },
    {
      "inputs": [
        {
          "internalType": "bytes32",
          "name": "dataKey",
          "type": "bytes32"
        },
        {
          "internalType": "bytes",
          "name": "dataValue",
          "type": "bytes"
        }
      ],
      "name": "setData",
      "outputs": [],
      "stateMutability": "payable",
      "type": "function"
    },
    {
      "inputs": [
        {
          "internalType": "bytes4",
          "name": "interfaceId",
          "type": "bytes4"
        }
      ],
      "name": "supportsInterface",
      "outputs": [
        {
          "internalType": "bool",
          "name": "",
          "type": "bool"
        }
      ],
      "stateMutability": "view",
      "type": "function"
    },
    {
      "inputs": [
        {
          "internalType": "address",
          "name": "newOwner",
          "type": "address"
        }
      ],
      "name": "transferOwnership",
      "outputs": [],
      "stateMutability": "nonpayable",
      "type": "function"
    },
    {
      "inputs": [
        {
          "internalType": "bytes32",
          "name": "typeId",
          "type": "bytes32"
        },
        {
          "internalType": "bytes",
          "name": "receivedData",
          "type": "bytes"
        }
      ],
      "name": "universalReceiver",
      "outputs": [
        {
          "internalType": "bytes",
          "name": "returnedValues",
          "type": "bytes"
        }
      ],
      "stateMutability": "payable",
      "type": "function"
    },
    {
      "stateMutability": "payable",
      "type": "receive"
    }
  ],
  "bytecode": "0x6080604052604051620031ab380380620031ab83398101604081905262000026916200044c565b34156200005b57604051349033907f7e71433ddf847725166244795048ecf3e3f9f35628254ecbf73605666423349390600090a35b62000071816200011160201b62000dad1760201c565b6040805180820190915260048152637c0334a160e01b6020820152620000b9907feafec4d89fa9619884b600007c0334a14085fefa8b51ae5a40895018882bdb909062000178565b604080516020808201909252600081526200010a916001600160a01b038416917f79855c97dbc259ce395421d933d7bc0699b0f1561f988f09a9e8633fd542fe5c9162000e12620001ff821b17901c565b5062000757565b6000546001600160a01b038281169116146200017557600080546001600160a01b038381166001600160a01b0319831681178455604051919092169283917f8be0079c531659141344cd1fd0a4f28419497f9722a3daafe3b4186f6b6457e09190a3505b50565b600082815260016020526040902062000192828262000522565b50817fece574603820d07bc9b91f2a932baadf4628aabcb8afba49776529c14a6104b261010083511115620001e257620001dc836000610100620002a460201b62000e9d1760201c565b620001e4565b825b604051620001f391906200064b565b60405180910390a25050565b6200021d83636bb56a1460e01b620003c160201b62000fc71760201c565b156200029f57604051631aed5a8560e21b81526001600160a01b03841690636bb56a149062000253908590859060040162000660565b6000604051808303816000875af115801562000273573d6000803e3d6000fd5b505050506040513d6000823e601f3d908101601f191682016040526200029d919081019062000683565b505b505050565b606081620002b481601f62000730565b1015620002f95760405162461bcd60e51b815260206004820152600e60248201526d736c6963655f6f766572666c6f7760901b60448201526064015b60405180910390fd5b62000305828462000730565b845110156200034b5760405162461bcd60e51b8152602060048201526011602482015270736c6963655f6f75744f66426f756e647360781b6044820152606401620002f0565b6060821580156200036c5760405191506000825260208201604052620003b8565b6040519150601f8416801560200281840101858101878315602002848b0101015b81831015620003a75780518352602092830192016200038d565b5050858452601f01601f1916604052505b50949350505050565b604080516001600160e01b03198316602480830191909152825180830390910181526044909101909152602080820180516001600160e01b03166301ffc9a760e01b178152825160009392849283928392918391908a617530fa92503d9150600051905082801562000434575060208210155b8015620004415750600081115b979650505050505050565b6000602082840312156200045f57600080fd5b81516001600160a01b03811681146200047757600080fd5b9392505050565b634e487b7160e01b600052604160045260246000fd5b600181811c90821680620004a957607f821691505b602082108103620004ca57634e487b7160e01b600052602260045260246000fd5b50919050565b601f8211156200029f57600081815260208120601f850160051c81016020861015620004f95750805b601f850160051c820191505b818110156200051a5782815560010162000505565b505050505050565b81516001600160401b038111156200053e576200053e6200047e565b62000556816200054f845462000494565b84620004d0565b602080601f8311600181146200058e5760008415620005755750858301515b600019600386901b1c1916600185901b1785556200051a565b600085815260208120601f198616915b82811015620005bf578886015182559484019460019091019084016200059e565b5085821015620005de5787850151600019600388901b60f8161c191681555b5050505050600190811b01905550565b60005b838110156200060b578181015183820152602001620005f1565b838111156200029d5750506000910152565b6000815180845262000637816020860160208601620005ee565b601f01601f19169290920160200192915050565b6020815260006200047760208301846200061d565b8281526040602082015260006200067b60408301846200061d565b949350505050565b6000602082840312156200069657600080fd5b81516001600160401b0380821115620006ae57600080fd5b818401915084601f830112620006c357600080fd5b815181811115620006d857620006d86200047e565b604051601f8201601f19908116603f011681019083821181831017156200070357620007036200047e565b816040528281528760208487010111156200071d57600080fd5b62000441836020830160208801620005ee565b600082198211156200075257634e487b7160e01b600052601160045260246000fd5b500190565b612a4480620007676000396000f3fe6080604052600436106100f75760003560e01c80636bb56a141161008a5780638da5cb5b116100595780638da5cb5b146102d4578063e30c397814610306578063ead3fbdf14610179578063f2fde38b1461032457610132565b80636bb56a1414610284578063715018a61461029757806379ba5097146102ac5780637f23690c146102c157610132565b806344c028fe116100c657806344c028fe146102045780634e3e6e9c1461022457806354f6127f146102445780636963d4381461026457610132565b806301bfba611461017957806301ffc9a7146101a157806313ced88d146101d157806314a6e293146101f157610132565b3661013257341561013057604051349033907f7e71433ddf847725166244795048ecf3e3f9f35628254ecbf73605666423349390600090a35b005b341561016657604051349033907f7e71433ddf847725166244795048ecf3e3f9f35628254ecbf73605666423349390600090a35b600436101561017157005b610130610344565b34801561018557600080fd5b5061018e606481565b6040519081526020015b60405180910390f35b3480156101ad57600080fd5b506101c16101bc366004611fd5565b610412565b6040519015158152602001610198565b6101e46101df3660046121ea565b6104b4565b604051610198919061234a565b6101306101ff3660046123ac565b610509565b610217610212366004612410565b6106d2565b6040516101989190612465565b34801561023057600080fd5b506101e461023f366004612478565b61071c565b34801561025057600080fd5b5061021761025f3660046124ad565b6107d0565b34801561027057600080fd5b506101e461027f3660046124c6565b6107db565b61021761029236600461253b565b610947565b3480156102a357600080fd5b50610130610b1d565b3480156102b857600080fd5b50610130610b2f565b6101306102cf3660046125b7565b610bc7565b3480156102e057600080fd5b506000546001600160a01b03165b6040516001600160a01b039091168152602001610198565b34801561031257600080fd5b506003546001600160a01b03166102ee565b34801561033057600080fd5b5061013061033f3660046125f4565b610c93565b600061035b6000356001600160e01b031916611065565b90506000356001600160e01b03191615801561037e57506001600160a01b038116155b156103865750565b6001600160a01b0381166103d9576040517fbb370b2b0000000000000000000000000000000000000000000000000000000081526001600160e01b03196000351660048201526024015b60405180910390fd5b36600080373360601b365234601436015260008060343601600080855af13d6000803e808015610408573d6000f35b3d6000fd5b505050565b60006001600160e01b031982167f19331ad100000000000000000000000000000000000000000000000000000000148061045c57506001600160e01b03198216631aed5a8560e21b145b8061049057506001600160e01b031982167f94be599900000000000000000000000000000000000000000000000000000000145b8061049f575061049f826110aa565b806104ae57506104ae826110e8565b92915050565b60606104be61111e565b34156104f257604051349033907f7e71433ddf847725166244795048ecf3e3f9f35628254ecbf73605666423349390600090a35b6104fe85858585611187565b90505b949350505050565b60006105136112e5565b9050815183511461055d57825182516040517f43a3c266000000000000000000000000000000000000000000000000000000008152600481019290925260248201526044016103d0565b341561057c5760405163f36ba73760e01b815260040160405180910390fd5b60005b83518110156106cc578115610688578351690cfc51aec37c55a4d0b160b01b908590839081106105b1576105b161260f565b60200260200101516001600160a01b031916148061061057508351654b80742de2bf60d01b908590839081106105e9576105e961260f565b602002602001015179ffffffffffffffffffffffffffffffffffffffffffffffffffff1916145b8061064d57508351696773c5a04a6d4300884b60b11b908590839081106106395761063961260f565b60200260200101516001600160a01b031916145b15610688578381815181106106645761066461260f565b602002602001015160405163199611f160e01b81526004016103d091815260200190565b6106c484828151811061069d5761069d61260f565b60200260200101518483815181106106b7576106b761260f565b602002602001015161137f565b60010161057f565b50505050565b60606106dc61111e565b341561071057604051349033907f7e71433ddf847725166244795048ecf3e3f9f35628254ecbf73605666423349390600090a35b6104fe858585856113f3565b6060815167ffffffffffffffff81111561073857610738611fff565b60405190808252806020026020018201604052801561076b57816020015b60608152602001906001900390816107565790505b50905060005b82518110156107ca5761079c83828151811061078f5761078f61260f565b60200260200101516114ff565b8282815181106107ae576107ae61260f565b60200260200101819052506107c38160010190565b9050610771565b50919050565b60606104ae826114ff565b60608167ffffffffffffffff8111156107f6576107f6611fff565b60405190808252806020026020018201604052801561082957816020015b60608152602001906001900390816108145790505b50905060005b82811015610940576000803086868581811061084d5761084d61260f565b905060200281019061085f9190612625565b60405161086d929190612673565b600060405180830381855af49150503d80600081146108a8576040519150601f19603f3d011682016040523d82523d6000602084013e6108ad565b606091505b50915091508161090f578051156108c75780518082602001fd5b60405162461bcd60e51b815260206004820152601960248201527f4c5350393a20626174636843616c6c732072657665727465640000000000000060448201526064016103d0565b808484815181106109225761092261260f565b602002602001018190525050506109398160010190565b905061082f565b5092915050565b6060341561097d57604051349033907f7e71433ddf847725166244795048ecf3e3f9f35628254ecbf73605666423349390600090a35b60006109a87f0cfc51aec37c55a4d0b1a65c6255c4bf2fbdf6277f3cc0730c45b828b6db8b476114ff565b905060606014825110610a0c5760006109c083612683565b60601c90506109d681631aed5a8560e21b610fc7565b15610a0a57600480546001600160a01b0319166001600160a01b038316908117909155610a079088888833346115a1565b91505b505b6000610a25690cfc51aec37c55a4d0b160b01b886116fe565b90506000610a32826114ff565b905060606014825110610a96576000610a4a83612683565b60601c9050610a6081631aed5a8560e21b610fc7565b15610a9457600480546001600160a01b0319166001600160a01b038316908117909155610a91908b8b8b33346115a1565b91505b505b600480546001600160a01b0319169055604051610ab990859083906020016126bf565b60405160208183030381529060405295508834336001600160a01b03167f9c3ba68eb5742b8e3961aea0afc7371a71bf433c8a67a831803b64c064a178c28b8b8b604051610b099392919061270d565b60405180910390a450505050509392505050565b610b2561111e565b610b2d611767565b565b6000546001600160a01b0316610b43611868565b604080516020810190915260008152610b88906001600160a01b038316907f0c622e58e6b7089ae35f1af1c86d997be92fcdd8c9509652022d41aa6516947190610e12565b604080516020810190915260008152610bc49033907f79855c97dbc259ce395421d933d7bc0699b0f1561f988f09a9e8633fd542fe5c90610e12565b50565b3415610be65760405163f36ba73760e01b815260040160405180910390fd5b6000610bf06112e5565b90508015610c89576001600160a01b03198316690cfc51aec37c55a4d0b160b01b1480610c4757507fffffffffffff00000000000000000000000000000000000000000000000000008316654b80742de2bf60d01b145b80610c6857506001600160a01b03198316696773c5a04a6d4300884b60b11b145b15610c895760405163199611f160e01b8152600481018490526024016103d0565b61040d838361137f565b610c9b61111e565b610ca481611903565b600080546040516001600160a01b03918216929184169183917f38d16b8cac22d99fc7c124b9cd0de2d3fa1faef420bfe791d8c362d765e227009190a3604080516020810190915260008152610d26906001600160a01b038416907faefd43f45fed1bcd8992f23c803b6f4ec45cf6b62b0d404d565f290a471e763f90610e12565b6000546001600160a01b03828116911614610da95760405162461bcd60e51b815260206004820152603f60248201527f4c535031343a206e65774f776e6572204d55535420616363657074206f776e6560448201527f727368697020696e2061207365706172617465207472616e73616374696f6e0060648201526084016103d0565b5050565b6000546001600160a01b03828116911614610bc457600080546001600160a01b038381166001600160a01b0319831681178455604051919092169283917f8be0079c531659141344cd1fd0a4f28419497f9722a3daafe3b4186f6b6457e09190a35050565b610e2383631aed5a8560e21b610fc7565b1561040d57604051631aed5a8560e21b81526001600160a01b03841690636bb56a1490610e569085908590600401612733565b6000604051808303816000875af1158015610e75573d6000803e3d6000fd5b505050506040513d6000823e601f3d908101601f191682016040526106cc919081019061274c565b606081610eab81601f6127d0565b1015610ef95760405162461bcd60e51b815260206004820152600e60248201527f736c6963655f6f766572666c6f7700000000000000000000000000000000000060448201526064016103d0565b610f0382846127d0565b84511015610f535760405162461bcd60e51b815260206004820152601160248201527f736c6963655f6f75744f66426f756e647300000000000000000000000000000060448201526064016103d0565b606082158015610f725760405191506000825260208201604052610fbc565b6040519150601f8416801560200281840101858101878315602002848b0101015b81831015610fab578051835260209283019201610f93565b5050858452601f01601f1916604052505b5090505b9392505050565b604080516001600160e01b03198316602480830191909152825180830390910181526044909101909152602080820180517bffffffffffffffffffffffffffffffffffffffffffffffffffffffff166301ffc9a760e01b178152825160009392849283928392918391908a617530fa92503d9150600051905082801561104e575060208210155b801561105a5750600081115b979650505050505050565b600080611089696773c5a04a6d4300884b60b11b6001600160e01b031985166116fe565b90506000611096826114ff565b61109f90612683565b60601c949350505050565b60006001600160e01b031982167fa918fa6b0000000000000000000000000000000000000000000000000000000014806104ae57506104ae8261196c565b6000806110fb6301ffc9a760e01b611065565b90506001600160a01b0381166111145750600092915050565b610fc08184610fc7565b336111316000546001600160a01b031690565b6001600160a01b031614610b2d5760405162461bcd60e51b815260206004820181905260248201527f4f776e61626c653a2063616c6c6572206973206e6f7420746865206f776e657260448201526064016103d0565b6060835185511415806111a85750825184511415806111a857508151835114155b156111df576040517f3ff55f4d00000000000000000000000000000000000000000000000000000000815260040160405180910390fd5b6000855167ffffffffffffffff8111156111fb576111fb611fff565b60405190808252806020026020018201604052801561122e57816020015b60608152602001906001900390816112195790505b50905060005b86518110156112db576112ad8782815181106112525761125261260f565b602002602001015187838151811061126c5761126c61260f565b60200260200101518784815181106112865761128661260f565b60200260200101518785815181106112a0576112a061260f565b60200260200101516113f3565b8282815181106112bf576112bf61260f565b60200260200101819052506112d48160010190565b9050611234565b5095945050505050565b600080546001600160a01b0316331461137c576004546001600160a01b031633146113785760405162461bcd60e51b815260206004820152603b60248201527f4f6e6c79204f776e6572206f72207265656e746572656420556e69766572736160448201527f6c2052656365697665722044656c656761746520616c6c6f776564000000000060648201526084016103d0565b5060015b90565b6000828152600160205260409020611397828261286a565b50817fece574603820d07bc9b91f2a932baadf4628aabcb8afba49776529c14a6104b2610100835111156113d8576113d3836000610100610e9d565b6113da565b825b6040516113e79190612465565b60405180910390a25050565b60608461140c576114058484846119aa565b9050610501565b60018503611446576001600160a01b0384161561143c57604051631820c12560e11b815260040160405180910390fd5b6114058383611ad6565b60028503611480576001600160a01b0384161561147657604051631820c12560e11b815260040160405180910390fd5b6114058383611bf0565b600385036114ca5782156114c0576040517f72f2bc6a00000000000000000000000000000000000000000000000000000000815260040160405180910390fd5b6114058483611cdb565b6040517f7583b3bc000000000000000000000000000000000000000000000000000000008152600481018690526024016103d0565b600081815260016020526040902080546060919061151c906127e8565b80601f0160208091040260200160405190810160405280929190818152602001828054611548906127e8565b80156115955780601f1061156a57610100808354040283529160200191611595565b820191906000526020600020905b81548152906001019060200180831161157857829003601f168201915b50505050509050919050565b60606000636bb56a1460e01b8787876040516024016115c29392919061292a565b60408051601f19818403018152918152602080830180517bffffffffffffffffffffffffffffffffffffffffffffffffffffffff166001600160e01b03199095169490941790935251611619928791879101612944565b6040516020818303038152906040529050600080896001600160a01b0316836040516116459190612983565b6000604051808303816000865af19150503d8060008114611682576040519150601f19603f3d011682016040523d82523d6000602084013e611687565b606091505b50915091506116cc82826040518060400160405280602081526020017f43616c6c20746f20756e6976657273616c5265636569766572206661696c6564815250611dda565b5080516000036116dc57806116f0565b808060200190518101906116f0919061274c565b9a9950505050505050505050565b604080517fffffffffffffffffffff00000000000000000000000000000000000000000000841660208201526000602a82018190526bffffffffffffffffffffffff198416602c830152918291016040516020818303038152906040529050806105019061299f565b600254439060009061177b906064906127d0565b9050600061178a6064836127d0565b9050808311156117d7576002839055600380546001600160a01b03191690556040517f81b7f830f1f0084db6497c486cbe6974c86488dcc4e3738eab94ab6d6b1653e790600090a1505050565b8183101561181b576040517f8b9bf50700000000000000000000000000000000000000000000000000000000815260048101839052602481018290526044016103d0565b6118256000610dad565b60006002819055600380546001600160a01b03191690556040517fd1f66c3d2bc1993a86be5e3d33709d98f0442381befcedd29f578b9b2506b1ce9190a1505050565b6003546001600160a01b031633146118e85760405162461bcd60e51b815260206004820152602560248201527f4c535031343a2063616c6c6572206973206e6f74207468652070656e64696e6760448201527f4f776e657200000000000000000000000000000000000000000000000000000060648201526084016103d0565b6118f133610dad565b600380546001600160a01b0319169055565b306001600160a01b03821603611945576040517f43b248cd00000000000000000000000000000000000000000000000000000000815260040160405180910390fd5b600380546001600160a01b0319166001600160a01b03929092169190911790556000600255565b60006001600160e01b031982167f714df77c0000000000000000000000000000000000000000000000000000000014806104ae57506104ae82611df3565b6060824710156119d6576040516301bf351f60e31b8152476004820152602481018490526044016103d0565b826001600160a01b03851660007f4810874456b8e6487bd861375cf6abd8e1c8bb5858c8ce36a86a04dabfac199e611a0d866129c3565b6040516001600160e01b0319909116815260200160405180910390a4600080856001600160a01b03168585604051611a459190612983565b60006040518083038185875af1925050503d8060008114611a82576040519150601f19603f3d011682016040523d82523d6000602084013e611a87565b606091505b5091509150611acc82826040518060400160405280601681526020017f455243373235583a20556e6b6e6f776e204572726f7200000000000000000000815250611dda565b9695505050505050565b606082471015611b02576040516301bf351f60e31b8152476004820152602481018490526044016103d0565b8151600003611b245760405163b81cd8d960e01b815260040160405180910390fd5b600082516020840185f090506001600160a01b038116611b70576040517f0b07489b00000000000000000000000000000000000000000000000000000000815260040160405180910390fd5b6040516bffffffffffffffffffffffff19606083901b166020820152603401604051602081830303815290604052915083816001600160a01b031660017fa1fb700aaee2ae4a2ff6f91ce7eba292f89c2f5488b8ec4c5c5c8150692595c36000801b604051611be191815260200190565b60405180910390a45092915050565b60608151600003611c145760405163b81cd8d960e01b815260040160405180910390fd5b6000611c2d8360208551611c2891906129f7565b611e41565b90506000611c4a84600060208751611c4591906129f7565b610e9d565b90506000611c59868484611ea7565b6040516bffffffffffffffffffffffff19606083901b166020820152909150603401604051602081830303815290604052935085816001600160a01b031660027fa1fb700aaee2ae4a2ff6f91ce7eba292f89c2f5488b8ec4c5c5c8150692595c386604051611cca91815260200190565b60405180910390a450505092915050565b606060006001600160a01b03841660037f4810874456b8e6487bd861375cf6abd8e1c8bb5858c8ce36a86a04dabfac199e611d15866129c3565b6040516001600160e01b0319909116815260200160405180910390a4600080846001600160a01b031684604051611d4c9190612983565b600060405180830381855afa9150503d8060008114611d87576040519150601f19603f3d011682016040523d82523d6000602084013e611d8c565b606091505b5091509150611dd182826040518060400160405280601681526020017f455243373235583a20556e6b6e6f776e204572726f7200000000000000000000815250611dda565b95945050505050565b60608315611de9575081610fc0565b610fc08383611fab565b60006001600160e01b031982167f570ef0730000000000000000000000000000000000000000000000000000000014806104ae57506301ffc9a760e01b6001600160e01b03198316146104ae565b6000611e4e8260206127d0565b83511015611e9e5760405162461bcd60e51b815260206004820152601560248201527f746f427974657333325f6f75744f66426f756e6473000000000000000000000060448201526064016103d0565b50016020015190565b600083471015611ef95760405162461bcd60e51b815260206004820152601d60248201527f437265617465323a20696e73756666696369656e742062616c616e636500000060448201526064016103d0565b8151600003611f4a5760405162461bcd60e51b815260206004820181905260248201527f437265617465323a2062797465636f6465206c656e677468206973207a65726f60448201526064016103d0565b8282516020840186f590506001600160a01b038116610fc05760405162461bcd60e51b815260206004820152601960248201527f437265617465323a204661696c6564206f6e206465706c6f790000000000000060448201526064016103d0565b815115611fbb5781518083602001fd5b8060405162461bcd60e51b81526004016103d09190612465565b600060208284031215611fe757600080fd5b81356001600160e01b031981168114610fc057600080fd5b634e487b7160e01b600052604160045260246000fd5b604051601f8201601f1916810167ffffffffffffffff8111828210171561203e5761203e611fff565b604052919050565b600067ffffffffffffffff82111561206057612060611fff565b5060051b60200190565b600082601f83011261207b57600080fd5b8135602061209061208b83612046565b612015565b82815260059290921b840181019181810190868411156120af57600080fd5b8286015b848110156120ca57803583529183019183016120b3565b509695505050505050565b80356001600160a01b03811681146120ec57600080fd5b919050565b600067ffffffffffffffff82111561210b5761210b611fff565b50601f01601f191660200190565b600082601f83011261212a57600080fd5b813561213861208b826120f1565b81815284602083860101111561214d57600080fd5b816020850160208301376000918101602001919091529392505050565b600082601f83011261217b57600080fd5b8135602061218b61208b83612046565b82815260059290921b840181019181810190868411156121aa57600080fd5b8286015b848110156120ca57803567ffffffffffffffff8111156121ce5760008081fd5b6121dc8986838b0101612119565b8452509183019183016121ae565b6000806000806080858703121561220057600080fd5b843567ffffffffffffffff8082111561221857600080fd5b6122248883890161206a565b955060209150818701358181111561223b57600080fd5b8701601f8101891361224c57600080fd5b803561225a61208b82612046565b81815260059190911b8201840190848101908b83111561227957600080fd5b928501925b8284101561229e5761228f846120d5565b8252928501929085019061227e565b975050505060408701359150808211156122b757600080fd5b6122c38883890161206a565b935060608701359150808211156122d957600080fd5b506122e68782880161216a565b91505092959194509250565b60005b8381101561230d5781810151838201526020016122f5565b838111156106cc5750506000910152565b600081518084526123368160208601602086016122f2565b601f01601f19169290920160200192915050565b6000602080830181845280855180835260408601915060408160051b870101925083870160005b8281101561239f57603f1988860301845261238d85835161231e565b94509285019290850190600101612371565b5092979650505050505050565b600080604083850312156123bf57600080fd5b823567ffffffffffffffff808211156123d757600080fd5b6123e38683870161206a565b935060208501359150808211156123f957600080fd5b506124068582860161216a565b9150509250929050565b6000806000806080858703121561242657600080fd5b84359350612436602086016120d5565b925060408501359150606085013567ffffffffffffffff81111561245957600080fd5b6122e687828801612119565b602081526000610fc0602083018461231e565b60006020828403121561248a57600080fd5b813567ffffffffffffffff8111156124a157600080fd5b6105018482850161206a565b6000602082840312156124bf57600080fd5b5035919050565b600080602083850312156124d957600080fd5b823567ffffffffffffffff808211156124f157600080fd5b818501915085601f83011261250557600080fd5b81358181111561251457600080fd5b8660208260051b850101111561252957600080fd5b60209290920196919550909350505050565b60008060006040848603121561255057600080fd5b83359250602084013567ffffffffffffffff8082111561256f57600080fd5b818601915086601f83011261258357600080fd5b81358181111561259257600080fd5b8760208285010111156125a457600080fd5b6020830194508093505050509250925092565b600080604083850312156125ca57600080fd5b82359150602083013567ffffffffffffffff8111156125e857600080fd5b61240685828601612119565b60006020828403121561260657600080fd5b610fc0826120d5565b634e487b7160e01b600052603260045260246000fd5b6000808335601e1984360301811261263c57600080fd5b83018035915067ffffffffffffffff82111561265757600080fd5b60200191503681900382131561266c57600080fd5b9250929050565b8183823760009101908152919050565b805160208201516bffffffffffffffffffffffff1980821692919060148310156126b75780818460140360031b1b83161693505b505050919050565b6040815260006126d2604083018561231e565b8281036020840152611dd1818561231e565b81835281816020850137506000828201602090810191909152601f909101601f19169091010190565b6040815260006127216040830185876126e4565b8281036020840152611acc818561231e565b828152604060208201526000610501604083018461231e565b60006020828403121561275e57600080fd5b815167ffffffffffffffff81111561277557600080fd5b8201601f8101841361278657600080fd5b805161279461208b826120f1565b8181528560208385010111156127a957600080fd5b611dd18260208301602086016122f2565b634e487b7160e01b600052601160045260246000fd5b600082198211156127e3576127e36127ba565b500190565b600181811c908216806127fc57607f821691505b6020821081036107ca57634e487b7160e01b600052602260045260246000fd5b601f82111561040d57600081815260208120601f850160051c810160208610156128435750805b601f850160051c820191505b818110156128625782815560010161284f565b505050505050565b815167ffffffffffffffff81111561288457612884611fff565b6128988161289284546127e8565b8461281c565b602080601f8311600181146128cd57600084156128b55750858301515b600019600386901b1c1916600185901b178555612862565b600085815260208120601f198616915b828110156128fc578886015182559484019460019091019084016128dd565b508582101561291a5787850151600019600388901b60f8161c191681555b5050505050600190811b01905550565b8381526040602082015260006104fe6040830184866126e4565b600084516129568184602089016122f2565b60609490941b6bffffffffffffffffffffffff191691909301908152601481019190915260340192915050565b600082516129958184602087016122f2565b9190910192915050565b805160208083015191908110156107ca5760001960209190910360031b1b16919050565b6000815160208301516001600160e01b0319808216935060048310156126b75760049290920360031b82901b161692915050565b600082821015612a0957612a096127ba565b50039056fea264697066735822122042136bc0ee7a198206f434f7cf98afd3d976e534466961b930a85717bb06834f64736f6c634300080f0033",
  "linkReferences": {},
  "deployedLinkReferences": {}
}