{
  "_format": "hh-sol-artifact-1",
  "contractName": "LSP9VaultInit",
  "sourceName": "contracts/LSP9Vault/LSP9VaultInit.sol",
  "abi": [
    {
      "inputs": [],
      "stateMutability": "nonpayable",
      "type": "constructor"
    },
    {
      "inputs": [],
      "name": "CannotTransferOwnershipToSelf",
      "type": "error"
    },
    {
      "inputs": [],
      "name": "ERC725X_ContractDeploymentFailed",
      "type": "error"
    },
    {
      "inputs": [],
      "name": "ERC725X_CreateOperationsRequireEmptyRecipientAddress",
      "type": "error"
    },
    {
      "inputs": [],
      "name": "ERC725X_ExecuteParametersLengthMismatch",
      "type": "error"
    },
    {
      "inputs": [
        {
          "internalType": "uint256",
          "name": "balance",
          "type": "uint256"
        },
        {
          "internalType": "uint256",
          "name": "value",
          "type": "uint256"
        }
      ],
      "name": "ERC725X_InsufficientBalance",
      "type": "error"
    },
    {
      "inputs": [],
      "name": "ERC725X_MsgValueDisallowedInStaticCall",
      "type": "error"
    },
    {
      "inputs": [],
      "name": "ERC725X_NoContractBytecodeProvided",
      "type": "error"
    },
    {
      "inputs": [
        {
          "internalType": "uint256",
          "name": "operationTypeProvided",
          "type": "uint256"
        }
      ],
      "name": "ERC725X_UnknownOperationType",
      "type": "error"
    },
    {
      "inputs": [
        {
          "internalType": "uint256",
          "name": "dataKeysLength",
          "type": "uint256"
        },
        {
          "internalType": "uint256",
          "name": "dataValuesLength",
          "type": "uint256"
        }
      ],
      "name": "ERC725Y_DataKeysValuesLengthMismatch",
      "type": "error"
    },
    {
      "inputs": [],
      "name": "ERC725Y_MsgValueDisallowed",
      "type": "error"
    },
    {
      "inputs": [
        {
          "internalType": "bytes32",
          "name": "dataKey",
          "type": "bytes32"
        }
      ],
      "name": "LSP1DelegateNotAllowedToSetDataKey",
      "type": "error"
    },
    {
      "inputs": [
        {
          "internalType": "bytes4",
          "name": "functionSelector",
          "type": "bytes4"
        }
      ],
      "name": "NoExtensionFoundForFunctionSelector",
      "type": "error"
    },
    {
      "inputs": [
        {
          "internalType": "uint256",
          "name": "renounceOwnershipStart",
          "type": "uint256"
        },
        {
          "internalType": "uint256",
          "name": "renounceOwnershipEnd",
          "type": "uint256"
        }
      ],
      "name": "NotInRenounceOwnershipInterval",
      "type": "error"
    },
    {
      "anonymous": false,
      "inputs": [
        {
          "indexed": true,
          "internalType": "uint256",
          "name": "operationType",
          "type": "uint256"
        },
        {
          "indexed": true,
          "internalType": "address",
          "name": "contractAddress",
          "type": "address"
        },
        {
          "indexed": true,
          "internalType": "uint256",
          "name": "value",
          "type": "uint256"
        },
        {
          "indexed": false,
          "internalType": "bytes32",
          "name": "salt",
          "type": "bytes32"
        }
      ],
      "name": "ContractCreated",
      "type": "event"
    },
    {
      "anonymous": false,
      "inputs": [
        {
          "indexed": true,
          "internalType": "bytes32",
          "name": "dataKey",
          "type": "bytes32"
        },
        {
          "indexed": false,
          "internalType": "bytes",
          "name": "dataValue",
          "type": "bytes"
        }
      ],
      "name": "DataChanged",
      "type": "event"
    },
    {
      "anonymous": false,
      "inputs": [
        {
          "indexed": true,
          "internalType": "uint256",
          "name": "operationType",
          "type": "uint256"
        },
        {
          "indexed": true,
          "internalType": "address",
          "name": "target",
          "type": "address"
        },
        {
          "indexed": true,
          "internalType": "uint256",
          "name": "value",
          "type": "uint256"
        },
        {
          "indexed": false,
          "internalType": "bytes4",
          "name": "selector",
          "type": "bytes4"
        }
      ],
      "name": "Executed",
      "type": "event"
    },
    {
      "anonymous": false,
      "inputs": [
        {
          "indexed": false,
          "internalType": "uint8",
          "name": "version",
          "type": "uint8"
        }
      ],
      "name": "Initialized",
      "type": "event"
    },
    {
      "anonymous": false,
      "inputs": [],
      "name": "OwnershipRenounced",
      "type": "event"
    },
    {
      "anonymous": false,
      "inputs": [
        {
          "indexed": true,
          "internalType": "address",
          "name": "previousOwner",
          "type": "address"
        },
        {
          "indexed": true,
          "internalType": "address",
          "name": "newOwner",
          "type": "address"
        }
      ],
      "name": "OwnershipTransferStarted",
      "type": "event"
    },
    {
      "anonymous": false,
      "inputs": [
        {
          "indexed": true,
          "internalType": "address",
          "name": "previousOwner",
          "type": "address"
        },
        {
          "indexed": true,
          "internalType": "address",
          "name": "newOwner",
          "type": "address"
        }
      ],
      "name": "OwnershipTransferred",
      "type": "event"
    },
    {
      "anonymous": false,
      "inputs": [],
      "name": "RenounceOwnershipStarted",
      "type": "event"
    },
    {
      "anonymous": false,
      "inputs": [
        {
          "indexed": true,
          "internalType": "address",
          "name": "from",
          "type": "address"
        },
        {
          "indexed": true,
          "internalType": "uint256",
          "name": "value",
          "type": "uint256"
        },
        {
          "indexed": true,
          "internalType": "bytes32",
          "name": "typeId",
          "type": "bytes32"
        },
        {
          "indexed": false,
          "internalType": "bytes",
          "name": "receivedData",
          "type": "bytes"
        },
        {
          "indexed": false,
          "internalType": "bytes",
          "name": "returnedValue",
          "type": "bytes"
        }
      ],
      "name": "UniversalReceiver",
      "type": "event"
    },
    {
      "anonymous": false,
      "inputs": [
        {
          "indexed": true,
          "internalType": "address",
          "name": "sender",
          "type": "address"
        },
        {
          "indexed": true,
          "internalType": "uint256",
          "name": "value",
          "type": "uint256"
        }
      ],
      "name": "ValueReceived",
      "type": "event"
    },
    {
      "stateMutability": "payable",
      "type": "fallback"
    },
    {
      "inputs": [],
      "name": "RENOUNCE_OWNERSHIP_CONFIRMATION_DELAY",
      "outputs": [
        {
          "internalType": "uint256",
          "name": "",
          "type": "uint256"
        }
      ],
      "stateMutability": "view",
      "type": "function"
    },
    {
      "inputs": [],
      "name": "RENOUNCE_OWNERSHIP_CONFIRMATION_PERIOD",
      "outputs": [
        {
          "internalType": "uint256",
          "name": "",
          "type": "uint256"
        }
      ],
      "stateMutability": "view",
      "type": "function"
    },
    {
      "inputs": [],
      "name": "acceptOwnership",
      "outputs": [],
      "stateMutability": "nonpayable",
      "type": "function"
    },
    {
      "inputs": [
        {
          "internalType": "bytes[]",
          "name": "data",
          "type": "bytes[]"
        }
      ],
      "name": "batchCalls",
      "outputs": [
        {
          "internalType": "bytes[]",
          "name": "results",
          "type": "bytes[]"
        }
      ],
      "stateMutability": "nonpayable",
      "type": "function"
    },
    {
      "inputs": [
        {
          "internalType": "uint256[]",
          "name": "operationsType",
          "type": "uint256[]"
        },
        {
          "internalType": "address[]",
          "name": "targets",
          "type": "address[]"
        },
        {
          "internalType": "uint256[]",
          "name": "values",
          "type": "uint256[]"
        },
        {
          "internalType": "bytes[]",
          "name": "datas",
          "type": "bytes[]"
        }
      ],
      "name": "execute",
      "outputs": [
        {
          "internalType": "bytes[]",
          "name": "",
          "type": "bytes[]"
        }
      ],
      "stateMutability": "payable",
      "type": "function"
    },
    {
      "inputs": [
        {
          "internalType": "uint256",
          "name": "operationType",
          "type": "uint256"
        },
        {
          "internalType": "address",
          "name": "target",
          "type": "address"
        },
        {
          "internalType": "uint256",
          "name": "value",
          "type": "uint256"
        },
        {
          "internalType": "bytes",
          "name": "data",
          "type": "bytes"
        }
      ],
      "name": "execute",
      "outputs": [
        {
          "internalType": "bytes",
          "name": "",
          "type": "bytes"
        }
      ],
      "stateMutability": "payable",
      "type": "function"
    },
    {
      "inputs": [
        {
          "internalType": "bytes32[]",
          "name": "dataKeys",
          "type": "bytes32[]"
        }
      ],
      "name": "getData",
      "outputs": [
        {
          "internalType": "bytes[]",
          "name": "dataValues",
          "type": "bytes[]"
        }
      ],
      "stateMutability": "view",
      "type": "function"
    },
    {
      "inputs": [
        {
          "internalType": "bytes32",
          "name": "dataKey",
          "type": "bytes32"
        }
      ],
      "name": "getData",
      "outputs": [
        {
          "internalType": "bytes",
          "name": "dataValue",
          "type": "bytes"
        }
      ],
      "stateMutability": "view",
      "type": "function"
    },
    {
      "inputs": [
        {
          "internalType": "address",
          "name": "newOwner",
          "type": "address"
        }
      ],
      "name": "initialize",
      "outputs": [],
      "stateMutability": "payable",
      "type": "function"
    },
    {
      "inputs": [],
      "name": "owner",
      "outputs": [
        {
          "internalType": "address",
          "name": "",
          "type": "address"
        }
      ],
      "stateMutability": "view",
      "type": "function"
    },
    {
      "inputs": [],
      "name": "pendingOwner",
      "outputs": [
        {
          "internalType": "address",
          "name": "",
          "type": "address"
        }
      ],
      "stateMutability": "view",
      "type": "function"
    },
    {
      "inputs": [],
      "name": "renounceOwnership",
      "outputs": [],
      "stateMutability": "nonpayable",
      "type": "function"
    },
    {
      "inputs": [
        {
          "internalType": "bytes32[]",
          "name": "dataKeys",
          "type": "bytes32[]"
        },
        {
          "internalType": "bytes[]",
          "name": "dataValues",
          "type": "bytes[]"
        }
      ],
      "name": "setData",
      "outputs": [],
      "stateMutability": "payable",
      "type": "function"
    },
    {
      "inputs": [
        {
          "internalType": "bytes32",
          "name": "dataKey",
          "type": "bytes32"
        },
        {
          "internalType": "bytes",
          "name": "dataValue",
          "type": "bytes"
        }
      ],
      "name": "setData",
      "outputs": [],
      "stateMutability": "payable",
      "type": "function"
    },
    {
      "inputs": [
        {
          "internalType": "bytes4",
          "name": "interfaceId",
          "type": "bytes4"
        }
      ],
      "name": "supportsInterface",
      "outputs": [
        {
          "internalType": "bool",
          "name": "",
          "type": "bool"
        }
      ],
      "stateMutability": "view",
      "type": "function"
    },
    {
      "inputs": [
        {
          "internalType": "address",
          "name": "newOwner",
          "type": "address"
        }
      ],
      "name": "transferOwnership",
      "outputs": [],
      "stateMutability": "nonpayable",
      "type": "function"
    },
    {
      "inputs": [
        {
          "internalType": "bytes32",
          "name": "typeId",
          "type": "bytes32"
        },
        {
          "internalType": "bytes",
          "name": "receivedData",
          "type": "bytes"
        }
      ],
      "name": "universalReceiver",
      "outputs": [
        {
          "internalType": "bytes",
          "name": "returnedValues",
          "type": "bytes"
        }
      ],
      "stateMutability": "payable",
      "type": "function"
    },
    {
      "stateMutability": "payable",
      "type": "receive"
    }
  ],
  "bytecode": "0x60806040523480156200001157600080fd5b506200001c62000022565b620000e4565b600054610100900460ff16156200008f5760405162461bcd60e51b815260206004820152602760248201527f496e697469616c697a61626c653a20636f6e747261637420697320696e697469604482015266616c697a696e6760c81b606482015260840160405180910390fd5b60005460ff9081161015620000e2576000805460ff191660ff9081179091556040519081527f7f26b83ff96e1f2b6a682f133852f6798a09c465da95921460cefb38474024989060200160405180910390a15b565b612d4580620000f46000396000f3fe6080604052600436106101125760003560e01c80636bb56a14116100a55780638da5cb5b11610074578063e30c397811610059578063e30c39781461033a578063ead3fbdf14610194578063f2fde38b146103585761014d565b80638da5cb5b146102ef578063c4d66de8146103275761014d565b80636bb56a141461029f578063715018a6146102b257806379ba5097146102c75780637f23690c146102dc5761014d565b806344c028fe116100e157806344c028fe1461021f5780634e3e6e9c1461023f57806354f6127f1461025f5780636963d4381461027f5761014d565b806301bfba611461019457806301ffc9a7146101bc57806313ced88d146101ec57806314a6e2931461020c5761014d565b3661014d57341561014b57604051349033907f7e71433ddf847725166244795048ecf3e3f9f35628254ecbf73605666423349390600090a35b005b341561018157604051349033907f7e71433ddf847725166244795048ecf3e3f9f35628254ecbf73605666423349390600090a35b600436101561018c57005b61014b610378565b3480156101a057600080fd5b506101a9606481565b6040519081526020015b60405180910390f35b3480156101c857600080fd5b506101dc6101d73660046122d6565b610446565b60405190151581526020016101b3565b6101ff6101fa3660046124eb565b6104e8565b6040516101b3919061264b565b61014b61021a3660046126ad565b61053d565b61023261022d366004612711565b610706565b6040516101b39190612766565b34801561024b57600080fd5b506101ff61025a366004612779565b610750565b34801561026b57600080fd5b5061023261027a3660046127ae565b610804565b34801561028b57600080fd5b506101ff61029a3660046127c7565b61080f565b6102326102ad36600461283c565b61097b565b3480156102be57600080fd5b5061014b610b51565b3480156102d357600080fd5b5061014b610b63565b61014b6102ea3660046128b8565b610c01565b3480156102fb57600080fd5b506000546201000090046001600160a01b03165b6040516001600160a01b0390911681526020016101b3565b61014b6103353660046128f5565b610ccd565b34801561034657600080fd5b506003546001600160a01b031661030f565b34801561036457600080fd5b5061014b6103733660046128f5565b610def565b600061038f6000356001600160e01b031916610f11565b90506000356001600160e01b0319161580156103b257506001600160a01b038116155b156103ba5750565b6001600160a01b03811661040d576040517fbb370b2b0000000000000000000000000000000000000000000000000000000081526001600160e01b03196000351660048201526024015b60405180910390fd5b36600080373360601b365234601436015260008060343601600080855af13d6000803e80801561043c573d6000f35b3d6000fd5b505050565b60006001600160e01b031982167f19331ad100000000000000000000000000000000000000000000000000000000148061049057506001600160e01b03198216631aed5a8560e21b145b806104c457506001600160e01b031982167f94be599900000000000000000000000000000000000000000000000000000000145b806104d357506104d382610f56565b806104e257506104e282610f94565b92915050565b60606104f2610fd1565b341561052657604051349033907f7e71433ddf847725166244795048ecf3e3f9f35628254ecbf73605666423349390600090a35b61053285858585611032565b90505b949350505050565b6000610547611190565b9050815183511461059157825182516040517f43a3c26600000000000000000000000000000000000000000000000000000000815260048101929092526024820152604401610404565b34156105b05760405163f36ba73760e01b815260040160405180910390fd5b60005b83518110156107005781156106bc578351690cfc51aec37c55a4d0b160b01b908590839081106105e5576105e5612910565b60200260200101516001600160a01b031916148061064457508351654b80742de2bf60d01b9085908390811061061d5761061d612910565b602002602001015179ffffffffffffffffffffffffffffffffffffffffffffffffffff1916145b8061068157508351696773c5a04a6d4300884b60b11b9085908390811061066d5761066d612910565b60200260200101516001600160a01b031916145b156106bc5783818151811061069857610698612910565b602002602001015160405163199611f160e01b815260040161040491815260200190565b6106f88482815181106106d1576106d1612910565b60200260200101518483815181106106eb576106eb612910565b6020026020010151611242565b6001016105b3565b50505050565b6060610710610fd1565b341561074457604051349033907f7e71433ddf847725166244795048ecf3e3f9f35628254ecbf73605666423349390600090a35b610532858585856112b6565b6060815167ffffffffffffffff81111561076c5761076c612300565b60405190808252806020026020018201604052801561079f57816020015b606081526020019060019003908161078a5790505b50905060005b82518110156107fe576107d08382815181106107c3576107c3612910565b60200260200101516113c2565b8282815181106107e2576107e2612910565b60200260200101819052506107f78160010190565b90506107a5565b50919050565b60606104e2826113c2565b60608167ffffffffffffffff81111561082a5761082a612300565b60405190808252806020026020018201604052801561085d57816020015b60608152602001906001900390816108485790505b50905060005b82811015610974576000803086868581811061088157610881612910565b90506020028101906108939190612926565b6040516108a1929190612974565b600060405180830381855af49150503d80600081146108dc576040519150601f19603f3d011682016040523d82523d6000602084013e6108e1565b606091505b509150915081610943578051156108fb5780518082602001fd5b60405162461bcd60e51b815260206004820152601960248201527f4c5350393a20626174636843616c6c73207265766572746564000000000000006044820152606401610404565b8084848151811061095657610956612910565b6020026020010181905250505061096d8160010190565b9050610863565b5092915050565b606034156109b157604051349033907f7e71433ddf847725166244795048ecf3e3f9f35628254ecbf73605666423349390600090a35b60006109dc7f0cfc51aec37c55a4d0b1a65c6255c4bf2fbdf6277f3cc0730c45b828b6db8b476113c2565b905060606014825110610a405760006109f483612984565b60601c9050610a0a81631aed5a8560e21b611464565b15610a3e57600480546001600160a01b0319166001600160a01b038316908117909155610a3b908888883334611502565b91505b505b6000610a59690cfc51aec37c55a4d0b160b01b8861165f565b90506000610a66826113c2565b905060606014825110610aca576000610a7e83612984565b60601c9050610a9481631aed5a8560e21b611464565b15610ac857600480546001600160a01b0319166001600160a01b038316908117909155610ac5908b8b8b3334611502565b91505b505b600480546001600160a01b0319169055604051610aed90859083906020016129c0565b60405160208183030381529060405295508834336001600160a01b03167f9c3ba68eb5742b8e3961aea0afc7371a71bf433c8a67a831803b64c064a178c28b8b8b604051610b3d93929190612a0e565b60405180910390a450505050509392505050565b610b59610fd1565b610b616116c8565b565b6000546201000090046001600160a01b0316610b7d6117c9565b604080516020810190915260008152610bc2906001600160a01b038316907f0c622e58e6b7089ae35f1af1c86d997be92fcdd8c9509652022d41aa6516947190611864565b604080516020810190915260008152610bfe9033907f79855c97dbc259ce395421d933d7bc0699b0f1561f988f09a9e8633fd542fe5c90611864565b50565b3415610c205760405163f36ba73760e01b815260040160405180910390fd5b6000610c2a611190565b90508015610cc3576001600160a01b03198316690cfc51aec37c55a4d0b160b01b1480610c8157507fffffffffffff00000000000000000000000000000000000000000000000000008316654b80742de2bf60d01b145b80610ca257506001600160a01b03198316696773c5a04a6d4300884b60b11b145b15610cc35760405163199611f160e01b815260048101849052602401610404565b6104418383611242565b600054610100900460ff1615808015610ced5750600054600160ff909116105b80610d075750303b158015610d07575060005460ff166001145b610d795760405162461bcd60e51b815260206004820152602e60248201527f496e697469616c697a61626c653a20636f6e747261637420697320616c72656160448201527f647920696e697469616c697a65640000000000000000000000000000000000006064820152608401610404565b6000805460ff191660011790558015610d9c576000805461ff0019166101001790555b610da5826118ef565b8015610deb576000805461ff0019169055604051600181527f7f26b83ff96e1f2b6a682f133852f6798a09c465da95921460cefb38474024989060200160405180910390a15b5050565b610df7610fd1565b610e0081611a50565b600080546040516001600160a01b03620100009092048216929184169183917f38d16b8cac22d99fc7c124b9cd0de2d3fa1faef420bfe791d8c362d765e227009190a3604080516020810190915260008152610e88906001600160a01b038416907faefd43f45fed1bcd8992f23c803b6f4ec45cf6b62b0d404d565f290a471e763f90611864565b6000546001600160a01b03828116620100009092041614610deb5760405162461bcd60e51b815260206004820152603f60248201527f4c535031343a206e65774f776e6572204d55535420616363657074206f776e6560448201527f727368697020696e2061207365706172617465207472616e73616374696f6e006064820152608401610404565b600080610f35696773c5a04a6d4300884b60b11b6001600160e01b0319851661165f565b90506000610f42826113c2565b610f4b90612984565b60601c949350505050565b60006001600160e01b031982167fa918fa6b0000000000000000000000000000000000000000000000000000000014806104e257506104e282611ab9565b600080610fa76301ffc9a760e01b610f11565b90506001600160a01b038116610fc05750600092915050565b610fca8184611464565b9392505050565b6000546001600160a01b0362010000909104163314610b615760405162461bcd60e51b815260206004820181905260248201527f4f776e61626c653a2063616c6c6572206973206e6f7420746865206f776e65726044820152606401610404565b60608351855114158061105357508251845114158061105357508151835114155b1561108a576040517f3ff55f4d00000000000000000000000000000000000000000000000000000000815260040160405180910390fd5b6000855167ffffffffffffffff8111156110a6576110a6612300565b6040519080825280602002602001820160405280156110d957816020015b60608152602001906001900390816110c45790505b50905060005b8651811015611186576111588782815181106110fd576110fd612910565b602002602001015187838151811061111757611117612910565b602002602001015187848151811061113157611131612910565b602002602001015187858151811061114b5761114b612910565b60200260200101516112b6565b82828151811061116a5761116a612910565b602002602001018190525061117f8160010190565b90506110df565b5095945050505050565b600080546201000090046001600160a01b03166001600160a01b0316336001600160a01b03161461123f576004546001600160a01b0316331461123b5760405162461bcd60e51b815260206004820152603b60248201527f4f6e6c79204f776e6572206f72207265656e746572656420556e69766572736160448201527f6c2052656365697665722044656c656761746520616c6c6f77656400000000006064820152608401610404565b5060015b90565b600082815260016020526040902061125a8282612ab6565b50817fece574603820d07bc9b91f2a932baadf4628aabcb8afba49776529c14a6104b26101008351111561129b57611296836000610100611af7565b61129d565b825b6040516112aa9190612766565b60405180910390a25050565b6060846112cf576112c8848484611c1f565b9050610535565b60018503611309576001600160a01b038416156112ff57604051631820c12560e11b815260040160405180910390fd5b6112c88383611d4b565b60028503611343576001600160a01b0384161561133957604051631820c12560e11b815260040160405180910390fd5b6112c88383611e65565b6003850361138d578215611383576040517f72f2bc6a00000000000000000000000000000000000000000000000000000000815260040160405180910390fd5b6112c88483611f50565b6040517f7583b3bc00000000000000000000000000000000000000000000000000000000815260048101869052602401610404565b60008181526001602052604090208054606091906113df90612a34565b80601f016020809104026020016040519081016040528092919081815260200182805461140b90612a34565b80156114585780601f1061142d57610100808354040283529160200191611458565b820191906000526020600020905b81548152906001019060200180831161143b57829003601f168201915b50505050509050919050565b604080516001600160e01b03198316602480830191909152825180830390910181526044909101909152602080820180517bffffffffffffffffffffffffffffffffffffffffffffffffffffffff166301ffc9a760e01b178152825160009392849283928392918391908a617530fa92503d915060005190508280156114eb575060208210155b80156114f75750600081115b979650505050505050565b60606000636bb56a1460e01b87878760405160240161152393929190612b76565b60408051601f19818403018152918152602080830180517bffffffffffffffffffffffffffffffffffffffffffffffffffffffff166001600160e01b0319909516949094179093525161157a928791879101612b90565b6040516020818303038152906040529050600080896001600160a01b0316836040516115a69190612bcf565b6000604051808303816000865af19150503d80600081146115e3576040519150601f19603f3d011682016040523d82523d6000602084013e6115e8565b606091505b509150915061162d82826040518060400160405280602081526020017f43616c6c20746f20756e6976657273616c5265636569766572206661696c656481525061204f565b50805160000361163d5780611651565b808060200190518101906116519190612beb565b9a9950505050505050505050565b604080517fffffffffffffffffffff00000000000000000000000000000000000000000000841660208201526000602a82018190526bffffffffffffffffffffffff198416602c8301529182910160405160208183030381529060405290508061053590612c59565b60025443906000906116dc90606490612c93565b905060006116eb606483612c93565b905080831115611738576002839055600380546001600160a01b03191690556040517f81b7f830f1f0084db6497c486cbe6974c86488dcc4e3738eab94ab6d6b1653e790600090a1505050565b8183101561177c576040517f8b9bf5070000000000000000000000000000000000000000000000000000000081526004810183905260248101829052604401610404565b6117866000612068565b60006002819055600380546001600160a01b03191690556040517fd1f66c3d2bc1993a86be5e3d33709d98f0442381befcedd29f578b9b2506b1ce9190a1505050565b6003546001600160a01b031633146118495760405162461bcd60e51b815260206004820152602560248201527f4c535031343a2063616c6c6572206973206e6f74207468652070656e64696e6760448201527f4f776e65720000000000000000000000000000000000000000000000000000006064820152608401610404565b61185233612068565b600380546001600160a01b0319169055565b61187583631aed5a8560e21b611464565b1561044157604051631aed5a8560e21b81526001600160a01b03841690636bb56a14906118a89085908590600401612cab565b6000604051808303816000875af11580156118c7573d6000803e3d6000fd5b505050506040513d6000823e601f3d908101601f191682016040526107009190810190612beb565b600054610100900460ff1661196c5760405162461bcd60e51b815260206004820152602b60248201527f496e697469616c697a61626c653a20636f6e7472616374206973206e6f74206960448201527f6e697469616c697a696e670000000000000000000000000000000000000000006064820152608401610404565b34156119a057604051349033907f7e71433ddf847725166244795048ecf3e3f9f35628254ecbf73605666423349390600090a35b6119a981612068565b611a0b7feafec4d89fa9619884b600007c0334a14085fefa8b51ae5a40895018882bdb9060001b6040518060400160405280600481526020017f7c0334a100000000000000000000000000000000000000000000000000000000815250611242565b604080516020810190915260008152610bfe906001600160a01b038316907f79855c97dbc259ce395421d933d7bc0699b0f1561f988f09a9e8633fd542fe5c90611864565b306001600160a01b03821603611a92576040517f43b248cd00000000000000000000000000000000000000000000000000000000815260040160405180910390fd5b600380546001600160a01b0319166001600160a01b03929092169190911790556000600255565b60006001600160e01b031982167f714df77c0000000000000000000000000000000000000000000000000000000014806104e257506104e2826120f4565b606081611b0581601f612c93565b1015611b535760405162461bcd60e51b815260206004820152600e60248201527f736c6963655f6f766572666c6f770000000000000000000000000000000000006044820152606401610404565b611b5d8284612c93565b84511015611bad5760405162461bcd60e51b815260206004820152601160248201527f736c6963655f6f75744f66426f756e64730000000000000000000000000000006044820152606401610404565b606082158015611bcc5760405191506000825260208201604052611c16565b6040519150601f8416801560200281840101858101878315602002848b0101015b81831015611c05578051835260209283019201611bed565b5050858452601f01601f1916604052505b50949350505050565b606082471015611c4b576040516301bf351f60e31b815247600482015260248101849052604401610404565b826001600160a01b03851660007f4810874456b8e6487bd861375cf6abd8e1c8bb5858c8ce36a86a04dabfac199e611c8286612cc4565b6040516001600160e01b0319909116815260200160405180910390a4600080856001600160a01b03168585604051611cba9190612bcf565b60006040518083038185875af1925050503d8060008114611cf7576040519150601f19603f3d011682016040523d82523d6000602084013e611cfc565b606091505b5091509150611d4182826040518060400160405280601681526020017f455243373235583a20556e6b6e6f776e204572726f720000000000000000000081525061204f565b9695505050505050565b606082471015611d77576040516301bf351f60e31b815247600482015260248101849052604401610404565b8151600003611d995760405163b81cd8d960e01b815260040160405180910390fd5b600082516020840185f090506001600160a01b038116611de5576040517f0b07489b00000000000000000000000000000000000000000000000000000000815260040160405180910390fd5b6040516bffffffffffffffffffffffff19606083901b166020820152603401604051602081830303815290604052915083816001600160a01b031660017fa1fb700aaee2ae4a2ff6f91ce7eba292f89c2f5488b8ec4c5c5c8150692595c36000801b604051611e5691815260200190565b60405180910390a45092915050565b60608151600003611e895760405163b81cd8d960e01b815260040160405180910390fd5b6000611ea28360208551611e9d9190612cf8565b612142565b90506000611ebf84600060208751611eba9190612cf8565b611af7565b90506000611ece8684846121a8565b6040516bffffffffffffffffffffffff19606083901b166020820152909150603401604051602081830303815290604052935085816001600160a01b031660027fa1fb700aaee2ae4a2ff6f91ce7eba292f89c2f5488b8ec4c5c5c8150692595c386604051611f3f91815260200190565b60405180910390a450505092915050565b606060006001600160a01b03841660037f4810874456b8e6487bd861375cf6abd8e1c8bb5858c8ce36a86a04dabfac199e611f8a86612cc4565b6040516001600160e01b0319909116815260200160405180910390a4600080846001600160a01b031684604051611fc19190612bcf565b600060405180830381855afa9150503d8060008114611ffc576040519150601f19603f3d011682016040523d82523d6000602084013e612001565b606091505b509150915061204682826040518060400160405280601681526020017f455243373235583a20556e6b6e6f776e204572726f720000000000000000000081525061204f565b95945050505050565b6060831561205e575081610fca565b610fca83836122ac565b6000546001600160a01b03828116620100009092041614610bfe57600080546001600160a01b03838116620100008181027fffffffffffffffffffff0000000000000000000000000000000000000000ffff851617855560405193049190911692909183917f8be0079c531659141344cd1fd0a4f28419497f9722a3daafe3b4186f6b6457e091a35050565b60006001600160e01b031982167f570ef0730000000000000000000000000000000000000000000000000000000014806104e257506301ffc9a760e01b6001600160e01b03198316146104e2565b600061214f826020612c93565b8351101561219f5760405162461bcd60e51b815260206004820152601560248201527f746f427974657333325f6f75744f66426f756e647300000000000000000000006044820152606401610404565b50016020015190565b6000834710156121fa5760405162461bcd60e51b815260206004820152601d60248201527f437265617465323a20696e73756666696369656e742062616c616e63650000006044820152606401610404565b815160000361224b5760405162461bcd60e51b815260206004820181905260248201527f437265617465323a2062797465636f6465206c656e677468206973207a65726f6044820152606401610404565b8282516020840186f590506001600160a01b038116610fca5760405162461bcd60e51b815260206004820152601960248201527f437265617465323a204661696c6564206f6e206465706c6f79000000000000006044820152606401610404565b8151156122bc5781518083602001fd5b8060405162461bcd60e51b81526004016104049190612766565b6000602082840312156122e857600080fd5b81356001600160e01b031981168114610fca57600080fd5b634e487b7160e01b600052604160045260246000fd5b604051601f8201601f1916810167ffffffffffffffff8111828210171561233f5761233f612300565b604052919050565b600067ffffffffffffffff82111561236157612361612300565b5060051b60200190565b600082601f83011261237c57600080fd5b8135602061239161238c83612347565b612316565b82815260059290921b840181019181810190868411156123b057600080fd5b8286015b848110156123cb57803583529183019183016123b4565b509695505050505050565b80356001600160a01b03811681146123ed57600080fd5b919050565b600067ffffffffffffffff82111561240c5761240c612300565b50601f01601f191660200190565b600082601f83011261242b57600080fd5b813561243961238c826123f2565b81815284602083860101111561244e57600080fd5b816020850160208301376000918101602001919091529392505050565b600082601f83011261247c57600080fd5b8135602061248c61238c83612347565b82815260059290921b840181019181810190868411156124ab57600080fd5b8286015b848110156123cb57803567ffffffffffffffff8111156124cf5760008081fd5b6124dd8986838b010161241a565b8452509183019183016124af565b6000806000806080858703121561250157600080fd5b843567ffffffffffffffff8082111561251957600080fd5b6125258883890161236b565b955060209150818701358181111561253c57600080fd5b8701601f8101891361254d57600080fd5b803561255b61238c82612347565b81815260059190911b8201840190848101908b83111561257a57600080fd5b928501925b8284101561259f57612590846123d6565b8252928501929085019061257f565b975050505060408701359150808211156125b857600080fd5b6125c48883890161236b565b935060608701359150808211156125da57600080fd5b506125e78782880161246b565b91505092959194509250565b60005b8381101561260e5781810151838201526020016125f6565b838111156107005750506000910152565b600081518084526126378160208601602086016125f3565b601f01601f19169290920160200192915050565b6000602080830181845280855180835260408601915060408160051b870101925083870160005b828110156126a057603f1988860301845261268e85835161261f565b94509285019290850190600101612672565b5092979650505050505050565b600080604083850312156126c057600080fd5b823567ffffffffffffffff808211156126d857600080fd5b6126e48683870161236b565b935060208501359150808211156126fa57600080fd5b506127078582860161246b565b9150509250929050565b6000806000806080858703121561272757600080fd5b84359350612737602086016123d6565b925060408501359150606085013567ffffffffffffffff81111561275a57600080fd5b6125e78782880161241a565b602081526000610fca602083018461261f565b60006020828403121561278b57600080fd5b813567ffffffffffffffff8111156127a257600080fd5b6105358482850161236b565b6000602082840312156127c057600080fd5b5035919050565b600080602083850312156127da57600080fd5b823567ffffffffffffffff808211156127f257600080fd5b818501915085601f83011261280657600080fd5b81358181111561281557600080fd5b8660208260051b850101111561282a57600080fd5b60209290920196919550909350505050565b60008060006040848603121561285157600080fd5b83359250602084013567ffffffffffffffff8082111561287057600080fd5b818601915086601f83011261288457600080fd5b81358181111561289357600080fd5b8760208285010111156128a557600080fd5b6020830194508093505050509250925092565b600080604083850312156128cb57600080fd5b82359150602083013567ffffffffffffffff8111156128e957600080fd5b6127078582860161241a565b60006020828403121561290757600080fd5b610fca826123d6565b634e487b7160e01b600052603260045260246000fd5b6000808335601e1984360301811261293d57600080fd5b83018035915067ffffffffffffffff82111561295857600080fd5b60200191503681900382131561296d57600080fd5b9250929050565b8183823760009101908152919050565b805160208201516bffffffffffffffffffffffff1980821692919060148310156129b85780818460140360031b1b83161693505b505050919050565b6040815260006129d3604083018561261f565b8281036020840152612046818561261f565b81835281816020850137506000828201602090810191909152601f909101601f19169091010190565b604081526000612a226040830185876129e5565b8281036020840152611d41818561261f565b600181811c90821680612a4857607f821691505b6020821081036107fe57634e487b7160e01b600052602260045260246000fd5b601f82111561044157600081815260208120601f850160051c81016020861015612a8f5750805b601f850160051c820191505b81811015612aae57828155600101612a9b565b505050505050565b815167ffffffffffffffff811115612ad057612ad0612300565b612ae481612ade8454612a34565b84612a68565b602080601f831160018114612b195760008415612b015750858301515b600019600386901b1c1916600185901b178555612aae565b600085815260208120601f198616915b82811015612b4857888601518255948401946001909101908401612b29565b5085821015612b665787850151600019600388901b60f8161c191681555b5050505050600190811b01905550565b8381526040602082015260006105326040830184866129e5565b60008451612ba28184602089016125f3565b60609490941b6bffffffffffffffffffffffff191691909301908152601481019190915260340192915050565b60008251612be18184602087016125f3565b9190910192915050565b600060208284031215612bfd57600080fd5b815167ffffffffffffffff811115612c1457600080fd5b8201601f81018413612c2557600080fd5b8051612c3361238c826123f2565b818152856020838501011115612c4857600080fd5b6120468260208301602086016125f3565b805160208083015191908110156107fe5760001960209190910360031b1b16919050565b634e487b7160e01b600052601160045260246000fd5b60008219821115612ca657612ca6612c7d565b500190565b828152604060208201526000610535604083018461261f565b6000815160208301516001600160e01b0319808216935060048310156129b85760049290920360031b82901b161692915050565b600082821015612d0a57612d0a612c7d565b50039056fea264697066735822122052bd07bc9974528eb12fee7165e4ef953c43bdd4def686d1206c1d39d3dfddc864736f6c634300080f0033",
  "linkReferences": {},
  "deployedLinkReferences": {}
}