{
  "_format": "hh-sol-artifact-1",
  "contractName": "UniversalProfile",
  "sourceName": "contracts/UniversalProfile.sol",
  "abi": [
    {
      "inputs": [
        {
          "internalType": "address",
          "name": "newOwner",
          "type": "address"
        }
      ],
      "stateMutability": "payable",
      "type": "constructor"
    },
    {
      "inputs": [],
      "name": "CannotTransferOwnershipToSelf",
      "type": "error"
    },
    {
      "inputs": [],
      "name": "ERC725X_ContractDeploymentFailed",
      "type": "error"
    },
    {
      "inputs": [],
      "name": "ERC725X_CreateOperationsRequireEmptyRecipientAddress",
      "type": "error"
    },
    {
      "inputs": [],
      "name": "ERC725X_ExecuteParametersLengthMismatch",
      "type": "error"
    },
    {
      "inputs": [
        {
          "internalType": "uint256",
          "name": "balance",
          "type": "uint256"
        },
        {
          "internalType": "uint256",
          "name": "value",
          "type": "uint256"
        }
      ],
      "name": "ERC725X_InsufficientBalance",
      "type": "error"
    },
    {
      "inputs": [],
      "name": "ERC725X_MsgValueDisallowedInDelegateCall",
      "type": "error"
    },
    {
      "inputs": [],
      "name": "ERC725X_MsgValueDisallowedInStaticCall",
      "type": "error"
    },
    {
      "inputs": [],
      "name": "ERC725X_NoContractBytecodeProvided",
      "type": "error"
    },
    {
      "inputs": [
        {
          "internalType": "uint256",
          "name": "operationTypeProvided",
          "type": "uint256"
        }
      ],
      "name": "ERC725X_UnknownOperationType",
      "type": "error"
    },
    {
      "inputs": [
        {
          "internalType": "uint256",
          "name": "dataKeysLength",
          "type": "uint256"
        },
        {
          "internalType": "uint256",
          "name": "dataValuesLength",
          "type": "uint256"
        }
      ],
      "name": "ERC725Y_DataKeysValuesLengthMismatch",
      "type": "error"
    },
    {
      "inputs": [
        {
          "internalType": "bool",
          "name": "postCall",
          "type": "bool"
        }
      ],
      "name": "LSP20CallingVerifierFailed",
      "type": "error"
    },
    {
      "inputs": [
        {
          "internalType": "bool",
          "name": "postCall",
          "type": "bool"
        },
        {
          "internalType": "bytes",
          "name": "returnedData",
          "type": "bytes"
        }
      ],
      "name": "LSP20InvalidMagicValue",
      "type": "error"
    },
    {
      "inputs": [
        {
          "internalType": "bytes4",
          "name": "functionSelector",
          "type": "bytes4"
        }
      ],
      "name": "NoExtensionFoundForFunctionSelector",
      "type": "error"
    },
    {
      "inputs": [
        {
          "internalType": "uint256",
          "name": "renounceOwnershipStart",
          "type": "uint256"
        },
        {
          "internalType": "uint256",
          "name": "renounceOwnershipEnd",
          "type": "uint256"
        }
      ],
      "name": "NotInRenounceOwnershipInterval",
      "type": "error"
    },
    {
      "anonymous": false,
      "inputs": [
        {
          "indexed": true,
          "internalType": "uint256",
          "name": "operationType",
          "type": "uint256"
        },
        {
          "indexed": true,
          "internalType": "address",
          "name": "contractAddress",
          "type": "address"
        },
        {
          "indexed": true,
          "internalType": "uint256",
          "name": "value",
          "type": "uint256"
        },
        {
          "indexed": false,
          "internalType": "bytes32",
          "name": "salt",
          "type": "bytes32"
        }
      ],
      "name": "ContractCreated",
      "type": "event"
    },
    {
      "anonymous": false,
      "inputs": [
        {
          "indexed": true,
          "internalType": "bytes32",
          "name": "dataKey",
          "type": "bytes32"
        },
        {
          "indexed": false,
          "internalType": "bytes",
          "name": "dataValue",
          "type": "bytes"
        }
      ],
      "name": "DataChanged",
      "type": "event"
    },
    {
      "anonymous": false,
      "inputs": [
        {
          "indexed": true,
          "internalType": "uint256",
          "name": "operationType",
          "type": "uint256"
        },
        {
          "indexed": true,
          "internalType": "address",
          "name": "target",
          "type": "address"
        },
        {
          "indexed": true,
          "internalType": "uint256",
          "name": "value",
          "type": "uint256"
        },
        {
          "indexed": false,
          "internalType": "bytes4",
          "name": "selector",
          "type": "bytes4"
        }
      ],
      "name": "Executed",
      "type": "event"
    },
    {
      "anonymous": false,
      "inputs": [],
      "name": "OwnershipRenounced",
      "type": "event"
    },
    {
      "anonymous": false,
      "inputs": [
        {
          "indexed": true,
          "internalType": "address",
          "name": "previousOwner",
          "type": "address"
        },
        {
          "indexed": true,
          "internalType": "address",
          "name": "newOwner",
          "type": "address"
        }
      ],
      "name": "OwnershipTransferStarted",
      "type": "event"
    },
    {
      "anonymous": false,
      "inputs": [
        {
          "indexed": true,
          "internalType": "address",
          "name": "previousOwner",
          "type": "address"
        },
        {
          "indexed": true,
          "internalType": "address",
          "name": "newOwner",
          "type": "address"
        }
      ],
      "name": "OwnershipTransferred",
      "type": "event"
    },
    {
      "anonymous": false,
      "inputs": [],
      "name": "RenounceOwnershipStarted",
      "type": "event"
    },
    {
      "anonymous": false,
      "inputs": [
        {
          "indexed": true,
          "internalType": "address",
          "name": "from",
          "type": "address"
        },
        {
          "indexed": true,
          "internalType": "uint256",
          "name": "value",
          "type": "uint256"
        },
        {
          "indexed": true,
          "internalType": "bytes32",
          "name": "typeId",
          "type": "bytes32"
        },
        {
          "indexed": false,
          "internalType": "bytes",
          "name": "receivedData",
          "type": "bytes"
        },
        {
          "indexed": false,
          "internalType": "bytes",
          "name": "returnedValue",
          "type": "bytes"
        }
      ],
      "name": "UniversalReceiver",
      "type": "event"
    },
    {
      "anonymous": false,
      "inputs": [
        {
          "indexed": true,
          "internalType": "address",
          "name": "sender",
          "type": "address"
        },
        {
          "indexed": true,
          "internalType": "uint256",
          "name": "value",
          "type": "uint256"
        }
      ],
      "name": "ValueReceived",
      "type": "event"
    },
    {
      "stateMutability": "payable",
      "type": "fallback"
    },
    {
      "inputs": [],
      "name": "RENOUNCE_OWNERSHIP_CONFIRMATION_DELAY",
      "outputs": [
        {
          "internalType": "uint256",
          "name": "",
          "type": "uint256"
        }
      ],
      "stateMutability": "view",
      "type": "function"
    },
    {
      "inputs": [],
      "name": "RENOUNCE_OWNERSHIP_CONFIRMATION_PERIOD",
      "outputs": [
        {
          "internalType": "uint256",
          "name": "",
          "type": "uint256"
        }
      ],
      "stateMutability": "view",
      "type": "function"
    },
    {
      "inputs": [],
      "name": "acceptOwnership",
      "outputs": [],
      "stateMutability": "nonpayable",
      "type": "function"
    },
    {
      "inputs": [
        {
          "internalType": "bytes[]",
          "name": "data",
          "type": "bytes[]"
        }
      ],
      "name": "batchCalls",
      "outputs": [
        {
          "internalType": "bytes[]",
          "name": "results",
          "type": "bytes[]"
        }
      ],
      "stateMutability": "nonpayable",
      "type": "function"
    },
    {
      "inputs": [
        {
          "internalType": "uint256[]",
          "name": "operationsType",
          "type": "uint256[]"
        },
        {
          "internalType": "address[]",
          "name": "targets",
          "type": "address[]"
        },
        {
          "internalType": "uint256[]",
          "name": "values",
          "type": "uint256[]"
        },
        {
          "internalType": "bytes[]",
          "name": "datas",
          "type": "bytes[]"
        }
      ],
      "name": "execute",
      "outputs": [
        {
          "internalType": "bytes[]",
          "name": "",
          "type": "bytes[]"
        }
      ],
      "stateMutability": "payable",
      "type": "function"
    },
    {
      "inputs": [
        {
          "internalType": "uint256",
          "name": "operationType",
          "type": "uint256"
        },
        {
          "internalType": "address",
          "name": "target",
          "type": "address"
        },
        {
          "internalType": "uint256",
          "name": "value",
          "type": "uint256"
        },
        {
          "internalType": "bytes",
          "name": "data",
          "type": "bytes"
        }
      ],
      "name": "execute",
      "outputs": [
        {
          "internalType": "bytes",
          "name": "",
          "type": "bytes"
        }
      ],
      "stateMutability": "payable",
      "type": "function"
    },
    {
      "inputs": [
        {
          "internalType": "bytes32[]",
          "name": "dataKeys",
          "type": "bytes32[]"
        }
      ],
      "name": "getData",
      "outputs": [
        {
          "internalType": "bytes[]",
          "name": "dataValues",
          "type": "bytes[]"
        }
      ],
      "stateMutability": "view",
      "type": "function"
    },
    {
      "inputs": [
        {
          "internalType": "bytes32",
          "name": "dataKey",
          "type": "bytes32"
        }
      ],
      "name": "getData",
      "outputs": [
        {
          "internalType": "bytes",
          "name": "dataValue",
          "type": "bytes"
        }
      ],
      "stateMutability": "view",
      "type": "function"
    },
    {
      "inputs": [
        {
          "internalType": "bytes32",
          "name": "dataHash",
          "type": "bytes32"
        },
        {
          "internalType": "bytes",
          "name": "signature",
          "type": "bytes"
        }
      ],
      "name": "isValidSignature",
      "outputs": [
        {
          "internalType": "bytes4",
          "name": "magicValue",
          "type": "bytes4"
        }
      ],
      "stateMutability": "view",
      "type": "function"
    },
    {
      "inputs": [],
      "name": "owner",
      "outputs": [
        {
          "internalType": "address",
          "name": "",
          "type": "address"
        }
      ],
      "stateMutability": "view",
      "type": "function"
    },
    {
      "inputs": [],
      "name": "pendingOwner",
      "outputs": [
        {
          "internalType": "address",
          "name": "",
          "type": "address"
        }
      ],
      "stateMutability": "view",
      "type": "function"
    },
    {
      "inputs": [],
      "name": "renounceOwnership",
      "outputs": [],
      "stateMutability": "nonpayable",
      "type": "function"
    },
    {
      "inputs": [
        {
          "internalType": "bytes32[]",
          "name": "dataKeys",
          "type": "bytes32[]"
        },
        {
          "internalType": "bytes[]",
          "name": "dataValues",
          "type": "bytes[]"
        }
      ],
      "name": "setData",
      "outputs": [],
      "stateMutability": "payable",
      "type": "function"
    },
    {
      "inputs": [
        {
          "internalType": "bytes32",
          "name": "dataKey",
          "type": "bytes32"
        },
        {
          "internalType": "bytes",
          "name": "dataValue",
          "type": "bytes"
        }
      ],
      "name": "setData",
      "outputs": [],
      "stateMutability": "payable",
      "type": "function"
    },
    {
      "inputs": [
        {
          "internalType": "bytes4",
          "name": "interfaceId",
          "type": "bytes4"
        }
      ],
      "name": "supportsInterface",
      "outputs": [
        {
          "internalType": "bool",
          "name": "",
          "type": "bool"
        }
      ],
      "stateMutability": "view",
      "type": "function"
    },
    {
      "inputs": [
        {
          "internalType": "address",
          "name": "newOwner",
          "type": "address"
        }
      ],
      "name": "transferOwnership",
      "outputs": [],
      "stateMutability": "nonpayable",
      "type": "function"
    },
    {
      "inputs": [
        {
          "internalType": "bytes32",
          "name": "typeId",
          "type": "bytes32"
        },
        {
          "internalType": "bytes",
          "name": "receivedData",
          "type": "bytes"
        }
      ],
      "name": "universalReceiver",
      "outputs": [
        {
          "internalType": "bytes",
          "name": "returnedValues",
          "type": "bytes"
        }
      ],
      "stateMutability": "payable",
      "type": "function"
    },
    {
      "stateMutability": "payable",
      "type": "receive"
    }
  ],
  "bytecode": "0x6080604052604051620038e0380380620038e08339810160408190526200002691620002cd565b8034156200005c57604051349033907f7e71433ddf847725166244795048ecf3e3f9f35628254ecbf73605666423349390600090a35b6200007281620000c260201b620010d61760201c565b5060408051808201909152600481526355f212eb60e11b6020820152620000bb907feafec4d89fa9619884b60000abe425d64acd861a49b8ddf5c0b6962110481f389062000129565b50620004ef565b6000546001600160a01b038281169116146200012657600080546001600160a01b038381166001600160a01b0319831681178455604051919092169283917f8be0079c531659141344cd1fd0a4f28419497f9722a3daafe3b4186f6b6457e09190a3505b50565b6000828152600160205260409020620001438282620003a4565b50817fece574603820d07bc9b91f2a932baadf4628aabcb8afba49776529c14a6104b26101008351111562000193576200018d836000610100620001b060201b6200113b1760201c565b62000195565b825b604051620001a4919062000470565b60405180910390a25050565b606081620001c081601f620004c8565b1015620002055760405162461bcd60e51b815260206004820152600e60248201526d736c6963655f6f766572666c6f7760901b60448201526064015b60405180910390fd5b620002118284620004c8565b84511015620002575760405162461bcd60e51b8152602060048201526011602482015270736c6963655f6f75744f66426f756e647360781b6044820152606401620001fc565b606082158015620002785760405191506000825260208201604052620002c4565b6040519150601f8416801560200281840101858101878315602002848b0101015b81831015620002b357805183526020928301920162000299565b5050858452601f01601f1916604052505b50949350505050565b600060208284031215620002e057600080fd5b81516001600160a01b0381168114620002f857600080fd5b9392505050565b634e487b7160e01b600052604160045260246000fd5b600181811c908216806200032a57607f821691505b6020821081036200034b57634e487b7160e01b600052602260045260246000fd5b50919050565b601f8211156200039f57600081815260208120601f850160051c810160208610156200037a5750805b601f850160051c820191505b818110156200039b5782815560010162000386565b5050505b505050565b81516001600160401b03811115620003c057620003c0620002ff565b620003d881620003d1845462000315565b8462000351565b602080601f831160018114620004105760008415620003f75750858301515b600019600386901b1c1916600185901b1785556200039b565b600085815260208120601f198616915b82811015620004415788860151825594840194600190910190840162000420565b5085821015620004605787850151600019600388901b60f8161c191681555b5050505050600190811b01905550565b600060208083528351808285015260005b818110156200049f5785810183015185820160400152820162000481565b81811115620004b2576000604083870101525b50601f01601f1916929092016040019392505050565b60008219821115620004ea57634e487b7160e01b600052601160045260246000fd5b500190565b6133e180620004ff6000396000f3fe6080604052600436106101125760003560e01c80636963d438116100a55780637f23690c11610074578063e30c397811610059578063e30c39781461035a578063ead3fbdf14610194578063f2fde38b146103785761014d565b80637f23690c146103155780638da5cb5b146103285761014d565b80636963d438146102b85780636bb56a14146102d8578063715018a6146102eb57806379ba5097146103005761014d565b80631626ba7e116100e15780631626ba7e1461021f57806344c028fe146102585780634e3e6e9c1461027857806354f6127f146102985761014d565b806301bfba611461019457806301ffc9a7146101bc57806313ced88d146101ec57806314a6e2931461020c5761014d565b3661014d57341561014b57604051349033907f7e71433ddf847725166244795048ecf3e3f9f35628254ecbf73605666423349390600090a35b005b341561018157604051349033907f7e71433ddf847725166244795048ecf3e3f9f35628254ecbf73605666423349390600090a35b600436101561018c57005b61014b610398565b3480156101a057600080fd5b506101a9606481565b6040519081526020015b60405180910390f35b3480156101c857600080fd5b506101dc6101d73660046128d3565b610466565b60405190151581526020016101b3565b6101ff6101fa366004612ae8565b610523565b6040516101b39190612c48565b61014b61021a366004612caa565b6105da565b34801561022b57600080fd5b5061023f61023a366004612d0e565b610730565b6040516001600160e01b031990911681526020016101b3565b61026b610266366004612d4b565b6108aa565b6040516101b39190612da0565b34801561028457600080fd5b506101ff610293366004612db3565b61092d565b3480156102a457600080fd5b5061026b6102b3366004612de8565b6109e1565b3480156102c457600080fd5b506101ff6102d3366004612e01565b6109ec565b61026b6102e6366004612e76565b610b51565b3480156102f757600080fd5b5061014b610d00565b34801561030c57600080fd5b5061014b610d57565b61014b610323366004612d0e565b610dec565b34801561033457600080fd5b506000546001600160a01b03165b6040516001600160a01b0390911681526020016101b3565b34801561036657600080fd5b506003546001600160a01b0316610342565b34801561038457600080fd5b5061014b610393366004612ef2565b610e74565b60006103af6000356001600160e01b031916611265565b90506000356001600160e01b0319161580156103d257506001600160a01b038116155b156103da5750565b6001600160a01b03811661042d576040517fbb370b2b0000000000000000000000000000000000000000000000000000000081526001600160e01b03196000351660048201526024015b60405180910390fd5b36600080373360601b365234601436015260008060343601600080855af13d6000803e80801561045c573d6000f35b3d6000fd5b505050565b60006001600160e01b03198216630b135d3f60e11b14806104b057506001600160e01b031982167f0f15a0af00000000000000000000000000000000000000000000000000000000145b806104cb57506001600160e01b03198216631aed5a8560e21b145b806104ff57506001600160e01b031982167f94be599900000000000000000000000000000000000000000000000000000000145b8061050e575061050e826112bd565b8061051d575061051d826112fb565b92915050565b6060341561055957604051349033907f7e71433ddf847725166244795048ecf3e3f9f35628254ecbf73605666423349390600090a35b6000546001600160a01b0316338190036105815761057986868686611331565b9150506105d2565b600061058c8261148f565b9050600061059c88888888611331565b905081156105cd576105cd83826040516020016105b99190612c48565b60405160208183030381529060405261165d565b925050505b949350505050565b341561060e57604051349033907f7e71433ddf847725166244795048ecf3e3f9f35628254ecbf73605666423349390600090a35b805182511461065657815181516040517f43a3c26600000000000000000000000000000000000000000000000000000000815260048101929092526024820152604401610424565b6000546001600160a01b0316338190036106c05760005b83518110156106ba576106b284828151811061068b5761068b612f0d565b60200260200101518483815181106106a5576106a5612f0d565b60200260200101516117b9565b60010161066d565b50505050565b60006106cb8261148f565b905060005b8451811015610710576107088582815181106106ee576106ee612f0d565b60200260200101518583815181106106a5576106a5612f0d565b6001016106d0565b5080156106ba576106ba826040518060200160405280600081525061165d565b6000806107456000546001600160a01b031690565b90506001600160a01b0381163b1561086257600080826001600160a01b0316631626ba7e60e01b878760405160240161077f929190612f23565b60408051601f198184030181529181526020820180516001600160e01b03166001600160e01b03199094169390931790925290516107bd9190612f3c565b600060405180830381855afa9150503d80600081146107f8576040519150601f19603f3d011682016040523d82523d6000602084013e6107fd565b606091505b50915091506000828015610812575081516020145b801561083957508151630b135d3f60e11b906108379084016020908101908501612f58565b145b90508061084e576001600160e01b0319610857565b630b135d3f60e11b5b94505050505061051d565b61086c848461182d565b6001600160a01b0316816001600160a01b031614610892576001600160e01b031961089b565b630b135d3f60e11b5b91505061051d565b5092915050565b606034156108e057604051349033907f7e71433ddf847725166244795048ecf3e3f9f35628254ecbf73605666423349390600090a35b6000546001600160a01b0316338190036109005761057986868686611851565b600061090b8261148f565b9050600061091b88888888611851565b905081156105cd576105cd838261165d565b6060815167ffffffffffffffff811115610949576109496128fd565b60405190808252806020026020018201604052801561097c57816020015b60608152602001906001900390816109675790505b50905060005b82518110156109db576109ad8382815181106109a0576109a0612f0d565b60200260200101516119a7565b8282815181106109bf576109bf612f0d565b60200260200101819052506109d48160010190565b9050610982565b50919050565b606061051d826119a7565b60608167ffffffffffffffff811115610a0757610a076128fd565b604051908082528060200260200182016040528015610a3a57816020015b6060815260200190600190039081610a255790505b50905060005b828110156108a35760008030868685818110610a5e57610a5e612f0d565b9050602002810190610a709190612f71565b604051610a7e929190612fb8565b600060405180830381855af49150503d8060008114610ab9576040519150601f19603f3d011682016040523d82523d6000602084013e610abe565b606091505b509150915081610b2057805115610ad85780518082602001fd5b60405162461bcd60e51b815260206004820152601960248201527f4c5350303a20626174636843616c6c73207265766572746564000000000000006044820152606401610424565b80848481518110610b3357610b33612f0d565b60200260200101819052505050610b4a8160010190565b9050610a40565b60603415610b8757604051349033907f7e71433ddf847725166244795048ecf3e3f9f35628254ecbf73605666423349390600090a35b6000610bb27f0cfc51aec37c55a4d0b1a65c6255c4bf2fbdf6277f3cc0730c45b828b6db8b476119a7565b905060606014825110610c01576000610bca83612fc8565b60601c9050610be081631aed5a8560e21b611a49565b15610bff57610bfc6001600160a01b0382168888883334611ad2565b91505b505b6000610c2d7f0cfc51aec37c55a4d0b10000000000000000000000000000000000000000000088611c1a565b90506000610c3a826119a7565b905060606014825110610c89576000610c5283612fc8565b60601c9050610c6881631aed5a8560e21b611a49565b15610c8757610c846001600160a01b0382168b8b8b3334611ad2565b91505b505b8381604051602001610c9c929190613004565b60405160208183030381529060405295508834336001600160a01b03167f9c3ba68eb5742b8e3961aea0afc7371a71bf433c8a67a831803b64c064a178c28b8b8b604051610cec93929190613052565b60405180910390a450505050509392505050565b6000546001600160a01b031633819003610d1f57610d1c611c83565b50565b6000610d2a8261148f565b9050610d34611c83565b8015610d5357610d53826040518060200160405280600081525061165d565b5050565b6000546001600160a01b0316610d6b611d84565b604080516020810190915260008152610db0906001600160a01b038316907fa4e59c931d14f7c8a7a35027f92ee40b5f2886b9fdcdb78f30bc5ecce5a2f81490611e1f565b604080516020810190915260008152610d1c9033907fceca317f109c43507871523e82dc2a3cc64dfa18f12da0b6db14f6e23f99553890611e1f565b3415610e2057604051349033907f7e71433ddf847725166244795048ecf3e3f9f35628254ecbf73605666423349390600090a35b6000546001600160a01b031633819003610e3e5761046183836117b9565b6000610e498261148f565b9050610e5584846117b9565b80156106ba576106ba826040518060200160405280600081525061165d565b6000546001600160a01b031633819003610f9957610e9182611eaa565b816001600160a01b0316816001600160a01b03167f38d16b8cac22d99fc7c124b9cd0de2d3fa1faef420bfe791d8c362d765e2270060405160405180910390a3604080516020810190915260008152610f16906001600160a01b038416907fe17117c9d2665d1dbeb479ed8058bbebde3c50ac50e2e65619f60006caac692690611e1f565b6000546001600160a01b03828116911614610d535760405162461bcd60e51b815260206004820152603f60248201527f4c535031343a206e65774f776e6572204d55535420616363657074206f776e6560448201527f727368697020696e2061207365706172617465207472616e73616374696f6e006064820152608401610424565b6000610fa48261148f565b9050610faf83611eaa565b826001600160a01b0316826001600160a01b03167f38d16b8cac22d99fc7c124b9cd0de2d3fa1faef420bfe791d8c362d765e2270060405160405180910390a3604080516020810190915260008152611034906001600160a01b038516907fe17117c9d2665d1dbeb479ed8058bbebde3c50ac50e2e65619f60006caac692690611e1f565b6000546001600160a01b038381169116146110b75760405162461bcd60e51b815260206004820152603f60248201527f4c535031343a206e65774f776e6572204d55535420616363657074206f776e6560448201527f727368697020696e2061207365706172617465207472616e73616374696f6e006064820152608401610424565b801561046157610461826040518060200160405280600081525061165d565b6000546001600160a01b03828116911614610d1c57600080546001600160a01b038381166001600160a01b0319831681178455604051919092169283917f8be0079c531659141344cd1fd0a4f28419497f9722a3daafe3b4186f6b6457e09190a35050565b60608161114981601f61308e565b10156111975760405162461bcd60e51b815260206004820152600e60248201527f736c6963655f6f766572666c6f770000000000000000000000000000000000006044820152606401610424565b6111a1828461308e565b845110156111f15760405162461bcd60e51b815260206004820152601160248201527f736c6963655f6f75744f66426f756e64730000000000000000000000000000006044820152606401610424565b606082158015611210576040519150600082526020820160405261125a565b6040519150601f8416801560200281840101858101878315602002848b0101015b81831015611249578051835260209283019201611231565b5050858452601f01601f1916604052505b5090505b9392505050565b60008061129c7fcee78b4094da86011096000000000000000000000000000000000000000000006001600160e01b03198516611c1a565b905060006112a9826119a7565b6112b290612fc8565b60601c949350505050565b60006001600160e01b031982167fa918fa6b00000000000000000000000000000000000000000000000000000000148061051d575061051d82611f13565b60008061130e6301ffc9a760e01b611265565b90506001600160a01b0381166113275750600092915050565b61125e8184611a49565b60608351855114158061135257508251845114158061135257508151835114155b15611389576040517f3ff55f4d00000000000000000000000000000000000000000000000000000000815260040160405180910390fd5b6000855167ffffffffffffffff8111156113a5576113a56128fd565b6040519080825280602002602001820160405280156113d857816020015b60608152602001906001900390816113c35790505b50905060005b8651811015611485576114578782815181106113fc576113fc612f0d565b602002602001015187838151811061141657611416612f0d565b602002602001015187848151811061143057611430612f0d565b602002602001015187858151811061144a5761144a612f0d565b6020026020010151611851565b82828151811061146957611469612f0d565b602002602001018190525061147e8160010190565b90506113de565b5095945050505050565b6000806000836001600160a01b0316639bf04b1160e01b33346000366040516024016114be94939291906130a6565b60408051601f198184030181529181526020820180516001600160e01b03166001600160e01b03199094169390931790925290516114fc9190612f3c565b6000604051808303816000865af19150503d8060008114611539576040519150601f19603f3d011682016040523d82523d6000602084013e61153e565b606091505b50915091508161155357611553600082611f51565b60208151101561157b5760008160405163034223b160e61b81526004016104249291906130cf565b6000818060200190518101906115919190612f58565b90507fffffff000000000000000000000000000000000000000000000000000000000081167f9bf04b0000000000000000000000000000000000000000000000000000000000146115fa5760008260405163034223b160e61b81526004016104249291906130cf565b7f01000000000000000000000000000000000000000000000000000000000000007fff00000000000000000000000000000000000000000000000000000000000000600383901a60f81b1614611651576000611654565b60015b95945050505050565b600080836001600160a01b031663d3fc45d360e01b333460003660405160200161168a94939291906130ea565b60405160208183030381529060405280519060200120856040516024016116b2929190612f23565b60408051601f198184030181529181526020820180516001600160e01b03166001600160e01b03199094169390931790925290516116f09190612f3c565b6000604051808303816000865af19150503d806000811461172d576040519150601f19603f3d011682016040523d82523d6000602084013e611732565b606091505b50915091508161174757611747600182611f51565b602081511080611796575080517fd3fc45d300000000000000000000000000000000000000000000000000000000906117899083016020908101908401612f58565b6001600160e01b03191614155b156106ba5760018160405163034223b160e61b81526004016104249291906130cf565b60008281526001602052604090206117d1828261319f565b50817fece574603820d07bc9b91f2a932baadf4628aabcb8afba49776529c14a6104b2610100835111156118125761180d83600061010061113b565b611814565b825b6040516118219190612da0565b60405180910390a25050565b600080600061183c8585611f97565b9150915061184981611fdc565b509392505050565b60608461186a57611863848484612141565b90506105d2565b600185036118a4576001600160a01b0384161561189a57604051631820c12560e11b815260040160405180910390fd5b611863838361226d565b600285036118de576001600160a01b038416156118d457604051631820c12560e11b815260040160405180910390fd5b6118638383612387565b6003850361192857821561191e576040517f72f2bc6a00000000000000000000000000000000000000000000000000000000815260040160405180910390fd5b6118638483612472565b60048503611972578215611968576040517f5ac8313500000000000000000000000000000000000000000000000000000000815260040160405180910390fd5b6118638483612568565b6040517f7583b3bc00000000000000000000000000000000000000000000000000000000815260048101869052602401610424565b60008181526001602052604090208054606091906119c49061311d565b80601f01602080910402602001604051908101604052809291908181526020018280546119f09061311d565b8015611a3d5780601f10611a1257610100808354040283529160200191611a3d565b820191906000526020600020905b815481529060010190602001808311611a2057829003601f168201915b50505050509050919050565b604080516001600160e01b03198316602480830191909152825180830390910181526044909101909152602080820180516001600160e01b03166301ffc9a760e01b178152825160009392849283928392918391908a617530fa92503d91506000519050828015611abb575060208210155b8015611ac75750600081115b979650505050505050565b60606000636bb56a1460e01b878787604051602401611af39392919061325f565b60408051601f19818403018152918152602080830180516001600160e01b03166001600160e01b03199095169490941790935251611b35928791879101613279565b6040516020818303038152906040529050600080896001600160a01b031683604051611b619190612f3c565b6000604051808303816000865af19150503d8060008114611b9e576040519150601f19603f3d011682016040523d82523d6000602084013e611ba3565b606091505b5091509150611be882826040518060400160405280602081526020017f43616c6c20746f20756e6976657273616c5265636569766572206661696c6564815250612614565b508051600003611bf85780611c0c565b80806020019051810190611c0c91906132b8565b9a9950505050505050505050565b604080517fffffffffffffffffffff00000000000000000000000000000000000000000000841660208201526000602a82018190526bffffffffffffffffffffffff198416602c830152918291016040516020818303038152906040529050806105d290613326565b6002544390600090611c979060649061308e565b90506000611ca660648361308e565b905080831115611cf3576002839055600380546001600160a01b03191690556040517f81b7f830f1f0084db6497c486cbe6974c86488dcc4e3738eab94ab6d6b1653e790600090a1505050565b81831015611d37576040517f8b9bf5070000000000000000000000000000000000000000000000000000000081526004810183905260248101829052604401610424565b611d4160006110d6565b60006002819055600380546001600160a01b03191690556040517fd1f66c3d2bc1993a86be5e3d33709d98f0442381befcedd29f578b9b2506b1ce9190a1505050565b6003546001600160a01b03163314611e045760405162461bcd60e51b815260206004820152602560248201527f4c535031343a2063616c6c6572206973206e6f74207468652070656e64696e6760448201527f4f776e65720000000000000000000000000000000000000000000000000000006064820152608401610424565b611e0d336110d6565b600380546001600160a01b0319169055565b611e3083631aed5a8560e21b611a49565b1561046157604051631aed5a8560e21b81526001600160a01b03841690636bb56a1490611e639085908590600401612f23565b6000604051808303816000875af1158015611e82573d6000803e3d6000fd5b505050506040513d6000823e601f3d908101601f191682016040526106ba91908101906132b8565b306001600160a01b03821603611eec576040517f43b248cd00000000000000000000000000000000000000000000000000000000815260040160405180910390fd5b600380546001600160a01b0319166001600160a01b03929092169190911790556000600255565b60006001600160e01b031982167f714df77c00000000000000000000000000000000000000000000000000000000148061051d575061051d8261262d565b805115611f615780518082602001fd5b6040517f8c6a8ae30000000000000000000000000000000000000000000000000000000081528215156004820152602401610424565b6000808251604103611fcd5760208301516040840151606085015160001a611fc18782858561267b565b94509450505050611fd5565b506000905060025b9250929050565b6000816004811115611ff057611ff061334a565b03611ff85750565b600181600481111561200c5761200c61334a565b036120595760405162461bcd60e51b815260206004820152601860248201527f45434453413a20696e76616c6964207369676e617475726500000000000000006044820152606401610424565b600281600481111561206d5761206d61334a565b036120ba5760405162461bcd60e51b815260206004820152601f60248201527f45434453413a20696e76616c6964207369676e6174757265206c656e677468006044820152606401610424565b60038160048111156120ce576120ce61334a565b03610d1c5760405162461bcd60e51b815260206004820152602260248201527f45434453413a20696e76616c6964207369676e6174757265202773272076616c60448201527f75650000000000000000000000000000000000000000000000000000000000006064820152608401610424565b60608247101561216d576040516301bf351f60e31b815247600482015260248101849052604401610424565b826001600160a01b03851660007f4810874456b8e6487bd861375cf6abd8e1c8bb5858c8ce36a86a04dabfac199e6121a486613360565b6040516001600160e01b0319909116815260200160405180910390a4600080856001600160a01b031685856040516121dc9190612f3c565b60006040518083038185875af1925050503d8060008114612219576040519150601f19603f3d011682016040523d82523d6000602084013e61221e565b606091505b509150915061226382826040518060400160405280601681526020017f455243373235583a20556e6b6e6f776e204572726f7200000000000000000000815250612614565b9695505050505050565b606082471015612299576040516301bf351f60e31b815247600482015260248101849052604401610424565b81516000036122bb5760405163b81cd8d960e01b815260040160405180910390fd5b600082516020840185f090506001600160a01b038116612307576040517f0b07489b00000000000000000000000000000000000000000000000000000000815260040160405180910390fd5b6040516bffffffffffffffffffffffff19606083901b166020820152603401604051602081830303815290604052915083816001600160a01b031660017fa1fb700aaee2ae4a2ff6f91ce7eba292f89c2f5488b8ec4c5c5c8150692595c36000801b60405161237891815260200190565b60405180910390a45092915050565b606081516000036123ab5760405163b81cd8d960e01b815260040160405180910390fd5b60006123c483602085516123bf9190613394565b61273f565b905060006123e1846000602087516123dc9190613394565b61113b565b905060006123f08684846127a5565b6040516bffffffffffffffffffffffff19606083901b166020820152909150603401604051602081830303815290604052935085816001600160a01b031660027fa1fb700aaee2ae4a2ff6f91ce7eba292f89c2f5488b8ec4c5c5c8150692595c38660405161246191815260200190565b60405180910390a450505092915050565b606060006001600160a01b03841660037f4810874456b8e6487bd861375cf6abd8e1c8bb5858c8ce36a86a04dabfac199e6124ac86613360565b6040516001600160e01b0319909116815260200160405180910390a4600080846001600160a01b0316846040516124e39190612f3c565b600060405180830381855afa9150503d806000811461251e576040519150601f19603f3d011682016040523d82523d6000602084013e612523565b606091505b509150915061165482826040518060400160405280601681526020017f455243373235583a20556e6b6e6f776e204572726f7200000000000000000000815250612614565b606060006001600160a01b03841660047f4810874456b8e6487bd861375cf6abd8e1c8bb5858c8ce36a86a04dabfac199e6125a286613360565b6040516001600160e01b0319909116815260200160405180910390a4600080846001600160a01b0316846040516125d99190612f3c565b600060405180830381855af49150503d806000811461251e576040519150601f19603f3d011682016040523d82523d6000602084013e612523565b6060831561262357508161125e565b61125e83836128a9565b60006001600160e01b031982167f570ef07300000000000000000000000000000000000000000000000000000000148061051d57506301ffc9a760e01b6001600160e01b031983161461051d565b6000807f7fffffffffffffffffffffffffffffff5d576e7357a4501ddfe92f46681b20a08311156126b25750600090506003612736565b6040805160008082526020820180845289905260ff881692820192909252606081018690526080810185905260019060a0016020604051602081039080840390855afa158015612706573d6000803e3d6000fd5b5050604051601f1901519150506001600160a01b03811661272f57600060019250925050612736565b9150600090505b94509492505050565b600061274c82602061308e565b8351101561279c5760405162461bcd60e51b815260206004820152601560248201527f746f427974657333325f6f75744f66426f756e647300000000000000000000006044820152606401610424565b50016020015190565b6000834710156127f75760405162461bcd60e51b815260206004820152601d60248201527f437265617465323a20696e73756666696369656e742062616c616e63650000006044820152606401610424565b81516000036128485760405162461bcd60e51b815260206004820181905260248201527f437265617465323a2062797465636f6465206c656e677468206973207a65726f6044820152606401610424565b8282516020840186f590506001600160a01b03811661125e5760405162461bcd60e51b815260206004820152601960248201527f437265617465323a204661696c6564206f6e206465706c6f79000000000000006044820152606401610424565b8151156128b95781518083602001fd5b8060405162461bcd60e51b81526004016104249190612da0565b6000602082840312156128e557600080fd5b81356001600160e01b03198116811461125e57600080fd5b634e487b7160e01b600052604160045260246000fd5b604051601f8201601f1916810167ffffffffffffffff8111828210171561293c5761293c6128fd565b604052919050565b600067ffffffffffffffff82111561295e5761295e6128fd565b5060051b60200190565b600082601f83011261297957600080fd5b8135602061298e61298983612944565b612913565b82815260059290921b840181019181810190868411156129ad57600080fd5b8286015b848110156129c857803583529183019183016129b1565b509695505050505050565b80356001600160a01b03811681146129ea57600080fd5b919050565b600067ffffffffffffffff821115612a0957612a096128fd565b50601f01601f191660200190565b600082601f830112612a2857600080fd5b8135612a36612989826129ef565b818152846020838601011115612a4b57600080fd5b816020850160208301376000918101602001919091529392505050565b600082601f830112612a7957600080fd5b81356020612a8961298983612944565b82815260059290921b84018101918181019086841115612aa857600080fd5b8286015b848110156129c857803567ffffffffffffffff811115612acc5760008081fd5b612ada8986838b0101612a17565b845250918301918301612aac565b60008060008060808587031215612afe57600080fd5b843567ffffffffffffffff80821115612b1657600080fd5b612b2288838901612968565b9550602091508187013581811115612b3957600080fd5b8701601f81018913612b4a57600080fd5b8035612b5861298982612944565b81815260059190911b8201840190848101908b831115612b7757600080fd5b928501925b82841015612b9c57612b8d846129d3565b82529285019290850190612b7c565b97505050506040870135915080821115612bb557600080fd5b612bc188838901612968565b93506060870135915080821115612bd757600080fd5b50612be487828801612a68565b91505092959194509250565b60005b83811015612c0b578181015183820152602001612bf3565b838111156106ba5750506000910152565b60008151808452612c34816020860160208601612bf0565b601f01601f19169290920160200192915050565b6000602080830181845280855180835260408601915060408160051b870101925083870160005b82811015612c9d57603f19888603018452612c8b858351612c1c565b94509285019290850190600101612c6f565b5092979650505050505050565b60008060408385031215612cbd57600080fd5b823567ffffffffffffffff80821115612cd557600080fd5b612ce186838701612968565b93506020850135915080821115612cf757600080fd5b50612d0485828601612a68565b9150509250929050565b60008060408385031215612d2157600080fd5b82359150602083013567ffffffffffffffff811115612d3f57600080fd5b612d0485828601612a17565b60008060008060808587031215612d6157600080fd5b84359350612d71602086016129d3565b925060408501359150606085013567ffffffffffffffff811115612d9457600080fd5b612be487828801612a17565b60208152600061125e6020830184612c1c565b600060208284031215612dc557600080fd5b813567ffffffffffffffff811115612ddc57600080fd5b6105d284828501612968565b600060208284031215612dfa57600080fd5b5035919050565b60008060208385031215612e1457600080fd5b823567ffffffffffffffff80821115612e2c57600080fd5b818501915085601f830112612e4057600080fd5b813581811115612e4f57600080fd5b8660208260051b8501011115612e6457600080fd5b60209290920196919550909350505050565b600080600060408486031215612e8b57600080fd5b83359250602084013567ffffffffffffffff80821115612eaa57600080fd5b818601915086601f830112612ebe57600080fd5b813581811115612ecd57600080fd5b876020828501011115612edf57600080fd5b6020830194508093505050509250925092565b600060208284031215612f0457600080fd5b61125e826129d3565b634e487b7160e01b600052603260045260246000fd5b8281526040602082015260006105d26040830184612c1c565b60008251612f4e818460208701612bf0565b9190910192915050565b600060208284031215612f6a57600080fd5b5051919050565b6000808335601e19843603018112612f8857600080fd5b83018035915067ffffffffffffffff821115612fa357600080fd5b602001915036819003821315611fd557600080fd5b8183823760009101908152919050565b805160208201516bffffffffffffffffffffffff198082169291906014831015612ffc5780818460140360031b1b83161693505b505050919050565b6040815260006130176040830185612c1c565b82810360208401526116548185612c1c565b81835281816020850137506000828201602090810191909152601f909101601f19169091010190565b604081526000613066604083018587613029565b82810360208401526122638185612c1c565b634e487b7160e01b600052601160045260246000fd5b600082198211156130a1576130a1613078565b500190565b6001600160a01b0385168152836020820152606060408201526000612263606083018486613029565b82151581526040602082015260006105d26040830184612c1c565b6bffffffffffffffffffffffff198560601b16815283601482015281836034830137600091016034019081529392505050565b600181811c9082168061313157607f821691505b6020821081036109db57634e487b7160e01b600052602260045260246000fd5b601f82111561046157600081815260208120601f850160051c810160208610156131785750805b601f850160051c820191505b8181101561319757828155600101613184565b505050505050565b815167ffffffffffffffff8111156131b9576131b96128fd565b6131cd816131c7845461311d565b84613151565b602080601f83116001811461320257600084156131ea5750858301515b600019600386901b1c1916600185901b178555613197565b600085815260208120601f198616915b8281101561323157888601518255948401946001909101908401613212565b508582101561324f5787850151600019600388901b60f8161c191681555b5050505050600190811b01905550565b838152604060208201526000611654604083018486613029565b6000845161328b818460208901612bf0565b60609490941b6bffffffffffffffffffffffff191691909301908152601481019190915260340192915050565b6000602082840312156132ca57600080fd5b815167ffffffffffffffff8111156132e157600080fd5b8201601f810184136132f257600080fd5b8051613300612989826129ef565b81815285602083850101111561331557600080fd5b611654826020830160208601612bf0565b805160208083015191908110156109db5760001960209190910360031b1b16919050565b634e487b7160e01b600052602160045260246000fd5b6000815160208301516001600160e01b031980821693506004831015612ffc5760049290920360031b82901b161692915050565b6000828210156133a6576133a6613078565b50039056fea2646970667358221220550fe4f212988b5fb01554dd50c1b17b7bf1c78d44b7055a43c8777cd1466a6764736f6c634300080f0033",
  "linkReferences": {},
  "deployedLinkReferences": {}
}