{
  "_format": "hh-sol-artifact-1",
  "contractName": "LSP0ERC725Account",
  "sourceName": "contracts/LSP0ERC725Account/LSP0ERC725Account.sol",
  "abi": [
    {
      "inputs": [
        {
          "internalType": "address",
          "name": "newOwner",
          "type": "address"
        }
      ],
      "stateMutability": "payable",
      "type": "constructor"
    },
    {
      "inputs": [],
      "name": "CannotTransferOwnershipToSelf",
      "type": "error"
    },
    {
      "inputs": [],
      "name": "ERC725X_ContractDeploymentFailed",
      "type": "error"
    },
    {
      "inputs": [],
      "name": "ERC725X_CreateOperationsRequireEmptyRecipientAddress",
      "type": "error"
    },
    {
      "inputs": [],
      "name": "ERC725X_ExecuteParametersLengthMismatch",
      "type": "error"
    },
    {
      "inputs": [
        {
          "internalType": "uint256",
          "name": "balance",
          "type": "uint256"
        },
        {
          "internalType": "uint256",
          "name": "value",
          "type": "uint256"
        }
      ],
      "name": "ERC725X_InsufficientBalance",
      "type": "error"
    },
    {
      "inputs": [],
      "name": "ERC725X_MsgValueDisallowedInDelegateCall",
      "type": "error"
    },
    {
      "inputs": [],
      "name": "ERC725X_MsgValueDisallowedInStaticCall",
      "type": "error"
    },
    {
      "inputs": [],
      "name": "ERC725X_NoContractBytecodeProvided",
      "type": "error"
    },
    {
      "inputs": [
        {
          "internalType": "uint256",
          "name": "operationTypeProvided",
          "type": "uint256"
        }
      ],
      "name": "ERC725X_UnknownOperationType",
      "type": "error"
    },
    {
      "inputs": [
        {
          "internalType": "uint256",
          "name": "dataKeysLength",
          "type": "uint256"
        },
        {
          "internalType": "uint256",
          "name": "dataValuesLength",
          "type": "uint256"
        }
      ],
      "name": "ERC725Y_DataKeysValuesLengthMismatch",
      "type": "error"
    },
    {
      "inputs": [
        {
          "internalType": "bytes4",
          "name": "functionSelector",
          "type": "bytes4"
        }
      ],
      "name": "NoExtensionFoundForFunctionSelector",
      "type": "error"
    },
    {
      "inputs": [
        {
          "internalType": "uint256",
          "name": "renounceOwnershipStart",
          "type": "uint256"
        },
        {
          "internalType": "uint256",
          "name": "renounceOwnershipEnd",
          "type": "uint256"
        }
      ],
      "name": "NotInRenounceOwnershipInterval",
      "type": "error"
    },
    {
      "anonymous": false,
      "inputs": [
        {
          "indexed": true,
          "internalType": "uint256",
          "name": "operationType",
          "type": "uint256"
        },
        {
          "indexed": true,
          "internalType": "address",
          "name": "contractAddress",
          "type": "address"
        },
        {
          "indexed": true,
          "internalType": "uint256",
          "name": "value",
          "type": "uint256"
        },
        {
          "indexed": false,
          "internalType": "bytes32",
          "name": "salt",
          "type": "bytes32"
        }
      ],
      "name": "ContractCreated",
      "type": "event"
    },
    {
      "anonymous": false,
      "inputs": [
        {
          "indexed": true,
          "internalType": "bytes32",
          "name": "dataKey",
          "type": "bytes32"
        },
        {
          "indexed": false,
          "internalType": "bytes",
          "name": "dataValue",
          "type": "bytes"
        }
      ],
      "name": "DataChanged",
      "type": "event"
    },
    {
      "anonymous": false,
      "inputs": [
        {
          "indexed": true,
          "internalType": "uint256",
          "name": "operationType",
          "type": "uint256"
        },
        {
          "indexed": true,
          "internalType": "address",
          "name": "target",
          "type": "address"
        },
        {
          "indexed": true,
          "internalType": "uint256",
          "name": "value",
          "type": "uint256"
        },
        {
          "indexed": false,
          "internalType": "bytes4",
          "name": "selector",
          "type": "bytes4"
        }
      ],
      "name": "Executed",
      "type": "event"
    },
    {
      "anonymous": false,
      "inputs": [],
      "name": "OwnershipRenounced",
      "type": "event"
    },
    {
      "anonymous": false,
      "inputs": [
        {
          "indexed": true,
          "internalType": "address",
          "name": "previousOwner",
          "type": "address"
        },
        {
          "indexed": true,
          "internalType": "address",
          "name": "newOwner",
          "type": "address"
        }
      ],
      "name": "OwnershipTransferStarted",
      "type": "event"
    },
    {
      "anonymous": false,
      "inputs": [
        {
          "indexed": true,
          "internalType": "address",
          "name": "previousOwner",
          "type": "address"
        },
        {
          "indexed": true,
          "internalType": "address",
          "name": "newOwner",
          "type": "address"
        }
      ],
      "name": "OwnershipTransferred",
      "type": "event"
    },
    {
      "anonymous": false,
      "inputs": [],
      "name": "RenounceOwnershipStarted",
      "type": "event"
    },
    {
      "anonymous": false,
      "inputs": [
        {
          "indexed": true,
          "internalType": "address",
          "name": "from",
          "type": "address"
        },
        {
          "indexed": true,
          "internalType": "uint256",
          "name": "value",
          "type": "uint256"
        },
        {
          "indexed": true,
          "internalType": "bytes32",
          "name": "typeId",
          "type": "bytes32"
        },
        {
          "indexed": false,
          "internalType": "bytes",
          "name": "receivedData",
          "type": "bytes"
        },
        {
          "indexed": false,
          "internalType": "bytes",
          "name": "returnedValue",
          "type": "bytes"
        }
      ],
      "name": "UniversalReceiver",
      "type": "event"
    },
    {
      "anonymous": false,
      "inputs": [
        {
          "indexed": true,
          "internalType": "address",
          "name": "sender",
          "type": "address"
        },
        {
          "indexed": true,
          "internalType": "uint256",
          "name": "value",
          "type": "uint256"
        }
      ],
      "name": "ValueReceived",
      "type": "event"
    },
    {
      "stateMutability": "payable",
      "type": "fallback"
    },
    {
      "inputs": [],
      "name": "RENOUNCE_OWNERSHIP_CONFIRMATION_DELAY",
      "outputs": [
        {
          "internalType": "uint256",
          "name": "",
          "type": "uint256"
        }
      ],
      "stateMutability": "view",
      "type": "function"
    },
    {
      "inputs": [],
      "name": "RENOUNCE_OWNERSHIP_CONFIRMATION_PERIOD",
      "outputs": [
        {
          "internalType": "uint256",
          "name": "",
          "type": "uint256"
        }
      ],
      "stateMutability": "view",
      "type": "function"
    },
    {
      "inputs": [],
      "name": "acceptOwnership",
      "outputs": [],
      "stateMutability": "nonpayable",
      "type": "function"
    },
    {
      "inputs": [
        {
          "internalType": "uint256[]",
          "name": "operationsType",
          "type": "uint256[]"
        },
        {
          "internalType": "address[]",
          "name": "targets",
          "type": "address[]"
        },
        {
          "internalType": "uint256[]",
          "name": "values",
          "type": "uint256[]"
        },
        {
          "internalType": "bytes[]",
          "name": "datas",
          "type": "bytes[]"
        }
      ],
      "name": "execute",
      "outputs": [
        {
          "internalType": "bytes[]",
          "name": "",
          "type": "bytes[]"
        }
      ],
      "stateMutability": "payable",
      "type": "function"
    },
    {
      "inputs": [
        {
          "internalType": "uint256",
          "name": "operationType",
          "type": "uint256"
        },
        {
          "internalType": "address",
          "name": "target",
          "type": "address"
        },
        {
          "internalType": "uint256",
          "name": "value",
          "type": "uint256"
        },
        {
          "internalType": "bytes",
          "name": "data",
          "type": "bytes"
        }
      ],
      "name": "execute",
      "outputs": [
        {
          "internalType": "bytes",
          "name": "",
          "type": "bytes"
        }
      ],
      "stateMutability": "payable",
      "type": "function"
    },
    {
      "inputs": [
        {
          "internalType": "bytes32[]",
          "name": "dataKeys",
          "type": "bytes32[]"
        }
      ],
      "name": "getData",
      "outputs": [
        {
          "internalType": "bytes[]",
          "name": "dataValues",
          "type": "bytes[]"
        }
      ],
      "stateMutability": "view",
      "type": "function"
    },
    {
      "inputs": [
        {
          "internalType": "bytes32",
          "name": "dataKey",
          "type": "bytes32"
        }
      ],
      "name": "getData",
      "outputs": [
        {
          "internalType": "bytes",
          "name": "dataValue",
          "type": "bytes"
        }
      ],
      "stateMutability": "view",
      "type": "function"
    },
    {
      "inputs": [
        {
          "internalType": "bytes32",
          "name": "dataHash",
          "type": "bytes32"
        },
        {
          "internalType": "bytes",
          "name": "signature",
          "type": "bytes"
        }
      ],
      "name": "isValidSignature",
      "outputs": [
        {
          "internalType": "bytes4",
          "name": "magicValue",
          "type": "bytes4"
        }
      ],
      "stateMutability": "view",
      "type": "function"
    },
    {
      "inputs": [],
      "name": "owner",
      "outputs": [
        {
          "internalType": "address",
          "name": "",
          "type": "address"
        }
      ],
      "stateMutability": "view",
      "type": "function"
    },
    {
      "inputs": [],
      "name": "pendingOwner",
      "outputs": [
        {
          "internalType": "address",
          "name": "",
          "type": "address"
        }
      ],
      "stateMutability": "view",
      "type": "function"
    },
    {
      "inputs": [],
      "name": "renounceOwnership",
      "outputs": [],
      "stateMutability": "nonpayable",
      "type": "function"
    },
    {
      "inputs": [
        {
          "internalType": "bytes32[]",
          "name": "dataKeys",
          "type": "bytes32[]"
        },
        {
          "internalType": "bytes[]",
          "name": "dataValues",
          "type": "bytes[]"
        }
      ],
      "name": "setData",
      "outputs": [],
      "stateMutability": "nonpayable",
      "type": "function"
    },
    {
      "inputs": [
        {
          "internalType": "bytes32",
          "name": "dataKey",
          "type": "bytes32"
        },
        {
          "internalType": "bytes",
          "name": "dataValue",
          "type": "bytes"
        }
      ],
      "name": "setData",
      "outputs": [],
      "stateMutability": "nonpayable",
      "type": "function"
    },
    {
      "inputs": [
        {
          "internalType": "bytes4",
          "name": "interfaceId",
          "type": "bytes4"
        }
      ],
      "name": "supportsInterface",
      "outputs": [
        {
          "internalType": "bool",
          "name": "",
          "type": "bool"
        }
      ],
      "stateMutability": "view",
      "type": "function"
    },
    {
      "inputs": [
        {
          "internalType": "address",
          "name": "_newOwner",
          "type": "address"
        }
      ],
      "name": "transferOwnership",
      "outputs": [],
      "stateMutability": "nonpayable",
      "type": "function"
    },
    {
      "inputs": [
        {
          "internalType": "bytes32",
          "name": "typeId",
          "type": "bytes32"
        },
        {
          "internalType": "bytes",
          "name": "receivedData",
          "type": "bytes"
        }
      ],
      "name": "universalReceiver",
      "outputs": [
        {
          "internalType": "bytes",
          "name": "returnedValues",
          "type": "bytes"
        }
      ],
      "stateMutability": "payable",
      "type": "function"
    },
    {
      "stateMutability": "payable",
      "type": "receive"
    }
  ],
  "bytecode": "0x608060405260405162002c5738038062002c578339810160408190526200002691620000df565b34156200005b57604051349033907f7e71433ddf847725166244795048ecf3e3f9f35628254ecbf73605666423349390600090a35b62000071816200007860201b62000a511760201c565b5062000111565b6000546001600160a01b03828116911614620000dc57600080546001600160a01b038381166001600160a01b0319831681178455604051919092169283917f8be0079c531659141344cd1fd0a4f28419497f9722a3daafe3b4186f6b6457e09190a3505b50565b600060208284031215620000f257600080fd5b81516001600160a01b03811681146200010a57600080fd5b9392505050565b612b3680620001216000396000f3fe6080604052600436106100f75760003560e01c80636bb56a141161008a5780638da5cb5b116100595780638da5cb5b1461031c578063e30c39781461034e578063ead3fbdf1461018e578063f2fde38b1461036c57610132565b80636bb56a14146102bf578063715018a6146102d257806379ba5097146102e75780637f23690c146102fc57610132565b80631626ba7e116100c65780631626ba7e1461022657806344c028fe1461025f5780634e3e6e9c1461027f57806354f6127f1461029f57610132565b806301bfba611461018e57806301ffc9a7146101b657806313ced88d146101e657806314a6e2931461020657610132565b3661013257341561013057604051349033907f7e71433ddf847725166244795048ecf3e3f9f35628254ecbf73605666423349390600090a35b005b341561016657604051349033907f7e71433ddf847725166244795048ecf3e3f9f35628254ecbf73605666423349390600090a35b600436108061017f57506000356001600160e01b031916155b1561018657005b61013061038c565b34801561019a57600080fd5b506101a3606481565b6040519081526020015b60405180910390f35b3480156101c257600080fd5b506101d66101d1366004612167565b610431565b60405190151581526020016101ad565b6101f96101f436600461237c565b6104ee565b6040516101ad91906124e0565b34801561021257600080fd5b50610130610221366004612542565b610543565b34801561023257600080fd5b506102466102413660046125a6565b6105e3565b6040516001600160e01b031990911681526020016101ad565b61027261026d3660046125e3565b610755565b6040516101ad9190612638565b34801561028b57600080fd5b506101f961029a36600461264b565b61079f565b3480156102ab57600080fd5b506102726102ba366004612680565b610853565b6102726102cd366004612699565b61085e565b3480156102de57600080fd5b50610130610a0d565b3480156102f357600080fd5b50610130610a1f565b34801561030857600080fd5b506101306103173660046125a6565b610a27565b34801561032857600080fd5b506000546001600160a01b03165b6040516001600160a01b0390911681526020016101ad565b34801561035a57600080fd5b506003546001600160a01b0316610336565b34801561037857600080fd5b50610130610387366004612715565b610a3d565b60006103a36000356001600160e01b031916610ab6565b90506001600160a01b0381166103f8576040517fbb370b2b0000000000000000000000000000000000000000000000000000000081526001600160e01b03196000351660048201526024015b60405180910390fd5b36600080373360601b365234601436015260008060343601600080855af13d6000803e808015610427573d6000f35b3d6000fd5b505050565b60006001600160e01b03198216630b135d3f60e11b148061047b57506001600160e01b031982167f6676749700000000000000000000000000000000000000000000000000000000145b8061049657506001600160e01b03198216631aed5a8560e21b145b806104ca57506001600160e01b031982167f94be599900000000000000000000000000000000000000000000000000000000145b806104d957506104d982610b0e565b806104e857506104e882610b4c565b92915050565b60606104f8610b89565b341561052c57604051349033907f7e71433ddf847725166244795048ecf3e3f9f35628254ecbf73605666423349390600090a35b61053885858585610bf2565b90505b949350505050565b61054b610b89565b805182511461059357815181516040517f43a3c266000000000000000000000000000000000000000000000000000000008152600481019290925260248201526044016103ef565b60005b825181101561042c576105db8382815181106105b4576105b4612730565b60200260200101518383815181106105ce576105ce612730565b6020026020010151610d50565b600101610596565b6000806105f86000546001600160a01b031690565b90506001600160a01b0381163b1561071557600080826001600160a01b0316631626ba7e60e01b8787604051602401610632929190612746565b60408051601f198184030181529181526020820180516001600160e01b03166001600160e01b0319909416939093179092529051610670919061275f565b600060405180830381855afa9150503d80600081146106ab576040519150601f19603f3d011682016040523d82523d6000602084013e6106b0565b606091505b509150915060008280156106c5575081516020145b80156106ec57508151630b135d3f60e11b906106ea908401602090810190850161277b565b145b905080610701576001600160e01b031961070a565b630b135d3f60e11b5b9450505050506104e8565b61071f8484610dc4565b6001600160a01b0316816001600160a01b031614610745576001600160e01b031961053b565b630b135d3f60e11b949350505050565b606061075f610b89565b341561079357604051349033907f7e71433ddf847725166244795048ecf3e3f9f35628254ecbf73605666423349390600090a35b61053885858585610de8565b6060815167ffffffffffffffff8111156107bb576107bb612191565b6040519080825280602002602001820160405280156107ee57816020015b60608152602001906001900390816107d95790505b50905060005b825181101561084d5761081f83828151811061081257610812612730565b6020026020010151610f3e565b82828151811061083157610831612730565b60200260200101819052506108468160010190565b90506107f4565b50919050565b60606104e882610f3e565b6060341561089457604051349033907f7e71433ddf847725166244795048ecf3e3f9f35628254ecbf73605666423349390600090a35b60006108bf7f0cfc51aec37c55a4d0b1a65c6255c4bf2fbdf6277f3cc0730c45b828b6db8b47610f3e565b90506060601482511061090e5760006108d783612794565b60601c90506108ed81631aed5a8560e21b610fe0565b1561090c576109096001600160a01b0382168888883334611069565b91505b505b600061093a7f0cfc51aec37c55a4d0b100000000000000000000000000000000000000000000886111b1565b9050600061094782610f3e565b90506060601482511061099657600061095f83612794565b60601c905061097581631aed5a8560e21b610fe0565b15610994576109916001600160a01b0382168b8b8b3334611069565b91505b505b83816040516020016109a99291906127d0565b60405160208183030381529060405295508834336001600160a01b03167f9c3ba68eb5742b8e3961aea0afc7371a71bf433c8a67a831803b64c064a178c28b8b8b6040516109f99392919061281e565b60405180910390a450505050509392505050565b610a15610b89565b610a1d61121a565b565b610a1d61131b565b610a2f610b89565b610a398282610d50565b5050565b610a45610b89565b610a4e816113f3565b50565b6000546001600160a01b03828116911614610a4e57600080546001600160a01b038381166001600160a01b0319831681178455604051919092169283917f8be0079c531659141344cd1fd0a4f28419497f9722a3daafe3b4186f6b6457e09190a35050565b600080610aed7fcee78b4094da86011096000000000000000000000000000000000000000000006001600160e01b031985166111b1565b90506000610afa82610f3e565b610b0390612794565b60601c949350505050565b60006001600160e01b031982167fa918fa6b0000000000000000000000000000000000000000000000000000000014806104e857506104e882611549565b600080610b5f6301ffc9a760e01b610ab6565b90506001600160a01b038116610b785750600092915050565b610b828184610fe0565b9392505050565b33610b9c6000546001600160a01b031690565b6001600160a01b031614610a1d5760405162461bcd60e51b815260206004820181905260248201527f4f776e61626c653a2063616c6c6572206973206e6f7420746865206f776e657260448201526064016103ef565b606083518551141580610c13575082518451141580610c1357508151835114155b15610c4a576040517f3ff55f4d00000000000000000000000000000000000000000000000000000000815260040160405180910390fd5b6000855167ffffffffffffffff811115610c6657610c66612191565b604051908082528060200260200182016040528015610c9957816020015b6060815260200190600190039081610c845790505b50905060005b8651811015610d4657610d18878281518110610cbd57610cbd612730565b6020026020010151878381518110610cd757610cd7612730565b6020026020010151878481518110610cf157610cf1612730565b6020026020010151878581518110610d0b57610d0b612730565b6020026020010151610de8565b828281518110610d2a57610d2a612730565b6020026020010181905250610d3f8160010190565b9050610c9f565b5095945050505050565b6000828152600160205260409020610d6882826128c6565b50817fece574603820d07bc9b91f2a932baadf4628aabcb8afba49776529c14a6104b261010083511115610da957610da4836000610100611587565b610dab565b825b604051610db89190612638565b60405180910390a25050565b6000806000610dd385856116af565b91509150610de0816116f4565b509392505050565b606084610e0157610dfa848484611859565b905061053b565b60018503610e3b576001600160a01b03841615610e3157604051631820c12560e11b815260040160405180910390fd5b610dfa8383611985565b60028503610e75576001600160a01b03841615610e6b57604051631820c12560e11b815260040160405180910390fd5b610dfa8383611a9f565b60038503610ebf578215610eb5576040517f72f2bc6a00000000000000000000000000000000000000000000000000000000815260040160405180910390fd5b610dfa8483611b8a565b60048503610f09578215610eff576040517f5ac8313500000000000000000000000000000000000000000000000000000000815260040160405180910390fd5b610dfa8483611c89565b6040517f7583b3bc000000000000000000000000000000000000000000000000000000008152600481018690526024016103ef565b6000818152600160205260409020805460609190610f5b90612844565b80601f0160208091040260200160405190810160405280929190818152602001828054610f8790612844565b8015610fd45780601f10610fa957610100808354040283529160200191610fd4565b820191906000526020600020905b815481529060010190602001808311610fb757829003601f168201915b50505050509050919050565b604080516001600160e01b03198316602480830191909152825180830390910181526044909101909152602080820180516001600160e01b03166301ffc9a760e01b178152825160009392849283928392918391908a617530fa92503d91506000519050828015611052575060208210155b801561105e5750600081115b979650505050505050565b60606000636bb56a1460e01b87878760405160240161108a93929190612986565b60408051601f19818403018152918152602080830180516001600160e01b03166001600160e01b031990951694909417909352516110cc9287918791016129a0565b6040516020818303038152906040529050600080896001600160a01b0316836040516110f8919061275f565b6000604051808303816000865af19150503d8060008114611135576040519150601f19603f3d011682016040523d82523d6000602084013e61113a565b606091505b509150915061117f82826040518060400160405280602081526020017f43616c6c20746f20756e6976657273616c5265636569766572206661696c6564815250611d35565b50805160000361118f57806111a3565b808060200190518101906111a391906129df565b9a9950505050505050505050565b604080517fffffffffffffffffffff00000000000000000000000000000000000000000000841660208201526000602a82018190526bffffffffffffffffffffffff198416602c8301529182910160405160208183030381529060405290508061053b90612a4d565b600254439060009061122e90606490612a87565b9050600061123d606483612a87565b90508083111561128a576002839055600380546001600160a01b03191690556040517f81b7f830f1f0084db6497c486cbe6974c86488dcc4e3738eab94ab6d6b1653e790600090a1505050565b818310156112ce576040517f8b9bf50700000000000000000000000000000000000000000000000000000000815260048101839052602481018290526044016103ef565b6112d86000610a51565b60006002819055600380546001600160a01b03191690556040517fd1f66c3d2bc1993a86be5e3d33709d98f0442381befcedd29f578b9b2506b1ce9190a1505050565b6003546001600160a01b0316331461139b5760405162461bcd60e51b815260206004820152602560248201527f4c535031343a2063616c6c6572206973206e6f74207468652070656e64696e6760448201527f4f776e657200000000000000000000000000000000000000000000000000000060648201526084016103ef565b6000546001600160a01b03166113b033610a51565b600380546001600160a01b03191690556040805160208101909152600081526113da908290611d4e565b610a4e3360405180602001604052806000815250611df9565b306001600160a01b03821603611435576040517f43b248cd00000000000000000000000000000000000000000000000000000000815260040160405180910390fd5b600380546001600160a01b0383166001600160a01b03199091161790556000600281905561146b6000546001600160a01b031690565b9050816001600160a01b0316816001600160a01b03167f38d16b8cac22d99fc7c124b9cd0de2d3fa1faef420bfe791d8c362d765e2270060405160405180910390a36114c68260405180602001604052806000815250611e5d565b6000546001600160a01b03828116911614610a395760405162461bcd60e51b815260206004820152603f60248201527f4c535031343a206e65774f776e6572204d55535420616363657074206f776e6560448201527f727368697020696e2061207365706172617465207472616e73616374696f6e0060648201526084016103ef565b60006001600160e01b031982167f714df77c0000000000000000000000000000000000000000000000000000000014806104e857506104e882611ec1565b60608161159581601f612a87565b10156115e35760405162461bcd60e51b815260206004820152600e60248201527f736c6963655f6f766572666c6f7700000000000000000000000000000000000060448201526064016103ef565b6115ed8284612a87565b8451101561163d5760405162461bcd60e51b815260206004820152601160248201527f736c6963655f6f75744f66426f756e647300000000000000000000000000000060448201526064016103ef565b60608215801561165c57604051915060008252602082016040526116a6565b6040519150601f8416801560200281840101858101878315602002848b0101015b8183101561169557805183526020928301920161167d565b5050858452601f01601f1916604052505b50949350505050565b60008082516041036116e55760208301516040840151606085015160001a6116d987828585611f0f565b945094505050506116ed565b506000905060025b9250929050565b600081600481111561170857611708612a9f565b036117105750565b600181600481111561172457611724612a9f565b036117715760405162461bcd60e51b815260206004820152601860248201527f45434453413a20696e76616c6964207369676e6174757265000000000000000060448201526064016103ef565b600281600481111561178557611785612a9f565b036117d25760405162461bcd60e51b815260206004820152601f60248201527f45434453413a20696e76616c6964207369676e6174757265206c656e6774680060448201526064016103ef565b60038160048111156117e6576117e6612a9f565b03610a4e5760405162461bcd60e51b815260206004820152602260248201527f45434453413a20696e76616c6964207369676e6174757265202773272076616c60448201527f756500000000000000000000000000000000000000000000000000000000000060648201526084016103ef565b606082471015611885576040516301bf351f60e31b8152476004820152602481018490526044016103ef565b826001600160a01b03851660007f4810874456b8e6487bd861375cf6abd8e1c8bb5858c8ce36a86a04dabfac199e6118bc86612ab5565b6040516001600160e01b0319909116815260200160405180910390a4600080856001600160a01b031685856040516118f4919061275f565b60006040518083038185875af1925050503d8060008114611931576040519150601f19603f3d011682016040523d82523d6000602084013e611936565b606091505b509150915061197b82826040518060400160405280601681526020017f455243373235583a20556e6b6e6f776e204572726f7200000000000000000000815250611d35565b9695505050505050565b6060824710156119b1576040516301bf351f60e31b8152476004820152602481018490526044016103ef565b81516000036119d35760405163b81cd8d960e01b815260040160405180910390fd5b600082516020840185f090506001600160a01b038116611a1f576040517f0b07489b00000000000000000000000000000000000000000000000000000000815260040160405180910390fd5b6040516bffffffffffffffffffffffff19606083901b166020820152603401604051602081830303815290604052915083816001600160a01b031660017fa1fb700aaee2ae4a2ff6f91ce7eba292f89c2f5488b8ec4c5c5c8150692595c36000801b604051611a9091815260200190565b60405180910390a45092915050565b60608151600003611ac35760405163b81cd8d960e01b815260040160405180910390fd5b6000611adc8360208551611ad79190612ae9565b611fd3565b90506000611af984600060208751611af49190612ae9565b611587565b90506000611b08868484612039565b6040516bffffffffffffffffffffffff19606083901b166020820152909150603401604051602081830303815290604052935085816001600160a01b031660027fa1fb700aaee2ae4a2ff6f91ce7eba292f89c2f5488b8ec4c5c5c8150692595c386604051611b7991815260200190565b60405180910390a450505092915050565b606060006001600160a01b03841660037f4810874456b8e6487bd861375cf6abd8e1c8bb5858c8ce36a86a04dabfac199e611bc486612ab5565b6040516001600160e01b0319909116815260200160405180910390a4600080846001600160a01b031684604051611bfb919061275f565b600060405180830381855afa9150503d8060008114611c36576040519150601f19603f3d011682016040523d82523d6000602084013e611c3b565b606091505b5091509150611c8082826040518060400160405280601681526020017f455243373235583a20556e6b6e6f776e204572726f7200000000000000000000815250611d35565b95945050505050565b606060006001600160a01b03841660047f4810874456b8e6487bd861375cf6abd8e1c8bb5858c8ce36a86a04dabfac199e611cc386612ab5565b6040516001600160e01b0319909116815260200160405180910390a4600080846001600160a01b031684604051611cfa919061275f565b600060405180830381855af49150503d8060008114611c36576040519150601f19603f3d011682016040523d82523d6000602084013e611c3b565b60608315611d44575081610b82565b610b82838361213d565b611d5f82631aed5a8560e21b610fe0565b15610a3957604051631aed5a8560e21b81526001600160a01b03831690636bb56a1490611db2907fa4e59c931d14f7c8a7a35027f92ee40b5f2886b9fdcdb78f30bc5ecce5a2f814908590600401612746565b6000604051808303816000875af1158015611dd1573d6000803e3d6000fd5b505050506040513d6000823e601f3d908101601f1916820160405261042c91908101906129df565b611e0a82631aed5a8560e21b610fe0565b15610a3957604051631aed5a8560e21b81526001600160a01b03831690636bb56a1490611db2907fceca317f109c43507871523e82dc2a3cc64dfa18f12da0b6db14f6e23f995538908590600401612746565b611e6e82631aed5a8560e21b610fe0565b15610a3957604051631aed5a8560e21b81526001600160a01b03831690636bb56a1490611db2907fe17117c9d2665d1dbeb479ed8058bbebde3c50ac50e2e65619f60006caac6926908590600401612746565b60006001600160e01b031982167f570ef0730000000000000000000000000000000000000000000000000000000014806104e857506301ffc9a760e01b6001600160e01b03198316146104e8565b6000807f7fffffffffffffffffffffffffffffff5d576e7357a4501ddfe92f46681b20a0831115611f465750600090506003611fca565b6040805160008082526020820180845289905260ff881692820192909252606081018690526080810185905260019060a0016020604051602081039080840390855afa158015611f9a573d6000803e3d6000fd5b5050604051601f1901519150506001600160a01b038116611fc357600060019250925050611fca565b9150600090505b94509492505050565b6000611fe0826020612a87565b835110156120305760405162461bcd60e51b815260206004820152601560248201527f746f427974657333325f6f75744f66426f756e6473000000000000000000000060448201526064016103ef565b50016020015190565b60008347101561208b5760405162461bcd60e51b815260206004820152601d60248201527f437265617465323a20696e73756666696369656e742062616c616e636500000060448201526064016103ef565b81516000036120dc5760405162461bcd60e51b815260206004820181905260248201527f437265617465323a2062797465636f6465206c656e677468206973207a65726f60448201526064016103ef565b8282516020840186f590506001600160a01b038116610b825760405162461bcd60e51b815260206004820152601960248201527f437265617465323a204661696c6564206f6e206465706c6f790000000000000060448201526064016103ef565b81511561214d5781518083602001fd5b8060405162461bcd60e51b81526004016103ef9190612638565b60006020828403121561217957600080fd5b81356001600160e01b031981168114610b8257600080fd5b634e487b7160e01b600052604160045260246000fd5b604051601f8201601f1916810167ffffffffffffffff811182821017156121d0576121d0612191565b604052919050565b600067ffffffffffffffff8211156121f2576121f2612191565b5060051b60200190565b600082601f83011261220d57600080fd5b8135602061222261221d836121d8565b6121a7565b82815260059290921b8401810191818101908684111561224157600080fd5b8286015b8481101561225c5780358352918301918301612245565b509695505050505050565b80356001600160a01b038116811461227e57600080fd5b919050565b600067ffffffffffffffff82111561229d5761229d612191565b50601f01601f191660200190565b600082601f8301126122bc57600080fd5b81356122ca61221d82612283565b8181528460208386010111156122df57600080fd5b816020850160208301376000918101602001919091529392505050565b600082601f83011261230d57600080fd5b8135602061231d61221d836121d8565b82815260059290921b8401810191818101908684111561233c57600080fd5b8286015b8481101561225c57803567ffffffffffffffff8111156123605760008081fd5b61236e8986838b01016122ab565b845250918301918301612340565b6000806000806080858703121561239257600080fd5b843567ffffffffffffffff808211156123aa57600080fd5b6123b6888389016121fc565b95506020915081870135818111156123cd57600080fd5b8701601f810189136123de57600080fd5b80356123ec61221d826121d8565b81815260059190911b8201840190848101908b83111561240b57600080fd5b928501925b828410156124305761242184612267565b82529285019290850190612410565b9750505050604087013591508082111561244957600080fd5b612455888389016121fc565b9350606087013591508082111561246b57600080fd5b50612478878288016122fc565b91505092959194509250565b60005b8381101561249f578181015183820152602001612487565b838111156124ae576000848401525b50505050565b600081518084526124cc816020860160208601612484565b601f01601f19169290920160200192915050565b6000602080830181845280855180835260408601915060408160051b870101925083870160005b8281101561253557603f198886030184526125238583516124b4565b94509285019290850190600101612507565b5092979650505050505050565b6000806040838503121561255557600080fd5b823567ffffffffffffffff8082111561256d57600080fd5b612579868387016121fc565b9350602085013591508082111561258f57600080fd5b5061259c858286016122fc565b9150509250929050565b600080604083850312156125b957600080fd5b82359150602083013567ffffffffffffffff8111156125d757600080fd5b61259c858286016122ab565b600080600080608085870312156125f957600080fd5b8435935061260960208601612267565b925060408501359150606085013567ffffffffffffffff81111561262c57600080fd5b612478878288016122ab565b602081526000610b8260208301846124b4565b60006020828403121561265d57600080fd5b813567ffffffffffffffff81111561267457600080fd5b61053b848285016121fc565b60006020828403121561269257600080fd5b5035919050565b6000806000604084860312156126ae57600080fd5b83359250602084013567ffffffffffffffff808211156126cd57600080fd5b818601915086601f8301126126e157600080fd5b8135818111156126f057600080fd5b87602082850101111561270257600080fd5b6020830194508093505050509250925092565b60006020828403121561272757600080fd5b610b8282612267565b634e487b7160e01b600052603260045260246000fd5b82815260406020820152600061053b60408301846124b4565b60008251612771818460208701612484565b9190910192915050565b60006020828403121561278d57600080fd5b5051919050565b805160208201516bffffffffffffffffffffffff1980821692919060148310156127c85780818460140360031b1b83161693505b505050919050565b6040815260006127e360408301856124b4565b8281036020840152611c8081856124b4565b81835281816020850137506000828201602090810191909152601f909101601f19169091010190565b6040815260006128326040830185876127f5565b828103602084015261197b81856124b4565b600181811c9082168061285857607f821691505b60208210810361084d57634e487b7160e01b600052602260045260246000fd5b601f82111561042c57600081815260208120601f850160051c8101602086101561289f5750805b601f850160051c820191505b818110156128be578281556001016128ab565b505050505050565b815167ffffffffffffffff8111156128e0576128e0612191565b6128f4816128ee8454612844565b84612878565b602080601f83116001811461292957600084156129115750858301515b600019600386901b1c1916600185901b1785556128be565b600085815260208120601f198616915b8281101561295857888601518255948401946001909101908401612939565b50858210156129765787850151600019600388901b60f8161c191681555b5050505050600190811b01905550565b8381526040602082015260006105386040830184866127f5565b600084516129b2818460208901612484565b60609490941b6bffffffffffffffffffffffff191691909301908152601481019190915260340192915050565b6000602082840312156129f157600080fd5b815167ffffffffffffffff811115612a0857600080fd5b8201601f81018413612a1957600080fd5b8051612a2761221d82612283565b818152856020838501011115612a3c57600080fd5b611c80826020830160208601612484565b8051602080830151919081101561084d5760001960209190910360031b1b16919050565b634e487b7160e01b600052601160045260246000fd5b60008219821115612a9a57612a9a612a71565b500190565b634e487b7160e01b600052602160045260246000fd5b6000815160208301516001600160e01b0319808216935060048310156127c85760049290920360031b82901b161692915050565b600082821015612afb57612afb612a71565b50039056fea26469706673582212206c9422258041e03206e120c9b57b0d41bb1ea987485c6fa24466c38668a9802c64736f6c634300080f0033",
  "linkReferences": {},
  "deployedLinkReferences": {}
}