{
  "_format": "hh-sol-artifact-1",
  "contractName": "LSP1UniversalReceiverDelegateUP",
  "sourceName": "contracts/LSP1UniversalReceiver/LSP1UniversalReceiverDelegateUP/LSP1UniversalReceiverDelegateUP.sol",
  "abi": [
    {
      "inputs": [
        {
          "internalType": "address",
          "name": "account",
          "type": "address"
        },
        {
          "internalType": "address",
          "name": "target",
          "type": "address"
        }
      ],
      "name": "CallerNotLSP6LinkedTarget",
      "type": "error"
    },
    {
      "inputs": [
        {
          "internalType": "address",
          "name": "caller",
          "type": "address"
        }
      ],
      "name": "CannotRegisterEOAsAsAssets",
      "type": "error"
    },
    {
      "inputs": [
        {
          "internalType": "bytes",
          "name": "invalidValue",
          "type": "bytes"
        },
        {
          "internalType": "uint256",
          "name": "invalidValueLength",
          "type": "uint256"
        }
      ],
      "name": "InvalidLSP10ReceivedVaultsArrayLength",
      "type": "error"
    },
    {
      "inputs": [
        {
          "internalType": "bytes",
          "name": "invalidValue",
          "type": "bytes"
        },
        {
          "internalType": "uint256",
          "name": "invalidValueLength",
          "type": "uint256"
        }
      ],
      "name": "InvalidLSP5ReceivedAssetsArrayLength",
      "type": "error"
    },
    {
      "inputs": [],
      "name": "NativeTokensNotAccepted",
      "type": "error"
    },
    {
      "inputs": [
        {
          "internalType": "uint256",
          "name": "index",
          "type": "uint256"
        }
      ],
      "name": "ReceivedAssetsIndexSuperiorToUint128",
      "type": "error"
    },
    {
      "inputs": [
        {
          "internalType": "uint256",
          "name": "index",
          "type": "uint256"
        }
      ],
      "name": "ReceivedAssetsIndexSuperiorToUint64",
      "type": "error"
    },
    {
      "inputs": [
        {
          "internalType": "uint256",
          "name": "index",
          "type": "uint256"
        }
      ],
      "name": "VaultIndexSuperiorToUint128",
      "type": "error"
    },
    {
      "inputs": [
        {
          "internalType": "uint256",
          "name": "index",
          "type": "uint256"
        }
      ],
      "name": "VaultIndexSuperiorToUint64",
      "type": "error"
    },
    {
      "anonymous": false,
      "inputs": [
        {
          "indexed": true,
          "internalType": "address",
          "name": "from",
          "type": "address"
        },
        {
          "indexed": true,
          "internalType": "uint256",
          "name": "value",
          "type": "uint256"
        },
        {
          "indexed": true,
          "internalType": "bytes32",
          "name": "typeId",
          "type": "bytes32"
        },
        {
          "indexed": false,
          "internalType": "bytes",
          "name": "receivedData",
          "type": "bytes"
        },
        {
          "indexed": false,
          "internalType": "bytes",
          "name": "returnedValue",
          "type": "bytes"
        }
      ],
      "name": "UniversalReceiver",
      "type": "event"
    },
    {
      "inputs": [
        {
          "internalType": "bytes4",
          "name": "interfaceId",
          "type": "bytes4"
        }
      ],
      "name": "supportsInterface",
      "outputs": [
        {
          "internalType": "bool",
          "name": "",
          "type": "bool"
        }
      ],
      "stateMutability": "view",
      "type": "function"
    },
    {
      "inputs": [
        {
          "internalType": "bytes32",
          "name": "typeId",
          "type": "bytes32"
        },
        {
          "internalType": "bytes",
          "name": "",
          "type": "bytes"
        }
      ],
      "name": "universalReceiver",
      "outputs": [
        {
          "internalType": "bytes",
          "name": "result",
          "type": "bytes"
        }
      ],
      "stateMutability": "payable",
      "type": "function"
    }
  ],
  "bytecode": "0x608060405234801561001057600080fd5b5061262a806100206000396000f3fe6080604052600436106100295760003560e01c806301ffc9a71461002e5780636bb56a1414610063575b600080fd5b34801561003a57600080fd5b5061004e610049366004612089565b610083565b60405190151581526020015b60405180910390f35b610076610071366004612122565b6100d3565b60405161005a9190612208565b60006001600160e01b031982167f6bb56a140000000000000000000000000000000000000000000000000000000014806100cd57506301ffc9a760e01b6001600160e01b03198316145b92915050565b6060341561010d576040517f114b721a00000000000000000000000000000000000000000000000000000000815260040160405180910390fd5b6000803661011c603482612231565b610127928290612248565b61013091612272565b60601c90506000806000806101448861040a565b93509350935093508315610194576040518060400160405280601981526020017f4c5350313a20747970654964206f7574206f662073636f706500000000000000815250955050505050506100cd565b326001600160a01b038616036101e6576040517fa52953450000000000000000000000000000000000000000000000000000000081526001600160a01b03861660048201526024015b60405180910390fd5b6000806101f1610625565b9150915080610221576040518060600160405280602b8152602001612555602b91399750505050505050506100cd565b7fe6dbb73c3f077380dc740000000000000000000000000000000000000000000075ffffffffffffffffffffffffffffffffffffffffffff198616016102b6576001600160a01b0387163b156102b65761028b6001600160a01b038816637050cee960e01b61078d565b6102b6576040518060600160405280602981526020016125cc602991399750505050505050506100cd565b60006102c5868960601b61082b565b6040516354f6127f60e01b81526004810182905290915060009033906354f6127f90602401600060405180830381865afa158015610307573d6000803e3d6000fd5b505050506040513d6000823e601f3d908101601f1916820160405261032f91908101906122a7565b9050841561039b57600061034282612315565b73ffffffffffffffffffffffffffffffffffffffff191614610387576040518060600160405280602a8152602001612580602a913999505050505050505050506100cd565b6103948c8a86858a610894565b99506103fb565b60006103a682612315565b73ffffffffffffffffffffffffffffffffffffffff1916036103eb576040518060600160405280602281526020016125aa6022913999505050505050505050506100cd565b6103f88c8a8685856109c1565b99505b50505050505050505092915050565b60008080807f429ac7a06903dbc9c13dfcb3c9d11df8194581fa047c96d7a4171fc7402958ea85148061045c57507f20804611b3e2ea21c480dc465142210acf4a2485947541770ec1fb87dee4a55c85145b156104cc5769812c4334633eb816c80d60b01b92507fda1f85e40000000000000000000000000000000000000000000000000000000091507f20804611b3e2ea21c480dc465142210acf4a2485947541770ec1fb87dee4a55c85146104c25760006104c5565b60015b905061061e565b7fb23eae7e6d1564b295b4c3e3be402d9a2f0776c57bdf365903496f6fa481ab0085148061051957507f0b084a55ebf70fd3c06fd755269dac2212c4d3f0f4d09079780bfa50c1b2984d85145b1561057f5769812c4334633eb816c80d60b01b92507f622e7a010000000000000000000000000000000000000000000000000000000091507f0b084a55ebf70fd3c06fd755269dac2212c4d3f0f4d09079780bfa50c1b2984d85146104c25760006104c5565b7f0c622e58e6b7089ae35f1af1c86d997be92fcdd8c9509652022d41aa651694718514806105cc57507f79855c97dbc259ce395421d933d7bc0699b0f1561f988f09a9e8633fd542fe5c85145b15610619576906491230f03e231fc8e360b21b9250637050cee960e01b91507f79855c97dbc259ce395421d933d7bc0699b0f1561f988f09a9e8633fd542fe5c85146104c25760006104c5565b600193505b9193509193565b600080336001600160a01b0316638da5cb5b6040518163ffffffff1660e01b8152600401602060405180830381865afa158015610666573d6000803e3d6000fd5b505050506040513d601f19601f8201168201806040525081019061068a919061235a565b91506106bf6001600160a01b0383167ffb4374140000000000000000000000000000000000000000000000000000000061078d565b156106c8575060015b8015610789576000826001600160a01b031663d4b839926040518163ffffffff1660e01b8152600401602060405180830381865afa15801561070e573d6000803e3d6000fd5b505050506040513d601f19601f82011682018060405250810190610732919061235a565b90506001600160a01b0381163314610787576040517f4c5e815a0000000000000000000000000000000000000000000000000000000081523360048201526001600160a01b03821660248201526044016101dd565b505b9091565b604080516001600160e01b03198316602480830191909152825180830390910181526044909101909152602080820180517bffffffffffffffffffffffffffffffffffffffffffffffffffffffff166301ffc9a760e01b178152825160009392849283928392918391908a617530fa92503d91506000519050828015610814575060208210155b80156108205750600081115b979650505050505050565b6040805175ffffffffffffffffffffffffffffffffffffffffffff19841660208201526000602a82018190526bffffffffffffffffffffffff198416602c830152918291015b60405160208183030381529060405290508061088c90612383565b949350505050565b60607f79855c97dbc259ce395421d933d7bc0699b0f1561f988f09a9e8633fd542fe5c8614610995576040516370a0823160e01b81523360048201526000906001600160a01b038716906370a0823190602401602060405180830381865afa158015610904573d6000803e3d6000fd5b505050506040513d601f19601f8201168201806040525081019061092891906123aa565b90508060000361096d57505060408051808201909152601981527f4c5350313a2062616c616e6365206e6f7420757064617465640000000000000060208201526109b8565b60008061097c33898888610ab4565b9150915061098b878383610f1d565b93505050506109b8565b6000806109a433888787611011565b915091506109b3868383610f1d565b925050505b95945050505050565b60607f0c622e58e6b7089ae35f1af1c86d997be92fcdd8c9509652022d41aa651694718614610aa6576040516370a0823160e01b81523360048201526000906001600160a01b038716906370a0823190602401602060405180830381865afa158015610a31573d6000803e3d6000fd5b505050506040513d601f19601f82011682018060405250810190610a5591906123aa565b90508015610a9857505060408051808201909152601e81527f4c5350313a2066756c6c2062616c616e6365206973206e6f742073656e74000060208201526109b8565b60008061097c33878761127c565b6000806109a4338686611860565b604080516003808252608082019092526060918291906020820183803683370190505060408051600380825260808201909252919350816020015b6060815260200190600190039081610aef579050509050856000610b1282611db5565b90508051600003610cb8577f6460ee3c0aac563ccbf76d6e1d07bada78e3a9514e6382b736ed3f478ab7b90b60001b84600081518110610b5457610b546123c3565b602002602001018181525050600160001b604051602001610b7791815260200190565b60405160208183030381529060405283600081518110610b9957610b996123c3565b6020908102919091010152610bcf7f6460ee3c0aac563ccbf76d6e1d07bada78e3a9514e6382b736ed3f478ab7b90b6000611e45565b84600181518110610be257610be26123c3565b6020026020010181815250508660601b604051602001610c1791906bffffffffffffffffffffffff1991909116815260140190565b60405160208183030381529060405283600181518110610c3957610c396123c3565b60200260200101819052508584600281518110610c5857610c586123c3565b6020908102919091018101919091526040516001600160e01b031987169181019190915260006024820152602c0160405160208183030381529060405283600281518110610ca857610ca86123c3565b6020026020010181905250610f12565b8051602003610edc576000610ccc82612383565b905067ffffffffffffffff610ce28260016123d9565b10610d1c576040517f1c458e39000000000000000000000000000000000000000000000000000000008152600481018290526024016101dd565b845181907f6460ee3c0aac563ccbf76d6e1d07bada78e3a9514e6382b736ed3f478ab7b90b908790600090610d5357610d536123c3565b6020908102919091010152610d698260016123d9565b6040805160208101929092520160405160208183030381529060405285600081518110610d9857610d986123c3565b6020908102919091010152610dcd7f6460ee3c0aac563ccbf76d6e1d07bada78e3a9514e6382b736ed3f478ab7b90b82611e45565b86600181518110610de057610de06123c3565b6020026020010181815250508860601b604051602001610e1591906bffffffffffffffffffffffff1991909116815260140190565b60405160208183030381529060405285600181518110610e3757610e376123c3565b60200260200101819052508786600281518110610e5657610e566123c3565b602002602001018181525050868260c01b604051602001610ea89291906001600160e01b031992909216825277ffffffffffffffffffffffffffffffffffffffffffffffff19166004820152600c0190565b60405160208183030381529060405285600281518110610eca57610eca6123c3565b60200260200101819052505050610f12565b80516040517fecba7af80000000000000000000000000000000000000000000000000000000081526101dd9183916004016123f1565b505094509492505050565b606060006314a6e29360e01b8484604051602401610f3c929190612413565b60408051601f198184030181529181526020820180517bffffffffffffffffffffffffffffffffffffffffffffffffffffffff166001600160e01b03199094169390931790925290517f09c5eabe0000000000000000000000000000000000000000000000000000000081529091506001600160a01b038616906309c5eabe90610fca908490600401612208565b6000604051808303816000875af1158015610fe9573d6000803e3d6000fd5b505050506040513d6000823e601f3d908101601f191682016040526109b891908101906122a7565b604080516003808252608082019092526060918291906020820183803683370190505060408051600380825260808201909252919350816020015b606081526020019060019003908161104c57905050905085600061106f82611e88565b9050805160000361112c577f55482936e01da86729a45d2b87a6b1d3bc582bea0ec00e38bdb340e3af6f9f0660001b846000815181106110b1576110b16123c3565b602002602001018181525050600160001b6040516020016110d491815260200190565b604051602081830303815290604052836000815181106110f6576110f66123c3565b6020908102919091010152610bcf7f55482936e01da86729a45d2b87a6b1d3bc582bea0ec00e38bdb340e3af6f9f066000611e45565b805160200361124657600061114082612383565b9050600061114f8260016123d9565b905067ffffffffffffffff811115611196576040517f0fc1c4db000000000000000000000000000000000000000000000000000000008152600481018290526024016101dd565b7f55482936e01da86729a45d2b87a6b1d3bc582bea0ec00e38bdb340e3af6f9f0660001b866000815181106111cd576111cd6123c3565b6020026020010181815250508060001b6040516020016111ef91815260200190565b60405160208183030381529060405285600081518110611211576112116123c3565b6020908102919091010152610dcd7f55482936e01da86729a45d2b87a6b1d3bc582bea0ec00e38bdb340e3af6f9f0683611e45565b80516040517f12ce1c390000000000000000000000000000000000000000000000000000000081526101dd9183916004016123f1565b60608084600061128b82611db5565b61129490612383565b905060006112a3600183612231565b905060006112b087611ed7565b905060006112e87f6460ee3c0aac563ccbf76d6e1d07bada78e3a9514e6382b736ed3f478ab7b90b67ffffffffffffffff8416611e45565b9050828267ffffffffffffffff1603611470576040805160038082526080820190925290602082016060803683370190505060408051600380825260808201909252919850816020015b60608152602001906001900390816113325790505095507f6460ee3c0aac563ccbf76d6e1d07bada78e3a9514e6382b736ed3f478ab7b90b60001b87600081518110611380576113806123c3565b6020026020010181815250508260001b6040516020016113a291815260200190565b604051602081830303815290604052866000815181106113c4576113c46123c3565b602002602001018190525080876001815181106113e3576113e36123c3565b6020026020010181815250506040518060200160405280600081525086600181518110611412576114126123c3565b60200260200101819052508887600281518110611431576114316123c3565b6020026020010181815250506040518060200160405280600081525086600281518110611460576114606123c3565b6020026020010181905250611853565b60408051600580825260c08201909252906020820160a0803683370190505060408051600580825260c08201909252919850816020015b60608152602001906001900390816114a75790505095507f6460ee3c0aac563ccbf76d6e1d07bada78e3a9514e6382b736ed3f478ab7b90b60001b876000815181106114f5576114f56123c3565b6020026020010181815250508260001b60405160200161151791815260200190565b60405160208183030381529060405286600081518110611539576115396123c3565b60200260200101819052508887600181518110611558576115586123c3565b6020026020010181815250506040518060200160405280600081525086600181518110611587576115876123c3565b60209081029190910101526fffffffffffffffffffffffffffffffff83106115de576040517fe8a4fba0000000000000000000000000000000000000000000000000000000008152600481018490526024016101dd565b82600061160b7f6460ee3c0aac563ccbf76d6e1d07bada78e3a9514e6382b736ed3f478ab7b90b83611e45565b6040516354f6127f60e01b8152600481018290529091506000906001600160a01b038916906354f6127f90602401600060405180830381865afa158015611656573d6000803e3d6000fd5b505050506040513d6000823e601f3d908101601f1916820160405261167e91908101906122a7565b611687906124ab565b905060006116a269812c4334633eb816c80d60b01b8361082b565b6040516354f6127f60e01b8152600481018290529091506000906001600160a01b038b16906354f6127f90602401600060405180830381865afa1580156116ed573d6000803e3d6000fd5b505050506040513d6000823e601f3d908101601f1916820160405261171591908101906122a7565b905060006117268260006004611efb565b9050868d60028151811061173c5761173c6123c3565b6020026020010181815250508360405160200161176e91906bffffffffffffffffffffffff1991909116815260140190565b6040516020818303038152906040528c600281518110611790576117906123c3565b6020026020010181905250848d6003815181106117af576117af6123c3565b602002602001018181525050604051806020016040528060008152508c6003815181106117de576117de6123c3565b6020026020010181905250828d6004815181106117fd576117fd6123c3565b602002602001018181525050808860c01b60405160200161181f9291906124e3565b6040516020818303038152906040528c600481518110611841576118416123c3565b60200260200101819052505050505050505b5050505050935093915050565b6040516354f6127f60e01b81527f55482936e01da86729a45d2b87a6b1d3bc582bea0ec00e38bdb340e3af6f9f066004820152606090819085906000906001600160a01b038316906354f6127f90602401600060405180830381865afa1580156118ce573d6000803e3d6000fd5b505050506040513d6000823e601f3d908101601f191682016040526118f691908101906122a7565b6118ff90612383565b90506fffffffffffffffffffffffffffffffff81111561194e576040517f76f9db1b000000000000000000000000000000000000000000000000000000008152600481018290526024016101dd565b600061195b600183612523565b9050600061196887611ed7565b905060006119a07f55482936e01da86729a45d2b87a6b1d3bc582bea0ec00e38bdb340e3af6f9f0667ffffffffffffffff8416611e45565b9050826fffffffffffffffffffffffffffffffff168267ffffffffffffffff1603611a72576040805160038082526080820190925290602082016060803683370190505060408051600380825260808201909252919850816020015b60608152602001906001900390816119fc5790505095507f55482936e01da86729a45d2b87a6b1d3bc582bea0ec00e38bdb340e3af6f9f0660001b87600081518110611a4a57611a4a6123c3565b6020908102919091010152611a60600185612231565b604080516020810192909252016113a2565b60408051600580825260c08201909252906020820160a0803683370190505060408051600580825260c08201909252919850816020015b6060815260200190600190039081611aa95790505095507f55482936e01da86729a45d2b87a6b1d3bc582bea0ec00e38bdb340e3af6f9f0660001b87600081518110611af757611af76123c3565b6020908102919091010152611b0d600185612231565b6040805160208101929092520160405160208183030381529060405286600081518110611b3c57611b3c6123c3565b60200260200101819052508887600181518110611b5b57611b5b6123c3565b6020026020010181815250506040518060200160405280600081525086600181518110611b8a57611b8a6123c3565b60209081029190910101526000611bc17f55482936e01da86729a45d2b87a6b1d3bc582bea0ec00e38bdb340e3af6f9f0685611e45565b6040516354f6127f60e01b8152600481018290529091506000906001600160a01b038816906354f6127f90602401600060405180830381865afa158015611c0c573d6000803e3d6000fd5b505050506040513d6000823e601f3d908101601f19168201604052611c3491908101906122a7565b611c3d906124ab565b90506000611c586906491230f03e231fc8e360b21b8361082b565b9050838a600281518110611c6e57611c6e6123c3565b60200260200101818152505081604051602001611ca091906bffffffffffffffffffffffff1991909116815260140190565b60405160208183030381529060405289600281518110611cc257611cc26123c3565b6020026020010181905250828a600381518110611ce157611ce16123c3565b6020026020010181815250506040518060200160405280600081525089600381518110611d1057611d106123c3565b6020026020010181905250808a600481518110611d2f57611d2f6123c3565b602090810291909101810191909152604051637050cee960e01b9181019190915277ffffffffffffffffffffffffffffffffffffffffffffffff1960c087901b166024820152602c0160405160208183030381529060405289600481518110611d9a57611d9a6123c3565b60200260200101819052505050505050505050935093915050565b6040516354f6127f60e01b81527f6460ee3c0aac563ccbf76d6e1d07bada78e3a9514e6382b736ed3f478ab7b90b60048201526060906001600160a01b038316906354f6127f906024015b600060405180830381865afa158015611e1d573d6000803e3d6000fd5b505050506040513d6000823e601f3d908101601f191682016040526100cd91908101906122a7565b604080517fffffffffffffffffffffffffffffffff000000000000000000000000000000008085166020830152608084901b166030820152600091829101610871565b6040516354f6127f60e01b81527f55482936e01da86729a45d2b87a6b1d3bc582bea0ec00e38bdb340e3af6f9f0660048201526060906001600160a01b038316906354f6127f90602401611e00565b600080611ee78360046008611efb565b9050611ef4816000612023565b9392505050565b606081611f0981601f6123d9565b1015611f575760405162461bcd60e51b815260206004820152600e60248201527f736c6963655f6f766572666c6f7700000000000000000000000000000000000060448201526064016101dd565b611f6182846123d9565b84511015611fb15760405162461bcd60e51b815260206004820152601160248201527f736c6963655f6f75744f66426f756e647300000000000000000000000000000060448201526064016101dd565b606082158015611fd0576040519150600082526020820160405261201a565b6040519150601f8416801560200281840101858101878315602002848b0101015b81831015612009578051835260209283019201611ff1565b5050858452601f01601f1916604052505b50949350505050565b60006120308260086123d9565b835110156120805760405162461bcd60e51b815260206004820152601460248201527f746f55696e7436345f6f75744f66426f756e647300000000000000000000000060448201526064016101dd565b50016008015190565b60006020828403121561209b57600080fd5b81356001600160e01b031981168114611ef457600080fd5b634e487b7160e01b600052604160045260246000fd5b604051601f8201601f1916810167ffffffffffffffff811182821017156120f2576120f26120b3565b604052919050565b600067ffffffffffffffff821115612114576121146120b3565b50601f01601f191660200190565b6000806040838503121561213557600080fd5b82359150602083013567ffffffffffffffff81111561215357600080fd5b8301601f8101851361216457600080fd5b8035612177612172826120fa565b6120c9565b81815286602083850101111561218c57600080fd5b816020840160208301376000602083830101528093505050509250929050565b60005b838110156121c75781810151838201526020016121af565b838111156121d6576000848401525b50505050565b600081518084526121f48160208601602086016121ac565b601f01601f19169290920160200192915050565b602081526000611ef460208301846121dc565b634e487b7160e01b600052601160045260246000fd5b6000828210156122435761224361221b565b500390565b6000808585111561225857600080fd5b8386111561226557600080fd5b5050820193919092039150565b6bffffffffffffffffffffffff19813581811691601485101561229f5780818660140360031b1b83161692505b505092915050565b6000602082840312156122b957600080fd5b815167ffffffffffffffff8111156122d057600080fd5b8201601f810184136122e157600080fd5b80516122ef612172826120fa565b81815285602083850101111561230457600080fd5b6109b88260208301602086016121ac565b60008151602083015173ffffffffffffffffffffffffffffffffffffffff198082169350600c83101561235257808184600c0360031b1b83161693505b505050919050565b60006020828403121561236c57600080fd5b81516001600160a01b0381168114611ef457600080fd5b805160208083015191908110156123a4576000198160200360031b1b821691505b50919050565b6000602082840312156123bc57600080fd5b5051919050565b634e487b7160e01b600052603260045260246000fd5b600082198211156123ec576123ec61221b565b500190565b60408152600061240460408301856121dc565b90508260208301529392505050565b604080825283519082018190526000906020906060840190828701845b8281101561244c57815184529284019290840190600101612430565b50505083810382850152845180825282820190600581901b8301840187850160005b8381101561249c57601f1986840301855261248a8383516121dc565b9487019492509086019060010161246e565b50909998505050505050505050565b805160208201516bffffffffffffffffffffffff1980821692919060148310156123525760149290920360031b82901b161692915050565b600083516124f58184602088016121ac565b77ffffffffffffffffffffffffffffffffffffffffffffffff19939093169190920190815260080192915050565b60006fffffffffffffffffffffffffffffffff8381169083168181101561254c5761254c61221b565b03939250505056fe4c5350313a206163636f756e74206f776e6572206973206e6f742061204c5350364b65794d616e616765724c5350313a20617373657420726563656976656420697320616c726561647920726567697374657265644c5350313a2061737365742073656e74206973206e6f7420726567697374657265644c5350313a206e6f7420616e204c5350395661756c74206f776e657273686970207472616e73666572a26469706673582212200a83633ba543ee184e625d741bac6f7cf6f6adc07589c940640d6116d80d30be64736f6c634300080f0033",
  "linkReferences": {},
  "deployedLinkReferences": {}
}