{
  "_format": "hh-sol-artifact-1",
  "contractName": "LSP16UniversalFactory",
  "sourceName": "contracts/LSP16UniversalFactory/LSP16UniversalFactory.sol",
  "abi": [
    {
      "inputs": [],
      "name": "CannotInitializeContract",
      "type": "error"
    },
    {
      "inputs": [],
      "name": "InvalidMsgValueDistribution",
      "type": "error"
    },
    {
      "anonymous": false,
      "inputs": [
        {
          "indexed": true,
          "internalType": "address",
          "name": "contractCreated",
          "type": "address"
        },
        {
          "indexed": true,
          "internalType": "bytes32",
          "name": "providedSalt",
          "type": "bytes32"
        },
        {
          "indexed": true,
          "internalType": "bool",
          "name": "initializable",
          "type": "bool"
        },
        {
          "indexed": false,
          "internalType": "bytes",
          "name": "initializeCalldata",
          "type": "bytes"
        }
      ],
      "name": "ContractCreated",
      "type": "event"
    },
    {
      "inputs": [
        {
          "internalType": "bytes32",
          "name": "byteCodeHash",
          "type": "bytes32"
        },
        {
          "internalType": "bytes32",
          "name": "providedSalt",
          "type": "bytes32"
        },
        {
          "internalType": "bool",
          "name": "initializable",
          "type": "bool"
        },
        {
          "internalType": "bytes",
          "name": "initializeCallData",
          "type": "bytes"
        }
      ],
      "name": "calculateAddress",
      "outputs": [
        {
          "internalType": "address",
          "name": "",
          "type": "address"
        }
      ],
      "stateMutability": "view",
      "type": "function"
    },
    {
      "inputs": [
        {
          "internalType": "address",
          "name": "baseContract",
          "type": "address"
        },
        {
          "internalType": "bytes32",
          "name": "providedSalt",
          "type": "bytes32"
        },
        {
          "internalType": "bool",
          "name": "initializable",
          "type": "bool"
        },
        {
          "internalType": "bytes",
          "name": "initializeCallData",
          "type": "bytes"
        }
      ],
      "name": "calculateProxyAddress",
      "outputs": [
        {
          "internalType": "address",
          "name": "",
          "type": "address"
        }
      ],
      "stateMutability": "view",
      "type": "function"
    },
    {
      "inputs": [
        {
          "internalType": "bytes",
          "name": "byteCode",
          "type": "bytes"
        },
        {
          "internalType": "bytes32",
          "name": "providedSalt",
          "type": "bytes32"
        }
      ],
      "name": "deployCreate2",
      "outputs": [
        {
          "internalType": "address",
          "name": "",
          "type": "address"
        }
      ],
      "stateMutability": "payable",
      "type": "function"
    },
    {
      "inputs": [
        {
          "internalType": "bytes",
          "name": "byteCode",
          "type": "bytes"
        },
        {
          "internalType": "bytes32",
          "name": "providedSalt",
          "type": "bytes32"
        },
        {
          "internalType": "bytes",
          "name": "initializeCalldata",
          "type": "bytes"
        },
        {
          "internalType": "uint256",
          "name": "constructorMsgValue",
          "type": "uint256"
        },
        {
          "internalType": "uint256",
          "name": "initializeCalldataMsgValue",
          "type": "uint256"
        }
      ],
      "name": "deployCreate2Init",
      "outputs": [
        {
          "internalType": "address",
          "name": "",
          "type": "address"
        }
      ],
      "stateMutability": "payable",
      "type": "function"
    },
    {
      "inputs": [
        {
          "internalType": "address",
          "name": "baseContract",
          "type": "address"
        },
        {
          "internalType": "bytes32",
          "name": "providedSalt",
          "type": "bytes32"
        }
      ],
      "name": "deployCreate2Proxy",
      "outputs": [
        {
          "internalType": "address",
          "name": "",
          "type": "address"
        }
      ],
      "stateMutability": "nonpayable",
      "type": "function"
    },
    {
      "inputs": [
        {
          "internalType": "address",
          "name": "baseContract",
          "type": "address"
        },
        {
          "internalType": "bytes32",
          "name": "providedSalt",
          "type": "bytes32"
        },
        {
          "internalType": "bytes",
          "name": "initializeCalldata",
          "type": "bytes"
        }
      ],
      "name": "deployCreate2ProxyInit",
      "outputs": [
        {
          "internalType": "address",
          "name": "",
          "type": "address"
        }
      ],
      "stateMutability": "payable",
      "type": "function"
    }
  ],
  "bytecode": "0x608060405234801561001057600080fd5b50610c4e806100206000396000f3fe6080604052600436106100655760003560e01c80637cdf3c5a116100435780637cdf3c5a146100cc5780638d23bbe1146100ec578063cace0e471461010c57600080fd5b8063267363551461006a57806343c329ae146100995780635f4ed88f146100ac575b600080fd5b61007d6100783660046108e2565b61011f565b6040516001600160a01b03909116815260200160405180910390f35b61007d6100a736600461094a565b6101e4565b3480156100b857600080fd5b5061007d6100c73660046109b4565b6102fe565b3480156100d857600080fd5b5061007d6100e7366004610a23565b6103aa565b3480156100f857600080fd5b5061007d610107366004610a4d565b610437565b61007d61011a366004610a7c565b610488565b60008061013d6000604051806020016040528060008152508561061f565b90506000610182348388888080601f01602080910402602001604051908101604052809392919081815260200183838082843760009201919091525061067692505050565b90506000151584826001600160a01b03167fc587425c92859c27d4383bf2eb0ab8ea1670c48039f8d6375b9947b82a20f746604051806020016040528060008152506040516101d19190610b35565b60405180910390a49150505b9392505050565b60008061022a600185858080601f0160208091040260200160405190810160405280939291908181526020018383808284376000920191909152508a925061061f915050565b90506000610238878361077f565b90506001151586826001600160a01b03167fc587425c92859c27d4383bf2eb0ab8ea1670c48039f8d6375b9947b82a20f746888860405161027a929190610b68565b60405180910390a4600080826001600160a01b03163488886040516102a0929190610b97565b60006040518083038185875af1925050503d80600081146102dd576040519150601f19603f3d011682016040523d82523d6000602084013e6102e2565b606091505b50915091506102f1828261081c565b5090979650505050505050565b6000806103438585858080601f0160208091040260200160405190810160405280939291908181526020018383808284376000920191909152508b925061061f915050565b6040513060388201526f5af43d82803e903d91602b57fd5bf3ff602482015260148101899052733d602d80600a3d3981f3363d3d373d3d3d363d738152605881018290526037600c820120607882015260556043909101209091505b979650505050505050565b6000806103c86000604051806020016040528060008152508561061f565b905060006103d6858361077f565b90506000151584826001600160a01b03167fc587425c92859c27d4383bf2eb0ab8ea1670c48039f8d6375b9947b82a20f746604051806020016040528060008152506040516104259190610b35565b60405180910390a49150505b92915050565b60008061047c8585858080601f0160208091040260200160405190810160405280939291908181526020018383808284376000920191909152508b925061061f915050565b905061039f8188610867565b6000346104958385610ba7565b146104cc576040517f0204548400000000000000000000000000000000000000000000000000000000815260040160405180910390fd5b6000610511600187878080601f0160208091040260200160405190810160405280939291908181526020018383808284376000920191909152508c925061061f915050565b9050600061055685838c8c8080601f01602080910402602001604051908101604052809392919081815260200183838082843760009201919091525061067692505050565b90506001151588826001600160a01b03167fc587425c92859c27d4383bf2eb0ab8ea1670c48039f8d6375b9947b82a20f7468a8a604051610598929190610b68565b60405180910390a4600080826001600160a01b0316868a8a6040516105be929190610b97565b60006040518083038185875af1925050503d80600081146105fb576040519150601f19603f3d011682016040523d82523d6000602084013e610600565b606091505b509150915061060f828261081c565b50909a9950505050505050505050565b600083156106595783838360405160200161063c93929190610be6565b6040516020818303038152906040528051906020012090506101dd565b60405184151560f81b60208201526021810183905260410161063c565b6000834710156106cd5760405162461bcd60e51b815260206004820152601d60248201527f437265617465323a20696e73756666696369656e742062616c616e636500000060448201526064015b60405180910390fd5b815160000361071e5760405162461bcd60e51b815260206004820181905260248201527f437265617465323a2062797465636f6465206c656e677468206973207a65726f60448201526064016106c4565b8282516020840186f590506001600160a01b0381166101dd5760405162461bcd60e51b815260206004820152601960248201527f437265617465323a204661696c6564206f6e206465706c6f790000000000000060448201526064016106c4565b6000763d602d80600a3d3981f3363d3d373d3d3d363d730000008360601b60e81c176000526e5af43d82803e903d91602b57fd5bf38360781b1760205281603760096000f590506001600160a01b0381166104315760405162461bcd60e51b815260206004820152601760248201527f455243313136373a2063726561746532206661696c656400000000000000000060448201526064016106c4565b81610863578051156108315780518082602001fd5b6040517f068c2f1700000000000000000000000000000000000000000000000000000000815260040160405180910390fd5b5050565b60006101dd8383306000604051836040820152846020820152828152600b8101905060ff815360559020949350505050565b60008083601f8401126108ab57600080fd5b50813567ffffffffffffffff8111156108c357600080fd5b6020830191508360208285010111156108db57600080fd5b9250929050565b6000806000604084860312156108f757600080fd5b833567ffffffffffffffff81111561090e57600080fd5b61091a86828701610899565b909790965060209590950135949350505050565b80356001600160a01b038116811461094557600080fd5b919050565b6000806000806060858703121561096057600080fd5b6109698561092e565b935060208501359250604085013567ffffffffffffffff81111561098c57600080fd5b61099887828801610899565b95989497509550505050565b8035801515811461094557600080fd5b6000806000806000608086880312156109cc57600080fd5b6109d58661092e565b9450602086013593506109ea604087016109a4565b9250606086013567ffffffffffffffff811115610a0657600080fd5b610a1288828901610899565b969995985093965092949392505050565b60008060408385031215610a3657600080fd5b610a3f8361092e565b946020939093013593505050565b600080600080600060808688031215610a6557600080fd5b85359450602086013593506109ea604087016109a4565b600080600080600080600060a0888a031215610a9757600080fd5b873567ffffffffffffffff80821115610aaf57600080fd5b610abb8b838c01610899565b909950975060208a0135965060408a0135915080821115610adb57600080fd5b50610ae88a828b01610899565b989b979a5095989597966060870135966080013595509350505050565b60005b83811015610b20578181015183820152602001610b08565b83811115610b2f576000848401525b50505050565b6020815260008251806020840152610b54816040850160208701610b05565b601f01601f19169190910160400192915050565b60208152816020820152818360408301376000818301604090810191909152601f909201601f19160101919050565b8183823760009101908152919050565b60008219821115610be1577f4e487b7100000000000000000000000000000000000000000000000000000000600052601160045260246000fd5b500190565b83151560f81b815260008351610c03816001850160208801610b05565b6001920191820192909252602101939250505056fea2646970667358221220be2f16979b55274656cb10bbb6b469ba7ec73fd63ea7f33112830ab1d19bb28964736f6c634300080f0033",
  "linkReferences": {},
  "deployedLinkReferences": {}
}