{
  "_format": "hh-sol-artifact-1",
  "contractName": "LSP6KeyManager",
  "sourceName": "contracts/LSP6KeyManager/LSP6KeyManager.sol",
  "abi": [
    {
      "inputs": [
        {
          "internalType": "address",
          "name": "target_",
          "type": "address"
        }
      ],
      "stateMutability": "nonpayable",
      "type": "constructor"
    },
    {
      "inputs": [
        {
          "internalType": "bytes32",
          "name": "dataKey",
          "type": "bytes32"
        },
        {
          "internalType": "bytes",
          "name": "invalidValue",
          "type": "bytes"
        }
      ],
      "name": "AddressPermissionArrayIndexValueNotAnAddress",
      "type": "error"
    },
    {
      "inputs": [],
      "name": "BatchExecuteParamsLengthMismatch",
      "type": "error"
    },
    {
      "inputs": [],
      "name": "BatchExecuteRelayCallParamsLengthMismatch",
      "type": "error"
    },
    {
      "inputs": [],
      "name": "DelegateCallDisallowedViaKeyManager",
      "type": "error"
    },
    {
      "inputs": [
        {
          "internalType": "bytes4",
          "name": "invalidFunction",
          "type": "bytes4"
        }
      ],
      "name": "InvalidERC725Function",
      "type": "error"
    },
    {
      "inputs": [
        {
          "internalType": "bytes",
          "name": "allowedCallsValue",
          "type": "bytes"
        }
      ],
      "name": "InvalidEncodedAllowedCalls",
      "type": "error"
    },
    {
      "inputs": [
        {
          "internalType": "bytes",
          "name": "value",
          "type": "bytes"
        }
      ],
      "name": "InvalidEncodedAllowedERC725YDataKeys",
      "type": "error"
    },
    {
      "inputs": [],
      "name": "InvalidLSP6Target",
      "type": "error"
    },
    {
      "inputs": [
        {
          "internalType": "bytes",
          "name": "payload",
          "type": "bytes"
        }
      ],
      "name": "InvalidPayload",
      "type": "error"
    },
    {
      "inputs": [
        {
          "internalType": "address",
          "name": "signer",
          "type": "address"
        },
        {
          "internalType": "uint256",
          "name": "invalidNonce",
          "type": "uint256"
        },
        {
          "internalType": "bytes",
          "name": "signature",
          "type": "bytes"
        }
      ],
      "name": "InvalidRelayNonce",
      "type": "error"
    },
    {
      "inputs": [
        {
          "internalType": "address",
          "name": "from",
          "type": "address"
        }
      ],
      "name": "InvalidWhitelistedCall",
      "type": "error"
    },
    {
      "inputs": [
        {
          "internalType": "uint256",
          "name": "totalValues",
          "type": "uint256"
        },
        {
          "internalType": "uint256",
          "name": "msgValue",
          "type": "uint256"
        }
      ],
      "name": "LSP6BatchExcessiveValueSent",
      "type": "error"
    },
    {
      "inputs": [
        {
          "internalType": "uint256",
          "name": "totalValues",
          "type": "uint256"
        },
        {
          "internalType": "uint256",
          "name": "msgValue",
          "type": "uint256"
        }
      ],
      "name": "LSP6BatchInsufficientValueSent",
      "type": "error"
    },
    {
      "inputs": [
        {
          "internalType": "address",
          "name": "from",
          "type": "address"
        }
      ],
      "name": "NoCallsAllowed",
      "type": "error"
    },
    {
      "inputs": [
        {
          "internalType": "address",
          "name": "from",
          "type": "address"
        }
      ],
      "name": "NoERC725YDataKeysAllowed",
      "type": "error"
    },
    {
      "inputs": [
        {
          "internalType": "address",
          "name": "from",
          "type": "address"
        }
      ],
      "name": "NoPermissionsSet",
      "type": "error"
    },
    {
      "inputs": [
        {
          "internalType": "address",
          "name": "from",
          "type": "address"
        },
        {
          "internalType": "address",
          "name": "to",
          "type": "address"
        },
        {
          "internalType": "bytes4",
          "name": "selector",
          "type": "bytes4"
        }
      ],
      "name": "NotAllowedCall",
      "type": "error"
    },
    {
      "inputs": [
        {
          "internalType": "address",
          "name": "from",
          "type": "address"
        },
        {
          "internalType": "bytes32",
          "name": "disallowedKey",
          "type": "bytes32"
        }
      ],
      "name": "NotAllowedERC725YDataKey",
      "type": "error"
    },
    {
      "inputs": [
        {
          "internalType": "address",
          "name": "from",
          "type": "address"
        },
        {
          "internalType": "string",
          "name": "permission",
          "type": "string"
        }
      ],
      "name": "NotAuthorised",
      "type": "error"
    },
    {
      "inputs": [
        {
          "internalType": "bytes32",
          "name": "dataKey",
          "type": "bytes32"
        }
      ],
      "name": "NotRecognisedPermissionKey",
      "type": "error"
    },
    {
      "anonymous": false,
      "inputs": [
        {
          "indexed": true,
          "internalType": "bytes4",
          "name": "selector",
          "type": "bytes4"
        },
        {
          "indexed": true,
          "internalType": "uint256",
          "name": "value",
          "type": "uint256"
        }
      ],
      "name": "Executed",
      "type": "event"
    },
    {
      "inputs": [
        {
          "internalType": "bytes",
          "name": "payload",
          "type": "bytes"
        }
      ],
      "name": "execute",
      "outputs": [
        {
          "internalType": "bytes",
          "name": "",
          "type": "bytes"
        }
      ],
      "stateMutability": "payable",
      "type": "function"
    },
    {
      "inputs": [
        {
          "internalType": "uint256[]",
          "name": "values",
          "type": "uint256[]"
        },
        {
          "internalType": "bytes[]",
          "name": "payloads",
          "type": "bytes[]"
        }
      ],
      "name": "execute",
      "outputs": [
        {
          "internalType": "bytes[]",
          "name": "",
          "type": "bytes[]"
        }
      ],
      "stateMutability": "payable",
      "type": "function"
    },
    {
      "inputs": [
        {
          "internalType": "bytes",
          "name": "signature",
          "type": "bytes"
        },
        {
          "internalType": "uint256",
          "name": "nonce",
          "type": "uint256"
        },
        {
          "internalType": "bytes",
          "name": "payload",
          "type": "bytes"
        }
      ],
      "name": "executeRelayCall",
      "outputs": [
        {
          "internalType": "bytes",
          "name": "",
          "type": "bytes"
        }
      ],
      "stateMutability": "payable",
      "type": "function"
    },
    {
      "inputs": [
        {
          "internalType": "bytes[]",
          "name": "signatures",
          "type": "bytes[]"
        },
        {
          "internalType": "uint256[]",
          "name": "nonces",
          "type": "uint256[]"
        },
        {
          "internalType": "uint256[]",
          "name": "values",
          "type": "uint256[]"
        },
        {
          "internalType": "bytes[]",
          "name": "payloads",
          "type": "bytes[]"
        }
      ],
      "name": "executeRelayCall",
      "outputs": [
        {
          "internalType": "bytes[]",
          "name": "",
          "type": "bytes[]"
        }
      ],
      "stateMutability": "payable",
      "type": "function"
    },
    {
      "inputs": [
        {
          "internalType": "address",
          "name": "from",
          "type": "address"
        },
        {
          "internalType": "uint128",
          "name": "channelId",
          "type": "uint128"
        }
      ],
      "name": "getNonce",
      "outputs": [
        {
          "internalType": "uint256",
          "name": "",
          "type": "uint256"
        }
      ],
      "stateMutability": "view",
      "type": "function"
    },
    {
      "inputs": [
        {
          "internalType": "bytes32",
          "name": "dataHash",
          "type": "bytes32"
        },
        {
          "internalType": "bytes",
          "name": "signature",
          "type": "bytes"
        }
      ],
      "name": "isValidSignature",
      "outputs": [
        {
          "internalType": "bytes4",
          "name": "magicValue",
          "type": "bytes4"
        }
      ],
      "stateMutability": "view",
      "type": "function"
    },
    {
      "inputs": [
        {
          "internalType": "bytes4",
          "name": "interfaceId",
          "type": "bytes4"
        }
      ],
      "name": "supportsInterface",
      "outputs": [
        {
          "internalType": "bool",
          "name": "",
          "type": "bool"
        }
      ],
      "stateMutability": "view",
      "type": "function"
    },
    {
      "inputs": [],
      "name": "target",
      "outputs": [
        {
          "internalType": "address",
          "name": "",
          "type": "address"
        }
      ],
      "stateMutability": "view",
      "type": "function"
    }
  ],
  "bytecode": "0x60806040523480156200001157600080fd5b506040516200338f3803806200338f83398101604081905262000034916200007e565b6001600160a01b0381166200005c5760405163fc85457960e01b815260040160405180910390fd5b600080546001600160a81b0319166001600160a01b03831617905550620000b0565b6000602082840312156200009157600080fd5b81516001600160a01b0381168114620000a957600080fd5b9392505050565b6132cf80620000c06000396000f3fe60806040526004361061007b5760003560e01c8063b44581d91161004e578063b44581d914610121578063bd68663a1461019f578063bf3e1f7b146101bf578063d4b83992146101d257600080fd5b806301ffc9a71461008057806309c5eabe146100b55780631626ba7e146100d5578063902d5fa01461010e575b600080fd5b34801561008c57600080fd5b506100a061009b366004612851565b6101fa565b60405190151581526020015b60405180910390f35b6100c86100c33660046128bd565b610265565b6040516100ac9190612957565b3480156100e157600080fd5b506100f56100f0366004612a2f565b610279565b6040516001600160e01b031990911681526020016100ac565b6100c861011c366004612a76565b6102d1565b34801561012d57600080fd5b5061019161013c366004612ae6565b6001600160a01b03821660009081526001602090815260408083206fffffffffffffffffffffffffffffffff851684529091529020546fffffffffffffffffffffffffffffffff19608083901b161792915050565b6040519081526020016100ac565b6101b26101ad366004612c34565b6102e9565b6040516100ac9190612cf3565b6101b26101cd366004612d55565b6104ce565b3480156101de57600080fd5b506000546040516001600160a01b0390911681526020016100ac565b60006001600160e01b031982167ffb43741400000000000000000000000000000000000000000000000000000000148061024457506001600160e01b03198216630b135d3f60e11b145b8061025f57506301ffc9a760e01b6001600160e01b03198316145b92915050565b606061027234848461065e565b9392505050565b60008061028684846106bb565b6000549091506102ae9062200000906102a8906001600160a01b0316846106df565b81161490565b6102c0576001600160e01b03196102c9565b630b135d3f60e11b5b949350505050565b60606102e0858534868661078d565b95945050505050565b8651606090861415806102fc5750858414155b806103075750838214155b1561033e576040517fb4d50d2100000000000000000000000000000000000000000000000000000000815260040160405180910390fd5b60008267ffffffffffffffff8111156103595761035961296a565b60405190808252806020026020018201604052801561038c57816020015b60608152602001906001900390816103775790505b5090506000805b8481101561049657348888838181106103ae576103ae612db5565b90506020020135836103c09190612de1565b92508211156103f057604051630c28c92b60e21b8152600481018390523460248201526044015b60405180910390fd5b6104688b828151811061040557610405612db5565b60200260200101518b8b8481811061041f5761041f612db5565b905060200201358a8a8581811061043857610438612db5565b9050602002013589898681811061045157610451612db5565b90506020028101906104639190612df9565b61078d565b83828151811061047a5761047a612db5565b602002602001018190525061048f8160010190565b9050610393565b50348110156104c15760405163528c345b60e11b8152600481018290523460248201526044016103e7565b5098975050505050505050565b6060838214610509576040517f55a187db00000000000000000000000000000000000000000000000000000000815260040160405180910390fd5b60008267ffffffffffffffff8111156105245761052461296a565b60405190808252806020026020018201604052801561055757816020015b60608152602001906001900390816105425790505b5090506000805b84811015610629573488888381811061057957610579612db5565b905060200201358361058b9190612de1565b92508211156105b657604051630c28c92b60e21b8152600481018390523460248201526044016103e7565b6105fb8888838181106105cb576105cb612db5565b905060200201358787848181106105e4576105e4612db5565b90506020028101906105f69190612df9565b61065e565b83828151811061060d5761060d612db5565b60200260200101819052506106228160010190565b905061055e565b50348110156106545760405163528c345b60e11b8152600481018290523460248201526044016103e7565b5095945050505050565b60606004821015610686578282604051630d886ef360e21b81526004016103e7929190612e40565b61068f336108bc565b61069a33848461090a565b60006106a7858585610b2f565b90506102c96000805460ff60a01b19169055565b60008060006106ca8585610c63565b915091506106d781610ca8565b509392505050565b6000806001600160a01b0384166354f6127f61071f7f4b80742de2bf82acb36300000000000000000000000000000000000000000000606087901b610e0d565b6040518263ffffffff1660e01b815260040161073d91815260200190565b600060405180830381865afa15801561075a573d6000803e3d6000fd5b505050506040513d6000823e601f3d908101601f191682016040526107829190810190612e6f565b90506102c981612edd565b606060048210156107b5578282604051630d886ef360e21b81526004016103e7929190612e40565b6000600646878787876040516020016107d396959493929190612f04565b60408051601f19818403018152919052905060006107fb886107f53085610e76565b906106bb565b9050610806816108bc565b6108108188610ea9565b61084c578087896040517fc9bd9eb90000000000000000000000000000000000000000000000000000000081526004016103e793929190612f33565b6001600160a01b038116600090815260016020908152604080832060808b901c8452909152812080549161087f83612f5b565b919050555061088f81868661090a565b600061089c878787610b2f565b90506108b06000805460ff60a01b19169055565b98975050505050505050565b600054600160a01b900460ff16156108f4576000546108f19082906108ea906001600160a01b0316826106df565b6080610ef4565b50565b6000805460ff60a01b1916600160a01b17905550565b60008054610921906001600160a01b0316856106df565b905080610965576040517ff292052a0000000000000000000000000000000000000000000000000000000081526001600160a01b03851660048201526024016103e7565b60006109718385612f74565b90507f80dc96f4000000000000000000000000000000000000000000000000000000006001600160e01b03198216016109d8576000806109b48560048189612fa4565b8101906109c19190612a2f565b915091506109d187858484610f45565b5050610b28565b7feb591d6d000000000000000000000000000000000000000000000000000000006001600160e01b0319821601610a3657600080610a198560048189612fa4565b810190610a269190612fce565b915091506109d187858484610fb2565b7fbb3fd702000000000000000000000000000000000000000000000000000000006001600160e01b0319821601610a7857610a73858386866110e6565b610b28565b6001600160e01b031981167ff2fde38b000000000000000000000000000000000000000000000000000000001480610ad957506001600160e01b031981167f79ba509700000000000000000000000000000000000000000000000000000000145b15610aea57610a7385836001610ef4565b6040517f2ba8851c0000000000000000000000000000000000000000000000000000000081526001600160e01b0319821660048201526024016103e7565b5050505050565b606083610b3c8385612f74565b7bffffffffffffffffffffffffffffffffffffffffffffffffffffffff19167f4004d18dc05f04c061c306cbb394d4083af494786ab828142d6118ab2c43a49260405160405180910390a36000805481906001600160a01b0316865a908787604051610ba992919061307d565b600060405180830381858888f193505050503d8060008114610be7576040519150601f19603f3d011682016040523d82523d6000602084013e610bec565b606091505b50915091506000610c3383836040518060400160405280601e81526020017f4c5350363a206661696c656420657865637574696e67207061796c6f61640000815250611287565b90508051600003610c445780610c58565b80806020019051810190610c589190612e6f565b979650505050505050565b6000808251604103610c995760208301516040840151606085015160001a610c8d878285856112a0565b94509450505050610ca1565b506000905060025b9250929050565b6000816004811115610cbc57610cbc61308d565b03610cc45750565b6001816004811115610cd857610cd861308d565b03610d255760405162461bcd60e51b815260206004820152601860248201527f45434453413a20696e76616c6964207369676e6174757265000000000000000060448201526064016103e7565b6002816004811115610d3957610d3961308d565b03610d865760405162461bcd60e51b815260206004820152601f60248201527f45434453413a20696e76616c6964207369676e6174757265206c656e6774680060448201526064016103e7565b6003816004811115610d9a57610d9a61308d565b036108f15760405162461bcd60e51b815260206004820152602260248201527f45434453413a20696e76616c6964207369676e6174757265202773272076616c60448201527f756500000000000000000000000000000000000000000000000000000000000060648201526084016103e7565b604080517fffffffffffffffffffff00000000000000000000000000000000000000000000841660208201526000602a82018190526bffffffffffffffffffffffff198416602c830152918291016040516020818303038152906040529050806102c990612edd565b60008282604051602001610e8b9291906130a3565b60405160208183030381529060405280519060200120905092915050565b6001600160a01b0382166000908152600160209081526040808320608085901c8452909152812054610eec70010000000000000000000000000000000084613101565b149392505050565b8082168114610f40576000610f0882611364565b905083816040517f3bdad6e60000000000000000000000000000000000000000000000000000000081526004016103e7929190613123565b505050565b6000610f518383611752565b90506203ffff198101610fa1576202000080851603610f705750610fac565b610f7e858562040000610ef4565b600054610a739086908590610f9c906001600160a01b031683611976565b611a16565b610b28858583610ef4565b50505050565b600080835167ffffffffffffffff811115610fcf57610fcf61296a565b604051908082528060200260200182016040528015610ff8578160200160208202803683370190505b5090506000805b61103b86828151811061101457611014612db5565b602002602001015186838151811061102e5761102e612db5565b6020026020010151611752565b91506203ffff1982016110515760019350611081565b61105c888884610ef4565b600183828151811061107057611070612db5565b911515602092830291909101909101525b60018101905085518110610fff5783156110dc5762020000808816036110aa5750505050610fac565b6110b8888862040000610ef4565b6000546110dc90899088906110d6906001600160a01b031683611976565b86611b49565b5050505050505050565b60006110f6602460048486612fa4565b6110ff91613145565b9050600319810161113c576040517f80d6ebae00000000000000000000000000000000000000000000000000000000815260040160405180910390fd5b600061114c606460448587612fa4565b61115591613145565b9050600060018314806111685750600283145b905060a4841160008261118d5761118861118186611d59565b8981161490565b611190565b60005b90508015801561119e575081155b80156111a8575083155b156111c0576111c089896111bb88611d8b565b610ef4565b8180156111cb575080155b156111de576111de89896111bb88611d8b565b6101008881161484158015906111f2575080155b15611204576112048a8a610200610ef4565b831561121557505050505050610fac565b818015611220575084155b1561123057505050505050610fac565b80801561123b575082155b801561124657508415155b1561125657505050505050610fac565b8180156112605750805b1561127057505050505050610fac565b61127b8a8989611de1565b50505050505050505050565b60608315611296575081610272565b610272838361208c565b6000807f7fffffffffffffffffffffffffffffff5d576e7357a4501ddfe92f46681b20a08311156112d7575060009050600361135b565b6040805160008082526020820180845289905260ff881692820192909252606081018690526080810185905260019060a0016020604051602081039080840390855afa15801561132b573d6000803e3d6000fd5b5050604051601f1901519150506001600160a01b0381166113545760006001925092505061135b565b9150600090505b94509492505050565b606060001982016113a857505060408051808201909152601181527f5452414e534645524f574e455253484950000000000000000000000000000000602082015290565b60031982016113ea57505060408051808201909152601181527f4348414e47455045524d495353494f4e53000000000000000000000000000000602082015290565b600119820161142c57505060408051808201909152600d81527f414444434f4e54524f4c4c455200000000000000000000000000000000000000602082015290565b600719820161146e57505060408051808201909152600d81527f414444455854454e53494f4e5300000000000000000000000000000000000000602082015290565b600f1982016114b057505060408051808201909152601081527f4348414e4745455854454e53494f4e5300000000000000000000000000000000602082015290565b601f1982016114f257505060408051808201909152601c81527f414444554e4956455253414c524543454956455244454c454741544500000000602082015290565b603f19820161153457505060408051808201909152601f81527f4348414e4745554e4956455253414c524543454956455244454c454741544500602082015290565b607f19820161157657505060408051808201909152600a81527f5245454e5452414e435900000000000000000000000000000000000000000000602082015290565b6203ffff1982016115ba57505060408051808201909152600781527f5345544441544100000000000000000000000000000000000000000000000000602082015290565b6107ff1982016115fd57505060408051808201909152600481527f43414c4c00000000000000000000000000000000000000000000000000000000602082015290565b611fff19820161164057505060408051808201909152600a81527f53544154494343414c4c00000000000000000000000000000000000000000000602082015290565b617fff19820161168357505060408051808201909152600c81527f44454c454741544543414c4c0000000000000000000000000000000000000000602082015290565b61ffff1982016116c657505060408051808201909152600681527f4445504c4f590000000000000000000000000000000000000000000000000000602082015290565b6101ff19820161170957505060408051808201909152600d81527f5452414e5346455256414c554500000000000000000000000000000000000000602082015290565b621fffff19820161174d57505060408051808201909152600481527f5349474e00000000000000000000000000000000000000000000000000000000602082015290565b919050565b60007f20cf245f92495cf19acab2659b39f67a000000000000000000000000000000006fffffffffffffffffffffffffffffffff1984160161179f5761179883836120b6565b905061025f565b7fb47f8bd21d4100000000000000000000000000000000000000000000000000007fffffffffffff00000000000000000000000000000000000000000000000000008416016118cd577fb47f8bd21d407d534c9d000000000000000000000000000000000000000000006001600160a01b031984160161182257611798836121e5565b7fb47f8bd21d40c6c59b39000000000000000000000000000000000000000000006001600160a01b031984160161185d576117988383612274565b7fb47f8bd21d407993d6ef000000000000000000000000000000000000000000006001600160a01b0319841601611898576117988383612325565b6040517f0f7d735b000000000000000000000000000000000000000000000000000000008152600481018490526024016103e7565b7f0cfc51aec37c55a4d0b1a65c6255c4bf2fbdf6277f3cc0730c45b828b6db8b4783148061192457506001600160a01b031983167f0cfc51aec37c55a4d0b100000000000000000000000000000000000000000000145b156119325761179883612368565b7f311874bf6b2579feef6a000000000000000000000000000000000000000000006001600160a01b031984160161196c57611798836123ef565b506204000061025f565b60606001600160a01b0383166354f6127f6119b37f4b80742de2bf866c29110000000000000000000000000000000000000000000085851b610e0d565b6040518263ffffffff1660e01b81526004016119d191815260200190565b600060405180830381865afa1580156119ee573d6000803e3d6000fd5b505050506040513d6000823e601f3d908101601f191682016040526102729190810190612e6f565b8051600003611a435760405163ed7fa50960e01b81526001600160a01b03841660048201526024016103e7565b6000806000805b8451841015611b1e57848481518110611a6557611a65612db5565b01602001516001600160f81b03191685611a80866001612de1565b81518110611a9057611a90612db5565b016020908101516040516001600160f81b031993841692810192909252919091166021820152602201604051602081830303815290604052611ad190613163565b60f01c9250611ae18360206131b3565b611aec9060086131ca565b8585016022015160001990911b908116925090508581168203611b125750505050505050565b92820160020192611a4a565b60405163557ae07960e01b81526001600160a01b0388166004820152602481018790526044016103e7565b8151600003611b765760405163ed7fa50960e01b81526001600160a01b03851660048201526024016103e7565b8251600090818080805b8751841015611cd357878481518110611b9b57611b9b612db5565b01602001516001600160f81b03191688611bb6866001612de1565b81518110611bc657611bc6612db5565b016020908101516040516001600160f81b031993841692810192909252919091166021820152602201604051602081830303815290604052611c0790613163565b60f01c9250611c178360206131b3565b611c229060086131ca565b8885016022015160001990911b9081169250905060005b85811015611cc657878181518110611c5357611c53612db5565b6020026020010151611cbe5782828b8381518110611c7357611c73612db5565b60200260200101511603611cbe576001888281518110611c9557611c95612db5565b91151560209283029190910190910152600187019650858703611cbe5750505050505050610fac565b600101611c39565b5092820160020192611b80565b60005b85811015611d4c57878181518110611cf057611cf0612db5565b6020026020010151611d44578a8a8281518110611d0f57611d0f612db5565b602090810291909101015160405163557ae07960e01b81526001600160a01b03909216600483015260248201526044016103e7565b600101611cd6565b5050505050505050505050565b600081611d695750610400919050565b60038203611d7a5750611000919050565b6004820361174d5750614000919050565b600081611d9b5750610800919050565b60018203611dad575062010000919050565b60028203611dbf575062010000919050565b60038203611dd05750612000919050565b6004820361174d5750618000919050565b6000611df1604460308486612fa4565b611dfa916131e9565b60601c905060a88210801590600090611e2757611e1b60a860a48688612fa4565b611e2491612f74565b90505b60008054611e3e906001600160a01b031688612476565b80519091506000819003611e89576040517f6cb605870000000000000000000000000000000000000000000000000000000081526001600160a01b03891660048201526024016103e7565b6000806000805b848110156120365784611ea482601e612de1565b1115611ec5578560405163187e77ab60e01b81526004016103e79190612957565b6000611edd87611ed6846002612de1565b601c6124b3565b9050611ee88161321c565b63ffffffff199081169003611f34576040517f6fd203c50000000000000000000000000000000000000000000000000000000081526001600160a01b038e1660048201526024016103e7565b6000611f3f8261324c565b905060006020611f4e8461321c565b63ffffffff1916901b60601c9050600060c0611f698561321c565b63ffffffff1916901b90506001600160e01b03198084161480611f9a5750611f9a6001600160a01b038e16846125db565b97506001600160a01b038083161480611fc45750816001600160a01b03168d6001600160a01b0316145b96506001600160e01b03198082161480611ff257508b8015611ff257506001600160e01b03198b8116908216145b9550878015611ffe5750865b80156120075750855b1561201e5750505050505050505050505050505050565b50505050601e8161202f9190612de1565b9050611e90565b506040517f45147bce0000000000000000000000000000000000000000000000000000000081526001600160a01b03808d166004830152891660248201526001600160e01b0319871660448201526064016103e7565b81511561209c5781518083602001fd5b8060405162461bcd60e51b81526004016103e79190612957565b600080546040516354f6127f60e01b81526004810185905282916001600160a01b0316906354f6127f90602401600060405180830381865afa158015612100573d6000803e3d6000fd5b505050506040513d6000823e601f3d908101601f191682016040526121289190810190612e6f565b90507f20cf245f92495cf19acab2659b39f679e0f76aba35a7394b241ce5a0cc734f1d840161218057600061215c84612edd565b905061216782612edd565b8111612174576004612177565b60025b9250505061025f565b82511580159061219257508251601414155b156121cd5783836040517f8f4afa380000000000000000000000000000000000000000000000000000000081526004016103e7929190613280565b8051156121db5760046102c9565b5060029392505050565b600080546040516354f6127f60e01b81526004810184905282916001600160a01b0316906354f6127f90602401600060405180830381865afa15801561222f573d6000803e3d6000fd5b505050506040513d6000823e601f3d908101601f191682016040526122579190810190612e6f565b61226090612edd565b1461226c57600461025f565b600292915050565b600061227f82612675565b61229e578160405163187e77ab60e01b81526004016103e79190612957565b6000546040516354f6127f60e01b8152600481018590526001600160a01b03909116906354f6127f90602401600060405180830381865afa1580156122e7573d6000803e3d6000fd5b505050506040513d6000823e601f3d908101601f1916820160405261230f9190810190612e6f565b511561231c576004610272565b50600292915050565b60006123308261276b565b61229e57816040517f4f0dfdda0000000000000000000000000000000000000000000000000000000081526004016103e79190612957565b600080546040516354f6127f60e01b8152600481018490526001600160a01b03909116906354f6127f90602401600060405180830381865afa1580156123b2573d6000803e3d6000fd5b505050506040513d6000823e601f3d908101601f191682016040526123da9190810190612e6f565b51156123e757604061025f565b602092915050565b600080546040516354f6127f60e01b8152600481018490526001600160a01b03909116906354f6127f90602401600060405180830381865afa158015612439573d6000803e3d6000fd5b505050506040513d6000823e601f3d908101601f191682016040526124619190810190612e6f565b511561246e57601061025f565b600892915050565b60606001600160a01b0383166354f6127f6119b37f4b80742de2bf393a64c70000000000000000000000000000000000000000000085851b610e0d565b6060816124c181601f612de1565b101561250f5760405162461bcd60e51b815260206004820152600e60248201527f736c6963655f6f766572666c6f7700000000000000000000000000000000000060448201526064016103e7565b6125198284612de1565b845110156125695760405162461bcd60e51b815260206004820152601160248201527f736c6963655f6f75744f66426f756e647300000000000000000000000000000060448201526064016103e7565b60608215801561258857604051915060008252602082016040526125d2565b6040519150601f8416801560200281840101858101878315602002848b0101015b818310156125c15780518352602092830192016125a9565b5050858452601f01601f1916604052505b50949350505050565b604080516001600160e01b03198316602480830191909152825180830390910181526044909101909152602080820180517bffffffffffffffffffffffffffffffffffffffffffffffffffffffff166301ffc9a760e01b178152825160009392849283928392918391908a617530fa92503d91506000519050828015612662575060208210155b8015610c58575015159695505050505050565b6000805b825181101561275157825161268f826001612de1565b1061269d5750600092915050565b60008382815181106126b1576126b1612db5565b01602001516001600160f81b031916846126cc846001612de1565b815181106126dc576126dc612db5565b016020908101516040516001600160f81b03199384169281019290925291909116602182015260220160405160208183030381529060405261271d90613163565b60f01c9050601c8114612734575060009392505050565b61273f816002612de1565b6127499083612de1565b915050612679565b825181036127625750600192915050565b50600092915050565b6000805b8251811015612751578251612785826001612de1565b106127935750600092915050565b60008382815181106127a7576127a7612db5565b01602001516001600160f81b031916846127c2846001612de1565b815181106127d2576127d2612db5565b016020908101516040516001600160f81b03199384169281019290925291909116602182015260220160405160208183030381529060405261281390613163565b60f01c90508015806128255750602081115b15612834575060009392505050565b61283f816002612de1565b6128499083612de1565b91505061276f565b60006020828403121561286357600080fd5b81356001600160e01b03198116811461027257600080fd5b60008083601f84011261288d57600080fd5b50813567ffffffffffffffff8111156128a557600080fd5b602083019150836020828501011115610ca157600080fd5b600080602083850312156128d057600080fd5b823567ffffffffffffffff8111156128e757600080fd5b6128f38582860161287b565b90969095509350505050565b60005b8381101561291a578181015183820152602001612902565b83811115610fac5750506000910152565b600081518084526129438160208601602086016128ff565b601f01601f19169290920160200192915050565b602081526000610272602083018461292b565b634e487b7160e01b600052604160045260246000fd5b604051601f8201601f1916810167ffffffffffffffff811182821017156129a9576129a961296a565b604052919050565b600067ffffffffffffffff8211156129cb576129cb61296a565b50601f01601f191660200190565b600082601f8301126129ea57600080fd5b81356129fd6129f8826129b1565b612980565b818152846020838601011115612a1257600080fd5b816020850160208301376000918101602001919091529392505050565b60008060408385031215612a4257600080fd5b82359150602083013567ffffffffffffffff811115612a6057600080fd5b612a6c858286016129d9565b9150509250929050565b60008060008060608587031215612a8c57600080fd5b843567ffffffffffffffff80821115612aa457600080fd5b612ab0888389016129d9565b9550602087013594506040870135915080821115612acd57600080fd5b50612ada8782880161287b565b95989497509550505050565b60008060408385031215612af957600080fd5b82356001600160a01b0381168114612b1057600080fd5b915060208301356fffffffffffffffffffffffffffffffff81168114612b3557600080fd5b809150509250929050565b600067ffffffffffffffff821115612b5a57612b5a61296a565b5060051b60200190565b600082601f830112612b7557600080fd5b81356020612b856129f883612b40565b82815260059290921b84018101918181019086841115612ba457600080fd5b8286015b84811015612be457803567ffffffffffffffff811115612bc85760008081fd5b612bd68986838b01016129d9565b845250918301918301612ba8565b509695505050505050565b60008083601f840112612c0157600080fd5b50813567ffffffffffffffff811115612c1957600080fd5b6020830191508360208260051b8501011115610ca157600080fd5b60008060008060008060006080888a031215612c4f57600080fd5b873567ffffffffffffffff80821115612c6757600080fd5b612c738b838c01612b64565b985060208a0135915080821115612c8957600080fd5b612c958b838c01612bef565b909850965060408a0135915080821115612cae57600080fd5b612cba8b838c01612bef565b909650945060608a0135915080821115612cd357600080fd5b50612ce08a828b01612bef565b989b979a50959850939692959293505050565b6000602080830181845280855180835260408601915060408160051b870101925083870160005b82811015612d4857603f19888603018452612d3685835161292b565b94509285019290850190600101612d1a565b5092979650505050505050565b60008060008060408587031215612d6b57600080fd5b843567ffffffffffffffff80821115612d8357600080fd5b612d8f88838901612bef565b90965094506020870135915080821115612da857600080fd5b50612ada87828801612bef565b634e487b7160e01b600052603260045260246000fd5b634e487b7160e01b600052601160045260246000fd5b60008219821115612df457612df4612dcb565b500190565b6000808335601e19843603018112612e1057600080fd5b83018035915067ffffffffffffffff821115612e2b57600080fd5b602001915036819003821315610ca157600080fd5b60208152816020820152818360408301376000818301604090810191909152601f909201601f19160101919050565b600060208284031215612e8157600080fd5b815167ffffffffffffffff811115612e9857600080fd5b8201601f81018413612ea957600080fd5b8051612eb76129f8826129b1565b818152856020838501011115612ecc57600080fd5b6102e08260208301602086016128ff565b80516020808301519190811015612efe576000198160200360031b1b821691505b50919050565b868152856020820152846040820152836060820152818360808301376000910160800190815295945050505050565b6001600160a01b03841681528260208201526060604082015260006102e0606083018461292b565b600060018201612f6d57612f6d612dcb565b5060010190565b6001600160e01b03198135818116916004851015612f9c5780818660040360031b1b83161692505b505092915050565b60008085851115612fb457600080fd5b83861115612fc157600080fd5b5050820193919092039150565b60008060408385031215612fe157600080fd5b823567ffffffffffffffff80821115612ff957600080fd5b818501915085601f83011261300d57600080fd5b8135602061301d6129f883612b40565b82815260059290921b8401810191818101908984111561303c57600080fd5b948201945b8386101561305a57853582529482019490820190613041565b9650508601359250508082111561307057600080fd5b50612a6c85828601612b64565b8183823760009101908152919050565b634e487b7160e01b600052602160045260246000fd5b7f190000000000000000000000000000000000000000000000000000000000000081526bffffffffffffffffffffffff198360601b166002820152600082516130f38160168501602087016128ff565b919091016016019392505050565b60008261311e57634e487b7160e01b600052601260045260246000fd5b500690565b6001600160a01b03831681526040602082015260006102c9604083018461292b565b8035602083101561025f57600019602084900360031b1b1692915050565b6000815160208301517fffff000000000000000000000000000000000000000000000000000000000000808216935060028310156131ab5780818460020360031b1b83161693505b505050919050565b6000828210156131c5576131c5612dcb565b500390565b60008160001904831182151516156131e4576131e4612dcb565b500290565b6bffffffffffffffffffffffff198135818116916014851015612f9c5760149490940360031b84901b1690921692915050565b8051602082015163ffffffff19808216929190601c8310156131ab57601c9290920360031b82901b161692915050565b6000815160208301516001600160e01b0319808216935060048310156131ab5760049290920360031b82901b161692915050565b8281526040602082015260006102c9604083018461292b56fea26469706673582212208abfe98183ff537c077778f5cc8d383915119732ab7b8930141d8ab15b89bf1764736f6c634300080f0033",
  "linkReferences": {},
  "deployedLinkReferences": {}
}