{
  "_format": "hh-sol-artifact-1",
  "contractName": "LSP6KeyManagerInit",
  "sourceName": "contracts/LSP6KeyManager/LSP6KeyManagerInit.sol",
  "abi": [
    {
      "inputs": [],
      "stateMutability": "nonpayable",
      "type": "constructor"
    },
    {
      "inputs": [
        {
          "internalType": "bytes32",
          "name": "dataKey",
          "type": "bytes32"
        },
        {
          "internalType": "bytes",
          "name": "invalidValue",
          "type": "bytes"
        }
      ],
      "name": "AddressPermissionArrayIndexValueNotAnAddress",
      "type": "error"
    },
    {
      "inputs": [],
      "name": "BatchExecuteParamsLengthMismatch",
      "type": "error"
    },
    {
      "inputs": [],
      "name": "BatchExecuteRelayCallParamsLengthMismatch",
      "type": "error"
    },
    {
      "inputs": [],
      "name": "DelegateCallDisallowedViaKeyManager",
      "type": "error"
    },
    {
      "inputs": [
        {
          "internalType": "bytes4",
          "name": "invalidFunction",
          "type": "bytes4"
        }
      ],
      "name": "InvalidERC725Function",
      "type": "error"
    },
    {
      "inputs": [
        {
          "internalType": "bytes",
          "name": "allowedCallsValue",
          "type": "bytes"
        }
      ],
      "name": "InvalidEncodedAllowedCalls",
      "type": "error"
    },
    {
      "inputs": [
        {
          "internalType": "bytes",
          "name": "value",
          "type": "bytes"
        }
      ],
      "name": "InvalidEncodedAllowedERC725YDataKeys",
      "type": "error"
    },
    {
      "inputs": [],
      "name": "InvalidLSP6Target",
      "type": "error"
    },
    {
      "inputs": [
        {
          "internalType": "bytes",
          "name": "payload",
          "type": "bytes"
        }
      ],
      "name": "InvalidPayload",
      "type": "error"
    },
    {
      "inputs": [
        {
          "internalType": "address",
          "name": "signer",
          "type": "address"
        },
        {
          "internalType": "uint256",
          "name": "invalidNonce",
          "type": "uint256"
        },
        {
          "internalType": "bytes",
          "name": "signature",
          "type": "bytes"
        }
      ],
      "name": "InvalidRelayNonce",
      "type": "error"
    },
    {
      "inputs": [
        {
          "internalType": "address",
          "name": "from",
          "type": "address"
        }
      ],
      "name": "InvalidWhitelistedCall",
      "type": "error"
    },
    {
      "inputs": [
        {
          "internalType": "uint256",
          "name": "totalValues",
          "type": "uint256"
        },
        {
          "internalType": "uint256",
          "name": "msgValue",
          "type": "uint256"
        }
      ],
      "name": "LSP6BatchExcessiveValueSent",
      "type": "error"
    },
    {
      "inputs": [
        {
          "internalType": "uint256",
          "name": "totalValues",
          "type": "uint256"
        },
        {
          "internalType": "uint256",
          "name": "msgValue",
          "type": "uint256"
        }
      ],
      "name": "LSP6BatchInsufficientValueSent",
      "type": "error"
    },
    {
      "inputs": [
        {
          "internalType": "address",
          "name": "from",
          "type": "address"
        }
      ],
      "name": "NoCallsAllowed",
      "type": "error"
    },
    {
      "inputs": [
        {
          "internalType": "address",
          "name": "from",
          "type": "address"
        }
      ],
      "name": "NoERC725YDataKeysAllowed",
      "type": "error"
    },
    {
      "inputs": [
        {
          "internalType": "address",
          "name": "from",
          "type": "address"
        }
      ],
      "name": "NoPermissionsSet",
      "type": "error"
    },
    {
      "inputs": [
        {
          "internalType": "address",
          "name": "from",
          "type": "address"
        },
        {
          "internalType": "address",
          "name": "to",
          "type": "address"
        },
        {
          "internalType": "bytes4",
          "name": "selector",
          "type": "bytes4"
        }
      ],
      "name": "NotAllowedCall",
      "type": "error"
    },
    {
      "inputs": [
        {
          "internalType": "address",
          "name": "from",
          "type": "address"
        },
        {
          "internalType": "bytes32",
          "name": "disallowedKey",
          "type": "bytes32"
        }
      ],
      "name": "NotAllowedERC725YDataKey",
      "type": "error"
    },
    {
      "inputs": [
        {
          "internalType": "address",
          "name": "from",
          "type": "address"
        },
        {
          "internalType": "string",
          "name": "permission",
          "type": "string"
        }
      ],
      "name": "NotAuthorised",
      "type": "error"
    },
    {
      "inputs": [
        {
          "internalType": "bytes32",
          "name": "dataKey",
          "type": "bytes32"
        }
      ],
      "name": "NotRecognisedPermissionKey",
      "type": "error"
    },
    {
      "anonymous": false,
      "inputs": [
        {
          "indexed": true,
          "internalType": "bytes4",
          "name": "selector",
          "type": "bytes4"
        },
        {
          "indexed": true,
          "internalType": "uint256",
          "name": "value",
          "type": "uint256"
        }
      ],
      "name": "Executed",
      "type": "event"
    },
    {
      "anonymous": false,
      "inputs": [
        {
          "indexed": false,
          "internalType": "uint8",
          "name": "version",
          "type": "uint8"
        }
      ],
      "name": "Initialized",
      "type": "event"
    },
    {
      "inputs": [
        {
          "internalType": "bytes",
          "name": "payload",
          "type": "bytes"
        }
      ],
      "name": "execute",
      "outputs": [
        {
          "internalType": "bytes",
          "name": "",
          "type": "bytes"
        }
      ],
      "stateMutability": "payable",
      "type": "function"
    },
    {
      "inputs": [
        {
          "internalType": "uint256[]",
          "name": "values",
          "type": "uint256[]"
        },
        {
          "internalType": "bytes[]",
          "name": "payloads",
          "type": "bytes[]"
        }
      ],
      "name": "execute",
      "outputs": [
        {
          "internalType": "bytes[]",
          "name": "",
          "type": "bytes[]"
        }
      ],
      "stateMutability": "payable",
      "type": "function"
    },
    {
      "inputs": [
        {
          "internalType": "bytes",
          "name": "signature",
          "type": "bytes"
        },
        {
          "internalType": "uint256",
          "name": "nonce",
          "type": "uint256"
        },
        {
          "internalType": "bytes",
          "name": "payload",
          "type": "bytes"
        }
      ],
      "name": "executeRelayCall",
      "outputs": [
        {
          "internalType": "bytes",
          "name": "",
          "type": "bytes"
        }
      ],
      "stateMutability": "payable",
      "type": "function"
    },
    {
      "inputs": [
        {
          "internalType": "bytes[]",
          "name": "signatures",
          "type": "bytes[]"
        },
        {
          "internalType": "uint256[]",
          "name": "nonces",
          "type": "uint256[]"
        },
        {
          "internalType": "uint256[]",
          "name": "values",
          "type": "uint256[]"
        },
        {
          "internalType": "bytes[]",
          "name": "payloads",
          "type": "bytes[]"
        }
      ],
      "name": "executeRelayCall",
      "outputs": [
        {
          "internalType": "bytes[]",
          "name": "",
          "type": "bytes[]"
        }
      ],
      "stateMutability": "payable",
      "type": "function"
    },
    {
      "inputs": [
        {
          "internalType": "address",
          "name": "from",
          "type": "address"
        },
        {
          "internalType": "uint128",
          "name": "channelId",
          "type": "uint128"
        }
      ],
      "name": "getNonce",
      "outputs": [
        {
          "internalType": "uint256",
          "name": "",
          "type": "uint256"
        }
      ],
      "stateMutability": "view",
      "type": "function"
    },
    {
      "inputs": [
        {
          "internalType": "address",
          "name": "target_",
          "type": "address"
        }
      ],
      "name": "initialize",
      "outputs": [],
      "stateMutability": "nonpayable",
      "type": "function"
    },
    {
      "inputs": [
        {
          "internalType": "bytes32",
          "name": "dataHash",
          "type": "bytes32"
        },
        {
          "internalType": "bytes",
          "name": "signature",
          "type": "bytes"
        }
      ],
      "name": "isValidSignature",
      "outputs": [
        {
          "internalType": "bytes4",
          "name": "magicValue",
          "type": "bytes4"
        }
      ],
      "stateMutability": "view",
      "type": "function"
    },
    {
      "inputs": [
        {
          "internalType": "bytes4",
          "name": "interfaceId",
          "type": "bytes4"
        }
      ],
      "name": "supportsInterface",
      "outputs": [
        {
          "internalType": "bool",
          "name": "",
          "type": "bool"
        }
      ],
      "stateMutability": "view",
      "type": "function"
    },
    {
      "inputs": [],
      "name": "target",
      "outputs": [
        {
          "internalType": "address",
          "name": "",
          "type": "address"
        }
      ],
      "stateMutability": "view",
      "type": "function"
    }
  ],
  "bytecode": "0x60806040523480156200001157600080fd5b506200001c62000022565b620000e4565b600054610100900460ff16156200008f5760405162461bcd60e51b815260206004820152602760248201527f496e697469616c697a61626c653a20636f6e747261637420697320696e697469604482015266616c697a696e6760c81b606482015260840160405180910390fd5b60005460ff9081161015620000e2576000805460ff191660ff9081179091556040519081527f7f26b83ff96e1f2b6a682f133852f6798a09c465da95921460cefb38474024989060200160405180910390a15b565b6135a780620000f46000396000f3fe6080604052600436106100965760003560e01c8063b44581d911610069578063bf3e1f7b1161004e578063bf3e1f7b146101da578063c4d66de8146101ed578063d4b839921461020f57600080fd5b8063b44581d91461013c578063bd68663a146101ba57600080fd5b806301ffc9a71461009b57806309c5eabe146100d05780631626ba7e146100f0578063902d5fa014610129575b600080fd5b3480156100a757600080fd5b506100bb6100b6366004612b05565b610246565b60405190151581526020015b60405180910390f35b6100e36100de366004612b71565b6102b1565b6040516100c79190612c0b565b3480156100fc57600080fd5b5061011061010b366004612ce3565b6102c5565b6040516001600160e01b031990911681526020016100c7565b6100e3610137366004612d2a565b610323565b34801561014857600080fd5b506101ac610157366004612db1565b6001600160a01b03821660009081526001602090815260408083206fffffffffffffffffffffffffffffffff851684529091529020546fffffffffffffffffffffffffffffffff19608083901b161792915050565b6040519081526020016100c7565b6101cd6101c8366004612ef1565b61033b565b6040516100c79190612fb0565b6101cd6101e8366004613012565b610520565b3480156101f957600080fd5b5061020d610208366004613072565b6106b0565b005b34801561021b57600080fd5b506000546201000090046001600160a01b03166040516001600160a01b0390911681526020016100c7565b60006001600160e01b031982167ffb43741400000000000000000000000000000000000000000000000000000000148061029057506001600160e01b03198216630b135d3f60e11b145b806102ab57506301ffc9a760e01b6001600160e01b03198316145b92915050565b60606102be3484846107d2565b9392505050565b6000806102d2848461082f565b6000549091506103009062200000906102fa906201000090046001600160a01b031684610853565b81161490565b610312576001600160e01b031961031b565b630b135d3f60e11b5b949350505050565b60606103328585348686610901565b95945050505050565b86516060908614158061034e5750858414155b806103595750838214155b15610390576040517fb4d50d2100000000000000000000000000000000000000000000000000000000815260040160405180910390fd5b60008267ffffffffffffffff8111156103ab576103ab612c1e565b6040519080825280602002602001820160405280156103de57816020015b60608152602001906001900390816103c95790505b5090506000805b848110156104e857348888838181106104005761040061308d565b905060200201358361041291906130b9565b925082111561044257604051630c28c92b60e21b8152600481018390523460248201526044015b60405180910390fd5b6104ba8b82815181106104575761045761308d565b60200260200101518b8b848181106104715761047161308d565b905060200201358a8a8581811061048a5761048a61308d565b905060200201358989868181106104a3576104a361308d565b90506020028101906104b591906130d1565b610901565b8382815181106104cc576104cc61308d565b60200260200101819052506104e18160010190565b90506103e5565b50348110156105135760405163528c345b60e11b815260048101829052346024820152604401610439565b5098975050505050505050565b606083821461055b576040517f55a187db00000000000000000000000000000000000000000000000000000000815260040160405180910390fd5b60008267ffffffffffffffff81111561057657610576612c1e565b6040519080825280602002602001820160405280156105a957816020015b60608152602001906001900390816105945790505b5090506000805b8481101561067b57348888838181106105cb576105cb61308d565b90506020020135836105dd91906130b9565b925082111561060857604051630c28c92b60e21b815260048101839052346024820152604401610439565b61064d88888381811061061d5761061d61308d565b905060200201358787848181106106365761063661308d565b905060200281019061064891906130d1565b6107d2565b83828151811061065f5761065f61308d565b60200260200101819052506106748160010190565b90506105b0565b50348110156106a65760405163528c345b60e11b815260048101829052346024820152604401610439565b5095945050505050565b600054610100900460ff16158080156106d05750600054600160ff909116105b806106ea5750303b1580156106ea575060005460ff166001145b61075c5760405162461bcd60e51b815260206004820152602e60248201527f496e697469616c697a61626c653a20636f6e747261637420697320616c72656160448201527f647920696e697469616c697a65640000000000000000000000000000000000006064820152608401610439565b6000805460ff19166001179055801561077f576000805461ff0019166101001790555b61078882610a30565b80156107ce576000805461ff0019169055604051600181527f7f26b83ff96e1f2b6a682f133852f6798a09c465da95921460cefb38474024989060200160405180910390a15b5050565b606060048210156107fa578282604051630d886ef360e21b8152600401610439929190613118565b61080333610b34565b61080e338484610b85565b600061081b858585610db0565b905061031b6000805460ff60b01b19169055565b600080600061083e8585610eea565b9150915061084b81610f2f565b509392505050565b6000806001600160a01b0384166354f6127f6108937f4b80742de2bf82acb36300000000000000000000000000000000000000000000606087901b611094565b6040518263ffffffff1660e01b81526004016108b191815260200190565b600060405180830381865afa1580156108ce573d6000803e3d6000fd5b505050506040513d6000823e601f3d908101601f191682016040526108f69190810190613147565b905061031b816131b5565b60606004821015610929578282604051630d886ef360e21b8152600401610439929190613118565b600060064687878787604051602001610947969594939291906131dc565b60408051601f198184030181529190529050600061096f8861096930856110fd565b9061082f565b905061097a81610b34565b6109848188611130565b6109c0578087896040517fc9bd9eb90000000000000000000000000000000000000000000000000000000081526004016104399392919061320b565b6001600160a01b038116600090815260016020908152604080832060808b901c845290915281208054916109f383613233565b9190505550610a03818686610b85565b6000610a10878787610db0565b9050610a246000805460ff60b01b19169055565b98975050505050505050565b600054610100900460ff16610aad5760405162461bcd60e51b815260206004820152602b60248201527f496e697469616c697a61626c653a20636f6e7472616374206973206e6f74206960448201527f6e697469616c697a696e670000000000000000000000000000000000000000006064820152608401610439565b6001600160a01b038116610aed576040517ffc85457900000000000000000000000000000000000000000000000000000000815260040160405180910390fd5b6000805460ff60b01b19620100006001600160a01b03851602167fffffffffffffffffff000000000000000000000000000000000000000000ffff90911617905550565b50565b600054600160b01b900460ff1615610b6f57600054610b31908290610b68906201000090046001600160a01b031682610853565b608061117b565b6000805460ff60b01b1916600160b01b17905550565b60008054610ba2906201000090046001600160a01b031685610853565b905080610be6576040517ff292052a0000000000000000000000000000000000000000000000000000000081526001600160a01b0385166004820152602401610439565b6000610bf2838561324c565b90507f80dc96f4000000000000000000000000000000000000000000000000000000006001600160e01b0319821601610c5957600080610c35856004818961327c565b810190610c429190612ce3565b91509150610c52878584846111cc565b5050610da9565b7feb591d6d000000000000000000000000000000000000000000000000000000006001600160e01b0319821601610cb757600080610c9a856004818961327c565b810190610ca791906132a6565b91509150610c528785848461123f565b7fbb3fd702000000000000000000000000000000000000000000000000000000006001600160e01b0319821601610cf957610cf485838686611379565b610da9565b6001600160e01b031981167ff2fde38b000000000000000000000000000000000000000000000000000000001480610d5a57506001600160e01b031981167f79ba509700000000000000000000000000000000000000000000000000000000145b15610d6b57610cf48583600161117b565b6040517f2ba8851c0000000000000000000000000000000000000000000000000000000081526001600160e01b031982166004820152602401610439565b5050505050565b606083610dbd838561324c565b7bffffffffffffffffffffffffffffffffffffffffffffffffffffffff19167f4004d18dc05f04c061c306cbb394d4083af494786ab828142d6118ab2c43a49260405160405180910390a36000805481906201000090046001600160a01b0316865a908787604051610e30929190613355565b600060405180830381858888f193505050503d8060008114610e6e576040519150601f19603f3d011682016040523d82523d6000602084013e610e73565b606091505b50915091506000610eba83836040518060400160405280601e81526020017f4c5350363a206661696c656420657865637574696e67207061796c6f6164000081525061151a565b90508051600003610ecb5780610edf565b80806020019051810190610edf9190613147565b979650505050505050565b6000808251604103610f205760208301516040840151606085015160001a610f1487828585611533565b94509450505050610f28565b506000905060025b9250929050565b6000816004811115610f4357610f43613365565b03610f4b5750565b6001816004811115610f5f57610f5f613365565b03610fac5760405162461bcd60e51b815260206004820152601860248201527f45434453413a20696e76616c6964207369676e617475726500000000000000006044820152606401610439565b6002816004811115610fc057610fc0613365565b0361100d5760405162461bcd60e51b815260206004820152601f60248201527f45434453413a20696e76616c6964207369676e6174757265206c656e677468006044820152606401610439565b600381600481111561102157611021613365565b03610b315760405162461bcd60e51b815260206004820152602260248201527f45434453413a20696e76616c6964207369676e6174757265202773272076616c60448201527f75650000000000000000000000000000000000000000000000000000000000006064820152608401610439565b604080517fffffffffffffffffffff00000000000000000000000000000000000000000000841660208201526000602a82018190526bffffffffffffffffffffffff198416602c8301529182910160405160208183030381529060405290508061031b906131b5565b6000828260405160200161111292919061337b565b60405160208183030381529060405280519060200120905092915050565b6001600160a01b0382166000908152600160209081526040808320608085901c8452909152812054611173700100000000000000000000000000000000846133d9565b149392505050565b80821681146111c757600061118f826115f7565b905083816040517f3bdad6e60000000000000000000000000000000000000000000000000000000081526004016104399291906133fb565b505050565b60006111d883836119e5565b90506203ffff19810161122e5762020000808516036111f75750611239565b61120585856204000061117b565b600054610cf49086908590611229906201000090046001600160a01b031683611c09565b611ca9565b610da985858361117b565b50505050565b600080835167ffffffffffffffff81111561125c5761125c612c1e565b604051908082528060200260200182016040528015611285578160200160208202803683370190505b5090506000805b6112c88682815181106112a1576112a161308d565b60200260200101518683815181106112bb576112bb61308d565b60200260200101516119e5565b91506203ffff1982016112de576001935061130e565b6112e988888461117b565b60018382815181106112fd576112fd61308d565b911515602092830291909101909101525b6001810190508551811061128c57831561136f5762020000808816036113375750505050611239565b61134588886204000061117b565b60005461136f9089908890611369906201000090046001600160a01b031683611c09565b86611ddc565b5050505050505050565b600061138960246004848661327c565b6113929161341d565b905060031981016113cf576040517f80d6ebae00000000000000000000000000000000000000000000000000000000815260040160405180910390fd5b60006113df60646044858761327c565b6113e89161341d565b9050600060018314806113fb5750600283145b905060a484116000826114205761141b61141486611fec565b8981161490565b611423565b60005b905080158015611431575081155b801561143b575083155b1561145357611453898961144e8861201e565b61117b565b81801561145e575080155b1561147157611471898961144e8861201e565b610100888116148415801590611485575080155b15611497576114978a8a61020061117b565b83156114a857505050505050611239565b8180156114b3575084155b156114c357505050505050611239565b8080156114ce575082155b80156114d957508415155b156114e957505050505050611239565b8180156114f35750805b1561150357505050505050611239565b61150e8a8989612074565b50505050505050505050565b606083156115295750816102be565b6102be8383612325565b6000807f7fffffffffffffffffffffffffffffff5d576e7357a4501ddfe92f46681b20a083111561156a57506000905060036115ee565b6040805160008082526020820180845289905260ff881692820192909252606081018690526080810185905260019060a0016020604051602081039080840390855afa1580156115be573d6000803e3d6000fd5b5050604051601f1901519150506001600160a01b0381166115e7576000600192509250506115ee565b9150600090505b94509492505050565b6060600019820161163b57505060408051808201909152601181527f5452414e534645524f574e455253484950000000000000000000000000000000602082015290565b600319820161167d57505060408051808201909152601181527f4348414e47455045524d495353494f4e53000000000000000000000000000000602082015290565b60011982016116bf57505060408051808201909152600d81527f414444434f4e54524f4c4c455200000000000000000000000000000000000000602082015290565b600719820161170157505060408051808201909152600d81527f414444455854454e53494f4e5300000000000000000000000000000000000000602082015290565b600f19820161174357505060408051808201909152601081527f4348414e4745455854454e53494f4e5300000000000000000000000000000000602082015290565b601f19820161178557505060408051808201909152601c81527f414444554e4956455253414c524543454956455244454c454741544500000000602082015290565b603f1982016117c757505060408051808201909152601f81527f4348414e4745554e4956455253414c524543454956455244454c454741544500602082015290565b607f19820161180957505060408051808201909152600a81527f5245454e5452414e435900000000000000000000000000000000000000000000602082015290565b6203ffff19820161184d57505060408051808201909152600781527f5345544441544100000000000000000000000000000000000000000000000000602082015290565b6107ff19820161189057505060408051808201909152600481527f43414c4c00000000000000000000000000000000000000000000000000000000602082015290565b611fff1982016118d357505060408051808201909152600a81527f53544154494343414c4c00000000000000000000000000000000000000000000602082015290565b617fff19820161191657505060408051808201909152600c81527f44454c454741544543414c4c0000000000000000000000000000000000000000602082015290565b61ffff19820161195957505060408051808201909152600681527f4445504c4f590000000000000000000000000000000000000000000000000000602082015290565b6101ff19820161199c57505060408051808201909152600d81527f5452414e5346455256414c554500000000000000000000000000000000000000602082015290565b621fffff1982016119e057505060408051808201909152600481527f5349474e00000000000000000000000000000000000000000000000000000000602082015290565b919050565b60007f20cf245f92495cf19acab2659b39f67a000000000000000000000000000000006fffffffffffffffffffffffffffffffff19841601611a3257611a2b838361234f565b90506102ab565b7fb47f8bd21d4100000000000000000000000000000000000000000000000000007fffffffffffff0000000000000000000000000000000000000000000000000000841601611b60577fb47f8bd21d407d534c9d000000000000000000000000000000000000000000006001600160a01b0319841601611ab557611a2b83612484565b7fb47f8bd21d40c6c59b39000000000000000000000000000000000000000000006001600160a01b0319841601611af057611a2b8383612519565b7fb47f8bd21d407993d6ef000000000000000000000000000000000000000000006001600160a01b0319841601611b2b57611a2b83836125cf565b6040517f0f7d735b00000000000000000000000000000000000000000000000000000000815260048101849052602401610439565b7f0cfc51aec37c55a4d0b1a65c6255c4bf2fbdf6277f3cc0730c45b828b6db8b47831480611bb757506001600160a01b031983167f0cfc51aec37c55a4d0b100000000000000000000000000000000000000000000145b15611bc557611a2b83612612565b7f311874bf6b2579feef6a000000000000000000000000000000000000000000006001600160a01b0319841601611bff57611a2b8361269e565b50620400006102ab565b60606001600160a01b0383166354f6127f611c467f4b80742de2bf866c29110000000000000000000000000000000000000000000085851b611094565b6040518263ffffffff1660e01b8152600401611c6491815260200190565b600060405180830381865afa158015611c81573d6000803e3d6000fd5b505050506040513d6000823e601f3d908101601f191682016040526102be9190810190613147565b8051600003611cd65760405163ed7fa50960e01b81526001600160a01b0384166004820152602401610439565b6000806000805b8451841015611db157848481518110611cf857611cf861308d565b01602001516001600160f81b03191685611d138660016130b9565b81518110611d2357611d2361308d565b016020908101516040516001600160f81b031993841692810192909252919091166021820152602201604051602081830303815290604052611d649061343b565b60f01c9250611d7483602061348b565b611d7f9060086134a2565b8585016022015160001990911b908116925090508581168203611da55750505050505050565b92820160020192611cdd565b60405163557ae07960e01b81526001600160a01b038816600482015260248101879052604401610439565b8151600003611e095760405163ed7fa50960e01b81526001600160a01b0385166004820152602401610439565b8251600090818080805b8751841015611f6657878481518110611e2e57611e2e61308d565b01602001516001600160f81b03191688611e498660016130b9565b81518110611e5957611e5961308d565b016020908101516040516001600160f81b031993841692810192909252919091166021820152602201604051602081830303815290604052611e9a9061343b565b60f01c9250611eaa83602061348b565b611eb59060086134a2565b8885016022015160001990911b9081169250905060005b85811015611f5957878181518110611ee657611ee661308d565b6020026020010151611f515782828b8381518110611f0657611f0661308d565b60200260200101511603611f51576001888281518110611f2857611f2861308d565b91151560209283029190910190910152600187019650858703611f515750505050505050611239565b600101611ecc565b5092820160020192611e13565b60005b85811015611fdf57878181518110611f8357611f8361308d565b6020026020010151611fd7578a8a8281518110611fa257611fa261308d565b602090810291909101015160405163557ae07960e01b81526001600160a01b0390921660048301526024820152604401610439565b600101611f69565b5050505050505050505050565b600081611ffc5750610400919050565b6003820361200d5750611000919050565b600482036119e05750614000919050565b60008161202e5750610800919050565b60018203612040575062010000919050565b60028203612052575062010000919050565b600382036120635750612000919050565b600482036119e05750618000919050565b600061208460446030848661327c565b61208d916134c1565b60601c905060a882108015906000906120ba576120ae60a860a4868861327c565b6120b79161324c565b90505b600080546120d7906201000090046001600160a01b03168861272a565b80519091506000819003612122576040517f6cb605870000000000000000000000000000000000000000000000000000000081526001600160a01b0389166004820152602401610439565b6000806000805b848110156122cf578461213d82601e6130b9565b111561215e578560405163187e77ab60e01b81526004016104399190612c0b565b60006121768761216f8460026130b9565b601c612767565b9050612181816134f4565b63ffffffff1990811690036121cd576040517f6fd203c50000000000000000000000000000000000000000000000000000000081526001600160a01b038e166004820152602401610439565b60006121d882613524565b9050600060206121e7846134f4565b63ffffffff1916901b60601c9050600060c0612202856134f4565b63ffffffff1916901b90506001600160e01b0319808416148061223357506122336001600160a01b038e168461288f565b97506001600160a01b03808316148061225d5750816001600160a01b03168d6001600160a01b0316145b96506001600160e01b0319808216148061228b57508b801561228b57506001600160e01b03198b8116908216145b95508780156122975750865b80156122a05750855b156122b75750505050505050505050505050505050565b50505050601e816122c891906130b9565b9050612129565b506040517f45147bce0000000000000000000000000000000000000000000000000000000081526001600160a01b03808d166004830152891660248201526001600160e01b031987166044820152606401610439565b8151156123355781518083602001fd5b8060405162461bcd60e51b81526004016104399190612c0b565b600080546040516354f6127f60e01b81526004810185905282916201000090046001600160a01b0316906354f6127f90602401600060405180830381865afa15801561239f573d6000803e3d6000fd5b505050506040513d6000823e601f3d908101601f191682016040526123c79190810190613147565b90507f20cf245f92495cf19acab2659b39f679e0f76aba35a7394b241ce5a0cc734f1d840161241f5760006123fb846131b5565b9050612406826131b5565b8111612413576004612416565b60025b925050506102ab565b82511580159061243157508251601414155b1561246c5783836040517f8f4afa38000000000000000000000000000000000000000000000000000000008152600401610439929190613558565b80511561247a57600461031b565b5060029392505050565b600080546040516354f6127f60e01b81526004810184905282916201000090046001600160a01b0316906354f6127f90602401600060405180830381865afa1580156124d4573d6000803e3d6000fd5b505050506040513d6000823e601f3d908101601f191682016040526124fc9190810190613147565b612505906131b5565b146125115760046102ab565b600292915050565b600061252482612929565b612543578160405163187e77ab60e01b81526004016104399190612c0b565b6000546040516354f6127f60e01b815260048101859052620100009091046001600160a01b0316906354f6127f90602401600060405180830381865afa158015612591573d6000803e3d6000fd5b505050506040513d6000823e601f3d908101601f191682016040526125b99190810190613147565b51156125c65760046102be565b50600292915050565b60006125da82612a1f565b61254357816040517f4f0dfdda0000000000000000000000000000000000000000000000000000000081526004016104399190612c0b565b600080546040516354f6127f60e01b815260048101849052620100009091046001600160a01b0316906354f6127f90602401600060405180830381865afa158015612661573d6000803e3d6000fd5b505050506040513d6000823e601f3d908101601f191682016040526126899190810190613147565b51156126965760406102ab565b602092915050565b600080546040516354f6127f60e01b815260048101849052620100009091046001600160a01b0316906354f6127f90602401600060405180830381865afa1580156126ed573d6000803e3d6000fd5b505050506040513d6000823e601f3d908101601f191682016040526127159190810190613147565b51156127225760106102ab565b600892915050565b60606001600160a01b0383166354f6127f611c467f4b80742de2bf393a64c70000000000000000000000000000000000000000000085851b611094565b60608161277581601f6130b9565b10156127c35760405162461bcd60e51b815260206004820152600e60248201527f736c6963655f6f766572666c6f770000000000000000000000000000000000006044820152606401610439565b6127cd82846130b9565b8451101561281d5760405162461bcd60e51b815260206004820152601160248201527f736c6963655f6f75744f66426f756e64730000000000000000000000000000006044820152606401610439565b60608215801561283c5760405191506000825260208201604052612886565b6040519150601f8416801560200281840101858101878315602002848b0101015b8183101561287557805183526020928301920161285d565b5050858452601f01601f1916604052505b50949350505050565b604080516001600160e01b03198316602480830191909152825180830390910181526044909101909152602080820180517bffffffffffffffffffffffffffffffffffffffffffffffffffffffff166301ffc9a760e01b178152825160009392849283928392918391908a617530fa92503d91506000519050828015612916575060208210155b8015610edf575015159695505050505050565b6000805b8251811015612a055782516129438260016130b9565b106129515750600092915050565b60008382815181106129655761296561308d565b01602001516001600160f81b031916846129808460016130b9565b815181106129905761299061308d565b016020908101516040516001600160f81b0319938416928101929092529190911660218201526022016040516020818303038152906040526129d19061343b565b60f01c9050601c81146129e8575060009392505050565b6129f38160026130b9565b6129fd90836130b9565b91505061292d565b82518103612a165750600192915050565b50600092915050565b6000805b8251811015612a05578251612a398260016130b9565b10612a475750600092915050565b6000838281518110612a5b57612a5b61308d565b01602001516001600160f81b03191684612a768460016130b9565b81518110612a8657612a8661308d565b016020908101516040516001600160f81b031993841692810192909252919091166021820152602201604051602081830303815290604052612ac79061343b565b60f01c9050801580612ad95750602081115b15612ae8575060009392505050565b612af38160026130b9565b612afd90836130b9565b915050612a23565b600060208284031215612b1757600080fd5b81356001600160e01b0319811681146102be57600080fd5b60008083601f840112612b4157600080fd5b50813567ffffffffffffffff811115612b5957600080fd5b602083019150836020828501011115610f2857600080fd5b60008060208385031215612b8457600080fd5b823567ffffffffffffffff811115612b9b57600080fd5b612ba785828601612b2f565b90969095509350505050565b60005b83811015612bce578181015183820152602001612bb6565b838111156112395750506000910152565b60008151808452612bf7816020860160208601612bb3565b601f01601f19169290920160200192915050565b6020815260006102be6020830184612bdf565b634e487b7160e01b600052604160045260246000fd5b604051601f8201601f1916810167ffffffffffffffff81118282101715612c5d57612c5d612c1e565b604052919050565b600067ffffffffffffffff821115612c7f57612c7f612c1e565b50601f01601f191660200190565b600082601f830112612c9e57600080fd5b8135612cb1612cac82612c65565b612c34565b818152846020838601011115612cc657600080fd5b816020850160208301376000918101602001919091529392505050565b60008060408385031215612cf657600080fd5b82359150602083013567ffffffffffffffff811115612d1457600080fd5b612d2085828601612c8d565b9150509250929050565b60008060008060608587031215612d4057600080fd5b843567ffffffffffffffff80821115612d5857600080fd5b612d6488838901612c8d565b9550602087013594506040870135915080821115612d8157600080fd5b50612d8e87828801612b2f565b95989497509550505050565b80356001600160a01b03811681146119e057600080fd5b60008060408385031215612dc457600080fd5b612dcd83612d9a565b915060208301356fffffffffffffffffffffffffffffffff81168114612df257600080fd5b809150509250929050565b600067ffffffffffffffff821115612e1757612e17612c1e565b5060051b60200190565b600082601f830112612e3257600080fd5b81356020612e42612cac83612dfd565b82815260059290921b84018101918181019086841115612e6157600080fd5b8286015b84811015612ea157803567ffffffffffffffff811115612e855760008081fd5b612e938986838b0101612c8d565b845250918301918301612e65565b509695505050505050565b60008083601f840112612ebe57600080fd5b50813567ffffffffffffffff811115612ed657600080fd5b6020830191508360208260051b8501011115610f2857600080fd5b60008060008060008060006080888a031215612f0c57600080fd5b873567ffffffffffffffff80821115612f2457600080fd5b612f308b838c01612e21565b985060208a0135915080821115612f4657600080fd5b612f528b838c01612eac565b909850965060408a0135915080821115612f6b57600080fd5b612f778b838c01612eac565b909650945060608a0135915080821115612f9057600080fd5b50612f9d8a828b01612eac565b989b979a50959850939692959293505050565b6000602080830181845280855180835260408601915060408160051b870101925083870160005b8281101561300557603f19888603018452612ff3858351612bdf565b94509285019290850190600101612fd7565b5092979650505050505050565b6000806000806040858703121561302857600080fd5b843567ffffffffffffffff8082111561304057600080fd5b61304c88838901612eac565b9096509450602087013591508082111561306557600080fd5b50612d8e87828801612eac565b60006020828403121561308457600080fd5b6102be82612d9a565b634e487b7160e01b600052603260045260246000fd5b634e487b7160e01b600052601160045260246000fd5b600082198211156130cc576130cc6130a3565b500190565b6000808335601e198436030181126130e857600080fd5b83018035915067ffffffffffffffff82111561310357600080fd5b602001915036819003821315610f2857600080fd5b60208152816020820152818360408301376000818301604090810191909152601f909201601f19160101919050565b60006020828403121561315957600080fd5b815167ffffffffffffffff81111561317057600080fd5b8201601f8101841361318157600080fd5b805161318f612cac82612c65565b8181528560208385010111156131a457600080fd5b610332826020830160208601612bb3565b805160208083015191908110156131d6576000198160200360031b1b821691505b50919050565b868152856020820152846040820152836060820152818360808301376000910160800190815295945050505050565b6001600160a01b03841681528260208201526060604082015260006103326060830184612bdf565b600060018201613245576132456130a3565b5060010190565b6001600160e01b031981358181169160048510156132745780818660040360031b1b83161692505b505092915050565b6000808585111561328c57600080fd5b8386111561329957600080fd5b5050820193919092039150565b600080604083850312156132b957600080fd5b823567ffffffffffffffff808211156132d157600080fd5b818501915085601f8301126132e557600080fd5b813560206132f5612cac83612dfd565b82815260059290921b8401810191818101908984111561331457600080fd5b948201945b8386101561333257853582529482019490820190613319565b9650508601359250508082111561334857600080fd5b50612d2085828601612e21565b8183823760009101908152919050565b634e487b7160e01b600052602160045260246000fd5b7f190000000000000000000000000000000000000000000000000000000000000081526bffffffffffffffffffffffff198360601b166002820152600082516133cb816016850160208701612bb3565b919091016016019392505050565b6000826133f657634e487b7160e01b600052601260045260246000fd5b500690565b6001600160a01b038316815260406020820152600061031b6040830184612bdf565b803560208310156102ab57600019602084900360031b1b1692915050565b6000815160208301517fffff000000000000000000000000000000000000000000000000000000000000808216935060028310156134835780818460020360031b1b83161693505b505050919050565b60008282101561349d5761349d6130a3565b500390565b60008160001904831182151516156134bc576134bc6130a3565b500290565b6bffffffffffffffffffffffff1981358181169160148510156132745760149490940360031b84901b1690921692915050565b8051602082015163ffffffff19808216929190601c83101561348357601c9290920360031b82901b161692915050565b6000815160208301516001600160e01b0319808216935060048310156134835760049290920360031b82901b161692915050565b82815260406020820152600061031b6040830184612bdf56fea2646970667358221220cfdb28cc04b0afce22bc985ccc74425dd665888f1fe9dbb82b3c55e008ce4d7d64736f6c634300080f0033",
  "linkReferences": {},
  "deployedLinkReferences": {}
}