{
  "_format": "hh-sol-artifact-1",
  "contractName": "LSP7CompatibleERC20MintableInit",
  "sourceName": "contracts/LSP7DigitalAsset/presets/LSP7CompatibleERC20MintableInit.sol",
  "abi": [
    {
      "inputs": [],
      "stateMutability": "nonpayable",
      "type": "constructor"
    },
    {
      "inputs": [
        {
          "internalType": "uint256",
          "name": "dataKeysLength",
          "type": "uint256"
        },
        {
          "internalType": "uint256",
          "name": "dataValuesLength",
          "type": "uint256"
        }
      ],
      "name": "ERC725Y_DataKeysValuesLengthMismatch",
      "type": "error"
    },
    {
      "inputs": [],
      "name": "LSP4TokenNameNotEditable",
      "type": "error"
    },
    {
      "inputs": [],
      "name": "LSP4TokenSymbolNotEditable",
      "type": "error"
    },
    {
      "inputs": [
        {
          "internalType": "address",
          "name": "tokenOwner",
          "type": "address"
        },
        {
          "internalType": "uint256",
          "name": "authorizedAmount",
          "type": "uint256"
        },
        {
          "internalType": "address",
          "name": "operator",
          "type": "address"
        },
        {
          "internalType": "uint256",
          "name": "amount",
          "type": "uint256"
        }
      ],
      "name": "LSP7AmountExceedsAuthorizedAmount",
      "type": "error"
    },
    {
      "inputs": [
        {
          "internalType": "uint256",
          "name": "balance",
          "type": "uint256"
        },
        {
          "internalType": "address",
          "name": "tokenOwner",
          "type": "address"
        },
        {
          "internalType": "uint256",
          "name": "amount",
          "type": "uint256"
        }
      ],
      "name": "LSP7AmountExceedsBalance",
      "type": "error"
    },
    {
      "inputs": [],
      "name": "LSP7CannotSendToSelf",
      "type": "error"
    },
    {
      "inputs": [],
      "name": "LSP7CannotSendWithAddressZero",
      "type": "error"
    },
    {
      "inputs": [],
      "name": "LSP7CannotUseAddressZeroAsOperator",
      "type": "error"
    },
    {
      "inputs": [],
      "name": "LSP7InvalidTransferBatch",
      "type": "error"
    },
    {
      "inputs": [
        {
          "internalType": "address",
          "name": "tokenReceiver",
          "type": "address"
        }
      ],
      "name": "LSP7NotifyTokenReceiverContractMissingLSP1Interface",
      "type": "error"
    },
    {
      "inputs": [
        {
          "internalType": "address",
          "name": "tokenReceiver",
          "type": "address"
        }
      ],
      "name": "LSP7NotifyTokenReceiverIsEOA",
      "type": "error"
    },
    {
      "anonymous": false,
      "inputs": [
        {
          "indexed": true,
          "internalType": "address",
          "name": "owner",
          "type": "address"
        },
        {
          "indexed": true,
          "internalType": "address",
          "name": "spender",
          "type": "address"
        },
        {
          "indexed": false,
          "internalType": "uint256",
          "name": "value",
          "type": "uint256"
        }
      ],
      "name": "Approval",
      "type": "event"
    },
    {
      "anonymous": false,
      "inputs": [
        {
          "indexed": true,
          "internalType": "address",
          "name": "operator",
          "type": "address"
        },
        {
          "indexed": true,
          "internalType": "address",
          "name": "tokenOwner",
          "type": "address"
        },
        {
          "indexed": true,
          "internalType": "uint256",
          "name": "amount",
          "type": "uint256"
        }
      ],
      "name": "AuthorizedOperator",
      "type": "event"
    },
    {
      "anonymous": false,
      "inputs": [
        {
          "indexed": true,
          "internalType": "bytes32",
          "name": "dataKey",
          "type": "bytes32"
        },
        {
          "indexed": false,
          "internalType": "bytes",
          "name": "dataValue",
          "type": "bytes"
        }
      ],
      "name": "DataChanged",
      "type": "event"
    },
    {
      "anonymous": false,
      "inputs": [
        {
          "indexed": false,
          "internalType": "uint8",
          "name": "version",
          "type": "uint8"
        }
      ],
      "name": "Initialized",
      "type": "event"
    },
    {
      "anonymous": false,
      "inputs": [
        {
          "indexed": true,
          "internalType": "address",
          "name": "previousOwner",
          "type": "address"
        },
        {
          "indexed": true,
          "internalType": "address",
          "name": "newOwner",
          "type": "address"
        }
      ],
      "name": "OwnershipTransferred",
      "type": "event"
    },
    {
      "anonymous": false,
      "inputs": [
        {
          "indexed": true,
          "internalType": "address",
          "name": "operator",
          "type": "address"
        },
        {
          "indexed": true,
          "internalType": "address",
          "name": "tokenOwner",
          "type": "address"
        }
      ],
      "name": "RevokedOperator",
      "type": "event"
    },
    {
      "anonymous": false,
      "inputs": [
        {
          "indexed": true,
          "internalType": "address",
          "name": "from",
          "type": "address"
        },
        {
          "indexed": true,
          "internalType": "address",
          "name": "to",
          "type": "address"
        },
        {
          "indexed": false,
          "internalType": "uint256",
          "name": "value",
          "type": "uint256"
        }
      ],
      "name": "Transfer",
      "type": "event"
    },
    {
      "anonymous": false,
      "inputs": [
        {
          "indexed": true,
          "internalType": "address",
          "name": "operator",
          "type": "address"
        },
        {
          "indexed": true,
          "internalType": "address",
          "name": "from",
          "type": "address"
        },
        {
          "indexed": true,
          "internalType": "address",
          "name": "to",
          "type": "address"
        },
        {
          "indexed": false,
          "internalType": "uint256",
          "name": "amount",
          "type": "uint256"
        },
        {
          "indexed": false,
          "internalType": "bool",
          "name": "allowNonLSP1Recipient",
          "type": "bool"
        },
        {
          "indexed": false,
          "internalType": "bytes",
          "name": "data",
          "type": "bytes"
        }
      ],
      "name": "Transfer",
      "type": "event"
    },
    {
      "inputs": [
        {
          "internalType": "address",
          "name": "tokenOwner",
          "type": "address"
        },
        {
          "internalType": "address",
          "name": "operator",
          "type": "address"
        }
      ],
      "name": "allowance",
      "outputs": [
        {
          "internalType": "uint256",
          "name": "",
          "type": "uint256"
        }
      ],
      "stateMutability": "view",
      "type": "function"
    },
    {
      "inputs": [
        {
          "internalType": "address",
          "name": "operator",
          "type": "address"
        },
        {
          "internalType": "uint256",
          "name": "amount",
          "type": "uint256"
        }
      ],
      "name": "approve",
      "outputs": [
        {
          "internalType": "bool",
          "name": "",
          "type": "bool"
        }
      ],
      "stateMutability": "nonpayable",
      "type": "function"
    },
    {
      "inputs": [
        {
          "internalType": "address",
          "name": "operator",
          "type": "address"
        },
        {
          "internalType": "uint256",
          "name": "amount",
          "type": "uint256"
        }
      ],
      "name": "authorizeOperator",
      "outputs": [],
      "stateMutability": "nonpayable",
      "type": "function"
    },
    {
      "inputs": [
        {
          "internalType": "address",
          "name": "operator",
          "type": "address"
        },
        {
          "internalType": "address",
          "name": "tokenOwner",
          "type": "address"
        }
      ],
      "name": "authorizedAmountFor",
      "outputs": [
        {
          "internalType": "uint256",
          "name": "",
          "type": "uint256"
        }
      ],
      "stateMutability": "view",
      "type": "function"
    },
    {
      "inputs": [
        {
          "internalType": "address",
          "name": "tokenOwner",
          "type": "address"
        }
      ],
      "name": "balanceOf",
      "outputs": [
        {
          "internalType": "uint256",
          "name": "",
          "type": "uint256"
        }
      ],
      "stateMutability": "view",
      "type": "function"
    },
    {
      "inputs": [],
      "name": "decimals",
      "outputs": [
        {
          "internalType": "uint8",
          "name": "",
          "type": "uint8"
        }
      ],
      "stateMutability": "view",
      "type": "function"
    },
    {
      "inputs": [
        {
          "internalType": "bytes32[]",
          "name": "dataKeys",
          "type": "bytes32[]"
        }
      ],
      "name": "getData",
      "outputs": [
        {
          "internalType": "bytes[]",
          "name": "dataValues",
          "type": "bytes[]"
        }
      ],
      "stateMutability": "view",
      "type": "function"
    },
    {
      "inputs": [
        {
          "internalType": "bytes32",
          "name": "dataKey",
          "type": "bytes32"
        }
      ],
      "name": "getData",
      "outputs": [
        {
          "internalType": "bytes",
          "name": "dataValue",
          "type": "bytes"
        }
      ],
      "stateMutability": "view",
      "type": "function"
    },
    {
      "inputs": [
        {
          "internalType": "string",
          "name": "name_",
          "type": "string"
        },
        {
          "internalType": "string",
          "name": "symbol_",
          "type": "string"
        },
        {
          "internalType": "address",
          "name": "newOwner_",
          "type": "address"
        }
      ],
      "name": "initialize",
      "outputs": [],
      "stateMutability": "nonpayable",
      "type": "function"
    },
    {
      "inputs": [
        {
          "internalType": "address",
          "name": "to",
          "type": "address"
        },
        {
          "internalType": "uint256",
          "name": "amount",
          "type": "uint256"
        },
        {
          "internalType": "bool",
          "name": "allowNonLSP1Recipient",
          "type": "bool"
        },
        {
          "internalType": "bytes",
          "name": "data",
          "type": "bytes"
        }
      ],
      "name": "mint",
      "outputs": [],
      "stateMutability": "nonpayable",
      "type": "function"
    },
    {
      "inputs": [],
      "name": "name",
      "outputs": [
        {
          "internalType": "string",
          "name": "",
          "type": "string"
        }
      ],
      "stateMutability": "view",
      "type": "function"
    },
    {
      "inputs": [],
      "name": "owner",
      "outputs": [
        {
          "internalType": "address",
          "name": "",
          "type": "address"
        }
      ],
      "stateMutability": "view",
      "type": "function"
    },
    {
      "inputs": [],
      "name": "renounceOwnership",
      "outputs": [],
      "stateMutability": "nonpayable",
      "type": "function"
    },
    {
      "inputs": [
        {
          "internalType": "address",
          "name": "operator",
          "type": "address"
        }
      ],
      "name": "revokeOperator",
      "outputs": [],
      "stateMutability": "nonpayable",
      "type": "function"
    },
    {
      "inputs": [
        {
          "internalType": "bytes32[]",
          "name": "dataKeys",
          "type": "bytes32[]"
        },
        {
          "internalType": "bytes[]",
          "name": "dataValues",
          "type": "bytes[]"
        }
      ],
      "name": "setData",
      "outputs": [],
      "stateMutability": "nonpayable",
      "type": "function"
    },
    {
      "inputs": [
        {
          "internalType": "bytes32",
          "name": "dataKey",
          "type": "bytes32"
        },
        {
          "internalType": "bytes",
          "name": "dataValue",
          "type": "bytes"
        }
      ],
      "name": "setData",
      "outputs": [],
      "stateMutability": "nonpayable",
      "type": "function"
    },
    {
      "inputs": [
        {
          "internalType": "bytes4",
          "name": "interfaceId",
          "type": "bytes4"
        }
      ],
      "name": "supportsInterface",
      "outputs": [
        {
          "internalType": "bool",
          "name": "",
          "type": "bool"
        }
      ],
      "stateMutability": "view",
      "type": "function"
    },
    {
      "inputs": [],
      "name": "symbol",
      "outputs": [
        {
          "internalType": "string",
          "name": "",
          "type": "string"
        }
      ],
      "stateMutability": "view",
      "type": "function"
    },
    {
      "inputs": [],
      "name": "totalSupply",
      "outputs": [
        {
          "internalType": "uint256",
          "name": "",
          "type": "uint256"
        }
      ],
      "stateMutability": "view",
      "type": "function"
    },
    {
      "inputs": [
        {
          "internalType": "address",
          "name": "from",
          "type": "address"
        },
        {
          "internalType": "address",
          "name": "to",
          "type": "address"
        },
        {
          "internalType": "uint256",
          "name": "amount",
          "type": "uint256"
        },
        {
          "internalType": "bool",
          "name": "allowNonLSP1Recipient",
          "type": "bool"
        },
        {
          "internalType": "bytes",
          "name": "data",
          "type": "bytes"
        }
      ],
      "name": "transfer",
      "outputs": [],
      "stateMutability": "nonpayable",
      "type": "function"
    },
    {
      "inputs": [
        {
          "internalType": "address",
          "name": "to",
          "type": "address"
        },
        {
          "internalType": "uint256",
          "name": "amount",
          "type": "uint256"
        }
      ],
      "name": "transfer",
      "outputs": [
        {
          "internalType": "bool",
          "name": "",
          "type": "bool"
        }
      ],
      "stateMutability": "nonpayable",
      "type": "function"
    },
    {
      "inputs": [
        {
          "internalType": "address[]",
          "name": "from",
          "type": "address[]"
        },
        {
          "internalType": "address[]",
          "name": "to",
          "type": "address[]"
        },
        {
          "internalType": "uint256[]",
          "name": "amount",
          "type": "uint256[]"
        },
        {
          "internalType": "bool[]",
          "name": "allowNonLSP1Recipient",
          "type": "bool[]"
        },
        {
          "internalType": "bytes[]",
          "name": "data",
          "type": "bytes[]"
        }
      ],
      "name": "transferBatch",
      "outputs": [],
      "stateMutability": "nonpayable",
      "type": "function"
    },
    {
      "inputs": [
        {
          "internalType": "address",
          "name": "from",
          "type": "address"
        },
        {
          "internalType": "address",
          "name": "to",
          "type": "address"
        },
        {
          "internalType": "uint256",
          "name": "amount",
          "type": "uint256"
        }
      ],
      "name": "transferFrom",
      "outputs": [
        {
          "internalType": "bool",
          "name": "",
          "type": "bool"
        }
      ],
      "stateMutability": "nonpayable",
      "type": "function"
    },
    {
      "inputs": [
        {
          "internalType": "address",
          "name": "newOwner",
          "type": "address"
        }
      ],
      "name": "transferOwnership",
      "outputs": [],
      "stateMutability": "nonpayable",
      "type": "function"
    }
  ],
  "bytecode": "0x608060405234801561001057600080fd5b5061001961001e565b6100de565b600054610100900460ff161561008a5760405162461bcd60e51b815260206004820152602760248201527f496e697469616c697a61626c653a20636f6e747261637420697320696e697469604482015266616c697a696e6760c81b606482015260840160405180910390fd5b60005460ff90811610156100dc576000805460ff191660ff9081179091556040519081527f7f26b83ff96e1f2b6a682f133852f6798a09c465da95921460cefb38474024989060200160405180910390a15b565b6123e480620000ee6000396000f3fe608060405234801561001057600080fd5b50600436106101985760003560e01c806365aeaa95116100e35780638da5cb5b1161008c578063dd62ed3e11610066578063dd62ed3e1461036f578063f2fde38b14610382578063fad8b32a1461039557600080fd5b80638da5cb5b1461032a57806395d89b4114610354578063a9059cbb1461035c57600080fd5b80637580d920116100bd5780637580d920146102f1578063760d9bba146103045780637f23690c1461031757600080fd5b806365aeaa95146102ad57806370a08231146102c0578063715018a6146102e957600080fd5b806323b872dd1161014557806347980aa31161011f57806347980aa3146102675780634e3e6e9c1461027a57806354f6127f1461029a57600080fd5b806323b872dd146102275780632d7667c91461023a578063313ce5671461024d57600080fd5b8063095ea7b311610176578063095ea7b3146101ef57806314a6e2931461020257806318160ddd1461021557600080fd5b806301ffc9a71461019d57806306fdde03146101c5578063077f224a146101da575b600080fd5b6101b06101ab3660046119a0565b6103a8565b60405190151581526020015b60405180910390f35b6101cd6103b9565b6040516101bc9190611a22565b6101ed6101e8366004611b16565b6103e6565b005b6101b06101fd366004611b8a565b610511565b6101ed610210366004611cbe565b610526565b6003545b6040519081526020016101bc565b6101b0610235366004611d22565b6105cb565b6101ed610248366004611e32565b6105f4565b6102556106fc565b60405160ff90911681526020016101bc565b6101ed610275366004611b8a565b610715565b61028d610288366004611f04565b610724565b6040516101bc9190611f41565b6101cd6102a8366004611fa3565b6107d8565b6102196102bb366004611fbc565b6107e3565b6102196102ce366004611fef565b6001600160a01b031660009081526004602052604090205490565b6101ed610849565b6101ed6102ff36600461200a565b61085d565b6101ed610312366004612072565b610871565b6101ed6103253660046120de565b610979565b6000546201000090046001600160a01b03166040516001600160a01b0390911681526020016101bc565b6101cd61098b565b6101b061036a366004611b8a565b6109b8565b61021961037d366004611fbc565b6109d7565b6101ed610390366004611fef565b6109ea565b6101ed6103a3366004611fef565b610a7a565b60006103b382610a86565b92915050565b606060006103b37fdeba1e292f8ba88238e10ab3c7f88bd4be4fac56cad5194b6ecceaf653468af1610ac4565b600054610100900460ff16158080156104065750600054600160ff909116105b806104205750303b158015610420575060005460ff166001145b6104975760405162461bcd60e51b815260206004820152602e60248201527f496e697469616c697a61626c653a20636f6e747261637420697320616c72656160448201527f647920696e697469616c697a656400000000000000000000000000000000000060648201526084015b60405180910390fd5b6000805460ff1916600117905580156104ba576000805461ff0019166101001790555b6104c5848484610b66565b801561050b576000805461ff0019169055604051600181527f7f26b83ff96e1f2b6a682f133852f6798a09c465da95921460cefb38474024989060200160405180910390a15b50505050565b600061051d8383610715565b50600192915050565b61052e610bdc565b805182511461057657815181516040517f43a3c2660000000000000000000000000000000000000000000000000000000081526004810192909252602482015260440161048e565b60005b82518110156105c6576105be8382815181106105975761059761211b565b60200260200101518383815181106105b1576105b161211b565b6020026020010151610c3d565b600101610579565b505050565b60006105ea848484600160405180602001604052806000815250610871565b5060019392505050565b8451845181141580610607575083518114155b80610613575082518114155b8061061f575081518114155b15610656576040517f263eee8d00000000000000000000000000000000000000000000000000000000815260040160405180910390fd5b60005b818110156106f3576106eb8782815181106106765761067661211b565b60200260200101518783815181106106905761069061211b565b60200260200101518784815181106106aa576106aa61211b565b60200260200101518785815181106106c4576106c461211b565b60200260200101518786815181106106de576106de61211b565b6020026020010151610871565b600101610659565b50505050505050565b60025460009060ff1661070f5750601290565b50600090565b610720338383610c47565b5050565b6060815167ffffffffffffffff81111561074057610740611a35565b60405190808252806020026020018201604052801561077357816020015b606081526020019060019003908161075e5790505b50905060005b82518110156107d2576107a48382815181106107975761079761211b565b6020026020010151610ac4565b8282815181106107b6576107b661211b565b60200260200101819052506107cb8160010190565b9050610779565b50919050565b60606103b382610ac4565b6000826001600160a01b0316826001600160a01b03160361081d57506001600160a01b0381166000908152600460205260409020546103b3565b506001600160a01b038082166000908152600560209081526040808320938616835292905220546103b3565b610851610bdc565b61085b6000610ca4565b565b610865610bdc565b61050b84848484610d30565b836001600160a01b0316856001600160a01b0316036108bc576040517fb9afb00000000000000000000000000000000000000000000000000000000000815260040160405180910390fd5b336001600160a01b0386168114610964576001600160a01b038087166000908152600560209081526040808320938516835292905220548085111561094e576040517ff3a6b6910000000000000000000000000000000000000000000000000000000081526001600160a01b03808916600483015260248201839052831660448201526064810186905260840161048e565b610962878361095d8885612147565b610c47565b505b6109718686868686610d83565b505050505050565b610981610bdc565b6107208282610c3d565b606060006103b37f2f0a68ab07768e01943a599e73362a0e17a63a72e94dd2e384d2c1d4db932756610ac4565b600061051d338484600160405180602001604052806000815250610871565b60006109e382846107e3565b9392505050565b6109f2610bdc565b6001600160a01b038116610a6e5760405162461bcd60e51b815260206004820152602660248201527f4f776e61626c653a206e6577206f776e657220697320746865207a65726f206160448201527f6464726573730000000000000000000000000000000000000000000000000000606482015260840161048e565b610a7781610ca4565b50565b610a7733826000610c47565b60006001600160e01b031982167fda1f85e40000000000000000000000000000000000000000000000000000000014806103b357506103b382610de4565b6000818152600160205260409020805460609190610ae19061215e565b80601f0160208091040260200160405190810160405280929190818152602001828054610b0d9061215e565b8015610b5a5780601f10610b2f57610100808354040283529160200191610b5a565b820191906000526020600020905b815481529060010190602001808311610b3d57829003601f168201915b50505050509050919050565b600054610100900460ff16610bd15760405162461bcd60e51b815260206004820152602b60248201527f496e697469616c697a61626c653a20636f6e7472616374206973206e6f74206960448201526a6e697469616c697a696e6760a81b606482015260840161048e565b6105c6838383610e32565b6000546001600160a01b036201000090910416331461085b5760405162461bcd60e51b815260206004820181905260248201527f4f776e61626c653a2063616c6c6572206973206e6f7420746865206f776e6572604482015260640161048e565b6107208282610eaa565b610c52838383610fd0565b816001600160a01b0316836001600160a01b03167f8c5be1e5ebec7d5bd14f71427d1e84f3dd0314c0f7b2291e5b200ac8c7c3b92583604051610c9791815260200190565b60405180910390a3505050565b6000546001600160a01b03828116620100009092041614610a7757600080546001600160a01b03838116620100008181027fffffffffffffffffffff0000000000000000000000000000000000000000ffff851617855560405193049190911692909183917f8be0079c531659141344cd1fd0a4f28419497f9722a3daafe3b4186f6b6457e091a35050565b610d3c848484846110e7565b6040518381526001600160a01b038516906000907fddf252ad1be2c89b69c2b068fc378daa952ba7f163c4a11628f55a4df523b3ef9060200160405180910390a350505050565b610d9085858585856111c4565b836001600160a01b0316856001600160a01b03167fddf252ad1be2c89b69c2b068fc378daa952ba7f163c4a11628f55a4df523b3ef85604051610dd591815260200190565b60405180910390a35050505050565b60006001600160e01b031982167f714df77c0000000000000000000000000000000000000000000000000000000014806103b357506301ffc9a760e01b6001600160e01b03198316146103b3565b600054610100900460ff16610e9d5760405162461bcd60e51b815260206004820152602b60248201527f496e697469616c697a61626c653a20636f6e7472616374206973206e6f74206960448201526a6e697469616c697a696e6760a81b606482015260840161048e565b6105c6838383600061133a565b7f2145e1d6d074577dc71ef54c3807742b41b053a9352ae6b491331509acb9750f8201610f03576040517f85c169bd00000000000000000000000000000000000000000000000000000000815260040160405180910390fd5b7fd0f59754f88971fe6bc5a6618cc9d5f1e859c58d16b22d1c7b2d3e2b246cd8aa8201610f5c576040517f76755b3800000000000000000000000000000000000000000000000000000000815260040160405180910390fd5b6000828152600160205260409020610f7482826121d8565b50817fece574603820d07bc9b91f2a932baadf4628aabcb8afba49776529c14a6104b261010083511115610fb557610fb08360006101006113be565b610fb7565b825b604051610fc49190611a22565b60405180910390a25050565b6001600160a01b038216611010576040517f6355e76600000000000000000000000000000000000000000000000000000000815260040160405180910390fd5b826001600160a01b0316826001600160a01b03160361102e57505050565b6001600160a01b03808416600090815260056020908152604080832093861683529290522081905580156110a25780836001600160a01b0316836001600160a01b03167fd66aff874162a96578e919097b6f6d153dfd89a5cec41bb331fdb0c4aec16e2c60405160405180910390a4505050565b826001600160a01b0316826001600160a01b03167f50546e66e5f44d728365dc3908c63bc5cfeeab470722c1677e3073a6ac294aa160405160405180910390a3505050565b6001600160a01b03841661110e57604051630d2d5ec360e41b815260040160405180910390fd5b3383600360008282546111219190612298565b90915550506001600160a01b0385166000908152600460205260408120805486929061114e908490612298565b92505081905550846001600160a01b031660006001600160a01b0316826001600160a01b03167f3997e418d2cef0b3b0e907b1e39605c3f7d32dbd061e82ea5b4a770d46a160a68787876040516111a7939291906122b0565b60405180910390a46111bd6000868686866114e6565b5050505050565b6001600160a01b03851615806111e157506001600160a01b038416155b156111ff57604051630d2d5ec360e41b815260040160405180910390fd5b6001600160a01b0385166000908152600460205260409020548084111561126b576040517f08d47949000000000000000000000000000000000000000000000000000000008152600481018290526001600160a01b03871660248201526044810185905260640161048e565b336001600160a01b03871660009081526004602052604081208054879290611294908490612147565b90915550506001600160a01b038616600090815260046020526040812080548792906112c1908490612298565b92505081905550856001600160a01b0316876001600160a01b0316826001600160a01b03167f3997e418d2cef0b3b0e907b1e39605c3f7d32dbd061e82ea5b4a770d46a160a6888888604051611319939291906122b0565b60405180910390a461132d87878786611650565b6106f387878787876114e6565b600054610100900460ff166113a55760405162461bcd60e51b815260206004820152602b60248201527f496e697469616c697a61626c653a20636f6e7472616374206973206e6f74206960448201526a6e697469616c697a696e6760a81b606482015260840161048e565b6002805460ff191682151517905561050b848484611724565b6060816113cc81601f612298565b101561141a5760405162461bcd60e51b815260206004820152600e60248201527f736c6963655f6f766572666c6f77000000000000000000000000000000000000604482015260640161048e565b6114248284612298565b845110156114745760405162461bcd60e51b815260206004820152601160248201527f736c6963655f6f75744f66426f756e6473000000000000000000000000000000604482015260640161048e565b60608215801561149357604051915060008252602082016040526114dd565b6040519150601f8416801560200281840101858101878315602002848b0101015b818310156114cc5780518352602092830192016114b4565b5050858452601f01601f1916604052505b50949350505050565b6114f784631aed5a8560e21b61184e565b156115c15760008585858460405160200161151594939291906122da565b60408051601f1981840301815290829052631aed5a8560e21b825291506001600160a01b03861690636bb56a1490611573907f20804611b3e2ea21c480dc465142210acf4a2485947541770ec1fb87dee4a55c908590600401612327565b6000604051808303816000875af1158015611592573d6000803e3d6000fd5b505050506040513d6000823e601f3d908101601f191682016040526115ba9190810190612340565b50506111bd565b816111bd576001600160a01b0384163b15611613576040517fa608fbb60000000000000000000000000000000000000000000000000000000081526001600160a01b038516600482015260240161048e565b6040517f26c247f40000000000000000000000000000000000000000000000000000000081526001600160a01b038516600482015260240161048e565b61166184631aed5a8560e21b61184e565b1561050b5760008484848460405160200161167f94939291906122da565b60408051601f1981840301815290829052631aed5a8560e21b825291506001600160a01b03861690636bb56a14906116dd907f429ac7a06903dbc9c13dfcb3c9d11df8194581fa047c96d7a4171fc7402958ea908590600401612327565b6000604051808303816000875af11580156116fc573d6000803e3d6000fd5b505050506040513d6000823e601f3d908101601f191682016040526109719190810190612340565b600054610100900460ff1661178f5760405162461bcd60e51b815260206004820152602b60248201527f496e697469616c697a61626c653a20636f6e7472616374206973206e6f74206960448201526a6e697469616c697a696e6760a81b606482015260840161048e565b611798816118ec565b6117fa7feafec4d89fa9619884b60000a4d96624a38f7ac2d8d9a604ecf07c12c77e480c60001b6040518060400160405280600481526020017fa4d9662400000000000000000000000000000000000000000000000000000000815250611957565b6118247fdeba1e292f8ba88238e10ab3c7f88bd4be4fac56cad5194b6ecceaf653468af184611957565b6105c67f2f0a68ab07768e01943a599e73362a0e17a63a72e94dd2e384d2c1d4db93275683611957565b604080516001600160e01b03198316602480830191909152825180830390910181526044909101909152602080820180517bffffffffffffffffffffffffffffffffffffffffffffffffffffffff166301ffc9a760e01b178152825160009392849283928392918391908a617530fa92503d915060005190508280156118d5575060208210155b80156118e15750600081115b979650505050505050565b600054610100900460ff166109f25760405162461bcd60e51b815260206004820152602b60248201527f496e697469616c697a61626c653a20636f6e7472616374206973206e6f74206960448201526a6e697469616c697a696e6760a81b606482015260840161048e565b600082815260016020526040902061196f82826121d8565b50817fece574603820d07bc9b91f2a932baadf4628aabcb8afba49776529c14a6104b282604051610fc49190611a22565b6000602082840312156119b257600080fd5b81356001600160e01b0319811681146109e357600080fd5b60005b838110156119e55781810151838201526020016119cd565b8381111561050b5750506000910152565b60008151808452611a0e8160208601602086016119ca565b601f01601f19169290920160200192915050565b6020815260006109e360208301846119f6565b634e487b7160e01b600052604160045260246000fd5b604051601f8201601f1916810167ffffffffffffffff81118282101715611a7457611a74611a35565b604052919050565b600067ffffffffffffffff821115611a9657611a96611a35565b50601f01601f191660200190565b600082601f830112611ab557600080fd5b8135611ac8611ac382611a7c565b611a4b565b818152846020838601011115611add57600080fd5b816020850160208301376000918101602001919091529392505050565b80356001600160a01b0381168114611b1157600080fd5b919050565b600080600060608486031215611b2b57600080fd5b833567ffffffffffffffff80821115611b4357600080fd5b611b4f87838801611aa4565b94506020860135915080821115611b6557600080fd5b50611b7286828701611aa4565b925050611b8160408501611afa565b90509250925092565b60008060408385031215611b9d57600080fd5b611ba683611afa565b946020939093013593505050565b600067ffffffffffffffff821115611bce57611bce611a35565b5060051b60200190565b600082601f830112611be957600080fd5b81356020611bf9611ac383611bb4565b82815260059290921b84018101918181019086841115611c1857600080fd5b8286015b84811015611c335780358352918301918301611c1c565b509695505050505050565b600082601f830112611c4f57600080fd5b81356020611c5f611ac383611bb4565b82815260059290921b84018101918181019086841115611c7e57600080fd5b8286015b84811015611c3357803567ffffffffffffffff811115611ca25760008081fd5b611cb08986838b0101611aa4565b845250918301918301611c82565b60008060408385031215611cd157600080fd5b823567ffffffffffffffff80821115611ce957600080fd5b611cf586838701611bd8565b93506020850135915080821115611d0b57600080fd5b50611d1885828601611c3e565b9150509250929050565b600080600060608486031215611d3757600080fd5b611d4084611afa565b9250611d4e60208501611afa565b9150604084013590509250925092565b600082601f830112611d6f57600080fd5b81356020611d7f611ac383611bb4565b82815260059290921b84018101918181019086841115611d9e57600080fd5b8286015b84811015611c3357611db381611afa565b8352918301918301611da2565b80358015158114611b1157600080fd5b600082601f830112611de157600080fd5b81356020611df1611ac383611bb4565b82815260059290921b84018101918181019086841115611e1057600080fd5b8286015b84811015611c3357611e2581611dc0565b8352918301918301611e14565b600080600080600060a08688031215611e4a57600080fd5b853567ffffffffffffffff80821115611e6257600080fd5b611e6e89838a01611d5e565b96506020880135915080821115611e8457600080fd5b611e9089838a01611d5e565b95506040880135915080821115611ea657600080fd5b611eb289838a01611bd8565b94506060880135915080821115611ec857600080fd5b611ed489838a01611dd0565b93506080880135915080821115611eea57600080fd5b50611ef788828901611c3e565b9150509295509295909350565b600060208284031215611f1657600080fd5b813567ffffffffffffffff811115611f2d57600080fd5b611f3984828501611bd8565b949350505050565b6000602080830181845280855180835260408601915060408160051b870101925083870160005b82811015611f9657603f19888603018452611f848583516119f6565b94509285019290850190600101611f68565b5092979650505050505050565b600060208284031215611fb557600080fd5b5035919050565b60008060408385031215611fcf57600080fd5b611fd883611afa565b9150611fe660208401611afa565b90509250929050565b60006020828403121561200157600080fd5b6109e382611afa565b6000806000806080858703121561202057600080fd5b61202985611afa565b93506020850135925061203e60408601611dc0565b9150606085013567ffffffffffffffff81111561205a57600080fd5b61206687828801611aa4565b91505092959194509250565b600080600080600060a0868803121561208a57600080fd5b61209386611afa565b94506120a160208701611afa565b9350604086013592506120b660608701611dc0565b9150608086013567ffffffffffffffff8111156120d257600080fd5b611ef788828901611aa4565b600080604083850312156120f157600080fd5b82359150602083013567ffffffffffffffff81111561210f57600080fd5b611d1885828601611aa4565b634e487b7160e01b600052603260045260246000fd5b634e487b7160e01b600052601160045260246000fd5b60008282101561215957612159612131565b500390565b600181811c9082168061217257607f821691505b6020821081036107d257634e487b7160e01b600052602260045260246000fd5b601f8211156105c657600081815260208120601f850160051c810160208610156121b95750805b601f850160051c820191505b81811015610971578281556001016121c5565b815167ffffffffffffffff8111156121f2576121f2611a35565b61220681612200845461215e565b84612192565b602080601f83116001811461223b57600084156122235750858301515b600019600386901b1c1916600185901b178555610971565b600085815260208120601f198616915b8281101561226a5788860151825594840194600190910190840161224b565b50858210156122885787850151600019600388901b60f8161c191681555b5050505050600190811b01905550565b600082198211156122ab576122ab612131565b500190565b83815282151560208201526060604082015260006122d160608301846119f6565b95945050505050565b60006bffffffffffffffffffffffff19808760601b168352808660601b1660148401525083602883015282516123178160488501602087016119ca565b9190910160480195945050505050565b828152604060208201526000611f3960408301846119f6565b60006020828403121561235257600080fd5b815167ffffffffffffffff81111561236957600080fd5b8201601f8101841361237a57600080fd5b8051612388611ac382611a7c565b81815285602083850101111561239d57600080fd5b6122d18260208301602086016119ca56fea26469706673582212205341e9eca3084bc072d25fdaea75189091e517295eab9482abefee63da4acb4764736f6c634300080f0033",
  "linkReferences": {},
  "deployedLinkReferences": {}
}