{
  "_format": "hh-sol-artifact-1",
  "contractName": "LSP7MintableInit",
  "sourceName": "contracts/LSP7DigitalAsset/presets/LSP7MintableInit.sol",
  "abi": [
    {
      "inputs": [],
      "stateMutability": "nonpayable",
      "type": "constructor"
    },
    {
      "inputs": [
        {
          "internalType": "uint256",
          "name": "dataKeysLength",
          "type": "uint256"
        },
        {
          "internalType": "uint256",
          "name": "dataValuesLength",
          "type": "uint256"
        }
      ],
      "name": "ERC725Y_DataKeysValuesLengthMismatch",
      "type": "error"
    },
    {
      "inputs": [],
      "name": "LSP4TokenNameNotEditable",
      "type": "error"
    },
    {
      "inputs": [],
      "name": "LSP4TokenSymbolNotEditable",
      "type": "error"
    },
    {
      "inputs": [
        {
          "internalType": "address",
          "name": "tokenOwner",
          "type": "address"
        },
        {
          "internalType": "uint256",
          "name": "authorizedAmount",
          "type": "uint256"
        },
        {
          "internalType": "address",
          "name": "operator",
          "type": "address"
        },
        {
          "internalType": "uint256",
          "name": "amount",
          "type": "uint256"
        }
      ],
      "name": "LSP7AmountExceedsAuthorizedAmount",
      "type": "error"
    },
    {
      "inputs": [
        {
          "internalType": "uint256",
          "name": "balance",
          "type": "uint256"
        },
        {
          "internalType": "address",
          "name": "tokenOwner",
          "type": "address"
        },
        {
          "internalType": "uint256",
          "name": "amount",
          "type": "uint256"
        }
      ],
      "name": "LSP7AmountExceedsBalance",
      "type": "error"
    },
    {
      "inputs": [],
      "name": "LSP7CannotSendToSelf",
      "type": "error"
    },
    {
      "inputs": [],
      "name": "LSP7CannotSendWithAddressZero",
      "type": "error"
    },
    {
      "inputs": [],
      "name": "LSP7CannotUseAddressZeroAsOperator",
      "type": "error"
    },
    {
      "inputs": [],
      "name": "LSP7InvalidTransferBatch",
      "type": "error"
    },
    {
      "inputs": [
        {
          "internalType": "address",
          "name": "tokenReceiver",
          "type": "address"
        }
      ],
      "name": "LSP7NotifyTokenReceiverContractMissingLSP1Interface",
      "type": "error"
    },
    {
      "inputs": [
        {
          "internalType": "address",
          "name": "tokenReceiver",
          "type": "address"
        }
      ],
      "name": "LSP7NotifyTokenReceiverIsEOA",
      "type": "error"
    },
    {
      "anonymous": false,
      "inputs": [
        {
          "indexed": true,
          "internalType": "address",
          "name": "operator",
          "type": "address"
        },
        {
          "indexed": true,
          "internalType": "address",
          "name": "tokenOwner",
          "type": "address"
        },
        {
          "indexed": true,
          "internalType": "uint256",
          "name": "amount",
          "type": "uint256"
        }
      ],
      "name": "AuthorizedOperator",
      "type": "event"
    },
    {
      "anonymous": false,
      "inputs": [
        {
          "indexed": true,
          "internalType": "bytes32",
          "name": "dataKey",
          "type": "bytes32"
        },
        {
          "indexed": false,
          "internalType": "bytes",
          "name": "dataValue",
          "type": "bytes"
        }
      ],
      "name": "DataChanged",
      "type": "event"
    },
    {
      "anonymous": false,
      "inputs": [
        {
          "indexed": false,
          "internalType": "uint8",
          "name": "version",
          "type": "uint8"
        }
      ],
      "name": "Initialized",
      "type": "event"
    },
    {
      "anonymous": false,
      "inputs": [
        {
          "indexed": true,
          "internalType": "address",
          "name": "previousOwner",
          "type": "address"
        },
        {
          "indexed": true,
          "internalType": "address",
          "name": "newOwner",
          "type": "address"
        }
      ],
      "name": "OwnershipTransferred",
      "type": "event"
    },
    {
      "anonymous": false,
      "inputs": [
        {
          "indexed": true,
          "internalType": "address",
          "name": "operator",
          "type": "address"
        },
        {
          "indexed": true,
          "internalType": "address",
          "name": "tokenOwner",
          "type": "address"
        }
      ],
      "name": "RevokedOperator",
      "type": "event"
    },
    {
      "anonymous": false,
      "inputs": [
        {
          "indexed": true,
          "internalType": "address",
          "name": "operator",
          "type": "address"
        },
        {
          "indexed": true,
          "internalType": "address",
          "name": "from",
          "type": "address"
        },
        {
          "indexed": true,
          "internalType": "address",
          "name": "to",
          "type": "address"
        },
        {
          "indexed": false,
          "internalType": "uint256",
          "name": "amount",
          "type": "uint256"
        },
        {
          "indexed": false,
          "internalType": "bool",
          "name": "allowNonLSP1Recipient",
          "type": "bool"
        },
        {
          "indexed": false,
          "internalType": "bytes",
          "name": "data",
          "type": "bytes"
        }
      ],
      "name": "Transfer",
      "type": "event"
    },
    {
      "inputs": [
        {
          "internalType": "address",
          "name": "operator",
          "type": "address"
        },
        {
          "internalType": "uint256",
          "name": "amount",
          "type": "uint256"
        }
      ],
      "name": "authorizeOperator",
      "outputs": [],
      "stateMutability": "nonpayable",
      "type": "function"
    },
    {
      "inputs": [
        {
          "internalType": "address",
          "name": "operator",
          "type": "address"
        },
        {
          "internalType": "address",
          "name": "tokenOwner",
          "type": "address"
        }
      ],
      "name": "authorizedAmountFor",
      "outputs": [
        {
          "internalType": "uint256",
          "name": "",
          "type": "uint256"
        }
      ],
      "stateMutability": "view",
      "type": "function"
    },
    {
      "inputs": [
        {
          "internalType": "address",
          "name": "tokenOwner",
          "type": "address"
        }
      ],
      "name": "balanceOf",
      "outputs": [
        {
          "internalType": "uint256",
          "name": "",
          "type": "uint256"
        }
      ],
      "stateMutability": "view",
      "type": "function"
    },
    {
      "inputs": [],
      "name": "decimals",
      "outputs": [
        {
          "internalType": "uint8",
          "name": "",
          "type": "uint8"
        }
      ],
      "stateMutability": "view",
      "type": "function"
    },
    {
      "inputs": [
        {
          "internalType": "bytes32[]",
          "name": "dataKeys",
          "type": "bytes32[]"
        }
      ],
      "name": "getData",
      "outputs": [
        {
          "internalType": "bytes[]",
          "name": "dataValues",
          "type": "bytes[]"
        }
      ],
      "stateMutability": "view",
      "type": "function"
    },
    {
      "inputs": [
        {
          "internalType": "bytes32",
          "name": "dataKey",
          "type": "bytes32"
        }
      ],
      "name": "getData",
      "outputs": [
        {
          "internalType": "bytes",
          "name": "dataValue",
          "type": "bytes"
        }
      ],
      "stateMutability": "view",
      "type": "function"
    },
    {
      "inputs": [
        {
          "internalType": "string",
          "name": "name_",
          "type": "string"
        },
        {
          "internalType": "string",
          "name": "symbol_",
          "type": "string"
        },
        {
          "internalType": "address",
          "name": "newOwner_",
          "type": "address"
        },
        {
          "internalType": "bool",
          "name": "isNonDivisible_",
          "type": "bool"
        }
      ],
      "name": "initialize",
      "outputs": [],
      "stateMutability": "nonpayable",
      "type": "function"
    },
    {
      "inputs": [
        {
          "internalType": "address",
          "name": "to",
          "type": "address"
        },
        {
          "internalType": "uint256",
          "name": "amount",
          "type": "uint256"
        },
        {
          "internalType": "bool",
          "name": "allowNonLSP1Recipient",
          "type": "bool"
        },
        {
          "internalType": "bytes",
          "name": "data",
          "type": "bytes"
        }
      ],
      "name": "mint",
      "outputs": [],
      "stateMutability": "nonpayable",
      "type": "function"
    },
    {
      "inputs": [],
      "name": "owner",
      "outputs": [
        {
          "internalType": "address",
          "name": "",
          "type": "address"
        }
      ],
      "stateMutability": "view",
      "type": "function"
    },
    {
      "inputs": [],
      "name": "renounceOwnership",
      "outputs": [],
      "stateMutability": "nonpayable",
      "type": "function"
    },
    {
      "inputs": [
        {
          "internalType": "address",
          "name": "operator",
          "type": "address"
        }
      ],
      "name": "revokeOperator",
      "outputs": [],
      "stateMutability": "nonpayable",
      "type": "function"
    },
    {
      "inputs": [
        {
          "internalType": "bytes32[]",
          "name": "dataKeys",
          "type": "bytes32[]"
        },
        {
          "internalType": "bytes[]",
          "name": "dataValues",
          "type": "bytes[]"
        }
      ],
      "name": "setData",
      "outputs": [],
      "stateMutability": "nonpayable",
      "type": "function"
    },
    {
      "inputs": [
        {
          "internalType": "bytes32",
          "name": "dataKey",
          "type": "bytes32"
        },
        {
          "internalType": "bytes",
          "name": "dataValue",
          "type": "bytes"
        }
      ],
      "name": "setData",
      "outputs": [],
      "stateMutability": "nonpayable",
      "type": "function"
    },
    {
      "inputs": [
        {
          "internalType": "bytes4",
          "name": "interfaceId",
          "type": "bytes4"
        }
      ],
      "name": "supportsInterface",
      "outputs": [
        {
          "internalType": "bool",
          "name": "",
          "type": "bool"
        }
      ],
      "stateMutability": "view",
      "type": "function"
    },
    {
      "inputs": [],
      "name": "totalSupply",
      "outputs": [
        {
          "internalType": "uint256",
          "name": "",
          "type": "uint256"
        }
      ],
      "stateMutability": "view",
      "type": "function"
    },
    {
      "inputs": [
        {
          "internalType": "address",
          "name": "from",
          "type": "address"
        },
        {
          "internalType": "address",
          "name": "to",
          "type": "address"
        },
        {
          "internalType": "uint256",
          "name": "amount",
          "type": "uint256"
        },
        {
          "internalType": "bool",
          "name": "allowNonLSP1Recipient",
          "type": "bool"
        },
        {
          "internalType": "bytes",
          "name": "data",
          "type": "bytes"
        }
      ],
      "name": "transfer",
      "outputs": [],
      "stateMutability": "nonpayable",
      "type": "function"
    },
    {
      "inputs": [
        {
          "internalType": "address[]",
          "name": "from",
          "type": "address[]"
        },
        {
          "internalType": "address[]",
          "name": "to",
          "type": "address[]"
        },
        {
          "internalType": "uint256[]",
          "name": "amount",
          "type": "uint256[]"
        },
        {
          "internalType": "bool[]",
          "name": "allowNonLSP1Recipient",
          "type": "bool[]"
        },
        {
          "internalType": "bytes[]",
          "name": "data",
          "type": "bytes[]"
        }
      ],
      "name": "transferBatch",
      "outputs": [],
      "stateMutability": "nonpayable",
      "type": "function"
    },
    {
      "inputs": [
        {
          "internalType": "address",
          "name": "newOwner",
          "type": "address"
        }
      ],
      "name": "transferOwnership",
      "outputs": [],
      "stateMutability": "nonpayable",
      "type": "function"
    }
  ],
  "bytecode": "0x608060405234801561001057600080fd5b5061001961001e565b6100de565b600054610100900460ff161561008a5760405162461bcd60e51b815260206004820152602760248201527f496e697469616c697a61626c653a20636f6e747261637420697320696e697469604482015266616c697a696e6760c81b606482015260840160405180910390fd5b60005460ff90811610156100dc576000805460ff191660ff9081179091556040519081527f7f26b83ff96e1f2b6a682f133852f6798a09c465da95921460cefb38474024989060200160405180910390a15b565b61209d80620000ee6000396000f3fe608060405234801561001057600080fd5b50600436106101365760003560e01c806365aeaa95116100b2578063760d9bba116100815780638da5cb5b116100665780638da5cb5b1461029a578063f2fde38b146102c4578063fad8b32a146102d757600080fd5b8063760d9bba146102745780637f23690c1461028757600080fd5b806365aeaa951461021d57806370a0823114610230578063715018a6146102595780637580d9201461026157600080fd5b8063313ce567116101095780634e3e6e9c116100ee5780634e3e6e9c146101ca57806354f6127f146101ea5780635c108a431461020a57600080fd5b8063313ce5671461019d57806347980aa3146101b757600080fd5b806301ffc9a71461013b57806314a6e2931461016357806318160ddd146101785780632d7667c91461018a575b600080fd5b61014e61014936600461167d565b6102ea565b60405190151581526020015b60405180910390f35b61017661017136600461187d565b61032e565b005b6003545b60405190815260200161015a565b6101766101983660046119d1565b6103d8565b6101a56104e0565b60405160ff909116815260200161015a565b6101766101c5366004611aa3565b6104f9565b6101dd6101d8366004611acd565b610508565b60405161015a9190611b62565b6101fd6101f8366004611bc4565b6105bc565b60405161015a9190611bdd565b610176610218366004611bf0565b6105c7565b61017c61022b366004611c75565b6106ef565b61017c61023e366004611ca8565b6001600160a01b031660009081526004602052604090205490565b610176610756565b61017661026f366004611cc3565b61076a565b610176610282366004611d2b565b610784565b610176610295366004611d97565b61088c565b6000546201000090046001600160a01b03166040516001600160a01b03909116815260200161015a565b6101766102d2366004611ca8565b61089e565b6101766102e5366004611ca8565b61092e565b60006001600160e01b031982167fda1f85e400000000000000000000000000000000000000000000000000000000148061032857506103288261093a565b92915050565b610336610988565b805182511461038357815181516040517f43a3c266000000000000000000000000000000000000000000000000000000008152600481019290925260248201526044015b60405180910390fd5b60005b82518110156103d3576103cb8382815181106103a4576103a4611dd4565b60200260200101518383815181106103be576103be611dd4565b60200260200101516109e9565b600101610386565b505050565b84518451811415806103eb575083518114155b806103f7575082518114155b80610403575081518114155b1561043a576040517f263eee8d00000000000000000000000000000000000000000000000000000000815260040160405180910390fd5b60005b818110156104d7576104cf87828151811061045a5761045a611dd4565b602002602001015187838151811061047457610474611dd4565b602002602001015187848151811061048e5761048e611dd4565b60200260200101518785815181106104a8576104a8611dd4565b60200260200101518786815181106104c2576104c2611dd4565b6020026020010151610784565b60010161043d565b50505050505050565b60025460009060ff166104f35750601290565b50600090565b610504338383610b0f565b5050565b6060815167ffffffffffffffff811115610524576105246116ae565b60405190808252806020026020018201604052801561055757816020015b60608152602001906001900390816105425790505b50905060005b82518110156105b65761058883828151811061057b5761057b611dd4565b6020026020010151610c26565b82828151811061059a5761059a611dd4565b60200260200101819052506105af8160010190565b905061055d565b50919050565b606061032882610c26565b600054610100900460ff16158080156105e75750600054600160ff909116105b806106015750303b158015610601575060005460ff166001145b6106735760405162461bcd60e51b815260206004820152602e60248201527f496e697469616c697a61626c653a20636f6e747261637420697320616c72656160448201527f647920696e697469616c697a6564000000000000000000000000000000000000606482015260840161037a565b6000805460ff191660011790558015610696576000805461ff0019166101001790555b6106a285858585610cc8565b80156106e8576000805461ff0019169055604051600181527f7f26b83ff96e1f2b6a682f133852f6798a09c465da95921460cefb38474024989060200160405180910390a15b5050505050565b6000826001600160a01b0316826001600160a01b03160361072957506001600160a01b038116600090815260046020526040902054610328565b506001600160a01b0380821660009081526005602090815260408083209386168352929052205492915050565b61075e610988565b6107686000610d3f565b565b610772610988565b61077e84848484610dcb565b50505050565b836001600160a01b0316856001600160a01b0316036107cf576040517fb9afb00000000000000000000000000000000000000000000000000000000000815260040160405180910390fd5b336001600160a01b0386168114610877576001600160a01b0380871660009081526005602090815260408083209385168352929052205480851115610861576040517ff3a6b6910000000000000000000000000000000000000000000000000000000081526001600160a01b03808916600483015260248201839052831660448201526064810186905260840161037a565b61087587836108708885611e00565b610b0f565b505b6108848686868686610ea1565b505050505050565b610894610988565b61050482826109e9565b6108a6610988565b6001600160a01b0381166109225760405162461bcd60e51b815260206004820152602660248201527f4f776e61626c653a206e6577206f776e657220697320746865207a65726f206160448201527f6464726573730000000000000000000000000000000000000000000000000000606482015260840161037a565b61092b81610d3f565b50565b61092b33826000610b0f565b60006001600160e01b031982167f714df77c00000000000000000000000000000000000000000000000000000000148061032857506301ffc9a760e01b6001600160e01b0319831614610328565b6000546001600160a01b03620100009091041633146107685760405162461bcd60e51b815260206004820181905260248201527f4f776e61626c653a2063616c6c6572206973206e6f7420746865206f776e6572604482015260640161037a565b7f2145e1d6d074577dc71ef54c3807742b41b053a9352ae6b491331509acb9750f8201610a42576040517f85c169bd00000000000000000000000000000000000000000000000000000000815260040160405180910390fd5b7fd0f59754f88971fe6bc5a6618cc9d5f1e859c58d16b22d1c7b2d3e2b246cd8aa8201610a9b576040517f76755b3800000000000000000000000000000000000000000000000000000000815260040160405180910390fd5b6000828152600160205260409020610ab38282611e91565b50817fece574603820d07bc9b91f2a932baadf4628aabcb8afba49776529c14a6104b261010083511115610af457610aef836000610100611017565b610af6565b825b604051610b039190611bdd565b60405180910390a25050565b6001600160a01b038216610b4f576040517f6355e76600000000000000000000000000000000000000000000000000000000815260040160405180910390fd5b826001600160a01b0316826001600160a01b031603610b6d57505050565b6001600160a01b0380841660009081526005602090815260408083209386168352929052208190558015610be15780836001600160a01b0316836001600160a01b03167fd66aff874162a96578e919097b6f6d153dfd89a5cec41bb331fdb0c4aec16e2c60405160405180910390a4505050565b826001600160a01b0316826001600160a01b03167f50546e66e5f44d728365dc3908c63bc5cfeeab470722c1677e3073a6ac294aa160405160405180910390a3505050565b6000818152600160205260409020805460609190610c4390611e17565b80601f0160208091040260200160405190810160405280929190818152602001828054610c6f90611e17565b8015610cbc5780601f10610c9157610100808354040283529160200191610cbc565b820191906000526020600020905b815481529060010190602001808311610c9f57829003601f168201915b50505050509050919050565b600054610100900460ff16610d335760405162461bcd60e51b815260206004820152602b60248201527f496e697469616c697a61626c653a20636f6e7472616374206973206e6f74206960448201526a6e697469616c697a696e6760a81b606482015260840161037a565b61077e8484848461113f565b6000546001600160a01b0382811662010000909204161461092b57600080546001600160a01b03838116620100008181027fffffffffffffffffffff0000000000000000000000000000000000000000ffff851617855560405193049190911692909183917f8be0079c531659141344cd1fd0a4f28419497f9722a3daafe3b4186f6b6457e091a35050565b6001600160a01b038416610df257604051630d2d5ec360e41b815260040160405180910390fd5b338360036000828254610e059190611f51565b90915550506001600160a01b03851660009081526004602052604081208054869290610e32908490611f51565b92505081905550846001600160a01b031660006001600160a01b0316826001600160a01b03167f3997e418d2cef0b3b0e907b1e39605c3f7d32dbd061e82ea5b4a770d46a160a6878787604051610e8b93929190611f69565b60405180910390a46106e86000868686866111c3565b6001600160a01b0385161580610ebe57506001600160a01b038416155b15610edc57604051630d2d5ec360e41b815260040160405180910390fd5b6001600160a01b03851660009081526004602052604090205480841115610f48576040517f08d47949000000000000000000000000000000000000000000000000000000008152600481018290526001600160a01b03871660248201526044810185905260640161037a565b336001600160a01b03871660009081526004602052604081208054879290610f71908490611e00565b90915550506001600160a01b03861660009081526004602052604081208054879290610f9e908490611f51565b92505081905550856001600160a01b0316876001600160a01b0316826001600160a01b03167f3997e418d2cef0b3b0e907b1e39605c3f7d32dbd061e82ea5b4a770d46a160a6888888604051610ff693929190611f69565b60405180910390a461100a8787878661132d565b6104d787878787876111c3565b60608161102581601f611f51565b10156110735760405162461bcd60e51b815260206004820152600e60248201527f736c6963655f6f766572666c6f77000000000000000000000000000000000000604482015260640161037a565b61107d8284611f51565b845110156110cd5760405162461bcd60e51b815260206004820152601160248201527f736c6963655f6f75744f66426f756e6473000000000000000000000000000000604482015260640161037a565b6060821580156110ec5760405191506000825260208201604052611136565b6040519150601f8416801560200281840101858101878315602002848b0101015b8183101561112557805183526020928301920161110d565b5050858452601f01601f1916604052505b50949350505050565b600054610100900460ff166111aa5760405162461bcd60e51b815260206004820152602b60248201527f496e697469616c697a61626c653a20636f6e7472616374206973206e6f74206960448201526a6e697469616c697a696e6760a81b606482015260840161037a565b6002805460ff191682151517905561077e848484611401565b6111d484631aed5a8560e21b61152b565b1561129e576000858585846040516020016111f29493929190611f93565b60408051601f1981840301815290829052631aed5a8560e21b825291506001600160a01b03861690636bb56a1490611250907f20804611b3e2ea21c480dc465142210acf4a2485947541770ec1fb87dee4a55c908590600401611fe0565b6000604051808303816000875af115801561126f573d6000803e3d6000fd5b505050506040513d6000823e601f3d908101601f191682016040526112979190810190611ff9565b50506106e8565b816106e8576001600160a01b0384163b156112f0576040517fa608fbb60000000000000000000000000000000000000000000000000000000081526001600160a01b038516600482015260240161037a565b6040517f26c247f40000000000000000000000000000000000000000000000000000000081526001600160a01b038516600482015260240161037a565b61133e84631aed5a8560e21b61152b565b1561077e5760008484848460405160200161135c9493929190611f93565b60408051601f1981840301815290829052631aed5a8560e21b825291506001600160a01b03861690636bb56a14906113ba907f429ac7a06903dbc9c13dfcb3c9d11df8194581fa047c96d7a4171fc7402958ea908590600401611fe0565b6000604051808303816000875af11580156113d9573d6000803e3d6000fd5b505050506040513d6000823e601f3d908101601f191682016040526108849190810190611ff9565b600054610100900460ff1661146c5760405162461bcd60e51b815260206004820152602b60248201527f496e697469616c697a61626c653a20636f6e7472616374206973206e6f74206960448201526a6e697469616c697a696e6760a81b606482015260840161037a565b611475816115c9565b6114d77feafec4d89fa9619884b60000a4d96624a38f7ac2d8d9a604ecf07c12c77e480c60001b6040518060400160405280600481526020017fa4d9662400000000000000000000000000000000000000000000000000000000815250611634565b6115017fdeba1e292f8ba88238e10ab3c7f88bd4be4fac56cad5194b6ecceaf653468af184611634565b6103d37f2f0a68ab07768e01943a599e73362a0e17a63a72e94dd2e384d2c1d4db93275683611634565b604080516001600160e01b03198316602480830191909152825180830390910181526044909101909152602080820180517bffffffffffffffffffffffffffffffffffffffffffffffffffffffff166301ffc9a760e01b178152825160009392849283928392918391908a617530fa92503d915060005190508280156115b2575060208210155b80156115be5750600081115b979650505050505050565b600054610100900460ff166108a65760405162461bcd60e51b815260206004820152602b60248201527f496e697469616c697a61626c653a20636f6e7472616374206973206e6f74206960448201526a6e697469616c697a696e6760a81b606482015260840161037a565b600082815260016020526040902061164c8282611e91565b50817fece574603820d07bc9b91f2a932baadf4628aabcb8afba49776529c14a6104b282604051610b039190611bdd565b60006020828403121561168f57600080fd5b81356001600160e01b0319811681146116a757600080fd5b9392505050565b634e487b7160e01b600052604160045260246000fd5b604051601f8201601f1916810167ffffffffffffffff811182821017156116ed576116ed6116ae565b604052919050565b600067ffffffffffffffff82111561170f5761170f6116ae565b5060051b60200190565b600082601f83011261172a57600080fd5b8135602061173f61173a836116f5565b6116c4565b82815260059290921b8401810191818101908684111561175e57600080fd5b8286015b848110156117795780358352918301918301611762565b509695505050505050565b600067ffffffffffffffff82111561179e5761179e6116ae565b50601f01601f191660200190565b600082601f8301126117bd57600080fd5b81356117cb61173a82611784565b8181528460208386010111156117e057600080fd5b816020850160208301376000918101602001919091529392505050565b600082601f83011261180e57600080fd5b8135602061181e61173a836116f5565b82815260059290921b8401810191818101908684111561183d57600080fd5b8286015b8481101561177957803567ffffffffffffffff8111156118615760008081fd5b61186f8986838b01016117ac565b845250918301918301611841565b6000806040838503121561189057600080fd5b823567ffffffffffffffff808211156118a857600080fd5b6118b486838701611719565b935060208501359150808211156118ca57600080fd5b506118d7858286016117fd565b9150509250929050565b80356001600160a01b03811681146118f857600080fd5b919050565b600082601f83011261190e57600080fd5b8135602061191e61173a836116f5565b82815260059290921b8401810191818101908684111561193d57600080fd5b8286015b8481101561177957611952816118e1565b8352918301918301611941565b803580151581146118f857600080fd5b600082601f83011261198057600080fd5b8135602061199061173a836116f5565b82815260059290921b840181019181810190868411156119af57600080fd5b8286015b84811015611779576119c48161195f565b83529183019183016119b3565b600080600080600060a086880312156119e957600080fd5b853567ffffffffffffffff80821115611a0157600080fd5b611a0d89838a016118fd565b96506020880135915080821115611a2357600080fd5b611a2f89838a016118fd565b95506040880135915080821115611a4557600080fd5b611a5189838a01611719565b94506060880135915080821115611a6757600080fd5b611a7389838a0161196f565b93506080880135915080821115611a8957600080fd5b50611a96888289016117fd565b9150509295509295909350565b60008060408385031215611ab657600080fd5b611abf836118e1565b946020939093013593505050565b600060208284031215611adf57600080fd5b813567ffffffffffffffff811115611af657600080fd5b611b0284828501611719565b949350505050565b60005b83811015611b25578181015183820152602001611b0d565b8381111561077e5750506000910152565b60008151808452611b4e816020860160208601611b0a565b601f01601f19169290920160200192915050565b6000602080830181845280855180835260408601915060408160051b870101925083870160005b82811015611bb757603f19888603018452611ba5858351611b36565b94509285019290850190600101611b89565b5092979650505050505050565b600060208284031215611bd657600080fd5b5035919050565b6020815260006116a76020830184611b36565b60008060008060808587031215611c0657600080fd5b843567ffffffffffffffff80821115611c1e57600080fd5b611c2a888389016117ac565b95506020870135915080821115611c4057600080fd5b50611c4d878288016117ac565b935050611c5c604086016118e1565b9150611c6a6060860161195f565b905092959194509250565b60008060408385031215611c8857600080fd5b611c91836118e1565b9150611c9f602084016118e1565b90509250929050565b600060208284031215611cba57600080fd5b6116a7826118e1565b60008060008060808587031215611cd957600080fd5b611ce2856118e1565b935060208501359250611cf76040860161195f565b9150606085013567ffffffffffffffff811115611d1357600080fd5b611d1f878288016117ac565b91505092959194509250565b600080600080600060a08688031215611d4357600080fd5b611d4c866118e1565b9450611d5a602087016118e1565b935060408601359250611d6f6060870161195f565b9150608086013567ffffffffffffffff811115611d8b57600080fd5b611a96888289016117ac565b60008060408385031215611daa57600080fd5b82359150602083013567ffffffffffffffff811115611dc857600080fd5b6118d7858286016117ac565b634e487b7160e01b600052603260045260246000fd5b634e487b7160e01b600052601160045260246000fd5b600082821015611e1257611e12611dea565b500390565b600181811c90821680611e2b57607f821691505b6020821081036105b657634e487b7160e01b600052602260045260246000fd5b601f8211156103d357600081815260208120601f850160051c81016020861015611e725750805b601f850160051c820191505b8181101561088457828155600101611e7e565b815167ffffffffffffffff811115611eab57611eab6116ae565b611ebf81611eb98454611e17565b84611e4b565b602080601f831160018114611ef45760008415611edc5750858301515b600019600386901b1c1916600185901b178555610884565b600085815260208120601f198616915b82811015611f2357888601518255948401946001909101908401611f04565b5085821015611f415787850151600019600388901b60f8161c191681555b5050505050600190811b01905550565b60008219821115611f6457611f64611dea565b500190565b8381528215156020820152606060408201526000611f8a6060830184611b36565b95945050505050565b60006bffffffffffffffffffffffff19808760601b168352808660601b166014840152508360288301528251611fd0816048850160208701611b0a565b9190910160480195945050505050565b828152604060208201526000611b026040830184611b36565b60006020828403121561200b57600080fd5b815167ffffffffffffffff81111561202257600080fd5b8201601f8101841361203357600080fd5b805161204161173a82611784565b81815285602083850101111561205657600080fd5b611f8a826020830160208601611b0a56fea264697066735822122012a6adaca25a6d79a8eb5f34d099535431223e5221fa3799b478204077bf297f64736f6c634300080f0033",
  "linkReferences": {},
  "deployedLinkReferences": {}
}