{
  "_format": "hh-sol-artifact-1",
  "contractName": "LSP7Mintable",
  "sourceName": "contracts/LSP7DigitalAsset/presets/LSP7Mintable.sol",
  "abi": [
    {
      "inputs": [
        {
          "internalType": "string",
          "name": "name_",
          "type": "string"
        },
        {
          "internalType": "string",
          "name": "symbol_",
          "type": "string"
        },
        {
          "internalType": "address",
          "name": "newOwner_",
          "type": "address"
        },
        {
          "internalType": "bool",
          "name": "isNonDivisible_",
          "type": "bool"
        }
      ],
      "stateMutability": "nonpayable",
      "type": "constructor"
    },
    {
      "inputs": [
        {
          "internalType": "uint256",
          "name": "dataKeysLength",
          "type": "uint256"
        },
        {
          "internalType": "uint256",
          "name": "dataValuesLength",
          "type": "uint256"
        }
      ],
      "name": "ERC725Y_DataKeysValuesLengthMismatch",
      "type": "error"
    },
    {
      "inputs": [],
      "name": "LSP4TokenNameNotEditable",
      "type": "error"
    },
    {
      "inputs": [],
      "name": "LSP4TokenSymbolNotEditable",
      "type": "error"
    },
    {
      "inputs": [
        {
          "internalType": "address",
          "name": "tokenOwner",
          "type": "address"
        },
        {
          "internalType": "uint256",
          "name": "authorizedAmount",
          "type": "uint256"
        },
        {
          "internalType": "address",
          "name": "operator",
          "type": "address"
        },
        {
          "internalType": "uint256",
          "name": "amount",
          "type": "uint256"
        }
      ],
      "name": "LSP7AmountExceedsAuthorizedAmount",
      "type": "error"
    },
    {
      "inputs": [
        {
          "internalType": "uint256",
          "name": "balance",
          "type": "uint256"
        },
        {
          "internalType": "address",
          "name": "tokenOwner",
          "type": "address"
        },
        {
          "internalType": "uint256",
          "name": "amount",
          "type": "uint256"
        }
      ],
      "name": "LSP7AmountExceedsBalance",
      "type": "error"
    },
    {
      "inputs": [],
      "name": "LSP7CannotSendToSelf",
      "type": "error"
    },
    {
      "inputs": [],
      "name": "LSP7CannotSendWithAddressZero",
      "type": "error"
    },
    {
      "inputs": [],
      "name": "LSP7CannotUseAddressZeroAsOperator",
      "type": "error"
    },
    {
      "inputs": [],
      "name": "LSP7InvalidTransferBatch",
      "type": "error"
    },
    {
      "inputs": [
        {
          "internalType": "address",
          "name": "tokenReceiver",
          "type": "address"
        }
      ],
      "name": "LSP7NotifyTokenReceiverContractMissingLSP1Interface",
      "type": "error"
    },
    {
      "inputs": [
        {
          "internalType": "address",
          "name": "tokenReceiver",
          "type": "address"
        }
      ],
      "name": "LSP7NotifyTokenReceiverIsEOA",
      "type": "error"
    },
    {
      "anonymous": false,
      "inputs": [
        {
          "indexed": true,
          "internalType": "address",
          "name": "operator",
          "type": "address"
        },
        {
          "indexed": true,
          "internalType": "address",
          "name": "tokenOwner",
          "type": "address"
        },
        {
          "indexed": true,
          "internalType": "uint256",
          "name": "amount",
          "type": "uint256"
        }
      ],
      "name": "AuthorizedOperator",
      "type": "event"
    },
    {
      "anonymous": false,
      "inputs": [
        {
          "indexed": true,
          "internalType": "bytes32",
          "name": "dataKey",
          "type": "bytes32"
        },
        {
          "indexed": false,
          "internalType": "bytes",
          "name": "dataValue",
          "type": "bytes"
        }
      ],
      "name": "DataChanged",
      "type": "event"
    },
    {
      "anonymous": false,
      "inputs": [
        {
          "indexed": true,
          "internalType": "address",
          "name": "previousOwner",
          "type": "address"
        },
        {
          "indexed": true,
          "internalType": "address",
          "name": "newOwner",
          "type": "address"
        }
      ],
      "name": "OwnershipTransferred",
      "type": "event"
    },
    {
      "anonymous": false,
      "inputs": [
        {
          "indexed": true,
          "internalType": "address",
          "name": "operator",
          "type": "address"
        },
        {
          "indexed": true,
          "internalType": "address",
          "name": "tokenOwner",
          "type": "address"
        }
      ],
      "name": "RevokedOperator",
      "type": "event"
    },
    {
      "anonymous": false,
      "inputs": [
        {
          "indexed": true,
          "internalType": "address",
          "name": "operator",
          "type": "address"
        },
        {
          "indexed": true,
          "internalType": "address",
          "name": "from",
          "type": "address"
        },
        {
          "indexed": true,
          "internalType": "address",
          "name": "to",
          "type": "address"
        },
        {
          "indexed": false,
          "internalType": "uint256",
          "name": "amount",
          "type": "uint256"
        },
        {
          "indexed": false,
          "internalType": "bool",
          "name": "allowNonLSP1Recipient",
          "type": "bool"
        },
        {
          "indexed": false,
          "internalType": "bytes",
          "name": "data",
          "type": "bytes"
        }
      ],
      "name": "Transfer",
      "type": "event"
    },
    {
      "inputs": [
        {
          "internalType": "address",
          "name": "operator",
          "type": "address"
        },
        {
          "internalType": "uint256",
          "name": "amount",
          "type": "uint256"
        }
      ],
      "name": "authorizeOperator",
      "outputs": [],
      "stateMutability": "nonpayable",
      "type": "function"
    },
    {
      "inputs": [
        {
          "internalType": "address",
          "name": "operator",
          "type": "address"
        },
        {
          "internalType": "address",
          "name": "tokenOwner",
          "type": "address"
        }
      ],
      "name": "authorizedAmountFor",
      "outputs": [
        {
          "internalType": "uint256",
          "name": "",
          "type": "uint256"
        }
      ],
      "stateMutability": "view",
      "type": "function"
    },
    {
      "inputs": [
        {
          "internalType": "address",
          "name": "tokenOwner",
          "type": "address"
        }
      ],
      "name": "balanceOf",
      "outputs": [
        {
          "internalType": "uint256",
          "name": "",
          "type": "uint256"
        }
      ],
      "stateMutability": "view",
      "type": "function"
    },
    {
      "inputs": [],
      "name": "decimals",
      "outputs": [
        {
          "internalType": "uint8",
          "name": "",
          "type": "uint8"
        }
      ],
      "stateMutability": "view",
      "type": "function"
    },
    {
      "inputs": [
        {
          "internalType": "bytes32[]",
          "name": "dataKeys",
          "type": "bytes32[]"
        }
      ],
      "name": "getData",
      "outputs": [
        {
          "internalType": "bytes[]",
          "name": "dataValues",
          "type": "bytes[]"
        }
      ],
      "stateMutability": "view",
      "type": "function"
    },
    {
      "inputs": [
        {
          "internalType": "bytes32",
          "name": "dataKey",
          "type": "bytes32"
        }
      ],
      "name": "getData",
      "outputs": [
        {
          "internalType": "bytes",
          "name": "dataValue",
          "type": "bytes"
        }
      ],
      "stateMutability": "view",
      "type": "function"
    },
    {
      "inputs": [
        {
          "internalType": "address",
          "name": "to",
          "type": "address"
        },
        {
          "internalType": "uint256",
          "name": "amount",
          "type": "uint256"
        },
        {
          "internalType": "bool",
          "name": "allowNonLSP1Recipient",
          "type": "bool"
        },
        {
          "internalType": "bytes",
          "name": "data",
          "type": "bytes"
        }
      ],
      "name": "mint",
      "outputs": [],
      "stateMutability": "nonpayable",
      "type": "function"
    },
    {
      "inputs": [],
      "name": "owner",
      "outputs": [
        {
          "internalType": "address",
          "name": "",
          "type": "address"
        }
      ],
      "stateMutability": "view",
      "type": "function"
    },
    {
      "inputs": [],
      "name": "renounceOwnership",
      "outputs": [],
      "stateMutability": "nonpayable",
      "type": "function"
    },
    {
      "inputs": [
        {
          "internalType": "address",
          "name": "operator",
          "type": "address"
        }
      ],
      "name": "revokeOperator",
      "outputs": [],
      "stateMutability": "nonpayable",
      "type": "function"
    },
    {
      "inputs": [
        {
          "internalType": "bytes32[]",
          "name": "dataKeys",
          "type": "bytes32[]"
        },
        {
          "internalType": "bytes[]",
          "name": "dataValues",
          "type": "bytes[]"
        }
      ],
      "name": "setData",
      "outputs": [],
      "stateMutability": "nonpayable",
      "type": "function"
    },
    {
      "inputs": [
        {
          "internalType": "bytes32",
          "name": "dataKey",
          "type": "bytes32"
        },
        {
          "internalType": "bytes",
          "name": "dataValue",
          "type": "bytes"
        }
      ],
      "name": "setData",
      "outputs": [],
      "stateMutability": "nonpayable",
      "type": "function"
    },
    {
      "inputs": [
        {
          "internalType": "bytes4",
          "name": "interfaceId",
          "type": "bytes4"
        }
      ],
      "name": "supportsInterface",
      "outputs": [
        {
          "internalType": "bool",
          "name": "",
          "type": "bool"
        }
      ],
      "stateMutability": "view",
      "type": "function"
    },
    {
      "inputs": [],
      "name": "totalSupply",
      "outputs": [
        {
          "internalType": "uint256",
          "name": "",
          "type": "uint256"
        }
      ],
      "stateMutability": "view",
      "type": "function"
    },
    {
      "inputs": [
        {
          "internalType": "address",
          "name": "from",
          "type": "address"
        },
        {
          "internalType": "address",
          "name": "to",
          "type": "address"
        },
        {
          "internalType": "uint256",
          "name": "amount",
          "type": "uint256"
        },
        {
          "internalType": "bool",
          "name": "allowNonLSP1Recipient",
          "type": "bool"
        },
        {
          "internalType": "bytes",
          "name": "data",
          "type": "bytes"
        }
      ],
      "name": "transfer",
      "outputs": [],
      "stateMutability": "nonpayable",
      "type": "function"
    },
    {
      "inputs": [
        {
          "internalType": "address[]",
          "name": "from",
          "type": "address[]"
        },
        {
          "internalType": "address[]",
          "name": "to",
          "type": "address[]"
        },
        {
          "internalType": "uint256[]",
          "name": "amount",
          "type": "uint256[]"
        },
        {
          "internalType": "bool[]",
          "name": "allowNonLSP1Recipient",
          "type": "bool[]"
        },
        {
          "internalType": "bytes[]",
          "name": "data",
          "type": "bytes[]"
        }
      ],
      "name": "transferBatch",
      "outputs": [],
      "stateMutability": "nonpayable",
      "type": "function"
    },
    {
      "inputs": [
        {
          "internalType": "address",
          "name": "newOwner",
          "type": "address"
        }
      ],
      "name": "transferOwnership",
      "outputs": [],
      "stateMutability": "nonpayable",
      "type": "function"
    }
  ],
  "bytecode": "0x60806040523480156200001157600080fd5b50604051620021ac380380620021ac833981016040819052620000349162000344565b83838383838383806001600160a01b038116620000a65760405162461bcd60e51b815260206004820152602660248201527f4f776e61626c653a206e6577206f776e657220697320746865207a65726f206160448201526564647265737360d01b606482015260840160405180910390fd5b620000bc81620001aa60201b620007d51760201c565b50620001137feafec4d89fa9619884b60000a4d96624a38f7ac2d8d9a604ecf07c12c77e480c60001b604051806040016040528060048152602001632936598960e21b8152506200021160201b620008521760201c565b6200014d7fdeba1e292f8ba88238e10ab3c7f88bd4be4fac56cad5194b6ecceaf653468af160001b846200021160201b620008521760201c565b620001877f2f0a68ab07768e01943a599e73362a0e17a63a72e94dd2e384d2c1d4db93275660001b836200021160201b620008521760201c565b50506002805460ff19169215159290921790915550620005799650505050505050565b6000546001600160a01b038281169116146200020e57600080546001600160a01b038381166001600160a01b0319831681178455604051919092169283917f8be0079c531659141344cd1fd0a4f28419497f9722a3daafe3b4186f6b6457e09190a3505b50565b60008281526001602052604090206200022b828262000478565b50817fece574603820d07bc9b91f2a932baadf4628aabcb8afba49776529c14a6104b2826040516200025e919062000544565b60405180910390a25050565b634e487b7160e01b600052604160045260246000fd5b60005b838110156200029d57818101518382015260200162000283565b83811115620002ad576000848401525b50505050565b600082601f830112620002c557600080fd5b81516001600160401b0380821115620002e257620002e26200026a565b604051601f8301601f19908116603f011681019082821181831017156200030d576200030d6200026a565b816040528381528660208588010111156200032757600080fd5b6200033a84602083016020890162000280565b9695505050505050565b600080600080608085870312156200035b57600080fd5b84516001600160401b03808211156200037357600080fd5b6200038188838901620002b3565b955060208701519150808211156200039857600080fd5b50620003a787828801620002b3565b604087015190945090506001600160a01b0381168114620003c757600080fd5b60608601519092508015158114620003de57600080fd5b939692955090935050565b600181811c90821680620003fe57607f821691505b6020821081036200041f57634e487b7160e01b600052602260045260246000fd5b50919050565b601f8211156200047357600081815260208120601f850160051c810160208610156200044e5750805b601f850160051c820191505b818110156200046f578281556001016200045a565b5050505b505050565b81516001600160401b038111156200049457620004946200026a565b620004ac81620004a58454620003e9565b8462000425565b602080601f831160018114620004e45760008415620004cb5750858301515b600019600386901b1c1916600185901b1785556200046f565b600085815260208120601f198616915b828110156200051557888601518255948401946001909101908401620004f4565b5085821015620005345787850151600019600388901b60f8161c191681555b5050505050600190811b01905550565b60208152600082518060208401526200056581604085016020870162000280565b601f01601f19169190910160400192915050565b611c2380620005896000396000f3fe608060405234801561001057600080fd5b506004361061011b5760003560e01c806365aeaa95116100b2578063760d9bba116100815780638da5cb5b116100665780638da5cb5b1461026c578063f2fde38b14610287578063fad8b32a1461029a57600080fd5b8063760d9bba146102465780637f23690c1461025957600080fd5b806365aeaa95146101ef57806370a0823114610202578063715018a61461022b5780637580d9201461023357600080fd5b8063313ce567116100ee578063313ce5671461018257806347980aa31461019c5780634e3e6e9c146101af57806354f6127f146101cf57600080fd5b806301ffc9a71461012057806314a6e2931461014857806318160ddd1461015d5780632d7667c91461016f575b600080fd5b61013361012e366004611288565b6102ad565b60405190151581526020015b60405180910390f35b61015b610156366004611488565b6102f1565b005b6003545b60405190815260200161013f565b61015b61017d3660046115dc565b61039b565b61018a6104a3565b60405160ff909116815260200161013f565b61015b6101aa3660046116ae565b6104bc565b6101c26101bd3660046116d8565b6104cb565b60405161013f919061176d565b6101e26101dd3660046117cf565b61057f565b60405161013f91906117e8565b6101616101fd3660046117fb565b61058a565b61016161021036600461182e565b6001600160a01b031660009081526004602052604090205490565b61015b6105f1565b61015b610241366004611849565b610605565b61015b6102543660046118b1565b61061f565b61015b61026736600461191d565b610727565b6000546040516001600160a01b03909116815260200161013f565b61015b61029536600461182e565b610739565b61015b6102a836600461182e565b6107c9565b60006001600160e01b031982167fda1f85e40000000000000000000000000000000000000000000000000000000014806102eb57506102eb826108a7565b92915050565b6102f96108f5565b805182511461034657815181516040517f43a3c266000000000000000000000000000000000000000000000000000000008152600481019290925260248201526044015b60405180910390fd5b60005b82518110156103965761038e8382815181106103675761036761195a565b60200260200101518383815181106103815761038161195a565b602002602001015161095e565b600101610349565b505050565b84518451811415806103ae575083518114155b806103ba575082518114155b806103c6575081518114155b156103fd576040517f263eee8d00000000000000000000000000000000000000000000000000000000815260040160405180910390fd5b60005b8181101561049a5761049287828151811061041d5761041d61195a565b60200260200101518783815181106104375761043761195a565b60200260200101518784815181106104515761045161195a565b602002602001015187858151811061046b5761046b61195a565b60200260200101518786815181106104855761048561195a565b602002602001015161061f565b600101610400565b50505050505050565b60025460009060ff166104b65750601290565b50600090565b6104c7338383610a78565b5050565b6060815167ffffffffffffffff8111156104e7576104e76112b9565b60405190808252806020026020018201604052801561051a57816020015b60608152602001906001900390816105055790505b50905060005b82518110156105795761054b83828151811061053e5761053e61195a565b6020026020010151610b8f565b82828151811061055d5761055d61195a565b60200260200101819052506105728160010190565b9050610520565b50919050565b60606102eb82610b8f565b6000826001600160a01b0316826001600160a01b0316036105c457506001600160a01b0381166000908152600460205260409020546102eb565b506001600160a01b0380821660009081526005602090815260408083209386168352929052205492915050565b6105f96108f5565b61060360006107d5565b565b61060d6108f5565b61061984848484610c31565b50505050565b836001600160a01b0316856001600160a01b03160361066a576040517fb9afb00000000000000000000000000000000000000000000000000000000000815260040160405180910390fd5b336001600160a01b0386168114610712576001600160a01b03808716600090815260056020908152604080832093851683529290522054808511156106fc576040517ff3a6b6910000000000000000000000000000000000000000000000000000000081526001600160a01b03808916600483015260248201839052831660448201526064810186905260840161033d565b610710878361070b8885611986565b610a78565b505b61071f8686868686610d0e565b505050505050565b61072f6108f5565b6104c7828261095e565b6107416108f5565b6001600160a01b0381166107bd5760405162461bcd60e51b815260206004820152602660248201527f4f776e61626c653a206e6577206f776e657220697320746865207a65726f206160448201527f6464726573730000000000000000000000000000000000000000000000000000606482015260840161033d565b6107c6816107d5565b50565b6107c633826000610a78565b6000546001600160a01b038281169116146107c657600080546001600160a01b038381167fffffffffffffffffffffffff0000000000000000000000000000000000000000831681178455604051919092169283917f8be0079c531659141344cd1fd0a4f28419497f9722a3daafe3b4186f6b6457e09190a35050565b600082815260016020526040902061086a8282611a17565b50817fece574603820d07bc9b91f2a932baadf4628aabcb8afba49776529c14a6104b28260405161089b91906117e8565b60405180910390a25050565b60006001600160e01b031982167f714df77c0000000000000000000000000000000000000000000000000000000014806102eb57506301ffc9a760e01b6001600160e01b03198316146102eb565b336109086000546001600160a01b031690565b6001600160a01b0316146106035760405162461bcd60e51b815260206004820181905260248201527f4f776e61626c653a2063616c6c6572206973206e6f7420746865206f776e6572604482015260640161033d565b7f2145e1d6d074577dc71ef54c3807742b41b053a9352ae6b491331509acb9750f82016109b7576040517f85c169bd00000000000000000000000000000000000000000000000000000000815260040160405180910390fd5b7fd0f59754f88971fe6bc5a6618cc9d5f1e859c58d16b22d1c7b2d3e2b246cd8aa8201610a10576040517f76755b3800000000000000000000000000000000000000000000000000000000815260040160405180910390fd5b6000828152600160205260409020610a288282611a17565b50817fece574603820d07bc9b91f2a932baadf4628aabcb8afba49776529c14a6104b261010083511115610a6957610a64836000610100610e84565b610a6b565b825b60405161089b91906117e8565b6001600160a01b038216610ab8576040517f6355e76600000000000000000000000000000000000000000000000000000000815260040160405180910390fd5b826001600160a01b0316826001600160a01b031603610ad657505050565b6001600160a01b0380841660009081526005602090815260408083209386168352929052208190558015610b4a5780836001600160a01b0316836001600160a01b03167fd66aff874162a96578e919097b6f6d153dfd89a5cec41bb331fdb0c4aec16e2c60405160405180910390a4505050565b826001600160a01b0316826001600160a01b03167f50546e66e5f44d728365dc3908c63bc5cfeeab470722c1677e3073a6ac294aa160405160405180910390a3505050565b6000818152600160205260409020805460609190610bac9061199d565b80601f0160208091040260200160405190810160405280929190818152602001828054610bd89061199d565b8015610c255780601f10610bfa57610100808354040283529160200191610c25565b820191906000526020600020905b815481529060010190602001808311610c0857829003601f168201915b50505050509050919050565b6001600160a01b038416610c5857604051630d2d5ec360e41b815260040160405180910390fd5b338360036000828254610c6b9190611ad7565b90915550506001600160a01b03851660009081526004602052604081208054869290610c98908490611ad7565b92505081905550846001600160a01b031660006001600160a01b0316826001600160a01b03167f3997e418d2cef0b3b0e907b1e39605c3f7d32dbd061e82ea5b4a770d46a160a6878787604051610cf193929190611aef565b60405180910390a4610d07600086868686610fac565b5050505050565b6001600160a01b0385161580610d2b57506001600160a01b038416155b15610d4957604051630d2d5ec360e41b815260040160405180910390fd5b6001600160a01b03851660009081526004602052604090205480841115610db5576040517f08d47949000000000000000000000000000000000000000000000000000000008152600481018290526001600160a01b03871660248201526044810185905260640161033d565b336001600160a01b03871660009081526004602052604081208054879290610dde908490611986565b90915550506001600160a01b03861660009081526004602052604081208054879290610e0b908490611ad7565b92505081905550856001600160a01b0316876001600160a01b0316826001600160a01b03167f3997e418d2cef0b3b0e907b1e39605c3f7d32dbd061e82ea5b4a770d46a160a6888888604051610e6393929190611aef565b60405180910390a4610e7787878786611116565b61049a8787878787610fac565b606081610e9281601f611ad7565b1015610ee05760405162461bcd60e51b815260206004820152600e60248201527f736c6963655f6f766572666c6f77000000000000000000000000000000000000604482015260640161033d565b610eea8284611ad7565b84511015610f3a5760405162461bcd60e51b815260206004820152601160248201527f736c6963655f6f75744f66426f756e6473000000000000000000000000000000604482015260640161033d565b606082158015610f595760405191506000825260208201604052610fa3565b6040519150601f8416801560200281840101858101878315602002848b0101015b81831015610f92578051835260209283019201610f7a565b5050858452601f01601f1916604052505b50949350505050565b610fbd84631aed5a8560e21b6111ea565b1561108757600085858584604051602001610fdb9493929190611b19565b60408051601f1981840301815290829052631aed5a8560e21b825291506001600160a01b03861690636bb56a1490611039907f20804611b3e2ea21c480dc465142210acf4a2485947541770ec1fb87dee4a55c908590600401611b66565b6000604051808303816000875af1158015611058573d6000803e3d6000fd5b505050506040513d6000823e601f3d908101601f191682016040526110809190810190611b7f565b5050610d07565b81610d07576001600160a01b0384163b156110d9576040517fa608fbb60000000000000000000000000000000000000000000000000000000081526001600160a01b038516600482015260240161033d565b6040517f26c247f40000000000000000000000000000000000000000000000000000000081526001600160a01b038516600482015260240161033d565b61112784631aed5a8560e21b6111ea565b15610619576000848484846040516020016111459493929190611b19565b60408051601f1981840301815290829052631aed5a8560e21b825291506001600160a01b03861690636bb56a14906111a3907f429ac7a06903dbc9c13dfcb3c9d11df8194581fa047c96d7a4171fc7402958ea908590600401611b66565b6000604051808303816000875af11580156111c2573d6000803e3d6000fd5b505050506040513d6000823e601f3d908101601f1916820160405261071f9190810190611b7f565b604080516001600160e01b03198316602480830191909152825180830390910181526044909101909152602080820180517bffffffffffffffffffffffffffffffffffffffffffffffffffffffff166301ffc9a760e01b178152825160009392849283928392918391908a617530fa92503d91506000519050828015611271575060208210155b801561127d5750600081115b979650505050505050565b60006020828403121561129a57600080fd5b81356001600160e01b0319811681146112b257600080fd5b9392505050565b634e487b7160e01b600052604160045260246000fd5b604051601f8201601f1916810167ffffffffffffffff811182821017156112f8576112f86112b9565b604052919050565b600067ffffffffffffffff82111561131a5761131a6112b9565b5060051b60200190565b600082601f83011261133557600080fd5b8135602061134a61134583611300565b6112cf565b82815260059290921b8401810191818101908684111561136957600080fd5b8286015b84811015611384578035835291830191830161136d565b509695505050505050565b600067ffffffffffffffff8211156113a9576113a96112b9565b50601f01601f191660200190565b600082601f8301126113c857600080fd5b81356113d66113458261138f565b8181528460208386010111156113eb57600080fd5b816020850160208301376000918101602001919091529392505050565b600082601f83011261141957600080fd5b8135602061142961134583611300565b82815260059290921b8401810191818101908684111561144857600080fd5b8286015b8481101561138457803567ffffffffffffffff81111561146c5760008081fd5b61147a8986838b01016113b7565b84525091830191830161144c565b6000806040838503121561149b57600080fd5b823567ffffffffffffffff808211156114b357600080fd5b6114bf86838701611324565b935060208501359150808211156114d557600080fd5b506114e285828601611408565b9150509250929050565b80356001600160a01b038116811461150357600080fd5b919050565b600082601f83011261151957600080fd5b8135602061152961134583611300565b82815260059290921b8401810191818101908684111561154857600080fd5b8286015b848110156113845761155d816114ec565b835291830191830161154c565b8035801515811461150357600080fd5b600082601f83011261158b57600080fd5b8135602061159b61134583611300565b82815260059290921b840181019181810190868411156115ba57600080fd5b8286015b84811015611384576115cf8161156a565b83529183019183016115be565b600080600080600060a086880312156115f457600080fd5b853567ffffffffffffffff8082111561160c57600080fd5b61161889838a01611508565b9650602088013591508082111561162e57600080fd5b61163a89838a01611508565b9550604088013591508082111561165057600080fd5b61165c89838a01611324565b9450606088013591508082111561167257600080fd5b61167e89838a0161157a565b9350608088013591508082111561169457600080fd5b506116a188828901611408565b9150509295509295909350565b600080604083850312156116c157600080fd5b6116ca836114ec565b946020939093013593505050565b6000602082840312156116ea57600080fd5b813567ffffffffffffffff81111561170157600080fd5b61170d84828501611324565b949350505050565b60005b83811015611730578181015183820152602001611718565b838111156106195750506000910152565b60008151808452611759816020860160208601611715565b601f01601f19169290920160200192915050565b6000602080830181845280855180835260408601915060408160051b870101925083870160005b828110156117c257603f198886030184526117b0858351611741565b94509285019290850190600101611794565b5092979650505050505050565b6000602082840312156117e157600080fd5b5035919050565b6020815260006112b26020830184611741565b6000806040838503121561180e57600080fd5b611817836114ec565b9150611825602084016114ec565b90509250929050565b60006020828403121561184057600080fd5b6112b2826114ec565b6000806000806080858703121561185f57600080fd5b611868856114ec565b93506020850135925061187d6040860161156a565b9150606085013567ffffffffffffffff81111561189957600080fd5b6118a5878288016113b7565b91505092959194509250565b600080600080600060a086880312156118c957600080fd5b6118d2866114ec565b94506118e0602087016114ec565b9350604086013592506118f56060870161156a565b9150608086013567ffffffffffffffff81111561191157600080fd5b6116a1888289016113b7565b6000806040838503121561193057600080fd5b82359150602083013567ffffffffffffffff81111561194e57600080fd5b6114e2858286016113b7565b634e487b7160e01b600052603260045260246000fd5b634e487b7160e01b600052601160045260246000fd5b60008282101561199857611998611970565b500390565b600181811c908216806119b157607f821691505b60208210810361057957634e487b7160e01b600052602260045260246000fd5b601f82111561039657600081815260208120601f850160051c810160208610156119f85750805b601f850160051c820191505b8181101561071f57828155600101611a04565b815167ffffffffffffffff811115611a3157611a316112b9565b611a4581611a3f845461199d565b846119d1565b602080601f831160018114611a7a5760008415611a625750858301515b600019600386901b1c1916600185901b17855561071f565b600085815260208120601f198616915b82811015611aa957888601518255948401946001909101908401611a8a565b5085821015611ac75787850151600019600388901b60f8161c191681555b5050505050600190811b01905550565b60008219821115611aea57611aea611970565b500190565b8381528215156020820152606060408201526000611b106060830184611741565b95945050505050565b60006bffffffffffffffffffffffff19808760601b168352808660601b166014840152508360288301528251611b56816048850160208701611715565b9190910160480195945050505050565b82815260406020820152600061170d6040830184611741565b600060208284031215611b9157600080fd5b815167ffffffffffffffff811115611ba857600080fd5b8201601f81018413611bb957600080fd5b8051611bc76113458261138f565b818152856020838501011115611bdc57600080fd5b611b1082602083016020860161171556fea26469706673582212209cbe52e1a6cc901bf4339ae349c8e67be2d7e55ba3703d49765e68f35da40d0064736f6c634300080f0033",
  "linkReferences": {},
  "deployedLinkReferences": {}
}