{
  "_format": "hh-sol-artifact-1",
  "contractName": "LSP7CompatibleERC20Mintable",
  "sourceName": "contracts/LSP7DigitalAsset/presets/LSP7CompatibleERC20Mintable.sol",
  "abi": [
    {
      "inputs": [
        {
          "internalType": "string",
          "name": "name_",
          "type": "string"
        },
        {
          "internalType": "string",
          "name": "symbol_",
          "type": "string"
        },
        {
          "internalType": "address",
          "name": "newOwner_",
          "type": "address"
        }
      ],
      "stateMutability": "nonpayable",
      "type": "constructor"
    },
    {
      "inputs": [
        {
          "internalType": "uint256",
          "name": "dataKeysLength",
          "type": "uint256"
        },
        {
          "internalType": "uint256",
          "name": "dataValuesLength",
          "type": "uint256"
        }
      ],
      "name": "ERC725Y_DataKeysValuesLengthMismatch",
      "type": "error"
    },
    {
      "inputs": [],
      "name": "LSP4TokenNameNotEditable",
      "type": "error"
    },
    {
      "inputs": [],
      "name": "LSP4TokenSymbolNotEditable",
      "type": "error"
    },
    {
      "inputs": [
        {
          "internalType": "address",
          "name": "tokenOwner",
          "type": "address"
        },
        {
          "internalType": "uint256",
          "name": "authorizedAmount",
          "type": "uint256"
        },
        {
          "internalType": "address",
          "name": "operator",
          "type": "address"
        },
        {
          "internalType": "uint256",
          "name": "amount",
          "type": "uint256"
        }
      ],
      "name": "LSP7AmountExceedsAuthorizedAmount",
      "type": "error"
    },
    {
      "inputs": [
        {
          "internalType": "uint256",
          "name": "balance",
          "type": "uint256"
        },
        {
          "internalType": "address",
          "name": "tokenOwner",
          "type": "address"
        },
        {
          "internalType": "uint256",
          "name": "amount",
          "type": "uint256"
        }
      ],
      "name": "LSP7AmountExceedsBalance",
      "type": "error"
    },
    {
      "inputs": [],
      "name": "LSP7CannotSendToSelf",
      "type": "error"
    },
    {
      "inputs": [],
      "name": "LSP7CannotSendWithAddressZero",
      "type": "error"
    },
    {
      "inputs": [],
      "name": "LSP7CannotUseAddressZeroAsOperator",
      "type": "error"
    },
    {
      "inputs": [],
      "name": "LSP7InvalidTransferBatch",
      "type": "error"
    },
    {
      "inputs": [
        {
          "internalType": "address",
          "name": "tokenReceiver",
          "type": "address"
        }
      ],
      "name": "LSP7NotifyTokenReceiverContractMissingLSP1Interface",
      "type": "error"
    },
    {
      "inputs": [
        {
          "internalType": "address",
          "name": "tokenReceiver",
          "type": "address"
        }
      ],
      "name": "LSP7NotifyTokenReceiverIsEOA",
      "type": "error"
    },
    {
      "anonymous": false,
      "inputs": [
        {
          "indexed": true,
          "internalType": "address",
          "name": "owner",
          "type": "address"
        },
        {
          "indexed": true,
          "internalType": "address",
          "name": "spender",
          "type": "address"
        },
        {
          "indexed": false,
          "internalType": "uint256",
          "name": "value",
          "type": "uint256"
        }
      ],
      "name": "Approval",
      "type": "event"
    },
    {
      "anonymous": false,
      "inputs": [
        {
          "indexed": true,
          "internalType": "address",
          "name": "operator",
          "type": "address"
        },
        {
          "indexed": true,
          "internalType": "address",
          "name": "tokenOwner",
          "type": "address"
        },
        {
          "indexed": true,
          "internalType": "uint256",
          "name": "amount",
          "type": "uint256"
        }
      ],
      "name": "AuthorizedOperator",
      "type": "event"
    },
    {
      "anonymous": false,
      "inputs": [
        {
          "indexed": true,
          "internalType": "bytes32",
          "name": "dataKey",
          "type": "bytes32"
        },
        {
          "indexed": false,
          "internalType": "bytes",
          "name": "dataValue",
          "type": "bytes"
        }
      ],
      "name": "DataChanged",
      "type": "event"
    },
    {
      "anonymous": false,
      "inputs": [
        {
          "indexed": true,
          "internalType": "address",
          "name": "previousOwner",
          "type": "address"
        },
        {
          "indexed": true,
          "internalType": "address",
          "name": "newOwner",
          "type": "address"
        }
      ],
      "name": "OwnershipTransferred",
      "type": "event"
    },
    {
      "anonymous": false,
      "inputs": [
        {
          "indexed": true,
          "internalType": "address",
          "name": "operator",
          "type": "address"
        },
        {
          "indexed": true,
          "internalType": "address",
          "name": "tokenOwner",
          "type": "address"
        }
      ],
      "name": "RevokedOperator",
      "type": "event"
    },
    {
      "anonymous": false,
      "inputs": [
        {
          "indexed": true,
          "internalType": "address",
          "name": "from",
          "type": "address"
        },
        {
          "indexed": true,
          "internalType": "address",
          "name": "to",
          "type": "address"
        },
        {
          "indexed": false,
          "internalType": "uint256",
          "name": "value",
          "type": "uint256"
        }
      ],
      "name": "Transfer",
      "type": "event"
    },
    {
      "anonymous": false,
      "inputs": [
        {
          "indexed": true,
          "internalType": "address",
          "name": "operator",
          "type": "address"
        },
        {
          "indexed": true,
          "internalType": "address",
          "name": "from",
          "type": "address"
        },
        {
          "indexed": true,
          "internalType": "address",
          "name": "to",
          "type": "address"
        },
        {
          "indexed": false,
          "internalType": "uint256",
          "name": "amount",
          "type": "uint256"
        },
        {
          "indexed": false,
          "internalType": "bool",
          "name": "allowNonLSP1Recipient",
          "type": "bool"
        },
        {
          "indexed": false,
          "internalType": "bytes",
          "name": "data",
          "type": "bytes"
        }
      ],
      "name": "Transfer",
      "type": "event"
    },
    {
      "inputs": [
        {
          "internalType": "address",
          "name": "tokenOwner",
          "type": "address"
        },
        {
          "internalType": "address",
          "name": "operator",
          "type": "address"
        }
      ],
      "name": "allowance",
      "outputs": [
        {
          "internalType": "uint256",
          "name": "",
          "type": "uint256"
        }
      ],
      "stateMutability": "view",
      "type": "function"
    },
    {
      "inputs": [
        {
          "internalType": "address",
          "name": "operator",
          "type": "address"
        },
        {
          "internalType": "uint256",
          "name": "amount",
          "type": "uint256"
        }
      ],
      "name": "approve",
      "outputs": [
        {
          "internalType": "bool",
          "name": "",
          "type": "bool"
        }
      ],
      "stateMutability": "nonpayable",
      "type": "function"
    },
    {
      "inputs": [
        {
          "internalType": "address",
          "name": "operator",
          "type": "address"
        },
        {
          "internalType": "uint256",
          "name": "amount",
          "type": "uint256"
        }
      ],
      "name": "authorizeOperator",
      "outputs": [],
      "stateMutability": "nonpayable",
      "type": "function"
    },
    {
      "inputs": [
        {
          "internalType": "address",
          "name": "operator",
          "type": "address"
        },
        {
          "internalType": "address",
          "name": "tokenOwner",
          "type": "address"
        }
      ],
      "name": "authorizedAmountFor",
      "outputs": [
        {
          "internalType": "uint256",
          "name": "",
          "type": "uint256"
        }
      ],
      "stateMutability": "view",
      "type": "function"
    },
    {
      "inputs": [
        {
          "internalType": "address",
          "name": "tokenOwner",
          "type": "address"
        }
      ],
      "name": "balanceOf",
      "outputs": [
        {
          "internalType": "uint256",
          "name": "",
          "type": "uint256"
        }
      ],
      "stateMutability": "view",
      "type": "function"
    },
    {
      "inputs": [],
      "name": "decimals",
      "outputs": [
        {
          "internalType": "uint8",
          "name": "",
          "type": "uint8"
        }
      ],
      "stateMutability": "view",
      "type": "function"
    },
    {
      "inputs": [
        {
          "internalType": "bytes32[]",
          "name": "dataKeys",
          "type": "bytes32[]"
        }
      ],
      "name": "getData",
      "outputs": [
        {
          "internalType": "bytes[]",
          "name": "dataValues",
          "type": "bytes[]"
        }
      ],
      "stateMutability": "view",
      "type": "function"
    },
    {
      "inputs": [
        {
          "internalType": "bytes32",
          "name": "dataKey",
          "type": "bytes32"
        }
      ],
      "name": "getData",
      "outputs": [
        {
          "internalType": "bytes",
          "name": "dataValue",
          "type": "bytes"
        }
      ],
      "stateMutability": "view",
      "type": "function"
    },
    {
      "inputs": [
        {
          "internalType": "address",
          "name": "to",
          "type": "address"
        },
        {
          "internalType": "uint256",
          "name": "amount",
          "type": "uint256"
        },
        {
          "internalType": "bool",
          "name": "allowNonLSP1Recipient",
          "type": "bool"
        },
        {
          "internalType": "bytes",
          "name": "data",
          "type": "bytes"
        }
      ],
      "name": "mint",
      "outputs": [],
      "stateMutability": "nonpayable",
      "type": "function"
    },
    {
      "inputs": [],
      "name": "name",
      "outputs": [
        {
          "internalType": "string",
          "name": "",
          "type": "string"
        }
      ],
      "stateMutability": "view",
      "type": "function"
    },
    {
      "inputs": [],
      "name": "owner",
      "outputs": [
        {
          "internalType": "address",
          "name": "",
          "type": "address"
        }
      ],
      "stateMutability": "view",
      "type": "function"
    },
    {
      "inputs": [],
      "name": "renounceOwnership",
      "outputs": [],
      "stateMutability": "nonpayable",
      "type": "function"
    },
    {
      "inputs": [
        {
          "internalType": "address",
          "name": "operator",
          "type": "address"
        }
      ],
      "name": "revokeOperator",
      "outputs": [],
      "stateMutability": "nonpayable",
      "type": "function"
    },
    {
      "inputs": [
        {
          "internalType": "bytes32[]",
          "name": "dataKeys",
          "type": "bytes32[]"
        },
        {
          "internalType": "bytes[]",
          "name": "dataValues",
          "type": "bytes[]"
        }
      ],
      "name": "setData",
      "outputs": [],
      "stateMutability": "nonpayable",
      "type": "function"
    },
    {
      "inputs": [
        {
          "internalType": "bytes32",
          "name": "dataKey",
          "type": "bytes32"
        },
        {
          "internalType": "bytes",
          "name": "dataValue",
          "type": "bytes"
        }
      ],
      "name": "setData",
      "outputs": [],
      "stateMutability": "nonpayable",
      "type": "function"
    },
    {
      "inputs": [
        {
          "internalType": "bytes4",
          "name": "interfaceId",
          "type": "bytes4"
        }
      ],
      "name": "supportsInterface",
      "outputs": [
        {
          "internalType": "bool",
          "name": "",
          "type": "bool"
        }
      ],
      "stateMutability": "view",
      "type": "function"
    },
    {
      "inputs": [],
      "name": "symbol",
      "outputs": [
        {
          "internalType": "string",
          "name": "",
          "type": "string"
        }
      ],
      "stateMutability": "view",
      "type": "function"
    },
    {
      "inputs": [],
      "name": "totalSupply",
      "outputs": [
        {
          "internalType": "uint256",
          "name": "",
          "type": "uint256"
        }
      ],
      "stateMutability": "view",
      "type": "function"
    },
    {
      "inputs": [
        {
          "internalType": "address",
          "name": "from",
          "type": "address"
        },
        {
          "internalType": "address",
          "name": "to",
          "type": "address"
        },
        {
          "internalType": "uint256",
          "name": "amount",
          "type": "uint256"
        },
        {
          "internalType": "bool",
          "name": "allowNonLSP1Recipient",
          "type": "bool"
        },
        {
          "internalType": "bytes",
          "name": "data",
          "type": "bytes"
        }
      ],
      "name": "transfer",
      "outputs": [],
      "stateMutability": "nonpayable",
      "type": "function"
    },
    {
      "inputs": [
        {
          "internalType": "address",
          "name": "to",
          "type": "address"
        },
        {
          "internalType": "uint256",
          "name": "amount",
          "type": "uint256"
        }
      ],
      "name": "transfer",
      "outputs": [
        {
          "internalType": "bool",
          "name": "",
          "type": "bool"
        }
      ],
      "stateMutability": "nonpayable",
      "type": "function"
    },
    {
      "inputs": [
        {
          "internalType": "address[]",
          "name": "from",
          "type": "address[]"
        },
        {
          "internalType": "address[]",
          "name": "to",
          "type": "address[]"
        },
        {
          "internalType": "uint256[]",
          "name": "amount",
          "type": "uint256[]"
        },
        {
          "internalType": "bool[]",
          "name": "allowNonLSP1Recipient",
          "type": "bool[]"
        },
        {
          "internalType": "bytes[]",
          "name": "data",
          "type": "bytes[]"
        }
      ],
      "name": "transferBatch",
      "outputs": [],
      "stateMutability": "nonpayable",
      "type": "function"
    },
    {
      "inputs": [
        {
          "internalType": "address",
          "name": "from",
          "type": "address"
        },
        {
          "internalType": "address",
          "name": "to",
          "type": "address"
        },
        {
          "internalType": "uint256",
          "name": "amount",
          "type": "uint256"
        }
      ],
      "name": "transferFrom",
      "outputs": [
        {
          "internalType": "bool",
          "name": "",
          "type": "bool"
        }
      ],
      "stateMutability": "nonpayable",
      "type": "function"
    },
    {
      "inputs": [
        {
          "internalType": "address",
          "name": "newOwner",
          "type": "address"
        }
      ],
      "name": "transferOwnership",
      "outputs": [],
      "stateMutability": "nonpayable",
      "type": "function"
    }
  ],
  "bytecode": "0x60806040523480156200001157600080fd5b506040516200248c3803806200248c83398101604081905262000034916200034a565b8282828282826000838383806001600160a01b038116620000aa5760405162461bcd60e51b815260206004820152602660248201527f4f776e61626c653a206e6577206f776e657220697320746865207a65726f206160448201526564647265737360d01b606482015260840160405180910390fd5b620000c081620001b060201b620009391760201c565b50620001177feafec4d89fa9619884b60000a4d96624a38f7ac2d8d9a604ecf07c12c77e480c60001b604051806040016040528060048152602001632936598960e21b8152506200021760201b620009b61760201c565b620001517fdeba1e292f8ba88238e10ab3c7f88bd4be4fac56cad5194b6ecceaf653468af160001b846200021760201b620009b61760201c565b6200018b7f2f0a68ab07768e01943a599e73362a0e17a63a72e94dd2e384d2c1d4db93275660001b836200021760201b620009b61760201c565b50506002805460ff191692151592909217909155506200056798505050505050505050565b6000546001600160a01b038281169116146200021457600080546001600160a01b038381166001600160a01b0319831681178455604051919092169283917f8be0079c531659141344cd1fd0a4f28419497f9722a3daafe3b4186f6b6457e09190a3505b50565b600082815260016020526040902062000231828262000466565b50817fece574603820d07bc9b91f2a932baadf4628aabcb8afba49776529c14a6104b28260405162000264919062000532565b60405180910390a25050565b634e487b7160e01b600052604160045260246000fd5b60005b83811015620002a357818101518382015260200162000289565b83811115620002b3576000848401525b50505050565b600082601f830112620002cb57600080fd5b81516001600160401b0380821115620002e857620002e862000270565b604051601f8301601f19908116603f0116810190828211818310171562000313576200031362000270565b816040528381528660208588010111156200032d57600080fd5b6200034084602083016020890162000286565b9695505050505050565b6000806000606084860312156200036057600080fd5b83516001600160401b03808211156200037857600080fd5b6200038687838801620002b9565b945060208601519150808211156200039d57600080fd5b50620003ac86828701620002b9565b604086015190935090506001600160a01b0381168114620003cc57600080fd5b809150509250925092565b600181811c90821680620003ec57607f821691505b6020821081036200040d57634e487b7160e01b600052602260045260246000fd5b50919050565b601f8211156200046157600081815260208120601f850160051c810160208610156200043c5750805b601f850160051c820191505b818110156200045d5782815560010162000448565b5050505b505050565b81516001600160401b0381111562000482576200048262000270565b6200049a81620004938454620003d7565b8462000413565b602080601f831160018114620004d25760008415620004b95750858301515b600019600386901b1c1916600185901b1785556200045d565b600085815260208120601f198616915b828110156200050357888601518255948401946001909101908401620004e2565b5085821015620005225787850151600019600388901b60f8161c191681555b5050505050600190811b01905550565b60208152600082518060208401526200055381604085016020870162000286565b601f01601f19169190910160400192915050565b611f1580620005776000396000f3fe608060405234801561001057600080fd5b506004361061018d5760003560e01c806365aeaa95116100e35780638da5cb5b1161008c578063dd62ed3e11610066578063dd62ed3e14610342578063f2fde38b14610355578063fad8b32a1461036857600080fd5b80638da5cb5b1461030c57806395d89b4114610327578063a9059cbb1461032f57600080fd5b80637580d920116100bd5780637580d920146102d3578063760d9bba146102e65780637f23690c146102f957600080fd5b806365aeaa951461028f57806370a08231146102a2578063715018a6146102cb57600080fd5b806323b872dd1161014557806347980aa31161011f57806347980aa3146102495780634e3e6e9c1461025c57806354f6127f1461027c57600080fd5b806323b872dd146102095780632d7667c91461021c578063313ce5671461022f57600080fd5b8063095ea7b311610176578063095ea7b3146101cf57806314a6e293146101e257806318160ddd146101f757600080fd5b806301ffc9a71461019257806306fdde03146101ba575b600080fd5b6101a56101a0366004611545565b61037b565b60405190151581526020015b60405180910390f35b6101c261038c565b6040516101b191906115c7565b6101a56101dd3660046115f6565b6103b9565b6101f56101f03660046117ef565b6103ce565b005b6003545b6040519081526020016101b1565b6101a5610217366004611853565b610478565b6101f561022a366004611963565b6104a1565b6102376105a9565b60405160ff90911681526020016101b1565b6101f56102573660046115f6565b6105c2565b61026f61026a366004611a35565b6105d1565b6040516101b19190611a72565b6101c261028a366004611ad4565b610685565b6101fb61029d366004611aed565b610690565b6101fb6102b0366004611b20565b6001600160a01b031660009081526004602052604090205490565b6101f56106f6565b6101f56102e1366004611b3b565b61070a565b6101f56102f4366004611ba3565b610724565b6101f5610307366004611c0f565b61082c565b6000546040516001600160a01b0390911681526020016101b1565b6101c261083e565b6101a561033d3660046115f6565b61086b565b6101fb610350366004611aed565b61088a565b6101f5610363366004611b20565b61089d565b6101f5610376366004611b20565b61092d565b600061038682610a0b565b92915050565b606060006103867fdeba1e292f8ba88238e10ab3c7f88bd4be4fac56cad5194b6ecceaf653468af1610a49565b60006103c583836105c2565b50600192915050565b6103d6610aeb565b805182511461042357815181516040517f43a3c266000000000000000000000000000000000000000000000000000000008152600481019290925260248201526044015b60405180910390fd5b60005b82518110156104735761046b83828151811061044457610444611c4c565b602002602001015183838151811061045e5761045e611c4c565b6020026020010151610b54565b600101610426565b505050565b6000610497848484600160405180602001604052806000815250610724565b5060019392505050565b84518451811415806104b4575083518114155b806104c0575082518114155b806104cc575081518114155b15610503576040517f263eee8d00000000000000000000000000000000000000000000000000000000815260040160405180910390fd5b60005b818110156105a05761059887828151811061052357610523611c4c565b602002602001015187838151811061053d5761053d611c4c565b602002602001015187848151811061055757610557611c4c565b602002602001015187858151811061057157610571611c4c565b602002602001015187868151811061058b5761058b611c4c565b6020026020010151610724565b600101610506565b50505050505050565b60025460009060ff166105bc5750601290565b50600090565b6105cd338383610b5e565b5050565b6060815167ffffffffffffffff8111156105ed576105ed611620565b60405190808252806020026020018201604052801561062057816020015b606081526020019060019003908161060b5790505b50905060005b825181101561067f5761065183828151811061064457610644611c4c565b6020026020010151610a49565b82828151811061066357610663611c4c565b60200260200101819052506106788160010190565b9050610626565b50919050565b606061038682610a49565b6000826001600160a01b0316826001600160a01b0316036106ca57506001600160a01b038116600090815260046020526040902054610386565b506001600160a01b03808216600090815260056020908152604080832093861683529290522054610386565b6106fe610aeb565b6107086000610939565b565b610712610aeb565b61071e84848484610bbb565b50505050565b836001600160a01b0316856001600160a01b03160361076f576040517fb9afb00000000000000000000000000000000000000000000000000000000000815260040160405180910390fd5b336001600160a01b0386168114610817576001600160a01b0380871660009081526005602090815260408083209385168352929052205480851115610801576040517ff3a6b6910000000000000000000000000000000000000000000000000000000081526001600160a01b03808916600483015260248201839052831660448201526064810186905260840161041a565b61081587836108108885611c78565b610b5e565b505b6108248686868686610c0e565b505050505050565b610834610aeb565b6105cd8282610b54565b606060006103867f2f0a68ab07768e01943a599e73362a0e17a63a72e94dd2e384d2c1d4db932756610a49565b60006103c5338484600160405180602001604052806000815250610724565b60006108968284610690565b9392505050565b6108a5610aeb565b6001600160a01b0381166109215760405162461bcd60e51b815260206004820152602660248201527f4f776e61626c653a206e6577206f776e657220697320746865207a65726f206160448201527f6464726573730000000000000000000000000000000000000000000000000000606482015260840161041a565b61092a81610939565b50565b61092a33826000610b5e565b6000546001600160a01b0382811691161461092a57600080546001600160a01b038381167fffffffffffffffffffffffff0000000000000000000000000000000000000000831681178455604051919092169283917f8be0079c531659141344cd1fd0a4f28419497f9722a3daafe3b4186f6b6457e09190a35050565b60008281526001602052604090206109ce8282611d09565b50817fece574603820d07bc9b91f2a932baadf4628aabcb8afba49776529c14a6104b2826040516109ff91906115c7565b60405180910390a25050565b60006001600160e01b031982167fda1f85e4000000000000000000000000000000000000000000000000000000001480610386575061038682610c6f565b6000818152600160205260409020805460609190610a6690611c8f565b80601f0160208091040260200160405190810160405280929190818152602001828054610a9290611c8f565b8015610adf5780601f10610ab457610100808354040283529160200191610adf565b820191906000526020600020905b815481529060010190602001808311610ac257829003601f168201915b50505050509050919050565b33610afe6000546001600160a01b031690565b6001600160a01b0316146107085760405162461bcd60e51b815260206004820181905260248201527f4f776e61626c653a2063616c6c6572206973206e6f7420746865206f776e6572604482015260640161041a565b6105cd8282610cbd565b610b69838383610dd7565b816001600160a01b0316836001600160a01b03167f8c5be1e5ebec7d5bd14f71427d1e84f3dd0314c0f7b2291e5b200ac8c7c3b92583604051610bae91815260200190565b60405180910390a3505050565b610bc784848484610eee565b6040518381526001600160a01b038516906000907fddf252ad1be2c89b69c2b068fc378daa952ba7f163c4a11628f55a4df523b3ef9060200160405180910390a350505050565b610c1b8585858585610fcb565b836001600160a01b0316856001600160a01b03167fddf252ad1be2c89b69c2b068fc378daa952ba7f163c4a11628f55a4df523b3ef85604051610c6091815260200190565b60405180910390a35050505050565b60006001600160e01b031982167f714df77c00000000000000000000000000000000000000000000000000000000148061038657506301ffc9a760e01b6001600160e01b0319831614610386565b7f2145e1d6d074577dc71ef54c3807742b41b053a9352ae6b491331509acb9750f8201610d16576040517f85c169bd00000000000000000000000000000000000000000000000000000000815260040160405180910390fd5b7fd0f59754f88971fe6bc5a6618cc9d5f1e859c58d16b22d1c7b2d3e2b246cd8aa8201610d6f576040517f76755b3800000000000000000000000000000000000000000000000000000000815260040160405180910390fd5b6000828152600160205260409020610d878282611d09565b50817fece574603820d07bc9b91f2a932baadf4628aabcb8afba49776529c14a6104b261010083511115610dc857610dc3836000610100611141565b610dca565b825b6040516109ff91906115c7565b6001600160a01b038216610e17576040517f6355e76600000000000000000000000000000000000000000000000000000000815260040160405180910390fd5b826001600160a01b0316826001600160a01b031603610e3557505050565b6001600160a01b0380841660009081526005602090815260408083209386168352929052208190558015610ea95780836001600160a01b0316836001600160a01b03167fd66aff874162a96578e919097b6f6d153dfd89a5cec41bb331fdb0c4aec16e2c60405160405180910390a4505050565b826001600160a01b0316826001600160a01b03167f50546e66e5f44d728365dc3908c63bc5cfeeab470722c1677e3073a6ac294aa160405160405180910390a3505050565b6001600160a01b038416610f1557604051630d2d5ec360e41b815260040160405180910390fd5b338360036000828254610f289190611dc9565b90915550506001600160a01b03851660009081526004602052604081208054869290610f55908490611dc9565b92505081905550846001600160a01b031660006001600160a01b0316826001600160a01b03167f3997e418d2cef0b3b0e907b1e39605c3f7d32dbd061e82ea5b4a770d46a160a6878787604051610fae93929190611de1565b60405180910390a4610fc4600086868686611269565b5050505050565b6001600160a01b0385161580610fe857506001600160a01b038416155b1561100657604051630d2d5ec360e41b815260040160405180910390fd5b6001600160a01b03851660009081526004602052604090205480841115611072576040517f08d47949000000000000000000000000000000000000000000000000000000008152600481018290526001600160a01b03871660248201526044810185905260640161041a565b336001600160a01b0387166000908152600460205260408120805487929061109b908490611c78565b90915550506001600160a01b038616600090815260046020526040812080548792906110c8908490611dc9565b92505081905550856001600160a01b0316876001600160a01b0316826001600160a01b03167f3997e418d2cef0b3b0e907b1e39605c3f7d32dbd061e82ea5b4a770d46a160a688888860405161112093929190611de1565b60405180910390a4611134878787866113d3565b6105a08787878787611269565b60608161114f81601f611dc9565b101561119d5760405162461bcd60e51b815260206004820152600e60248201527f736c6963655f6f766572666c6f77000000000000000000000000000000000000604482015260640161041a565b6111a78284611dc9565b845110156111f75760405162461bcd60e51b815260206004820152601160248201527f736c6963655f6f75744f66426f756e6473000000000000000000000000000000604482015260640161041a565b6060821580156112165760405191506000825260208201604052611260565b6040519150601f8416801560200281840101858101878315602002848b0101015b8183101561124f578051835260209283019201611237565b5050858452601f01601f1916604052505b50949350505050565b61127a84631aed5a8560e21b6114a7565b15611344576000858585846040516020016112989493929190611e0b565b60408051601f1981840301815290829052631aed5a8560e21b825291506001600160a01b03861690636bb56a14906112f6907f20804611b3e2ea21c480dc465142210acf4a2485947541770ec1fb87dee4a55c908590600401611e58565b6000604051808303816000875af1158015611315573d6000803e3d6000fd5b505050506040513d6000823e601f3d908101601f1916820160405261133d9190810190611e71565b5050610fc4565b81610fc4576001600160a01b0384163b15611396576040517fa608fbb60000000000000000000000000000000000000000000000000000000081526001600160a01b038516600482015260240161041a565b6040517f26c247f40000000000000000000000000000000000000000000000000000000081526001600160a01b038516600482015260240161041a565b6113e484631aed5a8560e21b6114a7565b1561071e576000848484846040516020016114029493929190611e0b565b60408051601f1981840301815290829052631aed5a8560e21b825291506001600160a01b03861690636bb56a1490611460907f429ac7a06903dbc9c13dfcb3c9d11df8194581fa047c96d7a4171fc7402958ea908590600401611e58565b6000604051808303816000875af115801561147f573d6000803e3d6000fd5b505050506040513d6000823e601f3d908101601f191682016040526108249190810190611e71565b604080516001600160e01b03198316602480830191909152825180830390910181526044909101909152602080820180517bffffffffffffffffffffffffffffffffffffffffffffffffffffffff166301ffc9a760e01b178152825160009392849283928392918391908a617530fa92503d9150600051905082801561152e575060208210155b801561153a5750600081115b979650505050505050565b60006020828403121561155757600080fd5b81356001600160e01b03198116811461089657600080fd5b60005b8381101561158a578181015183820152602001611572565b8381111561071e5750506000910152565b600081518084526115b381602086016020860161156f565b601f01601f19169290920160200192915050565b602081526000610896602083018461159b565b80356001600160a01b03811681146115f157600080fd5b919050565b6000806040838503121561160957600080fd5b611612836115da565b946020939093013593505050565b634e487b7160e01b600052604160045260246000fd5b604051601f8201601f1916810167ffffffffffffffff8111828210171561165f5761165f611620565b604052919050565b600067ffffffffffffffff82111561168157611681611620565b5060051b60200190565b600082601f83011261169c57600080fd5b813560206116b16116ac83611667565b611636565b82815260059290921b840181019181810190868411156116d057600080fd5b8286015b848110156116eb57803583529183019183016116d4565b509695505050505050565b600067ffffffffffffffff82111561171057611710611620565b50601f01601f191660200190565b600082601f83011261172f57600080fd5b813561173d6116ac826116f6565b81815284602083860101111561175257600080fd5b816020850160208301376000918101602001919091529392505050565b600082601f83011261178057600080fd5b813560206117906116ac83611667565b82815260059290921b840181019181810190868411156117af57600080fd5b8286015b848110156116eb57803567ffffffffffffffff8111156117d35760008081fd5b6117e18986838b010161171e565b8452509183019183016117b3565b6000806040838503121561180257600080fd5b823567ffffffffffffffff8082111561181a57600080fd5b6118268683870161168b565b9350602085013591508082111561183c57600080fd5b506118498582860161176f565b9150509250929050565b60008060006060848603121561186857600080fd5b611871846115da565b925061187f602085016115da565b9150604084013590509250925092565b600082601f8301126118a057600080fd5b813560206118b06116ac83611667565b82815260059290921b840181019181810190868411156118cf57600080fd5b8286015b848110156116eb576118e4816115da565b83529183019183016118d3565b803580151581146115f157600080fd5b600082601f83011261191257600080fd5b813560206119226116ac83611667565b82815260059290921b8401810191818101908684111561194157600080fd5b8286015b848110156116eb57611956816118f1565b8352918301918301611945565b600080600080600060a0868803121561197b57600080fd5b853567ffffffffffffffff8082111561199357600080fd5b61199f89838a0161188f565b965060208801359150808211156119b557600080fd5b6119c189838a0161188f565b955060408801359150808211156119d757600080fd5b6119e389838a0161168b565b945060608801359150808211156119f957600080fd5b611a0589838a01611901565b93506080880135915080821115611a1b57600080fd5b50611a288882890161176f565b9150509295509295909350565b600060208284031215611a4757600080fd5b813567ffffffffffffffff811115611a5e57600080fd5b611a6a8482850161168b565b949350505050565b6000602080830181845280855180835260408601915060408160051b870101925083870160005b82811015611ac757603f19888603018452611ab585835161159b565b94509285019290850190600101611a99565b5092979650505050505050565b600060208284031215611ae657600080fd5b5035919050565b60008060408385031215611b0057600080fd5b611b09836115da565b9150611b17602084016115da565b90509250929050565b600060208284031215611b3257600080fd5b610896826115da565b60008060008060808587031215611b5157600080fd5b611b5a856115da565b935060208501359250611b6f604086016118f1565b9150606085013567ffffffffffffffff811115611b8b57600080fd5b611b978782880161171e565b91505092959194509250565b600080600080600060a08688031215611bbb57600080fd5b611bc4866115da565b9450611bd2602087016115da565b935060408601359250611be7606087016118f1565b9150608086013567ffffffffffffffff811115611c0357600080fd5b611a288882890161171e565b60008060408385031215611c2257600080fd5b82359150602083013567ffffffffffffffff811115611c4057600080fd5b6118498582860161171e565b634e487b7160e01b600052603260045260246000fd5b634e487b7160e01b600052601160045260246000fd5b600082821015611c8a57611c8a611c62565b500390565b600181811c90821680611ca357607f821691505b60208210810361067f57634e487b7160e01b600052602260045260246000fd5b601f82111561047357600081815260208120601f850160051c81016020861015611cea5750805b601f850160051c820191505b8181101561082457828155600101611cf6565b815167ffffffffffffffff811115611d2357611d23611620565b611d3781611d318454611c8f565b84611cc3565b602080601f831160018114611d6c5760008415611d545750858301515b600019600386901b1c1916600185901b178555610824565b600085815260208120601f198616915b82811015611d9b57888601518255948401946001909101908401611d7c565b5085821015611db95787850151600019600388901b60f8161c191681555b5050505050600190811b01905550565b60008219821115611ddc57611ddc611c62565b500190565b8381528215156020820152606060408201526000611e02606083018461159b565b95945050505050565b60006bffffffffffffffffffffffff19808760601b168352808660601b166014840152508360288301528251611e4881604885016020870161156f565b9190910160480195945050505050565b828152604060208201526000611a6a604083018461159b565b600060208284031215611e8357600080fd5b815167ffffffffffffffff811115611e9a57600080fd5b8201601f81018413611eab57600080fd5b8051611eb96116ac826116f6565b818152856020838501011115611ece57600080fd5b611e0282602083016020860161156f56fea2646970667358221220d49808817d0bede6320d70704b7dc014791bf4d8ea5f2b00ee7eb3c96b5f509364736f6c634300080f0033",
  "linkReferences": {},
  "deployedLinkReferences": {}
}