{
  "_format": "hh-sol-artifact-1",
  "contractName": "LSP8Mintable",
  "sourceName": "contracts/LSP8IdentifiableDigitalAsset/presets/LSP8Mintable.sol",
  "abi": [
    {
      "inputs": [
        {
          "internalType": "string",
          "name": "name_",
          "type": "string"
        },
        {
          "internalType": "string",
          "name": "symbol_",
          "type": "string"
        },
        {
          "internalType": "address",
          "name": "newOwner_",
          "type": "address"
        }
      ],
      "stateMutability": "nonpayable",
      "type": "constructor"
    },
    {
      "inputs": [
        {
          "internalType": "uint256",
          "name": "dataKeysLength",
          "type": "uint256"
        },
        {
          "internalType": "uint256",
          "name": "dataValuesLength",
          "type": "uint256"
        }
      ],
      "name": "ERC725Y_DataKeysValuesLengthMismatch",
      "type": "error"
    },
    {
      "inputs": [],
      "name": "LSP4TokenNameNotEditable",
      "type": "error"
    },
    {
      "inputs": [],
      "name": "LSP4TokenSymbolNotEditable",
      "type": "error"
    },
    {
      "inputs": [],
      "name": "LSP8CannotSendToAddressZero",
      "type": "error"
    },
    {
      "inputs": [],
      "name": "LSP8CannotSendToSelf",
      "type": "error"
    },
    {
      "inputs": [],
      "name": "LSP8CannotUseAddressZeroAsOperator",
      "type": "error"
    },
    {
      "inputs": [],
      "name": "LSP8InvalidTransferBatch",
      "type": "error"
    },
    {
      "inputs": [
        {
          "internalType": "bytes32",
          "name": "tokenId",
          "type": "bytes32"
        }
      ],
      "name": "LSP8NonExistentTokenId",
      "type": "error"
    },
    {
      "inputs": [
        {
          "internalType": "address",
          "name": "operator",
          "type": "address"
        },
        {
          "internalType": "bytes32",
          "name": "tokenId",
          "type": "bytes32"
        }
      ],
      "name": "LSP8NonExistingOperator",
      "type": "error"
    },
    {
      "inputs": [
        {
          "internalType": "bytes32",
          "name": "tokenId",
          "type": "bytes32"
        },
        {
          "internalType": "address",
          "name": "caller",
          "type": "address"
        }
      ],
      "name": "LSP8NotTokenOperator",
      "type": "error"
    },
    {
      "inputs": [
        {
          "internalType": "address",
          "name": "tokenOwner",
          "type": "address"
        },
        {
          "internalType": "bytes32",
          "name": "tokenId",
          "type": "bytes32"
        },
        {
          "internalType": "address",
          "name": "caller",
          "type": "address"
        }
      ],
      "name": "LSP8NotTokenOwner",
      "type": "error"
    },
    {
      "inputs": [
        {
          "internalType": "address",
          "name": "tokenReceiver",
          "type": "address"
        }
      ],
      "name": "LSP8NotifyTokenReceiverContractMissingLSP1Interface",
      "type": "error"
    },
    {
      "inputs": [
        {
          "internalType": "address",
          "name": "tokenReceiver",
          "type": "address"
        }
      ],
      "name": "LSP8NotifyTokenReceiverIsEOA",
      "type": "error"
    },
    {
      "inputs": [
        {
          "internalType": "address",
          "name": "operator",
          "type": "address"
        },
        {
          "internalType": "bytes32",
          "name": "tokenId",
          "type": "bytes32"
        }
      ],
      "name": "LSP8OperatorAlreadyAuthorized",
      "type": "error"
    },
    {
      "inputs": [
        {
          "internalType": "bytes32",
          "name": "tokenId",
          "type": "bytes32"
        }
      ],
      "name": "LSP8TokenIdAlreadyMinted",
      "type": "error"
    },
    {
      "anonymous": false,
      "inputs": [
        {
          "indexed": true,
          "internalType": "address",
          "name": "operator",
          "type": "address"
        },
        {
          "indexed": true,
          "internalType": "address",
          "name": "tokenOwner",
          "type": "address"
        },
        {
          "indexed": true,
          "internalType": "bytes32",
          "name": "tokenId",
          "type": "bytes32"
        }
      ],
      "name": "AuthorizedOperator",
      "type": "event"
    },
    {
      "anonymous": false,
      "inputs": [
        {
          "indexed": true,
          "internalType": "bytes32",
          "name": "dataKey",
          "type": "bytes32"
        },
        {
          "indexed": false,
          "internalType": "bytes",
          "name": "dataValue",
          "type": "bytes"
        }
      ],
      "name": "DataChanged",
      "type": "event"
    },
    {
      "anonymous": false,
      "inputs": [
        {
          "indexed": true,
          "internalType": "address",
          "name": "previousOwner",
          "type": "address"
        },
        {
          "indexed": true,
          "internalType": "address",
          "name": "newOwner",
          "type": "address"
        }
      ],
      "name": "OwnershipTransferred",
      "type": "event"
    },
    {
      "anonymous": false,
      "inputs": [
        {
          "indexed": true,
          "internalType": "address",
          "name": "operator",
          "type": "address"
        },
        {
          "indexed": true,
          "internalType": "address",
          "name": "tokenOwner",
          "type": "address"
        },
        {
          "indexed": true,
          "internalType": "bytes32",
          "name": "tokenId",
          "type": "bytes32"
        }
      ],
      "name": "RevokedOperator",
      "type": "event"
    },
    {
      "anonymous": false,
      "inputs": [
        {
          "indexed": false,
          "internalType": "address",
          "name": "operator",
          "type": "address"
        },
        {
          "indexed": true,
          "internalType": "address",
          "name": "from",
          "type": "address"
        },
        {
          "indexed": true,
          "internalType": "address",
          "name": "to",
          "type": "address"
        },
        {
          "indexed": true,
          "internalType": "bytes32",
          "name": "tokenId",
          "type": "bytes32"
        },
        {
          "indexed": false,
          "internalType": "bool",
          "name": "allowNonLSP1Recipient",
          "type": "bool"
        },
        {
          "indexed": false,
          "internalType": "bytes",
          "name": "data",
          "type": "bytes"
        }
      ],
      "name": "Transfer",
      "type": "event"
    },
    {
      "inputs": [
        {
          "internalType": "address",
          "name": "operator",
          "type": "address"
        },
        {
          "internalType": "bytes32",
          "name": "tokenId",
          "type": "bytes32"
        }
      ],
      "name": "authorizeOperator",
      "outputs": [],
      "stateMutability": "nonpayable",
      "type": "function"
    },
    {
      "inputs": [
        {
          "internalType": "address",
          "name": "tokenOwner",
          "type": "address"
        }
      ],
      "name": "balanceOf",
      "outputs": [
        {
          "internalType": "uint256",
          "name": "",
          "type": "uint256"
        }
      ],
      "stateMutability": "view",
      "type": "function"
    },
    {
      "inputs": [
        {
          "internalType": "bytes32[]",
          "name": "dataKeys",
          "type": "bytes32[]"
        }
      ],
      "name": "getData",
      "outputs": [
        {
          "internalType": "bytes[]",
          "name": "dataValues",
          "type": "bytes[]"
        }
      ],
      "stateMutability": "view",
      "type": "function"
    },
    {
      "inputs": [
        {
          "internalType": "bytes32",
          "name": "dataKey",
          "type": "bytes32"
        }
      ],
      "name": "getData",
      "outputs": [
        {
          "internalType": "bytes",
          "name": "dataValue",
          "type": "bytes"
        }
      ],
      "stateMutability": "view",
      "type": "function"
    },
    {
      "inputs": [
        {
          "internalType": "bytes32",
          "name": "tokenId",
          "type": "bytes32"
        }
      ],
      "name": "getOperatorsOf",
      "outputs": [
        {
          "internalType": "address[]",
          "name": "",
          "type": "address[]"
        }
      ],
      "stateMutability": "view",
      "type": "function"
    },
    {
      "inputs": [
        {
          "internalType": "address",
          "name": "operator",
          "type": "address"
        },
        {
          "internalType": "bytes32",
          "name": "tokenId",
          "type": "bytes32"
        }
      ],
      "name": "isOperatorFor",
      "outputs": [
        {
          "internalType": "bool",
          "name": "",
          "type": "bool"
        }
      ],
      "stateMutability": "view",
      "type": "function"
    },
    {
      "inputs": [
        {
          "internalType": "address",
          "name": "to",
          "type": "address"
        },
        {
          "internalType": "bytes32",
          "name": "tokenId",
          "type": "bytes32"
        },
        {
          "internalType": "bool",
          "name": "allowNonLSP1Recipient",
          "type": "bool"
        },
        {
          "internalType": "bytes",
          "name": "data",
          "type": "bytes"
        }
      ],
      "name": "mint",
      "outputs": [],
      "stateMutability": "nonpayable",
      "type": "function"
    },
    {
      "inputs": [],
      "name": "owner",
      "outputs": [
        {
          "internalType": "address",
          "name": "",
          "type": "address"
        }
      ],
      "stateMutability": "view",
      "type": "function"
    },
    {
      "inputs": [],
      "name": "renounceOwnership",
      "outputs": [],
      "stateMutability": "nonpayable",
      "type": "function"
    },
    {
      "inputs": [
        {
          "internalType": "address",
          "name": "operator",
          "type": "address"
        },
        {
          "internalType": "bytes32",
          "name": "tokenId",
          "type": "bytes32"
        }
      ],
      "name": "revokeOperator",
      "outputs": [],
      "stateMutability": "nonpayable",
      "type": "function"
    },
    {
      "inputs": [
        {
          "internalType": "bytes32[]",
          "name": "dataKeys",
          "type": "bytes32[]"
        },
        {
          "internalType": "bytes[]",
          "name": "dataValues",
          "type": "bytes[]"
        }
      ],
      "name": "setData",
      "outputs": [],
      "stateMutability": "nonpayable",
      "type": "function"
    },
    {
      "inputs": [
        {
          "internalType": "bytes32",
          "name": "dataKey",
          "type": "bytes32"
        },
        {
          "internalType": "bytes",
          "name": "dataValue",
          "type": "bytes"
        }
      ],
      "name": "setData",
      "outputs": [],
      "stateMutability": "nonpayable",
      "type": "function"
    },
    {
      "inputs": [
        {
          "internalType": "bytes4",
          "name": "interfaceId",
          "type": "bytes4"
        }
      ],
      "name": "supportsInterface",
      "outputs": [
        {
          "internalType": "bool",
          "name": "",
          "type": "bool"
        }
      ],
      "stateMutability": "view",
      "type": "function"
    },
    {
      "inputs": [
        {
          "internalType": "address",
          "name": "tokenOwner",
          "type": "address"
        }
      ],
      "name": "tokenIdsOf",
      "outputs": [
        {
          "internalType": "bytes32[]",
          "name": "",
          "type": "bytes32[]"
        }
      ],
      "stateMutability": "view",
      "type": "function"
    },
    {
      "inputs": [
        {
          "internalType": "bytes32",
          "name": "tokenId",
          "type": "bytes32"
        }
      ],
      "name": "tokenOwnerOf",
      "outputs": [
        {
          "internalType": "address",
          "name": "",
          "type": "address"
        }
      ],
      "stateMutability": "view",
      "type": "function"
    },
    {
      "inputs": [],
      "name": "totalSupply",
      "outputs": [
        {
          "internalType": "uint256",
          "name": "",
          "type": "uint256"
        }
      ],
      "stateMutability": "view",
      "type": "function"
    },
    {
      "inputs": [
        {
          "internalType": "address",
          "name": "from",
          "type": "address"
        },
        {
          "internalType": "address",
          "name": "to",
          "type": "address"
        },
        {
          "internalType": "bytes32",
          "name": "tokenId",
          "type": "bytes32"
        },
        {
          "internalType": "bool",
          "name": "allowNonLSP1Recipient",
          "type": "bool"
        },
        {
          "internalType": "bytes",
          "name": "data",
          "type": "bytes"
        }
      ],
      "name": "transfer",
      "outputs": [],
      "stateMutability": "nonpayable",
      "type": "function"
    },
    {
      "inputs": [
        {
          "internalType": "address[]",
          "name": "from",
          "type": "address[]"
        },
        {
          "internalType": "address[]",
          "name": "to",
          "type": "address[]"
        },
        {
          "internalType": "bytes32[]",
          "name": "tokenId",
          "type": "bytes32[]"
        },
        {
          "internalType": "bool[]",
          "name": "allowNonLSP1Recipient",
          "type": "bool[]"
        },
        {
          "internalType": "bytes[]",
          "name": "data",
          "type": "bytes[]"
        }
      ],
      "name": "transferBatch",
      "outputs": [],
      "stateMutability": "nonpayable",
      "type": "function"
    },
    {
      "inputs": [
        {
          "internalType": "address",
          "name": "newOwner",
          "type": "address"
        }
      ],
      "name": "transferOwnership",
      "outputs": [],
      "stateMutability": "nonpayable",
      "type": "function"
    }
  ],
  "bytecode": "0x60806040523480156200001157600080fd5b50604051620026ec380380620026ec83398101604081905262000034916200032f565b828282828282806001600160a01b038116620000a55760405162461bcd60e51b815260206004820152602660248201527f4f776e61626c653a206e6577206f776e657220697320746865207a65726f206160448201526564647265737360d01b606482015260840160405180910390fd5b620000bb816200019560201b620009a51760201c565b50620001127feafec4d89fa9619884b60000a4d96624a38f7ac2d8d9a604ecf07c12c77e480c60001b604051806040016040528060048152602001632936598960e21b815250620001fc60201b62000a171760201c565b6200014c7fdeba1e292f8ba88238e10ab3c7f88bd4be4fac56cad5194b6ecceaf653468af160001b84620001fc60201b62000a171760201c565b620001867f2f0a68ab07768e01943a599e73362a0e17a63a72e94dd2e384d2c1d4db93275660001b83620001fc60201b62000a171760201c565b5050505050505050506200054c565b6000546001600160a01b03828116911614620001f957600080546001600160a01b038381166001600160a01b0319831681178455604051919092169283917f8be0079c531659141344cd1fd0a4f28419497f9722a3daafe3b4186f6b6457e09190a3505b50565b60008281526001602052604090206200021682826200044b565b50817fece574603820d07bc9b91f2a932baadf4628aabcb8afba49776529c14a6104b28260405162000249919062000517565b60405180910390a25050565b634e487b7160e01b600052604160045260246000fd5b60005b83811015620002885781810151838201526020016200026e565b8381111562000298576000848401525b50505050565b600082601f830112620002b057600080fd5b81516001600160401b0380821115620002cd57620002cd62000255565b604051601f8301601f19908116603f01168101908282118183101715620002f857620002f862000255565b816040528381528660208588010111156200031257600080fd5b620003258460208301602089016200026b565b9695505050505050565b6000806000606084860312156200034557600080fd5b83516001600160401b03808211156200035d57600080fd5b6200036b878388016200029e565b945060208601519150808211156200038257600080fd5b5062000391868287016200029e565b604086015190935090506001600160a01b0381168114620003b157600080fd5b809150509250925092565b600181811c90821680620003d157607f821691505b602082108103620003f257634e487b7160e01b600052602260045260246000fd5b50919050565b601f8211156200044657600081815260208120601f850160051c81016020861015620004215750805b601f850160051c820191505b8181101562000442578281556001016200042d565b5050505b505050565b81516001600160401b0381111562000467576200046762000255565b6200047f81620004788454620003bc565b84620003f8565b602080601f831160018114620004b757600084156200049e5750858301515b600019600386901b1c1916600185901b17855562000442565b600085815260208120601f198616915b82811015620004e857888601518255948401946001909101908401620004c7565b5085821015620005075787850151600019600388901b60f8161c191681555b5050505050600190811b01905550565b6020815260008251806020840152620005388160408501602087016200026b565b601f01601f19169190910160400192915050565b612190806200055c6000396000f3fe608060405234801561001057600080fd5b50600436106101515760003560e01c806354f6127f116100cd5780638da5cb5b11610081578063af255b6111610066578063af255b61146102db578063cf5182ba146102ee578063f2fde38b1461030157600080fd5b80638da5cb5b146102aa578063a3b261f2146102bb57600080fd5b8063715018a6116100b2578063715018a61461027c5780637e87632c146102845780637f23690c1461029757600080fd5b806354f6127f1461024957806370a082311461026957600080fd5b8063217b22701161012457806349a6078d1161010957806349a6078d146101f65780634e3e6e9c14610216578063511b69521461023657600080fd5b8063217b2270146101b85780632a3654a4146101e357600080fd5b806301ffc9a7146101565780630b0c6d821461017e57806314a6e2931461019357806318160ddd146101a6575b600080fd5b610169610164366004611793565b610314565b60405190151581526020015b60405180910390f35b61019161018c3660046117d9565b610358565b005b6101916101a13660046119d2565b610405565b6002545b604051908152602001610175565b6101cb6101c6366004611a36565b6104aa565b6040516001600160a01b039091168152602001610175565b6101696101f13660046117d9565b6104e3565b610209610204366004611a36565b6104ff565b6040516101759190611a4f565b610229610224366004611a9c565b610521565b6040516101759190611b29565b610191610244366004611b9b565b6105d5565b61025c610257366004611a36565b61063d565b6040516101759190611c14565b6101aa610277366004611c27565b610648565b610191610669565b610191610292366004611d06565b61067d565b6101916102a5366004611dcb565b610785565b6000546001600160a01b03166101cb565b6102ce6102c9366004611c27565b61079b565b6040516101759190611e08565b6101916102e9366004611e40565b6107bf565b6101916102fc3660046117d9565b6107d3565b61019161030f366004611c27565b610915565b60006001600160e01b031982167f622e7a01000000000000000000000000000000000000000000000000000000001480610352575061035282610a6c565b92915050565b6000610363826104aa565b9050336001600160a01b03821681146103ae57604051632d938f5160e11b81526001600160a01b03808416600483015260248201859052821660448201526064015b60405180910390fd5b6001600160a01b0384166103d557604051639577b8b360e01b815260040160405180910390fd5b836001600160a01b0316826001600160a01b0316036103f45750505050565b6103ff848385610aba565b50505050565b61040d610b64565b805182511461045557815181516040517f43a3c266000000000000000000000000000000000000000000000000000000008152600481019290925260248201526044016103a5565b60005b82518110156104a55761049d83828151811061047657610476611ea8565b602002602001015183838151811061049057610490611ea8565b6020026020010151610bcd565b600101610458565b505050565b6000818152600360205260408120546001600160a01b03168061035257604051635747cd1b60e11b8152600481018490526024016103a5565b60006104ee82610ce7565b6104f88383610d1f565b9392505050565b606061050a82610ce7565b600082815260056020526040902061035290610d68565b6060815167ffffffffffffffff81111561053d5761053d611803565b60405190808252806020026020018201604052801561057057816020015b606081526020019060019003908161055b5790505b50905060005b82518110156105cf576105a183828151811061059457610594611ea8565b6020026020010151610d75565b8282815181106105b3576105b3611ea8565b60200260200101819052506105c88160010190565b9050610576565b50919050565b336105e08185610d1f565b610628576040517f1294d2a9000000000000000000000000000000000000000000000000000000008152600481018590526001600160a01b03821660248201526044016103a5565b6106358686868686610e17565b505050505050565b606061035282610d75565b6001600160a01b038116600090815260046020526040812061035290610fc7565b610671610b64565b61067b60006109a5565b565b8451845181141580610690575083518114155b8061069c575082518114155b806106a8575081518114155b156106df576040517f93a8311900000000000000000000000000000000000000000000000000000000815260040160405180910390fd5b60005b8181101561077c576107748782815181106106ff576106ff611ea8565b602002602001015187838151811061071957610719611ea8565b602002602001015187848151811061073357610733611ea8565b602002602001015187858151811061074d5761074d611ea8565b602002602001015187868151811061076757610767611ea8565b60200260200101516105d5565b6001016106e2565b50505050505050565b61078d610b64565b6107978282610bcd565b5050565b6001600160a01b038116600090815260046020526040902060609061035290610d68565b6107c7610b64565b6103ff84848484610fd1565b60006107de826104aa565b9050336001600160a01b038216811461082457604051632d938f5160e11b81526001600160a01b03808416600483015260248201859052821660448201526064016103a5565b6001600160a01b03841661084b57604051639577b8b360e01b815260040160405180910390fd5b836001600160a01b0316826001600160a01b03160361086a5750505050565b60008381526005602052604081206108829086611111565b9050806108cd576040517fa7626b680000000000000000000000000000000000000000000000000000000081526001600160a01b0386166004820152602481018590526044016103a5565b83836001600160a01b0316866001600160a01b03167f34b797fc5a526f7bf1d2b5de25f6564fd85ae364e3ee939aee7c1ac27871a98860405160405180910390a45050505050565b61091d610b64565b6001600160a01b0381166109995760405162461bcd60e51b815260206004820152602660248201527f4f776e61626c653a206e6577206f776e657220697320746865207a65726f206160448201527f646472657373000000000000000000000000000000000000000000000000000060648201526084016103a5565b6109a2816109a5565b50565b6000546001600160a01b038281169116146109a257600080546001600160a01b0383811673ffffffffffffffffffffffffffffffffffffffff19831681178455604051919092169283917f8be0079c531659141344cd1fd0a4f28419497f9722a3daafe3b4186f6b6457e09190a35050565b6000828152600160205260409020610a2f8282611f38565b50817fece574603820d07bc9b91f2a932baadf4628aabcb8afba49776529c14a6104b282604051610a609190611c14565b60405180910390a25050565b60006001600160e01b031982167f714df77c00000000000000000000000000000000000000000000000000000000148061035257506301ffc9a760e01b6001600160e01b0319831614610352565b6000818152600560205260408120610ad29085611126565b905080610b1d576040517f4aa31a8c0000000000000000000000000000000000000000000000000000000081526001600160a01b0385166004820152602481018390526044016103a5565b81836001600160a01b0316856001600160a01b03167f17d5389f6ab6adb2647dfa0aa365c323d37adacc30b33a65310b6158ce1373d560405160405180910390a450505050565b33610b776000546001600160a01b031690565b6001600160a01b03161461067b5760405162461bcd60e51b815260206004820181905260248201527f4f776e61626c653a2063616c6c6572206973206e6f7420746865206f776e657260448201526064016103a5565b7f2145e1d6d074577dc71ef54c3807742b41b053a9352ae6b491331509acb9750f8201610c26576040517f85c169bd00000000000000000000000000000000000000000000000000000000815260040160405180910390fd5b7fd0f59754f88971fe6bc5a6618cc9d5f1e859c58d16b22d1c7b2d3e2b246cd8aa8201610c7f576040517f76755b3800000000000000000000000000000000000000000000000000000000815260040160405180910390fd5b6000828152600160205260409020610c978282611f38565b50817fece574603820d07bc9b91f2a932baadf4628aabcb8afba49776529c14a6104b261010083511115610cd857610cd383600061010061113b565b610cda565b825b604051610a609190611c14565b6000818152600360205260409020546001600160a01b03166109a257604051635747cd1b60e11b8152600481018290526024016103a5565b600080610d2b836104aa565b9050806001600160a01b0316846001600160a01b03161480610d6057506000838152600560205260409020610d609085611263565b949350505050565b606060006104f883611285565b6000818152600160205260409020805460609190610d9290611ebe565b80601f0160208091040260200160405190810160405280929190818152602001828054610dbe90611ebe565b8015610e0b5780601f10610de057610100808354040283529160200191610e0b565b820191906000526020600020905b815481529060010190602001808311610dee57829003601f168201915b50505050509050919050565b836001600160a01b0316856001600160a01b031603610e62576040517f5d67d6c100000000000000000000000000000000000000000000000000000000815260040160405180910390fd5b6000610e6d846104aa565b9050856001600160a01b0316816001600160a01b031614610ebb57604051632d938f5160e11b81526001600160a01b03808316600483015260248201869052871660448201526064016103a5565b6001600160a01b038516610ee2576040516324ecef4d60e01b815260040160405180910390fd5b33610eed87866112e0565b6001600160a01b0387166000908152600460205260409020610f0f9086611327565b506001600160a01b0386166000908152600460205260409020610f329086611333565b5060008581526003602052604090819020805473ffffffffffffffffffffffffffffffffffffffff19166001600160a01b0389811691821790925591518792918a16907fb333c813a7426a7a11e2b190cad52c44119421594b47f6f32ace6d8c7207b2bf90610fa69086908a908a90611ff8565b60405180910390a4610fba8787878661133f565b61077c8787878787611413565b6000610352825490565b6001600160a01b038416610ff8576040516324ecef4d60e01b815260040160405180910390fd5b6000838152600360205260409020546001600160a01b03161561104a576040517f34c7b511000000000000000000000000000000000000000000000000000000008152600481018490526024016103a5565b3360016002600082825461105e9190612041565b90915550506001600160a01b03851660009081526004602052604090206110859085611333565b50600084815260036020526040808220805473ffffffffffffffffffffffffffffffffffffffff19166001600160a01b03891690811790915590518692907fb333c813a7426a7a11e2b190cad52c44119421594b47f6f32ace6d8c7207b2bf906110f490869089908990611ff8565b60405180910390a461110a600086868686611413565b5050505050565b60006104f8836001600160a01b03841661157d565b60006104f8836001600160a01b0384166115cc565b60608161114981601f612041565b10156111975760405162461bcd60e51b815260206004820152600e60248201527f736c6963655f6f766572666c6f7700000000000000000000000000000000000060448201526064016103a5565b6111a18284612041565b845110156111f15760405162461bcd60e51b815260206004820152601160248201527f736c6963655f6f75744f66426f756e647300000000000000000000000000000060448201526064016103a5565b606082158015611210576040519150600082526020820160405261125a565b6040519150601f8416801560200281840101858101878315602002848b0101015b81831015611249578051835260209283019201611231565b5050858452601f01601f1916604052505b50949350505050565b6001600160a01b038116600090815260018301602052604081205415156104f8565b606081600001805480602002602001604051908101604052809291908181526020018280548015610e0b57602002820191906000526020600020905b8154815260200190600101908083116112c15750505050509050919050565b6000818152600560205260408120906112f882610fc7565b905060005b8181101561110a57600061131184826116bf565b905061131e818787610aba565b506001016112fd565b60006104f883836115cc565b60006104f8838361157d565b61135084631aed5a8560e21b6116cb565b156103ff5760008484848460405160200161136e9493929190612059565b60408051601f1981840301815290829052631aed5a8560e21b825291506001600160a01b03861690636bb56a14906113cc907fb23eae7e6d1564b295b4c3e3be402d9a2f0776c57bdf365903496f6fa481ab009085906004016120a6565b6000604051808303816000875af11580156113eb573d6000803e3d6000fd5b505050506040513d6000823e601f3d908101601f1916820160405261063591908101906120bf565b61142484631aed5a8560e21b6116cb565b156114ee576000858585846040516020016114429493929190612059565b60408051601f1981840301815290829052631aed5a8560e21b825291506001600160a01b03861690636bb56a14906114a0907f0b084a55ebf70fd3c06fd755269dac2212c4d3f0f4d09079780bfa50c1b2984d9085906004016120a6565b6000604051808303816000875af11580156114bf573d6000803e3d6000fd5b505050506040513d6000823e601f3d908101601f191682016040526114e791908101906120bf565b505061110a565b8161110a576001600160a01b0384163b15611540576040517f4349776d0000000000000000000000000000000000000000000000000000000081526001600160a01b03851660048201526024016103a5565b6040517f031731370000000000000000000000000000000000000000000000000000000081526001600160a01b03851660048201526024016103a5565b60008181526001830160205260408120546115c457508154600181810184556000848152602080822090930184905584548482528286019093526040902091909155610352565b506000610352565b600081815260018301602052604081205480156116b55760006115f060018361212d565b85549091506000906116049060019061212d565b905081811461166957600086600001828154811061162457611624611ea8565b906000526020600020015490508087600001848154811061164757611647611ea8565b6000918252602080832090910192909255918252600188019052604090208390555b855486908061167a5761167a612144565b600190038181906000526020600020016000905590558560010160008681526020019081526020016000206000905560019350505050610352565b6000915050610352565b60006104f88383611769565b604080516001600160e01b03198316602480830191909152825180830390910181526044909101909152602080820180517bffffffffffffffffffffffffffffffffffffffffffffffffffffffff166301ffc9a760e01b178152825160009392849283928392918391908a617530fa92503d91506000519050828015611752575060208210155b801561175e5750600081115b979650505050505050565b600082600001828154811061178057611780611ea8565b9060005260206000200154905092915050565b6000602082840312156117a557600080fd5b81356001600160e01b0319811681146104f857600080fd5b80356001600160a01b03811681146117d457600080fd5b919050565b600080604083850312156117ec57600080fd5b6117f5836117bd565b946020939093013593505050565b634e487b7160e01b600052604160045260246000fd5b604051601f8201601f1916810167ffffffffffffffff8111828210171561184257611842611803565b604052919050565b600067ffffffffffffffff82111561186457611864611803565b5060051b60200190565b600082601f83011261187f57600080fd5b8135602061189461188f8361184a565b611819565b82815260059290921b840181019181810190868411156118b357600080fd5b8286015b848110156118ce57803583529183019183016118b7565b509695505050505050565b600067ffffffffffffffff8211156118f3576118f3611803565b50601f01601f191660200190565b600082601f83011261191257600080fd5b813561192061188f826118d9565b81815284602083860101111561193557600080fd5b816020850160208301376000918101602001919091529392505050565b600082601f83011261196357600080fd5b8135602061197361188f8361184a565b82815260059290921b8401810191818101908684111561199257600080fd5b8286015b848110156118ce57803567ffffffffffffffff8111156119b65760008081fd5b6119c48986838b0101611901565b845250918301918301611996565b600080604083850312156119e557600080fd5b823567ffffffffffffffff808211156119fd57600080fd5b611a098683870161186e565b93506020850135915080821115611a1f57600080fd5b50611a2c85828601611952565b9150509250929050565b600060208284031215611a4857600080fd5b5035919050565b6020808252825182820181905260009190848201906040850190845b81811015611a905783516001600160a01b031683529284019291840191600101611a6b565b50909695505050505050565b600060208284031215611aae57600080fd5b813567ffffffffffffffff811115611ac557600080fd5b610d608482850161186e565b60005b83811015611aec578181015183820152602001611ad4565b838111156103ff5750506000910152565b60008151808452611b15816020860160208601611ad1565b601f01601f19169290920160200192915050565b6000602080830181845280855180835260408601915060408160051b870101925083870160005b82811015611b7e57603f19888603018452611b6c858351611afd565b94509285019290850190600101611b50565b5092979650505050505050565b803580151581146117d457600080fd5b600080600080600060a08688031215611bb357600080fd5b611bbc866117bd565b9450611bca602087016117bd565b935060408601359250611bdf60608701611b8b565b9150608086013567ffffffffffffffff811115611bfb57600080fd5b611c0788828901611901565b9150509295509295909350565b6020815260006104f86020830184611afd565b600060208284031215611c3957600080fd5b6104f8826117bd565b600082601f830112611c5357600080fd5b81356020611c6361188f8361184a565b82815260059290921b84018101918181019086841115611c8257600080fd5b8286015b848110156118ce57611c97816117bd565b8352918301918301611c86565b600082601f830112611cb557600080fd5b81356020611cc561188f8361184a565b82815260059290921b84018101918181019086841115611ce457600080fd5b8286015b848110156118ce57611cf981611b8b565b8352918301918301611ce8565b600080600080600060a08688031215611d1e57600080fd5b853567ffffffffffffffff80821115611d3657600080fd5b611d4289838a01611c42565b96506020880135915080821115611d5857600080fd5b611d6489838a01611c42565b95506040880135915080821115611d7a57600080fd5b611d8689838a0161186e565b94506060880135915080821115611d9c57600080fd5b611da889838a01611ca4565b93506080880135915080821115611dbe57600080fd5b50611c0788828901611952565b60008060408385031215611dde57600080fd5b82359150602083013567ffffffffffffffff811115611dfc57600080fd5b611a2c85828601611901565b6020808252825182820181905260009190848201906040850190845b81811015611a9057835183529284019291840191600101611e24565b60008060008060808587031215611e5657600080fd5b611e5f856117bd565b935060208501359250611e7460408601611b8b565b9150606085013567ffffffffffffffff811115611e9057600080fd5b611e9c87828801611901565b91505092959194509250565b634e487b7160e01b600052603260045260246000fd5b600181811c90821680611ed257607f821691505b6020821081036105cf57634e487b7160e01b600052602260045260246000fd5b601f8211156104a557600081815260208120601f850160051c81016020861015611f195750805b601f850160051c820191505b8181101561063557828155600101611f25565b815167ffffffffffffffff811115611f5257611f52611803565b611f6681611f608454611ebe565b84611ef2565b602080601f831160018114611f9b5760008415611f835750858301515b600019600386901b1c1916600185901b178555610635565b600085815260208120601f198616915b82811015611fca57888601518255948401946001909101908401611fab565b5085821015611fe85787850151600019600388901b60f8161c191681555b5050505050600190811b01905550565b6001600160a01b038416815282151560208201526060604082015260006120226060830184611afd565b95945050505050565b634e487b7160e01b600052601160045260246000fd5b600082198211156120545761205461202b565b500190565b60006bffffffffffffffffffffffff19808760601b168352808660601b166014840152508360288301528251612096816048850160208701611ad1565b9190910160480195945050505050565b828152604060208201526000610d606040830184611afd565b6000602082840312156120d157600080fd5b815167ffffffffffffffff8111156120e857600080fd5b8201601f810184136120f957600080fd5b805161210761188f826118d9565b81815285602083850101111561211c57600080fd5b612022826020830160208601611ad1565b60008282101561213f5761213f61202b565b500390565b634e487b7160e01b600052603160045260246000fdfea2646970667358221220f8464a1120f930e1551ec928c26e679d9c0e1f41b0170f85e7b3800912c2f6f164736f6c634300080f0033",
  "linkReferences": {},
  "deployedLinkReferences": {}
}