{
  "_format": "hh-sol-artifact-1",
  "contractName": "LSP8CompatibleERC721Mintable",
  "sourceName": "contracts/LSP8IdentifiableDigitalAsset/presets/LSP8CompatibleERC721Mintable.sol",
  "abi": [
    {
      "inputs": [
        {
          "internalType": "string",
          "name": "name_",
          "type": "string"
        },
        {
          "internalType": "string",
          "name": "symbol_",
          "type": "string"
        },
        {
          "internalType": "address",
          "name": "newOwner_",
          "type": "address"
        }
      ],
      "stateMutability": "nonpayable",
      "type": "constructor"
    },
    {
      "inputs": [
        {
          "internalType": "uint256",
          "name": "dataKeysLength",
          "type": "uint256"
        },
        {
          "internalType": "uint256",
          "name": "dataValuesLength",
          "type": "uint256"
        }
      ],
      "name": "ERC725Y_DataKeysValuesLengthMismatch",
      "type": "error"
    },
    {
      "inputs": [],
      "name": "LSP4TokenNameNotEditable",
      "type": "error"
    },
    {
      "inputs": [],
      "name": "LSP4TokenSymbolNotEditable",
      "type": "error"
    },
    {
      "inputs": [],
      "name": "LSP8CannotSendToAddressZero",
      "type": "error"
    },
    {
      "inputs": [],
      "name": "LSP8CannotSendToSelf",
      "type": "error"
    },
    {
      "inputs": [],
      "name": "LSP8CannotUseAddressZeroAsOperator",
      "type": "error"
    },
    {
      "inputs": [],
      "name": "LSP8InvalidTransferBatch",
      "type": "error"
    },
    {
      "inputs": [
        {
          "internalType": "bytes32",
          "name": "tokenId",
          "type": "bytes32"
        }
      ],
      "name": "LSP8NonExistentTokenId",
      "type": "error"
    },
    {
      "inputs": [
        {
          "internalType": "address",
          "name": "operator",
          "type": "address"
        },
        {
          "internalType": "bytes32",
          "name": "tokenId",
          "type": "bytes32"
        }
      ],
      "name": "LSP8NonExistingOperator",
      "type": "error"
    },
    {
      "inputs": [
        {
          "internalType": "bytes32",
          "name": "tokenId",
          "type": "bytes32"
        },
        {
          "internalType": "address",
          "name": "caller",
          "type": "address"
        }
      ],
      "name": "LSP8NotTokenOperator",
      "type": "error"
    },
    {
      "inputs": [
        {
          "internalType": "address",
          "name": "tokenOwner",
          "type": "address"
        },
        {
          "internalType": "bytes32",
          "name": "tokenId",
          "type": "bytes32"
        },
        {
          "internalType": "address",
          "name": "caller",
          "type": "address"
        }
      ],
      "name": "LSP8NotTokenOwner",
      "type": "error"
    },
    {
      "inputs": [
        {
          "internalType": "address",
          "name": "tokenReceiver",
          "type": "address"
        }
      ],
      "name": "LSP8NotifyTokenReceiverContractMissingLSP1Interface",
      "type": "error"
    },
    {
      "inputs": [
        {
          "internalType": "address",
          "name": "tokenReceiver",
          "type": "address"
        }
      ],
      "name": "LSP8NotifyTokenReceiverIsEOA",
      "type": "error"
    },
    {
      "inputs": [
        {
          "internalType": "address",
          "name": "operator",
          "type": "address"
        },
        {
          "internalType": "bytes32",
          "name": "tokenId",
          "type": "bytes32"
        }
      ],
      "name": "LSP8OperatorAlreadyAuthorized",
      "type": "error"
    },
    {
      "inputs": [
        {
          "internalType": "bytes32",
          "name": "tokenId",
          "type": "bytes32"
        }
      ],
      "name": "LSP8TokenIdAlreadyMinted",
      "type": "error"
    },
    {
      "anonymous": false,
      "inputs": [
        {
          "indexed": true,
          "internalType": "address",
          "name": "owner",
          "type": "address"
        },
        {
          "indexed": true,
          "internalType": "address",
          "name": "approved",
          "type": "address"
        },
        {
          "indexed": true,
          "internalType": "uint256",
          "name": "tokenId",
          "type": "uint256"
        }
      ],
      "name": "Approval",
      "type": "event"
    },
    {
      "anonymous": false,
      "inputs": [
        {
          "indexed": true,
          "internalType": "address",
          "name": "_owner",
          "type": "address"
        },
        {
          "indexed": true,
          "internalType": "address",
          "name": "_operator",
          "type": "address"
        },
        {
          "indexed": false,
          "internalType": "bool",
          "name": "_approved",
          "type": "bool"
        }
      ],
      "name": "ApprovalForAll",
      "type": "event"
    },
    {
      "anonymous": false,
      "inputs": [
        {
          "indexed": true,
          "internalType": "address",
          "name": "operator",
          "type": "address"
        },
        {
          "indexed": true,
          "internalType": "address",
          "name": "tokenOwner",
          "type": "address"
        },
        {
          "indexed": true,
          "internalType": "bytes32",
          "name": "tokenId",
          "type": "bytes32"
        }
      ],
      "name": "AuthorizedOperator",
      "type": "event"
    },
    {
      "anonymous": false,
      "inputs": [
        {
          "indexed": true,
          "internalType": "bytes32",
          "name": "dataKey",
          "type": "bytes32"
        },
        {
          "indexed": false,
          "internalType": "bytes",
          "name": "dataValue",
          "type": "bytes"
        }
      ],
      "name": "DataChanged",
      "type": "event"
    },
    {
      "anonymous": false,
      "inputs": [
        {
          "indexed": true,
          "internalType": "address",
          "name": "previousOwner",
          "type": "address"
        },
        {
          "indexed": true,
          "internalType": "address",
          "name": "newOwner",
          "type": "address"
        }
      ],
      "name": "OwnershipTransferred",
      "type": "event"
    },
    {
      "anonymous": false,
      "inputs": [
        {
          "indexed": true,
          "internalType": "address",
          "name": "operator",
          "type": "address"
        },
        {
          "indexed": true,
          "internalType": "address",
          "name": "tokenOwner",
          "type": "address"
        },
        {
          "indexed": true,
          "internalType": "bytes32",
          "name": "tokenId",
          "type": "bytes32"
        }
      ],
      "name": "RevokedOperator",
      "type": "event"
    },
    {
      "anonymous": false,
      "inputs": [
        {
          "indexed": true,
          "internalType": "address",
          "name": "from",
          "type": "address"
        },
        {
          "indexed": true,
          "internalType": "address",
          "name": "to",
          "type": "address"
        },
        {
          "indexed": true,
          "internalType": "uint256",
          "name": "tokenId",
          "type": "uint256"
        }
      ],
      "name": "Transfer",
      "type": "event"
    },
    {
      "anonymous": false,
      "inputs": [
        {
          "indexed": false,
          "internalType": "address",
          "name": "operator",
          "type": "address"
        },
        {
          "indexed": true,
          "internalType": "address",
          "name": "from",
          "type": "address"
        },
        {
          "indexed": true,
          "internalType": "address",
          "name": "to",
          "type": "address"
        },
        {
          "indexed": true,
          "internalType": "bytes32",
          "name": "tokenId",
          "type": "bytes32"
        },
        {
          "indexed": false,
          "internalType": "bool",
          "name": "allowNonLSP1Recipient",
          "type": "bool"
        },
        {
          "indexed": false,
          "internalType": "bytes",
          "name": "data",
          "type": "bytes"
        }
      ],
      "name": "Transfer",
      "type": "event"
    },
    {
      "inputs": [
        {
          "internalType": "address",
          "name": "operator",
          "type": "address"
        },
        {
          "internalType": "uint256",
          "name": "tokenId",
          "type": "uint256"
        }
      ],
      "name": "approve",
      "outputs": [],
      "stateMutability": "nonpayable",
      "type": "function"
    },
    {
      "inputs": [
        {
          "internalType": "address",
          "name": "operator",
          "type": "address"
        },
        {
          "internalType": "bytes32",
          "name": "tokenId",
          "type": "bytes32"
        }
      ],
      "name": "authorizeOperator",
      "outputs": [],
      "stateMutability": "nonpayable",
      "type": "function"
    },
    {
      "inputs": [
        {
          "internalType": "address",
          "name": "tokenOwner",
          "type": "address"
        }
      ],
      "name": "balanceOf",
      "outputs": [
        {
          "internalType": "uint256",
          "name": "",
          "type": "uint256"
        }
      ],
      "stateMutability": "view",
      "type": "function"
    },
    {
      "inputs": [
        {
          "internalType": "uint256",
          "name": "tokenId",
          "type": "uint256"
        }
      ],
      "name": "getApproved",
      "outputs": [
        {
          "internalType": "address",
          "name": "",
          "type": "address"
        }
      ],
      "stateMutability": "view",
      "type": "function"
    },
    {
      "inputs": [
        {
          "internalType": "bytes32[]",
          "name": "dataKeys",
          "type": "bytes32[]"
        }
      ],
      "name": "getData",
      "outputs": [
        {
          "internalType": "bytes[]",
          "name": "dataValues",
          "type": "bytes[]"
        }
      ],
      "stateMutability": "view",
      "type": "function"
    },
    {
      "inputs": [
        {
          "internalType": "bytes32",
          "name": "dataKey",
          "type": "bytes32"
        }
      ],
      "name": "getData",
      "outputs": [
        {
          "internalType": "bytes",
          "name": "dataValue",
          "type": "bytes"
        }
      ],
      "stateMutability": "view",
      "type": "function"
    },
    {
      "inputs": [
        {
          "internalType": "bytes32",
          "name": "tokenId",
          "type": "bytes32"
        }
      ],
      "name": "getOperatorsOf",
      "outputs": [
        {
          "internalType": "address[]",
          "name": "",
          "type": "address[]"
        }
      ],
      "stateMutability": "view",
      "type": "function"
    },
    {
      "inputs": [
        {
          "internalType": "address",
          "name": "tokenOwner",
          "type": "address"
        },
        {
          "internalType": "address",
          "name": "operator",
          "type": "address"
        }
      ],
      "name": "isApprovedForAll",
      "outputs": [
        {
          "internalType": "bool",
          "name": "",
          "type": "bool"
        }
      ],
      "stateMutability": "view",
      "type": "function"
    },
    {
      "inputs": [
        {
          "internalType": "address",
          "name": "operator",
          "type": "address"
        },
        {
          "internalType": "bytes32",
          "name": "tokenId",
          "type": "bytes32"
        }
      ],
      "name": "isOperatorFor",
      "outputs": [
        {
          "internalType": "bool",
          "name": "",
          "type": "bool"
        }
      ],
      "stateMutability": "view",
      "type": "function"
    },
    {
      "inputs": [
        {
          "internalType": "address",
          "name": "to",
          "type": "address"
        },
        {
          "internalType": "bytes32",
          "name": "tokenId",
          "type": "bytes32"
        },
        {
          "internalType": "bool",
          "name": "allowNonLSP1Recipient",
          "type": "bool"
        },
        {
          "internalType": "bytes",
          "name": "data",
          "type": "bytes"
        }
      ],
      "name": "mint",
      "outputs": [],
      "stateMutability": "nonpayable",
      "type": "function"
    },
    {
      "inputs": [],
      "name": "name",
      "outputs": [
        {
          "internalType": "string",
          "name": "",
          "type": "string"
        }
      ],
      "stateMutability": "view",
      "type": "function"
    },
    {
      "inputs": [],
      "name": "owner",
      "outputs": [
        {
          "internalType": "address",
          "name": "",
          "type": "address"
        }
      ],
      "stateMutability": "view",
      "type": "function"
    },
    {
      "inputs": [
        {
          "internalType": "uint256",
          "name": "tokenId",
          "type": "uint256"
        }
      ],
      "name": "ownerOf",
      "outputs": [
        {
          "internalType": "address",
          "name": "",
          "type": "address"
        }
      ],
      "stateMutability": "view",
      "type": "function"
    },
    {
      "inputs": [],
      "name": "renounceOwnership",
      "outputs": [],
      "stateMutability": "nonpayable",
      "type": "function"
    },
    {
      "inputs": [
        {
          "internalType": "address",
          "name": "operator",
          "type": "address"
        },
        {
          "internalType": "bytes32",
          "name": "tokenId",
          "type": "bytes32"
        }
      ],
      "name": "revokeOperator",
      "outputs": [],
      "stateMutability": "nonpayable",
      "type": "function"
    },
    {
      "inputs": [
        {
          "internalType": "address",
          "name": "from",
          "type": "address"
        },
        {
          "internalType": "address",
          "name": "to",
          "type": "address"
        },
        {
          "internalType": "uint256",
          "name": "tokenId",
          "type": "uint256"
        }
      ],
      "name": "safeTransferFrom",
      "outputs": [],
      "stateMutability": "nonpayable",
      "type": "function"
    },
    {
      "inputs": [
        {
          "internalType": "address",
          "name": "from",
          "type": "address"
        },
        {
          "internalType": "address",
          "name": "to",
          "type": "address"
        },
        {
          "internalType": "uint256",
          "name": "tokenId",
          "type": "uint256"
        },
        {
          "internalType": "bytes",
          "name": "data",
          "type": "bytes"
        }
      ],
      "name": "safeTransferFrom",
      "outputs": [],
      "stateMutability": "nonpayable",
      "type": "function"
    },
    {
      "inputs": [
        {
          "internalType": "address",
          "name": "operator",
          "type": "address"
        },
        {
          "internalType": "bool",
          "name": "approved",
          "type": "bool"
        }
      ],
      "name": "setApprovalForAll",
      "outputs": [],
      "stateMutability": "nonpayable",
      "type": "function"
    },
    {
      "inputs": [
        {
          "internalType": "bytes32[]",
          "name": "dataKeys",
          "type": "bytes32[]"
        },
        {
          "internalType": "bytes[]",
          "name": "dataValues",
          "type": "bytes[]"
        }
      ],
      "name": "setData",
      "outputs": [],
      "stateMutability": "nonpayable",
      "type": "function"
    },
    {
      "inputs": [
        {
          "internalType": "bytes32",
          "name": "dataKey",
          "type": "bytes32"
        },
        {
          "internalType": "bytes",
          "name": "dataValue",
          "type": "bytes"
        }
      ],
      "name": "setData",
      "outputs": [],
      "stateMutability": "nonpayable",
      "type": "function"
    },
    {
      "inputs": [
        {
          "internalType": "bytes4",
          "name": "interfaceId",
          "type": "bytes4"
        }
      ],
      "name": "supportsInterface",
      "outputs": [
        {
          "internalType": "bool",
          "name": "",
          "type": "bool"
        }
      ],
      "stateMutability": "view",
      "type": "function"
    },
    {
      "inputs": [],
      "name": "symbol",
      "outputs": [
        {
          "internalType": "string",
          "name": "",
          "type": "string"
        }
      ],
      "stateMutability": "view",
      "type": "function"
    },
    {
      "inputs": [
        {
          "internalType": "address",
          "name": "tokenOwner",
          "type": "address"
        }
      ],
      "name": "tokenIdsOf",
      "outputs": [
        {
          "internalType": "bytes32[]",
          "name": "",
          "type": "bytes32[]"
        }
      ],
      "stateMutability": "view",
      "type": "function"
    },
    {
      "inputs": [
        {
          "internalType": "bytes32",
          "name": "tokenId",
          "type": "bytes32"
        }
      ],
      "name": "tokenOwnerOf",
      "outputs": [
        {
          "internalType": "address",
          "name": "",
          "type": "address"
        }
      ],
      "stateMutability": "view",
      "type": "function"
    },
    {
      "inputs": [
        {
          "internalType": "uint256",
          "name": "",
          "type": "uint256"
        }
      ],
      "name": "tokenURI",
      "outputs": [
        {
          "internalType": "string",
          "name": "",
          "type": "string"
        }
      ],
      "stateMutability": "view",
      "type": "function"
    },
    {
      "inputs": [],
      "name": "totalSupply",
      "outputs": [
        {
          "internalType": "uint256",
          "name": "",
          "type": "uint256"
        }
      ],
      "stateMutability": "view",
      "type": "function"
    },
    {
      "inputs": [
        {
          "internalType": "address",
          "name": "from",
          "type": "address"
        },
        {
          "internalType": "address",
          "name": "to",
          "type": "address"
        },
        {
          "internalType": "bytes32",
          "name": "tokenId",
          "type": "bytes32"
        },
        {
          "internalType": "bool",
          "name": "allowNonLSP1Recipient",
          "type": "bool"
        },
        {
          "internalType": "bytes",
          "name": "data",
          "type": "bytes"
        }
      ],
      "name": "transfer",
      "outputs": [],
      "stateMutability": "nonpayable",
      "type": "function"
    },
    {
      "inputs": [
        {
          "internalType": "address[]",
          "name": "from",
          "type": "address[]"
        },
        {
          "internalType": "address[]",
          "name": "to",
          "type": "address[]"
        },
        {
          "internalType": "bytes32[]",
          "name": "tokenId",
          "type": "bytes32[]"
        },
        {
          "internalType": "bool[]",
          "name": "allowNonLSP1Recipient",
          "type": "bool[]"
        },
        {
          "internalType": "bytes[]",
          "name": "data",
          "type": "bytes[]"
        }
      ],
      "name": "transferBatch",
      "outputs": [],
      "stateMutability": "nonpayable",
      "type": "function"
    },
    {
      "inputs": [
        {
          "internalType": "address",
          "name": "from",
          "type": "address"
        },
        {
          "internalType": "address",
          "name": "to",
          "type": "address"
        },
        {
          "internalType": "uint256",
          "name": "tokenId",
          "type": "uint256"
        }
      ],
      "name": "transferFrom",
      "outputs": [],
      "stateMutability": "nonpayable",
      "type": "function"
    },
    {
      "inputs": [
        {
          "internalType": "address",
          "name": "newOwner",
          "type": "address"
        }
      ],
      "name": "transferOwnership",
      "outputs": [],
      "stateMutability": "nonpayable",
      "type": "function"
    }
  ],
  "bytecode": "0x60806040523480156200001157600080fd5b5060405162002f9a38038062002f9a833981016040819052620000349162000335565b828282828282828282806001600160a01b038116620000a85760405162461bcd60e51b815260206004820152602660248201527f4f776e61626c653a206e6577206f776e657220697320746865207a65726f206160448201526564647265737360d01b606482015260840160405180910390fd5b620000be816200019b60201b62000ba81760201c565b50620001157feafec4d89fa9619884b60000a4d96624a38f7ac2d8d9a604ecf07c12c77e480c60001b604051806040016040528060048152602001632936598960e21b8152506200020260201b62000c1a1760201c565b6200014f7fdeba1e292f8ba88238e10ab3c7f88bd4be4fac56cad5194b6ecceaf653468af160001b846200020260201b62000c1a1760201c565b620001897f2f0a68ab07768e01943a599e73362a0e17a63a72e94dd2e384d2c1d4db93275660001b836200020260201b62000c1a1760201c565b50505050505050505050505062000552565b6000546001600160a01b03828116911614620001ff57600080546001600160a01b038381166001600160a01b0319831681178455604051919092169283917f8be0079c531659141344cd1fd0a4f28419497f9722a3daafe3b4186f6b6457e09190a3505b50565b60008281526001602052604090206200021c828262000451565b50817fece574603820d07bc9b91f2a932baadf4628aabcb8afba49776529c14a6104b2826040516200024f91906200051d565b60405180910390a25050565b634e487b7160e01b600052604160045260246000fd5b60005b838110156200028e57818101518382015260200162000274565b838111156200029e576000848401525b50505050565b600082601f830112620002b657600080fd5b81516001600160401b0380821115620002d357620002d36200025b565b604051601f8301601f19908116603f01168101908282118183101715620002fe57620002fe6200025b565b816040528381528660208588010111156200031857600080fd5b6200032b84602083016020890162000271565b9695505050505050565b6000806000606084860312156200034b57600080fd5b83516001600160401b03808211156200036357600080fd5b6200037187838801620002a4565b945060208601519150808211156200038857600080fd5b506200039786828701620002a4565b604086015190935090506001600160a01b0381168114620003b757600080fd5b809150509250925092565b600181811c90821680620003d757607f821691505b602082108103620003f857634e487b7160e01b600052602260045260246000fd5b50919050565b601f8211156200044c57600081815260208120601f850160051c81016020861015620004275750805b601f850160051c820191505b81811015620004485782815560010162000433565b5050505b505050565b81516001600160401b038111156200046d576200046d6200025b565b62000485816200047e8454620003c2565b84620003fe565b602080601f831160018114620004bd5760008415620004a45750858301515b600019600386901b1c1916600185901b17855562000448565b600085815260208120601f198616915b82811015620004ee57888601518255948401946001909101908401620004cd565b50858210156200050d5787850151600019600388901b60f8161c191681555b5050505050600190811b01905550565b60208152600082518060208401526200053e81604085016020870162000271565b601f01601f19169190910160400192915050565b612a3880620005626000396000f3fe608060405234801561001057600080fd5b50600436106101da5760003560e01c80636352211e11610104578063a22cb465116100a2578063c87b56dd11610071578063c87b56dd1461040c578063cf5182ba1461041f578063e985e9c514610432578063f2fde38b1461046e57600080fd5b8063a22cb465146103b3578063a3b261f2146103c6578063af255b61146103e6578063b88d4fde146103f957600080fd5b80637e87632c116100de5780637e87632c146103745780637f23690c146103875780638da5cb5b1461039a57806395d89b41146103ab57600080fd5b80636352211e1461034657806370a0823114610359578063715018a61461036c57600080fd5b8063217b22701161017c57806349a6078d1161014b57806349a6078d146102e05780634e3e6e9c14610300578063511b69521461032057806354f6127f1461033357600080fd5b8063217b22701461029457806323b872dd146102a75780632a3654a4146102ba57806342842e0e146102cd57600080fd5b8063095ea7b3116101b8578063095ea7b3146102475780630b0c6d821461025c57806314a6e2931461026f57806318160ddd1461028257600080fd5b806301ffc9a7146101df57806306fdde0314610207578063081812fc1461021c575b600080fd5b6101f26101ed366004611f0f565b610481565b60405190151581526020015b60405180910390f35b61020f6104f9565b6040516101fe9190611f84565b61022f61022a366004611f97565b610526565b6040516001600160a01b0390911681526020016101fe565b61025a610255366004611fcc565b61057d565b005b61025a61026a366004611fcc565b6105d4565b61025a61027d3660046121c5565b610681565b6002545b6040519081526020016101fe565b61022f6102a2366004611f97565b610726565b61025a6102b5366004612229565b61075f565b6101f26102c8366004611fcc565b61077f565b61025a6102db366004612229565b61079b565b6102f36102ee366004611f97565b6107b6565b6040516101fe9190612265565b61031361030e3660046122b2565b6107d8565b6040516101fe91906122e7565b61025a61032e366004612359565b61088c565b61020f610341366004611f97565b6108db565b61022f610354366004611f97565b6108e6565b6102866103673660046123d2565b6108f1565b61025a610912565b61025a6103823660046124b1565b610926565b61025a610395366004612576565b610a2e565b6000546001600160a01b031661022f565b61020f610a44565b61025a6103c13660046125b3565b610a71565b6103d96103d43660046123d2565b610a7c565b6040516101fe91906125e6565b61025a6103f436600461261e565b610aa0565b61025a610407366004612686565b610ab4565b61020f61041a366004611f97565b610ac0565b61025a61042d366004611fcc565b610b0e565b6101f26104403660046126d6565b6001600160a01b03918216600090815260076020908152604080832093909416825291909152205460ff1690565b61025a61047c3660046123d2565b610b18565b60006001600160e01b031982167f80ac58cd0000000000000000000000000000000000000000000000000000000014806104e457506001600160e01b031982167f5b5e139f00000000000000000000000000000000000000000000000000000000145b806104f357506104f382610c6f565b92915050565b606060006104f37fdeba1e292f8ba88238e10ab3c7f88bd4be4fac56cad5194b6ecceaf653468af1610cad565b60008161053281610d4f565b60008181526005602052604081209061054a82610d87565b90508060000361055f57506000949350505050565b61057461056d600183612716565b8390610d91565b95945050505050565b6105878282610b0e565b806001600160a01b03831661059b82610726565b6001600160a01b03167f8c5be1e5ebec7d5bd14f71427d1e84f3dd0314c0f7b2291e5b200ac8c7c3b92560405160405180910390a45050565b60006105df82610726565b9050336001600160a01b038216811461062a57604051632d938f5160e11b81526001600160a01b03808416600483015260248201859052821660448201526064015b60405180910390fd5b6001600160a01b03841661065157604051639577b8b360e01b815260040160405180910390fd5b836001600160a01b0316826001600160a01b0316036106705750505050565b61067b848385610d9d565b50505050565b610689610e47565b80518251146106d157815181516040517f43a3c26600000000000000000000000000000000000000000000000000000000815260048101929092526024820152604401610621565b60005b8251811015610721576107198382815181106106f2576106f261272d565b602002602001015183838151811061070c5761070c61272d565b6020026020010151610eb0565b6001016106d4565b505050565b6000818152600360205260408120546001600160a01b0316806104f357604051635747cd1b60e11b815260048101849052602401610621565b61072183838360001b600160405180602001604052806000815250610eba565b600061078a82610d4f565b6107948383610f6e565b9392505050565b61072183838360405180602001604052806000815250610fb7565b60606107c182610d4f565b60008281526005602052604090206104f390611045565b6060815167ffffffffffffffff8111156107f4576107f4611ff6565b60405190808252806020026020018201604052801561082757816020015b60608152602001906001900390816108125790505b50905060005b82518110156108865761085883828151811061084b5761084b61272d565b6020026020010151610cad565b82828151811061086a5761086a61272d565b602002602001018190525061087f8160010190565b905061082d565b50919050565b336108978185610f6e565b6108c657604051631294d2a960e01b8152600481018590526001600160a01b0382166024820152604401610621565b6108d38686868686610eba565b505050505050565b60606104f382610cad565b60006104f382610726565b6001600160a01b03811660009081526004602052604081206104f390610d87565b61091a610e47565b6109246000610ba8565b565b8451845181141580610939575083518114155b80610945575082518114155b80610951575081518114155b15610988576040517f93a8311900000000000000000000000000000000000000000000000000000000815260040160405180910390fd5b60005b81811015610a2557610a1d8782815181106109a8576109a861272d565b60200260200101518783815181106109c2576109c261272d565b60200260200101518784815181106109dc576109dc61272d565b60200260200101518785815181106109f6576109f661272d565b6020026020010151878681518110610a1057610a1061272d565b602002602001015161088c565b60010161098b565b50505050505050565b610a36610e47565b610a408282610eb0565b5050565b606060006104f37f2f0a68ab07768e01943a599e73362a0e17a63a72e94dd2e384d2c1d4db932756610cad565b610a40338383611052565b6001600160a01b03811660009081526004602052604090206060906104f390611045565b610aa8610e47565b61067b84848484611146565b61067b84848484610fb7565b60606000610aed7f9afb95cacc9f95858ec44aa8c3b685511002e30ae54415823f406128b85b238e610cad565b905060006024905060006105748383848651610b099190612716565b611190565b61058782826112b8565b610b20610e47565b6001600160a01b038116610b9c5760405162461bcd60e51b815260206004820152602660248201527f4f776e61626c653a206e6577206f776e657220697320746865207a65726f206160448201527f64647265737300000000000000000000000000000000000000000000000000006064820152608401610621565b610ba581610ba8565b50565b6000546001600160a01b03828116911614610ba557600080546001600160a01b0383811673ffffffffffffffffffffffffffffffffffffffff19831681178455604051919092169283917f8be0079c531659141344cd1fd0a4f28419497f9722a3daafe3b4186f6b6457e09190a35050565b6000828152600160205260409020610c3282826127bd565b50817fece574603820d07bc9b91f2a932baadf4628aabcb8afba49776529c14a6104b282604051610c639190611f84565b60405180910390a25050565b60006001600160e01b031982167f622e7a010000000000000000000000000000000000000000000000000000000014806104f357506104f3826113fa565b6000818152600160205260409020805460609190610cca90612743565b80601f0160208091040260200160405190810160405280929190818152602001828054610cf690612743565b8015610d435780601f10610d1857610100808354040283529160200191610d43565b820191906000526020600020905b815481529060010190602001808311610d2657829003601f168201915b50505050509050919050565b6000818152600360205260409020546001600160a01b0316610ba557604051635747cd1b60e11b815260048101829052602401610621565b60006104f3825490565b60006107948383611448565b6000818152600560205260408120610db59085611472565b905080610e00576040517f4aa31a8c0000000000000000000000000000000000000000000000000000000081526001600160a01b038516600482015260248101839052604401610621565b81836001600160a01b0316856001600160a01b03167f17d5389f6ab6adb2647dfa0aa365c323d37adacc30b33a65310b6158ce1373d560405160405180910390a450505050565b33610e5a6000546001600160a01b031690565b6001600160a01b0316146109245760405162461bcd60e51b815260206004820181905260248201527f4f776e61626c653a2063616c6c6572206973206e6f7420746865206f776e65726044820152606401610621565b610a408282611487565b6001600160a01b03851660009081526007602090815260408083203380855292529091205460ff16158015610ef65750610ef48185610f6e565b155b15610f2657604051631294d2a960e01b8152600481018590526001600160a01b0382166024820152604401610621565b60405184906001600160a01b0380881691908916907fddf252ad1be2c89b69c2b068fc378daa952ba7f163c4a11628f55a4df523b3ef90600090a46108d386868686866115a1565b600080610f7a83610726565b9050806001600160a01b0316846001600160a01b03161480610faf57506000838152600560205260409020610faf9085611751565b949350505050565b610fc5848484600185610eba565b610fd184848484611773565b61067b576040805162461bcd60e51b81526020600482015260248101919091527f4c535038436f6d70617469626c654552433732313a207472616e73666572207460448201527f6f206e6f6e20455243373231526563656976657220696d706c656d656e7465726064820152608401610621565b60606000610794836118cc565b816001600160a01b0316836001600160a01b0316036110d95760405162461bcd60e51b815260206004820152602760248201527f4c535038436f6d70617469626c654552433732313a20617070726f766520746f60448201527f2063616c6c6572000000000000000000000000000000000000000000000000006064820152608401610621565b6001600160a01b03838116600081815260076020908152604080832094871680845294825291829020805460ff191686151590811790915591519182527f17307eab39ab6107e8899845ad3d59bd9653f200f220920489ca2b5937696c31910160405180910390a3505050565b61115284848484611927565b60405183906001600160a01b038616906000907fddf252ad1be2c89b69c2b068fc378daa952ba7f163c4a11628f55a4df523b3ef908290a450505050565b60608161119e81601f61287d565b10156111ec5760405162461bcd60e51b815260206004820152600e60248201527f736c6963655f6f766572666c6f770000000000000000000000000000000000006044820152606401610621565b6111f6828461287d565b845110156112465760405162461bcd60e51b815260206004820152601160248201527f736c6963655f6f75744f66426f756e64730000000000000000000000000000006044820152606401610621565b60608215801561126557604051915060008252602082016040526112af565b6040519150601f8416801560200281840101858101878315602002848b0101015b8183101561129e578051835260209283019201611286565b5050858452601f01601f1916604052505b50949350505050565b60006112c382610726565b9050336001600160a01b038216811461130957604051632d938f5160e11b81526001600160a01b0380841660048301526024820185905282166044820152606401610621565b6001600160a01b03841661133057604051639577b8b360e01b815260040160405180910390fd5b836001600160a01b0316826001600160a01b03160361134f5750505050565b60008381526005602052604081206113679086611a67565b9050806113b2576040517fa7626b680000000000000000000000000000000000000000000000000000000081526001600160a01b038616600482015260248101859052604401610621565b83836001600160a01b0316866001600160a01b03167f34b797fc5a526f7bf1d2b5de25f6564fd85ae364e3ee939aee7c1ac27871a98860405160405180910390a45050505050565b60006001600160e01b031982167f714df77c0000000000000000000000000000000000000000000000000000000014806104f357506301ffc9a760e01b6001600160e01b03198316146104f3565b600082600001828154811061145f5761145f61272d565b9060005260206000200154905092915050565b6000610794836001600160a01b038416611a7c565b7f2145e1d6d074577dc71ef54c3807742b41b053a9352ae6b491331509acb9750f82016114e0576040517f85c169bd00000000000000000000000000000000000000000000000000000000815260040160405180910390fd5b7fd0f59754f88971fe6bc5a6618cc9d5f1e859c58d16b22d1c7b2d3e2b246cd8aa8201611539576040517f76755b3800000000000000000000000000000000000000000000000000000000815260040160405180910390fd5b600082815260016020526040902061155182826127bd565b50817fece574603820d07bc9b91f2a932baadf4628aabcb8afba49776529c14a6104b2610100835111156115925761158d836000610100611190565b611594565b825b604051610c639190611f84565b836001600160a01b0316856001600160a01b0316036115ec576040517f5d67d6c100000000000000000000000000000000000000000000000000000000815260040160405180910390fd5b60006115f784610726565b9050856001600160a01b0316816001600160a01b03161461164557604051632d938f5160e11b81526001600160a01b0380831660048301526024820186905287166044820152606401610621565b6001600160a01b03851661166c576040516324ecef4d60e01b815260040160405180910390fd5b336116778786611b6f565b6001600160a01b03871660009081526004602052604090206116999086611bb6565b506001600160a01b03861660009081526004602052604090206116bc9086611bc2565b5060008581526003602052604090819020805473ffffffffffffffffffffffffffffffffffffffff19166001600160a01b0389811691821790925591518792918a16907fb333c813a7426a7a11e2b190cad52c44119421594b47f6f32ace6d8c7207b2bf906117309086908a908a90612895565b60405180910390a461174487878786611bce565b610a258787878787611ca2565b6001600160a01b03811660009081526001830160205260408120541515610794565b60006001600160a01b0384163b156118c157604051630a85bd0160e11b81526001600160a01b0385169063150b7a02906117b79033908990889088906004016128bf565b6020604051808303816000875af19250505080156117f2575060408051601f3d908101601f191682019092526117ef918101906128fb565b60015b6118a7573d808015611820576040519150601f19603f3d011682016040523d82523d6000602084013e611825565b606091505b50805160000361189f576040805162461bcd60e51b81526020600482015260248101919091527f4c535038436f6d70617469626c654552433732313a207472616e73666572207460448201527f6f206e6f6e20455243373231526563656976657220696d706c656d656e7465726064820152608401610621565b805181602001fd5b6001600160e01b031916630a85bd0160e11b149050610faf565b506001949350505050565b606081600001805480602002602001604051908101604052809291908181526020018280548015610d4357602002820191906000526020600020905b8154815260200190600101908083116119085750505050509050919050565b6001600160a01b03841661194e576040516324ecef4d60e01b815260040160405180910390fd5b6000838152600360205260409020546001600160a01b0316156119a0576040517f34c7b51100000000000000000000000000000000000000000000000000000000815260048101849052602401610621565b336001600260008282546119b4919061287d565b90915550506001600160a01b03851660009081526004602052604090206119db9085611bc2565b50600084815260036020526040808220805473ffffffffffffffffffffffffffffffffffffffff19166001600160a01b03891690811790915590518692907fb333c813a7426a7a11e2b190cad52c44119421594b47f6f32ace6d8c7207b2bf90611a4a90869089908990612895565b60405180910390a4611a60600086868686611ca2565b5050505050565b6000610794836001600160a01b038416611e0c565b60008181526001830160205260408120548015611b65576000611aa0600183612716565b8554909150600090611ab490600190612716565b9050818114611b19576000866000018281548110611ad457611ad461272d565b9060005260206000200154905080876000018481548110611af757611af761272d565b6000918252602080832090910192909255918252600188019052604090208390555b8554869080611b2a57611b2a612918565b6001900381819060005260206000200160009055905585600101600086815260200190815260200160002060009055600193505050506104f3565b60009150506104f3565b600081815260056020526040812090611b8782610d87565b905060005b81811015611a60576000611ba08482610d91565b9050611bad818787610d9d565b50600101611b8c565b60006107948383611a7c565b60006107948383611e0c565b611bdf84631aed5a8560e21b611e5b565b1561067b57600084848484604051602001611bfd949392919061292e565b60408051601f1981840301815290829052631aed5a8560e21b825291506001600160a01b03861690636bb56a1490611c5b907fb23eae7e6d1564b295b4c3e3be402d9a2f0776c57bdf365903496f6fa481ab0090859060040161297b565b6000604051808303816000875af1158015611c7a573d6000803e3d6000fd5b505050506040513d6000823e601f3d908101601f191682016040526108d39190810190612994565b611cb384631aed5a8560e21b611e5b565b15611d7d57600085858584604051602001611cd1949392919061292e565b60408051601f1981840301815290829052631aed5a8560e21b825291506001600160a01b03861690636bb56a1490611d2f907f0b084a55ebf70fd3c06fd755269dac2212c4d3f0f4d09079780bfa50c1b2984d90859060040161297b565b6000604051808303816000875af1158015611d4e573d6000803e3d6000fd5b505050506040513d6000823e601f3d908101601f19168201604052611d769190810190612994565b5050611a60565b81611a60576001600160a01b0384163b15611dcf576040517f4349776d0000000000000000000000000000000000000000000000000000000081526001600160a01b0385166004820152602401610621565b6040517f031731370000000000000000000000000000000000000000000000000000000081526001600160a01b0385166004820152602401610621565b6000818152600183016020526040812054611e53575081546001818101845560008481526020808220909301849055845484825282860190935260409020919091556104f3565b5060006104f3565b604080516001600160e01b03198316602480830191909152825180830390910181526044909101909152602080820180517bffffffffffffffffffffffffffffffffffffffffffffffffffffffff166301ffc9a760e01b178152825160009392849283928392918391908a617530fa92503d91506000519050828015611ee2575060208210155b8015611eee5750600081115b979650505050505050565b6001600160e01b031981168114610ba557600080fd5b600060208284031215611f2157600080fd5b813561079481611ef9565b60005b83811015611f47578181015183820152602001611f2f565b8381111561067b5750506000910152565b60008151808452611f70816020860160208601611f2c565b601f01601f19169290920160200192915050565b6020815260006107946020830184611f58565b600060208284031215611fa957600080fd5b5035919050565b80356001600160a01b0381168114611fc757600080fd5b919050565b60008060408385031215611fdf57600080fd5b611fe883611fb0565b946020939093013593505050565b634e487b7160e01b600052604160045260246000fd5b604051601f8201601f1916810167ffffffffffffffff8111828210171561203557612035611ff6565b604052919050565b600067ffffffffffffffff82111561205757612057611ff6565b5060051b60200190565b600082601f83011261207257600080fd5b813560206120876120828361203d565b61200c565b82815260059290921b840181019181810190868411156120a657600080fd5b8286015b848110156120c157803583529183019183016120aa565b509695505050505050565b600067ffffffffffffffff8211156120e6576120e6611ff6565b50601f01601f191660200190565b600082601f83011261210557600080fd5b8135612113612082826120cc565b81815284602083860101111561212857600080fd5b816020850160208301376000918101602001919091529392505050565b600082601f83011261215657600080fd5b813560206121666120828361203d565b82815260059290921b8401810191818101908684111561218557600080fd5b8286015b848110156120c157803567ffffffffffffffff8111156121a95760008081fd5b6121b78986838b01016120f4565b845250918301918301612189565b600080604083850312156121d857600080fd5b823567ffffffffffffffff808211156121f057600080fd5b6121fc86838701612061565b9350602085013591508082111561221257600080fd5b5061221f85828601612145565b9150509250929050565b60008060006060848603121561223e57600080fd5b61224784611fb0565b925061225560208501611fb0565b9150604084013590509250925092565b6020808252825182820181905260009190848201906040850190845b818110156122a65783516001600160a01b031683529284019291840191600101612281565b50909695505050505050565b6000602082840312156122c457600080fd5b813567ffffffffffffffff8111156122db57600080fd5b610faf84828501612061565b6000602080830181845280855180835260408601915060408160051b870101925083870160005b8281101561233c57603f1988860301845261232a858351611f58565b9450928501929085019060010161230e565b5092979650505050505050565b80358015158114611fc757600080fd5b600080600080600060a0868803121561237157600080fd5b61237a86611fb0565b945061238860208701611fb0565b93506040860135925061239d60608701612349565b9150608086013567ffffffffffffffff8111156123b957600080fd5b6123c5888289016120f4565b9150509295509295909350565b6000602082840312156123e457600080fd5b61079482611fb0565b600082601f8301126123fe57600080fd5b8135602061240e6120828361203d565b82815260059290921b8401810191818101908684111561242d57600080fd5b8286015b848110156120c15761244281611fb0565b8352918301918301612431565b600082601f83011261246057600080fd5b813560206124706120828361203d565b82815260059290921b8401810191818101908684111561248f57600080fd5b8286015b848110156120c1576124a481612349565b8352918301918301612493565b600080600080600060a086880312156124c957600080fd5b853567ffffffffffffffff808211156124e157600080fd5b6124ed89838a016123ed565b9650602088013591508082111561250357600080fd5b61250f89838a016123ed565b9550604088013591508082111561252557600080fd5b61253189838a01612061565b9450606088013591508082111561254757600080fd5b61255389838a0161244f565b9350608088013591508082111561256957600080fd5b506123c588828901612145565b6000806040838503121561258957600080fd5b82359150602083013567ffffffffffffffff8111156125a757600080fd5b61221f858286016120f4565b600080604083850312156125c657600080fd5b6125cf83611fb0565b91506125dd60208401612349565b90509250929050565b6020808252825182820181905260009190848201906040850190845b818110156122a657835183529284019291840191600101612602565b6000806000806080858703121561263457600080fd5b61263d85611fb0565b93506020850135925061265260408601612349565b9150606085013567ffffffffffffffff81111561266e57600080fd5b61267a878288016120f4565b91505092959194509250565b6000806000806080858703121561269c57600080fd5b6126a585611fb0565b93506126b360208601611fb0565b925060408501359150606085013567ffffffffffffffff81111561266e57600080fd5b600080604083850312156126e957600080fd5b6126f283611fb0565b91506125dd60208401611fb0565b634e487b7160e01b600052601160045260246000fd5b60008282101561272857612728612700565b500390565b634e487b7160e01b600052603260045260246000fd5b600181811c9082168061275757607f821691505b60208210810361088657634e487b7160e01b600052602260045260246000fd5b601f82111561072157600081815260208120601f850160051c8101602086101561279e5750805b601f850160051c820191505b818110156108d3578281556001016127aa565b815167ffffffffffffffff8111156127d7576127d7611ff6565b6127eb816127e58454612743565b84612777565b602080601f83116001811461282057600084156128085750858301515b600019600386901b1c1916600185901b1785556108d3565b600085815260208120601f198616915b8281101561284f57888601518255948401946001909101908401612830565b508582101561286d5787850151600019600388901b60f8161c191681555b5050505050600190811b01905550565b6000821982111561289057612890612700565b500190565b6001600160a01b038416815282151560208201526060604082015260006105746060830184611f58565b60006001600160a01b038087168352808616602084015250836040830152608060608301526128f16080830184611f58565b9695505050505050565b60006020828403121561290d57600080fd5b815161079481611ef9565b634e487b7160e01b600052603160045260246000fd5b60006bffffffffffffffffffffffff19808760601b168352808660601b16601484015250836028830152825161296b816048850160208701611f2c565b9190910160480195945050505050565b828152604060208201526000610faf6040830184611f58565b6000602082840312156129a657600080fd5b815167ffffffffffffffff8111156129bd57600080fd5b8201601f810184136129ce57600080fd5b80516129dc612082826120cc565b8181528560208385010111156129f157600080fd5b610574826020830160208601611f2c56fea26469706673582212205b2ef2e23ee2c5b198f5327dedcc4cdff2e2393188c0d3235738490bf5919d7264736f6c634300080f0033",
  "linkReferences": {},
  "deployedLinkReferences": {}
}