{
  "_format": "hh-sol-artifact-1",
  "contractName": "LSP8MintableInit",
  "sourceName": "contracts/LSP8IdentifiableDigitalAsset/presets/LSP8MintableInit.sol",
  "abi": [
    {
      "inputs": [],
      "stateMutability": "nonpayable",
      "type": "constructor"
    },
    {
      "inputs": [
        {
          "internalType": "uint256",
          "name": "dataKeysLength",
          "type": "uint256"
        },
        {
          "internalType": "uint256",
          "name": "dataValuesLength",
          "type": "uint256"
        }
      ],
      "name": "ERC725Y_DataKeysValuesLengthMismatch",
      "type": "error"
    },
    {
      "inputs": [],
      "name": "LSP4TokenNameNotEditable",
      "type": "error"
    },
    {
      "inputs": [],
      "name": "LSP4TokenSymbolNotEditable",
      "type": "error"
    },
    {
      "inputs": [],
      "name": "LSP8CannotSendToAddressZero",
      "type": "error"
    },
    {
      "inputs": [],
      "name": "LSP8CannotSendToSelf",
      "type": "error"
    },
    {
      "inputs": [],
      "name": "LSP8CannotUseAddressZeroAsOperator",
      "type": "error"
    },
    {
      "inputs": [],
      "name": "LSP8InvalidTransferBatch",
      "type": "error"
    },
    {
      "inputs": [
        {
          "internalType": "bytes32",
          "name": "tokenId",
          "type": "bytes32"
        }
      ],
      "name": "LSP8NonExistentTokenId",
      "type": "error"
    },
    {
      "inputs": [
        {
          "internalType": "address",
          "name": "operator",
          "type": "address"
        },
        {
          "internalType": "bytes32",
          "name": "tokenId",
          "type": "bytes32"
        }
      ],
      "name": "LSP8NonExistingOperator",
      "type": "error"
    },
    {
      "inputs": [
        {
          "internalType": "bytes32",
          "name": "tokenId",
          "type": "bytes32"
        },
        {
          "internalType": "address",
          "name": "caller",
          "type": "address"
        }
      ],
      "name": "LSP8NotTokenOperator",
      "type": "error"
    },
    {
      "inputs": [
        {
          "internalType": "address",
          "name": "tokenOwner",
          "type": "address"
        },
        {
          "internalType": "bytes32",
          "name": "tokenId",
          "type": "bytes32"
        },
        {
          "internalType": "address",
          "name": "caller",
          "type": "address"
        }
      ],
      "name": "LSP8NotTokenOwner",
      "type": "error"
    },
    {
      "inputs": [
        {
          "internalType": "address",
          "name": "tokenReceiver",
          "type": "address"
        }
      ],
      "name": "LSP8NotifyTokenReceiverContractMissingLSP1Interface",
      "type": "error"
    },
    {
      "inputs": [
        {
          "internalType": "address",
          "name": "tokenReceiver",
          "type": "address"
        }
      ],
      "name": "LSP8NotifyTokenReceiverIsEOA",
      "type": "error"
    },
    {
      "inputs": [
        {
          "internalType": "address",
          "name": "operator",
          "type": "address"
        },
        {
          "internalType": "bytes32",
          "name": "tokenId",
          "type": "bytes32"
        }
      ],
      "name": "LSP8OperatorAlreadyAuthorized",
      "type": "error"
    },
    {
      "inputs": [
        {
          "internalType": "bytes32",
          "name": "tokenId",
          "type": "bytes32"
        }
      ],
      "name": "LSP8TokenIdAlreadyMinted",
      "type": "error"
    },
    {
      "anonymous": false,
      "inputs": [
        {
          "indexed": true,
          "internalType": "address",
          "name": "operator",
          "type": "address"
        },
        {
          "indexed": true,
          "internalType": "address",
          "name": "tokenOwner",
          "type": "address"
        },
        {
          "indexed": true,
          "internalType": "bytes32",
          "name": "tokenId",
          "type": "bytes32"
        }
      ],
      "name": "AuthorizedOperator",
      "type": "event"
    },
    {
      "anonymous": false,
      "inputs": [
        {
          "indexed": true,
          "internalType": "bytes32",
          "name": "dataKey",
          "type": "bytes32"
        },
        {
          "indexed": false,
          "internalType": "bytes",
          "name": "dataValue",
          "type": "bytes"
        }
      ],
      "name": "DataChanged",
      "type": "event"
    },
    {
      "anonymous": false,
      "inputs": [
        {
          "indexed": false,
          "internalType": "uint8",
          "name": "version",
          "type": "uint8"
        }
      ],
      "name": "Initialized",
      "type": "event"
    },
    {
      "anonymous": false,
      "inputs": [
        {
          "indexed": true,
          "internalType": "address",
          "name": "previousOwner",
          "type": "address"
        },
        {
          "indexed": true,
          "internalType": "address",
          "name": "newOwner",
          "type": "address"
        }
      ],
      "name": "OwnershipTransferred",
      "type": "event"
    },
    {
      "anonymous": false,
      "inputs": [
        {
          "indexed": true,
          "internalType": "address",
          "name": "operator",
          "type": "address"
        },
        {
          "indexed": true,
          "internalType": "address",
          "name": "tokenOwner",
          "type": "address"
        },
        {
          "indexed": true,
          "internalType": "bytes32",
          "name": "tokenId",
          "type": "bytes32"
        }
      ],
      "name": "RevokedOperator",
      "type": "event"
    },
    {
      "anonymous": false,
      "inputs": [
        {
          "indexed": false,
          "internalType": "address",
          "name": "operator",
          "type": "address"
        },
        {
          "indexed": true,
          "internalType": "address",
          "name": "from",
          "type": "address"
        },
        {
          "indexed": true,
          "internalType": "address",
          "name": "to",
          "type": "address"
        },
        {
          "indexed": true,
          "internalType": "bytes32",
          "name": "tokenId",
          "type": "bytes32"
        },
        {
          "indexed": false,
          "internalType": "bool",
          "name": "allowNonLSP1Recipient",
          "type": "bool"
        },
        {
          "indexed": false,
          "internalType": "bytes",
          "name": "data",
          "type": "bytes"
        }
      ],
      "name": "Transfer",
      "type": "event"
    },
    {
      "inputs": [
        {
          "internalType": "address",
          "name": "operator",
          "type": "address"
        },
        {
          "internalType": "bytes32",
          "name": "tokenId",
          "type": "bytes32"
        }
      ],
      "name": "authorizeOperator",
      "outputs": [],
      "stateMutability": "nonpayable",
      "type": "function"
    },
    {
      "inputs": [
        {
          "internalType": "address",
          "name": "tokenOwner",
          "type": "address"
        }
      ],
      "name": "balanceOf",
      "outputs": [
        {
          "internalType": "uint256",
          "name": "",
          "type": "uint256"
        }
      ],
      "stateMutability": "view",
      "type": "function"
    },
    {
      "inputs": [
        {
          "internalType": "bytes32[]",
          "name": "dataKeys",
          "type": "bytes32[]"
        }
      ],
      "name": "getData",
      "outputs": [
        {
          "internalType": "bytes[]",
          "name": "dataValues",
          "type": "bytes[]"
        }
      ],
      "stateMutability": "view",
      "type": "function"
    },
    {
      "inputs": [
        {
          "internalType": "bytes32",
          "name": "dataKey",
          "type": "bytes32"
        }
      ],
      "name": "getData",
      "outputs": [
        {
          "internalType": "bytes",
          "name": "dataValue",
          "type": "bytes"
        }
      ],
      "stateMutability": "view",
      "type": "function"
    },
    {
      "inputs": [
        {
          "internalType": "bytes32",
          "name": "tokenId",
          "type": "bytes32"
        }
      ],
      "name": "getOperatorsOf",
      "outputs": [
        {
          "internalType": "address[]",
          "name": "",
          "type": "address[]"
        }
      ],
      "stateMutability": "view",
      "type": "function"
    },
    {
      "inputs": [
        {
          "internalType": "string",
          "name": "name_",
          "type": "string"
        },
        {
          "internalType": "string",
          "name": "symbol_",
          "type": "string"
        },
        {
          "internalType": "address",
          "name": "newOwner_",
          "type": "address"
        }
      ],
      "name": "initialize",
      "outputs": [],
      "stateMutability": "nonpayable",
      "type": "function"
    },
    {
      "inputs": [
        {
          "internalType": "address",
          "name": "operator",
          "type": "address"
        },
        {
          "internalType": "bytes32",
          "name": "tokenId",
          "type": "bytes32"
        }
      ],
      "name": "isOperatorFor",
      "outputs": [
        {
          "internalType": "bool",
          "name": "",
          "type": "bool"
        }
      ],
      "stateMutability": "view",
      "type": "function"
    },
    {
      "inputs": [
        {
          "internalType": "address",
          "name": "to",
          "type": "address"
        },
        {
          "internalType": "bytes32",
          "name": "tokenId",
          "type": "bytes32"
        },
        {
          "internalType": "bool",
          "name": "allowNonLSP1Recipient",
          "type": "bool"
        },
        {
          "internalType": "bytes",
          "name": "data",
          "type": "bytes"
        }
      ],
      "name": "mint",
      "outputs": [],
      "stateMutability": "nonpayable",
      "type": "function"
    },
    {
      "inputs": [],
      "name": "owner",
      "outputs": [
        {
          "internalType": "address",
          "name": "",
          "type": "address"
        }
      ],
      "stateMutability": "view",
      "type": "function"
    },
    {
      "inputs": [],
      "name": "renounceOwnership",
      "outputs": [],
      "stateMutability": "nonpayable",
      "type": "function"
    },
    {
      "inputs": [
        {
          "internalType": "address",
          "name": "operator",
          "type": "address"
        },
        {
          "internalType": "bytes32",
          "name": "tokenId",
          "type": "bytes32"
        }
      ],
      "name": "revokeOperator",
      "outputs": [],
      "stateMutability": "nonpayable",
      "type": "function"
    },
    {
      "inputs": [
        {
          "internalType": "bytes32[]",
          "name": "dataKeys",
          "type": "bytes32[]"
        },
        {
          "internalType": "bytes[]",
          "name": "dataValues",
          "type": "bytes[]"
        }
      ],
      "name": "setData",
      "outputs": [],
      "stateMutability": "nonpayable",
      "type": "function"
    },
    {
      "inputs": [
        {
          "internalType": "bytes32",
          "name": "dataKey",
          "type": "bytes32"
        },
        {
          "internalType": "bytes",
          "name": "dataValue",
          "type": "bytes"
        }
      ],
      "name": "setData",
      "outputs": [],
      "stateMutability": "nonpayable",
      "type": "function"
    },
    {
      "inputs": [
        {
          "internalType": "bytes4",
          "name": "interfaceId",
          "type": "bytes4"
        }
      ],
      "name": "supportsInterface",
      "outputs": [
        {
          "internalType": "bool",
          "name": "",
          "type": "bool"
        }
      ],
      "stateMutability": "view",
      "type": "function"
    },
    {
      "inputs": [
        {
          "internalType": "address",
          "name": "tokenOwner",
          "type": "address"
        }
      ],
      "name": "tokenIdsOf",
      "outputs": [
        {
          "internalType": "bytes32[]",
          "name": "",
          "type": "bytes32[]"
        }
      ],
      "stateMutability": "view",
      "type": "function"
    },
    {
      "inputs": [
        {
          "internalType": "bytes32",
          "name": "tokenId",
          "type": "bytes32"
        }
      ],
      "name": "tokenOwnerOf",
      "outputs": [
        {
          "internalType": "address",
          "name": "",
          "type": "address"
        }
      ],
      "stateMutability": "view",
      "type": "function"
    },
    {
      "inputs": [],
      "name": "totalSupply",
      "outputs": [
        {
          "internalType": "uint256",
          "name": "",
          "type": "uint256"
        }
      ],
      "stateMutability": "view",
      "type": "function"
    },
    {
      "inputs": [
        {
          "internalType": "address",
          "name": "from",
          "type": "address"
        },
        {
          "internalType": "address",
          "name": "to",
          "type": "address"
        },
        {
          "internalType": "bytes32",
          "name": "tokenId",
          "type": "bytes32"
        },
        {
          "internalType": "bool",
          "name": "allowNonLSP1Recipient",
          "type": "bool"
        },
        {
          "internalType": "bytes",
          "name": "data",
          "type": "bytes"
        }
      ],
      "name": "transfer",
      "outputs": [],
      "stateMutability": "nonpayable",
      "type": "function"
    },
    {
      "inputs": [
        {
          "internalType": "address[]",
          "name": "from",
          "type": "address[]"
        },
        {
          "internalType": "address[]",
          "name": "to",
          "type": "address[]"
        },
        {
          "internalType": "bytes32[]",
          "name": "tokenId",
          "type": "bytes32[]"
        },
        {
          "internalType": "bool[]",
          "name": "allowNonLSP1Recipient",
          "type": "bool[]"
        },
        {
          "internalType": "bytes[]",
          "name": "data",
          "type": "bytes[]"
        }
      ],
      "name": "transferBatch",
      "outputs": [],
      "stateMutability": "nonpayable",
      "type": "function"
    },
    {
      "inputs": [
        {
          "internalType": "address",
          "name": "newOwner",
          "type": "address"
        }
      ],
      "name": "transferOwnership",
      "outputs": [],
      "stateMutability": "nonpayable",
      "type": "function"
    }
  ],
  "bytecode": "0x60806040523480156200001157600080fd5b506200001c62000022565b620000e4565b600054610100900460ff16156200008f5760405162461bcd60e51b815260206004820152602760248201527f496e697469616c697a61626c653a20636f6e747261637420697320696e697469604482015266616c697a696e6760c81b606482015260840160405180910390fd5b60005460ff9081161015620000e2576000805460ff191660ff9081179091556040519081527f7f26b83ff96e1f2b6a682f133852f6798a09c465da95921460cefb38474024989060200160405180910390a15b565b6125eb80620000f46000396000f3fe608060405234801561001057600080fd5b506004361061016c5760003560e01c806354f6127f116100cd5780638da5cb5b11610081578063af255b6111610066578063af255b611461030f578063cf5182ba14610322578063f2fde38b1461033557600080fd5b80638da5cb5b146102d8578063a3b261f2146102ef57600080fd5b8063715018a6116100b2578063715018a6146102aa5780637e87632c146102b25780637f23690c146102c557600080fd5b806354f6127f1461027757806370a082311461029757600080fd5b8063217b22701161012457806349a6078d1161010957806349a6078d146102245780634e3e6e9c14610244578063511b69521461026457600080fd5b8063217b2270146101e65780632a3654a41461021157600080fd5b80630b0c6d82116101555780630b0c6d82146101ae57806314a6e293146101c157806318160ddd146101d457600080fd5b806301ffc9a714610171578063077f224a14610199575b600080fd5b61018461017f366004611b7a565b610348565b60405190151581526020015b60405180910390f35b6101ac6101a7366004611c85565b61038c565b005b6101ac6101bc366004611cf9565b6104b7565b6101ac6101cf366004611e2d565b610559565b6002545b604051908152602001610190565b6101f96101f4366004611e91565b6105fe565b6040516001600160a01b039091168152602001610190565b61018461021f366004611cf9565b610637565b610237610232366004611e91565b610653565b6040516101909190611eaa565b610257610252366004611ef7565b610675565b6040516101909190611f84565b6101ac610272366004611ff6565b610729565b61028a610285366004611e91565b610791565b604051610190919061206f565b6101d86102a5366004612082565b61079c565b6101ac6107bd565b6101ac6102c0366004612161565b6107d1565b6101ac6102d3366004612226565b6108d9565b6000546201000090046001600160a01b03166101f9565b6103026102fd366004612082565b6108ef565b6040516101909190612263565b6101ac61031d36600461229b565b610913565b6101ac610330366004611cf9565b610927565b6101ac610343366004612082565b610a69565b60006001600160e01b031982167f622e7a01000000000000000000000000000000000000000000000000000000001480610386575061038682610af9565b92915050565b600054610100900460ff16158080156103ac5750600054600160ff909116105b806103c65750303b1580156103c6575060005460ff166001145b61043d5760405162461bcd60e51b815260206004820152602e60248201527f496e697469616c697a61626c653a20636f6e747261637420697320616c72656160448201527f647920696e697469616c697a656400000000000000000000000000000000000060648201526084015b60405180910390fd5b6000805460ff191660011790558015610460576000805461ff0019166101001790555b61046b848484610b47565b80156104b1576000805461ff0019169055604051600181527f7f26b83ff96e1f2b6a682f133852f6798a09c465da95921460cefb38474024989060200160405180910390a15b50505050565b60006104c2826105fe565b9050336001600160a01b038216811461050857604051632d938f5160e11b81526001600160a01b0380841660048301526024820185905282166044820152606401610434565b6001600160a01b03841661052f57604051639577b8b360e01b815260040160405180910390fd5b836001600160a01b0316826001600160a01b03160361054e5750505050565b6104b1848385610bbd565b610561610c67565b80518251146105a957815181516040517f43a3c26600000000000000000000000000000000000000000000000000000000815260048101929092526024820152604401610434565b60005b82518110156105f9576105f18382815181106105ca576105ca612303565b60200260200101518383815181106105e4576105e4612303565b6020026020010151610cc8565b6001016105ac565b505050565b6000818152600360205260408120546001600160a01b03168061038657604051635747cd1b60e11b815260048101849052602401610434565b600061064282610dee565b61064c8383610e26565b9392505050565b606061065e82610dee565b600082815260056020526040902061038690610e6f565b6060815167ffffffffffffffff81111561069157610691611ba4565b6040519080825280602002602001820160405280156106c457816020015b60608152602001906001900390816106af5790505b50905060005b8251811015610723576106f58382815181106106e8576106e8612303565b6020026020010151610e7c565b82828151811061070757610707612303565b602002602001018190525061071c8160010190565b90506106ca565b50919050565b336107348185610e26565b61077c576040517f1294d2a9000000000000000000000000000000000000000000000000000000008152600481018590526001600160a01b0382166024820152604401610434565b6107898686868686610f1e565b505050505050565b606061038682610e7c565b6001600160a01b0381166000908152600460205260408120610386906110ce565b6107c5610c67565b6107cf60006110d8565b565b84518451811415806107e4575083518114155b806107f0575082518114155b806107fc575081518114155b15610833576040517f93a8311900000000000000000000000000000000000000000000000000000000815260040160405180910390fd5b60005b818110156108d0576108c887828151811061085357610853612303565b602002602001015187838151811061086d5761086d612303565b602002602001015187848151811061088757610887612303565b60200260200101518785815181106108a1576108a1612303565b60200260200101518786815181106108bb576108bb612303565b6020026020010151610729565b600101610836565b50505050505050565b6108e1610c67565b6108eb8282610cc8565b5050565b6001600160a01b038116600090815260046020526040902060609061038690610e6f565b61091b610c67565b6104b184848484611164565b6000610932826105fe565b9050336001600160a01b038216811461097857604051632d938f5160e11b81526001600160a01b0380841660048301526024820185905282166044820152606401610434565b6001600160a01b03841661099f57604051639577b8b360e01b815260040160405180910390fd5b836001600160a01b0316826001600160a01b0316036109be5750505050565b60008381526005602052604081206109d690866112a4565b905080610a21576040517fa7626b680000000000000000000000000000000000000000000000000000000081526001600160a01b038616600482015260248101859052604401610434565b83836001600160a01b0316866001600160a01b03167f34b797fc5a526f7bf1d2b5de25f6564fd85ae364e3ee939aee7c1ac27871a98860405160405180910390a45050505050565b610a71610c67565b6001600160a01b038116610aed5760405162461bcd60e51b815260206004820152602660248201527f4f776e61626c653a206e6577206f776e657220697320746865207a65726f206160448201527f64647265737300000000000000000000000000000000000000000000000000006064820152608401610434565b610af6816110d8565b50565b60006001600160e01b031982167f714df77c00000000000000000000000000000000000000000000000000000000148061038657506301ffc9a760e01b6001600160e01b0319831614610386565b600054610100900460ff16610bb25760405162461bcd60e51b815260206004820152602b60248201527f496e697469616c697a61626c653a20636f6e7472616374206973206e6f74206960448201526a6e697469616c697a696e6760a81b6064820152608401610434565b6105f98383836112b9565b6000818152600560205260408120610bd5908561132f565b905080610c20576040517f4aa31a8c0000000000000000000000000000000000000000000000000000000081526001600160a01b038516600482015260248101839052604401610434565b81836001600160a01b0316856001600160a01b03167f17d5389f6ab6adb2647dfa0aa365c323d37adacc30b33a65310b6158ce1373d560405160405180910390a450505050565b6000546001600160a01b03620100009091041633146107cf5760405162461bcd60e51b815260206004820181905260248201527f4f776e61626c653a2063616c6c6572206973206e6f7420746865206f776e65726044820152606401610434565b7f2145e1d6d074577dc71ef54c3807742b41b053a9352ae6b491331509acb9750f8201610d21576040517f85c169bd00000000000000000000000000000000000000000000000000000000815260040160405180910390fd5b7fd0f59754f88971fe6bc5a6618cc9d5f1e859c58d16b22d1c7b2d3e2b246cd8aa8201610d7a576040517f76755b3800000000000000000000000000000000000000000000000000000000815260040160405180910390fd5b6000828152600160205260409020610d928282612393565b50817fece574603820d07bc9b91f2a932baadf4628aabcb8afba49776529c14a6104b261010083511115610dd357610dce836000610100611344565b610dd5565b825b604051610de2919061206f565b60405180910390a25050565b6000818152600360205260409020546001600160a01b0316610af657604051635747cd1b60e11b815260048101829052602401610434565b600080610e32836105fe565b9050806001600160a01b0316846001600160a01b03161480610e6757506000838152600560205260409020610e67908561146c565b949350505050565b6060600061064c8361148e565b6000818152600160205260409020805460609190610e9990612319565b80601f0160208091040260200160405190810160405280929190818152602001828054610ec590612319565b8015610f125780601f10610ee757610100808354040283529160200191610f12565b820191906000526020600020905b815481529060010190602001808311610ef557829003601f168201915b50505050509050919050565b836001600160a01b0316856001600160a01b031603610f69576040517f5d67d6c100000000000000000000000000000000000000000000000000000000815260040160405180910390fd5b6000610f74846105fe565b9050856001600160a01b0316816001600160a01b031614610fc257604051632d938f5160e11b81526001600160a01b0380831660048301526024820186905287166044820152606401610434565b6001600160a01b038516610fe9576040516324ecef4d60e01b815260040160405180910390fd5b33610ff487866114e9565b6001600160a01b03871660009081526004602052604090206110169086611530565b506001600160a01b0386166000908152600460205260409020611039908661153c565b5060008581526003602052604090819020805473ffffffffffffffffffffffffffffffffffffffff19166001600160a01b0389811691821790925591518792918a16907fb333c813a7426a7a11e2b190cad52c44119421594b47f6f32ace6d8c7207b2bf906110ad9086908a908a90612453565b60405180910390a46110c187878786611548565b6108d0878787878761161c565b6000610386825490565b6000546001600160a01b03828116620100009092041614610af657600080546001600160a01b03838116620100008181027fffffffffffffffffffff0000000000000000000000000000000000000000ffff851617855560405193049190911692909183917f8be0079c531659141344cd1fd0a4f28419497f9722a3daafe3b4186f6b6457e091a35050565b6001600160a01b03841661118b576040516324ecef4d60e01b815260040160405180910390fd5b6000838152600360205260409020546001600160a01b0316156111dd576040517f34c7b51100000000000000000000000000000000000000000000000000000000815260048101849052602401610434565b336001600260008282546111f1919061249c565b90915550506001600160a01b0385166000908152600460205260409020611218908561153c565b50600084815260036020526040808220805473ffffffffffffffffffffffffffffffffffffffff19166001600160a01b03891690811790915590518692907fb333c813a7426a7a11e2b190cad52c44119421594b47f6f32ace6d8c7207b2bf9061128790869089908990612453565b60405180910390a461129d60008686868661161c565b5050505050565b600061064c836001600160a01b038416611786565b600054610100900460ff166113245760405162461bcd60e51b815260206004820152602b60248201527f496e697469616c697a61626c653a20636f6e7472616374206973206e6f74206960448201526a6e697469616c697a696e6760a81b6064820152608401610434565b6105f98383836117d5565b600061064c836001600160a01b0384166118ff565b60608161135281601f61249c565b10156113a05760405162461bcd60e51b815260206004820152600e60248201527f736c6963655f6f766572666c6f770000000000000000000000000000000000006044820152606401610434565b6113aa828461249c565b845110156113fa5760405162461bcd60e51b815260206004820152601160248201527f736c6963655f6f75744f66426f756e64730000000000000000000000000000006044820152606401610434565b6060821580156114195760405191506000825260208201604052611463565b6040519150601f8416801560200281840101858101878315602002848b0101015b8183101561145257805183526020928301920161143a565b5050858452601f01601f1916604052505b50949350505050565b6001600160a01b0381166000908152600183016020526040812054151561064c565b606081600001805480602002602001604051908101604052809291908181526020018280548015610f1257602002820191906000526020600020905b8154815260200190600101908083116114ca5750505050509050919050565b600081815260056020526040812090611501826110ce565b905060005b8181101561129d57600061151a84826119f2565b9050611527818787610bbd565b50600101611506565b600061064c83836118ff565b600061064c8383611786565b61155984631aed5a8560e21b6119fe565b156104b15760008484848460405160200161157794939291906124b4565b60408051601f1981840301815290829052631aed5a8560e21b825291506001600160a01b03861690636bb56a14906115d5907fb23eae7e6d1564b295b4c3e3be402d9a2f0776c57bdf365903496f6fa481ab00908590600401612501565b6000604051808303816000875af11580156115f4573d6000803e3d6000fd5b505050506040513d6000823e601f3d908101601f19168201604052610789919081019061251a565b61162d84631aed5a8560e21b6119fe565b156116f75760008585858460405160200161164b94939291906124b4565b60408051601f1981840301815290829052631aed5a8560e21b825291506001600160a01b03861690636bb56a14906116a9907f0b084a55ebf70fd3c06fd755269dac2212c4d3f0f4d09079780bfa50c1b2984d908590600401612501565b6000604051808303816000875af11580156116c8573d6000803e3d6000fd5b505050506040513d6000823e601f3d908101601f191682016040526116f0919081019061251a565b505061129d565b8161129d576001600160a01b0384163b15611749576040517f4349776d0000000000000000000000000000000000000000000000000000000081526001600160a01b0385166004820152602401610434565b6040517f031731370000000000000000000000000000000000000000000000000000000081526001600160a01b0385166004820152602401610434565b60008181526001830160205260408120546117cd57508154600181810184556000848152602080822090930184905584548482528286019093526040902091909155610386565b506000610386565b600054610100900460ff166118405760405162461bcd60e51b815260206004820152602b60248201527f496e697469616c697a61626c653a20636f6e7472616374206973206e6f74206960448201526a6e697469616c697a696e6760a81b6064820152608401610434565b61184981611a9c565b6118ab7feafec4d89fa9619884b60000a4d96624a38f7ac2d8d9a604ecf07c12c77e480c60001b6040518060400160405280600481526020017fa4d9662400000000000000000000000000000000000000000000000000000000815250611b07565b6118d57fdeba1e292f8ba88238e10ab3c7f88bd4be4fac56cad5194b6ecceaf653468af184611b07565b6105f97f2f0a68ab07768e01943a599e73362a0e17a63a72e94dd2e384d2c1d4db93275683611b07565b600081815260018301602052604081205480156119e8576000611923600183612588565b855490915060009061193790600190612588565b905081811461199c57600086600001828154811061195757611957612303565b906000526020600020015490508087600001848154811061197a5761197a612303565b6000918252602080832090910192909255918252600188019052604090208390555b85548690806119ad576119ad61259f565b600190038181906000526020600020016000905590558560010160008681526020019081526020016000206000905560019350505050610386565b6000915050610386565b600061064c8383611b50565b604080516001600160e01b03198316602480830191909152825180830390910181526044909101909152602080820180517bffffffffffffffffffffffffffffffffffffffffffffffffffffffff166301ffc9a760e01b178152825160009392849283928392918391908a617530fa92503d91506000519050828015611a85575060208210155b8015611a915750600081115b979650505050505050565b600054610100900460ff16610a715760405162461bcd60e51b815260206004820152602b60248201527f496e697469616c697a61626c653a20636f6e7472616374206973206e6f74206960448201526a6e697469616c697a696e6760a81b6064820152608401610434565b6000828152600160205260409020611b1f8282612393565b50817fece574603820d07bc9b91f2a932baadf4628aabcb8afba49776529c14a6104b282604051610de2919061206f565b6000826000018281548110611b6757611b67612303565b9060005260206000200154905092915050565b600060208284031215611b8c57600080fd5b81356001600160e01b03198116811461064c57600080fd5b634e487b7160e01b600052604160045260246000fd5b604051601f8201601f1916810167ffffffffffffffff81118282101715611be357611be3611ba4565b604052919050565b600067ffffffffffffffff821115611c0557611c05611ba4565b50601f01601f191660200190565b600082601f830112611c2457600080fd5b8135611c37611c3282611beb565b611bba565b818152846020838601011115611c4c57600080fd5b816020850160208301376000918101602001919091529392505050565b80356001600160a01b0381168114611c8057600080fd5b919050565b600080600060608486031215611c9a57600080fd5b833567ffffffffffffffff80821115611cb257600080fd5b611cbe87838801611c13565b94506020860135915080821115611cd457600080fd5b50611ce186828701611c13565b925050611cf060408501611c69565b90509250925092565b60008060408385031215611d0c57600080fd5b611d1583611c69565b946020939093013593505050565b600067ffffffffffffffff821115611d3d57611d3d611ba4565b5060051b60200190565b600082601f830112611d5857600080fd5b81356020611d68611c3283611d23565b82815260059290921b84018101918181019086841115611d8757600080fd5b8286015b84811015611da25780358352918301918301611d8b565b509695505050505050565b600082601f830112611dbe57600080fd5b81356020611dce611c3283611d23565b82815260059290921b84018101918181019086841115611ded57600080fd5b8286015b84811015611da257803567ffffffffffffffff811115611e115760008081fd5b611e1f8986838b0101611c13565b845250918301918301611df1565b60008060408385031215611e4057600080fd5b823567ffffffffffffffff80821115611e5857600080fd5b611e6486838701611d47565b93506020850135915080821115611e7a57600080fd5b50611e8785828601611dad565b9150509250929050565b600060208284031215611ea357600080fd5b5035919050565b6020808252825182820181905260009190848201906040850190845b81811015611eeb5783516001600160a01b031683529284019291840191600101611ec6565b50909695505050505050565b600060208284031215611f0957600080fd5b813567ffffffffffffffff811115611f2057600080fd5b610e6784828501611d47565b60005b83811015611f47578181015183820152602001611f2f565b838111156104b15750506000910152565b60008151808452611f70816020860160208601611f2c565b601f01601f19169290920160200192915050565b6000602080830181845280855180835260408601915060408160051b870101925083870160005b82811015611fd957603f19888603018452611fc7858351611f58565b94509285019290850190600101611fab565b5092979650505050505050565b80358015158114611c8057600080fd5b600080600080600060a0868803121561200e57600080fd5b61201786611c69565b945061202560208701611c69565b93506040860135925061203a60608701611fe6565b9150608086013567ffffffffffffffff81111561205657600080fd5b61206288828901611c13565b9150509295509295909350565b60208152600061064c6020830184611f58565b60006020828403121561209457600080fd5b61064c82611c69565b600082601f8301126120ae57600080fd5b813560206120be611c3283611d23565b82815260059290921b840181019181810190868411156120dd57600080fd5b8286015b84811015611da2576120f281611c69565b83529183019183016120e1565b600082601f83011261211057600080fd5b81356020612120611c3283611d23565b82815260059290921b8401810191818101908684111561213f57600080fd5b8286015b84811015611da25761215481611fe6565b8352918301918301612143565b600080600080600060a0868803121561217957600080fd5b853567ffffffffffffffff8082111561219157600080fd5b61219d89838a0161209d565b965060208801359150808211156121b357600080fd5b6121bf89838a0161209d565b955060408801359150808211156121d557600080fd5b6121e189838a01611d47565b945060608801359150808211156121f757600080fd5b61220389838a016120ff565b9350608088013591508082111561221957600080fd5b5061206288828901611dad565b6000806040838503121561223957600080fd5b82359150602083013567ffffffffffffffff81111561225757600080fd5b611e8785828601611c13565b6020808252825182820181905260009190848201906040850190845b81811015611eeb5783518352928401929184019160010161227f565b600080600080608085870312156122b157600080fd5b6122ba85611c69565b9350602085013592506122cf60408601611fe6565b9150606085013567ffffffffffffffff8111156122eb57600080fd5b6122f787828801611c13565b91505092959194509250565b634e487b7160e01b600052603260045260246000fd5b600181811c9082168061232d57607f821691505b60208210810361072357634e487b7160e01b600052602260045260246000fd5b601f8211156105f957600081815260208120601f850160051c810160208610156123745750805b601f850160051c820191505b8181101561078957828155600101612380565b815167ffffffffffffffff8111156123ad576123ad611ba4565b6123c1816123bb8454612319565b8461234d565b602080601f8311600181146123f657600084156123de5750858301515b600019600386901b1c1916600185901b178555610789565b600085815260208120601f198616915b8281101561242557888601518255948401946001909101908401612406565b50858210156124435787850151600019600388901b60f8161c191681555b5050505050600190811b01905550565b6001600160a01b0384168152821515602082015260606040820152600061247d6060830184611f58565b95945050505050565b634e487b7160e01b600052601160045260246000fd5b600082198211156124af576124af612486565b500190565b60006bffffffffffffffffffffffff19808760601b168352808660601b1660148401525083602883015282516124f1816048850160208701611f2c565b9190910160480195945050505050565b828152604060208201526000610e676040830184611f58565b60006020828403121561252c57600080fd5b815167ffffffffffffffff81111561254357600080fd5b8201601f8101841361255457600080fd5b8051612562611c3282611beb565b81815285602083850101111561257757600080fd5b61247d826020830160208601611f2c565b60008282101561259a5761259a612486565b500390565b634e487b7160e01b600052603160045260246000fdfea2646970667358221220802662e8c04773e00e343332c12c3e3bcc63d74171ae7231de58e045d92bcf0464736f6c634300080f0033",
  "linkReferences": {},
  "deployedLinkReferences": {}
}