{
  "_format": "hh-sol-artifact-1",
  "contractName": "LSP9VaultInit",
  "sourceName": "contracts/LSP9Vault/LSP9VaultInit.sol",
  "abi": [
    {
      "inputs": [],
      "stateMutability": "nonpayable",
      "type": "constructor"
    },
    {
      "inputs": [],
      "name": "CannotTransferOwnershipToSelf",
      "type": "error"
    },
    {
      "inputs": [],
      "name": "ERC725X_ContractDeploymentFailed",
      "type": "error"
    },
    {
      "inputs": [],
      "name": "ERC725X_CreateOperationsRequireEmptyRecipientAddress",
      "type": "error"
    },
    {
      "inputs": [],
      "name": "ERC725X_ExecuteParametersLengthMismatch",
      "type": "error"
    },
    {
      "inputs": [
        {
          "internalType": "uint256",
          "name": "balance",
          "type": "uint256"
        },
        {
          "internalType": "uint256",
          "name": "value",
          "type": "uint256"
        }
      ],
      "name": "ERC725X_InsufficientBalance",
      "type": "error"
    },
    {
      "inputs": [],
      "name": "ERC725X_MsgValueDisallowedInStaticCall",
      "type": "error"
    },
    {
      "inputs": [],
      "name": "ERC725X_NoContractBytecodeProvided",
      "type": "error"
    },
    {
      "inputs": [
        {
          "internalType": "uint256",
          "name": "operationTypeProvided",
          "type": "uint256"
        }
      ],
      "name": "ERC725X_UnknownOperationType",
      "type": "error"
    },
    {
      "inputs": [
        {
          "internalType": "uint256",
          "name": "dataKeysLength",
          "type": "uint256"
        },
        {
          "internalType": "uint256",
          "name": "dataValuesLength",
          "type": "uint256"
        }
      ],
      "name": "ERC725Y_DataKeysValuesLengthMismatch",
      "type": "error"
    },
    {
      "inputs": [
        {
          "internalType": "bytes32",
          "name": "dataKey",
          "type": "bytes32"
        }
      ],
      "name": "LSP1DelegateNotAllowedToSetDataKey",
      "type": "error"
    },
    {
      "inputs": [
        {
          "internalType": "bytes4",
          "name": "functionSelector",
          "type": "bytes4"
        }
      ],
      "name": "NoExtensionFoundForFunctionSelector",
      "type": "error"
    },
    {
      "inputs": [
        {
          "internalType": "uint256",
          "name": "renounceOwnershipStart",
          "type": "uint256"
        },
        {
          "internalType": "uint256",
          "name": "renounceOwnershipEnd",
          "type": "uint256"
        }
      ],
      "name": "NotInRenounceOwnershipInterval",
      "type": "error"
    },
    {
      "anonymous": false,
      "inputs": [
        {
          "indexed": true,
          "internalType": "uint256",
          "name": "operationType",
          "type": "uint256"
        },
        {
          "indexed": true,
          "internalType": "address",
          "name": "contractAddress",
          "type": "address"
        },
        {
          "indexed": true,
          "internalType": "uint256",
          "name": "value",
          "type": "uint256"
        },
        {
          "indexed": false,
          "internalType": "bytes32",
          "name": "salt",
          "type": "bytes32"
        }
      ],
      "name": "ContractCreated",
      "type": "event"
    },
    {
      "anonymous": false,
      "inputs": [
        {
          "indexed": true,
          "internalType": "bytes32",
          "name": "dataKey",
          "type": "bytes32"
        },
        {
          "indexed": false,
          "internalType": "bytes",
          "name": "dataValue",
          "type": "bytes"
        }
      ],
      "name": "DataChanged",
      "type": "event"
    },
    {
      "anonymous": false,
      "inputs": [
        {
          "indexed": true,
          "internalType": "uint256",
          "name": "operationType",
          "type": "uint256"
        },
        {
          "indexed": true,
          "internalType": "address",
          "name": "target",
          "type": "address"
        },
        {
          "indexed": true,
          "internalType": "uint256",
          "name": "value",
          "type": "uint256"
        },
        {
          "indexed": false,
          "internalType": "bytes4",
          "name": "selector",
          "type": "bytes4"
        }
      ],
      "name": "Executed",
      "type": "event"
    },
    {
      "anonymous": false,
      "inputs": [
        {
          "indexed": false,
          "internalType": "uint8",
          "name": "version",
          "type": "uint8"
        }
      ],
      "name": "Initialized",
      "type": "event"
    },
    {
      "anonymous": false,
      "inputs": [],
      "name": "OwnershipRenounced",
      "type": "event"
    },
    {
      "anonymous": false,
      "inputs": [
        {
          "indexed": true,
          "internalType": "address",
          "name": "previousOwner",
          "type": "address"
        },
        {
          "indexed": true,
          "internalType": "address",
          "name": "newOwner",
          "type": "address"
        }
      ],
      "name": "OwnershipTransferStarted",
      "type": "event"
    },
    {
      "anonymous": false,
      "inputs": [
        {
          "indexed": true,
          "internalType": "address",
          "name": "previousOwner",
          "type": "address"
        },
        {
          "indexed": true,
          "internalType": "address",
          "name": "newOwner",
          "type": "address"
        }
      ],
      "name": "OwnershipTransferred",
      "type": "event"
    },
    {
      "anonymous": false,
      "inputs": [],
      "name": "RenounceOwnershipStarted",
      "type": "event"
    },
    {
      "anonymous": false,
      "inputs": [
        {
          "indexed": true,
          "internalType": "address",
          "name": "from",
          "type": "address"
        },
        {
          "indexed": true,
          "internalType": "uint256",
          "name": "value",
          "type": "uint256"
        },
        {
          "indexed": true,
          "internalType": "bytes32",
          "name": "typeId",
          "type": "bytes32"
        },
        {
          "indexed": false,
          "internalType": "bytes",
          "name": "receivedData",
          "type": "bytes"
        },
        {
          "indexed": false,
          "internalType": "bytes",
          "name": "returnedValue",
          "type": "bytes"
        }
      ],
      "name": "UniversalReceiver",
      "type": "event"
    },
    {
      "anonymous": false,
      "inputs": [
        {
          "indexed": true,
          "internalType": "address",
          "name": "sender",
          "type": "address"
        },
        {
          "indexed": true,
          "internalType": "uint256",
          "name": "value",
          "type": "uint256"
        }
      ],
      "name": "ValueReceived",
      "type": "event"
    },
    {
      "stateMutability": "payable",
      "type": "fallback"
    },
    {
      "inputs": [],
      "name": "RENOUNCE_OWNERSHIP_CONFIRMATION_DELAY",
      "outputs": [
        {
          "internalType": "uint256",
          "name": "",
          "type": "uint256"
        }
      ],
      "stateMutability": "view",
      "type": "function"
    },
    {
      "inputs": [],
      "name": "RENOUNCE_OWNERSHIP_CONFIRMATION_PERIOD",
      "outputs": [
        {
          "internalType": "uint256",
          "name": "",
          "type": "uint256"
        }
      ],
      "stateMutability": "view",
      "type": "function"
    },
    {
      "inputs": [],
      "name": "acceptOwnership",
      "outputs": [],
      "stateMutability": "nonpayable",
      "type": "function"
    },
    {
      "inputs": [
        {
          "internalType": "uint256[]",
          "name": "operationsType",
          "type": "uint256[]"
        },
        {
          "internalType": "address[]",
          "name": "targets",
          "type": "address[]"
        },
        {
          "internalType": "uint256[]",
          "name": "values",
          "type": "uint256[]"
        },
        {
          "internalType": "bytes[]",
          "name": "datas",
          "type": "bytes[]"
        }
      ],
      "name": "execute",
      "outputs": [
        {
          "internalType": "bytes[]",
          "name": "",
          "type": "bytes[]"
        }
      ],
      "stateMutability": "payable",
      "type": "function"
    },
    {
      "inputs": [
        {
          "internalType": "uint256",
          "name": "operationType",
          "type": "uint256"
        },
        {
          "internalType": "address",
          "name": "target",
          "type": "address"
        },
        {
          "internalType": "uint256",
          "name": "value",
          "type": "uint256"
        },
        {
          "internalType": "bytes",
          "name": "data",
          "type": "bytes"
        }
      ],
      "name": "execute",
      "outputs": [
        {
          "internalType": "bytes",
          "name": "",
          "type": "bytes"
        }
      ],
      "stateMutability": "payable",
      "type": "function"
    },
    {
      "inputs": [
        {
          "internalType": "bytes32[]",
          "name": "dataKeys",
          "type": "bytes32[]"
        }
      ],
      "name": "getData",
      "outputs": [
        {
          "internalType": "bytes[]",
          "name": "dataValues",
          "type": "bytes[]"
        }
      ],
      "stateMutability": "view",
      "type": "function"
    },
    {
      "inputs": [
        {
          "internalType": "bytes32",
          "name": "dataKey",
          "type": "bytes32"
        }
      ],
      "name": "getData",
      "outputs": [
        {
          "internalType": "bytes",
          "name": "dataValue",
          "type": "bytes"
        }
      ],
      "stateMutability": "view",
      "type": "function"
    },
    {
      "inputs": [
        {
          "internalType": "address",
          "name": "newOwner",
          "type": "address"
        }
      ],
      "name": "initialize",
      "outputs": [],
      "stateMutability": "payable",
      "type": "function"
    },
    {
      "inputs": [],
      "name": "owner",
      "outputs": [
        {
          "internalType": "address",
          "name": "",
          "type": "address"
        }
      ],
      "stateMutability": "view",
      "type": "function"
    },
    {
      "inputs": [],
      "name": "pendingOwner",
      "outputs": [
        {
          "internalType": "address",
          "name": "",
          "type": "address"
        }
      ],
      "stateMutability": "view",
      "type": "function"
    },
    {
      "inputs": [],
      "name": "renounceOwnership",
      "outputs": [],
      "stateMutability": "nonpayable",
      "type": "function"
    },
    {
      "inputs": [
        {
          "internalType": "bytes32[]",
          "name": "dataKeys",
          "type": "bytes32[]"
        },
        {
          "internalType": "bytes[]",
          "name": "dataValues",
          "type": "bytes[]"
        }
      ],
      "name": "setData",
      "outputs": [],
      "stateMutability": "nonpayable",
      "type": "function"
    },
    {
      "inputs": [
        {
          "internalType": "bytes32",
          "name": "dataKey",
          "type": "bytes32"
        },
        {
          "internalType": "bytes",
          "name": "dataValue",
          "type": "bytes"
        }
      ],
      "name": "setData",
      "outputs": [],
      "stateMutability": "nonpayable",
      "type": "function"
    },
    {
      "inputs": [
        {
          "internalType": "bytes4",
          "name": "interfaceId",
          "type": "bytes4"
        }
      ],
      "name": "supportsInterface",
      "outputs": [
        {
          "internalType": "bool",
          "name": "",
          "type": "bool"
        }
      ],
      "stateMutability": "view",
      "type": "function"
    },
    {
      "inputs": [
        {
          "internalType": "address",
          "name": "_newOwner",
          "type": "address"
        }
      ],
      "name": "transferOwnership",
      "outputs": [],
      "stateMutability": "nonpayable",
      "type": "function"
    },
    {
      "inputs": [
        {
          "internalType": "bytes32",
          "name": "typeId",
          "type": "bytes32"
        },
        {
          "internalType": "bytes",
          "name": "receivedData",
          "type": "bytes"
        }
      ],
      "name": "universalReceiver",
      "outputs": [
        {
          "internalType": "bytes",
          "name": "returnedValues",
          "type": "bytes"
        }
      ],
      "stateMutability": "payable",
      "type": "function"
    },
    {
      "stateMutability": "payable",
      "type": "receive"
    }
  ],
  "bytecode": "0x60806040523480156200001157600080fd5b506200001c62000022565b620000e4565b600054610100900460ff16156200008f5760405162461bcd60e51b815260206004820152602760248201527f496e697469616c697a61626c653a20636f6e747261637420697320696e697469604482015266616c697a696e6760c81b606482015260840160405180910390fd5b60005460ff9081161015620000e2576000805460ff191660ff9081179091556040519081527f7f26b83ff96e1f2b6a682f133852f6798a09c465da95921460cefb38474024989060200160405180910390a15b565b612ae880620000f46000396000f3fe6080604052600436106100f75760003560e01c8063715018a61161008a578063c4d66de811610059578063c4d66de81461031b578063e30c39781461032e578063ead3fbdf1461018e578063f2fde38b1461034c57610132565b8063715018a61461029957806379ba5097146102ae5780637f23690c146102c35780638da5cb5b146102e357610132565b806344c028fe116100c657806344c028fe146102265780634e3e6e9c1461024657806354f6127f146102665780636bb56a141461028657610132565b806301bfba611461018e57806301ffc9a7146101b657806313ced88d146101e657806314a6e2931461020657610132565b3661013257341561013057604051349033907f7e71433ddf847725166244795048ecf3e3f9f35628254ecbf73605666423349390600090a35b005b341561016657604051349033907f7e71433ddf847725166244795048ecf3e3f9f35628254ecbf73605666423349390600090a35b600436108061017f57506000356001600160e01b031916155b1561018657005b61013061036c565b34801561019a57600080fd5b506101a3606481565b6040519081526020015b60405180910390f35b3480156101c257600080fd5b506101d66101d136600461214c565b610411565b60405190151581526020016101ad565b6101f96101f4366004612361565b6104b3565b6040516101ad91906124c1565b34801561021257600080fd5b50610130610221366004612523565b610508565b610239610234366004612587565b6106b2565b6040516101ad91906125dc565b34801561025257600080fd5b506101f96102613660046125ef565b6106fc565b34801561027257600080fd5b50610239610281366004612624565b6107b0565b61023961029436600461263d565b6107bb565b3480156102a557600080fd5b50610130610991565b3480156102ba57600080fd5b506101306109a3565b3480156102cf57600080fd5b506101306102de3660046126b9565b6109ab565b3480156102ef57600080fd5b506000546201000090046001600160a01b03165b6040516001600160a01b0390911681526020016101ad565b6101306103293660046126f6565b610a58565b34801561033a57600080fd5b506003546001600160a01b0316610303565b34801561035857600080fd5b506101306103673660046126f6565b610b7a565b60006103836000356001600160e01b031916610b8e565b90506001600160a01b0381166103d8576040517fbb370b2b0000000000000000000000000000000000000000000000000000000081526001600160e01b03196000351660048201526024015b60405180910390fd5b36600080373360601b365234601436015260008060343601600080855af13d6000803e808015610407573d6000f35b3d6000fd5b505050565b60006001600160e01b031982167f7050cee900000000000000000000000000000000000000000000000000000000148061045b57506001600160e01b03198216631aed5a8560e21b145b8061048f57506001600160e01b031982167f94be599900000000000000000000000000000000000000000000000000000000145b8061049e575061049e82610bd3565b806104ad57506104ad82610c11565b92915050565b60606104bd610c4e565b34156104f157604051349033907f7e71433ddf847725166244795048ecf3e3f9f35628254ecbf73605666423349390600090a35b6104fd85858585610caf565b90505b949350505050565b6000610512610e0d565b9050815183511461055c57825182516040517f43a3c266000000000000000000000000000000000000000000000000000000008152600481019290925260248201526044016103cf565b60005b83518110156106ac578115610668578351690cfc51aec37c55a4d0b160b01b9085908390811061059157610591612711565b60200260200101516001600160a01b03191614806105f057508351654b80742de2bf60d01b908590839081106105c9576105c9612711565b602002602001015179ffffffffffffffffffffffffffffffffffffffffffffffffffff1916145b8061062d57508351696773c5a04a6d4300884b60b11b9085908390811061061957610619612711565b60200260200101516001600160a01b031916145b156106685783818151811061064457610644612711565b602002602001015160405163199611f160e01b81526004016103cf91815260200190565b6106a484828151811061067d5761067d612711565b602002602001015184838151811061069757610697612711565b6020026020010151610ebf565b60010161055f565b50505050565b60606106bc610c4e565b34156106f057604051349033907f7e71433ddf847725166244795048ecf3e3f9f35628254ecbf73605666423349390600090a35b6104fd85858585610f33565b6060815167ffffffffffffffff81111561071857610718612176565b60405190808252806020026020018201604052801561074b57816020015b60608152602001906001900390816107365790505b50905060005b82518110156107aa5761077c83828151811061076f5761076f612711565b602002602001015161103f565b82828151811061078e5761078e612711565b60200260200101819052506107a38160010190565b9050610751565b50919050565b60606104ad8261103f565b606034156107f157604051349033907f7e71433ddf847725166244795048ecf3e3f9f35628254ecbf73605666423349390600090a35b600061081c7f0cfc51aec37c55a4d0b1a65c6255c4bf2fbdf6277f3cc0730c45b828b6db8b4761103f565b90506060601482511061088057600061083483612727565b60601c905061084a81631aed5a8560e21b6110e1565b1561087e57600480546001600160a01b0319166001600160a01b03831690811790915561087b90888888333461117f565b91505b505b6000610899690cfc51aec37c55a4d0b160b01b886112dc565b905060006108a68261103f565b90506060601482511061090a5760006108be83612727565b60601c90506108d481631aed5a8560e21b6110e1565b1561090857600480546001600160a01b0319166001600160a01b038316908117909155610905908b8b8b333461117f565b91505b505b600480546001600160a01b031916905560405161092d9085908390602001612763565b60405160208183030381529060405295508834336001600160a01b03167f9c3ba68eb5742b8e3961aea0afc7371a71bf433c8a67a831803b64c064a178c28b8b8b60405161097d939291906127b1565b60405180910390a450505050509392505050565b610999610c4e565b6109a1611345565b565b6109a1611446565b60006109b5610e0d565b90508015610a4e576001600160a01b03198316690cfc51aec37c55a4d0b160b01b1480610a0c57507fffffffffffff00000000000000000000000000000000000000000000000000008316654b80742de2bf60d01b145b80610a2d57506001600160a01b03198316696773c5a04a6d4300884b60b11b145b15610a4e5760405163199611f160e01b8152600481018490526024016103cf565b61040c8383610ebf565b600054610100900460ff1615808015610a785750600054600160ff909116105b80610a925750303b158015610a92575060005460ff166001145b610b045760405162461bcd60e51b815260206004820152602e60248201527f496e697469616c697a61626c653a20636f6e747261637420697320616c72656160448201527f647920696e697469616c697a656400000000000000000000000000000000000060648201526084016103cf565b6000805460ff191660011790558015610b27576000805461ff0019166101001790555b610b3082611524565b8015610b76576000805461ff0019169055604051600181527f7f26b83ff96e1f2b6a682f133852f6798a09c465da95921460cefb38474024989060200160405180910390a15b5050565b610b82610c4e565b610b8b81611659565b50565b600080610bb2696773c5a04a6d4300884b60b11b6001600160e01b031985166112dc565b90506000610bbf8261103f565b610bc890612727565b60601c949350505050565b60006001600160e01b031982167fa918fa6b0000000000000000000000000000000000000000000000000000000014806104ad57506104ad826117bc565b600080610c246301ffc9a760e01b610b8e565b90506001600160a01b038116610c3d5750600092915050565b610c4781846110e1565b9392505050565b6000546001600160a01b03620100009091041633146109a15760405162461bcd60e51b815260206004820181905260248201527f4f776e61626c653a2063616c6c6572206973206e6f7420746865206f776e657260448201526064016103cf565b606083518551141580610cd0575082518451141580610cd057508151835114155b15610d07576040517f3ff55f4d00000000000000000000000000000000000000000000000000000000815260040160405180910390fd5b6000855167ffffffffffffffff811115610d2357610d23612176565b604051908082528060200260200182016040528015610d5657816020015b6060815260200190600190039081610d415790505b50905060005b8651811015610e0357610dd5878281518110610d7a57610d7a612711565b6020026020010151878381518110610d9457610d94612711565b6020026020010151878481518110610dae57610dae612711565b6020026020010151878581518110610dc857610dc8612711565b6020026020010151610f33565b828281518110610de757610de7612711565b6020026020010181905250610dfc8160010190565b9050610d5c565b5095945050505050565b600080546201000090046001600160a01b03166001600160a01b0316336001600160a01b031614610ebc576004546001600160a01b03163314610eb85760405162461bcd60e51b815260206004820152603b60248201527f4f6e6c79204f776e6572206f72207265656e746572656420556e69766572736160448201527f6c2052656365697665722044656c656761746520616c6c6f776564000000000060648201526084016103cf565b5060015b90565b6000828152600160205260409020610ed78282612859565b50817fece574603820d07bc9b91f2a932baadf4628aabcb8afba49776529c14a6104b261010083511115610f1857610f138360006101006117fa565b610f1a565b825b604051610f2791906125dc565b60405180910390a25050565b606084610f4c57610f45848484611922565b9050610500565b60018503610f86576001600160a01b03841615610f7c57604051631820c12560e11b815260040160405180910390fd5b610f458383611a4e565b60028503610fc0576001600160a01b03841615610fb657604051631820c12560e11b815260040160405180910390fd5b610f458383611b68565b6003850361100a578215611000576040517f72f2bc6a00000000000000000000000000000000000000000000000000000000815260040160405180910390fd5b610f458483611c53565b6040517f7583b3bc000000000000000000000000000000000000000000000000000000008152600481018690526024016103cf565b600081815260016020526040902080546060919061105c906127d7565b80601f0160208091040260200160405190810160405280929190818152602001828054611088906127d7565b80156110d55780601f106110aa576101008083540402835291602001916110d5565b820191906000526020600020905b8154815290600101906020018083116110b857829003601f168201915b50505050509050919050565b604080516001600160e01b03198316602480830191909152825180830390910181526044909101909152602080820180517bffffffffffffffffffffffffffffffffffffffffffffffffffffffff166301ffc9a760e01b178152825160009392849283928392918391908a617530fa92503d91506000519050828015611168575060208210155b80156111745750600081115b979650505050505050565b60606000636bb56a1460e01b8787876040516024016111a093929190612919565b60408051601f19818403018152918152602080830180517bffffffffffffffffffffffffffffffffffffffffffffffffffffffff166001600160e01b031990951694909417909352516111f7928791879101612933565b6040516020818303038152906040529050600080896001600160a01b0316836040516112239190612972565b6000604051808303816000865af19150503d8060008114611260576040519150601f19603f3d011682016040523d82523d6000602084013e611265565b606091505b50915091506112aa82826040518060400160405280602081526020017f43616c6c20746f20756e6976657273616c5265636569766572206661696c6564815250611d52565b5080516000036112ba57806112ce565b808060200190518101906112ce919061298e565b9a9950505050505050505050565b604080517fffffffffffffffffffff00000000000000000000000000000000000000000000841660208201526000602a82018190526bffffffffffffffffffffffff198416602c83015291829101604051602081830303815290604052905080610500906129fc565b600254439060009061135990606490612a36565b90506000611368606483612a36565b9050808311156113b5576002839055600380546001600160a01b03191690556040517f81b7f830f1f0084db6497c486cbe6974c86488dcc4e3738eab94ab6d6b1653e790600090a1505050565b818310156113f9576040517f8b9bf50700000000000000000000000000000000000000000000000000000000815260048101839052602481018290526044016103cf565b6114036000611d6b565b60006002819055600380546001600160a01b03191690556040517fd1f66c3d2bc1993a86be5e3d33709d98f0442381befcedd29f578b9b2506b1ce9190a1505050565b6003546001600160a01b031633146114c65760405162461bcd60e51b815260206004820152602560248201527f4c535031343a2063616c6c6572206973206e6f74207468652070656e64696e6760448201527f4f776e657200000000000000000000000000000000000000000000000000000060648201526084016103cf565b6000546201000090046001600160a01b03166114e133611d6b565b600380546001600160a01b031916905560408051602081019091526000815261150b908290611df7565b610b8b3360405180602001604052806000815250611ea2565b600054610100900460ff166115a15760405162461bcd60e51b815260206004820152602b60248201527f496e697469616c697a61626c653a20636f6e7472616374206973206e6f74206960448201527f6e697469616c697a696e6700000000000000000000000000000000000000000060648201526084016103cf565b34156115d557604051349033907f7e71433ddf847725166244795048ecf3e3f9f35628254ecbf73605666423349390600090a35b6115de81611d6b565b6116407feafec4d89fa9619884b600007c0334a14085fefa8b51ae5a40895018882bdb9060001b6040518060400160405280600481526020017f7c0334a100000000000000000000000000000000000000000000000000000000815250610ebf565b610b8b8160405180602001604052806000815250611ea2565b306001600160a01b0382160361169b576040517f43b248cd00000000000000000000000000000000000000000000000000000000815260040160405180910390fd5b600380546001600160a01b0383166001600160a01b0319909116179055600060028190556116d86000546001600160a01b03620100009091041690565b9050816001600160a01b0316816001600160a01b03167f38d16b8cac22d99fc7c124b9cd0de2d3fa1faef420bfe791d8c362d765e2270060405160405180910390a36117338260405180602001604052806000815250611f06565b6000546001600160a01b03828116620100009092041614610b765760405162461bcd60e51b815260206004820152603f60248201527f4c535031343a206e65774f776e6572204d55535420616363657074206f776e6560448201527f727368697020696e2061207365706172617465207472616e73616374696f6e0060648201526084016103cf565b60006001600160e01b031982167f714df77c0000000000000000000000000000000000000000000000000000000014806104ad57506104ad82611f6a565b60608161180881601f612a36565b10156118565760405162461bcd60e51b815260206004820152600e60248201527f736c6963655f6f766572666c6f7700000000000000000000000000000000000060448201526064016103cf565b6118608284612a36565b845110156118b05760405162461bcd60e51b815260206004820152601160248201527f736c6963655f6f75744f66426f756e647300000000000000000000000000000060448201526064016103cf565b6060821580156118cf5760405191506000825260208201604052611919565b6040519150601f8416801560200281840101858101878315602002848b0101015b818310156119085780518352602092830192016118f0565b5050858452601f01601f1916604052505b50949350505050565b60608247101561194e576040516301bf351f60e31b8152476004820152602481018490526044016103cf565b826001600160a01b03851660007f4810874456b8e6487bd861375cf6abd8e1c8bb5858c8ce36a86a04dabfac199e61198586612a4e565b6040516001600160e01b0319909116815260200160405180910390a4600080856001600160a01b031685856040516119bd9190612972565b60006040518083038185875af1925050503d80600081146119fa576040519150601f19603f3d011682016040523d82523d6000602084013e6119ff565b606091505b5091509150611a4482826040518060400160405280601681526020017f455243373235583a20556e6b6e6f776e204572726f7200000000000000000000815250611d52565b9695505050505050565b606082471015611a7a576040516301bf351f60e31b8152476004820152602481018490526044016103cf565b8151600003611a9c5760405163b81cd8d960e01b815260040160405180910390fd5b600082516020840185f090506001600160a01b038116611ae8576040517f0b07489b00000000000000000000000000000000000000000000000000000000815260040160405180910390fd5b6040516bffffffffffffffffffffffff19606083901b166020820152603401604051602081830303815290604052915083816001600160a01b031660017fa1fb700aaee2ae4a2ff6f91ce7eba292f89c2f5488b8ec4c5c5c8150692595c36000801b604051611b5991815260200190565b60405180910390a45092915050565b60608151600003611b8c5760405163b81cd8d960e01b815260040160405180910390fd5b6000611ba58360208551611ba09190612a82565b611fb8565b90506000611bc284600060208751611bbd9190612a82565b6117fa565b90506000611bd186848461201e565b6040516bffffffffffffffffffffffff19606083901b166020820152909150603401604051602081830303815290604052935085816001600160a01b031660027fa1fb700aaee2ae4a2ff6f91ce7eba292f89c2f5488b8ec4c5c5c8150692595c386604051611c4291815260200190565b60405180910390a450505092915050565b606060006001600160a01b03841660037f4810874456b8e6487bd861375cf6abd8e1c8bb5858c8ce36a86a04dabfac199e611c8d86612a4e565b6040516001600160e01b0319909116815260200160405180910390a4600080846001600160a01b031684604051611cc49190612972565b600060405180830381855afa9150503d8060008114611cff576040519150601f19603f3d011682016040523d82523d6000602084013e611d04565b606091505b5091509150611d4982826040518060400160405280601681526020017f455243373235583a20556e6b6e6f776e204572726f7200000000000000000000815250611d52565b95945050505050565b60608315611d61575081610c47565b610c478383612122565b6000546001600160a01b03828116620100009092041614610b8b57600080546001600160a01b03838116620100008181027fffffffffffffffffffff0000000000000000000000000000000000000000ffff851617855560405193049190911692909183917f8be0079c531659141344cd1fd0a4f28419497f9722a3daafe3b4186f6b6457e091a35050565b611e0882631aed5a8560e21b6110e1565b15610b7657604051631aed5a8560e21b81526001600160a01b03831690636bb56a1490611e5b907f0c622e58e6b7089ae35f1af1c86d997be92fcdd8c9509652022d41aa65169471908590600401612a99565b6000604051808303816000875af1158015611e7a573d6000803e3d6000fd5b505050506040513d6000823e601f3d908101601f1916820160405261040c919081019061298e565b611eb382631aed5a8560e21b6110e1565b15610b7657604051631aed5a8560e21b81526001600160a01b03831690636bb56a1490611e5b907f79855c97dbc259ce395421d933d7bc0699b0f1561f988f09a9e8633fd542fe5c908590600401612a99565b611f1782631aed5a8560e21b6110e1565b15610b7657604051631aed5a8560e21b81526001600160a01b03831690636bb56a1490611e5b907faefd43f45fed1bcd8992f23c803b6f4ec45cf6b62b0d404d565f290a471e763f908590600401612a99565b60006001600160e01b031982167f570ef0730000000000000000000000000000000000000000000000000000000014806104ad57506301ffc9a760e01b6001600160e01b03198316146104ad565b6000611fc5826020612a36565b835110156120155760405162461bcd60e51b815260206004820152601560248201527f746f427974657333325f6f75744f66426f756e6473000000000000000000000060448201526064016103cf565b50016020015190565b6000834710156120705760405162461bcd60e51b815260206004820152601d60248201527f437265617465323a20696e73756666696369656e742062616c616e636500000060448201526064016103cf565b81516000036120c15760405162461bcd60e51b815260206004820181905260248201527f437265617465323a2062797465636f6465206c656e677468206973207a65726f60448201526064016103cf565b8282516020840186f590506001600160a01b038116610c475760405162461bcd60e51b815260206004820152601960248201527f437265617465323a204661696c6564206f6e206465706c6f790000000000000060448201526064016103cf565b8151156121325781518083602001fd5b8060405162461bcd60e51b81526004016103cf91906125dc565b60006020828403121561215e57600080fd5b81356001600160e01b031981168114610c4757600080fd5b634e487b7160e01b600052604160045260246000fd5b604051601f8201601f1916810167ffffffffffffffff811182821017156121b5576121b5612176565b604052919050565b600067ffffffffffffffff8211156121d7576121d7612176565b5060051b60200190565b600082601f8301126121f257600080fd5b81356020612207612202836121bd565b61218c565b82815260059290921b8401810191818101908684111561222657600080fd5b8286015b84811015612241578035835291830191830161222a565b509695505050505050565b80356001600160a01b038116811461226357600080fd5b919050565b600067ffffffffffffffff82111561228257612282612176565b50601f01601f191660200190565b600082601f8301126122a157600080fd5b81356122af61220282612268565b8181528460208386010111156122c457600080fd5b816020850160208301376000918101602001919091529392505050565b600082601f8301126122f257600080fd5b81356020612302612202836121bd565b82815260059290921b8401810191818101908684111561232157600080fd5b8286015b8481101561224157803567ffffffffffffffff8111156123455760008081fd5b6123538986838b0101612290565b845250918301918301612325565b6000806000806080858703121561237757600080fd5b843567ffffffffffffffff8082111561238f57600080fd5b61239b888389016121e1565b95506020915081870135818111156123b257600080fd5b8701601f810189136123c357600080fd5b80356123d1612202826121bd565b81815260059190911b8201840190848101908b8311156123f057600080fd5b928501925b82841015612415576124068461224c565b825292850192908501906123f5565b9750505050604087013591508082111561242e57600080fd5b61243a888389016121e1565b9350606087013591508082111561245057600080fd5b5061245d878288016122e1565b91505092959194509250565b60005b8381101561248457818101518382015260200161246c565b838111156106ac5750506000910152565b600081518084526124ad816020860160208601612469565b601f01601f19169290920160200192915050565b6000602080830181845280855180835260408601915060408160051b870101925083870160005b8281101561251657603f19888603018452612504858351612495565b945092850192908501906001016124e8565b5092979650505050505050565b6000806040838503121561253657600080fd5b823567ffffffffffffffff8082111561254e57600080fd5b61255a868387016121e1565b9350602085013591508082111561257057600080fd5b5061257d858286016122e1565b9150509250929050565b6000806000806080858703121561259d57600080fd5b843593506125ad6020860161224c565b925060408501359150606085013567ffffffffffffffff8111156125d057600080fd5b61245d87828801612290565b602081526000610c476020830184612495565b60006020828403121561260157600080fd5b813567ffffffffffffffff81111561261857600080fd5b610500848285016121e1565b60006020828403121561263657600080fd5b5035919050565b60008060006040848603121561265257600080fd5b83359250602084013567ffffffffffffffff8082111561267157600080fd5b818601915086601f83011261268557600080fd5b81358181111561269457600080fd5b8760208285010111156126a657600080fd5b6020830194508093505050509250925092565b600080604083850312156126cc57600080fd5b82359150602083013567ffffffffffffffff8111156126ea57600080fd5b61257d85828601612290565b60006020828403121561270857600080fd5b610c478261224c565b634e487b7160e01b600052603260045260246000fd5b805160208201516bffffffffffffffffffffffff19808216929190601483101561275b5780818460140360031b1b83161693505b505050919050565b6040815260006127766040830185612495565b8281036020840152611d498185612495565b81835281816020850137506000828201602090810191909152601f909101601f19169091010190565b6040815260006127c5604083018587612788565b8281036020840152611a448185612495565b600181811c908216806127eb57607f821691505b6020821081036107aa57634e487b7160e01b600052602260045260246000fd5b601f82111561040c57600081815260208120601f850160051c810160208610156128325750805b601f850160051c820191505b818110156128515782815560010161283e565b505050505050565b815167ffffffffffffffff81111561287357612873612176565b6128878161288184546127d7565b8461280b565b602080601f8311600181146128bc57600084156128a45750858301515b600019600386901b1c1916600185901b178555612851565b600085815260208120601f198616915b828110156128eb578886015182559484019460019091019084016128cc565b50858210156129095787850151600019600388901b60f8161c191681555b5050505050600190811b01905550565b8381526040602082015260006104fd604083018486612788565b60008451612945818460208901612469565b60609490941b6bffffffffffffffffffffffff191691909301908152601481019190915260340192915050565b60008251612984818460208701612469565b9190910192915050565b6000602082840312156129a057600080fd5b815167ffffffffffffffff8111156129b757600080fd5b8201601f810184136129c857600080fd5b80516129d661220282612268565b8181528560208385010111156129eb57600080fd5b611d49826020830160208601612469565b805160208083015191908110156107aa5760001960209190910360031b1b16919050565b634e487b7160e01b600052601160045260246000fd5b60008219821115612a4957612a49612a20565b500190565b6000815160208301516001600160e01b03198082169350600483101561275b5760049290920360031b82901b161692915050565b600082821015612a9457612a94612a20565b500390565b828152604060208201526000610500604083018461249556fea2646970667358221220f3d766b5d1002fbd67de59afb2b9bce05d8925f4544e29fcc43db3b12e4c8fca64736f6c634300080f0033",
  "linkReferences": {},
  "deployedLinkReferences": {}
}