{
  "_format": "hh-sol-artifact-1",
  "contractName": "LSP9Vault",
  "sourceName": "contracts/LSP9Vault/LSP9Vault.sol",
  "abi": [
    {
      "inputs": [
        {
          "internalType": "address",
          "name": "newOwner",
          "type": "address"
        }
      ],
      "stateMutability": "payable",
      "type": "constructor"
    },
    {
      "inputs": [],
      "name": "CannotTransferOwnershipToSelf",
      "type": "error"
    },
    {
      "inputs": [],
      "name": "ERC725X_ContractDeploymentFailed",
      "type": "error"
    },
    {
      "inputs": [],
      "name": "ERC725X_CreateOperationsRequireEmptyRecipientAddress",
      "type": "error"
    },
    {
      "inputs": [],
      "name": "ERC725X_ExecuteParametersLengthMismatch",
      "type": "error"
    },
    {
      "inputs": [
        {
          "internalType": "uint256",
          "name": "balance",
          "type": "uint256"
        },
        {
          "internalType": "uint256",
          "name": "value",
          "type": "uint256"
        }
      ],
      "name": "ERC725X_InsufficientBalance",
      "type": "error"
    },
    {
      "inputs": [],
      "name": "ERC725X_MsgValueDisallowedInStaticCall",
      "type": "error"
    },
    {
      "inputs": [],
      "name": "ERC725X_NoContractBytecodeProvided",
      "type": "error"
    },
    {
      "inputs": [
        {
          "internalType": "uint256",
          "name": "operationTypeProvided",
          "type": "uint256"
        }
      ],
      "name": "ERC725X_UnknownOperationType",
      "type": "error"
    },
    {
      "inputs": [
        {
          "internalType": "uint256",
          "name": "dataKeysLength",
          "type": "uint256"
        },
        {
          "internalType": "uint256",
          "name": "dataValuesLength",
          "type": "uint256"
        }
      ],
      "name": "ERC725Y_DataKeysValuesLengthMismatch",
      "type": "error"
    },
    {
      "inputs": [
        {
          "internalType": "bytes32",
          "name": "dataKey",
          "type": "bytes32"
        }
      ],
      "name": "LSP1DelegateNotAllowedToSetDataKey",
      "type": "error"
    },
    {
      "inputs": [
        {
          "internalType": "bytes4",
          "name": "functionSelector",
          "type": "bytes4"
        }
      ],
      "name": "NoExtensionFoundForFunctionSelector",
      "type": "error"
    },
    {
      "inputs": [
        {
          "internalType": "uint256",
          "name": "renounceOwnershipStart",
          "type": "uint256"
        },
        {
          "internalType": "uint256",
          "name": "renounceOwnershipEnd",
          "type": "uint256"
        }
      ],
      "name": "NotInRenounceOwnershipInterval",
      "type": "error"
    },
    {
      "anonymous": false,
      "inputs": [
        {
          "indexed": true,
          "internalType": "uint256",
          "name": "operationType",
          "type": "uint256"
        },
        {
          "indexed": true,
          "internalType": "address",
          "name": "contractAddress",
          "type": "address"
        },
        {
          "indexed": true,
          "internalType": "uint256",
          "name": "value",
          "type": "uint256"
        },
        {
          "indexed": false,
          "internalType": "bytes32",
          "name": "salt",
          "type": "bytes32"
        }
      ],
      "name": "ContractCreated",
      "type": "event"
    },
    {
      "anonymous": false,
      "inputs": [
        {
          "indexed": true,
          "internalType": "bytes32",
          "name": "dataKey",
          "type": "bytes32"
        },
        {
          "indexed": false,
          "internalType": "bytes",
          "name": "dataValue",
          "type": "bytes"
        }
      ],
      "name": "DataChanged",
      "type": "event"
    },
    {
      "anonymous": false,
      "inputs": [
        {
          "indexed": true,
          "internalType": "uint256",
          "name": "operationType",
          "type": "uint256"
        },
        {
          "indexed": true,
          "internalType": "address",
          "name": "target",
          "type": "address"
        },
        {
          "indexed": true,
          "internalType": "uint256",
          "name": "value",
          "type": "uint256"
        },
        {
          "indexed": false,
          "internalType": "bytes4",
          "name": "selector",
          "type": "bytes4"
        }
      ],
      "name": "Executed",
      "type": "event"
    },
    {
      "anonymous": false,
      "inputs": [],
      "name": "OwnershipRenounced",
      "type": "event"
    },
    {
      "anonymous": false,
      "inputs": [
        {
          "indexed": true,
          "internalType": "address",
          "name": "previousOwner",
          "type": "address"
        },
        {
          "indexed": true,
          "internalType": "address",
          "name": "newOwner",
          "type": "address"
        }
      ],
      "name": "OwnershipTransferStarted",
      "type": "event"
    },
    {
      "anonymous": false,
      "inputs": [
        {
          "indexed": true,
          "internalType": "address",
          "name": "previousOwner",
          "type": "address"
        },
        {
          "indexed": true,
          "internalType": "address",
          "name": "newOwner",
          "type": "address"
        }
      ],
      "name": "OwnershipTransferred",
      "type": "event"
    },
    {
      "anonymous": false,
      "inputs": [],
      "name": "RenounceOwnershipStarted",
      "type": "event"
    },
    {
      "anonymous": false,
      "inputs": [
        {
          "indexed": true,
          "internalType": "address",
          "name": "from",
          "type": "address"
        },
        {
          "indexed": true,
          "internalType": "uint256",
          "name": "value",
          "type": "uint256"
        },
        {
          "indexed": true,
          "internalType": "bytes32",
          "name": "typeId",
          "type": "bytes32"
        },
        {
          "indexed": false,
          "internalType": "bytes",
          "name": "receivedData",
          "type": "bytes"
        },
        {
          "indexed": false,
          "internalType": "bytes",
          "name": "returnedValue",
          "type": "bytes"
        }
      ],
      "name": "UniversalReceiver",
      "type": "event"
    },
    {
      "anonymous": false,
      "inputs": [
        {
          "indexed": true,
          "internalType": "address",
          "name": "sender",
          "type": "address"
        },
        {
          "indexed": true,
          "internalType": "uint256",
          "name": "value",
          "type": "uint256"
        }
      ],
      "name": "ValueReceived",
      "type": "event"
    },
    {
      "stateMutability": "payable",
      "type": "fallback"
    },
    {
      "inputs": [],
      "name": "RENOUNCE_OWNERSHIP_CONFIRMATION_DELAY",
      "outputs": [
        {
          "internalType": "uint256",
          "name": "",
          "type": "uint256"
        }
      ],
      "stateMutability": "view",
      "type": "function"
    },
    {
      "inputs": [],
      "name": "RENOUNCE_OWNERSHIP_CONFIRMATION_PERIOD",
      "outputs": [
        {
          "internalType": "uint256",
          "name": "",
          "type": "uint256"
        }
      ],
      "stateMutability": "view",
      "type": "function"
    },
    {
      "inputs": [],
      "name": "acceptOwnership",
      "outputs": [],
      "stateMutability": "nonpayable",
      "type": "function"
    },
    {
      "inputs": [
        {
          "internalType": "uint256[]",
          "name": "operationsType",
          "type": "uint256[]"
        },
        {
          "internalType": "address[]",
          "name": "targets",
          "type": "address[]"
        },
        {
          "internalType": "uint256[]",
          "name": "values",
          "type": "uint256[]"
        },
        {
          "internalType": "bytes[]",
          "name": "datas",
          "type": "bytes[]"
        }
      ],
      "name": "execute",
      "outputs": [
        {
          "internalType": "bytes[]",
          "name": "",
          "type": "bytes[]"
        }
      ],
      "stateMutability": "payable",
      "type": "function"
    },
    {
      "inputs": [
        {
          "internalType": "uint256",
          "name": "operationType",
          "type": "uint256"
        },
        {
          "internalType": "address",
          "name": "target",
          "type": "address"
        },
        {
          "internalType": "uint256",
          "name": "value",
          "type": "uint256"
        },
        {
          "internalType": "bytes",
          "name": "data",
          "type": "bytes"
        }
      ],
      "name": "execute",
      "outputs": [
        {
          "internalType": "bytes",
          "name": "",
          "type": "bytes"
        }
      ],
      "stateMutability": "payable",
      "type": "function"
    },
    {
      "inputs": [
        {
          "internalType": "bytes32[]",
          "name": "dataKeys",
          "type": "bytes32[]"
        }
      ],
      "name": "getData",
      "outputs": [
        {
          "internalType": "bytes[]",
          "name": "dataValues",
          "type": "bytes[]"
        }
      ],
      "stateMutability": "view",
      "type": "function"
    },
    {
      "inputs": [
        {
          "internalType": "bytes32",
          "name": "dataKey",
          "type": "bytes32"
        }
      ],
      "name": "getData",
      "outputs": [
        {
          "internalType": "bytes",
          "name": "dataValue",
          "type": "bytes"
        }
      ],
      "stateMutability": "view",
      "type": "function"
    },
    {
      "inputs": [],
      "name": "owner",
      "outputs": [
        {
          "internalType": "address",
          "name": "",
          "type": "address"
        }
      ],
      "stateMutability": "view",
      "type": "function"
    },
    {
      "inputs": [],
      "name": "pendingOwner",
      "outputs": [
        {
          "internalType": "address",
          "name": "",
          "type": "address"
        }
      ],
      "stateMutability": "view",
      "type": "function"
    },
    {
      "inputs": [],
      "name": "renounceOwnership",
      "outputs": [],
      "stateMutability": "nonpayable",
      "type": "function"
    },
    {
      "inputs": [
        {
          "internalType": "bytes32[]",
          "name": "dataKeys",
          "type": "bytes32[]"
        },
        {
          "internalType": "bytes[]",
          "name": "dataValues",
          "type": "bytes[]"
        }
      ],
      "name": "setData",
      "outputs": [],
      "stateMutability": "nonpayable",
      "type": "function"
    },
    {
      "inputs": [
        {
          "internalType": "bytes32",
          "name": "dataKey",
          "type": "bytes32"
        },
        {
          "internalType": "bytes",
          "name": "dataValue",
          "type": "bytes"
        }
      ],
      "name": "setData",
      "outputs": [],
      "stateMutability": "nonpayable",
      "type": "function"
    },
    {
      "inputs": [
        {
          "internalType": "bytes4",
          "name": "interfaceId",
          "type": "bytes4"
        }
      ],
      "name": "supportsInterface",
      "outputs": [
        {
          "internalType": "bool",
          "name": "",
          "type": "bool"
        }
      ],
      "stateMutability": "view",
      "type": "function"
    },
    {
      "inputs": [
        {
          "internalType": "address",
          "name": "_newOwner",
          "type": "address"
        }
      ],
      "name": "transferOwnership",
      "outputs": [],
      "stateMutability": "nonpayable",
      "type": "function"
    },
    {
      "inputs": [
        {
          "internalType": "bytes32",
          "name": "typeId",
          "type": "bytes32"
        },
        {
          "internalType": "bytes",
          "name": "receivedData",
          "type": "bytes"
        }
      ],
      "name": "universalReceiver",
      "outputs": [
        {
          "internalType": "bytes",
          "name": "returnedValues",
          "type": "bytes"
        }
      ],
      "stateMutability": "payable",
      "type": "function"
    },
    {
      "stateMutability": "payable",
      "type": "receive"
    }
  ],
  "bytecode": "0x608060405260405162002f7c38038062002f7c83398101604081905262000026916200043b565b34156200005b57604051349033907f7e71433ddf847725166244795048ecf3e3f9f35628254ecbf73605666423349390600090a35b6200007181620000e160201b62000a481760201c565b6040805180820190915260048152637c0334a160e01b6020820152620000b9907feafec4d89fa9619884b600007c0334a14085fefa8b51ae5a40895018882bdb909062000148565b620000da8160405180602001604052806000815250620001cf60201b60201c565b506200074a565b6000546001600160a01b038281169116146200014557600080546001600160a01b038381166001600160a01b0319831681178455604051919092169283917f8be0079c531659141344cd1fd0a4f28419497f9722a3daafe3b4186f6b6457e09190a3505b50565b600082815260016020526040902062000162828262000511565b50817fece574603820d07bc9b91f2a932baadf4628aabcb8afba49776529c14a6104b261010083511115620001b257620001ac8360006101006200029360201b62000aad1760201c565b620001b4565b825b604051620001c391906200063e565b60405180910390a25050565b620001ed82636bb56a1460e01b620003b060201b62000bd71760201c565b156200028f57604051631aed5a8560e21b81526001600160a01b03831690636bb56a149062000243907f79855c97dbc259ce395421d933d7bc0699b0f1561f988f09a9e8633fd542fe5c90859060040162000653565b6000604051808303816000875af115801562000263573d6000803e3d6000fd5b505050506040513d6000823e601f3d908101601f191682016040526200028d919081019062000676565b505b5050565b606081620002a381601f62000723565b1015620002e85760405162461bcd60e51b815260206004820152600e60248201526d736c6963655f6f766572666c6f7760901b60448201526064015b60405180910390fd5b620002f4828462000723565b845110156200033a5760405162461bcd60e51b8152602060048201526011602482015270736c6963655f6f75744f66426f756e647360781b6044820152606401620002df565b6060821580156200035b5760405191506000825260208201604052620003a7565b6040519150601f8416801560200281840101858101878315602002848b0101015b81831015620003965780518352602092830192016200037c565b5050858452601f01601f1916604052505b50949350505050565b604080516001600160e01b03198316602480830191909152825180830390910181526044909101909152602080820180516001600160e01b03166301ffc9a760e01b178152825160009392849283928392918391908a617530fa92503d9150600051905082801562000423575060208210155b8015620004305750600081115b979650505050505050565b6000602082840312156200044e57600080fd5b81516001600160a01b03811681146200046657600080fd5b9392505050565b634e487b7160e01b600052604160045260246000fd5b600181811c908216806200049857607f821691505b602082108103620004b957634e487b7160e01b600052602260045260246000fd5b50919050565b601f8211156200028d57600081815260208120601f850160051c81016020861015620004e85750805b601f850160051c820191505b818110156200050957828155600101620004f4565b505050505050565b81516001600160401b038111156200052d576200052d6200046d565b62000545816200053e845462000483565b84620004bf565b602080601f8311600181146200057d5760008415620005645750858301515b600019600386901b1c1916600185901b17855562000509565b600085815260208120601f198616915b82811015620005ae578886015182559484019460019091019084016200058d565b5085821015620005cd5787850151600019600388901b60f8161c191681555b5050505050600190811b01905550565b60005b83811015620005fa578181015183820152602001620005e0565b838111156200060a576000848401525b50505050565b600081518084526200062a816020860160208601620005dd565b601f01601f19169290920160200192915050565b60208152600062000466602083018462000610565b8281526040602082015260006200066e604083018462000610565b949350505050565b6000602082840312156200068957600080fd5b81516001600160401b0380821115620006a157600080fd5b818401915084601f830112620006b657600080fd5b815181811115620006cb57620006cb6200046d565b604051601f8201601f19908116603f01168101908382118183101715620006f657620006f66200046d565b816040528281528760208487010111156200071057600080fd5b62000430836020830160208801620005dd565b600082198211156200074557634e487b7160e01b600052601160045260246000fd5b500190565b612822806200075a6000396000f3fe6080604052600436106100ec5760003560e01c80636bb56a141161008a5780638da5cb5b116100595780638da5cb5b146102d8578063e30c39781461030a578063ead3fbdf14610183578063f2fde38b1461032857610127565b80636bb56a141461027b578063715018a61461028e57806379ba5097146102a35780637f23690c146102b857610127565b806314a6e293116100c657806314a6e293146101fb57806344c028fe1461021b5780634e3e6e9c1461023b57806354f6127f1461025b57610127565b806301bfba611461018357806301ffc9a7146101ab57806313ced88d146101db57610127565b3661012757341561012557604051349033907f7e71433ddf847725166244795048ecf3e3f9f35628254ecbf73605666423349390600090a35b005b341561015b57604051349033907f7e71433ddf847725166244795048ecf3e3f9f35628254ecbf73605666423349390600090a35b600436108061017457506000356001600160e01b031916155b1561017b57005b610125610348565b34801561018f57600080fd5b50610198606481565b6040519081526020015b60405180910390f35b3480156101b757600080fd5b506101cb6101c6366004611e86565b6103ed565b60405190151581526020016101a2565b6101ee6101e936600461209b565b61048f565b6040516101a291906121fb565b34801561020757600080fd5b5061012561021636600461225d565b6104e4565b61022e6102293660046122c1565b61068e565b6040516101a29190612316565b34801561024757600080fd5b506101ee610256366004612329565b6106d8565b34801561026757600080fd5b5061022e61027636600461235e565b61078c565b61022e610289366004612377565b610797565b34801561029a57600080fd5b5061012561096d565b3480156102af57600080fd5b5061012561097f565b3480156102c457600080fd5b506101256102d33660046123f3565b610987565b3480156102e457600080fd5b506000546001600160a01b03165b6040516001600160a01b0390911681526020016101a2565b34801561031657600080fd5b506003546001600160a01b03166102f2565b34801561033457600080fd5b50610125610343366004612430565b610a34565b600061035f6000356001600160e01b031916610c75565b90506001600160a01b0381166103b4576040517fbb370b2b0000000000000000000000000000000000000000000000000000000081526001600160e01b03196000351660048201526024015b60405180910390fd5b36600080373360601b365234601436015260008060343601600080855af13d6000803e8080156103e3573d6000f35b3d6000fd5b505050565b60006001600160e01b031982167f7050cee900000000000000000000000000000000000000000000000000000000148061043757506001600160e01b03198216631aed5a8560e21b145b8061046b57506001600160e01b031982167f94be599900000000000000000000000000000000000000000000000000000000145b8061047a575061047a82610cba565b80610489575061048982610cf8565b92915050565b6060610499610d2e565b34156104cd57604051349033907f7e71433ddf847725166244795048ecf3e3f9f35628254ecbf73605666423349390600090a35b6104d985858585610d97565b90505b949350505050565b60006104ee610ef5565b9050815183511461053857825182516040517f43a3c266000000000000000000000000000000000000000000000000000000008152600481019290925260248201526044016103ab565b60005b8351811015610688578115610644578351690cfc51aec37c55a4d0b160b01b9085908390811061056d5761056d61244b565b60200260200101516001600160a01b03191614806105cc57508351654b80742de2bf60d01b908590839081106105a5576105a561244b565b602002602001015179ffffffffffffffffffffffffffffffffffffffffffffffffffff1916145b8061060957508351696773c5a04a6d4300884b60b11b908590839081106105f5576105f561244b565b60200260200101516001600160a01b031916145b15610644578381815181106106205761062061244b565b602002602001015160405163199611f160e01b81526004016103ab91815260200190565b6106808482815181106106595761065961244b565b60200260200101518483815181106106735761067361244b565b6020026020010151610f8f565b60010161053b565b50505050565b6060610698610d2e565b34156106cc57604051349033907f7e71433ddf847725166244795048ecf3e3f9f35628254ecbf73605666423349390600090a35b6104d985858585611003565b6060815167ffffffffffffffff8111156106f4576106f4611eb0565b60405190808252806020026020018201604052801561072757816020015b60608152602001906001900390816107125790505b50905060005b82518110156107865761075883828151811061074b5761074b61244b565b602002602001015161110f565b82828151811061076a5761076a61244b565b602002602001018190525061077f8160010190565b905061072d565b50919050565b60606104898261110f565b606034156107cd57604051349033907f7e71433ddf847725166244795048ecf3e3f9f35628254ecbf73605666423349390600090a35b60006107f87f0cfc51aec37c55a4d0b1a65c6255c4bf2fbdf6277f3cc0730c45b828b6db8b4761110f565b90506060601482511061085c57600061081083612461565b60601c905061082681631aed5a8560e21b610bd7565b1561085a57600480546001600160a01b0319166001600160a01b0383169081179091556108579088888833346111b1565b91505b505b6000610875690cfc51aec37c55a4d0b160b01b8861130e565b905060006108828261110f565b9050606060148251106108e657600061089a83612461565b60601c90506108b081631aed5a8560e21b610bd7565b156108e457600480546001600160a01b0319166001600160a01b0383169081179091556108e1908b8b8b33346111b1565b91505b505b600480546001600160a01b0319169055604051610909908590839060200161249d565b60405160208183030381529060405295508834336001600160a01b03167f9c3ba68eb5742b8e3961aea0afc7371a71bf433c8a67a831803b64c064a178c28b8b8b604051610959939291906124eb565b60405180910390a450505050509392505050565b610975610d2e565b61097d611377565b565b61097d611478565b6000610991610ef5565b90508015610a2a576001600160a01b03198316690cfc51aec37c55a4d0b160b01b14806109e857507fffffffffffff00000000000000000000000000000000000000000000000000008316654b80742de2bf60d01b145b80610a0957506001600160a01b03198316696773c5a04a6d4300884b60b11b145b15610a2a5760405163199611f160e01b8152600481018490526024016103ab565b6103e88383610f8f565b610a3c610d2e565b610a4581611550565b50565b6000546001600160a01b03828116911614610a4557600080546001600160a01b038381166001600160a01b0319831681178455604051919092169283917f8be0079c531659141344cd1fd0a4f28419497f9722a3daafe3b4186f6b6457e09190a35050565b606081610abb81601f612527565b1015610b095760405162461bcd60e51b815260206004820152600e60248201527f736c6963655f6f766572666c6f7700000000000000000000000000000000000060448201526064016103ab565b610b138284612527565b84511015610b635760405162461bcd60e51b815260206004820152601160248201527f736c6963655f6f75744f66426f756e647300000000000000000000000000000060448201526064016103ab565b606082158015610b825760405191506000825260208201604052610bcc565b6040519150601f8416801560200281840101858101878315602002848b0101015b81831015610bbb578051835260209283019201610ba3565b5050858452601f01601f1916604052505b5090505b9392505050565b604080516001600160e01b03198316602480830191909152825180830390910181526044909101909152602080820180517bffffffffffffffffffffffffffffffffffffffffffffffffffffffff166301ffc9a760e01b178152825160009392849283928392918391908a617530fa92503d91506000519050828015610c5e575060208210155b8015610c6a5750600081115b979650505050505050565b600080610c99696773c5a04a6d4300884b60b11b6001600160e01b0319851661130e565b90506000610ca68261110f565b610caf90612461565b60601c949350505050565b60006001600160e01b031982167fa918fa6b0000000000000000000000000000000000000000000000000000000014806104895750610489826116aa565b600080610d0b6301ffc9a760e01b610c75565b90506001600160a01b038116610d245750600092915050565b610bd08184610bd7565b33610d416000546001600160a01b031690565b6001600160a01b03161461097d5760405162461bcd60e51b815260206004820181905260248201527f4f776e61626c653a2063616c6c6572206973206e6f7420746865206f776e657260448201526064016103ab565b606083518551141580610db8575082518451141580610db857508151835114155b15610def576040517f3ff55f4d00000000000000000000000000000000000000000000000000000000815260040160405180910390fd5b6000855167ffffffffffffffff811115610e0b57610e0b611eb0565b604051908082528060200260200182016040528015610e3e57816020015b6060815260200190600190039081610e295790505b50905060005b8651811015610eeb57610ebd878281518110610e6257610e6261244b565b6020026020010151878381518110610e7c57610e7c61244b565b6020026020010151878481518110610e9657610e9661244b565b6020026020010151878581518110610eb057610eb061244b565b6020026020010151611003565b828281518110610ecf57610ecf61244b565b6020026020010181905250610ee48160010190565b9050610e44565b5095945050505050565b600080546001600160a01b03163314610f8c576004546001600160a01b03163314610f885760405162461bcd60e51b815260206004820152603b60248201527f4f6e6c79204f776e6572206f72207265656e746572656420556e69766572736160448201527f6c2052656365697665722044656c656761746520616c6c6f776564000000000060648201526084016103ab565b5060015b90565b6000828152600160205260409020610fa782826125c1565b50817fece574603820d07bc9b91f2a932baadf4628aabcb8afba49776529c14a6104b261010083511115610fe857610fe3836000610100610aad565b610fea565b825b604051610ff79190612316565b60405180910390a25050565b60608461101c576110158484846116e8565b90506104dc565b60018503611056576001600160a01b0384161561104c57604051631820c12560e11b815260040160405180910390fd5b6110158383611814565b60028503611090576001600160a01b0384161561108657604051631820c12560e11b815260040160405180910390fd5b611015838361192e565b600385036110da5782156110d0576040517f72f2bc6a00000000000000000000000000000000000000000000000000000000815260040160405180910390fd5b6110158483611a19565b6040517f7583b3bc000000000000000000000000000000000000000000000000000000008152600481018690526024016103ab565b600081815260016020526040902080546060919061112c9061253f565b80601f01602080910402602001604051908101604052809291908181526020018280546111589061253f565b80156111a55780601f1061117a576101008083540402835291602001916111a5565b820191906000526020600020905b81548152906001019060200180831161118857829003601f168201915b50505050509050919050565b60606000636bb56a1460e01b8787876040516024016111d293929190612681565b60408051601f19818403018152918152602080830180517bffffffffffffffffffffffffffffffffffffffffffffffffffffffff166001600160e01b0319909516949094179093525161122992879187910161269b565b6040516020818303038152906040529050600080896001600160a01b03168360405161125591906126da565b6000604051808303816000865af19150503d8060008114611292576040519150601f19603f3d011682016040523d82523d6000602084013e611297565b606091505b50915091506112dc82826040518060400160405280602081526020017f43616c6c20746f20756e6976657273616c5265636569766572206661696c6564815250611b18565b5080516000036112ec5780611300565b8080602001905181019061130091906126f6565b9a9950505050505050505050565b604080517fffffffffffffffffffff00000000000000000000000000000000000000000000841660208201526000602a82018190526bffffffffffffffffffffffff198416602c830152918291016040516020818303038152906040529050806104dc90612764565b600254439060009061138b90606490612527565b9050600061139a606483612527565b9050808311156113e7576002839055600380546001600160a01b03191690556040517f81b7f830f1f0084db6497c486cbe6974c86488dcc4e3738eab94ab6d6b1653e790600090a1505050565b8183101561142b576040517f8b9bf50700000000000000000000000000000000000000000000000000000000815260048101839052602481018290526044016103ab565b6114356000610a48565b60006002819055600380546001600160a01b03191690556040517fd1f66c3d2bc1993a86be5e3d33709d98f0442381befcedd29f578b9b2506b1ce9190a1505050565b6003546001600160a01b031633146114f85760405162461bcd60e51b815260206004820152602560248201527f4c535031343a2063616c6c6572206973206e6f74207468652070656e64696e6760448201527f4f776e657200000000000000000000000000000000000000000000000000000060648201526084016103ab565b6000546001600160a01b031661150d33610a48565b600380546001600160a01b0319169055604080516020810190915260008152611537908290611b31565b610a453360405180602001604052806000815250611bdc565b306001600160a01b03821603611592576040517f43b248cd00000000000000000000000000000000000000000000000000000000815260040160405180910390fd5b600380546001600160a01b0383166001600160a01b0319909116179055600060028190556115c86000546001600160a01b031690565b9050816001600160a01b0316816001600160a01b03167f38d16b8cac22d99fc7c124b9cd0de2d3fa1faef420bfe791d8c362d765e2270060405160405180910390a36116238260405180602001604052806000815250611c40565b6000546001600160a01b038281169116146116a65760405162461bcd60e51b815260206004820152603f60248201527f4c535031343a206e65774f776e6572204d55535420616363657074206f776e6560448201527f727368697020696e2061207365706172617465207472616e73616374696f6e0060648201526084016103ab565b5050565b60006001600160e01b031982167f714df77c000000000000000000000000000000000000000000000000000000001480610489575061048982611ca4565b606082471015611714576040516301bf351f60e31b8152476004820152602481018490526044016103ab565b826001600160a01b03851660007f4810874456b8e6487bd861375cf6abd8e1c8bb5858c8ce36a86a04dabfac199e61174b86612788565b6040516001600160e01b0319909116815260200160405180910390a4600080856001600160a01b0316858560405161178391906126da565b60006040518083038185875af1925050503d80600081146117c0576040519150601f19603f3d011682016040523d82523d6000602084013e6117c5565b606091505b509150915061180a82826040518060400160405280601681526020017f455243373235583a20556e6b6e6f776e204572726f7200000000000000000000815250611b18565b9695505050505050565b606082471015611840576040516301bf351f60e31b8152476004820152602481018490526044016103ab565b81516000036118625760405163b81cd8d960e01b815260040160405180910390fd5b600082516020840185f090506001600160a01b0381166118ae576040517f0b07489b00000000000000000000000000000000000000000000000000000000815260040160405180910390fd5b6040516bffffffffffffffffffffffff19606083901b166020820152603401604051602081830303815290604052915083816001600160a01b031660017fa1fb700aaee2ae4a2ff6f91ce7eba292f89c2f5488b8ec4c5c5c8150692595c36000801b60405161191f91815260200190565b60405180910390a45092915050565b606081516000036119525760405163b81cd8d960e01b815260040160405180910390fd5b600061196b836020855161196691906127bc565b611cf2565b905060006119888460006020875161198391906127bc565b610aad565b90506000611997868484611d58565b6040516bffffffffffffffffffffffff19606083901b166020820152909150603401604051602081830303815290604052935085816001600160a01b031660027fa1fb700aaee2ae4a2ff6f91ce7eba292f89c2f5488b8ec4c5c5c8150692595c386604051611a0891815260200190565b60405180910390a450505092915050565b606060006001600160a01b03841660037f4810874456b8e6487bd861375cf6abd8e1c8bb5858c8ce36a86a04dabfac199e611a5386612788565b6040516001600160e01b0319909116815260200160405180910390a4600080846001600160a01b031684604051611a8a91906126da565b600060405180830381855afa9150503d8060008114611ac5576040519150601f19603f3d011682016040523d82523d6000602084013e611aca565b606091505b5091509150611b0f82826040518060400160405280601681526020017f455243373235583a20556e6b6e6f776e204572726f7200000000000000000000815250611b18565b95945050505050565b60608315611b27575081610bd0565b610bd08383611e5c565b611b4282631aed5a8560e21b610bd7565b156116a657604051631aed5a8560e21b81526001600160a01b03831690636bb56a1490611b95907f0c622e58e6b7089ae35f1af1c86d997be92fcdd8c9509652022d41aa651694719085906004016127d3565b6000604051808303816000875af1158015611bb4573d6000803e3d6000fd5b505050506040513d6000823e601f3d908101601f191682016040526103e891908101906126f6565b611bed82631aed5a8560e21b610bd7565b156116a657604051631aed5a8560e21b81526001600160a01b03831690636bb56a1490611b95907f79855c97dbc259ce395421d933d7bc0699b0f1561f988f09a9e8633fd542fe5c9085906004016127d3565b611c5182631aed5a8560e21b610bd7565b156116a657604051631aed5a8560e21b81526001600160a01b03831690636bb56a1490611b95907faefd43f45fed1bcd8992f23c803b6f4ec45cf6b62b0d404d565f290a471e763f9085906004016127d3565b60006001600160e01b031982167f570ef07300000000000000000000000000000000000000000000000000000000148061048957506301ffc9a760e01b6001600160e01b0319831614610489565b6000611cff826020612527565b83511015611d4f5760405162461bcd60e51b815260206004820152601560248201527f746f427974657333325f6f75744f66426f756e6473000000000000000000000060448201526064016103ab565b50016020015190565b600083471015611daa5760405162461bcd60e51b815260206004820152601d60248201527f437265617465323a20696e73756666696369656e742062616c616e636500000060448201526064016103ab565b8151600003611dfb5760405162461bcd60e51b815260206004820181905260248201527f437265617465323a2062797465636f6465206c656e677468206973207a65726f60448201526064016103ab565b8282516020840186f590506001600160a01b038116610bd05760405162461bcd60e51b815260206004820152601960248201527f437265617465323a204661696c6564206f6e206465706c6f790000000000000060448201526064016103ab565b815115611e6c5781518083602001fd5b8060405162461bcd60e51b81526004016103ab9190612316565b600060208284031215611e9857600080fd5b81356001600160e01b031981168114610bd057600080fd5b634e487b7160e01b600052604160045260246000fd5b604051601f8201601f1916810167ffffffffffffffff81118282101715611eef57611eef611eb0565b604052919050565b600067ffffffffffffffff821115611f1157611f11611eb0565b5060051b60200190565b600082601f830112611f2c57600080fd5b81356020611f41611f3c83611ef7565b611ec6565b82815260059290921b84018101918181019086841115611f6057600080fd5b8286015b84811015611f7b5780358352918301918301611f64565b509695505050505050565b80356001600160a01b0381168114611f9d57600080fd5b919050565b600067ffffffffffffffff821115611fbc57611fbc611eb0565b50601f01601f191660200190565b600082601f830112611fdb57600080fd5b8135611fe9611f3c82611fa2565b818152846020838601011115611ffe57600080fd5b816020850160208301376000918101602001919091529392505050565b600082601f83011261202c57600080fd5b8135602061203c611f3c83611ef7565b82815260059290921b8401810191818101908684111561205b57600080fd5b8286015b84811015611f7b57803567ffffffffffffffff81111561207f5760008081fd5b61208d8986838b0101611fca565b84525091830191830161205f565b600080600080608085870312156120b157600080fd5b843567ffffffffffffffff808211156120c957600080fd5b6120d588838901611f1b565b95506020915081870135818111156120ec57600080fd5b8701601f810189136120fd57600080fd5b803561210b611f3c82611ef7565b81815260059190911b8201840190848101908b83111561212a57600080fd5b928501925b8284101561214f5761214084611f86565b8252928501929085019061212f565b9750505050604087013591508082111561216857600080fd5b61217488838901611f1b565b9350606087013591508082111561218a57600080fd5b506121978782880161201b565b91505092959194509250565b60005b838110156121be5781810151838201526020016121a6565b838111156106885750506000910152565b600081518084526121e78160208601602086016121a3565b601f01601f19169290920160200192915050565b6000602080830181845280855180835260408601915060408160051b870101925083870160005b8281101561225057603f1988860301845261223e8583516121cf565b94509285019290850190600101612222565b5092979650505050505050565b6000806040838503121561227057600080fd5b823567ffffffffffffffff8082111561228857600080fd5b61229486838701611f1b565b935060208501359150808211156122aa57600080fd5b506122b78582860161201b565b9150509250929050565b600080600080608085870312156122d757600080fd5b843593506122e760208601611f86565b925060408501359150606085013567ffffffffffffffff81111561230a57600080fd5b61219787828801611fca565b602081526000610bd060208301846121cf565b60006020828403121561233b57600080fd5b813567ffffffffffffffff81111561235257600080fd5b6104dc84828501611f1b565b60006020828403121561237057600080fd5b5035919050565b60008060006040848603121561238c57600080fd5b83359250602084013567ffffffffffffffff808211156123ab57600080fd5b818601915086601f8301126123bf57600080fd5b8135818111156123ce57600080fd5b8760208285010111156123e057600080fd5b6020830194508093505050509250925092565b6000806040838503121561240657600080fd5b82359150602083013567ffffffffffffffff81111561242457600080fd5b6122b785828601611fca565b60006020828403121561244257600080fd5b610bd082611f86565b634e487b7160e01b600052603260045260246000fd5b805160208201516bffffffffffffffffffffffff1980821692919060148310156124955780818460140360031b1b83161693505b505050919050565b6040815260006124b060408301856121cf565b8281036020840152611b0f81856121cf565b81835281816020850137506000828201602090810191909152601f909101601f19169091010190565b6040815260006124ff6040830185876124c2565b828103602084015261180a81856121cf565b634e487b7160e01b600052601160045260246000fd5b6000821982111561253a5761253a612511565b500190565b600181811c9082168061255357607f821691505b60208210810361078657634e487b7160e01b600052602260045260246000fd5b601f8211156103e857600081815260208120601f850160051c8101602086101561259a5750805b601f850160051c820191505b818110156125b9578281556001016125a6565b505050505050565b815167ffffffffffffffff8111156125db576125db611eb0565b6125ef816125e9845461253f565b84612573565b602080601f831160018114612624576000841561260c5750858301515b600019600386901b1c1916600185901b1785556125b9565b600085815260208120601f198616915b8281101561265357888601518255948401946001909101908401612634565b50858210156126715787850151600019600388901b60f8161c191681555b5050505050600190811b01905550565b8381526040602082015260006104d96040830184866124c2565b600084516126ad8184602089016121a3565b60609490941b6bffffffffffffffffffffffff191691909301908152601481019190915260340192915050565b600082516126ec8184602087016121a3565b9190910192915050565b60006020828403121561270857600080fd5b815167ffffffffffffffff81111561271f57600080fd5b8201601f8101841361273057600080fd5b805161273e611f3c82611fa2565b81815285602083850101111561275357600080fd5b611b0f8260208301602086016121a3565b805160208083015191908110156107865760001960209190910360031b1b16919050565b6000815160208301516001600160e01b0319808216935060048310156124955760049290920360031b82901b161692915050565b6000828210156127ce576127ce612511565b500390565b8281526040602082015260006104dc60408301846121cf56fea26469706673582212203e2ded36df5df65d17f344c002a3b0c48862f2ff3f0e5c4ce474d83090b52d9964736f6c634300080f0033",
  "linkReferences": {},
  "deployedLinkReferences": {}
}