{
  "_format": "hh-sol-artifact-1",
  "contractName": "UniversalProfile",
  "sourceName": "contracts/UniversalProfile.sol",
  "abi": [
    {
      "inputs": [
        {
          "internalType": "address",
          "name": "newOwner",
          "type": "address"
        }
      ],
      "stateMutability": "payable",
      "type": "constructor"
    },
    {
      "inputs": [],
      "name": "CannotTransferOwnershipToSelf",
      "type": "error"
    },
    {
      "inputs": [],
      "name": "ERC725X_ContractDeploymentFailed",
      "type": "error"
    },
    {
      "inputs": [],
      "name": "ERC725X_CreateOperationsRequireEmptyRecipientAddress",
      "type": "error"
    },
    {
      "inputs": [],
      "name": "ERC725X_ExecuteParametersLengthMismatch",
      "type": "error"
    },
    {
      "inputs": [
        {
          "internalType": "uint256",
          "name": "balance",
          "type": "uint256"
        },
        {
          "internalType": "uint256",
          "name": "value",
          "type": "uint256"
        }
      ],
      "name": "ERC725X_InsufficientBalance",
      "type": "error"
    },
    {
      "inputs": [],
      "name": "ERC725X_MsgValueDisallowedInDelegateCall",
      "type": "error"
    },
    {
      "inputs": [],
      "name": "ERC725X_MsgValueDisallowedInStaticCall",
      "type": "error"
    },
    {
      "inputs": [],
      "name": "ERC725X_NoContractBytecodeProvided",
      "type": "error"
    },
    {
      "inputs": [
        {
          "internalType": "uint256",
          "name": "operationTypeProvided",
          "type": "uint256"
        }
      ],
      "name": "ERC725X_UnknownOperationType",
      "type": "error"
    },
    {
      "inputs": [
        {
          "internalType": "uint256",
          "name": "dataKeysLength",
          "type": "uint256"
        },
        {
          "internalType": "uint256",
          "name": "dataValuesLength",
          "type": "uint256"
        }
      ],
      "name": "ERC725Y_DataKeysValuesLengthMismatch",
      "type": "error"
    },
    {
      "inputs": [
        {
          "internalType": "bytes4",
          "name": "functionSelector",
          "type": "bytes4"
        }
      ],
      "name": "NoExtensionFoundForFunctionSelector",
      "type": "error"
    },
    {
      "inputs": [
        {
          "internalType": "uint256",
          "name": "renounceOwnershipStart",
          "type": "uint256"
        },
        {
          "internalType": "uint256",
          "name": "renounceOwnershipEnd",
          "type": "uint256"
        }
      ],
      "name": "NotInRenounceOwnershipInterval",
      "type": "error"
    },
    {
      "anonymous": false,
      "inputs": [
        {
          "indexed": true,
          "internalType": "uint256",
          "name": "operationType",
          "type": "uint256"
        },
        {
          "indexed": true,
          "internalType": "address",
          "name": "contractAddress",
          "type": "address"
        },
        {
          "indexed": true,
          "internalType": "uint256",
          "name": "value",
          "type": "uint256"
        },
        {
          "indexed": false,
          "internalType": "bytes32",
          "name": "salt",
          "type": "bytes32"
        }
      ],
      "name": "ContractCreated",
      "type": "event"
    },
    {
      "anonymous": false,
      "inputs": [
        {
          "indexed": true,
          "internalType": "bytes32",
          "name": "dataKey",
          "type": "bytes32"
        },
        {
          "indexed": false,
          "internalType": "bytes",
          "name": "dataValue",
          "type": "bytes"
        }
      ],
      "name": "DataChanged",
      "type": "event"
    },
    {
      "anonymous": false,
      "inputs": [
        {
          "indexed": true,
          "internalType": "uint256",
          "name": "operationType",
          "type": "uint256"
        },
        {
          "indexed": true,
          "internalType": "address",
          "name": "target",
          "type": "address"
        },
        {
          "indexed": true,
          "internalType": "uint256",
          "name": "value",
          "type": "uint256"
        },
        {
          "indexed": false,
          "internalType": "bytes4",
          "name": "selector",
          "type": "bytes4"
        }
      ],
      "name": "Executed",
      "type": "event"
    },
    {
      "anonymous": false,
      "inputs": [],
      "name": "OwnershipRenounced",
      "type": "event"
    },
    {
      "anonymous": false,
      "inputs": [
        {
          "indexed": true,
          "internalType": "address",
          "name": "previousOwner",
          "type": "address"
        },
        {
          "indexed": true,
          "internalType": "address",
          "name": "newOwner",
          "type": "address"
        }
      ],
      "name": "OwnershipTransferStarted",
      "type": "event"
    },
    {
      "anonymous": false,
      "inputs": [
        {
          "indexed": true,
          "internalType": "address",
          "name": "previousOwner",
          "type": "address"
        },
        {
          "indexed": true,
          "internalType": "address",
          "name": "newOwner",
          "type": "address"
        }
      ],
      "name": "OwnershipTransferred",
      "type": "event"
    },
    {
      "anonymous": false,
      "inputs": [],
      "name": "RenounceOwnershipStarted",
      "type": "event"
    },
    {
      "anonymous": false,
      "inputs": [
        {
          "indexed": true,
          "internalType": "address",
          "name": "from",
          "type": "address"
        },
        {
          "indexed": true,
          "internalType": "uint256",
          "name": "value",
          "type": "uint256"
        },
        {
          "indexed": true,
          "internalType": "bytes32",
          "name": "typeId",
          "type": "bytes32"
        },
        {
          "indexed": false,
          "internalType": "bytes",
          "name": "receivedData",
          "type": "bytes"
        },
        {
          "indexed": false,
          "internalType": "bytes",
          "name": "returnedValue",
          "type": "bytes"
        }
      ],
      "name": "UniversalReceiver",
      "type": "event"
    },
    {
      "anonymous": false,
      "inputs": [
        {
          "indexed": true,
          "internalType": "address",
          "name": "sender",
          "type": "address"
        },
        {
          "indexed": true,
          "internalType": "uint256",
          "name": "value",
          "type": "uint256"
        }
      ],
      "name": "ValueReceived",
      "type": "event"
    },
    {
      "stateMutability": "payable",
      "type": "fallback"
    },
    {
      "inputs": [],
      "name": "RENOUNCE_OWNERSHIP_CONFIRMATION_DELAY",
      "outputs": [
        {
          "internalType": "uint256",
          "name": "",
          "type": "uint256"
        }
      ],
      "stateMutability": "view",
      "type": "function"
    },
    {
      "inputs": [],
      "name": "RENOUNCE_OWNERSHIP_CONFIRMATION_PERIOD",
      "outputs": [
        {
          "internalType": "uint256",
          "name": "",
          "type": "uint256"
        }
      ],
      "stateMutability": "view",
      "type": "function"
    },
    {
      "inputs": [],
      "name": "acceptOwnership",
      "outputs": [],
      "stateMutability": "nonpayable",
      "type": "function"
    },
    {
      "inputs": [
        {
          "internalType": "uint256[]",
          "name": "operationsType",
          "type": "uint256[]"
        },
        {
          "internalType": "address[]",
          "name": "targets",
          "type": "address[]"
        },
        {
          "internalType": "uint256[]",
          "name": "values",
          "type": "uint256[]"
        },
        {
          "internalType": "bytes[]",
          "name": "datas",
          "type": "bytes[]"
        }
      ],
      "name": "execute",
      "outputs": [
        {
          "internalType": "bytes[]",
          "name": "",
          "type": "bytes[]"
        }
      ],
      "stateMutability": "payable",
      "type": "function"
    },
    {
      "inputs": [
        {
          "internalType": "uint256",
          "name": "operationType",
          "type": "uint256"
        },
        {
          "internalType": "address",
          "name": "target",
          "type": "address"
        },
        {
          "internalType": "uint256",
          "name": "value",
          "type": "uint256"
        },
        {
          "internalType": "bytes",
          "name": "data",
          "type": "bytes"
        }
      ],
      "name": "execute",
      "outputs": [
        {
          "internalType": "bytes",
          "name": "",
          "type": "bytes"
        }
      ],
      "stateMutability": "payable",
      "type": "function"
    },
    {
      "inputs": [
        {
          "internalType": "bytes32[]",
          "name": "dataKeys",
          "type": "bytes32[]"
        }
      ],
      "name": "getData",
      "outputs": [
        {
          "internalType": "bytes[]",
          "name": "dataValues",
          "type": "bytes[]"
        }
      ],
      "stateMutability": "view",
      "type": "function"
    },
    {
      "inputs": [
        {
          "internalType": "bytes32",
          "name": "dataKey",
          "type": "bytes32"
        }
      ],
      "name": "getData",
      "outputs": [
        {
          "internalType": "bytes",
          "name": "dataValue",
          "type": "bytes"
        }
      ],
      "stateMutability": "view",
      "type": "function"
    },
    {
      "inputs": [
        {
          "internalType": "bytes32",
          "name": "dataHash",
          "type": "bytes32"
        },
        {
          "internalType": "bytes",
          "name": "signature",
          "type": "bytes"
        }
      ],
      "name": "isValidSignature",
      "outputs": [
        {
          "internalType": "bytes4",
          "name": "magicValue",
          "type": "bytes4"
        }
      ],
      "stateMutability": "view",
      "type": "function"
    },
    {
      "inputs": [],
      "name": "owner",
      "outputs": [
        {
          "internalType": "address",
          "name": "",
          "type": "address"
        }
      ],
      "stateMutability": "view",
      "type": "function"
    },
    {
      "inputs": [],
      "name": "pendingOwner",
      "outputs": [
        {
          "internalType": "address",
          "name": "",
          "type": "address"
        }
      ],
      "stateMutability": "view",
      "type": "function"
    },
    {
      "inputs": [],
      "name": "renounceOwnership",
      "outputs": [],
      "stateMutability": "nonpayable",
      "type": "function"
    },
    {
      "inputs": [
        {
          "internalType": "bytes32[]",
          "name": "dataKeys",
          "type": "bytes32[]"
        },
        {
          "internalType": "bytes[]",
          "name": "dataValues",
          "type": "bytes[]"
        }
      ],
      "name": "setData",
      "outputs": [],
      "stateMutability": "nonpayable",
      "type": "function"
    },
    {
      "inputs": [
        {
          "internalType": "bytes32",
          "name": "dataKey",
          "type": "bytes32"
        },
        {
          "internalType": "bytes",
          "name": "dataValue",
          "type": "bytes"
        }
      ],
      "name": "setData",
      "outputs": [],
      "stateMutability": "nonpayable",
      "type": "function"
    },
    {
      "inputs": [
        {
          "internalType": "bytes4",
          "name": "interfaceId",
          "type": "bytes4"
        }
      ],
      "name": "supportsInterface",
      "outputs": [
        {
          "internalType": "bool",
          "name": "",
          "type": "bool"
        }
      ],
      "stateMutability": "view",
      "type": "function"
    },
    {
      "inputs": [
        {
          "internalType": "address",
          "name": "_newOwner",
          "type": "address"
        }
      ],
      "name": "transferOwnership",
      "outputs": [],
      "stateMutability": "nonpayable",
      "type": "function"
    },
    {
      "inputs": [
        {
          "internalType": "bytes32",
          "name": "typeId",
          "type": "bytes32"
        },
        {
          "internalType": "bytes",
          "name": "receivedData",
          "type": "bytes"
        }
      ],
      "name": "universalReceiver",
      "outputs": [
        {
          "internalType": "bytes",
          "name": "returnedValues",
          "type": "bytes"
        }
      ],
      "stateMutability": "payable",
      "type": "function"
    },
    {
      "stateMutability": "payable",
      "type": "receive"
    }
  ],
  "bytecode": "0x608060405260405162003030380380620030308339810160408190526200002691620002cd565b8034156200005c57604051349033907f7e71433ddf847725166244795048ecf3e3f9f35628254ecbf73605666423349390600090a35b6200007281620000c260201b62000a511760201c565b5060408051808201909152600481526355f212eb60e11b6020820152620000bb907feafec4d89fa9619884b60000abe425d64acd861a49b8ddf5c0b6962110481f389062000129565b50620004ef565b6000546001600160a01b038281169116146200012657600080546001600160a01b038381166001600160a01b0319831681178455604051919092169283917f8be0079c531659141344cd1fd0a4f28419497f9722a3daafe3b4186f6b6457e09190a3505b50565b6000828152600160205260409020620001438282620003a4565b50817fece574603820d07bc9b91f2a932baadf4628aabcb8afba49776529c14a6104b26101008351111562000193576200018d836000610100620001b060201b62000ab61760201c565b62000195565b825b604051620001a4919062000470565b60405180910390a25050565b606081620001c081601f620004c8565b1015620002055760405162461bcd60e51b815260206004820152600e60248201526d736c6963655f6f766572666c6f7760901b60448201526064015b60405180910390fd5b620002118284620004c8565b84511015620002575760405162461bcd60e51b8152602060048201526011602482015270736c6963655f6f75744f66426f756e647360781b6044820152606401620001fc565b606082158015620002785760405191506000825260208201604052620002c4565b6040519150601f8416801560200281840101858101878315602002848b0101015b81831015620002b357805183526020928301920162000299565b5050858452601f01601f1916604052505b50949350505050565b600060208284031215620002e057600080fd5b81516001600160a01b0381168114620002f857600080fd5b9392505050565b634e487b7160e01b600052604160045260246000fd5b600181811c908216806200032a57607f821691505b6020821081036200034b57634e487b7160e01b600052602260045260246000fd5b50919050565b601f8211156200039f57600081815260208120601f850160051c810160208610156200037a5750805b601f850160051c820191505b818110156200039b5782815560010162000386565b5050505b505050565b81516001600160401b03811115620003c057620003c0620002ff565b620003d881620003d1845462000315565b8462000351565b602080601f831160018114620004105760008415620003f75750858301515b600019600386901b1c1916600185901b1785556200039b565b600085815260208120601f198616915b82811015620004415788860151825594840194600190910190840162000420565b5085821015620004605787850151600019600388901b60f8161c191681555b5050505050600190811b01905550565b600060208083528351808285015260005b818110156200049f5785810183015185820160400152820162000481565b81811115620004b2576000604083870101525b50601f01601f1916929092016040019392505050565b60008219821115620004ea57634e487b7160e01b600052601160045260246000fd5b500190565b612b3180620004ff6000396000f3fe6080604052600436106100f75760003560e01c80636bb56a141161008a5780638da5cb5b116100595780638da5cb5b1461031c578063e30c39781461034e578063ead3fbdf1461018e578063f2fde38b1461036c57610132565b80636bb56a14146102bf578063715018a6146102d257806379ba5097146102e75780637f23690c146102fc57610132565b80631626ba7e116100c65780631626ba7e1461022657806344c028fe1461025f5780634e3e6e9c1461027f57806354f6127f1461029f57610132565b806301bfba611461018e57806301ffc9a7146101b657806313ced88d146101e657806314a6e2931461020657610132565b3661013257341561013057604051349033907f7e71433ddf847725166244795048ecf3e3f9f35628254ecbf73605666423349390600090a35b005b341561016657604051349033907f7e71433ddf847725166244795048ecf3e3f9f35628254ecbf73605666423349390600090a35b600436108061017f57506000356001600160e01b031916155b1561018657005b61013061038c565b34801561019a57600080fd5b506101a3606481565b6040519081526020015b60405180910390f35b3480156101c257600080fd5b506101d66101d1366004612162565b610431565b60405190151581526020016101ad565b6101f96101f4366004612377565b6104ee565b6040516101ad91906124db565b34801561021257600080fd5b5061013061022136600461253d565b610543565b34801561023257600080fd5b506102466102413660046125a1565b6105e3565b6040516001600160e01b031990911681526020016101ad565b61027261026d3660046125de565b610755565b6040516101ad9190612633565b34801561028b57600080fd5b506101f961029a366004612646565b61079f565b3480156102ab57600080fd5b506102726102ba36600461267b565b610853565b6102726102cd366004612694565b61085e565b3480156102de57600080fd5b50610130610a0d565b3480156102f357600080fd5b50610130610a1f565b34801561030857600080fd5b506101306103173660046125a1565b610a27565b34801561032857600080fd5b506000546001600160a01b03165b6040516001600160a01b0390911681526020016101ad565b34801561035a57600080fd5b506003546001600160a01b0316610336565b34801561037857600080fd5b50610130610387366004612710565b610a3d565b60006103a36000356001600160e01b031916610be0565b90506001600160a01b0381166103f8576040517fbb370b2b0000000000000000000000000000000000000000000000000000000081526001600160e01b03196000351660048201526024015b60405180910390fd5b36600080373360601b365234601436015260008060343601600080855af13d6000803e808015610427573d6000f35b3d6000fd5b505050565b60006001600160e01b03198216630b135d3f60e11b148061047b57506001600160e01b031982167f6676749700000000000000000000000000000000000000000000000000000000145b8061049657506001600160e01b03198216631aed5a8560e21b145b806104ca57506001600160e01b031982167f94be599900000000000000000000000000000000000000000000000000000000145b806104d957506104d982610c38565b806104e857506104e882610c76565b92915050565b60606104f8610cac565b341561052c57604051349033907f7e71433ddf847725166244795048ecf3e3f9f35628254ecbf73605666423349390600090a35b61053885858585610d15565b90505b949350505050565b61054b610cac565b805182511461059357815181516040517f43a3c266000000000000000000000000000000000000000000000000000000008152600481019290925260248201526044016103ef565b60005b825181101561042c576105db8382815181106105b4576105b461272b565b60200260200101518383815181106105ce576105ce61272b565b6020026020010151610e73565b600101610596565b6000806105f86000546001600160a01b031690565b90506001600160a01b0381163b1561071557600080826001600160a01b0316631626ba7e60e01b8787604051602401610632929190612741565b60408051601f198184030181529181526020820180516001600160e01b03166001600160e01b0319909416939093179092529051610670919061275a565b600060405180830381855afa9150503d80600081146106ab576040519150601f19603f3d011682016040523d82523d6000602084013e6106b0565b606091505b509150915060008280156106c5575081516020145b80156106ec57508151630b135d3f60e11b906106ea9084016020908101908501612776565b145b905080610701576001600160e01b031961070a565b630b135d3f60e11b5b9450505050506104e8565b61071f8484610ee7565b6001600160a01b0316816001600160a01b031614610745576001600160e01b031961053b565b630b135d3f60e11b949350505050565b606061075f610cac565b341561079357604051349033907f7e71433ddf847725166244795048ecf3e3f9f35628254ecbf73605666423349390600090a35b61053885858585610f0b565b6060815167ffffffffffffffff8111156107bb576107bb61218c565b6040519080825280602002602001820160405280156107ee57816020015b60608152602001906001900390816107d95790505b50905060005b825181101561084d5761081f8382815181106108125761081261272b565b6020026020010151611061565b8282815181106108315761083161272b565b60200260200101819052506108468160010190565b90506107f4565b50919050565b60606104e882611061565b6060341561089457604051349033907f7e71433ddf847725166244795048ecf3e3f9f35628254ecbf73605666423349390600090a35b60006108bf7f0cfc51aec37c55a4d0b1a65c6255c4bf2fbdf6277f3cc0730c45b828b6db8b47611061565b90506060601482511061090e5760006108d78361278f565b60601c90506108ed81631aed5a8560e21b611103565b1561090c576109096001600160a01b038216888888333461118c565b91505b505b600061093a7f0cfc51aec37c55a4d0b100000000000000000000000000000000000000000000886112d4565b9050600061094782611061565b90506060601482511061099657600061095f8361278f565b60601c905061097581631aed5a8560e21b611103565b15610994576109916001600160a01b0382168b8b8b333461118c565b91505b505b83816040516020016109a99291906127cb565b60405160208183030381529060405295508834336001600160a01b03167f9c3ba68eb5742b8e3961aea0afc7371a71bf433c8a67a831803b64c064a178c28b8b8b6040516109f993929190612819565b60405180910390a450505050509392505050565b610a15610cac565b610a1d61133d565b565b610a1d61143e565b610a2f610cac565b610a398282610e73565b5050565b610a45610cac565b610a4e81611516565b50565b6000546001600160a01b03828116911614610a4e57600080546001600160a01b038381166001600160a01b0319831681178455604051919092169283917f8be0079c531659141344cd1fd0a4f28419497f9722a3daafe3b4186f6b6457e09190a35050565b606081610ac481601f612855565b1015610b125760405162461bcd60e51b815260206004820152600e60248201527f736c6963655f6f766572666c6f7700000000000000000000000000000000000060448201526064016103ef565b610b1c8284612855565b84511015610b6c5760405162461bcd60e51b815260206004820152601160248201527f736c6963655f6f75744f66426f756e647300000000000000000000000000000060448201526064016103ef565b606082158015610b8b5760405191506000825260208201604052610bd5565b6040519150601f8416801560200281840101858101878315602002848b0101015b81831015610bc4578051835260209283019201610bac565b5050858452601f01601f1916604052505b5090505b9392505050565b600080610c177fcee78b4094da86011096000000000000000000000000000000000000000000006001600160e01b031985166112d4565b90506000610c2482611061565b610c2d9061278f565b60601c949350505050565b60006001600160e01b031982167fa918fa6b0000000000000000000000000000000000000000000000000000000014806104e857506104e88261166c565b600080610c896301ffc9a760e01b610be0565b90506001600160a01b038116610ca25750600092915050565b610bd98184611103565b33610cbf6000546001600160a01b031690565b6001600160a01b031614610a1d5760405162461bcd60e51b815260206004820181905260248201527f4f776e61626c653a2063616c6c6572206973206e6f7420746865206f776e657260448201526064016103ef565b606083518551141580610d36575082518451141580610d3657508151835114155b15610d6d576040517f3ff55f4d00000000000000000000000000000000000000000000000000000000815260040160405180910390fd5b6000855167ffffffffffffffff811115610d8957610d8961218c565b604051908082528060200260200182016040528015610dbc57816020015b6060815260200190600190039081610da75790505b50905060005b8651811015610e6957610e3b878281518110610de057610de061272b565b6020026020010151878381518110610dfa57610dfa61272b565b6020026020010151878481518110610e1457610e1461272b565b6020026020010151878581518110610e2e57610e2e61272b565b6020026020010151610f0b565b828281518110610e4d57610e4d61272b565b6020026020010181905250610e628160010190565b9050610dc2565b5095945050505050565b6000828152600160205260409020610e8b82826128ef565b50817fece574603820d07bc9b91f2a932baadf4628aabcb8afba49776529c14a6104b261010083511115610ecc57610ec7836000610100610ab6565b610ece565b825b604051610edb9190612633565b60405180910390a25050565b6000806000610ef685856116aa565b91509150610f03816116ef565b509392505050565b606084610f2457610f1d848484611854565b905061053b565b60018503610f5e576001600160a01b03841615610f5457604051631820c12560e11b815260040160405180910390fd5b610f1d8383611980565b60028503610f98576001600160a01b03841615610f8e57604051631820c12560e11b815260040160405180910390fd5b610f1d8383611a9a565b60038503610fe2578215610fd8576040517f72f2bc6a00000000000000000000000000000000000000000000000000000000815260040160405180910390fd5b610f1d8483611b85565b6004850361102c578215611022576040517f5ac8313500000000000000000000000000000000000000000000000000000000815260040160405180910390fd5b610f1d8483611c84565b6040517f7583b3bc000000000000000000000000000000000000000000000000000000008152600481018690526024016103ef565b600081815260016020526040902080546060919061107e9061286d565b80601f01602080910402602001604051908101604052809291908181526020018280546110aa9061286d565b80156110f75780601f106110cc576101008083540402835291602001916110f7565b820191906000526020600020905b8154815290600101906020018083116110da57829003601f168201915b50505050509050919050565b604080516001600160e01b03198316602480830191909152825180830390910181526044909101909152602080820180516001600160e01b03166301ffc9a760e01b178152825160009392849283928392918391908a617530fa92503d91506000519050828015611175575060208210155b80156111815750600081115b979650505050505050565b60606000636bb56a1460e01b8787876040516024016111ad939291906129af565b60408051601f19818403018152918152602080830180516001600160e01b03166001600160e01b031990951694909417909352516111ef9287918791016129c9565b6040516020818303038152906040529050600080896001600160a01b03168360405161121b919061275a565b6000604051808303816000865af19150503d8060008114611258576040519150601f19603f3d011682016040523d82523d6000602084013e61125d565b606091505b50915091506112a282826040518060400160405280602081526020017f43616c6c20746f20756e6976657273616c5265636569766572206661696c6564815250611d30565b5080516000036112b257806112c6565b808060200190518101906112c69190612a08565b9a9950505050505050505050565b604080517fffffffffffffffffffff00000000000000000000000000000000000000000000841660208201526000602a82018190526bffffffffffffffffffffffff198416602c8301529182910160405160208183030381529060405290508061053b90612a76565b600254439060009061135190606490612855565b90506000611360606483612855565b9050808311156113ad576002839055600380546001600160a01b03191690556040517f81b7f830f1f0084db6497c486cbe6974c86488dcc4e3738eab94ab6d6b1653e790600090a1505050565b818310156113f1576040517f8b9bf50700000000000000000000000000000000000000000000000000000000815260048101839052602481018290526044016103ef565b6113fb6000610a51565b60006002819055600380546001600160a01b03191690556040517fd1f66c3d2bc1993a86be5e3d33709d98f0442381befcedd29f578b9b2506b1ce9190a1505050565b6003546001600160a01b031633146114be5760405162461bcd60e51b815260206004820152602560248201527f4c535031343a2063616c6c6572206973206e6f74207468652070656e64696e6760448201527f4f776e657200000000000000000000000000000000000000000000000000000060648201526084016103ef565b6000546001600160a01b03166114d333610a51565b600380546001600160a01b03191690556040805160208101909152600081526114fd908290611d49565b610a4e3360405180602001604052806000815250611df4565b306001600160a01b03821603611558576040517f43b248cd00000000000000000000000000000000000000000000000000000000815260040160405180910390fd5b600380546001600160a01b0383166001600160a01b03199091161790556000600281905561158e6000546001600160a01b031690565b9050816001600160a01b0316816001600160a01b03167f38d16b8cac22d99fc7c124b9cd0de2d3fa1faef420bfe791d8c362d765e2270060405160405180910390a36115e98260405180602001604052806000815250611e58565b6000546001600160a01b03828116911614610a395760405162461bcd60e51b815260206004820152603f60248201527f4c535031343a206e65774f776e6572204d55535420616363657074206f776e6560448201527f727368697020696e2061207365706172617465207472616e73616374696f6e0060648201526084016103ef565b60006001600160e01b031982167f714df77c0000000000000000000000000000000000000000000000000000000014806104e857506104e882611ebc565b60008082516041036116e05760208301516040840151606085015160001a6116d487828585611f0a565b945094505050506116e8565b506000905060025b9250929050565b600081600481111561170357611703612a9a565b0361170b5750565b600181600481111561171f5761171f612a9a565b0361176c5760405162461bcd60e51b815260206004820152601860248201527f45434453413a20696e76616c6964207369676e6174757265000000000000000060448201526064016103ef565b600281600481111561178057611780612a9a565b036117cd5760405162461bcd60e51b815260206004820152601f60248201527f45434453413a20696e76616c6964207369676e6174757265206c656e6774680060448201526064016103ef565b60038160048111156117e1576117e1612a9a565b03610a4e5760405162461bcd60e51b815260206004820152602260248201527f45434453413a20696e76616c6964207369676e6174757265202773272076616c60448201527f756500000000000000000000000000000000000000000000000000000000000060648201526084016103ef565b606082471015611880576040516301bf351f60e31b8152476004820152602481018490526044016103ef565b826001600160a01b03851660007f4810874456b8e6487bd861375cf6abd8e1c8bb5858c8ce36a86a04dabfac199e6118b786612ab0565b6040516001600160e01b0319909116815260200160405180910390a4600080856001600160a01b031685856040516118ef919061275a565b60006040518083038185875af1925050503d806000811461192c576040519150601f19603f3d011682016040523d82523d6000602084013e611931565b606091505b509150915061197682826040518060400160405280601681526020017f455243373235583a20556e6b6e6f776e204572726f7200000000000000000000815250611d30565b9695505050505050565b6060824710156119ac576040516301bf351f60e31b8152476004820152602481018490526044016103ef565b81516000036119ce5760405163b81cd8d960e01b815260040160405180910390fd5b600082516020840185f090506001600160a01b038116611a1a576040517f0b07489b00000000000000000000000000000000000000000000000000000000815260040160405180910390fd5b6040516bffffffffffffffffffffffff19606083901b166020820152603401604051602081830303815290604052915083816001600160a01b031660017fa1fb700aaee2ae4a2ff6f91ce7eba292f89c2f5488b8ec4c5c5c8150692595c36000801b604051611a8b91815260200190565b60405180910390a45092915050565b60608151600003611abe5760405163b81cd8d960e01b815260040160405180910390fd5b6000611ad78360208551611ad29190612ae4565b611fce565b90506000611af484600060208751611aef9190612ae4565b610ab6565b90506000611b03868484612034565b6040516bffffffffffffffffffffffff19606083901b166020820152909150603401604051602081830303815290604052935085816001600160a01b031660027fa1fb700aaee2ae4a2ff6f91ce7eba292f89c2f5488b8ec4c5c5c8150692595c386604051611b7491815260200190565b60405180910390a450505092915050565b606060006001600160a01b03841660037f4810874456b8e6487bd861375cf6abd8e1c8bb5858c8ce36a86a04dabfac199e611bbf86612ab0565b6040516001600160e01b0319909116815260200160405180910390a4600080846001600160a01b031684604051611bf6919061275a565b600060405180830381855afa9150503d8060008114611c31576040519150601f19603f3d011682016040523d82523d6000602084013e611c36565b606091505b5091509150611c7b82826040518060400160405280601681526020017f455243373235583a20556e6b6e6f776e204572726f7200000000000000000000815250611d30565b95945050505050565b606060006001600160a01b03841660047f4810874456b8e6487bd861375cf6abd8e1c8bb5858c8ce36a86a04dabfac199e611cbe86612ab0565b6040516001600160e01b0319909116815260200160405180910390a4600080846001600160a01b031684604051611cf5919061275a565b600060405180830381855af49150503d8060008114611c31576040519150601f19603f3d011682016040523d82523d6000602084013e611c36565b60608315611d3f575081610bd9565b610bd98383612138565b611d5a82631aed5a8560e21b611103565b15610a3957604051631aed5a8560e21b81526001600160a01b03831690636bb56a1490611dad907fa4e59c931d14f7c8a7a35027f92ee40b5f2886b9fdcdb78f30bc5ecce5a2f814908590600401612741565b6000604051808303816000875af1158015611dcc573d6000803e3d6000fd5b505050506040513d6000823e601f3d908101601f1916820160405261042c9190810190612a08565b611e0582631aed5a8560e21b611103565b15610a3957604051631aed5a8560e21b81526001600160a01b03831690636bb56a1490611dad907fceca317f109c43507871523e82dc2a3cc64dfa18f12da0b6db14f6e23f995538908590600401612741565b611e6982631aed5a8560e21b611103565b15610a3957604051631aed5a8560e21b81526001600160a01b03831690636bb56a1490611dad907fe17117c9d2665d1dbeb479ed8058bbebde3c50ac50e2e65619f60006caac6926908590600401612741565b60006001600160e01b031982167f570ef0730000000000000000000000000000000000000000000000000000000014806104e857506301ffc9a760e01b6001600160e01b03198316146104e8565b6000807f7fffffffffffffffffffffffffffffff5d576e7357a4501ddfe92f46681b20a0831115611f415750600090506003611fc5565b6040805160008082526020820180845289905260ff881692820192909252606081018690526080810185905260019060a0016020604051602081039080840390855afa158015611f95573d6000803e3d6000fd5b5050604051601f1901519150506001600160a01b038116611fbe57600060019250925050611fc5565b9150600090505b94509492505050565b6000611fdb826020612855565b8351101561202b5760405162461bcd60e51b815260206004820152601560248201527f746f427974657333325f6f75744f66426f756e6473000000000000000000000060448201526064016103ef565b50016020015190565b6000834710156120865760405162461bcd60e51b815260206004820152601d60248201527f437265617465323a20696e73756666696369656e742062616c616e636500000060448201526064016103ef565b81516000036120d75760405162461bcd60e51b815260206004820181905260248201527f437265617465323a2062797465636f6465206c656e677468206973207a65726f60448201526064016103ef565b8282516020840186f590506001600160a01b038116610bd95760405162461bcd60e51b815260206004820152601960248201527f437265617465323a204661696c6564206f6e206465706c6f790000000000000060448201526064016103ef565b8151156121485781518083602001fd5b8060405162461bcd60e51b81526004016103ef9190612633565b60006020828403121561217457600080fd5b81356001600160e01b031981168114610bd957600080fd5b634e487b7160e01b600052604160045260246000fd5b604051601f8201601f1916810167ffffffffffffffff811182821017156121cb576121cb61218c565b604052919050565b600067ffffffffffffffff8211156121ed576121ed61218c565b5060051b60200190565b600082601f83011261220857600080fd5b8135602061221d612218836121d3565b6121a2565b82815260059290921b8401810191818101908684111561223c57600080fd5b8286015b848110156122575780358352918301918301612240565b509695505050505050565b80356001600160a01b038116811461227957600080fd5b919050565b600067ffffffffffffffff8211156122985761229861218c565b50601f01601f191660200190565b600082601f8301126122b757600080fd5b81356122c56122188261227e565b8181528460208386010111156122da57600080fd5b816020850160208301376000918101602001919091529392505050565b600082601f83011261230857600080fd5b81356020612318612218836121d3565b82815260059290921b8401810191818101908684111561233757600080fd5b8286015b8481101561225757803567ffffffffffffffff81111561235b5760008081fd5b6123698986838b01016122a6565b84525091830191830161233b565b6000806000806080858703121561238d57600080fd5b843567ffffffffffffffff808211156123a557600080fd5b6123b1888389016121f7565b95506020915081870135818111156123c857600080fd5b8701601f810189136123d957600080fd5b80356123e7612218826121d3565b81815260059190911b8201840190848101908b83111561240657600080fd5b928501925b8284101561242b5761241c84612262565b8252928501929085019061240b565b9750505050604087013591508082111561244457600080fd5b612450888389016121f7565b9350606087013591508082111561246657600080fd5b50612473878288016122f7565b91505092959194509250565b60005b8381101561249a578181015183820152602001612482565b838111156124a9576000848401525b50505050565b600081518084526124c781602086016020860161247f565b601f01601f19169290920160200192915050565b6000602080830181845280855180835260408601915060408160051b870101925083870160005b8281101561253057603f1988860301845261251e8583516124af565b94509285019290850190600101612502565b5092979650505050505050565b6000806040838503121561255057600080fd5b823567ffffffffffffffff8082111561256857600080fd5b612574868387016121f7565b9350602085013591508082111561258a57600080fd5b50612597858286016122f7565b9150509250929050565b600080604083850312156125b457600080fd5b82359150602083013567ffffffffffffffff8111156125d257600080fd5b612597858286016122a6565b600080600080608085870312156125f457600080fd5b8435935061260460208601612262565b925060408501359150606085013567ffffffffffffffff81111561262757600080fd5b612473878288016122a6565b602081526000610bd960208301846124af565b60006020828403121561265857600080fd5b813567ffffffffffffffff81111561266f57600080fd5b61053b848285016121f7565b60006020828403121561268d57600080fd5b5035919050565b6000806000604084860312156126a957600080fd5b83359250602084013567ffffffffffffffff808211156126c857600080fd5b818601915086601f8301126126dc57600080fd5b8135818111156126eb57600080fd5b8760208285010111156126fd57600080fd5b6020830194508093505050509250925092565b60006020828403121561272257600080fd5b610bd982612262565b634e487b7160e01b600052603260045260246000fd5b82815260406020820152600061053b60408301846124af565b6000825161276c81846020870161247f565b9190910192915050565b60006020828403121561278857600080fd5b5051919050565b805160208201516bffffffffffffffffffffffff1980821692919060148310156127c35780818460140360031b1b83161693505b505050919050565b6040815260006127de60408301856124af565b8281036020840152611c7b81856124af565b81835281816020850137506000828201602090810191909152601f909101601f19169091010190565b60408152600061282d6040830185876127f0565b828103602084015261197681856124af565b634e487b7160e01b600052601160045260246000fd5b600082198211156128685761286861283f565b500190565b600181811c9082168061288157607f821691505b60208210810361084d57634e487b7160e01b600052602260045260246000fd5b601f82111561042c57600081815260208120601f850160051c810160208610156128c85750805b601f850160051c820191505b818110156128e7578281556001016128d4565b505050505050565b815167ffffffffffffffff8111156129095761290961218c565b61291d81612917845461286d565b846128a1565b602080601f831160018114612952576000841561293a5750858301515b600019600386901b1c1916600185901b1785556128e7565b600085815260208120601f198616915b8281101561298157888601518255948401946001909101908401612962565b508582101561299f5787850151600019600388901b60f8161c191681555b5050505050600190811b01905550565b8381526040602082015260006105386040830184866127f0565b600084516129db81846020890161247f565b60609490941b6bffffffffffffffffffffffff191691909301908152601481019190915260340192915050565b600060208284031215612a1a57600080fd5b815167ffffffffffffffff811115612a3157600080fd5b8201601f81018413612a4257600080fd5b8051612a506122188261227e565b818152856020838501011115612a6557600080fd5b611c7b82602083016020860161247f565b8051602080830151919081101561084d5760001960209190910360031b1b16919050565b634e487b7160e01b600052602160045260246000fd5b6000815160208301516001600160e01b0319808216935060048310156127c35760049290920360031b82901b161692915050565b600082821015612af657612af661283f565b50039056fea264697066735822122037e4ce4cac41cc9be0fc69d34d3d2fee55405cac6ab1006831dccc43d13b518f64736f6c634300080f0033",
  "linkReferences": {},
  "deployedLinkReferences": {}
}