{
  "_format": "hh-sol-artifact-1",
  "contractName": "UniversalProfileInit",
  "sourceName": "contracts/UniversalProfileInit.sol",
  "abi": [
    {
      "inputs": [],
      "stateMutability": "nonpayable",
      "type": "constructor"
    },
    {
      "inputs": [],
      "name": "CannotTransferOwnershipToSelf",
      "type": "error"
    },
    {
      "inputs": [],
      "name": "ERC725X_ContractDeploymentFailed",
      "type": "error"
    },
    {
      "inputs": [],
      "name": "ERC725X_CreateOperationsRequireEmptyRecipientAddress",
      "type": "error"
    },
    {
      "inputs": [],
      "name": "ERC725X_ExecuteParametersLengthMismatch",
      "type": "error"
    },
    {
      "inputs": [
        {
          "internalType": "uint256",
          "name": "balance",
          "type": "uint256"
        },
        {
          "internalType": "uint256",
          "name": "value",
          "type": "uint256"
        }
      ],
      "name": "ERC725X_InsufficientBalance",
      "type": "error"
    },
    {
      "inputs": [],
      "name": "ERC725X_MsgValueDisallowedInDelegateCall",
      "type": "error"
    },
    {
      "inputs": [],
      "name": "ERC725X_MsgValueDisallowedInStaticCall",
      "type": "error"
    },
    {
      "inputs": [],
      "name": "ERC725X_NoContractBytecodeProvided",
      "type": "error"
    },
    {
      "inputs": [
        {
          "internalType": "uint256",
          "name": "operationTypeProvided",
          "type": "uint256"
        }
      ],
      "name": "ERC725X_UnknownOperationType",
      "type": "error"
    },
    {
      "inputs": [
        {
          "internalType": "uint256",
          "name": "dataKeysLength",
          "type": "uint256"
        },
        {
          "internalType": "uint256",
          "name": "dataValuesLength",
          "type": "uint256"
        }
      ],
      "name": "ERC725Y_DataKeysValuesLengthMismatch",
      "type": "error"
    },
    {
      "inputs": [
        {
          "internalType": "bytes4",
          "name": "functionSelector",
          "type": "bytes4"
        }
      ],
      "name": "NoExtensionFoundForFunctionSelector",
      "type": "error"
    },
    {
      "inputs": [
        {
          "internalType": "uint256",
          "name": "renounceOwnershipStart",
          "type": "uint256"
        },
        {
          "internalType": "uint256",
          "name": "renounceOwnershipEnd",
          "type": "uint256"
        }
      ],
      "name": "NotInRenounceOwnershipInterval",
      "type": "error"
    },
    {
      "anonymous": false,
      "inputs": [
        {
          "indexed": true,
          "internalType": "uint256",
          "name": "operationType",
          "type": "uint256"
        },
        {
          "indexed": true,
          "internalType": "address",
          "name": "contractAddress",
          "type": "address"
        },
        {
          "indexed": true,
          "internalType": "uint256",
          "name": "value",
          "type": "uint256"
        },
        {
          "indexed": false,
          "internalType": "bytes32",
          "name": "salt",
          "type": "bytes32"
        }
      ],
      "name": "ContractCreated",
      "type": "event"
    },
    {
      "anonymous": false,
      "inputs": [
        {
          "indexed": true,
          "internalType": "bytes32",
          "name": "dataKey",
          "type": "bytes32"
        },
        {
          "indexed": false,
          "internalType": "bytes",
          "name": "dataValue",
          "type": "bytes"
        }
      ],
      "name": "DataChanged",
      "type": "event"
    },
    {
      "anonymous": false,
      "inputs": [
        {
          "indexed": true,
          "internalType": "uint256",
          "name": "operationType",
          "type": "uint256"
        },
        {
          "indexed": true,
          "internalType": "address",
          "name": "target",
          "type": "address"
        },
        {
          "indexed": true,
          "internalType": "uint256",
          "name": "value",
          "type": "uint256"
        },
        {
          "indexed": false,
          "internalType": "bytes4",
          "name": "selector",
          "type": "bytes4"
        }
      ],
      "name": "Executed",
      "type": "event"
    },
    {
      "anonymous": false,
      "inputs": [
        {
          "indexed": false,
          "internalType": "uint8",
          "name": "version",
          "type": "uint8"
        }
      ],
      "name": "Initialized",
      "type": "event"
    },
    {
      "anonymous": false,
      "inputs": [],
      "name": "OwnershipRenounced",
      "type": "event"
    },
    {
      "anonymous": false,
      "inputs": [
        {
          "indexed": true,
          "internalType": "address",
          "name": "previousOwner",
          "type": "address"
        },
        {
          "indexed": true,
          "internalType": "address",
          "name": "newOwner",
          "type": "address"
        }
      ],
      "name": "OwnershipTransferStarted",
      "type": "event"
    },
    {
      "anonymous": false,
      "inputs": [
        {
          "indexed": true,
          "internalType": "address",
          "name": "previousOwner",
          "type": "address"
        },
        {
          "indexed": true,
          "internalType": "address",
          "name": "newOwner",
          "type": "address"
        }
      ],
      "name": "OwnershipTransferred",
      "type": "event"
    },
    {
      "anonymous": false,
      "inputs": [],
      "name": "RenounceOwnershipStarted",
      "type": "event"
    },
    {
      "anonymous": false,
      "inputs": [
        {
          "indexed": true,
          "internalType": "address",
          "name": "from",
          "type": "address"
        },
        {
          "indexed": true,
          "internalType": "uint256",
          "name": "value",
          "type": "uint256"
        },
        {
          "indexed": true,
          "internalType": "bytes32",
          "name": "typeId",
          "type": "bytes32"
        },
        {
          "indexed": false,
          "internalType": "bytes",
          "name": "receivedData",
          "type": "bytes"
        },
        {
          "indexed": false,
          "internalType": "bytes",
          "name": "returnedValue",
          "type": "bytes"
        }
      ],
      "name": "UniversalReceiver",
      "type": "event"
    },
    {
      "anonymous": false,
      "inputs": [
        {
          "indexed": true,
          "internalType": "address",
          "name": "sender",
          "type": "address"
        },
        {
          "indexed": true,
          "internalType": "uint256",
          "name": "value",
          "type": "uint256"
        }
      ],
      "name": "ValueReceived",
      "type": "event"
    },
    {
      "stateMutability": "payable",
      "type": "fallback"
    },
    {
      "inputs": [],
      "name": "RENOUNCE_OWNERSHIP_CONFIRMATION_DELAY",
      "outputs": [
        {
          "internalType": "uint256",
          "name": "",
          "type": "uint256"
        }
      ],
      "stateMutability": "view",
      "type": "function"
    },
    {
      "inputs": [],
      "name": "RENOUNCE_OWNERSHIP_CONFIRMATION_PERIOD",
      "outputs": [
        {
          "internalType": "uint256",
          "name": "",
          "type": "uint256"
        }
      ],
      "stateMutability": "view",
      "type": "function"
    },
    {
      "inputs": [],
      "name": "acceptOwnership",
      "outputs": [],
      "stateMutability": "nonpayable",
      "type": "function"
    },
    {
      "inputs": [
        {
          "internalType": "uint256[]",
          "name": "operationsType",
          "type": "uint256[]"
        },
        {
          "internalType": "address[]",
          "name": "targets",
          "type": "address[]"
        },
        {
          "internalType": "uint256[]",
          "name": "values",
          "type": "uint256[]"
        },
        {
          "internalType": "bytes[]",
          "name": "datas",
          "type": "bytes[]"
        }
      ],
      "name": "execute",
      "outputs": [
        {
          "internalType": "bytes[]",
          "name": "",
          "type": "bytes[]"
        }
      ],
      "stateMutability": "payable",
      "type": "function"
    },
    {
      "inputs": [
        {
          "internalType": "uint256",
          "name": "operationType",
          "type": "uint256"
        },
        {
          "internalType": "address",
          "name": "target",
          "type": "address"
        },
        {
          "internalType": "uint256",
          "name": "value",
          "type": "uint256"
        },
        {
          "internalType": "bytes",
          "name": "data",
          "type": "bytes"
        }
      ],
      "name": "execute",
      "outputs": [
        {
          "internalType": "bytes",
          "name": "",
          "type": "bytes"
        }
      ],
      "stateMutability": "payable",
      "type": "function"
    },
    {
      "inputs": [
        {
          "internalType": "bytes32[]",
          "name": "dataKeys",
          "type": "bytes32[]"
        }
      ],
      "name": "getData",
      "outputs": [
        {
          "internalType": "bytes[]",
          "name": "dataValues",
          "type": "bytes[]"
        }
      ],
      "stateMutability": "view",
      "type": "function"
    },
    {
      "inputs": [
        {
          "internalType": "bytes32",
          "name": "dataKey",
          "type": "bytes32"
        }
      ],
      "name": "getData",
      "outputs": [
        {
          "internalType": "bytes",
          "name": "dataValue",
          "type": "bytes"
        }
      ],
      "stateMutability": "view",
      "type": "function"
    },
    {
      "inputs": [
        {
          "internalType": "address",
          "name": "newOwner",
          "type": "address"
        }
      ],
      "name": "initialize",
      "outputs": [],
      "stateMutability": "payable",
      "type": "function"
    },
    {
      "inputs": [
        {
          "internalType": "bytes32",
          "name": "dataHash",
          "type": "bytes32"
        },
        {
          "internalType": "bytes",
          "name": "signature",
          "type": "bytes"
        }
      ],
      "name": "isValidSignature",
      "outputs": [
        {
          "internalType": "bytes4",
          "name": "magicValue",
          "type": "bytes4"
        }
      ],
      "stateMutability": "view",
      "type": "function"
    },
    {
      "inputs": [],
      "name": "owner",
      "outputs": [
        {
          "internalType": "address",
          "name": "",
          "type": "address"
        }
      ],
      "stateMutability": "view",
      "type": "function"
    },
    {
      "inputs": [],
      "name": "pendingOwner",
      "outputs": [
        {
          "internalType": "address",
          "name": "",
          "type": "address"
        }
      ],
      "stateMutability": "view",
      "type": "function"
    },
    {
      "inputs": [],
      "name": "renounceOwnership",
      "outputs": [],
      "stateMutability": "nonpayable",
      "type": "function"
    },
    {
      "inputs": [
        {
          "internalType": "bytes32[]",
          "name": "dataKeys",
          "type": "bytes32[]"
        },
        {
          "internalType": "bytes[]",
          "name": "dataValues",
          "type": "bytes[]"
        }
      ],
      "name": "setData",
      "outputs": [],
      "stateMutability": "nonpayable",
      "type": "function"
    },
    {
      "inputs": [
        {
          "internalType": "bytes32",
          "name": "dataKey",
          "type": "bytes32"
        },
        {
          "internalType": "bytes",
          "name": "dataValue",
          "type": "bytes"
        }
      ],
      "name": "setData",
      "outputs": [],
      "stateMutability": "nonpayable",
      "type": "function"
    },
    {
      "inputs": [
        {
          "internalType": "bytes4",
          "name": "interfaceId",
          "type": "bytes4"
        }
      ],
      "name": "supportsInterface",
      "outputs": [
        {
          "internalType": "bool",
          "name": "",
          "type": "bool"
        }
      ],
      "stateMutability": "view",
      "type": "function"
    },
    {
      "inputs": [
        {
          "internalType": "address",
          "name": "_newOwner",
          "type": "address"
        }
      ],
      "name": "transferOwnership",
      "outputs": [],
      "stateMutability": "nonpayable",
      "type": "function"
    },
    {
      "inputs": [
        {
          "internalType": "bytes32",
          "name": "typeId",
          "type": "bytes32"
        },
        {
          "internalType": "bytes",
          "name": "receivedData",
          "type": "bytes"
        }
      ],
      "name": "universalReceiver",
      "outputs": [
        {
          "internalType": "bytes",
          "name": "returnedValues",
          "type": "bytes"
        }
      ],
      "stateMutability": "payable",
      "type": "function"
    },
    {
      "stateMutability": "payable",
      "type": "receive"
    }
  ],
  "bytecode": "0x60806040523480156200001157600080fd5b506200001c62000022565b620000e4565b600054610100900460ff16156200008f5760405162461bcd60e51b815260206004820152602760248201527f496e697469616c697a61626c653a20636f6e747261637420697320696e697469604482015266616c697a696e6760c81b606482015260840160405180910390fd5b60005460ff9081161015620000e2576000805460ff191660ff9081179091556040519081527f7f26b83ff96e1f2b6a682f133852f6798a09c465da95921460cefb38474024989060200160405180910390a15b565b612e6280620000f46000396000f3fe6080604052600436106101125760003560e01c80636bb56a14116100a55780638da5cb5b11610074578063e30c397811610059578063e30c397814610382578063ead3fbdf146101a9578063f2fde38b146103a05761014d565b80638da5cb5b14610337578063c4d66de81461036f5761014d565b80636bb56a14146102da578063715018a6146102ed57806379ba5097146103025780637f23690c146103175761014d565b80631626ba7e116100e15780631626ba7e1461024157806344c028fe1461027a5780634e3e6e9c1461029a57806354f6127f146102ba5761014d565b806301bfba61146101a957806301ffc9a7146101d157806313ced88d1461020157806314a6e293146102215761014d565b3661014d57341561014b57604051349033907f7e71433ddf847725166244795048ecf3e3f9f35628254ecbf73605666423349390600090a35b005b341561018157604051349033907f7e71433ddf847725166244795048ecf3e3f9f35628254ecbf73605666423349390600090a35b600436108061019a57506000356001600160e01b031916155b156101a157005b61014b6103c0565b3480156101b557600080fd5b506101be606481565b6040519081526020015b60405180910390f35b3480156101dd57600080fd5b506101f16101ec366004612493565b610465565b60405190151581526020016101c8565b61021461020f3660046126a8565b610522565b6040516101c8919061280c565b34801561022d57600080fd5b5061014b61023c36600461286e565b610577565b34801561024d57600080fd5b5061026161025c3660046128d2565b610617565b6040516001600160e01b031990911681526020016101c8565b61028d61028836600461290f565b61077c565b6040516101c89190612964565b3480156102a657600080fd5b506102146102b5366004612977565b6107c6565b3480156102c657600080fd5b5061028d6102d53660046129ac565b61087a565b61028d6102e83660046129c5565b610885565b3480156102f957600080fd5b5061014b610a34565b34801561030e57600080fd5b5061014b610a46565b34801561032357600080fd5b5061014b6103323660046128d2565b610a4e565b34801561034357600080fd5b506000546201000090046001600160a01b03165b6040516001600160a01b0390911681526020016101c8565b61014b61037d366004612a41565b610a64565b34801561038e57600080fd5b506003546001600160a01b0316610357565b3480156103ac57600080fd5b5061014b6103bb366004612a41565b610b85565b60006103d76000356001600160e01b031916610b99565b90506001600160a01b03811661042c576040517fbb370b2b0000000000000000000000000000000000000000000000000000000081526001600160e01b03196000351660048201526024015b60405180910390fd5b36600080373360601b365234601436015260008060343601600080855af13d6000803e80801561045b573d6000f35b3d6000fd5b505050565b60006001600160e01b03198216630b135d3f60e11b14806104af57506001600160e01b031982167f6676749700000000000000000000000000000000000000000000000000000000145b806104ca57506001600160e01b03198216631aed5a8560e21b145b806104fe57506001600160e01b031982167f94be599900000000000000000000000000000000000000000000000000000000145b8061050d575061050d82610bf1565b8061051c575061051c82610c2f565b92915050565b606061052c610c6c565b341561056057604051349033907f7e71433ddf847725166244795048ecf3e3f9f35628254ecbf73605666423349390600090a35b61056c85858585610ccd565b90505b949350505050565b61057f610c6c565b80518251146105c757815181516040517f43a3c26600000000000000000000000000000000000000000000000000000000815260048101929092526024820152604401610423565b60005b82518110156104605761060f8382815181106105e8576105e8612a5c565b602002602001015183838151811061060257610602612a5c565b6020026020010151610e2b565b6001016105ca565b600080546201000090046001600160a01b0316803b1561073c57600080826001600160a01b0316631626ba7e60e01b8787604051602401610659929190612a72565b60408051601f198184030181529181526020820180516001600160e01b03166001600160e01b03199094169390931790925290516106979190612a8b565b600060405180830381855afa9150503d80600081146106d2576040519150601f19603f3d011682016040523d82523d6000602084013e6106d7565b606091505b509150915060008280156106ec575081516020145b801561071357508151630b135d3f60e11b906107119084016020908101908501612aa7565b145b905080610728576001600160e01b0319610731565b630b135d3f60e11b5b94505050505061051c565b6107468484610e9f565b6001600160a01b0316816001600160a01b03161461076c576001600160e01b031961056f565b630b135d3f60e11b949350505050565b6060610786610c6c565b34156107ba57604051349033907f7e71433ddf847725166244795048ecf3e3f9f35628254ecbf73605666423349390600090a35b61056c85858585610ec3565b6060815167ffffffffffffffff8111156107e2576107e26124bd565b60405190808252806020026020018201604052801561081557816020015b60608152602001906001900390816108005790505b50905060005b82518110156108745761084683828151811061083957610839612a5c565b6020026020010151611019565b82828151811061085857610858612a5c565b602002602001018190525061086d8160010190565b905061081b565b50919050565b606061051c82611019565b606034156108bb57604051349033907f7e71433ddf847725166244795048ecf3e3f9f35628254ecbf73605666423349390600090a35b60006108e67f0cfc51aec37c55a4d0b1a65c6255c4bf2fbdf6277f3cc0730c45b828b6db8b47611019565b9050606060148251106109355760006108fe83612ac0565b60601c905061091481631aed5a8560e21b6110bb565b15610933576109306001600160a01b0382168888883334611144565b91505b505b60006109617f0cfc51aec37c55a4d0b1000000000000000000000000000000000000000000008861128c565b9050600061096e82611019565b9050606060148251106109bd57600061098683612ac0565b60601c905061099c81631aed5a8560e21b6110bb565b156109bb576109b86001600160a01b0382168b8b8b3334611144565b91505b505b83816040516020016109d0929190612afc565b60405160208183030381529060405295508834336001600160a01b03167f9c3ba68eb5742b8e3961aea0afc7371a71bf433c8a67a831803b64c064a178c28b8b8b604051610a2093929190612b4a565b60405180910390a450505050509392505050565b610a3c610c6c565b610a446112f5565b565b610a44611410565b610a56610c6c565b610a608282610e2b565b5050565b600054610100900460ff1615808015610a845750600054600160ff909116105b80610a9e5750303b158015610a9e575060005460ff166001145b610b105760405162461bcd60e51b815260206004820152602e60248201527f496e697469616c697a61626c653a20636f6e747261637420697320616c72656160448201527f647920696e697469616c697a65640000000000000000000000000000000000006064820152608401610423565b6000805460ff191660011790558015610b33576000805461ff0019166101001790555b610b3c826114fb565b8015610a60576000805461ff0019169055604051600181527f7f26b83ff96e1f2b6a682f133852f6798a09c465da95921460cefb38474024989060200160405180910390a15050565b610b8d610c6c565b610b96816115d1565b50565b600080610bd07fcee78b4094da86011096000000000000000000000000000000000000000000006001600160e01b0319851661128c565b90506000610bdd82611019565b610be690612ac0565b60601c949350505050565b60006001600160e01b031982167fa918fa6b00000000000000000000000000000000000000000000000000000000148061051c575061051c82611741565b600080610c426301ffc9a760e01b610b99565b90506001600160a01b038116610c5b5750600092915050565b610c6581846110bb565b9392505050565b6000546001600160a01b0362010000909104163314610a445760405162461bcd60e51b815260206004820181905260248201527f4f776e61626c653a2063616c6c6572206973206e6f7420746865206f776e65726044820152606401610423565b606083518551141580610cee575082518451141580610cee57508151835114155b15610d25576040517f3ff55f4d00000000000000000000000000000000000000000000000000000000815260040160405180910390fd5b6000855167ffffffffffffffff811115610d4157610d416124bd565b604051908082528060200260200182016040528015610d7457816020015b6060815260200190600190039081610d5f5790505b50905060005b8651811015610e2157610df3878281518110610d9857610d98612a5c565b6020026020010151878381518110610db257610db2612a5c565b6020026020010151878481518110610dcc57610dcc612a5c565b6020026020010151878581518110610de657610de6612a5c565b6020026020010151610ec3565b828281518110610e0557610e05612a5c565b6020026020010181905250610e1a8160010190565b9050610d7a565b5095945050505050565b6000828152600160205260409020610e438282612bf2565b50817fece574603820d07bc9b91f2a932baadf4628aabcb8afba49776529c14a6104b261010083511115610e8457610e7f83600061010061177f565b610e86565b825b604051610e939190612964565b60405180910390a25050565b6000806000610eae85856118a7565b91509150610ebb816118ec565b509392505050565b606084610edc57610ed5848484611a51565b905061056f565b60018503610f16576001600160a01b03841615610f0c57604051631820c12560e11b815260040160405180910390fd5b610ed58383611b7d565b60028503610f50576001600160a01b03841615610f4657604051631820c12560e11b815260040160405180910390fd5b610ed58383611c97565b60038503610f9a578215610f90576040517f72f2bc6a00000000000000000000000000000000000000000000000000000000815260040160405180910390fd5b610ed58483611d82565b60048503610fe4578215610fda576040517f5ac8313500000000000000000000000000000000000000000000000000000000815260040160405180910390fd5b610ed58483611e81565b6040517f7583b3bc00000000000000000000000000000000000000000000000000000000815260048101869052602401610423565b600081815260016020526040902080546060919061103690612b70565b80601f016020809104026020016040519081016040528092919081815260200182805461106290612b70565b80156110af5780601f10611084576101008083540402835291602001916110af565b820191906000526020600020905b81548152906001019060200180831161109257829003601f168201915b50505050509050919050565b604080516001600160e01b03198316602480830191909152825180830390910181526044909101909152602080820180516001600160e01b03166301ffc9a760e01b178152825160009392849283928392918391908a617530fa92503d9150600051905082801561112d575060208210155b80156111395750600081115b979650505050505050565b60606000636bb56a1460e01b87878760405160240161116593929190612cb2565b60408051601f19818403018152918152602080830180516001600160e01b03166001600160e01b031990951694909417909352516111a7928791879101612ccc565b6040516020818303038152906040529050600080896001600160a01b0316836040516111d39190612a8b565b6000604051808303816000865af19150503d8060008114611210576040519150601f19603f3d011682016040523d82523d6000602084013e611215565b606091505b509150915061125a82826040518060400160405280602081526020017f43616c6c20746f20756e6976657273616c5265636569766572206661696c6564815250611f2d565b50805160000361126a578061127e565b8080602001905181019061127e9190612d0b565b9a9950505050505050505050565b604080517fffffffffffffffffffff00000000000000000000000000000000000000000000841660208201526000602a82018190526bffffffffffffffffffffffff198416602c8301529182910160405160208183030381529060405290508061056f90612d79565b600254439060009061130990606490612db3565b90506000611318606483612db3565b9050808311156113725760028390556003805473ffffffffffffffffffffffffffffffffffffffff191690556040517f81b7f830f1f0084db6497c486cbe6974c86488dcc4e3738eab94ab6d6b1653e790600090a1505050565b818310156113b6576040517f8b9bf5070000000000000000000000000000000000000000000000000000000081526004810183905260248101829052604401610423565b6113c06000611f46565b600060028190556003805473ffffffffffffffffffffffffffffffffffffffff191690556040517fd1f66c3d2bc1993a86be5e3d33709d98f0442381befcedd29f578b9b2506b1ce9190a1505050565b6003546001600160a01b031633146114905760405162461bcd60e51b815260206004820152602560248201527f4c535031343a2063616c6c6572206973206e6f74207468652070656e64696e6760448201527f4f776e65720000000000000000000000000000000000000000000000000000006064820152608401610423565b6000546201000090046001600160a01b03166114ab33611f46565b6003805473ffffffffffffffffffffffffffffffffffffffff191690556040805160208101909152600081526114e2908290611fd2565b610b96336040518060200160405280600081525061207d565b600054610100900460ff166115665760405162461bcd60e51b815260206004820152602b60248201527f496e697469616c697a61626c653a20636f6e7472616374206973206e6f74206960448201526a6e697469616c697a696e6760a81b6064820152608401610423565b61156f816120e1565b610b967feafec4d89fa9619884b60000abe425d64acd861a49b8ddf5c0b6962110481f3860001b6040518060400160405280600481526020017fabe425d600000000000000000000000000000000000000000000000000000000815250610e2b565b306001600160a01b03821603611613576040517f43b248cd00000000000000000000000000000000000000000000000000000000815260040160405180910390fd5b600380546001600160a01b03831673ffffffffffffffffffffffffffffffffffffffff199091161790556000600281905561165d6000546001600160a01b03620100009091041690565b9050816001600160a01b0316816001600160a01b03167f38d16b8cac22d99fc7c124b9cd0de2d3fa1faef420bfe791d8c362d765e2270060405160405180910390a36116b88260405180602001604052806000815250612189565b6000546001600160a01b03828116620100009092041614610a605760405162461bcd60e51b815260206004820152603f60248201527f4c535031343a206e65774f776e6572204d55535420616363657074206f776e6560448201527f727368697020696e2061207365706172617465207472616e73616374696f6e006064820152608401610423565b60006001600160e01b031982167f714df77c00000000000000000000000000000000000000000000000000000000148061051c575061051c826121ed565b60608161178d81601f612db3565b10156117db5760405162461bcd60e51b815260206004820152600e60248201527f736c6963655f6f766572666c6f770000000000000000000000000000000000006044820152606401610423565b6117e58284612db3565b845110156118355760405162461bcd60e51b815260206004820152601160248201527f736c6963655f6f75744f66426f756e64730000000000000000000000000000006044820152606401610423565b606082158015611854576040519150600082526020820160405261189e565b6040519150601f8416801560200281840101858101878315602002848b0101015b8183101561188d578051835260209283019201611875565b5050858452601f01601f1916604052505b50949350505050565b60008082516041036118dd5760208301516040840151606085015160001a6118d18782858561223b565b945094505050506118e5565b506000905060025b9250929050565b600081600481111561190057611900612dcb565b036119085750565b600181600481111561191c5761191c612dcb565b036119695760405162461bcd60e51b815260206004820152601860248201527f45434453413a20696e76616c6964207369676e617475726500000000000000006044820152606401610423565b600281600481111561197d5761197d612dcb565b036119ca5760405162461bcd60e51b815260206004820152601f60248201527f45434453413a20696e76616c6964207369676e6174757265206c656e677468006044820152606401610423565b60038160048111156119de576119de612dcb565b03610b965760405162461bcd60e51b815260206004820152602260248201527f45434453413a20696e76616c6964207369676e6174757265202773272076616c60448201527f75650000000000000000000000000000000000000000000000000000000000006064820152608401610423565b606082471015611a7d576040516301bf351f60e31b815247600482015260248101849052604401610423565b826001600160a01b03851660007f4810874456b8e6487bd861375cf6abd8e1c8bb5858c8ce36a86a04dabfac199e611ab486612de1565b6040516001600160e01b0319909116815260200160405180910390a4600080856001600160a01b03168585604051611aec9190612a8b565b60006040518083038185875af1925050503d8060008114611b29576040519150601f19603f3d011682016040523d82523d6000602084013e611b2e565b606091505b5091509150611b7382826040518060400160405280601681526020017f455243373235583a20556e6b6e6f776e204572726f7200000000000000000000815250611f2d565b9695505050505050565b606082471015611ba9576040516301bf351f60e31b815247600482015260248101849052604401610423565b8151600003611bcb5760405163b81cd8d960e01b815260040160405180910390fd5b600082516020840185f090506001600160a01b038116611c17576040517f0b07489b00000000000000000000000000000000000000000000000000000000815260040160405180910390fd5b6040516bffffffffffffffffffffffff19606083901b166020820152603401604051602081830303815290604052915083816001600160a01b031660017fa1fb700aaee2ae4a2ff6f91ce7eba292f89c2f5488b8ec4c5c5c8150692595c36000801b604051611c8891815260200190565b60405180910390a45092915050565b60608151600003611cbb5760405163b81cd8d960e01b815260040160405180910390fd5b6000611cd48360208551611ccf9190612e15565b6122ff565b90506000611cf184600060208751611cec9190612e15565b61177f565b90506000611d00868484612365565b6040516bffffffffffffffffffffffff19606083901b166020820152909150603401604051602081830303815290604052935085816001600160a01b031660027fa1fb700aaee2ae4a2ff6f91ce7eba292f89c2f5488b8ec4c5c5c8150692595c386604051611d7191815260200190565b60405180910390a450505092915050565b606060006001600160a01b03841660037f4810874456b8e6487bd861375cf6abd8e1c8bb5858c8ce36a86a04dabfac199e611dbc86612de1565b6040516001600160e01b0319909116815260200160405180910390a4600080846001600160a01b031684604051611df39190612a8b565b600060405180830381855afa9150503d8060008114611e2e576040519150601f19603f3d011682016040523d82523d6000602084013e611e33565b606091505b5091509150611e7882826040518060400160405280601681526020017f455243373235583a20556e6b6e6f776e204572726f7200000000000000000000815250611f2d565b95945050505050565b606060006001600160a01b03841660047f4810874456b8e6487bd861375cf6abd8e1c8bb5858c8ce36a86a04dabfac199e611ebb86612de1565b6040516001600160e01b0319909116815260200160405180910390a4600080846001600160a01b031684604051611ef29190612a8b565b600060405180830381855af49150503d8060008114611e2e576040519150601f19603f3d011682016040523d82523d6000602084013e611e33565b60608315611f3c575081610c65565b610c658383612469565b6000546001600160a01b03828116620100009092041614610b9657600080546001600160a01b03838116620100008181027fffffffffffffffffffff0000000000000000000000000000000000000000ffff851617855560405193049190911692909183917f8be0079c531659141344cd1fd0a4f28419497f9722a3daafe3b4186f6b6457e091a35050565b611fe382631aed5a8560e21b6110bb565b15610a6057604051631aed5a8560e21b81526001600160a01b03831690636bb56a1490612036907fa4e59c931d14f7c8a7a35027f92ee40b5f2886b9fdcdb78f30bc5ecce5a2f814908590600401612a72565b6000604051808303816000875af1158015612055573d6000803e3d6000fd5b505050506040513d6000823e601f3d908101601f191682016040526104609190810190612d0b565b61208e82631aed5a8560e21b6110bb565b15610a6057604051631aed5a8560e21b81526001600160a01b03831690636bb56a1490612036907fceca317f109c43507871523e82dc2a3cc64dfa18f12da0b6db14f6e23f995538908590600401612a72565b600054610100900460ff1661214c5760405162461bcd60e51b815260206004820152602b60248201527f496e697469616c697a61626c653a20636f6e7472616374206973206e6f74206960448201526a6e697469616c697a696e6760a81b6064820152608401610423565b341561218057604051349033907f7e71433ddf847725166244795048ecf3e3f9f35628254ecbf73605666423349390600090a35b610b9681611f46565b61219a82631aed5a8560e21b6110bb565b15610a6057604051631aed5a8560e21b81526001600160a01b03831690636bb56a1490612036907fe17117c9d2665d1dbeb479ed8058bbebde3c50ac50e2e65619f60006caac6926908590600401612a72565b60006001600160e01b031982167f570ef07300000000000000000000000000000000000000000000000000000000148061051c57506301ffc9a760e01b6001600160e01b031983161461051c565b6000807f7fffffffffffffffffffffffffffffff5d576e7357a4501ddfe92f46681b20a083111561227257506000905060036122f6565b6040805160008082526020820180845289905260ff881692820192909252606081018690526080810185905260019060a0016020604051602081039080840390855afa1580156122c6573d6000803e3d6000fd5b5050604051601f1901519150506001600160a01b0381166122ef576000600192509250506122f6565b9150600090505b94509492505050565b600061230c826020612db3565b8351101561235c5760405162461bcd60e51b815260206004820152601560248201527f746f427974657333325f6f75744f66426f756e647300000000000000000000006044820152606401610423565b50016020015190565b6000834710156123b75760405162461bcd60e51b815260206004820152601d60248201527f437265617465323a20696e73756666696369656e742062616c616e63650000006044820152606401610423565b81516000036124085760405162461bcd60e51b815260206004820181905260248201527f437265617465323a2062797465636f6465206c656e677468206973207a65726f6044820152606401610423565b8282516020840186f590506001600160a01b038116610c655760405162461bcd60e51b815260206004820152601960248201527f437265617465323a204661696c6564206f6e206465706c6f79000000000000006044820152606401610423565b8151156124795781518083602001fd5b8060405162461bcd60e51b81526004016104239190612964565b6000602082840312156124a557600080fd5b81356001600160e01b031981168114610c6557600080fd5b634e487b7160e01b600052604160045260246000fd5b604051601f8201601f1916810167ffffffffffffffff811182821017156124fc576124fc6124bd565b604052919050565b600067ffffffffffffffff82111561251e5761251e6124bd565b5060051b60200190565b600082601f83011261253957600080fd5b8135602061254e61254983612504565b6124d3565b82815260059290921b8401810191818101908684111561256d57600080fd5b8286015b848110156125885780358352918301918301612571565b509695505050505050565b80356001600160a01b03811681146125aa57600080fd5b919050565b600067ffffffffffffffff8211156125c9576125c96124bd565b50601f01601f191660200190565b600082601f8301126125e857600080fd5b81356125f6612549826125af565b81815284602083860101111561260b57600080fd5b816020850160208301376000918101602001919091529392505050565b600082601f83011261263957600080fd5b8135602061264961254983612504565b82815260059290921b8401810191818101908684111561266857600080fd5b8286015b8481101561258857803567ffffffffffffffff81111561268c5760008081fd5b61269a8986838b01016125d7565b84525091830191830161266c565b600080600080608085870312156126be57600080fd5b843567ffffffffffffffff808211156126d657600080fd5b6126e288838901612528565b95506020915081870135818111156126f957600080fd5b8701601f8101891361270a57600080fd5b803561271861254982612504565b81815260059190911b8201840190848101908b83111561273757600080fd5b928501925b8284101561275c5761274d84612593565b8252928501929085019061273c565b9750505050604087013591508082111561277557600080fd5b61278188838901612528565b9350606087013591508082111561279757600080fd5b506127a487828801612628565b91505092959194509250565b60005b838110156127cb5781810151838201526020016127b3565b838111156127da576000848401525b50505050565b600081518084526127f88160208601602086016127b0565b601f01601f19169290920160200192915050565b6000602080830181845280855180835260408601915060408160051b870101925083870160005b8281101561286157603f1988860301845261284f8583516127e0565b94509285019290850190600101612833565b5092979650505050505050565b6000806040838503121561288157600080fd5b823567ffffffffffffffff8082111561289957600080fd5b6128a586838701612528565b935060208501359150808211156128bb57600080fd5b506128c885828601612628565b9150509250929050565b600080604083850312156128e557600080fd5b82359150602083013567ffffffffffffffff81111561290357600080fd5b6128c8858286016125d7565b6000806000806080858703121561292557600080fd5b8435935061293560208601612593565b925060408501359150606085013567ffffffffffffffff81111561295857600080fd5b6127a4878288016125d7565b602081526000610c6560208301846127e0565b60006020828403121561298957600080fd5b813567ffffffffffffffff8111156129a057600080fd5b61056f84828501612528565b6000602082840312156129be57600080fd5b5035919050565b6000806000604084860312156129da57600080fd5b83359250602084013567ffffffffffffffff808211156129f957600080fd5b818601915086601f830112612a0d57600080fd5b813581811115612a1c57600080fd5b876020828501011115612a2e57600080fd5b6020830194508093505050509250925092565b600060208284031215612a5357600080fd5b610c6582612593565b634e487b7160e01b600052603260045260246000fd5b82815260406020820152600061056f60408301846127e0565b60008251612a9d8184602087016127b0565b9190910192915050565b600060208284031215612ab957600080fd5b5051919050565b805160208201516bffffffffffffffffffffffff198082169291906014831015612af45780818460140360031b1b83161693505b505050919050565b604081526000612b0f60408301856127e0565b8281036020840152611e7881856127e0565b81835281816020850137506000828201602090810191909152601f909101601f19169091010190565b604081526000612b5e604083018587612b21565b8281036020840152611b7381856127e0565b600181811c90821680612b8457607f821691505b60208210810361087457634e487b7160e01b600052602260045260246000fd5b601f82111561046057600081815260208120601f850160051c81016020861015612bcb5750805b601f850160051c820191505b81811015612bea57828155600101612bd7565b505050505050565b815167ffffffffffffffff811115612c0c57612c0c6124bd565b612c2081612c1a8454612b70565b84612ba4565b602080601f831160018114612c555760008415612c3d5750858301515b600019600386901b1c1916600185901b178555612bea565b600085815260208120601f198616915b82811015612c8457888601518255948401946001909101908401612c65565b5085821015612ca25787850151600019600388901b60f8161c191681555b5050505050600190811b01905550565b83815260406020820152600061056c604083018486612b21565b60008451612cde8184602089016127b0565b60609490941b6bffffffffffffffffffffffff191691909301908152601481019190915260340192915050565b600060208284031215612d1d57600080fd5b815167ffffffffffffffff811115612d3457600080fd5b8201601f81018413612d4557600080fd5b8051612d53612549826125af565b818152856020838501011115612d6857600080fd5b611e788260208301602086016127b0565b805160208083015191908110156108745760001960209190910360031b1b16919050565b634e487b7160e01b600052601160045260246000fd5b60008219821115612dc657612dc6612d9d565b500190565b634e487b7160e01b600052602160045260246000fd5b6000815160208301516001600160e01b031980821693506004831015612af45760049290920360031b82901b161692915050565b600082821015612e2757612e27612d9d565b50039056fea26469706673582212208a222702ba63a0e738d365eaf66c5613984a8cc624dc0d2ddbab937ef763795b64736f6c634300080f0033",
  "linkReferences": {},
  "deployedLinkReferences": {}
}