{
  "_format": "hh-sol-artifact-1",
  "contractName": "AdminUpgradeabilityProxy",
  "sourceName": "contracts/AdminUpgradeableProxy.sol",
  "abi": [
    {
      "inputs": [
        {
          "internalType": "address",
          "name": "_logic",
          "type": "address"
        },
        {
          "internalType": "address",
          "name": "_admin",
          "type": "address"
        },
        {
          "internalType": "bytes",
          "name": "_data",
          "type": "bytes"
        }
      ],
      "stateMutability": "payable",
      "type": "constructor"
    },
    {
      "anonymous": false,
      "inputs": [
        {
          "indexed": false,
          "internalType": "address",
          "name": "previousAdmin",
          "type": "address"
        },
        {
          "indexed": false,
          "internalType": "address",
          "name": "newAdmin",
          "type": "address"
        }
      ],
      "name": "AdminChanged",
      "type": "event"
    },
    {
      "anonymous": false,
      "inputs": [
        {
          "indexed": true,
          "internalType": "address",
          "name": "beacon",
          "type": "address"
        }
      ],
      "name": "BeaconUpgraded",
      "type": "event"
    },
    {
      "anonymous": false,
      "inputs": [
        {
          "indexed": true,
          "internalType": "address",
          "name": "implementation",
          "type": "address"
        }
      ],
      "name": "Upgraded",
      "type": "event"
    },
    {
      "stateMutability": "payable",
      "type": "fallback"
    },
    {
      "inputs": [
        {
          "internalType": "address",
          "name": "newAdmin",
          "type": "address"
        }
      ],
      "name": "changeAdmin",
      "outputs": [],
      "stateMutability": "nonpayable",
      "type": "function"
    },
    {
      "inputs": [],
      "name": "implementation",
      "outputs": [
        {
          "internalType": "address",
          "name": "",
          "type": "address"
        }
      ],
      "stateMutability": "nonpayable",
      "type": "function"
    },
    {
      "inputs": [
        {
          "internalType": "address",
          "name": "newImplementation",
          "type": "address"
        }
      ],
      "name": "upgradeTo",
      "outputs": [],
      "stateMutability": "nonpayable",
      "type": "function"
    },
    {
      "inputs": [
        {
          "internalType": "address",
          "name": "newImplementation",
          "type": "address"
        },
        {
          "internalType": "bytes",
          "name": "data",
          "type": "bytes"
        }
      ],
      "name": "upgradeToAndCall",
      "outputs": [],
      "stateMutability": "payable",
      "type": "function"
    },
    {
      "stateMutability": "payable",
      "type": "receive"
    }
  ],
  "bytecode": "0x6080604052604051620014c1380380620014c1833981810160405281019062000029919062000708565b82816200003e82825f6200005a60201b60201c565b505062000051826200009760201b60201c565b50505062000a30565b6200006b83620000f560201b60201c565b5f82511180620000785750805b1562000092576200009083836200014c60201b60201c565b505b505050565b7f7e644d79422f17c01e4894b5f4f588d331ebfa28653d42ae832dc59e38c9798f620000c86200018260201b60201c565b82604051620000d992919062000791565b60405180910390a1620000f281620001dd60201b60201c565b50565b6200010681620002c460201b60201c565b8073ffffffffffffffffffffffffffffffffffffffff167fbc7cd75a20ee27fd9adebab32041f755214dbc6bffa90cc0225b39da2e5c2d3b60405160405180910390a250565b60606200017a83836040518060600160405280602781526020016200149a602791396200038d60201b60201c565b905092915050565b5f620001b67fb53127684a568b3173ae13b9f8a6016e243e63b6e8ee1178d6a717850b5d61035f1b6200041b60201b60201c565b5f015f9054906101000a900473ffffffffffffffffffffffffffffffffffffffff16905090565b5f73ffffffffffffffffffffffffffffffffffffffff168173ffffffffffffffffffffffffffffffffffffffff16036200024e576040517f08c379a0000000000000000000000000000000000000000000000000000000008152600401620002459062000840565b60405180910390fd5b80620002827fb53127684a568b3173ae13b9f8a6016e243e63b6e8ee1178d6a717850b5d61035f1b6200041b60201b60201c565b5f015f6101000a81548173ffffffffffffffffffffffffffffffffffffffff021916908373ffffffffffffffffffffffffffffffffffffffff16021790555050565b620002d5816200042460201b60201c565b62000317576040517f08c379a00000000000000000000000000000000000000000000000000000000081526004016200030e90620008d4565b60405180910390fd5b806200034b7f360894a13ba1a3210667c828492db98dca3e2076cc3735a920a3ca505d382bbc5f1b6200041b60201b60201c565b5f015f6101000a81548173ffffffffffffffffffffffffffffffffffffffff021916908373ffffffffffffffffffffffffffffffffffffffff16021790555050565b60605f808573ffffffffffffffffffffffffffffffffffffffff1685604051620003b891906200093e565b5f60405180830381855af49150503d805f8114620003f2576040519150601f19603f3d011682016040523d82523d5f602084013e620003f7565b606091505b509150915062000410868383876200044660201b60201c565b925050509392505050565b5f819050919050565b5f808273ffffffffffffffffffffffffffffffffffffffff163b119050919050565b60608315620004b5575f835103620004ac5762000469856200042460201b60201c565b620004ab576040517f08c379a0000000000000000000000000000000000000000000000000000000008152600401620004a290620009a4565b60405180910390fd5b5b829050620004c8565b620004c78383620004d060201b60201c565b5b949350505050565b5f82511115620004e35781518083602001fd5b806040517f08c379a000000000000000000000000000000000000000000000000000000000815260040162000519919062000a0e565b60405180910390fd5b5f604051905090565b5f80fd5b5f80fd5b5f73ffffffffffffffffffffffffffffffffffffffff82169050919050565b5f6200055e8262000533565b9050919050565b620005708162000552565b81146200057b575f80fd5b50565b5f815190506200058e8162000565565b92915050565b5f80fd5b5f80fd5b5f601f19601f8301169050919050565b7f4e487b71000000000000000000000000000000000000000000000000000000005f52604160045260245ffd5b620005e4826200059c565b810181811067ffffffffffffffff82111715620006065762000605620005ac565b5b80604052505050565b5f6200061a62000522565b9050620006288282620005d9565b919050565b5f67ffffffffffffffff8211156200064a5762000649620005ac565b5b62000655826200059c565b9050602081019050919050565b5f5b838110156200068157808201518184015260208101905062000664565b5f8484015250505050565b5f620006a26200069c846200062d565b6200060f565b905082815260208101848484011115620006c157620006c062000598565b5b620006ce84828562000662565b509392505050565b5f82601f830112620006ed57620006ec62000594565b5b8151620006ff8482602086016200068c565b91505092915050565b5f805f606084860312156200072257620007216200052b565b5b5f62000731868287016200057e565b935050602062000744868287016200057e565b925050604084015167ffffffffffffffff8111156200076857620007676200052f565b5b6200077686828701620006d6565b9150509250925092565b6200078b8162000552565b82525050565b5f604082019050620007a65f83018562000780565b620007b5602083018462000780565b9392505050565b5f82825260208201905092915050565b7f455243313936373a206e65772061646d696e20697320746865207a65726f20615f8201527f6464726573730000000000000000000000000000000000000000000000000000602082015250565b5f62000828602683620007bc565b91506200083582620007cc565b604082019050919050565b5f6020820190508181035f83015262000859816200081a565b9050919050565b7f455243313936373a206e657720696d706c656d656e746174696f6e206973206e5f8201527f6f74206120636f6e747261637400000000000000000000000000000000000000602082015250565b5f620008bc602d83620007bc565b9150620008c98262000860565b604082019050919050565b5f6020820190508181035f830152620008ed81620008ae565b9050919050565b5f81519050919050565b5f81905092915050565b5f6200091482620008f4565b620009208185620008fe565b93506200093281856020860162000662565b80840191505092915050565b5f6200094b828462000908565b915081905092915050565b7f416464726573733a2063616c6c20746f206e6f6e2d636f6e74726163740000005f82015250565b5f6200098c601d83620007bc565b9150620009998262000956565b602082019050919050565b5f6020820190508181035f830152620009bd816200097e565b9050919050565b5f81519050919050565b5f620009da82620009c4565b620009e68185620007bc565b9350620009f881856020860162000662565b62000a03816200059c565b840191505092915050565b5f6020820190508181035f83015262000a288184620009ce565b905092915050565b610a5c8062000a3e5f395ff3fe608060405260043610610042575f3560e01c80633659cfe61461005b5780634f1ef286146100835780635c60da1b1461009f5780638f283970146100c957610051565b366100515761004f6100f1565b005b6100596100f1565b005b348015610066575f80fd5b50610081600480360381019061007c91906106e0565b610170565b005b61009d6004803603810190610098919061076c565b6101c4565b005b3480156100aa575f80fd5b506100b361028d565b6040516100c091906107d8565b60405180910390f35b3480156100d4575f80fd5b506100ef60048036038101906100ea91906106e0565b6102e3565b005b6100f9610337565b73ffffffffffffffffffffffffffffffffffffffff163373ffffffffffffffffffffffffffffffffffffffff1603610166576040517f08c379a000000000000000000000000000000000000000000000000000000000815260040161015d90610871565b60405180910390fd5b61016e61038a565b565b610178610337565b73ffffffffffffffffffffffffffffffffffffffff163373ffffffffffffffffffffffffffffffffffffffff16036101b8576101b3816103a4565b6101c1565b6101c06100f1565b5b50565b6101cc610337565b73ffffffffffffffffffffffffffffffffffffffff163373ffffffffffffffffffffffffffffffffffffffff160361027f57610207836103a4565b5f8373ffffffffffffffffffffffffffffffffffffffff16838360405161022f9291906108cb565b5f60405180830381855af49150503d805f8114610267576040519150601f19603f3d011682016040523d82523d5f602084013e61026c565b606091505b5050905080610279575f80fd5b50610288565b6102876100f1565b5b505050565b5f610296610337565b73ffffffffffffffffffffffffffffffffffffffff163373ffffffffffffffffffffffffffffffffffffffff16036102d7576102d06103f3565b90506102e0565b6102df6100f1565b5b90565b6102eb610337565b73ffffffffffffffffffffffffffffffffffffffff163373ffffffffffffffffffffffffffffffffffffffff160361032b5761032681610401565b610334565b6103336100f1565b5b50565b5f6103637fb53127684a568b3173ae13b9f8a6016e243e63b6e8ee1178d6a717850b5d61035f1b61044d565b5f015f9054906101000a900473ffffffffffffffffffffffffffffffffffffffff16905090565b610392610456565b6103a261039d6103f3565b610458565b565b6103ad81610477565b8073ffffffffffffffffffffffffffffffffffffffff167fbc7cd75a20ee27fd9adebab32041f755214dbc6bffa90cc0225b39da2e5c2d3b60405160405180910390a250565b5f6103fc61052d565b905090565b7f7e644d79422f17c01e4894b5f4f588d331ebfa28653d42ae832dc59e38c9798f61042a610337565b826040516104399291906108e3565b60405180910390a161044a81610580565b50565b5f819050919050565b565b365f80375f80365f845af43d5f803e805f8114610473573d5ff35b3d5ffd5b6104808161065c565b6104bf576040517f08c379a00000000000000000000000000000000000000000000000000000000081526004016104b69061097a565b60405180910390fd5b806104eb7f360894a13ba1a3210667c828492db98dca3e2076cc3735a920a3ca505d382bbc5f1b61044d565b5f015f6101000a81548173ffffffffffffffffffffffffffffffffffffffff021916908373ffffffffffffffffffffffffffffffffffffffff16021790555050565b5f6105597f360894a13ba1a3210667c828492db98dca3e2076cc3735a920a3ca505d382bbc5f1b61044d565b5f015f9054906101000a900473ffffffffffffffffffffffffffffffffffffffff16905090565b5f73ffffffffffffffffffffffffffffffffffffffff168173ffffffffffffffffffffffffffffffffffffffff16036105ee576040517f08c379a00000000000000000000000000000000000000000000000000000000081526004016105e590610a08565b60405180910390fd5b8061061a7fb53127684a568b3173ae13b9f8a6016e243e63b6e8ee1178d6a717850b5d61035f1b61044d565b5f015f6101000a81548173ffffffffffffffffffffffffffffffffffffffff021916908373ffffffffffffffffffffffffffffffffffffffff16021790555050565b5f808273ffffffffffffffffffffffffffffffffffffffff163b119050919050565b5f80fd5b5f80fd5b5f73ffffffffffffffffffffffffffffffffffffffff82169050919050565b5f6106af82610686565b9050919050565b6106bf816106a5565b81146106c9575f80fd5b50565b5f813590506106da816106b6565b92915050565b5f602082840312156106f5576106f461067e565b5b5f610702848285016106cc565b91505092915050565b5f80fd5b5f80fd5b5f80fd5b5f8083601f84011261072c5761072b61070b565b5b8235905067ffffffffffffffff8111156107495761074861070f565b5b60208301915083600182028301111561076557610764610713565b5b9250929050565b5f805f604084860312156107835761078261067e565b5b5f610790868287016106cc565b935050602084013567ffffffffffffffff8111156107b1576107b0610682565b5b6107bd86828701610717565b92509250509250925092565b6107d2816106a5565b82525050565b5f6020820190506107eb5f8301846107c9565b92915050565b5f82825260208201905092915050565b7f43616e6e6f742063616c6c2066616c6c6261636b2066756e6374696f6e2066725f8201527f6f6d207468652070726f78792061646d696e0000000000000000000000000000602082015250565b5f61085b6032836107f1565b915061086682610801565b604082019050919050565b5f6020820190508181035f8301526108888161084f565b9050919050565b5f81905092915050565b828183375f83830152505050565b5f6108b2838561088f565b93506108bf838584610899565b82840190509392505050565b5f6108d78284866108a7565b91508190509392505050565b5f6040820190506108f65f8301856107c9565b61090360208301846107c9565b9392505050565b7f455243313936373a206e657720696d706c656d656e746174696f6e206973206e5f8201527f6f74206120636f6e747261637400000000000000000000000000000000000000602082015250565b5f610964602d836107f1565b915061096f8261090a565b604082019050919050565b5f6020820190508181035f83015261099181610958565b9050919050565b7f455243313936373a206e65772061646d696e20697320746865207a65726f20615f8201527f6464726573730000000000000000000000000000000000000000000000000000602082015250565b5f6109f26026836107f1565b91506109fd82610998565b604082019050919050565b5f6020820190508181035f830152610a1f816109e6565b905091905056fea2646970667358221220153264b41feec50d31f50cd33d672606e16311ac76f62eeb918ae8932a5110f464736f6c63430008140033416464726573733a206c6f772d6c6576656c2064656c65676174652063616c6c206661696c6564",
  "linkReferences": {},
  "deployedLinkReferences": {}
}