{
  "_format": "hh-sol-artifact-1",
  "contractName": "DepositContract",
  "sourceName": "contracts/mocks/BeaconDepositMock.sol",
  "abi": [
    {
      "inputs": [],
      "stateMutability": "nonpayable",
      "type": "constructor"
    },
    {
      "anonymous": false,
      "inputs": [
        {
          "indexed": false,
          "internalType": "bytes",
          "name": "pubkey",
          "type": "bytes"
        },
        {
          "indexed": false,
          "internalType": "bytes",
          "name": "withdrawal_credentials",
          "type": "bytes"
        },
        {
          "indexed": false,
          "internalType": "bytes",
          "name": "amount",
          "type": "bytes"
        },
        {
          "indexed": false,
          "internalType": "bytes",
          "name": "signature",
          "type": "bytes"
        },
        {
          "indexed": false,
          "internalType": "bytes",
          "name": "index",
          "type": "bytes"
        }
      ],
      "name": "DepositEvent",
      "type": "event"
    },
    {
      "inputs": [
        {
          "internalType": "bytes",
          "name": "pubkey",
          "type": "bytes"
        },
        {
          "internalType": "bytes",
          "name": "withdrawal_credentials",
          "type": "bytes"
        },
        {
          "internalType": "bytes",
          "name": "signature",
          "type": "bytes"
        },
        {
          "internalType": "bytes32",
          "name": "deposit_data_root",
          "type": "bytes32"
        }
      ],
      "name": "deposit",
      "outputs": [],
      "stateMutability": "payable",
      "type": "function"
    },
    {
      "inputs": [],
      "name": "get_deposit_count",
      "outputs": [
        {
          "internalType": "bytes",
          "name": "",
          "type": "bytes"
        }
      ],
      "stateMutability": "view",
      "type": "function"
    },
    {
      "inputs": [],
      "name": "get_deposit_root",
      "outputs": [
        {
          "internalType": "bytes32",
          "name": "",
          "type": "bytes32"
        }
      ],
      "stateMutability": "view",
      "type": "function"
    },
    {
      "inputs": [
        {
          "internalType": "bytes4",
          "name": "interfaceId",
          "type": "bytes4"
        }
      ],
      "name": "supportsInterface",
      "outputs": [
        {
          "internalType": "bool",
          "name": "",
          "type": "bool"
        }
      ],
      "stateMutability": "pure",
      "type": "function"
    },
    {
      "inputs": [
        {
          "internalType": "address payable",
          "name": "recipient",
          "type": "address"
        },
        {
          "internalType": "uint256",
          "name": "amount",
          "type": "uint256"
        }
      ],
      "name": "withdraw",
      "outputs": [],
      "stateMutability": "nonpayable",
      "type": "function"
    }
  ],
  "bytecode": "0x608060405234801562000010575f80fd5b505f5b62000021600160206200011e565b81101562000103576002602182602081106200004157620000416200013a565b0154602183602081106200005957620000596200013a565b015460408051602081019390935282015260600160408051601f198184030181529082905262000089916200014e565b602060405180830381855afa158015620000a5573d5f803e3d5ffd5b5050506040513d601f19601f82011682018060405250810190620000ca91906200017c565b6021620000d983600162000194565b60208110620000ec57620000ec6200013a565b015580620000fa81620001aa565b91505062000013565b50620001c5565b634e487b7160e01b5f52601160045260245ffd5b818103818111156200013457620001346200010a565b92915050565b634e487b7160e01b5f52603260045260245ffd5b5f82515f5b818110156200016f576020818601810151858301520162000153565b505f920191825250919050565b5f602082840312156200018d575f80fd5b5051919050565b808201808211156200013457620001346200010a565b5f60018201620001be57620001be6200010a565b5060010190565b61164680620001d35f395ff3fe608060405260043610610058575f3560e01c8063621fd13011610041578063621fd130146100a5578063c5f2892f146100c6578063f3fef3a3146100e8575f80fd5b806301ffc9a71461005c5780632289511814610090575b5f80fd5b348015610067575f80fd5b5061007b610076366004610fc3565b610107565b60405190151581526020015b60405180910390f35b6100a361009e36600461104e565b61019f565b005b3480156100b0575f80fd5b506100b9610a2f565b6040516100879190611154565b3480156100d1575f80fd5b506100da610a41565b604051908152602001610087565b3480156100f3575f80fd5b506100a3610102366004611166565b610c66565b5f7fffffffff0000000000000000000000000000000000000000000000000000000082167f01ffc9a700000000000000000000000000000000000000000000000000000000148061019957507fffffffff0000000000000000000000000000000000000000000000000000000082167f8564090700000000000000000000000000000000000000000000000000000000145b92915050565b60308614610234576040517f08c379a000000000000000000000000000000000000000000000000000000000815260206004820152602660248201527f4465706f736974436f6e74726163743a20696e76616c6964207075626b65792060448201527f6c656e677468000000000000000000000000000000000000000000000000000060648201526084015b60405180910390fd5b602084146102c4576040517f08c379a000000000000000000000000000000000000000000000000000000000815260206004820152603660248201527f4465706f736974436f6e74726163743a20696e76616c6964207769746864726160448201527f77616c5f63726564656e7469616c73206c656e67746800000000000000000000606482015260840161022b565b60608214610354576040517f08c379a000000000000000000000000000000000000000000000000000000000815260206004820152602960248201527f4465706f736974436f6e74726163743a20696e76616c6964207369676e61747560448201527f7265206c656e6774680000000000000000000000000000000000000000000000606482015260840161022b565b5f610363640773594000610d59565b90507f649bbc62d0e31342afea4e5cd82d4049e7e1ee912fc0889aa790803be39038c588888888858989610398602054610d59565b6040516103ac9897969594939291906111ef565b60405180910390a15f600289895f60801b6040516020016103cf93929190611261565b604080517fffffffffffffffffffffffffffffffffffffffffffffffffffffffffffffffe08184030181529082905261040791611297565b602060405180830381855afa158015610422573d5f803e3d5ffd5b5050506040513d601f19601f8201168201806040525081019061044591906112b2565b90505f600280610458604084898b6112c9565b6040516020016104699291906112f0565b604080517fffffffffffffffffffffffffffffffffffffffffffffffffffffffffffffffe0818403018152908290526104a191611297565b602060405180830381855afa1580156104bc573d5f803e3d5ffd5b5050506040513d601f19601f820116820180604052508101906104df91906112b2565b60026104ee886040818c6112c9565b6040516105019291905f906020016112ff565b604080517fffffffffffffffffffffffffffffffffffffffffffffffffffffffffffffffe08184030181529082905261053991611297565b602060405180830381855afa158015610554573d5f803e3d5ffd5b5050506040513d601f19601f8201168201806040525081019061057791906112b2565b604080516020810193909352820152606001604080517fffffffffffffffffffffffffffffffffffffffffffffffffffffffffffffffe0818403018152908290526105c191611297565b602060405180830381855afa1580156105dc573d5f803e3d5ffd5b5050506040513d601f19601f820116820180604052508101906105ff91906112b2565b90505f600280848b8b60405160200161061a93929190611311565b604080517fffffffffffffffffffffffffffffffffffffffffffffffffffffffffffffffe08184030181529082905261065291611297565b602060405180830381855afa15801561066d573d5f803e3d5ffd5b5050506040513d601f19601f8201168201806040525081019061069091906112b2565b6040516002906106a89088905f90889060200161132a565b604080517fffffffffffffffffffffffffffffffffffffffffffffffffffffffffffffffe0818403018152908290526106e091611297565b602060405180830381855afa1580156106fb573d5f803e3d5ffd5b5050506040513d601f19601f8201168201806040525081019061071e91906112b2565b604080516020810193909352820152606001604080517fffffffffffffffffffffffffffffffffffffffffffffffffffffffffffffffe08184030181529082905261076891611297565b602060405180830381855afa158015610783573d5f803e3d5ffd5b5050506040513d601f19601f820116820180604052508101906107a691906112b2565b905084811461085d576040517f08c379a000000000000000000000000000000000000000000000000000000000815260206004820152605460248201527f4465706f736974436f6e74726163743a207265636f6e7374727563746564204460448201527f65706f7369744461746120646f6573206e6f74206d6174636820737570706c6960648201527f6564206465706f7369745f646174615f726f6f74000000000000000000000000608482015260a40161022b565b600161086b602060026114c3565b61087591906114ce565b60205410610905576040517f08c379a000000000000000000000000000000000000000000000000000000000815260206004820152602160248201527f4465706f736974436f6e74726163743a206d65726b6c6520747265652066756c60448201527f6c00000000000000000000000000000000000000000000000000000000000000606482015260840161022b565b600160205f82825461091791906114e1565b90915550506020545f5b6020811015610a17578160011660010361095657825f8260208110610948576109486114f4565b015550610a26945050505050565b60025f826020811061096a5761096a6114f4565b01546040805160208101929092528101859052606001604080517fffffffffffffffffffffffffffffffffffffffffffffffffffffffffffffffe0818403018152908290526109b891611297565b602060405180830381855afa1580156109d3573d5f803e3d5ffd5b5050506040513d601f19601f820116820180604052508101906109f691906112b2565b9250610a03600283611521565b915080610a0f81611559565b915050610921565b50610a20611590565b50505050505b50505050505050565b6060610a3c602054610d59565b905090565b6020545f908190815b6020811015610bc75781600116600103610b055760025f8260208110610a7257610a726114f4565b01546040805160208101929092528101859052606001604080517fffffffffffffffffffffffffffffffffffffffffffffffffffffffffffffffe081840301815290829052610ac091611297565b602060405180830381855afa158015610adb573d5f803e3d5ffd5b5050506040513d601f19601f82011682018060405250810190610afe91906112b2565b9250610ba8565b60028360218360208110610b1b57610b1b6114f4565b0154604080516020810193909352820152606001604080517fffffffffffffffffffffffffffffffffffffffffffffffffffffffffffffffe081840301815290829052610b6791611297565b602060405180830381855afa158015610b82573d5f803e3d5ffd5b5050506040513d601f19601f82011682018060405250810190610ba591906112b2565b92505b610bb3600283611521565b915080610bbf81611559565b915050610a4a565b50600282610bd6602054610d59565b604051610be99291905f906020016115bd565b604080517fffffffffffffffffffffffffffffffffffffffffffffffffffffffffffffffe081840301815290829052610c2191611297565b602060405180830381855afa158015610c3c573d5f803e3d5ffd5b5050506040513d601f19601f82011682018060405250810190610c5f91906112b2565b9250505090565b60405147905f9073ffffffffffffffffffffffffffffffffffffffff85169083908381818185875af1925050503d805f8114610cbd576040519150601f19603f3d011682016040523d82523d5f602084013e610cc2565b606091505b5050905080610d53576040517f08c379a000000000000000000000000000000000000000000000000000000000815260206004820152603260248201527f4465706f736974436f6e74726163743a206661696c656420746f2073656e642060448201527f66756e647320746f20726563697069656e740000000000000000000000000000606482015260840161022b565b50505050565b60408051600880825281830190925260609160208201818036833701905050905060c082901b8060071a60f81b825f81518110610d9857610d986114f4565b60200101907effffffffffffffffffffffffffffffffffffffffffffffffffffffffffffff191690815f1a9053508060061a60f81b82600181518110610de057610de06114f4565b60200101907effffffffffffffffffffffffffffffffffffffffffffffffffffffffffffff191690815f1a9053508060051a60f81b82600281518110610e2857610e286114f4565b60200101907effffffffffffffffffffffffffffffffffffffffffffffffffffffffffffff191690815f1a9053508060041a60f81b82600381518110610e7057610e706114f4565b60200101907effffffffffffffffffffffffffffffffffffffffffffffffffffffffffffff191690815f1a9053508060031a60f81b82600481518110610eb857610eb86114f4565b60200101907effffffffffffffffffffffffffffffffffffffffffffffffffffffffffffff191690815f1a9053508060021a60f81b82600581518110610f0057610f006114f4565b60200101907effffffffffffffffffffffffffffffffffffffffffffffffffffffffffffff191690815f1a9053508060011a60f81b82600681518110610f4857610f486114f4565b60200101907effffffffffffffffffffffffffffffffffffffffffffffffffffffffffffff191690815f1a905350805f1a60f81b82600781518110610f8f57610f8f6114f4565b60200101907effffffffffffffffffffffffffffffffffffffffffffffffffffffffffffff191690815f1a90535050919050565b5f60208284031215610fd3575f80fd5b81357fffffffff0000000000000000000000000000000000000000000000000000000081168114611002575f80fd5b9392505050565b5f8083601f840112611019575f80fd5b50813567ffffffffffffffff811115611030575f80fd5b602083019150836020828501011115611047575f80fd5b9250929050565b5f805f805f805f6080888a031215611064575f80fd5b873567ffffffffffffffff8082111561107b575f80fd5b6110878b838c01611009565b909950975060208a013591508082111561109f575f80fd5b6110ab8b838c01611009565b909750955060408a01359150808211156110c3575f80fd5b506110d08a828b01611009565b989b979a50959894979596606090950135949350505050565b5f5b838110156111035781810151838201526020016110eb565b50505f910152565b5f81518084526111228160208601602086016110e9565b601f017fffffffffffffffffffffffffffffffffffffffffffffffffffffffffffffffe0169290920160200192915050565b602081525f611002602083018461110b565b5f8060408385031215611177575f80fd5b823573ffffffffffffffffffffffffffffffffffffffff8116811461119a575f80fd5b946020939093013593505050565b81835281816020850137505f602082840101525f60207fffffffffffffffffffffffffffffffffffffffffffffffffffffffffffffffe0601f840116840101905092915050565b60a081525f61120260a083018a8c6111a8565b828103602084015261121581898b6111a8565b90508281036040840152611229818861110b565b9050828103606084015261123e8186886111a8565b90508281036080840152611252818561110b565b9b9a5050505050505050505050565b828482377fffffffffffffffffffffffffffffffff00000000000000000000000000000000919091169101908152601001919050565b5f82516112a88184602087016110e9565b9190910192915050565b5f602082840312156112c2575f80fd5b5051919050565b5f80858511156112d7575f80fd5b838611156112e3575f80fd5b5050820193919092039150565b818382375f9101908152919050565b82848237909101908152602001919050565b838152818360208301375f910160200190815292915050565b5f845161133b8184602089016110e9565b7fffffffffffffffffffffffffffffffffffffffffffffffff00000000000000009490941691909301908152601881019190915260380192915050565b7f4e487b71000000000000000000000000000000000000000000000000000000005f52601160045260245ffd5b600181815b808511156113fe57817fffffffffffffffffffffffffffffffffffffffffffffffffffffffffffffffff048211156113e4576113e4611378565b808516156113f157918102915b93841c93908002906113aa565b509250929050565b5f8261141457506001610199565b8161142057505f610199565b816001811461143657600281146114405761145c565b6001915050610199565b60ff84111561145157611451611378565b50506001821b610199565b5060208310610133831016604e8410600b841016171561147f575081810a610199565b61148983836113a5565b807fffffffffffffffffffffffffffffffffffffffffffffffffffffffffffffffff048211156114bb576114bb611378565b029392505050565b5f6110028383611406565b8181038181111561019957610199611378565b8082018082111561019957610199611378565b7f4e487b71000000000000000000000000000000000000000000000000000000005f52603260045260245ffd5b5f82611554577f4e487b71000000000000000000000000000000000000000000000000000000005f52601260045260245ffd5b500490565b5f7fffffffffffffffffffffffffffffffffffffffffffffffffffffffffffffffff820361158957611589611378565b5060010190565b7f4e487b71000000000000000000000000000000000000000000000000000000005f52600160045260245ffd5b8381525f83516115d48160208501602088016110e9565b80830190507fffffffffffffffffffffffffffffffffffffffffffffffff0000000000000000841660208201526038810191505094935050505056fea2646970667358221220222285135f135ee59b8e74a197c76edc7f6b4a3a25a69892c70f29f5a7759efe64736f6c63430008140033",
  "linkReferences": {},
  "deployedLinkReferences": {}
}