{
  "_format": "hh-sol-artifact-1",
  "contractName": "FeesEscrow",
  "sourceName": "contracts/pool/FeesEscrow.sol",
  "abi": [
    {
      "inputs": [
        {
          "internalType": "address",
          "name": "_rewardLyxToken",
          "type": "address"
        }
      ],
      "stateMutability": "nonpayable",
      "type": "constructor"
    },
    {
      "anonymous": false,
      "inputs": [
        {
          "indexed": false,
          "internalType": "uint256",
          "name": "amount",
          "type": "uint256"
        }
      ],
      "name": "FeesTransferred",
      "type": "event"
    },
    {
      "inputs": [],
      "name": "transferToRewards",
      "outputs": [
        {
          "internalType": "uint256",
          "name": "",
          "type": "uint256"
        }
      ],
      "stateMutability": "nonpayable",
      "type": "function"
    },
    {
      "stateMutability": "payable",
      "type": "receive"
    }
  ],
  "bytecode": "0x60a060405234801561000f575f80fd5b5060405161038c38038061038c833981810160405281019061003191906100c9565b8073ffffffffffffffffffffffffffffffffffffffff1660808173ffffffffffffffffffffffffffffffffffffffff1681525050506100f4565b5f80fd5b5f73ffffffffffffffffffffffffffffffffffffffff82169050919050565b5f6100988261006f565b9050919050565b6100a88161008e565b81146100b2575f80fd5b50565b5f815190506100c38161009f565b92915050565b5f602082840312156100de576100dd61006b565b5b5f6100eb848285016100b5565b91505092915050565b60805161027b6101115f395f81816059015260fb015261027b5ff3fe608060405260043610610021575f3560e01c806366e54d311461002c57610028565b3661002857005b5f80fd5b348015610037575f80fd5b50610040610056565b60405161004d91906101b4565b60405180910390f35b5f7f000000000000000000000000000000000000000000000000000000000000000073ffffffffffffffffffffffffffffffffffffffff163373ffffffffffffffffffffffffffffffffffffffff16146100e5576040517f08c379a00000000000000000000000000000000000000000000000000000000081526004016100dc90610227565b60405180910390fd5b5f4790505f81036100f95780915050610199565b7f000000000000000000000000000000000000000000000000000000000000000073ffffffffffffffffffffffffffffffffffffffff166108fc8290811502906040515f60405180830381858888f1935050505015801561015c573d5f803e3d5ffd5b507f7a845d9ff115a67119400d0d4fb3a54b18d744a32c3180ecb8e2f15d14af63ef8160405161018c91906101b4565b60405180910390a1809150505b90565b5f819050919050565b6101ae8161019c565b82525050565b5f6020820190506101c75f8301846101a5565b92915050565b5f82825260208201905092915050565b7f46656573457363726f773a20696e76616c69642063616c6c65720000000000005f82015250565b5f610211601a836101cd565b915061021c826101dd565b602082019050919050565b5f6020820190508181035f83015261023e81610205565b905091905056fea26469706673582212208c6fbbf49818e4da53d914eec14ad002b15a1c520ab144be8ba0b4536f1111ff64736f6c63430008140033",
  "linkReferences": {},
  "deployedLinkReferences": {}
}