{
  "_format": "hh-sol-artifact-1",
  "contractName": "Oracles",
  "sourceName": "contracts/Oracles.sol",
  "abi": [
    {
      "anonymous": false,
      "inputs": [
        {
          "indexed": false,
          "internalType": "uint8",
          "name": "version",
          "type": "uint8"
        }
      ],
      "name": "Initialized",
      "type": "event"
    },
    {
      "anonymous": false,
      "inputs": [
        {
          "indexed": true,
          "internalType": "address",
          "name": "sender",
          "type": "address"
        },
        {
          "indexed": false,
          "internalType": "address[]",
          "name": "oracles",
          "type": "address[]"
        },
        {
          "indexed": false,
          "internalType": "uint256",
          "name": "nonce",
          "type": "uint256"
        },
        {
          "indexed": true,
          "internalType": "bytes32",
          "name": "merkleRoot",
          "type": "bytes32"
        },
        {
          "indexed": false,
          "internalType": "string",
          "name": "merkleProofs",
          "type": "string"
        }
      ],
      "name": "MerkleRootVoteSubmitted",
      "type": "event"
    },
    {
      "anonymous": false,
      "inputs": [
        {
          "indexed": true,
          "internalType": "address",
          "name": "oracle",
          "type": "address"
        }
      ],
      "name": "OracleAdded",
      "type": "event"
    },
    {
      "anonymous": false,
      "inputs": [
        {
          "indexed": true,
          "internalType": "address",
          "name": "oracle",
          "type": "address"
        }
      ],
      "name": "OracleRemoved",
      "type": "event"
    },
    {
      "anonymous": false,
      "inputs": [
        {
          "indexed": true,
          "internalType": "address",
          "name": "orchestrator",
          "type": "address"
        }
      ],
      "name": "OrchestratorAdded",
      "type": "event"
    },
    {
      "anonymous": false,
      "inputs": [
        {
          "indexed": true,
          "internalType": "address",
          "name": "orchestrator",
          "type": "address"
        }
      ],
      "name": "OrchestratorRemoved",
      "type": "event"
    },
    {
      "anonymous": false,
      "inputs": [
        {
          "indexed": false,
          "internalType": "address",
          "name": "account",
          "type": "address"
        }
      ],
      "name": "Paused",
      "type": "event"
    },
    {
      "anonymous": false,
      "inputs": [
        {
          "indexed": true,
          "internalType": "address",
          "name": "sender",
          "type": "address"
        },
        {
          "indexed": false,
          "internalType": "address[]",
          "name": "oracles",
          "type": "address[]"
        },
        {
          "indexed": false,
          "internalType": "uint256",
          "name": "nonce",
          "type": "uint256"
        }
      ],
      "name": "RegisterValidatorsVoteSubmitted",
      "type": "event"
    },
    {
      "anonymous": false,
      "inputs": [
        {
          "indexed": true,
          "internalType": "address",
          "name": "sender",
          "type": "address"
        },
        {
          "indexed": false,
          "internalType": "address[]",
          "name": "oracles",
          "type": "address[]"
        },
        {
          "indexed": false,
          "internalType": "uint256",
          "name": "nonce",
          "type": "uint256"
        },
        {
          "indexed": false,
          "internalType": "uint256",
          "name": "totalRewards",
          "type": "uint256"
        },
        {
          "indexed": false,
          "internalType": "uint256",
          "name": "activatedValidators",
          "type": "uint256"
        },
        {
          "indexed": false,
          "internalType": "uint256",
          "name": "exitedValidators",
          "type": "uint256"
        }
      ],
      "name": "RewardsVoteSubmitted",
      "type": "event"
    },
    {
      "anonymous": false,
      "inputs": [
        {
          "indexed": true,
          "internalType": "bytes32",
          "name": "role",
          "type": "bytes32"
        },
        {
          "indexed": true,
          "internalType": "bytes32",
          "name": "previousAdminRole",
          "type": "bytes32"
        },
        {
          "indexed": true,
          "internalType": "bytes32",
          "name": "newAdminRole",
          "type": "bytes32"
        }
      ],
      "name": "RoleAdminChanged",
      "type": "event"
    },
    {
      "anonymous": false,
      "inputs": [
        {
          "indexed": true,
          "internalType": "bytes32",
          "name": "role",
          "type": "bytes32"
        },
        {
          "indexed": true,
          "internalType": "address",
          "name": "account",
          "type": "address"
        },
        {
          "indexed": true,
          "internalType": "address",
          "name": "sender",
          "type": "address"
        }
      ],
      "name": "RoleGranted",
      "type": "event"
    },
    {
      "anonymous": false,
      "inputs": [
        {
          "indexed": true,
          "internalType": "bytes32",
          "name": "role",
          "type": "bytes32"
        },
        {
          "indexed": true,
          "internalType": "address",
          "name": "account",
          "type": "address"
        },
        {
          "indexed": true,
          "internalType": "address",
          "name": "sender",
          "type": "address"
        }
      ],
      "name": "RoleRevoked",
      "type": "event"
    },
    {
      "anonymous": false,
      "inputs": [
        {
          "indexed": false,
          "internalType": "address",
          "name": "account",
          "type": "address"
        }
      ],
      "name": "Unpaused",
      "type": "event"
    },
    {
      "anonymous": false,
      "inputs": [
        {
          "indexed": true,
          "internalType": "address",
          "name": "sender",
          "type": "address"
        },
        {
          "indexed": false,
          "internalType": "address[]",
          "name": "oracles",
          "type": "address[]"
        },
        {
          "indexed": false,
          "internalType": "uint256",
          "name": "nonce",
          "type": "uint256"
        }
      ],
      "name": "UnstakeProcessingVoteSubmitted",
      "type": "event"
    },
    {
      "inputs": [],
      "name": "DEFAULT_ADMIN_ROLE",
      "outputs": [
        {
          "internalType": "bytes32",
          "name": "",
          "type": "bytes32"
        }
      ],
      "stateMutability": "view",
      "type": "function"
    },
    {
      "inputs": [],
      "name": "ORACLE_ROLE",
      "outputs": [
        {
          "internalType": "bytes32",
          "name": "",
          "type": "bytes32"
        }
      ],
      "stateMutability": "view",
      "type": "function"
    },
    {
      "inputs": [],
      "name": "ORCHESTRATOR_ROLE",
      "outputs": [
        {
          "internalType": "bytes32",
          "name": "",
          "type": "bytes32"
        }
      ],
      "stateMutability": "view",
      "type": "function"
    },
    {
      "inputs": [],
      "name": "PAUSER_ROLE",
      "outputs": [
        {
          "internalType": "bytes32",
          "name": "",
          "type": "bytes32"
        }
      ],
      "stateMutability": "view",
      "type": "function"
    },
    {
      "inputs": [],
      "name": "VALIDATOR_TOTAL_DEPOSIT",
      "outputs": [
        {
          "internalType": "uint256",
          "name": "",
          "type": "uint256"
        }
      ],
      "stateMutability": "view",
      "type": "function"
    },
    {
      "inputs": [
        {
          "internalType": "address",
          "name": "_account",
          "type": "address"
        }
      ],
      "name": "addAdmin",
      "outputs": [],
      "stateMutability": "nonpayable",
      "type": "function"
    },
    {
      "inputs": [
        {
          "internalType": "address",
          "name": "account",
          "type": "address"
        }
      ],
      "name": "addOracle",
      "outputs": [],
      "stateMutability": "nonpayable",
      "type": "function"
    },
    {
      "inputs": [
        {
          "internalType": "address",
          "name": "account",
          "type": "address"
        }
      ],
      "name": "addOrchestrator",
      "outputs": [],
      "stateMutability": "nonpayable",
      "type": "function"
    },
    {
      "inputs": [
        {
          "internalType": "address",
          "name": "_account",
          "type": "address"
        }
      ],
      "name": "addPauser",
      "outputs": [],
      "stateMutability": "nonpayable",
      "type": "function"
    },
    {
      "inputs": [
        {
          "internalType": "bytes[]",
          "name": "signatures",
          "type": "bytes[]"
        }
      ],
      "name": "beginUnstake",
      "outputs": [],
      "stateMutability": "nonpayable",
      "type": "function"
    },
    {
      "inputs": [],
      "name": "currentRewardsNonce",
      "outputs": [
        {
          "internalType": "uint256",
          "name": "",
          "type": "uint256"
        }
      ],
      "stateMutability": "view",
      "type": "function"
    },
    {
      "inputs": [],
      "name": "currentUnstakeNonce",
      "outputs": [
        {
          "internalType": "uint256",
          "name": "",
          "type": "uint256"
        }
      ],
      "stateMutability": "view",
      "type": "function"
    },
    {
      "inputs": [],
      "name": "currentValidatorsNonce",
      "outputs": [
        {
          "internalType": "uint256",
          "name": "",
          "type": "uint256"
        }
      ],
      "stateMutability": "view",
      "type": "function"
    },
    {
      "inputs": [
        {
          "internalType": "bytes32",
          "name": "role",
          "type": "bytes32"
        }
      ],
      "name": "getRoleAdmin",
      "outputs": [
        {
          "internalType": "bytes32",
          "name": "",
          "type": "bytes32"
        }
      ],
      "stateMutability": "view",
      "type": "function"
    },
    {
      "inputs": [
        {
          "internalType": "bytes32",
          "name": "role",
          "type": "bytes32"
        },
        {
          "internalType": "address",
          "name": "account",
          "type": "address"
        }
      ],
      "name": "grantRole",
      "outputs": [],
      "stateMutability": "nonpayable",
      "type": "function"
    },
    {
      "inputs": [
        {
          "internalType": "bytes32",
          "name": "role",
          "type": "bytes32"
        },
        {
          "internalType": "address",
          "name": "account",
          "type": "address"
        }
      ],
      "name": "hasRole",
      "outputs": [
        {
          "internalType": "bool",
          "name": "",
          "type": "bool"
        }
      ],
      "stateMutability": "view",
      "type": "function"
    },
    {
      "inputs": [
        {
          "internalType": "address",
          "name": "_admin",
          "type": "address"
        },
        {
          "internalType": "address",
          "name": "_rewards",
          "type": "address"
        },
        {
          "internalType": "address",
          "name": "_stakedLyxToken",
          "type": "address"
        },
        {
          "internalType": "address",
          "name": "_pool",
          "type": "address"
        },
        {
          "internalType": "address",
          "name": "_poolValidators",
          "type": "address"
        },
        {
          "internalType": "address",
          "name": "_merkleDistributor",
          "type": "address"
        }
      ],
      "name": "initialize",
      "outputs": [],
      "stateMutability": "nonpayable",
      "type": "function"
    },
    {
      "inputs": [
        {
          "internalType": "address",
          "name": "_account",
          "type": "address"
        }
      ],
      "name": "isAdmin",
      "outputs": [
        {
          "internalType": "bool",
          "name": "",
          "type": "bool"
        }
      ],
      "stateMutability": "view",
      "type": "function"
    },
    {
      "inputs": [],
      "name": "isMerkleRootVoting",
      "outputs": [
        {
          "internalType": "bool",
          "name": "",
          "type": "bool"
        }
      ],
      "stateMutability": "view",
      "type": "function"
    },
    {
      "inputs": [
        {
          "internalType": "address",
          "name": "account",
          "type": "address"
        }
      ],
      "name": "isOracle",
      "outputs": [
        {
          "internalType": "bool",
          "name": "",
          "type": "bool"
        }
      ],
      "stateMutability": "view",
      "type": "function"
    },
    {
      "inputs": [
        {
          "internalType": "address",
          "name": "account",
          "type": "address"
        }
      ],
      "name": "isOrchestrator",
      "outputs": [
        {
          "internalType": "bool",
          "name": "",
          "type": "bool"
        }
      ],
      "stateMutability": "view",
      "type": "function"
    },
    {
      "inputs": [
        {
          "internalType": "address",
          "name": "_account",
          "type": "address"
        }
      ],
      "name": "isPauser",
      "outputs": [
        {
          "internalType": "bool",
          "name": "",
          "type": "bool"
        }
      ],
      "stateMutability": "view",
      "type": "function"
    },
    {
      "inputs": [],
      "name": "oracleCount",
      "outputs": [
        {
          "internalType": "uint256",
          "name": "",
          "type": "uint256"
        }
      ],
      "stateMutability": "view",
      "type": "function"
    },
    {
      "inputs": [],
      "name": "pause",
      "outputs": [],
      "stateMutability": "nonpayable",
      "type": "function"
    },
    {
      "inputs": [],
      "name": "paused",
      "outputs": [
        {
          "internalType": "bool",
          "name": "",
          "type": "bool"
        }
      ],
      "stateMutability": "view",
      "type": "function"
    },
    {
      "inputs": [
        {
          "components": [
            {
              "internalType": "address",
              "name": "operator",
              "type": "address"
            },
            {
              "internalType": "bytes32",
              "name": "withdrawalCredentials",
              "type": "bytes32"
            },
            {
              "internalType": "bytes32",
              "name": "depositDataRoot",
              "type": "bytes32"
            },
            {
              "internalType": "bytes",
              "name": "publicKey",
              "type": "bytes"
            },
            {
              "internalType": "bytes",
              "name": "signature",
              "type": "bytes"
            }
          ],
          "internalType": "struct IPoolValidators.DepositData[]",
          "name": "depositData",
          "type": "tuple[]"
        },
        {
          "internalType": "bytes32[][]",
          "name": "merkleProofs",
          "type": "bytes32[][]"
        },
        {
          "internalType": "bytes32",
          "name": "validatorsDepositRoot",
          "type": "bytes32"
        },
        {
          "internalType": "bytes[]",
          "name": "signatures",
          "type": "bytes[]"
        }
      ],
      "name": "registerValidators",
      "outputs": [],
      "stateMutability": "nonpayable",
      "type": "function"
    },
    {
      "inputs": [
        {
          "internalType": "address",
          "name": "_account",
          "type": "address"
        }
      ],
      "name": "removeAdmin",
      "outputs": [],
      "stateMutability": "nonpayable",
      "type": "function"
    },
    {
      "inputs": [
        {
          "internalType": "address",
          "name": "account",
          "type": "address"
        }
      ],
      "name": "removeOracle",
      "outputs": [],
      "stateMutability": "nonpayable",
      "type": "function"
    },
    {
      "inputs": [
        {
          "internalType": "address",
          "name": "account",
          "type": "address"
        }
      ],
      "name": "removeOrchestrator",
      "outputs": [],
      "stateMutability": "nonpayable",
      "type": "function"
    },
    {
      "inputs": [
        {
          "internalType": "address",
          "name": "_account",
          "type": "address"
        }
      ],
      "name": "removePauser",
      "outputs": [],
      "stateMutability": "nonpayable",
      "type": "function"
    },
    {
      "inputs": [
        {
          "internalType": "bytes32",
          "name": "role",
          "type": "bytes32"
        },
        {
          "internalType": "address",
          "name": "account",
          "type": "address"
        }
      ],
      "name": "renounceRole",
      "outputs": [],
      "stateMutability": "nonpayable",
      "type": "function"
    },
    {
      "inputs": [
        {
          "internalType": "bytes32",
          "name": "role",
          "type": "bytes32"
        },
        {
          "internalType": "address",
          "name": "account",
          "type": "address"
        }
      ],
      "name": "revokeRole",
      "outputs": [],
      "stateMutability": "nonpayable",
      "type": "function"
    },
    {
      "inputs": [
        {
          "internalType": "bytes32",
          "name": "merkleRoot",
          "type": "bytes32"
        },
        {
          "internalType": "string",
          "name": "merkleProofs",
          "type": "string"
        },
        {
          "internalType": "bytes[]",
          "name": "signatures",
          "type": "bytes[]"
        }
      ],
      "name": "submitMerkleRoot",
      "outputs": [],
      "stateMutability": "nonpayable",
      "type": "function"
    },
    {
      "inputs": [
        {
          "internalType": "uint256",
          "name": "totalRewards",
          "type": "uint256"
        },
        {
          "internalType": "uint256",
          "name": "activatedValidators",
          "type": "uint256"
        },
        {
          "internalType": "uint256",
          "name": "exitedValidators",
          "type": "uint256"
        },
        {
          "internalType": "bytes[]",
          "name": "signatures",
          "type": "bytes[]"
        }
      ],
      "name": "submitRewards",
      "outputs": [],
      "stateMutability": "nonpayable",
      "type": "function"
    },
    {
      "inputs": [
        {
          "internalType": "bytes4",
          "name": "interfaceId",
          "type": "bytes4"
        }
      ],
      "name": "supportsInterface",
      "outputs": [
        {
          "internalType": "bool",
          "name": "",
          "type": "bool"
        }
      ],
      "stateMutability": "view",
      "type": "function"
    },
    {
      "inputs": [],
      "name": "unpause",
      "outputs": [],
      "stateMutability": "nonpayable",
      "type": "function"
    }
  ],
  "bytecode": "0x608060405234801561000f575f80fd5b506150908061001d5f395ff3fe608060405234801561000f575f80fd5b506004361061021a575f3560e01c8063784b590111610123578063cc2a9a5b116100ab578063df5dd1a51161007a578063df5dd1a5146105fc578063e63ab1e914610618578063ea535e8014610636578063f87f339c14610652578063fdc85fc4146106705761021a565b8063cc2a9a5b14610576578063d2eb2dbc14610592578063d547741f146105b0578063d701dcbd146105cc5761021a565b8063a217fddf116100f2578063a217fddf146104d2578063a97e5c93146104f0578063b252395514610520578063b30e899a1461053e578063bb9ba3051461055a5761021a565b8063784b59011461046057806382dc1ec41461047c5780638456cb591461049857806391d14854146104a25761021a565b80633f4ba83a116101a65780635c975abb116101755780635c975abb146103ce578063613d8fcc146103ec5780636b2c0f551461040a578063704802751461042657806377aec521146104425761021a565b80633f4ba83a1461035a5780633f921d921461036457806346fbf68e146103825780635035d004146103b25761021a565b806319c28b20116101ed57806319c28b20146102a6578063248a9ca3146102c257806324d7806c146102f25780632f2ff15d1461032257806336568abe1461033e5761021a565b806301ffc9a71461021e57806307e2cea51461024e57806309e0a34f1461026c5780631785f53c1461028a575b5f80fd5b61023860048036038101906102339190612f66565b61068c565b6040516102459190612fab565b60405180910390f35b610256610705565b6040516102639190612fdc565b60405180910390f35b610274610729565b6040516102819190612fdc565b60405180910390f35b6102a4600480360381019061029f919061304f565b61074d565b005b6102c060048036038101906102bb919061304f565b61075c565b005b6102dc60048036038101906102d791906130a4565b610835565b6040516102e99190612fdc565b60405180910390f35b61030c6004803603810190610307919061304f565b610852565b6040516103199190612fab565b60405180910390f35b61033c600480360381019061033791906130cf565b610866565b005b610358600480360381019061035391906130cf565b610887565b005b61036261090a565b005b61036c61097d565b6040516103799190612fab565b60405180910390f35b61039c6004803603810190610397919061304f565b610ab1565b6040516103a99190612fab565b60405180910390f35b6103cc60048036038101906103c791906131c3565b610ae3565b005b6103d6610d2d565b6040516103e39190612fab565b60405180910390f35b6103f4610d42565b604051610401919061326c565b60405180910390f35b610424600480360381019061041f919061304f565b610d48565b005b610440600480360381019061043b919061304f565b610d75565b005b61044a610d84565b604051610457919061326c565b60405180910390f35b61047a60048036038101906104759190613285565b610d91565b005b6104966004803603810190610491919061304f565b610f77565b005b6104a0610fa4565b005b6104bc60048036038101906104b791906130cf565b611017565b6040516104c99190612fab565b60405180910390f35b6104da61107b565b6040516104e79190612fdc565b60405180910390f35b61050a6004803603810190610505919061304f565b611081565b6040516105179190612fab565b60405180910390f35b6105286110b3565b604051610535919061326c565b60405180910390f35b6105586004803603810190610553919061337a565b6110c3565b005b610574600480360381019061056f9190613468565b6114b0565b005b610590600480360381019061058b91906134ec565b611980565b005b61059a611e2c565b6040516105a7919061326c565b60405180910390f35b6105ca60048036038101906105c591906130cf565b611e3c565b005b6105e660048036038101906105e1919061304f565b611e5d565b6040516105f39190612fab565b60405180910390f35b6106166004803603810190610611919061304f565b611e8f565b005b610620611fed565b60405161062d9190612fdc565b60405180910390f35b610650600480360381019061064b919061304f565b612011565b005b61065a612159565b604051610667919061326c565b60405180910390f35b61068a6004803603810190610685919061304f565b612169565b005b5f7f7965db0b000000000000000000000000000000000000000000000000000000007bffffffffffffffffffffffffffffffffffffffffffffffffffffffff1916827bffffffffffffffffffffffffffffffffffffffffffffffffffffffff191614806106fe57506106fd82612259565b5b9050919050565b7f68e79a7bf1e0bc45d0a330c573bc367f9cf464fd326078812f301165fbda4ef181565b7fe098e2e7d2d4d3ca0e3877ceaaf3cdfbd47483f6699688ad12b1d6732deef10b81565b6107595f801b82611e3c565b50565b6107867fe098e2e7d2d4d3ca0e3877ceaaf3cdfbd47483f6699688ad12b1d6732deef10b82611017565b6107c5576040517f08c379a00000000000000000000000000000000000000000000000000000000081526004016107bc906135f5565b60405180910390fd5b6107ef7fe098e2e7d2d4d3ca0e3877ceaaf3cdfbd47483f6699688ad12b1d6732deef10b82611e3c565b8073ffffffffffffffffffffffffffffffffffffffff167ff43b5a4338c3885b9a0472860e7018779fb25c5852ad2fa47e6665a5cc05680860405160405180910390a250565b5f60975f8381526020019081526020015f20600101549050919050565b5f61085f5f801b83611017565b9050919050565b61086f82610835565b610878816122c2565b61088283836122d6565b505050565b61088f6123b1565b73ffffffffffffffffffffffffffffffffffffffff168173ffffffffffffffffffffffffffffffffffffffff16146108fc576040517f08c379a00000000000000000000000000000000000000000000000000000000081526004016108f390613683565b60405180910390fd5b61090682826123b8565b5050565b6109347f65d7a28e3265b37a6474929f336521b332c1681b933f6cb9f3376673440d862a33611017565b610973576040517f08c379a000000000000000000000000000000000000000000000000000000000815260040161096a906136eb565b60405180910390fd5b61097b612493565b565b5f8060cd5f9054906101000a900473ffffffffffffffffffffffffffffffffffffffff1673ffffffffffffffffffffffffffffffffffffffff1663b4c6e4166040518163ffffffff1660e01b8152600401602060405180830381865afa1580156109e9573d5f803e3d5ffd5b505050506040513d601f19601f82011682018060405250810190610a0d919061371d565b90508060d15f9054906101000a900473ffffffffffffffffffffffffffffffffffffffff1673ffffffffffffffffffffffffffffffffffffffff1663b4c6e4166040518163ffffffff1660e01b8152600401602060405180830381865afa158015610a7a573d5f803e3d5ffd5b505050506040513d601f19601f82011682018060405250810190610a9e919061371d565b108015610aab5750438114155b91505090565b5f610adc7f65d7a28e3265b37a6474929f336521b332c1681b933f6cb9f3376673440d862a83611017565b9050919050565b610b0d7fe098e2e7d2d4d3ca0e3877ceaaf3cdfbd47483f6699688ad12b1d6732deef10b33611017565b610b4c576040517f08c379a0000000000000000000000000000000000000000000000000000000008152600401610b4390613792565b60405180910390fd5b610b546124f4565b610b5c61097d565b610b9b576040517f08c379a0000000000000000000000000000000000000000000000000000000008152600401610b92906137fa565b60405180910390fd5b610ba78282905061253e565b610be6576040517f08c379a0000000000000000000000000000000000000000000000000000000008152600401610bdd90613888565b60405180910390fd5b5f610bf160ca612571565b90505f610c298287878a604051602001610c0e94939291906138f0565b6040516020818303038152906040528051906020012061257d565b90505f610c378286866125ac565b9050610c4360ca6127ff565b873373ffffffffffffffffffffffffffffffffffffffff167f580a750e03df761028336142a315c25d6ffc7fe1fb4311347303eef82f3342b483868b8b604051610c9094939291906139e5565b60405180910390a360d15f9054906101000a900473ffffffffffffffffffffffffffffffffffffffff1673ffffffffffffffffffffffffffffffffffffffff166380b383ca8989896040518463ffffffff1660e01b8152600401610cf693929190613a2a565b5f604051808303815f87803b158015610d0d575f80fd5b505af1158015610d1f573d5f803e3d5ffd5b505050505050505050505050565b5f60335f9054906101000a900460ff16905090565b60c95481565b610d727f65d7a28e3265b37a6474929f336521b332c1681b933f6cb9f3376673440d862a82611e3c565b50565b610d815f801b82610866565b50565b6801bc16d674ec80000081565b610dbb7fe098e2e7d2d4d3ca0e3877ceaaf3cdfbd47483f6699688ad12b1d6732deef10b33611017565b610dfa576040517f08c379a0000000000000000000000000000000000000000000000000000000008152600401610df190613792565b60405180910390fd5b610e026124f4565b610e0e8282905061253e565b610e4d576040517f08c379a0000000000000000000000000000000000000000000000000000000008152600401610e4490613888565b60405180910390fd5b5f610e5860cc612571565b90505f610e8a82604051602001610e6f9190613aa4565b6040516020818303038152906040528051906020012061257d565b90505f610e988286866125ac565b905060ce5f9054906101000a900473ffffffffffffffffffffffffffffffffffffffff1673ffffffffffffffffffffffffffffffffffffffff166384f6ab306040518163ffffffff1660e01b81526004015f604051808303815f87803b158015610f00575f80fd5b505af1158015610f12573d5f803e3d5ffd5b50505050610f2060cc6127ff565b3373ffffffffffffffffffffffffffffffffffffffff167f0886503d8751ad71afdc005ff654a694243aaeaafa2542701152da9de1c4a4ae8285604051610f68929190613ad0565b60405180910390a25050505050565b610fa17f65d7a28e3265b37a6474929f336521b332c1681b933f6cb9f3376673440d862a82610866565b50565b610fce7f65d7a28e3265b37a6474929f336521b332c1681b933f6cb9f3376673440d862a33611017565b61100d576040517f08c379a0000000000000000000000000000000000000000000000000000000008152600401611004906136eb565b60405180910390fd5b611015612813565b565b5f60975f8481526020019081526020015f205f015f8373ffffffffffffffffffffffffffffffffffffffff1673ffffffffffffffffffffffffffffffffffffffff1681526020019081526020015f205f9054906101000a900460ff16905092915050565b5f801b81565b5f6110ac7f68e79a7bf1e0bc45d0a330c573bc367f9cf464fd326078812f301165fbda4ef183611017565b9050919050565b5f6110be60ca612571565b905090565b6110ed7fe098e2e7d2d4d3ca0e3877ceaaf3cdfbd47483f6699688ad12b1d6732deef10b33611017565b61112c576040517f08c379a000000000000000000000000000000000000000000000000000000000815260040161112390613792565b60405180910390fd5b6111346124f4565b8260cf5f9054906101000a900473ffffffffffffffffffffffffffffffffffffffff1673ffffffffffffffffffffffffffffffffffffffff1663f44e383f6040518163ffffffff1660e01b8152600401602060405180830381865afa15801561119f573d5f803e3d5ffd5b505050506040513d601f19601f820116820180604052508101906111c39190613b39565b73ffffffffffffffffffffffffffffffffffffffff1663c5f2892f6040518163ffffffff1660e01b8152600401602060405180830381865afa15801561120b573d5f803e3d5ffd5b505050506040513d601f19601f8201168201806040525081019061122f9190613b78565b1461126f576040517f08c379a000000000000000000000000000000000000000000000000000000000815260040161126690613c13565b60405180910390fd5b61127b8282905061253e565b6112ba576040517f08c379a00000000000000000000000000000000000000000000000000000000081526004016112b190613888565b60405180910390fd5b5f6112c560cb612571565b90505f6112fd828a8a886040516020016112e29493929190613e8d565b6040516020818303038152906040528051906020012061257d565b90505f61130b8286866125ac565b90505f8a8a90509050808989905014611359576040517f08c379a000000000000000000000000000000000000000000000000000000000815260040161135090613f3b565b60405180910390fd5b5f5b818110156114485760d05f9054906101000a900473ffffffffffffffffffffffffffffffffffffffff1673ffffffffffffffffffffffffffffffffffffffff1663b85222c98d8d848181106113b3576113b2613f59565b5b90506020028101906113c59190613f92565b8c8c858181106113d8576113d7613f59565b5b90506020028101906113ea9190613fb9565b6040518463ffffffff1660e01b815260040161140893929190614139565b5f604051808303815f87803b15801561141f575f80fd5b505af1158015611431573d5f803e3d5ffd5b5050505080806114409061419d565b91505061135b565b5061145360cb6127ff565b3373ffffffffffffffffffffffffffffffffffffffff167fd28cb455d935f3cd1870e18d7d27133d5eb8e9339e08a3756817fc186bfecd78838660405161149b929190613ad0565b60405180910390a25050505050505050505050565b6114da7fe098e2e7d2d4d3ca0e3877ceaaf3cdfbd47483f6699688ad12b1d6732deef10b33611017565b611519576040517f08c379a000000000000000000000000000000000000000000000000000000000815260040161151090613792565b60405180910390fd5b6115216124f4565b61152d8282905061253e565b61156c576040517f08c379a000000000000000000000000000000000000000000000000000000000815260040161156390613888565b60405180910390fd5b5f61157760ca612571565b90505f6115af8287878a60405160200161159494939291906141e4565b6040516020818303038152906040528051906020012061257d565b90505f6115bd8286866125ac565b90506115c960ca6127ff565b3373ffffffffffffffffffffffffffffffffffffffff167f4ec3fde48355a52667d7f4c3e97343019d73174759074a40b950e4c82260eefa82858b8b8b604051611617959493929190614227565b60405180910390a260cd5f9054906101000a900473ffffffffffffffffffffffffffffffffffffffff1673ffffffffffffffffffffffffffffffffffffffff16635bbb860d896040518263ffffffff1660e01b8152600401611679919061326c565b5f604051808303815f87803b158015611690575f80fd5b505af11580156116a2573d5f803e3d5ffd5b5050505060cf5f9054906101000a900473ffffffffffffffffffffffffffffffffffffffff1673ffffffffffffffffffffffffffffffffffffffff1663899b7c746040518163ffffffff1660e01b8152600401602060405180830381865afa158015611710573d5f803e3d5ffd5b505050506040513d601f19601f82011682018060405250810190611734919061371d565b87146117c25760cf5f9054906101000a900473ffffffffffffffffffffffffffffffffffffffff1673ffffffffffffffffffffffffffffffffffffffff166359c53656886040518263ffffffff1660e01b8152600401611794919061326c565b5f604051808303815f87803b1580156117ab575f80fd5b505af11580156117bd573d5f803e3d5ffd5b505050505b5f60cf5f9054906101000a900473ffffffffffffffffffffffffffffffffffffffff1673ffffffffffffffffffffffffffffffffffffffff16633882b1c96040518163ffffffff1660e01b8152600401602060405180830381865afa15801561182d573d5f803e3d5ffd5b505050506040513d601f19601f82011682018060405250810190611851919061371d565b8761185c919061427f565b90505f8111156119755760cf5f9054906101000a900473ffffffffffffffffffffffffffffffffffffffff1673ffffffffffffffffffffffffffffffffffffffff166358e5d88b886040518263ffffffff1660e01b81526004016118c0919061326c565b5f604051808303815f87803b1580156118d7575f80fd5b505af11580156118e9573d5f803e3d5ffd5b5050505060ce5f9054906101000a900473ffffffffffffffffffffffffffffffffffffffff1673ffffffffffffffffffffffffffffffffffffffff1663c76e3174826040518263ffffffff1660e01b8152600401611947919061326c565b5f604051808303815f87803b15801561195e575f80fd5b505af1158015611970573d5f803e3d5ffd5b505050505b505050505050505050565b5f8060019054906101000a900460ff161590508080156119af575060015f8054906101000a900460ff1660ff16105b806119db57506119be30612875565b1580156119da575060015f8054906101000a900460ff1660ff16145b5b611a1a576040517f08c379a0000000000000000000000000000000000000000000000000000000008152600401611a1190614322565b60405180910390fd5b60015f806101000a81548160ff021916908360ff1602179055508015611a555760015f60016101000a81548160ff0219169083151502179055505b5f73ffffffffffffffffffffffffffffffffffffffff168673ffffffffffffffffffffffffffffffffffffffff1603611ac3576040517f08c379a0000000000000000000000000000000000000000000000000000000008152600401611aba9061438a565b60405180910390fd5b5f73ffffffffffffffffffffffffffffffffffffffff168573ffffffffffffffffffffffffffffffffffffffff1603611b31576040517f08c379a0000000000000000000000000000000000000000000000000000000008152600401611b2890614418565b60405180910390fd5b5f73ffffffffffffffffffffffffffffffffffffffff168473ffffffffffffffffffffffffffffffffffffffff1603611b9f576040517f08c379a0000000000000000000000000000000000000000000000000000000008152600401611b9690614480565b60405180910390fd5b5f73ffffffffffffffffffffffffffffffffffffffff168373ffffffffffffffffffffffffffffffffffffffff1603611c0d576040517f08c379a0000000000000000000000000000000000000000000000000000000008152600401611c049061450e565b60405180910390fd5b5f73ffffffffffffffffffffffffffffffffffffffff168273ffffffffffffffffffffffffffffffffffffffff1603611c7b576040517f08c379a0000000000000000000000000000000000000000000000000000000008152600401611c729061459c565b60405180910390fd5b5f60c981905550611c8b87612897565b8560cd5f6101000a81548173ffffffffffffffffffffffffffffffffffffffff021916908373ffffffffffffffffffffffffffffffffffffffff1602179055508460ce5f6101000a81548173ffffffffffffffffffffffffffffffffffffffff021916908373ffffffffffffffffffffffffffffffffffffffff1602179055508360cf5f6101000a81548173ffffffffffffffffffffffffffffffffffffffff021916908373ffffffffffffffffffffffffffffffffffffffff1602179055508260d05f6101000a81548173ffffffffffffffffffffffffffffffffffffffff021916908373ffffffffffffffffffffffffffffffffffffffff1602179055508160d15f6101000a81548173ffffffffffffffffffffffffffffffffffffffff021916908373ffffffffffffffffffffffffffffffffffffffff1602179055508015611e23575f8060016101000a81548160ff0219169083151502179055507f7f26b83ff96e1f2b6a682f133852f6798a09c465da95921460cefb38474024986001604051611e1a9190614608565b60405180910390a15b50505050505050565b5f611e3760cb612571565b905090565b611e4582610835565b611e4e816122c2565b611e5883836123b8565b505050565b5f611e887fe098e2e7d2d4d3ca0e3877ceaaf3cdfbd47483f6699688ad12b1d6732deef10b83611017565b9050919050565b5f73ffffffffffffffffffffffffffffffffffffffff168173ffffffffffffffffffffffffffffffffffffffff1603611efd576040517f08c379a0000000000000000000000000000000000000000000000000000000008152600401611ef49061466b565b60405180910390fd5b611f277f68e79a7bf1e0bc45d0a330c573bc367f9cf464fd326078812f301165fbda4ef182611017565b15611f67576040517f08c379a0000000000000000000000000000000000000000000000000000000008152600401611f5e906146d3565b60405180910390fd5b611f917f68e79a7bf1e0bc45d0a330c573bc367f9cf464fd326078812f301165fbda4ef182610866565b60c95f815480929190611fa39061419d565b91905055508073ffffffffffffffffffffffffffffffffffffffff167e47706786c922d17b39285dc59d696bafea72c0b003d3841ae1202076f4c2e460405160405180910390a250565b7f65d7a28e3265b37a6474929f336521b332c1681b933f6cb9f3376673440d862a81565b5f73ffffffffffffffffffffffffffffffffffffffff168173ffffffffffffffffffffffffffffffffffffffff160361207f576040517f08c379a000000000000000000000000000000000000000000000000000000000815260040161207690614761565b60405180910390fd5b6120a97fe098e2e7d2d4d3ca0e3877ceaaf3cdfbd47483f6699688ad12b1d6732deef10b82611017565b156120e9576040517f08c379a00000000000000000000000000000000000000000000000000000000081526004016120e0906147ef565b60405180910390fd5b6121137fe098e2e7d2d4d3ca0e3877ceaaf3cdfbd47483f6699688ad12b1d6732deef10b82610866565b8073ffffffffffffffffffffffffffffffffffffffff167fe8634ee4705b838130ef5f5704acc336c6fd18a8bfe0430e9102ff6bcf9184d360405160405180910390a250565b5f61216460cc612571565b905090565b6121937f68e79a7bf1e0bc45d0a330c573bc367f9cf464fd326078812f301165fbda4ef182611017565b6121d2576040517f08c379a00000000000000000000000000000000000000000000000000000000081526004016121c990614857565b60405180910390fd5b6121fc7f68e79a7bf1e0bc45d0a330c573bc367f9cf464fd326078812f301165fbda4ef182611e3c565b60c95f81548092919061220e90614875565b91905055508073ffffffffffffffffffffffffffffffffffffffff167f9c8e7d83025bef8a04c664b2f753f64b8814bdb7e27291d7e50935f18cc3c71260405160405180910390a250565b5f7f01ffc9a7000000000000000000000000000000000000000000000000000000007bffffffffffffffffffffffffffffffffffffffffffffffffffffffff1916827bffffffffffffffffffffffffffffffffffffffffffffffffffffffff1916149050919050565b6122d3816122ce6123b1565b61291e565b50565b6122e08282611017565b6123ad57600160975f8481526020019081526020015f205f015f8373ffffffffffffffffffffffffffffffffffffffff1673ffffffffffffffffffffffffffffffffffffffff1681526020019081526020015f205f6101000a81548160ff0219169083151502179055506123526123b1565b73ffffffffffffffffffffffffffffffffffffffff168173ffffffffffffffffffffffffffffffffffffffff16837f2f8788117e7eff1d82e926ec794901d17c78024a50270940304540a733656f0d60405160405180910390a45b5050565b5f33905090565b6123c28282611017565b1561248f575f60975f8481526020019081526020015f205f015f8373ffffffffffffffffffffffffffffffffffffffff1673ffffffffffffffffffffffffffffffffffffffff1681526020019081526020015f205f6101000a81548160ff0219169083151502179055506124346123b1565b73ffffffffffffffffffffffffffffffffffffffff168173ffffffffffffffffffffffffffffffffffffffff16837ff6391f5c32d9c69d2a47ea670b442974b53935d1edc7fd64eb21e047a839171b60405160405180910390a45b5050565b61249b6129a2565b5f60335f6101000a81548160ff0219169083151502179055507f5db9ee0a495bf2e6ff9c91a7834c1ba4fdd244a5e8aa4e537bd38aeae4b073aa6124dd6123b1565b6040516124ea91906148ab565b60405180910390a1565b6124fc610d2d565b1561253c576040517f08c379a00000000000000000000000000000000000000000000000000000000081526004016125339061490e565b60405180910390fd5b565b5f8160c9541015801561256a5750600260c95461255b919061492c565b600383612568919061492c565b115b9050919050565b5f815f01549050919050565b5f8160405160200161258f91906149e1565b604051602081830303815290604052805190602001209050919050565b60605f8383905067ffffffffffffffff8111156125cc576125cb614a06565b5b6040519080825280602002602001820160405280156125fa5781602001602082028036833780820191505090505b5090505f5b848490508110156127f3575f85858381811061261e5761261d613f59565b5b90506020028101906126309190614a33565b8080601f0160208091040260200160405190810160405280939291908181526020018383808284375f81840152601f19601f8201169050808301925050505050505090505f61267f88836129eb565b90506126ab7f68e79a7bf1e0bc45d0a330c573bc367f9cf464fd326078812f301165fbda4ef182611017565b6126ea576040517f08c379a00000000000000000000000000000000000000000000000000000000081526004016126e190614adf565b60405180910390fd5b5f5b8381101561278f578173ffffffffffffffffffffffffffffffffffffffff1685828151811061271e5761271d613f59565b5b602002602001015173ffffffffffffffffffffffffffffffffffffffff160361277c576040517f08c379a000000000000000000000000000000000000000000000000000000000815260040161277390614b47565b60405180910390fd5b80806127879061419d565b9150506126ec565b50808484815181106127a4576127a3613f59565b5b602002602001019073ffffffffffffffffffffffffffffffffffffffff16908173ffffffffffffffffffffffffffffffffffffffff1681525050505080806127eb9061419d565b9150506125ff565b50809150509392505050565b6001815f015f828254019250508190555050565b61281b6124f4565b600160335f6101000a81548160ff0219169083151502179055507f62e78cea01bee320cd4e420270b5ea74000d11b0c9f74754ebdbfc544b05a25861285e6123b1565b60405161286b91906148ab565b60405180910390a1565b5f808273ffffffffffffffffffffffffffffffffffffffff163b119050919050565b5f60019054906101000a900460ff166128e5576040517f08c379a00000000000000000000000000000000000000000000000000000000081526004016128dc90614bd5565b60405180910390fd5b6128f15f801b82612a10565b61291b7f65d7a28e3265b37a6474929f336521b332c1681b933f6cb9f3376673440d862a82612a10565b50565b6129288282611017565b61299e5761293581612a1e565b612942835f1c6020612a4b565b604051602001612953929190614ce9565b6040516020818303038152906040526040517f08c379a00000000000000000000000000000000000000000000000000000000081526004016129959190614d5a565b60405180910390fd5b5050565b6129aa610d2d565b6129e9576040517f08c379a00000000000000000000000000000000000000000000000000000000081526004016129e090614dc4565b60405180910390fd5b565b5f805f6129f88585612c80565b91509150612a0581612ccc565b819250505092915050565b612a1a82826122d6565b5050565b6060612a448273ffffffffffffffffffffffffffffffffffffffff16601460ff16612a4b565b9050919050565b60605f6002836002612a5d919061492c565b612a679190614de2565b67ffffffffffffffff811115612a8057612a7f614a06565b5b6040519080825280601f01601f191660200182016040528015612ab25781602001600182028036833780820191505090505b5090507f3000000000000000000000000000000000000000000000000000000000000000815f81518110612ae957612ae8613f59565b5b60200101907effffffffffffffffffffffffffffffffffffffffffffffffffffffffffffff191690815f1a9053507f780000000000000000000000000000000000000000000000000000000000000081600181518110612b4c57612b4b613f59565b5b60200101907effffffffffffffffffffffffffffffffffffffffffffffffffffffffffffff191690815f1a9053505f6001846002612b8a919061492c565b612b949190614de2565b90505b6001811115612c33577f3031323334353637383961626364656600000000000000000000000000000000600f861660108110612bd657612bd5613f59565b5b1a60f81b828281518110612bed57612bec613f59565b5b60200101907effffffffffffffffffffffffffffffffffffffffffffffffffffffffffffff191690815f1a905350600485901c945080612c2c90614875565b9050612b97565b505f8414612c76576040517f08c379a0000000000000000000000000000000000000000000000000000000008152600401612c6d90614e5f565b60405180910390fd5b8091505092915050565b5f806041835103612cbd575f805f602086015192506040860151915060608601515f1a9050612cb187828585612e31565b94509450505050612cc5565b5f6002915091505b9250929050565b5f6004811115612cdf57612cde614e7d565b5b816004811115612cf257612cf1614e7d565b5b0315612e2e5760016004811115612d0c57612d0b614e7d565b5b816004811115612d1f57612d1e614e7d565b5b03612d5f576040517f08c379a0000000000000000000000000000000000000000000000000000000008152600401612d5690614ef4565b60405180910390fd5b60026004811115612d7357612d72614e7d565b5b816004811115612d8657612d85614e7d565b5b03612dc6576040517f08c379a0000000000000000000000000000000000000000000000000000000008152600401612dbd90614f5c565b60405180910390fd5b60036004811115612dda57612dd9614e7d565b5b816004811115612ded57612dec614e7d565b5b03612e2d576040517f08c379a0000000000000000000000000000000000000000000000000000000008152600401612e2490614fea565b60405180910390fd5b5b50565b5f807f7fffffffffffffffffffffffffffffff5d576e7357a4501ddfe92f46681b20a0835f1c1115612e69575f600391509150612f00565b5f6001878787876040515f8152602001604052604051612e8c9493929190615017565b6020604051602081039080840390855afa158015612eac573d5f803e3d5ffd5b5050506020604051035190505f73ffffffffffffffffffffffffffffffffffffffff168173ffffffffffffffffffffffffffffffffffffffff1603612ef8575f60019250925050612f00565b805f92509250505b94509492505050565b5f80fd5b5f80fd5b5f7fffffffff0000000000000000000000000000000000000000000000000000000082169050919050565b612f4581612f11565b8114612f4f575f80fd5b50565b5f81359050612f6081612f3c565b92915050565b5f60208284031215612f7b57612f7a612f09565b5b5f612f8884828501612f52565b91505092915050565b5f8115159050919050565b612fa581612f91565b82525050565b5f602082019050612fbe5f830184612f9c565b92915050565b5f819050919050565b612fd681612fc4565b82525050565b5f602082019050612fef5f830184612fcd565b92915050565b5f73ffffffffffffffffffffffffffffffffffffffff82169050919050565b5f61301e82612ff5565b9050919050565b61302e81613014565b8114613038575f80fd5b50565b5f8135905061304981613025565b92915050565b5f6020828403121561306457613063612f09565b5b5f6130718482850161303b565b91505092915050565b61308381612fc4565b811461308d575f80fd5b50565b5f8135905061309e8161307a565b92915050565b5f602082840312156130b9576130b8612f09565b5b5f6130c684828501613090565b91505092915050565b5f80604083850312156130e5576130e4612f09565b5b5f6130f285828601613090565b92505060206131038582860161303b565b9150509250929050565b5f80fd5b5f80fd5b5f80fd5b5f8083601f84011261312e5761312d61310d565b5b8235905067ffffffffffffffff81111561314b5761314a613111565b5b60208301915083600182028301111561316757613166613115565b5b9250929050565b5f8083601f8401126131835761318261310d565b5b8235905067ffffffffffffffff8111156131a05761319f613111565b5b6020830191508360208202830111156131bc576131bb613115565b5b9250929050565b5f805f805f606086880312156131dc576131db612f09565b5b5f6131e988828901613090565b955050602086013567ffffffffffffffff81111561320a57613209612f0d565b5b61321688828901613119565b9450945050604086013567ffffffffffffffff81111561323957613238612f0d565b5b6132458882890161316e565b92509250509295509295909350565b5f819050919050565b61326681613254565b82525050565b5f60208201905061327f5f83018461325d565b92915050565b5f806020838503121561329b5761329a612f09565b5b5f83013567ffffffffffffffff8111156132b8576132b7612f0d565b5b6132c48582860161316e565b92509250509250929050565b5f8083601f8401126132e5576132e461310d565b5b8235905067ffffffffffffffff81111561330257613301613111565b5b60208301915083602082028301111561331e5761331d613115565b5b9250929050565b5f8083601f84011261333a5761333961310d565b5b8235905067ffffffffffffffff81111561335757613356613111565b5b60208301915083602082028301111561337357613372613115565b5b9250929050565b5f805f805f805f6080888a03121561339557613394612f09565b5b5f88013567ffffffffffffffff8111156133b2576133b1612f0d565b5b6133be8a828b016132d0565b9750975050602088013567ffffffffffffffff8111156133e1576133e0612f0d565b5b6133ed8a828b01613325565b955095505060406134008a828b01613090565b935050606088013567ffffffffffffffff81111561342157613420612f0d565b5b61342d8a828b0161316e565b925092505092959891949750929550565b61344781613254565b8114613451575f80fd5b50565b5f813590506134628161343e565b92915050565b5f805f805f6080868803121561348157613480612f09565b5b5f61348e88828901613454565b955050602061349f88828901613454565b94505060406134b088828901613454565b935050606086013567ffffffffffffffff8111156134d1576134d0612f0d565b5b6134dd8882890161316e565b92509250509295509295909350565b5f805f805f8060c0878903121561350657613505612f09565b5b5f61351389828a0161303b565b965050602061352489828a0161303b565b955050604061353589828a0161303b565b945050606061354689828a0161303b565b935050608061355789828a0161303b565b92505060a061356889828a0161303b565b9150509295509295509295565b5f82825260208201905092915050565b7f4f7263686573747261746f72733a204163636f756e742069736e277420616e205f8201527f6f7263686573747261746f720000000000000000000000000000000000000000602082015250565b5f6135df602c83613575565b91506135ea82613585565b604082019050919050565b5f6020820190508181035f83015261360c816135d3565b9050919050565b7f416363657373436f6e74726f6c3a2063616e206f6e6c792072656e6f756e63655f8201527f20726f6c657320666f722073656c660000000000000000000000000000000000602082015250565b5f61366d602f83613575565b915061367882613613565b604082019050919050565b5f6020820190508181035f83015261369a81613661565b9050919050565b7f4f776e61626c655061757361626c653a206163636573732064656e69656400005f82015250565b5f6136d5601e83613575565b91506136e0826136a1565b602082019050919050565b5f6020820190508181035f830152613702816136c9565b9050919050565b5f815190506137178161343e565b92915050565b5f6020828403121561373257613731612f09565b5b5f61373f84828501613709565b91505092915050565b7f4f7263686573747261746f72733a206163636573732064656e696564000000005f82015250565b5f61377c601c83613575565b915061378782613748565b602082019050919050565b5f6020820190508181035f8301526137a981613770565b9050919050565b7f4f7261636c65733a20746f6f206561726c7900000000000000000000000000005f82015250565b5f6137e4601283613575565b91506137ef826137b0565b602082019050919050565b5f6020820190508181035f830152613811816137d8565b9050919050565b7f4f7261636c65733a20696e76616c6964206e756d626572206f66207369676e615f8201527f7475726573000000000000000000000000000000000000000000000000000000602082015250565b5f613872602583613575565b915061387d82613818565b604082019050919050565b5f6020820190508181035f83015261389f81613866565b9050919050565b828183375f83830152505050565b5f601f19601f8301169050919050565b5f6138cf8385613575565b93506138dc8385846138a6565b6138e5836138b4565b840190509392505050565b5f6060820190506139035f83018761325d565b81810360208301526139168185876138c4565b90506139256040830184612fcd565b95945050505050565b5f81519050919050565b5f82825260208201905092915050565b5f819050602082019050919050565b61396081613014565b82525050565b5f6139718383613957565b60208301905092915050565b5f602082019050919050565b5f6139938261392e565b61399d8185613938565b93506139a883613948565b805f5b838110156139d85781516139bf8882613966565b97506139ca8361397d565b9250506001810190506139ab565b5085935050505092915050565b5f6060820190508181035f8301526139fd8187613989565b9050613a0c602083018661325d565b8181036040830152613a1f8184866138c4565b905095945050505050565b5f604082019050613a3d5f830186612fcd565b8181036020830152613a508184866138c4565b9050949350505050565b7f736574556e7374616b6550726f63657373696e670000000000000000000000005f82015250565b5f613a8e601483613575565b9150613a9982613a5a565b602082019050919050565b5f604082019050613ab75f83018461325d565b8181036020830152613ac881613a82565b905092915050565b5f6040820190508181035f830152613ae88185613989565b9050613af7602083018461325d565b9392505050565b5f613b0882613014565b9050919050565b613b1881613afe565b8114613b22575f80fd5b50565b5f81519050613b3381613b0f565b92915050565b5f60208284031215613b4e57613b4d612f09565b5b5f613b5b84828501613b25565b91505092915050565b5f81519050613b728161307a565b92915050565b5f60208284031215613b8d57613b8c612f09565b5b5f613b9a84828501613b64565b91505092915050565b7f4f7261636c65733a20696e76616c69642076616c696461746f7273206465706f5f8201527f73697420726f6f74000000000000000000000000000000000000000000000000602082015250565b5f613bfd602883613575565b9150613c0882613ba3565b604082019050919050565b5f6020820190508181035f830152613c2a81613bf1565b9050919050565b5f82825260208201905092915050565b5f819050919050565b5f613c58602084018461303b565b905092915050565b5f613c6e6020840184613090565b905092915050565b613c7f81612fc4565b82525050565b5f80fd5b5f80fd5b5f80fd5b5f8083356001602003843603038112613cad57613cac613c8d565b5b83810192508235915060208301925067ffffffffffffffff821115613cd557613cd4613c85565b5b600182023603831315613ceb57613cea613c89565b5b509250929050565b5f82825260208201905092915050565b5f613d0e8385613cf3565b9350613d1b8385846138a6565b613d24836138b4565b840190509392505050565b5f60a08301613d405f840184613c4a565b613d4c5f860182613957565b50613d5a6020840184613c60565b613d676020860182613c76565b50613d756040840184613c60565b613d826040860182613c76565b50613d906060840184613c91565b8583036060870152613da3838284613d03565b92505050613db46080840184613c91565b8583036080870152613dc7838284613d03565b925050508091505092915050565b5f613de08383613d2f565b905092915050565b5f8235600160a003833603038112613e0357613e02613c8d565b5b82810191505092915050565b5f602082019050919050565b5f613e268385613c31565b935083602084028501613e3884613c41565b805f5b87811015613e7b578484038952613e528284613de8565b613e5c8582613dd5565b9450613e6783613e0f565b925060208a01995050600181019050613e3b565b50829750879450505050509392505050565b5f606082019050613ea05f83018761325d565b8181036020830152613eb3818587613e1b565b9050613ec26040830184612fcd565b95945050505050565b7f4f7261636c65733a20696e76616c6964206d65726b6c652070726f6f6673206c5f8201527f656e677468000000000000000000000000000000000000000000000000000000602082015250565b5f613f25602583613575565b9150613f3082613ecb565b604082019050919050565b5f6020820190508181035f830152613f5281613f19565b9050919050565b7f4e487b71000000000000000000000000000000000000000000000000000000005f52603260045260245ffd5b5f80fd5b5f80fd5b5f80fd5b5f8235600160a003833603038112613fad57613fac613f86565b5b80830191505092915050565b5f8083356001602003843603038112613fd557613fd4613f86565b5b80840192508235915067ffffffffffffffff821115613ff757613ff6613f8a565b5b60208301925060208202360383131561401357614012613f8e565b5b509250929050565b5f60a0830161402c5f840184613c4a565b6140385f860182613957565b506140466020840184613c60565b6140536020860182613c76565b506140616040840184613c60565b61406e6040860182613c76565b5061407c6060840184613c91565b858303606087015261408f838284613d03565b925050506140a06080840184613c91565b85830360808701526140b3838284613d03565b925050508091505092915050565b5f82825260208201905092915050565b5f80fd5b82818337505050565b5f6140e983856140c1565b93507f07ffffffffffffffffffffffffffffffffffffffffffffffffffffffffffffff83111561411c5761411b6140d1565b5b60208302925061412d8385846140d5565b82840190509392505050565b5f6040820190508181035f830152614151818661401b565b905081810360208301526141668184866140de565b9050949350505050565b7f4e487b71000000000000000000000000000000000000000000000000000000005f52601160045260245ffd5b5f6141a782613254565b91507fffffffffffffffffffffffffffffffffffffffffffffffffffffffffffffffff82036141d9576141d8614170565b5b600182019050919050565b5f6080820190506141f75f83018761325d565b614204602083018661325d565b614211604083018561325d565b61421e606083018461325d565b95945050505050565b5f60a0820190508181035f83015261423f8188613989565b905061424e602083018761325d565b61425b604083018661325d565b614268606083018561325d565b614275608083018461325d565b9695505050505050565b5f61428982613254565b915061429483613254565b92508282039050818111156142ac576142ab614170565b5b92915050565b7f496e697469616c697a61626c653a20636f6e747261637420697320616c7265615f8201527f647920696e697469616c697a6564000000000000000000000000000000000000602082015250565b5f61430c602e83613575565b9150614317826142b2565b604082019050919050565b5f6020820190508181035f83015261433981614300565b9050919050565b7f4f7261636c65733a20696e76616c6964207265776172647320616464726573735f82015250565b5f614374602083613575565b915061437f82614340565b602082019050919050565b5f6020820190508181035f8301526143a181614368565b9050919050565b7f4f7261636c65733a20696e76616c6964207374616b65644c7978546f6b656e205f8201527f6164647265737300000000000000000000000000000000000000000000000000602082015250565b5f614402602783613575565b915061440d826143a8565b604082019050919050565b5f6020820190508181035f83015261442f816143f6565b9050919050565b7f4f7261636c65733a20696e76616c696420706f6f6c20616464726573730000005f82015250565b5f61446a601d83613575565b915061447582614436565b602082019050919050565b5f6020820190508181035f8301526144978161445e565b9050919050565b7f4f7261636c65733a20696e76616c696420706f6f6c56616c696461746f7273205f8201527f6164647265737300000000000000000000000000000000000000000000000000602082015250565b5f6144f8602783613575565b91506145038261449e565b604082019050919050565b5f6020820190508181035f830152614525816144ec565b9050919050565b7f4f7261636c65733a20696e76616c6964206d65726b6c654469737472696275745f8201527f6f72206164647265737300000000000000000000000000000000000000000000602082015250565b5f614586602a83613575565b91506145918261452c565b604082019050919050565b5f6020820190508181035f8301526145b38161457a565b9050919050565b5f819050919050565b5f60ff82169050919050565b5f819050919050565b5f6145f26145ed6145e8846145ba565b6145cf565b6145c3565b9050919050565b614602816145d8565b82525050565b5f60208201905061461b5f8301846145f9565b92915050565b7f4f7261636c65733a20696e76616c6964206f7261636c652061646472657373005f82015250565b5f614655601f83613575565b915061466082614621565b602082019050919050565b5f6020820190508181035f83015261468281614649565b9050919050565b7f4f7261636c65733a206f7261636c6520616c72656164792065786973747300005f82015250565b5f6146bd601e83613575565b91506146c882614689565b602082019050919050565b5f6020820190508181035f8301526146ea816146b1565b9050919050565b7f4f7263686573747261746f72733a20696e76616c6964206f72636865737472615f8201527f746f722061646472657373000000000000000000000000000000000000000000602082015250565b5f61474b602b83613575565b9150614756826146f1565b604082019050919050565b5f6020820190508181035f8301526147788161473f565b9050919050565b7f4f7261636c65733a206f7263686573747261746f7220616c72656164792065785f8201527f6973747300000000000000000000000000000000000000000000000000000000602082015250565b5f6147d9602483613575565b91506147e48261477f565b604082019050919050565b5f6020820190508181035f830152614806816147cd565b9050919050565b7f4f7261636c65733a206f7261636c6520646f206e6f74206578697374730000005f82015250565b5f614841601d83613575565b915061484c8261480d565b602082019050919050565b5f6020820190508181035f83015261486e81614835565b9050919050565b5f61487f82613254565b91505f820361489157614890614170565b5b600182039050919050565b6148a581613014565b82525050565b5f6020820190506148be5f83018461489c565b92915050565b7f5061757361626c653a20706175736564000000000000000000000000000000005f82015250565b5f6148f8601083613575565b9150614903826148c4565b602082019050919050565b5f6020820190508181035f830152614925816148ec565b9050919050565b5f61493682613254565b915061494183613254565b925082820261494f81613254565b9150828204841483151761496657614965614170565b5b5092915050565b5f81905092915050565b7f19457468657265756d205369676e6564204d6573736167653a0a3332000000005f82015250565b5f6149ab601c8361496d565b91506149b682614977565b601c82019050919050565b5f819050919050565b6149db6149d682612fc4565b6149c1565b82525050565b5f6149eb8261499f565b91506149f782846149ca565b60208201915081905092915050565b7f4e487b71000000000000000000000000000000000000000000000000000000005f52604160045260245ffd5b5f8083356001602003843603038112614a4f57614a4e613f86565b5b80840192508235915067ffffffffffffffff821115614a7157614a70613f8a565b5b602083019250600182023603831315614a8d57614a8c613f8e565b5b509250929050565b7f4f7261636c65733a20696e76616c6964207369676e65720000000000000000005f82015250565b5f614ac9601783613575565b9150614ad482614a95565b602082019050919050565b5f6020820190508181035f830152614af681614abd565b9050919050565b7f4f7261636c65733a207265706561746564207369676e617475726500000000005f82015250565b5f614b31601b83613575565b9150614b3c82614afd565b602082019050919050565b5f6020820190508181035f830152614b5e81614b25565b9050919050565b7f496e697469616c697a61626c653a20636f6e7472616374206973206e6f7420695f8201527f6e697469616c697a696e67000000000000000000000000000000000000000000602082015250565b5f614bbf602b83613575565b9150614bca82614b65565b604082019050919050565b5f6020820190508181035f830152614bec81614bb3565b9050919050565b7f416363657373436f6e74726f6c3a206163636f756e74200000000000000000005f82015250565b5f614c2760178361496d565b9150614c3282614bf3565b601782019050919050565b5f81519050919050565b5f5b83811015614c64578082015181840152602081019050614c49565b5f8484015250505050565b5f614c7982614c3d565b614c83818561496d565b9350614c93818560208601614c47565b80840191505092915050565b7f206973206d697373696e6720726f6c65200000000000000000000000000000005f82015250565b5f614cd360118361496d565b9150614cde82614c9f565b601182019050919050565b5f614cf382614c1b565b9150614cff8285614c6f565b9150614d0a82614cc7565b9150614d168284614c6f565b91508190509392505050565b5f614d2c82614c3d565b614d368185613575565b9350614d46818560208601614c47565b614d4f816138b4565b840191505092915050565b5f6020820190508181035f830152614d728184614d22565b905092915050565b7f5061757361626c653a206e6f74207061757365640000000000000000000000005f82015250565b5f614dae601483613575565b9150614db982614d7a565b602082019050919050565b5f6020820190508181035f830152614ddb81614da2565b9050919050565b5f614dec82613254565b9150614df783613254565b9250828201905080821115614e0f57614e0e614170565b5b92915050565b7f537472696e67733a20686578206c656e67746820696e73756666696369656e745f82015250565b5f614e49602083613575565b9150614e5482614e15565b602082019050919050565b5f6020820190508181035f830152614e7681614e3d565b9050919050565b7f4e487b71000000000000000000000000000000000000000000000000000000005f52602160045260245ffd5b7f45434453413a20696e76616c6964207369676e617475726500000000000000005f82015250565b5f614ede601883613575565b9150614ee982614eaa565b602082019050919050565b5f6020820190508181035f830152614f0b81614ed2565b9050919050565b7f45434453413a20696e76616c6964207369676e6174757265206c656e677468005f82015250565b5f614f46601f83613575565b9150614f5182614f12565b602082019050919050565b5f6020820190508181035f830152614f7381614f3a565b9050919050565b7f45434453413a20696e76616c6964207369676e6174757265202773272076616c5f8201527f7565000000000000000000000000000000000000000000000000000000000000602082015250565b5f614fd4602283613575565b9150614fdf82614f7a565b604082019050919050565b5f6020820190508181035f83015261500181614fc8565b9050919050565b615011816145c3565b82525050565b5f60808201905061502a5f830187612fcd565b6150376020830186615008565b6150446040830185612fcd565b6150516060830184612fcd565b9594505050505056fea26469706673582212207808ee8dd881918941e5eac894965a8445aa4a69d98bc002593e2f952515922064736f6c63430008140033",
  "linkReferences": {},
  "deployedLinkReferences": {}
}