{
  "_format": "hh-sol-artifact-1",
  "contractName": "Oracles",
  "sourceName": "contracts/Oracles.sol",
  "abi": [
    {
      "anonymous": false,
      "inputs": [
        {
          "indexed": false,
          "internalType": "uint8",
          "name": "version",
          "type": "uint8"
        }
      ],
      "name": "Initialized",
      "type": "event"
    },
    {
      "anonymous": false,
      "inputs": [
        {
          "indexed": true,
          "internalType": "address",
          "name": "sender",
          "type": "address"
        },
        {
          "indexed": false,
          "internalType": "address[]",
          "name": "oracles",
          "type": "address[]"
        },
        {
          "indexed": false,
          "internalType": "uint256",
          "name": "nonce",
          "type": "uint256"
        },
        {
          "indexed": true,
          "internalType": "bytes32",
          "name": "merkleRoot",
          "type": "bytes32"
        },
        {
          "indexed": false,
          "internalType": "string",
          "name": "merkleProofs",
          "type": "string"
        }
      ],
      "name": "MerkleRootVoteSubmitted",
      "type": "event"
    },
    {
      "anonymous": false,
      "inputs": [
        {
          "indexed": true,
          "internalType": "address",
          "name": "oracle",
          "type": "address"
        }
      ],
      "name": "OracleAdded",
      "type": "event"
    },
    {
      "anonymous": false,
      "inputs": [
        {
          "indexed": true,
          "internalType": "address",
          "name": "oracle",
          "type": "address"
        }
      ],
      "name": "OracleRemoved",
      "type": "event"
    },
    {
      "anonymous": false,
      "inputs": [
        {
          "indexed": false,
          "internalType": "address",
          "name": "account",
          "type": "address"
        }
      ],
      "name": "Paused",
      "type": "event"
    },
    {
      "anonymous": false,
      "inputs": [
        {
          "indexed": true,
          "internalType": "address",
          "name": "sender",
          "type": "address"
        },
        {
          "indexed": false,
          "internalType": "address[]",
          "name": "oracles",
          "type": "address[]"
        },
        {
          "indexed": false,
          "internalType": "uint256",
          "name": "nonce",
          "type": "uint256"
        }
      ],
      "name": "RegisterValidatorsVoteSubmitted",
      "type": "event"
    },
    {
      "anonymous": false,
      "inputs": [
        {
          "indexed": true,
          "internalType": "address",
          "name": "sender",
          "type": "address"
        },
        {
          "indexed": false,
          "internalType": "address[]",
          "name": "oracles",
          "type": "address[]"
        },
        {
          "indexed": false,
          "internalType": "uint256",
          "name": "nonce",
          "type": "uint256"
        },
        {
          "indexed": false,
          "internalType": "uint256",
          "name": "totalRewards",
          "type": "uint256"
        },
        {
          "indexed": false,
          "internalType": "uint256",
          "name": "activatedValidators",
          "type": "uint256"
        },
        {
          "indexed": false,
          "internalType": "uint256",
          "name": "exitedValidators",
          "type": "uint256"
        }
      ],
      "name": "RewardsVoteSubmitted",
      "type": "event"
    },
    {
      "anonymous": false,
      "inputs": [
        {
          "indexed": true,
          "internalType": "bytes32",
          "name": "role",
          "type": "bytes32"
        },
        {
          "indexed": true,
          "internalType": "bytes32",
          "name": "previousAdminRole",
          "type": "bytes32"
        },
        {
          "indexed": true,
          "internalType": "bytes32",
          "name": "newAdminRole",
          "type": "bytes32"
        }
      ],
      "name": "RoleAdminChanged",
      "type": "event"
    },
    {
      "anonymous": false,
      "inputs": [
        {
          "indexed": true,
          "internalType": "bytes32",
          "name": "role",
          "type": "bytes32"
        },
        {
          "indexed": true,
          "internalType": "address",
          "name": "account",
          "type": "address"
        },
        {
          "indexed": true,
          "internalType": "address",
          "name": "sender",
          "type": "address"
        }
      ],
      "name": "RoleGranted",
      "type": "event"
    },
    {
      "anonymous": false,
      "inputs": [
        {
          "indexed": true,
          "internalType": "bytes32",
          "name": "role",
          "type": "bytes32"
        },
        {
          "indexed": true,
          "internalType": "address",
          "name": "account",
          "type": "address"
        },
        {
          "indexed": true,
          "internalType": "address",
          "name": "sender",
          "type": "address"
        }
      ],
      "name": "RoleRevoked",
      "type": "event"
    },
    {
      "anonymous": false,
      "inputs": [
        {
          "indexed": false,
          "internalType": "address",
          "name": "account",
          "type": "address"
        }
      ],
      "name": "Unpaused",
      "type": "event"
    },
    {
      "anonymous": false,
      "inputs": [
        {
          "indexed": true,
          "internalType": "address",
          "name": "sender",
          "type": "address"
        },
        {
          "indexed": false,
          "internalType": "address[]",
          "name": "oracles",
          "type": "address[]"
        },
        {
          "indexed": false,
          "internalType": "uint256",
          "name": "nonce",
          "type": "uint256"
        }
      ],
      "name": "UnstakeProcessingVoteSubmitted",
      "type": "event"
    },
    {
      "inputs": [],
      "name": "DEFAULT_ADMIN_ROLE",
      "outputs": [
        {
          "internalType": "bytes32",
          "name": "",
          "type": "bytes32"
        }
      ],
      "stateMutability": "view",
      "type": "function"
    },
    {
      "inputs": [],
      "name": "ORACLE_ROLE",
      "outputs": [
        {
          "internalType": "bytes32",
          "name": "",
          "type": "bytes32"
        }
      ],
      "stateMutability": "view",
      "type": "function"
    },
    {
      "inputs": [],
      "name": "PAUSER_ROLE",
      "outputs": [
        {
          "internalType": "bytes32",
          "name": "",
          "type": "bytes32"
        }
      ],
      "stateMutability": "view",
      "type": "function"
    },
    {
      "inputs": [],
      "name": "VALIDATOR_TOTAL_DEPOSIT",
      "outputs": [
        {
          "internalType": "uint256",
          "name": "",
          "type": "uint256"
        }
      ],
      "stateMutability": "view",
      "type": "function"
    },
    {
      "inputs": [
        {
          "internalType": "address",
          "name": "_account",
          "type": "address"
        }
      ],
      "name": "addAdmin",
      "outputs": [],
      "stateMutability": "nonpayable",
      "type": "function"
    },
    {
      "inputs": [
        {
          "internalType": "address",
          "name": "account",
          "type": "address"
        }
      ],
      "name": "addOracle",
      "outputs": [],
      "stateMutability": "nonpayable",
      "type": "function"
    },
    {
      "inputs": [
        {
          "internalType": "address",
          "name": "_account",
          "type": "address"
        }
      ],
      "name": "addPauser",
      "outputs": [],
      "stateMutability": "nonpayable",
      "type": "function"
    },
    {
      "inputs": [],
      "name": "currentRewardsNonce",
      "outputs": [
        {
          "internalType": "uint256",
          "name": "",
          "type": "uint256"
        }
      ],
      "stateMutability": "view",
      "type": "function"
    },
    {
      "inputs": [],
      "name": "currentUnstakeNonce",
      "outputs": [
        {
          "internalType": "uint256",
          "name": "",
          "type": "uint256"
        }
      ],
      "stateMutability": "view",
      "type": "function"
    },
    {
      "inputs": [],
      "name": "currentValidatorsNonce",
      "outputs": [
        {
          "internalType": "uint256",
          "name": "",
          "type": "uint256"
        }
      ],
      "stateMutability": "view",
      "type": "function"
    },
    {
      "inputs": [
        {
          "internalType": "bytes32",
          "name": "role",
          "type": "bytes32"
        }
      ],
      "name": "getRoleAdmin",
      "outputs": [
        {
          "internalType": "bytes32",
          "name": "",
          "type": "bytes32"
        }
      ],
      "stateMutability": "view",
      "type": "function"
    },
    {
      "inputs": [
        {
          "internalType": "bytes32",
          "name": "role",
          "type": "bytes32"
        },
        {
          "internalType": "address",
          "name": "account",
          "type": "address"
        }
      ],
      "name": "grantRole",
      "outputs": [],
      "stateMutability": "nonpayable",
      "type": "function"
    },
    {
      "inputs": [
        {
          "internalType": "bytes32",
          "name": "role",
          "type": "bytes32"
        },
        {
          "internalType": "address",
          "name": "account",
          "type": "address"
        }
      ],
      "name": "hasRole",
      "outputs": [
        {
          "internalType": "bool",
          "name": "",
          "type": "bool"
        }
      ],
      "stateMutability": "view",
      "type": "function"
    },
    {
      "inputs": [
        {
          "internalType": "address",
          "name": "_admin",
          "type": "address"
        },
        {
          "internalType": "address",
          "name": "_rewardLyxToken",
          "type": "address"
        },
        {
          "internalType": "address",
          "name": "_stakedLyxToken",
          "type": "address"
        },
        {
          "internalType": "address",
          "name": "_pool",
          "type": "address"
        },
        {
          "internalType": "address",
          "name": "_poolValidators",
          "type": "address"
        },
        {
          "internalType": "address",
          "name": "_merkleDistributor",
          "type": "address"
        }
      ],
      "name": "initialize",
      "outputs": [],
      "stateMutability": "nonpayable",
      "type": "function"
    },
    {
      "inputs": [
        {
          "internalType": "address",
          "name": "_account",
          "type": "address"
        }
      ],
      "name": "isAdmin",
      "outputs": [
        {
          "internalType": "bool",
          "name": "",
          "type": "bool"
        }
      ],
      "stateMutability": "view",
      "type": "function"
    },
    {
      "inputs": [],
      "name": "isMerkleRootVoting",
      "outputs": [
        {
          "internalType": "bool",
          "name": "",
          "type": "bool"
        }
      ],
      "stateMutability": "view",
      "type": "function"
    },
    {
      "inputs": [
        {
          "internalType": "address",
          "name": "account",
          "type": "address"
        }
      ],
      "name": "isOracle",
      "outputs": [
        {
          "internalType": "bool",
          "name": "",
          "type": "bool"
        }
      ],
      "stateMutability": "view",
      "type": "function"
    },
    {
      "inputs": [
        {
          "internalType": "address",
          "name": "_account",
          "type": "address"
        }
      ],
      "name": "isPauser",
      "outputs": [
        {
          "internalType": "bool",
          "name": "",
          "type": "bool"
        }
      ],
      "stateMutability": "view",
      "type": "function"
    },
    {
      "inputs": [],
      "name": "oracleCount",
      "outputs": [
        {
          "internalType": "uint256",
          "name": "",
          "type": "uint256"
        }
      ],
      "stateMutability": "view",
      "type": "function"
    },
    {
      "inputs": [],
      "name": "pause",
      "outputs": [],
      "stateMutability": "nonpayable",
      "type": "function"
    },
    {
      "inputs": [],
      "name": "paused",
      "outputs": [
        {
          "internalType": "bool",
          "name": "",
          "type": "bool"
        }
      ],
      "stateMutability": "view",
      "type": "function"
    },
    {
      "inputs": [
        {
          "components": [
            {
              "internalType": "address",
              "name": "operator",
              "type": "address"
            },
            {
              "internalType": "bytes32",
              "name": "withdrawalCredentials",
              "type": "bytes32"
            },
            {
              "internalType": "bytes32",
              "name": "depositDataRoot",
              "type": "bytes32"
            },
            {
              "internalType": "bytes",
              "name": "publicKey",
              "type": "bytes"
            },
            {
              "internalType": "bytes",
              "name": "signature",
              "type": "bytes"
            }
          ],
          "internalType": "struct IPoolValidators.DepositData[]",
          "name": "depositData",
          "type": "tuple[]"
        },
        {
          "internalType": "bytes32[][]",
          "name": "merkleProofs",
          "type": "bytes32[][]"
        },
        {
          "internalType": "bytes32",
          "name": "validatorsDepositRoot",
          "type": "bytes32"
        },
        {
          "internalType": "bytes[]",
          "name": "signatures",
          "type": "bytes[]"
        }
      ],
      "name": "registerValidators",
      "outputs": [],
      "stateMutability": "nonpayable",
      "type": "function"
    },
    {
      "inputs": [
        {
          "internalType": "address",
          "name": "_account",
          "type": "address"
        }
      ],
      "name": "removeAdmin",
      "outputs": [],
      "stateMutability": "nonpayable",
      "type": "function"
    },
    {
      "inputs": [
        {
          "internalType": "address",
          "name": "account",
          "type": "address"
        }
      ],
      "name": "removeOracle",
      "outputs": [],
      "stateMutability": "nonpayable",
      "type": "function"
    },
    {
      "inputs": [
        {
          "internalType": "address",
          "name": "_account",
          "type": "address"
        }
      ],
      "name": "removePauser",
      "outputs": [],
      "stateMutability": "nonpayable",
      "type": "function"
    },
    {
      "inputs": [
        {
          "internalType": "bytes32",
          "name": "role",
          "type": "bytes32"
        },
        {
          "internalType": "address",
          "name": "account",
          "type": "address"
        }
      ],
      "name": "renounceRole",
      "outputs": [],
      "stateMutability": "nonpayable",
      "type": "function"
    },
    {
      "inputs": [
        {
          "internalType": "bytes32",
          "name": "role",
          "type": "bytes32"
        },
        {
          "internalType": "address",
          "name": "account",
          "type": "address"
        }
      ],
      "name": "revokeRole",
      "outputs": [],
      "stateMutability": "nonpayable",
      "type": "function"
    },
    {
      "inputs": [
        {
          "internalType": "bytes[]",
          "name": "signatures",
          "type": "bytes[]"
        }
      ],
      "name": "setUnstakeProcessing",
      "outputs": [],
      "stateMutability": "nonpayable",
      "type": "function"
    },
    {
      "inputs": [
        {
          "internalType": "bytes32",
          "name": "merkleRoot",
          "type": "bytes32"
        },
        {
          "internalType": "string",
          "name": "merkleProofs",
          "type": "string"
        },
        {
          "internalType": "bytes[]",
          "name": "signatures",
          "type": "bytes[]"
        }
      ],
      "name": "submitMerkleRoot",
      "outputs": [],
      "stateMutability": "nonpayable",
      "type": "function"
    },
    {
      "inputs": [
        {
          "internalType": "uint256",
          "name": "totalRewards",
          "type": "uint256"
        },
        {
          "internalType": "uint256",
          "name": "activatedValidators",
          "type": "uint256"
        },
        {
          "internalType": "uint256",
          "name": "exitedValidators",
          "type": "uint256"
        },
        {
          "internalType": "bytes[]",
          "name": "signatures",
          "type": "bytes[]"
        }
      ],
      "name": "submitRewards",
      "outputs": [],
      "stateMutability": "nonpayable",
      "type": "function"
    },
    {
      "inputs": [
        {
          "internalType": "bytes4",
          "name": "interfaceId",
          "type": "bytes4"
        }
      ],
      "name": "supportsInterface",
      "outputs": [
        {
          "internalType": "bool",
          "name": "",
          "type": "bool"
        }
      ],
      "stateMutability": "view",
      "type": "function"
    },
    {
      "inputs": [],
      "name": "unpause",
      "outputs": [],
      "stateMutability": "nonpayable",
      "type": "function"
    }
  ],
  "bytecode": "0x608060405234801561000f575f80fd5b50614a408061001d5f395ff3fe608060405234801561000f575f80fd5b50600436106101ee575f3560e01c806382dc1ec41161010d578063cc2a9a5b116100a0578063e3baa7aa1161006f578063e3baa7aa14610566578063e63ab1e914610582578063f87f339c146105a0578063fdc85fc4146105be576101ee565b8063cc2a9a5b146104f4578063d2eb2dbc14610510578063d547741f1461052e578063df5dd1a51461054a576101ee565b8063a97e5c93116100dc578063a97e5c931461046e578063b25239551461049e578063b30e899a146104bc578063bb9ba305146104d8576101ee565b806382dc1ec4146103fa5780638456cb591461041657806391d1485414610420578063a217fddf14610450576101ee565b80633f921d9211610185578063613d8fcc11610154578063613d8fcc146103865780636b2c0f55146103a457806370480275146103c057806377aec521146103dc576101ee565b80633f921d92146102fe57806346fbf68e1461031c5780635035d0041461034c5780635c975abb14610368576101ee565b806324d7806c116101c157806324d7806c1461028c5780632f2ff15d146102bc57806336568abe146102d85780633f4ba83a146102f4576101ee565b806301ffc9a7146101f257806307e2cea5146102225780631785f53c14610240578063248a9ca31461025c575b5f80fd5b61020c60048036038101906102079190612b6a565b6105da565b6040516102199190612baf565b60405180910390f35b61022a610653565b6040516102379190612be0565b60405180910390f35b61025a60048036038101906102559190612c53565b610677565b005b61027660048036038101906102719190612ca8565b610686565b6040516102839190612be0565b60405180910390f35b6102a660048036038101906102a19190612c53565b6106a3565b6040516102b39190612baf565b60405180910390f35b6102d660048036038101906102d19190612cd3565b6106b7565b005b6102f260048036038101906102ed9190612cd3565b6106d8565b005b6102fc61075b565b005b6103066107ce565b6040516103139190612baf565b60405180910390f35b61033660048036038101906103319190612c53565b610902565b6040516103439190612baf565b60405180910390f35b61036660048036038101906103619190612dc7565b610934565b005b610370610b7e565b60405161037d9190612baf565b60405180910390f35b61038e610b93565b60405161039b9190612e70565b60405180910390f35b6103be60048036038101906103b99190612c53565b610b99565b005b6103da60048036038101906103d59190612c53565b610bc6565b005b6103e4610bd5565b6040516103f19190612e70565b60405180910390f35b610414600480360381019061040f9190612c53565b610be2565b005b61041e610c0f565b005b61043a60048036038101906104359190612cd3565b610c82565b6040516104479190612baf565b60405180910390f35b610458610ce6565b6040516104659190612be0565b60405180910390f35b61048860048036038101906104839190612c53565b610cec565b6040516104959190612baf565b60405180910390f35b6104a6610d1e565b6040516104b39190612e70565b60405180910390f35b6104d660048036038101906104d19190612f33565b610d2e565b005b6104f260048036038101906104ed9190613021565b61111b565b005b61050e600480360381019061050991906130a5565b6115eb565b005b610518611a97565b6040516105259190612e70565b60405180910390f35b61054860048036038101906105439190612cd3565b611aa7565b005b610564600480360381019061055f9190612c53565b611ac8565b005b610580600480360381019061057b919061312e565b611bbc565b005b61058a611da2565b6040516105979190612be0565b60405180910390f35b6105a8611dc6565b6040516105b59190612e70565b60405180910390f35b6105d860048036038101906105d39190612c53565b611dd6565b005b5f7f7965db0b000000000000000000000000000000000000000000000000000000007bffffffffffffffffffffffffffffffffffffffffffffffffffffffff1916827bffffffffffffffffffffffffffffffffffffffffffffffffffffffff1916148061064c575061064b82611e5d565b5b9050919050565b7f68e79a7bf1e0bc45d0a330c573bc367f9cf464fd326078812f301165fbda4ef181565b6106835f801b82611aa7565b50565b5f60975f8381526020019081526020015f20600101549050919050565b5f6106b05f801b83610c82565b9050919050565b6106c082610686565b6106c981611ec6565b6106d38383611eda565b505050565b6106e0611fb5565b73ffffffffffffffffffffffffffffffffffffffff168173ffffffffffffffffffffffffffffffffffffffff161461074d576040517f08c379a0000000000000000000000000000000000000000000000000000000008152600401610744906131f9565b60405180910390fd5b6107578282611fbc565b5050565b6107857f65d7a28e3265b37a6474929f336521b332c1681b933f6cb9f3376673440d862a33610c82565b6107c4576040517f08c379a00000000000000000000000000000000000000000000000000000000081526004016107bb90613261565b60405180910390fd5b6107cc612097565b565b5f8060cd5f9054906101000a900473ffffffffffffffffffffffffffffffffffffffff1673ffffffffffffffffffffffffffffffffffffffff1663b4c6e4166040518163ffffffff1660e01b8152600401602060405180830381865afa15801561083a573d5f803e3d5ffd5b505050506040513d601f19601f8201168201806040525081019061085e9190613293565b90508060d15f9054906101000a900473ffffffffffffffffffffffffffffffffffffffff1673ffffffffffffffffffffffffffffffffffffffff1663b4c6e4166040518163ffffffff1660e01b8152600401602060405180830381865afa1580156108cb573d5f803e3d5ffd5b505050506040513d601f19601f820116820180604052508101906108ef9190613293565b1080156108fc5750438114155b91505090565b5f61092d7f65d7a28e3265b37a6474929f336521b332c1681b933f6cb9f3376673440d862a83610c82565b9050919050565b61095e7f68e79a7bf1e0bc45d0a330c573bc367f9cf464fd326078812f301165fbda4ef133610c82565b61099d576040517f08c379a000000000000000000000000000000000000000000000000000000000815260040161099490613308565b60405180910390fd5b6109a56120f8565b6109ad6107ce565b6109ec576040517f08c379a00000000000000000000000000000000000000000000000000000000081526004016109e390613370565b60405180910390fd5b6109f882829050612142565b610a37576040517f08c379a0000000000000000000000000000000000000000000000000000000008152600401610a2e906133fe565b60405180910390fd5b5f610a4260ca612175565b90505f610a7a8287878a604051602001610a5f9493929190613466565b60405160208183030381529060405280519060200120612181565b90505f610a888286866121b0565b9050610a9460ca612403565b873373ffffffffffffffffffffffffffffffffffffffff167f580a750e03df761028336142a315c25d6ffc7fe1fb4311347303eef82f3342b483868b8b604051610ae1949392919061355b565b60405180910390a360d15f9054906101000a900473ffffffffffffffffffffffffffffffffffffffff1673ffffffffffffffffffffffffffffffffffffffff166380b383ca8989896040518463ffffffff1660e01b8152600401610b47939291906135a0565b5f604051808303815f87803b158015610b5e575f80fd5b505af1158015610b70573d5f803e3d5ffd5b505050505050505050505050565b5f60335f9054906101000a900460ff16905090565b60c95481565b610bc37f65d7a28e3265b37a6474929f336521b332c1681b933f6cb9f3376673440d862a82611aa7565b50565b610bd25f801b826106b7565b50565b6801bc16d674ec80000081565b610c0c7f65d7a28e3265b37a6474929f336521b332c1681b933f6cb9f3376673440d862a826106b7565b50565b610c397f65d7a28e3265b37a6474929f336521b332c1681b933f6cb9f3376673440d862a33610c82565b610c78576040517f08c379a0000000000000000000000000000000000000000000000000000000008152600401610c6f90613261565b60405180910390fd5b610c80612417565b565b5f60975f8481526020019081526020015f205f015f8373ffffffffffffffffffffffffffffffffffffffff1673ffffffffffffffffffffffffffffffffffffffff1681526020019081526020015f205f9054906101000a900460ff16905092915050565b5f801b81565b5f610d177f68e79a7bf1e0bc45d0a330c573bc367f9cf464fd326078812f301165fbda4ef183610c82565b9050919050565b5f610d2960ca612175565b905090565b610d587f68e79a7bf1e0bc45d0a330c573bc367f9cf464fd326078812f301165fbda4ef133610c82565b610d97576040517f08c379a0000000000000000000000000000000000000000000000000000000008152600401610d8e90613308565b60405180910390fd5b610d9f6120f8565b8260cf5f9054906101000a900473ffffffffffffffffffffffffffffffffffffffff1673ffffffffffffffffffffffffffffffffffffffff1663f44e383f6040518163ffffffff1660e01b8152600401602060405180830381865afa158015610e0a573d5f803e3d5ffd5b505050506040513d601f19601f82011682018060405250810190610e2e919061360b565b73ffffffffffffffffffffffffffffffffffffffff1663c5f2892f6040518163ffffffff1660e01b8152600401602060405180830381865afa158015610e76573d5f803e3d5ffd5b505050506040513d601f19601f82011682018060405250810190610e9a919061364a565b14610eda576040517f08c379a0000000000000000000000000000000000000000000000000000000008152600401610ed1906136e5565b60405180910390fd5b610ee682829050612142565b610f25576040517f08c379a0000000000000000000000000000000000000000000000000000000008152600401610f1c906133fe565b60405180910390fd5b5f610f3060cb612175565b90505f610f68828a8a88604051602001610f4d949392919061395f565b60405160208183030381529060405280519060200120612181565b90505f610f768286866121b0565b90505f8a8a90509050808989905014610fc4576040517f08c379a0000000000000000000000000000000000000000000000000000000008152600401610fbb90613a0d565b60405180910390fd5b5f5b818110156110b35760d05f9054906101000a900473ffffffffffffffffffffffffffffffffffffffff1673ffffffffffffffffffffffffffffffffffffffff1663b85222c98d8d8481811061101e5761101d613a2b565b5b90506020028101906110309190613a64565b8c8c8581811061104357611042613a2b565b5b90506020028101906110559190613a8b565b6040518463ffffffff1660e01b815260040161107393929190613c0b565b5f604051808303815f87803b15801561108a575f80fd5b505af115801561109c573d5f803e3d5ffd5b5050505080806110ab90613c6f565b915050610fc6565b506110be60cb612403565b3373ffffffffffffffffffffffffffffffffffffffff167fd28cb455d935f3cd1870e18d7d27133d5eb8e9339e08a3756817fc186bfecd788386604051611106929190613cb6565b60405180910390a25050505050505050505050565b6111457f68e79a7bf1e0bc45d0a330c573bc367f9cf464fd326078812f301165fbda4ef133610c82565b611184576040517f08c379a000000000000000000000000000000000000000000000000000000000815260040161117b90613308565b60405180910390fd5b61118c6120f8565b61119882829050612142565b6111d7576040517f08c379a00000000000000000000000000000000000000000000000000000000081526004016111ce906133fe565b60405180910390fd5b5f6111e260ca612175565b90505f61121a8287878a6040516020016111ff9493929190613ce4565b60405160208183030381529060405280519060200120612181565b90505f6112288286866121b0565b905061123460ca612403565b3373ffffffffffffffffffffffffffffffffffffffff167f4ec3fde48355a52667d7f4c3e97343019d73174759074a40b950e4c82260eefa82858b8b8b604051611282959493929190613d27565b60405180910390a260cd5f9054906101000a900473ffffffffffffffffffffffffffffffffffffffff1673ffffffffffffffffffffffffffffffffffffffff16635bbb860d896040518263ffffffff1660e01b81526004016112e49190612e70565b5f604051808303815f87803b1580156112fb575f80fd5b505af115801561130d573d5f803e3d5ffd5b5050505060cf5f9054906101000a900473ffffffffffffffffffffffffffffffffffffffff1673ffffffffffffffffffffffffffffffffffffffff1663899b7c746040518163ffffffff1660e01b8152600401602060405180830381865afa15801561137b573d5f803e3d5ffd5b505050506040513d601f19601f8201168201806040525081019061139f9190613293565b871461142d5760cf5f9054906101000a900473ffffffffffffffffffffffffffffffffffffffff1673ffffffffffffffffffffffffffffffffffffffff166359c53656886040518263ffffffff1660e01b81526004016113ff9190612e70565b5f604051808303815f87803b158015611416575f80fd5b505af1158015611428573d5f803e3d5ffd5b505050505b5f60cf5f9054906101000a900473ffffffffffffffffffffffffffffffffffffffff1673ffffffffffffffffffffffffffffffffffffffff16633882b1c96040518163ffffffff1660e01b8152600401602060405180830381865afa158015611498573d5f803e3d5ffd5b505050506040513d601f19601f820116820180604052508101906114bc9190613293565b876114c79190613d7f565b90505f8111156115e05760cf5f9054906101000a900473ffffffffffffffffffffffffffffffffffffffff1673ffffffffffffffffffffffffffffffffffffffff166358e5d88b886040518263ffffffff1660e01b815260040161152b9190612e70565b5f604051808303815f87803b158015611542575f80fd5b505af1158015611554573d5f803e3d5ffd5b5050505060ce5f9054906101000a900473ffffffffffffffffffffffffffffffffffffffff1673ffffffffffffffffffffffffffffffffffffffff1663c76e3174826040518263ffffffff1660e01b81526004016115b29190612e70565b5f604051808303815f87803b1580156115c9575f80fd5b505af11580156115db573d5f803e3d5ffd5b505050505b505050505050505050565b5f8060019054906101000a900460ff1615905080801561161a575060015f8054906101000a900460ff1660ff16105b80611646575061162930612479565b158015611645575060015f8054906101000a900460ff1660ff16145b5b611685576040517f08c379a000000000000000000000000000000000000000000000000000000000815260040161167c90613e22565b60405180910390fd5b60015f806101000a81548160ff021916908360ff16021790555080156116c05760015f60016101000a81548160ff0219169083151502179055505b5f73ffffffffffffffffffffffffffffffffffffffff168673ffffffffffffffffffffffffffffffffffffffff160361172e576040517f08c379a000000000000000000000000000000000000000000000000000000000815260040161172590613eb0565b60405180910390fd5b5f73ffffffffffffffffffffffffffffffffffffffff168573ffffffffffffffffffffffffffffffffffffffff160361179c576040517f08c379a000000000000000000000000000000000000000000000000000000000815260040161179390613f3e565b60405180910390fd5b5f73ffffffffffffffffffffffffffffffffffffffff168473ffffffffffffffffffffffffffffffffffffffff160361180a576040517f08c379a000000000000000000000000000000000000000000000000000000000815260040161180190613fa6565b60405180910390fd5b5f73ffffffffffffffffffffffffffffffffffffffff168373ffffffffffffffffffffffffffffffffffffffff1603611878576040517f08c379a000000000000000000000000000000000000000000000000000000000815260040161186f90614034565b60405180910390fd5b5f73ffffffffffffffffffffffffffffffffffffffff168273ffffffffffffffffffffffffffffffffffffffff16036118e6576040517f08c379a00000000000000000000000000000000000000000000000000000000081526004016118dd906140c2565b60405180910390fd5b5f60c9819055506118f68761249b565b8560cd5f6101000a81548173ffffffffffffffffffffffffffffffffffffffff021916908373ffffffffffffffffffffffffffffffffffffffff1602179055508460ce5f6101000a81548173ffffffffffffffffffffffffffffffffffffffff021916908373ffffffffffffffffffffffffffffffffffffffff1602179055508360cf5f6101000a81548173ffffffffffffffffffffffffffffffffffffffff021916908373ffffffffffffffffffffffffffffffffffffffff1602179055508260d05f6101000a81548173ffffffffffffffffffffffffffffffffffffffff021916908373ffffffffffffffffffffffffffffffffffffffff1602179055508160d15f6101000a81548173ffffffffffffffffffffffffffffffffffffffff021916908373ffffffffffffffffffffffffffffffffffffffff1602179055508015611a8e575f8060016101000a81548160ff0219169083151502179055507f7f26b83ff96e1f2b6a682f133852f6798a09c465da95921460cefb38474024986001604051611a85919061412e565b60405180910390a15b50505050505050565b5f611aa260cb612175565b905090565b611ab082610686565b611ab981611ec6565b611ac38383611fbc565b505050565b5f73ffffffffffffffffffffffffffffffffffffffff168173ffffffffffffffffffffffffffffffffffffffff1603611b36576040517f08c379a0000000000000000000000000000000000000000000000000000000008152600401611b2d90614191565b60405180910390fd5b611b607f68e79a7bf1e0bc45d0a330c573bc367f9cf464fd326078812f301165fbda4ef1826106b7565b60c95f815480929190611b7290613c6f565b91905055508073ffffffffffffffffffffffffffffffffffffffff167e47706786c922d17b39285dc59d696bafea72c0b003d3841ae1202076f4c2e460405160405180910390a250565b611be67f68e79a7bf1e0bc45d0a330c573bc367f9cf464fd326078812f301165fbda4ef133610c82565b611c25576040517f08c379a0000000000000000000000000000000000000000000000000000000008152600401611c1c90613308565b60405180910390fd5b611c2d6120f8565b611c3982829050612142565b611c78576040517f08c379a0000000000000000000000000000000000000000000000000000000008152600401611c6f906133fe565b60405180910390fd5b5f611c8360cc612175565b90505f611cb582604051602001611c9a91906141f9565b60405160208183030381529060405280519060200120612181565b90505f611cc38286866121b0565b905060ce5f9054906101000a900473ffffffffffffffffffffffffffffffffffffffff1673ffffffffffffffffffffffffffffffffffffffff166384f6ab306040518163ffffffff1660e01b81526004015f604051808303815f87803b158015611d2b575f80fd5b505af1158015611d3d573d5f803e3d5ffd5b50505050611d4b60cc612403565b3373ffffffffffffffffffffffffffffffffffffffff167f0886503d8751ad71afdc005ff654a694243aaeaafa2542701152da9de1c4a4ae8285604051611d93929190613cb6565b60405180910390a25050505050565b7f65d7a28e3265b37a6474929f336521b332c1681b933f6cb9f3376673440d862a81565b5f611dd160cc612175565b905090565b611e007f68e79a7bf1e0bc45d0a330c573bc367f9cf464fd326078812f301165fbda4ef182611aa7565b60c95f815480929190611e1290614225565b91905055508073ffffffffffffffffffffffffffffffffffffffff167f9c8e7d83025bef8a04c664b2f753f64b8814bdb7e27291d7e50935f18cc3c71260405160405180910390a250565b5f7f01ffc9a7000000000000000000000000000000000000000000000000000000007bffffffffffffffffffffffffffffffffffffffffffffffffffffffff1916827bffffffffffffffffffffffffffffffffffffffffffffffffffffffff1916149050919050565b611ed781611ed2611fb5565b612522565b50565b611ee48282610c82565b611fb157600160975f8481526020019081526020015f205f015f8373ffffffffffffffffffffffffffffffffffffffff1673ffffffffffffffffffffffffffffffffffffffff1681526020019081526020015f205f6101000a81548160ff021916908315150217905550611f56611fb5565b73ffffffffffffffffffffffffffffffffffffffff168173ffffffffffffffffffffffffffffffffffffffff16837f2f8788117e7eff1d82e926ec794901d17c78024a50270940304540a733656f0d60405160405180910390a45b5050565b5f33905090565b611fc68282610c82565b15612093575f60975f8481526020019081526020015f205f015f8373ffffffffffffffffffffffffffffffffffffffff1673ffffffffffffffffffffffffffffffffffffffff1681526020019081526020015f205f6101000a81548160ff021916908315150217905550612038611fb5565b73ffffffffffffffffffffffffffffffffffffffff168173ffffffffffffffffffffffffffffffffffffffff16837ff6391f5c32d9c69d2a47ea670b442974b53935d1edc7fd64eb21e047a839171b60405160405180910390a45b5050565b61209f6125a6565b5f60335f6101000a81548160ff0219169083151502179055507f5db9ee0a495bf2e6ff9c91a7834c1ba4fdd244a5e8aa4e537bd38aeae4b073aa6120e1611fb5565b6040516120ee919061425b565b60405180910390a1565b612100610b7e565b15612140576040517f08c379a0000000000000000000000000000000000000000000000000000000008152600401612137906142be565b60405180910390fd5b565b5f8160c9541015801561216e5750600260c95461215f91906142dc565b60038361216c91906142dc565b115b9050919050565b5f815f01549050919050565b5f816040516020016121939190614391565b604051602081830303815290604052805190602001209050919050565b60605f8383905067ffffffffffffffff8111156121d0576121cf6143b6565b5b6040519080825280602002602001820160405280156121fe5781602001602082028036833780820191505090505b5090505f5b848490508110156123f7575f85858381811061222257612221613a2b565b5b905060200281019061223491906143e3565b8080601f0160208091040260200160405190810160405280939291908181526020018383808284375f81840152601f19601f8201169050808301925050505050505090505f61228388836125ef565b90506122af7f68e79a7bf1e0bc45d0a330c573bc367f9cf464fd326078812f301165fbda4ef182610c82565b6122ee576040517f08c379a00000000000000000000000000000000000000000000000000000000081526004016122e59061448f565b60405180910390fd5b5f5b83811015612393578173ffffffffffffffffffffffffffffffffffffffff1685828151811061232257612321613a2b565b5b602002602001015173ffffffffffffffffffffffffffffffffffffffff1603612380576040517f08c379a0000000000000000000000000000000000000000000000000000000008152600401612377906144f7565b60405180910390fd5b808061238b90613c6f565b9150506122f0565b50808484815181106123a8576123a7613a2b565b5b602002602001019073ffffffffffffffffffffffffffffffffffffffff16908173ffffffffffffffffffffffffffffffffffffffff1681525050505080806123ef90613c6f565b915050612203565b50809150509392505050565b6001815f015f828254019250508190555050565b61241f6120f8565b600160335f6101000a81548160ff0219169083151502179055507f62e78cea01bee320cd4e420270b5ea74000d11b0c9f74754ebdbfc544b05a258612462611fb5565b60405161246f919061425b565b60405180910390a1565b5f808273ffffffffffffffffffffffffffffffffffffffff163b119050919050565b5f60019054906101000a900460ff166124e9576040517f08c379a00000000000000000000000000000000000000000000000000000000081526004016124e090614585565b60405180910390fd5b6124f55f801b82612614565b61251f7f65d7a28e3265b37a6474929f336521b332c1681b933f6cb9f3376673440d862a82612614565b50565b61252c8282610c82565b6125a25761253981612622565b612546835f1c602061264f565b604051602001612557929190614699565b6040516020818303038152906040526040517f08c379a0000000000000000000000000000000000000000000000000000000008152600401612599919061470a565b60405180910390fd5b5050565b6125ae610b7e565b6125ed576040517f08c379a00000000000000000000000000000000000000000000000000000000081526004016125e490614774565b60405180910390fd5b565b5f805f6125fc8585612884565b91509150612609816128d0565b819250505092915050565b61261e8282611eda565b5050565b60606126488273ffffffffffffffffffffffffffffffffffffffff16601460ff1661264f565b9050919050565b60605f600283600261266191906142dc565b61266b9190614792565b67ffffffffffffffff811115612684576126836143b6565b5b6040519080825280601f01601f1916602001820160405280156126b65781602001600182028036833780820191505090505b5090507f3000000000000000000000000000000000000000000000000000000000000000815f815181106126ed576126ec613a2b565b5b60200101907effffffffffffffffffffffffffffffffffffffffffffffffffffffffffffff191690815f1a9053507f7800000000000000000000000000000000000000000000000000000000000000816001815181106127505761274f613a2b565b5b60200101907effffffffffffffffffffffffffffffffffffffffffffffffffffffffffffff191690815f1a9053505f600184600261278e91906142dc565b6127989190614792565b90505b6001811115612837577f3031323334353637383961626364656600000000000000000000000000000000600f8616601081106127da576127d9613a2b565b5b1a60f81b8282815181106127f1576127f0613a2b565b5b60200101907effffffffffffffffffffffffffffffffffffffffffffffffffffffffffffff191690815f1a905350600485901c94508061283090614225565b905061279b565b505f841461287a576040517f08c379a00000000000000000000000000000000000000000000000000000000081526004016128719061480f565b60405180910390fd5b8091505092915050565b5f8060418351036128c1575f805f602086015192506040860151915060608601515f1a90506128b587828585612a35565b945094505050506128c9565b5f6002915091505b9250929050565b5f60048111156128e3576128e261482d565b5b8160048111156128f6576128f561482d565b5b0315612a3257600160048111156129105761290f61482d565b5b8160048111156129235761292261482d565b5b03612963576040517f08c379a000000000000000000000000000000000000000000000000000000000815260040161295a906148a4565b60405180910390fd5b600260048111156129775761297661482d565b5b81600481111561298a5761298961482d565b5b036129ca576040517f08c379a00000000000000000000000000000000000000000000000000000000081526004016129c19061490c565b60405180910390fd5b600360048111156129de576129dd61482d565b5b8160048111156129f1576129f061482d565b5b03612a31576040517f08c379a0000000000000000000000000000000000000000000000000000000008152600401612a289061499a565b60405180910390fd5b5b50565b5f807f7fffffffffffffffffffffffffffffff5d576e7357a4501ddfe92f46681b20a0835f1c1115612a6d575f600391509150612b04565b5f6001878787876040515f8152602001604052604051612a9094939291906149c7565b6020604051602081039080840390855afa158015612ab0573d5f803e3d5ffd5b5050506020604051035190505f73ffffffffffffffffffffffffffffffffffffffff168173ffffffffffffffffffffffffffffffffffffffff1603612afc575f60019250925050612b04565b805f92509250505b94509492505050565b5f80fd5b5f80fd5b5f7fffffffff0000000000000000000000000000000000000000000000000000000082169050919050565b612b4981612b15565b8114612b53575f80fd5b50565b5f81359050612b6481612b40565b92915050565b5f60208284031215612b7f57612b7e612b0d565b5b5f612b8c84828501612b56565b91505092915050565b5f8115159050919050565b612ba981612b95565b82525050565b5f602082019050612bc25f830184612ba0565b92915050565b5f819050919050565b612bda81612bc8565b82525050565b5f602082019050612bf35f830184612bd1565b92915050565b5f73ffffffffffffffffffffffffffffffffffffffff82169050919050565b5f612c2282612bf9565b9050919050565b612c3281612c18565b8114612c3c575f80fd5b50565b5f81359050612c4d81612c29565b92915050565b5f60208284031215612c6857612c67612b0d565b5b5f612c7584828501612c3f565b91505092915050565b612c8781612bc8565b8114612c91575f80fd5b50565b5f81359050612ca281612c7e565b92915050565b5f60208284031215612cbd57612cbc612b0d565b5b5f612cca84828501612c94565b91505092915050565b5f8060408385031215612ce957612ce8612b0d565b5b5f612cf685828601612c94565b9250506020612d0785828601612c3f565b9150509250929050565b5f80fd5b5f80fd5b5f80fd5b5f8083601f840112612d3257612d31612d11565b5b8235905067ffffffffffffffff811115612d4f57612d4e612d15565b5b602083019150836001820283011115612d6b57612d6a612d19565b5b9250929050565b5f8083601f840112612d8757612d86612d11565b5b8235905067ffffffffffffffff811115612da457612da3612d15565b5b602083019150836020820283011115612dc057612dbf612d19565b5b9250929050565b5f805f805f60608688031215612de057612ddf612b0d565b5b5f612ded88828901612c94565b955050602086013567ffffffffffffffff811115612e0e57612e0d612b11565b5b612e1a88828901612d1d565b9450945050604086013567ffffffffffffffff811115612e3d57612e3c612b11565b5b612e4988828901612d72565b92509250509295509295909350565b5f819050919050565b612e6a81612e58565b82525050565b5f602082019050612e835f830184612e61565b92915050565b5f8083601f840112612e9e57612e9d612d11565b5b8235905067ffffffffffffffff811115612ebb57612eba612d15565b5b602083019150836020820283011115612ed757612ed6612d19565b5b9250929050565b5f8083601f840112612ef357612ef2612d11565b5b8235905067ffffffffffffffff811115612f1057612f0f612d15565b5b602083019150836020820283011115612f2c57612f2b612d19565b5b9250929050565b5f805f805f805f6080888a031215612f4e57612f4d612b0d565b5b5f88013567ffffffffffffffff811115612f6b57612f6a612b11565b5b612f778a828b01612e89565b9750975050602088013567ffffffffffffffff811115612f9a57612f99612b11565b5b612fa68a828b01612ede565b95509550506040612fb98a828b01612c94565b935050606088013567ffffffffffffffff811115612fda57612fd9612b11565b5b612fe68a828b01612d72565b925092505092959891949750929550565b61300081612e58565b811461300a575f80fd5b50565b5f8135905061301b81612ff7565b92915050565b5f805f805f6080868803121561303a57613039612b0d565b5b5f6130478882890161300d565b95505060206130588882890161300d565b94505060406130698882890161300d565b935050606086013567ffffffffffffffff81111561308a57613089612b11565b5b61309688828901612d72565b92509250509295509295909350565b5f805f805f8060c087890312156130bf576130be612b0d565b5b5f6130cc89828a01612c3f565b96505060206130dd89828a01612c3f565b95505060406130ee89828a01612c3f565b94505060606130ff89828a01612c3f565b935050608061311089828a01612c3f565b92505060a061312189828a01612c3f565b9150509295509295509295565b5f806020838503121561314457613143612b0d565b5b5f83013567ffffffffffffffff81111561316157613160612b11565b5b61316d85828601612d72565b92509250509250929050565b5f82825260208201905092915050565b7f416363657373436f6e74726f6c3a2063616e206f6e6c792072656e6f756e63655f8201527f20726f6c657320666f722073656c660000000000000000000000000000000000602082015250565b5f6131e3602f83613179565b91506131ee82613189565b604082019050919050565b5f6020820190508181035f830152613210816131d7565b9050919050565b7f4f776e61626c655061757361626c653a206163636573732064656e69656400005f82015250565b5f61324b601e83613179565b915061325682613217565b602082019050919050565b5f6020820190508181035f8301526132788161323f565b9050919050565b5f8151905061328d81612ff7565b92915050565b5f602082840312156132a8576132a7612b0d565b5b5f6132b58482850161327f565b91505092915050565b7f4f7261636c65733a206163636573732064656e696564000000000000000000005f82015250565b5f6132f2601683613179565b91506132fd826132be565b602082019050919050565b5f6020820190508181035f83015261331f816132e6565b9050919050565b7f4f7261636c65733a20746f6f206561726c7900000000000000000000000000005f82015250565b5f61335a601283613179565b915061336582613326565b602082019050919050565b5f6020820190508181035f8301526133878161334e565b9050919050565b7f4f7261636c65733a20696e76616c6964206e756d626572206f66207369676e615f8201527f7475726573000000000000000000000000000000000000000000000000000000602082015250565b5f6133e8602583613179565b91506133f38261338e565b604082019050919050565b5f6020820190508181035f830152613415816133dc565b9050919050565b828183375f83830152505050565b5f601f19601f8301169050919050565b5f6134458385613179565b935061345283858461341c565b61345b8361342a565b840190509392505050565b5f6060820190506134795f830187612e61565b818103602083015261348c81858761343a565b905061349b6040830184612bd1565b95945050505050565b5f81519050919050565b5f82825260208201905092915050565b5f819050602082019050919050565b6134d681612c18565b82525050565b5f6134e783836134cd565b60208301905092915050565b5f602082019050919050565b5f613509826134a4565b61351381856134ae565b935061351e836134be565b805f5b8381101561354e57815161353588826134dc565b9750613540836134f3565b925050600181019050613521565b5085935050505092915050565b5f6060820190508181035f83015261357381876134ff565b90506135826020830186612e61565b818103604083015261359581848661343a565b905095945050505050565b5f6040820190506135b35f830186612bd1565b81810360208301526135c681848661343a565b9050949350505050565b5f6135da82612c18565b9050919050565b6135ea816135d0565b81146135f4575f80fd5b50565b5f81519050613605816135e1565b92915050565b5f602082840312156136205761361f612b0d565b5b5f61362d848285016135f7565b91505092915050565b5f8151905061364481612c7e565b92915050565b5f6020828403121561365f5761365e612b0d565b5b5f61366c84828501613636565b91505092915050565b7f4f7261636c65733a20696e76616c69642076616c696461746f7273206465706f5f8201527f73697420726f6f74000000000000000000000000000000000000000000000000602082015250565b5f6136cf602883613179565b91506136da82613675565b604082019050919050565b5f6020820190508181035f8301526136fc816136c3565b9050919050565b5f82825260208201905092915050565b5f819050919050565b5f61372a6020840184612c3f565b905092915050565b5f6137406020840184612c94565b905092915050565b61375181612bc8565b82525050565b5f80fd5b5f80fd5b5f80fd5b5f808335600160200384360303811261377f5761377e61375f565b5b83810192508235915060208301925067ffffffffffffffff8211156137a7576137a6613757565b5b6001820236038313156137bd576137bc61375b565b5b509250929050565b5f82825260208201905092915050565b5f6137e083856137c5565b93506137ed83858461341c565b6137f68361342a565b840190509392505050565b5f60a083016138125f84018461371c565b61381e5f8601826134cd565b5061382c6020840184613732565b6138396020860182613748565b506138476040840184613732565b6138546040860182613748565b506138626060840184613763565b85830360608701526138758382846137d5565b925050506138866080840184613763565b85830360808701526138998382846137d5565b925050508091505092915050565b5f6138b28383613801565b905092915050565b5f8235600160a0038336030381126138d5576138d461375f565b5b82810191505092915050565b5f602082019050919050565b5f6138f88385613703565b93508360208402850161390a84613713565b805f5b8781101561394d57848403895261392482846138ba565b61392e85826138a7565b9450613939836138e1565b925060208a0199505060018101905061390d565b50829750879450505050509392505050565b5f6060820190506139725f830187612e61565b81810360208301526139858185876138ed565b90506139946040830184612bd1565b95945050505050565b7f4f7261636c65733a20696e76616c6964206d65726b6c652070726f6f6673206c5f8201527f656e677468000000000000000000000000000000000000000000000000000000602082015250565b5f6139f7602583613179565b9150613a028261399d565b604082019050919050565b5f6020820190508181035f830152613a24816139eb565b9050919050565b7f4e487b71000000000000000000000000000000000000000000000000000000005f52603260045260245ffd5b5f80fd5b5f80fd5b5f80fd5b5f8235600160a003833603038112613a7f57613a7e613a58565b5b80830191505092915050565b5f8083356001602003843603038112613aa757613aa6613a58565b5b80840192508235915067ffffffffffffffff821115613ac957613ac8613a5c565b5b602083019250602082023603831315613ae557613ae4613a60565b5b509250929050565b5f60a08301613afe5f84018461371c565b613b0a5f8601826134cd565b50613b186020840184613732565b613b256020860182613748565b50613b336040840184613732565b613b406040860182613748565b50613b4e6060840184613763565b8583036060870152613b618382846137d5565b92505050613b726080840184613763565b8583036080870152613b858382846137d5565b925050508091505092915050565b5f82825260208201905092915050565b5f80fd5b82818337505050565b5f613bbb8385613b93565b93507f07ffffffffffffffffffffffffffffffffffffffffffffffffffffffffffffff831115613bee57613bed613ba3565b5b602083029250613bff838584613ba7565b82840190509392505050565b5f6040820190508181035f830152613c238186613aed565b90508181036020830152613c38818486613bb0565b9050949350505050565b7f4e487b71000000000000000000000000000000000000000000000000000000005f52601160045260245ffd5b5f613c7982612e58565b91507fffffffffffffffffffffffffffffffffffffffffffffffffffffffffffffffff8203613cab57613caa613c42565b5b600182019050919050565b5f6040820190508181035f830152613cce81856134ff565b9050613cdd6020830184612e61565b9392505050565b5f608082019050613cf75f830187612e61565b613d046020830186612e61565b613d116040830185612e61565b613d1e6060830184612e61565b95945050505050565b5f60a0820190508181035f830152613d3f81886134ff565b9050613d4e6020830187612e61565b613d5b6040830186612e61565b613d686060830185612e61565b613d756080830184612e61565b9695505050505050565b5f613d8982612e58565b9150613d9483612e58565b9250828203905081811115613dac57613dab613c42565b5b92915050565b7f496e697469616c697a61626c653a20636f6e747261637420697320616c7265615f8201527f647920696e697469616c697a6564000000000000000000000000000000000000602082015250565b5f613e0c602e83613179565b9150613e1782613db2565b604082019050919050565b5f6020820190508181035f830152613e3981613e00565b9050919050565b7f4f7261636c65733a20696e76616c6964207265776172644c7978546f6b656e205f8201527f6164647265737300000000000000000000000000000000000000000000000000602082015250565b5f613e9a602783613179565b9150613ea582613e40565b604082019050919050565b5f6020820190508181035f830152613ec781613e8e565b9050919050565b7f4f7261636c65733a20696e76616c6964207374616b65644c7978546f6b656e205f8201527f6164647265737300000000000000000000000000000000000000000000000000602082015250565b5f613f28602783613179565b9150613f3382613ece565b604082019050919050565b5f6020820190508181035f830152613f5581613f1c565b9050919050565b7f4f7261636c65733a20696e76616c696420706f6f6c20616464726573730000005f82015250565b5f613f90601d83613179565b9150613f9b82613f5c565b602082019050919050565b5f6020820190508181035f830152613fbd81613f84565b9050919050565b7f4f7261636c65733a20696e76616c696420706f6f6c56616c696461746f7273205f8201527f6164647265737300000000000000000000000000000000000000000000000000602082015250565b5f61401e602783613179565b915061402982613fc4565b604082019050919050565b5f6020820190508181035f83015261404b81614012565b9050919050565b7f4f7261636c65733a20696e76616c6964206d65726b6c654469737472696275745f8201527f6f72206164647265737300000000000000000000000000000000000000000000602082015250565b5f6140ac602a83613179565b91506140b782614052565b604082019050919050565b5f6020820190508181035f8301526140d9816140a0565b9050919050565b5f819050919050565b5f60ff82169050919050565b5f819050919050565b5f61411861411361410e846140e0565b6140f5565b6140e9565b9050919050565b614128816140fe565b82525050565b5f6020820190506141415f83018461411f565b92915050565b7f4f7261636c65733a20696e76616c6964206f7261636c652061646472657373005f82015250565b5f61417b601f83613179565b915061418682614147565b602082019050919050565b5f6020820190508181035f8301526141a88161416f565b9050919050565b7f736574556e7374616b6550726f63657373696e670000000000000000000000005f82015250565b5f6141e3601483613179565b91506141ee826141af565b602082019050919050565b5f60408201905061420c5f830184612e61565b818103602083015261421d816141d7565b905092915050565b5f61422f82612e58565b91505f820361424157614240613c42565b5b600182039050919050565b61425581612c18565b82525050565b5f60208201905061426e5f83018461424c565b92915050565b7f5061757361626c653a20706175736564000000000000000000000000000000005f82015250565b5f6142a8601083613179565b91506142b382614274565b602082019050919050565b5f6020820190508181035f8301526142d58161429c565b9050919050565b5f6142e682612e58565b91506142f183612e58565b92508282026142ff81612e58565b9150828204841483151761431657614315613c42565b5b5092915050565b5f81905092915050565b7f19457468657265756d205369676e6564204d6573736167653a0a3332000000005f82015250565b5f61435b601c8361431d565b915061436682614327565b601c82019050919050565b5f819050919050565b61438b61438682612bc8565b614371565b82525050565b5f61439b8261434f565b91506143a7828461437a565b60208201915081905092915050565b7f4e487b71000000000000000000000000000000000000000000000000000000005f52604160045260245ffd5b5f80833560016020038436030381126143ff576143fe613a58565b5b80840192508235915067ffffffffffffffff82111561442157614420613a5c565b5b60208301925060018202360383131561443d5761443c613a60565b5b509250929050565b7f4f7261636c65733a20696e76616c6964207369676e65720000000000000000005f82015250565b5f614479601783613179565b915061448482614445565b602082019050919050565b5f6020820190508181035f8301526144a68161446d565b9050919050565b7f4f7261636c65733a207265706561746564207369676e617475726500000000005f82015250565b5f6144e1601b83613179565b91506144ec826144ad565b602082019050919050565b5f6020820190508181035f83015261450e816144d5565b9050919050565b7f496e697469616c697a61626c653a20636f6e7472616374206973206e6f7420695f8201527f6e697469616c697a696e67000000000000000000000000000000000000000000602082015250565b5f61456f602b83613179565b915061457a82614515565b604082019050919050565b5f6020820190508181035f83015261459c81614563565b9050919050565b7f416363657373436f6e74726f6c3a206163636f756e74200000000000000000005f82015250565b5f6145d760178361431d565b91506145e2826145a3565b601782019050919050565b5f81519050919050565b5f5b838110156146145780820151818401526020810190506145f9565b5f8484015250505050565b5f614629826145ed565b614633818561431d565b93506146438185602086016145f7565b80840191505092915050565b7f206973206d697373696e6720726f6c65200000000000000000000000000000005f82015250565b5f61468360118361431d565b915061468e8261464f565b601182019050919050565b5f6146a3826145cb565b91506146af828561461f565b91506146ba82614677565b91506146c6828461461f565b91508190509392505050565b5f6146dc826145ed565b6146e68185613179565b93506146f68185602086016145f7565b6146ff8161342a565b840191505092915050565b5f6020820190508181035f83015261472281846146d2565b905092915050565b7f5061757361626c653a206e6f74207061757365640000000000000000000000005f82015250565b5f61475e601483613179565b91506147698261472a565b602082019050919050565b5f6020820190508181035f83015261478b81614752565b9050919050565b5f61479c82612e58565b91506147a783612e58565b92508282019050808211156147bf576147be613c42565b5b92915050565b7f537472696e67733a20686578206c656e67746820696e73756666696369656e745f82015250565b5f6147f9602083613179565b9150614804826147c5565b602082019050919050565b5f6020820190508181035f830152614826816147ed565b9050919050565b7f4e487b71000000000000000000000000000000000000000000000000000000005f52602160045260245ffd5b7f45434453413a20696e76616c6964207369676e617475726500000000000000005f82015250565b5f61488e601883613179565b91506148998261485a565b602082019050919050565b5f6020820190508181035f8301526148bb81614882565b9050919050565b7f45434453413a20696e76616c6964207369676e6174757265206c656e677468005f82015250565b5f6148f6601f83613179565b9150614901826148c2565b602082019050919050565b5f6020820190508181035f830152614923816148ea565b9050919050565b7f45434453413a20696e76616c6964207369676e6174757265202773272076616c5f8201527f7565000000000000000000000000000000000000000000000000000000000000602082015250565b5f614984602283613179565b915061498f8261492a565b604082019050919050565b5f6020820190508181035f8301526149b181614978565b9050919050565b6149c1816140e9565b82525050565b5f6080820190506149da5f830187612bd1565b6149e760208301866149b8565b6149f46040830185612bd1565b614a016060830184612bd1565b9594505050505056fea264697066735822122030eb20d7862e024e914286106bc4083147d74cde6cd2963814bd6f8d5e7c011c64736f6c63430008140033",
  "linkReferences": {},
  "deployedLinkReferences": {}
}