{
  "_format": "hh-sol-artifact-1",
  "contractName": "PoolValidators",
  "sourceName": "contracts/pool/PoolValidators.sol",
  "abi": [
    {
      "anonymous": false,
      "inputs": [
        {
          "indexed": false,
          "internalType": "uint8",
          "name": "version",
          "type": "uint8"
        }
      ],
      "name": "Initialized",
      "type": "event"
    },
    {
      "anonymous": false,
      "inputs": [
        {
          "indexed": true,
          "internalType": "address",
          "name": "operator",
          "type": "address"
        },
        {
          "indexed": true,
          "internalType": "bytes32",
          "name": "depositDataMerkleRoot",
          "type": "bytes32"
        },
        {
          "indexed": false,
          "internalType": "string",
          "name": "depositDataMerkleProofs",
          "type": "string"
        }
      ],
      "name": "OperatorAdded",
      "type": "event"
    },
    {
      "anonymous": false,
      "inputs": [
        {
          "indexed": true,
          "internalType": "address",
          "name": "operator",
          "type": "address"
        }
      ],
      "name": "OperatorCommitted",
      "type": "event"
    },
    {
      "anonymous": false,
      "inputs": [
        {
          "indexed": true,
          "internalType": "address",
          "name": "sender",
          "type": "address"
        },
        {
          "indexed": true,
          "internalType": "address",
          "name": "operator",
          "type": "address"
        }
      ],
      "name": "OperatorRemoved",
      "type": "event"
    },
    {
      "anonymous": false,
      "inputs": [
        {
          "indexed": false,
          "internalType": "address",
          "name": "account",
          "type": "address"
        }
      ],
      "name": "Paused",
      "type": "event"
    },
    {
      "anonymous": false,
      "inputs": [
        {
          "indexed": true,
          "internalType": "bytes32",
          "name": "role",
          "type": "bytes32"
        },
        {
          "indexed": true,
          "internalType": "bytes32",
          "name": "previousAdminRole",
          "type": "bytes32"
        },
        {
          "indexed": true,
          "internalType": "bytes32",
          "name": "newAdminRole",
          "type": "bytes32"
        }
      ],
      "name": "RoleAdminChanged",
      "type": "event"
    },
    {
      "anonymous": false,
      "inputs": [
        {
          "indexed": true,
          "internalType": "bytes32",
          "name": "role",
          "type": "bytes32"
        },
        {
          "indexed": true,
          "internalType": "address",
          "name": "account",
          "type": "address"
        },
        {
          "indexed": true,
          "internalType": "address",
          "name": "sender",
          "type": "address"
        }
      ],
      "name": "RoleGranted",
      "type": "event"
    },
    {
      "anonymous": false,
      "inputs": [
        {
          "indexed": true,
          "internalType": "bytes32",
          "name": "role",
          "type": "bytes32"
        },
        {
          "indexed": true,
          "internalType": "address",
          "name": "account",
          "type": "address"
        },
        {
          "indexed": true,
          "internalType": "address",
          "name": "sender",
          "type": "address"
        }
      ],
      "name": "RoleRevoked",
      "type": "event"
    },
    {
      "anonymous": false,
      "inputs": [
        {
          "indexed": false,
          "internalType": "address",
          "name": "account",
          "type": "address"
        }
      ],
      "name": "Unpaused",
      "type": "event"
    },
    {
      "inputs": [],
      "name": "DEFAULT_ADMIN_ROLE",
      "outputs": [
        {
          "internalType": "bytes32",
          "name": "",
          "type": "bytes32"
        }
      ],
      "stateMutability": "view",
      "type": "function"
    },
    {
      "inputs": [],
      "name": "PAUSER_ROLE",
      "outputs": [
        {
          "internalType": "bytes32",
          "name": "",
          "type": "bytes32"
        }
      ],
      "stateMutability": "view",
      "type": "function"
    },
    {
      "inputs": [
        {
          "internalType": "address",
          "name": "_account",
          "type": "address"
        }
      ],
      "name": "addAdmin",
      "outputs": [],
      "stateMutability": "nonpayable",
      "type": "function"
    },
    {
      "inputs": [
        {
          "internalType": "address",
          "name": "_operator",
          "type": "address"
        },
        {
          "internalType": "bytes32",
          "name": "depositDataMerkleRoot",
          "type": "bytes32"
        },
        {
          "internalType": "string",
          "name": "depositDataMerkleProofs",
          "type": "string"
        }
      ],
      "name": "addOperator",
      "outputs": [],
      "stateMutability": "nonpayable",
      "type": "function"
    },
    {
      "inputs": [
        {
          "internalType": "address",
          "name": "_account",
          "type": "address"
        }
      ],
      "name": "addPauser",
      "outputs": [],
      "stateMutability": "nonpayable",
      "type": "function"
    },
    {
      "inputs": [],
      "name": "commitOperator",
      "outputs": [],
      "stateMutability": "nonpayable",
      "type": "function"
    },
    {
      "inputs": [
        {
          "internalType": "address",
          "name": "_operator",
          "type": "address"
        }
      ],
      "name": "getOperator",
      "outputs": [
        {
          "internalType": "bytes32",
          "name": "",
          "type": "bytes32"
        },
        {
          "internalType": "bool",
          "name": "",
          "type": "bool"
        }
      ],
      "stateMutability": "view",
      "type": "function"
    },
    {
      "inputs": [
        {
          "internalType": "bytes32",
          "name": "role",
          "type": "bytes32"
        }
      ],
      "name": "getRoleAdmin",
      "outputs": [
        {
          "internalType": "bytes32",
          "name": "",
          "type": "bytes32"
        }
      ],
      "stateMutability": "view",
      "type": "function"
    },
    {
      "inputs": [
        {
          "internalType": "bytes32",
          "name": "role",
          "type": "bytes32"
        },
        {
          "internalType": "address",
          "name": "account",
          "type": "address"
        }
      ],
      "name": "grantRole",
      "outputs": [],
      "stateMutability": "nonpayable",
      "type": "function"
    },
    {
      "inputs": [
        {
          "internalType": "bytes32",
          "name": "role",
          "type": "bytes32"
        },
        {
          "internalType": "address",
          "name": "account",
          "type": "address"
        }
      ],
      "name": "hasRole",
      "outputs": [
        {
          "internalType": "bool",
          "name": "",
          "type": "bool"
        }
      ],
      "stateMutability": "view",
      "type": "function"
    },
    {
      "inputs": [
        {
          "internalType": "address",
          "name": "_admin",
          "type": "address"
        },
        {
          "internalType": "address",
          "name": "_pool",
          "type": "address"
        },
        {
          "internalType": "address",
          "name": "_oracles",
          "type": "address"
        }
      ],
      "name": "initialize",
      "outputs": [],
      "stateMutability": "nonpayable",
      "type": "function"
    },
    {
      "inputs": [
        {
          "internalType": "address",
          "name": "_account",
          "type": "address"
        }
      ],
      "name": "isAdmin",
      "outputs": [
        {
          "internalType": "bool",
          "name": "",
          "type": "bool"
        }
      ],
      "stateMutability": "view",
      "type": "function"
    },
    {
      "inputs": [
        {
          "internalType": "address",
          "name": "_account",
          "type": "address"
        }
      ],
      "name": "isPauser",
      "outputs": [
        {
          "internalType": "bool",
          "name": "",
          "type": "bool"
        }
      ],
      "stateMutability": "view",
      "type": "function"
    },
    {
      "inputs": [
        {
          "internalType": "bytes32",
          "name": "",
          "type": "bytes32"
        }
      ],
      "name": "isValidatorRegistered",
      "outputs": [
        {
          "internalType": "bool",
          "name": "",
          "type": "bool"
        }
      ],
      "stateMutability": "view",
      "type": "function"
    },
    {
      "inputs": [],
      "name": "pause",
      "outputs": [],
      "stateMutability": "nonpayable",
      "type": "function"
    },
    {
      "inputs": [],
      "name": "paused",
      "outputs": [
        {
          "internalType": "bool",
          "name": "",
          "type": "bool"
        }
      ],
      "stateMutability": "view",
      "type": "function"
    },
    {
      "inputs": [
        {
          "components": [
            {
              "internalType": "address",
              "name": "operator",
              "type": "address"
            },
            {
              "internalType": "bytes32",
              "name": "withdrawalCredentials",
              "type": "bytes32"
            },
            {
              "internalType": "bytes32",
              "name": "depositDataRoot",
              "type": "bytes32"
            },
            {
              "internalType": "bytes",
              "name": "publicKey",
              "type": "bytes"
            },
            {
              "internalType": "bytes",
              "name": "signature",
              "type": "bytes"
            }
          ],
          "internalType": "struct IPoolValidators.DepositData",
          "name": "depositData",
          "type": "tuple"
        },
        {
          "internalType": "bytes32[]",
          "name": "merkleProof",
          "type": "bytes32[]"
        }
      ],
      "name": "registerValidator",
      "outputs": [],
      "stateMutability": "nonpayable",
      "type": "function"
    },
    {
      "inputs": [
        {
          "internalType": "address",
          "name": "_account",
          "type": "address"
        }
      ],
      "name": "removeAdmin",
      "outputs": [],
      "stateMutability": "nonpayable",
      "type": "function"
    },
    {
      "inputs": [
        {
          "internalType": "address",
          "name": "_operator",
          "type": "address"
        }
      ],
      "name": "removeOperator",
      "outputs": [],
      "stateMutability": "nonpayable",
      "type": "function"
    },
    {
      "inputs": [
        {
          "internalType": "address",
          "name": "_account",
          "type": "address"
        }
      ],
      "name": "removePauser",
      "outputs": [],
      "stateMutability": "nonpayable",
      "type": "function"
    },
    {
      "inputs": [
        {
          "internalType": "bytes32",
          "name": "role",
          "type": "bytes32"
        },
        {
          "internalType": "address",
          "name": "account",
          "type": "address"
        }
      ],
      "name": "renounceRole",
      "outputs": [],
      "stateMutability": "nonpayable",
      "type": "function"
    },
    {
      "inputs": [
        {
          "internalType": "bytes32",
          "name": "role",
          "type": "bytes32"
        },
        {
          "internalType": "address",
          "name": "account",
          "type": "address"
        }
      ],
      "name": "revokeRole",
      "outputs": [],
      "stateMutability": "nonpayable",
      "type": "function"
    },
    {
      "inputs": [
        {
          "internalType": "bytes4",
          "name": "interfaceId",
          "type": "bytes4"
        }
      ],
      "name": "supportsInterface",
      "outputs": [
        {
          "internalType": "bool",
          "name": "",
          "type": "bool"
        }
      ],
      "stateMutability": "view",
      "type": "function"
    },
    {
      "inputs": [],
      "name": "unpause",
      "outputs": [],
      "stateMutability": "nonpayable",
      "type": "function"
    }
  ],
  "bytecode": "0x608060405234801561000f575f80fd5b50600160c9819055506130b0806100255f395ff3fe608060405234801561000f575f80fd5b5060043610610156575f3560e01c80637711bb0a116100c1578063b85222c91161007a578063b85222c9146103bf578063c0c53b8b146103db578063c6211f0d146103f7578063d547741f14610413578063e63ab1e91461042f578063eb6ec3131461044d57610156565b80637711bb0a146102ff57806382dc1ec41461032f5780638456cb591461034b57806391d1485414610355578063a217fddf14610385578063ac8a584a146103a357610156565b80633f4ba83a116101135780633f4ba83a1461023e57806346fbf68e146102485780635865c60c146102785780635c975abb146102a95780636b2c0f55146102c757806370480275146102e357610156565b806301ffc9a71461015a5780631785f53c1461018a578063248a9ca3146101a657806324d7806c146101d65780632f2ff15d1461020657806336568abe14610222575b5f80fd5b610174600480360381019061016f9190611dbf565b610457565b6040516101819190611e04565b60405180910390f35b6101a4600480360381019061019f9190611e77565b6104d0565b005b6101c060048036038101906101bb9190611ed5565b6104df565b6040516101cd9190611f0f565b60405180910390f35b6101f060048036038101906101eb9190611e77565b6104fc565b6040516101fd9190611e04565b60405180910390f35b610220600480360381019061021b9190611f28565b610510565b005b61023c60048036038101906102379190611f28565b610531565b005b6102466105b4565b005b610262600480360381019061025d9190611e77565b610627565b60405161026f9190611e04565b60405180910390f35b610292600480360381019061028d9190611e77565b610659565b6040516102a0929190611f66565b60405180910390f35b6102b16106ba565b6040516102be9190611e04565b60405180910390f35b6102e160048036038101906102dc9190611e77565b6106cf565b005b6102fd60048036038101906102f89190611e77565b6106fc565b005b61031960048036038101906103149190611ed5565b61070b565b6040516103269190611e04565b60405180910390f35b61034960048036038101906103449190611e77565b610728565b005b610353610755565b005b61036f600480360381019061036a9190611f28565b6107c8565b60405161037c9190611e04565b60405180910390f35b61038d61082c565b60405161039a9190611f0f565b60405180910390f35b6103bd60048036038101906103b89190611e77565b610832565b005b6103d960048036038101906103d49190612010565b6109f9565b005b6103f560048036038101906103f09190612089565b610d71565b005b610411600480360381019061040c919061212e565b611077565b005b61042d60048036038101906104289190611f28565b6112c1565b005b6104376112e2565b6040516104449190611f0f565b60405180910390f35b610455611306565b005b5f7f7965db0b000000000000000000000000000000000000000000000000000000007bffffffffffffffffffffffffffffffffffffffffffffffffffffffff1916827bffffffffffffffffffffffffffffffffffffffffffffffffffffffff191614806104c957506104c882611412565b5b9050919050565b6104dc5f801b826112c1565b50565b5f60975f8381526020019081526020015f20600101549050919050565b5f6105095f801b836107c8565b9050919050565b610519826104df565b6105228161147b565b61052c838361148f565b505050565b61053961156a565b73ffffffffffffffffffffffffffffffffffffffff168173ffffffffffffffffffffffffffffffffffffffff16146105a6576040517f08c379a000000000000000000000000000000000000000000000000000000000815260040161059d9061221f565b60405180910390fd5b6105b08282611571565b5050565b6105de7f65d7a28e3265b37a6474929f336521b332c1681b933f6cb9f3376673440d862a336107c8565b61061d576040517f08c379a000000000000000000000000000000000000000000000000000000000815260040161061490612287565b60405180910390fd5b61062561164c565b565b5f6106527f65d7a28e3265b37a6474929f336521b332c1681b933f6cb9f3376673440d862a836107c8565b9050919050565b5f805f60cb5f8573ffffffffffffffffffffffffffffffffffffffff1673ffffffffffffffffffffffffffffffffffffffff1681526020019081526020015f209050805f0154816001015f9054906101000a900460ff169250925050915091565b5f60335f9054906101000a900460ff16905090565b6106f97f65d7a28e3265b37a6474929f336521b332c1681b933f6cb9f3376673440d862a826112c1565b50565b6107085f801b82610510565b50565b60ca602052805f5260405f205f915054906101000a900460ff1681565b6107527f65d7a28e3265b37a6474929f336521b332c1681b933f6cb9f3376673440d862a82610510565b50565b61077f7f65d7a28e3265b37a6474929f336521b332c1681b933f6cb9f3376673440d862a336107c8565b6107be576040517f08c379a00000000000000000000000000000000000000000000000000000000081526004016107b590612287565b60405180910390fd5b6107c66116ad565b565b5f60975f8481526020019081526020015f205f015f8373ffffffffffffffffffffffffffffffffffffffff1673ffffffffffffffffffffffffffffffffffffffff1681526020019081526020015f205f9054906101000a900460ff16905092915050565b5f801b81565b61083a61170f565b6108465f801b336107c8565b8061087c57508073ffffffffffffffffffffffffffffffffffffffff163373ffffffffffffffffffffffffffffffffffffffff16145b6108bb576040517f08c379a00000000000000000000000000000000000000000000000000000000081526004016108b2906122ef565b60405180910390fd5b5f60cb5f8373ffffffffffffffffffffffffffffffffffffffff1673ffffffffffffffffffffffffffffffffffffffff1681526020019081526020015f2090505f801b815f015403610942576040517f08c379a000000000000000000000000000000000000000000000000000000000815260040161093990612357565b60405180910390fd5b60cb5f8373ffffffffffffffffffffffffffffffffffffffff1673ffffffffffffffffffffffffffffffffffffffff1681526020019081526020015f205f8082015f9055600182015f6101000a81549060ff021916905550508173ffffffffffffffffffffffffffffffffffffffff163373ffffffffffffffffffffffffffffffffffffffff167f17d7f044d47e4fae1701f86266d0a674db3f792671bd1b974ace77a09af1c82760405160405180910390a35050565b60cd5f9054906101000a900473ffffffffffffffffffffffffffffffffffffffff1673ffffffffffffffffffffffffffffffffffffffff163373ffffffffffffffffffffffffffffffffffffffff1614610a88576040517f08c379a0000000000000000000000000000000000000000000000000000000008152600401610a7f906122ef565b60405180910390fd5b5f838060600190610a999190612381565b604051602001610aaa92919061243d565b60405160208183030381529060405280519060200120905060ca5f8281526020019081526020015f205f9054906101000a900460ff1615610b20576040517f08c379a0000000000000000000000000000000000000000000000000000000008152600401610b17906124cf565b60405180910390fd5b600160ca5f8381526020019081526020015f205f6101000a81548160ff0219169083151502179055505f60cb5f865f016020810190610b5f9190611e77565b73ffffffffffffffffffffffffffffffffffffffff1673ffffffffffffffffffffffffffffffffffffffff1681526020019081526020015f2090505f815f015490505f801b8114158015610bc05750816001015f9054906101000a900460ff165b610bff576040517f08c379a0000000000000000000000000000000000000000000000000000000008152600401610bf690612357565b60405180910390fd5b5f868060600190610c109190612381565b8860200135898060800190610c259190612381565b8b60400135604051602001610c3f969594939291906124ed565b604051602081830303815290604052805190602001209050610ca28686808060200260200160405190810160405280939291908181526020018383602002808284375f81840152601f19601f820116905080830192505050505050508383611759565b610ce1576040517f08c379a0000000000000000000000000000000000000000000000000000000008152600401610cd8906125b2565b60405180910390fd5b60cc5f9054906101000a900473ffffffffffffffffffffffffffffffffffffffff1673ffffffffffffffffffffffffffffffffffffffff1663359b4359886040518263ffffffff1660e01b8152600401610d3b919061276a565b5f604051808303815f87803b158015610d52575f80fd5b505af1158015610d64573d5f803e3d5ffd5b5050505050505050505050565b5f8060019054906101000a900460ff16159050808015610da0575060015f8054906101000a900460ff1660ff16105b80610dcc5750610daf3061176f565b158015610dcb575060015f8054906101000a900460ff1660ff16145b5b610e0b576040517f08c379a0000000000000000000000000000000000000000000000000000000008152600401610e02906127fa565b60405180910390fd5b60015f806101000a81548160ff021916908360ff1602179055508015610e465760015f60016101000a81548160ff0219169083151502179055505b5f73ffffffffffffffffffffffffffffffffffffffff168473ffffffffffffffffffffffffffffffffffffffff1603610eb4576040517f08c379a0000000000000000000000000000000000000000000000000000000008152600401610eab90612862565b60405180910390fd5b5f73ffffffffffffffffffffffffffffffffffffffff168373ffffffffffffffffffffffffffffffffffffffff1603610f22576040517f08c379a0000000000000000000000000000000000000000000000000000000008152600401610f19906128ca565b60405180910390fd5b5f73ffffffffffffffffffffffffffffffffffffffff168273ffffffffffffffffffffffffffffffffffffffff1603610f90576040517f08c379a0000000000000000000000000000000000000000000000000000000008152600401610f8790612932565b60405180910390fd5b610f9984611791565b8260cc5f6101000a81548173ffffffffffffffffffffffffffffffffffffffff021916908373ffffffffffffffffffffffffffffffffffffffff1602179055508160cd5f6101000a81548173ffffffffffffffffffffffffffffffffffffffff021916908373ffffffffffffffffffffffffffffffffffffffff1602179055508015611071575f8060016101000a81548160ff0219169083151502179055507f7f26b83ff96e1f2b6a682f133852f6798a09c465da95921460cefb38474024986001604051611068919061299e565b60405180910390a15b50505050565b6110835f801b336107c8565b6110c2576040517f08c379a00000000000000000000000000000000000000000000000000000000081526004016110b990612287565b60405180910390fd5b6110ca61170f565b5f73ffffffffffffffffffffffffffffffffffffffff168473ffffffffffffffffffffffffffffffffffffffff1603611138576040517f08c379a000000000000000000000000000000000000000000000000000000000815260040161112f90612357565b60405180910390fd5b5f801b830361117c576040517f08c379a000000000000000000000000000000000000000000000000000000000815260040161117390612a27565b60405180910390fd5b5f82829050036111c1576040517f08c379a00000000000000000000000000000000000000000000000000000000081526004016111b890612ab5565b60405180910390fd5b5f60cb5f8673ffffffffffffffffffffffffffffffffffffffff1673ffffffffffffffffffffffffffffffffffffffff1681526020019081526020015f20905083815f015403611246576040517f08c379a000000000000000000000000000000000000000000000000000000000815260040161123d90612b1d565b60405180910390fd5b83815f01819055505f816001015f6101000a81548160ff021916908315150217905550838573ffffffffffffffffffffffffffffffffffffffff167fd7344b47ab732b2b29bc35102ea32f24730c07d3bb1e9a8cd771b25528aec91a85856040516112b2929190612b67565b60405180910390a35050505050565b6112ca826104df565b6112d38161147b565b6112dd8383611571565b505050565b7f65d7a28e3265b37a6474929f336521b332c1681b933f6cb9f3376673440d862a81565b61130e61170f565b5f60cb5f3373ffffffffffffffffffffffffffffffffffffffff1673ffffffffffffffffffffffffffffffffffffffff1681526020019081526020015f2090505f801b815f0154141580156113715750806001015f9054906101000a900460ff16155b6113b0576040517f08c379a00000000000000000000000000000000000000000000000000000000081526004016113a790612357565b60405180910390fd5b6001816001015f6101000a81548160ff0219169083151502179055503373ffffffffffffffffffffffffffffffffffffffff167f405dddc40653a0aa66ee6a9ddd1f396ae18e4b74a0239a25a8e9e443ef88b92660405160405180910390a250565b5f7f01ffc9a7000000000000000000000000000000000000000000000000000000007bffffffffffffffffffffffffffffffffffffffffffffffffffffffff1916827bffffffffffffffffffffffffffffffffffffffffffffffffffffffff1916149050919050565b61148c8161148761156a565b611803565b50565b61149982826107c8565b61156657600160975f8481526020019081526020015f205f015f8373ffffffffffffffffffffffffffffffffffffffff1673ffffffffffffffffffffffffffffffffffffffff1681526020019081526020015f205f6101000a81548160ff02191690831515021790555061150b61156a565b73ffffffffffffffffffffffffffffffffffffffff168173ffffffffffffffffffffffffffffffffffffffff16837f2f8788117e7eff1d82e926ec794901d17c78024a50270940304540a733656f0d60405160405180910390a45b5050565b5f33905090565b61157b82826107c8565b15611648575f60975f8481526020019081526020015f205f015f8373ffffffffffffffffffffffffffffffffffffffff1673ffffffffffffffffffffffffffffffffffffffff1681526020019081526020015f205f6101000a81548160ff0219169083151502179055506115ed61156a565b73ffffffffffffffffffffffffffffffffffffffff168173ffffffffffffffffffffffffffffffffffffffff16837ff6391f5c32d9c69d2a47ea670b442974b53935d1edc7fd64eb21e047a839171b60405160405180910390a45b5050565b611654611887565b5f60335f6101000a81548160ff0219169083151502179055507f5db9ee0a495bf2e6ff9c91a7834c1ba4fdd244a5e8aa4e537bd38aeae4b073aa61169661156a565b6040516116a39190612b98565b60405180910390a1565b6116b561170f565b600160335f6101000a81548160ff0219169083151502179055507f62e78cea01bee320cd4e420270b5ea74000d11b0c9f74754ebdbfc544b05a2586116f861156a565b6040516117059190612b98565b60405180910390a1565b6117176106ba565b15611757576040517f08c379a000000000000000000000000000000000000000000000000000000000815260040161174e90612bfb565b60405180910390fd5b565b5f8261176585846118d0565b1490509392505050565b5f808273ffffffffffffffffffffffffffffffffffffffff163b119050919050565b5f60019054906101000a900460ff166117df576040517f08c379a00000000000000000000000000000000000000000000000000000000081526004016117d690612c89565b60405180910390fd5b6117e7611924565b6117ef611974565b6117f76119c4565b61180081611a2d565b50565b61180d82826107c8565b6118835761181a81611ab4565b611827835f1c6020611ae1565b604051602001611838929190612da7565b6040516020818303038152906040526040517f08c379a000000000000000000000000000000000000000000000000000000000815260040161187a9190612e18565b60405180910390fd5b5050565b61188f6106ba565b6118ce576040517f08c379a00000000000000000000000000000000000000000000000000000000081526004016118c590612e82565b60405180910390fd5b565b5f808290505f5b845181101561191957611904828683815181106118f7576118f6612ea0565b5b6020026020010151611d16565b9150808061191190612f03565b9150506118d7565b508091505092915050565b5f60019054906101000a900460ff16611972576040517f08c379a000000000000000000000000000000000000000000000000000000000815260040161196990612c89565b60405180910390fd5b565b5f60019054906101000a900460ff166119c2576040517f08c379a00000000000000000000000000000000000000000000000000000000081526004016119b990612c89565b60405180910390fd5b565b5f60019054906101000a900460ff16611a12576040517f08c379a0000000000000000000000000000000000000000000000000000000008152600401611a0990612c89565b60405180910390fd5b5f60335f6101000a81548160ff021916908315150217905550565b5f60019054906101000a900460ff16611a7b576040517f08c379a0000000000000000000000000000000000000000000000000000000008152600401611a7290612c89565b60405180910390fd5b611a875f801b82611d40565b611ab17f65d7a28e3265b37a6474929f336521b332c1681b933f6cb9f3376673440d862a82611d40565b50565b6060611ada8273ffffffffffffffffffffffffffffffffffffffff16601460ff16611ae1565b9050919050565b60605f6002836002611af39190612f4a565b611afd9190612f8b565b67ffffffffffffffff811115611b1657611b15612fbe565b5b6040519080825280601f01601f191660200182016040528015611b485781602001600182028036833780820191505090505b5090507f3000000000000000000000000000000000000000000000000000000000000000815f81518110611b7f57611b7e612ea0565b5b60200101907effffffffffffffffffffffffffffffffffffffffffffffffffffffffffffff191690815f1a9053507f780000000000000000000000000000000000000000000000000000000000000081600181518110611be257611be1612ea0565b5b60200101907effffffffffffffffffffffffffffffffffffffffffffffffffffffffffffff191690815f1a9053505f6001846002611c209190612f4a565b611c2a9190612f8b565b90505b6001811115611cc9577f3031323334353637383961626364656600000000000000000000000000000000600f861660108110611c6c57611c6b612ea0565b5b1a60f81b828281518110611c8357611c82612ea0565b5b60200101907effffffffffffffffffffffffffffffffffffffffffffffffffffffffffffff191690815f1a905350600485901c945080611cc290612feb565b9050611c2d565b505f8414611d0c576040517f08c379a0000000000000000000000000000000000000000000000000000000008152600401611d039061305c565b60405180910390fd5b8091505092915050565b5f818310611d2d57611d288284611d4e565b611d38565b611d378383611d4e565b5b905092915050565b611d4a828261148f565b5050565b5f825f528160205260405f20905092915050565b5f80fd5b5f80fd5b5f7fffffffff0000000000000000000000000000000000000000000000000000000082169050919050565b611d9e81611d6a565b8114611da8575f80fd5b50565b5f81359050611db981611d95565b92915050565b5f60208284031215611dd457611dd3611d62565b5b5f611de184828501611dab565b91505092915050565b5f8115159050919050565b611dfe81611dea565b82525050565b5f602082019050611e175f830184611df5565b92915050565b5f73ffffffffffffffffffffffffffffffffffffffff82169050919050565b5f611e4682611e1d565b9050919050565b611e5681611e3c565b8114611e60575f80fd5b50565b5f81359050611e7181611e4d565b92915050565b5f60208284031215611e8c57611e8b611d62565b5b5f611e9984828501611e63565b91505092915050565b5f819050919050565b611eb481611ea2565b8114611ebe575f80fd5b50565b5f81359050611ecf81611eab565b92915050565b5f60208284031215611eea57611ee9611d62565b5b5f611ef784828501611ec1565b91505092915050565b611f0981611ea2565b82525050565b5f602082019050611f225f830184611f00565b92915050565b5f8060408385031215611f3e57611f3d611d62565b5b5f611f4b85828601611ec1565b9250506020611f5c85828601611e63565b9150509250929050565b5f604082019050611f795f830185611f00565b611f866020830184611df5565b9392505050565b5f80fd5b5f60a08284031215611fa657611fa5611f8d565b5b81905092915050565b5f80fd5b5f80fd5b5f80fd5b5f8083601f840112611fd057611fcf611faf565b5b8235905067ffffffffffffffff811115611fed57611fec611fb3565b5b60208301915083602082028301111561200957612008611fb7565b5b9250929050565b5f805f6040848603121561202757612026611d62565b5b5f84013567ffffffffffffffff81111561204457612043611d66565b5b61205086828701611f91565b935050602084013567ffffffffffffffff81111561207157612070611d66565b5b61207d86828701611fbb565b92509250509250925092565b5f805f606084860312156120a05761209f611d62565b5b5f6120ad86828701611e63565b93505060206120be86828701611e63565b92505060406120cf86828701611e63565b9150509250925092565b5f8083601f8401126120ee576120ed611faf565b5b8235905067ffffffffffffffff81111561210b5761210a611fb3565b5b60208301915083600182028301111561212757612126611fb7565b5b9250929050565b5f805f806060858703121561214657612145611d62565b5b5f61215387828801611e63565b945050602061216487828801611ec1565b935050604085013567ffffffffffffffff81111561218557612184611d66565b5b612191878288016120d9565b925092505092959194509250565b5f82825260208201905092915050565b7f416363657373436f6e74726f6c3a2063616e206f6e6c792072656e6f756e63655f8201527f20726f6c657320666f722073656c660000000000000000000000000000000000602082015250565b5f612209602f8361219f565b9150612214826121af565b604082019050919050565b5f6020820190508181035f830152612236816121fd565b9050919050565b7f4f776e61626c655061757361626c653a206163636573732064656e69656400005f82015250565b5f612271601e8361219f565b915061227c8261223d565b602082019050919050565b5f6020820190508181035f83015261229e81612265565b9050919050565b7f506f6f6c56616c696461746f72733a206163636573732064656e6965640000005f82015250565b5f6122d9601d8361219f565b91506122e4826122a5565b602082019050919050565b5f6020820190508181035f830152612306816122cd565b9050919050565b7f506f6f6c56616c696461746f72733a20696e76616c6964206f70657261746f725f82015250565b5f61234160208361219f565b915061234c8261230d565b602082019050919050565b5f6020820190508181035f83015261236e81612335565b9050919050565b5f80fd5b5f80fd5b5f80fd5b5f808335600160200384360303811261239d5761239c612375565b5b80840192508235915067ffffffffffffffff8211156123bf576123be612379565b5b6020830192506001820236038313156123db576123da61237d565b5b509250929050565b5f82825260208201905092915050565b828183375f83830152505050565b5f601f19601f8301169050919050565b5f61241c83856123e3565b93506124298385846123f3565b61243283612401565b840190509392505050565b5f6020820190508181035f830152612456818486612411565b90509392505050565b7f506f6f6c56616c696461746f72733a2076616c696461746f7220616c726561645f8201527f7920726567697374657265640000000000000000000000000000000000000000602082015250565b5f6124b9602c8361219f565b91506124c48261245f565b604082019050919050565b5f6020820190508181035f8301526124e6816124ad565b9050919050565b5f6080820190508181035f83015261250681888a612411565b90506125156020830187611f00565b8181036040830152612528818587612411565b90506125376060830184611f00565b979650505050505050565b7f506f6f6c56616c696461746f72733a20696e76616c6964206d65726b6c6520705f8201527f726f6f6600000000000000000000000000000000000000000000000000000000602082015250565b5f61259c60248361219f565b91506125a782612542565b604082019050919050565b5f6020820190508181035f8301526125c981612590565b9050919050565b5f6125de6020840184611e63565b905092915050565b6125ef81611e3c565b82525050565b5f6126036020840184611ec1565b905092915050565b61261481611ea2565b82525050565b5f80fd5b5f80fd5b5f80fd5b5f808335600160200384360303811261264257612641612622565b5b83810192508235915060208301925067ffffffffffffffff82111561266a5761266961261a565b5b6001820236038313156126805761267f61261e565b5b509250929050565b5f82825260208201905092915050565b5f6126a38385612688565b93506126b08385846123f3565b6126b983612401565b840190509392505050565b5f60a083016126d55f8401846125d0565b6126e15f8601826125e6565b506126ef60208401846125f5565b6126fc602086018261260b565b5061270a60408401846125f5565b612717604086018261260b565b506127256060840184612626565b8583036060870152612738838284612698565b925050506127496080840184612626565b858303608087015261275c838284612698565b925050508091505092915050565b5f6020820190508181035f83015261278281846126c4565b905092915050565b7f496e697469616c697a61626c653a20636f6e747261637420697320616c7265615f8201527f647920696e697469616c697a6564000000000000000000000000000000000000602082015250565b5f6127e4602e8361219f565b91506127ef8261278a565b604082019050919050565b5f6020820190508181035f830152612811816127d8565b9050919050565b7f506f6f6c3a20696e76616c69642061646d696e206164647265737300000000005f82015250565b5f61284c601b8361219f565b915061285782612818565b602082019050919050565b5f6020820190508181035f83015261287981612840565b9050919050565b7f506f6f6c3a20696e76616c696420506f6f6c20616464726573730000000000005f82015250565b5f6128b4601a8361219f565b91506128bf82612880565b602082019050919050565b5f6020820190508181035f8301526128e1816128a8565b9050919050565b7f506f6f6c3a20696e76616c6964204f7261636c657320616464726573730000005f82015250565b5f61291c601d8361219f565b9150612927826128e8565b602082019050919050565b5f6020820190508181035f83015261294981612910565b9050919050565b5f819050919050565b5f60ff82169050919050565b5f819050919050565b5f61298861298361297e84612950565b612965565b612959565b9050919050565b6129988161296e565b82525050565b5f6020820190506129b15f83018461298f565b92915050565b7f506f6f6c56616c696461746f72733a20696e76616c6964206d65726b6c6520725f8201527f6f6f740000000000000000000000000000000000000000000000000000000000602082015250565b5f612a1160238361219f565b9150612a1c826129b7565b604082019050919050565b5f6020820190508181035f830152612a3e81612a05565b9050919050565b7f506f6f6c56616c696461746f72733a20696e76616c6964206d65726b6c6520705f8201527f726f6f6673000000000000000000000000000000000000000000000000000000602082015250565b5f612a9f60258361219f565b9150612aaa82612a45565b604082019050919050565b5f6020820190508181035f830152612acc81612a93565b9050919050565b7f506f6f6c56616c696461746f72733a2073616d65206d65726b6c6520726f6f745f82015250565b5f612b0760208361219f565b9150612b1282612ad3565b602082019050919050565b5f6020820190508181035f830152612b3481612afb565b9050919050565b5f612b46838561219f565b9350612b538385846123f3565b612b5c83612401565b840190509392505050565b5f6020820190508181035f830152612b80818486612b3b565b90509392505050565b612b9281611e3c565b82525050565b5f602082019050612bab5f830184612b89565b92915050565b7f5061757361626c653a20706175736564000000000000000000000000000000005f82015250565b5f612be560108361219f565b9150612bf082612bb1565b602082019050919050565b5f6020820190508181035f830152612c1281612bd9565b9050919050565b7f496e697469616c697a61626c653a20636f6e7472616374206973206e6f7420695f8201527f6e697469616c697a696e67000000000000000000000000000000000000000000602082015250565b5f612c73602b8361219f565b9150612c7e82612c19565b604082019050919050565b5f6020820190508181035f830152612ca081612c67565b9050919050565b5f81905092915050565b7f416363657373436f6e74726f6c3a206163636f756e74200000000000000000005f82015250565b5f612ce5601783612ca7565b9150612cf082612cb1565b601782019050919050565b5f81519050919050565b5f5b83811015612d22578082015181840152602081019050612d07565b5f8484015250505050565b5f612d3782612cfb565b612d418185612ca7565b9350612d51818560208601612d05565b80840191505092915050565b7f206973206d697373696e6720726f6c65200000000000000000000000000000005f82015250565b5f612d91601183612ca7565b9150612d9c82612d5d565b601182019050919050565b5f612db182612cd9565b9150612dbd8285612d2d565b9150612dc882612d85565b9150612dd48284612d2d565b91508190509392505050565b5f612dea82612cfb565b612df4818561219f565b9350612e04818560208601612d05565b612e0d81612401565b840191505092915050565b5f6020820190508181035f830152612e308184612de0565b905092915050565b7f5061757361626c653a206e6f74207061757365640000000000000000000000005f82015250565b5f612e6c60148361219f565b9150612e7782612e38565b602082019050919050565b5f6020820190508181035f830152612e9981612e60565b9050919050565b7f4e487b71000000000000000000000000000000000000000000000000000000005f52603260045260245ffd5b7f4e487b71000000000000000000000000000000000000000000000000000000005f52601160045260245ffd5b5f819050919050565b5f612f0d82612efa565b91507fffffffffffffffffffffffffffffffffffffffffffffffffffffffffffffffff8203612f3f57612f3e612ecd565b5b600182019050919050565b5f612f5482612efa565b9150612f5f83612efa565b9250828202612f6d81612efa565b91508282048414831517612f8457612f83612ecd565b5b5092915050565b5f612f9582612efa565b9150612fa083612efa565b9250828201905080821115612fb857612fb7612ecd565b5b92915050565b7f4e487b71000000000000000000000000000000000000000000000000000000005f52604160045260245ffd5b5f612ff582612efa565b91505f820361300757613006612ecd565b5b600182039050919050565b7f537472696e67733a20686578206c656e67746820696e73756666696369656e745f82015250565b5f61304660208361219f565b915061305182613012565b602082019050919050565b5f6020820190508181035f8301526130738161303a565b905091905056fea26469706673582212204b09a1d1db71da8db359e87e329b050664ecba62b3410ccd697dceb15b2cd4bc64736f6c63430008140033",
  "linkReferences": {},
  "deployedLinkReferences": {}
}