{
  "_format": "hh-sol-artifact-1",
  "contractName": "Pool",
  "sourceName": "contracts/pool/Pool.sol",
  "abi": [
    {
      "anonymous": false,
      "inputs": [
        {
          "indexed": true,
          "internalType": "address",
          "name": "account",
          "type": "address"
        },
        {
          "indexed": false,
          "internalType": "uint256",
          "name": "validatorIndex",
          "type": "uint256"
        },
        {
          "indexed": false,
          "internalType": "uint256",
          "name": "value",
          "type": "uint256"
        },
        {
          "indexed": true,
          "internalType": "address",
          "name": "sender",
          "type": "address"
        }
      ],
      "name": "Activated",
      "type": "event"
    },
    {
      "anonymous": false,
      "inputs": [
        {
          "indexed": false,
          "internalType": "uint256",
          "name": "activatedValidators",
          "type": "uint256"
        },
        {
          "indexed": false,
          "internalType": "address",
          "name": "sender",
          "type": "address"
        }
      ],
      "name": "ActivatedValidatorsUpdated",
      "type": "event"
    },
    {
      "anonymous": false,
      "inputs": [
        {
          "indexed": true,
          "internalType": "address",
          "name": "sender",
          "type": "address"
        },
        {
          "indexed": false,
          "internalType": "uint256",
          "name": "validatorIndex",
          "type": "uint256"
        },
        {
          "indexed": false,
          "internalType": "uint256",
          "name": "value",
          "type": "uint256"
        }
      ],
      "name": "ActivationScheduled",
      "type": "event"
    },
    {
      "anonymous": false,
      "inputs": [
        {
          "indexed": false,
          "internalType": "uint256",
          "name": "exitedValidators",
          "type": "uint256"
        },
        {
          "indexed": false,
          "internalType": "address",
          "name": "sender",
          "type": "address"
        }
      ],
      "name": "ExitedValidatorsUpdated",
      "type": "event"
    },
    {
      "anonymous": false,
      "inputs": [
        {
          "indexed": false,
          "internalType": "uint8",
          "name": "version",
          "type": "uint8"
        }
      ],
      "name": "Initialized",
      "type": "event"
    },
    {
      "anonymous": false,
      "inputs": [
        {
          "indexed": false,
          "internalType": "uint256",
          "name": "minActivatingDeposit",
          "type": "uint256"
        },
        {
          "indexed": false,
          "internalType": "address",
          "name": "sender",
          "type": "address"
        }
      ],
      "name": "MinActivatingDepositUpdated",
      "type": "event"
    },
    {
      "anonymous": false,
      "inputs": [
        {
          "indexed": false,
          "internalType": "address",
          "name": "account",
          "type": "address"
        }
      ],
      "name": "Paused",
      "type": "event"
    },
    {
      "anonymous": false,
      "inputs": [
        {
          "indexed": false,
          "internalType": "uint256",
          "name": "pendingValidatorsLimit",
          "type": "uint256"
        },
        {
          "indexed": false,
          "internalType": "address",
          "name": "sender",
          "type": "address"
        }
      ],
      "name": "PendingValidatorsLimitUpdated",
      "type": "event"
    },
    {
      "anonymous": false,
      "inputs": [
        {
          "indexed": true,
          "internalType": "bytes32",
          "name": "role",
          "type": "bytes32"
        },
        {
          "indexed": true,
          "internalType": "bytes32",
          "name": "previousAdminRole",
          "type": "bytes32"
        },
        {
          "indexed": true,
          "internalType": "bytes32",
          "name": "newAdminRole",
          "type": "bytes32"
        }
      ],
      "name": "RoleAdminChanged",
      "type": "event"
    },
    {
      "anonymous": false,
      "inputs": [
        {
          "indexed": true,
          "internalType": "bytes32",
          "name": "role",
          "type": "bytes32"
        },
        {
          "indexed": true,
          "internalType": "address",
          "name": "account",
          "type": "address"
        },
        {
          "indexed": true,
          "internalType": "address",
          "name": "sender",
          "type": "address"
        }
      ],
      "name": "RoleGranted",
      "type": "event"
    },
    {
      "anonymous": false,
      "inputs": [
        {
          "indexed": true,
          "internalType": "bytes32",
          "name": "role",
          "type": "bytes32"
        },
        {
          "indexed": true,
          "internalType": "address",
          "name": "account",
          "type": "address"
        },
        {
          "indexed": true,
          "internalType": "address",
          "name": "sender",
          "type": "address"
        }
      ],
      "name": "RoleRevoked",
      "type": "event"
    },
    {
      "anonymous": false,
      "inputs": [
        {
          "indexed": true,
          "internalType": "address",
          "name": "partner",
          "type": "address"
        },
        {
          "indexed": false,
          "internalType": "uint256",
          "name": "amount",
          "type": "uint256"
        }
      ],
      "name": "StakedWithPartner",
      "type": "event"
    },
    {
      "anonymous": false,
      "inputs": [
        {
          "indexed": true,
          "internalType": "address",
          "name": "referrer",
          "type": "address"
        },
        {
          "indexed": false,
          "internalType": "uint256",
          "name": "amount",
          "type": "uint256"
        }
      ],
      "name": "StakedWithReferrer",
      "type": "event"
    },
    {
      "anonymous": false,
      "inputs": [
        {
          "indexed": false,
          "internalType": "address",
          "name": "account",
          "type": "address"
        }
      ],
      "name": "Unpaused",
      "type": "event"
    },
    {
      "anonymous": false,
      "inputs": [
        {
          "indexed": false,
          "internalType": "bytes",
          "name": "publicKey",
          "type": "bytes"
        },
        {
          "indexed": false,
          "internalType": "address",
          "name": "operator",
          "type": "address"
        }
      ],
      "name": "ValidatorRegistered",
      "type": "event"
    },
    {
      "inputs": [],
      "name": "DEFAULT_ADMIN_ROLE",
      "outputs": [
        {
          "internalType": "bytes32",
          "name": "",
          "type": "bytes32"
        }
      ],
      "stateMutability": "view",
      "type": "function"
    },
    {
      "inputs": [],
      "name": "PAUSER_ROLE",
      "outputs": [
        {
          "internalType": "bytes32",
          "name": "",
          "type": "bytes32"
        }
      ],
      "stateMutability": "view",
      "type": "function"
    },
    {
      "inputs": [],
      "name": "VALIDATOR_TOTAL_DEPOSIT",
      "outputs": [
        {
          "internalType": "uint256",
          "name": "",
          "type": "uint256"
        }
      ],
      "stateMutability": "view",
      "type": "function"
    },
    {
      "inputs": [
        {
          "internalType": "address",
          "name": "account",
          "type": "address"
        },
        {
          "internalType": "uint256",
          "name": "validatorIndex",
          "type": "uint256"
        }
      ],
      "name": "activate",
      "outputs": [],
      "stateMutability": "nonpayable",
      "type": "function"
    },
    {
      "inputs": [
        {
          "internalType": "address",
          "name": "account",
          "type": "address"
        },
        {
          "internalType": "uint256[]",
          "name": "validatorIndexes",
          "type": "uint256[]"
        }
      ],
      "name": "activateMultiple",
      "outputs": [],
      "stateMutability": "nonpayable",
      "type": "function"
    },
    {
      "inputs": [],
      "name": "activatedValidators",
      "outputs": [
        {
          "internalType": "uint256",
          "name": "",
          "type": "uint256"
        }
      ],
      "stateMutability": "view",
      "type": "function"
    },
    {
      "inputs": [
        {
          "internalType": "address",
          "name": "",
          "type": "address"
        },
        {
          "internalType": "uint256",
          "name": "",
          "type": "uint256"
        }
      ],
      "name": "activations",
      "outputs": [
        {
          "internalType": "uint256",
          "name": "",
          "type": "uint256"
        }
      ],
      "stateMutability": "view",
      "type": "function"
    },
    {
      "inputs": [
        {
          "internalType": "address",
          "name": "_account",
          "type": "address"
        }
      ],
      "name": "addAdmin",
      "outputs": [],
      "stateMutability": "nonpayable",
      "type": "function"
    },
    {
      "inputs": [
        {
          "internalType": "address",
          "name": "_account",
          "type": "address"
        }
      ],
      "name": "addPauser",
      "outputs": [],
      "stateMutability": "nonpayable",
      "type": "function"
    },
    {
      "inputs": [
        {
          "internalType": "uint256",
          "name": "validatorIndex",
          "type": "uint256"
        }
      ],
      "name": "canActivate",
      "outputs": [
        {
          "internalType": "bool",
          "name": "",
          "type": "bool"
        }
      ],
      "stateMutability": "view",
      "type": "function"
    },
    {
      "inputs": [],
      "name": "effectiveValidators",
      "outputs": [
        {
          "internalType": "uint256",
          "name": "",
          "type": "uint256"
        }
      ],
      "stateMutability": "view",
      "type": "function"
    },
    {
      "inputs": [],
      "name": "exitedValidators",
      "outputs": [
        {
          "internalType": "uint256",
          "name": "",
          "type": "uint256"
        }
      ],
      "stateMutability": "view",
      "type": "function"
    },
    {
      "inputs": [
        {
          "internalType": "bytes32",
          "name": "role",
          "type": "bytes32"
        }
      ],
      "name": "getRoleAdmin",
      "outputs": [
        {
          "internalType": "bytes32",
          "name": "",
          "type": "bytes32"
        }
      ],
      "stateMutability": "view",
      "type": "function"
    },
    {
      "inputs": [
        {
          "internalType": "bytes32",
          "name": "role",
          "type": "bytes32"
        },
        {
          "internalType": "address",
          "name": "account",
          "type": "address"
        }
      ],
      "name": "grantRole",
      "outputs": [],
      "stateMutability": "nonpayable",
      "type": "function"
    },
    {
      "inputs": [
        {
          "internalType": "bytes32",
          "name": "role",
          "type": "bytes32"
        },
        {
          "internalType": "address",
          "name": "account",
          "type": "address"
        }
      ],
      "name": "hasRole",
      "outputs": [
        {
          "internalType": "bool",
          "name": "",
          "type": "bool"
        }
      ],
      "stateMutability": "view",
      "type": "function"
    },
    {
      "inputs": [
        {
          "internalType": "address",
          "name": "_admin",
          "type": "address"
        },
        {
          "internalType": "address",
          "name": "_stakedLyxToken",
          "type": "address"
        },
        {
          "internalType": "address",
          "name": "_rewards",
          "type": "address"
        },
        {
          "internalType": "address",
          "name": "_validators",
          "type": "address"
        },
        {
          "internalType": "address",
          "name": "_oracles",
          "type": "address"
        },
        {
          "internalType": "bytes32",
          "name": "_withdrawalCredentials",
          "type": "bytes32"
        },
        {
          "internalType": "address",
          "name": "_validatorRegistration",
          "type": "address"
        },
        {
          "internalType": "uint256",
          "name": "_minActivatingDeposit",
          "type": "uint256"
        },
        {
          "internalType": "uint256",
          "name": "_pendingValidatorsLimit",
          "type": "uint256"
        }
      ],
      "name": "initialize",
      "outputs": [],
      "stateMutability": "nonpayable",
      "type": "function"
    },
    {
      "inputs": [
        {
          "internalType": "address",
          "name": "_account",
          "type": "address"
        }
      ],
      "name": "isAdmin",
      "outputs": [
        {
          "internalType": "bool",
          "name": "",
          "type": "bool"
        }
      ],
      "stateMutability": "view",
      "type": "function"
    },
    {
      "inputs": [
        {
          "internalType": "address",
          "name": "_account",
          "type": "address"
        }
      ],
      "name": "isPauser",
      "outputs": [
        {
          "internalType": "bool",
          "name": "",
          "type": "bool"
        }
      ],
      "stateMutability": "view",
      "type": "function"
    },
    {
      "inputs": [],
      "name": "minActivatingDeposit",
      "outputs": [
        {
          "internalType": "uint256",
          "name": "",
          "type": "uint256"
        }
      ],
      "stateMutability": "view",
      "type": "function"
    },
    {
      "inputs": [],
      "name": "pause",
      "outputs": [],
      "stateMutability": "nonpayable",
      "type": "function"
    },
    {
      "inputs": [],
      "name": "paused",
      "outputs": [
        {
          "internalType": "bool",
          "name": "",
          "type": "bool"
        }
      ],
      "stateMutability": "view",
      "type": "function"
    },
    {
      "inputs": [],
      "name": "pendingValidators",
      "outputs": [
        {
          "internalType": "uint256",
          "name": "",
          "type": "uint256"
        }
      ],
      "stateMutability": "view",
      "type": "function"
    },
    {
      "inputs": [],
      "name": "pendingValidatorsLimit",
      "outputs": [
        {
          "internalType": "uint256",
          "name": "",
          "type": "uint256"
        }
      ],
      "stateMutability": "view",
      "type": "function"
    },
    {
      "inputs": [],
      "name": "receiveFees",
      "outputs": [],
      "stateMutability": "payable",
      "type": "function"
    },
    {
      "inputs": [],
      "name": "receiveWithoutActivation",
      "outputs": [],
      "stateMutability": "payable",
      "type": "function"
    },
    {
      "inputs": [
        {
          "components": [
            {
              "internalType": "address",
              "name": "operator",
              "type": "address"
            },
            {
              "internalType": "bytes32",
              "name": "withdrawalCredentials",
              "type": "bytes32"
            },
            {
              "internalType": "bytes32",
              "name": "depositDataRoot",
              "type": "bytes32"
            },
            {
              "internalType": "bytes",
              "name": "publicKey",
              "type": "bytes"
            },
            {
              "internalType": "bytes",
              "name": "signature",
              "type": "bytes"
            }
          ],
          "internalType": "struct IPoolValidators.DepositData",
          "name": "depositData",
          "type": "tuple"
        }
      ],
      "name": "registerValidator",
      "outputs": [],
      "stateMutability": "nonpayable",
      "type": "function"
    },
    {
      "inputs": [
        {
          "internalType": "address",
          "name": "_account",
          "type": "address"
        }
      ],
      "name": "removeAdmin",
      "outputs": [],
      "stateMutability": "nonpayable",
      "type": "function"
    },
    {
      "inputs": [
        {
          "internalType": "address",
          "name": "_account",
          "type": "address"
        }
      ],
      "name": "removePauser",
      "outputs": [],
      "stateMutability": "nonpayable",
      "type": "function"
    },
    {
      "inputs": [
        {
          "internalType": "bytes32",
          "name": "role",
          "type": "bytes32"
        },
        {
          "internalType": "address",
          "name": "account",
          "type": "address"
        }
      ],
      "name": "renounceRole",
      "outputs": [],
      "stateMutability": "nonpayable",
      "type": "function"
    },
    {
      "inputs": [
        {
          "internalType": "bytes32",
          "name": "role",
          "type": "bytes32"
        },
        {
          "internalType": "address",
          "name": "account",
          "type": "address"
        }
      ],
      "name": "revokeRole",
      "outputs": [],
      "stateMutability": "nonpayable",
      "type": "function"
    },
    {
      "inputs": [
        {
          "internalType": "uint256",
          "name": "newActivatedValidators",
          "type": "uint256"
        }
      ],
      "name": "setActivatedValidators",
      "outputs": [],
      "stateMutability": "nonpayable",
      "type": "function"
    },
    {
      "inputs": [
        {
          "internalType": "uint256",
          "name": "newExitedValidators",
          "type": "uint256"
        }
      ],
      "name": "setExitedValidators",
      "outputs": [],
      "stateMutability": "nonpayable",
      "type": "function"
    },
    {
      "inputs": [
        {
          "internalType": "uint256",
          "name": "newMinActivatingDeposit",
          "type": "uint256"
        }
      ],
      "name": "setMinActivatingDeposit",
      "outputs": [],
      "stateMutability": "nonpayable",
      "type": "function"
    },
    {
      "inputs": [
        {
          "internalType": "uint256",
          "name": "newPendingValidatorsLimit",
          "type": "uint256"
        }
      ],
      "name": "setPendingValidatorsLimit",
      "outputs": [],
      "stateMutability": "nonpayable",
      "type": "function"
    },
    {
      "inputs": [],
      "name": "stake",
      "outputs": [],
      "stateMutability": "payable",
      "type": "function"
    },
    {
      "inputs": [
        {
          "internalType": "address",
          "name": "recipient",
          "type": "address"
        }
      ],
      "name": "stakeOnBehalf",
      "outputs": [],
      "stateMutability": "payable",
      "type": "function"
    },
    {
      "inputs": [
        {
          "internalType": "address",
          "name": "partner",
          "type": "address"
        }
      ],
      "name": "stakeWithPartner",
      "outputs": [],
      "stateMutability": "payable",
      "type": "function"
    },
    {
      "inputs": [
        {
          "internalType": "address",
          "name": "partner",
          "type": "address"
        },
        {
          "internalType": "address",
          "name": "recipient",
          "type": "address"
        }
      ],
      "name": "stakeWithPartnerOnBehalf",
      "outputs": [],
      "stateMutability": "payable",
      "type": "function"
    },
    {
      "inputs": [
        {
          "internalType": "address",
          "name": "referrer",
          "type": "address"
        }
      ],
      "name": "stakeWithReferrer",
      "outputs": [],
      "stateMutability": "payable",
      "type": "function"
    },
    {
      "inputs": [
        {
          "internalType": "address",
          "name": "referrer",
          "type": "address"
        },
        {
          "internalType": "address",
          "name": "recipient",
          "type": "address"
        }
      ],
      "name": "stakeWithReferrerOnBehalf",
      "outputs": [],
      "stateMutability": "payable",
      "type": "function"
    },
    {
      "inputs": [
        {
          "internalType": "bytes4",
          "name": "interfaceId",
          "type": "bytes4"
        }
      ],
      "name": "supportsInterface",
      "outputs": [
        {
          "internalType": "bool",
          "name": "",
          "type": "bool"
        }
      ],
      "stateMutability": "view",
      "type": "function"
    },
    {
      "inputs": [],
      "name": "unpause",
      "outputs": [],
      "stateMutability": "nonpayable",
      "type": "function"
    },
    {
      "inputs": [],
      "name": "validatorRegistration",
      "outputs": [
        {
          "internalType": "contract IDepositContract",
          "name": "",
          "type": "address"
        }
      ],
      "stateMutability": "view",
      "type": "function"
    },
    {
      "inputs": [],
      "name": "withdrawalCredentials",
      "outputs": [
        {
          "internalType": "bytes32",
          "name": "",
          "type": "bytes32"
        }
      ],
      "stateMutability": "view",
      "type": "function"
    },
    {
      "stateMutability": "payable",
      "type": "receive"
    }
  ],
  "bytecode": "0x608060405234801561000f575f80fd5b506145828061001d5f395ff3fe60806040526004361061026a575f3560e01c80635cfbd61011610143578063a217fddf116100b5578063d547741f11610079578063d547741f1461085d578063da44e9c514610885578063e63ab1e9146108af578063e7f95334146108d9578063f44e383f14610915578063f60bb7201461093f5761027b565b8063a217fddf1461078f578063a82f255b146107b9578063bee550f0146107e3578063ca11be691461080b578063cb203b1a146108335761027b565b80638456cb59116101075780638456cb59146106b3578063899b7c74146106c957806391d14854146106f3578063972d7ac91461072f5780639a548a44146107575780639cc776f5146107735761027b565b80635cfbd610146105d55780636b2c0f5514610611578063704802751461063957806377aec5211461066157806382dc1ec41461068b5761027b565b80633882b1c9116101dc57806346fbf68e116101a057806346fbf68e146104cb5780634cd79e0a1461050757806358e5d88b1461053157806359c53656146105595780635b49dc08146105815780635c975abb146105ab5761027b565b80633882b1c91461043d5780633a4b66f1146104675780633a76e0a2146104715780633f4ba83a14610499578063461a9523146104af5761027b565b80631a9b374f1161022e5780631a9b374f14610343578063248a9ca31461034d57806324d7806c146103895780632f2ff15d146103c5578063359b4359146103ed57806336568abe146104155761027b565b806301ffc9a71461027f5780630395501f146102bb578063040dee8a146102d7578063111f052c146102f35780631785f53c1461031b5761027b565b3661027b576102793334610949565b005b5f80fd5b34801561028a575f80fd5b506102a560048036038101906102a09190612e11565b610f15565b6040516102b29190612e56565b60405180910390f35b6102d560048036038101906102d09190612ec9565b610f8e565b005b6102f160048036038101906102ec9190612ef4565b610ff9565b005b3480156102fe575f80fd5b5061031960048036038101906103149190612f65565b611065565b005b348015610326575f80fd5b50610341600480360381019061033c9190612ec9565b611138565b005b61034b611147565b005b348015610358575f80fd5b50610373600480360381019061036e9190612fc3565b6111eb565b6040516103809190612ffd565b60405180910390f35b348015610394575f80fd5b506103af60048036038101906103aa9190612ec9565b611208565b6040516103bc9190612e56565b60405180910390f35b3480156103d0575f80fd5b506103eb60048036038101906103e69190613016565b61121c565b005b3480156103f8575f80fd5b50610413600480360381019061040e9190613076565b61123d565b005b348015610420575f80fd5b5061043b60048036038101906104369190613016565b611470565b005b348015610448575f80fd5b506104516114f3565b60405161045e91906130cc565b60405180910390f35b61046f6114f9565b005b34801561047c575f80fd5b5061049760048036038101906104929190613146565b611515565b005b3480156104a4575f80fd5b506104ad61163b565b005b6104c960048036038101906104c49190612ec9565b6116ae565b005b3480156104d6575f80fd5b506104f160048036038101906104ec9190612ec9565b611719565b6040516104fe9190612e56565b60405180910390f35b348015610512575f80fd5b5061051b61174b565b6040516105289190612ffd565b60405180910390f35b34801561053c575f80fd5b5061055760048036038101906105529190612f65565b611751565b005b348015610564575f80fd5b5061057f600480360381019061057a9190612f65565b611839565b005b34801561058c575f80fd5b50610595611942565b6040516105a291906130cc565b60405180910390f35b3480156105b6575f80fd5b506105bf611949565b6040516105cc9190612e56565b60405180910390f35b3480156105e0575f80fd5b506105fb60048036038101906105f69190612f65565b61195e565b6040516106089190612e56565b60405180910390f35b34801561061c575f80fd5b5061063760048036038101906106329190612ec9565b6119a6565b005b348015610644575f80fd5b5061065f600480360381019061065a9190612ec9565b6119d3565b005b34801561066c575f80fd5b506106756119e2565b60405161068291906130cc565b60405180910390f35b348015610696575f80fd5b506106b160048036038101906106ac9190612ec9565b6119ef565b005b3480156106be575f80fd5b506106c7611a1c565b005b3480156106d4575f80fd5b506106dd611a8f565b6040516106ea91906130cc565b60405180910390f35b3480156106fe575f80fd5b5061071960048036038101906107149190613016565b611a95565b6040516107269190612e56565b60405180910390f35b34801561073a575f80fd5b5061075560048036038101906107509190612f65565b611af9565b005b610771600480360381019061076c9190612ef4565b611b88565b005b61078d60048036038101906107889190612ec9565b611bf4565b005b34801561079a575f80fd5b506107a3611c11565b6040516107b09190612ffd565b60405180910390f35b3480156107c4575f80fd5b506107cd611c17565b6040516107da91906130cc565b60405180910390f35b3480156107ee575f80fd5b50610809600480360381019061080491906131a3565b611c1e565b005b348015610816575f80fd5b50610831600480360381019061082c9190613267565b612192565b005b34801561083e575f80fd5b50610847612268565b60405161085491906130cc565b60405180910390f35b348015610868575f80fd5b50610883600480360381019061087e9190613016565b61227e565b005b348015610890575f80fd5b5061089961229f565b6040516108a691906130cc565b60405180910390f35b3480156108ba575f80fd5b506108c36122a6565b6040516108d09190612ffd565b60405180910390f35b3480156108e4575f80fd5b506108ff60048036038101906108fa9190613267565b6122ca565b60405161090c91906130cc565b60405180910390f35b348015610920575f80fd5b506109296122eb565b6040516109369190613300565b60405180910390f35b610947612310565b005b610951612312565b5f73ffffffffffffffffffffffffffffffffffffffff168273ffffffffffffffffffffffffffffffffffffffff16036109bf576040517f08c379a00000000000000000000000000000000000000000000000000000000081526004016109b690613373565b60405180910390fd5b5f8111610a01576040517f08c379a00000000000000000000000000000000000000000000000000000000081526004016109f8906133db565b60405180910390fd5b5f60ff5f9054906101000a900473ffffffffffffffffffffffffffffffffffffffff1673ffffffffffffffffffffffffffffffffffffffff166310fbf7136040518163ffffffff1660e01b8152600401602060405180830381865afa158015610a6c573d5f803e3d5ffd5b505050506040513d601f19601f82011682018060405250810190610a909190613423565b610b315760ff5f9054906101000a900473ffffffffffffffffffffffffffffffffffffffff1673ffffffffffffffffffffffffffffffffffffffff1663167bd1d8836040518263ffffffff1660e01b8152600401610aee91906130cc565b6020604051808303815f875af1158015610b0a573d5f803e3d5ffd5b505050506040513d601f19601f82011682018060405250810190610b2e9190613462565b90505b5f811115610bc2576101005f9054906101000a900473ffffffffffffffffffffffffffffffffffffffff1673ffffffffffffffffffffffffffffffffffffffff1681604051610b7f906134ba565b5f6040518083038185875af1925050503d805f8114610bb9576040519150601f19603f3d011682016040523d82523d5f602084013e610bbe565b606091505b5050505b5f8183610bcf91906134fb565b9050610105548111610c6e5760ff5f9054906101000a900473ffffffffffffffffffffffffffffffffffffffff1673ffffffffffffffffffffffffffffffffffffffff16637580d920858560016040518463ffffffff1660e01b8152600401610c3a9392919061356d565b5f604051808303815f87803b158015610c51575f80fd5b505af1158015610c63573d5f803e3d5ffd5b505050505050610f11565b5f6801bc16d674ec80000047610c8491906135e2565b61010454610c929190613612565b90505f60fb5490505f8282610ca79190613612565b905061010654610cb5612268565b610cbf9190613645565b61271083610ccd9190613645565b610cd79190613612565b61271082610ce59190613645565b11610d7b5760ff5f9054906101000a900473ffffffffffffffffffffffffffffffffffffffff1673ffffffffffffffffffffffffffffffffffffffff16637580d920888860016040518463ffffffff1660e01b8152600401610d499392919061356d565b5f604051808303815f87803b158015610d60575f80fd5b505af1158015610d72573d5f803e3d5ffd5b50505050610f0b565b5f851115610e105760ff5f9054906101000a900473ffffffffffffffffffffffffffffffffffffffff1673ffffffffffffffffffffffffffffffffffffffff16637580d920888760016040518463ffffffff1660e01b8152600401610de29392919061356d565b5f604051808303815f87803b158015610df9575f80fd5b505af1158015610e0b573d5f803e3d5ffd5b505050505b836101035f8973ffffffffffffffffffffffffffffffffffffffff1673ffffffffffffffffffffffffffffffffffffffff1681526020019081526020015f205f8381526020019081526020015f2054610e699190613612565b6101035f8973ffffffffffffffffffffffffffffffffffffffff1673ffffffffffffffffffffffffffffffffffffffff1681526020019081526020015f205f8381526020019081526020015f20819055508673ffffffffffffffffffffffffffffffffffffffff167f120d5ad3462d3df3f0abd736b8b4770ec826cf7b160eafb242311244031a0d418286604051610f02929190613686565b60405180910390a25b50505050505b5050565b5f7f7965db0b000000000000000000000000000000000000000000000000000000007bffffffffffffffffffffffffffffffffffffffffffffffffffffffff1916827bffffffffffffffffffffffffffffffffffffffffffffffffffffffff19161480610f875750610f868261235c565b5b9050919050565b610f966123c5565b610fa03334610949565b8073ffffffffffffffffffffffffffffffffffffffff167f7453795bdd80e63f3d8595c0aa3a0e0b431b2ffedb3f2a3256b67975e9dbdcc934604051610fe691906130cc565b60405180910390a2610ff6612414565b50565b6110016123c5565b61100b8134610949565b8173ffffffffffffffffffffffffffffffffffffffff167f2f6cbf015ae7f747147c62891da8bad454d58bd9fe94d218ecc3dbbfbd48c16e3460405161105191906130cc565b60405180910390a2611061612414565b5050565b6110715f801b33611a95565b6110b0576040517f08c379a00000000000000000000000000000000000000000000000000000000081526004016110a7906136f7565b60405180910390fd5b61271081106110f4576040517f08c379a00000000000000000000000000000000000000000000000000000000081526004016110eb9061375f565b60405180910390fd5b80610106819055507fa528a02bba19dba78e3479c018f780883587a8e5b68ccf22d26903e7b55ebd0f813360405161112d92919061377d565b60405180910390a150565b6111445f801b8261227e565b50565b60ff5f9054906101000a900473ffffffffffffffffffffffffffffffffffffffff1673ffffffffffffffffffffffffffffffffffffffff163373ffffffffffffffffffffffffffffffffffffffff1614806111aa57506111a95f801b33611a95565b5b6111e9576040517f08c379a00000000000000000000000000000000000000000000000000000000081526004016111e0906137ee565b60405180910390fd5b565b5f60975f8381526020019081526020015f20600101549050919050565b5f6112155f801b83611a95565b9050919050565b611225826111eb565b61122e8161241e565b6112388383612432565b505050565b611245612312565b6101015f9054906101000a900473ffffffffffffffffffffffffffffffffffffffff1673ffffffffffffffffffffffffffffffffffffffff163373ffffffffffffffffffffffffffffffffffffffff16146112d5576040517f08c379a00000000000000000000000000000000000000000000000000000000081526004016112cc906137ee565b60405180910390fd5b60fd5481602001351461131d576040517f08c379a00000000000000000000000000000000000000000000000000000000081526004016113149061387c565b60405180910390fd5b60016101045461132d9190613612565b610104819055507f7cb7aef9bd2e5ee3f6073019691bb332fe3ef290465065aca1b9983f3dc66c5681806060019061136591906138a6565b835f0160208101906113779190612ec9565b60405161138693929190613952565b60405180910390a160fe5f9054906101000a900473ffffffffffffffffffffffffffffffffffffffff1673ffffffffffffffffffffffffffffffffffffffff1663228951186801bc16d674ec8000008380606001906113e591906138a6565b85602001356040516020016113fa91906139a2565b60405160208183030381529060405286806080019061141991906138a6565b88604001356040518863ffffffff1660e01b815260040161143f96959493929190613a26565b5f604051808303818588803b158015611456575f80fd5b505af1158015611468573d5f803e3d5ffd5b505050505050565b61147861250d565b73ffffffffffffffffffffffffffffffffffffffff168173ffffffffffffffffffffffffffffffffffffffff16146114e5576040517f08c379a00000000000000000000000000000000000000000000000000000000081526004016114dc90613af2565b60405180910390fd5b6114ef8282612514565b5050565b60fc5481565b6115016123c5565b61150b3334610949565b611513612414565b565b61151d612312565b5f806101065461152b612268565b6115359190613645565b61271060fb546115459190613645565b61154f9190613612565b90505f5b848490508110156115a7575f6115838787878581811061157657611575613b10565b5b90506020020135856125ef565b905080846115919190613612565b935050808061159f90613b3d565b915050611553565b5060ff5f9054906101000a900473ffffffffffffffffffffffffffffffffffffffff1673ffffffffffffffffffffffffffffffffffffffff16637580d920868460016040518463ffffffff1660e01b81526004016116079392919061356d565b5f604051808303815f87803b15801561161e575f80fd5b505af1158015611630573d5f803e3d5ffd5b505050505050505050565b6116657f65d7a28e3265b37a6474929f336521b332c1681b933f6cb9f3376673440d862a33611a95565b6116a4576040517f08c379a000000000000000000000000000000000000000000000000000000000815260040161169b906136f7565b60405180910390fd5b6116ac612790565b565b6116b66123c5565b6116c03334610949565b8073ffffffffffffffffffffffffffffffffffffffff167f2f6cbf015ae7f747147c62891da8bad454d58bd9fe94d218ecc3dbbfbd48c16e3460405161170691906130cc565b60405180910390a2611716612414565b50565b5f6117447f65d7a28e3265b37a6474929f336521b332c1681b933f6cb9f3376673440d862a83611a95565b9050919050565b60fd5481565b6101025f9054906101000a900473ffffffffffffffffffffffffffffffffffffffff1673ffffffffffffffffffffffffffffffffffffffff163373ffffffffffffffffffffffffffffffffffffffff1614806117b557506117b45f801b33611a95565b5b6117f4576040517f08c379a00000000000000000000000000000000000000000000000000000000081526004016117eb906137ee565b60405180910390fd5b8060fc819055507fae782dd04794915ff962e50395e8d98b41e7086283ed968735cedbd8b6c14b3660fc543360405161182e92919061377d565b60405180910390a150565b6101025f9054906101000a900473ffffffffffffffffffffffffffffffffffffffff1673ffffffffffffffffffffffffffffffffffffffff163373ffffffffffffffffffffffffffffffffffffffff16148061189d575061189c5f801b33611a95565b5b6118dc576040517f08c379a00000000000000000000000000000000000000000000000000000000081526004016118d3906137ee565b60405180910390fd5b60fb54816118ea91906134fb565b610104546118f891906134fb565b610104819055508060fb819055507f9a6b27e7e3aa16c645fb0310171319c2e6c6545b09b8cbc647aa105c06afca16813360405161193792919061377d565b60405180910390a150565b6101065481565b5f60335f9054906101000a900460ff16905090565b5f6101065461196b612268565b6119759190613645565b61271060fb546119859190613645565b61198f9190613612565b6127108361199d9190613645565b11159050919050565b6119d07f65d7a28e3265b37a6474929f336521b332c1681b933f6cb9f3376673440d862a8261227e565b50565b6119df5f801b8261121c565b50565b6801bc16d674ec80000081565b611a197f65d7a28e3265b37a6474929f336521b332c1681b933f6cb9f3376673440d862a8261121c565b50565b611a467f65d7a28e3265b37a6474929f336521b332c1681b933f6cb9f3376673440d862a33611a95565b611a85576040517f08c379a0000000000000000000000000000000000000000000000000000000008152600401611a7c906136f7565b60405180910390fd5b611a8d6127f1565b565b60fb5481565b5f60975f8481526020019081526020015f205f015f8373ffffffffffffffffffffffffffffffffffffffff1673ffffffffffffffffffffffffffffffffffffffff1681526020019081526020015f205f9054906101000a900460ff16905092915050565b611b055f801b33611a95565b611b44576040517f08c379a0000000000000000000000000000000000000000000000000000000008152600401611b3b906136f7565b60405180910390fd5b80610105819055507fb9fbf3c7352807cc0abd73e713e71e2b1592fd4ac8a6872e7ed12bfe8ebc32518133604051611b7d92919061377d565b60405180910390a150565b611b906123c5565b611b9a8134610949565b8173ffffffffffffffffffffffffffffffffffffffff167f7453795bdd80e63f3d8595c0aa3a0e0b431b2ffedb3f2a3256b67975e9dbdcc934604051611be091906130cc565b60405180910390a2611bf0612414565b5050565b611bfc6123c5565b611c068134610949565b611c0e612414565b50565b5f801b81565b6101045481565b5f8060019054906101000a900460ff16159050808015611c4d575060015f8054906101000a900460ff1660ff16105b80611c795750611c5c30612853565b158015611c78575060015f8054906101000a900460ff1660ff16145b5b611cb8576040517f08c379a0000000000000000000000000000000000000000000000000000000008152600401611caf90613bf4565b60405180910390fd5b60015f806101000a81548160ff021916908360ff1602179055508015611cf35760015f60016101000a81548160ff0219169083151502179055505b5f73ffffffffffffffffffffffffffffffffffffffff168973ffffffffffffffffffffffffffffffffffffffff1603611d61576040517f08c379a0000000000000000000000000000000000000000000000000000000008152600401611d5890613c82565b60405180910390fd5b5f73ffffffffffffffffffffffffffffffffffffffff168873ffffffffffffffffffffffffffffffffffffffff1603611dcf576040517f08c379a0000000000000000000000000000000000000000000000000000000008152600401611dc690613d10565b60405180910390fd5b5f73ffffffffffffffffffffffffffffffffffffffff168a73ffffffffffffffffffffffffffffffffffffffff1603611e3d576040517f08c379a0000000000000000000000000000000000000000000000000000000008152600401611e3490613d9e565b60405180910390fd5b5f73ffffffffffffffffffffffffffffffffffffffff168673ffffffffffffffffffffffffffffffffffffffff1603611eab576040517f08c379a0000000000000000000000000000000000000000000000000000000008152600401611ea290613e2c565b60405180910390fd5b5f73ffffffffffffffffffffffffffffffffffffffff168473ffffffffffffffffffffffffffffffffffffffff1603611f19576040517f08c379a0000000000000000000000000000000000000000000000000000000008152600401611f1090613eba565b60405180910390fd5b5f73ffffffffffffffffffffffffffffffffffffffff168773ffffffffffffffffffffffffffffffffffffffff1603611f87576040517f08c379a0000000000000000000000000000000000000000000000000000000008152600401611f7e90613f48565b60405180910390fd5b5f801b8503611fcb576040517f08c379a0000000000000000000000000000000000000000000000000000000008152600401611fc290613fd6565b60405180910390fd5b611fd48a612875565b8860ff5f6101000a81548173ffffffffffffffffffffffffffffffffffffffff021916908373ffffffffffffffffffffffffffffffffffffffff160217905550876101005f6101000a81548173ffffffffffffffffffffffffffffffffffffffff021916908373ffffffffffffffffffffffffffffffffffffffff160217905550866101015f6101000a81548173ffffffffffffffffffffffffffffffffffffffff021916908373ffffffffffffffffffffffffffffffffffffffff160217905550856101025f6101000a81548173ffffffffffffffffffffffffffffffffffffffff021916908373ffffffffffffffffffffffffffffffffffffffff1602179055508460fd819055508360fe5f6101000a81548173ffffffffffffffffffffffffffffffffffffffff021916908373ffffffffffffffffffffffffffffffffffffffff160217905550826101058190555081610106819055508015612186575f8060016101000a81548160ff0219169083151502179055507f7f26b83ff96e1f2b6a682f133852f6798a09c465da95921460cefb3847402498600160405161217d9190614039565b60405180910390a15b50505050505050505050565b61219a612312565b5f6121d58383610106546121ac612268565b6121b69190613645565b61271060fb546121c69190613645565b6121d09190613612565b6125ef565b905060ff5f9054906101000a900473ffffffffffffffffffffffffffffffffffffffff1673ffffffffffffffffffffffffffffffffffffffff16637580d920848360016040518463ffffffff1660e01b81526004016122369392919061356d565b5f604051808303815f87803b15801561224d575f80fd5b505af115801561225f573d5f803e3d5ffd5b50505050505050565b5f60fc5460fb5461227991906134fb565b905090565b612287826111eb565b6122908161241e565b61229a8383612514565b505050565b6101055481565b7f65d7a28e3265b37a6474929f336521b332c1681b933f6cb9f3376673440d862a81565b610103602052815f5260405f20602052805f5260405f205f91509150505481565b60fe5f9054906101000a900473ffffffffffffffffffffffffffffffffffffffff1681565b565b61231a611949565b1561235a576040517f08c379a00000000000000000000000000000000000000000000000000000000081526004016123519061409c565b60405180910390fd5b565b5f7f01ffc9a7000000000000000000000000000000000000000000000000000000007bffffffffffffffffffffffffffffffffffffffffffffffffffffffff1916827bffffffffffffffffffffffffffffffffffffffffffffffffffffffff1916149050919050565b600260c9540361240a576040517f08c379a000000000000000000000000000000000000000000000000000000000815260040161240190614104565b60405180910390fd5b600260c981905550565b600160c981905550565b61242f8161242a61250d565b6128e7565b50565b61243c8282611a95565b61250957600160975f8481526020019081526020015f205f015f8373ffffffffffffffffffffffffffffffffffffffff1673ffffffffffffffffffffffffffffffffffffffff1681526020019081526020015f205f6101000a81548160ff0219169083151502179055506124ae61250d565b73ffffffffffffffffffffffffffffffffffffffff168173ffffffffffffffffffffffffffffffffffffffff16837f2f8788117e7eff1d82e926ec794901d17c78024a50270940304540a733656f0d60405160405180910390a45b5050565b5f33905090565b61251e8282611a95565b156125eb575f60975f8481526020019081526020015f205f015f8373ffffffffffffffffffffffffffffffffffffffff1673ffffffffffffffffffffffffffffffffffffffff1681526020019081526020015f205f6101000a81548160ff02191690831515021790555061259061250d565b73ffffffffffffffffffffffffffffffffffffffff168173ffffffffffffffffffffffffffffffffffffffff16837ff6391f5c32d9c69d2a47ea670b442974b53935d1edc7fd64eb21e047a839171b60405160405180910390a45b5050565b5f81612710846125ff9190613645565b1115612640576040517f08c379a000000000000000000000000000000000000000000000000000000000815260040161263790614192565b60405180910390fd5b6101035f8573ffffffffffffffffffffffffffffffffffffffff1673ffffffffffffffffffffffffffffffffffffffff1681526020019081526020015f205f8481526020019081526020015f205490505f81116126d2576040517f08c379a00000000000000000000000000000000000000000000000000000000081526004016126c9906141fa565b60405180910390fd5b6101035f8573ffffffffffffffffffffffffffffffffffffffff1673ffffffffffffffffffffffffffffffffffffffff1681526020019081526020015f205f8481526020019081526020015f205f90553373ffffffffffffffffffffffffffffffffffffffff168473ffffffffffffffffffffffffffffffffffffffff167f5d5cc41341077fc8907130f1a5db8c754d0b286b8121170b6dc4741b1658849a8584604051612781929190613686565b60405180910390a39392505050565b61279861296b565b5f60335f6101000a81548160ff0219169083151502179055507f5db9ee0a495bf2e6ff9c91a7834c1ba4fdd244a5e8aa4e537bd38aeae4b073aa6127da61250d565b6040516127e79190614218565b60405180910390a1565b6127f9612312565b600160335f6101000a81548160ff0219169083151502179055507f62e78cea01bee320cd4e420270b5ea74000d11b0c9f74754ebdbfc544b05a25861283c61250d565b6040516128499190614218565b60405180910390a1565b5f808273ffffffffffffffffffffffffffffffffffffffff163b119050919050565b5f60019054906101000a900460ff166128c3576040517f08c379a00000000000000000000000000000000000000000000000000000000081526004016128ba906142a1565b60405180910390fd5b6128cb6129b4565b6128d3612a04565b6128db612a54565b6128e481612abd565b50565b6128f18282611a95565b612967576128fe81612b44565b61290b835f1c6020612b71565b60405160200161291c929190614397565b6040516020818303038152906040526040517f08c379a000000000000000000000000000000000000000000000000000000000815260040161295e9190614408565b60405180910390fd5b5050565b612973611949565b6129b2576040517f08c379a00000000000000000000000000000000000000000000000000000000081526004016129a990614472565b60405180910390fd5b565b5f60019054906101000a900460ff16612a02576040517f08c379a00000000000000000000000000000000000000000000000000000000081526004016129f9906142a1565b60405180910390fd5b565b5f60019054906101000a900460ff16612a52576040517f08c379a0000000000000000000000000000000000000000000000000000000008152600401612a49906142a1565b60405180910390fd5b565b5f60019054906101000a900460ff16612aa2576040517f08c379a0000000000000000000000000000000000000000000000000000000008152600401612a99906142a1565b60405180910390fd5b5f60335f6101000a81548160ff021916908315150217905550565b5f60019054906101000a900460ff16612b0b576040517f08c379a0000000000000000000000000000000000000000000000000000000008152600401612b02906142a1565b60405180910390fd5b612b175f801b82612da6565b612b417f65d7a28e3265b37a6474929f336521b332c1681b933f6cb9f3376673440d862a82612da6565b50565b6060612b6a8273ffffffffffffffffffffffffffffffffffffffff16601460ff16612b71565b9050919050565b60605f6002836002612b839190613645565b612b8d9190613612565b67ffffffffffffffff811115612ba657612ba5614490565b5b6040519080825280601f01601f191660200182016040528015612bd85781602001600182028036833780820191505090505b5090507f3000000000000000000000000000000000000000000000000000000000000000815f81518110612c0f57612c0e613b10565b5b60200101907effffffffffffffffffffffffffffffffffffffffffffffffffffffffffffff191690815f1a9053507f780000000000000000000000000000000000000000000000000000000000000081600181518110612c7257612c71613b10565b5b60200101907effffffffffffffffffffffffffffffffffffffffffffffffffffffffffffff191690815f1a9053505f6001846002612cb09190613645565b612cba9190613612565b90505b6001811115612d59577f3031323334353637383961626364656600000000000000000000000000000000600f861660108110612cfc57612cfb613b10565b5b1a60f81b828281518110612d1357612d12613b10565b5b60200101907effffffffffffffffffffffffffffffffffffffffffffffffffffffffffffff191690815f1a905350600485901c945080612d52906144bd565b9050612cbd565b505f8414612d9c576040517f08c379a0000000000000000000000000000000000000000000000000000000008152600401612d939061452e565b60405180910390fd5b8091505092915050565b612db08282612432565b5050565b5f80fd5b5f80fd5b5f7fffffffff0000000000000000000000000000000000000000000000000000000082169050919050565b612df081612dbc565b8114612dfa575f80fd5b50565b5f81359050612e0b81612de7565b92915050565b5f60208284031215612e2657612e25612db4565b5b5f612e3384828501612dfd565b91505092915050565b5f8115159050919050565b612e5081612e3c565b82525050565b5f602082019050612e695f830184612e47565b92915050565b5f73ffffffffffffffffffffffffffffffffffffffff82169050919050565b5f612e9882612e6f565b9050919050565b612ea881612e8e565b8114612eb2575f80fd5b50565b5f81359050612ec381612e9f565b92915050565b5f60208284031215612ede57612edd612db4565b5b5f612eeb84828501612eb5565b91505092915050565b5f8060408385031215612f0a57612f09612db4565b5b5f612f1785828601612eb5565b9250506020612f2885828601612eb5565b9150509250929050565b5f819050919050565b612f4481612f32565b8114612f4e575f80fd5b50565b5f81359050612f5f81612f3b565b92915050565b5f60208284031215612f7a57612f79612db4565b5b5f612f8784828501612f51565b91505092915050565b5f819050919050565b612fa281612f90565b8114612fac575f80fd5b50565b5f81359050612fbd81612f99565b92915050565b5f60208284031215612fd857612fd7612db4565b5b5f612fe584828501612faf565b91505092915050565b612ff781612f90565b82525050565b5f6020820190506130105f830184612fee565b92915050565b5f806040838503121561302c5761302b612db4565b5b5f61303985828601612faf565b925050602061304a85828601612eb5565b9150509250929050565b5f80fd5b5f60a0828403121561306d5761306c613054565b5b81905092915050565b5f6020828403121561308b5761308a612db4565b5b5f82013567ffffffffffffffff8111156130a8576130a7612db8565b5b6130b484828501613058565b91505092915050565b6130c681612f32565b82525050565b5f6020820190506130df5f8301846130bd565b92915050565b5f80fd5b5f80fd5b5f80fd5b5f8083601f840112613106576131056130e5565b5b8235905067ffffffffffffffff811115613123576131226130e9565b5b60208301915083602082028301111561313f5761313e6130ed565b5b9250929050565b5f805f6040848603121561315d5761315c612db4565b5b5f61316a86828701612eb5565b935050602084013567ffffffffffffffff81111561318b5761318a612db8565b5b613197868287016130f1565b92509250509250925092565b5f805f805f805f805f6101208a8c0312156131c1576131c0612db4565b5b5f6131ce8c828d01612eb5565b99505060206131df8c828d01612eb5565b98505060406131f08c828d01612eb5565b97505060606132018c828d01612eb5565b96505060806132128c828d01612eb5565b95505060a06132238c828d01612faf565b94505060c06132348c828d01612eb5565b93505060e06132458c828d01612f51565b9250506101006132578c828d01612f51565b9150509295985092959850929598565b5f806040838503121561327d5761327c612db4565b5b5f61328a85828601612eb5565b925050602061329b85828601612f51565b9150509250929050565b5f819050919050565b5f6132c86132c36132be84612e6f565b6132a5565b612e6f565b9050919050565b5f6132d9826132ae565b9050919050565b5f6132ea826132cf565b9050919050565b6132fa816132e0565b82525050565b5f6020820190506133135f8301846132f1565b92915050565b5f82825260208201905092915050565b7f506f6f6c3a20696e76616c696420726563697069656e740000000000000000005f82015250565b5f61335d601783613319565b915061336882613329565b602082019050919050565b5f6020820190508181035f83015261338a81613351565b9050919050565b7f506f6f6c3a20696e76616c6964206465706f73697420616d6f756e74000000005f82015250565b5f6133c5601c83613319565b91506133d082613391565b602082019050919050565b5f6020820190508181035f8301526133f2816133b9565b9050919050565b61340281612e3c565b811461340c575f80fd5b50565b5f8151905061341d816133f9565b92915050565b5f6020828403121561343857613437612db4565b5b5f6134458482850161340f565b91505092915050565b5f8151905061345c81612f3b565b92915050565b5f6020828403121561347757613476612db4565b5b5f6134848482850161344e565b91505092915050565b5f81905092915050565b50565b5f6134a55f8361348d565b91506134b082613497565b5f82019050919050565b5f6134c48261349a565b9150819050919050565b7f4e487b71000000000000000000000000000000000000000000000000000000005f52601160045260245ffd5b5f61350582612f32565b915061351083612f32565b9250828203905081811115613528576135276134ce565b5b92915050565b61353781612e8e565b82525050565b5f82825260208201905092915050565b5f6135585f8361353d565b915061356382613497565b5f82019050919050565b5f6080820190506135805f83018661352e565b61358d60208301856130bd565b61359a6040830184612e47565b81810360608301526135ab8161354d565b9050949350505050565b7f4e487b71000000000000000000000000000000000000000000000000000000005f52601260045260245ffd5b5f6135ec82612f32565b91506135f783612f32565b925082613607576136066135b5565b5b828204905092915050565b5f61361c82612f32565b915061362783612f32565b925082820190508082111561363f5761363e6134ce565b5b92915050565b5f61364f82612f32565b915061365a83612f32565b925082820261366881612f32565b9150828204841483151761367f5761367e6134ce565b5b5092915050565b5f6040820190506136995f8301856130bd565b6136a660208301846130bd565b9392505050565b7f4f776e61626c655061757361626c653a206163636573732064656e69656400005f82015250565b5f6136e1601e83613319565b91506136ec826136ad565b602082019050919050565b5f6020820190508181035f83015261370e816136d5565b9050919050565b7f506f6f6c3a20696e76616c6964206c696d6974000000000000000000000000005f82015250565b5f613749601383613319565b915061375482613715565b602082019050919050565b5f6020820190508181035f8301526137768161373d565b9050919050565b5f6040820190506137905f8301856130bd565b61379d602083018461352e565b9392505050565b7f506f6f6c3a206163636573732064656e696564000000000000000000000000005f82015250565b5f6137d8601383613319565b91506137e3826137a4565b602082019050919050565b5f6020820190508181035f830152613805816137cc565b9050919050565b7f506f6f6c3a20696e76616c6964207769746864726177616c2063726564656e745f8201527f69616c7300000000000000000000000000000000000000000000000000000000602082015250565b5f613866602483613319565b91506138718261380c565b604082019050919050565b5f6020820190508181035f8301526138938161385a565b9050919050565b5f80fd5b5f80fd5b5f80fd5b5f80833560016020038436030381126138c2576138c161389a565b5b80840192508235915067ffffffffffffffff8211156138e4576138e361389e565b5b602083019250600182023603831315613900576138ff6138a2565b5b509250929050565b828183375f83830152505050565b5f601f19601f8301169050919050565b5f613931838561353d565b935061393e838584613908565b61394783613916565b840190509392505050565b5f6040820190508181035f83015261396b818587613926565b905061397a602083018461352e565b949350505050565b5f819050919050565b61399c61399782612f90565b613982565b82525050565b5f6139ad828461398b565b60208201915081905092915050565b5f81519050919050565b5f5b838110156139e35780820151818401526020810190506139c8565b5f8484015250505050565b5f6139f8826139bc565b613a02818561353d565b9350613a128185602086016139c6565b613a1b81613916565b840191505092915050565b5f6080820190508181035f830152613a3f81888a613926565b90508181036020830152613a5381876139ee565b90508181036040830152613a68818587613926565b9050613a776060830184612fee565b979650505050505050565b7f416363657373436f6e74726f6c3a2063616e206f6e6c792072656e6f756e63655f8201527f20726f6c657320666f722073656c660000000000000000000000000000000000602082015250565b5f613adc602f83613319565b9150613ae782613a82565b604082019050919050565b5f6020820190508181035f830152613b0981613ad0565b9050919050565b7f4e487b71000000000000000000000000000000000000000000000000000000005f52603260045260245ffd5b5f613b4782612f32565b91507fffffffffffffffffffffffffffffffffffffffffffffffffffffffffffffffff8203613b7957613b786134ce565b5b600182019050919050565b7f496e697469616c697a61626c653a20636f6e747261637420697320616c7265615f8201527f647920696e697469616c697a6564000000000000000000000000000000000000602082015250565b5f613bde602e83613319565b9150613be982613b84565b604082019050919050565b5f6020820190508181035f830152613c0b81613bd2565b9050919050565b7f506f6f6c3a207374616b65644c7978546f6b656e20616464726573732063616e5f8201527f6e6f74206265207a65726f000000000000000000000000000000000000000000602082015250565b5f613c6c602b83613319565b9150613c7782613c12565b604082019050919050565b5f6020820190508181035f830152613c9981613c60565b9050919050565b7f506f6f6c3a207265776172647320616464726573732063616e6e6f74206265205f8201527f7a65726f00000000000000000000000000000000000000000000000000000000602082015250565b5f613cfa602483613319565b9150613d0582613ca0565b604082019050919050565b5f6020820190508181035f830152613d2781613cee565b9050919050565b7f506f6f6c3a2061646d696e20616464726573732063616e6e6f74206265207a655f8201527f726f000000000000000000000000000000000000000000000000000000000000602082015250565b5f613d88602283613319565b9150613d9382613d2e565b604082019050919050565b5f6020820190508181035f830152613db581613d7c565b9050919050565b7f506f6f6c3a206f7261636c657320616464726573732063616e6e6f74206265205f8201527f7a65726f00000000000000000000000000000000000000000000000000000000602082015250565b5f613e16602483613319565b9150613e2182613dbc565b604082019050919050565b5f6020820190508181035f830152613e4381613e0a565b9050919050565b7f506f6f6c3a2076616c696461746f72526567697374726174696f6e20616464725f8201527f6573732063616e6e6f74206265207a65726f0000000000000000000000000000602082015250565b5f613ea4603283613319565b9150613eaf82613e4a565b604082019050919050565b5f6020820190508181035f830152613ed181613e98565b9050919050565b7f506f6f6c3a2076616c696461746f727320616464726573732063616e6e6f74205f8201527f6265207a65726f00000000000000000000000000000000000000000000000000602082015250565b5f613f32602783613319565b9150613f3d82613ed8565b604082019050919050565b5f6020820190508181035f830152613f5f81613f26565b9050919050565b7f506f6f6c3a207769746864726177616c43726564656e7469616c732063616e6e5f8201527f6f74206265207a65726f00000000000000000000000000000000000000000000602082015250565b5f613fc0602a83613319565b9150613fcb82613f66565b604082019050919050565b5f6020820190508181035f830152613fed81613fb4565b9050919050565b5f819050919050565b5f60ff82169050919050565b5f61402361401e61401984613ff4565b6132a5565b613ffd565b9050919050565b61403381614009565b82525050565b5f60208201905061404c5f83018461402a565b92915050565b7f5061757361626c653a20706175736564000000000000000000000000000000005f82015250565b5f614086601083613319565b915061409182614052565b602082019050919050565b5f6020820190508181035f8301526140b38161407a565b9050919050565b7f5265656e7472616e637947756172643a207265656e7472616e742063616c6c005f82015250565b5f6140ee601f83613319565b91506140f9826140ba565b602082019050919050565b5f6020820190508181035f83015261411b816140e2565b9050919050565b7f506f6f6c3a2076616c696461746f72206973206e6f74206163746976652079655f8201527f7400000000000000000000000000000000000000000000000000000000000000602082015250565b5f61417c602183613319565b915061418782614122565b604082019050919050565b5f6020820190508181035f8301526141a981614170565b9050919050565b7f506f6f6c3a20696e76616c69642076616c696461746f7220696e6465780000005f82015250565b5f6141e4601d83613319565b91506141ef826141b0565b602082019050919050565b5f6020820190508181035f830152614211816141d8565b9050919050565b5f60208201905061422b5f83018461352e565b92915050565b7f496e697469616c697a61626c653a20636f6e7472616374206973206e6f7420695f8201527f6e697469616c697a696e67000000000000000000000000000000000000000000602082015250565b5f61428b602b83613319565b915061429682614231565b604082019050919050565b5f6020820190508181035f8301526142b88161427f565b9050919050565b5f81905092915050565b7f416363657373436f6e74726f6c3a206163636f756e74200000000000000000005f82015250565b5f6142fd6017836142bf565b9150614308826142c9565b601782019050919050565b5f81519050919050565b5f61432782614313565b61433181856142bf565b93506143418185602086016139c6565b80840191505092915050565b7f206973206d697373696e6720726f6c65200000000000000000000000000000005f82015250565b5f6143816011836142bf565b915061438c8261434d565b601182019050919050565b5f6143a1826142f1565b91506143ad828561431d565b91506143b882614375565b91506143c4828461431d565b91508190509392505050565b5f6143da82614313565b6143e48185613319565b93506143f48185602086016139c6565b6143fd81613916565b840191505092915050565b5f6020820190508181035f83015261442081846143d0565b905092915050565b7f5061757361626c653a206e6f74207061757365640000000000000000000000005f82015250565b5f61445c601483613319565b915061446782614428565b602082019050919050565b5f6020820190508181035f83015261448981614450565b9050919050565b7f4e487b71000000000000000000000000000000000000000000000000000000005f52604160045260245ffd5b5f6144c782612f32565b91505f82036144d9576144d86134ce565b5b600182039050919050565b7f537472696e67733a20686578206c656e67746820696e73756666696369656e745f82015250565b5f614518602083613319565b9150614523826144e4565b602082019050919050565b5f6020820190508181035f8301526145458161450c565b905091905056fea26469706673582212205957ca1aaa42494eea24fe76593435dbb3f734ad6581f91909ebc03065aefafc64736f6c63430008140033",
  "linkReferences": {},
  "deployedLinkReferences": {}
}