{
  "_format": "hh-sol-artifact-1",
  "contractName": "Pool",
  "sourceName": "contracts/pool/Pool.sol",
  "abi": [
    {
      "anonymous": false,
      "inputs": [
        {
          "indexed": true,
          "internalType": "address",
          "name": "account",
          "type": "address"
        },
        {
          "indexed": false,
          "internalType": "uint256",
          "name": "validatorIndex",
          "type": "uint256"
        },
        {
          "indexed": false,
          "internalType": "uint256",
          "name": "value",
          "type": "uint256"
        },
        {
          "indexed": true,
          "internalType": "address",
          "name": "sender",
          "type": "address"
        }
      ],
      "name": "Activated",
      "type": "event"
    },
    {
      "anonymous": false,
      "inputs": [
        {
          "indexed": false,
          "internalType": "uint256",
          "name": "activatedValidators",
          "type": "uint256"
        },
        {
          "indexed": false,
          "internalType": "address",
          "name": "sender",
          "type": "address"
        }
      ],
      "name": "ActivatedValidatorsUpdated",
      "type": "event"
    },
    {
      "anonymous": false,
      "inputs": [
        {
          "indexed": true,
          "internalType": "address",
          "name": "sender",
          "type": "address"
        },
        {
          "indexed": false,
          "internalType": "uint256",
          "name": "validatorIndex",
          "type": "uint256"
        },
        {
          "indexed": false,
          "internalType": "uint256",
          "name": "value",
          "type": "uint256"
        }
      ],
      "name": "ActivationScheduled",
      "type": "event"
    },
    {
      "anonymous": false,
      "inputs": [
        {
          "indexed": false,
          "internalType": "uint256",
          "name": "exitedValidators",
          "type": "uint256"
        },
        {
          "indexed": false,
          "internalType": "address",
          "name": "sender",
          "type": "address"
        }
      ],
      "name": "ExitedValidatorsUpdated",
      "type": "event"
    },
    {
      "anonymous": false,
      "inputs": [
        {
          "indexed": false,
          "internalType": "uint8",
          "name": "version",
          "type": "uint8"
        }
      ],
      "name": "Initialized",
      "type": "event"
    },
    {
      "anonymous": false,
      "inputs": [
        {
          "indexed": false,
          "internalType": "uint256",
          "name": "minActivatingDeposit",
          "type": "uint256"
        },
        {
          "indexed": false,
          "internalType": "address",
          "name": "sender",
          "type": "address"
        }
      ],
      "name": "MinActivatingDepositUpdated",
      "type": "event"
    },
    {
      "anonymous": false,
      "inputs": [
        {
          "indexed": false,
          "internalType": "address",
          "name": "account",
          "type": "address"
        }
      ],
      "name": "Paused",
      "type": "event"
    },
    {
      "anonymous": false,
      "inputs": [
        {
          "indexed": false,
          "internalType": "uint256",
          "name": "pendingValidatorsLimit",
          "type": "uint256"
        },
        {
          "indexed": false,
          "internalType": "address",
          "name": "sender",
          "type": "address"
        }
      ],
      "name": "PendingValidatorsLimitUpdated",
      "type": "event"
    },
    {
      "anonymous": false,
      "inputs": [
        {
          "indexed": true,
          "internalType": "bytes32",
          "name": "role",
          "type": "bytes32"
        },
        {
          "indexed": true,
          "internalType": "bytes32",
          "name": "previousAdminRole",
          "type": "bytes32"
        },
        {
          "indexed": true,
          "internalType": "bytes32",
          "name": "newAdminRole",
          "type": "bytes32"
        }
      ],
      "name": "RoleAdminChanged",
      "type": "event"
    },
    {
      "anonymous": false,
      "inputs": [
        {
          "indexed": true,
          "internalType": "bytes32",
          "name": "role",
          "type": "bytes32"
        },
        {
          "indexed": true,
          "internalType": "address",
          "name": "account",
          "type": "address"
        },
        {
          "indexed": true,
          "internalType": "address",
          "name": "sender",
          "type": "address"
        }
      ],
      "name": "RoleGranted",
      "type": "event"
    },
    {
      "anonymous": false,
      "inputs": [
        {
          "indexed": true,
          "internalType": "bytes32",
          "name": "role",
          "type": "bytes32"
        },
        {
          "indexed": true,
          "internalType": "address",
          "name": "account",
          "type": "address"
        },
        {
          "indexed": true,
          "internalType": "address",
          "name": "sender",
          "type": "address"
        }
      ],
      "name": "RoleRevoked",
      "type": "event"
    },
    {
      "anonymous": false,
      "inputs": [
        {
          "indexed": true,
          "internalType": "address",
          "name": "partner",
          "type": "address"
        },
        {
          "indexed": false,
          "internalType": "uint256",
          "name": "amount",
          "type": "uint256"
        }
      ],
      "name": "StakedWithPartner",
      "type": "event"
    },
    {
      "anonymous": false,
      "inputs": [
        {
          "indexed": true,
          "internalType": "address",
          "name": "referrer",
          "type": "address"
        },
        {
          "indexed": false,
          "internalType": "uint256",
          "name": "amount",
          "type": "uint256"
        }
      ],
      "name": "StakedWithReferrer",
      "type": "event"
    },
    {
      "anonymous": false,
      "inputs": [
        {
          "indexed": false,
          "internalType": "address",
          "name": "account",
          "type": "address"
        }
      ],
      "name": "Unpaused",
      "type": "event"
    },
    {
      "anonymous": false,
      "inputs": [
        {
          "indexed": false,
          "internalType": "bytes",
          "name": "publicKey",
          "type": "bytes"
        },
        {
          "indexed": false,
          "internalType": "address",
          "name": "operator",
          "type": "address"
        }
      ],
      "name": "ValidatorRegistered",
      "type": "event"
    },
    {
      "inputs": [],
      "name": "DEFAULT_ADMIN_ROLE",
      "outputs": [
        {
          "internalType": "bytes32",
          "name": "",
          "type": "bytes32"
        }
      ],
      "stateMutability": "view",
      "type": "function"
    },
    {
      "inputs": [],
      "name": "PAUSER_ROLE",
      "outputs": [
        {
          "internalType": "bytes32",
          "name": "",
          "type": "bytes32"
        }
      ],
      "stateMutability": "view",
      "type": "function"
    },
    {
      "inputs": [],
      "name": "VALIDATOR_TOTAL_DEPOSIT",
      "outputs": [
        {
          "internalType": "uint256",
          "name": "",
          "type": "uint256"
        }
      ],
      "stateMutability": "view",
      "type": "function"
    },
    {
      "inputs": [
        {
          "internalType": "address",
          "name": "account",
          "type": "address"
        },
        {
          "internalType": "uint256",
          "name": "validatorIndex",
          "type": "uint256"
        }
      ],
      "name": "activate",
      "outputs": [],
      "stateMutability": "nonpayable",
      "type": "function"
    },
    {
      "inputs": [
        {
          "internalType": "address",
          "name": "account",
          "type": "address"
        },
        {
          "internalType": "uint256[]",
          "name": "validatorIndexes",
          "type": "uint256[]"
        }
      ],
      "name": "activateMultiple",
      "outputs": [],
      "stateMutability": "nonpayable",
      "type": "function"
    },
    {
      "inputs": [],
      "name": "activatedValidators",
      "outputs": [
        {
          "internalType": "uint256",
          "name": "",
          "type": "uint256"
        }
      ],
      "stateMutability": "view",
      "type": "function"
    },
    {
      "inputs": [
        {
          "internalType": "address",
          "name": "",
          "type": "address"
        },
        {
          "internalType": "uint256",
          "name": "",
          "type": "uint256"
        }
      ],
      "name": "activations",
      "outputs": [
        {
          "internalType": "uint256",
          "name": "",
          "type": "uint256"
        }
      ],
      "stateMutability": "view",
      "type": "function"
    },
    {
      "inputs": [
        {
          "internalType": "address",
          "name": "_account",
          "type": "address"
        }
      ],
      "name": "addAdmin",
      "outputs": [],
      "stateMutability": "nonpayable",
      "type": "function"
    },
    {
      "inputs": [
        {
          "internalType": "address",
          "name": "_account",
          "type": "address"
        }
      ],
      "name": "addPauser",
      "outputs": [],
      "stateMutability": "nonpayable",
      "type": "function"
    },
    {
      "inputs": [
        {
          "internalType": "uint256",
          "name": "validatorIndex",
          "type": "uint256"
        }
      ],
      "name": "canActivate",
      "outputs": [
        {
          "internalType": "bool",
          "name": "",
          "type": "bool"
        }
      ],
      "stateMutability": "view",
      "type": "function"
    },
    {
      "inputs": [],
      "name": "exitedValidators",
      "outputs": [
        {
          "internalType": "uint256",
          "name": "",
          "type": "uint256"
        }
      ],
      "stateMutability": "view",
      "type": "function"
    },
    {
      "inputs": [
        {
          "internalType": "bytes32",
          "name": "role",
          "type": "bytes32"
        }
      ],
      "name": "getRoleAdmin",
      "outputs": [
        {
          "internalType": "bytes32",
          "name": "",
          "type": "bytes32"
        }
      ],
      "stateMutability": "view",
      "type": "function"
    },
    {
      "inputs": [
        {
          "internalType": "bytes32",
          "name": "role",
          "type": "bytes32"
        },
        {
          "internalType": "address",
          "name": "account",
          "type": "address"
        }
      ],
      "name": "grantRole",
      "outputs": [],
      "stateMutability": "nonpayable",
      "type": "function"
    },
    {
      "inputs": [
        {
          "internalType": "bytes32",
          "name": "role",
          "type": "bytes32"
        },
        {
          "internalType": "address",
          "name": "account",
          "type": "address"
        }
      ],
      "name": "hasRole",
      "outputs": [
        {
          "internalType": "bool",
          "name": "",
          "type": "bool"
        }
      ],
      "stateMutability": "view",
      "type": "function"
    },
    {
      "inputs": [
        {
          "internalType": "address",
          "name": "_admin",
          "type": "address"
        },
        {
          "internalType": "address",
          "name": "_stakedLyxToken",
          "type": "address"
        },
        {
          "internalType": "address",
          "name": "_rewardLyxToken",
          "type": "address"
        },
        {
          "internalType": "address",
          "name": "_validators",
          "type": "address"
        },
        {
          "internalType": "address",
          "name": "_oracles",
          "type": "address"
        },
        {
          "internalType": "bytes32",
          "name": "_withdrawalCredentials",
          "type": "bytes32"
        },
        {
          "internalType": "address",
          "name": "_validatorRegistration",
          "type": "address"
        },
        {
          "internalType": "uint256",
          "name": "_minActivatingDeposit",
          "type": "uint256"
        },
        {
          "internalType": "uint256",
          "name": "_pendingValidatorsLimit",
          "type": "uint256"
        }
      ],
      "name": "initialize",
      "outputs": [],
      "stateMutability": "nonpayable",
      "type": "function"
    },
    {
      "inputs": [
        {
          "internalType": "address",
          "name": "_account",
          "type": "address"
        }
      ],
      "name": "isAdmin",
      "outputs": [
        {
          "internalType": "bool",
          "name": "",
          "type": "bool"
        }
      ],
      "stateMutability": "view",
      "type": "function"
    },
    {
      "inputs": [
        {
          "internalType": "address",
          "name": "_account",
          "type": "address"
        }
      ],
      "name": "isPauser",
      "outputs": [
        {
          "internalType": "bool",
          "name": "",
          "type": "bool"
        }
      ],
      "stateMutability": "view",
      "type": "function"
    },
    {
      "inputs": [],
      "name": "minActivatingDeposit",
      "outputs": [
        {
          "internalType": "uint256",
          "name": "",
          "type": "uint256"
        }
      ],
      "stateMutability": "view",
      "type": "function"
    },
    {
      "inputs": [],
      "name": "pause",
      "outputs": [],
      "stateMutability": "nonpayable",
      "type": "function"
    },
    {
      "inputs": [],
      "name": "paused",
      "outputs": [
        {
          "internalType": "bool",
          "name": "",
          "type": "bool"
        }
      ],
      "stateMutability": "view",
      "type": "function"
    },
    {
      "inputs": [],
      "name": "pendingValidators",
      "outputs": [
        {
          "internalType": "uint256",
          "name": "",
          "type": "uint256"
        }
      ],
      "stateMutability": "view",
      "type": "function"
    },
    {
      "inputs": [],
      "name": "pendingValidatorsLimit",
      "outputs": [
        {
          "internalType": "uint256",
          "name": "",
          "type": "uint256"
        }
      ],
      "stateMutability": "view",
      "type": "function"
    },
    {
      "inputs": [],
      "name": "receiveFees",
      "outputs": [],
      "stateMutability": "payable",
      "type": "function"
    },
    {
      "inputs": [
        {
          "components": [
            {
              "internalType": "address",
              "name": "operator",
              "type": "address"
            },
            {
              "internalType": "bytes32",
              "name": "withdrawalCredentials",
              "type": "bytes32"
            },
            {
              "internalType": "bytes32",
              "name": "depositDataRoot",
              "type": "bytes32"
            },
            {
              "internalType": "bytes",
              "name": "publicKey",
              "type": "bytes"
            },
            {
              "internalType": "bytes",
              "name": "signature",
              "type": "bytes"
            }
          ],
          "internalType": "struct IPoolValidators.DepositData",
          "name": "depositData",
          "type": "tuple"
        }
      ],
      "name": "registerValidator",
      "outputs": [],
      "stateMutability": "nonpayable",
      "type": "function"
    },
    {
      "inputs": [
        {
          "internalType": "address",
          "name": "_account",
          "type": "address"
        }
      ],
      "name": "removeAdmin",
      "outputs": [],
      "stateMutability": "nonpayable",
      "type": "function"
    },
    {
      "inputs": [
        {
          "internalType": "address",
          "name": "_account",
          "type": "address"
        }
      ],
      "name": "removePauser",
      "outputs": [],
      "stateMutability": "nonpayable",
      "type": "function"
    },
    {
      "inputs": [
        {
          "internalType": "bytes32",
          "name": "role",
          "type": "bytes32"
        },
        {
          "internalType": "address",
          "name": "account",
          "type": "address"
        }
      ],
      "name": "renounceRole",
      "outputs": [],
      "stateMutability": "nonpayable",
      "type": "function"
    },
    {
      "inputs": [
        {
          "internalType": "bytes32",
          "name": "role",
          "type": "bytes32"
        },
        {
          "internalType": "address",
          "name": "account",
          "type": "address"
        }
      ],
      "name": "revokeRole",
      "outputs": [],
      "stateMutability": "nonpayable",
      "type": "function"
    },
    {
      "inputs": [
        {
          "internalType": "uint256",
          "name": "newActivatedValidators",
          "type": "uint256"
        }
      ],
      "name": "setActivatedValidators",
      "outputs": [],
      "stateMutability": "nonpayable",
      "type": "function"
    },
    {
      "inputs": [
        {
          "internalType": "uint256",
          "name": "newExitedValidators",
          "type": "uint256"
        }
      ],
      "name": "setExitedValidators",
      "outputs": [],
      "stateMutability": "nonpayable",
      "type": "function"
    },
    {
      "inputs": [
        {
          "internalType": "uint256",
          "name": "newMinActivatingDeposit",
          "type": "uint256"
        }
      ],
      "name": "setMinActivatingDeposit",
      "outputs": [],
      "stateMutability": "nonpayable",
      "type": "function"
    },
    {
      "inputs": [
        {
          "internalType": "uint256",
          "name": "newPendingValidatorsLimit",
          "type": "uint256"
        }
      ],
      "name": "setPendingValidatorsLimit",
      "outputs": [],
      "stateMutability": "nonpayable",
      "type": "function"
    },
    {
      "inputs": [],
      "name": "stake",
      "outputs": [],
      "stateMutability": "payable",
      "type": "function"
    },
    {
      "inputs": [
        {
          "internalType": "address",
          "name": "recipient",
          "type": "address"
        }
      ],
      "name": "stakeOnBehalf",
      "outputs": [],
      "stateMutability": "payable",
      "type": "function"
    },
    {
      "inputs": [
        {
          "internalType": "address",
          "name": "partner",
          "type": "address"
        }
      ],
      "name": "stakeWithPartner",
      "outputs": [],
      "stateMutability": "payable",
      "type": "function"
    },
    {
      "inputs": [
        {
          "internalType": "address",
          "name": "partner",
          "type": "address"
        },
        {
          "internalType": "address",
          "name": "recipient",
          "type": "address"
        }
      ],
      "name": "stakeWithPartnerOnBehalf",
      "outputs": [],
      "stateMutability": "payable",
      "type": "function"
    },
    {
      "inputs": [
        {
          "internalType": "address",
          "name": "referrer",
          "type": "address"
        }
      ],
      "name": "stakeWithReferrer",
      "outputs": [],
      "stateMutability": "payable",
      "type": "function"
    },
    {
      "inputs": [
        {
          "internalType": "address",
          "name": "referrer",
          "type": "address"
        },
        {
          "internalType": "address",
          "name": "recipient",
          "type": "address"
        }
      ],
      "name": "stakeWithReferrerOnBehalf",
      "outputs": [],
      "stateMutability": "payable",
      "type": "function"
    },
    {
      "inputs": [
        {
          "internalType": "bytes4",
          "name": "interfaceId",
          "type": "bytes4"
        }
      ],
      "name": "supportsInterface",
      "outputs": [
        {
          "internalType": "bool",
          "name": "",
          "type": "bool"
        }
      ],
      "stateMutability": "view",
      "type": "function"
    },
    {
      "inputs": [],
      "name": "unpause",
      "outputs": [],
      "stateMutability": "nonpayable",
      "type": "function"
    },
    {
      "inputs": [],
      "name": "validatorRegistration",
      "outputs": [
        {
          "internalType": "contract IDepositContract",
          "name": "",
          "type": "address"
        }
      ],
      "stateMutability": "view",
      "type": "function"
    },
    {
      "inputs": [],
      "name": "withdrawalCredentials",
      "outputs": [
        {
          "internalType": "bytes32",
          "name": "",
          "type": "bytes32"
        }
      ],
      "stateMutability": "view",
      "type": "function"
    },
    {
      "stateMutability": "payable",
      "type": "receive"
    }
  ],
  "bytecode": "0x608060405234801561000f575f80fd5b506144368061001d5f395ff3fe608060405260043610610254575f3560e01c80635cfbd610116101385780639cc776f5116100b5578063d547741f11610079578063d547741f14610813578063da44e9c51461083b578063e63ab1e914610865578063e7f953341461088f578063f44e383f146108cb578063f60bb720146108f557610265565b80639cc776f514610753578063a217fddf1461076f578063a82f255b14610799578063bee550f0146107c3578063ca11be69146107eb57610265565b80638456cb59116100fc5780638456cb5914610693578063899b7c74146106a957806391d14854146106d3578063972d7ac91461070f5780639a548a441461073757610265565b80635cfbd610146105b55780636b2c0f55146105f1578063704802751461061957806377aec5211461064157806382dc1ec41461066b57610265565b80633882b1c9116101d157806346fbf68e1161019557806346fbf68e146104ab5780634cd79e0a146104e757806358e5d88b1461051157806359c53656146105395780635b49dc08146105615780635c975abb1461058b57610265565b80633882b1c91461041d5780633a4b66f1146104475780633a76e0a2146104515780633f4ba83a14610479578063461a95231461048f57610265565b8063248a9ca311610218578063248a9ca31461032d57806324d7806c146103695780632f2ff15d146103a5578063359b4359146103cd57806336568abe146103f557610265565b806301ffc9a7146102695780630395501f146102a5578063040dee8a146102c1578063111f052c146102dd5780631785f53c1461030557610265565b366102655761026333346108ff565b005b5f80fd5b348015610274575f80fd5b5061028f600480360381019061028a9190612cc5565b610eb9565b60405161029c9190612d0a565b60405180910390f35b6102bf60048036038101906102ba9190612d7d565b610f32565b005b6102db60048036038101906102d69190612da8565b610f9d565b005b3480156102e8575f80fd5b5061030360048036038101906102fe9190612e19565b611009565b005b348015610310575f80fd5b5061032b60048036038101906103269190612d7d565b6110dc565b005b348015610338575f80fd5b50610353600480360381019061034e9190612e77565b6110eb565b6040516103609190612eb1565b60405180910390f35b348015610374575f80fd5b5061038f600480360381019061038a9190612d7d565b611108565b60405161039c9190612d0a565b60405180910390f35b3480156103b0575f80fd5b506103cb60048036038101906103c69190612eca565b61111c565b005b3480156103d8575f80fd5b506103f360048036038101906103ee9190612f2a565b61113d565b005b348015610400575f80fd5b5061041b60048036038101906104169190612eca565b611370565b005b348015610428575f80fd5b506104316113f3565b60405161043e9190612f80565b60405180910390f35b61044f6113f9565b005b34801561045c575f80fd5b5061047760048036038101906104729190612ffa565b611415565b005b348015610484575f80fd5b5061048d611529565b005b6104a960048036038101906104a49190612d7d565b61159c565b005b3480156104b6575f80fd5b506104d160048036038101906104cc9190612d7d565b611607565b6040516104de9190612d0a565b60405180910390f35b3480156104f2575f80fd5b506104fb611639565b6040516105089190612eb1565b60405180910390f35b34801561051c575f80fd5b5061053760048036038101906105329190612e19565b61163f565b005b348015610544575f80fd5b5061055f600480360381019061055a9190612e19565b611727565b005b34801561056c575f80fd5b50610575611830565b6040516105829190612f80565b60405180910390f35b348015610596575f80fd5b5061059f611837565b6040516105ac9190612d0a565b60405180910390f35b3480156105c0575f80fd5b506105db60048036038101906105d69190612e19565b61184c565b6040516105e89190612d0a565b60405180910390f35b3480156105fc575f80fd5b5061061760048036038101906106129190612d7d565b611882565b005b348015610624575f80fd5b5061063f600480360381019061063a9190612d7d565b6118af565b005b34801561064c575f80fd5b506106556118be565b6040516106629190612f80565b60405180910390f35b348015610676575f80fd5b50610691600480360381019061068c9190612d7d565b6118cb565b005b34801561069e575f80fd5b506106a76118f8565b005b3480156106b4575f80fd5b506106bd61196b565b6040516106ca9190612f80565b60405180910390f35b3480156106de575f80fd5b506106f960048036038101906106f49190612eca565b611971565b6040516107069190612d0a565b60405180910390f35b34801561071a575f80fd5b5061073560048036038101906107309190612e19565b6119d5565b005b610751600480360381019061074c9190612da8565b611a64565b005b61076d60048036038101906107689190612d7d565b611ad0565b005b34801561077a575f80fd5b50610783611aed565b6040516107909190612eb1565b60405180910390f35b3480156107a4575f80fd5b506107ad611af3565b6040516107ba9190612f80565b60405180910390f35b3480156107ce575f80fd5b506107e960048036038101906107e49190613057565b611afa565b005b3480156107f6575f80fd5b50610811600480360381019061080c919061311b565b61206e565b005b34801561081e575f80fd5b5061083960048036038101906108349190612eca565b612132565b005b348015610846575f80fd5b5061084f612153565b60405161085c9190612f80565b60405180910390f35b348015610870575f80fd5b5061087961215a565b6040516108869190612eb1565b60405180910390f35b34801561089a575f80fd5b506108b560048036038101906108b0919061311b565b61217e565b6040516108c29190612f80565b60405180910390f35b3480156108d6575f80fd5b506108df61219f565b6040516108ec91906131b4565b60405180910390f35b6108fd6121c4565b005b6109076121c6565b5f73ffffffffffffffffffffffffffffffffffffffff168273ffffffffffffffffffffffffffffffffffffffff1603610975576040517f08c379a000000000000000000000000000000000000000000000000000000000815260040161096c90613227565b60405180910390fd5b5f81116109b7576040517f08c379a00000000000000000000000000000000000000000000000000000000081526004016109ae9061328f565b60405180910390fd5b5f60ff5f9054906101000a900473ffffffffffffffffffffffffffffffffffffffff1673ffffffffffffffffffffffffffffffffffffffff166310fbf7136040518163ffffffff1660e01b8152600401602060405180830381865afa158015610a22573d5f803e3d5ffd5b505050506040513d601f19601f82011682018060405250810190610a4691906132d7565b610ae75760ff5f9054906101000a900473ffffffffffffffffffffffffffffffffffffffff1673ffffffffffffffffffffffffffffffffffffffff1663167bd1d8836040518263ffffffff1660e01b8152600401610aa49190612f80565b6020604051808303815f875af1158015610ac0573d5f803e3d5ffd5b505050506040513d601f19601f82011682018060405250810190610ae49190613316565b90505b5f811115610b78576101005f9054906101000a900473ffffffffffffffffffffffffffffffffffffffff1673ffffffffffffffffffffffffffffffffffffffff1681604051610b359061336e565b5f6040518083038185875af1925050503d805f8114610b6f576040519150601f19603f3d011682016040523d82523d5f602084013e610b74565b606091505b5050505b5f8183610b8591906133af565b9050610105548111610c245760ff5f9054906101000a900473ffffffffffffffffffffffffffffffffffffffff1673ffffffffffffffffffffffffffffffffffffffff16637580d920858560016040518463ffffffff1660e01b8152600401610bf093929190613421565b5f604051808303815f87803b158015610c07575f80fd5b505af1158015610c19573d5f803e3d5ffd5b505050505050610eb5565b5f6801bc16d674ec80000047610c3a9190613496565b61010454610c4891906134c6565b90505f60fb5490505f8282610c5d91906134c6565b905061271061010654610c7091906134c6565b82610c7b91906134f9565b61271082610c8991906134f9565b11610d1f5760ff5f9054906101000a900473ffffffffffffffffffffffffffffffffffffffff1673ffffffffffffffffffffffffffffffffffffffff16637580d920888860016040518463ffffffff1660e01b8152600401610ced93929190613421565b5f604051808303815f87803b158015610d04575f80fd5b505af1158015610d16573d5f803e3d5ffd5b50505050610eaf565b5f851115610db45760ff5f9054906101000a900473ffffffffffffffffffffffffffffffffffffffff1673ffffffffffffffffffffffffffffffffffffffff16637580d920888760016040518463ffffffff1660e01b8152600401610d8693929190613421565b5f604051808303815f87803b158015610d9d575f80fd5b505af1158015610daf573d5f803e3d5ffd5b505050505b836101035f8973ffffffffffffffffffffffffffffffffffffffff1673ffffffffffffffffffffffffffffffffffffffff1681526020019081526020015f205f8381526020019081526020015f2054610e0d91906134c6565b6101035f8973ffffffffffffffffffffffffffffffffffffffff1673ffffffffffffffffffffffffffffffffffffffff1681526020019081526020015f205f8381526020019081526020015f20819055508673ffffffffffffffffffffffffffffffffffffffff167f120d5ad3462d3df3f0abd736b8b4770ec826cf7b160eafb242311244031a0d418286604051610ea692919061353a565b60405180910390a25b50505050505b5050565b5f7f7965db0b000000000000000000000000000000000000000000000000000000007bffffffffffffffffffffffffffffffffffffffffffffffffffffffff1916827bffffffffffffffffffffffffffffffffffffffffffffffffffffffff19161480610f2b5750610f2a82612210565b5b9050919050565b610f3a612279565b610f4433346108ff565b8073ffffffffffffffffffffffffffffffffffffffff167f7453795bdd80e63f3d8595c0aa3a0e0b431b2ffedb3f2a3256b67975e9dbdcc934604051610f8a9190612f80565b60405180910390a2610f9a6122c8565b50565b610fa5612279565b610faf81346108ff565b8173ffffffffffffffffffffffffffffffffffffffff167f2f6cbf015ae7f747147c62891da8bad454d58bd9fe94d218ecc3dbbfbd48c16e34604051610ff59190612f80565b60405180910390a26110056122c8565b5050565b6110155f801b33611971565b611054576040517f08c379a000000000000000000000000000000000000000000000000000000000815260040161104b906135ab565b60405180910390fd5b6127108110611098576040517f08c379a000000000000000000000000000000000000000000000000000000000815260040161108f90613613565b60405180910390fd5b80610106819055507fa528a02bba19dba78e3479c018f780883587a8e5b68ccf22d26903e7b55ebd0f81336040516110d1929190613631565b60405180910390a150565b6110e85f801b82612132565b50565b5f60975f8381526020019081526020015f20600101549050919050565b5f6111155f801b83611971565b9050919050565b611125826110eb565b61112e816122d2565b61113883836122e6565b505050565b6111456121c6565b6101015f9054906101000a900473ffffffffffffffffffffffffffffffffffffffff1673ffffffffffffffffffffffffffffffffffffffff163373ffffffffffffffffffffffffffffffffffffffff16146111d5576040517f08c379a00000000000000000000000000000000000000000000000000000000081526004016111cc906136a2565b60405180910390fd5b60fd5481602001351461121d576040517f08c379a000000000000000000000000000000000000000000000000000000000815260040161121490613730565b60405180910390fd5b60016101045461122d91906134c6565b610104819055507f7cb7aef9bd2e5ee3f6073019691bb332fe3ef290465065aca1b9983f3dc66c56818060600190611265919061375a565b835f0160208101906112779190612d7d565b60405161128693929190613806565b60405180910390a160fe5f9054906101000a900473ffffffffffffffffffffffffffffffffffffffff1673ffffffffffffffffffffffffffffffffffffffff1663228951186801bc16d674ec8000008380606001906112e5919061375a565b85602001356040516020016112fa9190613856565b604051602081830303815290604052868060800190611319919061375a565b88604001356040518863ffffffff1660e01b815260040161133f969594939291906138da565b5f604051808303818588803b158015611356575f80fd5b505af1158015611368573d5f803e3d5ffd5b505050505050565b6113786123c1565b73ffffffffffffffffffffffffffffffffffffffff168173ffffffffffffffffffffffffffffffffffffffff16146113e5576040517f08c379a00000000000000000000000000000000000000000000000000000000081526004016113dc906139a6565b60405180910390fd5b6113ef82826123c8565b5050565b60fc5481565b611401612279565b61140b33346108ff565b6114136122c8565b565b61141d6121c6565b5f806127106101065461143091906134c6565b60fb5461143d91906134f9565b90505f5b84849050811015611495575f61147187878785818110611464576114636139c4565b5b90506020020135856124a3565b9050808461147f91906134c6565b935050808061148d906139f1565b915050611441565b5060ff5f9054906101000a900473ffffffffffffffffffffffffffffffffffffffff1673ffffffffffffffffffffffffffffffffffffffff16637580d920868460016040518463ffffffff1660e01b81526004016114f593929190613421565b5f604051808303815f87803b15801561150c575f80fd5b505af115801561151e573d5f803e3d5ffd5b505050505050505050565b6115537f65d7a28e3265b37a6474929f336521b332c1681b933f6cb9f3376673440d862a33611971565b611592576040517f08c379a0000000000000000000000000000000000000000000000000000000008152600401611589906135ab565b60405180910390fd5b61159a612644565b565b6115a4612279565b6115ae33346108ff565b8073ffffffffffffffffffffffffffffffffffffffff167f2f6cbf015ae7f747147c62891da8bad454d58bd9fe94d218ecc3dbbfbd48c16e346040516115f49190612f80565b60405180910390a26116046122c8565b50565b5f6116327f65d7a28e3265b37a6474929f336521b332c1681b933f6cb9f3376673440d862a83611971565b9050919050565b60fd5481565b6101025f9054906101000a900473ffffffffffffffffffffffffffffffffffffffff1673ffffffffffffffffffffffffffffffffffffffff163373ffffffffffffffffffffffffffffffffffffffff1614806116a357506116a25f801b33611971565b5b6116e2576040517f08c379a00000000000000000000000000000000000000000000000000000000081526004016116d9906136a2565b60405180910390fd5b8060fc819055507fae782dd04794915ff962e50395e8d98b41e7086283ed968735cedbd8b6c14b3660fc543360405161171c929190613631565b60405180910390a150565b6101025f9054906101000a900473ffffffffffffffffffffffffffffffffffffffff1673ffffffffffffffffffffffffffffffffffffffff163373ffffffffffffffffffffffffffffffffffffffff16148061178b575061178a5f801b33611971565b5b6117ca576040517f08c379a00000000000000000000000000000000000000000000000000000000081526004016117c1906136a2565b60405180910390fd5b60fb54816117d891906133af565b610104546117e691906133af565b610104819055508060fb819055507f9a6b27e7e3aa16c645fb0310171319c2e6c6545b09b8cbc647aa105c06afca168133604051611825929190613631565b60405180910390a150565b6101065481565b5f60335f9054906101000a900460ff16905090565b5f6127106101065461185e91906134c6565b60fb5461186b91906134f9565b6127108361187991906134f9565b11159050919050565b6118ac7f65d7a28e3265b37a6474929f336521b332c1681b933f6cb9f3376673440d862a82612132565b50565b6118bb5f801b8261111c565b50565b6801bc16d674ec80000081565b6118f57f65d7a28e3265b37a6474929f336521b332c1681b933f6cb9f3376673440d862a8261111c565b50565b6119227f65d7a28e3265b37a6474929f336521b332c1681b933f6cb9f3376673440d862a33611971565b611961576040517f08c379a0000000000000000000000000000000000000000000000000000000008152600401611958906135ab565b60405180910390fd5b6119696126a5565b565b60fb5481565b5f60975f8481526020019081526020015f205f015f8373ffffffffffffffffffffffffffffffffffffffff1673ffffffffffffffffffffffffffffffffffffffff1681526020019081526020015f205f9054906101000a900460ff16905092915050565b6119e15f801b33611971565b611a20576040517f08c379a0000000000000000000000000000000000000000000000000000000008152600401611a17906135ab565b60405180910390fd5b80610105819055507fb9fbf3c7352807cc0abd73e713e71e2b1592fd4ac8a6872e7ed12bfe8ebc32518133604051611a59929190613631565b60405180910390a150565b611a6c612279565b611a7681346108ff565b8173ffffffffffffffffffffffffffffffffffffffff167f7453795bdd80e63f3d8595c0aa3a0e0b431b2ffedb3f2a3256b67975e9dbdcc934604051611abc9190612f80565b60405180910390a2611acc6122c8565b5050565b611ad8612279565b611ae281346108ff565b611aea6122c8565b50565b5f801b81565b6101045481565b5f8060019054906101000a900460ff16159050808015611b29575060015f8054906101000a900460ff1660ff16105b80611b555750611b3830612707565b158015611b54575060015f8054906101000a900460ff1660ff16145b5b611b94576040517f08c379a0000000000000000000000000000000000000000000000000000000008152600401611b8b90613aa8565b60405180910390fd5b60015f806101000a81548160ff021916908360ff1602179055508015611bcf5760015f60016101000a81548160ff0219169083151502179055505b5f73ffffffffffffffffffffffffffffffffffffffff168973ffffffffffffffffffffffffffffffffffffffff1603611c3d576040517f08c379a0000000000000000000000000000000000000000000000000000000008152600401611c3490613b36565b60405180910390fd5b5f73ffffffffffffffffffffffffffffffffffffffff168873ffffffffffffffffffffffffffffffffffffffff1603611cab576040517f08c379a0000000000000000000000000000000000000000000000000000000008152600401611ca290613bc4565b60405180910390fd5b5f73ffffffffffffffffffffffffffffffffffffffff168a73ffffffffffffffffffffffffffffffffffffffff1603611d19576040517f08c379a0000000000000000000000000000000000000000000000000000000008152600401611d1090613c52565b60405180910390fd5b5f73ffffffffffffffffffffffffffffffffffffffff168673ffffffffffffffffffffffffffffffffffffffff1603611d87576040517f08c379a0000000000000000000000000000000000000000000000000000000008152600401611d7e90613ce0565b60405180910390fd5b5f73ffffffffffffffffffffffffffffffffffffffff168473ffffffffffffffffffffffffffffffffffffffff1603611df5576040517f08c379a0000000000000000000000000000000000000000000000000000000008152600401611dec90613d6e565b60405180910390fd5b5f73ffffffffffffffffffffffffffffffffffffffff168773ffffffffffffffffffffffffffffffffffffffff1603611e63576040517f08c379a0000000000000000000000000000000000000000000000000000000008152600401611e5a90613dfc565b60405180910390fd5b5f801b8503611ea7576040517f08c379a0000000000000000000000000000000000000000000000000000000008152600401611e9e90613e8a565b60405180910390fd5b611eb08a612729565b8860ff5f6101000a81548173ffffffffffffffffffffffffffffffffffffffff021916908373ffffffffffffffffffffffffffffffffffffffff160217905550876101005f6101000a81548173ffffffffffffffffffffffffffffffffffffffff021916908373ffffffffffffffffffffffffffffffffffffffff160217905550866101015f6101000a81548173ffffffffffffffffffffffffffffffffffffffff021916908373ffffffffffffffffffffffffffffffffffffffff160217905550856101025f6101000a81548173ffffffffffffffffffffffffffffffffffffffff021916908373ffffffffffffffffffffffffffffffffffffffff1602179055508460fd819055508360fe5f6101000a81548173ffffffffffffffffffffffffffffffffffffffff021916908373ffffffffffffffffffffffffffffffffffffffff160217905550826101058190555081610106819055508015612062575f8060016101000a81548160ff0219169083151502179055507f7f26b83ff96e1f2b6a682f133852f6798a09c465da95921460cefb384740249860016040516120599190613eed565b60405180910390a15b50505050505050505050565b6120766121c6565b5f61209f83836127106101065461208d91906134c6565b60fb5461209a91906134f9565b6124a3565b905060ff5f9054906101000a900473ffffffffffffffffffffffffffffffffffffffff1673ffffffffffffffffffffffffffffffffffffffff16637580d920848360016040518463ffffffff1660e01b815260040161210093929190613421565b5f604051808303815f87803b158015612117575f80fd5b505af1158015612129573d5f803e3d5ffd5b50505050505050565b61213b826110eb565b612144816122d2565b61214e83836123c8565b505050565b6101055481565b7f65d7a28e3265b37a6474929f336521b332c1681b933f6cb9f3376673440d862a81565b610103602052815f5260405f20602052805f5260405f205f91509150505481565b60fe5f9054906101000a900473ffffffffffffffffffffffffffffffffffffffff1681565b565b6121ce611837565b1561220e576040517f08c379a000000000000000000000000000000000000000000000000000000000815260040161220590613f50565b60405180910390fd5b565b5f7f01ffc9a7000000000000000000000000000000000000000000000000000000007bffffffffffffffffffffffffffffffffffffffffffffffffffffffff1916827bffffffffffffffffffffffffffffffffffffffffffffffffffffffff1916149050919050565b600260c954036122be576040517f08c379a00000000000000000000000000000000000000000000000000000000081526004016122b590613fb8565b60405180910390fd5b600260c981905550565b600160c981905550565b6122e3816122de6123c1565b61279b565b50565b6122f08282611971565b6123bd57600160975f8481526020019081526020015f205f015f8373ffffffffffffffffffffffffffffffffffffffff1673ffffffffffffffffffffffffffffffffffffffff1681526020019081526020015f205f6101000a81548160ff0219169083151502179055506123626123c1565b73ffffffffffffffffffffffffffffffffffffffff168173ffffffffffffffffffffffffffffffffffffffff16837f2f8788117e7eff1d82e926ec794901d17c78024a50270940304540a733656f0d60405160405180910390a45b5050565b5f33905090565b6123d28282611971565b1561249f575f60975f8481526020019081526020015f205f015f8373ffffffffffffffffffffffffffffffffffffffff1673ffffffffffffffffffffffffffffffffffffffff1681526020019081526020015f205f6101000a81548160ff0219169083151502179055506124446123c1565b73ffffffffffffffffffffffffffffffffffffffff168173ffffffffffffffffffffffffffffffffffffffff16837ff6391f5c32d9c69d2a47ea670b442974b53935d1edc7fd64eb21e047a839171b60405160405180910390a45b5050565b5f81612710846124b391906134f9565b11156124f4576040517f08c379a00000000000000000000000000000000000000000000000000000000081526004016124eb90614046565b60405180910390fd5b6101035f8573ffffffffffffffffffffffffffffffffffffffff1673ffffffffffffffffffffffffffffffffffffffff1681526020019081526020015f205f8481526020019081526020015f205490505f8111612586576040517f08c379a000000000000000000000000000000000000000000000000000000000815260040161257d906140ae565b60405180910390fd5b6101035f8573ffffffffffffffffffffffffffffffffffffffff1673ffffffffffffffffffffffffffffffffffffffff1681526020019081526020015f205f8481526020019081526020015f205f90553373ffffffffffffffffffffffffffffffffffffffff168473ffffffffffffffffffffffffffffffffffffffff167f5d5cc41341077fc8907130f1a5db8c754d0b286b8121170b6dc4741b1658849a858460405161263592919061353a565b60405180910390a39392505050565b61264c61281f565b5f60335f6101000a81548160ff0219169083151502179055507f5db9ee0a495bf2e6ff9c91a7834c1ba4fdd244a5e8aa4e537bd38aeae4b073aa61268e6123c1565b60405161269b91906140cc565b60405180910390a1565b6126ad6121c6565b600160335f6101000a81548160ff0219169083151502179055507f62e78cea01bee320cd4e420270b5ea74000d11b0c9f74754ebdbfc544b05a2586126f06123c1565b6040516126fd91906140cc565b60405180910390a1565b5f808273ffffffffffffffffffffffffffffffffffffffff163b119050919050565b5f60019054906101000a900460ff16612777576040517f08c379a000000000000000000000000000000000000000000000000000000000815260040161276e90614155565b60405180910390fd5b61277f612868565b6127876128b8565b61278f612908565b61279881612971565b50565b6127a58282611971565b61281b576127b2816129f8565b6127bf835f1c6020612a25565b6040516020016127d092919061424b565b6040516020818303038152906040526040517f08c379a000000000000000000000000000000000000000000000000000000000815260040161281291906142bc565b60405180910390fd5b5050565b612827611837565b612866576040517f08c379a000000000000000000000000000000000000000000000000000000000815260040161285d90614326565b60405180910390fd5b565b5f60019054906101000a900460ff166128b6576040517f08c379a00000000000000000000000000000000000000000000000000000000081526004016128ad90614155565b60405180910390fd5b565b5f60019054906101000a900460ff16612906576040517f08c379a00000000000000000000000000000000000000000000000000000000081526004016128fd90614155565b60405180910390fd5b565b5f60019054906101000a900460ff16612956576040517f08c379a000000000000000000000000000000000000000000000000000000000815260040161294d90614155565b60405180910390fd5b5f60335f6101000a81548160ff021916908315150217905550565b5f60019054906101000a900460ff166129bf576040517f08c379a00000000000000000000000000000000000000000000000000000000081526004016129b690614155565b60405180910390fd5b6129cb5f801b82612c5a565b6129f57f65d7a28e3265b37a6474929f336521b332c1681b933f6cb9f3376673440d862a82612c5a565b50565b6060612a1e8273ffffffffffffffffffffffffffffffffffffffff16601460ff16612a25565b9050919050565b60605f6002836002612a3791906134f9565b612a4191906134c6565b67ffffffffffffffff811115612a5a57612a59614344565b5b6040519080825280601f01601f191660200182016040528015612a8c5781602001600182028036833780820191505090505b5090507f3000000000000000000000000000000000000000000000000000000000000000815f81518110612ac357612ac26139c4565b5b60200101907effffffffffffffffffffffffffffffffffffffffffffffffffffffffffffff191690815f1a9053507f780000000000000000000000000000000000000000000000000000000000000081600181518110612b2657612b256139c4565b5b60200101907effffffffffffffffffffffffffffffffffffffffffffffffffffffffffffff191690815f1a9053505f6001846002612b6491906134f9565b612b6e91906134c6565b90505b6001811115612c0d577f3031323334353637383961626364656600000000000000000000000000000000600f861660108110612bb057612baf6139c4565b5b1a60f81b828281518110612bc757612bc66139c4565b5b60200101907effffffffffffffffffffffffffffffffffffffffffffffffffffffffffffff191690815f1a905350600485901c945080612c0690614371565b9050612b71565b505f8414612c50576040517f08c379a0000000000000000000000000000000000000000000000000000000008152600401612c47906143e2565b60405180910390fd5b8091505092915050565b612c6482826122e6565b5050565b5f80fd5b5f80fd5b5f7fffffffff0000000000000000000000000000000000000000000000000000000082169050919050565b612ca481612c70565b8114612cae575f80fd5b50565b5f81359050612cbf81612c9b565b92915050565b5f60208284031215612cda57612cd9612c68565b5b5f612ce784828501612cb1565b91505092915050565b5f8115159050919050565b612d0481612cf0565b82525050565b5f602082019050612d1d5f830184612cfb565b92915050565b5f73ffffffffffffffffffffffffffffffffffffffff82169050919050565b5f612d4c82612d23565b9050919050565b612d5c81612d42565b8114612d66575f80fd5b50565b5f81359050612d7781612d53565b92915050565b5f60208284031215612d9257612d91612c68565b5b5f612d9f84828501612d69565b91505092915050565b5f8060408385031215612dbe57612dbd612c68565b5b5f612dcb85828601612d69565b9250506020612ddc85828601612d69565b9150509250929050565b5f819050919050565b612df881612de6565b8114612e02575f80fd5b50565b5f81359050612e1381612def565b92915050565b5f60208284031215612e2e57612e2d612c68565b5b5f612e3b84828501612e05565b91505092915050565b5f819050919050565b612e5681612e44565b8114612e60575f80fd5b50565b5f81359050612e7181612e4d565b92915050565b5f60208284031215612e8c57612e8b612c68565b5b5f612e9984828501612e63565b91505092915050565b612eab81612e44565b82525050565b5f602082019050612ec45f830184612ea2565b92915050565b5f8060408385031215612ee057612edf612c68565b5b5f612eed85828601612e63565b9250506020612efe85828601612d69565b9150509250929050565b5f80fd5b5f60a08284031215612f2157612f20612f08565b5b81905092915050565b5f60208284031215612f3f57612f3e612c68565b5b5f82013567ffffffffffffffff811115612f5c57612f5b612c6c565b5b612f6884828501612f0c565b91505092915050565b612f7a81612de6565b82525050565b5f602082019050612f935f830184612f71565b92915050565b5f80fd5b5f80fd5b5f80fd5b5f8083601f840112612fba57612fb9612f99565b5b8235905067ffffffffffffffff811115612fd757612fd6612f9d565b5b602083019150836020820283011115612ff357612ff2612fa1565b5b9250929050565b5f805f6040848603121561301157613010612c68565b5b5f61301e86828701612d69565b935050602084013567ffffffffffffffff81111561303f5761303e612c6c565b5b61304b86828701612fa5565b92509250509250925092565b5f805f805f805f805f6101208a8c03121561307557613074612c68565b5b5f6130828c828d01612d69565b99505060206130938c828d01612d69565b98505060406130a48c828d01612d69565b97505060606130b58c828d01612d69565b96505060806130c68c828d01612d69565b95505060a06130d78c828d01612e63565b94505060c06130e88c828d01612d69565b93505060e06130f98c828d01612e05565b92505061010061310b8c828d01612e05565b9150509295985092959850929598565b5f806040838503121561313157613130612c68565b5b5f61313e85828601612d69565b925050602061314f85828601612e05565b9150509250929050565b5f819050919050565b5f61317c61317761317284612d23565b613159565b612d23565b9050919050565b5f61318d82613162565b9050919050565b5f61319e82613183565b9050919050565b6131ae81613194565b82525050565b5f6020820190506131c75f8301846131a5565b92915050565b5f82825260208201905092915050565b7f506f6f6c3a20696e76616c696420726563697069656e740000000000000000005f82015250565b5f6132116017836131cd565b915061321c826131dd565b602082019050919050565b5f6020820190508181035f83015261323e81613205565b9050919050565b7f506f6f6c3a20696e76616c6964206465706f73697420616d6f756e74000000005f82015250565b5f613279601c836131cd565b915061328482613245565b602082019050919050565b5f6020820190508181035f8301526132a68161326d565b9050919050565b6132b681612cf0565b81146132c0575f80fd5b50565b5f815190506132d1816132ad565b92915050565b5f602082840312156132ec576132eb612c68565b5b5f6132f9848285016132c3565b91505092915050565b5f8151905061331081612def565b92915050565b5f6020828403121561332b5761332a612c68565b5b5f61333884828501613302565b91505092915050565b5f81905092915050565b50565b5f6133595f83613341565b91506133648261334b565b5f82019050919050565b5f6133788261334e565b9150819050919050565b7f4e487b71000000000000000000000000000000000000000000000000000000005f52601160045260245ffd5b5f6133b982612de6565b91506133c483612de6565b92508282039050818111156133dc576133db613382565b5b92915050565b6133eb81612d42565b82525050565b5f82825260208201905092915050565b5f61340c5f836133f1565b91506134178261334b565b5f82019050919050565b5f6080820190506134345f8301866133e2565b6134416020830185612f71565b61344e6040830184612cfb565b818103606083015261345f81613401565b9050949350505050565b7f4e487b71000000000000000000000000000000000000000000000000000000005f52601260045260245ffd5b5f6134a082612de6565b91506134ab83612de6565b9250826134bb576134ba613469565b5b828204905092915050565b5f6134d082612de6565b91506134db83612de6565b92508282019050808211156134f3576134f2613382565b5b92915050565b5f61350382612de6565b915061350e83612de6565b925082820261351c81612de6565b9150828204841483151761353357613532613382565b5b5092915050565b5f60408201905061354d5f830185612f71565b61355a6020830184612f71565b9392505050565b7f4f776e61626c655061757361626c653a206163636573732064656e69656400005f82015250565b5f613595601e836131cd565b91506135a082613561565b602082019050919050565b5f6020820190508181035f8301526135c281613589565b9050919050565b7f506f6f6c3a20696e76616c6964206c696d6974000000000000000000000000005f82015250565b5f6135fd6013836131cd565b9150613608826135c9565b602082019050919050565b5f6020820190508181035f83015261362a816135f1565b9050919050565b5f6040820190506136445f830185612f71565b61365160208301846133e2565b9392505050565b7f506f6f6c3a206163636573732064656e696564000000000000000000000000005f82015250565b5f61368c6013836131cd565b915061369782613658565b602082019050919050565b5f6020820190508181035f8301526136b981613680565b9050919050565b7f506f6f6c3a20696e76616c6964207769746864726177616c2063726564656e745f8201527f69616c7300000000000000000000000000000000000000000000000000000000602082015250565b5f61371a6024836131cd565b9150613725826136c0565b604082019050919050565b5f6020820190508181035f8301526137478161370e565b9050919050565b5f80fd5b5f80fd5b5f80fd5b5f80833560016020038436030381126137765761377561374e565b5b80840192508235915067ffffffffffffffff82111561379857613797613752565b5b6020830192506001820236038313156137b4576137b3613756565b5b509250929050565b828183375f83830152505050565b5f601f19601f8301169050919050565b5f6137e583856133f1565b93506137f28385846137bc565b6137fb836137ca565b840190509392505050565b5f6040820190508181035f83015261381f8185876137da565b905061382e60208301846133e2565b949350505050565b5f819050919050565b61385061384b82612e44565b613836565b82525050565b5f613861828461383f565b60208201915081905092915050565b5f81519050919050565b5f5b8381101561389757808201518184015260208101905061387c565b5f8484015250505050565b5f6138ac82613870565b6138b681856133f1565b93506138c681856020860161387a565b6138cf816137ca565b840191505092915050565b5f6080820190508181035f8301526138f381888a6137da565b9050818103602083015261390781876138a2565b9050818103604083015261391c8185876137da565b905061392b6060830184612ea2565b979650505050505050565b7f416363657373436f6e74726f6c3a2063616e206f6e6c792072656e6f756e63655f8201527f20726f6c657320666f722073656c660000000000000000000000000000000000602082015250565b5f613990602f836131cd565b915061399b82613936565b604082019050919050565b5f6020820190508181035f8301526139bd81613984565b9050919050565b7f4e487b71000000000000000000000000000000000000000000000000000000005f52603260045260245ffd5b5f6139fb82612de6565b91507fffffffffffffffffffffffffffffffffffffffffffffffffffffffffffffffff8203613a2d57613a2c613382565b5b600182019050919050565b7f496e697469616c697a61626c653a20636f6e747261637420697320616c7265615f8201527f647920696e697469616c697a6564000000000000000000000000000000000000602082015250565b5f613a92602e836131cd565b9150613a9d82613a38565b604082019050919050565b5f6020820190508181035f830152613abf81613a86565b9050919050565b7f506f6f6c3a207374616b65644c7978546f6b656e20616464726573732063616e5f8201527f6e6f74206265207a65726f000000000000000000000000000000000000000000602082015250565b5f613b20602b836131cd565b9150613b2b82613ac6565b604082019050919050565b5f6020820190508181035f830152613b4d81613b14565b9050919050565b7f506f6f6c3a207265776172644c7978546f6b656e20616464726573732063616e5f8201527f6e6f74206265207a65726f000000000000000000000000000000000000000000602082015250565b5f613bae602b836131cd565b9150613bb982613b54565b604082019050919050565b5f6020820190508181035f830152613bdb81613ba2565b9050919050565b7f506f6f6c3a2061646d696e20616464726573732063616e6e6f74206265207a655f8201527f726f000000000000000000000000000000000000000000000000000000000000602082015250565b5f613c3c6022836131cd565b9150613c4782613be2565b604082019050919050565b5f6020820190508181035f830152613c6981613c30565b9050919050565b7f506f6f6c3a206f7261636c657320616464726573732063616e6e6f74206265205f8201527f7a65726f00000000000000000000000000000000000000000000000000000000602082015250565b5f613cca6024836131cd565b9150613cd582613c70565b604082019050919050565b5f6020820190508181035f830152613cf781613cbe565b9050919050565b7f506f6f6c3a2076616c696461746f72526567697374726174696f6e20616464725f8201527f6573732063616e6e6f74206265207a65726f0000000000000000000000000000602082015250565b5f613d586032836131cd565b9150613d6382613cfe565b604082019050919050565b5f6020820190508181035f830152613d8581613d4c565b9050919050565b7f506f6f6c3a2076616c696461746f727320616464726573732063616e6e6f74205f8201527f6265207a65726f00000000000000000000000000000000000000000000000000602082015250565b5f613de66027836131cd565b9150613df182613d8c565b604082019050919050565b5f6020820190508181035f830152613e1381613dda565b9050919050565b7f506f6f6c3a207769746864726177616c43726564656e7469616c732063616e6e5f8201527f6f74206265207a65726f00000000000000000000000000000000000000000000602082015250565b5f613e74602a836131cd565b9150613e7f82613e1a565b604082019050919050565b5f6020820190508181035f830152613ea181613e68565b9050919050565b5f819050919050565b5f60ff82169050919050565b5f613ed7613ed2613ecd84613ea8565b613159565b613eb1565b9050919050565b613ee781613ebd565b82525050565b5f602082019050613f005f830184613ede565b92915050565b7f5061757361626c653a20706175736564000000000000000000000000000000005f82015250565b5f613f3a6010836131cd565b9150613f4582613f06565b602082019050919050565b5f6020820190508181035f830152613f6781613f2e565b9050919050565b7f5265656e7472616e637947756172643a207265656e7472616e742063616c6c005f82015250565b5f613fa2601f836131cd565b9150613fad82613f6e565b602082019050919050565b5f6020820190508181035f830152613fcf81613f96565b9050919050565b7f506f6f6c3a2076616c696461746f72206973206e6f74206163746976652079655f8201527f7400000000000000000000000000000000000000000000000000000000000000602082015250565b5f6140306021836131cd565b915061403b82613fd6565b604082019050919050565b5f6020820190508181035f83015261405d81614024565b9050919050565b7f506f6f6c3a20696e76616c69642076616c696461746f7220696e6465780000005f82015250565b5f614098601d836131cd565b91506140a382614064565b602082019050919050565b5f6020820190508181035f8301526140c58161408c565b9050919050565b5f6020820190506140df5f8301846133e2565b92915050565b7f496e697469616c697a61626c653a20636f6e7472616374206973206e6f7420695f8201527f6e697469616c697a696e67000000000000000000000000000000000000000000602082015250565b5f61413f602b836131cd565b915061414a826140e5565b604082019050919050565b5f6020820190508181035f83015261416c81614133565b9050919050565b5f81905092915050565b7f416363657373436f6e74726f6c3a206163636f756e74200000000000000000005f82015250565b5f6141b1601783614173565b91506141bc8261417d565b601782019050919050565b5f81519050919050565b5f6141db826141c7565b6141e58185614173565b93506141f581856020860161387a565b80840191505092915050565b7f206973206d697373696e6720726f6c65200000000000000000000000000000005f82015250565b5f614235601183614173565b915061424082614201565b601182019050919050565b5f614255826141a5565b915061426182856141d1565b915061426c82614229565b915061427882846141d1565b91508190509392505050565b5f61428e826141c7565b61429881856131cd565b93506142a881856020860161387a565b6142b1816137ca565b840191505092915050565b5f6020820190508181035f8301526142d48184614284565b905092915050565b7f5061757361626c653a206e6f74207061757365640000000000000000000000005f82015250565b5f6143106014836131cd565b915061431b826142dc565b602082019050919050565b5f6020820190508181035f83015261433d81614304565b9050919050565b7f4e487b71000000000000000000000000000000000000000000000000000000005f52604160045260245ffd5b5f61437b82612de6565b91505f820361438d5761438c613382565b5b600182039050919050565b7f537472696e67733a20686578206c656e67746820696e73756666696369656e745f82015250565b5f6143cc6020836131cd565b91506143d782614398565b602082019050919050565b5f6020820190508181035f8301526143f9816143c0565b905091905056fea2646970667358221220f2850eb0464df99ce8834231c9103f83fd3533a9500c827e23da6fb4daaa9de764736f6c63430008140033",
  "linkReferences": {},
  "deployedLinkReferences": {}
}