{
  "_format": "hh-sol-artifact-1",
  "contractName": "StakedLyxToken",
  "sourceName": "contracts/tokens/StakedLyxToken.sol",
  "abi": [
    {
      "inputs": [],
      "name": "ERC725Y_DataKeysValuesEmptyArray",
      "type": "error"
    },
    {
      "inputs": [],
      "name": "ERC725Y_DataKeysValuesLengthMismatch",
      "type": "error"
    },
    {
      "inputs": [],
      "name": "ERC725Y_MsgValueDisallowed",
      "type": "error"
    },
    {
      "inputs": [],
      "name": "LSP4TokenNameNotEditable",
      "type": "error"
    },
    {
      "inputs": [],
      "name": "LSP4TokenSymbolNotEditable",
      "type": "error"
    },
    {
      "inputs": [
        {
          "internalType": "address",
          "name": "tokenOwner",
          "type": "address"
        },
        {
          "internalType": "uint256",
          "name": "authorizedAmount",
          "type": "uint256"
        },
        {
          "internalType": "address",
          "name": "operator",
          "type": "address"
        },
        {
          "internalType": "uint256",
          "name": "amount",
          "type": "uint256"
        }
      ],
      "name": "LSP7AmountExceedsAuthorizedAmount",
      "type": "error"
    },
    {
      "inputs": [
        {
          "internalType": "uint256",
          "name": "balance",
          "type": "uint256"
        },
        {
          "internalType": "address",
          "name": "tokenOwner",
          "type": "address"
        },
        {
          "internalType": "uint256",
          "name": "amount",
          "type": "uint256"
        }
      ],
      "name": "LSP7AmountExceedsBalance",
      "type": "error"
    },
    {
      "inputs": [],
      "name": "LSP7CannotSendToSelf",
      "type": "error"
    },
    {
      "inputs": [],
      "name": "LSP7CannotSendWithAddressZero",
      "type": "error"
    },
    {
      "inputs": [],
      "name": "LSP7CannotUseAddressZeroAsOperator",
      "type": "error"
    },
    {
      "inputs": [],
      "name": "LSP7InvalidTransferBatch",
      "type": "error"
    },
    {
      "inputs": [
        {
          "internalType": "address",
          "name": "tokenReceiver",
          "type": "address"
        }
      ],
      "name": "LSP7NotifyTokenReceiverContractMissingLSP1Interface",
      "type": "error"
    },
    {
      "inputs": [
        {
          "internalType": "address",
          "name": "tokenReceiver",
          "type": "address"
        }
      ],
      "name": "LSP7NotifyTokenReceiverIsEOA",
      "type": "error"
    },
    {
      "inputs": [],
      "name": "LSP7TokenOwnerCannotBeOperator",
      "type": "error"
    },
    {
      "anonymous": false,
      "inputs": [
        {
          "indexed": true,
          "internalType": "address",
          "name": "owner",
          "type": "address"
        },
        {
          "indexed": true,
          "internalType": "address",
          "name": "spender",
          "type": "address"
        },
        {
          "indexed": false,
          "internalType": "uint256",
          "name": "value",
          "type": "uint256"
        }
      ],
      "name": "Approval",
      "type": "event"
    },
    {
      "anonymous": false,
      "inputs": [
        {
          "indexed": true,
          "internalType": "address",
          "name": "operator",
          "type": "address"
        },
        {
          "indexed": true,
          "internalType": "address",
          "name": "tokenOwner",
          "type": "address"
        },
        {
          "indexed": true,
          "internalType": "uint256",
          "name": "amount",
          "type": "uint256"
        }
      ],
      "name": "AuthorizedOperator",
      "type": "event"
    },
    {
      "anonymous": false,
      "inputs": [
        {
          "indexed": true,
          "internalType": "bytes32",
          "name": "dataKey",
          "type": "bytes32"
        },
        {
          "indexed": false,
          "internalType": "bytes",
          "name": "dataValue",
          "type": "bytes"
        }
      ],
      "name": "DataChanged",
      "type": "event"
    },
    {
      "anonymous": false,
      "inputs": [
        {
          "indexed": false,
          "internalType": "uint8",
          "name": "version",
          "type": "uint8"
        }
      ],
      "name": "Initialized",
      "type": "event"
    },
    {
      "anonymous": false,
      "inputs": [
        {
          "indexed": true,
          "internalType": "uint256",
          "name": "requestIndex",
          "type": "uint256"
        },
        {
          "indexed": true,
          "internalType": "address",
          "name": "account",
          "type": "address"
        },
        {
          "indexed": false,
          "internalType": "uint256",
          "name": "amount",
          "type": "uint256"
        },
        {
          "indexed": false,
          "internalType": "uint256",
          "name": "newTotalPendingUnstake",
          "type": "uint256"
        }
      ],
      "name": "NewUnstakeRequest",
      "type": "event"
    },
    {
      "anonymous": false,
      "inputs": [
        {
          "indexed": true,
          "internalType": "address",
          "name": "previousOwner",
          "type": "address"
        },
        {
          "indexed": true,
          "internalType": "address",
          "name": "newOwner",
          "type": "address"
        }
      ],
      "name": "OwnershipTransferred",
      "type": "event"
    },
    {
      "anonymous": false,
      "inputs": [
        {
          "indexed": false,
          "internalType": "address",
          "name": "account",
          "type": "address"
        }
      ],
      "name": "Paused",
      "type": "event"
    },
    {
      "anonymous": false,
      "inputs": [
        {
          "indexed": true,
          "internalType": "address",
          "name": "operator",
          "type": "address"
        },
        {
          "indexed": true,
          "internalType": "address",
          "name": "tokenOwner",
          "type": "address"
        }
      ],
      "name": "RevokedOperator",
      "type": "event"
    },
    {
      "anonymous": false,
      "inputs": [
        {
          "indexed": true,
          "internalType": "bytes32",
          "name": "role",
          "type": "bytes32"
        },
        {
          "indexed": true,
          "internalType": "bytes32",
          "name": "previousAdminRole",
          "type": "bytes32"
        },
        {
          "indexed": true,
          "internalType": "bytes32",
          "name": "newAdminRole",
          "type": "bytes32"
        }
      ],
      "name": "RoleAdminChanged",
      "type": "event"
    },
    {
      "anonymous": false,
      "inputs": [
        {
          "indexed": true,
          "internalType": "bytes32",
          "name": "role",
          "type": "bytes32"
        },
        {
          "indexed": true,
          "internalType": "address",
          "name": "account",
          "type": "address"
        },
        {
          "indexed": true,
          "internalType": "address",
          "name": "sender",
          "type": "address"
        }
      ],
      "name": "RoleGranted",
      "type": "event"
    },
    {
      "anonymous": false,
      "inputs": [
        {
          "indexed": true,
          "internalType": "bytes32",
          "name": "role",
          "type": "bytes32"
        },
        {
          "indexed": true,
          "internalType": "address",
          "name": "account",
          "type": "address"
        },
        {
          "indexed": true,
          "internalType": "address",
          "name": "sender",
          "type": "address"
        }
      ],
      "name": "RoleRevoked",
      "type": "event"
    },
    {
      "anonymous": false,
      "inputs": [
        {
          "indexed": true,
          "internalType": "address",
          "name": "operator",
          "type": "address"
        },
        {
          "indexed": true,
          "internalType": "address",
          "name": "from",
          "type": "address"
        },
        {
          "indexed": true,
          "internalType": "address",
          "name": "to",
          "type": "address"
        },
        {
          "indexed": false,
          "internalType": "uint256",
          "name": "amount",
          "type": "uint256"
        },
        {
          "indexed": false,
          "internalType": "bool",
          "name": "allowNonLSP1Recipient",
          "type": "bool"
        },
        {
          "indexed": false,
          "internalType": "bytes",
          "name": "data",
          "type": "bytes"
        }
      ],
      "name": "Transfer",
      "type": "event"
    },
    {
      "anonymous": false,
      "inputs": [
        {
          "indexed": false,
          "internalType": "address",
          "name": "account",
          "type": "address"
        }
      ],
      "name": "Unpaused",
      "type": "event"
    },
    {
      "anonymous": false,
      "inputs": [
        {
          "indexed": false,
          "internalType": "uint256",
          "name": "amountMatched",
          "type": "uint256"
        },
        {
          "indexed": false,
          "internalType": "uint256",
          "name": "newTotalPendingUnstake",
          "type": "uint256"
        }
      ],
      "name": "UnstakeMatched",
      "type": "event"
    },
    {
      "anonymous": false,
      "inputs": [
        {
          "indexed": false,
          "internalType": "uint256",
          "name": "unstakeAmount",
          "type": "uint256"
        },
        {
          "indexed": false,
          "internalType": "uint256",
          "name": "newTotalPendingUnstake",
          "type": "uint256"
        }
      ],
      "name": "UnstakeProcessed",
      "type": "event"
    },
    {
      "anonymous": false,
      "inputs": [
        {
          "indexed": false,
          "internalType": "uint256",
          "name": "validatorsToExit",
          "type": "uint256"
        }
      ],
      "name": "UnstakeReady",
      "type": "event"
    },
    {
      "inputs": [],
      "name": "DEFAULT_ADMIN_ROLE",
      "outputs": [
        {
          "internalType": "bytes32",
          "name": "",
          "type": "bytes32"
        }
      ],
      "stateMutability": "view",
      "type": "function"
    },
    {
      "inputs": [],
      "name": "PAUSER_ROLE",
      "outputs": [
        {
          "internalType": "bytes32",
          "name": "",
          "type": "bytes32"
        }
      ],
      "stateMutability": "view",
      "type": "function"
    },
    {
      "inputs": [],
      "name": "VALIDATOR_TOTAL_DEPOSIT",
      "outputs": [
        {
          "internalType": "uint256",
          "name": "",
          "type": "uint256"
        }
      ],
      "stateMutability": "view",
      "type": "function"
    },
    {
      "inputs": [
        {
          "internalType": "address",
          "name": "_account",
          "type": "address"
        }
      ],
      "name": "addAdmin",
      "outputs": [],
      "stateMutability": "nonpayable",
      "type": "function"
    },
    {
      "inputs": [
        {
          "internalType": "address",
          "name": "_account",
          "type": "address"
        }
      ],
      "name": "addPauser",
      "outputs": [],
      "stateMutability": "nonpayable",
      "type": "function"
    },
    {
      "inputs": [
        {
          "internalType": "address",
          "name": "tokenOwner",
          "type": "address"
        },
        {
          "internalType": "address",
          "name": "operator",
          "type": "address"
        }
      ],
      "name": "allowance",
      "outputs": [
        {
          "internalType": "uint256",
          "name": "",
          "type": "uint256"
        }
      ],
      "stateMutability": "view",
      "type": "function"
    },
    {
      "inputs": [
        {
          "internalType": "address",
          "name": "operator",
          "type": "address"
        },
        {
          "internalType": "uint256",
          "name": "amount",
          "type": "uint256"
        }
      ],
      "name": "approve",
      "outputs": [
        {
          "internalType": "bool",
          "name": "",
          "type": "bool"
        }
      ],
      "stateMutability": "nonpayable",
      "type": "function"
    },
    {
      "inputs": [
        {
          "internalType": "address",
          "name": "operator",
          "type": "address"
        },
        {
          "internalType": "uint256",
          "name": "amount",
          "type": "uint256"
        }
      ],
      "name": "authorizeOperator",
      "outputs": [],
      "stateMutability": "nonpayable",
      "type": "function"
    },
    {
      "inputs": [
        {
          "internalType": "address",
          "name": "operator",
          "type": "address"
        },
        {
          "internalType": "address",
          "name": "tokenOwner",
          "type": "address"
        }
      ],
      "name": "authorizedAmountFor",
      "outputs": [
        {
          "internalType": "uint256",
          "name": "",
          "type": "uint256"
        }
      ],
      "stateMutability": "view",
      "type": "function"
    },
    {
      "inputs": [
        {
          "internalType": "address",
          "name": "tokenOwner",
          "type": "address"
        }
      ],
      "name": "balanceOf",
      "outputs": [
        {
          "internalType": "uint256",
          "name": "",
          "type": "uint256"
        }
      ],
      "stateMutability": "view",
      "type": "function"
    },
    {
      "inputs": [
        {
          "internalType": "address",
          "name": "account",
          "type": "address"
        },
        {
          "internalType": "uint256[]",
          "name": "unstakeRequestIndexes",
          "type": "uint256[]"
        }
      ],
      "name": "claimUnstake",
      "outputs": [
        {
          "internalType": "uint256",
          "name": "",
          "type": "uint256"
        }
      ],
      "stateMutability": "nonpayable",
      "type": "function"
    },
    {
      "inputs": [],
      "name": "decimals",
      "outputs": [
        {
          "internalType": "uint8",
          "name": "",
          "type": "uint8"
        }
      ],
      "stateMutability": "view",
      "type": "function"
    },
    {
      "inputs": [],
      "name": "distributorPrincipal",
      "outputs": [
        {
          "internalType": "uint256",
          "name": "",
          "type": "uint256"
        }
      ],
      "stateMutability": "view",
      "type": "function"
    },
    {
      "inputs": [
        {
          "internalType": "bytes32",
          "name": "dataKey",
          "type": "bytes32"
        }
      ],
      "name": "getData",
      "outputs": [
        {
          "internalType": "bytes",
          "name": "dataValue",
          "type": "bytes"
        }
      ],
      "stateMutability": "view",
      "type": "function"
    },
    {
      "inputs": [
        {
          "internalType": "bytes32[]",
          "name": "dataKeys",
          "type": "bytes32[]"
        }
      ],
      "name": "getDataBatch",
      "outputs": [
        {
          "internalType": "bytes[]",
          "name": "dataValues",
          "type": "bytes[]"
        }
      ],
      "stateMutability": "view",
      "type": "function"
    },
    {
      "inputs": [
        {
          "internalType": "bytes32",
          "name": "role",
          "type": "bytes32"
        }
      ],
      "name": "getRoleAdmin",
      "outputs": [
        {
          "internalType": "bytes32",
          "name": "",
          "type": "bytes32"
        }
      ],
      "stateMutability": "view",
      "type": "function"
    },
    {
      "inputs": [
        {
          "internalType": "bytes32",
          "name": "role",
          "type": "bytes32"
        },
        {
          "internalType": "address",
          "name": "account",
          "type": "address"
        }
      ],
      "name": "grantRole",
      "outputs": [],
      "stateMutability": "nonpayable",
      "type": "function"
    },
    {
      "inputs": [
        {
          "internalType": "bytes32",
          "name": "role",
          "type": "bytes32"
        },
        {
          "internalType": "address",
          "name": "account",
          "type": "address"
        }
      ],
      "name": "hasRole",
      "outputs": [
        {
          "internalType": "bool",
          "name": "",
          "type": "bool"
        }
      ],
      "stateMutability": "view",
      "type": "function"
    },
    {
      "inputs": [
        {
          "internalType": "address",
          "name": "_admin",
          "type": "address"
        },
        {
          "internalType": "address",
          "name": "_pool",
          "type": "address"
        },
        {
          "internalType": "address",
          "name": "_oracles",
          "type": "address"
        },
        {
          "internalType": "contract IRewardLyxToken",
          "name": "_rewardLyxToken",
          "type": "address"
        }
      ],
      "name": "initialize",
      "outputs": [],
      "stateMutability": "nonpayable",
      "type": "function"
    },
    {
      "inputs": [
        {
          "internalType": "address",
          "name": "_account",
          "type": "address"
        }
      ],
      "name": "isAdmin",
      "outputs": [
        {
          "internalType": "bool",
          "name": "",
          "type": "bool"
        }
      ],
      "stateMutability": "view",
      "type": "function"
    },
    {
      "inputs": [
        {
          "internalType": "address",
          "name": "_account",
          "type": "address"
        }
      ],
      "name": "isPauser",
      "outputs": [
        {
          "internalType": "bool",
          "name": "",
          "type": "bool"
        }
      ],
      "stateMutability": "view",
      "type": "function"
    },
    {
      "inputs": [
        {
          "internalType": "uint256",
          "name": "index",
          "type": "uint256"
        }
      ],
      "name": "isUnstakeRequestClaimable",
      "outputs": [
        {
          "internalType": "bool",
          "name": "",
          "type": "bool"
        }
      ],
      "stateMutability": "view",
      "type": "function"
    },
    {
      "inputs": [
        {
          "internalType": "uint256",
          "name": "amount",
          "type": "uint256"
        }
      ],
      "name": "matchUnstake",
      "outputs": [
        {
          "internalType": "uint256",
          "name": "",
          "type": "uint256"
        }
      ],
      "stateMutability": "nonpayable",
      "type": "function"
    },
    {
      "inputs": [
        {
          "internalType": "address",
          "name": "to",
          "type": "address"
        },
        {
          "internalType": "uint256",
          "name": "amount",
          "type": "uint256"
        },
        {
          "internalType": "bool",
          "name": "allowNonLSP1Recipient",
          "type": "bool"
        },
        {
          "internalType": "bytes",
          "name": "data",
          "type": "bytes"
        }
      ],
      "name": "mint",
      "outputs": [],
      "stateMutability": "nonpayable",
      "type": "function"
    },
    {
      "inputs": [],
      "name": "owner",
      "outputs": [
        {
          "internalType": "address",
          "name": "",
          "type": "address"
        }
      ],
      "stateMutability": "view",
      "type": "function"
    },
    {
      "inputs": [],
      "name": "pause",
      "outputs": [],
      "stateMutability": "nonpayable",
      "type": "function"
    },
    {
      "inputs": [],
      "name": "paused",
      "outputs": [
        {
          "internalType": "bool",
          "name": "",
          "type": "bool"
        }
      ],
      "stateMutability": "view",
      "type": "function"
    },
    {
      "inputs": [
        {
          "internalType": "address",
          "name": "_account",
          "type": "address"
        }
      ],
      "name": "removeAdmin",
      "outputs": [],
      "stateMutability": "nonpayable",
      "type": "function"
    },
    {
      "inputs": [
        {
          "internalType": "address",
          "name": "_account",
          "type": "address"
        }
      ],
      "name": "removePauser",
      "outputs": [],
      "stateMutability": "nonpayable",
      "type": "function"
    },
    {
      "inputs": [],
      "name": "renounceOwnership",
      "outputs": [],
      "stateMutability": "nonpayable",
      "type": "function"
    },
    {
      "inputs": [
        {
          "internalType": "bytes32",
          "name": "role",
          "type": "bytes32"
        },
        {
          "internalType": "address",
          "name": "account",
          "type": "address"
        }
      ],
      "name": "renounceRole",
      "outputs": [],
      "stateMutability": "nonpayable",
      "type": "function"
    },
    {
      "inputs": [
        {
          "internalType": "address",
          "name": "operator",
          "type": "address"
        }
      ],
      "name": "revokeOperator",
      "outputs": [],
      "stateMutability": "nonpayable",
      "type": "function"
    },
    {
      "inputs": [
        {
          "internalType": "bytes32",
          "name": "role",
          "type": "bytes32"
        },
        {
          "internalType": "address",
          "name": "account",
          "type": "address"
        }
      ],
      "name": "revokeRole",
      "outputs": [],
      "stateMutability": "nonpayable",
      "type": "function"
    },
    {
      "inputs": [
        {
          "internalType": "bytes32",
          "name": "dataKey",
          "type": "bytes32"
        },
        {
          "internalType": "bytes",
          "name": "dataValue",
          "type": "bytes"
        }
      ],
      "name": "setData",
      "outputs": [],
      "stateMutability": "payable",
      "type": "function"
    },
    {
      "inputs": [
        {
          "internalType": "bytes32[]",
          "name": "dataKeys",
          "type": "bytes32[]"
        },
        {
          "internalType": "bytes[]",
          "name": "dataValues",
          "type": "bytes[]"
        }
      ],
      "name": "setDataBatch",
      "outputs": [],
      "stateMutability": "payable",
      "type": "function"
    },
    {
      "inputs": [],
      "name": "setUnstakeProcessing",
      "outputs": [],
      "stateMutability": "nonpayable",
      "type": "function"
    },
    {
      "inputs": [
        {
          "internalType": "bytes4",
          "name": "interfaceId",
          "type": "bytes4"
        }
      ],
      "name": "supportsInterface",
      "outputs": [
        {
          "internalType": "bool",
          "name": "",
          "type": "bool"
        }
      ],
      "stateMutability": "view",
      "type": "function"
    },
    {
      "inputs": [
        {
          "internalType": "address",
          "name": "tokenOwner",
          "type": "address"
        },
        {
          "internalType": "bool",
          "name": "isDisabled",
          "type": "bool"
        }
      ],
      "name": "toggleRewards",
      "outputs": [],
      "stateMutability": "nonpayable",
      "type": "function"
    },
    {
      "inputs": [],
      "name": "totalClaimableUnstakes",
      "outputs": [
        {
          "internalType": "uint256",
          "name": "",
          "type": "uint256"
        }
      ],
      "stateMutability": "view",
      "type": "function"
    },
    {
      "inputs": [],
      "name": "totalDeposits",
      "outputs": [
        {
          "internalType": "uint256",
          "name": "",
          "type": "uint256"
        }
      ],
      "stateMutability": "view",
      "type": "function"
    },
    {
      "inputs": [],
      "name": "totalPendingUnstake",
      "outputs": [
        {
          "internalType": "uint256",
          "name": "",
          "type": "uint256"
        }
      ],
      "stateMutability": "view",
      "type": "function"
    },
    {
      "inputs": [],
      "name": "totalSupply",
      "outputs": [
        {
          "internalType": "uint256",
          "name": "",
          "type": "uint256"
        }
      ],
      "stateMutability": "view",
      "type": "function"
    },
    {
      "inputs": [],
      "name": "totalUnstaked",
      "outputs": [
        {
          "internalType": "uint256",
          "name": "",
          "type": "uint256"
        }
      ],
      "stateMutability": "view",
      "type": "function"
    },
    {
      "inputs": [
        {
          "internalType": "address",
          "name": "from",
          "type": "address"
        },
        {
          "internalType": "address",
          "name": "to",
          "type": "address"
        },
        {
          "internalType": "uint256",
          "name": "amount",
          "type": "uint256"
        },
        {
          "internalType": "bool",
          "name": "allowNonLSP1Recipient",
          "type": "bool"
        },
        {
          "internalType": "bytes",
          "name": "data",
          "type": "bytes"
        }
      ],
      "name": "transfer",
      "outputs": [],
      "stateMutability": "nonpayable",
      "type": "function"
    },
    {
      "inputs": [
        {
          "internalType": "address",
          "name": "to",
          "type": "address"
        },
        {
          "internalType": "uint256",
          "name": "amount",
          "type": "uint256"
        }
      ],
      "name": "transfer",
      "outputs": [
        {
          "internalType": "bool",
          "name": "",
          "type": "bool"
        }
      ],
      "stateMutability": "nonpayable",
      "type": "function"
    },
    {
      "inputs": [
        {
          "internalType": "address[]",
          "name": "from",
          "type": "address[]"
        },
        {
          "internalType": "address[]",
          "name": "to",
          "type": "address[]"
        },
        {
          "internalType": "uint256[]",
          "name": "amount",
          "type": "uint256[]"
        },
        {
          "internalType": "bool[]",
          "name": "allowNonLSP1Recipient",
          "type": "bool[]"
        },
        {
          "internalType": "bytes[]",
          "name": "data",
          "type": "bytes[]"
        }
      ],
      "name": "transferBatch",
      "outputs": [],
      "stateMutability": "nonpayable",
      "type": "function"
    },
    {
      "inputs": [
        {
          "internalType": "address",
          "name": "from",
          "type": "address"
        },
        {
          "internalType": "address",
          "name": "to",
          "type": "address"
        },
        {
          "internalType": "uint256",
          "name": "amount",
          "type": "uint256"
        }
      ],
      "name": "transferFrom",
      "outputs": [
        {
          "internalType": "bool",
          "name": "",
          "type": "bool"
        }
      ],
      "stateMutability": "nonpayable",
      "type": "function"
    },
    {
      "inputs": [
        {
          "internalType": "address",
          "name": "newOwner",
          "type": "address"
        }
      ],
      "name": "transferOwnership",
      "outputs": [],
      "stateMutability": "nonpayable",
      "type": "function"
    },
    {
      "inputs": [],
      "name": "unpause",
      "outputs": [],
      "stateMutability": "nonpayable",
      "type": "function"
    },
    {
      "inputs": [
        {
          "internalType": "uint256",
          "name": "amount",
          "type": "uint256"
        }
      ],
      "name": "unstake",
      "outputs": [],
      "stateMutability": "nonpayable",
      "type": "function"
    },
    {
      "inputs": [
        {
          "internalType": "uint256",
          "name": "exitedValidators",
          "type": "uint256"
        }
      ],
      "name": "unstakeProcessed",
      "outputs": [],
      "stateMutability": "nonpayable",
      "type": "function"
    },
    {
      "inputs": [],
      "name": "unstakeProcessing",
      "outputs": [
        {
          "internalType": "bool",
          "name": "",
          "type": "bool"
        }
      ],
      "stateMutability": "view",
      "type": "function"
    },
    {
      "inputs": [
        {
          "internalType": "uint256",
          "name": "index",
          "type": "uint256"
        }
      ],
      "name": "unstakeRequest",
      "outputs": [
        {
          "components": [
            {
              "internalType": "address",
              "name": "account",
              "type": "address"
            },
            {
              "internalType": "uint128",
              "name": "amount",
              "type": "uint128"
            },
            {
              "internalType": "uint128",
              "name": "amountFilled",
              "type": "uint128"
            },
            {
              "internalType": "bool",
              "name": "claimed",
              "type": "bool"
            }
          ],
          "internalType": "struct IStakedLyxToken.UnstakeRequest",
          "name": "",
          "type": "tuple"
        }
      ],
      "stateMutability": "view",
      "type": "function"
    },
    {
      "inputs": [],
      "name": "unstakeRequestCount",
      "outputs": [
        {
          "internalType": "uint256",
          "name": "",
          "type": "uint256"
        }
      ],
      "stateMutability": "view",
      "type": "function"
    },
    {
      "inputs": [],
      "name": "unstakeRequestCurrentIndex",
      "outputs": [
        {
          "internalType": "uint256",
          "name": "",
          "type": "uint256"
        }
      ],
      "stateMutability": "view",
      "type": "function"
    }
  ],
  "bytecode": "0x608060405234801561000f575f80fd5b50617735806200001e5f395ff3fe60806040526004361061034f575f3560e01c80636b2c0f55116101c557806391d14854116100f6578063d547741f11610094578063e63ab1e91161006e578063e63ab1e914610c5b578063f2fde38b14610c85578063f8c8765e14610cad578063fad8b32a14610cd55761034f565b8063d547741f14610bbb578063dd62ed3e14610be3578063dedff9c614610c1f5761034f565b8063a217fddf116100d0578063a217fddf14610b03578063a9059cbb14610b2d578063ae5e0f7a14610b69578063c76e317414610b935761034f565b806391d1485414610a6f5780639790242114610aab5780639886f99a14610ac75761034f565b80637d882097116101635780638456cb591161013d5780638456cb59146109dd57806384f6ab30146109f35780638da5cb5b14610a095780638ee9f8e014610a335761034f565b80637d8820971461096f5780637f23690c1461099957806382dc1ec4146109b55761034f565b8063715018a61161019f578063715018a6146108df5780637580d920146108f5578063760d9bba1461091d57806377aec521146109455761034f565b80636b2c0f5514610853578063704802751461087b57806370a08231146108a35761034f565b80632d7667c91161029f57806346fbf68e1161023d5780635235934d116102175780635235934d1461078757806354f6127f146107b15780635c975abb146107ed57806365aeaa95146108175761034f565b806346fbf68e146106f957806347980aa3146107355780634baee8e41461075d5761034f565b8063313ce56711610279578063313ce5671461066757806336568abe146106915780633d173136146106b95780633f4ba83a146106e35761034f565b80632d7667c9146105ef5780632e17de78146106175780632f2ff15d1461063f5761034f565b80631785f53c1161030c5780632296728d116102e65780632296728d1461051157806323b872dd1461053b578063248a9ca31461057757806324d7806c146105b35761034f565b80631785f53c1461049757806318160ddd146104bf57806318dab53b146104e95761034f565b806301ffc9a714610353578063095ea7b31461038f57806310fbf713146103cb578063158783e9146103f5578063167bd1d81461043157806316bc06d81461046d575b5f80fd5b34801561035e575f80fd5b5061037960048036038101906103749190614e37565b610cfd565b6040516103869190614e7c565b60405180910390f35b34801561039a575f80fd5b506103b560048036038101906103b09190614f22565b610d0e565b6040516103c29190614e7c565b60405180910390f35b3480156103d6575f80fd5b506103df610d23565b6040516103ec9190614e7c565b60405180910390f35b348015610400575f80fd5b5061041b60048036038101906104169190614fc1565b610d36565b604051610428919061502d565b60405180910390f35b34801561043c575f80fd5b5061045760048036038101906104529190615046565b610f5b565b604051610464919061502d565b60405180910390f35b348015610478575f80fd5b5061048161132f565b60405161048e919061502d565b60405180910390f35b3480156104a2575f80fd5b506104bd60048036038101906104b89190615071565b6114ad565b005b3480156104ca575f80fd5b506104d36114bc565b6040516104e0919061502d565b60405180910390f35b3480156104f4575f80fd5b5061050f600480360381019061050a91906150c6565b6114c5565b005b34801561051c575f80fd5b50610525611687565b604051610532919061502d565b60405180910390f35b348015610546575f80fd5b50610561600480360381019061055c9190615104565b61168e565b60405161056e9190614e7c565b60405180910390f35b348015610582575f80fd5b5061059d60048036038101906105989190615187565b6116b6565b6040516105aa91906151c1565b60405180910390f35b3480156105be575f80fd5b506105d960048036038101906105d49190615071565b6116d3565b6040516105e69190614e7c565b60405180910390f35b3480156105fa575f80fd5b5061061560048036038101906106109190615630565b6116e7565b005b348015610622575f80fd5b5061063d60048036038101906106389190615046565b6117fe565b005b34801561064a575f80fd5b5061066560048036038101906106609190615733565b611c3c565b005b348015610672575f80fd5b5061067b611c5d565b604051610688919061578c565b60405180910390f35b34801561069c575f80fd5b506106b760048036038101906106b29190615733565b611c65565b005b3480156106c4575f80fd5b506106cd611ce8565b6040516106da919061502d565b60405180910390f35b3480156106ee575f80fd5b506106f7611cee565b005b348015610704575f80fd5b5061071f600480360381019061071a9190615071565b611d61565b60405161072c9190614e7c565b60405180910390f35b348015610740575f80fd5b5061075b60048036038101906107569190614f22565b611d93565b005b348015610768575f80fd5b50610771611da2565b60405161077e919061502d565b60405180910390f35b348015610792575f80fd5b5061079b611da9565b6040516107a8919061502d565b60405180910390f35b3480156107bc575f80fd5b506107d760048036038101906107d29190615187565b611daf565b6040516107e4919061581f565b60405180910390f35b3480156107f8575f80fd5b50610801611dc1565b60405161080e9190614e7c565b60405180910390f35b348015610822575f80fd5b5061083d6004803603810190610838919061583f565b611dd6565b60405161084a919061502d565b60405180910390f35b34801561085e575f80fd5b5061087960048036038101906108749190615071565b611ed3565b005b348015610886575f80fd5b506108a1600480360381019061089c9190615071565b611f00565b005b3480156108ae575f80fd5b506108c960048036038101906108c49190615071565b611f0f565b6040516108d6919061502d565b60405180910390f35b3480156108ea575f80fd5b506108f3611f56565b005b348015610900575f80fd5b5061091b6004803603810190610916919061587d565b611f69565b005b348015610928575f80fd5b50610943600480360381019061093e91906158fd565b6120c7565b005b348015610950575f80fd5b50610959612258565b604051610966919061502d565b60405180910390f35b34801561097a575f80fd5b50610983612265565b604051610990919061502d565b60405180910390f35b6109b360048036038101906109ae9190615990565b61226e565b005b3480156109c0575f80fd5b506109db60048036038101906109d69190615071565b6122bd565b005b3480156109e8575f80fd5b506109f16122ea565b005b3480156109fe575f80fd5b50610a0761235d565b005b348015610a14575f80fd5b50610a1d61250d565b604051610a2a91906159f9565b60405180910390f35b348015610a3e575f80fd5b50610a596004803603810190610a549190615046565b612535565b604051610a669190614e7c565b60405180910390f35b348015610a7a575f80fd5b50610a956004803603810190610a909190615733565b6126d4565b604051610aa29190614e7c565b60405180910390f35b610ac56004803603810190610ac09190615ad2565b612738565b005b348015610ad2575f80fd5b50610aed6004803603810190610ae89190615046565b612847565b604051610afa9190615be3565b60405180910390f35b348015610b0e575f80fd5b50610b176129ff565b604051610b2491906151c1565b60405180910390f35b348015610b38575f80fd5b50610b536004803603810190610b4e9190614f22565b612a05565b604051610b609190614e7c565b60405180910390f35b348015610b74575f80fd5b50610b7d612a2c565b604051610b8a919061502d565b60405180910390f35b348015610b9e575f80fd5b50610bb96004803603810190610bb49190615046565b612a33565b005b348015610bc6575f80fd5b50610be16004803603810190610bdc9190615733565b612e1e565b005b348015610bee575f80fd5b50610c096004803603810190610c04919061583f565b612e3f565b604051610c16919061502d565b60405180910390f35b348015610c2a575f80fd5b50610c456004803603810190610c409190615bfc565b612e52565b604051610c529190615d46565b60405180910390f35b348015610c66575f80fd5b50610c6f612f02565b604051610c7c91906151c1565b60405180910390f35b348015610c90575f80fd5b50610cab6004803603810190610ca69190615071565b612f26565b005b348015610cb8575f80fd5b50610cd36004803603810190610cce9190615da1565b612fa8565b005b348015610ce0575f80fd5b50610cfb6004803603810190610cf69190615071565b6133d5565b005b5f610d07826133e3565b9050919050565b5f610d198383611d93565b6001905092915050565b6101025f9054906101000a900460ff1681565b5f6101085f9054906101000a900473ffffffffffffffffffffffffffffffffffffffff1673ffffffffffffffffffffffffffffffffffffffff163373ffffffffffffffffffffffffffffffffffffffff1614610dc7576040517f08c379a0000000000000000000000000000000000000000000000000000000008152600401610dbe90615e5f565b60405180910390fd5b5f805b84849050811015610f4f575f858583818110610de957610de8615e7d565b5b905060200201359050610dfb81612535565b610e3a576040517f08c379a0000000000000000000000000000000000000000000000000000000008152600401610e3190615f1a565b60405180910390fd5b5f6101035f8381526020019081526020015f2090508773ffffffffffffffffffffffffffffffffffffffff16815f015f9054906101000a900473ffffffffffffffffffffffffffffffffffffffff1673ffffffffffffffffffffffffffffffffffffffff1614610edf576040517f08c379a0000000000000000000000000000000000000000000000000000000008152600401610ed690615fa8565b60405180910390fd5b806001015f9054906101000a90046fffffffffffffffffffffffffffffffff166fffffffffffffffffffffffffffffffff1684610f1c9190615ff3565b93506001816002015f6101000a81548160ff02191690831515021790555050508080610f4790616026565b915050610dca565b50809150509392505050565b5f6101065f9054906101000a900473ffffffffffffffffffffffffffffffffffffffff1673ffffffffffffffffffffffffffffffffffffffff163373ffffffffffffffffffffffffffffffffffffffff1614610fec576040517f08c379a0000000000000000000000000000000000000000000000000000000008152600401610fe390615e5f565b60405180910390fd5b6101025f9054906101000a900460ff161561103c576040517f08c379a0000000000000000000000000000000000000000000000000000000008152600401611033906160dd565b60405180910390fd5b5f8060ff540361104f578091505061132a565b60ff5483106110f65760ff5490505f60ff8190555061010054610101819055506101035f6101005481526020019081526020015f206001015f9054906101000a90046fffffffffffffffffffffffffffffffff166101035f6101005481526020019081526020015f2060010160106101000a8154816fffffffffffffffffffffffffffffffff02191690836fffffffffffffffffffffffffffffffff160217905550611325565b8290508060ff5f82825461110a91906160fb565b925050819055505f8190505f6101015490505b610100548111611322575f6101035f8381526020019081526020015f2090508060010160109054906101000a90046fffffffffffffffffffffffffffffffff16816001015f9054906101000a90046fffffffffffffffffffffffffffffffff16611187919061612e565b6fffffffffffffffffffffffffffffffff16831115611210578060010160109054906101000a90046fffffffffffffffffffffffffffffffff16816001015f9054906101000a90046fffffffffffffffffffffffffffffffff166111eb919061612e565b6fffffffffffffffffffffffffffffffff168361120891906160fb565b92505061130f565b8060010160109054906101000a90046fffffffffffffffffffffffffffffffff16816001015f9054906101000a90046fffffffffffffffffffffffffffffffff1661125b919061612e565b6fffffffffffffffffffffffffffffffff168314801561127d57506101005482105b1561129b5760018261128f9190615ff3565b61010181905550611309565b828160010160108282829054906101000a90046fffffffffffffffffffffffffffffffff166112ca9190616171565b92506101000a8154816fffffffffffffffffffffffffffffffff02191690836fffffffffffffffffffffffffffffffff16021790555081610101819055505b50611322565b808061131a90616026565b91505061111d565b50505b809150505b919050565b5f805f5b6101015481116114a5575f6101035f8381526020019081526020015f206040518060800160405290815f82015f9054906101000a900473ffffffffffffffffffffffffffffffffffffffff1673ffffffffffffffffffffffffffffffffffffffff1673ffffffffffffffffffffffffffffffffffffffff168152602001600182015f9054906101000a90046fffffffffffffffffffffffffffffffff166fffffffffffffffffffffffffffffffff166fffffffffffffffffffffffffffffffff1681526020016001820160109054906101000a90046fffffffffffffffffffffffffffffffff166fffffffffffffffffffffffffffffffff166fffffffffffffffffffffffffffffffff168152602001600282015f9054906101000a900460ff161515151581525050905061146782612535565b156114915780602001516fffffffffffffffffffffffffffffffff168361148e9190615ff3565b92505b50808061149d90616026565b915050611333565b508091505090565b6114b95f801b82612e1e565b50565b5f60fd54905090565b6114d15f801b336126d4565b611510576040517f08c379a0000000000000000000000000000000000000000000000000000000008152600401611507906161fe565b60405180910390fd5b5f73ffffffffffffffffffffffffffffffffffffffff168273ffffffffffffffffffffffffffffffffffffffff160361157e576040517f08c379a00000000000000000000000000000000000000000000000000000000081526004016115759061628c565b60405180910390fd5b6101085f9054906101000a900473ffffffffffffffffffffffffffffffffffffffff1673ffffffffffffffffffffffffffffffffffffffff16636a9ecedb83836040518363ffffffff1660e01b81526004016115db9291906162aa565b5f604051808303815f87803b1580156115f2575f80fd5b505af1158015611604573d5f803e3d5ffd5b505050505f6101045f8473ffffffffffffffffffffffffffffffffffffffff1673ffffffffffffffffffffffffffffffffffffffff1681526020019081526020015f20549050811561166b57806101095461165f9190615ff3565b61010981905550611682565b806101095461167a91906160fb565b610109819055505b505050565b6101005481565b5f6116ab848484600160405180602001604052805f8152506120c7565b600190509392505050565b5f60975f8381526020019081526020015f20600101549050919050565b5f6116e05f801b836126d4565b9050919050565b5f855190508451811415806116fd575083518114155b80611709575082518114155b80611715575081518114155b1561174c576040517f263eee8d00000000000000000000000000000000000000000000000000000000815260040160405180910390fd5b5f5b818110156117f5576117e587828151811061176c5761176b615e7d565b5b602002602001015187838151811061178757611786615e7d565b5b60200260200101518784815181106117a2576117a1615e7d565b5b60200260200101518785815181106117bd576117bc615e7d565b5b60200260200101518786815181106117d8576117d7615e7d565b5b60200260200101516120c7565b6117ee81613443565b905061174e565b50505050505050565b61180661344f565b5f3390506101025f9054906101000a900460ff161561185a576040517f08c379a0000000000000000000000000000000000000000000000000000000008152600401611851906160dd565b60405180910390fd5b5f821161189c576040517f08c379a000000000000000000000000000000000000000000000000000000000815260040161189390616341565b60405180910390fd5b816101045f8373ffffffffffffffffffffffffffffffffffffffff1673ffffffffffffffffffffffffffffffffffffffff1681526020019081526020015f2054101561191d576040517f08c379a0000000000000000000000000000000000000000000000000000000008152600401611914906163cf565b60405180910390fd5b5f6101085f9054906101000a900473ffffffffffffffffffffffffffffffffffffffff1673ffffffffffffffffffffffffffffffffffffffff166301ba793b836040518263ffffffff1660e01b815260040161197991906159f9565b6020604051808303815f875af1158015611995573d5f803e3d5ffd5b505050506040513d601f19601f820116820180604052508101906119b99190616401565b905080156119d85782610109546119d091906160fb565b610109819055505b826101045f8473ffffffffffffffffffffffffffffffffffffffff1673ffffffffffffffffffffffffffffffffffffffff1681526020019081526020015f205f828254611a2591906160fb565b925050819055508260fd5f828254611a3d91906160fb565b92505081905550826fffffffffffffffffffffffffffffffff1660ff54611a649190615ff3565b60ff8190555060016101005f828254611a7d9190615ff3565b9250508190555060405180608001604052808373ffffffffffffffffffffffffffffffffffffffff168152602001846fffffffffffffffffffffffffffffffff1681526020015f6fffffffffffffffffffffffffffffffff1681526020015f15158152506101035f6101005481526020019081526020015f205f820151815f015f6101000a81548173ffffffffffffffffffffffffffffffffffffffff021916908373ffffffffffffffffffffffffffffffffffffffff1602179055506020820151816001015f6101000a8154816fffffffffffffffffffffffffffffffff02191690836fffffffffffffffffffffffffffffffff16021790555060408201518160010160106101000a8154816fffffffffffffffffffffffffffffffff02191690836fffffffffffffffffffffffffffffffff1602179055506060820151816002015f6101000a81548160ff0219169083151502179055509050508173ffffffffffffffffffffffffffffffffffffffff16610100547f40c95cbc9b2d49befc4e6571127b1448fabda307788866476192b98b5d7f9bc08560ff54604051611c2792919061642c565b60405180910390a35050611c3961349e565b50565b611c45826116b6565b611c4e816134a8565b611c5883836134bc565b505050565b5f6012905090565b611c6d613597565b73ffffffffffffffffffffffffffffffffffffffff168173ffffffffffffffffffffffffffffffffffffffff1614611cda576040517f08c379a0000000000000000000000000000000000000000000000000000000008152600401611cd1906164c3565b60405180910390fd5b611ce4828261359e565b5050565b60ff5481565b611d187f65d7a28e3265b37a6474929f336521b332c1681b933f6cb9f3376673440d862a336126d4565b611d57576040517f08c379a0000000000000000000000000000000000000000000000000000000008152600401611d4e906161fe565b60405180910390fd5b611d5f613679565b565b5f611d8c7f65d7a28e3265b37a6474929f336521b332c1681b933f6cb9f3376673440d862a836126d4565b9050919050565b611d9e3383836136da565b5050565b6101015481565b60fe5481565b6060611dba826138e9565b9050919050565b5f60335f9054906101000a900460ff16905090565b5f8273ffffffffffffffffffffffffffffffffffffffff168273ffffffffffffffffffffffffffffffffffffffff1603611e50576101045f8373ffffffffffffffffffffffffffffffffffffffff1673ffffffffffffffffffffffffffffffffffffffff1681526020019081526020015f20549050611ecd565b6101055f8373ffffffffffffffffffffffffffffffffffffffff1673ffffffffffffffffffffffffffffffffffffffff1681526020019081526020015f205f8473ffffffffffffffffffffffffffffffffffffffff1673ffffffffffffffffffffffffffffffffffffffff1681526020019081526020015f205490505b92915050565b611efd7f65d7a28e3265b37a6474929f336521b332c1681b933f6cb9f3376673440d862a82612e1e565b50565b611f0c5f801b82611c3c565b50565b5f6101045f8373ffffffffffffffffffffffffffffffffffffffff1673ffffffffffffffffffffffffffffffffffffffff1681526020019081526020015f20549050919050565b611f5e61398a565b611f675f613a01565b565b6101065f9054906101000a900473ffffffffffffffffffffffffffffffffffffffff1673ffffffffffffffffffffffffffffffffffffffff163373ffffffffffffffffffffffffffffffffffffffff1614611ff9576040517f08c379a0000000000000000000000000000000000000000000000000000000008152600401611ff090615e5f565b60405180910390fd5b5f6101085f9054906101000a900473ffffffffffffffffffffffffffffffffffffffff1673ffffffffffffffffffffffffffffffffffffffff166301ba793b866040518263ffffffff1660e01b815260040161205591906159f9565b6020604051808303815f875af1158015612071573d5f803e3d5ffd5b505050506040513d601f19601f820116820180604052508101906120959190616401565b905080156120b45783610109546120ac9190615ff3565b610109819055505b6120c085858585613aff565b5050505050565b8373ffffffffffffffffffffffffffffffffffffffff168573ffffffffffffffffffffffffffffffffffffffff160361212c576040517fb9afb00000000000000000000000000000000000000000000000000000000000815260040160405180910390fd5b5f3390508573ffffffffffffffffffffffffffffffffffffffff168173ffffffffffffffffffffffffffffffffffffffff1614612243575f6101055f8873ffffffffffffffffffffffffffffffffffffffff1673ffffffffffffffffffffffffffffffffffffffff1681526020019081526020015f205f8373ffffffffffffffffffffffffffffffffffffffff1673ffffffffffffffffffffffffffffffffffffffff1681526020019081526020015f205490508085111561222b57868183876040517ff3a6b69100000000000000000000000000000000000000000000000000000000815260040161222294939291906164e1565b60405180910390fd5b6122418783878461223c91906160fb565b6136da565b505b6122508686868686613c73565b505050505050565b6801bc16d674ec80000081565b5f60fd54905090565b61227661398a565b5f34146122af576040517ff36ba73700000000000000000000000000000000000000000000000000000000815260040160405180910390fd5b6122b982826140c1565b5050565b6122e77f65d7a28e3265b37a6474929f336521b332c1681b933f6cb9f3376673440d862a82611c3c565b50565b6123147f65d7a28e3265b37a6474929f336521b332c1681b933f6cb9f3376673440d862a336126d4565b612353576040517f08c379a000000000000000000000000000000000000000000000000000000000815260040161234a906161fe565b60405180910390fd5b61235b6141f0565b565b6101075f9054906101000a900473ffffffffffffffffffffffffffffffffffffffff1673ffffffffffffffffffffffffffffffffffffffff163373ffffffffffffffffffffffffffffffffffffffff16146123ed576040517f08c379a00000000000000000000000000000000000000000000000000000000081526004016123e490615e5f565b60405180910390fd5b6101025f9054906101000a900460ff161561243d576040517f08c379a000000000000000000000000000000000000000000000000000000000815260040161243490616594565b60405180910390fd5b6801bc16d674ec80000060ff54101561248b576040517f08c379a000000000000000000000000000000000000000000000000000000000815260040161248290616622565b60405180910390fd5b60016101025f6101000a81548160ff0219169083151502179055507ffd0a8b592d8140089b4303d8dc4f150efa7f948643fe812272749bbd4a5d5ddd6801bc16d674ec8000008060ff546124df919061666d565b60ff546124ec91906160fb565b6124f6919061669d565b604051612503919061502d565b60405180910390a1565b5f60c95f9054906101000a900473ffffffffffffffffffffffffffffffffffffffff16905090565b5f61010154821115612549575f90506126cf565b5f6101035f8481526020019081526020015f206040518060800160405290815f82015f9054906101000a900473ffffffffffffffffffffffffffffffffffffffff1673ffffffffffffffffffffffffffffffffffffffff1673ffffffffffffffffffffffffffffffffffffffff168152602001600182015f9054906101000a90046fffffffffffffffffffffffffffffffff166fffffffffffffffffffffffffffffffff166fffffffffffffffffffffffffffffffff1681526020016001820160109054906101000a90046fffffffffffffffffffffffffffffffff166fffffffffffffffffffffffffffffffff166fffffffffffffffffffffffffffffffff168152602001600282015f9054906101000a900460ff161515151581525050905080606001511561267d575f9150506126cf565b61010154831480156126bb575080604001516fffffffffffffffffffffffffffffffff1681602001516fffffffffffffffffffffffffffffffff1614155b156126c9575f9150506126cf565b60019150505b919050565b5f60975f8481526020019081526020015f205f015f8373ffffffffffffffffffffffffffffffffffffffff1673ffffffffffffffffffffffffffffffffffffffff1681526020019081526020015f205f9054906101000a900460ff16905092915050565b61274061398a565b5f3414612779576040517ff36ba73700000000000000000000000000000000000000000000000000000000815260040160405180910390fd5b80518251146127b4576040517f3bcc897900000000000000000000000000000000000000000000000000000000815260040160405180910390fd5b5f8251036127ee576040517f97da5f9500000000000000000000000000000000000000000000000000000000815260040160405180910390fd5b5f5b82518110156128425761283783828151811061280f5761280e615e7d565b5b602002602001015183838151811061282a57612829615e7d565b5b60200260200101516140c1565b8060010190506127f0565b505050565b61284f614d71565b61010054821115612895576040517f08c379a000000000000000000000000000000000000000000000000000000000815260040161288c90616717565b60405180910390fd5b5f6101035f8481526020019081526020015f206040518060800160405290815f82015f9054906101000a900473ffffffffffffffffffffffffffffffffffffffff1673ffffffffffffffffffffffffffffffffffffffff1673ffffffffffffffffffffffffffffffffffffffff168152602001600182015f9054906101000a90046fffffffffffffffffffffffffffffffff166fffffffffffffffffffffffffffffffff166fffffffffffffffffffffffffffffffff1681526020016001820160109054906101000a90046fffffffffffffffffffffffffffffffff166fffffffffffffffffffffffffffffffff166fffffffffffffffffffffffffffffffff168152602001600282015f9054906101000a900460ff1615151515815250509050610101548310156129f657806020015181604001906fffffffffffffffffffffffffffffffff1690816fffffffffffffffffffffffffffffffff16815250505b80915050919050565b5f801b81565b5f612a22338484600160405180602001604052805f8152506120c7565b6001905092915050565b6101095481565b6101075f9054906101000a900473ffffffffffffffffffffffffffffffffffffffff1673ffffffffffffffffffffffffffffffffffffffff163373ffffffffffffffffffffffffffffffffffffffff1614612ac3576040517f08c379a0000000000000000000000000000000000000000000000000000000008152600401612aba90615e5f565b60405180910390fd5b6101025f9054906101000a900460ff16612b12576040517f08c379a0000000000000000000000000000000000000000000000000000000008152600401612b09906167a5565b60405180910390fd5b5f6801bc16d674ec80000082612b2891906167c3565b905060ff54811115612b6f576040517f08c379a0000000000000000000000000000000000000000000000000000000008152600401612b6690616622565b60405180910390fd5b8060ff5f828254612b8091906160fb565b925050819055508060fe5f828254612b989190615ff3565b925050819055505f8190505f6101015490505b610100548111612db0575f6101035f8381526020019081526020015f2090508060010160109054906101000a90046fffffffffffffffffffffffffffffffff16816001015f9054906101000a90046fffffffffffffffffffffffffffffffff16612c15919061612e565b6fffffffffffffffffffffffffffffffff16831115612c9e578060010160109054906101000a90046fffffffffffffffffffffffffffffffff16816001015f9054906101000a90046fffffffffffffffffffffffffffffffff16612c79919061612e565b6fffffffffffffffffffffffffffffffff1683612c9691906160fb565b925050612d9d565b8060010160109054906101000a90046fffffffffffffffffffffffffffffffff16816001015f9054906101000a90046fffffffffffffffffffffffffffffffff16612ce9919061612e565b6fffffffffffffffffffffffffffffffff1683148015612d0b57506101005482105b15612d2957600182612d1d9190615ff3565b61010181905550612d97565b828160010160108282829054906101000a90046fffffffffffffffffffffffffffffffff16612d589190616171565b92506101000a8154816fffffffffffffffffffffffffffffffff02191690836fffffffffffffffffffffffffffffffff16021790555081610101819055505b50612db0565b8080612da890616026565b915050612bab565b506801bc16d674ec80000060ff541015612ddf575f6101025f6101000a81548160ff0219169083151502179055505b7eb0703bddcf30905a235a076777ec2feed729ff357d38b0744333b3f5628c748260ff54604051612e1192919061642c565b60405180910390a1505050565b612e27826116b6565b612e30816134a8565b612e3a838361359e565b505050565b5f612e4a8284611dd6565b905092915050565b6060815167ffffffffffffffff811115612e6f57612e6e6151ea565b5b604051908082528060200260200182016040528015612ea257816020015b6060815260200190600190039081612e8d5790505b5090505f5b8251811015612efc57612ed3838281518110612ec657612ec5615e7d565b5b60200260200101516138e9565b828281518110612ee657612ee5615e7d565b5b6020026020010181905250806001019050612ea7565b50919050565b7f65d7a28e3265b37a6474929f336521b332c1681b933f6cb9f3376673440d862a81565b612f2e61398a565b5f73ffffffffffffffffffffffffffffffffffffffff168173ffffffffffffffffffffffffffffffffffffffff1603612f9c576040517f08c379a0000000000000000000000000000000000000000000000000000000008152600401612f9390616874565b60405180910390fd5b612fa581613a01565b50565b5f8060019054906101000a900460ff16159050808015612fd7575060015f8054906101000a900460ff1660ff16105b806130035750612fe630614252565b158015613002575060015f8054906101000a900460ff1660ff16145b5b613042576040517f08c379a000000000000000000000000000000000000000000000000000000000815260040161303990616902565b60405180910390fd5b60015f806101000a81548160ff021916908360ff160217905550801561307d5760015f60016101000a81548160ff0219169083151502179055505b5f73ffffffffffffffffffffffffffffffffffffffff168473ffffffffffffffffffffffffffffffffffffffff16036130eb576040517f08c379a00000000000000000000000000000000000000000000000000000000081526004016130e290616990565b60405180910390fd5b5f73ffffffffffffffffffffffffffffffffffffffff168373ffffffffffffffffffffffffffffffffffffffff1603613159576040517f08c379a000000000000000000000000000000000000000000000000000000000815260040161315090616a1e565b60405180910390fd5b5f73ffffffffffffffffffffffffffffffffffffffff168573ffffffffffffffffffffffffffffffffffffffff16036131c7576040517f08c379a00000000000000000000000000000000000000000000000000000000081526004016131be90616aac565b60405180910390fd5b5f73ffffffffffffffffffffffffffffffffffffffff168273ffffffffffffffffffffffffffffffffffffffff1603613235576040517f08c379a000000000000000000000000000000000000000000000000000000000815260040161322c90616b3a565b60405180910390fd5b6132aa6040518060400160405280600e81526020017f5374616b65644c7978546f6b656e0000000000000000000000000000000000008152506040518060400160405280600481526020017f734c59580000000000000000000000000000000000000000000000000000000081525087614274565b6132b385614389565b836101065f6101000a81548173ffffffffffffffffffffffffffffffffffffffff021916908373ffffffffffffffffffffffffffffffffffffffff160217905550826101075f6101000a81548173ffffffffffffffffffffffffffffffffffffffff021916908373ffffffffffffffffffffffffffffffffffffffff160217905550816101085f6101000a81548173ffffffffffffffffffffffffffffffffffffffff021916908373ffffffffffffffffffffffffffffffffffffffff16021790555080156133ce575f8060016101000a81548160ff0219169083151502179055507f7f26b83ff96e1f2b6a682f133852f6798a09c465da95921460cefb384740249860016040516133c59190616b9a565b60405180910390a15b5050505050565b6133e033825f6136da565b50565b5f63629aa69460e01b7bffffffffffffffffffffffffffffffffffffffffffffffffffffffff1916827bffffffffffffffffffffffffffffffffffffffffffffffffffffffff1916148061343c575061343b82614410565b5b9050919050565b5f600182019050919050565b600260cb5403613494576040517f08c379a000000000000000000000000000000000000000000000000000000000815260040161348b90616bfd565b60405180910390fd5b600260cb81905550565b600160cb81905550565b6134b9816134b4613597565b614479565b50565b6134c682826126d4565b61359357600160975f8481526020019081526020015f205f015f8373ffffffffffffffffffffffffffffffffffffffff1673ffffffffffffffffffffffffffffffffffffffff1681526020019081526020015f205f6101000a81548160ff021916908315150217905550613538613597565b73ffffffffffffffffffffffffffffffffffffffff168173ffffffffffffffffffffffffffffffffffffffff16837f2f8788117e7eff1d82e926ec794901d17c78024a50270940304540a733656f0d60405160405180910390a45b5050565b5f33905090565b6135a882826126d4565b15613675575f60975f8481526020019081526020015f205f015f8373ffffffffffffffffffffffffffffffffffffffff1673ffffffffffffffffffffffffffffffffffffffff1681526020019081526020015f205f6101000a81548160ff02191690831515021790555061361a613597565b73ffffffffffffffffffffffffffffffffffffffff168173ffffffffffffffffffffffffffffffffffffffff16837ff6391f5c32d9c69d2a47ea670b442974b53935d1edc7fd64eb21e047a839171b60405160405180910390a45b5050565b6136816144fd565b5f60335f6101000a81548160ff0219169083151502179055507f5db9ee0a495bf2e6ff9c91a7834c1ba4fdd244a5e8aa4e537bd38aeae4b073aa6136c3613597565b6040516136d091906159f9565b60405180910390a1565b5f73ffffffffffffffffffffffffffffffffffffffff168273ffffffffffffffffffffffffffffffffffffffff160361373f576040517f6355e76600000000000000000000000000000000000000000000000000000000815260040160405180910390fd5b8273ffffffffffffffffffffffffffffffffffffffff168273ffffffffffffffffffffffffffffffffffffffff16036137a4576040517fdab7504700000000000000000000000000000000000000000000000000000000815260040160405180910390fd5b806101055f8573ffffffffffffffffffffffffffffffffffffffff1673ffffffffffffffffffffffffffffffffffffffff1681526020019081526020015f205f8473ffffffffffffffffffffffffffffffffffffffff1673ffffffffffffffffffffffffffffffffffffffff1681526020019081526020015f20819055505f811461388957808373ffffffffffffffffffffffffffffffffffffffff168373ffffffffffffffffffffffffffffffffffffffff167fd66aff874162a96578e919097b6f6d153dfd89a5cec41bb331fdb0c4aec16e2c60405160405180910390a46138e4565b8273ffffffffffffffffffffffffffffffffffffffff168273ffffffffffffffffffffffffffffffffffffffff167f50546e66e5f44d728365dc3908c63bc5cfeeab470722c1677e3073a6ac294aa160405160405180910390a35b505050565b606060ca5f8381526020019081526020015f20805461390790616c48565b80601f016020809104026020016040519081016040528092919081815260200182805461393390616c48565b801561397e5780601f106139555761010080835404028352916020019161397e565b820191905f5260205f20905b81548152906001019060200180831161396157829003601f168201915b50505050509050919050565b3373ffffffffffffffffffffffffffffffffffffffff166139a961250d565b73ffffffffffffffffffffffffffffffffffffffff16146139ff576040517f08c379a00000000000000000000000000000000000000000000000000000000081526004016139f690616cc2565b60405180910390fd5b565b613a0961250d565b73ffffffffffffffffffffffffffffffffffffffff168173ffffffffffffffffffffffffffffffffffffffff1614613afc575f60c95f9054906101000a900473ffffffffffffffffffffffffffffffffffffffff1690508160c95f6101000a81548173ffffffffffffffffffffffffffffffffffffffff021916908373ffffffffffffffffffffffffffffffffffffffff1602179055508173ffffffffffffffffffffffffffffffffffffffff168173ffffffffffffffffffffffffffffffffffffffff167f8be0079c531659141344cd1fd0a4f28419497f9722a3daafe3b4186f6b6457e060405160405180910390a3505b50565b5f73ffffffffffffffffffffffffffffffffffffffff168473ffffffffffffffffffffffffffffffffffffffff1603613b64576040517fd2d5ec3000000000000000000000000000000000000000000000000000000000815260040160405180910390fd5b5f339050613b735f8686614546565b8360fd5f828254613b849190615ff3565b92505081905550836101045f8773ffffffffffffffffffffffffffffffffffffffff1673ffffffffffffffffffffffffffffffffffffffff1681526020019081526020015f205f828254613bd89190615ff3565b925050819055508473ffffffffffffffffffffffffffffffffffffffff165f73ffffffffffffffffffffffffffffffffffffffff168273ffffffffffffffffffffffffffffffffffffffff167f3997e418d2cef0b3b0e907b1e39605c3f7d32dbd061e82ea5b4a770d46a160a6878787604051613c5793929190616ce0565b60405180910390a4613c6c5f8686868661454b565b5050505050565b6101085f9054906101000a900473ffffffffffffffffffffffffffffffffffffffff1673ffffffffffffffffffffffffffffffffffffffff1663b4c6e4166040518163ffffffff1660e01b8152600401602060405180830381865afa158015613cde573d5f803e3d5ffd5b505050506040513d601f19601f82011682018060405250810190613d029190616d30565b4311613d43576040517f08c379a0000000000000000000000000000000000000000000000000000000008152600401613d3a90616dcb565b60405180910390fd5b5f73ffffffffffffffffffffffffffffffffffffffff168573ffffffffffffffffffffffffffffffffffffffff161480613da857505f73ffffffffffffffffffffffffffffffffffffffff168473ffffffffffffffffffffffffffffffffffffffff16145b15613ddf576040517fd2d5ec3000000000000000000000000000000000000000000000000000000000815260040160405180910390fd5b5f6101045f8773ffffffffffffffffffffffffffffffffffffffff1673ffffffffffffffffffffffffffffffffffffffff1681526020019081526020015f2054905080841115613e6a578086856040517f08d47949000000000000000000000000000000000000000000000000000000008152600401613e6193929190616de9565b60405180910390fd5b5f806101085f9054906101000a900473ffffffffffffffffffffffffffffffffffffffff1673ffffffffffffffffffffffffffffffffffffffff16633b0c9d9089896040518363ffffffff1660e01b8152600401613ec9929190616e1e565b60408051808303815f875af1158015613ee4573d5f803e3d5ffd5b505050506040513d601f19601f82011682018060405250810190613f089190616e45565b915091508180613f155750805b8015613f285750818015613f265750805b155b15613f66575f6101095490508215613f4d578681613f4691906160fb565b9050613f5c565b8681613f599190615ff3565b90505b8061010981905550505b5f339050613f75898989614546565b866101045f8b73ffffffffffffffffffffffffffffffffffffffff1673ffffffffffffffffffffffffffffffffffffffff1681526020019081526020015f205f828254613fc291906160fb565b92505081905550866101045f8a73ffffffffffffffffffffffffffffffffffffffff1673ffffffffffffffffffffffffffffffffffffffff1681526020019081526020015f205f8282546140169190615ff3565b925050819055508773ffffffffffffffffffffffffffffffffffffffff168973ffffffffffffffffffffffffffffffffffffffff168273ffffffffffffffffffffffffffffffffffffffff167f3997e418d2cef0b3b0e907b1e39605c3f7d32dbd061e82ea5b4a770d46a160a68a8a8a60405161409593929190616ce0565b60405180910390a46140a9898989886146d7565b6140b6898989898961454b565b505050505050505050565b7fdeba1e292f8ba88238e10ab3c7f88bd4be4fac56cad5194b6ecceaf653468af15f1b820361411c576040517f85c169bd00000000000000000000000000000000000000000000000000000000815260040160405180910390fd5b7f2f0a68ab07768e01943a599e73362a0e17a63a72e94dd2e384d2c1d4db9327565f1b8203614177576040517f76755b3800000000000000000000000000000000000000000000000000000000815260040160405180910390fd5b8060ca5f8481526020019081526020015f2090816141959190617017565b50817fece574603820d07bc9b91f2a932baadf4628aabcb8afba49776529c14a6104b2610100835111156141d5576141d0835f6101006147bf565b6141d7565b825b6040516141e4919061581f565b60405180910390a25050565b6141f86148db565b600160335f6101000a81548160ff0219169083151502179055507f62e78cea01bee320cd4e420270b5ea74000d11b0c9f74754ebdbfc544b05a25861423b613597565b60405161424891906159f9565b60405180910390a1565b5f808273ffffffffffffffffffffffffffffffffffffffff163b119050919050565b5f60019054906101000a900460ff166142c2576040517f08c379a00000000000000000000000000000000000000000000000000000000081526004016142b990617156565b60405180910390fd5b6142cb81614925565b61432c7feafec4d89fa9619884b60000a4d96624a38f7ac2d8d9a604ecf07c12c77e480c5f1b6040518060400160405280600481526020017fa4d96624000000000000000000000000000000000000000000000000000000008152506149ed565b6143587fdeba1e292f8ba88238e10ab3c7f88bd4be4fac56cad5194b6ecceaf653468af15f1b846149ed565b6143847f2f0a68ab07768e01943a599e73362a0e17a63a72e94dd2e384d2c1d4db9327565f1b836149ed565b505050565b5f60019054906101000a900460ff166143d7576040517f08c379a00000000000000000000000000000000000000000000000000000000081526004016143ce90617156565b60405180910390fd5b6143e35f801b82614a48565b61440d7f65d7a28e3265b37a6474929f336521b332c1681b933f6cb9f3376673440d862a82614a48565b50565b5f7f01ffc9a7000000000000000000000000000000000000000000000000000000007bffffffffffffffffffffffffffffffffffffffffffffffffffffffff1916827bffffffffffffffffffffffffffffffffffffffffffffffffffffffff1916149050919050565b61448382826126d4565b6144f95761449081614a56565b61449d835f1c6020614a83565b6040516020016144ae92919061724c565b6040516020818303038152906040526040517f08c379a00000000000000000000000000000000000000000000000000000000081526004016144f091906172bd565b60405180910390fd5b5050565b614505611dc1565b614544576040517f08c379a000000000000000000000000000000000000000000000000000000000815260040161453b90617327565b60405180910390fd5b565b505050565b61455c84636bb56a1460e01b614cb8565b15614631575f8585858460405160200161457994939291906173e4565b60405160208183030381529060405290508473ffffffffffffffffffffffffffffffffffffffff16636bb56a147f20804611b3e2ea21c480dc465142210acf4a2485947541770ec1fb87dee4a55c5f1b836040518363ffffffff1660e01b81526004016145e792919061742d565b5f604051808303815f875af1158015614602573d5f803e3d5ffd5b505050506040513d5f823e3d601f19601f8201168201806040525081019061462a91906174c9565b50506146d0565b816146cf575f8473ffffffffffffffffffffffffffffffffffffffff163b111561469257836040517fa608fbb600000000000000000000000000000000000000000000000000000000815260040161468991906159f9565b60405180910390fd5b836040517f26c247f40000000000000000000000000000000000000000000000000000000081526004016146c691906159f9565b60405180910390fd5b5b5050505050565b6146e884636bb56a1460e01b614cb8565b156147b9575f8484848460405160200161470594939291906173e4565b60405160208183030381529060405290508473ffffffffffffffffffffffffffffffffffffffff16636bb56a147f429ac7a06903dbc9c13dfcb3c9d11df8194581fa047c96d7a4171fc7402958ea5f1b836040518363ffffffff1660e01b815260040161477392919061742d565b5f604051808303815f875af115801561478e573d5f803e3d5ffd5b505050506040513d5f823e3d601f19601f820116820180604052508101906147b691906174c9565b50505b50505050565b606081601f836147cf9190615ff3565b1015614810576040517f08c379a00000000000000000000000000000000000000000000000000000000081526004016148079061755a565b60405180910390fd5b818361481c9190615ff3565b8451101561485f576040517f08c379a0000000000000000000000000000000000000000000000000000000008152600401614856906175c2565b60405180910390fd5b606082155f811461487e5760405191505f8252602082016040526148cf565b6040519150601f8416801560200281840101858101878315602002848b0101015b818310156148bc578051835260208301925060208101905061489f565b50868552601f19601f8301166040525050505b50809150509392505050565b6148e3611dc1565b15614923576040517f08c379a000000000000000000000000000000000000000000000000000000000815260040161491a9061762a565b60405180910390fd5b565b5f60019054906101000a900460ff16614973576040517f08c379a000000000000000000000000000000000000000000000000000000000815260040161496a90617156565b60405180910390fd5b5f73ffffffffffffffffffffffffffffffffffffffff168173ffffffffffffffffffffffffffffffffffffffff16036149e1576040517f08c379a00000000000000000000000000000000000000000000000000000000081526004016149d890616874565b60405180910390fd5b6149ea81613a01565b50565b8060ca5f8481526020019081526020015f209081614a0b9190617017565b50817fece574603820d07bc9b91f2a932baadf4628aabcb8afba49776529c14a6104b282604051614a3c919061581f565b60405180910390a25050565b614a5282826134bc565b5050565b6060614a7c8273ffffffffffffffffffffffffffffffffffffffff16601460ff16614a83565b9050919050565b60605f6002836002614a9591906167c3565b614a9f9190615ff3565b67ffffffffffffffff811115614ab857614ab76151ea565b5b6040519080825280601f01601f191660200182016040528015614aea5781602001600182028036833780820191505090505b5090507f3000000000000000000000000000000000000000000000000000000000000000815f81518110614b2157614b20615e7d565b5b60200101907effffffffffffffffffffffffffffffffffffffffffffffffffffffffffffff191690815f1a9053507f780000000000000000000000000000000000000000000000000000000000000081600181518110614b8457614b83615e7d565b5b60200101907effffffffffffffffffffffffffffffffffffffffffffffffffffffffffffff191690815f1a9053505f6001846002614bc291906167c3565b614bcc9190615ff3565b90505b6001811115614c6b577f3031323334353637383961626364656600000000000000000000000000000000600f861660108110614c0e57614c0d615e7d565b5b1a60f81b828281518110614c2557614c24615e7d565b5b60200101907effffffffffffffffffffffffffffffffffffffffffffffffffffffffffffff191690815f1a905350600485901c945080614c6490617648565b9050614bcf565b505f8414614cae576040517f08c379a0000000000000000000000000000000000000000000000000000000008152600401614ca5906176b9565b60405180910390fd5b8091505092915050565b5f806301ffc9a760e01b83604051602401614cd391906176e6565b604051602081830303815290604052907bffffffffffffffffffffffffffffffffffffffffffffffffffffffff19166020820180517bffffffffffffffffffffffffffffffffffffffffffffffffffffffff838183161783525050505090505f805f60205f8551602087018a617530fa92503d91505f519050828015614d5a575060208210155b8015614d6557505f81115b94505050505092915050565b60405180608001604052805f73ffffffffffffffffffffffffffffffffffffffff1681526020015f6fffffffffffffffffffffffffffffffff1681526020015f6fffffffffffffffffffffffffffffffff1681526020015f151581525090565b5f604051905090565b5f80fd5b5f80fd5b5f7fffffffff0000000000000000000000000000000000000000000000000000000082169050919050565b614e1681614de2565b8114614e20575f80fd5b50565b5f81359050614e3181614e0d565b92915050565b5f60208284031215614e4c57614e4b614dda565b5b5f614e5984828501614e23565b91505092915050565b5f8115159050919050565b614e7681614e62565b82525050565b5f602082019050614e8f5f830184614e6d565b92915050565b5f73ffffffffffffffffffffffffffffffffffffffff82169050919050565b5f614ebe82614e95565b9050919050565b614ece81614eb4565b8114614ed8575f80fd5b50565b5f81359050614ee981614ec5565b92915050565b5f819050919050565b614f0181614eef565b8114614f0b575f80fd5b50565b5f81359050614f1c81614ef8565b92915050565b5f8060408385031215614f3857614f37614dda565b5b5f614f4585828601614edb565b9250506020614f5685828601614f0e565b9150509250929050565b5f80fd5b5f80fd5b5f80fd5b5f8083601f840112614f8157614f80614f60565b5b8235905067ffffffffffffffff811115614f9e57614f9d614f64565b5b602083019150836020820283011115614fba57614fb9614f68565b5b9250929050565b5f805f60408486031215614fd857614fd7614dda565b5b5f614fe586828701614edb565b935050602084013567ffffffffffffffff81111561500657615005614dde565b5b61501286828701614f6c565b92509250509250925092565b61502781614eef565b82525050565b5f6020820190506150405f83018461501e565b92915050565b5f6020828403121561505b5761505a614dda565b5b5f61506884828501614f0e565b91505092915050565b5f6020828403121561508657615085614dda565b5b5f61509384828501614edb565b91505092915050565b6150a581614e62565b81146150af575f80fd5b50565b5f813590506150c08161509c565b92915050565b5f80604083850312156150dc576150db614dda565b5b5f6150e985828601614edb565b92505060206150fa858286016150b2565b9150509250929050565b5f805f6060848603121561511b5761511a614dda565b5b5f61512886828701614edb565b935050602061513986828701614edb565b925050604061514a86828701614f0e565b9150509250925092565b5f819050919050565b61516681615154565b8114615170575f80fd5b50565b5f813590506151818161515d565b92915050565b5f6020828403121561519c5761519b614dda565b5b5f6151a984828501615173565b91505092915050565b6151bb81615154565b82525050565b5f6020820190506151d45f8301846151b2565b92915050565b5f601f19601f8301169050919050565b7f4e487b71000000000000000000000000000000000000000000000000000000005f52604160045260245ffd5b615220826151da565b810181811067ffffffffffffffff8211171561523f5761523e6151ea565b5b80604052505050565b5f615251614dd1565b905061525d8282615217565b919050565b5f67ffffffffffffffff82111561527c5761527b6151ea565b5b602082029050602081019050919050565b5f61529f61529a84615262565b615248565b905080838252602082019050602084028301858111156152c2576152c1614f68565b5b835b818110156152eb57806152d78882614edb565b8452602084019350506020810190506152c4565b5050509392505050565b5f82601f83011261530957615308614f60565b5b813561531984826020860161528d565b91505092915050565b5f67ffffffffffffffff82111561533c5761533b6151ea565b5b602082029050602081019050919050565b5f61535f61535a84615322565b615248565b9050808382526020820190506020840283018581111561538257615381614f68565b5b835b818110156153ab57806153978882614f0e565b845260208401935050602081019050615384565b5050509392505050565b5f82601f8301126153c9576153c8614f60565b5b81356153d984826020860161534d565b91505092915050565b5f67ffffffffffffffff8211156153fc576153fb6151ea565b5b602082029050602081019050919050565b5f61541f61541a846153e2565b615248565b9050808382526020820190506020840283018581111561544257615441614f68565b5b835b8181101561546b578061545788826150b2565b845260208401935050602081019050615444565b5050509392505050565b5f82601f83011261548957615488614f60565b5b813561549984826020860161540d565b91505092915050565b5f67ffffffffffffffff8211156154bc576154bb6151ea565b5b602082029050602081019050919050565b5f80fd5b5f67ffffffffffffffff8211156154eb576154ea6151ea565b5b6154f4826151da565b9050602081019050919050565b828183375f83830152505050565b5f61552161551c846154d1565b615248565b90508281526020810184848401111561553d5761553c6154cd565b5b615548848285615501565b509392505050565b5f82601f83011261556457615563614f60565b5b813561557484826020860161550f565b91505092915050565b5f61558f61558a846154a2565b615248565b905080838252602082019050602084028301858111156155b2576155b1614f68565b5b835b818110156155f957803567ffffffffffffffff8111156155d7576155d6614f60565b5b8086016155e48982615550565b855260208501945050506020810190506155b4565b5050509392505050565b5f82601f83011261561757615616614f60565b5b813561562784826020860161557d565b91505092915050565b5f805f805f60a0868803121561564957615648614dda565b5b5f86013567ffffffffffffffff81111561566657615665614dde565b5b615672888289016152f5565b955050602086013567ffffffffffffffff81111561569357615692614dde565b5b61569f888289016152f5565b945050604086013567ffffffffffffffff8111156156c0576156bf614dde565b5b6156cc888289016153b5565b935050606086013567ffffffffffffffff8111156156ed576156ec614dde565b5b6156f988828901615475565b925050608086013567ffffffffffffffff81111561571a57615719614dde565b5b61572688828901615603565b9150509295509295909350565b5f806040838503121561574957615748614dda565b5b5f61575685828601615173565b925050602061576785828601614edb565b9150509250929050565b5f60ff82169050919050565b61578681615771565b82525050565b5f60208201905061579f5f83018461577d565b92915050565b5f81519050919050565b5f82825260208201905092915050565b5f5b838110156157dc5780820151818401526020810190506157c1565b5f8484015250505050565b5f6157f1826157a5565b6157fb81856157af565b935061580b8185602086016157bf565b615814816151da565b840191505092915050565b5f6020820190508181035f83015261583781846157e7565b905092915050565b5f806040838503121561585557615854614dda565b5b5f61586285828601614edb565b925050602061587385828601614edb565b9150509250929050565b5f805f806080858703121561589557615894614dda565b5b5f6158a287828801614edb565b94505060206158b387828801614f0e565b93505060406158c4878288016150b2565b925050606085013567ffffffffffffffff8111156158e5576158e4614dde565b5b6158f187828801615550565b91505092959194509250565b5f805f805f60a0868803121561591657615915614dda565b5b5f61592388828901614edb565b955050602061593488828901614edb565b945050604061594588828901614f0e565b9350506060615956888289016150b2565b925050608086013567ffffffffffffffff81111561597757615976614dde565b5b61598388828901615550565b9150509295509295909350565b5f80604083850312156159a6576159a5614dda565b5b5f6159b385828601615173565b925050602083013567ffffffffffffffff8111156159d4576159d3614dde565b5b6159e085828601615550565b9150509250929050565b6159f381614eb4565b82525050565b5f602082019050615a0c5f8301846159ea565b92915050565b5f67ffffffffffffffff821115615a2c57615a2b6151ea565b5b602082029050602081019050919050565b5f615a4f615a4a84615a12565b615248565b90508083825260208201905060208402830185811115615a7257615a71614f68565b5b835b81811015615a9b5780615a878882615173565b845260208401935050602081019050615a74565b5050509392505050565b5f82601f830112615ab957615ab8614f60565b5b8135615ac9848260208601615a3d565b91505092915050565b5f8060408385031215615ae857615ae7614dda565b5b5f83013567ffffffffffffffff811115615b0557615b04614dde565b5b615b1185828601615aa5565b925050602083013567ffffffffffffffff811115615b3257615b31614dde565b5b615b3e85828601615603565b9150509250929050565b615b5181614eb4565b82525050565b5f6fffffffffffffffffffffffffffffffff82169050919050565b615b7b81615b57565b82525050565b615b8a81614e62565b82525050565b608082015f820151615ba45f850182615b48565b506020820151615bb76020850182615b72565b506040820151615bca6040850182615b72565b506060820151615bdd6060850182615b81565b50505050565b5f608082019050615bf65f830184615b90565b92915050565b5f60208284031215615c1157615c10614dda565b5b5f82013567ffffffffffffffff811115615c2e57615c2d614dde565b5b615c3a84828501615aa5565b91505092915050565b5f81519050919050565b5f82825260208201905092915050565b5f819050602082019050919050565b5f82825260208201905092915050565b5f615c86826157a5565b615c908185615c6c565b9350615ca08185602086016157bf565b615ca9816151da565b840191505092915050565b5f615cbf8383615c7c565b905092915050565b5f602082019050919050565b5f615cdd82615c43565b615ce78185615c4d565b935083602082028501615cf985615c5d565b805f5b85811015615d345784840389528151615d158582615cb4565b9450615d2083615cc7565b925060208a01995050600181019050615cfc565b50829750879550505050505092915050565b5f6020820190508181035f830152615d5e8184615cd3565b905092915050565b5f615d7082614eb4565b9050919050565b615d8081615d66565b8114615d8a575f80fd5b50565b5f81359050615d9b81615d77565b92915050565b5f805f8060808587031215615db957615db8614dda565b5b5f615dc687828801614edb565b9450506020615dd787828801614edb565b9350506040615de887828801614edb565b9250506060615df987828801615d8d565b91505092959194509250565b5f82825260208201905092915050565b7f5374616b65644c7978546f6b656e3a206163636573732064656e6965640000005f82015250565b5f615e49601d83615e05565b9150615e5482615e15565b602082019050919050565b5f6020820190508181035f830152615e7681615e3d565b9050919050565b7f4e487b71000000000000000000000000000000000000000000000000000000005f52603260045260245ffd5b7f5374616b65644c7978546f6b656e3a20756e7374616b652072657175657374205f8201527f6e6f7420636c61696d61626c6500000000000000000000000000000000000000602082015250565b5f615f04602d83615e05565b9150615f0f82615eaa565b604082019050919050565b5f6020820190508181035f830152615f3181615ef8565b9050919050565b7f5374616b65644c7978546f6b656e3a20756e7374616b652072657175657374205f8201527f6e6f742066726f6d2074686973206163636f756e740000000000000000000000602082015250565b5f615f92603583615e05565b9150615f9d82615f38565b604082019050919050565b5f6020820190508181035f830152615fbf81615f86565b9050919050565b7f4e487b71000000000000000000000000000000000000000000000000000000005f52601160045260245ffd5b5f615ffd82614eef565b915061600883614eef565b92508282019050808211156160205761601f615fc6565b5b92915050565b5f61603082614eef565b91507fffffffffffffffffffffffffffffffffffffffffffffffffffffffffffffffff820361606257616061615fc6565b5b600182019050919050565b7f5374616b65644c7978546f6b656e3a20756e7374616b696e6720696e2070726f5f8201527f6772657373000000000000000000000000000000000000000000000000000000602082015250565b5f6160c7602583615e05565b91506160d28261606d565b604082019050919050565b5f6020820190508181035f8301526160f4816160bb565b9050919050565b5f61610582614eef565b915061611083614eef565b925082820390508181111561612857616127615fc6565b5b92915050565b5f61613882615b57565b915061614383615b57565b925082820390506fffffffffffffffffffffffffffffffff81111561616b5761616a615fc6565b5b92915050565b5f61617b82615b57565b915061618683615b57565b925082820190506fffffffffffffffffffffffffffffffff8111156161ae576161ad615fc6565b5b92915050565b7f4f776e61626c655061757361626c653a206163636573732064656e69656400005f82015250565b5f6161e8601e83615e05565b91506161f3826161b4565b602082019050919050565b5f6020820190508181035f830152616215816161dc565b9050919050565b7f5374616b65644c7978546f6b656e3a20696e76616c696420746f6b656e4f776e5f8201527f6572000000000000000000000000000000000000000000000000000000000000602082015250565b5f616276602283615e05565b91506162818261621c565b604082019050919050565b5f6020820190508181035f8301526162a38161626a565b9050919050565b5f6040820190506162bd5f8301856159ea565b6162ca6020830184614e6d565b9392505050565b7f5374616b65644c7978546f6b656e3a20616d6f756e74206d75737420626520675f8201527f726561746572207468616e207a65726f00000000000000000000000000000000602082015250565b5f61632b603083615e05565b9150616336826162d1565b604082019050919050565b5f6020820190508181035f8301526163588161631f565b9050919050565b7f5374616b65644c7978546f6b656e3a20696e73756666696369656e742062616c5f8201527f616e636500000000000000000000000000000000000000000000000000000000602082015250565b5f6163b9602483615e05565b91506163c48261635f565b604082019050919050565b5f6020820190508181035f8301526163e6816163ad565b9050919050565b5f815190506163fb8161509c565b92915050565b5f6020828403121561641657616415614dda565b5b5f616423848285016163ed565b91505092915050565b5f60408201905061643f5f83018561501e565b61644c602083018461501e565b9392505050565b7f416363657373436f6e74726f6c3a2063616e206f6e6c792072656e6f756e63655f8201527f20726f6c657320666f722073656c660000000000000000000000000000000000602082015250565b5f6164ad602f83615e05565b91506164b882616453565b604082019050919050565b5f6020820190508181035f8301526164da816164a1565b9050919050565b5f6080820190506164f45f8301876159ea565b616501602083018661501e565b61650e60408301856159ea565b61651b606083018461501e565b95945050505050565b7f5374616b65644c7978546f6b656e3a20756e7374616b696e6720616c726561645f8201527f7920696e2070726f677265737300000000000000000000000000000000000000602082015250565b5f61657e602d83615e05565b915061658982616524565b604082019050919050565b5f6020820190508181035f8301526165ab81616572565b9050919050565b7f5374616b65644c7978546f6b656e3a20696e73756666696369656e742070656e5f8201527f64696e6720756e7374616b650000000000000000000000000000000000000000602082015250565b5f61660c602c83615e05565b9150616617826165b2565b604082019050919050565b5f6020820190508181035f83015261663981616600565b9050919050565b7f4e487b71000000000000000000000000000000000000000000000000000000005f52601260045260245ffd5b5f61667782614eef565b915061668283614eef565b92508261669257616691616640565b5b828206905092915050565b5f6166a782614eef565b91506166b283614eef565b9250826166c2576166c1616640565b5b828204905092915050565b7f5374616b65644c7978546f6b656e3a20696e76616c696420696e6465780000005f82015250565b5f616701601d83615e05565b915061670c826166cd565b602082019050919050565b5f6020820190508181035f83015261672e816166f5565b9050919050565b7f5374616b65644c7978546f6b656e3a20756e7374616b696e67206e6f7420696e5f8201527f2070726f63657373000000000000000000000000000000000000000000000000602082015250565b5f61678f602883615e05565b915061679a82616735565b604082019050919050565b5f6020820190508181035f8301526167bc81616783565b9050919050565b5f6167cd82614eef565b91506167d883614eef565b92508282026167e681614eef565b915082820484148315176167fd576167fc615fc6565b5b5092915050565b7f4f776e61626c653a206e6577206f776e657220697320746865207a65726f20615f8201527f6464726573730000000000000000000000000000000000000000000000000000602082015250565b5f61685e602683615e05565b915061686982616804565b604082019050919050565b5f6020820190508181035f83015261688b81616852565b9050919050565b7f496e697469616c697a61626c653a20636f6e747261637420697320616c7265615f8201527f647920696e697469616c697a6564000000000000000000000000000000000000602082015250565b5f6168ec602e83615e05565b91506168f782616892565b604082019050919050565b5f6020820190508181035f830152616919816168e0565b9050919050565b7f5374616b65644c7978546f6b656e3a20706f6f6c20616464726573732063616e5f8201527f6e6f74206265207a65726f000000000000000000000000000000000000000000602082015250565b5f61697a602b83615e05565b915061698582616920565b604082019050919050565b5f6020820190508181035f8301526169a78161696e565b9050919050565b7f5374616b65644c7978546f6b656e3a206f7261636c65732061646472657373205f8201527f63616e6e6f74206265207a65726f000000000000000000000000000000000000602082015250565b5f616a08602e83615e05565b9150616a13826169ae565b604082019050919050565b5f6020820190508181035f830152616a35816169fc565b9050919050565b7f5374616b65644c7978546f6b656e3a2061646d696e20616464726573732063615f8201527f6e6e6f74206265207a65726f0000000000000000000000000000000000000000602082015250565b5f616a96602c83615e05565b9150616aa182616a3c565b604082019050919050565b5f6020820190508181035f830152616ac381616a8a565b9050919050565b7f5374616b65644c7978546f6b656e3a207265776172644c7978546f6b656e20615f8201527f6464726573732063616e6e6f74206265207a65726f0000000000000000000000602082015250565b5f616b24603583615e05565b9150616b2f82616aca565b604082019050919050565b5f6020820190508181035f830152616b5181616b18565b9050919050565b5f819050919050565b5f819050919050565b5f616b84616b7f616b7a84616b58565b616b61565b615771565b9050919050565b616b9481616b6a565b82525050565b5f602082019050616bad5f830184616b8b565b92915050565b7f5265656e7472616e637947756172643a207265656e7472616e742063616c6c005f82015250565b5f616be7601f83615e05565b9150616bf282616bb3565b602082019050919050565b5f6020820190508181035f830152616c1481616bdb565b9050919050565b7f4e487b71000000000000000000000000000000000000000000000000000000005f52602260045260245ffd5b5f6002820490506001821680616c5f57607f821691505b602082108103616c7257616c71616c1b565b5b50919050565b7f4f776e61626c653a2063616c6c6572206973206e6f7420746865206f776e65725f82015250565b5f616cac602083615e05565b9150616cb782616c78565b602082019050919050565b5f6020820190508181035f830152616cd981616ca0565b9050919050565b5f606082019050616cf35f83018661501e565b616d006020830185614e6d565b8181036040830152616d1281846157e7565b9050949350505050565b5f81519050616d2a81614ef8565b92915050565b5f60208284031215616d4557616d44614dda565b5b5f616d5284828501616d1c565b91505092915050565b7f5374616b65644c7978546f6b656e3a2063616e6e6f74207472616e73666572205f8201527f647572696e672072657761726473207570646174650000000000000000000000602082015250565b5f616db5603583615e05565b9150616dc082616d5b565b604082019050919050565b5f6020820190508181035f830152616de281616da9565b9050919050565b5f606082019050616dfc5f83018661501e565b616e0960208301856159ea565b616e16604083018461501e565b949350505050565b5f604082019050616e315f8301856159ea565b616e3e60208301846159ea565b9392505050565b5f8060408385031215616e5b57616e5a614dda565b5b5f616e68858286016163ed565b9250506020616e79858286016163ed565b9150509250929050565b5f819050815f5260205f209050919050565b5f6020601f8301049050919050565b5f82821b905092915050565b5f60088302616edf7fffffffffffffffffffffffffffffffffffffffffffffffffffffffffffffffff82616ea4565b616ee98683616ea4565b95508019841693508086168417925050509392505050565b5f616f1b616f16616f1184614eef565b616b61565b614eef565b9050919050565b5f819050919050565b616f3483616f01565b616f48616f4082616f22565b848454616eb0565b825550505050565b5f90565b616f5c616f50565b616f67818484616f2b565b505050565b5b81811015616f8a57616f7f5f82616f54565b600181019050616f6d565b5050565b601f821115616fcf57616fa081616e83565b616fa984616e95565b81016020851015616fb8578190505b616fcc616fc485616e95565b830182616f6c565b50505b505050565b5f82821c905092915050565b5f616fef5f1984600802616fd4565b1980831691505092915050565b5f6170078383616fe0565b9150826002028217905092915050565b617020826157a5565b67ffffffffffffffff811115617039576170386151ea565b5b6170438254616c48565b61704e828285616f8e565b5f60209050601f83116001811461707f575f841561706d578287015190505b6170778582616ffc565b8655506170de565b601f19841661708d86616e83565b5f5b828110156170b45784890151825560018201915060208501945060208101905061708f565b868310156170d157848901516170cd601f891682616fe0565b8355505b6001600288020188555050505b505050505050565b7f496e697469616c697a61626c653a20636f6e7472616374206973206e6f7420695f8201527f6e697469616c697a696e67000000000000000000000000000000000000000000602082015250565b5f617140602b83615e05565b915061714b826170e6565b604082019050919050565b5f6020820190508181035f83015261716d81617134565b9050919050565b5f81905092915050565b7f416363657373436f6e74726f6c3a206163636f756e74200000000000000000005f82015250565b5f6171b2601783617174565b91506171bd8261717e565b601782019050919050565b5f81519050919050565b5f6171dc826171c8565b6171e68185617174565b93506171f68185602086016157bf565b80840191505092915050565b7f206973206d697373696e6720726f6c65200000000000000000000000000000005f82015250565b5f617236601183617174565b915061724182617202565b601182019050919050565b5f617256826171a6565b915061726282856171d2565b915061726d8261722a565b915061727982846171d2565b91508190509392505050565b5f61728f826171c8565b6172998185615e05565b93506172a98185602086016157bf565b6172b2816151da565b840191505092915050565b5f6020820190508181035f8301526172d58184617285565b905092915050565b7f5061757361626c653a206e6f74207061757365640000000000000000000000005f82015250565b5f617311601483615e05565b915061731c826172dd565b602082019050919050565b5f6020820190508181035f83015261733e81617305565b9050919050565b5f8160601b9050919050565b5f61735b82617345565b9050919050565b5f61736c82617351565b9050919050565b61738461737f82614eb4565b617362565b82525050565b5f819050919050565b6173a461739f82614eef565b61738a565b82525050565b5f81905092915050565b5f6173be826157a5565b6173c881856173aa565b93506173d88185602086016157bf565b80840191505092915050565b5f6173ef8287617373565b6014820191506173ff8286617373565b60148201915061740f8285617393565b60208201915061741f82846173b4565b915081905095945050505050565b5f6040820190506174405f8301856151b2565b818103602083015261745281846157e7565b90509392505050565b5f61746d617468846154d1565b615248565b905082815260208101848484011115617489576174886154cd565b5b6174948482856157bf565b509392505050565b5f82601f8301126174b0576174af614f60565b5b81516174c084826020860161745b565b91505092915050565b5f602082840312156174de576174dd614dda565b5b5f82015167ffffffffffffffff8111156174fb576174fa614dde565b5b6175078482850161749c565b91505092915050565b7f736c6963655f6f766572666c6f770000000000000000000000000000000000005f82015250565b5f617544600e83615e05565b915061754f82617510565b602082019050919050565b5f6020820190508181035f83015261757181617538565b9050919050565b7f736c6963655f6f75744f66426f756e64730000000000000000000000000000005f82015250565b5f6175ac601183615e05565b91506175b782617578565b602082019050919050565b5f6020820190508181035f8301526175d9816175a0565b9050919050565b7f5061757361626c653a20706175736564000000000000000000000000000000005f82015250565b5f617614601083615e05565b915061761f826175e0565b602082019050919050565b5f6020820190508181035f83015261764181617608565b9050919050565b5f61765282614eef565b91505f820361766457617663615fc6565b5b600182039050919050565b7f537472696e67733a20686578206c656e67746820696e73756666696369656e745f82015250565b5f6176a3602083615e05565b91506176ae8261766f565b602082019050919050565b5f6020820190508181035f8301526176d081617697565b9050919050565b6176e081614de2565b82525050565b5f6020820190506176f95f8301846176d7565b9291505056fea26469706673582212202366e7cc3a169f9ea7298b7c5222111d5cefa7e0689c72f8083dba2a16e8263d64736f6c63430008140033",
  "linkReferences": {},
  "deployedLinkReferences": {}
}