{
  "_format": "hh-sol-artifact-1",
  "contractName": "StakedLyxToken",
  "sourceName": "contracts/tokens/StakedLyxToken.sol",
  "abi": [
    {
      "inputs": [],
      "name": "ERC725Y_DataKeysValuesEmptyArray",
      "type": "error"
    },
    {
      "inputs": [],
      "name": "ERC725Y_DataKeysValuesLengthMismatch",
      "type": "error"
    },
    {
      "inputs": [],
      "name": "ERC725Y_MsgValueDisallowed",
      "type": "error"
    },
    {
      "inputs": [],
      "name": "LSP4TokenNameNotEditable",
      "type": "error"
    },
    {
      "inputs": [],
      "name": "LSP4TokenSymbolNotEditable",
      "type": "error"
    },
    {
      "inputs": [
        {
          "internalType": "address",
          "name": "tokenOwner",
          "type": "address"
        },
        {
          "internalType": "uint256",
          "name": "authorizedAmount",
          "type": "uint256"
        },
        {
          "internalType": "address",
          "name": "operator",
          "type": "address"
        },
        {
          "internalType": "uint256",
          "name": "amount",
          "type": "uint256"
        }
      ],
      "name": "LSP7AmountExceedsAuthorizedAmount",
      "type": "error"
    },
    {
      "inputs": [
        {
          "internalType": "uint256",
          "name": "balance",
          "type": "uint256"
        },
        {
          "internalType": "address",
          "name": "tokenOwner",
          "type": "address"
        },
        {
          "internalType": "uint256",
          "name": "amount",
          "type": "uint256"
        }
      ],
      "name": "LSP7AmountExceedsBalance",
      "type": "error"
    },
    {
      "inputs": [],
      "name": "LSP7CannotSendToSelf",
      "type": "error"
    },
    {
      "inputs": [],
      "name": "LSP7CannotSendWithAddressZero",
      "type": "error"
    },
    {
      "inputs": [],
      "name": "LSP7CannotUseAddressZeroAsOperator",
      "type": "error"
    },
    {
      "inputs": [],
      "name": "LSP7InvalidTransferBatch",
      "type": "error"
    },
    {
      "inputs": [
        {
          "internalType": "address",
          "name": "tokenReceiver",
          "type": "address"
        }
      ],
      "name": "LSP7NotifyTokenReceiverContractMissingLSP1Interface",
      "type": "error"
    },
    {
      "inputs": [
        {
          "internalType": "address",
          "name": "tokenReceiver",
          "type": "address"
        }
      ],
      "name": "LSP7NotifyTokenReceiverIsEOA",
      "type": "error"
    },
    {
      "inputs": [],
      "name": "LSP7TokenOwnerCannotBeOperator",
      "type": "error"
    },
    {
      "anonymous": false,
      "inputs": [
        {
          "indexed": true,
          "internalType": "address",
          "name": "owner",
          "type": "address"
        },
        {
          "indexed": true,
          "internalType": "address",
          "name": "spender",
          "type": "address"
        },
        {
          "indexed": false,
          "internalType": "uint256",
          "name": "value",
          "type": "uint256"
        }
      ],
      "name": "Approval",
      "type": "event"
    },
    {
      "anonymous": false,
      "inputs": [
        {
          "indexed": true,
          "internalType": "address",
          "name": "operator",
          "type": "address"
        },
        {
          "indexed": true,
          "internalType": "address",
          "name": "tokenOwner",
          "type": "address"
        },
        {
          "indexed": true,
          "internalType": "uint256",
          "name": "amount",
          "type": "uint256"
        }
      ],
      "name": "AuthorizedOperator",
      "type": "event"
    },
    {
      "anonymous": false,
      "inputs": [
        {
          "indexed": true,
          "internalType": "bytes32",
          "name": "dataKey",
          "type": "bytes32"
        },
        {
          "indexed": false,
          "internalType": "bytes",
          "name": "dataValue",
          "type": "bytes"
        }
      ],
      "name": "DataChanged",
      "type": "event"
    },
    {
      "anonymous": false,
      "inputs": [
        {
          "indexed": false,
          "internalType": "uint8",
          "name": "version",
          "type": "uint8"
        }
      ],
      "name": "Initialized",
      "type": "event"
    },
    {
      "anonymous": false,
      "inputs": [
        {
          "indexed": true,
          "internalType": "uint256",
          "name": "requestIndex",
          "type": "uint256"
        },
        {
          "indexed": true,
          "internalType": "address",
          "name": "account",
          "type": "address"
        },
        {
          "indexed": false,
          "internalType": "uint256",
          "name": "amount",
          "type": "uint256"
        },
        {
          "indexed": false,
          "internalType": "uint256",
          "name": "newTotalPendingUnstake",
          "type": "uint256"
        }
      ],
      "name": "NewUnstakeRequest",
      "type": "event"
    },
    {
      "anonymous": false,
      "inputs": [
        {
          "indexed": true,
          "internalType": "address",
          "name": "previousOwner",
          "type": "address"
        },
        {
          "indexed": true,
          "internalType": "address",
          "name": "newOwner",
          "type": "address"
        }
      ],
      "name": "OwnershipTransferred",
      "type": "event"
    },
    {
      "anonymous": false,
      "inputs": [
        {
          "indexed": false,
          "internalType": "address",
          "name": "account",
          "type": "address"
        }
      ],
      "name": "Paused",
      "type": "event"
    },
    {
      "anonymous": false,
      "inputs": [
        {
          "indexed": true,
          "internalType": "address",
          "name": "operator",
          "type": "address"
        },
        {
          "indexed": true,
          "internalType": "address",
          "name": "tokenOwner",
          "type": "address"
        }
      ],
      "name": "RevokedOperator",
      "type": "event"
    },
    {
      "anonymous": false,
      "inputs": [
        {
          "indexed": true,
          "internalType": "bytes32",
          "name": "role",
          "type": "bytes32"
        },
        {
          "indexed": true,
          "internalType": "bytes32",
          "name": "previousAdminRole",
          "type": "bytes32"
        },
        {
          "indexed": true,
          "internalType": "bytes32",
          "name": "newAdminRole",
          "type": "bytes32"
        }
      ],
      "name": "RoleAdminChanged",
      "type": "event"
    },
    {
      "anonymous": false,
      "inputs": [
        {
          "indexed": true,
          "internalType": "bytes32",
          "name": "role",
          "type": "bytes32"
        },
        {
          "indexed": true,
          "internalType": "address",
          "name": "account",
          "type": "address"
        },
        {
          "indexed": true,
          "internalType": "address",
          "name": "sender",
          "type": "address"
        }
      ],
      "name": "RoleGranted",
      "type": "event"
    },
    {
      "anonymous": false,
      "inputs": [
        {
          "indexed": true,
          "internalType": "bytes32",
          "name": "role",
          "type": "bytes32"
        },
        {
          "indexed": true,
          "internalType": "address",
          "name": "account",
          "type": "address"
        },
        {
          "indexed": true,
          "internalType": "address",
          "name": "sender",
          "type": "address"
        }
      ],
      "name": "RoleRevoked",
      "type": "event"
    },
    {
      "anonymous": false,
      "inputs": [
        {
          "indexed": true,
          "internalType": "address",
          "name": "operator",
          "type": "address"
        },
        {
          "indexed": true,
          "internalType": "address",
          "name": "from",
          "type": "address"
        },
        {
          "indexed": true,
          "internalType": "address",
          "name": "to",
          "type": "address"
        },
        {
          "indexed": false,
          "internalType": "uint256",
          "name": "amount",
          "type": "uint256"
        },
        {
          "indexed": false,
          "internalType": "bool",
          "name": "allowNonLSP1Recipient",
          "type": "bool"
        },
        {
          "indexed": false,
          "internalType": "bytes",
          "name": "data",
          "type": "bytes"
        }
      ],
      "name": "Transfer",
      "type": "event"
    },
    {
      "anonymous": false,
      "inputs": [
        {
          "indexed": false,
          "internalType": "address",
          "name": "account",
          "type": "address"
        }
      ],
      "name": "Unpaused",
      "type": "event"
    },
    {
      "anonymous": false,
      "inputs": [
        {
          "indexed": false,
          "internalType": "uint256",
          "name": "amountMatched",
          "type": "uint256"
        },
        {
          "indexed": false,
          "internalType": "uint256",
          "name": "newTotalPendingUnstake",
          "type": "uint256"
        }
      ],
      "name": "UnstakeMatched",
      "type": "event"
    },
    {
      "anonymous": false,
      "inputs": [
        {
          "indexed": false,
          "internalType": "uint256",
          "name": "unstakeAmount",
          "type": "uint256"
        },
        {
          "indexed": false,
          "internalType": "uint256",
          "name": "newTotalPendingUnstake",
          "type": "uint256"
        }
      ],
      "name": "UnstakeProcessed",
      "type": "event"
    },
    {
      "anonymous": false,
      "inputs": [
        {
          "indexed": false,
          "internalType": "uint256",
          "name": "validatorsToExit",
          "type": "uint256"
        }
      ],
      "name": "UnstakeReady",
      "type": "event"
    },
    {
      "inputs": [],
      "name": "DEFAULT_ADMIN_ROLE",
      "outputs": [
        {
          "internalType": "bytes32",
          "name": "",
          "type": "bytes32"
        }
      ],
      "stateMutability": "view",
      "type": "function"
    },
    {
      "inputs": [],
      "name": "PAUSER_ROLE",
      "outputs": [
        {
          "internalType": "bytes32",
          "name": "",
          "type": "bytes32"
        }
      ],
      "stateMutability": "view",
      "type": "function"
    },
    {
      "inputs": [],
      "name": "VALIDATOR_TOTAL_DEPOSIT",
      "outputs": [
        {
          "internalType": "uint256",
          "name": "",
          "type": "uint256"
        }
      ],
      "stateMutability": "view",
      "type": "function"
    },
    {
      "inputs": [
        {
          "internalType": "address",
          "name": "_account",
          "type": "address"
        }
      ],
      "name": "addAdmin",
      "outputs": [],
      "stateMutability": "nonpayable",
      "type": "function"
    },
    {
      "inputs": [
        {
          "internalType": "address",
          "name": "_account",
          "type": "address"
        }
      ],
      "name": "addPauser",
      "outputs": [],
      "stateMutability": "nonpayable",
      "type": "function"
    },
    {
      "inputs": [
        {
          "internalType": "address",
          "name": "tokenOwner",
          "type": "address"
        },
        {
          "internalType": "address",
          "name": "operator",
          "type": "address"
        }
      ],
      "name": "allowance",
      "outputs": [
        {
          "internalType": "uint256",
          "name": "",
          "type": "uint256"
        }
      ],
      "stateMutability": "view",
      "type": "function"
    },
    {
      "inputs": [
        {
          "internalType": "address",
          "name": "operator",
          "type": "address"
        },
        {
          "internalType": "uint256",
          "name": "amount",
          "type": "uint256"
        }
      ],
      "name": "approve",
      "outputs": [
        {
          "internalType": "bool",
          "name": "",
          "type": "bool"
        }
      ],
      "stateMutability": "nonpayable",
      "type": "function"
    },
    {
      "inputs": [
        {
          "internalType": "address",
          "name": "operator",
          "type": "address"
        },
        {
          "internalType": "uint256",
          "name": "amount",
          "type": "uint256"
        }
      ],
      "name": "authorizeOperator",
      "outputs": [],
      "stateMutability": "nonpayable",
      "type": "function"
    },
    {
      "inputs": [
        {
          "internalType": "address",
          "name": "operator",
          "type": "address"
        },
        {
          "internalType": "address",
          "name": "tokenOwner",
          "type": "address"
        }
      ],
      "name": "authorizedAmountFor",
      "outputs": [
        {
          "internalType": "uint256",
          "name": "",
          "type": "uint256"
        }
      ],
      "stateMutability": "view",
      "type": "function"
    },
    {
      "inputs": [
        {
          "internalType": "address",
          "name": "tokenOwner",
          "type": "address"
        }
      ],
      "name": "balanceOf",
      "outputs": [
        {
          "internalType": "uint256",
          "name": "",
          "type": "uint256"
        }
      ],
      "stateMutability": "view",
      "type": "function"
    },
    {
      "inputs": [
        {
          "internalType": "address",
          "name": "account",
          "type": "address"
        },
        {
          "internalType": "uint256[]",
          "name": "unstakeRequestIndexes",
          "type": "uint256[]"
        }
      ],
      "name": "claimUnstake",
      "outputs": [
        {
          "internalType": "uint256",
          "name": "",
          "type": "uint256"
        }
      ],
      "stateMutability": "nonpayable",
      "type": "function"
    },
    {
      "inputs": [],
      "name": "decimals",
      "outputs": [
        {
          "internalType": "uint8",
          "name": "",
          "type": "uint8"
        }
      ],
      "stateMutability": "pure",
      "type": "function"
    },
    {
      "inputs": [],
      "name": "distributorPrincipal",
      "outputs": [
        {
          "internalType": "uint256",
          "name": "",
          "type": "uint256"
        }
      ],
      "stateMutability": "view",
      "type": "function"
    },
    {
      "inputs": [
        {
          "internalType": "bytes32",
          "name": "dataKey",
          "type": "bytes32"
        }
      ],
      "name": "getData",
      "outputs": [
        {
          "internalType": "bytes",
          "name": "dataValue",
          "type": "bytes"
        }
      ],
      "stateMutability": "view",
      "type": "function"
    },
    {
      "inputs": [
        {
          "internalType": "bytes32[]",
          "name": "dataKeys",
          "type": "bytes32[]"
        }
      ],
      "name": "getDataBatch",
      "outputs": [
        {
          "internalType": "bytes[]",
          "name": "dataValues",
          "type": "bytes[]"
        }
      ],
      "stateMutability": "view",
      "type": "function"
    },
    {
      "inputs": [
        {
          "internalType": "bytes32",
          "name": "role",
          "type": "bytes32"
        }
      ],
      "name": "getRoleAdmin",
      "outputs": [
        {
          "internalType": "bytes32",
          "name": "",
          "type": "bytes32"
        }
      ],
      "stateMutability": "view",
      "type": "function"
    },
    {
      "inputs": [
        {
          "internalType": "bytes32",
          "name": "role",
          "type": "bytes32"
        },
        {
          "internalType": "address",
          "name": "account",
          "type": "address"
        }
      ],
      "name": "grantRole",
      "outputs": [],
      "stateMutability": "nonpayable",
      "type": "function"
    },
    {
      "inputs": [
        {
          "internalType": "bytes32",
          "name": "role",
          "type": "bytes32"
        },
        {
          "internalType": "address",
          "name": "account",
          "type": "address"
        }
      ],
      "name": "hasRole",
      "outputs": [
        {
          "internalType": "bool",
          "name": "",
          "type": "bool"
        }
      ],
      "stateMutability": "view",
      "type": "function"
    },
    {
      "inputs": [
        {
          "internalType": "address",
          "name": "_admin",
          "type": "address"
        },
        {
          "internalType": "contract IPool",
          "name": "_pool",
          "type": "address"
        },
        {
          "internalType": "address",
          "name": "_oracles",
          "type": "address"
        },
        {
          "internalType": "contract IRewards",
          "name": "_rewards",
          "type": "address"
        }
      ],
      "name": "initialize",
      "outputs": [],
      "stateMutability": "nonpayable",
      "type": "function"
    },
    {
      "inputs": [
        {
          "internalType": "address",
          "name": "_account",
          "type": "address"
        }
      ],
      "name": "isAdmin",
      "outputs": [
        {
          "internalType": "bool",
          "name": "",
          "type": "bool"
        }
      ],
      "stateMutability": "view",
      "type": "function"
    },
    {
      "inputs": [
        {
          "internalType": "address",
          "name": "_account",
          "type": "address"
        }
      ],
      "name": "isPauser",
      "outputs": [
        {
          "internalType": "bool",
          "name": "",
          "type": "bool"
        }
      ],
      "stateMutability": "view",
      "type": "function"
    },
    {
      "inputs": [
        {
          "internalType": "uint256",
          "name": "index",
          "type": "uint256"
        }
      ],
      "name": "isUnstakeRequestClaimable",
      "outputs": [
        {
          "internalType": "bool",
          "name": "",
          "type": "bool"
        }
      ],
      "stateMutability": "view",
      "type": "function"
    },
    {
      "inputs": [
        {
          "internalType": "uint256",
          "name": "amount",
          "type": "uint256"
        }
      ],
      "name": "matchUnstake",
      "outputs": [
        {
          "internalType": "uint256",
          "name": "",
          "type": "uint256"
        }
      ],
      "stateMutability": "nonpayable",
      "type": "function"
    },
    {
      "inputs": [
        {
          "internalType": "address",
          "name": "to",
          "type": "address"
        },
        {
          "internalType": "uint256",
          "name": "amount",
          "type": "uint256"
        },
        {
          "internalType": "bool",
          "name": "allowNonLSP1Recipient",
          "type": "bool"
        },
        {
          "internalType": "bytes",
          "name": "data",
          "type": "bytes"
        }
      ],
      "name": "mint",
      "outputs": [],
      "stateMutability": "nonpayable",
      "type": "function"
    },
    {
      "inputs": [],
      "name": "owner",
      "outputs": [
        {
          "internalType": "address",
          "name": "",
          "type": "address"
        }
      ],
      "stateMutability": "view",
      "type": "function"
    },
    {
      "inputs": [],
      "name": "pause",
      "outputs": [],
      "stateMutability": "nonpayable",
      "type": "function"
    },
    {
      "inputs": [],
      "name": "paused",
      "outputs": [
        {
          "internalType": "bool",
          "name": "",
          "type": "bool"
        }
      ],
      "stateMutability": "view",
      "type": "function"
    },
    {
      "inputs": [
        {
          "internalType": "address",
          "name": "_account",
          "type": "address"
        }
      ],
      "name": "removeAdmin",
      "outputs": [],
      "stateMutability": "nonpayable",
      "type": "function"
    },
    {
      "inputs": [
        {
          "internalType": "address",
          "name": "_account",
          "type": "address"
        }
      ],
      "name": "removePauser",
      "outputs": [],
      "stateMutability": "nonpayable",
      "type": "function"
    },
    {
      "inputs": [],
      "name": "renounceOwnership",
      "outputs": [],
      "stateMutability": "nonpayable",
      "type": "function"
    },
    {
      "inputs": [
        {
          "internalType": "bytes32",
          "name": "role",
          "type": "bytes32"
        },
        {
          "internalType": "address",
          "name": "account",
          "type": "address"
        }
      ],
      "name": "renounceRole",
      "outputs": [],
      "stateMutability": "nonpayable",
      "type": "function"
    },
    {
      "inputs": [
        {
          "internalType": "address",
          "name": "operator",
          "type": "address"
        }
      ],
      "name": "revokeOperator",
      "outputs": [],
      "stateMutability": "nonpayable",
      "type": "function"
    },
    {
      "inputs": [
        {
          "internalType": "bytes32",
          "name": "role",
          "type": "bytes32"
        },
        {
          "internalType": "address",
          "name": "account",
          "type": "address"
        }
      ],
      "name": "revokeRole",
      "outputs": [],
      "stateMutability": "nonpayable",
      "type": "function"
    },
    {
      "inputs": [
        {
          "internalType": "bytes32",
          "name": "dataKey",
          "type": "bytes32"
        },
        {
          "internalType": "bytes",
          "name": "dataValue",
          "type": "bytes"
        }
      ],
      "name": "setData",
      "outputs": [],
      "stateMutability": "payable",
      "type": "function"
    },
    {
      "inputs": [
        {
          "internalType": "bytes32[]",
          "name": "dataKeys",
          "type": "bytes32[]"
        },
        {
          "internalType": "bytes[]",
          "name": "dataValues",
          "type": "bytes[]"
        }
      ],
      "name": "setDataBatch",
      "outputs": [],
      "stateMutability": "payable",
      "type": "function"
    },
    {
      "inputs": [],
      "name": "setUnstakeProcessing",
      "outputs": [],
      "stateMutability": "nonpayable",
      "type": "function"
    },
    {
      "inputs": [
        {
          "internalType": "bytes4",
          "name": "interfaceId",
          "type": "bytes4"
        }
      ],
      "name": "supportsInterface",
      "outputs": [
        {
          "internalType": "bool",
          "name": "",
          "type": "bool"
        }
      ],
      "stateMutability": "view",
      "type": "function"
    },
    {
      "inputs": [
        {
          "internalType": "address",
          "name": "tokenOwner",
          "type": "address"
        },
        {
          "internalType": "bool",
          "name": "isDisabled",
          "type": "bool"
        }
      ],
      "name": "toggleRewards",
      "outputs": [],
      "stateMutability": "nonpayable",
      "type": "function"
    },
    {
      "inputs": [],
      "name": "totalClaimableUnstakes",
      "outputs": [
        {
          "internalType": "uint256",
          "name": "",
          "type": "uint256"
        }
      ],
      "stateMutability": "view",
      "type": "function"
    },
    {
      "inputs": [],
      "name": "totalDeposits",
      "outputs": [
        {
          "internalType": "uint256",
          "name": "",
          "type": "uint256"
        }
      ],
      "stateMutability": "view",
      "type": "function"
    },
    {
      "inputs": [],
      "name": "totalPendingUnstake",
      "outputs": [
        {
          "internalType": "uint256",
          "name": "",
          "type": "uint256"
        }
      ],
      "stateMutability": "view",
      "type": "function"
    },
    {
      "inputs": [],
      "name": "totalSupply",
      "outputs": [
        {
          "internalType": "uint256",
          "name": "",
          "type": "uint256"
        }
      ],
      "stateMutability": "view",
      "type": "function"
    },
    {
      "inputs": [],
      "name": "totalUnstaked",
      "outputs": [
        {
          "internalType": "uint256",
          "name": "",
          "type": "uint256"
        }
      ],
      "stateMutability": "view",
      "type": "function"
    },
    {
      "inputs": [
        {
          "internalType": "address",
          "name": "from",
          "type": "address"
        },
        {
          "internalType": "address",
          "name": "to",
          "type": "address"
        },
        {
          "internalType": "uint256",
          "name": "amount",
          "type": "uint256"
        },
        {
          "internalType": "bool",
          "name": "allowNonLSP1Recipient",
          "type": "bool"
        },
        {
          "internalType": "bytes",
          "name": "data",
          "type": "bytes"
        }
      ],
      "name": "transfer",
      "outputs": [],
      "stateMutability": "nonpayable",
      "type": "function"
    },
    {
      "inputs": [
        {
          "internalType": "address",
          "name": "to",
          "type": "address"
        },
        {
          "internalType": "uint256",
          "name": "amount",
          "type": "uint256"
        }
      ],
      "name": "transfer",
      "outputs": [
        {
          "internalType": "bool",
          "name": "",
          "type": "bool"
        }
      ],
      "stateMutability": "nonpayable",
      "type": "function"
    },
    {
      "inputs": [
        {
          "internalType": "address[]",
          "name": "from",
          "type": "address[]"
        },
        {
          "internalType": "address[]",
          "name": "to",
          "type": "address[]"
        },
        {
          "internalType": "uint256[]",
          "name": "amount",
          "type": "uint256[]"
        },
        {
          "internalType": "bool[]",
          "name": "allowNonLSP1Recipient",
          "type": "bool[]"
        },
        {
          "internalType": "bytes[]",
          "name": "data",
          "type": "bytes[]"
        }
      ],
      "name": "transferBatch",
      "outputs": [],
      "stateMutability": "nonpayable",
      "type": "function"
    },
    {
      "inputs": [
        {
          "internalType": "address",
          "name": "from",
          "type": "address"
        },
        {
          "internalType": "address",
          "name": "to",
          "type": "address"
        },
        {
          "internalType": "uint256",
          "name": "amount",
          "type": "uint256"
        }
      ],
      "name": "transferFrom",
      "outputs": [
        {
          "internalType": "bool",
          "name": "",
          "type": "bool"
        }
      ],
      "stateMutability": "nonpayable",
      "type": "function"
    },
    {
      "inputs": [
        {
          "internalType": "address",
          "name": "newOwner",
          "type": "address"
        }
      ],
      "name": "transferOwnership",
      "outputs": [],
      "stateMutability": "nonpayable",
      "type": "function"
    },
    {
      "inputs": [],
      "name": "unpause",
      "outputs": [],
      "stateMutability": "nonpayable",
      "type": "function"
    },
    {
      "inputs": [
        {
          "internalType": "uint256",
          "name": "amount",
          "type": "uint256"
        }
      ],
      "name": "unstake",
      "outputs": [],
      "stateMutability": "nonpayable",
      "type": "function"
    },
    {
      "inputs": [
        {
          "internalType": "uint256",
          "name": "exitedValidators",
          "type": "uint256"
        }
      ],
      "name": "unstakeProcessed",
      "outputs": [],
      "stateMutability": "nonpayable",
      "type": "function"
    },
    {
      "inputs": [],
      "name": "unstakeProcessing",
      "outputs": [
        {
          "internalType": "bool",
          "name": "",
          "type": "bool"
        }
      ],
      "stateMutability": "view",
      "type": "function"
    },
    {
      "inputs": [
        {
          "internalType": "uint256",
          "name": "index",
          "type": "uint256"
        }
      ],
      "name": "unstakeRequest",
      "outputs": [
        {
          "components": [
            {
              "internalType": "address",
              "name": "account",
              "type": "address"
            },
            {
              "internalType": "uint128",
              "name": "amount",
              "type": "uint128"
            },
            {
              "internalType": "uint128",
              "name": "amountFilled",
              "type": "uint128"
            },
            {
              "internalType": "bool",
              "name": "claimed",
              "type": "bool"
            }
          ],
          "internalType": "struct IStakedLyxToken.UnstakeRequest",
          "name": "",
          "type": "tuple"
        }
      ],
      "stateMutability": "view",
      "type": "function"
    },
    {
      "inputs": [],
      "name": "unstakeRequestCount",
      "outputs": [
        {
          "internalType": "uint256",
          "name": "",
          "type": "uint256"
        }
      ],
      "stateMutability": "view",
      "type": "function"
    },
    {
      "inputs": [],
      "name": "unstakeRequestCurrentIndex",
      "outputs": [
        {
          "internalType": "uint256",
          "name": "",
          "type": "uint256"
        }
      ],
      "stateMutability": "view",
      "type": "function"
    }
  ],
  "bytecode": "0x608060405234801561000f575f80fd5b50617802806200001e5f395ff3fe60806040526004361061034f575f3560e01c80636b2c0f55116101c557806391d14854116100f6578063d547741f11610094578063e63ab1e91161006e578063e63ab1e914610c5b578063f2fde38b14610c85578063f8c8765e14610cad578063fad8b32a14610cd55761034f565b8063d547741f14610bbb578063dd62ed3e14610be3578063dedff9c614610c1f5761034f565b8063a217fddf116100d0578063a217fddf14610b03578063a9059cbb14610b2d578063ae5e0f7a14610b69578063c76e317414610b935761034f565b806391d1485414610a6f5780639790242114610aab5780639886f99a14610ac75761034f565b80637d882097116101635780638456cb591161013d5780638456cb59146109dd57806384f6ab30146109f35780638da5cb5b14610a095780638ee9f8e014610a335761034f565b80637d8820971461096f5780637f23690c1461099957806382dc1ec4146109b55761034f565b8063715018a61161019f578063715018a6146108df5780637580d920146108f5578063760d9bba1461091d57806377aec521146109455761034f565b80636b2c0f5514610853578063704802751461087b57806370a08231146108a35761034f565b80632d7667c91161029f57806346fbf68e1161023d5780635235934d116102175780635235934d1461078757806354f6127f146107b15780635c975abb146107ed57806365aeaa95146108175761034f565b806346fbf68e146106f957806347980aa3146107355780634baee8e41461075d5761034f565b8063313ce56711610279578063313ce5671461066757806336568abe146106915780633d173136146106b95780633f4ba83a146106e35761034f565b80632d7667c9146105ef5780632e17de78146106175780632f2ff15d1461063f5761034f565b80631785f53c1161030c5780632296728d116102e65780632296728d1461051157806323b872dd1461053b578063248a9ca31461057757806324d7806c146105b35761034f565b80631785f53c1461049757806318160ddd146104bf57806318dab53b146104e95761034f565b806301ffc9a714610353578063095ea7b31461038f57806310fbf713146103cb578063158783e9146103f5578063167bd1d81461043157806316bc06d81461046d575b5f80fd5b34801561035e575f80fd5b5061037960048036038101906103749190614ec9565b610cfd565b6040516103869190614f0e565b60405180910390f35b34801561039a575f80fd5b506103b560048036038101906103b09190614fb4565b610d0e565b6040516103c29190614f0e565b60405180910390f35b3480156103d6575f80fd5b506103df610d23565b6040516103ec9190614f0e565b60405180910390f35b348015610400575f80fd5b5061041b60048036038101906104169190615053565b610d36565b60405161042891906150bf565b60405180910390f35b34801561043c575f80fd5b50610457600480360381019061045291906150d8565b610f5b565b60405161046491906150bf565b60405180910390f35b348015610478575f80fd5b5061048161136a565b60405161048e91906150bf565b60405180910390f35b3480156104a2575f80fd5b506104bd60048036038101906104b89190615103565b6114e8565b005b3480156104ca575f80fd5b506104d36114f7565b6040516104e091906150bf565b60405180910390f35b3480156104f4575f80fd5b5061050f600480360381019061050a9190615158565b611500565b005b34801561051c575f80fd5b506105256116c2565b60405161053291906150bf565b60405180910390f35b348015610546575f80fd5b50610561600480360381019061055c9190615196565b6116c9565b60405161056e9190614f0e565b60405180910390f35b348015610582575f80fd5b5061059d60048036038101906105989190615219565b6116f1565b6040516105aa9190615253565b60405180910390f35b3480156105be575f80fd5b506105d960048036038101906105d49190615103565b61170e565b6040516105e69190614f0e565b60405180910390f35b3480156105fa575f80fd5b50610615600480360381019061061091906156c2565b611722565b005b348015610622575f80fd5b5061063d600480360381019061063891906150d8565b611839565b005b34801561064a575f80fd5b50610665600480360381019061066091906157c5565b611c77565b005b348015610672575f80fd5b5061067b611c98565b604051610688919061581e565b60405180910390f35b34801561069c575f80fd5b506106b760048036038101906106b291906157c5565b611ca0565b005b3480156106c4575f80fd5b506106cd611d23565b6040516106da91906150bf565b60405180910390f35b3480156106ee575f80fd5b506106f7611d29565b005b348015610704575f80fd5b5061071f600480360381019061071a9190615103565b611d9c565b60405161072c9190614f0e565b60405180910390f35b348015610740575f80fd5b5061075b60048036038101906107569190614fb4565b611dce565b005b348015610768575f80fd5b50610771611ddd565b60405161077e91906150bf565b60405180910390f35b348015610792575f80fd5b5061079b611de4565b6040516107a891906150bf565b60405180910390f35b3480156107bc575f80fd5b506107d760048036038101906107d29190615219565b611dea565b6040516107e491906158b1565b60405180910390f35b3480156107f8575f80fd5b50610801611dfc565b60405161080e9190614f0e565b60405180910390f35b348015610822575f80fd5b5061083d600480360381019061083891906158d1565b611e11565b60405161084a91906150bf565b60405180910390f35b34801561085e575f80fd5b5061087960048036038101906108749190615103565b611f0e565b005b348015610886575f80fd5b506108a1600480360381019061089c9190615103565b611f3b565b005b3480156108ae575f80fd5b506108c960048036038101906108c49190615103565b611f4a565b6040516108d691906150bf565b60405180910390f35b3480156108ea575f80fd5b506108f3611f91565b005b348015610900575f80fd5b5061091b6004803603810190610916919061590f565b611fa4565b005b348015610928575f80fd5b50610943600480360381019061093e919061598f565b612102565b005b348015610950575f80fd5b50610959612293565b60405161096691906150bf565b60405180910390f35b34801561097a575f80fd5b506109836122a0565b60405161099091906150bf565b60405180910390f35b6109b360048036038101906109ae9190615a22565b6122a9565b005b3480156109c0575f80fd5b506109db60048036038101906109d69190615103565b6122f8565b005b3480156109e8575f80fd5b506109f1612325565b005b3480156109fe575f80fd5b50610a07612398565b005b348015610a14575f80fd5b50610a1d612548565b604051610a2a9190615a8b565b60405180910390f35b348015610a3e575f80fd5b50610a596004803603810190610a5491906150d8565b612570565b604051610a669190614f0e565b60405180910390f35b348015610a7a575f80fd5b50610a956004803603810190610a9091906157c5565b61270f565b604051610aa29190614f0e565b60405180910390f35b610ac56004803603810190610ac09190615b64565b612773565b005b348015610ad2575f80fd5b50610aed6004803603810190610ae891906150d8565b612882565b604051610afa9190615c75565b60405180910390f35b348015610b0e575f80fd5b50610b17612a3a565b604051610b249190615253565b60405180910390f35b348015610b38575f80fd5b50610b536004803603810190610b4e9190614fb4565b612a40565b604051610b609190614f0e565b60405180910390f35b348015610b74575f80fd5b50610b7d612a67565b604051610b8a91906150bf565b60405180910390f35b348015610b9e575f80fd5b50610bb96004803603810190610bb491906150d8565b612a6e565b005b348015610bc6575f80fd5b50610be16004803603810190610bdc91906157c5565b612eb0565b005b348015610bee575f80fd5b50610c096004803603810190610c0491906158d1565b612ed1565b604051610c1691906150bf565b60405180910390f35b348015610c2a575f80fd5b50610c456004803603810190610c409190615c8e565b612ee4565b604051610c529190615dd8565b60405180910390f35b348015610c66575f80fd5b50610c6f612f94565b604051610c7c9190615253565b60405180910390f35b348015610c90575f80fd5b50610cab6004803603810190610ca69190615103565b612fb8565b005b348015610cb8575f80fd5b50610cd36004803603810190610cce9190615e6e565b61303a565b005b348015610ce0575f80fd5b50610cfb6004803603810190610cf69190615103565b613467565b005b5f610d0782613475565b9050919050565b5f610d198383611dce565b6001905092915050565b6101025f9054906101000a900460ff1681565b5f6101085f9054906101000a900473ffffffffffffffffffffffffffffffffffffffff1673ffffffffffffffffffffffffffffffffffffffff163373ffffffffffffffffffffffffffffffffffffffff1614610dc7576040517f08c379a0000000000000000000000000000000000000000000000000000000008152600401610dbe90615f2c565b60405180910390fd5b5f805b84849050811015610f4f575f858583818110610de957610de8615f4a565b5b905060200201359050610dfb81612570565b610e3a576040517f08c379a0000000000000000000000000000000000000000000000000000000008152600401610e3190615fe7565b60405180910390fd5b5f6101035f8381526020019081526020015f2090508773ffffffffffffffffffffffffffffffffffffffff16815f015f9054906101000a900473ffffffffffffffffffffffffffffffffffffffff1673ffffffffffffffffffffffffffffffffffffffff1614610edf576040517f08c379a0000000000000000000000000000000000000000000000000000000008152600401610ed690616075565b60405180910390fd5b806001015f9054906101000a90046fffffffffffffffffffffffffffffffff166fffffffffffffffffffffffffffffffff1684610f1c91906160c0565b93506001816002015f6101000a81548160ff02191690831515021790555050508080610f47906160f3565b915050610dca565b50809150509392505050565b5f6101065f9054906101000a900473ffffffffffffffffffffffffffffffffffffffff1673ffffffffffffffffffffffffffffffffffffffff163373ffffffffffffffffffffffffffffffffffffffff1614610fec576040517f08c379a0000000000000000000000000000000000000000000000000000000008152600401610fe390615f2c565b60405180910390fd5b6101025f9054906101000a900460ff161561103c576040517f08c379a0000000000000000000000000000000000000000000000000000000008152600401611033906161aa565b60405180910390fd5b5f8060ff540361104f5780915050611365565b60ff5483106110f65760ff5490505f60ff8190555061010054610101819055506101035f6101005481526020019081526020015f206001015f9054906101000a90046fffffffffffffffffffffffffffffffff166101035f6101005481526020019081526020015f2060010160106101000a8154816fffffffffffffffffffffffffffffffff02191690836fffffffffffffffffffffffffffffffff160217905550611325565b8290508060ff5f82825461110a91906161c8565b925050819055505f8190505f6101015490505b610100548111611322575f6101035f8381526020019081526020015f2090508060010160109054906101000a90046fffffffffffffffffffffffffffffffff16816001015f9054906101000a90046fffffffffffffffffffffffffffffffff1661118791906161fb565b6fffffffffffffffffffffffffffffffff16831115611210578060010160109054906101000a90046fffffffffffffffffffffffffffffffff16816001015f9054906101000a90046fffffffffffffffffffffffffffffffff166111eb91906161fb565b6fffffffffffffffffffffffffffffffff168361120891906161c8565b92505061130f565b8060010160109054906101000a90046fffffffffffffffffffffffffffffffff16816001015f9054906101000a90046fffffffffffffffffffffffffffffffff1661125b91906161fb565b6fffffffffffffffffffffffffffffffff168314801561127d57506101005482105b1561129b5760018261128f91906160c0565b61010181905550611309565b828160010160108282829054906101000a90046fffffffffffffffffffffffffffffffff166112ca919061623e565b92506101000a8154816fffffffffffffffffffffffffffffffff02191690836fffffffffffffffffffffffffffffffff16021790555081610101819055505b50611322565b808061131a906160f3565b91505061111d565b50505b7f1d5e667f0aeaf278369a7616dd3f42e38b09584722dafb969a86331c45e4e9658160ff54604051611358929190616281565b60405180910390a1809150505b919050565b5f805f5b6101015481116114e0575f6101035f8381526020019081526020015f206040518060800160405290815f82015f9054906101000a900473ffffffffffffffffffffffffffffffffffffffff1673ffffffffffffffffffffffffffffffffffffffff1673ffffffffffffffffffffffffffffffffffffffff168152602001600182015f9054906101000a90046fffffffffffffffffffffffffffffffff166fffffffffffffffffffffffffffffffff166fffffffffffffffffffffffffffffffff1681526020016001820160109054906101000a90046fffffffffffffffffffffffffffffffff166fffffffffffffffffffffffffffffffff166fffffffffffffffffffffffffffffffff168152602001600282015f9054906101000a900460ff16151515158152505090506114a282612570565b156114cc5780602001516fffffffffffffffffffffffffffffffff16836114c991906160c0565b92505b5080806114d8906160f3565b91505061136e565b508091505090565b6114f45f801b82612eb0565b50565b5f60fd54905090565b61150c5f801b3361270f565b61154b576040517f08c379a0000000000000000000000000000000000000000000000000000000008152600401611542906162f2565b60405180910390fd5b5f73ffffffffffffffffffffffffffffffffffffffff168273ffffffffffffffffffffffffffffffffffffffff16036115b9576040517f08c379a00000000000000000000000000000000000000000000000000000000081526004016115b090616380565b60405180910390fd5b6101085f9054906101000a900473ffffffffffffffffffffffffffffffffffffffff1673ffffffffffffffffffffffffffffffffffffffff16636a9ecedb83836040518363ffffffff1660e01b815260040161161692919061639e565b5f604051808303815f87803b15801561162d575f80fd5b505af115801561163f573d5f803e3d5ffd5b505050505f6101045f8473ffffffffffffffffffffffffffffffffffffffff1673ffffffffffffffffffffffffffffffffffffffff1681526020019081526020015f2054905081156116a657806101095461169a91906160c0565b610109819055506116bd565b80610109546116b591906161c8565b610109819055505b505050565b6101005481565b5f6116e6848484600160405180602001604052805f815250612102565b600190509392505050565b5f60975f8381526020019081526020015f20600101549050919050565b5f61171b5f801b8361270f565b9050919050565b5f85519050845181141580611738575083518114155b80611744575082518114155b80611750575081518114155b15611787576040517f263eee8d00000000000000000000000000000000000000000000000000000000815260040160405180910390fd5b5f5b81811015611830576118208782815181106117a7576117a6615f4a565b5b60200260200101518783815181106117c2576117c1615f4a565b5b60200260200101518784815181106117dd576117dc615f4a565b5b60200260200101518785815181106117f8576117f7615f4a565b5b602002602001015187868151811061181357611812615f4a565b5b6020026020010151612102565b611829816134d5565b9050611789565b50505050505050565b6118416134e1565b5f3390506101025f9054906101000a900460ff1615611895576040517f08c379a000000000000000000000000000000000000000000000000000000000815260040161188c906161aa565b60405180910390fd5b5f82116118d7576040517f08c379a00000000000000000000000000000000000000000000000000000000081526004016118ce90616435565b60405180910390fd5b816101045f8373ffffffffffffffffffffffffffffffffffffffff1673ffffffffffffffffffffffffffffffffffffffff1681526020019081526020015f20541015611958576040517f08c379a000000000000000000000000000000000000000000000000000000000815260040161194f906164c3565b60405180910390fd5b5f6101085f9054906101000a900473ffffffffffffffffffffffffffffffffffffffff1673ffffffffffffffffffffffffffffffffffffffff166301ba793b836040518263ffffffff1660e01b81526004016119b49190615a8b565b6020604051808303815f875af11580156119d0573d5f803e3d5ffd5b505050506040513d601f19601f820116820180604052508101906119f491906164f5565b90508015611a13578261010954611a0b91906161c8565b610109819055505b826101045f8473ffffffffffffffffffffffffffffffffffffffff1673ffffffffffffffffffffffffffffffffffffffff1681526020019081526020015f205f828254611a6091906161c8565b925050819055508260fd5f828254611a7891906161c8565b92505081905550826fffffffffffffffffffffffffffffffff1660ff54611a9f91906160c0565b60ff8190555060016101005f828254611ab891906160c0565b9250508190555060405180608001604052808373ffffffffffffffffffffffffffffffffffffffff168152602001846fffffffffffffffffffffffffffffffff1681526020015f6fffffffffffffffffffffffffffffffff1681526020015f15158152506101035f6101005481526020019081526020015f205f820151815f015f6101000a81548173ffffffffffffffffffffffffffffffffffffffff021916908373ffffffffffffffffffffffffffffffffffffffff1602179055506020820151816001015f6101000a8154816fffffffffffffffffffffffffffffffff02191690836fffffffffffffffffffffffffffffffff16021790555060408201518160010160106101000a8154816fffffffffffffffffffffffffffffffff02191690836fffffffffffffffffffffffffffffffff1602179055506060820151816002015f6101000a81548160ff0219169083151502179055509050508173ffffffffffffffffffffffffffffffffffffffff16610100547f40c95cbc9b2d49befc4e6571127b1448fabda307788866476192b98b5d7f9bc08560ff54604051611c62929190616281565b60405180910390a35050611c74613530565b50565b611c80826116f1565b611c898161353a565b611c93838361354e565b505050565b5f6012905090565b611ca8613629565b73ffffffffffffffffffffffffffffffffffffffff168173ffffffffffffffffffffffffffffffffffffffff1614611d15576040517f08c379a0000000000000000000000000000000000000000000000000000000008152600401611d0c90616590565b60405180910390fd5b611d1f8282613630565b5050565b60ff5481565b611d537f65d7a28e3265b37a6474929f336521b332c1681b933f6cb9f3376673440d862a3361270f565b611d92576040517f08c379a0000000000000000000000000000000000000000000000000000000008152600401611d89906162f2565b60405180910390fd5b611d9a61370b565b565b5f611dc77f65d7a28e3265b37a6474929f336521b332c1681b933f6cb9f3376673440d862a8361270f565b9050919050565b611dd933838361376c565b5050565b6101015481565b60fe5481565b6060611df58261397b565b9050919050565b5f60335f9054906101000a900460ff16905090565b5f8273ffffffffffffffffffffffffffffffffffffffff168273ffffffffffffffffffffffffffffffffffffffff1603611e8b576101045f8373ffffffffffffffffffffffffffffffffffffffff1673ffffffffffffffffffffffffffffffffffffffff1681526020019081526020015f20549050611f08565b6101055f8373ffffffffffffffffffffffffffffffffffffffff1673ffffffffffffffffffffffffffffffffffffffff1681526020019081526020015f205f8473ffffffffffffffffffffffffffffffffffffffff1673ffffffffffffffffffffffffffffffffffffffff1681526020019081526020015f205490505b92915050565b611f387f65d7a28e3265b37a6474929f336521b332c1681b933f6cb9f3376673440d862a82612eb0565b50565b611f475f801b82611c77565b50565b5f6101045f8373ffffffffffffffffffffffffffffffffffffffff1673ffffffffffffffffffffffffffffffffffffffff1681526020019081526020015f20549050919050565b611f99613a1c565b611fa25f613a93565b565b6101065f9054906101000a900473ffffffffffffffffffffffffffffffffffffffff1673ffffffffffffffffffffffffffffffffffffffff163373ffffffffffffffffffffffffffffffffffffffff1614612034576040517f08c379a000000000000000000000000000000000000000000000000000000000815260040161202b90615f2c565b60405180910390fd5b5f6101085f9054906101000a900473ffffffffffffffffffffffffffffffffffffffff1673ffffffffffffffffffffffffffffffffffffffff166301ba793b866040518263ffffffff1660e01b81526004016120909190615a8b565b6020604051808303815f875af11580156120ac573d5f803e3d5ffd5b505050506040513d601f19601f820116820180604052508101906120d091906164f5565b905080156120ef5783610109546120e791906160c0565b610109819055505b6120fb85858585613b91565b5050505050565b8373ffffffffffffffffffffffffffffffffffffffff168573ffffffffffffffffffffffffffffffffffffffff1603612167576040517fb9afb00000000000000000000000000000000000000000000000000000000000815260040160405180910390fd5b5f3390508573ffffffffffffffffffffffffffffffffffffffff168173ffffffffffffffffffffffffffffffffffffffff161461227e575f6101055f8873ffffffffffffffffffffffffffffffffffffffff1673ffffffffffffffffffffffffffffffffffffffff1681526020019081526020015f205f8373ffffffffffffffffffffffffffffffffffffffff1673ffffffffffffffffffffffffffffffffffffffff1681526020019081526020015f205490508085111561226657868183876040517ff3a6b69100000000000000000000000000000000000000000000000000000000815260040161225d94939291906165ae565b60405180910390fd5b61227c8783878461227791906161c8565b61376c565b505b61228b8686868686613d05565b505050505050565b6801bc16d674ec80000081565b5f60fd54905090565b6122b1613a1c565b5f34146122ea576040517ff36ba73700000000000000000000000000000000000000000000000000000000815260040160405180910390fd5b6122f48282614153565b5050565b6123227f65d7a28e3265b37a6474929f336521b332c1681b933f6cb9f3376673440d862a82611c77565b50565b61234f7f65d7a28e3265b37a6474929f336521b332c1681b933f6cb9f3376673440d862a3361270f565b61238e576040517f08c379a0000000000000000000000000000000000000000000000000000000008152600401612385906162f2565b60405180910390fd5b612396614282565b565b6101075f9054906101000a900473ffffffffffffffffffffffffffffffffffffffff1673ffffffffffffffffffffffffffffffffffffffff163373ffffffffffffffffffffffffffffffffffffffff1614612428576040517f08c379a000000000000000000000000000000000000000000000000000000000815260040161241f90615f2c565b60405180910390fd5b6101025f9054906101000a900460ff1615612478576040517f08c379a000000000000000000000000000000000000000000000000000000000815260040161246f90616661565b60405180910390fd5b6801bc16d674ec80000060ff5410156124c6576040517f08c379a00000000000000000000000000000000000000000000000000000000081526004016124bd906166ef565b60405180910390fd5b60016101025f6101000a81548160ff0219169083151502179055507ffd0a8b592d8140089b4303d8dc4f150efa7f948643fe812272749bbd4a5d5ddd6801bc16d674ec8000008060ff5461251a919061673a565b60ff5461252791906161c8565b612531919061676a565b60405161253e91906150bf565b60405180910390a1565b5f60c95f9054906101000a900473ffffffffffffffffffffffffffffffffffffffff16905090565b5f61010154821115612584575f905061270a565b5f6101035f8481526020019081526020015f206040518060800160405290815f82015f9054906101000a900473ffffffffffffffffffffffffffffffffffffffff1673ffffffffffffffffffffffffffffffffffffffff1673ffffffffffffffffffffffffffffffffffffffff168152602001600182015f9054906101000a90046fffffffffffffffffffffffffffffffff166fffffffffffffffffffffffffffffffff166fffffffffffffffffffffffffffffffff1681526020016001820160109054906101000a90046fffffffffffffffffffffffffffffffff166fffffffffffffffffffffffffffffffff166fffffffffffffffffffffffffffffffff168152602001600282015f9054906101000a900460ff16151515158152505090508060600151156126b8575f91505061270a565b61010154831480156126f6575080604001516fffffffffffffffffffffffffffffffff1681602001516fffffffffffffffffffffffffffffffff1614155b15612704575f91505061270a565b60019150505b919050565b5f60975f8481526020019081526020015f205f015f8373ffffffffffffffffffffffffffffffffffffffff1673ffffffffffffffffffffffffffffffffffffffff1681526020019081526020015f205f9054906101000a900460ff16905092915050565b61277b613a1c565b5f34146127b4576040517ff36ba73700000000000000000000000000000000000000000000000000000000815260040160405180910390fd5b80518251146127ef576040517f3bcc897900000000000000000000000000000000000000000000000000000000815260040160405180910390fd5b5f825103612829576040517f97da5f9500000000000000000000000000000000000000000000000000000000815260040160405180910390fd5b5f5b825181101561287d5761287283828151811061284a57612849615f4a565b5b602002602001015183838151811061286557612864615f4a565b5b6020026020010151614153565b80600101905061282b565b505050565b61288a614e03565b610100548211156128d0576040517f08c379a00000000000000000000000000000000000000000000000000000000081526004016128c7906167e4565b60405180910390fd5b5f6101035f8481526020019081526020015f206040518060800160405290815f82015f9054906101000a900473ffffffffffffffffffffffffffffffffffffffff1673ffffffffffffffffffffffffffffffffffffffff1673ffffffffffffffffffffffffffffffffffffffff168152602001600182015f9054906101000a90046fffffffffffffffffffffffffffffffff166fffffffffffffffffffffffffffffffff166fffffffffffffffffffffffffffffffff1681526020016001820160109054906101000a90046fffffffffffffffffffffffffffffffff166fffffffffffffffffffffffffffffffff166fffffffffffffffffffffffffffffffff168152602001600282015f9054906101000a900460ff161515151581525050905061010154831015612a3157806020015181604001906fffffffffffffffffffffffffffffffff1690816fffffffffffffffffffffffffffffffff16815250505b80915050919050565b5f801b81565b5f612a5d338484600160405180602001604052805f815250612102565b6001905092915050565b6101095481565b6101075f9054906101000a900473ffffffffffffffffffffffffffffffffffffffff1673ffffffffffffffffffffffffffffffffffffffff163373ffffffffffffffffffffffffffffffffffffffff1614612afe576040517f08c379a0000000000000000000000000000000000000000000000000000000008152600401612af590615f2c565b60405180910390fd5b6101025f9054906101000a900460ff16612b4d576040517f08c379a0000000000000000000000000000000000000000000000000000000008152600401612b4490616872565b60405180910390fd5b5f6801bc16d674ec80000082612b639190616890565b905060ff54811115612c01576101065f9054906101000a900473ffffffffffffffffffffffffffffffffffffffff1673ffffffffffffffffffffffffffffffffffffffff16631a9b374f60ff5483612bbb91906161c8565b6040518263ffffffff1660e01b81526004015f604051808303818588803b158015612be4575f80fd5b505af1158015612bf6573d5f803e3d5ffd5b505050505060ff5490505b8060ff5f828254612c1291906161c8565b925050819055508060fe5f828254612c2a91906160c0565b925050819055505f8190505f6101015490505b610100548111612e42575f6101035f8381526020019081526020015f2090508060010160109054906101000a90046fffffffffffffffffffffffffffffffff16816001015f9054906101000a90046fffffffffffffffffffffffffffffffff16612ca791906161fb565b6fffffffffffffffffffffffffffffffff16831115612d30578060010160109054906101000a90046fffffffffffffffffffffffffffffffff16816001015f9054906101000a90046fffffffffffffffffffffffffffffffff16612d0b91906161fb565b6fffffffffffffffffffffffffffffffff1683612d2891906161c8565b925050612e2f565b8060010160109054906101000a90046fffffffffffffffffffffffffffffffff16816001015f9054906101000a90046fffffffffffffffffffffffffffffffff16612d7b91906161fb565b6fffffffffffffffffffffffffffffffff1683148015612d9d57506101005482105b15612dbb57600182612daf91906160c0565b61010181905550612e29565b828160010160108282829054906101000a90046fffffffffffffffffffffffffffffffff16612dea919061623e565b92506101000a8154816fffffffffffffffffffffffffffffffff02191690836fffffffffffffffffffffffffffffffff16021790555081610101819055505b50612e42565b8080612e3a906160f3565b915050612c3d565b506801bc16d674ec80000060ff541015612e71575f6101025f6101000a81548160ff0219169083151502179055505b7eb0703bddcf30905a235a076777ec2feed729ff357d38b0744333b3f5628c748260ff54604051612ea3929190616281565b60405180910390a1505050565b612eb9826116f1565b612ec28161353a565b612ecc8383613630565b505050565b5f612edc8284611e11565b905092915050565b6060815167ffffffffffffffff811115612f0157612f0061527c565b5b604051908082528060200260200182016040528015612f3457816020015b6060815260200190600190039081612f1f5790505b5090505f5b8251811015612f8e57612f65838281518110612f5857612f57615f4a565b5b602002602001015161397b565b828281518110612f7857612f77615f4a565b5b6020026020010181905250806001019050612f39565b50919050565b7f65d7a28e3265b37a6474929f336521b332c1681b933f6cb9f3376673440d862a81565b612fc0613a1c565b5f73ffffffffffffffffffffffffffffffffffffffff168173ffffffffffffffffffffffffffffffffffffffff160361302e576040517f08c379a000000000000000000000000000000000000000000000000000000000815260040161302590616941565b60405180910390fd5b61303781613a93565b50565b5f8060019054906101000a900460ff16159050808015613069575060015f8054906101000a900460ff1660ff16105b806130955750613078306142e4565b158015613094575060015f8054906101000a900460ff1660ff16145b5b6130d4576040517f08c379a00000000000000000000000000000000000000000000000000000000081526004016130cb906169cf565b60405180910390fd5b60015f806101000a81548160ff021916908360ff160217905550801561310f5760015f60016101000a81548160ff0219169083151502179055505b5f73ffffffffffffffffffffffffffffffffffffffff168473ffffffffffffffffffffffffffffffffffffffff160361317d576040517f08c379a000000000000000000000000000000000000000000000000000000000815260040161317490616a5d565b60405180910390fd5b5f73ffffffffffffffffffffffffffffffffffffffff168373ffffffffffffffffffffffffffffffffffffffff16036131eb576040517f08c379a00000000000000000000000000000000000000000000000000000000081526004016131e290616aeb565b60405180910390fd5b5f73ffffffffffffffffffffffffffffffffffffffff168573ffffffffffffffffffffffffffffffffffffffff1603613259576040517f08c379a000000000000000000000000000000000000000000000000000000000815260040161325090616b79565b60405180910390fd5b5f73ffffffffffffffffffffffffffffffffffffffff168273ffffffffffffffffffffffffffffffffffffffff16036132c7576040517f08c379a00000000000000000000000000000000000000000000000000000000081526004016132be90616c07565b60405180910390fd5b61333c6040518060400160405280600e81526020017f5374616b65644c7978546f6b656e0000000000000000000000000000000000008152506040518060400160405280600481526020017f734c59580000000000000000000000000000000000000000000000000000000081525087614306565b6133458561441b565b836101065f6101000a81548173ffffffffffffffffffffffffffffffffffffffff021916908373ffffffffffffffffffffffffffffffffffffffff160217905550826101075f6101000a81548173ffffffffffffffffffffffffffffffffffffffff021916908373ffffffffffffffffffffffffffffffffffffffff160217905550816101085f6101000a81548173ffffffffffffffffffffffffffffffffffffffff021916908373ffffffffffffffffffffffffffffffffffffffff1602179055508015613460575f8060016101000a81548160ff0219169083151502179055507f7f26b83ff96e1f2b6a682f133852f6798a09c465da95921460cefb384740249860016040516134579190616c67565b60405180910390a15b5050505050565b61347233825f61376c565b50565b5f63629aa69460e01b7bffffffffffffffffffffffffffffffffffffffffffffffffffffffff1916827bffffffffffffffffffffffffffffffffffffffffffffffffffffffff191614806134ce57506134cd826144a2565b5b9050919050565b5f600182019050919050565b600260cb5403613526576040517f08c379a000000000000000000000000000000000000000000000000000000000815260040161351d90616cca565b60405180910390fd5b600260cb81905550565b600160cb81905550565b61354b81613546613629565b61450b565b50565b613558828261270f565b61362557600160975f8481526020019081526020015f205f015f8373ffffffffffffffffffffffffffffffffffffffff1673ffffffffffffffffffffffffffffffffffffffff1681526020019081526020015f205f6101000a81548160ff0219169083151502179055506135ca613629565b73ffffffffffffffffffffffffffffffffffffffff168173ffffffffffffffffffffffffffffffffffffffff16837f2f8788117e7eff1d82e926ec794901d17c78024a50270940304540a733656f0d60405160405180910390a45b5050565b5f33905090565b61363a828261270f565b15613707575f60975f8481526020019081526020015f205f015f8373ffffffffffffffffffffffffffffffffffffffff1673ffffffffffffffffffffffffffffffffffffffff1681526020019081526020015f205f6101000a81548160ff0219169083151502179055506136ac613629565b73ffffffffffffffffffffffffffffffffffffffff168173ffffffffffffffffffffffffffffffffffffffff16837ff6391f5c32d9c69d2a47ea670b442974b53935d1edc7fd64eb21e047a839171b60405160405180910390a45b5050565b61371361458f565b5f60335f6101000a81548160ff0219169083151502179055507f5db9ee0a495bf2e6ff9c91a7834c1ba4fdd244a5e8aa4e537bd38aeae4b073aa613755613629565b6040516137629190615a8b565b60405180910390a1565b5f73ffffffffffffffffffffffffffffffffffffffff168273ffffffffffffffffffffffffffffffffffffffff16036137d1576040517f6355e76600000000000000000000000000000000000000000000000000000000815260040160405180910390fd5b8273ffffffffffffffffffffffffffffffffffffffff168273ffffffffffffffffffffffffffffffffffffffff1603613836576040517fdab7504700000000000000000000000000000000000000000000000000000000815260040160405180910390fd5b806101055f8573ffffffffffffffffffffffffffffffffffffffff1673ffffffffffffffffffffffffffffffffffffffff1681526020019081526020015f205f8473ffffffffffffffffffffffffffffffffffffffff1673ffffffffffffffffffffffffffffffffffffffff1681526020019081526020015f20819055505f811461391b57808373ffffffffffffffffffffffffffffffffffffffff168373ffffffffffffffffffffffffffffffffffffffff167fd66aff874162a96578e919097b6f6d153dfd89a5cec41bb331fdb0c4aec16e2c60405160405180910390a4613976565b8273ffffffffffffffffffffffffffffffffffffffff168273ffffffffffffffffffffffffffffffffffffffff167f50546e66e5f44d728365dc3908c63bc5cfeeab470722c1677e3073a6ac294aa160405160405180910390a35b505050565b606060ca5f8381526020019081526020015f20805461399990616d15565b80601f01602080910402602001604051908101604052809291908181526020018280546139c590616d15565b8015613a105780601f106139e757610100808354040283529160200191613a10565b820191905f5260205f20905b8154815290600101906020018083116139f357829003601f168201915b50505050509050919050565b3373ffffffffffffffffffffffffffffffffffffffff16613a3b612548565b73ffffffffffffffffffffffffffffffffffffffff1614613a91576040517f08c379a0000000000000000000000000000000000000000000000000000000008152600401613a8890616d8f565b60405180910390fd5b565b613a9b612548565b73ffffffffffffffffffffffffffffffffffffffff168173ffffffffffffffffffffffffffffffffffffffff1614613b8e575f60c95f9054906101000a900473ffffffffffffffffffffffffffffffffffffffff1690508160c95f6101000a81548173ffffffffffffffffffffffffffffffffffffffff021916908373ffffffffffffffffffffffffffffffffffffffff1602179055508173ffffffffffffffffffffffffffffffffffffffff168173ffffffffffffffffffffffffffffffffffffffff167f8be0079c531659141344cd1fd0a4f28419497f9722a3daafe3b4186f6b6457e060405160405180910390a3505b50565b5f73ffffffffffffffffffffffffffffffffffffffff168473ffffffffffffffffffffffffffffffffffffffff1603613bf6576040517fd2d5ec3000000000000000000000000000000000000000000000000000000000815260040160405180910390fd5b5f339050613c055f86866145d8565b8360fd5f828254613c1691906160c0565b92505081905550836101045f8773ffffffffffffffffffffffffffffffffffffffff1673ffffffffffffffffffffffffffffffffffffffff1681526020019081526020015f205f828254613c6a91906160c0565b925050819055508473ffffffffffffffffffffffffffffffffffffffff165f73ffffffffffffffffffffffffffffffffffffffff168273ffffffffffffffffffffffffffffffffffffffff167f3997e418d2cef0b3b0e907b1e39605c3f7d32dbd061e82ea5b4a770d46a160a6878787604051613ce993929190616dad565b60405180910390a4613cfe5f868686866145dd565b5050505050565b6101085f9054906101000a900473ffffffffffffffffffffffffffffffffffffffff1673ffffffffffffffffffffffffffffffffffffffff1663b4c6e4166040518163ffffffff1660e01b8152600401602060405180830381865afa158015613d70573d5f803e3d5ffd5b505050506040513d601f19601f82011682018060405250810190613d949190616dfd565b4311613dd5576040517f08c379a0000000000000000000000000000000000000000000000000000000008152600401613dcc90616e98565b60405180910390fd5b5f73ffffffffffffffffffffffffffffffffffffffff168573ffffffffffffffffffffffffffffffffffffffff161480613e3a57505f73ffffffffffffffffffffffffffffffffffffffff168473ffffffffffffffffffffffffffffffffffffffff16145b15613e71576040517fd2d5ec3000000000000000000000000000000000000000000000000000000000815260040160405180910390fd5b5f6101045f8773ffffffffffffffffffffffffffffffffffffffff1673ffffffffffffffffffffffffffffffffffffffff1681526020019081526020015f2054905080841115613efc578086856040517f08d47949000000000000000000000000000000000000000000000000000000008152600401613ef393929190616eb6565b60405180910390fd5b5f806101085f9054906101000a900473ffffffffffffffffffffffffffffffffffffffff1673ffffffffffffffffffffffffffffffffffffffff16633b0c9d9089896040518363ffffffff1660e01b8152600401613f5b929190616eeb565b60408051808303815f875af1158015613f76573d5f803e3d5ffd5b505050506040513d601f19601f82011682018060405250810190613f9a9190616f12565b915091508180613fa75750805b8015613fba5750818015613fb85750805b155b15613ff8575f6101095490508215613fdf578681613fd891906161c8565b9050613fee565b8681613feb91906160c0565b90505b8061010981905550505b5f3390506140078989896145d8565b866101045f8b73ffffffffffffffffffffffffffffffffffffffff1673ffffffffffffffffffffffffffffffffffffffff1681526020019081526020015f205f82825461405491906161c8565b92505081905550866101045f8a73ffffffffffffffffffffffffffffffffffffffff1673ffffffffffffffffffffffffffffffffffffffff1681526020019081526020015f205f8282546140a891906160c0565b925050819055508773ffffffffffffffffffffffffffffffffffffffff168973ffffffffffffffffffffffffffffffffffffffff168273ffffffffffffffffffffffffffffffffffffffff167f3997e418d2cef0b3b0e907b1e39605c3f7d32dbd061e82ea5b4a770d46a160a68a8a8a60405161412793929190616dad565b60405180910390a461413b89898988614769565b61414889898989896145dd565b505050505050505050565b7fdeba1e292f8ba88238e10ab3c7f88bd4be4fac56cad5194b6ecceaf653468af15f1b82036141ae576040517f85c169bd00000000000000000000000000000000000000000000000000000000815260040160405180910390fd5b7f2f0a68ab07768e01943a599e73362a0e17a63a72e94dd2e384d2c1d4db9327565f1b8203614209576040517f76755b3800000000000000000000000000000000000000000000000000000000815260040160405180910390fd5b8060ca5f8481526020019081526020015f20908161422791906170e4565b50817fece574603820d07bc9b91f2a932baadf4628aabcb8afba49776529c14a6104b26101008351111561426757614262835f610100614851565b614269565b825b60405161427691906158b1565b60405180910390a25050565b61428a61496d565b600160335f6101000a81548160ff0219169083151502179055507f62e78cea01bee320cd4e420270b5ea74000d11b0c9f74754ebdbfc544b05a2586142cd613629565b6040516142da9190615a8b565b60405180910390a1565b5f808273ffffffffffffffffffffffffffffffffffffffff163b119050919050565b5f60019054906101000a900460ff16614354576040517f08c379a000000000000000000000000000000000000000000000000000000000815260040161434b90617223565b60405180910390fd5b61435d816149b7565b6143be7feafec4d89fa9619884b60000a4d96624a38f7ac2d8d9a604ecf07c12c77e480c5f1b6040518060400160405280600481526020017fa4d9662400000000000000000000000000000000000000000000000000000000815250614a7f565b6143ea7fdeba1e292f8ba88238e10ab3c7f88bd4be4fac56cad5194b6ecceaf653468af15f1b84614a7f565b6144167f2f0a68ab07768e01943a599e73362a0e17a63a72e94dd2e384d2c1d4db9327565f1b83614a7f565b505050565b5f60019054906101000a900460ff16614469576040517f08c379a000000000000000000000000000000000000000000000000000000000815260040161446090617223565b60405180910390fd5b6144755f801b82614ada565b61449f7f65d7a28e3265b37a6474929f336521b332c1681b933f6cb9f3376673440d862a82614ada565b50565b5f7f01ffc9a7000000000000000000000000000000000000000000000000000000007bffffffffffffffffffffffffffffffffffffffffffffffffffffffff1916827bffffffffffffffffffffffffffffffffffffffffffffffffffffffff1916149050919050565b614515828261270f565b61458b5761452281614ae8565b61452f835f1c6020614b15565b604051602001614540929190617319565b6040516020818303038152906040526040517f08c379a0000000000000000000000000000000000000000000000000000000008152600401614582919061738a565b60405180910390fd5b5050565b614597611dfc565b6145d6576040517f08c379a00000000000000000000000000000000000000000000000000000000081526004016145cd906173f4565b60405180910390fd5b565b505050565b6145ee84636bb56a1460e01b614d4a565b156146c3575f8585858460405160200161460b94939291906174b1565b60405160208183030381529060405290508473ffffffffffffffffffffffffffffffffffffffff16636bb56a147f20804611b3e2ea21c480dc465142210acf4a2485947541770ec1fb87dee4a55c5f1b836040518363ffffffff1660e01b81526004016146799291906174fa565b5f604051808303815f875af1158015614694573d5f803e3d5ffd5b505050506040513d5f823e3d601f19601f820116820180604052508101906146bc9190617596565b5050614762565b81614761575f8473ffffffffffffffffffffffffffffffffffffffff163b111561472457836040517fa608fbb600000000000000000000000000000000000000000000000000000000815260040161471b9190615a8b565b60405180910390fd5b836040517f26c247f40000000000000000000000000000000000000000000000000000000081526004016147589190615a8b565b60405180910390fd5b5b5050505050565b61477a84636bb56a1460e01b614d4a565b1561484b575f8484848460405160200161479794939291906174b1565b60405160208183030381529060405290508473ffffffffffffffffffffffffffffffffffffffff16636bb56a147f429ac7a06903dbc9c13dfcb3c9d11df8194581fa047c96d7a4171fc7402958ea5f1b836040518363ffffffff1660e01b81526004016148059291906174fa565b5f604051808303815f875af1158015614820573d5f803e3d5ffd5b505050506040513d5f823e3d601f19601f820116820180604052508101906148489190617596565b50505b50505050565b606081601f8361486191906160c0565b10156148a2576040517f08c379a000000000000000000000000000000000000000000000000000000000815260040161489990617627565b60405180910390fd5b81836148ae91906160c0565b845110156148f1576040517f08c379a00000000000000000000000000000000000000000000000000000000081526004016148e89061768f565b60405180910390fd5b606082155f81146149105760405191505f825260208201604052614961565b6040519150601f8416801560200281840101858101878315602002848b0101015b8183101561494e5780518352602083019250602081019050614931565b50868552601f19601f8301166040525050505b50809150509392505050565b614975611dfc565b156149b5576040517f08c379a00000000000000000000000000000000000000000000000000000000081526004016149ac906176f7565b60405180910390fd5b565b5f60019054906101000a900460ff16614a05576040517f08c379a00000000000000000000000000000000000000000000000000000000081526004016149fc90617223565b60405180910390fd5b5f73ffffffffffffffffffffffffffffffffffffffff168173ffffffffffffffffffffffffffffffffffffffff1603614a73576040517f08c379a0000000000000000000000000000000000000000000000000000000008152600401614a6a90616941565b60405180910390fd5b614a7c81613a93565b50565b8060ca5f8481526020019081526020015f209081614a9d91906170e4565b50817fece574603820d07bc9b91f2a932baadf4628aabcb8afba49776529c14a6104b282604051614ace91906158b1565b60405180910390a25050565b614ae4828261354e565b5050565b6060614b0e8273ffffffffffffffffffffffffffffffffffffffff16601460ff16614b15565b9050919050565b60605f6002836002614b279190616890565b614b3191906160c0565b67ffffffffffffffff811115614b4a57614b4961527c565b5b6040519080825280601f01601f191660200182016040528015614b7c5781602001600182028036833780820191505090505b5090507f3000000000000000000000000000000000000000000000000000000000000000815f81518110614bb357614bb2615f4a565b5b60200101907effffffffffffffffffffffffffffffffffffffffffffffffffffffffffffff191690815f1a9053507f780000000000000000000000000000000000000000000000000000000000000081600181518110614c1657614c15615f4a565b5b60200101907effffffffffffffffffffffffffffffffffffffffffffffffffffffffffffff191690815f1a9053505f6001846002614c549190616890565b614c5e91906160c0565b90505b6001811115614cfd577f3031323334353637383961626364656600000000000000000000000000000000600f861660108110614ca057614c9f615f4a565b5b1a60f81b828281518110614cb757614cb6615f4a565b5b60200101907effffffffffffffffffffffffffffffffffffffffffffffffffffffffffffff191690815f1a905350600485901c945080614cf690617715565b9050614c61565b505f8414614d40576040517f08c379a0000000000000000000000000000000000000000000000000000000008152600401614d3790617786565b60405180910390fd5b8091505092915050565b5f806301ffc9a760e01b83604051602401614d6591906177b3565b604051602081830303815290604052907bffffffffffffffffffffffffffffffffffffffffffffffffffffffff19166020820180517bffffffffffffffffffffffffffffffffffffffffffffffffffffffff838183161783525050505090505f805f60205f8551602087018a617530fa92503d91505f519050828015614dec575060208210155b8015614df757505f81115b94505050505092915050565b60405180608001604052805f73ffffffffffffffffffffffffffffffffffffffff1681526020015f6fffffffffffffffffffffffffffffffff1681526020015f6fffffffffffffffffffffffffffffffff1681526020015f151581525090565b5f604051905090565b5f80fd5b5f80fd5b5f7fffffffff0000000000000000000000000000000000000000000000000000000082169050919050565b614ea881614e74565b8114614eb2575f80fd5b50565b5f81359050614ec381614e9f565b92915050565b5f60208284031215614ede57614edd614e6c565b5b5f614eeb84828501614eb5565b91505092915050565b5f8115159050919050565b614f0881614ef4565b82525050565b5f602082019050614f215f830184614eff565b92915050565b5f73ffffffffffffffffffffffffffffffffffffffff82169050919050565b5f614f5082614f27565b9050919050565b614f6081614f46565b8114614f6a575f80fd5b50565b5f81359050614f7b81614f57565b92915050565b5f819050919050565b614f9381614f81565b8114614f9d575f80fd5b50565b5f81359050614fae81614f8a565b92915050565b5f8060408385031215614fca57614fc9614e6c565b5b5f614fd785828601614f6d565b9250506020614fe885828601614fa0565b9150509250929050565b5f80fd5b5f80fd5b5f80fd5b5f8083601f84011261501357615012614ff2565b5b8235905067ffffffffffffffff8111156150305761502f614ff6565b5b60208301915083602082028301111561504c5761504b614ffa565b5b9250929050565b5f805f6040848603121561506a57615069614e6c565b5b5f61507786828701614f6d565b935050602084013567ffffffffffffffff81111561509857615097614e70565b5b6150a486828701614ffe565b92509250509250925092565b6150b981614f81565b82525050565b5f6020820190506150d25f8301846150b0565b92915050565b5f602082840312156150ed576150ec614e6c565b5b5f6150fa84828501614fa0565b91505092915050565b5f6020828403121561511857615117614e6c565b5b5f61512584828501614f6d565b91505092915050565b61513781614ef4565b8114615141575f80fd5b50565b5f813590506151528161512e565b92915050565b5f806040838503121561516e5761516d614e6c565b5b5f61517b85828601614f6d565b925050602061518c85828601615144565b9150509250929050565b5f805f606084860312156151ad576151ac614e6c565b5b5f6151ba86828701614f6d565b93505060206151cb86828701614f6d565b92505060406151dc86828701614fa0565b9150509250925092565b5f819050919050565b6151f8816151e6565b8114615202575f80fd5b50565b5f81359050615213816151ef565b92915050565b5f6020828403121561522e5761522d614e6c565b5b5f61523b84828501615205565b91505092915050565b61524d816151e6565b82525050565b5f6020820190506152665f830184615244565b92915050565b5f601f19601f8301169050919050565b7f4e487b71000000000000000000000000000000000000000000000000000000005f52604160045260245ffd5b6152b28261526c565b810181811067ffffffffffffffff821117156152d1576152d061527c565b5b80604052505050565b5f6152e3614e63565b90506152ef82826152a9565b919050565b5f67ffffffffffffffff82111561530e5761530d61527c565b5b602082029050602081019050919050565b5f61533161532c846152f4565b6152da565b9050808382526020820190506020840283018581111561535457615353614ffa565b5b835b8181101561537d57806153698882614f6d565b845260208401935050602081019050615356565b5050509392505050565b5f82601f83011261539b5761539a614ff2565b5b81356153ab84826020860161531f565b91505092915050565b5f67ffffffffffffffff8211156153ce576153cd61527c565b5b602082029050602081019050919050565b5f6153f16153ec846153b4565b6152da565b9050808382526020820190506020840283018581111561541457615413614ffa565b5b835b8181101561543d57806154298882614fa0565b845260208401935050602081019050615416565b5050509392505050565b5f82601f83011261545b5761545a614ff2565b5b813561546b8482602086016153df565b91505092915050565b5f67ffffffffffffffff82111561548e5761548d61527c565b5b602082029050602081019050919050565b5f6154b16154ac84615474565b6152da565b905080838252602082019050602084028301858111156154d4576154d3614ffa565b5b835b818110156154fd57806154e98882615144565b8452602084019350506020810190506154d6565b5050509392505050565b5f82601f83011261551b5761551a614ff2565b5b813561552b84826020860161549f565b91505092915050565b5f67ffffffffffffffff82111561554e5761554d61527c565b5b602082029050602081019050919050565b5f80fd5b5f67ffffffffffffffff82111561557d5761557c61527c565b5b6155868261526c565b9050602081019050919050565b828183375f83830152505050565b5f6155b36155ae84615563565b6152da565b9050828152602081018484840111156155cf576155ce61555f565b5b6155da848285615593565b509392505050565b5f82601f8301126155f6576155f5614ff2565b5b81356156068482602086016155a1565b91505092915050565b5f61562161561c84615534565b6152da565b9050808382526020820190506020840283018581111561564457615643614ffa565b5b835b8181101561568b57803567ffffffffffffffff81111561566957615668614ff2565b5b80860161567689826155e2565b85526020850194505050602081019050615646565b5050509392505050565b5f82601f8301126156a9576156a8614ff2565b5b81356156b984826020860161560f565b91505092915050565b5f805f805f60a086880312156156db576156da614e6c565b5b5f86013567ffffffffffffffff8111156156f8576156f7614e70565b5b61570488828901615387565b955050602086013567ffffffffffffffff81111561572557615724614e70565b5b61573188828901615387565b945050604086013567ffffffffffffffff81111561575257615751614e70565b5b61575e88828901615447565b935050606086013567ffffffffffffffff81111561577f5761577e614e70565b5b61578b88828901615507565b925050608086013567ffffffffffffffff8111156157ac576157ab614e70565b5b6157b888828901615695565b9150509295509295909350565b5f80604083850312156157db576157da614e6c565b5b5f6157e885828601615205565b92505060206157f985828601614f6d565b9150509250929050565b5f60ff82169050919050565b61581881615803565b82525050565b5f6020820190506158315f83018461580f565b92915050565b5f81519050919050565b5f82825260208201905092915050565b5f5b8381101561586e578082015181840152602081019050615853565b5f8484015250505050565b5f61588382615837565b61588d8185615841565b935061589d818560208601615851565b6158a68161526c565b840191505092915050565b5f6020820190508181035f8301526158c98184615879565b905092915050565b5f80604083850312156158e7576158e6614e6c565b5b5f6158f485828601614f6d565b925050602061590585828601614f6d565b9150509250929050565b5f805f806080858703121561592757615926614e6c565b5b5f61593487828801614f6d565b945050602061594587828801614fa0565b935050604061595687828801615144565b925050606085013567ffffffffffffffff81111561597757615976614e70565b5b615983878288016155e2565b91505092959194509250565b5f805f805f60a086880312156159a8576159a7614e6c565b5b5f6159b588828901614f6d565b95505060206159c688828901614f6d565b94505060406159d788828901614fa0565b93505060606159e888828901615144565b925050608086013567ffffffffffffffff811115615a0957615a08614e70565b5b615a15888289016155e2565b9150509295509295909350565b5f8060408385031215615a3857615a37614e6c565b5b5f615a4585828601615205565b925050602083013567ffffffffffffffff811115615a6657615a65614e70565b5b615a72858286016155e2565b9150509250929050565b615a8581614f46565b82525050565b5f602082019050615a9e5f830184615a7c565b92915050565b5f67ffffffffffffffff821115615abe57615abd61527c565b5b602082029050602081019050919050565b5f615ae1615adc84615aa4565b6152da565b90508083825260208201905060208402830185811115615b0457615b03614ffa565b5b835b81811015615b2d5780615b198882615205565b845260208401935050602081019050615b06565b5050509392505050565b5f82601f830112615b4b57615b4a614ff2565b5b8135615b5b848260208601615acf565b91505092915050565b5f8060408385031215615b7a57615b79614e6c565b5b5f83013567ffffffffffffffff811115615b9757615b96614e70565b5b615ba385828601615b37565b925050602083013567ffffffffffffffff811115615bc457615bc3614e70565b5b615bd085828601615695565b9150509250929050565b615be381614f46565b82525050565b5f6fffffffffffffffffffffffffffffffff82169050919050565b615c0d81615be9565b82525050565b615c1c81614ef4565b82525050565b608082015f820151615c365f850182615bda565b506020820151615c496020850182615c04565b506040820151615c5c6040850182615c04565b506060820151615c6f6060850182615c13565b50505050565b5f608082019050615c885f830184615c22565b92915050565b5f60208284031215615ca357615ca2614e6c565b5b5f82013567ffffffffffffffff811115615cc057615cbf614e70565b5b615ccc84828501615b37565b91505092915050565b5f81519050919050565b5f82825260208201905092915050565b5f819050602082019050919050565b5f82825260208201905092915050565b5f615d1882615837565b615d228185615cfe565b9350615d32818560208601615851565b615d3b8161526c565b840191505092915050565b5f615d518383615d0e565b905092915050565b5f602082019050919050565b5f615d6f82615cd5565b615d798185615cdf565b935083602082028501615d8b85615cef565b805f5b85811015615dc65784840389528151615da78582615d46565b9450615db283615d59565b925060208a01995050600181019050615d8e565b50829750879550505050505092915050565b5f6020820190508181035f830152615df08184615d65565b905092915050565b5f615e0282614f46565b9050919050565b615e1281615df8565b8114615e1c575f80fd5b50565b5f81359050615e2d81615e09565b92915050565b5f615e3d82614f46565b9050919050565b615e4d81615e33565b8114615e57575f80fd5b50565b5f81359050615e6881615e44565b92915050565b5f805f8060808587031215615e8657615e85614e6c565b5b5f615e9387828801614f6d565b9450506020615ea487828801615e1f565b9350506040615eb587828801614f6d565b9250506060615ec687828801615e5a565b91505092959194509250565b5f82825260208201905092915050565b7f5374616b65644c7978546f6b656e3a206163636573732064656e6965640000005f82015250565b5f615f16601d83615ed2565b9150615f2182615ee2565b602082019050919050565b5f6020820190508181035f830152615f4381615f0a565b9050919050565b7f4e487b71000000000000000000000000000000000000000000000000000000005f52603260045260245ffd5b7f5374616b65644c7978546f6b656e3a20756e7374616b652072657175657374205f8201527f6e6f7420636c61696d61626c6500000000000000000000000000000000000000602082015250565b5f615fd1602d83615ed2565b9150615fdc82615f77565b604082019050919050565b5f6020820190508181035f830152615ffe81615fc5565b9050919050565b7f5374616b65644c7978546f6b656e3a20756e7374616b652072657175657374205f8201527f6e6f742066726f6d2074686973206163636f756e740000000000000000000000602082015250565b5f61605f603583615ed2565b915061606a82616005565b604082019050919050565b5f6020820190508181035f83015261608c81616053565b9050919050565b7f4e487b71000000000000000000000000000000000000000000000000000000005f52601160045260245ffd5b5f6160ca82614f81565b91506160d583614f81565b92508282019050808211156160ed576160ec616093565b5b92915050565b5f6160fd82614f81565b91507fffffffffffffffffffffffffffffffffffffffffffffffffffffffffffffffff820361612f5761612e616093565b5b600182019050919050565b7f5374616b65644c7978546f6b656e3a20756e7374616b696e6720696e2070726f5f8201527f6772657373000000000000000000000000000000000000000000000000000000602082015250565b5f616194602583615ed2565b915061619f8261613a565b604082019050919050565b5f6020820190508181035f8301526161c181616188565b9050919050565b5f6161d282614f81565b91506161dd83614f81565b92508282039050818111156161f5576161f4616093565b5b92915050565b5f61620582615be9565b915061621083615be9565b925082820390506fffffffffffffffffffffffffffffffff81111561623857616237616093565b5b92915050565b5f61624882615be9565b915061625383615be9565b925082820190506fffffffffffffffffffffffffffffffff81111561627b5761627a616093565b5b92915050565b5f6040820190506162945f8301856150b0565b6162a160208301846150b0565b9392505050565b7f4f776e61626c655061757361626c653a206163636573732064656e69656400005f82015250565b5f6162dc601e83615ed2565b91506162e7826162a8565b602082019050919050565b5f6020820190508181035f830152616309816162d0565b9050919050565b7f5374616b65644c7978546f6b656e3a20696e76616c696420746f6b656e4f776e5f8201527f6572000000000000000000000000000000000000000000000000000000000000602082015250565b5f61636a602283615ed2565b915061637582616310565b604082019050919050565b5f6020820190508181035f8301526163978161635e565b9050919050565b5f6040820190506163b15f830185615a7c565b6163be6020830184614eff565b9392505050565b7f5374616b65644c7978546f6b656e3a20616d6f756e74206d75737420626520675f8201527f726561746572207468616e207a65726f00000000000000000000000000000000602082015250565b5f61641f603083615ed2565b915061642a826163c5565b604082019050919050565b5f6020820190508181035f83015261644c81616413565b9050919050565b7f5374616b65644c7978546f6b656e3a20696e73756666696369656e742062616c5f8201527f616e636500000000000000000000000000000000000000000000000000000000602082015250565b5f6164ad602483615ed2565b91506164b882616453565b604082019050919050565b5f6020820190508181035f8301526164da816164a1565b9050919050565b5f815190506164ef8161512e565b92915050565b5f6020828403121561650a57616509614e6c565b5b5f616517848285016164e1565b91505092915050565b7f416363657373436f6e74726f6c3a2063616e206f6e6c792072656e6f756e63655f8201527f20726f6c657320666f722073656c660000000000000000000000000000000000602082015250565b5f61657a602f83615ed2565b915061658582616520565b604082019050919050565b5f6020820190508181035f8301526165a78161656e565b9050919050565b5f6080820190506165c15f830187615a7c565b6165ce60208301866150b0565b6165db6040830185615a7c565b6165e860608301846150b0565b95945050505050565b7f5374616b65644c7978546f6b656e3a20756e7374616b696e6720616c726561645f8201527f7920696e2070726f677265737300000000000000000000000000000000000000602082015250565b5f61664b602d83615ed2565b9150616656826165f1565b604082019050919050565b5f6020820190508181035f8301526166788161663f565b9050919050565b7f5374616b65644c7978546f6b656e3a20696e73756666696369656e742070656e5f8201527f64696e6720756e7374616b650000000000000000000000000000000000000000602082015250565b5f6166d9602c83615ed2565b91506166e48261667f565b604082019050919050565b5f6020820190508181035f830152616706816166cd565b9050919050565b7f4e487b71000000000000000000000000000000000000000000000000000000005f52601260045260245ffd5b5f61674482614f81565b915061674f83614f81565b92508261675f5761675e61670d565b5b828206905092915050565b5f61677482614f81565b915061677f83614f81565b92508261678f5761678e61670d565b5b828204905092915050565b7f5374616b65644c7978546f6b656e3a20696e76616c696420696e6465780000005f82015250565b5f6167ce601d83615ed2565b91506167d98261679a565b602082019050919050565b5f6020820190508181035f8301526167fb816167c2565b9050919050565b7f5374616b65644c7978546f6b656e3a20756e7374616b696e67206e6f7420696e5f8201527f2070726f63657373000000000000000000000000000000000000000000000000602082015250565b5f61685c602883615ed2565b915061686782616802565b604082019050919050565b5f6020820190508181035f83015261688981616850565b9050919050565b5f61689a82614f81565b91506168a583614f81565b92508282026168b381614f81565b915082820484148315176168ca576168c9616093565b5b5092915050565b7f4f776e61626c653a206e6577206f776e657220697320746865207a65726f20615f8201527f6464726573730000000000000000000000000000000000000000000000000000602082015250565b5f61692b602683615ed2565b9150616936826168d1565b604082019050919050565b5f6020820190508181035f8301526169588161691f565b9050919050565b7f496e697469616c697a61626c653a20636f6e747261637420697320616c7265615f8201527f647920696e697469616c697a6564000000000000000000000000000000000000602082015250565b5f6169b9602e83615ed2565b91506169c48261695f565b604082019050919050565b5f6020820190508181035f8301526169e6816169ad565b9050919050565b7f5374616b65644c7978546f6b656e3a20706f6f6c20616464726573732063616e5f8201527f6e6f74206265207a65726f000000000000000000000000000000000000000000602082015250565b5f616a47602b83615ed2565b9150616a52826169ed565b604082019050919050565b5f6020820190508181035f830152616a7481616a3b565b9050919050565b7f5374616b65644c7978546f6b656e3a206f7261636c65732061646472657373205f8201527f63616e6e6f74206265207a65726f000000000000000000000000000000000000602082015250565b5f616ad5602e83615ed2565b9150616ae082616a7b565b604082019050919050565b5f6020820190508181035f830152616b0281616ac9565b9050919050565b7f5374616b65644c7978546f6b656e3a2061646d696e20616464726573732063615f8201527f6e6e6f74206265207a65726f0000000000000000000000000000000000000000602082015250565b5f616b63602c83615ed2565b9150616b6e82616b09565b604082019050919050565b5f6020820190508181035f830152616b9081616b57565b9050919050565b7f5374616b65644c7978546f6b656e3a20726577617264732061646472657373205f8201527f63616e6e6f74206265207a65726f000000000000000000000000000000000000602082015250565b5f616bf1602e83615ed2565b9150616bfc82616b97565b604082019050919050565b5f6020820190508181035f830152616c1e81616be5565b9050919050565b5f819050919050565b5f819050919050565b5f616c51616c4c616c4784616c25565b616c2e565b615803565b9050919050565b616c6181616c37565b82525050565b5f602082019050616c7a5f830184616c58565b92915050565b7f5265656e7472616e637947756172643a207265656e7472616e742063616c6c005f82015250565b5f616cb4601f83615ed2565b9150616cbf82616c80565b602082019050919050565b5f6020820190508181035f830152616ce181616ca8565b9050919050565b7f4e487b71000000000000000000000000000000000000000000000000000000005f52602260045260245ffd5b5f6002820490506001821680616d2c57607f821691505b602082108103616d3f57616d3e616ce8565b5b50919050565b7f4f776e61626c653a2063616c6c6572206973206e6f7420746865206f776e65725f82015250565b5f616d79602083615ed2565b9150616d8482616d45565b602082019050919050565b5f6020820190508181035f830152616da681616d6d565b9050919050565b5f606082019050616dc05f8301866150b0565b616dcd6020830185614eff565b8181036040830152616ddf8184615879565b9050949350505050565b5f81519050616df781614f8a565b92915050565b5f60208284031215616e1257616e11614e6c565b5b5f616e1f84828501616de9565b91505092915050565b7f5374616b65644c7978546f6b656e3a2063616e6e6f74207472616e73666572205f8201527f647572696e672072657761726473207570646174650000000000000000000000602082015250565b5f616e82603583615ed2565b9150616e8d82616e28565b604082019050919050565b5f6020820190508181035f830152616eaf81616e76565b9050919050565b5f606082019050616ec95f8301866150b0565b616ed66020830185615a7c565b616ee360408301846150b0565b949350505050565b5f604082019050616efe5f830185615a7c565b616f0b6020830184615a7c565b9392505050565b5f8060408385031215616f2857616f27614e6c565b5b5f616f35858286016164e1565b9250506020616f46858286016164e1565b9150509250929050565b5f819050815f5260205f209050919050565b5f6020601f8301049050919050565b5f82821b905092915050565b5f60088302616fac7fffffffffffffffffffffffffffffffffffffffffffffffffffffffffffffffff82616f71565b616fb68683616f71565b95508019841693508086168417925050509392505050565b5f616fe8616fe3616fde84614f81565b616c2e565b614f81565b9050919050565b5f819050919050565b61700183616fce565b61701561700d82616fef565b848454616f7d565b825550505050565b5f90565b61702961701d565b617034818484616ff8565b505050565b5b818110156170575761704c5f82617021565b60018101905061703a565b5050565b601f82111561709c5761706d81616f50565b61707684616f62565b81016020851015617085578190505b61709961709185616f62565b830182617039565b50505b505050565b5f82821c905092915050565b5f6170bc5f19846008026170a1565b1980831691505092915050565b5f6170d483836170ad565b9150826002028217905092915050565b6170ed82615837565b67ffffffffffffffff8111156171065761710561527c565b5b6171108254616d15565b61711b82828561705b565b5f60209050601f83116001811461714c575f841561713a578287015190505b61714485826170c9565b8655506171ab565b601f19841661715a86616f50565b5f5b828110156171815784890151825560018201915060208501945060208101905061715c565b8683101561719e578489015161719a601f8916826170ad565b8355505b6001600288020188555050505b505050505050565b7f496e697469616c697a61626c653a20636f6e7472616374206973206e6f7420695f8201527f6e697469616c697a696e67000000000000000000000000000000000000000000602082015250565b5f61720d602b83615ed2565b9150617218826171b3565b604082019050919050565b5f6020820190508181035f83015261723a81617201565b9050919050565b5f81905092915050565b7f416363657373436f6e74726f6c3a206163636f756e74200000000000000000005f82015250565b5f61727f601783617241565b915061728a8261724b565b601782019050919050565b5f81519050919050565b5f6172a982617295565b6172b38185617241565b93506172c3818560208601615851565b80840191505092915050565b7f206973206d697373696e6720726f6c65200000000000000000000000000000005f82015250565b5f617303601183617241565b915061730e826172cf565b601182019050919050565b5f61732382617273565b915061732f828561729f565b915061733a826172f7565b9150617346828461729f565b91508190509392505050565b5f61735c82617295565b6173668185615ed2565b9350617376818560208601615851565b61737f8161526c565b840191505092915050565b5f6020820190508181035f8301526173a28184617352565b905092915050565b7f5061757361626c653a206e6f74207061757365640000000000000000000000005f82015250565b5f6173de601483615ed2565b91506173e9826173aa565b602082019050919050565b5f6020820190508181035f83015261740b816173d2565b9050919050565b5f8160601b9050919050565b5f61742882617412565b9050919050565b5f6174398261741e565b9050919050565b61745161744c82614f46565b61742f565b82525050565b5f819050919050565b61747161746c82614f81565b617457565b82525050565b5f81905092915050565b5f61748b82615837565b6174958185617477565b93506174a5818560208601615851565b80840191505092915050565b5f6174bc8287617440565b6014820191506174cc8286617440565b6014820191506174dc8285617460565b6020820191506174ec8284617481565b915081905095945050505050565b5f60408201905061750d5f830185615244565b818103602083015261751f8184615879565b90509392505050565b5f61753a61753584615563565b6152da565b9050828152602081018484840111156175565761755561555f565b5b617561848285615851565b509392505050565b5f82601f83011261757d5761757c614ff2565b5b815161758d848260208601617528565b91505092915050565b5f602082840312156175ab576175aa614e6c565b5b5f82015167ffffffffffffffff8111156175c8576175c7614e70565b5b6175d484828501617569565b91505092915050565b7f736c6963655f6f766572666c6f770000000000000000000000000000000000005f82015250565b5f617611600e83615ed2565b915061761c826175dd565b602082019050919050565b5f6020820190508181035f83015261763e81617605565b9050919050565b7f736c6963655f6f75744f66426f756e64730000000000000000000000000000005f82015250565b5f617679601183615ed2565b915061768482617645565b602082019050919050565b5f6020820190508181035f8301526176a68161766d565b9050919050565b7f5061757361626c653a20706175736564000000000000000000000000000000005f82015250565b5f6176e1601083615ed2565b91506176ec826176ad565b602082019050919050565b5f6020820190508181035f83015261770e816176d5565b9050919050565b5f61771f82614f81565b91505f820361773157617730616093565b5b600182039050919050565b7f537472696e67733a20686578206c656e67746820696e73756666696369656e745f82015250565b5f617770602083615ed2565b915061777b8261773c565b602082019050919050565b5f6020820190508181035f83015261779d81617764565b9050919050565b6177ad81614e74565b82525050565b5f6020820190506177c65f8301846177a4565b9291505056fea26469706673582212206a3b1bc5220cdaddd96a83057950fcda0a50844fe2e6f89983b455cb8e62e85a64736f6c63430008140033",
  "linkReferences": {},
  "deployedLinkReferences": {}
}