{
  "_format": "hh-sol-artifact-1",
  "contractName": "LSP0ERC725Account",
  "sourceName": "contracts/LSP0ERC725Account/LSP0ERC725Account.sol",
  "abi": [
    {
      "inputs": [
        {
          "internalType": "address",
          "name": "newOwner",
          "type": "address"
        }
      ],
      "stateMutability": "payable",
      "type": "constructor"
    },
    {
      "inputs": [],
      "name": "CannotTransferOwnershipToSelf",
      "type": "error"
    },
    {
      "inputs": [],
      "name": "ERC725X_ContractDeploymentFailed",
      "type": "error"
    },
    {
      "inputs": [],
      "name": "ERC725X_CreateOperationsRequireEmptyRecipientAddress",
      "type": "error"
    },
    {
      "inputs": [],
      "name": "ERC725X_ExecuteParametersEmptyArray",
      "type": "error"
    },
    {
      "inputs": [],
      "name": "ERC725X_ExecuteParametersLengthMismatch",
      "type": "error"
    },
    {
      "inputs": [
        {
          "internalType": "uint256",
          "name": "balance",
          "type": "uint256"
        },
        {
          "internalType": "uint256",
          "name": "value",
          "type": "uint256"
        }
      ],
      "name": "ERC725X_InsufficientBalance",
      "type": "error"
    },
    {
      "inputs": [],
      "name": "ERC725X_MsgValueDisallowedInDelegateCall",
      "type": "error"
    },
    {
      "inputs": [],
      "name": "ERC725X_MsgValueDisallowedInStaticCall",
      "type": "error"
    },
    {
      "inputs": [],
      "name": "ERC725X_NoContractBytecodeProvided",
      "type": "error"
    },
    {
      "inputs": [
        {
          "internalType": "uint256",
          "name": "operationTypeProvided",
          "type": "uint256"
        }
      ],
      "name": "ERC725X_UnknownOperationType",
      "type": "error"
    },
    {
      "inputs": [],
      "name": "ERC725Y_DataKeysValuesLengthMismatch",
      "type": "error"
    },
    {
      "inputs": [
        {
          "internalType": "bool",
          "name": "postCall",
          "type": "bool"
        }
      ],
      "name": "LSP20CallingVerifierFailed",
      "type": "error"
    },
    {
      "inputs": [
        {
          "internalType": "bool",
          "name": "postCall",
          "type": "bool"
        },
        {
          "internalType": "bytes",
          "name": "returnedData",
          "type": "bytes"
        }
      ],
      "name": "LSP20InvalidMagicValue",
      "type": "error"
    },
    {
      "inputs": [
        {
          "internalType": "bytes4",
          "name": "functionSelector",
          "type": "bytes4"
        }
      ],
      "name": "NoExtensionFoundForFunctionSelector",
      "type": "error"
    },
    {
      "inputs": [
        {
          "internalType": "uint256",
          "name": "renounceOwnershipStart",
          "type": "uint256"
        },
        {
          "internalType": "uint256",
          "name": "renounceOwnershipEnd",
          "type": "uint256"
        }
      ],
      "name": "NotInRenounceOwnershipInterval",
      "type": "error"
    },
    {
      "anonymous": false,
      "inputs": [
        {
          "indexed": true,
          "internalType": "uint256",
          "name": "operationType",
          "type": "uint256"
        },
        {
          "indexed": true,
          "internalType": "address",
          "name": "contractAddress",
          "type": "address"
        },
        {
          "indexed": true,
          "internalType": "uint256",
          "name": "value",
          "type": "uint256"
        },
        {
          "indexed": false,
          "internalType": "bytes32",
          "name": "salt",
          "type": "bytes32"
        }
      ],
      "name": "ContractCreated",
      "type": "event"
    },
    {
      "anonymous": false,
      "inputs": [
        {
          "indexed": true,
          "internalType": "bytes32",
          "name": "dataKey",
          "type": "bytes32"
        },
        {
          "indexed": false,
          "internalType": "bytes",
          "name": "dataValue",
          "type": "bytes"
        }
      ],
      "name": "DataChanged",
      "type": "event"
    },
    {
      "anonymous": false,
      "inputs": [
        {
          "indexed": true,
          "internalType": "uint256",
          "name": "operationType",
          "type": "uint256"
        },
        {
          "indexed": true,
          "internalType": "address",
          "name": "target",
          "type": "address"
        },
        {
          "indexed": true,
          "internalType": "uint256",
          "name": "value",
          "type": "uint256"
        },
        {
          "indexed": false,
          "internalType": "bytes4",
          "name": "selector",
          "type": "bytes4"
        }
      ],
      "name": "Executed",
      "type": "event"
    },
    {
      "anonymous": false,
      "inputs": [],
      "name": "OwnershipRenounced",
      "type": "event"
    },
    {
      "anonymous": false,
      "inputs": [
        {
          "indexed": true,
          "internalType": "address",
          "name": "previousOwner",
          "type": "address"
        },
        {
          "indexed": true,
          "internalType": "address",
          "name": "newOwner",
          "type": "address"
        }
      ],
      "name": "OwnershipTransferStarted",
      "type": "event"
    },
    {
      "anonymous": false,
      "inputs": [
        {
          "indexed": true,
          "internalType": "address",
          "name": "previousOwner",
          "type": "address"
        },
        {
          "indexed": true,
          "internalType": "address",
          "name": "newOwner",
          "type": "address"
        }
      ],
      "name": "OwnershipTransferred",
      "type": "event"
    },
    {
      "anonymous": false,
      "inputs": [],
      "name": "RenounceOwnershipStarted",
      "type": "event"
    },
    {
      "anonymous": false,
      "inputs": [
        {
          "indexed": true,
          "internalType": "address",
          "name": "from",
          "type": "address"
        },
        {
          "indexed": true,
          "internalType": "uint256",
          "name": "value",
          "type": "uint256"
        },
        {
          "indexed": true,
          "internalType": "bytes32",
          "name": "typeId",
          "type": "bytes32"
        },
        {
          "indexed": false,
          "internalType": "bytes",
          "name": "receivedData",
          "type": "bytes"
        },
        {
          "indexed": false,
          "internalType": "bytes",
          "name": "returnedValue",
          "type": "bytes"
        }
      ],
      "name": "UniversalReceiver",
      "type": "event"
    },
    {
      "anonymous": false,
      "inputs": [
        {
          "indexed": true,
          "internalType": "address",
          "name": "sender",
          "type": "address"
        },
        {
          "indexed": true,
          "internalType": "uint256",
          "name": "value",
          "type": "uint256"
        }
      ],
      "name": "ValueReceived",
      "type": "event"
    },
    {
      "stateMutability": "payable",
      "type": "fallback"
    },
    {
      "inputs": [],
      "name": "RENOUNCE_OWNERSHIP_CONFIRMATION_DELAY",
      "outputs": [
        {
          "internalType": "uint256",
          "name": "",
          "type": "uint256"
        }
      ],
      "stateMutability": "view",
      "type": "function"
    },
    {
      "inputs": [],
      "name": "RENOUNCE_OWNERSHIP_CONFIRMATION_PERIOD",
      "outputs": [
        {
          "internalType": "uint256",
          "name": "",
          "type": "uint256"
        }
      ],
      "stateMutability": "view",
      "type": "function"
    },
    {
      "inputs": [],
      "name": "acceptOwnership",
      "outputs": [],
      "stateMutability": "nonpayable",
      "type": "function"
    },
    {
      "inputs": [
        {
          "internalType": "bytes[]",
          "name": "data",
          "type": "bytes[]"
        }
      ],
      "name": "batchCalls",
      "outputs": [
        {
          "internalType": "bytes[]",
          "name": "results",
          "type": "bytes[]"
        }
      ],
      "stateMutability": "nonpayable",
      "type": "function"
    },
    {
      "inputs": [
        {
          "internalType": "uint256",
          "name": "operationType",
          "type": "uint256"
        },
        {
          "internalType": "address",
          "name": "target",
          "type": "address"
        },
        {
          "internalType": "uint256",
          "name": "value",
          "type": "uint256"
        },
        {
          "internalType": "bytes",
          "name": "data",
          "type": "bytes"
        }
      ],
      "name": "execute",
      "outputs": [
        {
          "internalType": "bytes",
          "name": "",
          "type": "bytes"
        }
      ],
      "stateMutability": "payable",
      "type": "function"
    },
    {
      "inputs": [
        {
          "internalType": "uint256[]",
          "name": "operationsType",
          "type": "uint256[]"
        },
        {
          "internalType": "address[]",
          "name": "targets",
          "type": "address[]"
        },
        {
          "internalType": "uint256[]",
          "name": "values",
          "type": "uint256[]"
        },
        {
          "internalType": "bytes[]",
          "name": "datas",
          "type": "bytes[]"
        }
      ],
      "name": "executeBatch",
      "outputs": [
        {
          "internalType": "bytes[]",
          "name": "",
          "type": "bytes[]"
        }
      ],
      "stateMutability": "payable",
      "type": "function"
    },
    {
      "inputs": [
        {
          "internalType": "bytes32",
          "name": "dataKey",
          "type": "bytes32"
        }
      ],
      "name": "getData",
      "outputs": [
        {
          "internalType": "bytes",
          "name": "dataValue",
          "type": "bytes"
        }
      ],
      "stateMutability": "view",
      "type": "function"
    },
    {
      "inputs": [
        {
          "internalType": "bytes32[]",
          "name": "dataKeys",
          "type": "bytes32[]"
        }
      ],
      "name": "getDataBatch",
      "outputs": [
        {
          "internalType": "bytes[]",
          "name": "dataValues",
          "type": "bytes[]"
        }
      ],
      "stateMutability": "view",
      "type": "function"
    },
    {
      "inputs": [
        {
          "internalType": "bytes32",
          "name": "dataHash",
          "type": "bytes32"
        },
        {
          "internalType": "bytes",
          "name": "signature",
          "type": "bytes"
        }
      ],
      "name": "isValidSignature",
      "outputs": [
        {
          "internalType": "bytes4",
          "name": "magicValue",
          "type": "bytes4"
        }
      ],
      "stateMutability": "view",
      "type": "function"
    },
    {
      "inputs": [],
      "name": "owner",
      "outputs": [
        {
          "internalType": "address",
          "name": "",
          "type": "address"
        }
      ],
      "stateMutability": "view",
      "type": "function"
    },
    {
      "inputs": [],
      "name": "pendingOwner",
      "outputs": [
        {
          "internalType": "address",
          "name": "",
          "type": "address"
        }
      ],
      "stateMutability": "view",
      "type": "function"
    },
    {
      "inputs": [],
      "name": "renounceOwnership",
      "outputs": [],
      "stateMutability": "nonpayable",
      "type": "function"
    },
    {
      "inputs": [
        {
          "internalType": "bytes32",
          "name": "dataKey",
          "type": "bytes32"
        },
        {
          "internalType": "bytes",
          "name": "dataValue",
          "type": "bytes"
        }
      ],
      "name": "setData",
      "outputs": [],
      "stateMutability": "payable",
      "type": "function"
    },
    {
      "inputs": [
        {
          "internalType": "bytes32[]",
          "name": "dataKeys",
          "type": "bytes32[]"
        },
        {
          "internalType": "bytes[]",
          "name": "dataValues",
          "type": "bytes[]"
        }
      ],
      "name": "setDataBatch",
      "outputs": [],
      "stateMutability": "payable",
      "type": "function"
    },
    {
      "inputs": [
        {
          "internalType": "bytes4",
          "name": "interfaceId",
          "type": "bytes4"
        }
      ],
      "name": "supportsInterface",
      "outputs": [
        {
          "internalType": "bool",
          "name": "",
          "type": "bool"
        }
      ],
      "stateMutability": "view",
      "type": "function"
    },
    {
      "inputs": [
        {
          "internalType": "address",
          "name": "_pendingOwner",
          "type": "address"
        }
      ],
      "name": "transferOwnership",
      "outputs": [],
      "stateMutability": "nonpayable",
      "type": "function"
    },
    {
      "inputs": [
        {
          "internalType": "bytes32",
          "name": "typeId",
          "type": "bytes32"
        },
        {
          "internalType": "bytes",
          "name": "receivedData",
          "type": "bytes"
        }
      ],
      "name": "universalReceiver",
      "outputs": [
        {
          "internalType": "bytes",
          "name": "returnedValues",
          "type": "bytes"
        }
      ],
      "stateMutability": "payable",
      "type": "function"
    },
    {
      "stateMutability": "payable",
      "type": "receive"
    }
  ],
  "bytecode": "0x608060405260405162003474380380620034748339810160408190526200002691620000df565b34156200005b57604051349033907f7e71433ddf847725166244795048ecf3e3f9f35628254ecbf73605666423349390600090a35b62000071816200007860201b6200112e1760201c565b5062000111565b6000546001600160a01b03828116911614620000dc57600080546001600160a01b038381166001600160a01b0319831681178455604051919092169283917f8be0079c531659141344cd1fd0a4f28419497f9722a3daafe3b4186f6b6457e09190a3505b50565b600060208284031215620000f257600080fd5b81516001600160a01b03811681146200010a57600080fd5b9392505050565b61335380620001216000396000f3fe6080604052600436106101125760003560e01c8063715018a6116100a55780639790242111610074578063e30c397811610059578063e30c39781461035a578063ead3fbdf14610194578063f2fde38b146103785761014d565b80639790242114610327578063dedff9c61461033a5761014d565b8063715018a6146102b857806379ba5097146102cd5780637f23690c146102e25780638da5cb5b146102f55761014d565b806344c028fe116100e157806344c028fe1461024557806354f6127f146102655780636963d438146102855780636bb56a14146102a55761014d565b806301bfba611461019457806301ffc9a7146101bc5780631626ba7e146101ec57806331858452146102255761014d565b3661014d57341561014b57604051349033907f7e71433ddf847725166244795048ecf3e3f9f35628254ecbf73605666423349390600090a35b005b341561018157604051349033907f7e71433ddf847725166244795048ecf3e3f9f35628254ecbf73605666423349390600090a35b600436101561018c57005b61014b610398565b3480156101a057600080fd5b506101a960c881565b6040519081526020015b60405180910390f35b3480156101c857600080fd5b506101dc6101d7366004612835565b610466565b60405190151581526020016101b3565b3480156101f857600080fd5b5061020c610207366004612917565b610557565b6040516001600160e01b031990911681526020016101b3565b610238610233366004612a84565b610709565b6040516101b39190612be4565b610258610253366004612c46565b6107c0565b6040516101b39190612c9b565b34801561027157600080fd5b50610258610280366004612cae565b61084e565b34801561029157600080fd5b506102386102a0366004612cc7565b610859565b6102586102b3366004612d3c565b6109b5565b3480156102c457600080fd5b5061014b610b64565b3480156102d957600080fd5b5061014b610bbb565b61014b6102f0366004612917565b610c50565b34801561030157600080fd5b506000546001600160a01b03165b6040516001600160a01b0390911681526020016101b3565b61014b610335366004612db8565b610cde565b34801561034657600080fd5b50610238610355366004612e12565b610e21565b34801561036657600080fd5b506003546001600160a01b031661030f565b34801561038457600080fd5b5061014b610393366004612e47565b610ecc565b60006103af6000356001600160e01b0319166111a0565b90506000356001600160e01b0319161580156103d257506001600160a01b038116155b156103da5750565b6001600160a01b03811661042d576040517fbb370b2b0000000000000000000000000000000000000000000000000000000081526001600160e01b03196000351660048201526024015b60405180910390fd5b36600080373360601b365234601436015260008060343601600080855af13d6000803e80801561045c573d6000f35b3d6000fd5b505050565b60006001600160e01b03198216630b135d3f60e11b14806104b057506001600160e01b031982167f3e89ad9800000000000000000000000000000000000000000000000000000000145b806104cb57506001600160e01b03198216631aed5a8560e21b145b806104ff57506001600160e01b031982167f94be599900000000000000000000000000000000000000000000000000000000145b8061053357506001600160e01b031982167f1a0eb6a500000000000000000000000000000000000000000000000000000000145b806105425750610542826111f8565b80610551575061055182611236565b92915050565b60008061056c6000546001600160a01b031690565b90506001600160a01b0381163b1561068957600080826001600160a01b0316631626ba7e60e01b87876040516024016105a6929190612e62565b60408051601f198184030181529181526020820180516001600160e01b03166001600160e01b03199094169390931790925290516105e49190612e7b565b600060405180830381855afa9150503d806000811461061f576040519150601f19603f3d011682016040523d82523d6000602084013e610624565b606091505b50915091506000828015610639575081516020145b801561066057508151630b135d3f60e11b9061065e9084016020908101908501612e97565b145b905080610675576001600160e01b031961067e565b630b135d3f60e11b5b945050505050610551565b6000806106968686611273565b909250905060008160048111156106af576106af612eb0565b146106c857506001600160e01b03199250610551915050565b826001600160a01b0316826001600160a01b0316146106ef576001600160e01b03196106f8565b630b135d3f60e11b5b9350505050610551565b5092915050565b6060341561073f57604051349033907f7e71433ddf847725166244795048ecf3e3f9f35628254ecbf73605666423349390600090a35b6000546001600160a01b0316338190036107675761075f868686866112b8565b9150506107b8565b600061077282611448565b90506000610782888888886112b8565b905081156107b3576107b3838260405160200161079f9190612be4565b6040516020818303038152906040526115ea565b925050505b949350505050565b606034156107f657604051349033907f7e71433ddf847725166244795048ecf3e3f9f35628254ecbf73605666423349390600090a35b6000546001600160a01b0316338190036108165761075f86868686611734565b600061082182611448565b9050600061083188888888611734565b905081156107b3576107b3838260405160200161079f9190612c9b565b60606105518261188a565b60608167ffffffffffffffff81111561087457610874612852565b6040519080825280602002602001820160405280156108a757816020015b60608152602001906001900390816108925790505b50905060005b8281101561070257600080308686858181106108cb576108cb612ec6565b90506020028101906108dd9190612edc565b6040516108eb929190612f23565b600060405180830381855af49150503d8060008114610926576040519150601f19603f3d011682016040523d82523d6000602084013e61092b565b606091505b50915091508161098d578051156109455780518082602001fd5b60405162461bcd60e51b815260206004820152601960248201527f4c5350303a20626174636843616c6c73207265766572746564000000000000006044820152606401610424565b808484815181106109a0576109a0612ec6565b602090810291909101015250506001016108ad565b606034156109eb57604051349033907f7e71433ddf847725166244795048ecf3e3f9f35628254ecbf73605666423349390600090a35b6000610a167f0cfc51aec37c55a4d0b1a65c6255c4bf2fbdf6277f3cc0730c45b828b6db8b4761188a565b905060606014825110610a65576000610a2e83612f33565b60601c9050610a4481631aed5a8560e21b61192c565b15610a6357610a606001600160a01b03821688888833346119b5565b91505b505b6000610a917f0cfc51aec37c55a4d0b10000000000000000000000000000000000000000000088611afd565b90506000610a9e8261188a565b905060606014825110610aed576000610ab683612f33565b60601c9050610acc81631aed5a8560e21b61192c565b15610aeb57610ae86001600160a01b0382168b8b8b33346119b5565b91505b505b8381604051602001610b00929190612f6f565b60405160208183030381529060405295508834336001600160a01b03167f9c3ba68eb5742b8e3961aea0afc7371a71bf433c8a67a831803b64c064a178c28b8b8b604051610b5093929190612fbd565b60405180910390a450505050509392505050565b6000546001600160a01b031633819003610b8357610b80611b66565b50565b6000610b8e82611448565b9050610b98611b66565b8015610bb757610bb782604051806020016040528060008152506115ea565b5050565b6000546001600160a01b0316610bcf611c6f565b604080516020810190915260008152610c14906001600160a01b038316907fa4e59c931d14f7c8a7a35027f92ee40b5f2886b9fdcdb78f30bc5ecce5a2f81490611d17565b604080516020810190915260008152610b809033907fceca317f109c43507871523e82dc2a3cc64dfa18f12da0b6db14f6e23f99553890611d17565b3415610c8457604051349033907f7e71433ddf847725166244795048ecf3e3f9f35628254ecbf73605666423349390600090a35b6000546001600160a01b031633819003610ca2576104618383611da2565b6000610cad82611448565b9050610cb98484611da2565b8015610cd857610cd882604051806020016040528060008152506115ea565b50505050565b3415610d1257604051349033907f7e71433ddf847725166244795048ecf3e3f9f35628254ecbf73605666423349390600090a35b8051825114610d4d576040517f3bcc897900000000000000000000000000000000000000000000000000000000815260040160405180910390fd5b6000546001600160a01b031633819003610db15760005b8351811015610cd857610da9848281518110610d8257610d82612ec6565b6020026020010151848381518110610d9c57610d9c612ec6565b6020026020010151611da2565b600101610d64565b6000610dbc82611448565b905060005b8451811015610e0157610df9858281518110610ddf57610ddf612ec6565b6020026020010151858381518110610d9c57610d9c612ec6565b600101610dc1565b508015610cd857610cd882604051806020016040528060008152506115ea565b6060815167ffffffffffffffff811115610e3d57610e3d612852565b604051908082528060200260200182016040528015610e7057816020015b6060815260200190600190039081610e5b5790505b50905060005b8251811015610ec657610ea1838281518110610e9457610e94612ec6565b602002602001015161188a565b828281518110610eb357610eb3612ec6565b6020908102919091010152600101610e76565b50919050565b6000546001600160a01b031633819003610ff157610ee982611e16565b816001600160a01b0316816001600160a01b03167f38d16b8cac22d99fc7c124b9cd0de2d3fa1faef420bfe791d8c362d765e2270060405160405180910390a3604080516020810190915260008152610f6e906001600160a01b038416907fe17117c9d2665d1dbeb479ed8058bbebde3c50ac50e2e65619f60006caac692690611d17565b6000546001600160a01b03828116911614610bb75760405162461bcd60e51b815260206004820152603f60248201527f4c535031343a206e65774f776e6572204d55535420616363657074206f776e6560448201527f727368697020696e2061207365706172617465207472616e73616374696f6e006064820152608401610424565b6000610ffc82611448565b905061100783611e16565b826001600160a01b0316826001600160a01b03167f38d16b8cac22d99fc7c124b9cd0de2d3fa1faef420bfe791d8c362d765e2270060405160405180910390a360408051602081019091526000815261108c906001600160a01b038516907fe17117c9d2665d1dbeb479ed8058bbebde3c50ac50e2e65619f60006caac692690611d17565b6000546001600160a01b0383811691161461110f5760405162461bcd60e51b815260206004820152603f60248201527f4c535031343a206e65774f776e6572204d55535420616363657074206f776e6560448201527f727368697020696e2061207365706172617465207472616e73616374696f6e006064820152608401610424565b80156104615761046182604051806020016040528060008152506115ea565b6000546001600160a01b03828116911614610b8057600080546001600160a01b0383811673ffffffffffffffffffffffffffffffffffffffff19831681178455604051919092169283917f8be0079c531659141344cd1fd0a4f28419497f9722a3daafe3b4186f6b6457e09190a35050565b6000806111d77fcee78b4094da86011096000000000000000000000000000000000000000000006001600160e01b03198516611afd565b905060006111e48261188a565b6111ed90612f33565b60601c949350505050565b60006001600160e01b031982167fa918fa6b000000000000000000000000000000000000000000000000000000001480610551575061055182611e8c565b6000806112496301ffc9a760e01b6111a0565b90506001600160a01b0381166112625750600092915050565b61126c818461192c565b9392505050565b60008082516041036112a95760208301516040840151606085015160001a61129d87828585611eca565b945094505050506112b1565b506000905060025b9250929050565b6060835185511415806112d95750825184511415806112d957508151835114155b15611310576040517f3ff55f4d00000000000000000000000000000000000000000000000000000000815260040160405180910390fd5b845160000361134b576040517fe9ad2b5f00000000000000000000000000000000000000000000000000000000815260040160405180910390fd5b6000855167ffffffffffffffff81111561136757611367612852565b60405190808252806020026020018201604052801561139a57816020015b60608152602001906001900390816113855790505b50905060005b865181101561143e576114198782815181106113be576113be612ec6565b60200260200101518783815181106113d8576113d8612ec6565b60200260200101518784815181106113f2576113f2612ec6565b602002602001015187858151811061140c5761140c612ec6565b6020026020010151611734565b82828151811061142b5761142b612ec6565b60209081029190910101526001016113a0565b5095945050505050565b6000806000836001600160a01b0316639bf04b1160e01b33346000366040516024016114779493929190612fe3565b60408051601f198184030181529181526020820180516001600160e01b03166001600160e01b03199094169390931790925290516114b59190612e7b565b6000604051808303816000865af19150503d80600081146114f2576040519150601f19603f3d011682016040523d82523d6000602084013e6114f7565b606091505b509150915061150860008383611f8e565b60008180602001905181019061151e919061300c565b90507fffffff000000000000000000000000000000000000000000000000000000000081167f9bf04b0000000000000000000000000000000000000000000000000000000000146115875760008260405163034223b160e61b8152600401610424929190613029565b7f01000000000000000000000000000000000000000000000000000000000000007fff00000000000000000000000000000000000000000000000000000000000000600383901a60f81b16146115de5760006115e1565b60015b95945050505050565b600080836001600160a01b031663d3fc45d360e01b33346000366040516020016116179493929190613044565b604051602081830303815290604052805190602001208560405160240161163f929190612e62565b60408051601f198184030181529181526020820180516001600160e01b03166001600160e01b031990941693909317909252905161167d9190612e7b565b6000604051808303816000865af19150503d80600081146116ba576040519150601f19603f3d011682016040523d82523d6000602084013e6116bf565b606091505b50915091506116d060018383611f8e565b80517fd3fc45d30000000000000000000000000000000000000000000000000000000090611707908301602090810190840161300c565b6001600160e01b03191614610cd85760018160405163034223b160e61b8152600401610424929190613029565b60608461174d57611746848484611fe3565b90506107b8565b60018503611787576001600160a01b0384161561177d57604051631820c12560e11b815260040160405180910390fd5b611746838361210f565b600285036117c1576001600160a01b038416156117b757604051631820c12560e11b815260040160405180910390fd5b6117468383612229565b6003850361180b578215611801576040517f72f2bc6a00000000000000000000000000000000000000000000000000000000815260040160405180910390fd5b6117468483612314565b6004850361185557821561184b576040517f5ac8313500000000000000000000000000000000000000000000000000000000815260040160405180910390fd5b611746848361240a565b6040517f7583b3bc00000000000000000000000000000000000000000000000000000000815260048101869052602401610424565b60008181526001602052604090208054606091906118a790613077565b80601f01602080910402602001604051908101604052809291908181526020018280546118d390613077565b80156119205780601f106118f557610100808354040283529160200191611920565b820191906000526020600020905b81548152906001019060200180831161190357829003601f168201915b50505050509050919050565b604080516001600160e01b03198316602480830191909152825180830390910181526044909101909152602080820180516001600160e01b03166301ffc9a760e01b178152825160009392849283928392918391908a617530fa92503d9150600051905082801561199e575060208210155b80156119aa5750600081115b979650505050505050565b60606000636bb56a1460e01b8787876040516024016119d6939291906130ab565b60408051601f19818403018152918152602080830180516001600160e01b03166001600160e01b03199095169490941790935251611a189287918791016130c5565b6040516020818303038152906040529050600080896001600160a01b031683604051611a449190612e7b565b6000604051808303816000865af19150503d8060008114611a81576040519150601f19603f3d011682016040523d82523d6000602084013e611a86565b606091505b5091509150611acb82826040518060400160405280602081526020017f43616c6c20746f20756e6976657273616c5265636569766572206661696c65648152506124b6565b508051600003611adb5780611aef565b80806020019051810190611aef9190613104565b9a9950505050505050505050565b604080517fffffffffffffffffffff00000000000000000000000000000000000000000000841660208201526000602a82018190526bffffffffffffffffffffffff198416602c830152918291016040516020818303038152906040529050806107b890613172565b6002544390600090611b7a9060c8906131ac565b90506000611b8960c8836131ac565b905080831180611b995750600254155b15611bee5760028390556003805473ffffffffffffffffffffffffffffffffffffffff191690556040517f81b7f830f1f0084db6497c486cbe6974c86488dcc4e3738eab94ab6d6b1653e790600090a1505050565b81831015611c32576040517f8b9bf5070000000000000000000000000000000000000000000000000000000081526004810183905260248101829052604401610424565b611c3c600061112e565b600060028190556040517fd1f66c3d2bc1993a86be5e3d33709d98f0442381befcedd29f578b9b2506b1ce9190a1505050565b6003546001600160a01b03163314611cef5760405162461bcd60e51b815260206004820152602560248201527f4c535031343a2063616c6c6572206973206e6f74207468652070656e64696e6760448201527f4f776e65720000000000000000000000000000000000000000000000000000006064820152608401610424565b611cf83361112e565b6003805473ffffffffffffffffffffffffffffffffffffffff19169055565b611d2883631aed5a8560e21b61192c565b1561046157604051631aed5a8560e21b81526001600160a01b03841690636bb56a1490611d5b9085908590600401612e62565b6000604051808303816000875af1158015611d7a573d6000803e3d6000fd5b505050506040513d6000823e601f3d908101601f19168201604052610cd89190810190613104565b6000828152600160205260409020611dba8282613212565b50817fece574603820d07bc9b91f2a932baadf4628aabcb8afba49776529c14a6104b261010083511115611dfb57611df68360006101006124cf565b611dfd565b825b604051611e0a9190612c9b565b60405180910390a25050565b306001600160a01b03821603611e58576040517f43b248cd00000000000000000000000000000000000000000000000000000000815260040160405180910390fd5b6003805473ffffffffffffffffffffffffffffffffffffffff19166001600160a01b03929092169190911790556000600255565b60006001600160e01b031982167f629aa6940000000000000000000000000000000000000000000000000000000014806105515750610551826125f7565b6000807f7fffffffffffffffffffffffffffffff5d576e7357a4501ddfe92f46681b20a0831115611f015750600090506003611f85565b6040805160008082526020820180845289905260ff881692820192909252606081018690526080810185905260019060a0016020604051602081039080840390855afa158015611f55573d6000803e3d6000fd5b5050604051601f1901519150506001600160a01b038116611f7e57600060019250925050611f85565b9150600090505b94509492505050565b81611f9d57611f9d8382612645565b602081511080611fc1575060006020611fb583613172565b63ffffffff19911b1614155b1561046157828160405163034223b160e61b8152600401610424929190613029565b60608247101561200f576040516301bf351f60e31b815247600482015260248101849052604401610424565b826001600160a01b03851660007f4810874456b8e6487bd861375cf6abd8e1c8bb5858c8ce36a86a04dabfac199e612046866132d2565b6040516001600160e01b0319909116815260200160405180910390a4600080856001600160a01b0316858560405161207e9190612e7b565b60006040518083038185875af1925050503d80600081146120bb576040519150601f19603f3d011682016040523d82523d6000602084013e6120c0565b606091505b509150915061210582826040518060400160405280601681526020017f455243373235583a20556e6b6e6f776e204572726f72000000000000000000008152506124b6565b9695505050505050565b60608247101561213b576040516301bf351f60e31b815247600482015260248101849052604401610424565b815160000361215d5760405163b81cd8d960e01b815260040160405180910390fd5b600082516020840185f090506001600160a01b0381166121a9576040517f0b07489b00000000000000000000000000000000000000000000000000000000815260040160405180910390fd5b6040516bffffffffffffffffffffffff19606083901b166020820152603401604051602081830303815290604052915083816001600160a01b031660017fa1fb700aaee2ae4a2ff6f91ce7eba292f89c2f5488b8ec4c5c5c8150692595c36000801b60405161221a91815260200190565b60405180910390a45092915050565b6060815160000361224d5760405163b81cd8d960e01b815260040160405180910390fd5b600061226683602085516122619190613306565b61268b565b905060006122838460006020875161227e9190613306565b6124cf565b905060006122928684846126f1565b6040516bffffffffffffffffffffffff19606083901b166020820152909150603401604051602081830303815290604052935085816001600160a01b031660027fa1fb700aaee2ae4a2ff6f91ce7eba292f89c2f5488b8ec4c5c5c8150692595c38660405161230391815260200190565b60405180910390a450505092915050565b606060006001600160a01b03841660037f4810874456b8e6487bd861375cf6abd8e1c8bb5858c8ce36a86a04dabfac199e61234e866132d2565b6040516001600160e01b0319909116815260200160405180910390a4600080846001600160a01b0316846040516123859190612e7b565b600060405180830381855afa9150503d80600081146123c0576040519150601f19603f3d011682016040523d82523d6000602084013e6123c5565b606091505b50915091506115e182826040518060400160405280601681526020017f455243373235583a20556e6b6e6f776e204572726f72000000000000000000008152506124b6565b606060006001600160a01b03841660047f4810874456b8e6487bd861375cf6abd8e1c8bb5858c8ce36a86a04dabfac199e612444866132d2565b6040516001600160e01b0319909116815260200160405180910390a4600080846001600160a01b03168460405161247b9190612e7b565b600060405180830381855af49150503d80600081146123c0576040519150601f19603f3d011682016040523d82523d6000602084013e6123c5565b606083156124c557508161126c565b61126c83836127f5565b6060816124dd81601f6131ac565b101561252b5760405162461bcd60e51b815260206004820152600e60248201527f736c6963655f6f766572666c6f770000000000000000000000000000000000006044820152606401610424565b61253582846131ac565b845110156125855760405162461bcd60e51b815260206004820152601160248201527f736c6963655f6f75744f66426f756e64730000000000000000000000000000006044820152606401610424565b6060821580156125a457604051915060008252602082016040526125ee565b6040519150601f8416801560200281840101858101878315602002848b0101015b818310156125dd5780518352602092830192016125c5565b5050858452601f01601f1916604052505b50949350505050565b60006001600160e01b031982167f7545acac00000000000000000000000000000000000000000000000000000000148061055157506301ffc9a760e01b6001600160e01b0319831614610551565b8051156126555780518082602001fd5b6040517f8c6a8ae30000000000000000000000000000000000000000000000000000000081528215156004820152602401610424565b60006126988260206131ac565b835110156126e85760405162461bcd60e51b815260206004820152601560248201527f746f427974657333325f6f75744f66426f756e647300000000000000000000006044820152606401610424565b50016020015190565b6000834710156127435760405162461bcd60e51b815260206004820152601d60248201527f437265617465323a20696e73756666696369656e742062616c616e63650000006044820152606401610424565b81516000036127945760405162461bcd60e51b815260206004820181905260248201527f437265617465323a2062797465636f6465206c656e677468206973207a65726f6044820152606401610424565b8282516020840186f590506001600160a01b03811661126c5760405162461bcd60e51b815260206004820152601960248201527f437265617465323a204661696c6564206f6e206465706c6f79000000000000006044820152606401610424565b8151156128055781518083602001fd5b8060405162461bcd60e51b81526004016104249190612c9b565b6001600160e01b031981168114610b8057600080fd5b60006020828403121561284757600080fd5b813561126c8161281f565b634e487b7160e01b600052604160045260246000fd5b604051601f8201601f1916810167ffffffffffffffff8111828210171561289157612891612852565b604052919050565b600067ffffffffffffffff8211156128b3576128b3612852565b50601f01601f191660200190565b600082601f8301126128d257600080fd5b81356128e56128e082612899565b612868565b8181528460208386010111156128fa57600080fd5b816020850160208301376000918101602001919091529392505050565b6000806040838503121561292a57600080fd5b82359150602083013567ffffffffffffffff81111561294857600080fd5b612954858286016128c1565b9150509250929050565b600067ffffffffffffffff82111561297857612978612852565b5060051b60200190565b600082601f83011261299357600080fd5b813560206129a36128e08361295e565b82815260059290921b840181019181810190868411156129c257600080fd5b8286015b848110156129dd57803583529183019183016129c6565b509695505050505050565b80356001600160a01b03811681146129ff57600080fd5b919050565b600082601f830112612a1557600080fd5b81356020612a256128e08361295e565b82815260059290921b84018101918181019086841115612a4457600080fd5b8286015b848110156129dd57803567ffffffffffffffff811115612a685760008081fd5b612a768986838b01016128c1565b845250918301918301612a48565b60008060008060808587031215612a9a57600080fd5b843567ffffffffffffffff80821115612ab257600080fd5b612abe88838901612982565b9550602091508187013581811115612ad557600080fd5b8701601f81018913612ae657600080fd5b8035612af46128e08261295e565b81815260059190911b8201840190848101908b831115612b1357600080fd5b928501925b82841015612b3857612b29846129e8565b82529285019290850190612b18565b97505050506040870135915080821115612b5157600080fd5b612b5d88838901612982565b93506060870135915080821115612b7357600080fd5b50612b8087828801612a04565b91505092959194509250565b60005b83811015612ba7578181015183820152602001612b8f565b83811115610cd85750506000910152565b60008151808452612bd0816020860160208601612b8c565b601f01601f19169290920160200192915050565b6000602080830181845280855180835260408601915060408160051b870101925083870160005b82811015612c3957603f19888603018452612c27858351612bb8565b94509285019290850190600101612c0b565b5092979650505050505050565b60008060008060808587031215612c5c57600080fd5b84359350612c6c602086016129e8565b925060408501359150606085013567ffffffffffffffff811115612c8f57600080fd5b612b80878288016128c1565b60208152600061126c6020830184612bb8565b600060208284031215612cc057600080fd5b5035919050565b60008060208385031215612cda57600080fd5b823567ffffffffffffffff80821115612cf257600080fd5b818501915085601f830112612d0657600080fd5b813581811115612d1557600080fd5b8660208260051b8501011115612d2a57600080fd5b60209290920196919550909350505050565b600080600060408486031215612d5157600080fd5b83359250602084013567ffffffffffffffff80821115612d7057600080fd5b818601915086601f830112612d8457600080fd5b813581811115612d9357600080fd5b876020828501011115612da557600080fd5b6020830194508093505050509250925092565b60008060408385031215612dcb57600080fd5b823567ffffffffffffffff80821115612de357600080fd5b612def86838701612982565b93506020850135915080821115612e0557600080fd5b5061295485828601612a04565b600060208284031215612e2457600080fd5b813567ffffffffffffffff811115612e3b57600080fd5b6107b884828501612982565b600060208284031215612e5957600080fd5b61126c826129e8565b8281526040602082015260006107b86040830184612bb8565b60008251612e8d818460208701612b8c565b9190910192915050565b600060208284031215612ea957600080fd5b5051919050565b634e487b7160e01b600052602160045260246000fd5b634e487b7160e01b600052603260045260246000fd5b6000808335601e19843603018112612ef357600080fd5b83018035915067ffffffffffffffff821115612f0e57600080fd5b6020019150368190038213156112b157600080fd5b8183823760009101908152919050565b805160208201516bffffffffffffffffffffffff198082169291906014831015612f675780818460140360031b1b83161693505b505050919050565b604081526000612f826040830185612bb8565b82810360208401526115e18185612bb8565b81835281816020850137506000828201602090810191909152601f909101601f19169091010190565b604081526000612fd1604083018587612f94565b82810360208401526121058185612bb8565b6001600160a01b0385168152836020820152606060408201526000612105606083018486612f94565b60006020828403121561301e57600080fd5b815161126c8161281f565b82151581526040602082015260006107b86040830184612bb8565b6bffffffffffffffffffffffff198560601b16815283601482015281836034830137600091016034019081529392505050565b600181811c9082168061308b57607f821691505b602082108103610ec657634e487b7160e01b600052602260045260246000fd5b8381526040602082015260006115e1604083018486612f94565b600084516130d7818460208901612b8c565b60609490941b6bffffffffffffffffffffffff191691909301908152601481019190915260340192915050565b60006020828403121561311657600080fd5b815167ffffffffffffffff81111561312d57600080fd5b8201601f8101841361313e57600080fd5b805161314c6128e082612899565b81815285602083850101111561316157600080fd5b6115e1826020830160208601612b8c565b80516020808301519190811015610ec65760001960209190910360031b1b16919050565b634e487b7160e01b600052601160045260246000fd5b600082198211156131bf576131bf613196565b500190565b601f82111561046157600081815260208120601f850160051c810160208610156131eb5750805b601f850160051c820191505b8181101561320a578281556001016131f7565b505050505050565b815167ffffffffffffffff81111561322c5761322c612852565b6132408161323a8454613077565b846131c4565b602080601f831160018114613275576000841561325d5750858301515b600019600386901b1c1916600185901b17855561320a565b600085815260208120601f198616915b828110156132a457888601518255948401946001909101908401613285565b50858210156132c25787850151600019600388901b60f8161c191681555b5050505050600190811b01905550565b6000815160208301516001600160e01b031980821693506004831015612f675760049290920360031b82901b161692915050565b60008282101561331857613318613196565b50039056fea2646970667358221220b38734e403b6431e239bbe32a5773655eb89f37c6941a8ddf8b46af98e2d982464736f6c634300080f0033",
  "linkReferences": {},
  "deployedLinkReferences": {}
}