{
  "_format": "hh-sol-artifact-1",
  "contractName": "LSP0ERC725AccountInit",
  "sourceName": "contracts/LSP0ERC725Account/LSP0ERC725AccountInit.sol",
  "abi": [
    {
      "inputs": [],
      "stateMutability": "nonpayable",
      "type": "constructor"
    },
    {
      "inputs": [],
      "name": "CannotTransferOwnershipToSelf",
      "type": "error"
    },
    {
      "inputs": [],
      "name": "ERC725X_ContractDeploymentFailed",
      "type": "error"
    },
    {
      "inputs": [],
      "name": "ERC725X_CreateOperationsRequireEmptyRecipientAddress",
      "type": "error"
    },
    {
      "inputs": [],
      "name": "ERC725X_ExecuteParametersEmptyArray",
      "type": "error"
    },
    {
      "inputs": [],
      "name": "ERC725X_ExecuteParametersLengthMismatch",
      "type": "error"
    },
    {
      "inputs": [
        {
          "internalType": "uint256",
          "name": "balance",
          "type": "uint256"
        },
        {
          "internalType": "uint256",
          "name": "value",
          "type": "uint256"
        }
      ],
      "name": "ERC725X_InsufficientBalance",
      "type": "error"
    },
    {
      "inputs": [],
      "name": "ERC725X_MsgValueDisallowedInDelegateCall",
      "type": "error"
    },
    {
      "inputs": [],
      "name": "ERC725X_MsgValueDisallowedInStaticCall",
      "type": "error"
    },
    {
      "inputs": [],
      "name": "ERC725X_NoContractBytecodeProvided",
      "type": "error"
    },
    {
      "inputs": [
        {
          "internalType": "uint256",
          "name": "operationTypeProvided",
          "type": "uint256"
        }
      ],
      "name": "ERC725X_UnknownOperationType",
      "type": "error"
    },
    {
      "inputs": [],
      "name": "ERC725Y_DataKeysValuesLengthMismatch",
      "type": "error"
    },
    {
      "inputs": [
        {
          "internalType": "bool",
          "name": "postCall",
          "type": "bool"
        }
      ],
      "name": "LSP20CallingVerifierFailed",
      "type": "error"
    },
    {
      "inputs": [
        {
          "internalType": "bool",
          "name": "postCall",
          "type": "bool"
        },
        {
          "internalType": "bytes",
          "name": "returnedData",
          "type": "bytes"
        }
      ],
      "name": "LSP20InvalidMagicValue",
      "type": "error"
    },
    {
      "inputs": [
        {
          "internalType": "bytes4",
          "name": "functionSelector",
          "type": "bytes4"
        }
      ],
      "name": "NoExtensionFoundForFunctionSelector",
      "type": "error"
    },
    {
      "inputs": [
        {
          "internalType": "uint256",
          "name": "renounceOwnershipStart",
          "type": "uint256"
        },
        {
          "internalType": "uint256",
          "name": "renounceOwnershipEnd",
          "type": "uint256"
        }
      ],
      "name": "NotInRenounceOwnershipInterval",
      "type": "error"
    },
    {
      "anonymous": false,
      "inputs": [
        {
          "indexed": true,
          "internalType": "uint256",
          "name": "operationType",
          "type": "uint256"
        },
        {
          "indexed": true,
          "internalType": "address",
          "name": "contractAddress",
          "type": "address"
        },
        {
          "indexed": true,
          "internalType": "uint256",
          "name": "value",
          "type": "uint256"
        },
        {
          "indexed": false,
          "internalType": "bytes32",
          "name": "salt",
          "type": "bytes32"
        }
      ],
      "name": "ContractCreated",
      "type": "event"
    },
    {
      "anonymous": false,
      "inputs": [
        {
          "indexed": true,
          "internalType": "bytes32",
          "name": "dataKey",
          "type": "bytes32"
        },
        {
          "indexed": false,
          "internalType": "bytes",
          "name": "dataValue",
          "type": "bytes"
        }
      ],
      "name": "DataChanged",
      "type": "event"
    },
    {
      "anonymous": false,
      "inputs": [
        {
          "indexed": true,
          "internalType": "uint256",
          "name": "operationType",
          "type": "uint256"
        },
        {
          "indexed": true,
          "internalType": "address",
          "name": "target",
          "type": "address"
        },
        {
          "indexed": true,
          "internalType": "uint256",
          "name": "value",
          "type": "uint256"
        },
        {
          "indexed": false,
          "internalType": "bytes4",
          "name": "selector",
          "type": "bytes4"
        }
      ],
      "name": "Executed",
      "type": "event"
    },
    {
      "anonymous": false,
      "inputs": [
        {
          "indexed": false,
          "internalType": "uint8",
          "name": "version",
          "type": "uint8"
        }
      ],
      "name": "Initialized",
      "type": "event"
    },
    {
      "anonymous": false,
      "inputs": [],
      "name": "OwnershipRenounced",
      "type": "event"
    },
    {
      "anonymous": false,
      "inputs": [
        {
          "indexed": true,
          "internalType": "address",
          "name": "previousOwner",
          "type": "address"
        },
        {
          "indexed": true,
          "internalType": "address",
          "name": "newOwner",
          "type": "address"
        }
      ],
      "name": "OwnershipTransferStarted",
      "type": "event"
    },
    {
      "anonymous": false,
      "inputs": [
        {
          "indexed": true,
          "internalType": "address",
          "name": "previousOwner",
          "type": "address"
        },
        {
          "indexed": true,
          "internalType": "address",
          "name": "newOwner",
          "type": "address"
        }
      ],
      "name": "OwnershipTransferred",
      "type": "event"
    },
    {
      "anonymous": false,
      "inputs": [],
      "name": "RenounceOwnershipStarted",
      "type": "event"
    },
    {
      "anonymous": false,
      "inputs": [
        {
          "indexed": true,
          "internalType": "address",
          "name": "from",
          "type": "address"
        },
        {
          "indexed": true,
          "internalType": "uint256",
          "name": "value",
          "type": "uint256"
        },
        {
          "indexed": true,
          "internalType": "bytes32",
          "name": "typeId",
          "type": "bytes32"
        },
        {
          "indexed": false,
          "internalType": "bytes",
          "name": "receivedData",
          "type": "bytes"
        },
        {
          "indexed": false,
          "internalType": "bytes",
          "name": "returnedValue",
          "type": "bytes"
        }
      ],
      "name": "UniversalReceiver",
      "type": "event"
    },
    {
      "anonymous": false,
      "inputs": [
        {
          "indexed": true,
          "internalType": "address",
          "name": "sender",
          "type": "address"
        },
        {
          "indexed": true,
          "internalType": "uint256",
          "name": "value",
          "type": "uint256"
        }
      ],
      "name": "ValueReceived",
      "type": "event"
    },
    {
      "stateMutability": "payable",
      "type": "fallback"
    },
    {
      "inputs": [],
      "name": "RENOUNCE_OWNERSHIP_CONFIRMATION_DELAY",
      "outputs": [
        {
          "internalType": "uint256",
          "name": "",
          "type": "uint256"
        }
      ],
      "stateMutability": "view",
      "type": "function"
    },
    {
      "inputs": [],
      "name": "RENOUNCE_OWNERSHIP_CONFIRMATION_PERIOD",
      "outputs": [
        {
          "internalType": "uint256",
          "name": "",
          "type": "uint256"
        }
      ],
      "stateMutability": "view",
      "type": "function"
    },
    {
      "inputs": [],
      "name": "acceptOwnership",
      "outputs": [],
      "stateMutability": "nonpayable",
      "type": "function"
    },
    {
      "inputs": [
        {
          "internalType": "bytes[]",
          "name": "data",
          "type": "bytes[]"
        }
      ],
      "name": "batchCalls",
      "outputs": [
        {
          "internalType": "bytes[]",
          "name": "results",
          "type": "bytes[]"
        }
      ],
      "stateMutability": "nonpayable",
      "type": "function"
    },
    {
      "inputs": [
        {
          "internalType": "uint256",
          "name": "operationType",
          "type": "uint256"
        },
        {
          "internalType": "address",
          "name": "target",
          "type": "address"
        },
        {
          "internalType": "uint256",
          "name": "value",
          "type": "uint256"
        },
        {
          "internalType": "bytes",
          "name": "data",
          "type": "bytes"
        }
      ],
      "name": "execute",
      "outputs": [
        {
          "internalType": "bytes",
          "name": "",
          "type": "bytes"
        }
      ],
      "stateMutability": "payable",
      "type": "function"
    },
    {
      "inputs": [
        {
          "internalType": "uint256[]",
          "name": "operationsType",
          "type": "uint256[]"
        },
        {
          "internalType": "address[]",
          "name": "targets",
          "type": "address[]"
        },
        {
          "internalType": "uint256[]",
          "name": "values",
          "type": "uint256[]"
        },
        {
          "internalType": "bytes[]",
          "name": "datas",
          "type": "bytes[]"
        }
      ],
      "name": "executeBatch",
      "outputs": [
        {
          "internalType": "bytes[]",
          "name": "",
          "type": "bytes[]"
        }
      ],
      "stateMutability": "payable",
      "type": "function"
    },
    {
      "inputs": [
        {
          "internalType": "bytes32",
          "name": "dataKey",
          "type": "bytes32"
        }
      ],
      "name": "getData",
      "outputs": [
        {
          "internalType": "bytes",
          "name": "dataValue",
          "type": "bytes"
        }
      ],
      "stateMutability": "view",
      "type": "function"
    },
    {
      "inputs": [
        {
          "internalType": "bytes32[]",
          "name": "dataKeys",
          "type": "bytes32[]"
        }
      ],
      "name": "getDataBatch",
      "outputs": [
        {
          "internalType": "bytes[]",
          "name": "dataValues",
          "type": "bytes[]"
        }
      ],
      "stateMutability": "view",
      "type": "function"
    },
    {
      "inputs": [
        {
          "internalType": "address",
          "name": "newOwner",
          "type": "address"
        }
      ],
      "name": "initialize",
      "outputs": [],
      "stateMutability": "payable",
      "type": "function"
    },
    {
      "inputs": [
        {
          "internalType": "bytes32",
          "name": "dataHash",
          "type": "bytes32"
        },
        {
          "internalType": "bytes",
          "name": "signature",
          "type": "bytes"
        }
      ],
      "name": "isValidSignature",
      "outputs": [
        {
          "internalType": "bytes4",
          "name": "magicValue",
          "type": "bytes4"
        }
      ],
      "stateMutability": "view",
      "type": "function"
    },
    {
      "inputs": [],
      "name": "owner",
      "outputs": [
        {
          "internalType": "address",
          "name": "",
          "type": "address"
        }
      ],
      "stateMutability": "view",
      "type": "function"
    },
    {
      "inputs": [],
      "name": "pendingOwner",
      "outputs": [
        {
          "internalType": "address",
          "name": "",
          "type": "address"
        }
      ],
      "stateMutability": "view",
      "type": "function"
    },
    {
      "inputs": [],
      "name": "renounceOwnership",
      "outputs": [],
      "stateMutability": "nonpayable",
      "type": "function"
    },
    {
      "inputs": [
        {
          "internalType": "bytes32",
          "name": "dataKey",
          "type": "bytes32"
        },
        {
          "internalType": "bytes",
          "name": "dataValue",
          "type": "bytes"
        }
      ],
      "name": "setData",
      "outputs": [],
      "stateMutability": "payable",
      "type": "function"
    },
    {
      "inputs": [
        {
          "internalType": "bytes32[]",
          "name": "dataKeys",
          "type": "bytes32[]"
        },
        {
          "internalType": "bytes[]",
          "name": "dataValues",
          "type": "bytes[]"
        }
      ],
      "name": "setDataBatch",
      "outputs": [],
      "stateMutability": "payable",
      "type": "function"
    },
    {
      "inputs": [
        {
          "internalType": "bytes4",
          "name": "interfaceId",
          "type": "bytes4"
        }
      ],
      "name": "supportsInterface",
      "outputs": [
        {
          "internalType": "bool",
          "name": "",
          "type": "bool"
        }
      ],
      "stateMutability": "view",
      "type": "function"
    },
    {
      "inputs": [
        {
          "internalType": "address",
          "name": "_pendingOwner",
          "type": "address"
        }
      ],
      "name": "transferOwnership",
      "outputs": [],
      "stateMutability": "nonpayable",
      "type": "function"
    },
    {
      "inputs": [
        {
          "internalType": "bytes32",
          "name": "typeId",
          "type": "bytes32"
        },
        {
          "internalType": "bytes",
          "name": "receivedData",
          "type": "bytes"
        }
      ],
      "name": "universalReceiver",
      "outputs": [
        {
          "internalType": "bytes",
          "name": "returnedValues",
          "type": "bytes"
        }
      ],
      "stateMutability": "payable",
      "type": "function"
    },
    {
      "stateMutability": "payable",
      "type": "receive"
    }
  ],
  "bytecode": "0x60806040523480156200001157600080fd5b506200001c62000022565b620000e4565b600054610100900460ff16156200008f5760405162461bcd60e51b815260206004820152602760248201527f496e697469616c697a61626c653a20636f6e747261637420697320696e697469604482015266616c697a696e6760c81b606482015260840160405180910390fd5b60005460ff9081161015620000e2576000805460ff191660ff9081179091556040519081527f7f26b83ff96e1f2b6a682f133852f6798a09c465da95921460cefb38474024989060200160405180910390a15b565b6135a580620000f46000396000f3fe60806040526004361061012d5760003560e01c806379ba5097116100a5578063c4d66de811610074578063e30c397811610059578063e30c39781461038e578063ead3fbdf146101af578063f2fde38b146103ac57610168565b8063c4d66de81461035b578063dedff9c61461036e57610168565b806379ba5097146102e85780637f23690c146102fd5780638da5cb5b14610310578063979024211461034857610168565b806344c028fe116100fc5780636963d438116100e15780636963d438146102a05780636bb56a14146102c0578063715018a6146102d357610168565b806344c028fe1461026057806354f6127f1461028057610168565b806301bfba61146101af57806301ffc9a7146101d75780631626ba7e14610207578063318584521461024057610168565b3661016857341561016657604051349033907f7e71433ddf847725166244795048ecf3e3f9f35628254ecbf73605666423349390600090a35b005b341561019c57604051349033907f7e71433ddf847725166244795048ecf3e3f9f35628254ecbf73605666423349390600090a35b60043610156101a757005b6101666103cc565b3480156101bb57600080fd5b506101c460c881565b6040519081526020015b60405180910390f35b3480156101e357600080fd5b506101f76101f2366004612a87565b61049a565b60405190151581526020016101ce565b34801561021357600080fd5b50610227610222366004612b69565b61058b565b6040516001600160e01b031990911681526020016101ce565b61025361024e366004612cd6565b610730565b6040516101ce9190612e36565b61027361026e366004612e98565b6107ed565b6040516101ce9190612eed565b34801561028c57600080fd5b5061027361029b366004612f00565b610881565b3480156102ac57600080fd5b506102536102bb366004612f19565b61088c565b6102736102ce366004612f8e565b6109e8565b3480156102df57600080fd5b50610166610b97565b3480156102f457600080fd5b50610166610bf4565b61016661030b366004612b69565b610c8f565b34801561031c57600080fd5b506000546201000090046001600160a01b03165b6040516001600160a01b0390911681526020016101ce565b61016661035636600461300a565b610d23565b610166610369366004613064565b610e6c565b34801561037a57600080fd5b5061025361038936600461307f565b610f8d565b34801561039a57600080fd5b506003546001600160a01b0316610330565b3480156103b857600080fd5b506101666103c7366004613064565b611038565b60006103e36000356001600160e01b0319166112ac565b90506000356001600160e01b03191615801561040657506001600160a01b038116155b1561040e5750565b6001600160a01b038116610461576040517fbb370b2b0000000000000000000000000000000000000000000000000000000081526001600160e01b03196000351660048201526024015b60405180910390fd5b36600080373360601b365234601436015260008060343601600080855af13d6000803e808015610490573d6000f35b3d6000fd5b505050565b60006001600160e01b03198216630b135d3f60e11b14806104e457506001600160e01b031982167f3e89ad9800000000000000000000000000000000000000000000000000000000145b806104ff57506001600160e01b03198216631aed5a8560e21b145b8061053357506001600160e01b031982167f94be599900000000000000000000000000000000000000000000000000000000145b8061056757506001600160e01b031982167f1a0eb6a500000000000000000000000000000000000000000000000000000000145b80610576575061057682611304565b80610585575061058582611342565b92915050565b600080546201000090046001600160a01b0316803b156106b057600080826001600160a01b0316631626ba7e60e01b87876040516024016105cd9291906130b4565b60408051601f198184030181529181526020820180516001600160e01b03166001600160e01b031990941693909317909252905161060b91906130cd565b600060405180830381855afa9150503d8060008114610646576040519150601f19603f3d011682016040523d82523d6000602084013e61064b565b606091505b50915091506000828015610660575081516020145b801561068757508151630b135d3f60e11b9061068590840160209081019085016130e9565b145b90508061069c576001600160e01b03196106a5565b630b135d3f60e11b5b945050505050610585565b6000806106bd868661137f565b909250905060008160048111156106d6576106d6613102565b146106ef57506001600160e01b03199250610585915050565b826001600160a01b0316826001600160a01b031614610716576001600160e01b031961071f565b630b135d3f60e11b5b9350505050610585565b5092915050565b6060341561076657604051349033907f7e71433ddf847725166244795048ecf3e3f9f35628254ecbf73605666423349390600090a35b6000546201000090046001600160a01b0316338190036107945761078c868686866113c4565b9150506107e5565b600061079f82611554565b905060006107af888888886113c4565b905081156107e0576107e083826040516020016107cc9190612e36565b6040516020818303038152906040526116f6565b925050505b949350505050565b6060341561082357604051349033907f7e71433ddf847725166244795048ecf3e3f9f35628254ecbf73605666423349390600090a35b6000546201000090046001600160a01b0316338190036108495761078c86868686611840565b600061085482611554565b9050600061086488888888611840565b905081156107e0576107e083826040516020016107cc9190612eed565b606061058582611996565b60608167ffffffffffffffff8111156108a7576108a7612aa4565b6040519080825280602002602001820160405280156108da57816020015b60608152602001906001900390816108c55790505b50905060005b8281101561072957600080308686858181106108fe576108fe613118565b9050602002810190610910919061312e565b60405161091e929190613175565b600060405180830381855af49150503d8060008114610959576040519150601f19603f3d011682016040523d82523d6000602084013e61095e565b606091505b5091509150816109c0578051156109785780518082602001fd5b60405162461bcd60e51b815260206004820152601960248201527f4c5350303a20626174636843616c6c73207265766572746564000000000000006044820152606401610458565b808484815181106109d3576109d3613118565b602090810291909101015250506001016108e0565b60603415610a1e57604051349033907f7e71433ddf847725166244795048ecf3e3f9f35628254ecbf73605666423349390600090a35b6000610a497f0cfc51aec37c55a4d0b1a65c6255c4bf2fbdf6277f3cc0730c45b828b6db8b47611996565b905060606014825110610a98576000610a6183613185565b60601c9050610a7781631aed5a8560e21b611a38565b15610a9657610a936001600160a01b0382168888883334611ac1565b91505b505b6000610ac47f0cfc51aec37c55a4d0b10000000000000000000000000000000000000000000088611c09565b90506000610ad182611996565b905060606014825110610b20576000610ae983613185565b60601c9050610aff81631aed5a8560e21b611a38565b15610b1e57610b1b6001600160a01b0382168b8b8b3334611ac1565b91505b505b8381604051602001610b339291906131c1565b60405160208183030381529060405295508834336001600160a01b03167f9c3ba68eb5742b8e3961aea0afc7371a71bf433c8a67a831803b64c064a178c28b8b8b604051610b839392919061320f565b60405180910390a450505050509392505050565b6000546201000090046001600160a01b031633819003610bbc57610bb9611c72565b50565b6000610bc782611554565b9050610bd1611c72565b8015610bf057610bf082604051806020016040528060008152506116f6565b5050565b6000546201000090046001600160a01b0316610c0e611d7b565b604080516020810190915260008152610c53906001600160a01b038316907fa4e59c931d14f7c8a7a35027f92ee40b5f2886b9fdcdb78f30bc5ecce5a2f81490611e23565b604080516020810190915260008152610bb99033907fceca317f109c43507871523e82dc2a3cc64dfa18f12da0b6db14f6e23f99553890611e23565b3415610cc357604051349033907f7e71433ddf847725166244795048ecf3e3f9f35628254ecbf73605666423349390600090a35b6000546201000090046001600160a01b031633819003610ce7576104958383611eae565b6000610cf282611554565b9050610cfe8484611eae565b8015610d1d57610d1d82604051806020016040528060008152506116f6565b50505050565b3415610d5757604051349033907f7e71433ddf847725166244795048ecf3e3f9f35628254ecbf73605666423349390600090a35b8051825114610d92576040517f3bcc897900000000000000000000000000000000000000000000000000000000815260040160405180910390fd5b6000546201000090046001600160a01b031633819003610dfc5760005b8351811015610d1d57610df4848281518110610dcd57610dcd613118565b6020026020010151848381518110610de757610de7613118565b6020026020010151611eae565b600101610daf565b6000610e0782611554565b905060005b8451811015610e4c57610e44858281518110610e2a57610e2a613118565b6020026020010151858381518110610de757610de7613118565b600101610e0c565b508015610d1d57610d1d82604051806020016040528060008152506116f6565b600054610100900460ff1615808015610e8c5750600054600160ff909116105b80610ea65750303b158015610ea6575060005460ff166001145b610f185760405162461bcd60e51b815260206004820152602e60248201527f496e697469616c697a61626c653a20636f6e747261637420697320616c72656160448201527f647920696e697469616c697a65640000000000000000000000000000000000006064820152608401610458565b6000805460ff191660011790558015610f3b576000805461ff0019166101001790555b610f4482611f22565b8015610bf0576000805461ff0019169055604051600181527f7f26b83ff96e1f2b6a682f133852f6798a09c465da95921460cefb38474024989060200160405180910390a15050565b6060815167ffffffffffffffff811115610fa957610fa9612aa4565b604051908082528060200260200182016040528015610fdc57816020015b6060815260200190600190039081610fc75790505b50905060005b82518110156110325761100d83828151811061100057611000613118565b6020026020010151611996565b82828151811061101f5761101f613118565b6020908102919091010152600101610fe2565b50919050565b6000546201000090046001600160a01b0316338190036111695761105b82611fdc565b816001600160a01b0316816001600160a01b03167f38d16b8cac22d99fc7c124b9cd0de2d3fa1faef420bfe791d8c362d765e2270060405160405180910390a36040805160208101909152600081526110e0906001600160a01b038416907fe17117c9d2665d1dbeb479ed8058bbebde3c50ac50e2e65619f60006caac692690611e23565b6000546001600160a01b03828116620100009092041614610bf05760405162461bcd60e51b815260206004820152603f60248201527f4c535031343a206e65774f776e6572204d55535420616363657074206f776e6560448201527f727368697020696e2061207365706172617465207472616e73616374696f6e006064820152608401610458565b600061117482611554565b905061117f83611fdc565b826001600160a01b0316826001600160a01b03167f38d16b8cac22d99fc7c124b9cd0de2d3fa1faef420bfe791d8c362d765e2270060405160405180910390a3604080516020810190915260008152611204906001600160a01b038516907fe17117c9d2665d1dbeb479ed8058bbebde3c50ac50e2e65619f60006caac692690611e23565b6000546001600160a01b0383811662010000909204161461128d5760405162461bcd60e51b815260206004820152603f60248201527f4c535031343a206e65774f776e6572204d55535420616363657074206f776e6560448201527f727368697020696e2061207365706172617465207472616e73616374696f6e006064820152608401610458565b80156104955761049582604051806020016040528060008152506116f6565b6000806112e37fcee78b4094da86011096000000000000000000000000000000000000000000006001600160e01b03198516611c09565b905060006112f082611996565b6112f990613185565b60601c949350505050565b60006001600160e01b031982167fa918fa6b000000000000000000000000000000000000000000000000000000001480610585575061058582612052565b6000806113556301ffc9a760e01b6112ac565b90506001600160a01b03811661136e5750600092915050565b6113788184611a38565b9392505050565b60008082516041036113b55760208301516040840151606085015160001a6113a987828585612090565b945094505050506113bd565b506000905060025b9250929050565b6060835185511415806113e55750825184511415806113e557508151835114155b1561141c576040517f3ff55f4d00000000000000000000000000000000000000000000000000000000815260040160405180910390fd5b8451600003611457576040517fe9ad2b5f00000000000000000000000000000000000000000000000000000000815260040160405180910390fd5b6000855167ffffffffffffffff81111561147357611473612aa4565b6040519080825280602002602001820160405280156114a657816020015b60608152602001906001900390816114915790505b50905060005b865181101561154a576115258782815181106114ca576114ca613118565b60200260200101518783815181106114e4576114e4613118565b60200260200101518784815181106114fe576114fe613118565b602002602001015187858151811061151857611518613118565b6020026020010151611840565b82828151811061153757611537613118565b60209081029190910101526001016114ac565b5095945050505050565b6000806000836001600160a01b0316639bf04b1160e01b33346000366040516024016115839493929190613235565b60408051601f198184030181529181526020820180516001600160e01b03166001600160e01b03199094169390931790925290516115c191906130cd565b6000604051808303816000865af19150503d80600081146115fe576040519150601f19603f3d011682016040523d82523d6000602084013e611603565b606091505b509150915061161460008383612154565b60008180602001905181019061162a919061325e565b90507fffffff000000000000000000000000000000000000000000000000000000000081167f9bf04b0000000000000000000000000000000000000000000000000000000000146116935760008260405163034223b160e61b815260040161045892919061327b565b7f01000000000000000000000000000000000000000000000000000000000000007fff00000000000000000000000000000000000000000000000000000000000000600383901a60f81b16146116ea5760006116ed565b60015b95945050505050565b600080836001600160a01b031663d3fc45d360e01b33346000366040516020016117239493929190613296565b604051602081830303815290604052805190602001208560405160240161174b9291906130b4565b60408051601f198184030181529181526020820180516001600160e01b03166001600160e01b031990941693909317909252905161178991906130cd565b6000604051808303816000865af19150503d80600081146117c6576040519150601f19603f3d011682016040523d82523d6000602084013e6117cb565b606091505b50915091506117dc60018383612154565b80517fd3fc45d30000000000000000000000000000000000000000000000000000000090611813908301602090810190840161325e565b6001600160e01b03191614610d1d5760018160405163034223b160e61b815260040161045892919061327b565b606084611859576118528484846121a9565b90506107e5565b60018503611893576001600160a01b0384161561188957604051631820c12560e11b815260040160405180910390fd5b61185283836122d5565b600285036118cd576001600160a01b038416156118c357604051631820c12560e11b815260040160405180910390fd5b61185283836123ef565b6003850361191757821561190d576040517f72f2bc6a00000000000000000000000000000000000000000000000000000000815260040160405180910390fd5b61185284836124da565b60048503611961578215611957576040517f5ac8313500000000000000000000000000000000000000000000000000000000815260040160405180910390fd5b61185284836125d0565b6040517f7583b3bc00000000000000000000000000000000000000000000000000000000815260048101869052602401610458565b60008181526001602052604090208054606091906119b3906132c9565b80601f01602080910402602001604051908101604052809291908181526020018280546119df906132c9565b8015611a2c5780601f10611a0157610100808354040283529160200191611a2c565b820191906000526020600020905b815481529060010190602001808311611a0f57829003601f168201915b50505050509050919050565b604080516001600160e01b03198316602480830191909152825180830390910181526044909101909152602080820180516001600160e01b03166301ffc9a760e01b178152825160009392849283928392918391908a617530fa92503d91506000519050828015611aaa575060208210155b8015611ab65750600081115b979650505050505050565b60606000636bb56a1460e01b878787604051602401611ae2939291906132fd565b60408051601f19818403018152918152602080830180516001600160e01b03166001600160e01b03199095169490941790935251611b24928791879101613317565b6040516020818303038152906040529050600080896001600160a01b031683604051611b5091906130cd565b6000604051808303816000865af19150503d8060008114611b8d576040519150601f19603f3d011682016040523d82523d6000602084013e611b92565b606091505b5091509150611bd782826040518060400160405280602081526020017f43616c6c20746f20756e6976657273616c5265636569766572206661696c656481525061267c565b508051600003611be75780611bfb565b80806020019051810190611bfb9190613356565b9a9950505050505050505050565b604080517fffffffffffffffffffff00000000000000000000000000000000000000000000841660208201526000602a82018190526bffffffffffffffffffffffff198416602c830152918291016040516020818303038152906040529050806107e5906133c4565b6002544390600090611c869060c8906133fe565b90506000611c9560c8836133fe565b905080831180611ca55750600254155b15611cfa5760028390556003805473ffffffffffffffffffffffffffffffffffffffff191690556040517f81b7f830f1f0084db6497c486cbe6974c86488dcc4e3738eab94ab6d6b1653e790600090a1505050565b81831015611d3e576040517f8b9bf5070000000000000000000000000000000000000000000000000000000081526004810183905260248101829052604401610458565b611d486000612695565b600060028190556040517fd1f66c3d2bc1993a86be5e3d33709d98f0442381befcedd29f578b9b2506b1ce9190a1505050565b6003546001600160a01b03163314611dfb5760405162461bcd60e51b815260206004820152602560248201527f4c535031343a2063616c6c6572206973206e6f74207468652070656e64696e6760448201527f4f776e65720000000000000000000000000000000000000000000000000000006064820152608401610458565b611e0433612695565b6003805473ffffffffffffffffffffffffffffffffffffffff19169055565b611e3483631aed5a8560e21b611a38565b1561049557604051631aed5a8560e21b81526001600160a01b03841690636bb56a1490611e6790859085906004016130b4565b6000604051808303816000875af1158015611e86573d6000803e3d6000fd5b505050506040513d6000823e601f3d908101601f19168201604052610d1d9190810190613356565b6000828152600160205260409020611ec68282613464565b50817fece574603820d07bc9b91f2a932baadf4628aabcb8afba49776529c14a6104b261010083511115611f0757611f02836000610100612721565b611f09565b825b604051611f169190612eed565b60405180910390a25050565b600054610100900460ff16611f9f5760405162461bcd60e51b815260206004820152602b60248201527f496e697469616c697a61626c653a20636f6e7472616374206973206e6f74206960448201527f6e697469616c697a696e670000000000000000000000000000000000000000006064820152608401610458565b3415611fd357604051349033907f7e71433ddf847725166244795048ecf3e3f9f35628254ecbf73605666423349390600090a35b610bb981612695565b306001600160a01b0382160361201e576040517f43b248cd00000000000000000000000000000000000000000000000000000000815260040160405180910390fd5b6003805473ffffffffffffffffffffffffffffffffffffffff19166001600160a01b03929092169190911790556000600255565b60006001600160e01b031982167f629aa694000000000000000000000000000000000000000000000000000000001480610585575061058582612849565b6000807f7fffffffffffffffffffffffffffffff5d576e7357a4501ddfe92f46681b20a08311156120c7575060009050600361214b565b6040805160008082526020820180845289905260ff881692820192909252606081018690526080810185905260019060a0016020604051602081039080840390855afa15801561211b573d6000803e3d6000fd5b5050604051601f1901519150506001600160a01b0381166121445760006001925092505061214b565b9150600090505b94509492505050565b81612163576121638382612897565b60208151108061218757506000602061217b836133c4565b63ffffffff19911b1614155b1561049557828160405163034223b160e61b815260040161045892919061327b565b6060824710156121d5576040516301bf351f60e31b815247600482015260248101849052604401610458565b826001600160a01b03851660007f4810874456b8e6487bd861375cf6abd8e1c8bb5858c8ce36a86a04dabfac199e61220c86613524565b6040516001600160e01b0319909116815260200160405180910390a4600080856001600160a01b0316858560405161224491906130cd565b60006040518083038185875af1925050503d8060008114612281576040519150601f19603f3d011682016040523d82523d6000602084013e612286565b606091505b50915091506122cb82826040518060400160405280601681526020017f455243373235583a20556e6b6e6f776e204572726f720000000000000000000081525061267c565b9695505050505050565b606082471015612301576040516301bf351f60e31b815247600482015260248101849052604401610458565b81516000036123235760405163b81cd8d960e01b815260040160405180910390fd5b600082516020840185f090506001600160a01b03811661236f576040517f0b07489b00000000000000000000000000000000000000000000000000000000815260040160405180910390fd5b6040516bffffffffffffffffffffffff19606083901b166020820152603401604051602081830303815290604052915083816001600160a01b031660017fa1fb700aaee2ae4a2ff6f91ce7eba292f89c2f5488b8ec4c5c5c8150692595c36000801b6040516123e091815260200190565b60405180910390a45092915050565b606081516000036124135760405163b81cd8d960e01b815260040160405180910390fd5b600061242c83602085516124279190613558565b6128dd565b90506000612449846000602087516124449190613558565b612721565b90506000612458868484612943565b6040516bffffffffffffffffffffffff19606083901b166020820152909150603401604051602081830303815290604052935085816001600160a01b031660027fa1fb700aaee2ae4a2ff6f91ce7eba292f89c2f5488b8ec4c5c5c8150692595c3866040516124c991815260200190565b60405180910390a450505092915050565b606060006001600160a01b03841660037f4810874456b8e6487bd861375cf6abd8e1c8bb5858c8ce36a86a04dabfac199e61251486613524565b6040516001600160e01b0319909116815260200160405180910390a4600080846001600160a01b03168460405161254b91906130cd565b600060405180830381855afa9150503d8060008114612586576040519150601f19603f3d011682016040523d82523d6000602084013e61258b565b606091505b50915091506116ed82826040518060400160405280601681526020017f455243373235583a20556e6b6e6f776e204572726f720000000000000000000081525061267c565b606060006001600160a01b03841660047f4810874456b8e6487bd861375cf6abd8e1c8bb5858c8ce36a86a04dabfac199e61260a86613524565b6040516001600160e01b0319909116815260200160405180910390a4600080846001600160a01b03168460405161264191906130cd565b600060405180830381855af49150503d8060008114612586576040519150601f19603f3d011682016040523d82523d6000602084013e61258b565b6060831561268b575081611378565b6113788383612a47565b6000546001600160a01b03828116620100009092041614610bb957600080546001600160a01b03838116620100008181027fffffffffffffffffffff0000000000000000000000000000000000000000ffff851617855560405193049190911692909183917f8be0079c531659141344cd1fd0a4f28419497f9722a3daafe3b4186f6b6457e091a35050565b60608161272f81601f6133fe565b101561277d5760405162461bcd60e51b815260206004820152600e60248201527f736c6963655f6f766572666c6f770000000000000000000000000000000000006044820152606401610458565b61278782846133fe565b845110156127d75760405162461bcd60e51b815260206004820152601160248201527f736c6963655f6f75744f66426f756e64730000000000000000000000000000006044820152606401610458565b6060821580156127f65760405191506000825260208201604052612840565b6040519150601f8416801560200281840101858101878315602002848b0101015b8183101561282f578051835260209283019201612817565b5050858452601f01601f1916604052505b50949350505050565b60006001600160e01b031982167f7545acac00000000000000000000000000000000000000000000000000000000148061058557506301ffc9a760e01b6001600160e01b0319831614610585565b8051156128a75780518082602001fd5b6040517f8c6a8ae30000000000000000000000000000000000000000000000000000000081528215156004820152602401610458565b60006128ea8260206133fe565b8351101561293a5760405162461bcd60e51b815260206004820152601560248201527f746f427974657333325f6f75744f66426f756e647300000000000000000000006044820152606401610458565b50016020015190565b6000834710156129955760405162461bcd60e51b815260206004820152601d60248201527f437265617465323a20696e73756666696369656e742062616c616e63650000006044820152606401610458565b81516000036129e65760405162461bcd60e51b815260206004820181905260248201527f437265617465323a2062797465636f6465206c656e677468206973207a65726f6044820152606401610458565b8282516020840186f590506001600160a01b0381166113785760405162461bcd60e51b815260206004820152601960248201527f437265617465323a204661696c6564206f6e206465706c6f79000000000000006044820152606401610458565b815115612a575781518083602001fd5b8060405162461bcd60e51b81526004016104589190612eed565b6001600160e01b031981168114610bb957600080fd5b600060208284031215612a9957600080fd5b813561137881612a71565b634e487b7160e01b600052604160045260246000fd5b604051601f8201601f1916810167ffffffffffffffff81118282101715612ae357612ae3612aa4565b604052919050565b600067ffffffffffffffff821115612b0557612b05612aa4565b50601f01601f191660200190565b600082601f830112612b2457600080fd5b8135612b37612b3282612aeb565b612aba565b818152846020838601011115612b4c57600080fd5b816020850160208301376000918101602001919091529392505050565b60008060408385031215612b7c57600080fd5b82359150602083013567ffffffffffffffff811115612b9a57600080fd5b612ba685828601612b13565b9150509250929050565b600067ffffffffffffffff821115612bca57612bca612aa4565b5060051b60200190565b600082601f830112612be557600080fd5b81356020612bf5612b3283612bb0565b82815260059290921b84018101918181019086841115612c1457600080fd5b8286015b84811015612c2f5780358352918301918301612c18565b509695505050505050565b80356001600160a01b0381168114612c5157600080fd5b919050565b600082601f830112612c6757600080fd5b81356020612c77612b3283612bb0565b82815260059290921b84018101918181019086841115612c9657600080fd5b8286015b84811015612c2f57803567ffffffffffffffff811115612cba5760008081fd5b612cc88986838b0101612b13565b845250918301918301612c9a565b60008060008060808587031215612cec57600080fd5b843567ffffffffffffffff80821115612d0457600080fd5b612d1088838901612bd4565b9550602091508187013581811115612d2757600080fd5b8701601f81018913612d3857600080fd5b8035612d46612b3282612bb0565b81815260059190911b8201840190848101908b831115612d6557600080fd5b928501925b82841015612d8a57612d7b84612c3a565b82529285019290850190612d6a565b97505050506040870135915080821115612da357600080fd5b612daf88838901612bd4565b93506060870135915080821115612dc557600080fd5b50612dd287828801612c56565b91505092959194509250565b60005b83811015612df9578181015183820152602001612de1565b83811115610d1d5750506000910152565b60008151808452612e22816020860160208601612dde565b601f01601f19169290920160200192915050565b6000602080830181845280855180835260408601915060408160051b870101925083870160005b82811015612e8b57603f19888603018452612e79858351612e0a565b94509285019290850190600101612e5d565b5092979650505050505050565b60008060008060808587031215612eae57600080fd5b84359350612ebe60208601612c3a565b925060408501359150606085013567ffffffffffffffff811115612ee157600080fd5b612dd287828801612b13565b6020815260006113786020830184612e0a565b600060208284031215612f1257600080fd5b5035919050565b60008060208385031215612f2c57600080fd5b823567ffffffffffffffff80821115612f4457600080fd5b818501915085601f830112612f5857600080fd5b813581811115612f6757600080fd5b8660208260051b8501011115612f7c57600080fd5b60209290920196919550909350505050565b600080600060408486031215612fa357600080fd5b83359250602084013567ffffffffffffffff80821115612fc257600080fd5b818601915086601f830112612fd657600080fd5b813581811115612fe557600080fd5b876020828501011115612ff757600080fd5b6020830194508093505050509250925092565b6000806040838503121561301d57600080fd5b823567ffffffffffffffff8082111561303557600080fd5b61304186838701612bd4565b9350602085013591508082111561305757600080fd5b50612ba685828601612c56565b60006020828403121561307657600080fd5b61137882612c3a565b60006020828403121561309157600080fd5b813567ffffffffffffffff8111156130a857600080fd5b6107e584828501612bd4565b8281526040602082015260006107e56040830184612e0a565b600082516130df818460208701612dde565b9190910192915050565b6000602082840312156130fb57600080fd5b5051919050565b634e487b7160e01b600052602160045260246000fd5b634e487b7160e01b600052603260045260246000fd5b6000808335601e1984360301811261314557600080fd5b83018035915067ffffffffffffffff82111561316057600080fd5b6020019150368190038213156113bd57600080fd5b8183823760009101908152919050565b805160208201516bffffffffffffffffffffffff1980821692919060148310156131b95780818460140360031b1b83161693505b505050919050565b6040815260006131d46040830185612e0a565b82810360208401526116ed8185612e0a565b81835281816020850137506000828201602090810191909152601f909101601f19169091010190565b6040815260006132236040830185876131e6565b82810360208401526122cb8185612e0a565b6001600160a01b03851681528360208201526060604082015260006122cb6060830184866131e6565b60006020828403121561327057600080fd5b815161137881612a71565b82151581526040602082015260006107e56040830184612e0a565b6bffffffffffffffffffffffff198560601b16815283601482015281836034830137600091016034019081529392505050565b600181811c908216806132dd57607f821691505b60208210810361103257634e487b7160e01b600052602260045260246000fd5b8381526040602082015260006116ed6040830184866131e6565b60008451613329818460208901612dde565b60609490941b6bffffffffffffffffffffffff191691909301908152601481019190915260340192915050565b60006020828403121561336857600080fd5b815167ffffffffffffffff81111561337f57600080fd5b8201601f8101841361339057600080fd5b805161339e612b3282612aeb565b8181528560208385010111156133b357600080fd5b6116ed826020830160208601612dde565b805160208083015191908110156110325760001960209190910360031b1b16919050565b634e487b7160e01b600052601160045260246000fd5b60008219821115613411576134116133e8565b500190565b601f82111561049557600081815260208120601f850160051c8101602086101561343d5750805b601f850160051c820191505b8181101561345c57828155600101613449565b505050505050565b815167ffffffffffffffff81111561347e5761347e612aa4565b6134928161348c84546132c9565b84613416565b602080601f8311600181146134c757600084156134af5750858301515b600019600386901b1c1916600185901b17855561345c565b600085815260208120601f198616915b828110156134f6578886015182559484019460019091019084016134d7565b50858210156135145787850151600019600388901b60f8161c191681555b5050505050600190811b01905550565b6000815160208301516001600160e01b0319808216935060048310156131b95760049290920360031b82901b161692915050565b60008282101561356a5761356a6133e8565b50039056fea26469706673582212201c91e9cf558a2dc455d4ec659f78c625ea01dc988afff7dbab879cb564a0e4a464736f6c634300080f0033",
  "linkReferences": {},
  "deployedLinkReferences": {}
}