{
  "_format": "hh-sol-artifact-1",
  "contractName": "LSP1UniversalReceiverDelegateVault",
  "sourceName": "contracts/LSP1UniversalReceiver/LSP1UniversalReceiverDelegateVault/LSP1UniversalReceiverDelegateVault.sol",
  "abi": [
    {
      "inputs": [
        {
          "internalType": "address",
          "name": "caller",
          "type": "address"
        }
      ],
      "name": "CannotRegisterEOAsAsAssets",
      "type": "error"
    },
    {
      "inputs": [
        {
          "internalType": "bytes",
          "name": "invalidValueStored",
          "type": "bytes"
        },
        {
          "internalType": "uint256",
          "name": "invalidValueLength",
          "type": "uint256"
        }
      ],
      "name": "InvalidLSP5ReceivedAssetsArrayLength",
      "type": "error"
    },
    {
      "inputs": [
        {
          "internalType": "address",
          "name": "notRegisteredAsset",
          "type": "address"
        }
      ],
      "name": "MaxLSP5ReceivedAssetsCountReached",
      "type": "error"
    },
    {
      "inputs": [],
      "name": "NativeTokensNotAccepted",
      "type": "error"
    },
    {
      "inputs": [
        {
          "internalType": "uint256",
          "name": "index",
          "type": "uint256"
        }
      ],
      "name": "ReceivedAssetsIndexSuperiorToUint128",
      "type": "error"
    },
    {
      "anonymous": false,
      "inputs": [
        {
          "indexed": true,
          "internalType": "address",
          "name": "from",
          "type": "address"
        },
        {
          "indexed": true,
          "internalType": "uint256",
          "name": "value",
          "type": "uint256"
        },
        {
          "indexed": true,
          "internalType": "bytes32",
          "name": "typeId",
          "type": "bytes32"
        },
        {
          "indexed": false,
          "internalType": "bytes",
          "name": "receivedData",
          "type": "bytes"
        },
        {
          "indexed": false,
          "internalType": "bytes",
          "name": "returnedValue",
          "type": "bytes"
        }
      ],
      "name": "UniversalReceiver",
      "type": "event"
    },
    {
      "inputs": [
        {
          "internalType": "bytes4",
          "name": "interfaceId",
          "type": "bytes4"
        }
      ],
      "name": "supportsInterface",
      "outputs": [
        {
          "internalType": "bool",
          "name": "",
          "type": "bool"
        }
      ],
      "stateMutability": "view",
      "type": "function"
    },
    {
      "inputs": [
        {
          "internalType": "bytes32",
          "name": "typeId",
          "type": "bytes32"
        },
        {
          "internalType": "bytes",
          "name": "",
          "type": "bytes"
        }
      ],
      "name": "universalReceiver",
      "outputs": [
        {
          "internalType": "bytes",
          "name": "result",
          "type": "bytes"
        }
      ],
      "stateMutability": "payable",
      "type": "function"
    }
  ],
  "bytecode": "0x608060405234801561001057600080fd5b5061192b806100206000396000f3fe6080604052600436106100295760003560e01c806301ffc9a71461002e5780636bb56a1414610063575b600080fd5b34801561003a57600080fd5b5061004e6100493660046113f4565b610083565b60405190151581526020015b60405180910390f35b610076610071366004611494565b6100ec565b60405161005a919061157a565b60006001600160e01b031982167f6bb56a140000000000000000000000000000000000000000000000000000000014806100e657507f01ffc9a7000000000000000000000000000000000000000000000000000000006001600160e01b03198316145b92915050565b60603415610126576040517f114b721a00000000000000000000000000000000000000000000000000000000815260040160405180910390fd5b600080366101356034826115a3565b6101409282906115ba565b610149916115e4565b60601c905060008060008061015d88610658565b9350935093509350838061018157506001600160e01b031982166314578bf360e11b145b156101c8576040518060400160405280601981526020017f4c5350313a20747970654964206f7574206f662073636f706500000000000000815250955050505050506100e6565b326001600160a01b0386160361021a576040517fa52953450000000000000000000000000000000000000000000000000000000081526001600160a01b03861660048201526024015b60405180910390fd5b6000610229848760601b610886565b6040516354f6127f60e01b81526004810182905290915060009033906354f6127f90602401600060405180830381865afa15801561026b573d6000803e3d6000fd5b505050506040513d6000823e601f3d908101601f191682016040526102939190810190611619565b905060608084156104215760006102a984611690565b6bffffffffffffffffffffffff1916146102e6576040518060600160405280602981526020016118cd6029913999505050505050505050506100e6565b6001600160a01b0389163b156103b4576040516370a0823160e01b81523360048201526000906001600160a01b038b16906370a0823190602401602060405180830381865afa15801561033d573d6000803e3d6000fd5b505050506040513d601f19601f8201168201806040525081019061036191906116cc565b9050806000036103b2576040518060400160405280601981526020017f4c5350313a2062616c616e6365206e6f742075706461746564000000000000008152509a50505050505050505050506100e6565b505b6103c0338a86896108f8565b604051639790242160e01b8152919350915033906397902421906103ea90859085906004016116e5565b600060405180830381600087803b15801561040457600080fd5b505af1158015610418573d6000803e3d6000fd5b50505050610649565b600061042c84611690565b6bffffffffffffffffffffffff191603610469576040518060600160405280602281526020016118ab6022913999505050505050505050506100e6565b6040516370a0823160e01b81523360048201526000906001600160a01b038b16906370a0823190602401602060405180830381865afa1580156104b0573d6000803e3d6000fd5b505050506040513d601f19601f820116820180604052508101906104d491906116cc565b90508015610523576040518060400160405280601e81526020017f4c5350313a2066756c6c2062616c616e6365206973206e6f742073656e7400008152509a50505050505050505050506100e6565b601484511015610574576040518060400160405280601a81526020017f4c5350313a206173736574206461746120636f727275707465640000000000008152509a50505050505050505050506100e6565b600061057f85611690565b60601c905061058f338783610bcc565b815191955093501580156105a257508251155b156105ef576040518060400160405280601a81526020017f4c5350313a206173736574206461746120636f727275707465640000000000008152509b5050505050505050505050506100e6565b604051639790242160e01b8152339063979024219061061490879087906004016116e5565b600060405180830381600087803b15801561062e57600080fd5b505af1158015610642573d6000803e3d6000fd5b5050505050505b50505050505050505092915050565b60008080807f429ac7a06903dbc9c13dfcb3c9d11df8194581fa047c96d7a4171fc7402958ea8514806106aa57507f20804611b3e2ea21c480dc465142210acf4a2485947541770ec1fb87dee4a55c85145b1561071a5769812c4334633eb816c80d60b01b92507fda1f85e40000000000000000000000000000000000000000000000000000000091507f20804611b3e2ea21c480dc465142210acf4a2485947541770ec1fb87dee4a55c8514610710576000610713565b60015b905061087f565b7fb23eae7e6d1564b295b4c3e3be402d9a2f0776c57bdf365903496f6fa481ab0085148061076757507f0b084a55ebf70fd3c06fd755269dac2212c4d3f0f4d09079780bfa50c1b2984d85145b156107cd5769812c4334633eb816c80d60b01b92507f622e7a010000000000000000000000000000000000000000000000000000000091507f0b084a55ebf70fd3c06fd755269dac2212c4d3f0f4d09079780bfa50c1b2984d8514610710576000610713565b7f0c622e58e6b7089ae35f1af1c86d997be92fcdd8c9509652022d41aa6516947185148061081a57507f79855c97dbc259ce395421d933d7bc0699b0f1561f988f09a9e8633fd542fe5c85145b1561087a577f192448c3c0f88c7f238c0000000000000000000000000000000000000000000092506314578bf360e11b91507f79855c97dbc259ce395421d933d7bc0699b0f1561f988f09a9e8633fd542fe5c8514610710576000610713565b600193505b9193509193565b604080517fffffffffffffffffffff00000000000000000000000000000000000000000000841660208201526000602a82018190526bffffffffffffffffffffffff198416602c830152918291015b6040516020818303038152906040529050806108f09061177d565b949350505050565b604080516003808252608082019092526060918291906020820183803683370190505060408051600380825260808201909252919350816020015b606081526020019060019003908161093357905050905085600061095682611212565b9050805160001415801561096c57508051601014155b1561098e578051604051631d974f5f60e31b81526102119183916004016117a4565b6000610999826117c6565b60801c90507fffffffffffffffffffffffffffffffff000000000000000000000000000000018101610a02576040517f0b51a2d00000000000000000000000000000000000000000000000000000000081526001600160a01b0389166004820152602401610211565b7f6460ee3c0aac563ccbf76d6e1d07bada78e3a9514e6382b736ed3f478ab7b90b60001b85600081518110610a3957610a396117fa565b6020908102919091010152610a4f816001611810565b60801b604051602001610a7291906001600160801b031991909116815260100190565b60405160208183030381529060405284600081518110610a9457610a946117fa565b6020908102919091010152610ac97f6460ee3c0aac563ccbf76d6e1d07bada78e3a9514e6382b736ed3f478ab7b90b826112a1565b85600181518110610adc57610adc6117fa565b6020026020010181815250508760601b604051602001610b1191906bffffffffffffffffffffffff1991909116815260140190565b60405160208183030381529060405284600181518110610b3357610b336117fa565b60200260200101819052508685600281518110610b5257610b526117fa565b602002602001018181525050858160801b604051602001610b939291906001600160e01b03199290921682526001600160801b031916600482015260140190565b60405160208183030381529060405284600281518110610bb557610bb56117fa565b602002602001018190525050505094509492505050565b606080846000610bdb82611212565b90508051601014610c03578051604051631d974f5f60e31b81526102119183916004016117a4565b6000610c0e826117c6565b60801c90506000610c2060018361183b565b90506000610c4e7f6460ee3c0aac563ccbf76d6e1d07bada78e3a9514e6382b736ed3f478ab7b90b896112a1565b9050816001600160801b0316886001600160801b031603610dec576040805160038082526080820190925290602082016060803683370190505060408051600380825260808201909252919850816020015b6060815260200190600190039081610ca05790505095507f6460ee3c0aac563ccbf76d6e1d07bada78e3a9514e6382b736ed3f478ab7b90b60001b87600081518110610cee57610cee6117fa565b6020026020010181815250508160801b604051602001610d1e91906001600160801b031991909116815260100190565b60405160208183030381529060405286600081518110610d4057610d406117fa565b60200260200101819052508087600181518110610d5f57610d5f6117fa565b6020026020010181815250506040518060200160405280600081525086600181518110610d8e57610d8e6117fa565b60200260200101819052508887600281518110610dad57610dad6117fa565b6020026020010181815250506040518060200160405280600081525086600281518110610ddc57610ddc6117fa565b6020026020010181905250611204565b816001600160801b0316886001600160801b031610156111fa5760408051600580825260c08201909252906020820160a0803683370190505060408051600580825260c08201909252919850816020015b6060815260200190600190039081610e3d5790505095507f6460ee3c0aac563ccbf76d6e1d07bada78e3a9514e6382b736ed3f478ab7b90b60001b87600081518110610e8b57610e8b6117fa565b6020026020010181815250508160801b604051602001610ebb91906001600160801b031991909116815260100190565b60405160208183030381529060405286600081518110610edd57610edd6117fa565b60200260200101819052508887600181518110610efc57610efc6117fa565b6020026020010181815250506040518060200160405280600081525086600181518110610f2b57610f2b6117fa565b60209081029190910101526001600160801b0382811610610f83576040517fe8a4fba00000000000000000000000000000000000000000000000000000000081526001600160801b0383166004820152602401610211565b6000610faf7f6460ee3c0aac563ccbf76d6e1d07bada78e3a9514e6382b736ed3f478ab7b90b846112a1565b6040516354f6127f60e01b8152600481018290529091506000906001600160a01b038816906354f6127f90602401600060405180830381865afa158015610ffa573d6000803e3d6000fd5b505050506040513d6000823e601f3d908101601f191682016040526110229190810190611619565b61102b90611690565b9050600061104669812c4334633eb816c80d60b01b83610886565b6040516354f6127f60e01b8152600481018290529091506000906001600160a01b038a16906354f6127f90602401600060405180830381865afa158015611091573d6000803e3d6000fd5b505050506040513d6000823e601f3d908101601f191682016040526110b99190810190611619565b905060006110ca82600060046112cc565b9050858c6002815181106110e0576110e06117fa565b6020026020010181815250508360405160200161111291906bffffffffffffffffffffffff1991909116815260140190565b6040516020818303038152906040528b600281518110611134576111346117fa565b6020026020010181905250848c600381518110611153576111536117fa565b602002602001018181525050604051806020016040528060008152508b600381518110611182576111826117fa565b6020026020010181905250828c6004815181106111a1576111a16117fa565b602002602001018181525050808d60801b6040516020016111c3929190611863565b6040516020818303038152906040528b6004815181106111e5576111e56117fa565b60200260200101819052505050505050611204565b505050505061120a565b50505050505b935093915050565b6040516354f6127f60e01b81527f6460ee3c0aac563ccbf76d6e1d07bada78e3a9514e6382b736ed3f478ab7b90b60048201526060906001600160a01b038316906354f6127f90602401600060405180830381865afa158015611279573d6000803e3d6000fd5b505050506040513d6000823e601f3d908101601f191682016040526100e69190810190611619565b604080516001600160801b03198085166020830152608084901b1660308201526000918291016108d5565b6060816112da81601f611892565b10156113285760405162461bcd60e51b815260206004820152600e60248201527f736c6963655f6f766572666c6f770000000000000000000000000000000000006044820152606401610211565b6113328284611892565b845110156113825760405162461bcd60e51b815260206004820152601160248201527f736c6963655f6f75744f66426f756e64730000000000000000000000000000006044820152606401610211565b6060821580156113a157604051915060008252602082016040526113eb565b6040519150601f8416801560200281840101858101878315602002848b0101015b818310156113da5780518352602092830192016113c2565b5050858452601f01601f1916604052505b50949350505050565b60006020828403121561140657600080fd5b81356001600160e01b03198116811461141e57600080fd5b9392505050565b634e487b7160e01b600052604160045260246000fd5b604051601f8201601f1916810167ffffffffffffffff8111828210171561146457611464611425565b604052919050565b600067ffffffffffffffff82111561148657611486611425565b50601f01601f191660200190565b600080604083850312156114a757600080fd5b82359150602083013567ffffffffffffffff8111156114c557600080fd5b8301601f810185136114d657600080fd5b80356114e96114e48261146c565b61143b565b8181528660208385010111156114fe57600080fd5b816020840160208301376000602083830101528093505050509250929050565b60005b83811015611539578181015183820152602001611521565b83811115611548576000848401525b50505050565b6000815180845261156681602086016020860161151e565b601f01601f19169290920160200192915050565b60208152600061141e602083018461154e565b634e487b7160e01b600052601160045260246000fd5b6000828210156115b5576115b561158d565b500390565b600080858511156115ca57600080fd5b838611156115d757600080fd5b5050820193919092039150565b6bffffffffffffffffffffffff1981358181169160148510156116115780818660140360031b1b83161692505b505092915050565b60006020828403121561162b57600080fd5b815167ffffffffffffffff81111561164257600080fd5b8201601f8101841361165357600080fd5b80516116616114e48261146c565b81815285602083850101111561167657600080fd5b61168782602083016020860161151e565b95945050505050565b805160208201516bffffffffffffffffffffffff1980821692919060148310156116c45780818460140360031b1b83161693505b505050919050565b6000602082840312156116de57600080fd5b5051919050565b604080825283519082018190526000906020906060840190828701845b8281101561171e57815184529284019290840190600101611702565b50505083810382850152845180825282820190600581901b8301840187850160005b8381101561176e57601f1986840301855261175c83835161154e565b94870194925090860190600101611740565b50909998505050505050505050565b8051602080830151919081101561179e576000198160200360031b1b821691505b50919050565b6040815260006117b7604083018561154e565b90508260208301529392505050565b6000815160208301516001600160801b0319808216935060108310156116c45760109290920360031b82901b161692915050565b634e487b7160e01b600052603260045260246000fd5b60006001600160801b038083168185168083038211156118325761183261158d565b01949350505050565b60006001600160801b038381169083168181101561185b5761185b61158d565b039392505050565b6000835161187581846020880161151e565b6001600160801b0319939093169190920190815260100192915050565b600082198211156118a5576118a561158d565b50019056fe4c5350313a2061737365742073656e74206973206e6f7420726567697374657265645552443a20617373657420726563656976656420697320616c72656164792072656769737465726564a2646970667358221220f0a343ac1d758180b07077cf1d02c2f3641a6d74bcffd8ee1fa8c7e4afcf8c2c64736f6c634300080f0033",
  "linkReferences": {},
  "deployedLinkReferences": {}
}