{
  "_format": "hh-sol-artifact-1",
  "contractName": "LSP16UniversalFactory",
  "sourceName": "contracts/LSP16UniversalFactory/LSP16UniversalFactory.sol",
  "abi": [
    {
      "inputs": [],
      "name": "CannotInitializeContract",
      "type": "error"
    },
    {
      "inputs": [],
      "name": "InvalidMsgValueDistribution",
      "type": "error"
    },
    {
      "anonymous": false,
      "inputs": [
        {
          "indexed": true,
          "internalType": "address",
          "name": "contractCreated",
          "type": "address"
        },
        {
          "indexed": true,
          "internalType": "bytes32",
          "name": "providedSalt",
          "type": "bytes32"
        },
        {
          "indexed": true,
          "internalType": "bool",
          "name": "initializable",
          "type": "bool"
        },
        {
          "indexed": false,
          "internalType": "bytes",
          "name": "initializeCalldata",
          "type": "bytes"
        }
      ],
      "name": "ContractCreated",
      "type": "event"
    },
    {
      "inputs": [
        {
          "internalType": "bytes32",
          "name": "byteCodeHash",
          "type": "bytes32"
        },
        {
          "internalType": "bytes32",
          "name": "providedSalt",
          "type": "bytes32"
        },
        {
          "internalType": "bool",
          "name": "initializable",
          "type": "bool"
        },
        {
          "internalType": "bytes",
          "name": "initializeCallData",
          "type": "bytes"
        }
      ],
      "name": "calculateAddress",
      "outputs": [
        {
          "internalType": "address",
          "name": "",
          "type": "address"
        }
      ],
      "stateMutability": "view",
      "type": "function"
    },
    {
      "inputs": [
        {
          "internalType": "address",
          "name": "baseContract",
          "type": "address"
        },
        {
          "internalType": "bytes32",
          "name": "providedSalt",
          "type": "bytes32"
        },
        {
          "internalType": "bool",
          "name": "initializable",
          "type": "bool"
        },
        {
          "internalType": "bytes",
          "name": "initializeCallData",
          "type": "bytes"
        }
      ],
      "name": "calculateProxyAddress",
      "outputs": [
        {
          "internalType": "address",
          "name": "",
          "type": "address"
        }
      ],
      "stateMutability": "view",
      "type": "function"
    },
    {
      "inputs": [
        {
          "internalType": "bytes",
          "name": "byteCode",
          "type": "bytes"
        },
        {
          "internalType": "bytes32",
          "name": "providedSalt",
          "type": "bytes32"
        }
      ],
      "name": "deployCreate2",
      "outputs": [
        {
          "internalType": "address",
          "name": "",
          "type": "address"
        }
      ],
      "stateMutability": "payable",
      "type": "function"
    },
    {
      "inputs": [
        {
          "internalType": "bytes",
          "name": "byteCode",
          "type": "bytes"
        },
        {
          "internalType": "bytes32",
          "name": "providedSalt",
          "type": "bytes32"
        },
        {
          "internalType": "bytes",
          "name": "initializeCalldata",
          "type": "bytes"
        },
        {
          "internalType": "uint256",
          "name": "constructorMsgValue",
          "type": "uint256"
        },
        {
          "internalType": "uint256",
          "name": "initializeCalldataMsgValue",
          "type": "uint256"
        }
      ],
      "name": "deployCreate2Init",
      "outputs": [
        {
          "internalType": "address",
          "name": "",
          "type": "address"
        }
      ],
      "stateMutability": "payable",
      "type": "function"
    },
    {
      "inputs": [
        {
          "internalType": "address",
          "name": "baseContract",
          "type": "address"
        },
        {
          "internalType": "bytes32",
          "name": "providedSalt",
          "type": "bytes32"
        }
      ],
      "name": "deployCreate2Proxy",
      "outputs": [
        {
          "internalType": "address",
          "name": "",
          "type": "address"
        }
      ],
      "stateMutability": "nonpayable",
      "type": "function"
    },
    {
      "inputs": [
        {
          "internalType": "address",
          "name": "baseContract",
          "type": "address"
        },
        {
          "internalType": "bytes32",
          "name": "providedSalt",
          "type": "bytes32"
        },
        {
          "internalType": "bytes",
          "name": "initializeCalldata",
          "type": "bytes"
        }
      ],
      "name": "deployCreate2ProxyInit",
      "outputs": [
        {
          "internalType": "address",
          "name": "",
          "type": "address"
        }
      ],
      "stateMutability": "payable",
      "type": "function"
    },
    {
      "inputs": [
        {
          "internalType": "bool",
          "name": "initializable",
          "type": "bool"
        },
        {
          "internalType": "bytes",
          "name": "initializeCallData",
          "type": "bytes"
        },
        {
          "internalType": "bytes32",
          "name": "providedSalt",
          "type": "bytes32"
        }
      ],
      "name": "generateSalt",
      "outputs": [
        {
          "internalType": "bytes32",
          "name": "",
          "type": "bytes32"
        }
      ],
      "stateMutability": "pure",
      "type": "function"
    }
  ],
  "bytecode": "0x608060405234801561001057600080fd5b50610d50806100206000396000f3fe6080604052600436106100705760003560e01c8063602dcc961161004e578063602dcc96146100d85780637cdf3c5a146101065780638d23bbe114610126578063cace0e471461014657600080fd5b8063267363551461007557806343c329ae146100a55780635f4ed88f146100b8575b600080fd5b61008861008336600461091c565b610159565b6040516001600160a01b0390911681526020015b60405180910390f35b6100886100b3366004610984565b61021e565b3480156100c457600080fd5b506100886100d33660046109ee565b610338565b3480156100e457600080fd5b506100f86100f3366004610a73565b6103e4565b60405190815260200161009c565b34801561011257600080fd5b50610088610121366004610b3e565b61043b565b34801561013257600080fd5b50610088610141366004610b68565b6104c8565b610088610154366004610b97565b610519565b600080610177600060405180602001604052806000815250856103e4565b905060006101bc348388888080601f0160208091040260200160405190810160405280939291908181526020018383808284376000920191909152506106b092505050565b90506000151584826001600160a01b03167fc587425c92859c27d4383bf2eb0ab8ea1670c48039f8d6375b9947b82a20f7466040518060200160405280600081525060405161020b9190610c50565b60405180910390a49150505b9392505050565b600080610264600185858080601f0160208091040260200160405190810160405280939291908181526020018383808284376000920191909152508a92506103e4915050565b9050600061027287836107b9565b90506001151586826001600160a01b03167fc587425c92859c27d4383bf2eb0ab8ea1670c48039f8d6375b9947b82a20f74688886040516102b4929190610c83565b60405180910390a4600080826001600160a01b03163488886040516102da929190610cb2565b60006040518083038185875af1925050503d8060008114610317576040519150601f19603f3d011682016040523d82523d6000602084013e61031c565b606091505b509150915061032b8282610856565b5090979650505050505050565b60008061037d8585858080601f0160208091040260200160405190810160405280939291908181526020018383808284376000920191909152508b92506103e4915050565b6040513060388201526f5af43d82803e903d91602b57fd5bf3ff602482015260148101899052733d602d80600a3d3981f3363d3d373d3d3d363d738152605881018290526037600c820120607882015260556043909101209091505b979650505050505050565b6000831561041e5783838360405160200161040193929190610cc2565b604051602081830303815290604052805190602001209050610217565b60405184151560f81b602082015260218101839052604101610401565b600080610459600060405180602001604052806000815250856103e4565b9050600061046785836107b9565b90506000151584826001600160a01b03167fc587425c92859c27d4383bf2eb0ab8ea1670c48039f8d6375b9947b82a20f746604051806020016040528060008152506040516104b69190610c50565b60405180910390a49150505b92915050565b60008061050d8585858080601f0160208091040260200160405190810160405280939291908181526020018383808284376000920191909152508b92506103e4915050565b90506103d981886108a1565b6000346105268385610cf4565b1461055d576040517f0204548400000000000000000000000000000000000000000000000000000000815260040160405180910390fd5b60006105a2600187878080601f0160208091040260200160405190810160405280939291908181526020018383808284376000920191909152508c92506103e4915050565b905060006105e785838c8c8080601f0160208091040260200160405190810160405280939291908181526020018383808284376000920191909152506106b092505050565b90506001151588826001600160a01b03167fc587425c92859c27d4383bf2eb0ab8ea1670c48039f8d6375b9947b82a20f7468a8a604051610629929190610c83565b60405180910390a4600080826001600160a01b0316868a8a60405161064f929190610cb2565b60006040518083038185875af1925050503d806000811461068c576040519150601f19603f3d011682016040523d82523d6000602084013e610691565b606091505b50915091506106a08282610856565b50909a9950505050505050505050565b6000834710156107075760405162461bcd60e51b815260206004820152601d60248201527f437265617465323a20696e73756666696369656e742062616c616e636500000060448201526064015b60405180910390fd5b81516000036107585760405162461bcd60e51b815260206004820181905260248201527f437265617465323a2062797465636f6465206c656e677468206973207a65726f60448201526064016106fe565b8282516020840186f590506001600160a01b0381166102175760405162461bcd60e51b815260206004820152601960248201527f437265617465323a204661696c6564206f6e206465706c6f790000000000000060448201526064016106fe565b6000763d602d80600a3d3981f3363d3d373d3d3d363d730000008360601b60e81c176000526e5af43d82803e903d91602b57fd5bf38360781b1760205281603760096000f590506001600160a01b0381166104c25760405162461bcd60e51b815260206004820152601760248201527f455243313136373a2063726561746532206661696c656400000000000000000060448201526064016106fe565b8161089d5780511561086b5780518082602001fd5b6040517f068c2f1700000000000000000000000000000000000000000000000000000000815260040160405180910390fd5b5050565b60006102178383306000604051836040820152846020820152828152600b8101905060ff815360559020949350505050565b60008083601f8401126108e557600080fd5b50813567ffffffffffffffff8111156108fd57600080fd5b60208301915083602082850101111561091557600080fd5b9250929050565b60008060006040848603121561093157600080fd5b833567ffffffffffffffff81111561094857600080fd5b610954868287016108d3565b909790965060209590950135949350505050565b80356001600160a01b038116811461097f57600080fd5b919050565b6000806000806060858703121561099a57600080fd5b6109a385610968565b935060208501359250604085013567ffffffffffffffff8111156109c657600080fd5b6109d2878288016108d3565b95989497509550505050565b8035801515811461097f57600080fd5b600080600080600060808688031215610a0657600080fd5b610a0f86610968565b945060208601359350610a24604087016109de565b9250606086013567ffffffffffffffff811115610a4057600080fd5b610a4c888289016108d3565b969995985093965092949392505050565b634e487b7160e01b600052604160045260246000fd5b600080600060608486031215610a8857600080fd5b610a91846109de565b9250602084013567ffffffffffffffff80821115610aae57600080fd5b818601915086601f830112610ac257600080fd5b813581811115610ad457610ad4610a5d565b604051601f8201601f19908116603f01168101908382118183101715610afc57610afc610a5d565b81604052828152896020848701011115610b1557600080fd5b826020860160208301376000602084830101528096505050505050604084013590509250925092565b60008060408385031215610b5157600080fd5b610b5a83610968565b946020939093013593505050565b600080600080600060808688031215610b8057600080fd5b8535945060208601359350610a24604087016109de565b600080600080600080600060a0888a031215610bb257600080fd5b873567ffffffffffffffff80821115610bca57600080fd5b610bd68b838c016108d3565b909950975060208a0135965060408a0135915080821115610bf657600080fd5b50610c038a828b016108d3565b989b979a5095989597966060870135966080013595509350505050565b60005b83811015610c3b578181015183820152602001610c23565b83811115610c4a576000848401525b50505050565b6020815260008251806020840152610c6f816040850160208701610c20565b601f01601f19169190910160400192915050565b60208152816020820152818360408301376000818301604090810191909152601f909201601f19160101919050565b8183823760009101908152919050565b83151560f81b815260008351610cdf816001850160208801610c20565b60019201918201929092526021019392505050565b60008219821115610d1557634e487b7160e01b600052601160045260246000fd5b50019056fea2646970667358221220811dd569f09de59dab58fb9064a0c677f01df1d1f8ddd9722d0b2e519e52200e64736f6c634300080f0033",
  "linkReferences": {},
  "deployedLinkReferences": {}
}