{
  "_format": "hh-sol-artifact-1",
  "contractName": "LSP6KeyManagerInit",
  "sourceName": "contracts/LSP6KeyManager/LSP6KeyManagerInit.sol",
  "abi": [
    {
      "inputs": [],
      "stateMutability": "nonpayable",
      "type": "constructor"
    },
    {
      "inputs": [
        {
          "internalType": "bytes32",
          "name": "dataKey",
          "type": "bytes32"
        },
        {
          "internalType": "bytes",
          "name": "invalidValue",
          "type": "bytes"
        }
      ],
      "name": "AddressPermissionArrayIndexValueNotAnAddress",
      "type": "error"
    },
    {
      "inputs": [],
      "name": "BatchExecuteParamsLengthMismatch",
      "type": "error"
    },
    {
      "inputs": [],
      "name": "BatchExecuteRelayCallParamsLengthMismatch",
      "type": "error"
    },
    {
      "inputs": [],
      "name": "CallingKeyManagerNotAllowed",
      "type": "error"
    },
    {
      "inputs": [],
      "name": "CannotSendValueToSetData",
      "type": "error"
    },
    {
      "inputs": [],
      "name": "DelegateCallDisallowedViaKeyManager",
      "type": "error"
    },
    {
      "inputs": [],
      "name": "ERC725Y_DataKeysValuesLengthMismatch",
      "type": "error"
    },
    {
      "inputs": [
        {
          "internalType": "bytes4",
          "name": "invalidFunction",
          "type": "bytes4"
        }
      ],
      "name": "InvalidERC725Function",
      "type": "error"
    },
    {
      "inputs": [
        {
          "internalType": "bytes",
          "name": "allowedCallsValue",
          "type": "bytes"
        }
      ],
      "name": "InvalidEncodedAllowedCalls",
      "type": "error"
    },
    {
      "inputs": [
        {
          "internalType": "bytes",
          "name": "value",
          "type": "bytes"
        },
        {
          "internalType": "string",
          "name": "context",
          "type": "string"
        }
      ],
      "name": "InvalidEncodedAllowedERC725YDataKeys",
      "type": "error"
    },
    {
      "inputs": [],
      "name": "InvalidLSP6Target",
      "type": "error"
    },
    {
      "inputs": [
        {
          "internalType": "bytes",
          "name": "payload",
          "type": "bytes"
        }
      ],
      "name": "InvalidPayload",
      "type": "error"
    },
    {
      "inputs": [
        {
          "internalType": "address",
          "name": "signer",
          "type": "address"
        },
        {
          "internalType": "uint256",
          "name": "invalidNonce",
          "type": "uint256"
        },
        {
          "internalType": "bytes",
          "name": "signature",
          "type": "bytes"
        }
      ],
      "name": "InvalidRelayNonce",
      "type": "error"
    },
    {
      "inputs": [
        {
          "internalType": "address",
          "name": "from",
          "type": "address"
        }
      ],
      "name": "InvalidWhitelistedCall",
      "type": "error"
    },
    {
      "inputs": [
        {
          "internalType": "uint256",
          "name": "totalValues",
          "type": "uint256"
        },
        {
          "internalType": "uint256",
          "name": "msgValue",
          "type": "uint256"
        }
      ],
      "name": "LSP6BatchExcessiveValueSent",
      "type": "error"
    },
    {
      "inputs": [
        {
          "internalType": "uint256",
          "name": "totalValues",
          "type": "uint256"
        },
        {
          "internalType": "uint256",
          "name": "msgValue",
          "type": "uint256"
        }
      ],
      "name": "LSP6BatchInsufficientValueSent",
      "type": "error"
    },
    {
      "inputs": [
        {
          "internalType": "address",
          "name": "from",
          "type": "address"
        }
      ],
      "name": "NoCallsAllowed",
      "type": "error"
    },
    {
      "inputs": [
        {
          "internalType": "address",
          "name": "from",
          "type": "address"
        }
      ],
      "name": "NoERC725YDataKeysAllowed",
      "type": "error"
    },
    {
      "inputs": [
        {
          "internalType": "address",
          "name": "from",
          "type": "address"
        }
      ],
      "name": "NoPermissionsSet",
      "type": "error"
    },
    {
      "inputs": [
        {
          "internalType": "address",
          "name": "from",
          "type": "address"
        },
        {
          "internalType": "address",
          "name": "to",
          "type": "address"
        },
        {
          "internalType": "bytes4",
          "name": "selector",
          "type": "bytes4"
        }
      ],
      "name": "NotAllowedCall",
      "type": "error"
    },
    {
      "inputs": [
        {
          "internalType": "address",
          "name": "from",
          "type": "address"
        },
        {
          "internalType": "bytes32",
          "name": "disallowedKey",
          "type": "bytes32"
        }
      ],
      "name": "NotAllowedERC725YDataKey",
      "type": "error"
    },
    {
      "inputs": [
        {
          "internalType": "address",
          "name": "from",
          "type": "address"
        },
        {
          "internalType": "string",
          "name": "permission",
          "type": "string"
        }
      ],
      "name": "NotAuthorised",
      "type": "error"
    },
    {
      "inputs": [
        {
          "internalType": "bytes32",
          "name": "dataKey",
          "type": "bytes32"
        }
      ],
      "name": "NotRecognisedPermissionKey",
      "type": "error"
    },
    {
      "inputs": [],
      "name": "RelayCallBeforeStartTime",
      "type": "error"
    },
    {
      "inputs": [],
      "name": "RelayCallExpired",
      "type": "error"
    },
    {
      "anonymous": false,
      "inputs": [
        {
          "indexed": false,
          "internalType": "uint8",
          "name": "version",
          "type": "uint8"
        }
      ],
      "name": "Initialized",
      "type": "event"
    },
    {
      "anonymous": false,
      "inputs": [
        {
          "indexed": true,
          "internalType": "address",
          "name": "signer",
          "type": "address"
        },
        {
          "indexed": true,
          "internalType": "uint256",
          "name": "value",
          "type": "uint256"
        },
        {
          "indexed": true,
          "internalType": "bytes4",
          "name": "selector",
          "type": "bytes4"
        }
      ],
      "name": "VerifiedCall",
      "type": "event"
    },
    {
      "inputs": [
        {
          "internalType": "bytes",
          "name": "payload",
          "type": "bytes"
        }
      ],
      "name": "execute",
      "outputs": [
        {
          "internalType": "bytes",
          "name": "",
          "type": "bytes"
        }
      ],
      "stateMutability": "payable",
      "type": "function"
    },
    {
      "inputs": [
        {
          "internalType": "uint256[]",
          "name": "values",
          "type": "uint256[]"
        },
        {
          "internalType": "bytes[]",
          "name": "payloads",
          "type": "bytes[]"
        }
      ],
      "name": "executeBatch",
      "outputs": [
        {
          "internalType": "bytes[]",
          "name": "",
          "type": "bytes[]"
        }
      ],
      "stateMutability": "payable",
      "type": "function"
    },
    {
      "inputs": [
        {
          "internalType": "bytes",
          "name": "signature",
          "type": "bytes"
        },
        {
          "internalType": "uint256",
          "name": "nonce",
          "type": "uint256"
        },
        {
          "internalType": "uint256",
          "name": "validityTimestamps",
          "type": "uint256"
        },
        {
          "internalType": "bytes",
          "name": "payload",
          "type": "bytes"
        }
      ],
      "name": "executeRelayCall",
      "outputs": [
        {
          "internalType": "bytes",
          "name": "",
          "type": "bytes"
        }
      ],
      "stateMutability": "payable",
      "type": "function"
    },
    {
      "inputs": [
        {
          "internalType": "bytes[]",
          "name": "signatures",
          "type": "bytes[]"
        },
        {
          "internalType": "uint256[]",
          "name": "nonces",
          "type": "uint256[]"
        },
        {
          "internalType": "uint256[]",
          "name": "validityTimestamps",
          "type": "uint256[]"
        },
        {
          "internalType": "uint256[]",
          "name": "values",
          "type": "uint256[]"
        },
        {
          "internalType": "bytes[]",
          "name": "payloads",
          "type": "bytes[]"
        }
      ],
      "name": "executeRelayCallBatch",
      "outputs": [
        {
          "internalType": "bytes[]",
          "name": "",
          "type": "bytes[]"
        }
      ],
      "stateMutability": "payable",
      "type": "function"
    },
    {
      "inputs": [
        {
          "internalType": "address",
          "name": "from",
          "type": "address"
        },
        {
          "internalType": "uint128",
          "name": "channelId",
          "type": "uint128"
        }
      ],
      "name": "getNonce",
      "outputs": [
        {
          "internalType": "uint256",
          "name": "",
          "type": "uint256"
        }
      ],
      "stateMutability": "view",
      "type": "function"
    },
    {
      "inputs": [
        {
          "internalType": "address",
          "name": "target_",
          "type": "address"
        }
      ],
      "name": "initialize",
      "outputs": [],
      "stateMutability": "nonpayable",
      "type": "function"
    },
    {
      "inputs": [
        {
          "internalType": "bytes32",
          "name": "dataHash",
          "type": "bytes32"
        },
        {
          "internalType": "bytes",
          "name": "signature",
          "type": "bytes"
        }
      ],
      "name": "isValidSignature",
      "outputs": [
        {
          "internalType": "bytes4",
          "name": "magicValue",
          "type": "bytes4"
        }
      ],
      "stateMutability": "view",
      "type": "function"
    },
    {
      "inputs": [
        {
          "internalType": "address",
          "name": "caller",
          "type": "address"
        },
        {
          "internalType": "uint256",
          "name": "msgValue",
          "type": "uint256"
        },
        {
          "internalType": "bytes",
          "name": "data",
          "type": "bytes"
        }
      ],
      "name": "lsp20VerifyCall",
      "outputs": [
        {
          "internalType": "bytes4",
          "name": "",
          "type": "bytes4"
        }
      ],
      "stateMutability": "nonpayable",
      "type": "function"
    },
    {
      "inputs": [
        {
          "internalType": "bytes32",
          "name": "",
          "type": "bytes32"
        },
        {
          "internalType": "bytes",
          "name": "",
          "type": "bytes"
        }
      ],
      "name": "lsp20VerifyCallResult",
      "outputs": [
        {
          "internalType": "bytes4",
          "name": "",
          "type": "bytes4"
        }
      ],
      "stateMutability": "nonpayable",
      "type": "function"
    },
    {
      "inputs": [
        {
          "internalType": "bytes4",
          "name": "interfaceId",
          "type": "bytes4"
        }
      ],
      "name": "supportsInterface",
      "outputs": [
        {
          "internalType": "bool",
          "name": "",
          "type": "bool"
        }
      ],
      "stateMutability": "view",
      "type": "function"
    },
    {
      "inputs": [],
      "name": "target",
      "outputs": [
        {
          "internalType": "address",
          "name": "",
          "type": "address"
        }
      ],
      "stateMutability": "view",
      "type": "function"
    }
  ],
  "bytecode": "0x60806040523480156200001157600080fd5b506200001c62000022565b620000e4565b600054610100900460ff16156200008f5760405162461bcd60e51b815260206004820152602760248201527f496e697469616c697a61626c653a20636f6e747261637420697320696e697469604482015266616c697a696e6760c81b606482015260840160405180910390fd5b60005460ff9081161015620000e2576000805460ff191660ff9081179091556040519081527f7f26b83ff96e1f2b6a682f133852f6798a09c465da95921460cefb38474024989060200160405180910390a15b565b613f3b80620000f46000396000f3fe6080604052600436106100bc5760003560e01c8063a20856a511610074578063c4d66de81161004e578063c4d66de814610233578063d3fc45d314610255578063d4b839921461027557600080fd5b8063a20856a514610182578063b44581d9146101a2578063bf0176ff1461022057600080fd5b80631626ba7e116100a55780631626ba7e146101165780634c8a4e741461014f5780639bf04b111461016257600080fd5b806301ffc9a7146100c157806309c5eabe146100f6575b600080fd5b3480156100cd57600080fd5b506100e16100dc366004613341565b6102ac565b60405190151581526020015b60405180910390f35b6101096101043660046133ad565b61034b565b6040516100ed9190613447565b34801561012257600080fd5b5061013661013136600461351f565b61035f565b6040516001600160e01b031990911681526020016100ed565b61010961015d366004613566565b6103ee565b34801561016e57600080fd5b5061013661017d3660046135fb565b610408565b610195610190366004613749565b610580565b6040516100ed9190613834565b3480156101ae57600080fd5b506102126101bd366004613896565b6001600160a01b03821660009081526001602090815260408083206fffffffffffffffffffffffffffffffff851684529091529020546fffffffffffffffffffffffffffffffff19608083901b161792915050565b6040519081526020016100ed565b61019561022e3660046138e2565b610782565b34801561023f57600080fd5b5061025361024e366004613942565b610909565b005b34801561026157600080fd5b5061013661027036600461351f565b610a2b565b34801561028157600080fd5b506000546201000090046001600160a01b03166040516001600160a01b0390911681526020016100ed565b60006001600160e01b031982167f38bb3cdb0000000000000000000000000000000000000000000000000000000014806102f657506001600160e01b03198216630b135d3f60e11b145b8061032a57506001600160e01b031982167f480c0ec200000000000000000000000000000000000000000000000000000000145b8061034557506301ffc9a760e01b6001600160e01b03198316145b92915050565b6060610358348484610a7e565b9392505050565b600080600061036e8585610b89565b909250905060008160048111156103875761038761395d565b1461039f57506001600160e01b031991506103459050565b6000546103ca9062200000906103c4906201000090046001600160a01b031685610bce565b81161490565b6103dc576001600160e01b03196103e5565b630b135d3f60e11b5b95945050505050565b60606103fe868686348787610c7c565b9695505050505050565b600080631fc8da4360e21b61041d8486613973565b6001600160e01b031916148061044c5750639790242160e01b6104408486613973565b6001600160e01b031916145b15610455575060015b6000546201000090046001600160a01b031633036105175760006104798288610f25565b905061048787878787610f7d565b6104918486613973565b6001600160e01b03191686886001600160a01b03167fa54458b75709e42f79700ffb6cfc57c7e224d8a77a52c457ee7ecb8e2263628060405160405180910390a481806104db5750805b6104ec57639bf04b0160e01b61050e565b7f9bf04b00000000000000000000000000000000000000000000000000000000005b92505050610578565b600054600160b01b900460ff1680156105535760005461055390889061054c906201000090046001600160a01b031682610bce565b6080611220565b61055f87878787610f7d565b81806104db5750806104ec57639bf04b0160e01b61050e565b949350505050565b8851606090881415806105935750878614155b8061059e5750858414155b806105a95750838214155b156105e0576040517fb4d50d2100000000000000000000000000000000000000000000000000000000815260040160405180910390fd5b60008267ffffffffffffffff8111156105fb576105fb61345a565b60405190808252806020026020018201604052801561062e57816020015b60608152602001906001900390816106195790505b5090506000805b848110156107485734888883818110610650576106506139a3565b905060200201358361066291906139cf565b925082111561069257604051630c28c92b60e21b8152600481018390523460248201526044015b60405180910390fd5b6107238d82815181106106a7576106a76139a3565b60200260200101518d8d848181106106c1576106c16139a3565b905060200201358c8c858181106106da576106da6139a3565b905060200201358b8b868181106106f3576106f36139a3565b905060200201358a8a8781811061070c5761070c6139a3565b905060200281019061071e91906139e7565b610c7c565b838281518110610735576107356139a3565b6020908102919091010152600101610635565b50348110156107735760405163528c345b60e11b815260048101829052346024820152604401610689565b509a9950505050505050505050565b60608382146107bd576040517f55a187db00000000000000000000000000000000000000000000000000000000815260040160405180910390fd5b60008267ffffffffffffffff8111156107d8576107d861345a565b60405190808252806020026020018201604052801561080b57816020015b60608152602001906001900390816107f65790505b5090506000805b848110156108d4573488888381811061082d5761082d6139a3565b905060200201358361083f91906139cf565b925082111561086a57604051630c28c92b60e21b815260048101839052346024820152604401610689565b6108af88888381811061087f5761087f6139a3565b90506020020135878784818110610898576108986139a3565b90506020028101906108aa91906139e7565b610a7e565b8382815181106108c1576108c16139a3565b6020908102919091010152600101610812565b50348110156108ff5760405163528c345b60e11b815260048101829052346024820152604401610689565b5095945050505050565b600054610100900460ff16158080156109295750600054600160ff909116105b806109435750303b158015610943575060005460ff166001145b6109b55760405162461bcd60e51b815260206004820152602e60248201527f496e697469616c697a61626c653a20636f6e747261637420697320616c72656160448201527f647920696e697469616c697a65640000000000000000000000000000000000006064820152608401610689565b6000805460ff1916600117905580156109d8576000805461ff0019166101001790555b6109e182611230565b8015610a27576000805461ff0019169055604051600181527f7f26b83ff96e1f2b6a682f133852f6798a09c465da95921460cefb38474024989060200160405180910390a15b5050565b600080546201000090046001600160a01b03163303610a5657610a566000805460ff60b01b19169055565b507fd3fc45d30000000000000000000000000000000000000000000000000000000092915050565b60606004821015610aa6578282604051630d886ef360e21b8152600401610689929190613a2e565b6000631fc8da4360e21b610aba8486613973565b6001600160e01b0319161480610ae95750639790242160e01b610add8486613973565b6001600160e01b031916145b15610af2575060015b6000610afe8233610f25565b9050610b0c33878787610f7d565b610b168486613973565b6001600160e01b03191686336001600160a01b03167fa54458b75709e42f79700ffb6cfc57c7e224d8a77a52c457ee7ecb8e2263628060405160405180910390a46000610b64878787611334565b905081158015610b72575082155b156103fe576103fe6000805460ff60b01b19169055565b6000808251604103610bbf5760208301516040840151606085015160001a610bb38782858561141a565b94509450505050610bc7565b506000905060025b9250929050565b6000806001600160a01b0384166354f6127f610c0e7f4b80742de2bf82acb36300000000000000000000000000000000000000000000606087901b6114de565b6040518263ffffffff1660e01b8152600401610c2c91815260200190565b600060405180830381865afa158015610c49573d6000803e3d6000fd5b505050506040513d6000823e601f3d908101601f19168201604052610c719190810190613a5d565b905061057881613acb565b60606004821015610ca4578282604051630d886ef360e21b8152600401610689929190613a2e565b60006006468888888888604051602001610cc49796959493929190613af2565b60408051601f1981840301815291905290506000610cec89610ce63085611547565b9061157a565b90506000631fc8da4360e21b610d028688613973565b6001600160e01b0319161480610d315750639790242160e01b610d258688613973565b6001600160e01b031916145b15610d3a575060015b6000610d468284610f25565b6001600160a01b038416600090815260016020908152604080832060808f901c84529091529020549091506fffffffffffffffffffffffffffffffff8b1614610dc157828a8c6040517fc9bd9eb900000000000000000000000000000000000000000000000000000000815260040161068993929190613b28565b6001600160a01b038316600090815260016020908152604080832060808e901c84529091528120805491610df483613b50565b90915550508815610e8d57608089901c8942821115610e3e576040517ede4b8a00000000000000000000000000000000000000000000000000000000815260040160405180910390fd5b806fffffffffffffffffffffffffffffffff16421115610e8a576040517f5c53a98c00000000000000000000000000000000000000000000000000000000815260040160405180910390fd5b50505b610e9983898989610f7d565b610ea38688613973565b6001600160e01b03191688846001600160a01b03167fa54458b75709e42f79700ffb6cfc57c7e224d8a77a52c457ee7ecb8e2263628060405160405180910390a46000610ef1898989611334565b905081158015610eff575082155b15610f1657610f166000805460ff60b01b19169055565b9b9a5050505050505050505050565b600054600160b01b900460ff168015610f5f57600054610f5a90839061054c906201000090046001600160a01b031682610bce565b610345565b82610345576000805460ff60b01b1916600160b01b17905592915050565b60008054610f9a906201000090046001600160a01b031686610bce565b905080610fde576040517ff292052a0000000000000000000000000000000000000000000000000000000081526001600160a01b0386166004820152602401610689565b6000610fea8385613973565b90507f80dc96f4000000000000000000000000000000000000000000000000000000006001600160e01b031982160161108457841561103c576040516316694a7f60e21b815260040160405180910390fd5b60008061104c8560048189613b69565b810190611059919061351f565b600054919350915061107d906201000090046001600160a01b03168986858561159e565b5050611218565b7f686fdbdf000000000000000000000000000000000000000000000000000000006001600160e01b03198216016111155784156110d4576040516316694a7f60e21b815260040160405180910390fd5b6000806110e48560048189613b69565b8101906110f19190613b93565b600054919350915061107d906201000090046001600160a01b031689868585611613565b7fbb3fd702000000000000000000000000000000000000000000000000000000006001600160e01b031982160161116a57600054611165906201000090046001600160a01b031687848787611796565b611218565b6001600160e01b031981167ff2fde38b0000000000000000000000000000000000000000000000000000000014806111cb57506001600160e01b031981167f79ba509700000000000000000000000000000000000000000000000000000000145b156111da5761116586836118f8565b6040517f2ba8851c0000000000000000000000000000000000000000000000000000000081526001600160e01b031982166004820152602401610689565b505050505050565b61122b83838361192d565b505050565b600054610100900460ff166112ad5760405162461bcd60e51b815260206004820152602b60248201527f496e697469616c697a61626c653a20636f6e7472616374206973206e6f74206960448201527f6e697469616c697a696e670000000000000000000000000000000000000000006064820152608401610689565b6001600160a01b0381166112ed576040517ffc85457900000000000000000000000000000000000000000000000000000000815260040160405180910390fd5b6000805460ff60b01b19620100006001600160a01b03851602167fffffffffffffffffff000000000000000000000000000000000000000000ffff90911617905550565b50565b600080546060919081906201000090046001600160a01b0316865a908787604051611360929190613c42565b600060405180830381858888f193505050503d806000811461139e576040519150601f19603f3d011682016040523d82523d6000602084013e6113a3565b606091505b509150915060006113ea83836040518060400160405280601e81526020017f4c5350363a206661696c656420657865637574696e67207061796c6f61640000815250611960565b905080516000036113fb578061140f565b8080602001905181019061140f9190613a5d565b979650505050505050565b6000807f7fffffffffffffffffffffffffffffff5d576e7357a4501ddfe92f46681b20a083111561145157506000905060036114d5565b6040805160008082526020820180845289905260ff881692820192909252606081018690526080810185905260019060a0016020604051602081039080840390855afa1580156114a5573d6000803e3d6000fd5b5050604051601f1901519150506001600160a01b0381166114ce576000600192509250506114d5565b9150600090505b94509492505050565b604080517fffffffffffffffffffff00000000000000000000000000000000000000000000841660208201526000602a82018190526bffffffffffffffffffffffff198416602c8301529182910160405160208183030381529060405290508061057890613acb565b6000828260405160200161155c929190613c52565b60405160208183030381529060405280519060200120905092915050565b60008060006115898585610b89565b9150915061159681611979565b509392505050565b60006115ac86858585611ade565b90506203ffff1981016115f65762020000808516036115cb575061160c565b6115d9858562040000611220565b61116585846115f16001600160a01b038a1683611d53565b611df3565b80611601575061160c565b611218858583611220565b5050505050565b805182511461164e576040517f3bcc897900000000000000000000000000000000000000000000000000000000815260040160405180910390fd5b600080835167ffffffffffffffff81111561166b5761166b61345a565b604051908082528060200260200182016040528015611694578160200160208202803683370190505b509050600080805b6116da8a898984815181106116b3576116b36139a3565b60200260200101518985815181106116cd576116cd6139a3565b6020026020010151611ade565b91506203ffff1982016116f05760019450611733565b811561170157611701898984611220565b6001848281518110611715576117156139a3565b911515602092830291909101909101528261172f81613b50565b9350505b8060010190508651811061169c57841561178a57620200008089160361175d57505050505061160c565b61176b898962040000611220565b61178a89886117836001600160a01b038e1683611d53565b8787611f4a565b50505050505050505050565b6117a4608460648385613b69565b6117ad91613cb0565b6080146117d1578181604051630d886ef360e21b8152600401610689929190613a2e565b60006117e1602460048486613b69565b6117ea91613cb0565b905060006117fc604460308587613b69565b61180591613cce565b60601c9050308103611843576040517fa431b23600000000000000000000000000000000000000000000000000000000815260040160405180910390fd5b8161185c576118558787878787612185565b505061160c565b600182148061186b5750600282145b156118a0576000611880606460448688613b69565b61188991613cb0565b15159050611898878783612283565b50505061160c565b600382036118b5576118558787878787612308565b600482036118ef576040517f80d6ebae00000000000000000000000000000000000000000000000000000000815260040160405180910390fd5b50505050505050565b600180821614610a2757600061190e6001612334565b90508281604051631ded6b7360e11b8152600401610689929190613d01565b808216811461122b57600061194182612334565b90508381604051631ded6b7360e11b8152600401610689929190613d01565b6060831561196f575081610358565b6103588383612722565b600081600481111561198d5761198d61395d565b036119955750565b60018160048111156119a9576119a961395d565b036119f65760405162461bcd60e51b815260206004820152601860248201527f45434453413a20696e76616c6964207369676e617475726500000000000000006044820152606401610689565b6002816004811115611a0a57611a0a61395d565b03611a575760405162461bcd60e51b815260206004820152601f60248201527f45434453413a20696e76616c6964207369676e6174757265206c656e677468006044820152606401610689565b6003816004811115611a6b57611a6b61395d565b036113315760405162461bcd60e51b815260206004820152602260248201527f45434453413a20696e76616c6964207369676e6174757265202773272076616c60448201527f75650000000000000000000000000000000000000000000000000000000000006064820152608401610689565b60007f20cf245f92495cf19acab2659b39f67a000000000000000000000000000000006fffffffffffffffffffffffffffffffff19841601611b3457600684811614611b2c8685858461274c565b915050610578565b7fb47f8bd21d4100000000000000000000000000000000000000000000000000007fffffffffffff0000000000000000000000000000000000000000000000000000841601611c7d576006848116146001600160a01b031984167fb47f8bd21d407d534c9d0000000000000000000000000000000000000000000001611bce578015611bc4575060009050610578565b611b2c868561291b565b7fb47f8bd21d40c6c59b39000000000000000000000000000000000000000000006001600160a01b0319851601611c0b57611b2c868585846129ab565b7fb47f8bd21d407993d6ef000000000000000000000000000000000000000000006001600160a01b0319851601611c4857611b2c868585846129d5565b6040517f0f7d735b00000000000000000000000000000000000000000000000000000000815260048101859052602401610689565b7f0cfc51aec37c55a4d0b1a65c6255c4bf2fbdf6277f3cc0730c45b828b6db8b47831480611cd457506001600160a01b031983167f0cfc51aec37c55a4d0b100000000000000000000000000000000000000000000145b15611cfc57606080851603611ceb57506000610578565b611cf585846129ff565b9050610578565b7f311874bf6b2579feef6a000000000000000000000000000000000000000000006001600160a01b0319841601611d4957601880851603611d3f57506000610578565b611cf58584612a85565b5062040000610578565b60606001600160a01b0383166354f6127f611d907f4b80742de2bf866c29110000000000000000000000000000000000000000000085851b6114de565b6040518263ffffffff1660e01b8152600401611dae91815260200190565b600060405180830381865afa158015611dcb573d6000803e3d6000fd5b505050506040513d6000823e601f3d908101601f191682016040526103589190810190613a5d565b8051600003611e205760405163ed7fa50960e01b81526001600160a01b0384166004820152602401610689565b6000806000805b8451841015611f1f57848481518110611e4257611e426139a3565b01602001516001600160f81b03191685611e5d8660016139cf565b81518110611e6d57611e6d6139a3565b016020908101516040516001600160f81b031993841692810192909252919091166021820152602201604051602081830303815290604052611eae90613d23565b60f01c92506020831115611ed7578460405163ae6cbd3760e01b81526004016106899190613d73565b611ee2836020613dc5565b611eed906008613ddc565b8585016022015160001990911b908116925090508581168203611f135750505050505050565b92820160020192611e27565b60405163557ae07960e01b81526001600160a01b038816600482015260248101879052604401610689565b8251600003611f775760405163ed7fa50960e01b81526001600160a01b0386166004820152602401610689565b835160008080805b87518410156120ff57878481518110611f9a57611f9a6139a3565b01602001516001600160f81b03191688611fb58660016139cf565b81518110611fc557611fc56139a3565b016020908101516040516001600160f81b03199384169281019290925291909116602182015260220160405160208183030381529060405261200690613d23565b60f01c9250602083111561202f578760405163ae6cbd3760e01b81526004016106899190613d73565b61203a836020613dc5565b612045906008613ddc565b8885016022015160001990911b9081169250905060005b858110156120f257878181518110612076576120766139a3565b60200260200101511561208b5760010161205c565b82828b838151811061209f5761209f6139a3565b602002602001015116036120ea5760018882815181106120c1576120c16139a3565b91151560209283029190910190910152600180880197879003016120ea5750505050505061160c565b60010161205c565b5092820160020192611f7f565b60005b858110156121785787818151811061211c5761211c6139a3565b6020026020010151612170578a8a828151811061213b5761213b6139a3565b602090810291909101015160405163557ae07960e01b81526001600160a01b0390921660048301526024820152604401610689565b600101612102565b5050505050505050505050565b6000612195606460448486613b69565b61219e91613cb0565b1580159150610100858116149060a4841190610400808816149084906121c2575082155b156121d4576121d48888610200611220565b801580156121e0575081155b80156121ea575083155b156121fc576121fc8888610800611220565b818015612207575080155b15612219576122198888610800611220565b808015612224575083155b15612232575050505061160c565b82801561223d575081155b80156122465750835b15612254575050505061160c565b80801561225e5750825b1561226c575050505061160c565b61227889898888612b0b565b505050505050505050565b612291838362010000611220565b610100828116148180156122a3575080155b156123025760408051631ded6b7360e11b81526001600160a01b03861660048201526024810191909152601360448201527f53555045525f5452414e5346455256414c5545000000000000000000000000006064820152608401610689565b50505050565b61100083811614801561231b575061160c565b6123288585612000611220565b61121886868585612b0b565b6060600019820161237857505060408051808201909152601181527f5452414e534645524f574e455253484950000000000000000000000000000000602082015290565b60031982016123ba57505060408051808201909152600f81527f454449545045524d495353494f4e530000000000000000000000000000000000602082015290565b60011982016123fc57505060408051808201909152600d81527f414444434f4e54524f4c4c455200000000000000000000000000000000000000602082015290565b600719820161243e57505060408051808201909152600d81527f414444455854454e53494f4e5300000000000000000000000000000000000000602082015290565b600f19820161248057505060408051808201909152601081527f4348414e4745455854454e53494f4e5300000000000000000000000000000000602082015290565b601f1982016124c257505060408051808201909152601c81527f414444554e4956455253414c524543454956455244454c454741544500000000602082015290565b603f19820161250457505060408051808201909152601f81527f4348414e4745554e4956455253414c524543454956455244454c454741544500602082015290565b607f19820161254657505060408051808201909152600a81527f5245454e5452414e435900000000000000000000000000000000000000000000602082015290565b6203ffff19820161258a57505060408051808201909152600781527f5345544441544100000000000000000000000000000000000000000000000000602082015290565b6107ff1982016125cd57505060408051808201909152600481527f43414c4c00000000000000000000000000000000000000000000000000000000602082015290565b611fff19820161261057505060408051808201909152600a81527f53544154494343414c4c00000000000000000000000000000000000000000000602082015290565b617fff19820161265357505060408051808201909152600c81527f44454c454741544543414c4c0000000000000000000000000000000000000000602082015290565b61ffff19820161269657505060408051808201909152600681527f4445504c4f590000000000000000000000000000000000000000000000000000602082015290565b6101ff1982016126d957505060408051808201909152600d81527f5452414e5346455256414c554500000000000000000000000000000000000000602082015290565b621fffff19820161271d57505060408051808201909152600481527f5349474e00000000000000000000000000000000000000000000000000000000602082015290565b919050565b8151156127325781518083602001fd5b8060405162461bcd60e51b81526004016106899190613447565b60007f20cf245f92495cf19acab2659b39f679e0f76aba35a7394b241ce5a0cc734f1d840161283b57811561278357506000610578565b600061278e84613dfb565b60801c9050856001600160a01b03166354f6127f866040518263ffffffff1660e01b81526004016127c191815260200190565b600060405180830381865afa1580156127de573d6000803e3d6000fd5b505050506040513d6000823e601f3d908101601f191682016040526128069190810190613a5d565b61280f90613dfb565b60801c6fffffffffffffffffffffffffffffffff821611612831576004611b2c565b6002915050610578565b82511580159061284d57508251601414155b156128885783836040517f8f4afa38000000000000000000000000000000000000000000000000000000008152600401610689929190613e38565b811561289657506000610578565b6040516354f6127f60e01b8152600481018590526001600160a01b038616906354f6127f90602401600060405180830381865afa1580156128db573d6000803e3d6000fd5b505050506040513d6000823e601f3d908101601f191682016040526129039190810190613a5d565b51156129105760046103e5565b600295945050505050565b6040516354f6127f60e01b81526004810182905260009081906001600160a01b038516906354f6127f90602401600060405180830381865afa158015612965573d6000803e3d6000fd5b505050506040513d6000823e601f3d908101601f1916820160405261298d9190810190613a5d565b61299690613acb565b146129a2576004610358565b50600292915050565b60006129b683612cfe565b612888578260405163187e77ab60e01b81526004016106899190613447565b60006129e083612df4565b612888578260405163ae6cbd3760e01b81526004016106899190613e51565b6040516354f6127f60e01b8152600481018290526000906001600160a01b038416906354f6127f90602401600060405180830381865afa158015612a47573d6000803e3d6000fd5b505050506040513d6000823e601f3d908101601f19168201604052612a6f9190810190613a5d565b5115612a7c576040610358565b50602092915050565b6040516354f6127f60e01b8152600481018290526000906001600160a01b038416906354f6127f90602401600060405180830381865afa158015612acd573d6000803e3d6000fd5b505050506040513d6000823e601f3d908101601f19168201604052612af59190810190613a5d565b5115612b02576010610358565b50600892915050565b6000806000806000612b1d8787612eda565b9398509196509450925090506000612b3e6001600160a01b038b168a612fb9565b90508051600003612b86576040517f6cb605870000000000000000000000000000000000000000000000000000000081526001600160a01b038a166004820152602401610689565b6000612b93878685612ff6565b905060005b8251811015612ca8578251612bae8260226139cf565b1115612bcf578260405163187e77ab60e01b81526004016106899190613447565b6000612be784612be08460026139cf565b60206130a6565b905063ffffffff196020612bfa83613acb565b63ffffffff19911b1603612c45576040517f6fd203c50000000000000000000000000000000000000000000000000000000081526001600160a01b038d166004820152602401610689565b612c4f81846131ce565b8015612c605750612c6081896131f5565b8015612c715750612c718189613238565b8015612c825750612c828187613270565b15612c9557505050505050505050612302565b50612ca16022826139cf565b9050612b98565b506040517f45147bce0000000000000000000000000000000000000000000000000000000081526001600160a01b03808c166004830152871660248201526001600160e01b031985166044820152606401610689565b6000805b8251811015612dda578251612d188260016139cf565b10612d265750600092915050565b6000838281518110612d3a57612d3a6139a3565b01602001516001600160f81b03191684612d558460016139cf565b81518110612d6557612d656139a3565b016020908101516040516001600160f81b031993841692810192909252919091166021820152602201604051602081830303815290604052612da690613d23565b60f01c905060208114612dbd575060009392505050565b612dc88160026139cf565b612dd290836139cf565b915050612d02565b82518103612deb5750600192915050565b50600092915050565b6000805b8251811015612dda578251612e0e8260016139cf565b10612e1c5750600092915050565b6000838281518110612e3057612e306139a3565b01602001516001600160f81b03191684612e4b8460016139cf565b81518110612e5b57612e5b6139a3565b016020908101516040516001600160f81b031993841692810192909252919091166021820152602201604051602081830303815290604052612e9c90613d23565b60f01c9050801580612eae5750602081115b15612ebd575060009392505050565b612ec88160026139cf565b612ed290836139cf565b915050612df8565b60008080808080612eef60246004898b613b69565b612ef891613cb0565b90506000612f0a603060248a8c613b69565b612f1391613ea3565b6001600160a01b03191614612f3f578787604051630d886ef360e21b8152600401610689929190613a2e565b6000612f4f604460308a8c613b69565b612f5891613cce565b60601c90506000612f6d606460448b8d613b69565b612f7691613cb0565b9050600060a88a1015612f8a576000612fa1565b612f9860a860a48c8e613b69565b612fa191613973565b939b929a5090989297505060a4909114945092505050565b60606001600160a01b0383166354f6127f611d907f4b80742de2bf393a64c70000000000000000000000000000000000000000000085851b6114de565b6000821561301e577c0100000000000000000000000000000000000000000000000000000000175b81610358578361304c577c020000000000000000000000000000000000000000000000000000000017610358565b60038403613078577c040000000000000000000000000000000000000000000000000000000017610358565b60048403610358577c0800000000000000000000000000000000000000000000000000000000179392505050565b6060816130b481601f6139cf565b10156131025760405162461bcd60e51b815260206004820152600e60248201527f736c6963655f6f766572666c6f770000000000000000000000000000000000006044820152606401610689565b61310c82846139cf565b8451101561315c5760405162461bcd60e51b815260206004820152601160248201527f736c6963655f6f75744f66426f756e64730000000000000000000000000000006044820152606401610689565b60608215801561317b57604051915060008252602082016040526131c5565b6040519150601f8416801560200281840101858101878315602002848b0101015b818310156131b457805183526020928301920161319c565b5050858452601f01601f1916604052505b50949350505050565b6000806131da84613ed1565b83166001600160e01b03199081169084161491505092915050565b600080602061320385613acb565b901b60601c90506001600160a01b038114806105785750806001600160a01b0316836001600160a01b03161491505092915050565b60008060c061324685613acb565b901b90506001600160e01b0319808216148061057857506105786001600160a01b038416826132bc565b60008060e061327e85613acb565b901b90506001600160e01b031983811615159080831614806103e557508080156103e55750506001600160e01b031990811692169190911492915050565b604080516001600160e01b03198316602480830191909152825180830390910181526044909101909152602080820180516001600160e01b03166301ffc9a760e01b178152825160009392849283928392918391908a617530fa92503d9150600051905082801561332e575060208210155b801561140f575015159695505050505050565b60006020828403121561335357600080fd5b81356001600160e01b03198116811461035857600080fd5b60008083601f84011261337d57600080fd5b50813567ffffffffffffffff81111561339557600080fd5b602083019150836020828501011115610bc757600080fd5b600080602083850312156133c057600080fd5b823567ffffffffffffffff8111156133d757600080fd5b6133e38582860161336b565b90969095509350505050565b60005b8381101561340a5781810151838201526020016133f2565b838111156123025750506000910152565b600081518084526134338160208601602086016133ef565b601f01601f19169290920160200192915050565b602081526000610358602083018461341b565b634e487b7160e01b600052604160045260246000fd5b604051601f8201601f1916810167ffffffffffffffff811182821017156134995761349961345a565b604052919050565b600067ffffffffffffffff8211156134bb576134bb61345a565b50601f01601f191660200190565b600082601f8301126134da57600080fd5b81356134ed6134e8826134a1565b613470565b81815284602083860101111561350257600080fd5b816020850160208301376000918101602001919091529392505050565b6000806040838503121561353257600080fd5b82359150602083013567ffffffffffffffff81111561355057600080fd5b61355c858286016134c9565b9150509250929050565b60008060008060006080868803121561357e57600080fd5b853567ffffffffffffffff8082111561359657600080fd5b6135a289838a016134c9565b9650602088013595506040880135945060608801359150808211156135c657600080fd5b506135d38882890161336b565b969995985093965092949392505050565b80356001600160a01b038116811461271d57600080fd5b6000806000806060858703121561361157600080fd5b61361a856135e4565b935060208501359250604085013567ffffffffffffffff81111561363d57600080fd5b6136498782880161336b565b95989497509550505050565b600067ffffffffffffffff82111561366f5761366f61345a565b5060051b60200190565b600082601f83011261368a57600080fd5b8135602061369a6134e883613655565b82815260059290921b840181019181810190868411156136b957600080fd5b8286015b848110156136f957803567ffffffffffffffff8111156136dd5760008081fd5b6136eb8986838b01016134c9565b8452509183019183016136bd565b509695505050505050565b60008083601f84011261371657600080fd5b50813567ffffffffffffffff81111561372e57600080fd5b6020830191508360208260051b8501011115610bc757600080fd5b600080600080600080600080600060a08a8c03121561376757600080fd5b893567ffffffffffffffff8082111561377f57600080fd5b61378b8d838e01613679565b9a5060208c01359150808211156137a157600080fd5b6137ad8d838e01613704565b909a50985060408c01359150808211156137c657600080fd5b6137d28d838e01613704565b909850965060608c01359150808211156137eb57600080fd5b6137f78d838e01613704565b909650945060808c013591508082111561381057600080fd5b5061381d8c828d01613704565b915080935050809150509295985092959850929598565b6000602080830181845280855180835260408601915060408160051b870101925083870160005b8281101561388957603f1988860301845261387785835161341b565b9450928501929085019060010161385b565b5092979650505050505050565b600080604083850312156138a957600080fd5b6138b2836135e4565b915060208301356fffffffffffffffffffffffffffffffff811681146138d757600080fd5b809150509250929050565b600080600080604085870312156138f857600080fd5b843567ffffffffffffffff8082111561391057600080fd5b61391c88838901613704565b9096509450602087013591508082111561393557600080fd5b5061364987828801613704565b60006020828403121561395457600080fd5b610358826135e4565b634e487b7160e01b600052602160045260246000fd5b6001600160e01b0319813581811691600485101561399b5780818660040360031b1b83161692505b505092915050565b634e487b7160e01b600052603260045260246000fd5b634e487b7160e01b600052601160045260246000fd5b600082198211156139e2576139e26139b9565b500190565b6000808335601e198436030181126139fe57600080fd5b83018035915067ffffffffffffffff821115613a1957600080fd5b602001915036819003821315610bc757600080fd5b60208152816020820152818360408301376000818301604090810191909152601f909201601f19160101919050565b600060208284031215613a6f57600080fd5b815167ffffffffffffffff811115613a8657600080fd5b8201601f81018413613a9757600080fd5b8051613aa56134e8826134a1565b818152856020838501011115613aba57600080fd5b6103e58260208301602086016133ef565b80516020808301519190811015613aec576000198160200360031b1b821691505b50919050565b878152866020820152856040820152846060820152836080820152818360a08301376000910160a0019081529695505050505050565b6001600160a01b03841681528260208201526060604082015260006103e5606083018461341b565b600060018201613b6257613b626139b9565b5060010190565b60008085851115613b7957600080fd5b83861115613b8657600080fd5b5050820193919092039150565b60008060408385031215613ba657600080fd5b823567ffffffffffffffff80821115613bbe57600080fd5b818501915085601f830112613bd257600080fd5b81356020613be26134e883613655565b82815260059290921b84018101918181019089841115613c0157600080fd5b948201945b83861015613c1f57853582529482019490820190613c06565b96505086013592505080821115613c3557600080fd5b5061355c85828601613679565b8183823760009101908152919050565b7f190000000000000000000000000000000000000000000000000000000000000081526bffffffffffffffffffffffff198360601b16600282015260008251613ca28160168501602087016133ef565b919091016016019392505050565b8035602083101561034557600019602084900360031b1b1692915050565b6bffffffffffffffffffffffff19813581811691601485101561399b5760149490940360031b84901b1690921692915050565b6001600160a01b0383168152604060208201526000610578604083018461341b565b6000815160208301517fffff00000000000000000000000000000000000000000000000000000000000080821693506002831015613d6b5780818460020360031b1b83161693505b505050919050565b604081526000613d86604083018461341b565b8281036020840152601c81527f636f756c646e2774204445434f44452066726f6d2073746f726167650000000060208201526040810191505092915050565b600082821015613dd757613dd76139b9565b500390565b6000816000190483118215151615613df657613df66139b9565b500290565b6000815160208301516fffffffffffffffffffffffffffffffff1980821693506010831015613d6b5760109290920360031b82901b161692915050565b828152604060208201526000610578604083018461341b565b604081526000613e64604083018461341b565b8281036020840152602081527f636f756c646e27742056414c49444154452074686520646174612076616c756560208201526040810191505092915050565b6001600160a01b0319813581811691600c85101561399b57600c9490940360031b84901b1690921692915050565b6000815160208301516001600160e01b031980821693506004831015613d6b5760049290920360031b82901b16169291505056fea2646970667358221220015ef34d4c673cb9ce8dfa61ca5c792f5f9cb04380cb8f76326283a39da12c7a64736f6c634300080f0033",
  "linkReferences": {},
  "deployedLinkReferences": {}
}