{
  "_format": "hh-sol-artifact-1",
  "contractName": "LSP6KeyManager",
  "sourceName": "contracts/LSP6KeyManager/LSP6KeyManager.sol",
  "abi": [
    {
      "inputs": [
        {
          "internalType": "address",
          "name": "target_",
          "type": "address"
        }
      ],
      "stateMutability": "nonpayable",
      "type": "constructor"
    },
    {
      "inputs": [
        {
          "internalType": "bytes32",
          "name": "dataKey",
          "type": "bytes32"
        },
        {
          "internalType": "bytes",
          "name": "invalidValue",
          "type": "bytes"
        }
      ],
      "name": "AddressPermissionArrayIndexValueNotAnAddress",
      "type": "error"
    },
    {
      "inputs": [],
      "name": "BatchExecuteParamsLengthMismatch",
      "type": "error"
    },
    {
      "inputs": [],
      "name": "BatchExecuteRelayCallParamsLengthMismatch",
      "type": "error"
    },
    {
      "inputs": [],
      "name": "CallingKeyManagerNotAllowed",
      "type": "error"
    },
    {
      "inputs": [],
      "name": "CannotSendValueToSetData",
      "type": "error"
    },
    {
      "inputs": [],
      "name": "DelegateCallDisallowedViaKeyManager",
      "type": "error"
    },
    {
      "inputs": [],
      "name": "ERC725Y_DataKeysValuesLengthMismatch",
      "type": "error"
    },
    {
      "inputs": [
        {
          "internalType": "bytes4",
          "name": "invalidFunction",
          "type": "bytes4"
        }
      ],
      "name": "InvalidERC725Function",
      "type": "error"
    },
    {
      "inputs": [
        {
          "internalType": "bytes",
          "name": "allowedCallsValue",
          "type": "bytes"
        }
      ],
      "name": "InvalidEncodedAllowedCalls",
      "type": "error"
    },
    {
      "inputs": [
        {
          "internalType": "bytes",
          "name": "value",
          "type": "bytes"
        },
        {
          "internalType": "string",
          "name": "context",
          "type": "string"
        }
      ],
      "name": "InvalidEncodedAllowedERC725YDataKeys",
      "type": "error"
    },
    {
      "inputs": [],
      "name": "InvalidLSP6Target",
      "type": "error"
    },
    {
      "inputs": [
        {
          "internalType": "bytes",
          "name": "payload",
          "type": "bytes"
        }
      ],
      "name": "InvalidPayload",
      "type": "error"
    },
    {
      "inputs": [
        {
          "internalType": "address",
          "name": "signer",
          "type": "address"
        },
        {
          "internalType": "uint256",
          "name": "invalidNonce",
          "type": "uint256"
        },
        {
          "internalType": "bytes",
          "name": "signature",
          "type": "bytes"
        }
      ],
      "name": "InvalidRelayNonce",
      "type": "error"
    },
    {
      "inputs": [
        {
          "internalType": "address",
          "name": "from",
          "type": "address"
        }
      ],
      "name": "InvalidWhitelistedCall",
      "type": "error"
    },
    {
      "inputs": [
        {
          "internalType": "uint256",
          "name": "totalValues",
          "type": "uint256"
        },
        {
          "internalType": "uint256",
          "name": "msgValue",
          "type": "uint256"
        }
      ],
      "name": "LSP6BatchExcessiveValueSent",
      "type": "error"
    },
    {
      "inputs": [
        {
          "internalType": "uint256",
          "name": "totalValues",
          "type": "uint256"
        },
        {
          "internalType": "uint256",
          "name": "msgValue",
          "type": "uint256"
        }
      ],
      "name": "LSP6BatchInsufficientValueSent",
      "type": "error"
    },
    {
      "inputs": [
        {
          "internalType": "address",
          "name": "from",
          "type": "address"
        }
      ],
      "name": "NoCallsAllowed",
      "type": "error"
    },
    {
      "inputs": [
        {
          "internalType": "address",
          "name": "from",
          "type": "address"
        }
      ],
      "name": "NoERC725YDataKeysAllowed",
      "type": "error"
    },
    {
      "inputs": [
        {
          "internalType": "address",
          "name": "from",
          "type": "address"
        }
      ],
      "name": "NoPermissionsSet",
      "type": "error"
    },
    {
      "inputs": [
        {
          "internalType": "address",
          "name": "from",
          "type": "address"
        },
        {
          "internalType": "address",
          "name": "to",
          "type": "address"
        },
        {
          "internalType": "bytes4",
          "name": "selector",
          "type": "bytes4"
        }
      ],
      "name": "NotAllowedCall",
      "type": "error"
    },
    {
      "inputs": [
        {
          "internalType": "address",
          "name": "from",
          "type": "address"
        },
        {
          "internalType": "bytes32",
          "name": "disallowedKey",
          "type": "bytes32"
        }
      ],
      "name": "NotAllowedERC725YDataKey",
      "type": "error"
    },
    {
      "inputs": [
        {
          "internalType": "address",
          "name": "from",
          "type": "address"
        },
        {
          "internalType": "string",
          "name": "permission",
          "type": "string"
        }
      ],
      "name": "NotAuthorised",
      "type": "error"
    },
    {
      "inputs": [
        {
          "internalType": "bytes32",
          "name": "dataKey",
          "type": "bytes32"
        }
      ],
      "name": "NotRecognisedPermissionKey",
      "type": "error"
    },
    {
      "inputs": [],
      "name": "RelayCallBeforeStartTime",
      "type": "error"
    },
    {
      "inputs": [],
      "name": "RelayCallExpired",
      "type": "error"
    },
    {
      "anonymous": false,
      "inputs": [
        {
          "indexed": true,
          "internalType": "address",
          "name": "signer",
          "type": "address"
        },
        {
          "indexed": true,
          "internalType": "uint256",
          "name": "value",
          "type": "uint256"
        },
        {
          "indexed": true,
          "internalType": "bytes4",
          "name": "selector",
          "type": "bytes4"
        }
      ],
      "name": "VerifiedCall",
      "type": "event"
    },
    {
      "inputs": [
        {
          "internalType": "bytes",
          "name": "payload",
          "type": "bytes"
        }
      ],
      "name": "execute",
      "outputs": [
        {
          "internalType": "bytes",
          "name": "",
          "type": "bytes"
        }
      ],
      "stateMutability": "payable",
      "type": "function"
    },
    {
      "inputs": [
        {
          "internalType": "uint256[]",
          "name": "values",
          "type": "uint256[]"
        },
        {
          "internalType": "bytes[]",
          "name": "payloads",
          "type": "bytes[]"
        }
      ],
      "name": "executeBatch",
      "outputs": [
        {
          "internalType": "bytes[]",
          "name": "",
          "type": "bytes[]"
        }
      ],
      "stateMutability": "payable",
      "type": "function"
    },
    {
      "inputs": [
        {
          "internalType": "bytes",
          "name": "signature",
          "type": "bytes"
        },
        {
          "internalType": "uint256",
          "name": "nonce",
          "type": "uint256"
        },
        {
          "internalType": "uint256",
          "name": "validityTimestamps",
          "type": "uint256"
        },
        {
          "internalType": "bytes",
          "name": "payload",
          "type": "bytes"
        }
      ],
      "name": "executeRelayCall",
      "outputs": [
        {
          "internalType": "bytes",
          "name": "",
          "type": "bytes"
        }
      ],
      "stateMutability": "payable",
      "type": "function"
    },
    {
      "inputs": [
        {
          "internalType": "bytes[]",
          "name": "signatures",
          "type": "bytes[]"
        },
        {
          "internalType": "uint256[]",
          "name": "nonces",
          "type": "uint256[]"
        },
        {
          "internalType": "uint256[]",
          "name": "validityTimestamps",
          "type": "uint256[]"
        },
        {
          "internalType": "uint256[]",
          "name": "values",
          "type": "uint256[]"
        },
        {
          "internalType": "bytes[]",
          "name": "payloads",
          "type": "bytes[]"
        }
      ],
      "name": "executeRelayCallBatch",
      "outputs": [
        {
          "internalType": "bytes[]",
          "name": "",
          "type": "bytes[]"
        }
      ],
      "stateMutability": "payable",
      "type": "function"
    },
    {
      "inputs": [
        {
          "internalType": "address",
          "name": "from",
          "type": "address"
        },
        {
          "internalType": "uint128",
          "name": "channelId",
          "type": "uint128"
        }
      ],
      "name": "getNonce",
      "outputs": [
        {
          "internalType": "uint256",
          "name": "",
          "type": "uint256"
        }
      ],
      "stateMutability": "view",
      "type": "function"
    },
    {
      "inputs": [
        {
          "internalType": "bytes32",
          "name": "dataHash",
          "type": "bytes32"
        },
        {
          "internalType": "bytes",
          "name": "signature",
          "type": "bytes"
        }
      ],
      "name": "isValidSignature",
      "outputs": [
        {
          "internalType": "bytes4",
          "name": "magicValue",
          "type": "bytes4"
        }
      ],
      "stateMutability": "view",
      "type": "function"
    },
    {
      "inputs": [
        {
          "internalType": "address",
          "name": "caller",
          "type": "address"
        },
        {
          "internalType": "uint256",
          "name": "msgValue",
          "type": "uint256"
        },
        {
          "internalType": "bytes",
          "name": "data",
          "type": "bytes"
        }
      ],
      "name": "lsp20VerifyCall",
      "outputs": [
        {
          "internalType": "bytes4",
          "name": "",
          "type": "bytes4"
        }
      ],
      "stateMutability": "nonpayable",
      "type": "function"
    },
    {
      "inputs": [
        {
          "internalType": "bytes32",
          "name": "",
          "type": "bytes32"
        },
        {
          "internalType": "bytes",
          "name": "",
          "type": "bytes"
        }
      ],
      "name": "lsp20VerifyCallResult",
      "outputs": [
        {
          "internalType": "bytes4",
          "name": "",
          "type": "bytes4"
        }
      ],
      "stateMutability": "nonpayable",
      "type": "function"
    },
    {
      "inputs": [
        {
          "internalType": "bytes4",
          "name": "interfaceId",
          "type": "bytes4"
        }
      ],
      "name": "supportsInterface",
      "outputs": [
        {
          "internalType": "bool",
          "name": "",
          "type": "bool"
        }
      ],
      "stateMutability": "view",
      "type": "function"
    },
    {
      "inputs": [],
      "name": "target",
      "outputs": [
        {
          "internalType": "address",
          "name": "",
          "type": "address"
        }
      ],
      "stateMutability": "view",
      "type": "function"
    }
  ],
  "bytecode": "0x60806040523480156200001157600080fd5b5060405162003d4938038062003d4983398101604081905262000034916200007e565b6001600160a01b0381166200005c5760405163fc85457960e01b815260040160405180910390fd5b600080546001600160a81b0319166001600160a01b03831617905550620000b0565b6000602082840312156200009157600080fd5b81516001600160a01b0381168114620000a957600080fd5b9392505050565b613c8980620000c06000396000f3fe6080604052600436106100b15760003560e01c8063a20856a511610069578063bf0176ff1161004e578063bf0176ff14610215578063d3fc45d314610228578063d4b839921461024857600080fd5b8063a20856a514610177578063b44581d91461019757600080fd5b80631626ba7e1161009a5780631626ba7e1461010b5780634c8a4e74146101445780639bf04b111461015757600080fd5b806301ffc9a7146100b657806309c5eabe146100eb575b600080fd5b3480156100c257600080fd5b506100d66100d13660046130aa565b610270565b60405190151581526020015b60405180910390f35b6100fe6100f9366004613116565b61030f565b6040516100e291906131b0565b34801561011757600080fd5b5061012b610126366004613288565b610323565b6040516001600160e01b031990911681526020016100e2565b6100fe6101523660046132cf565b6103ac565b34801561016357600080fd5b5061012b610172366004613364565b6103c6565b61018a6101853660046134b2565b610532565b6040516100e2919061359d565b3480156101a357600080fd5b506102076101b23660046135ff565b6001600160a01b03821660009081526001602090815260408083206fffffffffffffffffffffffffffffffff851684529091529020546fffffffffffffffffffffffffffffffff19608083901b161792915050565b6040519081526020016100e2565b61018a61022336600461364b565b610734565b34801561023457600080fd5b5061012b610243366004613288565b6108bb565b34801561025457600080fd5b506000546040516001600160a01b0390911681526020016100e2565b60006001600160e01b031982167f38bb3cdb0000000000000000000000000000000000000000000000000000000014806102ba57506001600160e01b03198216630b135d3f60e11b145b806102ee57506001600160e01b031982167f480c0ec200000000000000000000000000000000000000000000000000000000145b8061030957506301ffc9a760e01b6001600160e01b03198316145b92915050565b606061031c348484610908565b9392505050565b60008060006103328585610a13565b9092509050600081600481111561034b5761034b6136ab565b1461036357506001600160e01b031991506103099050565b600054610388906220000090610382906001600160a01b031685610a58565b81161490565b61039a576001600160e01b03196103a3565b630b135d3f60e11b5b95945050505050565b60606103bc868686348787610b06565b9695505050505050565b600080631fc8da4360e21b6103db84866136c1565b6001600160e01b031916148061040a5750639790242160e01b6103fe84866136c1565b6001600160e01b031916145b15610413575060015b6000546001600160a01b031633036104cf5760006104318288610daf565b905061043f87878787610e01565b61044984866136c1565b6001600160e01b03191686886001600160a01b03167fa54458b75709e42f79700ffb6cfc57c7e224d8a77a52c457ee7ecb8e2263628060405160405180910390a481806104935750805b6104a457639bf04b0160e01b6104c6565b7f9bf04b00000000000000000000000000000000000000000000000000000000005b9250505061052a565b600054600160a01b900460ff168015610505576000546105059088906104fe906001600160a01b031682610a58565b608061108c565b61051187878787610e01565b81806104935750806104a457639bf04b0160e01b6104c6565b949350505050565b8851606090881415806105455750878614155b806105505750858414155b8061055b5750838214155b15610592576040517fb4d50d2100000000000000000000000000000000000000000000000000000000815260040160405180910390fd5b60008267ffffffffffffffff8111156105ad576105ad6131c3565b6040519080825280602002602001820160405280156105e057816020015b60608152602001906001900390816105cb5790505b5090506000805b848110156106fa5734888883818110610602576106026136f1565b9050602002013583610614919061371d565b925082111561064457604051630c28c92b60e21b8152600481018390523460248201526044015b60405180910390fd5b6106d58d8281518110610659576106596136f1565b60200260200101518d8d84818110610673576106736136f1565b905060200201358c8c8581811061068c5761068c6136f1565b905060200201358b8b868181106106a5576106a56136f1565b905060200201358a8a878181106106be576106be6136f1565b90506020028101906106d09190613735565b610b06565b8382815181106106e7576106e76136f1565b60209081029190910101526001016105e7565b50348110156107255760405163528c345b60e11b81526004810182905234602482015260440161063b565b509a9950505050505050505050565b606083821461076f576040517f55a187db00000000000000000000000000000000000000000000000000000000815260040160405180910390fd5b60008267ffffffffffffffff81111561078a5761078a6131c3565b6040519080825280602002602001820160405280156107bd57816020015b60608152602001906001900390816107a85790505b5090506000805b8481101561088657348888838181106107df576107df6136f1565b90506020020135836107f1919061371d565b925082111561081c57604051630c28c92b60e21b81526004810183905234602482015260440161063b565b610861888883818110610831576108316136f1565b9050602002013587878481811061084a5761084a6136f1565b905060200281019061085c9190613735565b610908565b838281518110610873576108736136f1565b60209081029190910101526001016107c4565b50348110156108b15760405163528c345b60e11b81526004810182905234602482015260440161063b565b5095945050505050565b600080546001600160a01b031633036108e0576108e06000805460ff60a01b19169055565b507fd3fc45d30000000000000000000000000000000000000000000000000000000092915050565b60606004821015610930578282604051630d886ef360e21b815260040161063b92919061377c565b6000631fc8da4360e21b61094484866136c1565b6001600160e01b03191614806109735750639790242160e01b61096784866136c1565b6001600160e01b031916145b1561097c575060015b60006109888233610daf565b905061099633878787610e01565b6109a084866136c1565b6001600160e01b03191686336001600160a01b03167fa54458b75709e42f79700ffb6cfc57c7e224d8a77a52c457ee7ecb8e2263628060405160405180910390a460006109ee87878761109c565b9050811580156109fc575082155b156103bc576103bc6000805460ff60a01b19169055565b6000808251604103610a495760208301516040840151606085015160001a610a3d8782858561117c565b94509450505050610a51565b506000905060025b9250929050565b6000806001600160a01b0384166354f6127f610a987f4b80742de2bf82acb36300000000000000000000000000000000000000000000606087901b611240565b6040518263ffffffff1660e01b8152600401610ab691815260200190565b600060405180830381865afa158015610ad3573d6000803e3d6000fd5b505050506040513d6000823e601f3d908101601f19168201604052610afb91908101906137ab565b905061052a81613819565b60606004821015610b2e578282604051630d886ef360e21b815260040161063b92919061377c565b60006006468888888888604051602001610b4e9796959493929190613840565b60408051601f1981840301815291905290506000610b7689610b7030856112a9565b906112dc565b90506000631fc8da4360e21b610b8c86886136c1565b6001600160e01b0319161480610bbb5750639790242160e01b610baf86886136c1565b6001600160e01b031916145b15610bc4575060015b6000610bd08284610daf565b6001600160a01b038416600090815260016020908152604080832060808f901c84529091529020549091506fffffffffffffffffffffffffffffffff8b1614610c4b57828a8c6040517fc9bd9eb900000000000000000000000000000000000000000000000000000000815260040161063b93929190613876565b6001600160a01b038316600090815260016020908152604080832060808e901c84529091528120805491610c7e8361389e565b90915550508815610d1757608089901c8942821115610cc8576040517ede4b8a00000000000000000000000000000000000000000000000000000000815260040160405180910390fd5b806fffffffffffffffffffffffffffffffff16421115610d14576040517f5c53a98c00000000000000000000000000000000000000000000000000000000815260040160405180910390fd5b50505b610d2383898989610e01565b610d2d86886136c1565b6001600160e01b03191688846001600160a01b03167fa54458b75709e42f79700ffb6cfc57c7e224d8a77a52c457ee7ecb8e2263628060405160405180910390a46000610d7b89898961109c565b905081158015610d89575082155b15610da057610da06000805460ff60a01b19169055565b9b9a5050505050505050505050565b600054600160a01b900460ff168015610de357600054610dde9083906104fe906001600160a01b031682610a58565b610309565b82610309576000805460ff60a01b1916600160a01b17905592915050565b60008054610e18906001600160a01b031686610a58565b905080610e5c576040517ff292052a0000000000000000000000000000000000000000000000000000000081526001600160a01b038616600482015260240161063b565b6000610e6883856136c1565b90507f80dc96f4000000000000000000000000000000000000000000000000000000006001600160e01b0319821601610efc578415610eba576040516316694a7f60e21b815260040160405180910390fd5b600080610eca85600481896138b7565b810190610ed79190613288565b6000549193509150610ef5906001600160a01b031689868585611300565b5050611084565b7f686fdbdf000000000000000000000000000000000000000000000000000000006001600160e01b0319821601610f87578415610f4c576040516316694a7f60e21b815260040160405180910390fd5b600080610f5c85600481896138b7565b810190610f6991906138e1565b6000549193509150610ef5906001600160a01b031689868585611375565b7fbb3fd702000000000000000000000000000000000000000000000000000000006001600160e01b0319821601610fd657600054610fd1906001600160a01b0316878487876114f8565b611084565b6001600160e01b031981167ff2fde38b00000000000000000000000000000000000000000000000000000000148061103757506001600160e01b031981167f79ba509700000000000000000000000000000000000000000000000000000000145b1561104657610fd1868361165a565b6040517f2ba8851c0000000000000000000000000000000000000000000000000000000081526001600160e01b03198216600482015260240161063b565b505050505050565b611097838383611693565b505050565b600080546060919081906001600160a01b0316865a9087876040516110c2929190613990565b600060405180830381858888f193505050503d8060008114611100576040519150601f19603f3d011682016040523d82523d6000602084013e611105565b606091505b5091509150600061114c83836040518060400160405280601e81526020017f4c5350363a206661696c656420657865637574696e67207061796c6f616400008152506116c6565b9050805160000361115d5780611171565b8080602001905181019061117191906137ab565b979650505050505050565b6000807f7fffffffffffffffffffffffffffffff5d576e7357a4501ddfe92f46681b20a08311156111b35750600090506003611237565b6040805160008082526020820180845289905260ff881692820192909252606081018690526080810185905260019060a0016020604051602081039080840390855afa158015611207573d6000803e3d6000fd5b5050604051601f1901519150506001600160a01b03811661123057600060019250925050611237565b9150600090505b94509492505050565b604080517fffffffffffffffffffff00000000000000000000000000000000000000000000841660208201526000602a82018190526bffffffffffffffffffffffff198416602c8301529182910160405160208183030381529060405290508061052a90613819565b600082826040516020016112be9291906139a0565b60405160208183030381529060405280519060200120905092915050565b60008060006112eb8585610a13565b915091506112f8816116df565b509392505050565b600061130e86858585611847565b90506203ffff19810161135857620200008085160361132d575061136e565b61133b85856204000061108c565b610fd185846113536001600160a01b038a1683611abc565b611b5c565b80611363575061136e565b61108485858361108c565b5050505050565b80518251146113b0576040517f3bcc897900000000000000000000000000000000000000000000000000000000815260040160405180910390fd5b600080835167ffffffffffffffff8111156113cd576113cd6131c3565b6040519080825280602002602001820160405280156113f6578160200160208202803683370190505b509050600080805b61143c8a89898481518110611415576114156136f1565b602002602001015189858151811061142f5761142f6136f1565b6020026020010151611847565b91506203ffff1982016114525760019450611495565b81156114635761146389898461108c565b6001848281518110611477576114776136f1565b91151560209283029190910190910152826114918161389e565b9350505b806001019050865181106113fe5784156114ec5762020000808916036114bf57505050505061136e565b6114cd89896204000061108c565b6114ec89886114e56001600160a01b038e1683611abc565b8787611cb3565b50505050505050505050565b6115066084606483856138b7565b61150f916139fe565b608014611533578181604051630d886ef360e21b815260040161063b92919061377c565b60006115436024600484866138b7565b61154c916139fe565b9050600061155e6044603085876138b7565b61156791613a1c565b60601c90503081036115a5576040517fa431b23600000000000000000000000000000000000000000000000000000000815260040160405180910390fd5b816115be576115b78787878787611eee565b505061136e565b60018214806115cd5750600282145b156116025760006115e26064604486886138b7565b6115eb916139fe565b151590506115fa878783611fec565b50505061136e565b60038203611617576115b78787878787612071565b60048203611651576040517f80d6ebae00000000000000000000000000000000000000000000000000000000815260040160405180910390fd5b50505050505050565b60018082161461168f576000611670600161209d565b90508281604051631ded6b7360e11b815260040161063b929190613a4f565b5050565b80821681146110975760006116a78261209d565b90508381604051631ded6b7360e11b815260040161063b929190613a4f565b606083156116d557508161031c565b61031c838361248b565b60008160048111156116f3576116f36136ab565b036116fb5750565b600181600481111561170f5761170f6136ab565b0361175c5760405162461bcd60e51b815260206004820152601860248201527f45434453413a20696e76616c6964207369676e61747572650000000000000000604482015260640161063b565b6002816004811115611770576117706136ab565b036117bd5760405162461bcd60e51b815260206004820152601f60248201527f45434453413a20696e76616c6964207369676e6174757265206c656e67746800604482015260640161063b565b60038160048111156117d1576117d16136ab565b036118445760405162461bcd60e51b815260206004820152602260248201527f45434453413a20696e76616c6964207369676e6174757265202773272076616c60448201527f7565000000000000000000000000000000000000000000000000000000000000606482015260840161063b565b50565b60007f20cf245f92495cf19acab2659b39f67a000000000000000000000000000000006fffffffffffffffffffffffffffffffff1984160161189d57600684811614611895868585846124b5565b91505061052a565b7fb47f8bd21d4100000000000000000000000000000000000000000000000000007fffffffffffff00000000000000000000000000000000000000000000000000008416016119e6576006848116146001600160a01b031984167fb47f8bd21d407d534c9d000000000000000000000000000000000000000000000161193757801561192d57506000905061052a565b6118958685612684565b7fb47f8bd21d40c6c59b39000000000000000000000000000000000000000000006001600160a01b03198516016119745761189586858584612714565b7fb47f8bd21d407993d6ef000000000000000000000000000000000000000000006001600160a01b03198516016119b1576118958685858461273e565b6040517f0f7d735b0000000000000000000000000000000000000000000000000000000081526004810185905260240161063b565b7f0cfc51aec37c55a4d0b1a65c6255c4bf2fbdf6277f3cc0730c45b828b6db8b47831480611a3d57506001600160a01b031983167f0cfc51aec37c55a4d0b100000000000000000000000000000000000000000000145b15611a6557606080851603611a545750600061052a565b611a5e8584612768565b905061052a565b7f311874bf6b2579feef6a000000000000000000000000000000000000000000006001600160a01b0319841601611ab257601880851603611aa85750600061052a565b611a5e85846127ee565b506204000061052a565b60606001600160a01b0383166354f6127f611af97f4b80742de2bf866c29110000000000000000000000000000000000000000000085851b611240565b6040518263ffffffff1660e01b8152600401611b1791815260200190565b600060405180830381865afa158015611b34573d6000803e3d6000fd5b505050506040513d6000823e601f3d908101601f1916820160405261031c91908101906137ab565b8051600003611b895760405163ed7fa50960e01b81526001600160a01b038416600482015260240161063b565b6000806000805b8451841015611c8857848481518110611bab57611bab6136f1565b01602001516001600160f81b03191685611bc686600161371d565b81518110611bd657611bd66136f1565b016020908101516040516001600160f81b031993841692810192909252919091166021820152602201604051602081830303815290604052611c1790613a71565b60f01c92506020831115611c40578460405163ae6cbd3760e01b815260040161063b9190613ac1565b611c4b836020613b13565b611c56906008613b2a565b8585016022015160001990911b908116925090508581168203611c7c5750505050505050565b92820160020192611b90565b60405163557ae07960e01b81526001600160a01b03881660048201526024810187905260440161063b565b8251600003611ce05760405163ed7fa50960e01b81526001600160a01b038616600482015260240161063b565b835160008080805b8751841015611e6857878481518110611d0357611d036136f1565b01602001516001600160f81b03191688611d1e86600161371d565b81518110611d2e57611d2e6136f1565b016020908101516040516001600160f81b031993841692810192909252919091166021820152602201604051602081830303815290604052611d6f90613a71565b60f01c92506020831115611d98578760405163ae6cbd3760e01b815260040161063b9190613ac1565b611da3836020613b13565b611dae906008613b2a565b8885016022015160001990911b9081169250905060005b85811015611e5b57878181518110611ddf57611ddf6136f1565b602002602001015115611df457600101611dc5565b82828b8381518110611e0857611e086136f1565b60200260200101511603611e53576001888281518110611e2a57611e2a6136f1565b9115156020928302919091019091015260018088019787900301611e535750505050505061136e565b600101611dc5565b5092820160020192611ce8565b60005b85811015611ee157878181518110611e8557611e856136f1565b6020026020010151611ed9578a8a8281518110611ea457611ea46136f1565b602090810291909101015160405163557ae07960e01b81526001600160a01b039092166004830152602482015260440161063b565b600101611e6b565b5050505050505050505050565b6000611efe6064604484866138b7565b611f07916139fe565b1580159150610100858116149060a484119061040080881614908490611f2b575082155b15611f3d57611f3d888861020061108c565b80158015611f49575081155b8015611f53575083155b15611f6557611f65888861080061108c565b818015611f70575080155b15611f8257611f82888861080061108c565b808015611f8d575083155b15611f9b575050505061136e565b828015611fa6575081155b8015611faf5750835b15611fbd575050505061136e565b808015611fc75750825b15611fd5575050505061136e565b611fe189898888612874565b505050505050505050565b611ffa83836201000061108c565b6101008281161481801561200c575080155b1561206b5760408051631ded6b7360e11b81526001600160a01b03861660048201526024810191909152601360448201527f53555045525f5452414e5346455256414c554500000000000000000000000000606482015260840161063b565b50505050565b611000838116148015612084575061136e565b612091858561200061108c565b61108486868585612874565b606060001982016120e157505060408051808201909152601181527f5452414e534645524f574e455253484950000000000000000000000000000000602082015290565b600319820161212357505060408051808201909152600f81527f454449545045524d495353494f4e530000000000000000000000000000000000602082015290565b600119820161216557505060408051808201909152600d81527f414444434f4e54524f4c4c455200000000000000000000000000000000000000602082015290565b60071982016121a757505060408051808201909152600d81527f414444455854454e53494f4e5300000000000000000000000000000000000000602082015290565b600f1982016121e957505060408051808201909152601081527f4348414e4745455854454e53494f4e5300000000000000000000000000000000602082015290565b601f19820161222b57505060408051808201909152601c81527f414444554e4956455253414c524543454956455244454c454741544500000000602082015290565b603f19820161226d57505060408051808201909152601f81527f4348414e4745554e4956455253414c524543454956455244454c454741544500602082015290565b607f1982016122af57505060408051808201909152600a81527f5245454e5452414e435900000000000000000000000000000000000000000000602082015290565b6203ffff1982016122f357505060408051808201909152600781527f5345544441544100000000000000000000000000000000000000000000000000602082015290565b6107ff19820161233657505060408051808201909152600481527f43414c4c00000000000000000000000000000000000000000000000000000000602082015290565b611fff19820161237957505060408051808201909152600a81527f53544154494343414c4c00000000000000000000000000000000000000000000602082015290565b617fff1982016123bc57505060408051808201909152600c81527f44454c454741544543414c4c0000000000000000000000000000000000000000602082015290565b61ffff1982016123ff57505060408051808201909152600681527f4445504c4f590000000000000000000000000000000000000000000000000000602082015290565b6101ff19820161244257505060408051808201909152600d81527f5452414e5346455256414c554500000000000000000000000000000000000000602082015290565b621fffff19820161248657505060408051808201909152600481527f5349474e00000000000000000000000000000000000000000000000000000000602082015290565b919050565b81511561249b5781518083602001fd5b8060405162461bcd60e51b815260040161063b91906131b0565b60007f20cf245f92495cf19acab2659b39f679e0f76aba35a7394b241ce5a0cc734f1d84016125a45781156124ec5750600061052a565b60006124f784613b49565b60801c9050856001600160a01b03166354f6127f866040518263ffffffff1660e01b815260040161252a91815260200190565b600060405180830381865afa158015612547573d6000803e3d6000fd5b505050506040513d6000823e601f3d908101601f1916820160405261256f91908101906137ab565b61257890613b49565b60801c6fffffffffffffffffffffffffffffffff82161161259a576004611895565b600291505061052a565b8251158015906125b657508251601414155b156125f15783836040517f8f4afa3800000000000000000000000000000000000000000000000000000000815260040161063b929190613b86565b81156125ff5750600061052a565b6040516354f6127f60e01b8152600481018590526001600160a01b038616906354f6127f90602401600060405180830381865afa158015612644573d6000803e3d6000fd5b505050506040513d6000823e601f3d908101601f1916820160405261266c91908101906137ab565b51156126795760046103a3565b600295945050505050565b6040516354f6127f60e01b81526004810182905260009081906001600160a01b038516906354f6127f90602401600060405180830381865afa1580156126ce573d6000803e3d6000fd5b505050506040513d6000823e601f3d908101601f191682016040526126f691908101906137ab565b6126ff90613819565b1461270b57600461031c565b50600292915050565b600061271f83612a67565b6125f1578260405163187e77ab60e01b815260040161063b91906131b0565b600061274983612b5d565b6125f1578260405163ae6cbd3760e01b815260040161063b9190613b9f565b6040516354f6127f60e01b8152600481018290526000906001600160a01b038416906354f6127f90602401600060405180830381865afa1580156127b0573d6000803e3d6000fd5b505050506040513d6000823e601f3d908101601f191682016040526127d891908101906137ab565b51156127e557604061031c565b50602092915050565b6040516354f6127f60e01b8152600481018290526000906001600160a01b038416906354f6127f90602401600060405180830381865afa158015612836573d6000803e3d6000fd5b505050506040513d6000823e601f3d908101601f1916820160405261285e91908101906137ab565b511561286b57601061031c565b50600892915050565b60008060008060006128868787612c43565b93985091965094509250905060006128a76001600160a01b038b168a612d22565b905080516000036128ef576040517f6cb605870000000000000000000000000000000000000000000000000000000081526001600160a01b038a16600482015260240161063b565b60006128fc878685612d5f565b905060005b8251811015612a1157825161291782602261371d565b1115612938578260405163187e77ab60e01b815260040161063b91906131b0565b60006129508461294984600261371d565b6020612e0f565b905063ffffffff19602061296383613819565b63ffffffff19911b16036129ae576040517f6fd203c50000000000000000000000000000000000000000000000000000000081526001600160a01b038d16600482015260240161063b565b6129b88184612f37565b80156129c957506129c98189612f5e565b80156129da57506129da8189612fa1565b80156129eb57506129eb8187612fd9565b156129fe5750505050505050505061206b565b50612a0a60228261371d565b9050612901565b506040517f45147bce0000000000000000000000000000000000000000000000000000000081526001600160a01b03808c166004830152871660248201526001600160e01b03198516604482015260640161063b565b6000805b8251811015612b43578251612a8182600161371d565b10612a8f5750600092915050565b6000838281518110612aa357612aa36136f1565b01602001516001600160f81b03191684612abe84600161371d565b81518110612ace57612ace6136f1565b016020908101516040516001600160f81b031993841692810192909252919091166021820152602201604051602081830303815290604052612b0f90613a71565b60f01c905060208114612b26575060009392505050565b612b3181600261371d565b612b3b908361371d565b915050612a6b565b82518103612b545750600192915050565b50600092915050565b6000805b8251811015612b43578251612b7782600161371d565b10612b855750600092915050565b6000838281518110612b9957612b996136f1565b01602001516001600160f81b03191684612bb484600161371d565b81518110612bc457612bc46136f1565b016020908101516040516001600160f81b031993841692810192909252919091166021820152602201604051602081830303815290604052612c0590613a71565b60f01c9050801580612c175750602081115b15612c26575060009392505050565b612c3181600261371d565b612c3b908361371d565b915050612b61565b60008080808080612c5860246004898b6138b7565b612c61916139fe565b90506000612c73603060248a8c6138b7565b612c7c91613bf1565b6001600160a01b03191614612ca8578787604051630d886ef360e21b815260040161063b92919061377c565b6000612cb8604460308a8c6138b7565b612cc191613a1c565b60601c90506000612cd6606460448b8d6138b7565b612cdf916139fe565b9050600060a88a1015612cf3576000612d0a565b612d0160a860a48c8e6138b7565b612d0a916136c1565b939b929a5090989297505060a4909114945092505050565b60606001600160a01b0383166354f6127f611af97f4b80742de2bf393a64c70000000000000000000000000000000000000000000085851b611240565b60008215612d87577c0100000000000000000000000000000000000000000000000000000000175b8161031c5783612db5577c02000000000000000000000000000000000000000000000000000000001761031c565b60038403612de1577c04000000000000000000000000000000000000000000000000000000001761031c565b6004840361031c577c0800000000000000000000000000000000000000000000000000000000179392505050565b606081612e1d81601f61371d565b1015612e6b5760405162461bcd60e51b815260206004820152600e60248201527f736c6963655f6f766572666c6f77000000000000000000000000000000000000604482015260640161063b565b612e75828461371d565b84511015612ec55760405162461bcd60e51b815260206004820152601160248201527f736c6963655f6f75744f66426f756e6473000000000000000000000000000000604482015260640161063b565b606082158015612ee45760405191506000825260208201604052612f2e565b6040519150601f8416801560200281840101858101878315602002848b0101015b81831015612f1d578051835260209283019201612f05565b5050858452601f01601f1916604052505b50949350505050565b600080612f4384613c1f565b83166001600160e01b03199081169084161491505092915050565b6000806020612f6c85613819565b901b60601c90506001600160a01b0381148061052a5750806001600160a01b0316836001600160a01b03161491505092915050565b60008060c0612faf85613819565b901b90506001600160e01b0319808216148061052a575061052a6001600160a01b03841682613025565b60008060e0612fe785613819565b901b90506001600160e01b031983811615159080831614806103a357508080156103a35750506001600160e01b031990811692169190911492915050565b604080516001600160e01b03198316602480830191909152825180830390910181526044909101909152602080820180516001600160e01b03166301ffc9a760e01b178152825160009392849283928392918391908a617530fa92503d91506000519050828015613097575060208210155b8015611171575015159695505050505050565b6000602082840312156130bc57600080fd5b81356001600160e01b03198116811461031c57600080fd5b60008083601f8401126130e657600080fd5b50813567ffffffffffffffff8111156130fe57600080fd5b602083019150836020828501011115610a5157600080fd5b6000806020838503121561312957600080fd5b823567ffffffffffffffff81111561314057600080fd5b61314c858286016130d4565b90969095509350505050565b60005b8381101561317357818101518382015260200161315b565b8381111561206b5750506000910152565b6000815180845261319c816020860160208601613158565b601f01601f19169290920160200192915050565b60208152600061031c6020830184613184565b634e487b7160e01b600052604160045260246000fd5b604051601f8201601f1916810167ffffffffffffffff81118282101715613202576132026131c3565b604052919050565b600067ffffffffffffffff821115613224576132246131c3565b50601f01601f191660200190565b600082601f83011261324357600080fd5b81356132566132518261320a565b6131d9565b81815284602083860101111561326b57600080fd5b816020850160208301376000918101602001919091529392505050565b6000806040838503121561329b57600080fd5b82359150602083013567ffffffffffffffff8111156132b957600080fd5b6132c585828601613232565b9150509250929050565b6000806000806000608086880312156132e757600080fd5b853567ffffffffffffffff808211156132ff57600080fd5b61330b89838a01613232565b96506020880135955060408801359450606088013591508082111561332f57600080fd5b5061333c888289016130d4565b969995985093965092949392505050565b80356001600160a01b038116811461248657600080fd5b6000806000806060858703121561337a57600080fd5b6133838561334d565b935060208501359250604085013567ffffffffffffffff8111156133a657600080fd5b6133b2878288016130d4565b95989497509550505050565b600067ffffffffffffffff8211156133d8576133d86131c3565b5060051b60200190565b600082601f8301126133f357600080fd5b81356020613403613251836133be565b82815260059290921b8401810191818101908684111561342257600080fd5b8286015b8481101561346257803567ffffffffffffffff8111156134465760008081fd5b6134548986838b0101613232565b845250918301918301613426565b509695505050505050565b60008083601f84011261347f57600080fd5b50813567ffffffffffffffff81111561349757600080fd5b6020830191508360208260051b8501011115610a5157600080fd5b600080600080600080600080600060a08a8c0312156134d057600080fd5b893567ffffffffffffffff808211156134e857600080fd5b6134f48d838e016133e2565b9a5060208c013591508082111561350a57600080fd5b6135168d838e0161346d565b909a50985060408c013591508082111561352f57600080fd5b61353b8d838e0161346d565b909850965060608c013591508082111561355457600080fd5b6135608d838e0161346d565b909650945060808c013591508082111561357957600080fd5b506135868c828d0161346d565b915080935050809150509295985092959850929598565b6000602080830181845280855180835260408601915060408160051b870101925083870160005b828110156135f257603f198886030184526135e0858351613184565b945092850192908501906001016135c4565b5092979650505050505050565b6000806040838503121561361257600080fd5b61361b8361334d565b915060208301356fffffffffffffffffffffffffffffffff8116811461364057600080fd5b809150509250929050565b6000806000806040858703121561366157600080fd5b843567ffffffffffffffff8082111561367957600080fd5b6136858883890161346d565b9096509450602087013591508082111561369e57600080fd5b506133b28782880161346d565b634e487b7160e01b600052602160045260246000fd5b6001600160e01b031981358181169160048510156136e95780818660040360031b1b83161692505b505092915050565b634e487b7160e01b600052603260045260246000fd5b634e487b7160e01b600052601160045260246000fd5b6000821982111561373057613730613707565b500190565b6000808335601e1984360301811261374c57600080fd5b83018035915067ffffffffffffffff82111561376757600080fd5b602001915036819003821315610a5157600080fd5b60208152816020820152818360408301376000818301604090810191909152601f909201601f19160101919050565b6000602082840312156137bd57600080fd5b815167ffffffffffffffff8111156137d457600080fd5b8201601f810184136137e557600080fd5b80516137f36132518261320a565b81815285602083850101111561380857600080fd5b6103a3826020830160208601613158565b8051602080830151919081101561383a576000198160200360031b1b821691505b50919050565b878152866020820152856040820152846060820152836080820152818360a08301376000910160a0019081529695505050505050565b6001600160a01b03841681528260208201526060604082015260006103a36060830184613184565b6000600182016138b0576138b0613707565b5060010190565b600080858511156138c757600080fd5b838611156138d457600080fd5b5050820193919092039150565b600080604083850312156138f457600080fd5b823567ffffffffffffffff8082111561390c57600080fd5b818501915085601f83011261392057600080fd5b81356020613930613251836133be565b82815260059290921b8401810191818101908984111561394f57600080fd5b948201945b8386101561396d57853582529482019490820190613954565b9650508601359250508082111561398357600080fd5b506132c5858286016133e2565b8183823760009101908152919050565b7f190000000000000000000000000000000000000000000000000000000000000081526bffffffffffffffffffffffff198360601b166002820152600082516139f0816016850160208701613158565b919091016016019392505050565b8035602083101561030957600019602084900360031b1b1692915050565b6bffffffffffffffffffffffff1981358181169160148510156136e95760149490940360031b84901b1690921692915050565b6001600160a01b038316815260406020820152600061052a6040830184613184565b6000815160208301517fffff00000000000000000000000000000000000000000000000000000000000080821693506002831015613ab95780818460020360031b1b83161693505b505050919050565b604081526000613ad46040830184613184565b8281036020840152601c81527f636f756c646e2774204445434f44452066726f6d2073746f726167650000000060208201526040810191505092915050565b600082821015613b2557613b25613707565b500390565b6000816000190483118215151615613b4457613b44613707565b500290565b6000815160208301516fffffffffffffffffffffffffffffffff1980821693506010831015613ab95760109290920360031b82901b161692915050565b82815260406020820152600061052a6040830184613184565b604081526000613bb26040830184613184565b8281036020840152602081527f636f756c646e27742056414c49444154452074686520646174612076616c756560208201526040810191505092915050565b6001600160a01b0319813581811691600c8510156136e957600c9490940360031b84901b1690921692915050565b6000815160208301516001600160e01b031980821693506004831015613ab95760049290920360031b82901b16169291505056fea2646970667358221220dcf3385385e9a2168c2d209d9b2b8e55150ac55d8865a82c92fc24cd1400199d64736f6c634300080f0033",
  "linkReferences": {},
  "deployedLinkReferences": {}
}