{
  "_format": "hh-sol-artifact-1",
  "contractName": "LSP7CompatibleERC20MintableInit",
  "sourceName": "contracts/LSP7DigitalAsset/presets/LSP7CompatibleERC20MintableInit.sol",
  "abi": [
    {
      "inputs": [],
      "stateMutability": "nonpayable",
      "type": "constructor"
    },
    {
      "inputs": [],
      "name": "ERC725Y_DataKeysValuesEmptyArray",
      "type": "error"
    },
    {
      "inputs": [],
      "name": "ERC725Y_DataKeysValuesLengthMismatch",
      "type": "error"
    },
    {
      "inputs": [],
      "name": "ERC725Y_MsgValueDisallowed",
      "type": "error"
    },
    {
      "inputs": [],
      "name": "LSP4TokenNameNotEditable",
      "type": "error"
    },
    {
      "inputs": [],
      "name": "LSP4TokenSymbolNotEditable",
      "type": "error"
    },
    {
      "inputs": [
        {
          "internalType": "address",
          "name": "tokenOwner",
          "type": "address"
        },
        {
          "internalType": "uint256",
          "name": "authorizedAmount",
          "type": "uint256"
        },
        {
          "internalType": "address",
          "name": "operator",
          "type": "address"
        },
        {
          "internalType": "uint256",
          "name": "amount",
          "type": "uint256"
        }
      ],
      "name": "LSP7AmountExceedsAuthorizedAmount",
      "type": "error"
    },
    {
      "inputs": [
        {
          "internalType": "uint256",
          "name": "balance",
          "type": "uint256"
        },
        {
          "internalType": "address",
          "name": "tokenOwner",
          "type": "address"
        },
        {
          "internalType": "uint256",
          "name": "amount",
          "type": "uint256"
        }
      ],
      "name": "LSP7AmountExceedsBalance",
      "type": "error"
    },
    {
      "inputs": [],
      "name": "LSP7CannotSendToSelf",
      "type": "error"
    },
    {
      "inputs": [],
      "name": "LSP7CannotSendWithAddressZero",
      "type": "error"
    },
    {
      "inputs": [],
      "name": "LSP7CannotUseAddressZeroAsOperator",
      "type": "error"
    },
    {
      "inputs": [],
      "name": "LSP7DecreasedAllowanceBelowZero",
      "type": "error"
    },
    {
      "inputs": [],
      "name": "LSP7InvalidTransferBatch",
      "type": "error"
    },
    {
      "inputs": [
        {
          "internalType": "address",
          "name": "tokenReceiver",
          "type": "address"
        }
      ],
      "name": "LSP7NotifyTokenReceiverContractMissingLSP1Interface",
      "type": "error"
    },
    {
      "inputs": [
        {
          "internalType": "address",
          "name": "tokenReceiver",
          "type": "address"
        }
      ],
      "name": "LSP7NotifyTokenReceiverIsEOA",
      "type": "error"
    },
    {
      "inputs": [],
      "name": "LSP7TokenOwnerCannotBeOperator",
      "type": "error"
    },
    {
      "anonymous": false,
      "inputs": [
        {
          "indexed": true,
          "internalType": "address",
          "name": "owner",
          "type": "address"
        },
        {
          "indexed": true,
          "internalType": "address",
          "name": "spender",
          "type": "address"
        },
        {
          "indexed": false,
          "internalType": "uint256",
          "name": "value",
          "type": "uint256"
        }
      ],
      "name": "Approval",
      "type": "event"
    },
    {
      "anonymous": false,
      "inputs": [
        {
          "indexed": true,
          "internalType": "address",
          "name": "operator",
          "type": "address"
        },
        {
          "indexed": true,
          "internalType": "address",
          "name": "tokenOwner",
          "type": "address"
        },
        {
          "indexed": true,
          "internalType": "uint256",
          "name": "amount",
          "type": "uint256"
        }
      ],
      "name": "AuthorizedOperator",
      "type": "event"
    },
    {
      "anonymous": false,
      "inputs": [
        {
          "indexed": true,
          "internalType": "bytes32",
          "name": "dataKey",
          "type": "bytes32"
        },
        {
          "indexed": false,
          "internalType": "bytes",
          "name": "dataValue",
          "type": "bytes"
        }
      ],
      "name": "DataChanged",
      "type": "event"
    },
    {
      "anonymous": false,
      "inputs": [
        {
          "indexed": false,
          "internalType": "uint8",
          "name": "version",
          "type": "uint8"
        }
      ],
      "name": "Initialized",
      "type": "event"
    },
    {
      "anonymous": false,
      "inputs": [
        {
          "indexed": true,
          "internalType": "address",
          "name": "previousOwner",
          "type": "address"
        },
        {
          "indexed": true,
          "internalType": "address",
          "name": "newOwner",
          "type": "address"
        }
      ],
      "name": "OwnershipTransferred",
      "type": "event"
    },
    {
      "anonymous": false,
      "inputs": [
        {
          "indexed": true,
          "internalType": "address",
          "name": "operator",
          "type": "address"
        },
        {
          "indexed": true,
          "internalType": "address",
          "name": "tokenOwner",
          "type": "address"
        }
      ],
      "name": "RevokedOperator",
      "type": "event"
    },
    {
      "anonymous": false,
      "inputs": [
        {
          "indexed": true,
          "internalType": "address",
          "name": "from",
          "type": "address"
        },
        {
          "indexed": true,
          "internalType": "address",
          "name": "to",
          "type": "address"
        },
        {
          "indexed": false,
          "internalType": "uint256",
          "name": "value",
          "type": "uint256"
        }
      ],
      "name": "Transfer",
      "type": "event"
    },
    {
      "anonymous": false,
      "inputs": [
        {
          "indexed": true,
          "internalType": "address",
          "name": "operator",
          "type": "address"
        },
        {
          "indexed": true,
          "internalType": "address",
          "name": "from",
          "type": "address"
        },
        {
          "indexed": true,
          "internalType": "address",
          "name": "to",
          "type": "address"
        },
        {
          "indexed": false,
          "internalType": "uint256",
          "name": "amount",
          "type": "uint256"
        },
        {
          "indexed": false,
          "internalType": "bool",
          "name": "allowNonLSP1Recipient",
          "type": "bool"
        },
        {
          "indexed": false,
          "internalType": "bytes",
          "name": "data",
          "type": "bytes"
        }
      ],
      "name": "Transfer",
      "type": "event"
    },
    {
      "inputs": [
        {
          "internalType": "address",
          "name": "tokenOwner",
          "type": "address"
        },
        {
          "internalType": "address",
          "name": "operator",
          "type": "address"
        }
      ],
      "name": "allowance",
      "outputs": [
        {
          "internalType": "uint256",
          "name": "",
          "type": "uint256"
        }
      ],
      "stateMutability": "view",
      "type": "function"
    },
    {
      "inputs": [
        {
          "internalType": "address",
          "name": "operator",
          "type": "address"
        },
        {
          "internalType": "uint256",
          "name": "amount",
          "type": "uint256"
        }
      ],
      "name": "approve",
      "outputs": [
        {
          "internalType": "bool",
          "name": "",
          "type": "bool"
        }
      ],
      "stateMutability": "nonpayable",
      "type": "function"
    },
    {
      "inputs": [
        {
          "internalType": "address",
          "name": "operator",
          "type": "address"
        },
        {
          "internalType": "uint256",
          "name": "amount",
          "type": "uint256"
        }
      ],
      "name": "authorizeOperator",
      "outputs": [],
      "stateMutability": "nonpayable",
      "type": "function"
    },
    {
      "inputs": [
        {
          "internalType": "address",
          "name": "operator",
          "type": "address"
        },
        {
          "internalType": "address",
          "name": "tokenOwner",
          "type": "address"
        }
      ],
      "name": "authorizedAmountFor",
      "outputs": [
        {
          "internalType": "uint256",
          "name": "",
          "type": "uint256"
        }
      ],
      "stateMutability": "view",
      "type": "function"
    },
    {
      "inputs": [
        {
          "internalType": "address",
          "name": "tokenOwner",
          "type": "address"
        }
      ],
      "name": "balanceOf",
      "outputs": [
        {
          "internalType": "uint256",
          "name": "",
          "type": "uint256"
        }
      ],
      "stateMutability": "view",
      "type": "function"
    },
    {
      "inputs": [],
      "name": "decimals",
      "outputs": [
        {
          "internalType": "uint8",
          "name": "",
          "type": "uint8"
        }
      ],
      "stateMutability": "view",
      "type": "function"
    },
    {
      "inputs": [
        {
          "internalType": "address",
          "name": "operator",
          "type": "address"
        },
        {
          "internalType": "uint256",
          "name": "substractedAmount",
          "type": "uint256"
        }
      ],
      "name": "decreaseAllowance",
      "outputs": [],
      "stateMutability": "nonpayable",
      "type": "function"
    },
    {
      "inputs": [
        {
          "internalType": "bytes32",
          "name": "dataKey",
          "type": "bytes32"
        }
      ],
      "name": "getData",
      "outputs": [
        {
          "internalType": "bytes",
          "name": "dataValue",
          "type": "bytes"
        }
      ],
      "stateMutability": "view",
      "type": "function"
    },
    {
      "inputs": [
        {
          "internalType": "bytes32[]",
          "name": "dataKeys",
          "type": "bytes32[]"
        }
      ],
      "name": "getDataBatch",
      "outputs": [
        {
          "internalType": "bytes[]",
          "name": "dataValues",
          "type": "bytes[]"
        }
      ],
      "stateMutability": "view",
      "type": "function"
    },
    {
      "inputs": [
        {
          "internalType": "address",
          "name": "operator",
          "type": "address"
        },
        {
          "internalType": "uint256",
          "name": "addedAmount",
          "type": "uint256"
        }
      ],
      "name": "increaseAllowance",
      "outputs": [],
      "stateMutability": "nonpayable",
      "type": "function"
    },
    {
      "inputs": [
        {
          "internalType": "string",
          "name": "name_",
          "type": "string"
        },
        {
          "internalType": "string",
          "name": "symbol_",
          "type": "string"
        },
        {
          "internalType": "address",
          "name": "newOwner_",
          "type": "address"
        }
      ],
      "name": "initialize",
      "outputs": [],
      "stateMutability": "nonpayable",
      "type": "function"
    },
    {
      "inputs": [
        {
          "internalType": "address",
          "name": "to",
          "type": "address"
        },
        {
          "internalType": "uint256",
          "name": "amount",
          "type": "uint256"
        },
        {
          "internalType": "bool",
          "name": "allowNonLSP1Recipient",
          "type": "bool"
        },
        {
          "internalType": "bytes",
          "name": "data",
          "type": "bytes"
        }
      ],
      "name": "mint",
      "outputs": [],
      "stateMutability": "nonpayable",
      "type": "function"
    },
    {
      "inputs": [],
      "name": "name",
      "outputs": [
        {
          "internalType": "string",
          "name": "",
          "type": "string"
        }
      ],
      "stateMutability": "view",
      "type": "function"
    },
    {
      "inputs": [],
      "name": "owner",
      "outputs": [
        {
          "internalType": "address",
          "name": "",
          "type": "address"
        }
      ],
      "stateMutability": "view",
      "type": "function"
    },
    {
      "inputs": [],
      "name": "renounceOwnership",
      "outputs": [],
      "stateMutability": "nonpayable",
      "type": "function"
    },
    {
      "inputs": [
        {
          "internalType": "address",
          "name": "operator",
          "type": "address"
        }
      ],
      "name": "revokeOperator",
      "outputs": [],
      "stateMutability": "nonpayable",
      "type": "function"
    },
    {
      "inputs": [
        {
          "internalType": "bytes32",
          "name": "dataKey",
          "type": "bytes32"
        },
        {
          "internalType": "bytes",
          "name": "dataValue",
          "type": "bytes"
        }
      ],
      "name": "setData",
      "outputs": [],
      "stateMutability": "payable",
      "type": "function"
    },
    {
      "inputs": [
        {
          "internalType": "bytes32[]",
          "name": "dataKeys",
          "type": "bytes32[]"
        },
        {
          "internalType": "bytes[]",
          "name": "dataValues",
          "type": "bytes[]"
        }
      ],
      "name": "setDataBatch",
      "outputs": [],
      "stateMutability": "payable",
      "type": "function"
    },
    {
      "inputs": [
        {
          "internalType": "bytes4",
          "name": "interfaceId",
          "type": "bytes4"
        }
      ],
      "name": "supportsInterface",
      "outputs": [
        {
          "internalType": "bool",
          "name": "",
          "type": "bool"
        }
      ],
      "stateMutability": "view",
      "type": "function"
    },
    {
      "inputs": [],
      "name": "symbol",
      "outputs": [
        {
          "internalType": "string",
          "name": "",
          "type": "string"
        }
      ],
      "stateMutability": "view",
      "type": "function"
    },
    {
      "inputs": [],
      "name": "totalSupply",
      "outputs": [
        {
          "internalType": "uint256",
          "name": "",
          "type": "uint256"
        }
      ],
      "stateMutability": "view",
      "type": "function"
    },
    {
      "inputs": [
        {
          "internalType": "address",
          "name": "from",
          "type": "address"
        },
        {
          "internalType": "address",
          "name": "to",
          "type": "address"
        },
        {
          "internalType": "uint256",
          "name": "amount",
          "type": "uint256"
        },
        {
          "internalType": "bool",
          "name": "allowNonLSP1Recipient",
          "type": "bool"
        },
        {
          "internalType": "bytes",
          "name": "data",
          "type": "bytes"
        }
      ],
      "name": "transfer",
      "outputs": [],
      "stateMutability": "nonpayable",
      "type": "function"
    },
    {
      "inputs": [
        {
          "internalType": "address",
          "name": "to",
          "type": "address"
        },
        {
          "internalType": "uint256",
          "name": "amount",
          "type": "uint256"
        }
      ],
      "name": "transfer",
      "outputs": [
        {
          "internalType": "bool",
          "name": "",
          "type": "bool"
        }
      ],
      "stateMutability": "nonpayable",
      "type": "function"
    },
    {
      "inputs": [
        {
          "internalType": "address[]",
          "name": "from",
          "type": "address[]"
        },
        {
          "internalType": "address[]",
          "name": "to",
          "type": "address[]"
        },
        {
          "internalType": "uint256[]",
          "name": "amount",
          "type": "uint256[]"
        },
        {
          "internalType": "bool[]",
          "name": "allowNonLSP1Recipient",
          "type": "bool[]"
        },
        {
          "internalType": "bytes[]",
          "name": "data",
          "type": "bytes[]"
        }
      ],
      "name": "transferBatch",
      "outputs": [],
      "stateMutability": "nonpayable",
      "type": "function"
    },
    {
      "inputs": [
        {
          "internalType": "address",
          "name": "from",
          "type": "address"
        },
        {
          "internalType": "address",
          "name": "to",
          "type": "address"
        },
        {
          "internalType": "uint256",
          "name": "amount",
          "type": "uint256"
        }
      ],
      "name": "transferFrom",
      "outputs": [
        {
          "internalType": "bool",
          "name": "",
          "type": "bool"
        }
      ],
      "stateMutability": "nonpayable",
      "type": "function"
    },
    {
      "inputs": [
        {
          "internalType": "address",
          "name": "newOwner",
          "type": "address"
        }
      ],
      "name": "transferOwnership",
      "outputs": [],
      "stateMutability": "nonpayable",
      "type": "function"
    }
  ],
  "bytecode": "0x60806040523480156200001157600080fd5b506200001c62000022565b620000e4565b600054610100900460ff16156200008f5760405162461bcd60e51b815260206004820152602760248201527f496e697469616c697a61626c653a20636f6e747261637420697320696e697469604482015266616c697a696e6760c81b606482015260840160405180910390fd5b60005460ff9081161015620000e2576000805460ff191660ff9081179091556040519081527f7f26b83ff96e1f2b6a682f133852f6798a09c465da95921460cefb38474024989060200160405180910390a15b565b61263b80620000f46000396000f3fe6080604052600436106101a15760003560e01c8063715018a6116100e1578063979024211161008a578063dd62ed3e11610064578063dd62ed3e14610482578063dedff9c6146104a2578063f2fde38b146104cf578063fad8b32a146104ef57600080fd5b8063979024211461042f578063a457c2d714610442578063a9059cbb1461046257600080fd5b80637f23690c116100bb5780637f23690c146103d05780638da5cb5b146103e357806395d89b411461041a57600080fd5b8063715018a61461037b5780637580d92014610390578063760d9bba146103b057600080fd5b80632d7667c91161014e57806347980aa31161012857806347980aa3146102e557806354f6127f1461030557806365aeaa951461032557806370a082311461034557600080fd5b80632d7667c91461027e578063313ce5671461029e57806339509351146102c557600080fd5b8063095ea7b31161017f578063095ea7b31461021f57806318160ddd1461023f57806323b872dd1461025e57600080fd5b806301ffc9a7146101a657806306fdde03146101db578063077f224a146101fd575b600080fd5b3480156101b257600080fd5b506101c66101c1366004611bf7565b61050f565b60405190151581526020015b60405180910390f35b3480156101e757600080fd5b506101f0610520565b6040516101d29190611c79565b34801561020957600080fd5b5061021d610218366004611d6d565b61054d565b005b34801561022b57600080fd5b506101c661023a366004611de1565b610678565b34801561024b57600080fd5b506004545b6040519081526020016101d2565b34801561026a57600080fd5b506101c6610279366004611e0b565b61068d565b34801561028a57600080fd5b5061021d610299366004612025565b6106b6565b3480156102aa57600080fd5b506102b36107be565b60405160ff90911681526020016101d2565b3480156102d157600080fd5b5061021d6102e0366004611de1565b6107d7565b3480156102f157600080fd5b5061021d610300366004611de1565b6107fa565b34801561031157600080fd5b506101f06103203660046120f7565b610805565b34801561033157600080fd5b50610250610340366004612110565b610810565b34801561035157600080fd5b50610250610360366004612143565b6001600160a01b031660009081526002602052604090205490565b34801561038757600080fd5b5061021d610876565b34801561039c57600080fd5b5061021d6103ab36600461215e565b61088a565b3480156103bc57600080fd5b5061021d6103cb3660046121c6565b61089e565b61021d6103de366004612232565b6109a1565b3480156103ef57600080fd5b506000546201000090046001600160a01b03166040516001600160a01b0390911681526020016101d2565b34801561042657600080fd5b506101f06109d2565b61021d61043d366004612279565b6109ff565b34801561044e57600080fd5b5061021d61045d366004611de1565b610af1565b34801561046e57600080fd5b506101c661047d366004611de1565b610b46565b34801561048e57600080fd5b5061025061049d366004612110565b610b65565b3480156104ae57600080fd5b506104c26104bd3660046122d3565b610b78565b6040516101d29190612310565b3480156104db57600080fd5b5061021d6104ea366004612143565b610c23565b3480156104fb57600080fd5b5061021d61050a366004612143565b610cb3565b600061051a82610cbf565b92915050565b6060600061051a7fdeba1e292f8ba88238e10ab3c7f88bd4be4fac56cad5194b6ecceaf653468af1610cfd565b600054610100900460ff161580801561056d5750600054600160ff909116105b806105875750303b158015610587575060005460ff166001145b6105fe5760405162461bcd60e51b815260206004820152602e60248201527f496e697469616c697a61626c653a20636f6e747261637420697320616c72656160448201527f647920696e697469616c697a656400000000000000000000000000000000000060648201526084015b60405180910390fd5b6000805460ff191660011790558015610621576000805461ff0019166101001790555b61062c848484610d9f565b8015610672576000805461ff0019169055604051600181527f7f26b83ff96e1f2b6a682f133852f6798a09c465da95921460cefb38474024989060200160405180910390a15b50505050565b600061068483836107fa565b50600192915050565b60006106ac84848460016040518060200160405280600081525061089e565b5060019392505050565b84518451811415806106c9575083518114155b806106d5575082518114155b806106e1575081518114155b15610718576040517f263eee8d00000000000000000000000000000000000000000000000000000000815260040160405180910390fd5b60005b818110156107b5576107ad87828151811061073857610738612372565b602002602001015187838151811061075257610752612372565b602002602001015187848151811061076c5761076c612372565b602002602001015187858151811061078657610786612372565b60200260200101518786815181106107a0576107a0612372565b602002602001015161089e565b60010161071b565b50505050505050565b60055460009060ff166107d15750601290565b50600090565b6107f63383836107e78633610810565b6107f1919061239e565b610e15565b5050565b6107f6338383610e15565b606061051a82610cfd565b6000826001600160a01b0316826001600160a01b03160361084a57506001600160a01b03811660009081526002602052604090205461051a565b506001600160a01b0380821660009081526003602090815260408083209386168352929052205461051a565b61087e610e72565b6108886000610ed3565b565b610892610e72565b61067284848484610f5f565b836001600160a01b0316856001600160a01b0316036108e9576040517fb9afb00000000000000000000000000000000000000000000000000000000000815260040160405180910390fd5b336001600160a01b038616811461098c576001600160a01b038087166000908152600360209081526040808320938516835292905220548085111561097b576040517ff3a6b6910000000000000000000000000000000000000000000000000000000081526001600160a01b0380891660048301526024820183905283166044820152606481018690526084016105f5565b61098a87836107f188856123b6565b505b6109998686868686610fac565b505050505050565b6109a9610e72565b34156109c85760405163f36ba73760e01b815260040160405180910390fd5b6107f6828261100d565b6060600061051a7f2f0a68ab07768e01943a599e73362a0e17a63a72e94dd2e384d2c1d4db932756610cfd565b610a07610e72565b3415610a265760405163f36ba73760e01b815260040160405180910390fd5b8051825114610a61576040517f3bcc897900000000000000000000000000000000000000000000000000000000815260040160405180910390fd5b8151600003610a9c576040517f97da5f9500000000000000000000000000000000000000000000000000000000815260040160405180910390fd5b60005b8251811015610aec57610ae4838281518110610abd57610abd612372565b6020026020010151838381518110610ad757610ad7612372565b602002602001015161100d565b600101610a9f565b505050565b6000610afd8333610810565b905081811015610b39576040517f0ef76c3500000000000000000000000000000000000000000000000000000000815260040160405180910390fd5b610aec3384848403610e15565b600061068433848460016040518060200160405280600081525061089e565b6000610b718284610810565b9392505050565b6060815167ffffffffffffffff811115610b9457610b94611c8c565b604051908082528060200260200182016040528015610bc757816020015b6060815260200190600190039081610bb25790505b50905060005b8251811015610c1d57610bf8838281518110610beb57610beb612372565b6020026020010151610cfd565b828281518110610c0a57610c0a612372565b6020908102919091010152600101610bcd565b50919050565b610c2b610e72565b6001600160a01b038116610ca75760405162461bcd60e51b815260206004820152602660248201527f4f776e61626c653a206e6577206f776e657220697320746865207a65726f206160448201527f646472657373000000000000000000000000000000000000000000000000000060648201526084016105f5565b610cb081610ed3565b50565b610cb033826000610e15565b60006001600160e01b031982167fda1f85e400000000000000000000000000000000000000000000000000000000148061051a575061051a82611017565b6000818152600160205260409020805460609190610d1a906123cd565b80601f0160208091040260200160405190810160405280929190818152602001828054610d46906123cd565b8015610d935780601f10610d6857610100808354040283529160200191610d93565b820191906000526020600020905b815481529060010190602001808311610d7657829003601f168201915b50505050509050919050565b600054610100900460ff16610e0a5760405162461bcd60e51b815260206004820152602b60248201527f496e697469616c697a61626c653a20636f6e7472616374206973206e6f74206960448201526a6e697469616c697a696e6760a81b60648201526084016105f5565b610aec838383611065565b610e208383836110dd565b816001600160a01b0316836001600160a01b03167f8c5be1e5ebec7d5bd14f71427d1e84f3dd0314c0f7b2291e5b200ac8c7c3b92583604051610e6591815260200190565b60405180910390a3505050565b6000546001600160a01b03620100009091041633146108885760405162461bcd60e51b815260206004820181905260248201527f4f776e61626c653a2063616c6c6572206973206e6f7420746865206f776e657260448201526064016105f5565b6000546001600160a01b03828116620100009092041614610cb057600080546001600160a01b03838116620100008181027fffffffffffffffffffff0000000000000000000000000000000000000000ffff851617855560405193049190911692909183917f8be0079c531659141344cd1fd0a4f28419497f9722a3daafe3b4186f6b6457e091a35050565b6040518381526001600160a01b038516906000907fddf252ad1be2c89b69c2b068fc378daa952ba7f163c4a11628f55a4df523b3ef9060200160405180910390a361067284848484611221565b836001600160a01b0316856001600160a01b03167fddf252ad1be2c89b69c2b068fc378daa952ba7f163c4a11628f55a4df523b3ef85604051610ff191815260200190565b60405180910390a3611006858585858561131e565b5050505050565b6107f682826114c4565b60006001600160e01b031982167f629aa69400000000000000000000000000000000000000000000000000000000148061051a57506301ffc9a760e01b6001600160e01b031983161461051a565b600054610100900460ff166110d05760405162461bcd60e51b815260206004820152602b60248201527f496e697469616c697a61626c653a20636f6e7472616374206973206e6f74206960448201526a6e697469616c697a696e6760a81b60648201526084016105f5565b610aec83838360006115ea565b6001600160a01b03821661111d576040517f6355e76600000000000000000000000000000000000000000000000000000000815260040160405180910390fd5b826001600160a01b0316826001600160a01b031603611168576040517fdab7504700000000000000000000000000000000000000000000000000000000815260040160405180910390fd5b6001600160a01b03808416600090815260036020908152604080832093861683529290522081905580156111dc5780836001600160a01b0316836001600160a01b03167fd66aff874162a96578e919097b6f6d153dfd89a5cec41bb331fdb0c4aec16e2c60405160405180910390a4505050565b826001600160a01b0316826001600160a01b03167f50546e66e5f44d728365dc3908c63bc5cfeeab470722c1677e3073a6ac294aa160405160405180910390a3505050565b6001600160a01b03841661124857604051630d2d5ec360e41b815260040160405180910390fd5b33836004600082825461125b919061239e565b90915550506001600160a01b0385166000908152600260205260408120805486929061128890849061239e565b92505081905550846001600160a01b031660006001600160a01b0316826001600160a01b03167f3997e418d2cef0b3b0e907b1e39605c3f7d32dbd061e82ea5b4a770d46a160a68787876040516112e193929190612401565b60405180910390a4600080868685604051602001611302949392919061242b565b604051602081830303815290604052905061099986858361166e565b6001600160a01b038516158061133b57506001600160a01b038416155b1561135957604051630d2d5ec360e41b815260040160405180910390fd5b6001600160a01b038516600090815260026020526040902054808411156113c5576040517f08d47949000000000000000000000000000000000000000000000000000000008152600481018290526001600160a01b0387166024820152604481018590526064016105f5565b336001600160a01b038716600090815260026020526040812080548792906113ee9084906123b6565b90915550506001600160a01b0386166000908152600260205260408120805487929061141b90849061239e565b92505081905550856001600160a01b0316876001600160a01b0316826001600160a01b03167f3997e418d2cef0b3b0e907b1e39605c3f7d32dbd061e82ea5b4a770d46a160a688888860405161147393929190612401565b60405180910390a4600087878786604051602001611494949392919061242b565b60405160208183030381529060405290506114af88826117a8565b6114ba87868361166e565b5050505050505050565b7f2145e1d6d074577dc71ef54c3807742b41b053a9352ae6b491331509acb9750f820161151d576040517f85c169bd00000000000000000000000000000000000000000000000000000000815260040160405180910390fd5b7fd0f59754f88971fe6bc5a6618cc9d5f1e859c58d16b22d1c7b2d3e2b246cd8aa8201611576576040517f76755b3800000000000000000000000000000000000000000000000000000000815260040160405180910390fd5b600082815260016020526040902061158e82826124be565b50817fece574603820d07bc9b91f2a932baadf4628aabcb8afba49776529c14a6104b2610100835111156115cf576115ca836000610100611853565b6115d1565b825b6040516115de9190611c79565b60405180910390a25050565b600054610100900460ff166116555760405162461bcd60e51b815260206004820152602b60248201527f496e697469616c697a61626c653a20636f6e7472616374206973206e6f74206960448201526a6e697469616c697a696e6760a81b60648201526084016105f5565b6005805460ff191682151517905561067284848461197b565b61167f83631aed5a8560e21b611aa5565b1561171957604051631aed5a8560e21b81526001600160a01b03841690636bb56a14906116d2907f20804611b3e2ea21c480dc465142210acf4a2485947541770ec1fb87dee4a55c90859060040161257e565b6000604051808303816000875af11580156116f1573d6000803e3d6000fd5b505050506040513d6000823e601f3d908101601f191682016040526106729190810190612597565b81610aec576001600160a01b0383163b1561176b576040517fa608fbb60000000000000000000000000000000000000000000000000000000081526001600160a01b03841660048201526024016105f5565b6040517f26c247f40000000000000000000000000000000000000000000000000000000081526001600160a01b03841660048201526024016105f5565b6117b982631aed5a8560e21b611aa5565b156107f657604051631aed5a8560e21b81526001600160a01b03831690636bb56a149061180c907f429ac7a06903dbc9c13dfcb3c9d11df8194581fa047c96d7a4171fc7402958ea90859060040161257e565b6000604051808303816000875af115801561182b573d6000803e3d6000fd5b505050506040513d6000823e601f3d908101601f19168201604052610aec9190810190612597565b60608161186181601f61239e565b10156118af5760405162461bcd60e51b815260206004820152600e60248201527f736c6963655f6f766572666c6f7700000000000000000000000000000000000060448201526064016105f5565b6118b9828461239e565b845110156119095760405162461bcd60e51b815260206004820152601160248201527f736c6963655f6f75744f66426f756e647300000000000000000000000000000060448201526064016105f5565b6060821580156119285760405191506000825260208201604052611972565b6040519150601f8416801560200281840101858101878315602002848b0101015b81831015611961578051835260209283019201611949565b5050858452601f01601f1916604052505b50949350505050565b600054610100900460ff166119e65760405162461bcd60e51b815260206004820152602b60248201527f496e697469616c697a61626c653a20636f6e7472616374206973206e6f74206960448201526a6e697469616c697a696e6760a81b60648201526084016105f5565b6119ef81611b43565b611a517feafec4d89fa9619884b60000a4d96624a38f7ac2d8d9a604ecf07c12c77e480c60001b6040518060400160405280600481526020017fa4d9662400000000000000000000000000000000000000000000000000000000815250611bae565b611a7b7fdeba1e292f8ba88238e10ab3c7f88bd4be4fac56cad5194b6ecceaf653468af184611bae565b610aec7f2f0a68ab07768e01943a599e73362a0e17a63a72e94dd2e384d2c1d4db93275683611bae565b604080516001600160e01b03198316602480830191909152825180830390910181526044909101909152602080820180517bffffffffffffffffffffffffffffffffffffffffffffffffffffffff166301ffc9a760e01b178152825160009392849283928392918391908a617530fa92503d91506000519050828015611b2c575060208210155b8015611b385750600081115b979650505050505050565b600054610100900460ff16610c2b5760405162461bcd60e51b815260206004820152602b60248201527f496e697469616c697a61626c653a20636f6e7472616374206973206e6f74206960448201526a6e697469616c697a696e6760a81b60648201526084016105f5565b6000828152600160205260409020611bc682826124be565b50817fece574603820d07bc9b91f2a932baadf4628aabcb8afba49776529c14a6104b2826040516115de9190611c79565b600060208284031215611c0957600080fd5b81356001600160e01b031981168114610b7157600080fd5b60005b83811015611c3c578181015183820152602001611c24565b838111156106725750506000910152565b60008151808452611c65816020860160208601611c21565b601f01601f19169290920160200192915050565b602081526000610b716020830184611c4d565b634e487b7160e01b600052604160045260246000fd5b604051601f8201601f1916810167ffffffffffffffff81118282101715611ccb57611ccb611c8c565b604052919050565b600067ffffffffffffffff821115611ced57611ced611c8c565b50601f01601f191660200190565b600082601f830112611d0c57600080fd5b8135611d1f611d1a82611cd3565b611ca2565b818152846020838601011115611d3457600080fd5b816020850160208301376000918101602001919091529392505050565b80356001600160a01b0381168114611d6857600080fd5b919050565b600080600060608486031215611d8257600080fd5b833567ffffffffffffffff80821115611d9a57600080fd5b611da687838801611cfb565b94506020860135915080821115611dbc57600080fd5b50611dc986828701611cfb565b925050611dd860408501611d51565b90509250925092565b60008060408385031215611df457600080fd5b611dfd83611d51565b946020939093013593505050565b600080600060608486031215611e2057600080fd5b611e2984611d51565b9250611e3760208501611d51565b9150604084013590509250925092565b600067ffffffffffffffff821115611e6157611e61611c8c565b5060051b60200190565b600082601f830112611e7c57600080fd5b81356020611e8c611d1a83611e47565b82815260059290921b84018101918181019086841115611eab57600080fd5b8286015b84811015611ecd57611ec081611d51565b8352918301918301611eaf565b509695505050505050565b600082601f830112611ee957600080fd5b81356020611ef9611d1a83611e47565b82815260059290921b84018101918181019086841115611f1857600080fd5b8286015b84811015611ecd5780358352918301918301611f1c565b80358015158114611d6857600080fd5b600082601f830112611f5457600080fd5b81356020611f64611d1a83611e47565b82815260059290921b84018101918181019086841115611f8357600080fd5b8286015b84811015611ecd57611f9881611f33565b8352918301918301611f87565b600082601f830112611fb657600080fd5b81356020611fc6611d1a83611e47565b82815260059290921b84018101918181019086841115611fe557600080fd5b8286015b84811015611ecd57803567ffffffffffffffff8111156120095760008081fd5b6120178986838b0101611cfb565b845250918301918301611fe9565b600080600080600060a0868803121561203d57600080fd5b853567ffffffffffffffff8082111561205557600080fd5b61206189838a01611e6b565b9650602088013591508082111561207757600080fd5b61208389838a01611e6b565b9550604088013591508082111561209957600080fd5b6120a589838a01611ed8565b945060608801359150808211156120bb57600080fd5b6120c789838a01611f43565b935060808801359150808211156120dd57600080fd5b506120ea88828901611fa5565b9150509295509295909350565b60006020828403121561210957600080fd5b5035919050565b6000806040838503121561212357600080fd5b61212c83611d51565b915061213a60208401611d51565b90509250929050565b60006020828403121561215557600080fd5b610b7182611d51565b6000806000806080858703121561217457600080fd5b61217d85611d51565b93506020850135925061219260408601611f33565b9150606085013567ffffffffffffffff8111156121ae57600080fd5b6121ba87828801611cfb565b91505092959194509250565b600080600080600060a086880312156121de57600080fd5b6121e786611d51565b94506121f560208701611d51565b93506040860135925061220a60608701611f33565b9150608086013567ffffffffffffffff81111561222657600080fd5b6120ea88828901611cfb565b6000806040838503121561224557600080fd5b82359150602083013567ffffffffffffffff81111561226357600080fd5b61226f85828601611cfb565b9150509250929050565b6000806040838503121561228c57600080fd5b823567ffffffffffffffff808211156122a457600080fd5b6122b086838701611ed8565b935060208501359150808211156122c657600080fd5b5061226f85828601611fa5565b6000602082840312156122e557600080fd5b813567ffffffffffffffff8111156122fc57600080fd5b61230884828501611ed8565b949350505050565b6000602080830181845280855180835260408601915060408160051b870101925083870160005b8281101561236557603f19888603018452612353858351611c4d565b94509285019290850190600101612337565b5092979650505050505050565b634e487b7160e01b600052603260045260246000fd5b634e487b7160e01b600052601160045260246000fd5b600082198211156123b1576123b1612388565b500190565b6000828210156123c8576123c8612388565b500390565b600181811c908216806123e157607f821691505b602082108103610c1d57634e487b7160e01b600052602260045260246000fd5b83815282151560208201526060604082015260006124226060830184611c4d565b95945050505050565b60006bffffffffffffffffffffffff19808760601b168352808660601b166014840152508360288301528251612468816048850160208701611c21565b9190910160480195945050505050565b601f821115610aec57600081815260208120601f850160051c8101602086101561249f5750805b601f850160051c820191505b81811015610999578281556001016124ab565b815167ffffffffffffffff8111156124d8576124d8611c8c565b6124ec816124e684546123cd565b84612478565b602080601f83116001811461252157600084156125095750858301515b600019600386901b1c1916600185901b178555610999565b600085815260208120601f198616915b8281101561255057888601518255948401946001909101908401612531565b508582101561256e5787850151600019600388901b60f8161c191681555b5050505050600190811b01905550565b8281526040602082015260006123086040830184611c4d565b6000602082840312156125a957600080fd5b815167ffffffffffffffff8111156125c057600080fd5b8201601f810184136125d157600080fd5b80516125df611d1a82611cd3565b8181528560208385010111156125f457600080fd5b612422826020830160208601611c2156fea2646970667358221220d23cbe8c80489b48c3b6845afbb846181584916438db4b0e922ef0637dc315c864736f6c634300080f0033",
  "linkReferences": {},
  "deployedLinkReferences": {}
}