{
  "_format": "hh-sol-artifact-1",
  "contractName": "LSP7Mintable",
  "sourceName": "contracts/LSP7DigitalAsset/presets/LSP7Mintable.sol",
  "abi": [
    {
      "inputs": [
        {
          "internalType": "string",
          "name": "name_",
          "type": "string"
        },
        {
          "internalType": "string",
          "name": "symbol_",
          "type": "string"
        },
        {
          "internalType": "address",
          "name": "newOwner_",
          "type": "address"
        },
        {
          "internalType": "bool",
          "name": "isNonDivisible_",
          "type": "bool"
        }
      ],
      "stateMutability": "nonpayable",
      "type": "constructor"
    },
    {
      "inputs": [],
      "name": "ERC725Y_DataKeysValuesEmptyArray",
      "type": "error"
    },
    {
      "inputs": [],
      "name": "ERC725Y_DataKeysValuesLengthMismatch",
      "type": "error"
    },
    {
      "inputs": [],
      "name": "ERC725Y_MsgValueDisallowed",
      "type": "error"
    },
    {
      "inputs": [],
      "name": "LSP4TokenNameNotEditable",
      "type": "error"
    },
    {
      "inputs": [],
      "name": "LSP4TokenSymbolNotEditable",
      "type": "error"
    },
    {
      "inputs": [
        {
          "internalType": "address",
          "name": "tokenOwner",
          "type": "address"
        },
        {
          "internalType": "uint256",
          "name": "authorizedAmount",
          "type": "uint256"
        },
        {
          "internalType": "address",
          "name": "operator",
          "type": "address"
        },
        {
          "internalType": "uint256",
          "name": "amount",
          "type": "uint256"
        }
      ],
      "name": "LSP7AmountExceedsAuthorizedAmount",
      "type": "error"
    },
    {
      "inputs": [
        {
          "internalType": "uint256",
          "name": "balance",
          "type": "uint256"
        },
        {
          "internalType": "address",
          "name": "tokenOwner",
          "type": "address"
        },
        {
          "internalType": "uint256",
          "name": "amount",
          "type": "uint256"
        }
      ],
      "name": "LSP7AmountExceedsBalance",
      "type": "error"
    },
    {
      "inputs": [],
      "name": "LSP7CannotSendToSelf",
      "type": "error"
    },
    {
      "inputs": [],
      "name": "LSP7CannotSendWithAddressZero",
      "type": "error"
    },
    {
      "inputs": [],
      "name": "LSP7CannotUseAddressZeroAsOperator",
      "type": "error"
    },
    {
      "inputs": [],
      "name": "LSP7DecreasedAllowanceBelowZero",
      "type": "error"
    },
    {
      "inputs": [],
      "name": "LSP7InvalidTransferBatch",
      "type": "error"
    },
    {
      "inputs": [
        {
          "internalType": "address",
          "name": "tokenReceiver",
          "type": "address"
        }
      ],
      "name": "LSP7NotifyTokenReceiverContractMissingLSP1Interface",
      "type": "error"
    },
    {
      "inputs": [
        {
          "internalType": "address",
          "name": "tokenReceiver",
          "type": "address"
        }
      ],
      "name": "LSP7NotifyTokenReceiverIsEOA",
      "type": "error"
    },
    {
      "inputs": [],
      "name": "LSP7TokenOwnerCannotBeOperator",
      "type": "error"
    },
    {
      "anonymous": false,
      "inputs": [
        {
          "indexed": true,
          "internalType": "address",
          "name": "operator",
          "type": "address"
        },
        {
          "indexed": true,
          "internalType": "address",
          "name": "tokenOwner",
          "type": "address"
        },
        {
          "indexed": true,
          "internalType": "uint256",
          "name": "amount",
          "type": "uint256"
        }
      ],
      "name": "AuthorizedOperator",
      "type": "event"
    },
    {
      "anonymous": false,
      "inputs": [
        {
          "indexed": true,
          "internalType": "bytes32",
          "name": "dataKey",
          "type": "bytes32"
        },
        {
          "indexed": false,
          "internalType": "bytes",
          "name": "dataValue",
          "type": "bytes"
        }
      ],
      "name": "DataChanged",
      "type": "event"
    },
    {
      "anonymous": false,
      "inputs": [
        {
          "indexed": true,
          "internalType": "address",
          "name": "previousOwner",
          "type": "address"
        },
        {
          "indexed": true,
          "internalType": "address",
          "name": "newOwner",
          "type": "address"
        }
      ],
      "name": "OwnershipTransferred",
      "type": "event"
    },
    {
      "anonymous": false,
      "inputs": [
        {
          "indexed": true,
          "internalType": "address",
          "name": "operator",
          "type": "address"
        },
        {
          "indexed": true,
          "internalType": "address",
          "name": "tokenOwner",
          "type": "address"
        }
      ],
      "name": "RevokedOperator",
      "type": "event"
    },
    {
      "anonymous": false,
      "inputs": [
        {
          "indexed": true,
          "internalType": "address",
          "name": "operator",
          "type": "address"
        },
        {
          "indexed": true,
          "internalType": "address",
          "name": "from",
          "type": "address"
        },
        {
          "indexed": true,
          "internalType": "address",
          "name": "to",
          "type": "address"
        },
        {
          "indexed": false,
          "internalType": "uint256",
          "name": "amount",
          "type": "uint256"
        },
        {
          "indexed": false,
          "internalType": "bool",
          "name": "allowNonLSP1Recipient",
          "type": "bool"
        },
        {
          "indexed": false,
          "internalType": "bytes",
          "name": "data",
          "type": "bytes"
        }
      ],
      "name": "Transfer",
      "type": "event"
    },
    {
      "inputs": [
        {
          "internalType": "address",
          "name": "operator",
          "type": "address"
        },
        {
          "internalType": "uint256",
          "name": "amount",
          "type": "uint256"
        }
      ],
      "name": "authorizeOperator",
      "outputs": [],
      "stateMutability": "nonpayable",
      "type": "function"
    },
    {
      "inputs": [
        {
          "internalType": "address",
          "name": "operator",
          "type": "address"
        },
        {
          "internalType": "address",
          "name": "tokenOwner",
          "type": "address"
        }
      ],
      "name": "authorizedAmountFor",
      "outputs": [
        {
          "internalType": "uint256",
          "name": "",
          "type": "uint256"
        }
      ],
      "stateMutability": "view",
      "type": "function"
    },
    {
      "inputs": [
        {
          "internalType": "address",
          "name": "tokenOwner",
          "type": "address"
        }
      ],
      "name": "balanceOf",
      "outputs": [
        {
          "internalType": "uint256",
          "name": "",
          "type": "uint256"
        }
      ],
      "stateMutability": "view",
      "type": "function"
    },
    {
      "inputs": [],
      "name": "decimals",
      "outputs": [
        {
          "internalType": "uint8",
          "name": "",
          "type": "uint8"
        }
      ],
      "stateMutability": "view",
      "type": "function"
    },
    {
      "inputs": [
        {
          "internalType": "address",
          "name": "operator",
          "type": "address"
        },
        {
          "internalType": "uint256",
          "name": "substractedAmount",
          "type": "uint256"
        }
      ],
      "name": "decreaseAllowance",
      "outputs": [],
      "stateMutability": "nonpayable",
      "type": "function"
    },
    {
      "inputs": [
        {
          "internalType": "bytes32",
          "name": "dataKey",
          "type": "bytes32"
        }
      ],
      "name": "getData",
      "outputs": [
        {
          "internalType": "bytes",
          "name": "dataValue",
          "type": "bytes"
        }
      ],
      "stateMutability": "view",
      "type": "function"
    },
    {
      "inputs": [
        {
          "internalType": "bytes32[]",
          "name": "dataKeys",
          "type": "bytes32[]"
        }
      ],
      "name": "getDataBatch",
      "outputs": [
        {
          "internalType": "bytes[]",
          "name": "dataValues",
          "type": "bytes[]"
        }
      ],
      "stateMutability": "view",
      "type": "function"
    },
    {
      "inputs": [
        {
          "internalType": "address",
          "name": "operator",
          "type": "address"
        },
        {
          "internalType": "uint256",
          "name": "addedAmount",
          "type": "uint256"
        }
      ],
      "name": "increaseAllowance",
      "outputs": [],
      "stateMutability": "nonpayable",
      "type": "function"
    },
    {
      "inputs": [
        {
          "internalType": "address",
          "name": "to",
          "type": "address"
        },
        {
          "internalType": "uint256",
          "name": "amount",
          "type": "uint256"
        },
        {
          "internalType": "bool",
          "name": "allowNonLSP1Recipient",
          "type": "bool"
        },
        {
          "internalType": "bytes",
          "name": "data",
          "type": "bytes"
        }
      ],
      "name": "mint",
      "outputs": [],
      "stateMutability": "nonpayable",
      "type": "function"
    },
    {
      "inputs": [],
      "name": "owner",
      "outputs": [
        {
          "internalType": "address",
          "name": "",
          "type": "address"
        }
      ],
      "stateMutability": "view",
      "type": "function"
    },
    {
      "inputs": [],
      "name": "renounceOwnership",
      "outputs": [],
      "stateMutability": "nonpayable",
      "type": "function"
    },
    {
      "inputs": [
        {
          "internalType": "address",
          "name": "operator",
          "type": "address"
        }
      ],
      "name": "revokeOperator",
      "outputs": [],
      "stateMutability": "nonpayable",
      "type": "function"
    },
    {
      "inputs": [
        {
          "internalType": "bytes32",
          "name": "dataKey",
          "type": "bytes32"
        },
        {
          "internalType": "bytes",
          "name": "dataValue",
          "type": "bytes"
        }
      ],
      "name": "setData",
      "outputs": [],
      "stateMutability": "payable",
      "type": "function"
    },
    {
      "inputs": [
        {
          "internalType": "bytes32[]",
          "name": "dataKeys",
          "type": "bytes32[]"
        },
        {
          "internalType": "bytes[]",
          "name": "dataValues",
          "type": "bytes[]"
        }
      ],
      "name": "setDataBatch",
      "outputs": [],
      "stateMutability": "payable",
      "type": "function"
    },
    {
      "inputs": [
        {
          "internalType": "bytes4",
          "name": "interfaceId",
          "type": "bytes4"
        }
      ],
      "name": "supportsInterface",
      "outputs": [
        {
          "internalType": "bool",
          "name": "",
          "type": "bool"
        }
      ],
      "stateMutability": "view",
      "type": "function"
    },
    {
      "inputs": [],
      "name": "totalSupply",
      "outputs": [
        {
          "internalType": "uint256",
          "name": "",
          "type": "uint256"
        }
      ],
      "stateMutability": "view",
      "type": "function"
    },
    {
      "inputs": [
        {
          "internalType": "address",
          "name": "from",
          "type": "address"
        },
        {
          "internalType": "address",
          "name": "to",
          "type": "address"
        },
        {
          "internalType": "uint256",
          "name": "amount",
          "type": "uint256"
        },
        {
          "internalType": "bool",
          "name": "allowNonLSP1Recipient",
          "type": "bool"
        },
        {
          "internalType": "bytes",
          "name": "data",
          "type": "bytes"
        }
      ],
      "name": "transfer",
      "outputs": [],
      "stateMutability": "nonpayable",
      "type": "function"
    },
    {
      "inputs": [
        {
          "internalType": "address[]",
          "name": "from",
          "type": "address[]"
        },
        {
          "internalType": "address[]",
          "name": "to",
          "type": "address[]"
        },
        {
          "internalType": "uint256[]",
          "name": "amount",
          "type": "uint256[]"
        },
        {
          "internalType": "bool[]",
          "name": "allowNonLSP1Recipient",
          "type": "bool[]"
        },
        {
          "internalType": "bytes[]",
          "name": "data",
          "type": "bytes[]"
        }
      ],
      "name": "transferBatch",
      "outputs": [],
      "stateMutability": "nonpayable",
      "type": "function"
    },
    {
      "inputs": [
        {
          "internalType": "address",
          "name": "newOwner",
          "type": "address"
        }
      ],
      "name": "transferOwnership",
      "outputs": [],
      "stateMutability": "nonpayable",
      "type": "function"
    }
  ],
  "bytecode": "0x60806040523480156200001157600080fd5b50604051620023ce380380620023ce833981016040819052620000349162000344565b83838383838383806001600160a01b038116620000a65760405162461bcd60e51b815260206004820152602660248201527f4f776e61626c653a206e6577206f776e657220697320746865207a65726f206160448201526564647265737360d01b606482015260840160405180910390fd5b620000bc81620001aa60201b620009d31760201c565b50620001137feafec4d89fa9619884b60000a4d96624a38f7ac2d8d9a604ecf07c12c77e480c60001b604051806040016040528060048152602001632936598960e21b8152506200021160201b62000a501760201c565b6200014d7fdeba1e292f8ba88238e10ab3c7f88bd4be4fac56cad5194b6ecceaf653468af160001b846200021160201b62000a501760201c565b620001877f2f0a68ab07768e01943a599e73362a0e17a63a72e94dd2e384d2c1d4db93275660001b836200021160201b62000a501760201c565b50506005805460ff19169215159290921790915550620005799650505050505050565b6000546001600160a01b038281169116146200020e57600080546001600160a01b038381166001600160a01b0319831681178455604051919092169283917f8be0079c531659141344cd1fd0a4f28419497f9722a3daafe3b4186f6b6457e09190a3505b50565b60008281526001602052604090206200022b828262000478565b50817fece574603820d07bc9b91f2a932baadf4628aabcb8afba49776529c14a6104b2826040516200025e919062000544565b60405180910390a25050565b634e487b7160e01b600052604160045260246000fd5b60005b838110156200029d57818101518382015260200162000283565b83811115620002ad576000848401525b50505050565b600082601f830112620002c557600080fd5b81516001600160401b0380821115620002e257620002e26200026a565b604051601f8301601f19908116603f011681019082821181831017156200030d576200030d6200026a565b816040528381528660208588010111156200032757600080fd5b6200033a84602083016020890162000280565b9695505050505050565b600080600080608085870312156200035b57600080fd5b84516001600160401b03808211156200037357600080fd5b6200038188838901620002b3565b955060208701519150808211156200039857600080fd5b50620003a787828801620002b3565b604087015190945090506001600160a01b0381168114620003c757600080fd5b60608601519092508015158114620003de57600080fd5b939692955090935050565b600181811c90821680620003fe57607f821691505b6020821081036200041f57634e487b7160e01b600052602260045260246000fd5b50919050565b601f8211156200047357600081815260208120601f850160051c810160208610156200044e5750805b601f850160051c820191505b818110156200046f578281556001016200045a565b5050505b505050565b81516001600160401b038111156200049457620004946200026a565b620004ac81620004a58454620003e9565b8462000425565b602080601f831160018114620004e45760008415620004cb5750858301515b600019600386901b1c1916600185901b1785556200046f565b600085815260208120601f198616915b828110156200051557888601518255948401946001909101908401620004f4565b5085821015620005345787850151600019600388901b60f8161c191681555b5050505050600190811b01905550565b60208152600082518060208401526200056581604085016020870162000280565b601f01601f19169190910160400192915050565b611e4580620005896000396000f3fe6080604052600436106101445760003560e01c8063715018a6116100c05780639790242111610074578063dedff9c611610059578063dedff9c61461036c578063f2fde38b14610399578063fad8b32a146103b957600080fd5b80639790242114610339578063a457c2d71461034c57600080fd5b8063760d9bba116100a5578063760d9bba146102de5780637f23690c146102fe5780638da5cb5b1461031157600080fd5b8063715018a6146102a95780637580d920146102be57600080fd5b8063395093511161011757806354f6127f116100fc57806354f6127f1461022657806365aeaa951461025357806370a082311461027357600080fd5b806339509351146101e657806347980aa31461020657600080fd5b806301ffc9a71461014957806318160ddd1461017e5780632d7667c91461019d578063313ce567146101bf575b600080fd5b34801561015557600080fd5b506101696101643660046114aa565b6103d9565b60405190151581526020015b60405180910390f35b34801561018a57600080fd5b506004545b604051908152602001610175565b3480156101a957600080fd5b506101bd6101b836600461179a565b61041d565b005b3480156101cb57600080fd5b506101d4610525565b60405160ff9091168152602001610175565b3480156101f257600080fd5b506101bd61020136600461186c565b61053e565b34801561021257600080fd5b506101bd61022136600461186c565b610561565b34801561023257600080fd5b50610246610241366004611896565b61056c565b6040516101759190611907565b34801561025f57600080fd5b5061018f61026e36600461191a565b610577565b34801561027f57600080fd5b5061018f61028e36600461194d565b6001600160a01b031660009081526002602052604090205490565b3480156102b557600080fd5b506101bd6105de565b3480156102ca57600080fd5b506101bd6102d9366004611968565b6105f2565b3480156102ea57600080fd5b506101bd6102f93660046119d0565b61060c565b6101bd61030c366004611a3c565b610714565b34801561031d57600080fd5b506000546040516001600160a01b039091168152602001610175565b6101bd610347366004611a83565b610745565b34801561035857600080fd5b506101bd61036736600461186c565b610837565b34801561037857600080fd5b5061038c610387366004611add565b61088c565b6040516101759190611b1a565b3480156103a557600080fd5b506101bd6103b436600461194d565b610937565b3480156103c557600080fd5b506101bd6103d436600461194d565b6109c7565b60006001600160e01b031982167fda1f85e4000000000000000000000000000000000000000000000000000000001480610417575061041782610aa5565b92915050565b8451845181141580610430575083518114155b8061043c575082518114155b80610448575081518114155b1561047f576040517f263eee8d00000000000000000000000000000000000000000000000000000000815260040160405180910390fd5b60005b8181101561051c5761051487828151811061049f5761049f611b7c565b60200260200101518783815181106104b9576104b9611b7c565b60200260200101518784815181106104d3576104d3611b7c565b60200260200101518785815181106104ed576104ed611b7c565b602002602001015187868151811061050757610507611b7c565b602002602001015161060c565b600101610482565b50505050505050565b60055460009060ff166105385750601290565b50600090565b61055d33838361054e8633610577565b6105589190611ba8565b610af3565b5050565b61055d338383610af3565b606061041782610c37565b6000826001600160a01b0316826001600160a01b0316036105b157506001600160a01b038116600090815260026020526040902054610417565b506001600160a01b0380821660009081526003602090815260408083209386168352929052205492915050565b6105e6610cd9565b6105f060006109d3565b565b6105fa610cd9565b61060684848484610d42565b50505050565b836001600160a01b0316856001600160a01b031603610657576040517fb9afb00000000000000000000000000000000000000000000000000000000000815260040160405180910390fd5b336001600160a01b03861681146106ff576001600160a01b03808716600090815260036020908152604080832093851683529290522054808511156106ee576040517ff3a6b6910000000000000000000000000000000000000000000000000000000081526001600160a01b0380891660048301526024820183905283166044820152606481018690526084015b60405180910390fd5b6106fd87836105588885611bc0565b505b61070c8686868686610e3f565b505050505050565b61071c610cd9565b341561073b5760405163f36ba73760e01b815260040160405180910390fd5b61055d8282610fe5565b61074d610cd9565b341561076c5760405163f36ba73760e01b815260040160405180910390fd5b80518251146107a7576040517f3bcc897900000000000000000000000000000000000000000000000000000000815260040160405180910390fd5b81516000036107e2576040517f97da5f9500000000000000000000000000000000000000000000000000000000815260040160405180910390fd5b60005b82518110156108325761082a83828151811061080357610803611b7c565b602002602001015183838151811061081d5761081d611b7c565b6020026020010151610fe5565b6001016107e5565b505050565b60006108438333610577565b90508181101561087f576040517f0ef76c3500000000000000000000000000000000000000000000000000000000815260040160405180910390fd5b6108323384848403610af3565b6060815167ffffffffffffffff8111156108a8576108a86114db565b6040519080825280602002602001820160405280156108db57816020015b60608152602001906001900390816108c65790505b50905060005b82518110156109315761090c8382815181106108ff576108ff611b7c565b6020026020010151610c37565b82828151811061091e5761091e611b7c565b60209081029190910101526001016108e1565b50919050565b61093f610cd9565b6001600160a01b0381166109bb5760405162461bcd60e51b815260206004820152602660248201527f4f776e61626c653a206e6577206f776e657220697320746865207a65726f206160448201527f646472657373000000000000000000000000000000000000000000000000000060648201526084016106e5565b6109c4816109d3565b50565b6109c433826000610af3565b6000546001600160a01b038281169116146109c457600080546001600160a01b038381167fffffffffffffffffffffffff0000000000000000000000000000000000000000831681178455604051919092169283917f8be0079c531659141344cd1fd0a4f28419497f9722a3daafe3b4186f6b6457e09190a35050565b6000828152600160205260409020610a688282611c51565b50817fece574603820d07bc9b91f2a932baadf4628aabcb8afba49776529c14a6104b282604051610a999190611907565b60405180910390a25050565b60006001600160e01b031982167f629aa69400000000000000000000000000000000000000000000000000000000148061041757506301ffc9a760e01b6001600160e01b0319831614610417565b6001600160a01b038216610b33576040517f6355e76600000000000000000000000000000000000000000000000000000000815260040160405180910390fd5b826001600160a01b0316826001600160a01b031603610b7e576040517fdab7504700000000000000000000000000000000000000000000000000000000815260040160405180910390fd5b6001600160a01b0380841660009081526003602090815260408083209386168352929052208190558015610bf25780836001600160a01b0316836001600160a01b03167fd66aff874162a96578e919097b6f6d153dfd89a5cec41bb331fdb0c4aec16e2c60405160405180910390a4505050565b826001600160a01b0316826001600160a01b03167f50546e66e5f44d728365dc3908c63bc5cfeeab470722c1677e3073a6ac294aa160405160405180910390a3505050565b6000818152600160205260409020805460609190610c5490611bd7565b80601f0160208091040260200160405190810160405280929190818152602001828054610c8090611bd7565b8015610ccd5780601f10610ca257610100808354040283529160200191610ccd565b820191906000526020600020905b815481529060010190602001808311610cb057829003601f168201915b50505050509050919050565b33610cec6000546001600160a01b031690565b6001600160a01b0316146105f05760405162461bcd60e51b815260206004820181905260248201527f4f776e61626c653a2063616c6c6572206973206e6f7420746865206f776e657260448201526064016106e5565b6001600160a01b038416610d6957604051630d2d5ec360e41b815260040160405180910390fd5b338360046000828254610d7c9190611ba8565b90915550506001600160a01b03851660009081526002602052604081208054869290610da9908490611ba8565b92505081905550846001600160a01b031660006001600160a01b0316826001600160a01b03167f3997e418d2cef0b3b0e907b1e39605c3f7d32dbd061e82ea5b4a770d46a160a6878787604051610e0293929190611d11565b60405180910390a4600080868685604051602001610e239493929190611d3b565b604051602081830303815290604052905061070c8685836110ff565b6001600160a01b0385161580610e5c57506001600160a01b038416155b15610e7a57604051630d2d5ec360e41b815260040160405180910390fd5b6001600160a01b03851660009081526002602052604090205480841115610ee6576040517f08d47949000000000000000000000000000000000000000000000000000000008152600481018290526001600160a01b0387166024820152604481018590526064016106e5565b336001600160a01b03871660009081526002602052604081208054879290610f0f908490611bc0565b90915550506001600160a01b03861660009081526002602052604081208054879290610f3c908490611ba8565b92505081905550856001600160a01b0316876001600160a01b0316826001600160a01b03167f3997e418d2cef0b3b0e907b1e39605c3f7d32dbd061e82ea5b4a770d46a160a6888888604051610f9493929190611d11565b60405180910390a4600087878786604051602001610fb59493929190611d3b565b6040516020818303038152906040529050610fd08882611239565b610fdb8786836110ff565b5050505050505050565b7f2145e1d6d074577dc71ef54c3807742b41b053a9352ae6b491331509acb9750f820161103e576040517f85c169bd00000000000000000000000000000000000000000000000000000000815260040160405180910390fd5b7fd0f59754f88971fe6bc5a6618cc9d5f1e859c58d16b22d1c7b2d3e2b246cd8aa8201611097576040517f76755b3800000000000000000000000000000000000000000000000000000000815260040160405180910390fd5b60008281526001602052604090206110af8282611c51565b50817fece574603820d07bc9b91f2a932baadf4628aabcb8afba49776529c14a6104b2610100835111156110f0576110eb8360006101006112e4565b6110f2565b825b604051610a999190611907565b61111083631aed5a8560e21b61140c565b156111aa57604051631aed5a8560e21b81526001600160a01b03841690636bb56a1490611163907f20804611b3e2ea21c480dc465142210acf4a2485947541770ec1fb87dee4a55c908590600401611d88565b6000604051808303816000875af1158015611182573d6000803e3d6000fd5b505050506040513d6000823e601f3d908101601f191682016040526106069190810190611da1565b81610832576001600160a01b0383163b156111fc576040517fa608fbb60000000000000000000000000000000000000000000000000000000081526001600160a01b03841660048201526024016106e5565b6040517f26c247f40000000000000000000000000000000000000000000000000000000081526001600160a01b03841660048201526024016106e5565b61124a82631aed5a8560e21b61140c565b1561055d57604051631aed5a8560e21b81526001600160a01b03831690636bb56a149061129d907f429ac7a06903dbc9c13dfcb3c9d11df8194581fa047c96d7a4171fc7402958ea908590600401611d88565b6000604051808303816000875af11580156112bc573d6000803e3d6000fd5b505050506040513d6000823e601f3d908101601f191682016040526108329190810190611da1565b6060816112f281601f611ba8565b10156113405760405162461bcd60e51b815260206004820152600e60248201527f736c6963655f6f766572666c6f7700000000000000000000000000000000000060448201526064016106e5565b61134a8284611ba8565b8451101561139a5760405162461bcd60e51b815260206004820152601160248201527f736c6963655f6f75744f66426f756e647300000000000000000000000000000060448201526064016106e5565b6060821580156113b95760405191506000825260208201604052611403565b6040519150601f8416801560200281840101858101878315602002848b0101015b818310156113f25780518352602092830192016113da565b5050858452601f01601f1916604052505b50949350505050565b604080516001600160e01b03198316602480830191909152825180830390910181526044909101909152602080820180517bffffffffffffffffffffffffffffffffffffffffffffffffffffffff166301ffc9a760e01b178152825160009392849283928392918391908a617530fa92503d91506000519050828015611493575060208210155b801561149f5750600081115b979650505050505050565b6000602082840312156114bc57600080fd5b81356001600160e01b0319811681146114d457600080fd5b9392505050565b634e487b7160e01b600052604160045260246000fd5b604051601f8201601f1916810167ffffffffffffffff8111828210171561151a5761151a6114db565b604052919050565b600067ffffffffffffffff82111561153c5761153c6114db565b5060051b60200190565b80356001600160a01b038116811461155d57600080fd5b919050565b600082601f83011261157357600080fd5b8135602061158861158383611522565b6114f1565b82815260059290921b840181019181810190868411156115a757600080fd5b8286015b848110156115c9576115bc81611546565b83529183019183016115ab565b509695505050505050565b600082601f8301126115e557600080fd5b813560206115f561158383611522565b82815260059290921b8401810191818101908684111561161457600080fd5b8286015b848110156115c95780358352918301918301611618565b8035801515811461155d57600080fd5b600082601f83011261165057600080fd5b8135602061166061158383611522565b82815260059290921b8401810191818101908684111561167f57600080fd5b8286015b848110156115c9576116948161162f565b8352918301918301611683565b600067ffffffffffffffff8211156116bb576116bb6114db565b50601f01601f191660200190565b600082601f8301126116da57600080fd5b81356116e8611583826116a1565b8181528460208386010111156116fd57600080fd5b816020850160208301376000918101602001919091529392505050565b600082601f83011261172b57600080fd5b8135602061173b61158383611522565b82815260059290921b8401810191818101908684111561175a57600080fd5b8286015b848110156115c957803567ffffffffffffffff81111561177e5760008081fd5b61178c8986838b01016116c9565b84525091830191830161175e565b600080600080600060a086880312156117b257600080fd5b853567ffffffffffffffff808211156117ca57600080fd5b6117d689838a01611562565b965060208801359150808211156117ec57600080fd5b6117f889838a01611562565b9550604088013591508082111561180e57600080fd5b61181a89838a016115d4565b9450606088013591508082111561183057600080fd5b61183c89838a0161163f565b9350608088013591508082111561185257600080fd5b5061185f8882890161171a565b9150509295509295909350565b6000806040838503121561187f57600080fd5b61188883611546565b946020939093013593505050565b6000602082840312156118a857600080fd5b5035919050565b60005b838110156118ca5781810151838201526020016118b2565b838111156106065750506000910152565b600081518084526118f38160208601602086016118af565b601f01601f19169290920160200192915050565b6020815260006114d460208301846118db565b6000806040838503121561192d57600080fd5b61193683611546565b915061194460208401611546565b90509250929050565b60006020828403121561195f57600080fd5b6114d482611546565b6000806000806080858703121561197e57600080fd5b61198785611546565b93506020850135925061199c6040860161162f565b9150606085013567ffffffffffffffff8111156119b857600080fd5b6119c4878288016116c9565b91505092959194509250565b600080600080600060a086880312156119e857600080fd5b6119f186611546565b94506119ff60208701611546565b935060408601359250611a146060870161162f565b9150608086013567ffffffffffffffff811115611a3057600080fd5b61185f888289016116c9565b60008060408385031215611a4f57600080fd5b82359150602083013567ffffffffffffffff811115611a6d57600080fd5b611a79858286016116c9565b9150509250929050565b60008060408385031215611a9657600080fd5b823567ffffffffffffffff80821115611aae57600080fd5b611aba868387016115d4565b93506020850135915080821115611ad057600080fd5b50611a798582860161171a565b600060208284031215611aef57600080fd5b813567ffffffffffffffff811115611b0657600080fd5b611b12848285016115d4565b949350505050565b6000602080830181845280855180835260408601915060408160051b870101925083870160005b82811015611b6f57603f19888603018452611b5d8583516118db565b94509285019290850190600101611b41565b5092979650505050505050565b634e487b7160e01b600052603260045260246000fd5b634e487b7160e01b600052601160045260246000fd5b60008219821115611bbb57611bbb611b92565b500190565b600082821015611bd257611bd2611b92565b500390565b600181811c90821680611beb57607f821691505b60208210810361093157634e487b7160e01b600052602260045260246000fd5b601f82111561083257600081815260208120601f850160051c81016020861015611c325750805b601f850160051c820191505b8181101561070c57828155600101611c3e565b815167ffffffffffffffff811115611c6b57611c6b6114db565b611c7f81611c798454611bd7565b84611c0b565b602080601f831160018114611cb45760008415611c9c5750858301515b600019600386901b1c1916600185901b17855561070c565b600085815260208120601f198616915b82811015611ce357888601518255948401946001909101908401611cc4565b5085821015611d015787850151600019600388901b60f8161c191681555b5050505050600190811b01905550565b8381528215156020820152606060408201526000611d3260608301846118db565b95945050505050565b60006bffffffffffffffffffffffff19808760601b168352808660601b166014840152508360288301528251611d788160488501602087016118af565b9190910160480195945050505050565b828152604060208201526000611b1260408301846118db565b600060208284031215611db357600080fd5b815167ffffffffffffffff811115611dca57600080fd5b8201601f81018413611ddb57600080fd5b8051611de9611583826116a1565b818152856020838501011115611dfe57600080fd5b611d328260208301602086016118af56fea2646970667358221220d848878f0de2cdc791e282014436ac5066c9864c4988719adaf5f201c24339e064736f6c634300080f0033",
  "linkReferences": {},
  "deployedLinkReferences": {}
}