{
  "_format": "hh-sol-artifact-1",
  "contractName": "LSP7MintableInit",
  "sourceName": "contracts/LSP7DigitalAsset/presets/LSP7MintableInit.sol",
  "abi": [
    {
      "inputs": [],
      "stateMutability": "nonpayable",
      "type": "constructor"
    },
    {
      "inputs": [],
      "name": "ERC725Y_DataKeysValuesEmptyArray",
      "type": "error"
    },
    {
      "inputs": [],
      "name": "ERC725Y_DataKeysValuesLengthMismatch",
      "type": "error"
    },
    {
      "inputs": [],
      "name": "ERC725Y_MsgValueDisallowed",
      "type": "error"
    },
    {
      "inputs": [],
      "name": "LSP4TokenNameNotEditable",
      "type": "error"
    },
    {
      "inputs": [],
      "name": "LSP4TokenSymbolNotEditable",
      "type": "error"
    },
    {
      "inputs": [
        {
          "internalType": "address",
          "name": "tokenOwner",
          "type": "address"
        },
        {
          "internalType": "uint256",
          "name": "authorizedAmount",
          "type": "uint256"
        },
        {
          "internalType": "address",
          "name": "operator",
          "type": "address"
        },
        {
          "internalType": "uint256",
          "name": "amount",
          "type": "uint256"
        }
      ],
      "name": "LSP7AmountExceedsAuthorizedAmount",
      "type": "error"
    },
    {
      "inputs": [
        {
          "internalType": "uint256",
          "name": "balance",
          "type": "uint256"
        },
        {
          "internalType": "address",
          "name": "tokenOwner",
          "type": "address"
        },
        {
          "internalType": "uint256",
          "name": "amount",
          "type": "uint256"
        }
      ],
      "name": "LSP7AmountExceedsBalance",
      "type": "error"
    },
    {
      "inputs": [],
      "name": "LSP7CannotSendToSelf",
      "type": "error"
    },
    {
      "inputs": [],
      "name": "LSP7CannotSendWithAddressZero",
      "type": "error"
    },
    {
      "inputs": [],
      "name": "LSP7CannotUseAddressZeroAsOperator",
      "type": "error"
    },
    {
      "inputs": [],
      "name": "LSP7DecreasedAllowanceBelowZero",
      "type": "error"
    },
    {
      "inputs": [],
      "name": "LSP7InvalidTransferBatch",
      "type": "error"
    },
    {
      "inputs": [
        {
          "internalType": "address",
          "name": "tokenReceiver",
          "type": "address"
        }
      ],
      "name": "LSP7NotifyTokenReceiverContractMissingLSP1Interface",
      "type": "error"
    },
    {
      "inputs": [
        {
          "internalType": "address",
          "name": "tokenReceiver",
          "type": "address"
        }
      ],
      "name": "LSP7NotifyTokenReceiverIsEOA",
      "type": "error"
    },
    {
      "inputs": [],
      "name": "LSP7TokenOwnerCannotBeOperator",
      "type": "error"
    },
    {
      "anonymous": false,
      "inputs": [
        {
          "indexed": true,
          "internalType": "address",
          "name": "operator",
          "type": "address"
        },
        {
          "indexed": true,
          "internalType": "address",
          "name": "tokenOwner",
          "type": "address"
        },
        {
          "indexed": true,
          "internalType": "uint256",
          "name": "amount",
          "type": "uint256"
        }
      ],
      "name": "AuthorizedOperator",
      "type": "event"
    },
    {
      "anonymous": false,
      "inputs": [
        {
          "indexed": true,
          "internalType": "bytes32",
          "name": "dataKey",
          "type": "bytes32"
        },
        {
          "indexed": false,
          "internalType": "bytes",
          "name": "dataValue",
          "type": "bytes"
        }
      ],
      "name": "DataChanged",
      "type": "event"
    },
    {
      "anonymous": false,
      "inputs": [
        {
          "indexed": false,
          "internalType": "uint8",
          "name": "version",
          "type": "uint8"
        }
      ],
      "name": "Initialized",
      "type": "event"
    },
    {
      "anonymous": false,
      "inputs": [
        {
          "indexed": true,
          "internalType": "address",
          "name": "previousOwner",
          "type": "address"
        },
        {
          "indexed": true,
          "internalType": "address",
          "name": "newOwner",
          "type": "address"
        }
      ],
      "name": "OwnershipTransferred",
      "type": "event"
    },
    {
      "anonymous": false,
      "inputs": [
        {
          "indexed": true,
          "internalType": "address",
          "name": "operator",
          "type": "address"
        },
        {
          "indexed": true,
          "internalType": "address",
          "name": "tokenOwner",
          "type": "address"
        }
      ],
      "name": "RevokedOperator",
      "type": "event"
    },
    {
      "anonymous": false,
      "inputs": [
        {
          "indexed": true,
          "internalType": "address",
          "name": "operator",
          "type": "address"
        },
        {
          "indexed": true,
          "internalType": "address",
          "name": "from",
          "type": "address"
        },
        {
          "indexed": true,
          "internalType": "address",
          "name": "to",
          "type": "address"
        },
        {
          "indexed": false,
          "internalType": "uint256",
          "name": "amount",
          "type": "uint256"
        },
        {
          "indexed": false,
          "internalType": "bool",
          "name": "allowNonLSP1Recipient",
          "type": "bool"
        },
        {
          "indexed": false,
          "internalType": "bytes",
          "name": "data",
          "type": "bytes"
        }
      ],
      "name": "Transfer",
      "type": "event"
    },
    {
      "inputs": [
        {
          "internalType": "address",
          "name": "operator",
          "type": "address"
        },
        {
          "internalType": "uint256",
          "name": "amount",
          "type": "uint256"
        }
      ],
      "name": "authorizeOperator",
      "outputs": [],
      "stateMutability": "nonpayable",
      "type": "function"
    },
    {
      "inputs": [
        {
          "internalType": "address",
          "name": "operator",
          "type": "address"
        },
        {
          "internalType": "address",
          "name": "tokenOwner",
          "type": "address"
        }
      ],
      "name": "authorizedAmountFor",
      "outputs": [
        {
          "internalType": "uint256",
          "name": "",
          "type": "uint256"
        }
      ],
      "stateMutability": "view",
      "type": "function"
    },
    {
      "inputs": [
        {
          "internalType": "address",
          "name": "tokenOwner",
          "type": "address"
        }
      ],
      "name": "balanceOf",
      "outputs": [
        {
          "internalType": "uint256",
          "name": "",
          "type": "uint256"
        }
      ],
      "stateMutability": "view",
      "type": "function"
    },
    {
      "inputs": [],
      "name": "decimals",
      "outputs": [
        {
          "internalType": "uint8",
          "name": "",
          "type": "uint8"
        }
      ],
      "stateMutability": "view",
      "type": "function"
    },
    {
      "inputs": [
        {
          "internalType": "address",
          "name": "operator",
          "type": "address"
        },
        {
          "internalType": "uint256",
          "name": "substractedAmount",
          "type": "uint256"
        }
      ],
      "name": "decreaseAllowance",
      "outputs": [],
      "stateMutability": "nonpayable",
      "type": "function"
    },
    {
      "inputs": [
        {
          "internalType": "bytes32",
          "name": "dataKey",
          "type": "bytes32"
        }
      ],
      "name": "getData",
      "outputs": [
        {
          "internalType": "bytes",
          "name": "dataValue",
          "type": "bytes"
        }
      ],
      "stateMutability": "view",
      "type": "function"
    },
    {
      "inputs": [
        {
          "internalType": "bytes32[]",
          "name": "dataKeys",
          "type": "bytes32[]"
        }
      ],
      "name": "getDataBatch",
      "outputs": [
        {
          "internalType": "bytes[]",
          "name": "dataValues",
          "type": "bytes[]"
        }
      ],
      "stateMutability": "view",
      "type": "function"
    },
    {
      "inputs": [
        {
          "internalType": "address",
          "name": "operator",
          "type": "address"
        },
        {
          "internalType": "uint256",
          "name": "addedAmount",
          "type": "uint256"
        }
      ],
      "name": "increaseAllowance",
      "outputs": [],
      "stateMutability": "nonpayable",
      "type": "function"
    },
    {
      "inputs": [
        {
          "internalType": "string",
          "name": "name_",
          "type": "string"
        },
        {
          "internalType": "string",
          "name": "symbol_",
          "type": "string"
        },
        {
          "internalType": "address",
          "name": "newOwner_",
          "type": "address"
        },
        {
          "internalType": "bool",
          "name": "isNonDivisible_",
          "type": "bool"
        }
      ],
      "name": "initialize",
      "outputs": [],
      "stateMutability": "nonpayable",
      "type": "function"
    },
    {
      "inputs": [
        {
          "internalType": "address",
          "name": "to",
          "type": "address"
        },
        {
          "internalType": "uint256",
          "name": "amount",
          "type": "uint256"
        },
        {
          "internalType": "bool",
          "name": "allowNonLSP1Recipient",
          "type": "bool"
        },
        {
          "internalType": "bytes",
          "name": "data",
          "type": "bytes"
        }
      ],
      "name": "mint",
      "outputs": [],
      "stateMutability": "nonpayable",
      "type": "function"
    },
    {
      "inputs": [],
      "name": "owner",
      "outputs": [
        {
          "internalType": "address",
          "name": "",
          "type": "address"
        }
      ],
      "stateMutability": "view",
      "type": "function"
    },
    {
      "inputs": [],
      "name": "renounceOwnership",
      "outputs": [],
      "stateMutability": "nonpayable",
      "type": "function"
    },
    {
      "inputs": [
        {
          "internalType": "address",
          "name": "operator",
          "type": "address"
        }
      ],
      "name": "revokeOperator",
      "outputs": [],
      "stateMutability": "nonpayable",
      "type": "function"
    },
    {
      "inputs": [
        {
          "internalType": "bytes32",
          "name": "dataKey",
          "type": "bytes32"
        },
        {
          "internalType": "bytes",
          "name": "dataValue",
          "type": "bytes"
        }
      ],
      "name": "setData",
      "outputs": [],
      "stateMutability": "payable",
      "type": "function"
    },
    {
      "inputs": [
        {
          "internalType": "bytes32[]",
          "name": "dataKeys",
          "type": "bytes32[]"
        },
        {
          "internalType": "bytes[]",
          "name": "dataValues",
          "type": "bytes[]"
        }
      ],
      "name": "setDataBatch",
      "outputs": [],
      "stateMutability": "payable",
      "type": "function"
    },
    {
      "inputs": [
        {
          "internalType": "bytes4",
          "name": "interfaceId",
          "type": "bytes4"
        }
      ],
      "name": "supportsInterface",
      "outputs": [
        {
          "internalType": "bool",
          "name": "",
          "type": "bool"
        }
      ],
      "stateMutability": "view",
      "type": "function"
    },
    {
      "inputs": [],
      "name": "totalSupply",
      "outputs": [
        {
          "internalType": "uint256",
          "name": "",
          "type": "uint256"
        }
      ],
      "stateMutability": "view",
      "type": "function"
    },
    {
      "inputs": [
        {
          "internalType": "address",
          "name": "from",
          "type": "address"
        },
        {
          "internalType": "address",
          "name": "to",
          "type": "address"
        },
        {
          "internalType": "uint256",
          "name": "amount",
          "type": "uint256"
        },
        {
          "internalType": "bool",
          "name": "allowNonLSP1Recipient",
          "type": "bool"
        },
        {
          "internalType": "bytes",
          "name": "data",
          "type": "bytes"
        }
      ],
      "name": "transfer",
      "outputs": [],
      "stateMutability": "nonpayable",
      "type": "function"
    },
    {
      "inputs": [
        {
          "internalType": "address[]",
          "name": "from",
          "type": "address[]"
        },
        {
          "internalType": "address[]",
          "name": "to",
          "type": "address[]"
        },
        {
          "internalType": "uint256[]",
          "name": "amount",
          "type": "uint256[]"
        },
        {
          "internalType": "bool[]",
          "name": "allowNonLSP1Recipient",
          "type": "bool[]"
        },
        {
          "internalType": "bytes[]",
          "name": "data",
          "type": "bytes[]"
        }
      ],
      "name": "transferBatch",
      "outputs": [],
      "stateMutability": "nonpayable",
      "type": "function"
    },
    {
      "inputs": [
        {
          "internalType": "address",
          "name": "newOwner",
          "type": "address"
        }
      ],
      "name": "transferOwnership",
      "outputs": [],
      "stateMutability": "nonpayable",
      "type": "function"
    }
  ],
  "bytecode": "0x608060405234801561001057600080fd5b5061001961001e565b6100de565b600054610100900460ff161561008a5760405162461bcd60e51b815260206004820152602760248201527f496e697469616c697a61626c653a20636f6e747261637420697320696e697469604482015266616c697a696e6760c81b606482015260840160405180910390fd5b60005460ff90811610156100dc576000805460ff191660ff9081179091556040519081527f7f26b83ff96e1f2b6a682f133852f6798a09c465da95921460cefb38474024989060200160405180910390a15b565b6122d380620000ee6000396000f3fe60806040526004361061015f5760003560e01c8063715018a6116100c05780639790242111610074578063dedff9c611610059578063dedff9c6146103b6578063f2fde38b146103e3578063fad8b32a1461040357600080fd5b80639790242114610383578063a457c2d71461039657600080fd5b8063760d9bba116100a5578063760d9bba146103195780637f23690c146103395780638da5cb5b1461034c57600080fd5b8063715018a6146102e45780637580d920146102f957600080fd5b806347980aa3116101175780635c108a43116100fc5780635c108a431461026e57806365aeaa951461028e57806370a08231146102ae57600080fd5b806347980aa31461022157806354f6127f1461024157600080fd5b80632d7667c9116101485780632d7667c9146101b8578063313ce567146101da578063395093511461020157600080fd5b806301ffc9a71461016457806318160ddd14610199575b600080fd5b34801561017057600080fd5b5061018461017f3660046118b3565b610423565b60405190151581526020015b60405180910390f35b3480156101a557600080fd5b506004545b604051908152602001610190565b3480156101c457600080fd5b506101d86101d3366004611ba3565b610467565b005b3480156101e657600080fd5b506101ef61056f565b60405160ff9091168152602001610190565b34801561020d57600080fd5b506101d861021c366004611c75565b610588565b34801561022d57600080fd5b506101d861023c366004611c75565b6105ab565b34801561024d57600080fd5b5061026161025c366004611c9f565b6105b6565b6040516101909190611d10565b34801561027a57600080fd5b506101d8610289366004611d23565b6105c1565b34801561029a57600080fd5b506101aa6102a9366004611da8565b6106ee565b3480156102ba57600080fd5b506101aa6102c9366004611ddb565b6001600160a01b031660009081526002602052604090205490565b3480156102f057600080fd5b506101d8610755565b34801561030557600080fd5b506101d8610314366004611df6565b610769565b34801561032557600080fd5b506101d8610334366004611e5e565b610783565b6101d8610347366004611eca565b610886565b34801561035857600080fd5b506000546201000090046001600160a01b03166040516001600160a01b039091168152602001610190565b6101d8610391366004611f11565b6108b7565b3480156103a257600080fd5b506101d86103b1366004611c75565b6109a9565b3480156103c257600080fd5b506103d66103d1366004611f6b565b6109fe565b6040516101909190611fa8565b3480156103ef57600080fd5b506101d86103fe366004611ddb565b610aa9565b34801561040f57600080fd5b506101d861041e366004611ddb565b610b39565b60006001600160e01b031982167fda1f85e4000000000000000000000000000000000000000000000000000000001480610461575061046182610b45565b92915050565b845184518114158061047a575083518114155b80610486575082518114155b80610492575081518114155b156104c9576040517f263eee8d00000000000000000000000000000000000000000000000000000000815260040160405180910390fd5b60005b818110156105665761055e8782815181106104e9576104e961200a565b60200260200101518783815181106105035761050361200a565b602002602001015187848151811061051d5761051d61200a565b60200260200101518785815181106105375761053761200a565b60200260200101518786815181106105515761055161200a565b6020026020010151610783565b6001016104cc565b50505050505050565b60055460009060ff166105825750601290565b50600090565b6105a733838361059886336106ee565b6105a29190612036565b610b93565b5050565b6105a7338383610b93565b606061046182610cd7565b600054610100900460ff16158080156105e15750600054600160ff909116105b806105fb5750303b1580156105fb575060005460ff166001145b6106725760405162461bcd60e51b815260206004820152602e60248201527f496e697469616c697a61626c653a20636f6e747261637420697320616c72656160448201527f647920696e697469616c697a656400000000000000000000000000000000000060648201526084015b60405180910390fd5b6000805460ff191660011790558015610695576000805461ff0019166101001790555b6106a185858585610d79565b80156106e7576000805461ff0019169055604051600181527f7f26b83ff96e1f2b6a682f133852f6798a09c465da95921460cefb38474024989060200160405180910390a15b5050505050565b6000826001600160a01b0316826001600160a01b03160361072857506001600160a01b038116600090815260026020526040902054610461565b506001600160a01b0380821660009081526003602090815260408083209386168352929052205492915050565b61075d610df0565b6107676000610e51565b565b610771610df0565b61077d84848484610edd565b50505050565b836001600160a01b0316856001600160a01b0316036107ce576040517fb9afb00000000000000000000000000000000000000000000000000000000000815260040160405180910390fd5b336001600160a01b0386168114610871576001600160a01b0380871660009081526003602090815260408083209385168352929052205480851115610860576040517ff3a6b6910000000000000000000000000000000000000000000000000000000081526001600160a01b038089166004830152602482018390528316604482015260648101869052608401610669565b61086f87836105a2888561204e565b505b61087e8686868686610fda565b505050505050565b61088e610df0565b34156108ad5760405163f36ba73760e01b815260040160405180910390fd5b6105a78282611180565b6108bf610df0565b34156108de5760405163f36ba73760e01b815260040160405180910390fd5b8051825114610919576040517f3bcc897900000000000000000000000000000000000000000000000000000000815260040160405180910390fd5b8151600003610954576040517f97da5f9500000000000000000000000000000000000000000000000000000000815260040160405180910390fd5b60005b82518110156109a45761099c8382815181106109755761097561200a565b602002602001015183838151811061098f5761098f61200a565b6020026020010151611180565b600101610957565b505050565b60006109b583336106ee565b9050818110156109f1576040517f0ef76c3500000000000000000000000000000000000000000000000000000000815260040160405180910390fd5b6109a43384848403610b93565b6060815167ffffffffffffffff811115610a1a57610a1a6118e4565b604051908082528060200260200182016040528015610a4d57816020015b6060815260200190600190039081610a385790505b50905060005b8251811015610aa357610a7e838281518110610a7157610a7161200a565b6020026020010151610cd7565b828281518110610a9057610a9061200a565b6020908102919091010152600101610a53565b50919050565b610ab1610df0565b6001600160a01b038116610b2d5760405162461bcd60e51b815260206004820152602660248201527f4f776e61626c653a206e6577206f776e657220697320746865207a65726f206160448201527f64647265737300000000000000000000000000000000000000000000000000006064820152608401610669565b610b3681610e51565b50565b610b3633826000610b93565b60006001600160e01b031982167f629aa69400000000000000000000000000000000000000000000000000000000148061046157506301ffc9a760e01b6001600160e01b0319831614610461565b6001600160a01b038216610bd3576040517f6355e76600000000000000000000000000000000000000000000000000000000815260040160405180910390fd5b826001600160a01b0316826001600160a01b031603610c1e576040517fdab7504700000000000000000000000000000000000000000000000000000000815260040160405180910390fd5b6001600160a01b0380841660009081526003602090815260408083209386168352929052208190558015610c925780836001600160a01b0316836001600160a01b03167fd66aff874162a96578e919097b6f6d153dfd89a5cec41bb331fdb0c4aec16e2c60405160405180910390a4505050565b826001600160a01b0316826001600160a01b03167f50546e66e5f44d728365dc3908c63bc5cfeeab470722c1677e3073a6ac294aa160405160405180910390a3505050565b6000818152600160205260409020805460609190610cf490612065565b80601f0160208091040260200160405190810160405280929190818152602001828054610d2090612065565b8015610d6d5780601f10610d4257610100808354040283529160200191610d6d565b820191906000526020600020905b815481529060010190602001808311610d5057829003601f168201915b50505050509050919050565b600054610100900460ff16610de45760405162461bcd60e51b815260206004820152602b60248201527f496e697469616c697a61626c653a20636f6e7472616374206973206e6f74206960448201526a6e697469616c697a696e6760a81b6064820152608401610669565b61077d848484846112a6565b6000546001600160a01b03620100009091041633146107675760405162461bcd60e51b815260206004820181905260248201527f4f776e61626c653a2063616c6c6572206973206e6f7420746865206f776e65726044820152606401610669565b6000546001600160a01b03828116620100009092041614610b3657600080546001600160a01b03838116620100008181027fffffffffffffffffffff0000000000000000000000000000000000000000ffff851617855560405193049190911692909183917f8be0079c531659141344cd1fd0a4f28419497f9722a3daafe3b4186f6b6457e091a35050565b6001600160a01b038416610f0457604051630d2d5ec360e41b815260040160405180910390fd5b338360046000828254610f179190612036565b90915550506001600160a01b03851660009081526002602052604081208054869290610f44908490612036565b92505081905550846001600160a01b031660006001600160a01b0316826001600160a01b03167f3997e418d2cef0b3b0e907b1e39605c3f7d32dbd061e82ea5b4a770d46a160a6878787604051610f9d93929190612099565b60405180910390a4600080868685604051602001610fbe94939291906120c3565b604051602081830303815290604052905061087e86858361132a565b6001600160a01b0385161580610ff757506001600160a01b038416155b1561101557604051630d2d5ec360e41b815260040160405180910390fd5b6001600160a01b03851660009081526002602052604090205480841115611081576040517f08d47949000000000000000000000000000000000000000000000000000000008152600481018290526001600160a01b038716602482015260448101859052606401610669565b336001600160a01b038716600090815260026020526040812080548792906110aa90849061204e565b90915550506001600160a01b038616600090815260026020526040812080548792906110d7908490612036565b92505081905550856001600160a01b0316876001600160a01b0316826001600160a01b03167f3997e418d2cef0b3b0e907b1e39605c3f7d32dbd061e82ea5b4a770d46a160a688888860405161112f93929190612099565b60405180910390a460008787878660405160200161115094939291906120c3565b604051602081830303815290604052905061116b8882611464565b61117687868361132a565b5050505050505050565b7f2145e1d6d074577dc71ef54c3807742b41b053a9352ae6b491331509acb9750f82016111d9576040517f85c169bd00000000000000000000000000000000000000000000000000000000815260040160405180910390fd5b7fd0f59754f88971fe6bc5a6618cc9d5f1e859c58d16b22d1c7b2d3e2b246cd8aa8201611232576040517f76755b3800000000000000000000000000000000000000000000000000000000815260040160405180910390fd5b600082815260016020526040902061124a8282612156565b50817fece574603820d07bc9b91f2a932baadf4628aabcb8afba49776529c14a6104b26101008351111561128b5761128683600061010061150f565b61128d565b825b60405161129a9190611d10565b60405180910390a25050565b600054610100900460ff166113115760405162461bcd60e51b815260206004820152602b60248201527f496e697469616c697a61626c653a20636f6e7472616374206973206e6f74206960448201526a6e697469616c697a696e6760a81b6064820152608401610669565b6005805460ff191682151517905561077d848484611637565b61133b83631aed5a8560e21b611761565b156113d557604051631aed5a8560e21b81526001600160a01b03841690636bb56a149061138e907f20804611b3e2ea21c480dc465142210acf4a2485947541770ec1fb87dee4a55c908590600401612216565b6000604051808303816000875af11580156113ad573d6000803e3d6000fd5b505050506040513d6000823e601f3d908101601f1916820160405261077d919081019061222f565b816109a4576001600160a01b0383163b15611427576040517fa608fbb60000000000000000000000000000000000000000000000000000000081526001600160a01b0384166004820152602401610669565b6040517f26c247f40000000000000000000000000000000000000000000000000000000081526001600160a01b0384166004820152602401610669565b61147582631aed5a8560e21b611761565b156105a757604051631aed5a8560e21b81526001600160a01b03831690636bb56a14906114c8907f429ac7a06903dbc9c13dfcb3c9d11df8194581fa047c96d7a4171fc7402958ea908590600401612216565b6000604051808303816000875af11580156114e7573d6000803e3d6000fd5b505050506040513d6000823e601f3d908101601f191682016040526109a4919081019061222f565b60608161151d81601f612036565b101561156b5760405162461bcd60e51b815260206004820152600e60248201527f736c6963655f6f766572666c6f770000000000000000000000000000000000006044820152606401610669565b6115758284612036565b845110156115c55760405162461bcd60e51b815260206004820152601160248201527f736c6963655f6f75744f66426f756e64730000000000000000000000000000006044820152606401610669565b6060821580156115e4576040519150600082526020820160405261162e565b6040519150601f8416801560200281840101858101878315602002848b0101015b8183101561161d578051835260209283019201611605565b5050858452601f01601f1916604052505b50949350505050565b600054610100900460ff166116a25760405162461bcd60e51b815260206004820152602b60248201527f496e697469616c697a61626c653a20636f6e7472616374206973206e6f74206960448201526a6e697469616c697a696e6760a81b6064820152608401610669565b6116ab816117ff565b61170d7feafec4d89fa9619884b60000a4d96624a38f7ac2d8d9a604ecf07c12c77e480c60001b6040518060400160405280600481526020017fa4d966240000000000000000000000000000000000000000000000000000000081525061186a565b6117377fdeba1e292f8ba88238e10ab3c7f88bd4be4fac56cad5194b6ecceaf653468af18461186a565b6109a47f2f0a68ab07768e01943a599e73362a0e17a63a72e94dd2e384d2c1d4db9327568361186a565b604080516001600160e01b03198316602480830191909152825180830390910181526044909101909152602080820180517bffffffffffffffffffffffffffffffffffffffffffffffffffffffff166301ffc9a760e01b178152825160009392849283928392918391908a617530fa92503d915060005190508280156117e8575060208210155b80156117f45750600081115b979650505050505050565b600054610100900460ff16610ab15760405162461bcd60e51b815260206004820152602b60248201527f496e697469616c697a61626c653a20636f6e7472616374206973206e6f74206960448201526a6e697469616c697a696e6760a81b6064820152608401610669565b60008281526001602052604090206118828282612156565b50817fece574603820d07bc9b91f2a932baadf4628aabcb8afba49776529c14a6104b28260405161129a9190611d10565b6000602082840312156118c557600080fd5b81356001600160e01b0319811681146118dd57600080fd5b9392505050565b634e487b7160e01b600052604160045260246000fd5b604051601f8201601f1916810167ffffffffffffffff81118282101715611923576119236118e4565b604052919050565b600067ffffffffffffffff821115611945576119456118e4565b5060051b60200190565b80356001600160a01b038116811461196657600080fd5b919050565b600082601f83011261197c57600080fd5b8135602061199161198c8361192b565b6118fa565b82815260059290921b840181019181810190868411156119b057600080fd5b8286015b848110156119d2576119c58161194f565b83529183019183016119b4565b509695505050505050565b600082601f8301126119ee57600080fd5b813560206119fe61198c8361192b565b82815260059290921b84018101918181019086841115611a1d57600080fd5b8286015b848110156119d25780358352918301918301611a21565b8035801515811461196657600080fd5b600082601f830112611a5957600080fd5b81356020611a6961198c8361192b565b82815260059290921b84018101918181019086841115611a8857600080fd5b8286015b848110156119d257611a9d81611a38565b8352918301918301611a8c565b600067ffffffffffffffff821115611ac457611ac46118e4565b50601f01601f191660200190565b600082601f830112611ae357600080fd5b8135611af161198c82611aaa565b818152846020838601011115611b0657600080fd5b816020850160208301376000918101602001919091529392505050565b600082601f830112611b3457600080fd5b81356020611b4461198c8361192b565b82815260059290921b84018101918181019086841115611b6357600080fd5b8286015b848110156119d257803567ffffffffffffffff811115611b875760008081fd5b611b958986838b0101611ad2565b845250918301918301611b67565b600080600080600060a08688031215611bbb57600080fd5b853567ffffffffffffffff80821115611bd357600080fd5b611bdf89838a0161196b565b96506020880135915080821115611bf557600080fd5b611c0189838a0161196b565b95506040880135915080821115611c1757600080fd5b611c2389838a016119dd565b94506060880135915080821115611c3957600080fd5b611c4589838a01611a48565b93506080880135915080821115611c5b57600080fd5b50611c6888828901611b23565b9150509295509295909350565b60008060408385031215611c8857600080fd5b611c918361194f565b946020939093013593505050565b600060208284031215611cb157600080fd5b5035919050565b60005b83811015611cd3578181015183820152602001611cbb565b8381111561077d5750506000910152565b60008151808452611cfc816020860160208601611cb8565b601f01601f19169290920160200192915050565b6020815260006118dd6020830184611ce4565b60008060008060808587031215611d3957600080fd5b843567ffffffffffffffff80821115611d5157600080fd5b611d5d88838901611ad2565b95506020870135915080821115611d7357600080fd5b50611d8087828801611ad2565b935050611d8f6040860161194f565b9150611d9d60608601611a38565b905092959194509250565b60008060408385031215611dbb57600080fd5b611dc48361194f565b9150611dd26020840161194f565b90509250929050565b600060208284031215611ded57600080fd5b6118dd8261194f565b60008060008060808587031215611e0c57600080fd5b611e158561194f565b935060208501359250611e2a60408601611a38565b9150606085013567ffffffffffffffff811115611e4657600080fd5b611e5287828801611ad2565b91505092959194509250565b600080600080600060a08688031215611e7657600080fd5b611e7f8661194f565b9450611e8d6020870161194f565b935060408601359250611ea260608701611a38565b9150608086013567ffffffffffffffff811115611ebe57600080fd5b611c6888828901611ad2565b60008060408385031215611edd57600080fd5b82359150602083013567ffffffffffffffff811115611efb57600080fd5b611f0785828601611ad2565b9150509250929050565b60008060408385031215611f2457600080fd5b823567ffffffffffffffff80821115611f3c57600080fd5b611f48868387016119dd565b93506020850135915080821115611f5e57600080fd5b50611f0785828601611b23565b600060208284031215611f7d57600080fd5b813567ffffffffffffffff811115611f9457600080fd5b611fa0848285016119dd565b949350505050565b6000602080830181845280855180835260408601915060408160051b870101925083870160005b82811015611ffd57603f19888603018452611feb858351611ce4565b94509285019290850190600101611fcf565b5092979650505050505050565b634e487b7160e01b600052603260045260246000fd5b634e487b7160e01b600052601160045260246000fd5b6000821982111561204957612049612020565b500190565b60008282101561206057612060612020565b500390565b600181811c9082168061207957607f821691505b602082108103610aa357634e487b7160e01b600052602260045260246000fd5b83815282151560208201526060604082015260006120ba6060830184611ce4565b95945050505050565b60006bffffffffffffffffffffffff19808760601b168352808660601b166014840152508360288301528251612100816048850160208701611cb8565b9190910160480195945050505050565b601f8211156109a457600081815260208120601f850160051c810160208610156121375750805b601f850160051c820191505b8181101561087e57828155600101612143565b815167ffffffffffffffff811115612170576121706118e4565b6121848161217e8454612065565b84612110565b602080601f8311600181146121b957600084156121a15750858301515b600019600386901b1c1916600185901b17855561087e565b600085815260208120601f198616915b828110156121e8578886015182559484019460019091019084016121c9565b50858210156122065787850151600019600388901b60f8161c191681555b5050505050600190811b01905550565b828152604060208201526000611fa06040830184611ce4565b60006020828403121561224157600080fd5b815167ffffffffffffffff81111561225857600080fd5b8201601f8101841361226957600080fd5b805161227761198c82611aaa565b81815285602083850101111561228c57600080fd5b6120ba826020830160208601611cb856fea264697066735822122072df285c035b42e4d6643b9e76c1462401db4b56629173d3a76079e770d1e9c964736f6c634300080f0033",
  "linkReferences": {},
  "deployedLinkReferences": {}
}