{
  "_format": "hh-sol-artifact-1",
  "contractName": "LSP7CompatibleERC20Mintable",
  "sourceName": "contracts/LSP7DigitalAsset/presets/LSP7CompatibleERC20Mintable.sol",
  "abi": [
    {
      "inputs": [
        {
          "internalType": "string",
          "name": "name_",
          "type": "string"
        },
        {
          "internalType": "string",
          "name": "symbol_",
          "type": "string"
        },
        {
          "internalType": "address",
          "name": "newOwner_",
          "type": "address"
        }
      ],
      "stateMutability": "nonpayable",
      "type": "constructor"
    },
    {
      "inputs": [],
      "name": "ERC725Y_DataKeysValuesEmptyArray",
      "type": "error"
    },
    {
      "inputs": [],
      "name": "ERC725Y_DataKeysValuesLengthMismatch",
      "type": "error"
    },
    {
      "inputs": [],
      "name": "ERC725Y_MsgValueDisallowed",
      "type": "error"
    },
    {
      "inputs": [],
      "name": "LSP4TokenNameNotEditable",
      "type": "error"
    },
    {
      "inputs": [],
      "name": "LSP4TokenSymbolNotEditable",
      "type": "error"
    },
    {
      "inputs": [
        {
          "internalType": "address",
          "name": "tokenOwner",
          "type": "address"
        },
        {
          "internalType": "uint256",
          "name": "authorizedAmount",
          "type": "uint256"
        },
        {
          "internalType": "address",
          "name": "operator",
          "type": "address"
        },
        {
          "internalType": "uint256",
          "name": "amount",
          "type": "uint256"
        }
      ],
      "name": "LSP7AmountExceedsAuthorizedAmount",
      "type": "error"
    },
    {
      "inputs": [
        {
          "internalType": "uint256",
          "name": "balance",
          "type": "uint256"
        },
        {
          "internalType": "address",
          "name": "tokenOwner",
          "type": "address"
        },
        {
          "internalType": "uint256",
          "name": "amount",
          "type": "uint256"
        }
      ],
      "name": "LSP7AmountExceedsBalance",
      "type": "error"
    },
    {
      "inputs": [],
      "name": "LSP7CannotSendToSelf",
      "type": "error"
    },
    {
      "inputs": [],
      "name": "LSP7CannotSendWithAddressZero",
      "type": "error"
    },
    {
      "inputs": [],
      "name": "LSP7CannotUseAddressZeroAsOperator",
      "type": "error"
    },
    {
      "inputs": [],
      "name": "LSP7DecreasedAllowanceBelowZero",
      "type": "error"
    },
    {
      "inputs": [],
      "name": "LSP7InvalidTransferBatch",
      "type": "error"
    },
    {
      "inputs": [
        {
          "internalType": "address",
          "name": "tokenReceiver",
          "type": "address"
        }
      ],
      "name": "LSP7NotifyTokenReceiverContractMissingLSP1Interface",
      "type": "error"
    },
    {
      "inputs": [
        {
          "internalType": "address",
          "name": "tokenReceiver",
          "type": "address"
        }
      ],
      "name": "LSP7NotifyTokenReceiverIsEOA",
      "type": "error"
    },
    {
      "inputs": [],
      "name": "LSP7TokenOwnerCannotBeOperator",
      "type": "error"
    },
    {
      "anonymous": false,
      "inputs": [
        {
          "indexed": true,
          "internalType": "address",
          "name": "owner",
          "type": "address"
        },
        {
          "indexed": true,
          "internalType": "address",
          "name": "spender",
          "type": "address"
        },
        {
          "indexed": false,
          "internalType": "uint256",
          "name": "value",
          "type": "uint256"
        }
      ],
      "name": "Approval",
      "type": "event"
    },
    {
      "anonymous": false,
      "inputs": [
        {
          "indexed": true,
          "internalType": "address",
          "name": "operator",
          "type": "address"
        },
        {
          "indexed": true,
          "internalType": "address",
          "name": "tokenOwner",
          "type": "address"
        },
        {
          "indexed": true,
          "internalType": "uint256",
          "name": "amount",
          "type": "uint256"
        }
      ],
      "name": "AuthorizedOperator",
      "type": "event"
    },
    {
      "anonymous": false,
      "inputs": [
        {
          "indexed": true,
          "internalType": "bytes32",
          "name": "dataKey",
          "type": "bytes32"
        },
        {
          "indexed": false,
          "internalType": "bytes",
          "name": "dataValue",
          "type": "bytes"
        }
      ],
      "name": "DataChanged",
      "type": "event"
    },
    {
      "anonymous": false,
      "inputs": [
        {
          "indexed": true,
          "internalType": "address",
          "name": "previousOwner",
          "type": "address"
        },
        {
          "indexed": true,
          "internalType": "address",
          "name": "newOwner",
          "type": "address"
        }
      ],
      "name": "OwnershipTransferred",
      "type": "event"
    },
    {
      "anonymous": false,
      "inputs": [
        {
          "indexed": true,
          "internalType": "address",
          "name": "operator",
          "type": "address"
        },
        {
          "indexed": true,
          "internalType": "address",
          "name": "tokenOwner",
          "type": "address"
        }
      ],
      "name": "RevokedOperator",
      "type": "event"
    },
    {
      "anonymous": false,
      "inputs": [
        {
          "indexed": true,
          "internalType": "address",
          "name": "from",
          "type": "address"
        },
        {
          "indexed": true,
          "internalType": "address",
          "name": "to",
          "type": "address"
        },
        {
          "indexed": false,
          "internalType": "uint256",
          "name": "value",
          "type": "uint256"
        }
      ],
      "name": "Transfer",
      "type": "event"
    },
    {
      "anonymous": false,
      "inputs": [
        {
          "indexed": true,
          "internalType": "address",
          "name": "operator",
          "type": "address"
        },
        {
          "indexed": true,
          "internalType": "address",
          "name": "from",
          "type": "address"
        },
        {
          "indexed": true,
          "internalType": "address",
          "name": "to",
          "type": "address"
        },
        {
          "indexed": false,
          "internalType": "uint256",
          "name": "amount",
          "type": "uint256"
        },
        {
          "indexed": false,
          "internalType": "bool",
          "name": "allowNonLSP1Recipient",
          "type": "bool"
        },
        {
          "indexed": false,
          "internalType": "bytes",
          "name": "data",
          "type": "bytes"
        }
      ],
      "name": "Transfer",
      "type": "event"
    },
    {
      "inputs": [
        {
          "internalType": "address",
          "name": "tokenOwner",
          "type": "address"
        },
        {
          "internalType": "address",
          "name": "operator",
          "type": "address"
        }
      ],
      "name": "allowance",
      "outputs": [
        {
          "internalType": "uint256",
          "name": "",
          "type": "uint256"
        }
      ],
      "stateMutability": "view",
      "type": "function"
    },
    {
      "inputs": [
        {
          "internalType": "address",
          "name": "operator",
          "type": "address"
        },
        {
          "internalType": "uint256",
          "name": "amount",
          "type": "uint256"
        }
      ],
      "name": "approve",
      "outputs": [
        {
          "internalType": "bool",
          "name": "",
          "type": "bool"
        }
      ],
      "stateMutability": "nonpayable",
      "type": "function"
    },
    {
      "inputs": [
        {
          "internalType": "address",
          "name": "operator",
          "type": "address"
        },
        {
          "internalType": "uint256",
          "name": "amount",
          "type": "uint256"
        }
      ],
      "name": "authorizeOperator",
      "outputs": [],
      "stateMutability": "nonpayable",
      "type": "function"
    },
    {
      "inputs": [
        {
          "internalType": "address",
          "name": "operator",
          "type": "address"
        },
        {
          "internalType": "address",
          "name": "tokenOwner",
          "type": "address"
        }
      ],
      "name": "authorizedAmountFor",
      "outputs": [
        {
          "internalType": "uint256",
          "name": "",
          "type": "uint256"
        }
      ],
      "stateMutability": "view",
      "type": "function"
    },
    {
      "inputs": [
        {
          "internalType": "address",
          "name": "tokenOwner",
          "type": "address"
        }
      ],
      "name": "balanceOf",
      "outputs": [
        {
          "internalType": "uint256",
          "name": "",
          "type": "uint256"
        }
      ],
      "stateMutability": "view",
      "type": "function"
    },
    {
      "inputs": [],
      "name": "decimals",
      "outputs": [
        {
          "internalType": "uint8",
          "name": "",
          "type": "uint8"
        }
      ],
      "stateMutability": "view",
      "type": "function"
    },
    {
      "inputs": [
        {
          "internalType": "address",
          "name": "operator",
          "type": "address"
        },
        {
          "internalType": "uint256",
          "name": "substractedAmount",
          "type": "uint256"
        }
      ],
      "name": "decreaseAllowance",
      "outputs": [],
      "stateMutability": "nonpayable",
      "type": "function"
    },
    {
      "inputs": [
        {
          "internalType": "bytes32",
          "name": "dataKey",
          "type": "bytes32"
        }
      ],
      "name": "getData",
      "outputs": [
        {
          "internalType": "bytes",
          "name": "dataValue",
          "type": "bytes"
        }
      ],
      "stateMutability": "view",
      "type": "function"
    },
    {
      "inputs": [
        {
          "internalType": "bytes32[]",
          "name": "dataKeys",
          "type": "bytes32[]"
        }
      ],
      "name": "getDataBatch",
      "outputs": [
        {
          "internalType": "bytes[]",
          "name": "dataValues",
          "type": "bytes[]"
        }
      ],
      "stateMutability": "view",
      "type": "function"
    },
    {
      "inputs": [
        {
          "internalType": "address",
          "name": "operator",
          "type": "address"
        },
        {
          "internalType": "uint256",
          "name": "addedAmount",
          "type": "uint256"
        }
      ],
      "name": "increaseAllowance",
      "outputs": [],
      "stateMutability": "nonpayable",
      "type": "function"
    },
    {
      "inputs": [
        {
          "internalType": "address",
          "name": "to",
          "type": "address"
        },
        {
          "internalType": "uint256",
          "name": "amount",
          "type": "uint256"
        },
        {
          "internalType": "bool",
          "name": "allowNonLSP1Recipient",
          "type": "bool"
        },
        {
          "internalType": "bytes",
          "name": "data",
          "type": "bytes"
        }
      ],
      "name": "mint",
      "outputs": [],
      "stateMutability": "nonpayable",
      "type": "function"
    },
    {
      "inputs": [],
      "name": "name",
      "outputs": [
        {
          "internalType": "string",
          "name": "",
          "type": "string"
        }
      ],
      "stateMutability": "view",
      "type": "function"
    },
    {
      "inputs": [],
      "name": "owner",
      "outputs": [
        {
          "internalType": "address",
          "name": "",
          "type": "address"
        }
      ],
      "stateMutability": "view",
      "type": "function"
    },
    {
      "inputs": [],
      "name": "renounceOwnership",
      "outputs": [],
      "stateMutability": "nonpayable",
      "type": "function"
    },
    {
      "inputs": [
        {
          "internalType": "address",
          "name": "operator",
          "type": "address"
        }
      ],
      "name": "revokeOperator",
      "outputs": [],
      "stateMutability": "nonpayable",
      "type": "function"
    },
    {
      "inputs": [
        {
          "internalType": "bytes32",
          "name": "dataKey",
          "type": "bytes32"
        },
        {
          "internalType": "bytes",
          "name": "dataValue",
          "type": "bytes"
        }
      ],
      "name": "setData",
      "outputs": [],
      "stateMutability": "payable",
      "type": "function"
    },
    {
      "inputs": [
        {
          "internalType": "bytes32[]",
          "name": "dataKeys",
          "type": "bytes32[]"
        },
        {
          "internalType": "bytes[]",
          "name": "dataValues",
          "type": "bytes[]"
        }
      ],
      "name": "setDataBatch",
      "outputs": [],
      "stateMutability": "payable",
      "type": "function"
    },
    {
      "inputs": [
        {
          "internalType": "bytes4",
          "name": "interfaceId",
          "type": "bytes4"
        }
      ],
      "name": "supportsInterface",
      "outputs": [
        {
          "internalType": "bool",
          "name": "",
          "type": "bool"
        }
      ],
      "stateMutability": "view",
      "type": "function"
    },
    {
      "inputs": [],
      "name": "symbol",
      "outputs": [
        {
          "internalType": "string",
          "name": "",
          "type": "string"
        }
      ],
      "stateMutability": "view",
      "type": "function"
    },
    {
      "inputs": [],
      "name": "totalSupply",
      "outputs": [
        {
          "internalType": "uint256",
          "name": "",
          "type": "uint256"
        }
      ],
      "stateMutability": "view",
      "type": "function"
    },
    {
      "inputs": [
        {
          "internalType": "address",
          "name": "from",
          "type": "address"
        },
        {
          "internalType": "address",
          "name": "to",
          "type": "address"
        },
        {
          "internalType": "uint256",
          "name": "amount",
          "type": "uint256"
        },
        {
          "internalType": "bool",
          "name": "allowNonLSP1Recipient",
          "type": "bool"
        },
        {
          "internalType": "bytes",
          "name": "data",
          "type": "bytes"
        }
      ],
      "name": "transfer",
      "outputs": [],
      "stateMutability": "nonpayable",
      "type": "function"
    },
    {
      "inputs": [
        {
          "internalType": "address",
          "name": "to",
          "type": "address"
        },
        {
          "internalType": "uint256",
          "name": "amount",
          "type": "uint256"
        }
      ],
      "name": "transfer",
      "outputs": [
        {
          "internalType": "bool",
          "name": "",
          "type": "bool"
        }
      ],
      "stateMutability": "nonpayable",
      "type": "function"
    },
    {
      "inputs": [
        {
          "internalType": "address[]",
          "name": "from",
          "type": "address[]"
        },
        {
          "internalType": "address[]",
          "name": "to",
          "type": "address[]"
        },
        {
          "internalType": "uint256[]",
          "name": "amount",
          "type": "uint256[]"
        },
        {
          "internalType": "bool[]",
          "name": "allowNonLSP1Recipient",
          "type": "bool[]"
        },
        {
          "internalType": "bytes[]",
          "name": "data",
          "type": "bytes[]"
        }
      ],
      "name": "transferBatch",
      "outputs": [],
      "stateMutability": "nonpayable",
      "type": "function"
    },
    {
      "inputs": [
        {
          "internalType": "address",
          "name": "from",
          "type": "address"
        },
        {
          "internalType": "address",
          "name": "to",
          "type": "address"
        },
        {
          "internalType": "uint256",
          "name": "amount",
          "type": "uint256"
        }
      ],
      "name": "transferFrom",
      "outputs": [
        {
          "internalType": "bool",
          "name": "",
          "type": "bool"
        }
      ],
      "stateMutability": "nonpayable",
      "type": "function"
    },
    {
      "inputs": [
        {
          "internalType": "address",
          "name": "newOwner",
          "type": "address"
        }
      ],
      "name": "transferOwnership",
      "outputs": [],
      "stateMutability": "nonpayable",
      "type": "function"
    }
  ],
  "bytecode": "0x60806040523480156200001157600080fd5b50604051620026d6380380620026d683398101604081905262000034916200034a565b8282828282826000838383806001600160a01b038116620000aa5760405162461bcd60e51b815260206004820152602660248201527f4f776e61626c653a206e6577206f776e657220697320746865207a65726f206160448201526564647265737360d01b606482015260840160405180910390fd5b620000c081620001b060201b62000b651760201c565b50620001177feafec4d89fa9619884b60000a4d96624a38f7ac2d8d9a604ecf07c12c77e480c60001b604051806040016040528060048152602001632936598960e21b8152506200021760201b62000be21760201c565b620001517fdeba1e292f8ba88238e10ab3c7f88bd4be4fac56cad5194b6ecceaf653468af160001b846200021760201b62000be21760201c565b6200018b7f2f0a68ab07768e01943a599e73362a0e17a63a72e94dd2e384d2c1d4db93275660001b836200021760201b62000be21760201c565b50506005805460ff191692151592909217909155506200056798505050505050505050565b6000546001600160a01b038281169116146200021457600080546001600160a01b038381166001600160a01b0319831681178455604051919092169283917f8be0079c531659141344cd1fd0a4f28419497f9722a3daafe3b4186f6b6457e09190a3505b50565b600082815260016020526040902062000231828262000466565b50817fece574603820d07bc9b91f2a932baadf4628aabcb8afba49776529c14a6104b28260405162000264919062000532565b60405180910390a25050565b634e487b7160e01b600052604160045260246000fd5b60005b83811015620002a357818101518382015260200162000289565b83811115620002b3576000848401525b50505050565b600082601f830112620002cb57600080fd5b81516001600160401b0380821115620002e857620002e862000270565b604051601f8301601f19908116603f0116810190828211818310171562000313576200031362000270565b816040528381528660208588010111156200032d57600080fd5b6200034084602083016020890162000286565b9695505050505050565b6000806000606084860312156200036057600080fd5b83516001600160401b03808211156200037857600080fd5b6200038687838801620002b9565b945060208601519150808211156200039d57600080fd5b50620003ac86828701620002b9565b604086015190935090506001600160a01b0381168114620003cc57600080fd5b809150509250925092565b600181811c90821680620003ec57607f821691505b6020821081036200040d57634e487b7160e01b600052602260045260246000fd5b50919050565b601f8211156200046157600081815260208120601f850160051c810160208610156200043c5750805b601f850160051c820191505b818110156200045d5782815560010162000448565b5050505b505050565b81516001600160401b0381111562000482576200048262000270565b6200049a81620004938454620003d7565b8462000413565b602080601f831160018114620004d25760008415620004b95750858301515b600019600386901b1c1916600185901b1785556200045d565b600085815260208120601f198616915b828110156200050357888601518255948401946001909101908401620004e2565b5085821015620005225787850151600019600388901b60f8161c191681555b5050505050600190811b01905550565b60208152600082518060208401526200055381604085016020870162000286565b601f01601f19169190910160400192915050565b61215f80620005776000396000f3fe6080604052600436106101965760003560e01c8063715018a6116100e1578063979024211161008a578063dd62ed3e11610064578063dd62ed3e14610448578063dedff9c614610468578063f2fde38b14610495578063fad8b32a146104b557600080fd5b806397902421146103f5578063a457c2d714610408578063a9059cbb1461042857600080fd5b80637f23690c116100bb5780637f23690c146103a55780638da5cb5b146103b857806395d89b41146103e057600080fd5b8063715018a6146103505780637580d92014610365578063760d9bba1461038557600080fd5b8063313ce5671161014357806354f6127f1161011d57806354f6127f146102da57806365aeaa95146102fa57806370a082311461031a57600080fd5b8063313ce56714610273578063395093511461029a57806347980aa3146102ba57600080fd5b806318160ddd1161017457806318160ddd1461021257806323b872dd146102315780632d7667c91461025157600080fd5b806301ffc9a71461019b57806306fdde03146101d0578063095ea7b3146101f2575b600080fd5b3480156101a757600080fd5b506101bb6101b636600461178f565b6104d5565b60405190151581526020015b60405180910390f35b3480156101dc57600080fd5b506101e56104e6565b6040516101c79190611811565b3480156101fe57600080fd5b506101bb61020d366004611840565b610513565b34801561021e57600080fd5b506004545b6040519081526020016101c7565b34801561023d57600080fd5b506101bb61024c36600461186a565b610528565b34801561025d57600080fd5b5061027161026c366004611b49565b610551565b005b34801561027f57600080fd5b50610288610659565b60405160ff90911681526020016101c7565b3480156102a657600080fd5b506102716102b5366004611840565b610672565b3480156102c657600080fd5b506102716102d5366004611840565b610695565b3480156102e657600080fd5b506101e56102f5366004611c1b565b6106a0565b34801561030657600080fd5b50610223610315366004611c34565b6106ab565b34801561032657600080fd5b50610223610335366004611c67565b6001600160a01b031660009081526002602052604090205490565b34801561035c57600080fd5b50610271610711565b34801561037157600080fd5b50610271610380366004611c82565b610725565b34801561039157600080fd5b506102716103a0366004611cea565b61073f565b6102716103b3366004611d56565b610847565b3480156103c457600080fd5b506000546040516001600160a01b0390911681526020016101c7565b3480156103ec57600080fd5b506101e5610878565b610271610403366004611d9d565b6108a5565b34801561041457600080fd5b50610271610423366004611840565b610997565b34801561043457600080fd5b506101bb610443366004611840565b6109ec565b34801561045457600080fd5b50610223610463366004611c34565b610a0b565b34801561047457600080fd5b50610488610483366004611df7565b610a1e565b6040516101c79190611e34565b3480156104a157600080fd5b506102716104b0366004611c67565b610ac9565b3480156104c157600080fd5b506102716104d0366004611c67565b610b59565b60006104e082610c37565b92915050565b606060006104e07fdeba1e292f8ba88238e10ab3c7f88bd4be4fac56cad5194b6ecceaf653468af1610c75565b600061051f8383610695565b50600192915050565b600061054784848460016040518060200160405280600081525061073f565b5060019392505050565b8451845181141580610564575083518114155b80610570575082518114155b8061057c575081518114155b156105b3576040517f263eee8d00000000000000000000000000000000000000000000000000000000815260040160405180910390fd5b60005b81811015610650576106488782815181106105d3576105d3611e96565b60200260200101518783815181106105ed576105ed611e96565b602002602001015187848151811061060757610607611e96565b602002602001015187858151811061062157610621611e96565b602002602001015187868151811061063b5761063b611e96565b602002602001015161073f565b6001016105b6565b50505050505050565b60055460009060ff1661066c5750601290565b50600090565b61069133838361068286336106ab565b61068c9190611ec2565b610d17565b5050565b610691338383610d17565b60606104e082610c75565b6000826001600160a01b0316826001600160a01b0316036106e557506001600160a01b0381166000908152600260205260409020546104e0565b506001600160a01b038082166000908152600360209081526040808320938616835292905220546104e0565b610719610d74565b6107236000610b65565b565b61072d610d74565b61073984848484610ddd565b50505050565b836001600160a01b0316856001600160a01b03160361078a576040517fb9afb00000000000000000000000000000000000000000000000000000000000815260040160405180910390fd5b336001600160a01b0386168114610832576001600160a01b0380871660009081526003602090815260408083209385168352929052205480851115610821576040517ff3a6b6910000000000000000000000000000000000000000000000000000000081526001600160a01b0380891660048301526024820183905283166044820152606481018690526084015b60405180910390fd5b610830878361068c8885611eda565b505b61083f8686868686610e2a565b505050505050565b61084f610d74565b341561086e5760405163f36ba73760e01b815260040160405180910390fd5b6106918282610e8b565b606060006104e07f2f0a68ab07768e01943a599e73362a0e17a63a72e94dd2e384d2c1d4db932756610c75565b6108ad610d74565b34156108cc5760405163f36ba73760e01b815260040160405180910390fd5b8051825114610907576040517f3bcc897900000000000000000000000000000000000000000000000000000000815260040160405180910390fd5b8151600003610942576040517f97da5f9500000000000000000000000000000000000000000000000000000000815260040160405180910390fd5b60005b82518110156109925761098a83828151811061096357610963611e96565b602002602001015183838151811061097d5761097d611e96565b6020026020010151610e8b565b600101610945565b505050565b60006109a383336106ab565b9050818110156109df576040517f0ef76c3500000000000000000000000000000000000000000000000000000000815260040160405180910390fd5b6109923384848403610d17565b600061051f33848460016040518060200160405280600081525061073f565b6000610a1782846106ab565b9392505050565b6060815167ffffffffffffffff811115610a3a57610a3a6118a6565b604051908082528060200260200182016040528015610a6d57816020015b6060815260200190600190039081610a585790505b50905060005b8251811015610ac357610a9e838281518110610a9157610a91611e96565b6020026020010151610c75565b828281518110610ab057610ab0611e96565b6020908102919091010152600101610a73565b50919050565b610ad1610d74565b6001600160a01b038116610b4d5760405162461bcd60e51b815260206004820152602660248201527f4f776e61626c653a206e6577206f776e657220697320746865207a65726f206160448201527f64647265737300000000000000000000000000000000000000000000000000006064820152608401610818565b610b5681610b65565b50565b610b5633826000610d17565b6000546001600160a01b03828116911614610b5657600080546001600160a01b038381167fffffffffffffffffffffffff0000000000000000000000000000000000000000831681178455604051919092169283917f8be0079c531659141344cd1fd0a4f28419497f9722a3daafe3b4186f6b6457e09190a35050565b6000828152600160205260409020610bfa8282611f6b565b50817fece574603820d07bc9b91f2a932baadf4628aabcb8afba49776529c14a6104b282604051610c2b9190611811565b60405180910390a25050565b60006001600160e01b031982167fda1f85e40000000000000000000000000000000000000000000000000000000014806104e057506104e082610e95565b6000818152600160205260409020805460609190610c9290611ef1565b80601f0160208091040260200160405190810160405280929190818152602001828054610cbe90611ef1565b8015610d0b5780601f10610ce057610100808354040283529160200191610d0b565b820191906000526020600020905b815481529060010190602001808311610cee57829003601f168201915b50505050509050919050565b610d22838383610ee3565b816001600160a01b0316836001600160a01b03167f8c5be1e5ebec7d5bd14f71427d1e84f3dd0314c0f7b2291e5b200ac8c7c3b92583604051610d6791815260200190565b60405180910390a3505050565b33610d876000546001600160a01b031690565b6001600160a01b0316146107235760405162461bcd60e51b815260206004820181905260248201527f4f776e61626c653a2063616c6c6572206973206e6f7420746865206f776e65726044820152606401610818565b6040518381526001600160a01b038516906000907fddf252ad1be2c89b69c2b068fc378daa952ba7f163c4a11628f55a4df523b3ef9060200160405180910390a361073984848484611027565b836001600160a01b0316856001600160a01b03167fddf252ad1be2c89b69c2b068fc378daa952ba7f163c4a11628f55a4df523b3ef85604051610e6f91815260200190565b60405180910390a3610e848585858585611124565b5050505050565b61069182826112ca565b60006001600160e01b031982167f629aa6940000000000000000000000000000000000000000000000000000000014806104e057506301ffc9a760e01b6001600160e01b03198316146104e0565b6001600160a01b038216610f23576040517f6355e76600000000000000000000000000000000000000000000000000000000815260040160405180910390fd5b826001600160a01b0316826001600160a01b031603610f6e576040517fdab7504700000000000000000000000000000000000000000000000000000000815260040160405180910390fd5b6001600160a01b0380841660009081526003602090815260408083209386168352929052208190558015610fe25780836001600160a01b0316836001600160a01b03167fd66aff874162a96578e919097b6f6d153dfd89a5cec41bb331fdb0c4aec16e2c60405160405180910390a4505050565b826001600160a01b0316826001600160a01b03167f50546e66e5f44d728365dc3908c63bc5cfeeab470722c1677e3073a6ac294aa160405160405180910390a3505050565b6001600160a01b03841661104e57604051630d2d5ec360e41b815260040160405180910390fd5b3383600460008282546110619190611ec2565b90915550506001600160a01b0385166000908152600260205260408120805486929061108e908490611ec2565b92505081905550846001600160a01b031660006001600160a01b0316826001600160a01b03167f3997e418d2cef0b3b0e907b1e39605c3f7d32dbd061e82ea5b4a770d46a160a68787876040516110e79392919061202b565b60405180910390a46000808686856040516020016111089493929190612055565b604051602081830303815290604052905061083f8685836113e4565b6001600160a01b038516158061114157506001600160a01b038416155b1561115f57604051630d2d5ec360e41b815260040160405180910390fd5b6001600160a01b038516600090815260026020526040902054808411156111cb576040517f08d47949000000000000000000000000000000000000000000000000000000008152600481018290526001600160a01b038716602482015260448101859052606401610818565b336001600160a01b038716600090815260026020526040812080548792906111f4908490611eda565b90915550506001600160a01b03861660009081526002602052604081208054879290611221908490611ec2565b92505081905550856001600160a01b0316876001600160a01b0316826001600160a01b03167f3997e418d2cef0b3b0e907b1e39605c3f7d32dbd061e82ea5b4a770d46a160a68888886040516112799392919061202b565b60405180910390a460008787878660405160200161129a9493929190612055565b60405160208183030381529060405290506112b5888261151e565b6112c08786836113e4565b5050505050505050565b7f2145e1d6d074577dc71ef54c3807742b41b053a9352ae6b491331509acb9750f8201611323576040517f85c169bd00000000000000000000000000000000000000000000000000000000815260040160405180910390fd5b7fd0f59754f88971fe6bc5a6618cc9d5f1e859c58d16b22d1c7b2d3e2b246cd8aa820161137c576040517f76755b3800000000000000000000000000000000000000000000000000000000815260040160405180910390fd5b60008281526001602052604090206113948282611f6b565b50817fece574603820d07bc9b91f2a932baadf4628aabcb8afba49776529c14a6104b2610100835111156113d5576113d08360006101006115c9565b6113d7565b825b604051610c2b9190611811565b6113f583631aed5a8560e21b6116f1565b1561148f57604051631aed5a8560e21b81526001600160a01b03841690636bb56a1490611448907f20804611b3e2ea21c480dc465142210acf4a2485947541770ec1fb87dee4a55c9085906004016120a2565b6000604051808303816000875af1158015611467573d6000803e3d6000fd5b505050506040513d6000823e601f3d908101601f1916820160405261073991908101906120bb565b81610992576001600160a01b0383163b156114e1576040517fa608fbb60000000000000000000000000000000000000000000000000000000081526001600160a01b0384166004820152602401610818565b6040517f26c247f40000000000000000000000000000000000000000000000000000000081526001600160a01b0384166004820152602401610818565b61152f82631aed5a8560e21b6116f1565b1561069157604051631aed5a8560e21b81526001600160a01b03831690636bb56a1490611582907f429ac7a06903dbc9c13dfcb3c9d11df8194581fa047c96d7a4171fc7402958ea9085906004016120a2565b6000604051808303816000875af11580156115a1573d6000803e3d6000fd5b505050506040513d6000823e601f3d908101601f1916820160405261099291908101906120bb565b6060816115d781601f611ec2565b10156116255760405162461bcd60e51b815260206004820152600e60248201527f736c6963655f6f766572666c6f770000000000000000000000000000000000006044820152606401610818565b61162f8284611ec2565b8451101561167f5760405162461bcd60e51b815260206004820152601160248201527f736c6963655f6f75744f66426f756e64730000000000000000000000000000006044820152606401610818565b60608215801561169e57604051915060008252602082016040526116e8565b6040519150601f8416801560200281840101858101878315602002848b0101015b818310156116d75780518352602092830192016116bf565b5050858452601f01601f1916604052505b50949350505050565b604080516001600160e01b03198316602480830191909152825180830390910181526044909101909152602080820180517bffffffffffffffffffffffffffffffffffffffffffffffffffffffff166301ffc9a760e01b178152825160009392849283928392918391908a617530fa92503d91506000519050828015611778575060208210155b80156117845750600081115b979650505050505050565b6000602082840312156117a157600080fd5b81356001600160e01b031981168114610a1757600080fd5b60005b838110156117d45781810151838201526020016117bc565b838111156107395750506000910152565b600081518084526117fd8160208601602086016117b9565b601f01601f19169290920160200192915050565b602081526000610a1760208301846117e5565b80356001600160a01b038116811461183b57600080fd5b919050565b6000806040838503121561185357600080fd5b61185c83611824565b946020939093013593505050565b60008060006060848603121561187f57600080fd5b61188884611824565b925061189660208501611824565b9150604084013590509250925092565b634e487b7160e01b600052604160045260246000fd5b604051601f8201601f1916810167ffffffffffffffff811182821017156118e5576118e56118a6565b604052919050565b600067ffffffffffffffff821115611907576119076118a6565b5060051b60200190565b600082601f83011261192257600080fd5b81356020611937611932836118ed565b6118bc565b82815260059290921b8401810191818101908684111561195657600080fd5b8286015b848110156119785761196b81611824565b835291830191830161195a565b509695505050505050565b600082601f83011261199457600080fd5b813560206119a4611932836118ed565b82815260059290921b840181019181810190868411156119c357600080fd5b8286015b8481101561197857803583529183019183016119c7565b8035801515811461183b57600080fd5b600082601f8301126119ff57600080fd5b81356020611a0f611932836118ed565b82815260059290921b84018101918181019086841115611a2e57600080fd5b8286015b8481101561197857611a43816119de565b8352918301918301611a32565b600067ffffffffffffffff821115611a6a57611a6a6118a6565b50601f01601f191660200190565b600082601f830112611a8957600080fd5b8135611a9761193282611a50565b818152846020838601011115611aac57600080fd5b816020850160208301376000918101602001919091529392505050565b600082601f830112611ada57600080fd5b81356020611aea611932836118ed565b82815260059290921b84018101918181019086841115611b0957600080fd5b8286015b8481101561197857803567ffffffffffffffff811115611b2d5760008081fd5b611b3b8986838b0101611a78565b845250918301918301611b0d565b600080600080600060a08688031215611b6157600080fd5b853567ffffffffffffffff80821115611b7957600080fd5b611b8589838a01611911565b96506020880135915080821115611b9b57600080fd5b611ba789838a01611911565b95506040880135915080821115611bbd57600080fd5b611bc989838a01611983565b94506060880135915080821115611bdf57600080fd5b611beb89838a016119ee565b93506080880135915080821115611c0157600080fd5b50611c0e88828901611ac9565b9150509295509295909350565b600060208284031215611c2d57600080fd5b5035919050565b60008060408385031215611c4757600080fd5b611c5083611824565b9150611c5e60208401611824565b90509250929050565b600060208284031215611c7957600080fd5b610a1782611824565b60008060008060808587031215611c9857600080fd5b611ca185611824565b935060208501359250611cb6604086016119de565b9150606085013567ffffffffffffffff811115611cd257600080fd5b611cde87828801611a78565b91505092959194509250565b600080600080600060a08688031215611d0257600080fd5b611d0b86611824565b9450611d1960208701611824565b935060408601359250611d2e606087016119de565b9150608086013567ffffffffffffffff811115611d4a57600080fd5b611c0e88828901611a78565b60008060408385031215611d6957600080fd5b82359150602083013567ffffffffffffffff811115611d8757600080fd5b611d9385828601611a78565b9150509250929050565b60008060408385031215611db057600080fd5b823567ffffffffffffffff80821115611dc857600080fd5b611dd486838701611983565b93506020850135915080821115611dea57600080fd5b50611d9385828601611ac9565b600060208284031215611e0957600080fd5b813567ffffffffffffffff811115611e2057600080fd5b611e2c84828501611983565b949350505050565b6000602080830181845280855180835260408601915060408160051b870101925083870160005b82811015611e8957603f19888603018452611e778583516117e5565b94509285019290850190600101611e5b565b5092979650505050505050565b634e487b7160e01b600052603260045260246000fd5b634e487b7160e01b600052601160045260246000fd5b60008219821115611ed557611ed5611eac565b500190565b600082821015611eec57611eec611eac565b500390565b600181811c90821680611f0557607f821691505b602082108103610ac357634e487b7160e01b600052602260045260246000fd5b601f82111561099257600081815260208120601f850160051c81016020861015611f4c5750805b601f850160051c820191505b8181101561083f57828155600101611f58565b815167ffffffffffffffff811115611f8557611f856118a6565b611f9981611f938454611ef1565b84611f25565b602080601f831160018114611fce5760008415611fb65750858301515b600019600386901b1c1916600185901b17855561083f565b600085815260208120601f198616915b82811015611ffd57888601518255948401946001909101908401611fde565b508582101561201b5787850151600019600388901b60f8161c191681555b5050505050600190811b01905550565b838152821515602082015260606040820152600061204c60608301846117e5565b95945050505050565b60006bffffffffffffffffffffffff19808760601b168352808660601b1660148401525083602883015282516120928160488501602087016117b9565b9190910160480195945050505050565b828152604060208201526000611e2c60408301846117e5565b6000602082840312156120cd57600080fd5b815167ffffffffffffffff8111156120e457600080fd5b8201601f810184136120f557600080fd5b805161210361193282611a50565b81815285602083850101111561211857600080fd5b61204c8260208301602086016117b956fea26469706673582212201cc9720196cc3f301076ecf2fb13fda0d345faaa621ba85e23ff61e781a22b1d64736f6c634300080f0033",
  "linkReferences": {},
  "deployedLinkReferences": {}
}