{
  "_format": "hh-sol-artifact-1",
  "contractName": "LSP8Mintable",
  "sourceName": "contracts/LSP8IdentifiableDigitalAsset/presets/LSP8Mintable.sol",
  "abi": [
    {
      "inputs": [
        {
          "internalType": "string",
          "name": "name_",
          "type": "string"
        },
        {
          "internalType": "string",
          "name": "symbol_",
          "type": "string"
        },
        {
          "internalType": "address",
          "name": "newOwner_",
          "type": "address"
        }
      ],
      "stateMutability": "nonpayable",
      "type": "constructor"
    },
    {
      "inputs": [],
      "name": "ERC725Y_DataKeysValuesEmptyArray",
      "type": "error"
    },
    {
      "inputs": [],
      "name": "ERC725Y_DataKeysValuesLengthMismatch",
      "type": "error"
    },
    {
      "inputs": [],
      "name": "ERC725Y_MsgValueDisallowed",
      "type": "error"
    },
    {
      "inputs": [],
      "name": "LSP4TokenNameNotEditable",
      "type": "error"
    },
    {
      "inputs": [],
      "name": "LSP4TokenSymbolNotEditable",
      "type": "error"
    },
    {
      "inputs": [],
      "name": "LSP8CannotSendToAddressZero",
      "type": "error"
    },
    {
      "inputs": [],
      "name": "LSP8CannotSendToSelf",
      "type": "error"
    },
    {
      "inputs": [],
      "name": "LSP8CannotUseAddressZeroAsOperator",
      "type": "error"
    },
    {
      "inputs": [],
      "name": "LSP8InvalidTransferBatch",
      "type": "error"
    },
    {
      "inputs": [
        {
          "internalType": "bytes32",
          "name": "tokenId",
          "type": "bytes32"
        }
      ],
      "name": "LSP8NonExistentTokenId",
      "type": "error"
    },
    {
      "inputs": [
        {
          "internalType": "address",
          "name": "operator",
          "type": "address"
        },
        {
          "internalType": "bytes32",
          "name": "tokenId",
          "type": "bytes32"
        }
      ],
      "name": "LSP8NonExistingOperator",
      "type": "error"
    },
    {
      "inputs": [
        {
          "internalType": "bytes32",
          "name": "tokenId",
          "type": "bytes32"
        },
        {
          "internalType": "address",
          "name": "caller",
          "type": "address"
        }
      ],
      "name": "LSP8NotTokenOperator",
      "type": "error"
    },
    {
      "inputs": [
        {
          "internalType": "address",
          "name": "tokenOwner",
          "type": "address"
        },
        {
          "internalType": "bytes32",
          "name": "tokenId",
          "type": "bytes32"
        },
        {
          "internalType": "address",
          "name": "caller",
          "type": "address"
        }
      ],
      "name": "LSP8NotTokenOwner",
      "type": "error"
    },
    {
      "inputs": [
        {
          "internalType": "address",
          "name": "tokenReceiver",
          "type": "address"
        }
      ],
      "name": "LSP8NotifyTokenReceiverContractMissingLSP1Interface",
      "type": "error"
    },
    {
      "inputs": [
        {
          "internalType": "address",
          "name": "tokenReceiver",
          "type": "address"
        }
      ],
      "name": "LSP8NotifyTokenReceiverIsEOA",
      "type": "error"
    },
    {
      "inputs": [
        {
          "internalType": "address",
          "name": "operator",
          "type": "address"
        },
        {
          "internalType": "bytes32",
          "name": "tokenId",
          "type": "bytes32"
        }
      ],
      "name": "LSP8OperatorAlreadyAuthorized",
      "type": "error"
    },
    {
      "inputs": [
        {
          "internalType": "bytes32",
          "name": "tokenId",
          "type": "bytes32"
        }
      ],
      "name": "LSP8TokenIdAlreadyMinted",
      "type": "error"
    },
    {
      "inputs": [],
      "name": "LSP8TokenOwnerCannotBeOperator",
      "type": "error"
    },
    {
      "anonymous": false,
      "inputs": [
        {
          "indexed": true,
          "internalType": "address",
          "name": "operator",
          "type": "address"
        },
        {
          "indexed": true,
          "internalType": "address",
          "name": "tokenOwner",
          "type": "address"
        },
        {
          "indexed": true,
          "internalType": "bytes32",
          "name": "tokenId",
          "type": "bytes32"
        }
      ],
      "name": "AuthorizedOperator",
      "type": "event"
    },
    {
      "anonymous": false,
      "inputs": [
        {
          "indexed": true,
          "internalType": "bytes32",
          "name": "dataKey",
          "type": "bytes32"
        },
        {
          "indexed": false,
          "internalType": "bytes",
          "name": "dataValue",
          "type": "bytes"
        }
      ],
      "name": "DataChanged",
      "type": "event"
    },
    {
      "anonymous": false,
      "inputs": [
        {
          "indexed": true,
          "internalType": "address",
          "name": "previousOwner",
          "type": "address"
        },
        {
          "indexed": true,
          "internalType": "address",
          "name": "newOwner",
          "type": "address"
        }
      ],
      "name": "OwnershipTransferred",
      "type": "event"
    },
    {
      "anonymous": false,
      "inputs": [
        {
          "indexed": true,
          "internalType": "address",
          "name": "operator",
          "type": "address"
        },
        {
          "indexed": true,
          "internalType": "address",
          "name": "tokenOwner",
          "type": "address"
        },
        {
          "indexed": true,
          "internalType": "bytes32",
          "name": "tokenId",
          "type": "bytes32"
        }
      ],
      "name": "RevokedOperator",
      "type": "event"
    },
    {
      "anonymous": false,
      "inputs": [
        {
          "indexed": false,
          "internalType": "address",
          "name": "operator",
          "type": "address"
        },
        {
          "indexed": true,
          "internalType": "address",
          "name": "from",
          "type": "address"
        },
        {
          "indexed": true,
          "internalType": "address",
          "name": "to",
          "type": "address"
        },
        {
          "indexed": true,
          "internalType": "bytes32",
          "name": "tokenId",
          "type": "bytes32"
        },
        {
          "indexed": false,
          "internalType": "bool",
          "name": "allowNonLSP1Recipient",
          "type": "bool"
        },
        {
          "indexed": false,
          "internalType": "bytes",
          "name": "data",
          "type": "bytes"
        }
      ],
      "name": "Transfer",
      "type": "event"
    },
    {
      "inputs": [
        {
          "internalType": "address",
          "name": "operator",
          "type": "address"
        },
        {
          "internalType": "bytes32",
          "name": "tokenId",
          "type": "bytes32"
        }
      ],
      "name": "authorizeOperator",
      "outputs": [],
      "stateMutability": "nonpayable",
      "type": "function"
    },
    {
      "inputs": [
        {
          "internalType": "address",
          "name": "tokenOwner",
          "type": "address"
        }
      ],
      "name": "balanceOf",
      "outputs": [
        {
          "internalType": "uint256",
          "name": "",
          "type": "uint256"
        }
      ],
      "stateMutability": "view",
      "type": "function"
    },
    {
      "inputs": [
        {
          "internalType": "bytes32",
          "name": "dataKey",
          "type": "bytes32"
        }
      ],
      "name": "getData",
      "outputs": [
        {
          "internalType": "bytes",
          "name": "dataValue",
          "type": "bytes"
        }
      ],
      "stateMutability": "view",
      "type": "function"
    },
    {
      "inputs": [
        {
          "internalType": "bytes32[]",
          "name": "dataKeys",
          "type": "bytes32[]"
        }
      ],
      "name": "getDataBatch",
      "outputs": [
        {
          "internalType": "bytes[]",
          "name": "dataValues",
          "type": "bytes[]"
        }
      ],
      "stateMutability": "view",
      "type": "function"
    },
    {
      "inputs": [
        {
          "internalType": "bytes32",
          "name": "tokenId",
          "type": "bytes32"
        }
      ],
      "name": "getOperatorsOf",
      "outputs": [
        {
          "internalType": "address[]",
          "name": "",
          "type": "address[]"
        }
      ],
      "stateMutability": "view",
      "type": "function"
    },
    {
      "inputs": [
        {
          "internalType": "address",
          "name": "operator",
          "type": "address"
        },
        {
          "internalType": "bytes32",
          "name": "tokenId",
          "type": "bytes32"
        }
      ],
      "name": "isOperatorFor",
      "outputs": [
        {
          "internalType": "bool",
          "name": "",
          "type": "bool"
        }
      ],
      "stateMutability": "view",
      "type": "function"
    },
    {
      "inputs": [
        {
          "internalType": "address",
          "name": "to",
          "type": "address"
        },
        {
          "internalType": "bytes32",
          "name": "tokenId",
          "type": "bytes32"
        },
        {
          "internalType": "bool",
          "name": "allowNonLSP1Recipient",
          "type": "bool"
        },
        {
          "internalType": "bytes",
          "name": "data",
          "type": "bytes"
        }
      ],
      "name": "mint",
      "outputs": [],
      "stateMutability": "nonpayable",
      "type": "function"
    },
    {
      "inputs": [],
      "name": "owner",
      "outputs": [
        {
          "internalType": "address",
          "name": "",
          "type": "address"
        }
      ],
      "stateMutability": "view",
      "type": "function"
    },
    {
      "inputs": [],
      "name": "renounceOwnership",
      "outputs": [],
      "stateMutability": "nonpayable",
      "type": "function"
    },
    {
      "inputs": [
        {
          "internalType": "address",
          "name": "operator",
          "type": "address"
        },
        {
          "internalType": "bytes32",
          "name": "tokenId",
          "type": "bytes32"
        }
      ],
      "name": "revokeOperator",
      "outputs": [],
      "stateMutability": "nonpayable",
      "type": "function"
    },
    {
      "inputs": [
        {
          "internalType": "bytes32",
          "name": "dataKey",
          "type": "bytes32"
        },
        {
          "internalType": "bytes",
          "name": "dataValue",
          "type": "bytes"
        }
      ],
      "name": "setData",
      "outputs": [],
      "stateMutability": "payable",
      "type": "function"
    },
    {
      "inputs": [
        {
          "internalType": "bytes32[]",
          "name": "dataKeys",
          "type": "bytes32[]"
        },
        {
          "internalType": "bytes[]",
          "name": "dataValues",
          "type": "bytes[]"
        }
      ],
      "name": "setDataBatch",
      "outputs": [],
      "stateMutability": "payable",
      "type": "function"
    },
    {
      "inputs": [
        {
          "internalType": "bytes4",
          "name": "interfaceId",
          "type": "bytes4"
        }
      ],
      "name": "supportsInterface",
      "outputs": [
        {
          "internalType": "bool",
          "name": "",
          "type": "bool"
        }
      ],
      "stateMutability": "view",
      "type": "function"
    },
    {
      "inputs": [
        {
          "internalType": "address",
          "name": "tokenOwner",
          "type": "address"
        }
      ],
      "name": "tokenIdsOf",
      "outputs": [
        {
          "internalType": "bytes32[]",
          "name": "",
          "type": "bytes32[]"
        }
      ],
      "stateMutability": "view",
      "type": "function"
    },
    {
      "inputs": [
        {
          "internalType": "bytes32",
          "name": "tokenId",
          "type": "bytes32"
        }
      ],
      "name": "tokenOwnerOf",
      "outputs": [
        {
          "internalType": "address",
          "name": "",
          "type": "address"
        }
      ],
      "stateMutability": "view",
      "type": "function"
    },
    {
      "inputs": [],
      "name": "totalSupply",
      "outputs": [
        {
          "internalType": "uint256",
          "name": "",
          "type": "uint256"
        }
      ],
      "stateMutability": "view",
      "type": "function"
    },
    {
      "inputs": [
        {
          "internalType": "address",
          "name": "from",
          "type": "address"
        },
        {
          "internalType": "address",
          "name": "to",
          "type": "address"
        },
        {
          "internalType": "bytes32",
          "name": "tokenId",
          "type": "bytes32"
        },
        {
          "internalType": "bool",
          "name": "allowNonLSP1Recipient",
          "type": "bool"
        },
        {
          "internalType": "bytes",
          "name": "data",
          "type": "bytes"
        }
      ],
      "name": "transfer",
      "outputs": [],
      "stateMutability": "nonpayable",
      "type": "function"
    },
    {
      "inputs": [
        {
          "internalType": "address[]",
          "name": "from",
          "type": "address[]"
        },
        {
          "internalType": "address[]",
          "name": "to",
          "type": "address[]"
        },
        {
          "internalType": "bytes32[]",
          "name": "tokenId",
          "type": "bytes32[]"
        },
        {
          "internalType": "bool[]",
          "name": "allowNonLSP1Recipient",
          "type": "bool[]"
        },
        {
          "internalType": "bytes[]",
          "name": "data",
          "type": "bytes[]"
        }
      ],
      "name": "transferBatch",
      "outputs": [],
      "stateMutability": "nonpayable",
      "type": "function"
    },
    {
      "inputs": [
        {
          "internalType": "address",
          "name": "newOwner",
          "type": "address"
        }
      ],
      "name": "transferOwnership",
      "outputs": [],
      "stateMutability": "nonpayable",
      "type": "function"
    }
  ],
  "bytecode": "0x60806040523480156200001157600080fd5b506040516200283c3803806200283c83398101604081905262000034916200032f565b828282828282806001600160a01b038116620000a55760405162461bcd60e51b815260206004820152602660248201527f4f776e61626c653a206e6577206f776e657220697320746865207a65726f206160448201526564647265737360d01b606482015260840160405180910390fd5b620000bb816200019560201b62000af71760201c565b50620001127feafec4d89fa9619884b60000a4d96624a38f7ac2d8d9a604ecf07c12c77e480c60001b604051806040016040528060048152602001632936598960e21b815250620001fc60201b62000b691760201c565b6200014c7fdeba1e292f8ba88238e10ab3c7f88bd4be4fac56cad5194b6ecceaf653468af160001b84620001fc60201b62000b691760201c565b620001867f2f0a68ab07768e01943a599e73362a0e17a63a72e94dd2e384d2c1d4db93275660001b83620001fc60201b62000b691760201c565b5050505050505050506200054c565b6000546001600160a01b03828116911614620001f957600080546001600160a01b038381166001600160a01b0319831681178455604051919092169283917f8be0079c531659141344cd1fd0a4f28419497f9722a3daafe3b4186f6b6457e09190a3505b50565b60008281526001602052604090206200021682826200044b565b50817fece574603820d07bc9b91f2a932baadf4628aabcb8afba49776529c14a6104b28260405162000249919062000517565b60405180910390a25050565b634e487b7160e01b600052604160045260246000fd5b60005b83811015620002885781810151838201526020016200026e565b8381111562000298576000848401525b50505050565b600082601f830112620002b057600080fd5b81516001600160401b0380821115620002cd57620002cd62000255565b604051601f8301601f19908116603f01168101908282118183101715620002f857620002f862000255565b816040528381528660208588010111156200031257600080fd5b620003258460208301602089016200026b565b9695505050505050565b6000806000606084860312156200034557600080fd5b83516001600160401b03808211156200035d57600080fd5b6200036b878388016200029e565b945060208601519150808211156200038257600080fd5b5062000391868287016200029e565b604086015190935090506001600160a01b0381168114620003b157600080fd5b809150509250925092565b600181811c90821680620003d157607f821691505b602082108103620003f257634e487b7160e01b600052602260045260246000fd5b50919050565b601f8211156200044657600081815260208120601f850160051c81016020861015620004215750805b601f850160051c820191505b8181101562000442578281556001016200042d565b5050505b505050565b81516001600160401b0381111562000467576200046762000255565b6200047f81620004788454620003bc565b84620003f8565b602080601f831160018114620004b757600084156200049e5750858301515b600019600386901b1c1916600185901b17855562000442565b600085815260208120601f198616915b82811015620004e857888601518255948401946001909101908401620004c7565b5085821015620005075787850151600019600388901b60f8161c191681555b5050505050600190811b01905550565b6020815260008251806020840152620005388160408501602087016200026b565b601f01601f19169190910160400192915050565b6122e0806200055c6000396000f3fe6080604052600436106101445760003560e01c8063715018a6116100c0578063a3b261f211610074578063cf5182ba11610059578063cf5182ba14610377578063dedff9c614610397578063f2fde38b146103c457600080fd5b8063a3b261f21461032a578063af255b611461035757600080fd5b80637f23690c116100a55780637f23690c146102e65780638da5cb5b146102f9578063979024211461031757600080fd5b8063715018a6146102b15780637e87632c146102c657600080fd5b80632a3654a411610117578063511b6952116100fc578063511b69521461024457806354f6127f1461026457806370a082311461029157600080fd5b80632a3654a4146101f757806349a6078d1461021757600080fd5b806301ffc9a7146101495780630b0c6d821461017e57806318160ddd146101a0578063217b2270146101bf575b600080fd5b34801561015557600080fd5b506101696101643660046118e3565b6103e4565b60405190151581526020015b60405180910390f35b34801561018a57600080fd5b5061019e610199366004611929565b610428565b005b3480156101ac57600080fd5b506002545b604051908152602001610175565b3480156101cb57600080fd5b506101df6101da366004611953565b6104e4565b6040516001600160a01b039091168152602001610175565b34801561020357600080fd5b50610169610212366004611929565b61051d565b34801561022357600080fd5b50610237610232366004611953565b610539565b604051610175919061196c565b34801561025057600080fd5b5061019e61025f366004611a8e565b61055b565b34801561027057600080fd5b5061028461027f366004611953565b6105c3565b6040516101759190611b5f565b34801561029d57600080fd5b506101b16102ac366004611b72565b6105ce565b3480156102bd57600080fd5b5061019e6105ef565b3480156102d257600080fd5b5061019e6102e1366004611d5b565b610603565b61019e6102f4366004611e20565b61070b565b34801561030557600080fd5b506000546001600160a01b03166101df565b61019e610325366004611e67565b610740565b34801561033657600080fd5b5061034a610345366004611b72565b61082d565b6040516101759190611ec1565b34801561036357600080fd5b5061019e610372366004611ef9565b610851565b34801561038357600080fd5b5061019e610392366004611929565b61086b565b3480156103a357600080fd5b506103b76103b2366004611f61565b6109bc565b6040516101759190611f96565b3480156103d057600080fd5b5061019e6103df366004611b72565b610a67565b60006001600160e01b031982167f622e7a01000000000000000000000000000000000000000000000000000000001480610422575061042282610bbe565b92915050565b6000610433826104e4565b90506001600160a01b038116331461047b57604051632d938f5160e11b81526001600160a01b0382166004820152602481018390523360448201526064015b60405180910390fd5b6001600160a01b0383166104a257604051639577b8b360e01b815260040160405180910390fd5b826001600160a01b0316816001600160a01b0316036104d4576040516344fed6b160e11b815260040160405180910390fd5b6104df838284610c0c565b505050565b6000818152600360205260408120546001600160a01b03168061042257604051635747cd1b60e11b815260048101849052602401610472565b600061052882610cb6565b6105328383610cee565b9392505050565b606061054482610cb6565b600082815260056020526040902061042290610d37565b336105668185610cee565b6105ae576040517f1294d2a9000000000000000000000000000000000000000000000000000000008152600481018590526001600160a01b0382166024820152604401610472565b6105bb8686868686610d44565b505050505050565b606061042282610f24565b6001600160a01b038116600090815260046020526040812061042290610fc6565b6105f7610fd0565b6106016000610af7565b565b8451845181141580610616575083518114155b80610622575082518114155b8061062e575081518114155b15610665576040517f93a8311900000000000000000000000000000000000000000000000000000000815260040160405180910390fd5b60005b81811015610702576106fa87828151811061068557610685611ff8565b602002602001015187838151811061069f5761069f611ff8565b60200260200101518784815181106106b9576106b9611ff8565b60200260200101518785815181106106d3576106d3611ff8565b60200260200101518786815181106106ed576106ed611ff8565b602002602001015161055b565b600101610668565b50505050505050565b610713610fd0565b34156107325760405163f36ba73760e01b815260040160405180910390fd5b61073c8282611039565b5050565b610748610fd0565b34156107675760405163f36ba73760e01b815260040160405180910390fd5b80518251146107a2576040517f3bcc897900000000000000000000000000000000000000000000000000000000815260040160405180910390fd5b81516000036107dd576040517f97da5f9500000000000000000000000000000000000000000000000000000000815260040160405180910390fd5b60005b82518110156104df576108258382815181106107fe576107fe611ff8565b602002602001015183838151811061081857610818611ff8565b6020026020010151611039565b6001016107e0565b6001600160a01b038116600090815260046020526040902060609061042290610d37565b610859610fd0565b61086584848484611153565b50505050565b6000610876826104e4565b90506001600160a01b03811633146108b957604051632d938f5160e11b81526001600160a01b038216600482015260248101839052336044820152606401610472565b6001600160a01b0383166108e057604051639577b8b360e01b815260040160405180910390fd5b826001600160a01b0316816001600160a01b031603610912576040516344fed6b160e11b815260040160405180910390fd5b600082815260056020526040812061092a90856112b3565b905080610975576040517fa7626b680000000000000000000000000000000000000000000000000000000081526001600160a01b038516600482015260248101849052604401610472565b82826001600160a01b0316856001600160a01b03167f34b797fc5a526f7bf1d2b5de25f6564fd85ae364e3ee939aee7c1ac27871a98860405160405180910390a450505050565b6060815167ffffffffffffffff8111156109d8576109d86119c9565b604051908082528060200260200182016040528015610a0b57816020015b60608152602001906001900390816109f65790505b50905060005b8251811015610a6157610a3c838281518110610a2f57610a2f611ff8565b6020026020010151610f24565b828281518110610a4e57610a4e611ff8565b6020908102919091010152600101610a11565b50919050565b610a6f610fd0565b6001600160a01b038116610aeb5760405162461bcd60e51b815260206004820152602660248201527f4f776e61626c653a206e6577206f776e657220697320746865207a65726f206160448201527f64647265737300000000000000000000000000000000000000000000000000006064820152608401610472565b610af481610af7565b50565b6000546001600160a01b03828116911614610af457600080546001600160a01b0383811673ffffffffffffffffffffffffffffffffffffffff19831681178455604051919092169283917f8be0079c531659141344cd1fd0a4f28419497f9722a3daafe3b4186f6b6457e09190a35050565b6000828152600160205260409020610b818282612088565b50817fece574603820d07bc9b91f2a932baadf4628aabcb8afba49776529c14a6104b282604051610bb29190611b5f565b60405180910390a25050565b60006001600160e01b031982167f629aa69400000000000000000000000000000000000000000000000000000000148061042257506301ffc9a760e01b6001600160e01b0319831614610422565b6000818152600560205260408120610c2490856112c8565b905080610c6f576040517f4aa31a8c0000000000000000000000000000000000000000000000000000000081526001600160a01b038516600482015260248101839052604401610472565b81836001600160a01b0316856001600160a01b03167f17d5389f6ab6adb2647dfa0aa365c323d37adacc30b33a65310b6158ce1373d560405160405180910390a450505050565b6000818152600360205260409020546001600160a01b0316610af457604051635747cd1b60e11b815260048101829052602401610472565b600080610cfa836104e4565b9050806001600160a01b0316846001600160a01b03161480610d2f57506000838152600560205260409020610d2f90856112dd565b949350505050565b60606000610532836112ff565b836001600160a01b0316856001600160a01b031603610d8f576040517f5d67d6c100000000000000000000000000000000000000000000000000000000815260040160405180910390fd5b6000610d9a846104e4565b9050856001600160a01b0316816001600160a01b031614610de857604051632d938f5160e11b81526001600160a01b0380831660048301526024820186905287166044820152606401610472565b6001600160a01b038516610e0f576040516324ecef4d60e01b815260040160405180910390fd5b33610e1a878661135a565b6001600160a01b0387166000908152600460205260409020610e3c90866113a8565b506001600160a01b0386166000908152600460205260409020610e5f90866113b4565b5060008581526003602052604090819020805473ffffffffffffffffffffffffffffffffffffffff19166001600160a01b0389811691821790925591518792918a16907fb333c813a7426a7a11e2b190cad52c44119421594b47f6f32ace6d8c7207b2bf90610ed39086908a908a90612148565b60405180910390a4600087878786604051602001610ef4949392919061217b565b6040516020818303038152906040529050610f0f88826113c0565b610f1a87868361146b565b5050505050505050565b6000818152600160205260409020805460609190610f419061200e565b80601f0160208091040260200160405190810160405280929190818152602001828054610f6d9061200e565b8015610fba5780601f10610f8f57610100808354040283529160200191610fba565b820191906000526020600020905b815481529060010190602001808311610f9d57829003601f168201915b50505050509050919050565b6000610422825490565b33610fe36000546001600160a01b031690565b6001600160a01b0316146106015760405162461bcd60e51b815260206004820181905260248201527f4f776e61626c653a2063616c6c6572206973206e6f7420746865206f776e65726044820152606401610472565b7f2145e1d6d074577dc71ef54c3807742b41b053a9352ae6b491331509acb9750f8201611092576040517f85c169bd00000000000000000000000000000000000000000000000000000000815260040160405180910390fd5b7fd0f59754f88971fe6bc5a6618cc9d5f1e859c58d16b22d1c7b2d3e2b246cd8aa82016110eb576040517f76755b3800000000000000000000000000000000000000000000000000000000815260040160405180910390fd5b60008281526001602052604090206111038282612088565b50817fece574603820d07bc9b91f2a932baadf4628aabcb8afba49776529c14a6104b2610100835111156111445761113f8360006101006115a5565b611146565b825b604051610bb29190611b5f565b6001600160a01b03841661117a576040516324ecef4d60e01b815260040160405180910390fd5b6000838152600360205260409020546001600160a01b0316156111cc576040517f34c7b51100000000000000000000000000000000000000000000000000000000815260048101849052602401610472565b336001600260008282546111e091906121de565b90915550506001600160a01b038516600090815260046020526040902061120790856113b4565b50600084815260036020526040808220805473ffffffffffffffffffffffffffffffffffffffff19166001600160a01b03891690811790915590518692907fb333c813a7426a7a11e2b190cad52c44119421594b47f6f32ace6d8c7207b2bf9061127690869089908990612148565b60405180910390a4600080868685604051602001611297949392919061217b565b60405160208183030381529060405290506105bb86858361146b565b6000610532836001600160a01b0384166116cd565b6000610532836001600160a01b03841661171c565b6001600160a01b03811660009081526001830160205260408120541515610532565b606081600001805480602002602001604051908101604052809291908181526020018280548015610fba57602002820191906000526020600020905b81548152602001906001019080831161133b5750505050509050919050565b60008181526005602052604081209061137282610fc6565b905060005b818110156113a157600061138b848261180f565b9050611398818787610c0c565b50600101611377565b5050505050565b6000610532838361171c565b600061053283836116cd565b6113d182631aed5a8560e21b61181b565b1561073c57604051631aed5a8560e21b81526001600160a01b03831690636bb56a1490611424907fb23eae7e6d1564b295b4c3e3be402d9a2f0776c57bdf365903496f6fa481ab009085906004016121f6565b6000604051808303816000875af1158015611443573d6000803e3d6000fd5b505050506040513d6000823e601f3d908101601f191682016040526104df919081019061220f565b61147c83631aed5a8560e21b61181b565b1561151657604051631aed5a8560e21b81526001600160a01b03841690636bb56a14906114cf907f0b084a55ebf70fd3c06fd755269dac2212c4d3f0f4d09079780bfa50c1b2984d9085906004016121f6565b6000604051808303816000875af11580156114ee573d6000803e3d6000fd5b505050506040513d6000823e601f3d908101601f19168201604052610865919081019061220f565b816104df576001600160a01b0383163b15611568576040517f4349776d0000000000000000000000000000000000000000000000000000000081526001600160a01b0384166004820152602401610472565b6040517f031731370000000000000000000000000000000000000000000000000000000081526001600160a01b0384166004820152602401610472565b6060816115b381601f6121de565b10156116015760405162461bcd60e51b815260206004820152600e60248201527f736c6963655f6f766572666c6f770000000000000000000000000000000000006044820152606401610472565b61160b82846121de565b8451101561165b5760405162461bcd60e51b815260206004820152601160248201527f736c6963655f6f75744f66426f756e64730000000000000000000000000000006044820152606401610472565b60608215801561167a57604051915060008252602082016040526116c4565b6040519150601f8416801560200281840101858101878315602002848b0101015b818310156116b357805183526020928301920161169b565b5050858452601f01601f1916604052505b50949350505050565b600081815260018301602052604081205461171457508154600181810184556000848152602080822090930184905584548482528286019093526040902091909155610422565b506000610422565b6000818152600183016020526040812054801561180557600061174060018361227d565b85549091506000906117549060019061227d565b90508181146117b957600086600001828154811061177457611774611ff8565b906000526020600020015490508087600001848154811061179757611797611ff8565b6000918252602080832090910192909255918252600188019052604090208390555b85548690806117ca576117ca612294565b600190038181906000526020600020016000905590558560010160008681526020019081526020016000206000905560019350505050610422565b6000915050610422565b600061053283836118b9565b604080516001600160e01b03198316602480830191909152825180830390910181526044909101909152602080820180517bffffffffffffffffffffffffffffffffffffffffffffffffffffffff166301ffc9a760e01b178152825160009392849283928392918391908a617530fa92503d915060005190508280156118a2575060208210155b80156118ae5750600081115b979650505050505050565b60008260000182815481106118d0576118d0611ff8565b9060005260206000200154905092915050565b6000602082840312156118f557600080fd5b81356001600160e01b03198116811461053257600080fd5b80356001600160a01b038116811461192457600080fd5b919050565b6000806040838503121561193c57600080fd5b6119458361190d565b946020939093013593505050565b60006020828403121561196557600080fd5b5035919050565b6020808252825182820181905260009190848201906040850190845b818110156119ad5783516001600160a01b031683529284019291840191600101611988565b50909695505050505050565b8035801515811461192457600080fd5b634e487b7160e01b600052604160045260246000fd5b604051601f8201601f1916810167ffffffffffffffff81118282101715611a0857611a086119c9565b604052919050565b600067ffffffffffffffff821115611a2a57611a2a6119c9565b50601f01601f191660200190565b600082601f830112611a4957600080fd5b8135611a5c611a5782611a10565b6119df565b818152846020838601011115611a7157600080fd5b816020850160208301376000918101602001919091529392505050565b600080600080600060a08688031215611aa657600080fd5b611aaf8661190d565b9450611abd6020870161190d565b935060408601359250611ad2606087016119b9565b9150608086013567ffffffffffffffff811115611aee57600080fd5b611afa88828901611a38565b9150509295509295909350565b60005b83811015611b22578181015183820152602001611b0a565b838111156108655750506000910152565b60008151808452611b4b816020860160208601611b07565b601f01601f19169290920160200192915050565b6020815260006105326020830184611b33565b600060208284031215611b8457600080fd5b6105328261190d565b600067ffffffffffffffff821115611ba757611ba76119c9565b5060051b60200190565b600082601f830112611bc257600080fd5b81356020611bd2611a5783611b8d565b82815260059290921b84018101918181019086841115611bf157600080fd5b8286015b84811015611c1357611c068161190d565b8352918301918301611bf5565b509695505050505050565b600082601f830112611c2f57600080fd5b81356020611c3f611a5783611b8d565b82815260059290921b84018101918181019086841115611c5e57600080fd5b8286015b84811015611c135780358352918301918301611c62565b600082601f830112611c8a57600080fd5b81356020611c9a611a5783611b8d565b82815260059290921b84018101918181019086841115611cb957600080fd5b8286015b84811015611c1357611cce816119b9565b8352918301918301611cbd565b600082601f830112611cec57600080fd5b81356020611cfc611a5783611b8d565b82815260059290921b84018101918181019086841115611d1b57600080fd5b8286015b84811015611c1357803567ffffffffffffffff811115611d3f5760008081fd5b611d4d8986838b0101611a38565b845250918301918301611d1f565b600080600080600060a08688031215611d7357600080fd5b853567ffffffffffffffff80821115611d8b57600080fd5b611d9789838a01611bb1565b96506020880135915080821115611dad57600080fd5b611db989838a01611bb1565b95506040880135915080821115611dcf57600080fd5b611ddb89838a01611c1e565b94506060880135915080821115611df157600080fd5b611dfd89838a01611c79565b93506080880135915080821115611e1357600080fd5b50611afa88828901611cdb565b60008060408385031215611e3357600080fd5b82359150602083013567ffffffffffffffff811115611e5157600080fd5b611e5d85828601611a38565b9150509250929050565b60008060408385031215611e7a57600080fd5b823567ffffffffffffffff80821115611e9257600080fd5b611e9e86838701611c1e565b93506020850135915080821115611eb457600080fd5b50611e5d85828601611cdb565b6020808252825182820181905260009190848201906040850190845b818110156119ad57835183529284019291840191600101611edd565b60008060008060808587031215611f0f57600080fd5b611f188561190d565b935060208501359250611f2d604086016119b9565b9150606085013567ffffffffffffffff811115611f4957600080fd5b611f5587828801611a38565b91505092959194509250565b600060208284031215611f7357600080fd5b813567ffffffffffffffff811115611f8a57600080fd5b610d2f84828501611c1e565b6000602080830181845280855180835260408601915060408160051b870101925083870160005b82811015611feb57603f19888603018452611fd9858351611b33565b94509285019290850190600101611fbd565b5092979650505050505050565b634e487b7160e01b600052603260045260246000fd5b600181811c9082168061202257607f821691505b602082108103610a6157634e487b7160e01b600052602260045260246000fd5b601f8211156104df57600081815260208120601f850160051c810160208610156120695750805b601f850160051c820191505b818110156105bb57828155600101612075565b815167ffffffffffffffff8111156120a2576120a26119c9565b6120b6816120b0845461200e565b84612042565b602080601f8311600181146120eb57600084156120d35750858301515b600019600386901b1c1916600185901b1785556105bb565b600085815260208120601f198616915b8281101561211a578886015182559484019460019091019084016120fb565b50858210156121385787850151600019600388901b60f8161c191681555b5050505050600190811b01905550565b6001600160a01b038416815282151560208201526060604082015260006121726060830184611b33565b95945050505050565b60006bffffffffffffffffffffffff19808760601b168352808660601b1660148401525083602883015282516121b8816048850160208701611b07565b9190910160480195945050505050565b634e487b7160e01b600052601160045260246000fd5b600082198211156121f1576121f16121c8565b500190565b828152604060208201526000610d2f6040830184611b33565b60006020828403121561222157600080fd5b815167ffffffffffffffff81111561223857600080fd5b8201601f8101841361224957600080fd5b8051612257611a5782611a10565b81815285602083850101111561226c57600080fd5b612172826020830160208601611b07565b60008282101561228f5761228f6121c8565b500390565b634e487b7160e01b600052603160045260246000fdfea2646970667358221220af744355f56b4c259a89295398bf8f27abbc6bb772a178721cb47df8960537e064736f6c634300080f0033",
  "linkReferences": {},
  "deployedLinkReferences": {}
}