{
  "_format": "hh-sol-artifact-1",
  "contractName": "LSP8MintableInit",
  "sourceName": "contracts/LSP8IdentifiableDigitalAsset/presets/LSP8MintableInit.sol",
  "abi": [
    {
      "inputs": [],
      "stateMutability": "nonpayable",
      "type": "constructor"
    },
    {
      "inputs": [],
      "name": "ERC725Y_DataKeysValuesEmptyArray",
      "type": "error"
    },
    {
      "inputs": [],
      "name": "ERC725Y_DataKeysValuesLengthMismatch",
      "type": "error"
    },
    {
      "inputs": [],
      "name": "ERC725Y_MsgValueDisallowed",
      "type": "error"
    },
    {
      "inputs": [],
      "name": "LSP4TokenNameNotEditable",
      "type": "error"
    },
    {
      "inputs": [],
      "name": "LSP4TokenSymbolNotEditable",
      "type": "error"
    },
    {
      "inputs": [],
      "name": "LSP8CannotSendToAddressZero",
      "type": "error"
    },
    {
      "inputs": [],
      "name": "LSP8CannotSendToSelf",
      "type": "error"
    },
    {
      "inputs": [],
      "name": "LSP8CannotUseAddressZeroAsOperator",
      "type": "error"
    },
    {
      "inputs": [],
      "name": "LSP8InvalidTransferBatch",
      "type": "error"
    },
    {
      "inputs": [
        {
          "internalType": "bytes32",
          "name": "tokenId",
          "type": "bytes32"
        }
      ],
      "name": "LSP8NonExistentTokenId",
      "type": "error"
    },
    {
      "inputs": [
        {
          "internalType": "address",
          "name": "operator",
          "type": "address"
        },
        {
          "internalType": "bytes32",
          "name": "tokenId",
          "type": "bytes32"
        }
      ],
      "name": "LSP8NonExistingOperator",
      "type": "error"
    },
    {
      "inputs": [
        {
          "internalType": "bytes32",
          "name": "tokenId",
          "type": "bytes32"
        },
        {
          "internalType": "address",
          "name": "caller",
          "type": "address"
        }
      ],
      "name": "LSP8NotTokenOperator",
      "type": "error"
    },
    {
      "inputs": [
        {
          "internalType": "address",
          "name": "tokenOwner",
          "type": "address"
        },
        {
          "internalType": "bytes32",
          "name": "tokenId",
          "type": "bytes32"
        },
        {
          "internalType": "address",
          "name": "caller",
          "type": "address"
        }
      ],
      "name": "LSP8NotTokenOwner",
      "type": "error"
    },
    {
      "inputs": [
        {
          "internalType": "address",
          "name": "tokenReceiver",
          "type": "address"
        }
      ],
      "name": "LSP8NotifyTokenReceiverContractMissingLSP1Interface",
      "type": "error"
    },
    {
      "inputs": [
        {
          "internalType": "address",
          "name": "tokenReceiver",
          "type": "address"
        }
      ],
      "name": "LSP8NotifyTokenReceiverIsEOA",
      "type": "error"
    },
    {
      "inputs": [
        {
          "internalType": "address",
          "name": "operator",
          "type": "address"
        },
        {
          "internalType": "bytes32",
          "name": "tokenId",
          "type": "bytes32"
        }
      ],
      "name": "LSP8OperatorAlreadyAuthorized",
      "type": "error"
    },
    {
      "inputs": [
        {
          "internalType": "bytes32",
          "name": "tokenId",
          "type": "bytes32"
        }
      ],
      "name": "LSP8TokenIdAlreadyMinted",
      "type": "error"
    },
    {
      "inputs": [],
      "name": "LSP8TokenOwnerCannotBeOperator",
      "type": "error"
    },
    {
      "anonymous": false,
      "inputs": [
        {
          "indexed": true,
          "internalType": "address",
          "name": "operator",
          "type": "address"
        },
        {
          "indexed": true,
          "internalType": "address",
          "name": "tokenOwner",
          "type": "address"
        },
        {
          "indexed": true,
          "internalType": "bytes32",
          "name": "tokenId",
          "type": "bytes32"
        }
      ],
      "name": "AuthorizedOperator",
      "type": "event"
    },
    {
      "anonymous": false,
      "inputs": [
        {
          "indexed": true,
          "internalType": "bytes32",
          "name": "dataKey",
          "type": "bytes32"
        },
        {
          "indexed": false,
          "internalType": "bytes",
          "name": "dataValue",
          "type": "bytes"
        }
      ],
      "name": "DataChanged",
      "type": "event"
    },
    {
      "anonymous": false,
      "inputs": [
        {
          "indexed": false,
          "internalType": "uint8",
          "name": "version",
          "type": "uint8"
        }
      ],
      "name": "Initialized",
      "type": "event"
    },
    {
      "anonymous": false,
      "inputs": [
        {
          "indexed": true,
          "internalType": "address",
          "name": "previousOwner",
          "type": "address"
        },
        {
          "indexed": true,
          "internalType": "address",
          "name": "newOwner",
          "type": "address"
        }
      ],
      "name": "OwnershipTransferred",
      "type": "event"
    },
    {
      "anonymous": false,
      "inputs": [
        {
          "indexed": true,
          "internalType": "address",
          "name": "operator",
          "type": "address"
        },
        {
          "indexed": true,
          "internalType": "address",
          "name": "tokenOwner",
          "type": "address"
        },
        {
          "indexed": true,
          "internalType": "bytes32",
          "name": "tokenId",
          "type": "bytes32"
        }
      ],
      "name": "RevokedOperator",
      "type": "event"
    },
    {
      "anonymous": false,
      "inputs": [
        {
          "indexed": false,
          "internalType": "address",
          "name": "operator",
          "type": "address"
        },
        {
          "indexed": true,
          "internalType": "address",
          "name": "from",
          "type": "address"
        },
        {
          "indexed": true,
          "internalType": "address",
          "name": "to",
          "type": "address"
        },
        {
          "indexed": true,
          "internalType": "bytes32",
          "name": "tokenId",
          "type": "bytes32"
        },
        {
          "indexed": false,
          "internalType": "bool",
          "name": "allowNonLSP1Recipient",
          "type": "bool"
        },
        {
          "indexed": false,
          "internalType": "bytes",
          "name": "data",
          "type": "bytes"
        }
      ],
      "name": "Transfer",
      "type": "event"
    },
    {
      "inputs": [
        {
          "internalType": "address",
          "name": "operator",
          "type": "address"
        },
        {
          "internalType": "bytes32",
          "name": "tokenId",
          "type": "bytes32"
        }
      ],
      "name": "authorizeOperator",
      "outputs": [],
      "stateMutability": "nonpayable",
      "type": "function"
    },
    {
      "inputs": [
        {
          "internalType": "address",
          "name": "tokenOwner",
          "type": "address"
        }
      ],
      "name": "balanceOf",
      "outputs": [
        {
          "internalType": "uint256",
          "name": "",
          "type": "uint256"
        }
      ],
      "stateMutability": "view",
      "type": "function"
    },
    {
      "inputs": [
        {
          "internalType": "bytes32",
          "name": "dataKey",
          "type": "bytes32"
        }
      ],
      "name": "getData",
      "outputs": [
        {
          "internalType": "bytes",
          "name": "dataValue",
          "type": "bytes"
        }
      ],
      "stateMutability": "view",
      "type": "function"
    },
    {
      "inputs": [
        {
          "internalType": "bytes32[]",
          "name": "dataKeys",
          "type": "bytes32[]"
        }
      ],
      "name": "getDataBatch",
      "outputs": [
        {
          "internalType": "bytes[]",
          "name": "dataValues",
          "type": "bytes[]"
        }
      ],
      "stateMutability": "view",
      "type": "function"
    },
    {
      "inputs": [
        {
          "internalType": "bytes32",
          "name": "tokenId",
          "type": "bytes32"
        }
      ],
      "name": "getOperatorsOf",
      "outputs": [
        {
          "internalType": "address[]",
          "name": "",
          "type": "address[]"
        }
      ],
      "stateMutability": "view",
      "type": "function"
    },
    {
      "inputs": [
        {
          "internalType": "string",
          "name": "name_",
          "type": "string"
        },
        {
          "internalType": "string",
          "name": "symbol_",
          "type": "string"
        },
        {
          "internalType": "address",
          "name": "newOwner_",
          "type": "address"
        }
      ],
      "name": "initialize",
      "outputs": [],
      "stateMutability": "nonpayable",
      "type": "function"
    },
    {
      "inputs": [
        {
          "internalType": "address",
          "name": "operator",
          "type": "address"
        },
        {
          "internalType": "bytes32",
          "name": "tokenId",
          "type": "bytes32"
        }
      ],
      "name": "isOperatorFor",
      "outputs": [
        {
          "internalType": "bool",
          "name": "",
          "type": "bool"
        }
      ],
      "stateMutability": "view",
      "type": "function"
    },
    {
      "inputs": [
        {
          "internalType": "address",
          "name": "to",
          "type": "address"
        },
        {
          "internalType": "bytes32",
          "name": "tokenId",
          "type": "bytes32"
        },
        {
          "internalType": "bool",
          "name": "allowNonLSP1Recipient",
          "type": "bool"
        },
        {
          "internalType": "bytes",
          "name": "data",
          "type": "bytes"
        }
      ],
      "name": "mint",
      "outputs": [],
      "stateMutability": "nonpayable",
      "type": "function"
    },
    {
      "inputs": [],
      "name": "owner",
      "outputs": [
        {
          "internalType": "address",
          "name": "",
          "type": "address"
        }
      ],
      "stateMutability": "view",
      "type": "function"
    },
    {
      "inputs": [],
      "name": "renounceOwnership",
      "outputs": [],
      "stateMutability": "nonpayable",
      "type": "function"
    },
    {
      "inputs": [
        {
          "internalType": "address",
          "name": "operator",
          "type": "address"
        },
        {
          "internalType": "bytes32",
          "name": "tokenId",
          "type": "bytes32"
        }
      ],
      "name": "revokeOperator",
      "outputs": [],
      "stateMutability": "nonpayable",
      "type": "function"
    },
    {
      "inputs": [
        {
          "internalType": "bytes32",
          "name": "dataKey",
          "type": "bytes32"
        },
        {
          "internalType": "bytes",
          "name": "dataValue",
          "type": "bytes"
        }
      ],
      "name": "setData",
      "outputs": [],
      "stateMutability": "payable",
      "type": "function"
    },
    {
      "inputs": [
        {
          "internalType": "bytes32[]",
          "name": "dataKeys",
          "type": "bytes32[]"
        },
        {
          "internalType": "bytes[]",
          "name": "dataValues",
          "type": "bytes[]"
        }
      ],
      "name": "setDataBatch",
      "outputs": [],
      "stateMutability": "payable",
      "type": "function"
    },
    {
      "inputs": [
        {
          "internalType": "bytes4",
          "name": "interfaceId",
          "type": "bytes4"
        }
      ],
      "name": "supportsInterface",
      "outputs": [
        {
          "internalType": "bool",
          "name": "",
          "type": "bool"
        }
      ],
      "stateMutability": "view",
      "type": "function"
    },
    {
      "inputs": [
        {
          "internalType": "address",
          "name": "tokenOwner",
          "type": "address"
        }
      ],
      "name": "tokenIdsOf",
      "outputs": [
        {
          "internalType": "bytes32[]",
          "name": "",
          "type": "bytes32[]"
        }
      ],
      "stateMutability": "view",
      "type": "function"
    },
    {
      "inputs": [
        {
          "internalType": "bytes32",
          "name": "tokenId",
          "type": "bytes32"
        }
      ],
      "name": "tokenOwnerOf",
      "outputs": [
        {
          "internalType": "address",
          "name": "",
          "type": "address"
        }
      ],
      "stateMutability": "view",
      "type": "function"
    },
    {
      "inputs": [],
      "name": "totalSupply",
      "outputs": [
        {
          "internalType": "uint256",
          "name": "",
          "type": "uint256"
        }
      ],
      "stateMutability": "view",
      "type": "function"
    },
    {
      "inputs": [
        {
          "internalType": "address",
          "name": "from",
          "type": "address"
        },
        {
          "internalType": "address",
          "name": "to",
          "type": "address"
        },
        {
          "internalType": "bytes32",
          "name": "tokenId",
          "type": "bytes32"
        },
        {
          "internalType": "bool",
          "name": "allowNonLSP1Recipient",
          "type": "bool"
        },
        {
          "internalType": "bytes",
          "name": "data",
          "type": "bytes"
        }
      ],
      "name": "transfer",
      "outputs": [],
      "stateMutability": "nonpayable",
      "type": "function"
    },
    {
      "inputs": [
        {
          "internalType": "address[]",
          "name": "from",
          "type": "address[]"
        },
        {
          "internalType": "address[]",
          "name": "to",
          "type": "address[]"
        },
        {
          "internalType": "bytes32[]",
          "name": "tokenId",
          "type": "bytes32[]"
        },
        {
          "internalType": "bool[]",
          "name": "allowNonLSP1Recipient",
          "type": "bool[]"
        },
        {
          "internalType": "bytes[]",
          "name": "data",
          "type": "bytes[]"
        }
      ],
      "name": "transferBatch",
      "outputs": [],
      "stateMutability": "nonpayable",
      "type": "function"
    },
    {
      "inputs": [
        {
          "internalType": "address",
          "name": "newOwner",
          "type": "address"
        }
      ],
      "name": "transferOwnership",
      "outputs": [],
      "stateMutability": "nonpayable",
      "type": "function"
    }
  ],
  "bytecode": "0x60806040523480156200001157600080fd5b506200001c62000022565b620000e4565b600054610100900460ff16156200008f5760405162461bcd60e51b815260206004820152602760248201527f496e697469616c697a61626c653a20636f6e747261637420697320696e697469604482015266616c697a696e6760c81b606482015260840160405180910390fd5b60005460ff9081161015620000e2576000805460ff191660ff9081179091556040519081527f7f26b83ff96e1f2b6a682f133852f6798a09c465da95921460cefb38474024989060200160405180910390a15b565b61274880620000f46000396000f3fe60806040526004361061015f5760003560e01c8063715018a6116100c0578063a3b261f211610074578063cf5182ba11610059578063cf5182ba146103b8578063dedff9c6146103d8578063f2fde38b1461040557600080fd5b8063a3b261f21461036b578063af255b611461039857600080fd5b80637f23690c116100a55780637f23690c146103215780638da5cb5b14610334578063979024211461035857600080fd5b8063715018a6146102ec5780637e87632c1461030157600080fd5b80632a3654a411610117578063511b6952116100fc578063511b69521461027f57806354f6127f1461029f57806370a08231146102cc57600080fd5b80632a3654a41461023257806349a6078d1461025257600080fd5b80630b0c6d82116101485780630b0c6d82146101bb57806318160ddd146101db578063217b2270146101fa57600080fd5b806301ffc9a714610164578063077f224a14610199575b600080fd5b34801561017057600080fd5b5061018461017f366004611cd7565b610425565b60405190151581526020015b60405180910390f35b3480156101a557600080fd5b506101b96101b4366004611de2565b610469565b005b3480156101c757600080fd5b506101b96101d6366004611e56565b610594565b3480156101e757600080fd5b506002545b604051908152602001610190565b34801561020657600080fd5b5061021a610215366004611e80565b61064b565b6040516001600160a01b039091168152602001610190565b34801561023e57600080fd5b5061018461024d366004611e56565b610684565b34801561025e57600080fd5b5061027261026d366004611e80565b6106a0565b6040516101909190611e99565b34801561028b57600080fd5b506101b961029a366004611ef6565b6106c2565b3480156102ab57600080fd5b506102bf6102ba366004611e80565b61072a565b6040516101909190611fc7565b3480156102d857600080fd5b506101ec6102e7366004611fda565b610735565b3480156102f857600080fd5b506101b9610756565b34801561030d57600080fd5b506101b961031c3660046121c3565b61076a565b6101b961032f366004612288565b610872565b34801561034057600080fd5b506000546201000090046001600160a01b031661021a565b6101b96103663660046122cf565b6108a7565b34801561037757600080fd5b5061038b610386366004611fda565b610994565b6040516101909190612329565b3480156103a457600080fd5b506101b96103b3366004612361565b6109b8565b3480156103c457600080fd5b506101b96103d3366004611e56565b6109cc565b3480156103e457600080fd5b506103f86103f33660046123c9565b610b1d565b60405161019091906123fe565b34801561041157600080fd5b506101b9610420366004611fda565b610bc8565b60006001600160e01b031982167f622e7a01000000000000000000000000000000000000000000000000000000001480610463575061046382610c58565b92915050565b600054610100900460ff16158080156104895750600054600160ff909116105b806104a35750303b1580156104a3575060005460ff166001145b61051a5760405162461bcd60e51b815260206004820152602e60248201527f496e697469616c697a61626c653a20636f6e747261637420697320616c72656160448201527f647920696e697469616c697a656400000000000000000000000000000000000060648201526084015b60405180910390fd5b6000805460ff19166001179055801561053d576000805461ff0019166101001790555b610548848484610ca6565b801561058e576000805461ff0019169055604051600181527f7f26b83ff96e1f2b6a682f133852f6798a09c465da95921460cefb38474024989060200160405180910390a15b50505050565b600061059f8261064b565b90506001600160a01b03811633146105e257604051632d938f5160e11b81526001600160a01b038216600482015260248101839052336044820152606401610511565b6001600160a01b03831661060957604051639577b8b360e01b815260040160405180910390fd5b826001600160a01b0316816001600160a01b03160361063b576040516344fed6b160e11b815260040160405180910390fd5b610646838284610d1c565b505050565b6000818152600360205260408120546001600160a01b03168061046357604051635747cd1b60e11b815260048101849052602401610511565b600061068f82610dc6565b6106998383610dfe565b9392505050565b60606106ab82610dc6565b600082815260056020526040902061046390610e47565b336106cd8185610dfe565b610715576040517f1294d2a9000000000000000000000000000000000000000000000000000000008152600481018590526001600160a01b0382166024820152604401610511565b6107228686868686610e54565b505050505050565b606061046382611034565b6001600160a01b0381166000908152600460205260408120610463906110d6565b61075e6110e0565b6107686000611141565b565b845184518114158061077d575083518114155b80610789575082518114155b80610795575081518114155b156107cc576040517f93a8311900000000000000000000000000000000000000000000000000000000815260040160405180910390fd5b60005b81811015610869576108618782815181106107ec576107ec612460565b602002602001015187838151811061080657610806612460565b602002602001015187848151811061082057610820612460565b602002602001015187858151811061083a5761083a612460565b602002602001015187868151811061085457610854612460565b60200260200101516106c2565b6001016107cf565b50505050505050565b61087a6110e0565b34156108995760405163f36ba73760e01b815260040160405180910390fd5b6108a382826111cd565b5050565b6108af6110e0565b34156108ce5760405163f36ba73760e01b815260040160405180910390fd5b8051825114610909576040517f3bcc897900000000000000000000000000000000000000000000000000000000815260040160405180910390fd5b8151600003610944576040517f97da5f9500000000000000000000000000000000000000000000000000000000815260040160405180910390fd5b60005b82518110156106465761098c83828151811061096557610965612460565b602002602001015183838151811061097f5761097f612460565b60200260200101516111cd565b600101610947565b6001600160a01b038116600090815260046020526040902060609061046390610e47565b6109c06110e0565b61058e848484846112f3565b60006109d78261064b565b90506001600160a01b0381163314610a1a57604051632d938f5160e11b81526001600160a01b038216600482015260248101839052336044820152606401610511565b6001600160a01b038316610a4157604051639577b8b360e01b815260040160405180910390fd5b826001600160a01b0316816001600160a01b031603610a73576040516344fed6b160e11b815260040160405180910390fd5b6000828152600560205260408120610a8b9085611453565b905080610ad6576040517fa7626b680000000000000000000000000000000000000000000000000000000081526001600160a01b038516600482015260248101849052604401610511565b82826001600160a01b0316856001600160a01b03167f34b797fc5a526f7bf1d2b5de25f6564fd85ae364e3ee939aee7c1ac27871a98860405160405180910390a450505050565b6060815167ffffffffffffffff811115610b3957610b39611d01565b604051908082528060200260200182016040528015610b6c57816020015b6060815260200190600190039081610b575790505b50905060005b8251811015610bc257610b9d838281518110610b9057610b90612460565b6020026020010151611034565b828281518110610baf57610baf612460565b6020908102919091010152600101610b72565b50919050565b610bd06110e0565b6001600160a01b038116610c4c5760405162461bcd60e51b815260206004820152602660248201527f4f776e61626c653a206e6577206f776e657220697320746865207a65726f206160448201527f64647265737300000000000000000000000000000000000000000000000000006064820152608401610511565b610c5581611141565b50565b60006001600160e01b031982167f629aa69400000000000000000000000000000000000000000000000000000000148061046357506301ffc9a760e01b6001600160e01b0319831614610463565b600054610100900460ff16610d115760405162461bcd60e51b815260206004820152602b60248201527f496e697469616c697a61626c653a20636f6e7472616374206973206e6f74206960448201526a6e697469616c697a696e6760a81b6064820152608401610511565b610646838383611468565b6000818152600560205260408120610d3490856114de565b905080610d7f576040517f4aa31a8c0000000000000000000000000000000000000000000000000000000081526001600160a01b038516600482015260248101839052604401610511565b81836001600160a01b0316856001600160a01b03167f17d5389f6ab6adb2647dfa0aa365c323d37adacc30b33a65310b6158ce1373d560405160405180910390a450505050565b6000818152600360205260409020546001600160a01b0316610c5557604051635747cd1b60e11b815260048101829052602401610511565b600080610e0a8361064b565b9050806001600160a01b0316846001600160a01b03161480610e3f57506000838152600560205260409020610e3f90856114f3565b949350505050565b6060600061069983611515565b836001600160a01b0316856001600160a01b031603610e9f576040517f5d67d6c100000000000000000000000000000000000000000000000000000000815260040160405180910390fd5b6000610eaa8461064b565b9050856001600160a01b0316816001600160a01b031614610ef857604051632d938f5160e11b81526001600160a01b0380831660048301526024820186905287166044820152606401610511565b6001600160a01b038516610f1f576040516324ecef4d60e01b815260040160405180910390fd5b33610f2a8786611570565b6001600160a01b0387166000908152600460205260409020610f4c90866115be565b506001600160a01b0386166000908152600460205260409020610f6f90866115ca565b5060008581526003602052604090819020805473ffffffffffffffffffffffffffffffffffffffff19166001600160a01b0389811691821790925591518792918a16907fb333c813a7426a7a11e2b190cad52c44119421594b47f6f32ace6d8c7207b2bf90610fe39086908a908a90612476565b60405180910390a460008787878660405160200161100494939291906124a9565b604051602081830303815290604052905061101f88826115d6565b61102a878683611681565b5050505050505050565b6000818152600160205260409020805460609190611051906124f6565b80601f016020809104026020016040519081016040528092919081815260200182805461107d906124f6565b80156110ca5780601f1061109f576101008083540402835291602001916110ca565b820191906000526020600020905b8154815290600101906020018083116110ad57829003601f168201915b50505050509050919050565b6000610463825490565b6000546001600160a01b03620100009091041633146107685760405162461bcd60e51b815260206004820181905260248201527f4f776e61626c653a2063616c6c6572206973206e6f7420746865206f776e65726044820152606401610511565b6000546001600160a01b03828116620100009092041614610c5557600080546001600160a01b03838116620100008181027fffffffffffffffffffff0000000000000000000000000000000000000000ffff851617855560405193049190911692909183917f8be0079c531659141344cd1fd0a4f28419497f9722a3daafe3b4186f6b6457e091a35050565b7f2145e1d6d074577dc71ef54c3807742b41b053a9352ae6b491331509acb9750f8201611226576040517f85c169bd00000000000000000000000000000000000000000000000000000000815260040160405180910390fd5b7fd0f59754f88971fe6bc5a6618cc9d5f1e859c58d16b22d1c7b2d3e2b246cd8aa820161127f576040517f76755b3800000000000000000000000000000000000000000000000000000000815260040160405180910390fd5b60008281526001602052604090206112978282612570565b50817fece574603820d07bc9b91f2a932baadf4628aabcb8afba49776529c14a6104b2610100835111156112d8576112d38360006101006117bb565b6112da565b825b6040516112e79190611fc7565b60405180910390a25050565b6001600160a01b03841661131a576040516324ecef4d60e01b815260040160405180910390fd5b6000838152600360205260409020546001600160a01b03161561136c576040517f34c7b51100000000000000000000000000000000000000000000000000000000815260048101849052602401610511565b336001600260008282546113809190612646565b90915550506001600160a01b03851660009081526004602052604090206113a790856115ca565b50600084815260036020526040808220805473ffffffffffffffffffffffffffffffffffffffff19166001600160a01b03891690811790915590518692907fb333c813a7426a7a11e2b190cad52c44119421594b47f6f32ace6d8c7207b2bf9061141690869089908990612476565b60405180910390a460008086868560405160200161143794939291906124a9565b6040516020818303038152906040529050610722868583611681565b6000610699836001600160a01b0384166118e3565b600054610100900460ff166114d35760405162461bcd60e51b815260206004820152602b60248201527f496e697469616c697a61626c653a20636f6e7472616374206973206e6f74206960448201526a6e697469616c697a696e6760a81b6064820152608401610511565b610646838383611932565b6000610699836001600160a01b038416611a5c565b6001600160a01b03811660009081526001830160205260408120541515610699565b6060816000018054806020026020016040519081016040528092919081815260200182805480156110ca57602002820191906000526020600020905b8154815260200190600101908083116115515750505050509050919050565b600081815260056020526040812090611588826110d6565b905060005b818110156115b75760006115a18482611b4f565b90506115ae818787610d1c565b5060010161158d565b5050505050565b60006106998383611a5c565b600061069983836118e3565b6115e782631aed5a8560e21b611b5b565b156108a357604051631aed5a8560e21b81526001600160a01b03831690636bb56a149061163a907fb23eae7e6d1564b295b4c3e3be402d9a2f0776c57bdf365903496f6fa481ab0090859060040161265e565b6000604051808303816000875af1158015611659573d6000803e3d6000fd5b505050506040513d6000823e601f3d908101601f191682016040526106469190810190612677565b61169283631aed5a8560e21b611b5b565b1561172c57604051631aed5a8560e21b81526001600160a01b03841690636bb56a14906116e5907f0b084a55ebf70fd3c06fd755269dac2212c4d3f0f4d09079780bfa50c1b2984d90859060040161265e565b6000604051808303816000875af1158015611704573d6000803e3d6000fd5b505050506040513d6000823e601f3d908101601f1916820160405261058e9190810190612677565b81610646576001600160a01b0383163b1561177e576040517f4349776d0000000000000000000000000000000000000000000000000000000081526001600160a01b0384166004820152602401610511565b6040517f031731370000000000000000000000000000000000000000000000000000000081526001600160a01b0384166004820152602401610511565b6060816117c981601f612646565b10156118175760405162461bcd60e51b815260206004820152600e60248201527f736c6963655f6f766572666c6f770000000000000000000000000000000000006044820152606401610511565b6118218284612646565b845110156118715760405162461bcd60e51b815260206004820152601160248201527f736c6963655f6f75744f66426f756e64730000000000000000000000000000006044820152606401610511565b60608215801561189057604051915060008252602082016040526118da565b6040519150601f8416801560200281840101858101878315602002848b0101015b818310156118c95780518352602092830192016118b1565b5050858452601f01601f1916604052505b50949350505050565b600081815260018301602052604081205461192a57508154600181810184556000848152602080822090930184905584548482528286019093526040902091909155610463565b506000610463565b600054610100900460ff1661199d5760405162461bcd60e51b815260206004820152602b60248201527f496e697469616c697a61626c653a20636f6e7472616374206973206e6f74206960448201526a6e697469616c697a696e6760a81b6064820152608401610511565b6119a681611bf9565b611a087feafec4d89fa9619884b60000a4d96624a38f7ac2d8d9a604ecf07c12c77e480c60001b6040518060400160405280600481526020017fa4d9662400000000000000000000000000000000000000000000000000000000815250611c64565b611a327fdeba1e292f8ba88238e10ab3c7f88bd4be4fac56cad5194b6ecceaf653468af184611c64565b6106467f2f0a68ab07768e01943a599e73362a0e17a63a72e94dd2e384d2c1d4db93275683611c64565b60008181526001830160205260408120548015611b45576000611a806001836126e5565b8554909150600090611a94906001906126e5565b9050818114611af9576000866000018281548110611ab457611ab4612460565b9060005260206000200154905080876000018481548110611ad757611ad7612460565b6000918252602080832090910192909255918252600188019052604090208390555b8554869080611b0a57611b0a6126fc565b600190038181906000526020600020016000905590558560010160008681526020019081526020016000206000905560019350505050610463565b6000915050610463565b60006106998383611cad565b604080516001600160e01b03198316602480830191909152825180830390910181526044909101909152602080820180517bffffffffffffffffffffffffffffffffffffffffffffffffffffffff166301ffc9a760e01b178152825160009392849283928392918391908a617530fa92503d91506000519050828015611be2575060208210155b8015611bee5750600081115b979650505050505050565b600054610100900460ff16610bd05760405162461bcd60e51b815260206004820152602b60248201527f496e697469616c697a61626c653a20636f6e7472616374206973206e6f74206960448201526a6e697469616c697a696e6760a81b6064820152608401610511565b6000828152600160205260409020611c7c8282612570565b50817fece574603820d07bc9b91f2a932baadf4628aabcb8afba49776529c14a6104b2826040516112e79190611fc7565b6000826000018281548110611cc457611cc4612460565b9060005260206000200154905092915050565b600060208284031215611ce957600080fd5b81356001600160e01b03198116811461069957600080fd5b634e487b7160e01b600052604160045260246000fd5b604051601f8201601f1916810167ffffffffffffffff81118282101715611d4057611d40611d01565b604052919050565b600067ffffffffffffffff821115611d6257611d62611d01565b50601f01601f191660200190565b600082601f830112611d8157600080fd5b8135611d94611d8f82611d48565b611d17565b818152846020838601011115611da957600080fd5b816020850160208301376000918101602001919091529392505050565b80356001600160a01b0381168114611ddd57600080fd5b919050565b600080600060608486031215611df757600080fd5b833567ffffffffffffffff80821115611e0f57600080fd5b611e1b87838801611d70565b94506020860135915080821115611e3157600080fd5b50611e3e86828701611d70565b925050611e4d60408501611dc6565b90509250925092565b60008060408385031215611e6957600080fd5b611e7283611dc6565b946020939093013593505050565b600060208284031215611e9257600080fd5b5035919050565b6020808252825182820181905260009190848201906040850190845b81811015611eda5783516001600160a01b031683529284019291840191600101611eb5565b50909695505050505050565b80358015158114611ddd57600080fd5b600080600080600060a08688031215611f0e57600080fd5b611f1786611dc6565b9450611f2560208701611dc6565b935060408601359250611f3a60608701611ee6565b9150608086013567ffffffffffffffff811115611f5657600080fd5b611f6288828901611d70565b9150509295509295909350565b60005b83811015611f8a578181015183820152602001611f72565b8381111561058e5750506000910152565b60008151808452611fb3816020860160208601611f6f565b601f01601f19169290920160200192915050565b6020815260006106996020830184611f9b565b600060208284031215611fec57600080fd5b61069982611dc6565b600067ffffffffffffffff82111561200f5761200f611d01565b5060051b60200190565b600082601f83011261202a57600080fd5b8135602061203a611d8f83611ff5565b82815260059290921b8401810191818101908684111561205957600080fd5b8286015b8481101561207b5761206e81611dc6565b835291830191830161205d565b509695505050505050565b600082601f83011261209757600080fd5b813560206120a7611d8f83611ff5565b82815260059290921b840181019181810190868411156120c657600080fd5b8286015b8481101561207b57803583529183019183016120ca565b600082601f8301126120f257600080fd5b81356020612102611d8f83611ff5565b82815260059290921b8401810191818101908684111561212157600080fd5b8286015b8481101561207b5761213681611ee6565b8352918301918301612125565b600082601f83011261215457600080fd5b81356020612164611d8f83611ff5565b82815260059290921b8401810191818101908684111561218357600080fd5b8286015b8481101561207b57803567ffffffffffffffff8111156121a75760008081fd5b6121b58986838b0101611d70565b845250918301918301612187565b600080600080600060a086880312156121db57600080fd5b853567ffffffffffffffff808211156121f357600080fd5b6121ff89838a01612019565b9650602088013591508082111561221557600080fd5b61222189838a01612019565b9550604088013591508082111561223757600080fd5b61224389838a01612086565b9450606088013591508082111561225957600080fd5b61226589838a016120e1565b9350608088013591508082111561227b57600080fd5b50611f6288828901612143565b6000806040838503121561229b57600080fd5b82359150602083013567ffffffffffffffff8111156122b957600080fd5b6122c585828601611d70565b9150509250929050565b600080604083850312156122e257600080fd5b823567ffffffffffffffff808211156122fa57600080fd5b61230686838701612086565b9350602085013591508082111561231c57600080fd5b506122c585828601612143565b6020808252825182820181905260009190848201906040850190845b81811015611eda57835183529284019291840191600101612345565b6000806000806080858703121561237757600080fd5b61238085611dc6565b93506020850135925061239560408601611ee6565b9150606085013567ffffffffffffffff8111156123b157600080fd5b6123bd87828801611d70565b91505092959194509250565b6000602082840312156123db57600080fd5b813567ffffffffffffffff8111156123f257600080fd5b610e3f84828501612086565b6000602080830181845280855180835260408601915060408160051b870101925083870160005b8281101561245357603f19888603018452612441858351611f9b565b94509285019290850190600101612425565b5092979650505050505050565b634e487b7160e01b600052603260045260246000fd5b6001600160a01b038416815282151560208201526060604082015260006124a06060830184611f9b565b95945050505050565b60006bffffffffffffffffffffffff19808760601b168352808660601b1660148401525083602883015282516124e6816048850160208701611f6f565b9190910160480195945050505050565b600181811c9082168061250a57607f821691505b602082108103610bc257634e487b7160e01b600052602260045260246000fd5b601f82111561064657600081815260208120601f850160051c810160208610156125515750805b601f850160051c820191505b818110156107225782815560010161255d565b815167ffffffffffffffff81111561258a5761258a611d01565b61259e8161259884546124f6565b8461252a565b602080601f8311600181146125d357600084156125bb5750858301515b600019600386901b1c1916600185901b178555610722565b600085815260208120601f198616915b82811015612602578886015182559484019460019091019084016125e3565b50858210156126205787850151600019600388901b60f8161c191681555b5050505050600190811b01905550565b634e487b7160e01b600052601160045260246000fd5b6000821982111561265957612659612630565b500190565b828152604060208201526000610e3f6040830184611f9b565b60006020828403121561268957600080fd5b815167ffffffffffffffff8111156126a057600080fd5b8201601f810184136126b157600080fd5b80516126bf611d8f82611d48565b8181528560208385010111156126d457600080fd5b6124a0826020830160208601611f6f565b6000828210156126f7576126f7612630565b500390565b634e487b7160e01b600052603160045260246000fdfea2646970667358221220b898eb435edb1ad9971dc267840b0adeda864f0265a714949e4613febdbaeec064736f6c634300080f0033",
  "linkReferences": {},
  "deployedLinkReferences": {}
}