{
  "_format": "hh-sol-artifact-1",
  "contractName": "LSP8CompatibleERC721MintableInit",
  "sourceName": "contracts/LSP8IdentifiableDigitalAsset/presets/LSP8CompatibleERC721MintableInit.sol",
  "abi": [
    {
      "inputs": [],
      "stateMutability": "nonpayable",
      "type": "constructor"
    },
    {
      "inputs": [],
      "name": "ERC725Y_DataKeysValuesEmptyArray",
      "type": "error"
    },
    {
      "inputs": [],
      "name": "ERC725Y_DataKeysValuesLengthMismatch",
      "type": "error"
    },
    {
      "inputs": [],
      "name": "ERC725Y_MsgValueDisallowed",
      "type": "error"
    },
    {
      "inputs": [],
      "name": "LSP4TokenNameNotEditable",
      "type": "error"
    },
    {
      "inputs": [],
      "name": "LSP4TokenSymbolNotEditable",
      "type": "error"
    },
    {
      "inputs": [],
      "name": "LSP8CannotSendToAddressZero",
      "type": "error"
    },
    {
      "inputs": [],
      "name": "LSP8CannotSendToSelf",
      "type": "error"
    },
    {
      "inputs": [],
      "name": "LSP8CannotUseAddressZeroAsOperator",
      "type": "error"
    },
    {
      "inputs": [],
      "name": "LSP8InvalidTransferBatch",
      "type": "error"
    },
    {
      "inputs": [
        {
          "internalType": "bytes32",
          "name": "tokenId",
          "type": "bytes32"
        }
      ],
      "name": "LSP8NonExistentTokenId",
      "type": "error"
    },
    {
      "inputs": [
        {
          "internalType": "address",
          "name": "operator",
          "type": "address"
        },
        {
          "internalType": "bytes32",
          "name": "tokenId",
          "type": "bytes32"
        }
      ],
      "name": "LSP8NonExistingOperator",
      "type": "error"
    },
    {
      "inputs": [
        {
          "internalType": "bytes32",
          "name": "tokenId",
          "type": "bytes32"
        },
        {
          "internalType": "address",
          "name": "caller",
          "type": "address"
        }
      ],
      "name": "LSP8NotTokenOperator",
      "type": "error"
    },
    {
      "inputs": [
        {
          "internalType": "address",
          "name": "tokenOwner",
          "type": "address"
        },
        {
          "internalType": "bytes32",
          "name": "tokenId",
          "type": "bytes32"
        },
        {
          "internalType": "address",
          "name": "caller",
          "type": "address"
        }
      ],
      "name": "LSP8NotTokenOwner",
      "type": "error"
    },
    {
      "inputs": [
        {
          "internalType": "address",
          "name": "tokenReceiver",
          "type": "address"
        }
      ],
      "name": "LSP8NotifyTokenReceiverContractMissingLSP1Interface",
      "type": "error"
    },
    {
      "inputs": [
        {
          "internalType": "address",
          "name": "tokenReceiver",
          "type": "address"
        }
      ],
      "name": "LSP8NotifyTokenReceiverIsEOA",
      "type": "error"
    },
    {
      "inputs": [
        {
          "internalType": "address",
          "name": "operator",
          "type": "address"
        },
        {
          "internalType": "bytes32",
          "name": "tokenId",
          "type": "bytes32"
        }
      ],
      "name": "LSP8OperatorAlreadyAuthorized",
      "type": "error"
    },
    {
      "inputs": [
        {
          "internalType": "bytes32",
          "name": "tokenId",
          "type": "bytes32"
        }
      ],
      "name": "LSP8TokenIdAlreadyMinted",
      "type": "error"
    },
    {
      "inputs": [],
      "name": "LSP8TokenOwnerCannotBeOperator",
      "type": "error"
    },
    {
      "anonymous": false,
      "inputs": [
        {
          "indexed": true,
          "internalType": "address",
          "name": "owner",
          "type": "address"
        },
        {
          "indexed": true,
          "internalType": "address",
          "name": "approved",
          "type": "address"
        },
        {
          "indexed": true,
          "internalType": "uint256",
          "name": "tokenId",
          "type": "uint256"
        }
      ],
      "name": "Approval",
      "type": "event"
    },
    {
      "anonymous": false,
      "inputs": [
        {
          "indexed": true,
          "internalType": "address",
          "name": "owner",
          "type": "address"
        },
        {
          "indexed": true,
          "internalType": "address",
          "name": "operator",
          "type": "address"
        },
        {
          "indexed": false,
          "internalType": "bool",
          "name": "approved",
          "type": "bool"
        }
      ],
      "name": "ApprovalForAll",
      "type": "event"
    },
    {
      "anonymous": false,
      "inputs": [
        {
          "indexed": true,
          "internalType": "address",
          "name": "operator",
          "type": "address"
        },
        {
          "indexed": true,
          "internalType": "address",
          "name": "tokenOwner",
          "type": "address"
        },
        {
          "indexed": true,
          "internalType": "bytes32",
          "name": "tokenId",
          "type": "bytes32"
        }
      ],
      "name": "AuthorizedOperator",
      "type": "event"
    },
    {
      "anonymous": false,
      "inputs": [
        {
          "indexed": true,
          "internalType": "bytes32",
          "name": "dataKey",
          "type": "bytes32"
        },
        {
          "indexed": false,
          "internalType": "bytes",
          "name": "dataValue",
          "type": "bytes"
        }
      ],
      "name": "DataChanged",
      "type": "event"
    },
    {
      "anonymous": false,
      "inputs": [
        {
          "indexed": false,
          "internalType": "uint8",
          "name": "version",
          "type": "uint8"
        }
      ],
      "name": "Initialized",
      "type": "event"
    },
    {
      "anonymous": false,
      "inputs": [
        {
          "indexed": true,
          "internalType": "address",
          "name": "previousOwner",
          "type": "address"
        },
        {
          "indexed": true,
          "internalType": "address",
          "name": "newOwner",
          "type": "address"
        }
      ],
      "name": "OwnershipTransferred",
      "type": "event"
    },
    {
      "anonymous": false,
      "inputs": [
        {
          "indexed": true,
          "internalType": "address",
          "name": "operator",
          "type": "address"
        },
        {
          "indexed": true,
          "internalType": "address",
          "name": "tokenOwner",
          "type": "address"
        },
        {
          "indexed": true,
          "internalType": "bytes32",
          "name": "tokenId",
          "type": "bytes32"
        }
      ],
      "name": "RevokedOperator",
      "type": "event"
    },
    {
      "anonymous": false,
      "inputs": [
        {
          "indexed": true,
          "internalType": "address",
          "name": "from",
          "type": "address"
        },
        {
          "indexed": true,
          "internalType": "address",
          "name": "to",
          "type": "address"
        },
        {
          "indexed": true,
          "internalType": "uint256",
          "name": "tokenId",
          "type": "uint256"
        }
      ],
      "name": "Transfer",
      "type": "event"
    },
    {
      "anonymous": false,
      "inputs": [
        {
          "indexed": false,
          "internalType": "address",
          "name": "operator",
          "type": "address"
        },
        {
          "indexed": true,
          "internalType": "address",
          "name": "from",
          "type": "address"
        },
        {
          "indexed": true,
          "internalType": "address",
          "name": "to",
          "type": "address"
        },
        {
          "indexed": true,
          "internalType": "bytes32",
          "name": "tokenId",
          "type": "bytes32"
        },
        {
          "indexed": false,
          "internalType": "bool",
          "name": "allowNonLSP1Recipient",
          "type": "bool"
        },
        {
          "indexed": false,
          "internalType": "bytes",
          "name": "data",
          "type": "bytes"
        }
      ],
      "name": "Transfer",
      "type": "event"
    },
    {
      "inputs": [
        {
          "internalType": "address",
          "name": "operator",
          "type": "address"
        },
        {
          "internalType": "uint256",
          "name": "tokenId",
          "type": "uint256"
        }
      ],
      "name": "approve",
      "outputs": [],
      "stateMutability": "nonpayable",
      "type": "function"
    },
    {
      "inputs": [
        {
          "internalType": "address",
          "name": "operator",
          "type": "address"
        },
        {
          "internalType": "bytes32",
          "name": "tokenId",
          "type": "bytes32"
        }
      ],
      "name": "authorizeOperator",
      "outputs": [],
      "stateMutability": "nonpayable",
      "type": "function"
    },
    {
      "inputs": [
        {
          "internalType": "address",
          "name": "tokenOwner",
          "type": "address"
        }
      ],
      "name": "balanceOf",
      "outputs": [
        {
          "internalType": "uint256",
          "name": "",
          "type": "uint256"
        }
      ],
      "stateMutability": "view",
      "type": "function"
    },
    {
      "inputs": [
        {
          "internalType": "uint256",
          "name": "tokenId",
          "type": "uint256"
        }
      ],
      "name": "getApproved",
      "outputs": [
        {
          "internalType": "address",
          "name": "",
          "type": "address"
        }
      ],
      "stateMutability": "view",
      "type": "function"
    },
    {
      "inputs": [
        {
          "internalType": "bytes32",
          "name": "dataKey",
          "type": "bytes32"
        }
      ],
      "name": "getData",
      "outputs": [
        {
          "internalType": "bytes",
          "name": "dataValue",
          "type": "bytes"
        }
      ],
      "stateMutability": "view",
      "type": "function"
    },
    {
      "inputs": [
        {
          "internalType": "bytes32[]",
          "name": "dataKeys",
          "type": "bytes32[]"
        }
      ],
      "name": "getDataBatch",
      "outputs": [
        {
          "internalType": "bytes[]",
          "name": "dataValues",
          "type": "bytes[]"
        }
      ],
      "stateMutability": "view",
      "type": "function"
    },
    {
      "inputs": [
        {
          "internalType": "bytes32",
          "name": "tokenId",
          "type": "bytes32"
        }
      ],
      "name": "getOperatorsOf",
      "outputs": [
        {
          "internalType": "address[]",
          "name": "",
          "type": "address[]"
        }
      ],
      "stateMutability": "view",
      "type": "function"
    },
    {
      "inputs": [
        {
          "internalType": "string",
          "name": "name_",
          "type": "string"
        },
        {
          "internalType": "string",
          "name": "symbol_",
          "type": "string"
        },
        {
          "internalType": "address",
          "name": "newOwner_",
          "type": "address"
        }
      ],
      "name": "initialize",
      "outputs": [],
      "stateMutability": "nonpayable",
      "type": "function"
    },
    {
      "inputs": [
        {
          "internalType": "address",
          "name": "tokenOwner",
          "type": "address"
        },
        {
          "internalType": "address",
          "name": "operator",
          "type": "address"
        }
      ],
      "name": "isApprovedForAll",
      "outputs": [
        {
          "internalType": "bool",
          "name": "",
          "type": "bool"
        }
      ],
      "stateMutability": "view",
      "type": "function"
    },
    {
      "inputs": [
        {
          "internalType": "address",
          "name": "operator",
          "type": "address"
        },
        {
          "internalType": "bytes32",
          "name": "tokenId",
          "type": "bytes32"
        }
      ],
      "name": "isOperatorFor",
      "outputs": [
        {
          "internalType": "bool",
          "name": "",
          "type": "bool"
        }
      ],
      "stateMutability": "view",
      "type": "function"
    },
    {
      "inputs": [
        {
          "internalType": "address",
          "name": "to",
          "type": "address"
        },
        {
          "internalType": "bytes32",
          "name": "tokenId",
          "type": "bytes32"
        },
        {
          "internalType": "bool",
          "name": "allowNonLSP1Recipient",
          "type": "bool"
        },
        {
          "internalType": "bytes",
          "name": "data",
          "type": "bytes"
        }
      ],
      "name": "mint",
      "outputs": [],
      "stateMutability": "nonpayable",
      "type": "function"
    },
    {
      "inputs": [],
      "name": "name",
      "outputs": [
        {
          "internalType": "string",
          "name": "",
          "type": "string"
        }
      ],
      "stateMutability": "view",
      "type": "function"
    },
    {
      "inputs": [],
      "name": "owner",
      "outputs": [
        {
          "internalType": "address",
          "name": "",
          "type": "address"
        }
      ],
      "stateMutability": "view",
      "type": "function"
    },
    {
      "inputs": [
        {
          "internalType": "uint256",
          "name": "tokenId",
          "type": "uint256"
        }
      ],
      "name": "ownerOf",
      "outputs": [
        {
          "internalType": "address",
          "name": "",
          "type": "address"
        }
      ],
      "stateMutability": "view",
      "type": "function"
    },
    {
      "inputs": [],
      "name": "renounceOwnership",
      "outputs": [],
      "stateMutability": "nonpayable",
      "type": "function"
    },
    {
      "inputs": [
        {
          "internalType": "address",
          "name": "operator",
          "type": "address"
        },
        {
          "internalType": "bytes32",
          "name": "tokenId",
          "type": "bytes32"
        }
      ],
      "name": "revokeOperator",
      "outputs": [],
      "stateMutability": "nonpayable",
      "type": "function"
    },
    {
      "inputs": [
        {
          "internalType": "address",
          "name": "from",
          "type": "address"
        },
        {
          "internalType": "address",
          "name": "to",
          "type": "address"
        },
        {
          "internalType": "uint256",
          "name": "tokenId",
          "type": "uint256"
        }
      ],
      "name": "safeTransferFrom",
      "outputs": [],
      "stateMutability": "nonpayable",
      "type": "function"
    },
    {
      "inputs": [
        {
          "internalType": "address",
          "name": "from",
          "type": "address"
        },
        {
          "internalType": "address",
          "name": "to",
          "type": "address"
        },
        {
          "internalType": "uint256",
          "name": "tokenId",
          "type": "uint256"
        },
        {
          "internalType": "bytes",
          "name": "data",
          "type": "bytes"
        }
      ],
      "name": "safeTransferFrom",
      "outputs": [],
      "stateMutability": "nonpayable",
      "type": "function"
    },
    {
      "inputs": [
        {
          "internalType": "address",
          "name": "operator",
          "type": "address"
        },
        {
          "internalType": "bool",
          "name": "approved",
          "type": "bool"
        }
      ],
      "name": "setApprovalForAll",
      "outputs": [],
      "stateMutability": "nonpayable",
      "type": "function"
    },
    {
      "inputs": [
        {
          "internalType": "bytes32",
          "name": "dataKey",
          "type": "bytes32"
        },
        {
          "internalType": "bytes",
          "name": "dataValue",
          "type": "bytes"
        }
      ],
      "name": "setData",
      "outputs": [],
      "stateMutability": "payable",
      "type": "function"
    },
    {
      "inputs": [
        {
          "internalType": "bytes32[]",
          "name": "dataKeys",
          "type": "bytes32[]"
        },
        {
          "internalType": "bytes[]",
          "name": "dataValues",
          "type": "bytes[]"
        }
      ],
      "name": "setDataBatch",
      "outputs": [],
      "stateMutability": "payable",
      "type": "function"
    },
    {
      "inputs": [
        {
          "internalType": "bytes4",
          "name": "interfaceId",
          "type": "bytes4"
        }
      ],
      "name": "supportsInterface",
      "outputs": [
        {
          "internalType": "bool",
          "name": "",
          "type": "bool"
        }
      ],
      "stateMutability": "view",
      "type": "function"
    },
    {
      "inputs": [],
      "name": "symbol",
      "outputs": [
        {
          "internalType": "string",
          "name": "",
          "type": "string"
        }
      ],
      "stateMutability": "view",
      "type": "function"
    },
    {
      "inputs": [
        {
          "internalType": "address",
          "name": "tokenOwner",
          "type": "address"
        }
      ],
      "name": "tokenIdsOf",
      "outputs": [
        {
          "internalType": "bytes32[]",
          "name": "",
          "type": "bytes32[]"
        }
      ],
      "stateMutability": "view",
      "type": "function"
    },
    {
      "inputs": [
        {
          "internalType": "bytes32",
          "name": "tokenId",
          "type": "bytes32"
        }
      ],
      "name": "tokenOwnerOf",
      "outputs": [
        {
          "internalType": "address",
          "name": "",
          "type": "address"
        }
      ],
      "stateMutability": "view",
      "type": "function"
    },
    {
      "inputs": [
        {
          "internalType": "uint256",
          "name": "",
          "type": "uint256"
        }
      ],
      "name": "tokenURI",
      "outputs": [
        {
          "internalType": "string",
          "name": "",
          "type": "string"
        }
      ],
      "stateMutability": "view",
      "type": "function"
    },
    {
      "inputs": [],
      "name": "totalSupply",
      "outputs": [
        {
          "internalType": "uint256",
          "name": "",
          "type": "uint256"
        }
      ],
      "stateMutability": "view",
      "type": "function"
    },
    {
      "inputs": [
        {
          "internalType": "address",
          "name": "from",
          "type": "address"
        },
        {
          "internalType": "address",
          "name": "to",
          "type": "address"
        },
        {
          "internalType": "bytes32",
          "name": "tokenId",
          "type": "bytes32"
        },
        {
          "internalType": "bool",
          "name": "allowNonLSP1Recipient",
          "type": "bool"
        },
        {
          "internalType": "bytes",
          "name": "data",
          "type": "bytes"
        }
      ],
      "name": "transfer",
      "outputs": [],
      "stateMutability": "nonpayable",
      "type": "function"
    },
    {
      "inputs": [
        {
          "internalType": "address[]",
          "name": "from",
          "type": "address[]"
        },
        {
          "internalType": "address[]",
          "name": "to",
          "type": "address[]"
        },
        {
          "internalType": "bytes32[]",
          "name": "tokenId",
          "type": "bytes32[]"
        },
        {
          "internalType": "bool[]",
          "name": "allowNonLSP1Recipient",
          "type": "bool[]"
        },
        {
          "internalType": "bytes[]",
          "name": "data",
          "type": "bytes[]"
        }
      ],
      "name": "transferBatch",
      "outputs": [],
      "stateMutability": "nonpayable",
      "type": "function"
    },
    {
      "inputs": [
        {
          "internalType": "address",
          "name": "from",
          "type": "address"
        },
        {
          "internalType": "address",
          "name": "to",
          "type": "address"
        },
        {
          "internalType": "uint256",
          "name": "tokenId",
          "type": "uint256"
        }
      ],
      "name": "transferFrom",
      "outputs": [],
      "stateMutability": "nonpayable",
      "type": "function"
    },
    {
      "inputs": [
        {
          "internalType": "address",
          "name": "newOwner",
          "type": "address"
        }
      ],
      "name": "transferOwnership",
      "outputs": [],
      "stateMutability": "nonpayable",
      "type": "function"
    }
  ],
  "bytecode": "0x60806040523480156200001157600080fd5b506200001c62000022565b620000e4565b600054610100900460ff16156200008f5760405162461bcd60e51b815260206004820152602760248201527f496e697469616c697a61626c653a20636f6e747261637420697320696e697469604482015266616c697a696e6760c81b606482015260840160405180910390fd5b60005460ff9081161015620000e2576000805460ff191660ff9081179091556040519081527f7f26b83ff96e1f2b6a682f133852f6798a09c465da95921460cefb38474024989060200160405180910390a15b565b6130ef80620000f46000396000f3fe6080604052600436106101d85760003560e01c806370a0823111610102578063a3b261f211610095578063cf5182ba11610064578063cf5182ba1461055b578063dedff9c61461057b578063e985e9c5146105a8578063f2fde38b146105f157600080fd5b8063a3b261f2146104ce578063af255b61146104fb578063b88d4fde1461051b578063c87b56dd1461053b57600080fd5b80638da5cb5b116100d15780638da5cb5b1461046257806395d89b4114610486578063979024211461049b578063a22cb465146104ae57600080fd5b806370a08231146103fa578063715018a61461041a5780637e87632c1461042f5780637f23690c1461044f57600080fd5b8063217b22701161017a57806349a6078d1161014957806349a6078d1461036d578063511b69521461039a57806354f6127f146103ba5780636352211e146103da57600080fd5b8063217b2270146102ed57806323b872dd1461030d5780632a3654a41461032d57806342842e0e1461034d57600080fd5b8063081812fc116101b6578063081812fc14610256578063095ea7b31461028e5780630b0c6d82146102ae57806318160ddd146102ce57600080fd5b806301ffc9a7146101dd57806306fdde0314610212578063077f224a14610234575b600080fd5b3480156101e957600080fd5b506101fd6101f8366004612552565b610611565b60405190151581526020015b60405180910390f35b34801561021e57600080fd5b50610227610689565b60405161020991906125c7565b34801561024057600080fd5b5061025461024f3660046126bb565b6106b6565b005b34801561026257600080fd5b5061027661027136600461272f565b6107e1565b6040516001600160a01b039091168152602001610209565b34801561029a57600080fd5b506102546102a9366004612748565b61083f565b3480156102ba57600080fd5b506102546102c9366004612748565b610896565b3480156102da57600080fd5b506002545b604051908152602001610209565b3480156102f957600080fd5b5061027661030836600461272f565b61094d565b34801561031957600080fd5b50610254610328366004612772565b610986565b34801561033957600080fd5b506101fd610348366004612748565b6109a6565b34801561035957600080fd5b50610254610368366004612772565b6109c2565b34801561037957600080fd5b5061038d61038836600461272f565b6109dd565b60405161020991906127ae565b3480156103a657600080fd5b506102546103b536600461280b565b6109ff565b3480156103c657600080fd5b506102276103d536600461272f565b610a4e565b3480156103e657600080fd5b506102766103f536600461272f565b610a59565b34801561040657600080fd5b506102df610415366004612884565b610a64565b34801561042657600080fd5b50610254610a85565b34801561043b57600080fd5b5061025461044a366004612a6d565b610a99565b61025461045d366004612b32565b610ba1565b34801561046e57600080fd5b506000546201000090046001600160a01b0316610276565b34801561049257600080fd5b50610227610bd6565b6102546104a9366004612b79565b610c03565b3480156104ba57600080fd5b506102546104c9366004612bd3565b610cf0565b3480156104da57600080fd5b506104ee6104e9366004612884565b610cfb565b6040516102099190612c06565b34801561050757600080fd5b50610254610516366004612c3e565b610d1f565b34801561052757600080fd5b50610254610536366004612ca6565b610d33565b34801561054757600080fd5b5061022761055636600461272f565b610d3f565b34801561056757600080fd5b50610254610576366004612748565b610d96565b34801561058757600080fd5b5061059b610596366004612cf6565b610da0565b6040516102099190612d2b565b3480156105b457600080fd5b506101fd6105c3366004612d8d565b6001600160a01b03918216600090815260076020908152604080832093909416825291909152205460ff1690565b3480156105fd57600080fd5b5061025461060c366004612884565b610e4b565b60006001600160e01b031982167f80ac58cd00000000000000000000000000000000000000000000000000000000148061067457506001600160e01b031982167f5b5e139f00000000000000000000000000000000000000000000000000000000145b80610683575061068382610edb565b92915050565b606060006106837fdeba1e292f8ba88238e10ab3c7f88bd4be4fac56cad5194b6ecceaf653468af1610f19565b600054610100900460ff16158080156106d65750600054600160ff909116105b806106f05750303b1580156106f0575060005460ff166001145b6107675760405162461bcd60e51b815260206004820152602e60248201527f496e697469616c697a61626c653a20636f6e747261637420697320616c72656160448201527f647920696e697469616c697a656400000000000000000000000000000000000060648201526084015b60405180910390fd5b6000805460ff19166001179055801561078a576000805461ff0019166101001790555b610795848484610fbb565b80156107db576000805461ff0019169055604051600181527f7f26b83ff96e1f2b6a682f133852f6798a09c465da95921460cefb38474024989060200160405180910390a15b50505050565b6000816107ed81611031565b60006107f8826109dd565b8051909150600081900361081157506000949350505050565b8161081d600183612dcd565b8151811061082d5761082d612de4565b60200260200101519350505050919050565b6108498282610d96565b806001600160a01b03831661085d8261094d565b6001600160a01b03167f8c5be1e5ebec7d5bd14f71427d1e84f3dd0314c0f7b2291e5b200ac8c7c3b92560405160405180910390a45050565b60006108a18261094d565b90506001600160a01b03811633146108e457604051632d938f5160e11b81526001600160a01b03821660048201526024810183905233604482015260640161075e565b6001600160a01b03831661090b57604051639577b8b360e01b815260040160405180910390fd5b826001600160a01b0316816001600160a01b03160361093d576040516344fed6b160e11b815260040160405180910390fd5b610948838284611069565b505050565b6000818152600360205260408120546001600160a01b03168061068357604051635747cd1b60e11b81526004810184905260240161075e565b61094883838360001b600160405180602001604052806000815250611113565b60006109b182611031565b6109bb83836111c7565b9392505050565b61094883838360405180602001604052806000815250611210565b60606109e882611031565b60008281526005602052604090206106839061129e565b33610a0a81856111c7565b610a3957604051631294d2a960e01b8152600481018590526001600160a01b038216602482015260440161075e565b610a468686868686611113565b505050505050565b606061068382610f19565b60006106838261094d565b6001600160a01b0381166000908152600460205260408120610683906112ab565b610a8d6112b5565b610a976000611316565b565b8451845181141580610aac575083518114155b80610ab8575082518114155b80610ac4575081518114155b15610afb576040517f93a8311900000000000000000000000000000000000000000000000000000000815260040160405180910390fd5b60005b81811015610b9857610b90878281518110610b1b57610b1b612de4565b6020026020010151878381518110610b3557610b35612de4565b6020026020010151878481518110610b4f57610b4f612de4565b6020026020010151878581518110610b6957610b69612de4565b6020026020010151878681518110610b8357610b83612de4565b60200260200101516109ff565b600101610afe565b50505050505050565b610ba96112b5565b3415610bc85760405163f36ba73760e01b815260040160405180910390fd5b610bd282826113a2565b5050565b606060006106837f2f0a68ab07768e01943a599e73362a0e17a63a72e94dd2e384d2c1d4db932756610f19565b610c0b6112b5565b3415610c2a5760405163f36ba73760e01b815260040160405180910390fd5b8051825114610c65576040517f3bcc897900000000000000000000000000000000000000000000000000000000815260040160405180910390fd5b8151600003610ca0576040517f97da5f9500000000000000000000000000000000000000000000000000000000815260040160405180910390fd5b60005b825181101561094857610ce8838281518110610cc157610cc1612de4565b6020026020010151838381518110610cdb57610cdb612de4565b60200260200101516113a2565b600101610ca3565b610bd23383836113ac565b6001600160a01b03811660009081526004602052604090206060906106839061129e565b610d276112b5565b6107db848484846114a0565b6107db84848484611210565b60606000610d6c7f9afb95cacc9f95858ec44aa8c3b685511002e30ae54415823f406128b85b238e610f19565b90506000602490506000610d8d8383848651610d889190612dcd565b6114e4565b95945050505050565b610849828261160c565b6060815167ffffffffffffffff811115610dbc57610dbc6125da565b604051908082528060200260200182016040528015610def57816020015b6060815260200190600190039081610dda5790505b50905060005b8251811015610e4557610e20838281518110610e1357610e13612de4565b6020026020010151610f19565b828281518110610e3257610e32612de4565b6020908102919091010152600101610df5565b50919050565b610e536112b5565b6001600160a01b038116610ecf5760405162461bcd60e51b815260206004820152602660248201527f4f776e61626c653a206e6577206f776e657220697320746865207a65726f206160448201527f6464726573730000000000000000000000000000000000000000000000000000606482015260840161075e565b610ed881611316565b50565b60006001600160e01b031982167f622e7a0100000000000000000000000000000000000000000000000000000000148061068357506106838261175d565b6000818152600160205260409020805460609190610f3690612dfa565b80601f0160208091040260200160405190810160405280929190818152602001828054610f6290612dfa565b8015610faf5780601f10610f8457610100808354040283529160200191610faf565b820191906000526020600020905b815481529060010190602001808311610f9257829003601f168201915b50505050509050919050565b600054610100900460ff166110265760405162461bcd60e51b815260206004820152602b60248201527f496e697469616c697a61626c653a20636f6e7472616374206973206e6f74206960448201526a6e697469616c697a696e6760a81b606482015260840161075e565b6109488383836117ab565b6000818152600360205260409020546001600160a01b0316610ed857604051635747cd1b60e11b81526004810182905260240161075e565b60008181526005602052604081206110819085611821565b9050806110cc576040517f4aa31a8c0000000000000000000000000000000000000000000000000000000081526001600160a01b03851660048201526024810183905260440161075e565b81836001600160a01b0316856001600160a01b03167f17d5389f6ab6adb2647dfa0aa365c323d37adacc30b33a65310b6158ce1373d560405160405180910390a450505050565b6001600160a01b03851660009081526007602090815260408083203380855292529091205460ff1615801561114f575061114d81856111c7565b155b1561117f57604051631294d2a960e01b8152600481018590526001600160a01b038216602482015260440161075e565b60405184906001600160a01b0380881691908916907fddf252ad1be2c89b69c2b068fc378daa952ba7f163c4a11628f55a4df523b3ef90600090a4610a468686868686611836565b6000806111d38361094d565b9050806001600160a01b0316846001600160a01b03161480611208575060008381526005602052604090206112089085611a16565b949350505050565b61121e848484600185611113565b61122a84848484611a38565b6107db576040805162461bcd60e51b81526020600482015260248101919091527f4c535038436f6d70617469626c654552433732313a207472616e73666572207460448201527f6f206e6f6e20455243373231526563656976657220696d706c656d656e746572606482015260840161075e565b606060006109bb83611b91565b6000610683825490565b6000546001600160a01b0362010000909104163314610a975760405162461bcd60e51b815260206004820181905260248201527f4f776e61626c653a2063616c6c6572206973206e6f7420746865206f776e6572604482015260640161075e565b6000546001600160a01b03828116620100009092041614610ed857600080546001600160a01b03838116620100008181027fffffffffffffffffffff0000000000000000000000000000000000000000ffff851617855560405193049190911692909183917f8be0079c531659141344cd1fd0a4f28419497f9722a3daafe3b4186f6b6457e091a35050565b610bd28282611bec565b816001600160a01b0316836001600160a01b0316036114335760405162461bcd60e51b815260206004820152602760248201527f4c535038436f6d70617469626c654552433732313a20617070726f766520746f60448201527f2063616c6c657200000000000000000000000000000000000000000000000000606482015260840161075e565b6001600160a01b03838116600081815260076020908152604080832094871680845294825291829020805460ff191686151590811790915591519182527f17307eab39ab6107e8899845ad3d59bd9653f200f220920489ca2b5937696c31910160405180910390a3505050565b60405183906001600160a01b038616906000907fddf252ad1be2c89b69c2b068fc378daa952ba7f163c4a11628f55a4df523b3ef908290a46107db84848484611d12565b6060816114f281601f612e2e565b10156115405760405162461bcd60e51b815260206004820152600e60248201527f736c6963655f6f766572666c6f77000000000000000000000000000000000000604482015260640161075e565b61154a8284612e2e565b8451101561159a5760405162461bcd60e51b815260206004820152601160248201527f736c6963655f6f75744f66426f756e6473000000000000000000000000000000604482015260640161075e565b6060821580156115b95760405191506000825260208201604052611603565b6040519150601f8416801560200281840101858101878315602002848b0101015b818310156115f25780518352602092830192016115da565b5050858452601f01601f1916604052505b50949350505050565b60006116178261094d565b90506001600160a01b038116331461165a57604051632d938f5160e11b81526001600160a01b03821660048201526024810183905233604482015260640161075e565b6001600160a01b03831661168157604051639577b8b360e01b815260040160405180910390fd5b826001600160a01b0316816001600160a01b0316036116b3576040516344fed6b160e11b815260040160405180910390fd5b60008281526005602052604081206116cb9085611e72565b905080611716576040517fa7626b680000000000000000000000000000000000000000000000000000000081526001600160a01b03851660048201526024810184905260440161075e565b82826001600160a01b0316856001600160a01b03167f34b797fc5a526f7bf1d2b5de25f6564fd85ae364e3ee939aee7c1ac27871a98860405160405180910390a450505050565b60006001600160e01b031982167f629aa69400000000000000000000000000000000000000000000000000000000148061068357506301ffc9a760e01b6001600160e01b0319831614610683565b600054610100900460ff166118165760405162461bcd60e51b815260206004820152602b60248201527f496e697469616c697a61626c653a20636f6e7472616374206973206e6f74206960448201526a6e697469616c697a696e6760a81b606482015260840161075e565b610948838383611e87565b60006109bb836001600160a01b038416611efd565b836001600160a01b0316856001600160a01b031603611881576040517f5d67d6c100000000000000000000000000000000000000000000000000000000815260040160405180910390fd5b600061188c8461094d565b9050856001600160a01b0316816001600160a01b0316146118da57604051632d938f5160e11b81526001600160a01b038083166004830152602482018690528716604482015260640161075e565b6001600160a01b038516611901576040516324ecef4d60e01b815260040160405180910390fd5b3361190c8786611ff0565b6001600160a01b038716600090815260046020526040902061192e908661203e565b506001600160a01b0386166000908152600460205260409020611951908661204a565b5060008581526003602052604090819020805473ffffffffffffffffffffffffffffffffffffffff19166001600160a01b0389811691821790925591518792918a16907fb333c813a7426a7a11e2b190cad52c44119421594b47f6f32ace6d8c7207b2bf906119c59086908a908a90612e46565b60405180910390a46000878787866040516020016119e69493929190612e70565b6040516020818303038152906040529050611a018882612056565b611a0c878683612101565b5050505050505050565b6001600160a01b038116600090815260018301602052604081205415156109bb565b60006001600160a01b0384163b15611b8657604051630a85bd0160e11b81526001600160a01b0385169063150b7a0290611a7c903390899088908890600401612ebd565b6020604051808303816000875af1925050508015611ab7575060408051601f3d908101601f19168201909252611ab491810190612ef9565b60015b611b6c573d808015611ae5576040519150601f19603f3d011682016040523d82523d6000602084013e611aea565b606091505b508051600003611b64576040805162461bcd60e51b81526020600482015260248101919091527f4c535038436f6d70617469626c654552433732313a207472616e73666572207460448201527f6f206e6f6e20455243373231526563656976657220696d706c656d656e746572606482015260840161075e565b805181602001fd5b6001600160e01b031916630a85bd0160e11b149050611208565b506001949350505050565b606081600001805480602002602001604051908101604052809291908181526020018280548015610faf57602002820191906000526020600020905b815481526020019060010190808311611bcd5750505050509050919050565b7f2145e1d6d074577dc71ef54c3807742b41b053a9352ae6b491331509acb9750f8201611c45576040517f85c169bd00000000000000000000000000000000000000000000000000000000815260040160405180910390fd5b7fd0f59754f88971fe6bc5a6618cc9d5f1e859c58d16b22d1c7b2d3e2b246cd8aa8201611c9e576040517f76755b3800000000000000000000000000000000000000000000000000000000815260040160405180910390fd5b6000828152600160205260409020611cb68282612f5c565b50817fece574603820d07bc9b91f2a932baadf4628aabcb8afba49776529c14a6104b261010083511115611cf757611cf28360006101006114e4565b611cf9565b825b604051611d0691906125c7565b60405180910390a25050565b6001600160a01b038416611d39576040516324ecef4d60e01b815260040160405180910390fd5b6000838152600360205260409020546001600160a01b031615611d8b576040517f34c7b5110000000000000000000000000000000000000000000000000000000081526004810184905260240161075e565b33600160026000828254611d9f9190612e2e565b90915550506001600160a01b0385166000908152600460205260409020611dc6908561204a565b50600084815260036020526040808220805473ffffffffffffffffffffffffffffffffffffffff19166001600160a01b03891690811790915590518692907fb333c813a7426a7a11e2b190cad52c44119421594b47f6f32ace6d8c7207b2bf90611e3590869089908990612e46565b60405180910390a4600080868685604051602001611e569493929190612e70565b6040516020818303038152906040529050610a46868583612101565b60006109bb836001600160a01b03841661223b565b600054610100900460ff16611ef25760405162461bcd60e51b815260206004820152602b60248201527f496e697469616c697a61626c653a20636f6e7472616374206973206e6f74206960448201526a6e697469616c697a696e6760a81b606482015260840161075e565b61094883838361228a565b60008181526001830160205260408120548015611fe6576000611f21600183612dcd565b8554909150600090611f3590600190612dcd565b9050818114611f9a576000866000018281548110611f5557611f55612de4565b9060005260206000200154905080876000018481548110611f7857611f78612de4565b6000918252602080832090910192909255918252600188019052604090208390555b8554869080611fab57611fab61301c565b600190038181906000526020600020016000905590558560010160008681526020019081526020016000206000905560019350505050610683565b6000915050610683565b600081815260056020526040812090612008826112ab565b905060005b8181101561203757600061202184826123b4565b905061202e818787611069565b5060010161200d565b5050505050565b60006109bb8383611efd565b60006109bb838361223b565b61206782631aed5a8560e21b6123c0565b15610bd257604051631aed5a8560e21b81526001600160a01b03831690636bb56a14906120ba907fb23eae7e6d1564b295b4c3e3be402d9a2f0776c57bdf365903496f6fa481ab00908590600401613032565b6000604051808303816000875af11580156120d9573d6000803e3d6000fd5b505050506040513d6000823e601f3d908101601f19168201604052610948919081019061304b565b61211283631aed5a8560e21b6123c0565b156121ac57604051631aed5a8560e21b81526001600160a01b03841690636bb56a1490612165907f0b084a55ebf70fd3c06fd755269dac2212c4d3f0f4d09079780bfa50c1b2984d908590600401613032565b6000604051808303816000875af1158015612184573d6000803e3d6000fd5b505050506040513d6000823e601f3d908101601f191682016040526107db919081019061304b565b81610948576001600160a01b0383163b156121fe576040517f4349776d0000000000000000000000000000000000000000000000000000000081526001600160a01b038416600482015260240161075e565b6040517f031731370000000000000000000000000000000000000000000000000000000081526001600160a01b038416600482015260240161075e565b600081815260018301602052604081205461228257508154600181810184556000848152602080822090930184905584548482528286019093526040902091909155610683565b506000610683565b600054610100900460ff166122f55760405162461bcd60e51b815260206004820152602b60248201527f496e697469616c697a61626c653a20636f6e7472616374206973206e6f74206960448201526a6e697469616c697a696e6760a81b606482015260840161075e565b6122fe8161245e565b6123607feafec4d89fa9619884b60000a4d96624a38f7ac2d8d9a604ecf07c12c77e480c60001b6040518060400160405280600481526020017fa4d96624000000000000000000000000000000000000000000000000000000008152506124c9565b61238a7fdeba1e292f8ba88238e10ab3c7f88bd4be4fac56cad5194b6ecceaf653468af1846124c9565b6109487f2f0a68ab07768e01943a599e73362a0e17a63a72e94dd2e384d2c1d4db932756836124c9565b60006109bb8383612512565b604080516001600160e01b03198316602480830191909152825180830390910181526044909101909152602080820180517bffffffffffffffffffffffffffffffffffffffffffffffffffffffff166301ffc9a760e01b178152825160009392849283928392918391908a617530fa92503d91506000519050828015612447575060208210155b80156124535750600081115b979650505050505050565b600054610100900460ff16610e535760405162461bcd60e51b815260206004820152602b60248201527f496e697469616c697a61626c653a20636f6e7472616374206973206e6f74206960448201526a6e697469616c697a696e6760a81b606482015260840161075e565b60008281526001602052604090206124e18282612f5c565b50817fece574603820d07bc9b91f2a932baadf4628aabcb8afba49776529c14a6104b282604051611d0691906125c7565b600082600001828154811061252957612529612de4565b9060005260206000200154905092915050565b6001600160e01b031981168114610ed857600080fd5b60006020828403121561256457600080fd5b81356109bb8161253c565b60005b8381101561258a578181015183820152602001612572565b838111156107db5750506000910152565b600081518084526125b381602086016020860161256f565b601f01601f19169290920160200192915050565b6020815260006109bb602083018461259b565b634e487b7160e01b600052604160045260246000fd5b604051601f8201601f1916810167ffffffffffffffff81118282101715612619576126196125da565b604052919050565b600067ffffffffffffffff82111561263b5761263b6125da565b50601f01601f191660200190565b600082601f83011261265a57600080fd5b813561266d61266882612621565b6125f0565b81815284602083860101111561268257600080fd5b816020850160208301376000918101602001919091529392505050565b80356001600160a01b03811681146126b657600080fd5b919050565b6000806000606084860312156126d057600080fd5b833567ffffffffffffffff808211156126e857600080fd5b6126f487838801612649565b9450602086013591508082111561270a57600080fd5b5061271786828701612649565b9250506127266040850161269f565b90509250925092565b60006020828403121561274157600080fd5b5035919050565b6000806040838503121561275b57600080fd5b6127648361269f565b946020939093013593505050565b60008060006060848603121561278757600080fd5b6127908461269f565b925061279e6020850161269f565b9150604084013590509250925092565b6020808252825182820181905260009190848201906040850190845b818110156127ef5783516001600160a01b0316835292840192918401916001016127ca565b50909695505050505050565b803580151581146126b657600080fd5b600080600080600060a0868803121561282357600080fd5b61282c8661269f565b945061283a6020870161269f565b93506040860135925061284f606087016127fb565b9150608086013567ffffffffffffffff81111561286b57600080fd5b61287788828901612649565b9150509295509295909350565b60006020828403121561289657600080fd5b6109bb8261269f565b600067ffffffffffffffff8211156128b9576128b96125da565b5060051b60200190565b600082601f8301126128d457600080fd5b813560206128e46126688361289f565b82815260059290921b8401810191818101908684111561290357600080fd5b8286015b84811015612925576129188161269f565b8352918301918301612907565b509695505050505050565b600082601f83011261294157600080fd5b813560206129516126688361289f565b82815260059290921b8401810191818101908684111561297057600080fd5b8286015b848110156129255780358352918301918301612974565b600082601f83011261299c57600080fd5b813560206129ac6126688361289f565b82815260059290921b840181019181810190868411156129cb57600080fd5b8286015b84811015612925576129e0816127fb565b83529183019183016129cf565b600082601f8301126129fe57600080fd5b81356020612a0e6126688361289f565b82815260059290921b84018101918181019086841115612a2d57600080fd5b8286015b8481101561292557803567ffffffffffffffff811115612a515760008081fd5b612a5f8986838b0101612649565b845250918301918301612a31565b600080600080600060a08688031215612a8557600080fd5b853567ffffffffffffffff80821115612a9d57600080fd5b612aa989838a016128c3565b96506020880135915080821115612abf57600080fd5b612acb89838a016128c3565b95506040880135915080821115612ae157600080fd5b612aed89838a01612930565b94506060880135915080821115612b0357600080fd5b612b0f89838a0161298b565b93506080880135915080821115612b2557600080fd5b50612877888289016129ed565b60008060408385031215612b4557600080fd5b82359150602083013567ffffffffffffffff811115612b6357600080fd5b612b6f85828601612649565b9150509250929050565b60008060408385031215612b8c57600080fd5b823567ffffffffffffffff80821115612ba457600080fd5b612bb086838701612930565b93506020850135915080821115612bc657600080fd5b50612b6f858286016129ed565b60008060408385031215612be657600080fd5b612bef8361269f565b9150612bfd602084016127fb565b90509250929050565b6020808252825182820181905260009190848201906040850190845b818110156127ef57835183529284019291840191600101612c22565b60008060008060808587031215612c5457600080fd5b612c5d8561269f565b935060208501359250612c72604086016127fb565b9150606085013567ffffffffffffffff811115612c8e57600080fd5b612c9a87828801612649565b91505092959194509250565b60008060008060808587031215612cbc57600080fd5b612cc58561269f565b9350612cd36020860161269f565b925060408501359150606085013567ffffffffffffffff811115612c8e57600080fd5b600060208284031215612d0857600080fd5b813567ffffffffffffffff811115612d1f57600080fd5b61120884828501612930565b6000602080830181845280855180835260408601915060408160051b870101925083870160005b82811015612d8057603f19888603018452612d6e85835161259b565b94509285019290850190600101612d52565b5092979650505050505050565b60008060408385031215612da057600080fd5b612da98361269f565b9150612bfd6020840161269f565b634e487b7160e01b600052601160045260246000fd5b600082821015612ddf57612ddf612db7565b500390565b634e487b7160e01b600052603260045260246000fd5b600181811c90821680612e0e57607f821691505b602082108103610e4557634e487b7160e01b600052602260045260246000fd5b60008219821115612e4157612e41612db7565b500190565b6001600160a01b03841681528215156020820152606060408201526000610d8d606083018461259b565b60006bffffffffffffffffffffffff19808760601b168352808660601b166014840152508360288301528251612ead81604885016020870161256f565b9190910160480195945050505050565b60006001600160a01b03808716835280861660208401525083604083015260806060830152612eef608083018461259b565b9695505050505050565b600060208284031215612f0b57600080fd5b81516109bb8161253c565b601f82111561094857600081815260208120601f850160051c81016020861015612f3d5750805b601f850160051c820191505b81811015610a4657828155600101612f49565b815167ffffffffffffffff811115612f7657612f766125da565b612f8a81612f848454612dfa565b84612f16565b602080601f831160018114612fbf5760008415612fa75750858301515b600019600386901b1c1916600185901b178555610a46565b600085815260208120601f198616915b82811015612fee57888601518255948401946001909101908401612fcf565b508582101561300c5787850151600019600388901b60f8161c191681555b5050505050600190811b01905550565b634e487b7160e01b600052603160045260246000fd5b828152604060208201526000611208604083018461259b565b60006020828403121561305d57600080fd5b815167ffffffffffffffff81111561307457600080fd5b8201601f8101841361308557600080fd5b805161309361266882612621565b8181528560208385010111156130a857600080fd5b610d8d82602083016020860161256f56fea2646970667358221220845bc361b2d45ca2e40f2dc0bc33da44ac37bb1cbb6f504371fb8940ba525a2a64736f6c634300080f0033",
  "linkReferences": {},
  "deployedLinkReferences": {}
}