{
  "_format": "hh-sol-artifact-1",
  "contractName": "LSP9Vault",
  "sourceName": "contracts/LSP9Vault/LSP9Vault.sol",
  "abi": [
    {
      "inputs": [
        {
          "internalType": "address",
          "name": "newOwner",
          "type": "address"
        }
      ],
      "stateMutability": "payable",
      "type": "constructor"
    },
    {
      "inputs": [],
      "name": "CannotTransferOwnershipToSelf",
      "type": "error"
    },
    {
      "inputs": [],
      "name": "ERC725X_ContractDeploymentFailed",
      "type": "error"
    },
    {
      "inputs": [],
      "name": "ERC725X_CreateOperationsRequireEmptyRecipientAddress",
      "type": "error"
    },
    {
      "inputs": [],
      "name": "ERC725X_ExecuteParametersEmptyArray",
      "type": "error"
    },
    {
      "inputs": [],
      "name": "ERC725X_ExecuteParametersLengthMismatch",
      "type": "error"
    },
    {
      "inputs": [
        {
          "internalType": "uint256",
          "name": "balance",
          "type": "uint256"
        },
        {
          "internalType": "uint256",
          "name": "value",
          "type": "uint256"
        }
      ],
      "name": "ERC725X_InsufficientBalance",
      "type": "error"
    },
    {
      "inputs": [],
      "name": "ERC725X_MsgValueDisallowedInStaticCall",
      "type": "error"
    },
    {
      "inputs": [],
      "name": "ERC725X_NoContractBytecodeProvided",
      "type": "error"
    },
    {
      "inputs": [
        {
          "internalType": "uint256",
          "name": "operationTypeProvided",
          "type": "uint256"
        }
      ],
      "name": "ERC725X_UnknownOperationType",
      "type": "error"
    },
    {
      "inputs": [],
      "name": "ERC725Y_DataKeysValuesLengthMismatch",
      "type": "error"
    },
    {
      "inputs": [],
      "name": "ERC725Y_MsgValueDisallowed",
      "type": "error"
    },
    {
      "inputs": [
        {
          "internalType": "bytes32",
          "name": "dataKey",
          "type": "bytes32"
        }
      ],
      "name": "LSP1DelegateNotAllowedToSetDataKey",
      "type": "error"
    },
    {
      "inputs": [
        {
          "internalType": "bytes4",
          "name": "functionSelector",
          "type": "bytes4"
        }
      ],
      "name": "NoExtensionFoundForFunctionSelector",
      "type": "error"
    },
    {
      "inputs": [
        {
          "internalType": "uint256",
          "name": "renounceOwnershipStart",
          "type": "uint256"
        },
        {
          "internalType": "uint256",
          "name": "renounceOwnershipEnd",
          "type": "uint256"
        }
      ],
      "name": "NotInRenounceOwnershipInterval",
      "type": "error"
    },
    {
      "anonymous": false,
      "inputs": [
        {
          "indexed": true,
          "internalType": "uint256",
          "name": "operationType",
          "type": "uint256"
        },
        {
          "indexed": true,
          "internalType": "address",
          "name": "contractAddress",
          "type": "address"
        },
        {
          "indexed": true,
          "internalType": "uint256",
          "name": "value",
          "type": "uint256"
        },
        {
          "indexed": false,
          "internalType": "bytes32",
          "name": "salt",
          "type": "bytes32"
        }
      ],
      "name": "ContractCreated",
      "type": "event"
    },
    {
      "anonymous": false,
      "inputs": [
        {
          "indexed": true,
          "internalType": "bytes32",
          "name": "dataKey",
          "type": "bytes32"
        },
        {
          "indexed": false,
          "internalType": "bytes",
          "name": "dataValue",
          "type": "bytes"
        }
      ],
      "name": "DataChanged",
      "type": "event"
    },
    {
      "anonymous": false,
      "inputs": [
        {
          "indexed": true,
          "internalType": "uint256",
          "name": "operationType",
          "type": "uint256"
        },
        {
          "indexed": true,
          "internalType": "address",
          "name": "target",
          "type": "address"
        },
        {
          "indexed": true,
          "internalType": "uint256",
          "name": "value",
          "type": "uint256"
        },
        {
          "indexed": false,
          "internalType": "bytes4",
          "name": "selector",
          "type": "bytes4"
        }
      ],
      "name": "Executed",
      "type": "event"
    },
    {
      "anonymous": false,
      "inputs": [],
      "name": "OwnershipRenounced",
      "type": "event"
    },
    {
      "anonymous": false,
      "inputs": [
        {
          "indexed": true,
          "internalType": "address",
          "name": "previousOwner",
          "type": "address"
        },
        {
          "indexed": true,
          "internalType": "address",
          "name": "newOwner",
          "type": "address"
        }
      ],
      "name": "OwnershipTransferStarted",
      "type": "event"
    },
    {
      "anonymous": false,
      "inputs": [
        {
          "indexed": true,
          "internalType": "address",
          "name": "previousOwner",
          "type": "address"
        },
        {
          "indexed": true,
          "internalType": "address",
          "name": "newOwner",
          "type": "address"
        }
      ],
      "name": "OwnershipTransferred",
      "type": "event"
    },
    {
      "anonymous": false,
      "inputs": [],
      "name": "RenounceOwnershipStarted",
      "type": "event"
    },
    {
      "anonymous": false,
      "inputs": [
        {
          "indexed": true,
          "internalType": "address",
          "name": "from",
          "type": "address"
        },
        {
          "indexed": true,
          "internalType": "uint256",
          "name": "value",
          "type": "uint256"
        },
        {
          "indexed": true,
          "internalType": "bytes32",
          "name": "typeId",
          "type": "bytes32"
        },
        {
          "indexed": false,
          "internalType": "bytes",
          "name": "receivedData",
          "type": "bytes"
        },
        {
          "indexed": false,
          "internalType": "bytes",
          "name": "returnedValue",
          "type": "bytes"
        }
      ],
      "name": "UniversalReceiver",
      "type": "event"
    },
    {
      "anonymous": false,
      "inputs": [
        {
          "indexed": true,
          "internalType": "address",
          "name": "sender",
          "type": "address"
        },
        {
          "indexed": true,
          "internalType": "uint256",
          "name": "value",
          "type": "uint256"
        }
      ],
      "name": "ValueReceived",
      "type": "event"
    },
    {
      "stateMutability": "payable",
      "type": "fallback"
    },
    {
      "inputs": [],
      "name": "RENOUNCE_OWNERSHIP_CONFIRMATION_DELAY",
      "outputs": [
        {
          "internalType": "uint256",
          "name": "",
          "type": "uint256"
        }
      ],
      "stateMutability": "view",
      "type": "function"
    },
    {
      "inputs": [],
      "name": "RENOUNCE_OWNERSHIP_CONFIRMATION_PERIOD",
      "outputs": [
        {
          "internalType": "uint256",
          "name": "",
          "type": "uint256"
        }
      ],
      "stateMutability": "view",
      "type": "function"
    },
    {
      "inputs": [],
      "name": "acceptOwnership",
      "outputs": [],
      "stateMutability": "nonpayable",
      "type": "function"
    },
    {
      "inputs": [
        {
          "internalType": "bytes[]",
          "name": "data",
          "type": "bytes[]"
        }
      ],
      "name": "batchCalls",
      "outputs": [
        {
          "internalType": "bytes[]",
          "name": "results",
          "type": "bytes[]"
        }
      ],
      "stateMutability": "nonpayable",
      "type": "function"
    },
    {
      "inputs": [
        {
          "internalType": "uint256",
          "name": "operationType",
          "type": "uint256"
        },
        {
          "internalType": "address",
          "name": "target",
          "type": "address"
        },
        {
          "internalType": "uint256",
          "name": "value",
          "type": "uint256"
        },
        {
          "internalType": "bytes",
          "name": "data",
          "type": "bytes"
        }
      ],
      "name": "execute",
      "outputs": [
        {
          "internalType": "bytes",
          "name": "",
          "type": "bytes"
        }
      ],
      "stateMutability": "payable",
      "type": "function"
    },
    {
      "inputs": [
        {
          "internalType": "uint256[]",
          "name": "operationsType",
          "type": "uint256[]"
        },
        {
          "internalType": "address[]",
          "name": "targets",
          "type": "address[]"
        },
        {
          "internalType": "uint256[]",
          "name": "values",
          "type": "uint256[]"
        },
        {
          "internalType": "bytes[]",
          "name": "datas",
          "type": "bytes[]"
        }
      ],
      "name": "executeBatch",
      "outputs": [
        {
          "internalType": "bytes[]",
          "name": "",
          "type": "bytes[]"
        }
      ],
      "stateMutability": "payable",
      "type": "function"
    },
    {
      "inputs": [
        {
          "internalType": "bytes32",
          "name": "dataKey",
          "type": "bytes32"
        }
      ],
      "name": "getData",
      "outputs": [
        {
          "internalType": "bytes",
          "name": "dataValue",
          "type": "bytes"
        }
      ],
      "stateMutability": "view",
      "type": "function"
    },
    {
      "inputs": [
        {
          "internalType": "bytes32[]",
          "name": "dataKeys",
          "type": "bytes32[]"
        }
      ],
      "name": "getDataBatch",
      "outputs": [
        {
          "internalType": "bytes[]",
          "name": "dataValues",
          "type": "bytes[]"
        }
      ],
      "stateMutability": "view",
      "type": "function"
    },
    {
      "inputs": [],
      "name": "owner",
      "outputs": [
        {
          "internalType": "address",
          "name": "",
          "type": "address"
        }
      ],
      "stateMutability": "view",
      "type": "function"
    },
    {
      "inputs": [],
      "name": "pendingOwner",
      "outputs": [
        {
          "internalType": "address",
          "name": "",
          "type": "address"
        }
      ],
      "stateMutability": "view",
      "type": "function"
    },
    {
      "inputs": [],
      "name": "renounceOwnership",
      "outputs": [],
      "stateMutability": "nonpayable",
      "type": "function"
    },
    {
      "inputs": [
        {
          "internalType": "bytes32",
          "name": "dataKey",
          "type": "bytes32"
        },
        {
          "internalType": "bytes",
          "name": "dataValue",
          "type": "bytes"
        }
      ],
      "name": "setData",
      "outputs": [],
      "stateMutability": "payable",
      "type": "function"
    },
    {
      "inputs": [
        {
          "internalType": "bytes32[]",
          "name": "dataKeys",
          "type": "bytes32[]"
        },
        {
          "internalType": "bytes[]",
          "name": "dataValues",
          "type": "bytes[]"
        }
      ],
      "name": "setDataBatch",
      "outputs": [],
      "stateMutability": "payable",
      "type": "function"
    },
    {
      "inputs": [
        {
          "internalType": "bytes4",
          "name": "interfaceId",
          "type": "bytes4"
        }
      ],
      "name": "supportsInterface",
      "outputs": [
        {
          "internalType": "bool",
          "name": "",
          "type": "bool"
        }
      ],
      "stateMutability": "view",
      "type": "function"
    },
    {
      "inputs": [
        {
          "internalType": "address",
          "name": "newOwner",
          "type": "address"
        }
      ],
      "name": "transferOwnership",
      "outputs": [],
      "stateMutability": "nonpayable",
      "type": "function"
    },
    {
      "inputs": [
        {
          "internalType": "bytes32",
          "name": "typeId",
          "type": "bytes32"
        },
        {
          "internalType": "bytes",
          "name": "receivedData",
          "type": "bytes"
        }
      ],
      "name": "universalReceiver",
      "outputs": [
        {
          "internalType": "bytes",
          "name": "returnedValues",
          "type": "bytes"
        }
      ],
      "stateMutability": "payable",
      "type": "function"
    },
    {
      "stateMutability": "payable",
      "type": "receive"
    }
  ],
  "bytecode": "0x6080604052604051620031b9380380620031b983398101604081905262000026916200044c565b34156200005b57604051349033907f7e71433ddf847725166244795048ecf3e3f9f35628254ecbf73605666423349390600090a35b62000071816200011160201b62000d8e1760201c565b6040805180820190915260048152637c0334a160e01b6020820152620000b9907feafec4d89fa9619884b600007c0334a14085fefa8b51ae5a40895018882bdb909062000178565b604080516020808201909252600081526200010a916001600160a01b038416917f79855c97dbc259ce395421d933d7bc0699b0f1561f988f09a9e8633fd542fe5c9162000df3620001ff821b17901c565b5062000757565b6000546001600160a01b038281169116146200017557600080546001600160a01b038381166001600160a01b0319831681178455604051919092169283917f8be0079c531659141344cd1fd0a4f28419497f9722a3daafe3b4186f6b6457e09190a3505b50565b600082815260016020526040902062000192828262000522565b50817fece574603820d07bc9b91f2a932baadf4628aabcb8afba49776529c14a6104b261010083511115620001e257620001dc836000610100620002a460201b62000e7e1760201c565b620001e4565b825b604051620001f391906200064b565b60405180910390a25050565b6200021d83636bb56a1460e01b620003c160201b62000fa81760201c565b156200029f57604051631aed5a8560e21b81526001600160a01b03841690636bb56a149062000253908590859060040162000660565b6000604051808303816000875af115801562000273573d6000803e3d6000fd5b505050506040513d6000823e601f3d908101601f191682016040526200029d919081019062000683565b505b505050565b606081620002b481601f62000730565b1015620002f95760405162461bcd60e51b815260206004820152600e60248201526d736c6963655f6f766572666c6f7760901b60448201526064015b60405180910390fd5b62000305828462000730565b845110156200034b5760405162461bcd60e51b8152602060048201526011602482015270736c6963655f6f75744f66426f756e647360781b6044820152606401620002f0565b6060821580156200036c5760405191506000825260208201604052620003b8565b6040519150601f8416801560200281840101858101878315602002848b0101015b81831015620003a75780518352602092830192016200038d565b5050858452601f01601f1916604052505b50949350505050565b604080516001600160e01b03198316602480830191909152825180830390910181526044909101909152602080820180516001600160e01b03166301ffc9a760e01b178152825160009392849283928392918391908a617530fa92503d9150600051905082801562000434575060208210155b8015620004415750600081115b979650505050505050565b6000602082840312156200045f57600080fd5b81516001600160a01b03811681146200047757600080fd5b9392505050565b634e487b7160e01b600052604160045260246000fd5b600181811c90821680620004a957607f821691505b602082108103620004ca57634e487b7160e01b600052602260045260246000fd5b50919050565b601f8211156200029f57600081815260208120601f850160051c81016020861015620004f95750805b601f850160051c820191505b818110156200051a5782815560010162000505565b505050505050565b81516001600160401b038111156200053e576200053e6200047e565b62000556816200054f845462000494565b84620004d0565b602080601f8311600181146200058e5760008415620005755750858301515b600019600386901b1c1916600185901b1785556200051a565b600085815260208120601f198616915b82811015620005bf578886015182559484019460019091019084016200059e565b5085821015620005de5787850151600019600388901b60f8161c191681555b5050505050600190811b01905550565b60005b838110156200060b578181015183820152602001620005f1565b838111156200029d5750506000910152565b6000815180845262000637816020860160208601620005ee565b601f01601f19169290920160200192915050565b6020815260006200047760208301846200061d565b8281526040602082015260006200067b60408301846200061d565b949350505050565b6000602082840312156200069657600080fd5b81516001600160401b0380821115620006ae57600080fd5b818401915084601f830112620006c357600080fd5b815181811115620006d857620006d86200047e565b604051601f8201601f19908116603f011681019083821181831017156200070357620007036200047e565b816040528281528760208487010111156200071d57600080fd5b62000441836020830160208801620005ee565b600082198211156200075257634e487b7160e01b600052601160045260246000fd5b500190565b612a5280620007676000396000f3fe6080604052600436106100f75760003560e01c806379ba50971161008a578063dedff9c611610059578063dedff9c6146102e6578063e30c397814610306578063ead3fbdf14610179578063f2fde38b1461032457610132565b806379ba5097146102795780637f23690c1461028e5780638da5cb5b146102a157806397902421146102d357610132565b806354f6127f116100c657806354f6127f146102115780636963d438146102315780636bb56a1414610251578063715018a61461026457610132565b806301bfba611461017957806301ffc9a7146101a157806331858452146101d157806344c028fe146101f157610132565b3661013257341561013057604051349033907f7e71433ddf847725166244795048ecf3e3f9f35628254ecbf73605666423349390600090a35b005b341561016657604051349033907f7e71433ddf847725166244795048ecf3e3f9f35628254ecbf73605666423349390600090a35b600436101561017157005b610130610344565b34801561018557600080fd5b5061018e60c881565b6040519081526020015b60405180910390f35b3480156101ad57600080fd5b506101c16101bc366004611fe3565b610412565b6040519015158152602001610198565b6101e46101df3660046121f8565b6104b4565b6040516101989190612358565b6102046101ff3660046123ba565b610509565b604051610198919061240f565b34801561021d57600080fd5b5061020461022c366004612422565b610553565b34801561023d57600080fd5b506101e461024c36600461243b565b61055e565b61020461025f3660046124b0565b6106c1565b34801561027057600080fd5b50610130610897565b34801561028557600080fd5b506101306108a9565b61013061029c36600461252c565b610941565b3480156102ad57600080fd5b506000546001600160a01b03165b6040516001600160a01b039091168152602001610198565b6101306102e1366004612573565b610a0d565b3480156102f257600080fd5b506101e46103013660046125cd565b610bc9565b34801561031257600080fd5b506003546001600160a01b03166102bb565b34801561033057600080fd5b5061013061033f366004612602565b610c74565b600061035b6000356001600160e01b031916611046565b90506000356001600160e01b03191615801561037e57506001600160a01b038116155b156103865750565b6001600160a01b0381166103d9576040517fbb370b2b0000000000000000000000000000000000000000000000000000000081526001600160e01b03196000351660048201526024015b60405180910390fd5b36600080373360601b365234601436015260008060343601600080855af13d6000803e808015610408573d6000f35b3d6000fd5b505050565b60006001600160e01b031982167f28af17e600000000000000000000000000000000000000000000000000000000148061045c57506001600160e01b03198216631aed5a8560e21b145b8061049057506001600160e01b031982167f94be599900000000000000000000000000000000000000000000000000000000145b8061049f575061049f8261108b565b806104ae57506104ae826110c9565b92915050565b60606104be6110ff565b34156104f257604051349033907f7e71433ddf847725166244795048ecf3e3f9f35628254ecbf73605666423349390600090a35b6104fe85858585611168565b90505b949350505050565b60606105136110ff565b341561054757604051349033907f7e71433ddf847725166244795048ecf3e3f9f35628254ecbf73605666423349390600090a35b6104fe858585856112f8565b60606104ae82611404565b60608167ffffffffffffffff8111156105795761057961200d565b6040519080825280602002602001820160405280156105ac57816020015b60608152602001906001900390816105975790505b50905060005b828110156106ba57600080308686858181106105d0576105d061261d565b90506020028101906105e29190612633565b6040516105f0929190612681565b600060405180830381855af49150503d806000811461062b576040519150601f19603f3d011682016040523d82523d6000602084013e610630565b606091505b5091509150816106925780511561064a5780518082602001fd5b60405162461bcd60e51b815260206004820152601960248201527f4c5350393a20626174636843616c6c732072657665727465640000000000000060448201526064016103d0565b808484815181106106a5576106a561261d565b602090810291909101015250506001016105b2565b5092915050565b606034156106f757604051349033907f7e71433ddf847725166244795048ecf3e3f9f35628254ecbf73605666423349390600090a35b60006107227f0cfc51aec37c55a4d0b1a65c6255c4bf2fbdf6277f3cc0730c45b828b6db8b47611404565b90506060601482511061078657600061073a83612691565b60601c905061075081631aed5a8560e21b610fa8565b1561078457600480546001600160a01b0319166001600160a01b0383169081179091556107819088888833346114a6565b91505b505b600061079f690cfc51aec37c55a4d0b160b01b88611603565b905060006107ac82611404565b9050606060148251106108105760006107c483612691565b60601c90506107da81631aed5a8560e21b610fa8565b1561080e57600480546001600160a01b0319166001600160a01b03831690811790915561080b908b8b8b33346114a6565b91505b505b600480546001600160a01b031916905560405161083390859083906020016126cd565b60405160208183030381529060405295508834336001600160a01b03167f9c3ba68eb5742b8e3961aea0afc7371a71bf433c8a67a831803b64c064a178c28b8b8b6040516108839392919061271b565b60405180910390a450505050509392505050565b61089f6110ff565b6108a761166c565b565b6000546001600160a01b03166108bd611768565b604080516020810190915260008152610902906001600160a01b038316907f0c622e58e6b7089ae35f1af1c86d997be92fcdd8c9509652022d41aa6516947190610df3565b60408051602081019091526000815261093e9033907f79855c97dbc259ce395421d933d7bc0699b0f1561f988f09a9e8633fd542fe5c90610df3565b50565b34156109605760405163f36ba73760e01b815260040160405180910390fd5b600061096a611803565b90508015610a03576001600160a01b03198316690cfc51aec37c55a4d0b160b01b14806109c157507fffffffffffff00000000000000000000000000000000000000000000000000008316654b80742de2bf60d01b145b806109e257506001600160a01b03198316696773c5a04a6d4300884b60b11b145b15610a035760405163199611f160e01b8152600481018490526024016103d0565b61040d838361189d565b6000610a17611803565b90508151835114610a54576040517f3bcc897900000000000000000000000000000000000000000000000000000000815260040160405180910390fd5b3415610a735760405163f36ba73760e01b815260040160405180910390fd5b60005b8351811015610bc3578115610b7f578351690cfc51aec37c55a4d0b160b01b90859083908110610aa857610aa861261d565b60200260200101516001600160a01b0319161480610b0757508351654b80742de2bf60d01b90859083908110610ae057610ae061261d565b602002602001015179ffffffffffffffffffffffffffffffffffffffffffffffffffff1916145b80610b4457508351696773c5a04a6d4300884b60b11b90859083908110610b3057610b3061261d565b60200260200101516001600160a01b031916145b15610b7f57838181518110610b5b57610b5b61261d565b602002602001015160405163199611f160e01b81526004016103d091815260200190565b610bbb848281518110610b9457610b9461261d565b6020026020010151848381518110610bae57610bae61261d565b602002602001015161189d565b600101610a76565b50505050565b6060815167ffffffffffffffff811115610be557610be561200d565b604051908082528060200260200182016040528015610c1857816020015b6060815260200190600190039081610c035790505b50905060005b8251811015610c6e57610c49838281518110610c3c57610c3c61261d565b6020026020010151611404565b828281518110610c5b57610c5b61261d565b6020908102919091010152600101610c1e565b50919050565b610c7c6110ff565b610c8581611911565b600080546040516001600160a01b03918216929184169183917f38d16b8cac22d99fc7c124b9cd0de2d3fa1faef420bfe791d8c362d765e227009190a3604080516020810190915260008152610d07906001600160a01b038416907faefd43f45fed1bcd8992f23c803b6f4ec45cf6b62b0d404d565f290a471e763f90610df3565b6000546001600160a01b03828116911614610d8a5760405162461bcd60e51b815260206004820152603f60248201527f4c535031343a206e65774f776e6572204d55535420616363657074206f776e6560448201527f727368697020696e2061207365706172617465207472616e73616374696f6e0060648201526084016103d0565b5050565b6000546001600160a01b0382811691161461093e57600080546001600160a01b038381166001600160a01b0319831681178455604051919092169283917f8be0079c531659141344cd1fd0a4f28419497f9722a3daafe3b4186f6b6457e09190a35050565b610e0483631aed5a8560e21b610fa8565b1561040d57604051631aed5a8560e21b81526001600160a01b03841690636bb56a1490610e379085908590600401612741565b6000604051808303816000875af1158015610e56573d6000803e3d6000fd5b505050506040513d6000823e601f3d908101601f19168201604052610bc3919081019061275a565b606081610e8c81601f6127de565b1015610eda5760405162461bcd60e51b815260206004820152600e60248201527f736c6963655f6f766572666c6f7700000000000000000000000000000000000060448201526064016103d0565b610ee482846127de565b84511015610f345760405162461bcd60e51b815260206004820152601160248201527f736c6963655f6f75744f66426f756e647300000000000000000000000000000060448201526064016103d0565b606082158015610f535760405191506000825260208201604052610f9d565b6040519150601f8416801560200281840101858101878315602002848b0101015b81831015610f8c578051835260209283019201610f74565b5050858452601f01601f1916604052505b5090505b9392505050565b604080516001600160e01b03198316602480830191909152825180830390910181526044909101909152602080820180517bffffffffffffffffffffffffffffffffffffffffffffffffffffffff166301ffc9a760e01b178152825160009392849283928392918391908a617530fa92503d9150600051905082801561102f575060208210155b801561103b5750600081115b979650505050505050565b60008061106a696773c5a04a6d4300884b60b11b6001600160e01b03198516611603565b9050600061107782611404565b61108090612691565b60601c949350505050565b60006001600160e01b031982167fa918fa6b0000000000000000000000000000000000000000000000000000000014806104ae57506104ae8261197a565b6000806110dc6301ffc9a760e01b611046565b90506001600160a01b0381166110f55750600092915050565b610fa18184610fa8565b336111126000546001600160a01b031690565b6001600160a01b0316146108a75760405162461bcd60e51b815260206004820181905260248201527f4f776e61626c653a2063616c6c6572206973206e6f7420746865206f776e657260448201526064016103d0565b60608351855114158061118957508251845114158061118957508151835114155b156111c0576040517f3ff55f4d00000000000000000000000000000000000000000000000000000000815260040160405180910390fd5b84516000036111fb576040517fe9ad2b5f00000000000000000000000000000000000000000000000000000000815260040160405180910390fd5b6000855167ffffffffffffffff8111156112175761121761200d565b60405190808252806020026020018201604052801561124a57816020015b60608152602001906001900390816112355790505b50905060005b86518110156112ee576112c987828151811061126e5761126e61261d565b60200260200101518783815181106112885761128861261d565b60200260200101518784815181106112a2576112a261261d565b60200260200101518785815181106112bc576112bc61261d565b60200260200101516112f8565b8282815181106112db576112db61261d565b6020908102919091010152600101611250565b5095945050505050565b6060846113115761130a8484846119b8565b9050610501565b6001850361134b576001600160a01b0384161561134157604051631820c12560e11b815260040160405180910390fd5b61130a8383611ae4565b60028503611385576001600160a01b0384161561137b57604051631820c12560e11b815260040160405180910390fd5b61130a8383611bfe565b600385036113cf5782156113c5576040517f72f2bc6a00000000000000000000000000000000000000000000000000000000815260040160405180910390fd5b61130a8483611ce9565b6040517f7583b3bc000000000000000000000000000000000000000000000000000000008152600481018690526024016103d0565b6000818152600160205260409020805460609190611421906127f6565b80601f016020809104026020016040519081016040528092919081815260200182805461144d906127f6565b801561149a5780601f1061146f5761010080835404028352916020019161149a565b820191906000526020600020905b81548152906001019060200180831161147d57829003601f168201915b50505050509050919050565b60606000636bb56a1460e01b8787876040516024016114c79392919061282a565b60408051601f19818403018152918152602080830180517bffffffffffffffffffffffffffffffffffffffffffffffffffffffff166001600160e01b0319909516949094179093525161151e928791879101612844565b6040516020818303038152906040529050600080896001600160a01b03168360405161154a9190612883565b6000604051808303816000865af19150503d8060008114611587576040519150601f19603f3d011682016040523d82523d6000602084013e61158c565b606091505b50915091506115d182826040518060400160405280602081526020017f43616c6c20746f20756e6976657273616c5265636569766572206661696c6564815250611de8565b5080516000036115e157806115f5565b808060200190518101906115f5919061275a565b9a9950505050505050505050565b604080517fffffffffffffffffffff00000000000000000000000000000000000000000000841660208201526000602a82018190526bffffffffffffffffffffffff198416602c830152918291016040516020818303038152906040529050806105019061289f565b60025443906000906116809060c8906127de565b9050600061168f60c8836127de565b90508083118061169f5750600254155b156116e7576002839055600380546001600160a01b03191690556040517f81b7f830f1f0084db6497c486cbe6974c86488dcc4e3738eab94ab6d6b1653e790600090a1505050565b8183101561172b576040517f8b9bf50700000000000000000000000000000000000000000000000000000000815260048101839052602481018290526044016103d0565b6117356000610d8e565b600060028190556040517fd1f66c3d2bc1993a86be5e3d33709d98f0442381befcedd29f578b9b2506b1ce9190a1505050565b6003546001600160a01b031633146117e85760405162461bcd60e51b815260206004820152602560248201527f4c535031343a2063616c6c6572206973206e6f74207468652070656e64696e6760448201527f4f776e657200000000000000000000000000000000000000000000000000000060648201526084016103d0565b6117f133610d8e565b600380546001600160a01b0319169055565b600080546001600160a01b0316331461189a576004546001600160a01b031633146118965760405162461bcd60e51b815260206004820152603b60248201527f4f6e6c79204f776e6572206f72207265656e746572656420556e69766572736160448201527f6c2052656365697665722044656c656761746520616c6c6f776564000000000060648201526084016103d0565b5060015b90565b60008281526001602052604090206118b58282612911565b50817fece574603820d07bc9b91f2a932baadf4628aabcb8afba49776529c14a6104b2610100835111156118f6576118f1836000610100610e7e565b6118f8565b825b604051611905919061240f565b60405180910390a25050565b306001600160a01b03821603611953576040517f43b248cd00000000000000000000000000000000000000000000000000000000815260040160405180910390fd5b600380546001600160a01b0319166001600160a01b03929092169190911790556000600255565b60006001600160e01b031982167f629aa6940000000000000000000000000000000000000000000000000000000014806104ae57506104ae82611e01565b6060824710156119e4576040516301bf351f60e31b8152476004820152602481018490526044016103d0565b826001600160a01b03851660007f4810874456b8e6487bd861375cf6abd8e1c8bb5858c8ce36a86a04dabfac199e611a1b866129d1565b6040516001600160e01b0319909116815260200160405180910390a4600080856001600160a01b03168585604051611a539190612883565b60006040518083038185875af1925050503d8060008114611a90576040519150601f19603f3d011682016040523d82523d6000602084013e611a95565b606091505b5091509150611ada82826040518060400160405280601681526020017f455243373235583a20556e6b6e6f776e204572726f7200000000000000000000815250611de8565b9695505050505050565b606082471015611b10576040516301bf351f60e31b8152476004820152602481018490526044016103d0565b8151600003611b325760405163b81cd8d960e01b815260040160405180910390fd5b600082516020840185f090506001600160a01b038116611b7e576040517f0b07489b00000000000000000000000000000000000000000000000000000000815260040160405180910390fd5b6040516bffffffffffffffffffffffff19606083901b166020820152603401604051602081830303815290604052915083816001600160a01b031660017fa1fb700aaee2ae4a2ff6f91ce7eba292f89c2f5488b8ec4c5c5c8150692595c36000801b604051611bef91815260200190565b60405180910390a45092915050565b60608151600003611c225760405163b81cd8d960e01b815260040160405180910390fd5b6000611c3b8360208551611c369190612a05565b611e4f565b90506000611c5884600060208751611c539190612a05565b610e7e565b90506000611c67868484611eb5565b6040516bffffffffffffffffffffffff19606083901b166020820152909150603401604051602081830303815290604052935085816001600160a01b031660027fa1fb700aaee2ae4a2ff6f91ce7eba292f89c2f5488b8ec4c5c5c8150692595c386604051611cd891815260200190565b60405180910390a450505092915050565b606060006001600160a01b03841660037f4810874456b8e6487bd861375cf6abd8e1c8bb5858c8ce36a86a04dabfac199e611d23866129d1565b6040516001600160e01b0319909116815260200160405180910390a4600080846001600160a01b031684604051611d5a9190612883565b600060405180830381855afa9150503d8060008114611d95576040519150601f19603f3d011682016040523d82523d6000602084013e611d9a565b606091505b5091509150611ddf82826040518060400160405280601681526020017f455243373235583a20556e6b6e6f776e204572726f7200000000000000000000815250611de8565b95945050505050565b60608315611df7575081610fa1565b610fa18383611fb9565b60006001600160e01b031982167f7545acac0000000000000000000000000000000000000000000000000000000014806104ae57506301ffc9a760e01b6001600160e01b03198316146104ae565b6000611e5c8260206127de565b83511015611eac5760405162461bcd60e51b815260206004820152601560248201527f746f427974657333325f6f75744f66426f756e6473000000000000000000000060448201526064016103d0565b50016020015190565b600083471015611f075760405162461bcd60e51b815260206004820152601d60248201527f437265617465323a20696e73756666696369656e742062616c616e636500000060448201526064016103d0565b8151600003611f585760405162461bcd60e51b815260206004820181905260248201527f437265617465323a2062797465636f6465206c656e677468206973207a65726f60448201526064016103d0565b8282516020840186f590506001600160a01b038116610fa15760405162461bcd60e51b815260206004820152601960248201527f437265617465323a204661696c6564206f6e206465706c6f790000000000000060448201526064016103d0565b815115611fc95781518083602001fd5b8060405162461bcd60e51b81526004016103d0919061240f565b600060208284031215611ff557600080fd5b81356001600160e01b031981168114610fa157600080fd5b634e487b7160e01b600052604160045260246000fd5b604051601f8201601f1916810167ffffffffffffffff8111828210171561204c5761204c61200d565b604052919050565b600067ffffffffffffffff82111561206e5761206e61200d565b5060051b60200190565b600082601f83011261208957600080fd5b8135602061209e61209983612054565b612023565b82815260059290921b840181019181810190868411156120bd57600080fd5b8286015b848110156120d857803583529183019183016120c1565b509695505050505050565b80356001600160a01b03811681146120fa57600080fd5b919050565b600067ffffffffffffffff8211156121195761211961200d565b50601f01601f191660200190565b600082601f83011261213857600080fd5b8135612146612099826120ff565b81815284602083860101111561215b57600080fd5b816020850160208301376000918101602001919091529392505050565b600082601f83011261218957600080fd5b8135602061219961209983612054565b82815260059290921b840181019181810190868411156121b857600080fd5b8286015b848110156120d857803567ffffffffffffffff8111156121dc5760008081fd5b6121ea8986838b0101612127565b8452509183019183016121bc565b6000806000806080858703121561220e57600080fd5b843567ffffffffffffffff8082111561222657600080fd5b61223288838901612078565b955060209150818701358181111561224957600080fd5b8701601f8101891361225a57600080fd5b803561226861209982612054565b81815260059190911b8201840190848101908b83111561228757600080fd5b928501925b828410156122ac5761229d846120e3565b8252928501929085019061228c565b975050505060408701359150808211156122c557600080fd5b6122d188838901612078565b935060608701359150808211156122e757600080fd5b506122f487828801612178565b91505092959194509250565b60005b8381101561231b578181015183820152602001612303565b83811115610bc35750506000910152565b60008151808452612344816020860160208601612300565b601f01601f19169290920160200192915050565b6000602080830181845280855180835260408601915060408160051b870101925083870160005b828110156123ad57603f1988860301845261239b85835161232c565b9450928501929085019060010161237f565b5092979650505050505050565b600080600080608085870312156123d057600080fd5b843593506123e0602086016120e3565b925060408501359150606085013567ffffffffffffffff81111561240357600080fd5b6122f487828801612127565b602081526000610fa1602083018461232c565b60006020828403121561243457600080fd5b5035919050565b6000806020838503121561244e57600080fd5b823567ffffffffffffffff8082111561246657600080fd5b818501915085601f83011261247a57600080fd5b81358181111561248957600080fd5b8660208260051b850101111561249e57600080fd5b60209290920196919550909350505050565b6000806000604084860312156124c557600080fd5b83359250602084013567ffffffffffffffff808211156124e457600080fd5b818601915086601f8301126124f857600080fd5b81358181111561250757600080fd5b87602082850101111561251957600080fd5b6020830194508093505050509250925092565b6000806040838503121561253f57600080fd5b82359150602083013567ffffffffffffffff81111561255d57600080fd5b61256985828601612127565b9150509250929050565b6000806040838503121561258657600080fd5b823567ffffffffffffffff8082111561259e57600080fd5b6125aa86838701612078565b935060208501359150808211156125c057600080fd5b5061256985828601612178565b6000602082840312156125df57600080fd5b813567ffffffffffffffff8111156125f657600080fd5b61050184828501612078565b60006020828403121561261457600080fd5b610fa1826120e3565b634e487b7160e01b600052603260045260246000fd5b6000808335601e1984360301811261264a57600080fd5b83018035915067ffffffffffffffff82111561266557600080fd5b60200191503681900382131561267a57600080fd5b9250929050565b8183823760009101908152919050565b805160208201516bffffffffffffffffffffffff1980821692919060148310156126c55780818460140360031b1b83161693505b505050919050565b6040815260006126e0604083018561232c565b8281036020840152611ddf818561232c565b81835281816020850137506000828201602090810191909152601f909101601f19169091010190565b60408152600061272f6040830185876126f2565b8281036020840152611ada818561232c565b828152604060208201526000610501604083018461232c565b60006020828403121561276c57600080fd5b815167ffffffffffffffff81111561278357600080fd5b8201601f8101841361279457600080fd5b80516127a2612099826120ff565b8181528560208385010111156127b757600080fd5b611ddf826020830160208601612300565b634e487b7160e01b600052601160045260246000fd5b600082198211156127f1576127f16127c8565b500190565b600181811c9082168061280a57607f821691505b602082108103610c6e57634e487b7160e01b600052602260045260246000fd5b8381526040602082015260006104fe6040830184866126f2565b60008451612856818460208901612300565b60609490941b6bffffffffffffffffffffffff191691909301908152601481019190915260340192915050565b60008251612895818460208701612300565b9190910192915050565b80516020808301519190811015610c6e5760001960209190910360031b1b16919050565b601f82111561040d57600081815260208120601f850160051c810160208610156128ea5750805b601f850160051c820191505b81811015612909578281556001016128f6565b505050505050565b815167ffffffffffffffff81111561292b5761292b61200d565b61293f8161293984546127f6565b846128c3565b602080601f831160018114612974576000841561295c5750858301515b600019600386901b1c1916600185901b178555612909565b600085815260208120601f198616915b828110156129a357888601518255948401946001909101908401612984565b50858210156129c15787850151600019600388901b60f8161c191681555b5050505050600190811b01905550565b6000815160208301516001600160e01b0319808216935060048310156126c55760049290920360031b82901b161692915050565b600082821015612a1757612a176127c8565b50039056fea2646970667358221220ab16dfaf2b729257a0368d34733d824bb53fed8049994c9d73bef98da5601f6364736f6c634300080f0033",
  "linkReferences": {},
  "deployedLinkReferences": {}
}