{
  "_format": "hh-sol-artifact-1",
  "contractName": "LSP9VaultInit",
  "sourceName": "contracts/LSP9Vault/LSP9VaultInit.sol",
  "abi": [
    {
      "inputs": [],
      "stateMutability": "nonpayable",
      "type": "constructor"
    },
    {
      "inputs": [],
      "name": "CannotTransferOwnershipToSelf",
      "type": "error"
    },
    {
      "inputs": [],
      "name": "ERC725X_ContractDeploymentFailed",
      "type": "error"
    },
    {
      "inputs": [],
      "name": "ERC725X_CreateOperationsRequireEmptyRecipientAddress",
      "type": "error"
    },
    {
      "inputs": [],
      "name": "ERC725X_ExecuteParametersEmptyArray",
      "type": "error"
    },
    {
      "inputs": [],
      "name": "ERC725X_ExecuteParametersLengthMismatch",
      "type": "error"
    },
    {
      "inputs": [
        {
          "internalType": "uint256",
          "name": "balance",
          "type": "uint256"
        },
        {
          "internalType": "uint256",
          "name": "value",
          "type": "uint256"
        }
      ],
      "name": "ERC725X_InsufficientBalance",
      "type": "error"
    },
    {
      "inputs": [],
      "name": "ERC725X_MsgValueDisallowedInStaticCall",
      "type": "error"
    },
    {
      "inputs": [],
      "name": "ERC725X_NoContractBytecodeProvided",
      "type": "error"
    },
    {
      "inputs": [
        {
          "internalType": "uint256",
          "name": "operationTypeProvided",
          "type": "uint256"
        }
      ],
      "name": "ERC725X_UnknownOperationType",
      "type": "error"
    },
    {
      "inputs": [],
      "name": "ERC725Y_DataKeysValuesLengthMismatch",
      "type": "error"
    },
    {
      "inputs": [],
      "name": "ERC725Y_MsgValueDisallowed",
      "type": "error"
    },
    {
      "inputs": [
        {
          "internalType": "bytes32",
          "name": "dataKey",
          "type": "bytes32"
        }
      ],
      "name": "LSP1DelegateNotAllowedToSetDataKey",
      "type": "error"
    },
    {
      "inputs": [
        {
          "internalType": "bytes4",
          "name": "functionSelector",
          "type": "bytes4"
        }
      ],
      "name": "NoExtensionFoundForFunctionSelector",
      "type": "error"
    },
    {
      "inputs": [
        {
          "internalType": "uint256",
          "name": "renounceOwnershipStart",
          "type": "uint256"
        },
        {
          "internalType": "uint256",
          "name": "renounceOwnershipEnd",
          "type": "uint256"
        }
      ],
      "name": "NotInRenounceOwnershipInterval",
      "type": "error"
    },
    {
      "anonymous": false,
      "inputs": [
        {
          "indexed": true,
          "internalType": "uint256",
          "name": "operationType",
          "type": "uint256"
        },
        {
          "indexed": true,
          "internalType": "address",
          "name": "contractAddress",
          "type": "address"
        },
        {
          "indexed": true,
          "internalType": "uint256",
          "name": "value",
          "type": "uint256"
        },
        {
          "indexed": false,
          "internalType": "bytes32",
          "name": "salt",
          "type": "bytes32"
        }
      ],
      "name": "ContractCreated",
      "type": "event"
    },
    {
      "anonymous": false,
      "inputs": [
        {
          "indexed": true,
          "internalType": "bytes32",
          "name": "dataKey",
          "type": "bytes32"
        },
        {
          "indexed": false,
          "internalType": "bytes",
          "name": "dataValue",
          "type": "bytes"
        }
      ],
      "name": "DataChanged",
      "type": "event"
    },
    {
      "anonymous": false,
      "inputs": [
        {
          "indexed": true,
          "internalType": "uint256",
          "name": "operationType",
          "type": "uint256"
        },
        {
          "indexed": true,
          "internalType": "address",
          "name": "target",
          "type": "address"
        },
        {
          "indexed": true,
          "internalType": "uint256",
          "name": "value",
          "type": "uint256"
        },
        {
          "indexed": false,
          "internalType": "bytes4",
          "name": "selector",
          "type": "bytes4"
        }
      ],
      "name": "Executed",
      "type": "event"
    },
    {
      "anonymous": false,
      "inputs": [
        {
          "indexed": false,
          "internalType": "uint8",
          "name": "version",
          "type": "uint8"
        }
      ],
      "name": "Initialized",
      "type": "event"
    },
    {
      "anonymous": false,
      "inputs": [],
      "name": "OwnershipRenounced",
      "type": "event"
    },
    {
      "anonymous": false,
      "inputs": [
        {
          "indexed": true,
          "internalType": "address",
          "name": "previousOwner",
          "type": "address"
        },
        {
          "indexed": true,
          "internalType": "address",
          "name": "newOwner",
          "type": "address"
        }
      ],
      "name": "OwnershipTransferStarted",
      "type": "event"
    },
    {
      "anonymous": false,
      "inputs": [
        {
          "indexed": true,
          "internalType": "address",
          "name": "previousOwner",
          "type": "address"
        },
        {
          "indexed": true,
          "internalType": "address",
          "name": "newOwner",
          "type": "address"
        }
      ],
      "name": "OwnershipTransferred",
      "type": "event"
    },
    {
      "anonymous": false,
      "inputs": [],
      "name": "RenounceOwnershipStarted",
      "type": "event"
    },
    {
      "anonymous": false,
      "inputs": [
        {
          "indexed": true,
          "internalType": "address",
          "name": "from",
          "type": "address"
        },
        {
          "indexed": true,
          "internalType": "uint256",
          "name": "value",
          "type": "uint256"
        },
        {
          "indexed": true,
          "internalType": "bytes32",
          "name": "typeId",
          "type": "bytes32"
        },
        {
          "indexed": false,
          "internalType": "bytes",
          "name": "receivedData",
          "type": "bytes"
        },
        {
          "indexed": false,
          "internalType": "bytes",
          "name": "returnedValue",
          "type": "bytes"
        }
      ],
      "name": "UniversalReceiver",
      "type": "event"
    },
    {
      "anonymous": false,
      "inputs": [
        {
          "indexed": true,
          "internalType": "address",
          "name": "sender",
          "type": "address"
        },
        {
          "indexed": true,
          "internalType": "uint256",
          "name": "value",
          "type": "uint256"
        }
      ],
      "name": "ValueReceived",
      "type": "event"
    },
    {
      "stateMutability": "payable",
      "type": "fallback"
    },
    {
      "inputs": [],
      "name": "RENOUNCE_OWNERSHIP_CONFIRMATION_DELAY",
      "outputs": [
        {
          "internalType": "uint256",
          "name": "",
          "type": "uint256"
        }
      ],
      "stateMutability": "view",
      "type": "function"
    },
    {
      "inputs": [],
      "name": "RENOUNCE_OWNERSHIP_CONFIRMATION_PERIOD",
      "outputs": [
        {
          "internalType": "uint256",
          "name": "",
          "type": "uint256"
        }
      ],
      "stateMutability": "view",
      "type": "function"
    },
    {
      "inputs": [],
      "name": "acceptOwnership",
      "outputs": [],
      "stateMutability": "nonpayable",
      "type": "function"
    },
    {
      "inputs": [
        {
          "internalType": "bytes[]",
          "name": "data",
          "type": "bytes[]"
        }
      ],
      "name": "batchCalls",
      "outputs": [
        {
          "internalType": "bytes[]",
          "name": "results",
          "type": "bytes[]"
        }
      ],
      "stateMutability": "nonpayable",
      "type": "function"
    },
    {
      "inputs": [
        {
          "internalType": "uint256",
          "name": "operationType",
          "type": "uint256"
        },
        {
          "internalType": "address",
          "name": "target",
          "type": "address"
        },
        {
          "internalType": "uint256",
          "name": "value",
          "type": "uint256"
        },
        {
          "internalType": "bytes",
          "name": "data",
          "type": "bytes"
        }
      ],
      "name": "execute",
      "outputs": [
        {
          "internalType": "bytes",
          "name": "",
          "type": "bytes"
        }
      ],
      "stateMutability": "payable",
      "type": "function"
    },
    {
      "inputs": [
        {
          "internalType": "uint256[]",
          "name": "operationsType",
          "type": "uint256[]"
        },
        {
          "internalType": "address[]",
          "name": "targets",
          "type": "address[]"
        },
        {
          "internalType": "uint256[]",
          "name": "values",
          "type": "uint256[]"
        },
        {
          "internalType": "bytes[]",
          "name": "datas",
          "type": "bytes[]"
        }
      ],
      "name": "executeBatch",
      "outputs": [
        {
          "internalType": "bytes[]",
          "name": "",
          "type": "bytes[]"
        }
      ],
      "stateMutability": "payable",
      "type": "function"
    },
    {
      "inputs": [
        {
          "internalType": "bytes32",
          "name": "dataKey",
          "type": "bytes32"
        }
      ],
      "name": "getData",
      "outputs": [
        {
          "internalType": "bytes",
          "name": "dataValue",
          "type": "bytes"
        }
      ],
      "stateMutability": "view",
      "type": "function"
    },
    {
      "inputs": [
        {
          "internalType": "bytes32[]",
          "name": "dataKeys",
          "type": "bytes32[]"
        }
      ],
      "name": "getDataBatch",
      "outputs": [
        {
          "internalType": "bytes[]",
          "name": "dataValues",
          "type": "bytes[]"
        }
      ],
      "stateMutability": "view",
      "type": "function"
    },
    {
      "inputs": [
        {
          "internalType": "address",
          "name": "newOwner",
          "type": "address"
        }
      ],
      "name": "initialize",
      "outputs": [],
      "stateMutability": "payable",
      "type": "function"
    },
    {
      "inputs": [],
      "name": "owner",
      "outputs": [
        {
          "internalType": "address",
          "name": "",
          "type": "address"
        }
      ],
      "stateMutability": "view",
      "type": "function"
    },
    {
      "inputs": [],
      "name": "pendingOwner",
      "outputs": [
        {
          "internalType": "address",
          "name": "",
          "type": "address"
        }
      ],
      "stateMutability": "view",
      "type": "function"
    },
    {
      "inputs": [],
      "name": "renounceOwnership",
      "outputs": [],
      "stateMutability": "nonpayable",
      "type": "function"
    },
    {
      "inputs": [
        {
          "internalType": "bytes32",
          "name": "dataKey",
          "type": "bytes32"
        },
        {
          "internalType": "bytes",
          "name": "dataValue",
          "type": "bytes"
        }
      ],
      "name": "setData",
      "outputs": [],
      "stateMutability": "payable",
      "type": "function"
    },
    {
      "inputs": [
        {
          "internalType": "bytes32[]",
          "name": "dataKeys",
          "type": "bytes32[]"
        },
        {
          "internalType": "bytes[]",
          "name": "dataValues",
          "type": "bytes[]"
        }
      ],
      "name": "setDataBatch",
      "outputs": [],
      "stateMutability": "payable",
      "type": "function"
    },
    {
      "inputs": [
        {
          "internalType": "bytes4",
          "name": "interfaceId",
          "type": "bytes4"
        }
      ],
      "name": "supportsInterface",
      "outputs": [
        {
          "internalType": "bool",
          "name": "",
          "type": "bool"
        }
      ],
      "stateMutability": "view",
      "type": "function"
    },
    {
      "inputs": [
        {
          "internalType": "address",
          "name": "newOwner",
          "type": "address"
        }
      ],
      "name": "transferOwnership",
      "outputs": [],
      "stateMutability": "nonpayable",
      "type": "function"
    },
    {
      "inputs": [
        {
          "internalType": "bytes32",
          "name": "typeId",
          "type": "bytes32"
        },
        {
          "internalType": "bytes",
          "name": "receivedData",
          "type": "bytes"
        }
      ],
      "name": "universalReceiver",
      "outputs": [
        {
          "internalType": "bytes",
          "name": "returnedValues",
          "type": "bytes"
        }
      ],
      "stateMutability": "payable",
      "type": "function"
    },
    {
      "stateMutability": "payable",
      "type": "receive"
    }
  ],
  "bytecode": "0x60806040523480156200001157600080fd5b506200001c62000022565b620000e4565b600054610100900460ff16156200008f5760405162461bcd60e51b815260206004820152602760248201527f496e697469616c697a61626c653a20636f6e747261637420697320696e697469604482015266616c697a696e6760c81b606482015260840160405180910390fd5b60005460ff9081161015620000e2576000805460ff191660ff9081179091556040519081527f7f26b83ff96e1f2b6a682f133852f6798a09c465da95921460cefb38474024989060200160405180910390a15b565b612d5380620000f46000396000f3fe6080604052600436106101125760003560e01c806379ba5097116100a5578063c4d66de811610074578063e30c397811610059578063e30c39781461033a578063ead3fbdf14610194578063f2fde38b146103585761014d565b8063c4d66de814610307578063dedff9c61461031a5761014d565b806379ba5097146102945780637f23690c146102a95780638da5cb5b146102bc57806397902421146102f45761014d565b806354f6127f116100e157806354f6127f1461022c5780636963d4381461024c5780636bb56a141461026c578063715018a61461027f5761014d565b806301bfba611461019457806301ffc9a7146101bc57806331858452146101ec57806344c028fe1461020c5761014d565b3661014d57341561014b57604051349033907f7e71433ddf847725166244795048ecf3e3f9f35628254ecbf73605666423349390600090a35b005b341561018157604051349033907f7e71433ddf847725166244795048ecf3e3f9f35628254ecbf73605666423349390600090a35b600436101561018c57005b61014b610378565b3480156101a057600080fd5b506101a960c881565b6040519081526020015b60405180910390f35b3480156101c857600080fd5b506101dc6101d73660046122e4565b610446565b60405190151581526020016101b3565b6101ff6101fa3660046124f9565b6104e8565b6040516101b39190612659565b61021f61021a3660046126bb565b61053d565b6040516101b39190612710565b34801561023857600080fd5b5061021f610247366004612723565b610587565b34801561025857600080fd5b506101ff61026736600461273c565b610592565b61021f61027a3660046127b1565b6106f5565b34801561028b57600080fd5b5061014b6108cb565b3480156102a057600080fd5b5061014b6108dd565b61014b6102b736600461282d565b61097b565b3480156102c857600080fd5b506000546201000090046001600160a01b03165b6040516001600160a01b0390911681526020016101b3565b61014b610302366004612874565b610a47565b61014b6103153660046128ce565b610c03565b34801561032657600080fd5b506101ff6103353660046128e9565b610d25565b34801561034657600080fd5b506003546001600160a01b03166102dc565b34801561036457600080fd5b5061014b6103733660046128ce565b610dd0565b600061038f6000356001600160e01b031916610ef2565b90506000356001600160e01b0319161580156103b257506001600160a01b038116155b156103ba5750565b6001600160a01b03811661040d576040517fbb370b2b0000000000000000000000000000000000000000000000000000000081526001600160e01b03196000351660048201526024015b60405180910390fd5b36600080373360601b365234601436015260008060343601600080855af13d6000803e80801561043c573d6000f35b3d6000fd5b505050565b60006001600160e01b031982167f28af17e600000000000000000000000000000000000000000000000000000000148061049057506001600160e01b03198216631aed5a8560e21b145b806104c457506001600160e01b031982167f94be599900000000000000000000000000000000000000000000000000000000145b806104d357506104d382610f37565b806104e257506104e282610f75565b92915050565b60606104f2610fb2565b341561052657604051349033907f7e71433ddf847725166244795048ecf3e3f9f35628254ecbf73605666423349390600090a35b61053285858585611013565b90505b949350505050565b6060610547610fb2565b341561057b57604051349033907f7e71433ddf847725166244795048ecf3e3f9f35628254ecbf73605666423349390600090a35b610532858585856111a3565b60606104e2826112af565b60608167ffffffffffffffff8111156105ad576105ad61230e565b6040519080825280602002602001820160405280156105e057816020015b60608152602001906001900390816105cb5790505b50905060005b828110156106ee57600080308686858181106106045761060461291e565b90506020028101906106169190612934565b604051610624929190612982565b600060405180830381855af49150503d806000811461065f576040519150601f19603f3d011682016040523d82523d6000602084013e610664565b606091505b5091509150816106c65780511561067e5780518082602001fd5b60405162461bcd60e51b815260206004820152601960248201527f4c5350393a20626174636843616c6c73207265766572746564000000000000006044820152606401610404565b808484815181106106d9576106d961291e565b602090810291909101015250506001016105e6565b5092915050565b6060341561072b57604051349033907f7e71433ddf847725166244795048ecf3e3f9f35628254ecbf73605666423349390600090a35b60006107567f0cfc51aec37c55a4d0b1a65c6255c4bf2fbdf6277f3cc0730c45b828b6db8b476112af565b9050606060148251106107ba57600061076e83612992565b60601c905061078481631aed5a8560e21b611351565b156107b857600480546001600160a01b0319166001600160a01b0383169081179091556107b59088888833346113ef565b91505b505b60006107d3690cfc51aec37c55a4d0b160b01b8861154c565b905060006107e0826112af565b9050606060148251106108445760006107f883612992565b60601c905061080e81631aed5a8560e21b611351565b1561084257600480546001600160a01b0319166001600160a01b03831690811790915561083f908b8b8b33346113ef565b91505b505b600480546001600160a01b031916905560405161086790859083906020016129ce565b60405160208183030381529060405295508834336001600160a01b03167f9c3ba68eb5742b8e3961aea0afc7371a71bf433c8a67a831803b64c064a178c28b8b8b6040516108b793929190612a1c565b60405180910390a450505050509392505050565b6108d3610fb2565b6108db6115b5565b565b6000546201000090046001600160a01b03166108f76116b1565b60408051602081019091526000815261093c906001600160a01b038316907f0c622e58e6b7089ae35f1af1c86d997be92fcdd8c9509652022d41aa651694719061174c565b6040805160208101909152600081526109789033907f79855c97dbc259ce395421d933d7bc0699b0f1561f988f09a9e8633fd542fe5c9061174c565b50565b341561099a5760405163f36ba73760e01b815260040160405180910390fd5b60006109a46117d7565b90508015610a3d576001600160a01b03198316690cfc51aec37c55a4d0b160b01b14806109fb57507fffffffffffff00000000000000000000000000000000000000000000000000008316654b80742de2bf60d01b145b80610a1c57506001600160a01b03198316696773c5a04a6d4300884b60b11b145b15610a3d5760405163199611f160e01b815260048101849052602401610404565b6104418383611889565b6000610a516117d7565b90508151835114610a8e576040517f3bcc897900000000000000000000000000000000000000000000000000000000815260040160405180910390fd5b3415610aad5760405163f36ba73760e01b815260040160405180910390fd5b60005b8351811015610bfd578115610bb9578351690cfc51aec37c55a4d0b160b01b90859083908110610ae257610ae261291e565b60200260200101516001600160a01b0319161480610b4157508351654b80742de2bf60d01b90859083908110610b1a57610b1a61291e565b602002602001015179ffffffffffffffffffffffffffffffffffffffffffffffffffff1916145b80610b7e57508351696773c5a04a6d4300884b60b11b90859083908110610b6a57610b6a61291e565b60200260200101516001600160a01b031916145b15610bb957838181518110610b9557610b9561291e565b602002602001015160405163199611f160e01b815260040161040491815260200190565b610bf5848281518110610bce57610bce61291e565b6020026020010151848381518110610be857610be861291e565b6020026020010151611889565b600101610ab0565b50505050565b600054610100900460ff1615808015610c235750600054600160ff909116105b80610c3d5750303b158015610c3d575060005460ff166001145b610caf5760405162461bcd60e51b815260206004820152602e60248201527f496e697469616c697a61626c653a20636f6e747261637420697320616c72656160448201527f647920696e697469616c697a65640000000000000000000000000000000000006064820152608401610404565b6000805460ff191660011790558015610cd2576000805461ff0019166101001790555b610cdb826118fd565b8015610d21576000805461ff0019169055604051600181527f7f26b83ff96e1f2b6a682f133852f6798a09c465da95921460cefb38474024989060200160405180910390a15b5050565b6060815167ffffffffffffffff811115610d4157610d4161230e565b604051908082528060200260200182016040528015610d7457816020015b6060815260200190600190039081610d5f5790505b50905060005b8251811015610dca57610da5838281518110610d9857610d9861291e565b60200260200101516112af565b828281518110610db757610db761291e565b6020908102919091010152600101610d7a565b50919050565b610dd8610fb2565b610de181611a5e565b600080546040516001600160a01b03620100009092048216929184169183917f38d16b8cac22d99fc7c124b9cd0de2d3fa1faef420bfe791d8c362d765e227009190a3604080516020810190915260008152610e69906001600160a01b038416907faefd43f45fed1bcd8992f23c803b6f4ec45cf6b62b0d404d565f290a471e763f9061174c565b6000546001600160a01b03828116620100009092041614610d215760405162461bcd60e51b815260206004820152603f60248201527f4c535031343a206e65774f776e6572204d55535420616363657074206f776e6560448201527f727368697020696e2061207365706172617465207472616e73616374696f6e006064820152608401610404565b600080610f16696773c5a04a6d4300884b60b11b6001600160e01b0319851661154c565b90506000610f23826112af565b610f2c90612992565b60601c949350505050565b60006001600160e01b031982167fa918fa6b0000000000000000000000000000000000000000000000000000000014806104e257506104e282611ac7565b600080610f886301ffc9a760e01b610ef2565b90506001600160a01b038116610fa15750600092915050565b610fab8184611351565b9392505050565b6000546001600160a01b03620100009091041633146108db5760405162461bcd60e51b815260206004820181905260248201527f4f776e61626c653a2063616c6c6572206973206e6f7420746865206f776e65726044820152606401610404565b60608351855114158061103457508251845114158061103457508151835114155b1561106b576040517f3ff55f4d00000000000000000000000000000000000000000000000000000000815260040160405180910390fd5b84516000036110a6576040517fe9ad2b5f00000000000000000000000000000000000000000000000000000000815260040160405180910390fd5b6000855167ffffffffffffffff8111156110c2576110c261230e565b6040519080825280602002602001820160405280156110f557816020015b60608152602001906001900390816110e05790505b50905060005b8651811015611199576111748782815181106111195761111961291e565b60200260200101518783815181106111335761113361291e565b602002602001015187848151811061114d5761114d61291e565b60200260200101518785815181106111675761116761291e565b60200260200101516111a3565b8282815181106111865761118661291e565b60209081029190910101526001016110fb565b5095945050505050565b6060846111bc576111b5848484611b05565b9050610535565b600185036111f6576001600160a01b038416156111ec57604051631820c12560e11b815260040160405180910390fd5b6111b58383611c31565b60028503611230576001600160a01b0384161561122657604051631820c12560e11b815260040160405180910390fd5b6111b58383611d4b565b6003850361127a578215611270576040517f72f2bc6a00000000000000000000000000000000000000000000000000000000815260040160405180910390fd5b6111b58483611e36565b6040517f7583b3bc00000000000000000000000000000000000000000000000000000000815260048101869052602401610404565b60008181526001602052604090208054606091906112cc90612a42565b80601f01602080910402602001604051908101604052809291908181526020018280546112f890612a42565b80156113455780601f1061131a57610100808354040283529160200191611345565b820191906000526020600020905b81548152906001019060200180831161132857829003601f168201915b50505050509050919050565b604080516001600160e01b03198316602480830191909152825180830390910181526044909101909152602080820180517bffffffffffffffffffffffffffffffffffffffffffffffffffffffff166301ffc9a760e01b178152825160009392849283928392918391908a617530fa92503d915060005190508280156113d8575060208210155b80156113e45750600081115b979650505050505050565b60606000636bb56a1460e01b87878760405160240161141093929190612a76565b60408051601f19818403018152918152602080830180517bffffffffffffffffffffffffffffffffffffffffffffffffffffffff166001600160e01b03199095169490941790935251611467928791879101612a90565b6040516020818303038152906040529050600080896001600160a01b0316836040516114939190612acf565b6000604051808303816000865af19150503d80600081146114d0576040519150601f19603f3d011682016040523d82523d6000602084013e6114d5565b606091505b509150915061151a82826040518060400160405280602081526020017f43616c6c20746f20756e6976657273616c5265636569766572206661696c6564815250611f35565b50805160000361152a578061153e565b8080602001905181019061153e9190612aeb565b9a9950505050505050505050565b604080517fffffffffffffffffffff00000000000000000000000000000000000000000000841660208201526000602a82018190526bffffffffffffffffffffffff198416602c8301529182910160405160208183030381529060405290508061053590612b59565b60025443906000906115c99060c890612b93565b905060006115d860c883612b93565b9050808311806115e85750600254155b15611630576002839055600380546001600160a01b03191690556040517f81b7f830f1f0084db6497c486cbe6974c86488dcc4e3738eab94ab6d6b1653e790600090a1505050565b81831015611674576040517f8b9bf5070000000000000000000000000000000000000000000000000000000081526004810183905260248101829052604401610404565b61167e6000611f4e565b600060028190556040517fd1f66c3d2bc1993a86be5e3d33709d98f0442381befcedd29f578b9b2506b1ce9190a1505050565b6003546001600160a01b031633146117315760405162461bcd60e51b815260206004820152602560248201527f4c535031343a2063616c6c6572206973206e6f74207468652070656e64696e6760448201527f4f776e65720000000000000000000000000000000000000000000000000000006064820152608401610404565b61173a33611f4e565b600380546001600160a01b0319169055565b61175d83631aed5a8560e21b611351565b1561044157604051631aed5a8560e21b81526001600160a01b03841690636bb56a14906117909085908590600401612bab565b6000604051808303816000875af11580156117af573d6000803e3d6000fd5b505050506040513d6000823e601f3d908101601f19168201604052610bfd9190810190612aeb565b600080546201000090046001600160a01b03166001600160a01b0316336001600160a01b031614611886576004546001600160a01b031633146118825760405162461bcd60e51b815260206004820152603b60248201527f4f6e6c79204f776e6572206f72207265656e746572656420556e69766572736160448201527f6c2052656365697665722044656c656761746520616c6c6f77656400000000006064820152608401610404565b5060015b90565b60008281526001602052604090206118a18282612c12565b50817fece574603820d07bc9b91f2a932baadf4628aabcb8afba49776529c14a6104b2610100835111156118e2576118dd836000610100611fda565b6118e4565b825b6040516118f19190612710565b60405180910390a25050565b600054610100900460ff1661197a5760405162461bcd60e51b815260206004820152602b60248201527f496e697469616c697a61626c653a20636f6e7472616374206973206e6f74206960448201527f6e697469616c697a696e670000000000000000000000000000000000000000006064820152608401610404565b34156119ae57604051349033907f7e71433ddf847725166244795048ecf3e3f9f35628254ecbf73605666423349390600090a35b6119b781611f4e565b611a197feafec4d89fa9619884b600007c0334a14085fefa8b51ae5a40895018882bdb9060001b6040518060400160405280600481526020017f7c0334a100000000000000000000000000000000000000000000000000000000815250611889565b604080516020810190915260008152610978906001600160a01b038316907f79855c97dbc259ce395421d933d7bc0699b0f1561f988f09a9e8633fd542fe5c9061174c565b306001600160a01b03821603611aa0576040517f43b248cd00000000000000000000000000000000000000000000000000000000815260040160405180910390fd5b600380546001600160a01b0319166001600160a01b03929092169190911790556000600255565b60006001600160e01b031982167f629aa6940000000000000000000000000000000000000000000000000000000014806104e257506104e282612102565b606082471015611b31576040516301bf351f60e31b815247600482015260248101849052604401610404565b826001600160a01b03851660007f4810874456b8e6487bd861375cf6abd8e1c8bb5858c8ce36a86a04dabfac199e611b6886612cd2565b6040516001600160e01b0319909116815260200160405180910390a4600080856001600160a01b03168585604051611ba09190612acf565b60006040518083038185875af1925050503d8060008114611bdd576040519150601f19603f3d011682016040523d82523d6000602084013e611be2565b606091505b5091509150611c2782826040518060400160405280601681526020017f455243373235583a20556e6b6e6f776e204572726f7200000000000000000000815250611f35565b9695505050505050565b606082471015611c5d576040516301bf351f60e31b815247600482015260248101849052604401610404565b8151600003611c7f5760405163b81cd8d960e01b815260040160405180910390fd5b600082516020840185f090506001600160a01b038116611ccb576040517f0b07489b00000000000000000000000000000000000000000000000000000000815260040160405180910390fd5b6040516bffffffffffffffffffffffff19606083901b166020820152603401604051602081830303815290604052915083816001600160a01b031660017fa1fb700aaee2ae4a2ff6f91ce7eba292f89c2f5488b8ec4c5c5c8150692595c36000801b604051611d3c91815260200190565b60405180910390a45092915050565b60608151600003611d6f5760405163b81cd8d960e01b815260040160405180910390fd5b6000611d888360208551611d839190612d06565b612150565b90506000611da584600060208751611da09190612d06565b611fda565b90506000611db48684846121b6565b6040516bffffffffffffffffffffffff19606083901b166020820152909150603401604051602081830303815290604052935085816001600160a01b031660027fa1fb700aaee2ae4a2ff6f91ce7eba292f89c2f5488b8ec4c5c5c8150692595c386604051611e2591815260200190565b60405180910390a450505092915050565b606060006001600160a01b03841660037f4810874456b8e6487bd861375cf6abd8e1c8bb5858c8ce36a86a04dabfac199e611e7086612cd2565b6040516001600160e01b0319909116815260200160405180910390a4600080846001600160a01b031684604051611ea79190612acf565b600060405180830381855afa9150503d8060008114611ee2576040519150601f19603f3d011682016040523d82523d6000602084013e611ee7565b606091505b5091509150611f2c82826040518060400160405280601681526020017f455243373235583a20556e6b6e6f776e204572726f7200000000000000000000815250611f35565b95945050505050565b60608315611f44575081610fab565b610fab83836122ba565b6000546001600160a01b0382811662010000909204161461097857600080546001600160a01b03838116620100008181027fffffffffffffffffffff0000000000000000000000000000000000000000ffff851617855560405193049190911692909183917f8be0079c531659141344cd1fd0a4f28419497f9722a3daafe3b4186f6b6457e091a35050565b606081611fe881601f612b93565b10156120365760405162461bcd60e51b815260206004820152600e60248201527f736c6963655f6f766572666c6f770000000000000000000000000000000000006044820152606401610404565b6120408284612b93565b845110156120905760405162461bcd60e51b815260206004820152601160248201527f736c6963655f6f75744f66426f756e64730000000000000000000000000000006044820152606401610404565b6060821580156120af57604051915060008252602082016040526120f9565b6040519150601f8416801560200281840101858101878315602002848b0101015b818310156120e85780518352602092830192016120d0565b5050858452601f01601f1916604052505b50949350505050565b60006001600160e01b031982167f7545acac0000000000000000000000000000000000000000000000000000000014806104e257506301ffc9a760e01b6001600160e01b03198316146104e2565b600061215d826020612b93565b835110156121ad5760405162461bcd60e51b815260206004820152601560248201527f746f427974657333325f6f75744f66426f756e647300000000000000000000006044820152606401610404565b50016020015190565b6000834710156122085760405162461bcd60e51b815260206004820152601d60248201527f437265617465323a20696e73756666696369656e742062616c616e63650000006044820152606401610404565b81516000036122595760405162461bcd60e51b815260206004820181905260248201527f437265617465323a2062797465636f6465206c656e677468206973207a65726f6044820152606401610404565b8282516020840186f590506001600160a01b038116610fab5760405162461bcd60e51b815260206004820152601960248201527f437265617465323a204661696c6564206f6e206465706c6f79000000000000006044820152606401610404565b8151156122ca5781518083602001fd5b8060405162461bcd60e51b81526004016104049190612710565b6000602082840312156122f657600080fd5b81356001600160e01b031981168114610fab57600080fd5b634e487b7160e01b600052604160045260246000fd5b604051601f8201601f1916810167ffffffffffffffff8111828210171561234d5761234d61230e565b604052919050565b600067ffffffffffffffff82111561236f5761236f61230e565b5060051b60200190565b600082601f83011261238a57600080fd5b8135602061239f61239a83612355565b612324565b82815260059290921b840181019181810190868411156123be57600080fd5b8286015b848110156123d957803583529183019183016123c2565b509695505050505050565b80356001600160a01b03811681146123fb57600080fd5b919050565b600067ffffffffffffffff82111561241a5761241a61230e565b50601f01601f191660200190565b600082601f83011261243957600080fd5b813561244761239a82612400565b81815284602083860101111561245c57600080fd5b816020850160208301376000918101602001919091529392505050565b600082601f83011261248a57600080fd5b8135602061249a61239a83612355565b82815260059290921b840181019181810190868411156124b957600080fd5b8286015b848110156123d957803567ffffffffffffffff8111156124dd5760008081fd5b6124eb8986838b0101612428565b8452509183019183016124bd565b6000806000806080858703121561250f57600080fd5b843567ffffffffffffffff8082111561252757600080fd5b61253388838901612379565b955060209150818701358181111561254a57600080fd5b8701601f8101891361255b57600080fd5b803561256961239a82612355565b81815260059190911b8201840190848101908b83111561258857600080fd5b928501925b828410156125ad5761259e846123e4565b8252928501929085019061258d565b975050505060408701359150808211156125c657600080fd5b6125d288838901612379565b935060608701359150808211156125e857600080fd5b506125f587828801612479565b91505092959194509250565b60005b8381101561261c578181015183820152602001612604565b83811115610bfd5750506000910152565b60008151808452612645816020860160208601612601565b601f01601f19169290920160200192915050565b6000602080830181845280855180835260408601915060408160051b870101925083870160005b828110156126ae57603f1988860301845261269c85835161262d565b94509285019290850190600101612680565b5092979650505050505050565b600080600080608085870312156126d157600080fd5b843593506126e1602086016123e4565b925060408501359150606085013567ffffffffffffffff81111561270457600080fd5b6125f587828801612428565b602081526000610fab602083018461262d565b60006020828403121561273557600080fd5b5035919050565b6000806020838503121561274f57600080fd5b823567ffffffffffffffff8082111561276757600080fd5b818501915085601f83011261277b57600080fd5b81358181111561278a57600080fd5b8660208260051b850101111561279f57600080fd5b60209290920196919550909350505050565b6000806000604084860312156127c657600080fd5b83359250602084013567ffffffffffffffff808211156127e557600080fd5b818601915086601f8301126127f957600080fd5b81358181111561280857600080fd5b87602082850101111561281a57600080fd5b6020830194508093505050509250925092565b6000806040838503121561284057600080fd5b82359150602083013567ffffffffffffffff81111561285e57600080fd5b61286a85828601612428565b9150509250929050565b6000806040838503121561288757600080fd5b823567ffffffffffffffff8082111561289f57600080fd5b6128ab86838701612379565b935060208501359150808211156128c157600080fd5b5061286a85828601612479565b6000602082840312156128e057600080fd5b610fab826123e4565b6000602082840312156128fb57600080fd5b813567ffffffffffffffff81111561291257600080fd5b61053584828501612379565b634e487b7160e01b600052603260045260246000fd5b6000808335601e1984360301811261294b57600080fd5b83018035915067ffffffffffffffff82111561296657600080fd5b60200191503681900382131561297b57600080fd5b9250929050565b8183823760009101908152919050565b805160208201516bffffffffffffffffffffffff1980821692919060148310156129c65780818460140360031b1b83161693505b505050919050565b6040815260006129e1604083018561262d565b8281036020840152611f2c818561262d565b81835281816020850137506000828201602090810191909152601f909101601f19169091010190565b604081526000612a306040830185876129f3565b8281036020840152611c27818561262d565b600181811c90821680612a5657607f821691505b602082108103610dca57634e487b7160e01b600052602260045260246000fd5b8381526040602082015260006105326040830184866129f3565b60008451612aa2818460208901612601565b60609490941b6bffffffffffffffffffffffff191691909301908152601481019190915260340192915050565b60008251612ae1818460208701612601565b9190910192915050565b600060208284031215612afd57600080fd5b815167ffffffffffffffff811115612b1457600080fd5b8201601f81018413612b2557600080fd5b8051612b3361239a82612400565b818152856020838501011115612b4857600080fd5b611f2c826020830160208601612601565b80516020808301519190811015610dca5760001960209190910360031b1b16919050565b634e487b7160e01b600052601160045260246000fd5b60008219821115612ba657612ba6612b7d565b500190565b828152604060208201526000610535604083018461262d565b601f82111561044157600081815260208120601f850160051c81016020861015612beb5750805b601f850160051c820191505b81811015612c0a57828155600101612bf7565b505050505050565b815167ffffffffffffffff811115612c2c57612c2c61230e565b612c4081612c3a8454612a42565b84612bc4565b602080601f831160018114612c755760008415612c5d5750858301515b600019600386901b1c1916600185901b178555612c0a565b600085815260208120601f198616915b82811015612ca457888601518255948401946001909101908401612c85565b5085821015612cc25787850151600019600388901b60f8161c191681555b5050505050600190811b01905550565b6000815160208301516001600160e01b0319808216935060048310156129c65760049290920360031b82901b161692915050565b600082821015612d1857612d18612b7d565b50039056fea26469706673582212201eec7a9180c403212f23faa5ba2bba41717e00ffca21d7edf93a0db1eab3208464736f6c634300080f0033",
  "linkReferences": {},
  "deployedLinkReferences": {}
}