{
  "_format": "hh-sol-artifact-1",
  "contractName": "UniversalProfile",
  "sourceName": "contracts/UniversalProfile.sol",
  "abi": [
    {
      "inputs": [
        {
          "internalType": "address",
          "name": "newOwner",
          "type": "address"
        }
      ],
      "stateMutability": "payable",
      "type": "constructor"
    },
    {
      "inputs": [],
      "name": "CannotTransferOwnershipToSelf",
      "type": "error"
    },
    {
      "inputs": [],
      "name": "ERC725X_ContractDeploymentFailed",
      "type": "error"
    },
    {
      "inputs": [],
      "name": "ERC725X_CreateOperationsRequireEmptyRecipientAddress",
      "type": "error"
    },
    {
      "inputs": [],
      "name": "ERC725X_ExecuteParametersEmptyArray",
      "type": "error"
    },
    {
      "inputs": [],
      "name": "ERC725X_ExecuteParametersLengthMismatch",
      "type": "error"
    },
    {
      "inputs": [
        {
          "internalType": "uint256",
          "name": "balance",
          "type": "uint256"
        },
        {
          "internalType": "uint256",
          "name": "value",
          "type": "uint256"
        }
      ],
      "name": "ERC725X_InsufficientBalance",
      "type": "error"
    },
    {
      "inputs": [],
      "name": "ERC725X_MsgValueDisallowedInDelegateCall",
      "type": "error"
    },
    {
      "inputs": [],
      "name": "ERC725X_MsgValueDisallowedInStaticCall",
      "type": "error"
    },
    {
      "inputs": [],
      "name": "ERC725X_NoContractBytecodeProvided",
      "type": "error"
    },
    {
      "inputs": [
        {
          "internalType": "uint256",
          "name": "operationTypeProvided",
          "type": "uint256"
        }
      ],
      "name": "ERC725X_UnknownOperationType",
      "type": "error"
    },
    {
      "inputs": [],
      "name": "ERC725Y_DataKeysValuesLengthMismatch",
      "type": "error"
    },
    {
      "inputs": [
        {
          "internalType": "bool",
          "name": "postCall",
          "type": "bool"
        }
      ],
      "name": "LSP20CallingVerifierFailed",
      "type": "error"
    },
    {
      "inputs": [
        {
          "internalType": "bool",
          "name": "postCall",
          "type": "bool"
        },
        {
          "internalType": "bytes",
          "name": "returnedData",
          "type": "bytes"
        }
      ],
      "name": "LSP20InvalidMagicValue",
      "type": "error"
    },
    {
      "inputs": [
        {
          "internalType": "bytes4",
          "name": "functionSelector",
          "type": "bytes4"
        }
      ],
      "name": "NoExtensionFoundForFunctionSelector",
      "type": "error"
    },
    {
      "inputs": [
        {
          "internalType": "uint256",
          "name": "renounceOwnershipStart",
          "type": "uint256"
        },
        {
          "internalType": "uint256",
          "name": "renounceOwnershipEnd",
          "type": "uint256"
        }
      ],
      "name": "NotInRenounceOwnershipInterval",
      "type": "error"
    },
    {
      "anonymous": false,
      "inputs": [
        {
          "indexed": true,
          "internalType": "uint256",
          "name": "operationType",
          "type": "uint256"
        },
        {
          "indexed": true,
          "internalType": "address",
          "name": "contractAddress",
          "type": "address"
        },
        {
          "indexed": true,
          "internalType": "uint256",
          "name": "value",
          "type": "uint256"
        },
        {
          "indexed": false,
          "internalType": "bytes32",
          "name": "salt",
          "type": "bytes32"
        }
      ],
      "name": "ContractCreated",
      "type": "event"
    },
    {
      "anonymous": false,
      "inputs": [
        {
          "indexed": true,
          "internalType": "bytes32",
          "name": "dataKey",
          "type": "bytes32"
        },
        {
          "indexed": false,
          "internalType": "bytes",
          "name": "dataValue",
          "type": "bytes"
        }
      ],
      "name": "DataChanged",
      "type": "event"
    },
    {
      "anonymous": false,
      "inputs": [
        {
          "indexed": true,
          "internalType": "uint256",
          "name": "operationType",
          "type": "uint256"
        },
        {
          "indexed": true,
          "internalType": "address",
          "name": "target",
          "type": "address"
        },
        {
          "indexed": true,
          "internalType": "uint256",
          "name": "value",
          "type": "uint256"
        },
        {
          "indexed": false,
          "internalType": "bytes4",
          "name": "selector",
          "type": "bytes4"
        }
      ],
      "name": "Executed",
      "type": "event"
    },
    {
      "anonymous": false,
      "inputs": [],
      "name": "OwnershipRenounced",
      "type": "event"
    },
    {
      "anonymous": false,
      "inputs": [
        {
          "indexed": true,
          "internalType": "address",
          "name": "previousOwner",
          "type": "address"
        },
        {
          "indexed": true,
          "internalType": "address",
          "name": "newOwner",
          "type": "address"
        }
      ],
      "name": "OwnershipTransferStarted",
      "type": "event"
    },
    {
      "anonymous": false,
      "inputs": [
        {
          "indexed": true,
          "internalType": "address",
          "name": "previousOwner",
          "type": "address"
        },
        {
          "indexed": true,
          "internalType": "address",
          "name": "newOwner",
          "type": "address"
        }
      ],
      "name": "OwnershipTransferred",
      "type": "event"
    },
    {
      "anonymous": false,
      "inputs": [],
      "name": "RenounceOwnershipStarted",
      "type": "event"
    },
    {
      "anonymous": false,
      "inputs": [
        {
          "indexed": true,
          "internalType": "address",
          "name": "from",
          "type": "address"
        },
        {
          "indexed": true,
          "internalType": "uint256",
          "name": "value",
          "type": "uint256"
        },
        {
          "indexed": true,
          "internalType": "bytes32",
          "name": "typeId",
          "type": "bytes32"
        },
        {
          "indexed": false,
          "internalType": "bytes",
          "name": "receivedData",
          "type": "bytes"
        },
        {
          "indexed": false,
          "internalType": "bytes",
          "name": "returnedValue",
          "type": "bytes"
        }
      ],
      "name": "UniversalReceiver",
      "type": "event"
    },
    {
      "anonymous": false,
      "inputs": [
        {
          "indexed": true,
          "internalType": "address",
          "name": "sender",
          "type": "address"
        },
        {
          "indexed": true,
          "internalType": "uint256",
          "name": "value",
          "type": "uint256"
        }
      ],
      "name": "ValueReceived",
      "type": "event"
    },
    {
      "stateMutability": "payable",
      "type": "fallback"
    },
    {
      "inputs": [],
      "name": "RENOUNCE_OWNERSHIP_CONFIRMATION_DELAY",
      "outputs": [
        {
          "internalType": "uint256",
          "name": "",
          "type": "uint256"
        }
      ],
      "stateMutability": "view",
      "type": "function"
    },
    {
      "inputs": [],
      "name": "RENOUNCE_OWNERSHIP_CONFIRMATION_PERIOD",
      "outputs": [
        {
          "internalType": "uint256",
          "name": "",
          "type": "uint256"
        }
      ],
      "stateMutability": "view",
      "type": "function"
    },
    {
      "inputs": [],
      "name": "acceptOwnership",
      "outputs": [],
      "stateMutability": "nonpayable",
      "type": "function"
    },
    {
      "inputs": [
        {
          "internalType": "bytes[]",
          "name": "data",
          "type": "bytes[]"
        }
      ],
      "name": "batchCalls",
      "outputs": [
        {
          "internalType": "bytes[]",
          "name": "results",
          "type": "bytes[]"
        }
      ],
      "stateMutability": "nonpayable",
      "type": "function"
    },
    {
      "inputs": [
        {
          "internalType": "uint256",
          "name": "operationType",
          "type": "uint256"
        },
        {
          "internalType": "address",
          "name": "target",
          "type": "address"
        },
        {
          "internalType": "uint256",
          "name": "value",
          "type": "uint256"
        },
        {
          "internalType": "bytes",
          "name": "data",
          "type": "bytes"
        }
      ],
      "name": "execute",
      "outputs": [
        {
          "internalType": "bytes",
          "name": "",
          "type": "bytes"
        }
      ],
      "stateMutability": "payable",
      "type": "function"
    },
    {
      "inputs": [
        {
          "internalType": "uint256[]",
          "name": "operationsType",
          "type": "uint256[]"
        },
        {
          "internalType": "address[]",
          "name": "targets",
          "type": "address[]"
        },
        {
          "internalType": "uint256[]",
          "name": "values",
          "type": "uint256[]"
        },
        {
          "internalType": "bytes[]",
          "name": "datas",
          "type": "bytes[]"
        }
      ],
      "name": "executeBatch",
      "outputs": [
        {
          "internalType": "bytes[]",
          "name": "",
          "type": "bytes[]"
        }
      ],
      "stateMutability": "payable",
      "type": "function"
    },
    {
      "inputs": [
        {
          "internalType": "bytes32",
          "name": "dataKey",
          "type": "bytes32"
        }
      ],
      "name": "getData",
      "outputs": [
        {
          "internalType": "bytes",
          "name": "dataValue",
          "type": "bytes"
        }
      ],
      "stateMutability": "view",
      "type": "function"
    },
    {
      "inputs": [
        {
          "internalType": "bytes32[]",
          "name": "dataKeys",
          "type": "bytes32[]"
        }
      ],
      "name": "getDataBatch",
      "outputs": [
        {
          "internalType": "bytes[]",
          "name": "dataValues",
          "type": "bytes[]"
        }
      ],
      "stateMutability": "view",
      "type": "function"
    },
    {
      "inputs": [
        {
          "internalType": "bytes32",
          "name": "dataHash",
          "type": "bytes32"
        },
        {
          "internalType": "bytes",
          "name": "signature",
          "type": "bytes"
        }
      ],
      "name": "isValidSignature",
      "outputs": [
        {
          "internalType": "bytes4",
          "name": "magicValue",
          "type": "bytes4"
        }
      ],
      "stateMutability": "view",
      "type": "function"
    },
    {
      "inputs": [],
      "name": "owner",
      "outputs": [
        {
          "internalType": "address",
          "name": "",
          "type": "address"
        }
      ],
      "stateMutability": "view",
      "type": "function"
    },
    {
      "inputs": [],
      "name": "pendingOwner",
      "outputs": [
        {
          "internalType": "address",
          "name": "",
          "type": "address"
        }
      ],
      "stateMutability": "view",
      "type": "function"
    },
    {
      "inputs": [],
      "name": "renounceOwnership",
      "outputs": [],
      "stateMutability": "nonpayable",
      "type": "function"
    },
    {
      "inputs": [
        {
          "internalType": "bytes32",
          "name": "dataKey",
          "type": "bytes32"
        },
        {
          "internalType": "bytes",
          "name": "dataValue",
          "type": "bytes"
        }
      ],
      "name": "setData",
      "outputs": [],
      "stateMutability": "payable",
      "type": "function"
    },
    {
      "inputs": [
        {
          "internalType": "bytes32[]",
          "name": "dataKeys",
          "type": "bytes32[]"
        },
        {
          "internalType": "bytes[]",
          "name": "dataValues",
          "type": "bytes[]"
        }
      ],
      "name": "setDataBatch",
      "outputs": [],
      "stateMutability": "payable",
      "type": "function"
    },
    {
      "inputs": [
        {
          "internalType": "bytes4",
          "name": "interfaceId",
          "type": "bytes4"
        }
      ],
      "name": "supportsInterface",
      "outputs": [
        {
          "internalType": "bool",
          "name": "",
          "type": "bool"
        }
      ],
      "stateMutability": "view",
      "type": "function"
    },
    {
      "inputs": [
        {
          "internalType": "address",
          "name": "_pendingOwner",
          "type": "address"
        }
      ],
      "name": "transferOwnership",
      "outputs": [],
      "stateMutability": "nonpayable",
      "type": "function"
    },
    {
      "inputs": [
        {
          "internalType": "bytes32",
          "name": "typeId",
          "type": "bytes32"
        },
        {
          "internalType": "bytes",
          "name": "receivedData",
          "type": "bytes"
        }
      ],
      "name": "universalReceiver",
      "outputs": [
        {
          "internalType": "bytes",
          "name": "returnedValues",
          "type": "bytes"
        }
      ],
      "stateMutability": "payable",
      "type": "function"
    },
    {
      "stateMutability": "payable",
      "type": "receive"
    }
  ],
  "bytecode": "0x60806040526040516200384d3803806200384d8339810160408190526200002691620002cd565b8034156200005c57604051349033907f7e71433ddf847725166244795048ecf3e3f9f35628254ecbf73605666423349390600090a35b6200007281620000c260201b6200112e1760201c565b5060408051808201909152600481526355f212eb60e11b6020820152620000bb907feafec4d89fa9619884b60000abe425d64acd861a49b8ddf5c0b6962110481f389062000129565b50620004ef565b6000546001600160a01b038281169116146200012657600080546001600160a01b038381166001600160a01b0319831681178455604051919092169283917f8be0079c531659141344cd1fd0a4f28419497f9722a3daafe3b4186f6b6457e09190a3505b50565b6000828152600160205260409020620001438282620003a4565b50817fece574603820d07bc9b91f2a932baadf4628aabcb8afba49776529c14a6104b26101008351111562000193576200018d836000610100620001b060201b620011a01760201c565b62000195565b825b604051620001a4919062000470565b60405180910390a25050565b606081620001c081601f620004c8565b1015620002055760405162461bcd60e51b815260206004820152600e60248201526d736c6963655f6f766572666c6f7760901b60448201526064015b60405180910390fd5b620002118284620004c8565b84511015620002575760405162461bcd60e51b8152602060048201526011602482015270736c6963655f6f75744f66426f756e647360781b6044820152606401620001fc565b606082158015620002785760405191506000825260208201604052620002c4565b6040519150601f8416801560200281840101858101878315602002848b0101015b81831015620002b357805183526020928301920162000299565b5050858452601f01601f1916604052505b50949350505050565b600060208284031215620002e057600080fd5b81516001600160a01b0381168114620002f857600080fd5b9392505050565b634e487b7160e01b600052604160045260246000fd5b600181811c908216806200032a57607f821691505b6020821081036200034b57634e487b7160e01b600052602260045260246000fd5b50919050565b601f8211156200039f57600081815260208120601f850160051c810160208610156200037a5750805b601f850160051c820191505b818110156200039b5782815560010162000386565b5050505b505050565b81516001600160401b03811115620003c057620003c0620002ff565b620003d881620003d1845462000315565b8462000351565b602080601f831160018114620004105760008415620003f75750858301515b600019600386901b1c1916600185901b1785556200039b565b600085815260208120601f198616915b82811015620004415788860151825594840194600190910190840162000420565b5085821015620004605787850151600019600388901b60f8161c191681555b5050505050600190811b01905550565b600060208083528351808285015260005b818110156200049f5785810183015185820160400152820162000481565b81811115620004b2576000604083870101525b50601f01601f1916929092016040019392505050565b60008219821115620004ea57634e487b7160e01b600052601160045260246000fd5b500190565b61334e80620004ff6000396000f3fe6080604052600436106101125760003560e01c8063715018a6116100a55780639790242111610074578063e30c397811610059578063e30c39781461035a578063ead3fbdf14610194578063f2fde38b146103785761014d565b80639790242114610327578063dedff9c61461033a5761014d565b8063715018a6146102b857806379ba5097146102cd5780637f23690c146102e25780638da5cb5b146102f55761014d565b806344c028fe116100e157806344c028fe1461024557806354f6127f146102655780636963d438146102855780636bb56a14146102a55761014d565b806301bfba611461019457806301ffc9a7146101bc5780631626ba7e146101ec57806331858452146102255761014d565b3661014d57341561014b57604051349033907f7e71433ddf847725166244795048ecf3e3f9f35628254ecbf73605666423349390600090a35b005b341561018157604051349033907f7e71433ddf847725166244795048ecf3e3f9f35628254ecbf73605666423349390600090a35b600436101561018c57005b61014b610398565b3480156101a057600080fd5b506101a960c881565b6040519081526020015b60405180910390f35b3480156101c857600080fd5b506101dc6101d7366004612830565b610466565b60405190151581526020016101b3565b3480156101f857600080fd5b5061020c610207366004612912565b610557565b6040516001600160e01b031990911681526020016101b3565b610238610233366004612a7f565b610709565b6040516101b39190612bdf565b610258610253366004612c41565b6107c0565b6040516101b39190612c96565b34801561027157600080fd5b50610258610280366004612ca9565b61084e565b34801561029157600080fd5b506102386102a0366004612cc2565b610859565b6102586102b3366004612d37565b6109b5565b3480156102c457600080fd5b5061014b610b64565b3480156102d957600080fd5b5061014b610bbb565b61014b6102f0366004612912565b610c50565b34801561030157600080fd5b506000546001600160a01b03165b6040516001600160a01b0390911681526020016101b3565b61014b610335366004612db3565b610cde565b34801561034657600080fd5b50610238610355366004612e0d565b610e21565b34801561036657600080fd5b506003546001600160a01b031661030f565b34801561038457600080fd5b5061014b610393366004612e42565b610ecc565b60006103af6000356001600160e01b0319166112ca565b90506000356001600160e01b0319161580156103d257506001600160a01b038116155b156103da5750565b6001600160a01b03811661042d576040517fbb370b2b0000000000000000000000000000000000000000000000000000000081526001600160e01b03196000351660048201526024015b60405180910390fd5b36600080373360601b365234601436015260008060343601600080855af13d6000803e80801561045c573d6000f35b3d6000fd5b505050565b60006001600160e01b03198216630b135d3f60e11b14806104b057506001600160e01b031982167f3e89ad9800000000000000000000000000000000000000000000000000000000145b806104cb57506001600160e01b03198216631aed5a8560e21b145b806104ff57506001600160e01b031982167f94be599900000000000000000000000000000000000000000000000000000000145b8061053357506001600160e01b031982167f1a0eb6a500000000000000000000000000000000000000000000000000000000145b80610542575061054282611322565b80610551575061055182611360565b92915050565b60008061056c6000546001600160a01b031690565b90506001600160a01b0381163b1561068957600080826001600160a01b0316631626ba7e60e01b87876040516024016105a6929190612e5d565b60408051601f198184030181529181526020820180516001600160e01b03166001600160e01b03199094169390931790925290516105e49190612e76565b600060405180830381855afa9150503d806000811461061f576040519150601f19603f3d011682016040523d82523d6000602084013e610624565b606091505b50915091506000828015610639575081516020145b801561066057508151630b135d3f60e11b9061065e9084016020908101908501612e92565b145b905080610675576001600160e01b031961067e565b630b135d3f60e11b5b945050505050610551565b6000806106968686611396565b909250905060008160048111156106af576106af612eab565b146106c857506001600160e01b03199250610551915050565b826001600160a01b0316826001600160a01b0316146106ef576001600160e01b03196106f8565b630b135d3f60e11b5b9350505050610551565b5092915050565b6060341561073f57604051349033907f7e71433ddf847725166244795048ecf3e3f9f35628254ecbf73605666423349390600090a35b6000546001600160a01b0316338190036107675761075f868686866113db565b9150506107b8565b60006107728261156b565b90506000610782888888886113db565b905081156107b3576107b3838260405160200161079f9190612bdf565b60405160208183030381529060405261170d565b925050505b949350505050565b606034156107f657604051349033907f7e71433ddf847725166244795048ecf3e3f9f35628254ecbf73605666423349390600090a35b6000546001600160a01b0316338190036108165761075f86868686611857565b60006108218261156b565b9050600061083188888888611857565b905081156107b3576107b3838260405160200161079f9190612c96565b6060610551826119ad565b60608167ffffffffffffffff8111156108745761087461284d565b6040519080825280602002602001820160405280156108a757816020015b60608152602001906001900390816108925790505b50905060005b8281101561070257600080308686858181106108cb576108cb612ec1565b90506020028101906108dd9190612ed7565b6040516108eb929190612f1e565b600060405180830381855af49150503d8060008114610926576040519150601f19603f3d011682016040523d82523d6000602084013e61092b565b606091505b50915091508161098d578051156109455780518082602001fd5b60405162461bcd60e51b815260206004820152601960248201527f4c5350303a20626174636843616c6c73207265766572746564000000000000006044820152606401610424565b808484815181106109a0576109a0612ec1565b602090810291909101015250506001016108ad565b606034156109eb57604051349033907f7e71433ddf847725166244795048ecf3e3f9f35628254ecbf73605666423349390600090a35b6000610a167f0cfc51aec37c55a4d0b1a65c6255c4bf2fbdf6277f3cc0730c45b828b6db8b476119ad565b905060606014825110610a65576000610a2e83612f2e565b60601c9050610a4481631aed5a8560e21b611a4f565b15610a6357610a606001600160a01b0382168888883334611ad8565b91505b505b6000610a917f0cfc51aec37c55a4d0b10000000000000000000000000000000000000000000088611c20565b90506000610a9e826119ad565b905060606014825110610aed576000610ab683612f2e565b60601c9050610acc81631aed5a8560e21b611a4f565b15610aeb57610ae86001600160a01b0382168b8b8b3334611ad8565b91505b505b8381604051602001610b00929190612f6a565b60405160208183030381529060405295508834336001600160a01b03167f9c3ba68eb5742b8e3961aea0afc7371a71bf433c8a67a831803b64c064a178c28b8b8b604051610b5093929190612fb8565b60405180910390a450505050509392505050565b6000546001600160a01b031633819003610b8357610b80611c89565b50565b6000610b8e8261156b565b9050610b98611c89565b8015610bb757610bb7826040518060200160405280600081525061170d565b5050565b6000546001600160a01b0316610bcf611d92565b604080516020810190915260008152610c14906001600160a01b038316907fa4e59c931d14f7c8a7a35027f92ee40b5f2886b9fdcdb78f30bc5ecce5a2f81490611e3a565b604080516020810190915260008152610b809033907fceca317f109c43507871523e82dc2a3cc64dfa18f12da0b6db14f6e23f99553890611e3a565b3415610c8457604051349033907f7e71433ddf847725166244795048ecf3e3f9f35628254ecbf73605666423349390600090a35b6000546001600160a01b031633819003610ca2576104618383611ec5565b6000610cad8261156b565b9050610cb98484611ec5565b8015610cd857610cd8826040518060200160405280600081525061170d565b50505050565b3415610d1257604051349033907f7e71433ddf847725166244795048ecf3e3f9f35628254ecbf73605666423349390600090a35b8051825114610d4d576040517f3bcc897900000000000000000000000000000000000000000000000000000000815260040160405180910390fd5b6000546001600160a01b031633819003610db15760005b8351811015610cd857610da9848281518110610d8257610d82612ec1565b6020026020010151848381518110610d9c57610d9c612ec1565b6020026020010151611ec5565b600101610d64565b6000610dbc8261156b565b905060005b8451811015610e0157610df9858281518110610ddf57610ddf612ec1565b6020026020010151858381518110610d9c57610d9c612ec1565b600101610dc1565b508015610cd857610cd8826040518060200160405280600081525061170d565b6060815167ffffffffffffffff811115610e3d57610e3d61284d565b604051908082528060200260200182016040528015610e7057816020015b6060815260200190600190039081610e5b5790505b50905060005b8251811015610ec657610ea1838281518110610e9457610e94612ec1565b60200260200101516119ad565b828281518110610eb357610eb3612ec1565b6020908102919091010152600101610e76565b50919050565b6000546001600160a01b031633819003610ff157610ee982611f39565b816001600160a01b0316816001600160a01b03167f38d16b8cac22d99fc7c124b9cd0de2d3fa1faef420bfe791d8c362d765e2270060405160405180910390a3604080516020810190915260008152610f6e906001600160a01b038416907fe17117c9d2665d1dbeb479ed8058bbebde3c50ac50e2e65619f60006caac692690611e3a565b6000546001600160a01b03828116911614610bb75760405162461bcd60e51b815260206004820152603f60248201527f4c535031343a206e65774f776e6572204d55535420616363657074206f776e6560448201527f727368697020696e2061207365706172617465207472616e73616374696f6e006064820152608401610424565b6000610ffc8261156b565b905061100783611f39565b826001600160a01b0316826001600160a01b03167f38d16b8cac22d99fc7c124b9cd0de2d3fa1faef420bfe791d8c362d765e2270060405160405180910390a360408051602081019091526000815261108c906001600160a01b038516907fe17117c9d2665d1dbeb479ed8058bbebde3c50ac50e2e65619f60006caac692690611e3a565b6000546001600160a01b0383811691161461110f5760405162461bcd60e51b815260206004820152603f60248201527f4c535031343a206e65774f776e6572204d55535420616363657074206f776e6560448201527f727368697020696e2061207365706172617465207472616e73616374696f6e006064820152608401610424565b801561046157610461826040518060200160405280600081525061170d565b6000546001600160a01b03828116911614610b8057600080546001600160a01b0383811673ffffffffffffffffffffffffffffffffffffffff19831681178455604051919092169283917f8be0079c531659141344cd1fd0a4f28419497f9722a3daafe3b4186f6b6457e09190a35050565b6060816111ae81601f612ff4565b10156111fc5760405162461bcd60e51b815260206004820152600e60248201527f736c6963655f6f766572666c6f770000000000000000000000000000000000006044820152606401610424565b6112068284612ff4565b845110156112565760405162461bcd60e51b815260206004820152601160248201527f736c6963655f6f75744f66426f756e64730000000000000000000000000000006044820152606401610424565b60608215801561127557604051915060008252602082016040526112bf565b6040519150601f8416801560200281840101858101878315602002848b0101015b818310156112ae578051835260209283019201611296565b5050858452601f01601f1916604052505b5090505b9392505050565b6000806113017fcee78b4094da86011096000000000000000000000000000000000000000000006001600160e01b03198516611c20565b9050600061130e826119ad565b61131790612f2e565b60601c949350505050565b60006001600160e01b031982167fa918fa6b000000000000000000000000000000000000000000000000000000001480610551575061055182611faf565b6000806113736301ffc9a760e01b6112ca565b90506001600160a01b03811661138c5750600092915050565b6112c38184611a4f565b60008082516041036113cc5760208301516040840151606085015160001a6113c087828585611fed565b945094505050506113d4565b506000905060025b9250929050565b6060835185511415806113fc5750825184511415806113fc57508151835114155b15611433576040517f3ff55f4d00000000000000000000000000000000000000000000000000000000815260040160405180910390fd5b845160000361146e576040517fe9ad2b5f00000000000000000000000000000000000000000000000000000000815260040160405180910390fd5b6000855167ffffffffffffffff81111561148a5761148a61284d565b6040519080825280602002602001820160405280156114bd57816020015b60608152602001906001900390816114a85790505b50905060005b86518110156115615761153c8782815181106114e1576114e1612ec1565b60200260200101518783815181106114fb576114fb612ec1565b602002602001015187848151811061151557611515612ec1565b602002602001015187858151811061152f5761152f612ec1565b6020026020010151611857565b82828151811061154e5761154e612ec1565b60209081029190910101526001016114c3565b5095945050505050565b6000806000836001600160a01b0316639bf04b1160e01b333460003660405160240161159a949392919061300c565b60408051601f198184030181529181526020820180516001600160e01b03166001600160e01b03199094169390931790925290516115d89190612e76565b6000604051808303816000865af19150503d8060008114611615576040519150601f19603f3d011682016040523d82523d6000602084013e61161a565b606091505b509150915061162b600083836120b1565b6000818060200190518101906116419190613035565b90507fffffff000000000000000000000000000000000000000000000000000000000081167f9bf04b0000000000000000000000000000000000000000000000000000000000146116aa5760008260405163034223b160e61b8152600401610424929190613052565b7f01000000000000000000000000000000000000000000000000000000000000007fff00000000000000000000000000000000000000000000000000000000000000600383901a60f81b1614611701576000611704565b60015b95945050505050565b600080836001600160a01b031663d3fc45d360e01b333460003660405160200161173a949392919061306d565b6040516020818303038152906040528051906020012085604051602401611762929190612e5d565b60408051601f198184030181529181526020820180516001600160e01b03166001600160e01b03199094169390931790925290516117a09190612e76565b6000604051808303816000865af19150503d80600081146117dd576040519150601f19603f3d011682016040523d82523d6000602084013e6117e2565b606091505b50915091506117f3600183836120b1565b80517fd3fc45d3000000000000000000000000000000000000000000000000000000009061182a9083016020908101908401613035565b6001600160e01b03191614610cd85760018160405163034223b160e61b8152600401610424929190613052565b60608461187057611869848484612106565b90506107b8565b600185036118aa576001600160a01b038416156118a057604051631820c12560e11b815260040160405180910390fd5b6118698383612232565b600285036118e4576001600160a01b038416156118da57604051631820c12560e11b815260040160405180910390fd5b611869838361234c565b6003850361192e578215611924576040517f72f2bc6a00000000000000000000000000000000000000000000000000000000815260040160405180910390fd5b6118698483612437565b6004850361197857821561196e576040517f5ac8313500000000000000000000000000000000000000000000000000000000815260040160405180910390fd5b611869848361252d565b6040517f7583b3bc00000000000000000000000000000000000000000000000000000000815260048101869052602401610424565b60008181526001602052604090208054606091906119ca906130a0565b80601f01602080910402602001604051908101604052809291908181526020018280546119f6906130a0565b8015611a435780601f10611a1857610100808354040283529160200191611a43565b820191906000526020600020905b815481529060010190602001808311611a2657829003601f168201915b50505050509050919050565b604080516001600160e01b03198316602480830191909152825180830390910181526044909101909152602080820180516001600160e01b03166301ffc9a760e01b178152825160009392849283928392918391908a617530fa92503d91506000519050828015611ac1575060208210155b8015611acd5750600081115b979650505050505050565b60606000636bb56a1460e01b878787604051602401611af9939291906130d4565b60408051601f19818403018152918152602080830180516001600160e01b03166001600160e01b03199095169490941790935251611b3b9287918791016130ee565b6040516020818303038152906040529050600080896001600160a01b031683604051611b679190612e76565b6000604051808303816000865af19150503d8060008114611ba4576040519150601f19603f3d011682016040523d82523d6000602084013e611ba9565b606091505b5091509150611bee82826040518060400160405280602081526020017f43616c6c20746f20756e6976657273616c5265636569766572206661696c65648152506125d9565b508051600003611bfe5780611c12565b80806020019051810190611c12919061312d565b9a9950505050505050505050565b604080517fffffffffffffffffffff00000000000000000000000000000000000000000000841660208201526000602a82018190526bffffffffffffffffffffffff198416602c830152918291016040516020818303038152906040529050806107b89061319b565b6002544390600090611c9d9060c890612ff4565b90506000611cac60c883612ff4565b905080831180611cbc5750600254155b15611d115760028390556003805473ffffffffffffffffffffffffffffffffffffffff191690556040517f81b7f830f1f0084db6497c486cbe6974c86488dcc4e3738eab94ab6d6b1653e790600090a1505050565b81831015611d55576040517f8b9bf5070000000000000000000000000000000000000000000000000000000081526004810183905260248101829052604401610424565b611d5f600061112e565b600060028190556040517fd1f66c3d2bc1993a86be5e3d33709d98f0442381befcedd29f578b9b2506b1ce9190a1505050565b6003546001600160a01b03163314611e125760405162461bcd60e51b815260206004820152602560248201527f4c535031343a2063616c6c6572206973206e6f74207468652070656e64696e6760448201527f4f776e65720000000000000000000000000000000000000000000000000000006064820152608401610424565b611e1b3361112e565b6003805473ffffffffffffffffffffffffffffffffffffffff19169055565b611e4b83631aed5a8560e21b611a4f565b1561046157604051631aed5a8560e21b81526001600160a01b03841690636bb56a1490611e7e9085908590600401612e5d565b6000604051808303816000875af1158015611e9d573d6000803e3d6000fd5b505050506040513d6000823e601f3d908101601f19168201604052610cd8919081019061312d565b6000828152600160205260409020611edd828261320d565b50817fece574603820d07bc9b91f2a932baadf4628aabcb8afba49776529c14a6104b261010083511115611f1e57611f198360006101006111a0565b611f20565b825b604051611f2d9190612c96565b60405180910390a25050565b306001600160a01b03821603611f7b576040517f43b248cd00000000000000000000000000000000000000000000000000000000815260040160405180910390fd5b6003805473ffffffffffffffffffffffffffffffffffffffff19166001600160a01b03929092169190911790556000600255565b60006001600160e01b031982167f629aa6940000000000000000000000000000000000000000000000000000000014806105515750610551826125f2565b6000807f7fffffffffffffffffffffffffffffff5d576e7357a4501ddfe92f46681b20a083111561202457506000905060036120a8565b6040805160008082526020820180845289905260ff881692820192909252606081018690526080810185905260019060a0016020604051602081039080840390855afa158015612078573d6000803e3d6000fd5b5050604051601f1901519150506001600160a01b0381166120a1576000600192509250506120a8565b9150600090505b94509492505050565b816120c0576120c08382612640565b6020815110806120e45750600060206120d88361319b565b63ffffffff19911b1614155b1561046157828160405163034223b160e61b8152600401610424929190613052565b606082471015612132576040516301bf351f60e31b815247600482015260248101849052604401610424565b826001600160a01b03851660007f4810874456b8e6487bd861375cf6abd8e1c8bb5858c8ce36a86a04dabfac199e612169866132cd565b6040516001600160e01b0319909116815260200160405180910390a4600080856001600160a01b031685856040516121a19190612e76565b60006040518083038185875af1925050503d80600081146121de576040519150601f19603f3d011682016040523d82523d6000602084013e6121e3565b606091505b509150915061222882826040518060400160405280601681526020017f455243373235583a20556e6b6e6f776e204572726f72000000000000000000008152506125d9565b9695505050505050565b60608247101561225e576040516301bf351f60e31b815247600482015260248101849052604401610424565b81516000036122805760405163b81cd8d960e01b815260040160405180910390fd5b600082516020840185f090506001600160a01b0381166122cc576040517f0b07489b00000000000000000000000000000000000000000000000000000000815260040160405180910390fd5b6040516bffffffffffffffffffffffff19606083901b166020820152603401604051602081830303815290604052915083816001600160a01b031660017fa1fb700aaee2ae4a2ff6f91ce7eba292f89c2f5488b8ec4c5c5c8150692595c36000801b60405161233d91815260200190565b60405180910390a45092915050565b606081516000036123705760405163b81cd8d960e01b815260040160405180910390fd5b600061238983602085516123849190613301565b612686565b905060006123a6846000602087516123a19190613301565b6111a0565b905060006123b58684846126ec565b6040516bffffffffffffffffffffffff19606083901b166020820152909150603401604051602081830303815290604052935085816001600160a01b031660027fa1fb700aaee2ae4a2ff6f91ce7eba292f89c2f5488b8ec4c5c5c8150692595c38660405161242691815260200190565b60405180910390a450505092915050565b606060006001600160a01b03841660037f4810874456b8e6487bd861375cf6abd8e1c8bb5858c8ce36a86a04dabfac199e612471866132cd565b6040516001600160e01b0319909116815260200160405180910390a4600080846001600160a01b0316846040516124a89190612e76565b600060405180830381855afa9150503d80600081146124e3576040519150601f19603f3d011682016040523d82523d6000602084013e6124e8565b606091505b509150915061170482826040518060400160405280601681526020017f455243373235583a20556e6b6e6f776e204572726f72000000000000000000008152506125d9565b606060006001600160a01b03841660047f4810874456b8e6487bd861375cf6abd8e1c8bb5858c8ce36a86a04dabfac199e612567866132cd565b6040516001600160e01b0319909116815260200160405180910390a4600080846001600160a01b03168460405161259e9190612e76565b600060405180830381855af49150503d80600081146124e3576040519150601f19603f3d011682016040523d82523d6000602084013e6124e8565b606083156125e85750816112c3565b6112c383836127f0565b60006001600160e01b031982167f7545acac00000000000000000000000000000000000000000000000000000000148061055157506301ffc9a760e01b6001600160e01b0319831614610551565b8051156126505780518082602001fd5b6040517f8c6a8ae30000000000000000000000000000000000000000000000000000000081528215156004820152602401610424565b6000612693826020612ff4565b835110156126e35760405162461bcd60e51b815260206004820152601560248201527f746f427974657333325f6f75744f66426f756e647300000000000000000000006044820152606401610424565b50016020015190565b60008347101561273e5760405162461bcd60e51b815260206004820152601d60248201527f437265617465323a20696e73756666696369656e742062616c616e63650000006044820152606401610424565b815160000361278f5760405162461bcd60e51b815260206004820181905260248201527f437265617465323a2062797465636f6465206c656e677468206973207a65726f6044820152606401610424565b8282516020840186f590506001600160a01b0381166112c35760405162461bcd60e51b815260206004820152601960248201527f437265617465323a204661696c6564206f6e206465706c6f79000000000000006044820152606401610424565b8151156128005781518083602001fd5b8060405162461bcd60e51b81526004016104249190612c96565b6001600160e01b031981168114610b8057600080fd5b60006020828403121561284257600080fd5b81356112c38161281a565b634e487b7160e01b600052604160045260246000fd5b604051601f8201601f1916810167ffffffffffffffff8111828210171561288c5761288c61284d565b604052919050565b600067ffffffffffffffff8211156128ae576128ae61284d565b50601f01601f191660200190565b600082601f8301126128cd57600080fd5b81356128e06128db82612894565b612863565b8181528460208386010111156128f557600080fd5b816020850160208301376000918101602001919091529392505050565b6000806040838503121561292557600080fd5b82359150602083013567ffffffffffffffff81111561294357600080fd5b61294f858286016128bc565b9150509250929050565b600067ffffffffffffffff8211156129735761297361284d565b5060051b60200190565b600082601f83011261298e57600080fd5b8135602061299e6128db83612959565b82815260059290921b840181019181810190868411156129bd57600080fd5b8286015b848110156129d857803583529183019183016129c1565b509695505050505050565b80356001600160a01b03811681146129fa57600080fd5b919050565b600082601f830112612a1057600080fd5b81356020612a206128db83612959565b82815260059290921b84018101918181019086841115612a3f57600080fd5b8286015b848110156129d857803567ffffffffffffffff811115612a635760008081fd5b612a718986838b01016128bc565b845250918301918301612a43565b60008060008060808587031215612a9557600080fd5b843567ffffffffffffffff80821115612aad57600080fd5b612ab98883890161297d565b9550602091508187013581811115612ad057600080fd5b8701601f81018913612ae157600080fd5b8035612aef6128db82612959565b81815260059190911b8201840190848101908b831115612b0e57600080fd5b928501925b82841015612b3357612b24846129e3565b82529285019290850190612b13565b97505050506040870135915080821115612b4c57600080fd5b612b588883890161297d565b93506060870135915080821115612b6e57600080fd5b50612b7b878288016129ff565b91505092959194509250565b60005b83811015612ba2578181015183820152602001612b8a565b83811115610cd85750506000910152565b60008151808452612bcb816020860160208601612b87565b601f01601f19169290920160200192915050565b6000602080830181845280855180835260408601915060408160051b870101925083870160005b82811015612c3457603f19888603018452612c22858351612bb3565b94509285019290850190600101612c06565b5092979650505050505050565b60008060008060808587031215612c5757600080fd5b84359350612c67602086016129e3565b925060408501359150606085013567ffffffffffffffff811115612c8a57600080fd5b612b7b878288016128bc565b6020815260006112c36020830184612bb3565b600060208284031215612cbb57600080fd5b5035919050565b60008060208385031215612cd557600080fd5b823567ffffffffffffffff80821115612ced57600080fd5b818501915085601f830112612d0157600080fd5b813581811115612d1057600080fd5b8660208260051b8501011115612d2557600080fd5b60209290920196919550909350505050565b600080600060408486031215612d4c57600080fd5b83359250602084013567ffffffffffffffff80821115612d6b57600080fd5b818601915086601f830112612d7f57600080fd5b813581811115612d8e57600080fd5b876020828501011115612da057600080fd5b6020830194508093505050509250925092565b60008060408385031215612dc657600080fd5b823567ffffffffffffffff80821115612dde57600080fd5b612dea8683870161297d565b93506020850135915080821115612e0057600080fd5b5061294f858286016129ff565b600060208284031215612e1f57600080fd5b813567ffffffffffffffff811115612e3657600080fd5b6107b88482850161297d565b600060208284031215612e5457600080fd5b6112c3826129e3565b8281526040602082015260006107b86040830184612bb3565b60008251612e88818460208701612b87565b9190910192915050565b600060208284031215612ea457600080fd5b5051919050565b634e487b7160e01b600052602160045260246000fd5b634e487b7160e01b600052603260045260246000fd5b6000808335601e19843603018112612eee57600080fd5b83018035915067ffffffffffffffff821115612f0957600080fd5b6020019150368190038213156113d457600080fd5b8183823760009101908152919050565b805160208201516bffffffffffffffffffffffff198082169291906014831015612f625780818460140360031b1b83161693505b505050919050565b604081526000612f7d6040830185612bb3565b82810360208401526117048185612bb3565b81835281816020850137506000828201602090810191909152601f909101601f19169091010190565b604081526000612fcc604083018587612f8f565b82810360208401526122288185612bb3565b634e487b7160e01b600052601160045260246000fd5b6000821982111561300757613007612fde565b500190565b6001600160a01b0385168152836020820152606060408201526000612228606083018486612f8f565b60006020828403121561304757600080fd5b81516112c38161281a565b82151581526040602082015260006107b86040830184612bb3565b6bffffffffffffffffffffffff198560601b16815283601482015281836034830137600091016034019081529392505050565b600181811c908216806130b457607f821691505b602082108103610ec657634e487b7160e01b600052602260045260246000fd5b838152604060208201526000611704604083018486612f8f565b60008451613100818460208901612b87565b60609490941b6bffffffffffffffffffffffff191691909301908152601481019190915260340192915050565b60006020828403121561313f57600080fd5b815167ffffffffffffffff81111561315657600080fd5b8201601f8101841361316757600080fd5b80516131756128db82612894565b81815285602083850101111561318a57600080fd5b611704826020830160208601612b87565b80516020808301519190811015610ec65760001960209190910360031b1b16919050565b601f82111561046157600081815260208120601f850160051c810160208610156131e65750805b601f850160051c820191505b81811015613205578281556001016131f2565b505050505050565b815167ffffffffffffffff8111156132275761322761284d565b61323b8161323584546130a0565b846131bf565b602080601f83116001811461327057600084156132585750858301515b600019600386901b1c1916600185901b178555613205565b600085815260208120601f198616915b8281101561329f57888601518255948401946001909101908401613280565b50858210156132bd5787850151600019600388901b60f8161c191681555b5050505050600190811b01905550565b6000815160208301516001600160e01b031980821693506004831015612f625760049290920360031b82901b161692915050565b60008282101561331357613313612fde565b50039056fea2646970667358221220318b5d806f3bbdba6b62ff4abdfc38a83e835de40df145110509017d691ec15c64736f6c634300080f0033",
  "linkReferences": {},
  "deployedLinkReferences": {}
}