{
  "_format": "hh-sol-artifact-1",
  "contractName": "LSP0ERC725Account",
  "sourceName": "contracts/LSP0ERC725Account/LSP0ERC725Account.sol",
  "abi": [
    {
      "inputs": [
        {
          "internalType": "address",
          "name": "_newOwner",
          "type": "address"
        }
      ],
      "stateMutability": "nonpayable",
      "type": "constructor"
    },
    {
      "anonymous": false,
      "inputs": [
        {
          "indexed": true,
          "internalType": "uint256",
          "name": "operation",
          "type": "uint256"
        },
        {
          "indexed": true,
          "internalType": "address",
          "name": "contractAddress",
          "type": "address"
        },
        {
          "indexed": true,
          "internalType": "uint256",
          "name": "value",
          "type": "uint256"
        }
      ],
      "name": "ContractCreated",
      "type": "event"
    },
    {
      "anonymous": false,
      "inputs": [
        {
          "indexed": true,
          "internalType": "bytes32",
          "name": "key",
          "type": "bytes32"
        }
      ],
      "name": "DataChanged",
      "type": "event"
    },
    {
      "anonymous": false,
      "inputs": [
        {
          "indexed": true,
          "internalType": "uint256",
          "name": "operation",
          "type": "uint256"
        },
        {
          "indexed": true,
          "internalType": "address",
          "name": "to",
          "type": "address"
        },
        {
          "indexed": true,
          "internalType": "uint256",
          "name": "value",
          "type": "uint256"
        },
        {
          "indexed": false,
          "internalType": "bytes4",
          "name": "selector",
          "type": "bytes4"
        }
      ],
      "name": "Executed",
      "type": "event"
    },
    {
      "anonymous": false,
      "inputs": [
        {
          "indexed": true,
          "internalType": "address",
          "name": "previousOwner",
          "type": "address"
        },
        {
          "indexed": true,
          "internalType": "address",
          "name": "newOwner",
          "type": "address"
        }
      ],
      "name": "OwnershipTransferred",
      "type": "event"
    },
    {
      "anonymous": false,
      "inputs": [
        {
          "indexed": true,
          "internalType": "address",
          "name": "from",
          "type": "address"
        },
        {
          "indexed": true,
          "internalType": "bytes32",
          "name": "typeId",
          "type": "bytes32"
        },
        {
          "indexed": true,
          "internalType": "bytes",
          "name": "returnedValue",
          "type": "bytes"
        },
        {
          "indexed": false,
          "internalType": "bytes",
          "name": "receivedData",
          "type": "bytes"
        }
      ],
      "name": "UniversalReceiver",
      "type": "event"
    },
    {
      "anonymous": false,
      "inputs": [
        {
          "indexed": true,
          "internalType": "address",
          "name": "sender",
          "type": "address"
        },
        {
          "indexed": true,
          "internalType": "uint256",
          "name": "value",
          "type": "uint256"
        }
      ],
      "name": "ValueReceived",
      "type": "event"
    },
    {
      "inputs": [],
      "name": "claimOwnership",
      "outputs": [],
      "stateMutability": "nonpayable",
      "type": "function"
    },
    {
      "inputs": [
        {
          "internalType": "uint256",
          "name": "_operation",
          "type": "uint256"
        },
        {
          "internalType": "address",
          "name": "_to",
          "type": "address"
        },
        {
          "internalType": "uint256",
          "name": "_value",
          "type": "uint256"
        },
        {
          "internalType": "bytes",
          "name": "_data",
          "type": "bytes"
        }
      ],
      "name": "execute",
      "outputs": [
        {
          "internalType": "bytes",
          "name": "result",
          "type": "bytes"
        }
      ],
      "stateMutability": "payable",
      "type": "function"
    },
    {
      "inputs": [
        {
          "internalType": "bytes32[]",
          "name": "keys",
          "type": "bytes32[]"
        }
      ],
      "name": "getData",
      "outputs": [
        {
          "internalType": "bytes[]",
          "name": "values",
          "type": "bytes[]"
        }
      ],
      "stateMutability": "view",
      "type": "function"
    },
    {
      "inputs": [
        {
          "internalType": "bytes32",
          "name": "key",
          "type": "bytes32"
        }
      ],
      "name": "getData",
      "outputs": [
        {
          "internalType": "bytes",
          "name": "value",
          "type": "bytes"
        }
      ],
      "stateMutability": "view",
      "type": "function"
    },
    {
      "inputs": [
        {
          "internalType": "bytes32",
          "name": "_hash",
          "type": "bytes32"
        },
        {
          "internalType": "bytes",
          "name": "_signature",
          "type": "bytes"
        }
      ],
      "name": "isValidSignature",
      "outputs": [
        {
          "internalType": "bytes4",
          "name": "magicValue",
          "type": "bytes4"
        }
      ],
      "stateMutability": "view",
      "type": "function"
    },
    {
      "inputs": [],
      "name": "owner",
      "outputs": [
        {
          "internalType": "address",
          "name": "",
          "type": "address"
        }
      ],
      "stateMutability": "view",
      "type": "function"
    },
    {
      "inputs": [],
      "name": "pendingOwner",
      "outputs": [
        {
          "internalType": "address",
          "name": "",
          "type": "address"
        }
      ],
      "stateMutability": "view",
      "type": "function"
    },
    {
      "inputs": [],
      "name": "renounceOwnership",
      "outputs": [],
      "stateMutability": "nonpayable",
      "type": "function"
    },
    {
      "inputs": [
        {
          "internalType": "bytes32[]",
          "name": "keys",
          "type": "bytes32[]"
        },
        {
          "internalType": "bytes[]",
          "name": "values",
          "type": "bytes[]"
        }
      ],
      "name": "setData",
      "outputs": [],
      "stateMutability": "nonpayable",
      "type": "function"
    },
    {
      "inputs": [
        {
          "internalType": "bytes32",
          "name": "key",
          "type": "bytes32"
        },
        {
          "internalType": "bytes",
          "name": "value",
          "type": "bytes"
        }
      ],
      "name": "setData",
      "outputs": [],
      "stateMutability": "nonpayable",
      "type": "function"
    },
    {
      "inputs": [
        {
          "internalType": "bytes4",
          "name": "interfaceId",
          "type": "bytes4"
        }
      ],
      "name": "supportsInterface",
      "outputs": [
        {
          "internalType": "bool",
          "name": "",
          "type": "bool"
        }
      ],
      "stateMutability": "view",
      "type": "function"
    },
    {
      "inputs": [
        {
          "internalType": "address",
          "name": "_newOwner",
          "type": "address"
        }
      ],
      "name": "transferOwnership",
      "outputs": [],
      "stateMutability": "nonpayable",
      "type": "function"
    },
    {
      "inputs": [
        {
          "internalType": "bytes32",
          "name": "_typeId",
          "type": "bytes32"
        },
        {
          "internalType": "bytes",
          "name": "_data",
          "type": "bytes"
        }
      ],
      "name": "universalReceiver",
      "outputs": [
        {
          "internalType": "bytes",
          "name": "returnValue",
          "type": "bytes"
        }
      ],
      "stateMutability": "nonpayable",
      "type": "function"
    },
    {
      "stateMutability": "payable",
      "type": "receive"
    }
  ],
  "bytecode": "0x60806040523480156200001157600080fd5b506040516200253d3803806200253d8339810160408190526200003491620000b8565b6200004a816200005160201b620010ed1760201c565b50620000ea565b6000546001600160a01b03828116911614620000b557600080546001600160a01b038381166001600160a01b0319831681178455604051919092169283917f8be0079c531659141344cd1fd0a4f28419497f9722a3daafe3b4186f6b6457e09190a3505b50565b600060208284031215620000cb57600080fd5b81516001600160a01b0381168114620000e357600080fd5b9392505050565b61244380620000fa6000396000f3fe6080604052600436106100d65760003560e01c806354f6127f1161007f5780637f23690c116100595780637f23690c146102565780638da5cb5b14610276578063e30c3978146102a8578063f2fde38b146102c857600080fd5b806354f6127f146102015780636bb56a1414610221578063715018a61461024157600080fd5b806344c028fe116100b057806344c028fe1461019f5780634e3e6e9c146101bf5780634e71e0c8146101ec57600080fd5b806301ffc9a71461010f57806314a6e293146101445780631626ba7e1461016657600080fd5b3661010a57604051349033907f7e71433ddf847725166244795048ecf3e3f9f35628254ecbf73605666423349390600090a3005b600080fd5b34801561011b57600080fd5b5061012f61012a366004611fd6565b6102e8565b60405190151581526020015b60405180910390f35b34801561015057600080fd5b5061016461015f366004611e2d565b6103af565b005b34801561017257600080fd5b50610186610181366004611f8f565b6104da565b6040516001600160e01b0319909116815260200161013b565b6101b26101ad36600461207e565b6105ea565b60405161013b919061220f565b3480156101cb57600080fd5b506101df6101da366004611df8565b610cd1565b60405161013b9190612180565b3480156101f857600080fd5b50610164610d85565b34801561020d57600080fd5b506101b261021c366004611f2a565b610e39565b34801561022d57600080fd5b506101b261023c366004611f43565b610e44565b34801561024d57600080fd5b50610164610f97565b34801561026257600080fd5b50610164610271366004611f8f565b610ffd565b34801561028257600080fd5b506000546001600160a01b03165b6040516001600160a01b03909116815260200161013b565b3480156102b457600080fd5b50600254610290906001600160a01b031681565b3480156102d457600080fd5b506101646102e3366004611dd6565b611065565b60006001600160e01b03198216630b135d3f60e11b148061033257506001600160e01b031982167f9a3bfe8800000000000000000000000000000000000000000000000000000000145b8061036657506001600160e01b031982167f6bb56a1400000000000000000000000000000000000000000000000000000000145b8061039a57506001600160e01b031982167fad7dd9b000000000000000000000000000000000000000000000000000000000145b806103a957506103a98261115f565b92915050565b6000546001600160a01b0316331461040e5760405162461bcd60e51b815260206004820181905260248201527f4f776e61626c653a2063616c6c6572206973206e6f7420746865206f776e657260448201526064015b60405180910390fd5b80518251146104855760405162461bcd60e51b815260206004820152602660248201527f4b657973206c656e677468206e6f7420657175616c20746f2076616c7565732060448201527f6c656e67746800000000000000000000000000000000000000000000000000006064820152608401610405565b60005b82518110156104d5576104cd8382815181106104a6576104a66123cb565b60200260200101518383815181106104c0576104c06123cb565b602002602001015161119d565b600101610488565b505050565b6000806104ef6000546001600160a01b031690565b90506001600160a01b0381163b156105aa5761051281630b135d3f60e11b6111ec565b610524576001600160e01b03196105a2565b604051630b135d3f60e11b81526001600160a01b03821690631626ba7e9061055290879087906004016121e2565b60206040518083038186803b15801561056a57600080fd5b505afa15801561057e573d6000803e3d6000fd5b505050506040513d601f19601f820116820180604052508101906105a29190611ff3565b9150506103a9565b6105b484846112ea565b6001600160a01b0316816001600160a01b0316146105da576001600160e01b03196105a2565b50630b135d3f60e11b9392505050565b6000546060906001600160a01b031633146106475760405162461bcd60e51b815260206004820181905260248201527f4f776e61626c653a2063616c6c6572206973206e6f7420746865206f776e65726044820152606401610405565b60005a90508661074d57844710156106b05760405162461bcd60e51b815260206004820152602660248201527f455243373235583a20696e73756666696369656e742062616c616e636520666f6044820152651c8818d85b1b60d21b6064820152608401610405565b6106f3868686868080601f01602080910402602001604051908101604052809392919081815260200183838082843760009201919091525087925061130e915050565b9150846001600160a01b038716887f4810874456b8e6487bd861375cf6abd8e1c8bb5858c8ce36a86a04dabfac199e61072c87896122ce565b6040516001600160e01b0319909116815260200160405180910390a4610cc7565b600387141561080c5784156107ca5760405162461bcd60e51b815260206004820152603860248201527f455243373235583a2063616e6e6f74207472616e736665722076616c7565207760448201527f697468206f7065726174696f6e2053544154494343414c4c00000000000000006064820152608401610405565b6106f38685858080601f01602080910402602001604051908101604052809392919081815260200183838082843760009201919091525086925061138e915050565b60048714156108cb5784156108895760405162461bcd60e51b815260206004820152603a60248201527f455243373235583a2063616e6e6f74207472616e736665722076616c7565207760448201527f697468206f7065726174696f6e2044454c454741544543414c4c0000000000006064820152608401610405565b6106f38685858080601f016020809104026020016040519081016040528093929190818152602001838380828437600092019190915250869250611409915050565b6001871415610a6f576001600160a01b0386161561095d5760405162461bcd60e51b815260206004820152604360248201527f455243373235583a20435245415445206f7065726174696f6e7320726571756960448201527f726520746865207265636569766572206164647265737320746f20626520656d60648201526270747960e81b608482015260a401610405565b844710156109bc5760405162461bcd60e51b815260206004820152602660248201527f455243373235583a20696e73756666696369656e742062616c616e636520666f6044820152651c8818d85b1b60d21b6064820152608401610405565b60006109fe8686868080601f01602080910402602001604051908101604052809392919081815260200183838082843760009201919091525061146392505050565b6040516bffffffffffffffffffffffff19606083901b166020820152909150603401604051602081830303815290604052925085816001600160a01b0316897f01c42bd7e97a66166063b02fce6924e6656b6c2c61966630165095c4fb0b7b2f60405160405180910390a450610cc7565b6002871415610c7f576001600160a01b03861615610b015760405162461bcd60e51b815260206004820152604360248201527f455243373235583a20435245415445206f7065726174696f6e7320726571756960448201527f726520746865207265636569766572206164647265737320746f20626520656d60648201526270747960e81b608482015260a401610405565b84471015610b605760405162461bcd60e51b815260206004820152602660248201527f455243373235583a20696e73756666696369656e742062616c616e636520666f6044820152651c8818d85b1b60d21b6064820152608401610405565b6000610bae85858080601f016020809104026020016040519081016040528093929190818152602001838380828437600092019190915250610ba99250602091508890506122b7565b611517565b90506000610bfd86868080601f01602080910402602001604051908101604052809392919081815260200183838082843760009201829052509250610bf8915060209050896122b7565b61157d565b90506000610c0c8884846116a5565b6040516bffffffffffffffffffffffff19606083901b166020820152909150603401604051602081830303815290604052945087816001600160a01b03168b7f01c42bd7e97a66166063b02fce6924e6656b6c2c61966630165095c4fb0b7b2f60405160405180910390a4505050610cc7565b60405162461bcd60e51b815260206004820152601460248201527f57726f6e67206f7065726174696f6e20747970650000000000000000000000006044820152606401610405565b5095945050505050565b6060815167ffffffffffffffff811115610ced57610ced6123e1565b604051908082528060200260200182016040528015610d2057816020015b6060815260200190600190039081610d0b5790505b50905060005b8251811015610d7f57610d51838281518110610d4457610d446123cb565b60200260200101516117af565b828281518110610d6357610d636123cb565b6020026020010181905250610d788160010190565b9050610d26565b50919050565b6002546001600160a01b03163314610e055760405162461bcd60e51b815260206004820152602c60248201527f4f776e61626c65436c61696d3a2063616c6c6572206973206e6f74207468652060448201527f70656e64696e674f776e657200000000000000000000000000000000000000006064820152608401610405565b600254610e1a906001600160a01b03166110ed565b6002805473ffffffffffffffffffffffffffffffffffffffff19169055565b60606103a9826117af565b60606000610e717f0cfc51aec37c55a4d0b1a65c6255c4bf2fbdf6277f3cc0730c45b828b6db8b476117af565b90506014815110610f2f576000610e87826122fe565b60601c9050610e9d8163c2d7bcc160e01b6111ec565b15610f2d5760405163c2d7bcc160e01b81526001600160a01b0382169063c2d7bcc190610ed49033908a908a908a90600401612157565b600060405180830381600087803b158015610eee57600080fd5b505af1158015610f02573d6000803e3d6000fd5b505050506040513d6000823e601f3d908101601f19168201604052610f2a9190810190612010565b92505b505b81604051610f3d919061213b565b604051809103902085610f4d3390565b6001600160a01b03167f8187df79ab47ad16102e7bc8760349a115b3ba9869b8cedd78996f930ac9cac38787604051610f879291906121fb565b60405180910390a4509392505050565b6000546001600160a01b03163314610ff15760405162461bcd60e51b815260206004820181905260248201527f4f776e61626c653a2063616c6c6572206973206e6f7420746865206f776e65726044820152606401610405565b610ffb60006110ed565b565b6000546001600160a01b031633146110575760405162461bcd60e51b815260206004820181905260248201527f4f776e61626c653a2063616c6c6572206973206e6f7420746865206f776e65726044820152606401610405565b611061828261119d565b5050565b6000546001600160a01b031633146110bf5760405162461bcd60e51b815260206004820181905260248201527f4f776e61626c653a2063616c6c6572206973206e6f7420746865206f776e65726044820152606401610405565b6002805473ffffffffffffffffffffffffffffffffffffffff19166001600160a01b03831617905550565b50565b6000546001600160a01b038281169116146110ea57600080546001600160a01b0383811673ffffffffffffffffffffffffffffffffffffffff19831681178455604051919092169283917f8be0079c531659141344cd1fd0a4f28419497f9722a3daafe3b4186f6b6457e09190a35050565b60006001600160e01b031982167f714df77c0000000000000000000000000000000000000000000000000000000014806103a957506103a982611851565b600082815260016020908152604090912082516111bc92840190611c21565b5060405182907fcdf4e344c0d23d4cdd0474039d176c55b19d531070dbe17856bfb993a5b5720b90600090a25050565b604080516001600160e01b0319831660248083019190915282518083039091018152604490910182526020810180517bffffffffffffffffffffffffffffffffffffffffffffffffffffffff166301ffc9a760e01b179052905160009190829081906001600160a01b038716906175309061126890869061213b565b6000604051808303818686fa925050503d80600081146112a4576040519150601f19603f3d011682016040523d82523d6000602084013e6112a9565b606091505b50915091506020815110156112c457600093505050506103a9565b8180156112e05750808060200190518101906112e09190611f08565b9695505050505050565b60008060006112f9858561189f565b915091506113068161190f565b509392505050565b6060600080866001600160a01b031684878760405161132d919061213b565b600060405180830381858888f193505050503d806000811461136b576040519150601f19603f3d011682016040523d82523d6000602084013e611370565b606091505b5091509150816112e05761138381611aca565b509695505050505050565b6060600080856001600160a01b031684866040516113ac919061213b565b6000604051808303818686fa925050503d80600081146113e8576040519150601f19603f3d011682016040523d82523d6000602084013e6113ed565b606091505b50915091508161140057610cc781611aca565b95945050505050565b6060600080856001600160a01b03168486604051611427919061213b565b6000604051808303818686f4925050503d80600081146113e8576040519150601f19603f3d011682016040523d82523d6000602084013e6113ed565b60008151600014156114b75760405162461bcd60e51b815260206004820152601d60248201527f6e6f20636f6e74726163742062797465636f64652070726f76696465640000006044820152606401610405565b81516020830184f090506001600160a01b0381166103a95760405162461bcd60e51b815260206004820152601960248201527f436f756c64206e6f74206465706c6f7920636f6e7472616374000000000000006044820152606401610405565b600061152482602061229f565b835110156115745760405162461bcd60e51b815260206004820152601560248201527f746f427974657333325f6f75744f66426f756e647300000000000000000000006044820152606401610405565b50016020015190565b60608161158b81601f61229f565b10156115d95760405162461bcd60e51b815260206004820152600e60248201527f736c6963655f6f766572666c6f770000000000000000000000000000000000006044820152606401610405565b6115e3828461229f565b845110156116335760405162461bcd60e51b815260206004820152601160248201527f736c6963655f6f75744f66426f756e64730000000000000000000000000000006044820152606401610405565b606082158015611652576040519150600082526020820160405261169c565b6040519150601f8416801560200281840101858101878315602002848b0101015b8183101561168b578051835260209283019201611673565b5050858452601f01601f1916604052505b50949350505050565b600080844710156116f85760405162461bcd60e51b815260206004820152601d60248201527f437265617465323a20696e73756666696369656e742062616c616e63650000006044820152606401610405565b82516117465760405162461bcd60e51b815260206004820181905260248201527f437265617465323a2062797465636f6465206c656e677468206973207a65726f6044820152606401610405565b8383516020850187f590506001600160a01b0381166117a75760405162461bcd60e51b815260206004820152601960248201527f437265617465323a204661696c6564206f6e206465706c6f79000000000000006044820152606401610405565b949350505050565b60008181526001602052604090208054606091906117cc9061236a565b80601f01602080910402602001604051908101604052809291908181526020018280546117f89061236a565b80156118455780601f1061181a57610100808354040283529160200191611845565b820191906000526020600020905b81548152906001019060200180831161182857829003601f168201915b50505050509050919050565b60006001600160e01b031982167f44c028fe0000000000000000000000000000000000000000000000000000000014806103a957506301ffc9a760e01b6001600160e01b03198316146103a9565b6000808251604114156118d65760208301516040840151606085015160001a6118ca87828585611ae2565b94509450505050611908565b82516040141561190057602083015160408401516118f5868383611bcf565b935093505050611908565b506000905060025b9250929050565b6000816004811115611923576119236123b5565b141561192c5750565b6001816004811115611940576119406123b5565b141561198e5760405162461bcd60e51b815260206004820152601860248201527f45434453413a20696e76616c6964207369676e617475726500000000000000006044820152606401610405565b60028160048111156119a2576119a26123b5565b14156119f05760405162461bcd60e51b815260206004820152601f60248201527f45434453413a20696e76616c6964207369676e6174757265206c656e677468006044820152606401610405565b6003816004811115611a0457611a046123b5565b1415611a5d5760405162461bcd60e51b815260206004820152602260248201527f45434453413a20696e76616c6964207369676e6174757265202773272076616c604482015261756560f01b6064820152608401610405565b6004816004811115611a7157611a716123b5565b14156110ea5760405162461bcd60e51b815260206004820152602260248201527f45434453413a20696e76616c6964207369676e6174757265202776272076616c604482015261756560f01b6064820152608401610405565b80516060901561010a5781518083602001fd5b919050565b6000807f7fffffffffffffffffffffffffffffff5d576e7357a4501ddfe92f46681b20a0831115611b195750600090506003611bc6565b8460ff16601b14158015611b3157508460ff16601c14155b15611b425750600090506004611bc6565b6040805160008082526020820180845289905260ff881692820192909252606081018690526080810185905260019060a0016020604051602081039080840390855afa158015611b96573d6000803e3d6000fd5b5050604051601f1901519150506001600160a01b038116611bbf57600060019250925050611bc6565b9150600090505b94509492505050565b6000807f7fffffffffffffffffffffffffffffffffffffffffffffffffffffffffffffff831681611c0560ff86901c601b61229f565b9050611c1387828885611ae2565b935093505050935093915050565b828054611c2d9061236a565b90600052602060002090601f016020900481019282611c4f5760008555611c95565b82601f10611c6857805160ff1916838001178555611c95565b82800160010185558215611c95579182015b82811115611c95578251825591602001919060010190611c7a565b50611ca1929150611ca5565b5090565b5b80821115611ca15760008155600101611ca6565b80356001600160a01b0381168114611add57600080fd5b600082601f830112611ce257600080fd5b81356020611cf7611cf283612253565b612222565b80838252828201915082860187848660051b8901011115611d1757600080fd5b60005b85811015611d3657813584529284019290840190600101611d1a565b5090979650505050505050565b60008083601f840112611d5557600080fd5b50813567ffffffffffffffff811115611d6d57600080fd5b60208301915083602082850101111561190857600080fd5b600082601f830112611d9657600080fd5b8135611da4611cf282612277565b818152846020838601011115611db957600080fd5b816020850160208301376000918101602001919091529392505050565b600060208284031215611de857600080fd5b611df182611cba565b9392505050565b600060208284031215611e0a57600080fd5b813567ffffffffffffffff811115611e2157600080fd5b6117a784828501611cd1565b60008060408385031215611e4057600080fd5b823567ffffffffffffffff80821115611e5857600080fd5b611e6486838701611cd1565b9350602091508185013581811115611e7b57600080fd5b8501601f81018713611e8c57600080fd5b8035611e9a611cf282612253565b8082825285820191508584018a878560051b8701011115611eba57600080fd5b6000805b85811015611ef557823588811115611ed4578283fd5b611ee28e8b838b0101611d85565b8652509388019391880191600101611ebe565b5050508096505050505050509250929050565b600060208284031215611f1a57600080fd5b81518015158114611df157600080fd5b600060208284031215611f3c57600080fd5b5035919050565b600080600060408486031215611f5857600080fd5b83359250602084013567ffffffffffffffff811115611f7657600080fd5b611f8286828701611d43565b9497909650939450505050565b60008060408385031215611fa257600080fd5b82359150602083013567ffffffffffffffff811115611fc057600080fd5b611fcc85828601611d85565b9150509250929050565b600060208284031215611fe857600080fd5b8135611df1816123f7565b60006020828403121561200557600080fd5b8151611df1816123f7565b60006020828403121561202257600080fd5b815167ffffffffffffffff81111561203957600080fd5b8201601f8101841361204a57600080fd5b8051612058611cf282612277565b81815285602083850101111561206d57600080fd5b61140082602083016020860161233a565b60008060008060006080868803121561209657600080fd5b853594506120a660208701611cba565b935060408601359250606086013567ffffffffffffffff8111156120c957600080fd5b6120d588828901611d43565b969995985093965092949392505050565b81835281816020850137506000828201602090810191909152601f909101601f19169091010190565b6000815180845261212781602086016020860161233a565b601f01601f19169290920160200192915050565b6000825161214d81846020870161233a565b9190910192915050565b6001600160a01b03851681528360208201526060604082015260006112e06060830184866120e6565b6000602080830181845280855180835260408601915060408160051b870101925083870160005b828110156121d557603f198886030184526121c385835161210f565b945092850192908501906001016121a7565b5092979650505050505050565b8281526040602082015260006117a7604083018461210f565b6020815260006117a76020830184866120e6565b602081526000611df1602083018461210f565b604051601f8201601f1916810167ffffffffffffffff8111828210171561224b5761224b6123e1565b604052919050565b600067ffffffffffffffff82111561226d5761226d6123e1565b5060051b60200190565b600067ffffffffffffffff821115612291576122916123e1565b50601f01601f191660200190565b600082198211156122b2576122b261239f565b500190565b6000828210156122c9576122c961239f565b500390565b6001600160e01b031981358181169160048510156122f65780818660040360031b1b83161692505b505092915050565b805160208201516bffffffffffffffffffffffff1980821692919060148310156123325780818460140360031b1b83161693505b505050919050565b60005b8381101561235557818101518382015260200161233d565b83811115612364576000848401525b50505050565b600181811c9082168061237e57607f821691505b60208210811415610d7f57634e487b7160e01b600052602260045260246000fd5b634e487b7160e01b600052601160045260246000fd5b634e487b7160e01b600052602160045260246000fd5b634e487b7160e01b600052603260045260246000fd5b634e487b7160e01b600052604160045260246000fd5b6001600160e01b0319811681146110ea57600080fdfea2646970667358221220155d75e7a52d1d1abfc44e8f52259c8401a6e794adaf0dc72476a67578d0b6da64736f6c63430008070033",
  "linkReferences": {},
  "deployedLinkReferences": {}
}