{
  "_format": "hh-sol-artifact-1",
  "contractName": "LSP0ERC725AccountInit",
  "sourceName": "contracts/LSP0ERC725Account/LSP0ERC725AccountInit.sol",
  "abi": [
    {
      "anonymous": false,
      "inputs": [
        {
          "indexed": true,
          "internalType": "uint256",
          "name": "operation",
          "type": "uint256"
        },
        {
          "indexed": true,
          "internalType": "address",
          "name": "contractAddress",
          "type": "address"
        },
        {
          "indexed": true,
          "internalType": "uint256",
          "name": "value",
          "type": "uint256"
        }
      ],
      "name": "ContractCreated",
      "type": "event"
    },
    {
      "anonymous": false,
      "inputs": [
        {
          "indexed": true,
          "internalType": "bytes32",
          "name": "key",
          "type": "bytes32"
        }
      ],
      "name": "DataChanged",
      "type": "event"
    },
    {
      "anonymous": false,
      "inputs": [
        {
          "indexed": true,
          "internalType": "uint256",
          "name": "operation",
          "type": "uint256"
        },
        {
          "indexed": true,
          "internalType": "address",
          "name": "to",
          "type": "address"
        },
        {
          "indexed": true,
          "internalType": "uint256",
          "name": "value",
          "type": "uint256"
        },
        {
          "indexed": false,
          "internalType": "bytes4",
          "name": "selector",
          "type": "bytes4"
        }
      ],
      "name": "Executed",
      "type": "event"
    },
    {
      "anonymous": false,
      "inputs": [
        {
          "indexed": false,
          "internalType": "uint8",
          "name": "version",
          "type": "uint8"
        }
      ],
      "name": "Initialized",
      "type": "event"
    },
    {
      "anonymous": false,
      "inputs": [
        {
          "indexed": true,
          "internalType": "address",
          "name": "previousOwner",
          "type": "address"
        },
        {
          "indexed": true,
          "internalType": "address",
          "name": "newOwner",
          "type": "address"
        }
      ],
      "name": "OwnershipTransferred",
      "type": "event"
    },
    {
      "anonymous": false,
      "inputs": [
        {
          "indexed": true,
          "internalType": "address",
          "name": "from",
          "type": "address"
        },
        {
          "indexed": true,
          "internalType": "bytes32",
          "name": "typeId",
          "type": "bytes32"
        },
        {
          "indexed": true,
          "internalType": "bytes",
          "name": "returnedValue",
          "type": "bytes"
        },
        {
          "indexed": false,
          "internalType": "bytes",
          "name": "receivedData",
          "type": "bytes"
        }
      ],
      "name": "UniversalReceiver",
      "type": "event"
    },
    {
      "anonymous": false,
      "inputs": [
        {
          "indexed": true,
          "internalType": "address",
          "name": "sender",
          "type": "address"
        },
        {
          "indexed": true,
          "internalType": "uint256",
          "name": "value",
          "type": "uint256"
        }
      ],
      "name": "ValueReceived",
      "type": "event"
    },
    {
      "inputs": [],
      "name": "claimOwnership",
      "outputs": [],
      "stateMutability": "nonpayable",
      "type": "function"
    },
    {
      "inputs": [
        {
          "internalType": "uint256",
          "name": "_operation",
          "type": "uint256"
        },
        {
          "internalType": "address",
          "name": "_to",
          "type": "address"
        },
        {
          "internalType": "uint256",
          "name": "_value",
          "type": "uint256"
        },
        {
          "internalType": "bytes",
          "name": "_data",
          "type": "bytes"
        }
      ],
      "name": "execute",
      "outputs": [
        {
          "internalType": "bytes",
          "name": "result",
          "type": "bytes"
        }
      ],
      "stateMutability": "payable",
      "type": "function"
    },
    {
      "inputs": [
        {
          "internalType": "bytes32[]",
          "name": "keys",
          "type": "bytes32[]"
        }
      ],
      "name": "getData",
      "outputs": [
        {
          "internalType": "bytes[]",
          "name": "values",
          "type": "bytes[]"
        }
      ],
      "stateMutability": "view",
      "type": "function"
    },
    {
      "inputs": [
        {
          "internalType": "bytes32",
          "name": "key",
          "type": "bytes32"
        }
      ],
      "name": "getData",
      "outputs": [
        {
          "internalType": "bytes",
          "name": "value",
          "type": "bytes"
        }
      ],
      "stateMutability": "view",
      "type": "function"
    },
    {
      "inputs": [
        {
          "internalType": "address",
          "name": "_newOwner",
          "type": "address"
        }
      ],
      "name": "initialize",
      "outputs": [],
      "stateMutability": "nonpayable",
      "type": "function"
    },
    {
      "inputs": [],
      "name": "initialized",
      "outputs": [
        {
          "internalType": "uint8",
          "name": "",
          "type": "uint8"
        }
      ],
      "stateMutability": "view",
      "type": "function"
    },
    {
      "inputs": [],
      "name": "initializing",
      "outputs": [
        {
          "internalType": "bool",
          "name": "",
          "type": "bool"
        }
      ],
      "stateMutability": "view",
      "type": "function"
    },
    {
      "inputs": [
        {
          "internalType": "bytes32",
          "name": "_hash",
          "type": "bytes32"
        },
        {
          "internalType": "bytes",
          "name": "_signature",
          "type": "bytes"
        }
      ],
      "name": "isValidSignature",
      "outputs": [
        {
          "internalType": "bytes4",
          "name": "magicValue",
          "type": "bytes4"
        }
      ],
      "stateMutability": "view",
      "type": "function"
    },
    {
      "inputs": [],
      "name": "owner",
      "outputs": [
        {
          "internalType": "address",
          "name": "",
          "type": "address"
        }
      ],
      "stateMutability": "view",
      "type": "function"
    },
    {
      "inputs": [],
      "name": "pendingOwner",
      "outputs": [
        {
          "internalType": "address",
          "name": "",
          "type": "address"
        }
      ],
      "stateMutability": "view",
      "type": "function"
    },
    {
      "inputs": [],
      "name": "renounceOwnership",
      "outputs": [],
      "stateMutability": "nonpayable",
      "type": "function"
    },
    {
      "inputs": [
        {
          "internalType": "bytes32[]",
          "name": "keys",
          "type": "bytes32[]"
        },
        {
          "internalType": "bytes[]",
          "name": "values",
          "type": "bytes[]"
        }
      ],
      "name": "setData",
      "outputs": [],
      "stateMutability": "nonpayable",
      "type": "function"
    },
    {
      "inputs": [
        {
          "internalType": "bytes32",
          "name": "key",
          "type": "bytes32"
        },
        {
          "internalType": "bytes",
          "name": "value",
          "type": "bytes"
        }
      ],
      "name": "setData",
      "outputs": [],
      "stateMutability": "nonpayable",
      "type": "function"
    },
    {
      "inputs": [
        {
          "internalType": "bytes4",
          "name": "interfaceId",
          "type": "bytes4"
        }
      ],
      "name": "supportsInterface",
      "outputs": [
        {
          "internalType": "bool",
          "name": "",
          "type": "bool"
        }
      ],
      "stateMutability": "view",
      "type": "function"
    },
    {
      "inputs": [
        {
          "internalType": "address",
          "name": "_newOwner",
          "type": "address"
        }
      ],
      "name": "transferOwnership",
      "outputs": [],
      "stateMutability": "nonpayable",
      "type": "function"
    },
    {
      "inputs": [
        {
          "internalType": "bytes32",
          "name": "_typeId",
          "type": "bytes32"
        },
        {
          "internalType": "bytes",
          "name": "_data",
          "type": "bytes"
        }
      ],
      "name": "universalReceiver",
      "outputs": [
        {
          "internalType": "bytes",
          "name": "returnValue",
          "type": "bytes"
        }
      ],
      "stateMutability": "nonpayable",
      "type": "function"
    },
    {
      "stateMutability": "payable",
      "type": "receive"
    }
  ],
  "bytecode": "0x608060405234801561001057600080fd5b50612729806100206000396000f3fe6080604052600436106100f75760003560e01c806354f6127f1161008a5780638da5cb5b116100595780638da5cb5b146102d6578063c4d66de81461030e578063e30c39781461032e578063f2fde38b1461034e57600080fd5b806354f6127f146102615780636bb56a1414610281578063715018a6146102a15780637f23690c146102b657600080fd5b80632599f159116100c65780632599f159146101e257806344c028fe146101ff5780634e3e6e9c1461021f5780634e71e0c81461024c57600080fd5b806301ffc9a71461013057806314a6e29314610165578063158ef93e146101875780631626ba7e146101a957600080fd5b3661012b57604051349033907f7e71433ddf847725166244795048ecf3e3f9f35628254ecbf73605666423349390600090a3005b600080fd5b34801561013c57600080fd5b5061015061014b3660046122bc565b61036e565b60405190151581526020015b60405180910390f35b34801561017157600080fd5b50610185610180366004612113565b610435565b005b34801561019357600080fd5b5060005460405160ff909116815260200161015c565b3480156101b557600080fd5b506101c96101c4366004612275565b610567565b6040516001600160e01b0319909116815260200161015c565b3480156101ee57600080fd5b50600054610100900460ff16610150565b61021261020d366004612364565b61066a565b60405161015c91906124f5565b34801561022b57600080fd5b5061023f61023a3660046120de565b610d58565b60405161015c9190612466565b34801561025857600080fd5b50610185610e0c565b34801561026d57600080fd5b5061021261027c366004612210565b610ec0565b34801561028d57600080fd5b5061021261029c366004612229565b610ecb565b3480156102ad57600080fd5b5061018561101e565b3480156102c257600080fd5b506101856102d1366004612275565b61108b565b3480156102e257600080fd5b506000546201000090046001600160a01b03165b6040516001600160a01b03909116815260200161015c565b34801561031a57600080fd5b506101856103293660046120bc565b6110fa565b34801561033a57600080fd5b506002546102f6906001600160a01b031681565b34801561035a57600080fd5b506101856103693660046120bc565b611170565b60006001600160e01b03198216630b135d3f60e11b14806103b857506001600160e01b031982167f9a3bfe8800000000000000000000000000000000000000000000000000000000145b806103ec57506001600160e01b031982167f6bb56a1400000000000000000000000000000000000000000000000000000000145b8061042057506001600160e01b031982167fad7dd9b000000000000000000000000000000000000000000000000000000000145b8061042f575061042f826111ff565b92915050565b6000546001600160a01b036201000090910416331461049b5760405162461bcd60e51b815260206004820181905260248201527f4f776e61626c653a2063616c6c6572206973206e6f7420746865206f776e657260448201526064015b60405180910390fd5b80518251146105125760405162461bcd60e51b815260206004820152602660248201527f4b657973206c656e677468206e6f7420657175616c20746f2076616c7565732060448201527f6c656e67746800000000000000000000000000000000000000000000000000006064820152608401610492565b60005b82518110156105625761055a838281518110610533576105336126b1565b602002602001015183838151811061054d5761054d6126b1565b602002602001015161123d565b600101610515565b505050565b600080546201000090046001600160a01b0316803b1561062a5761059281630b135d3f60e11b61128c565b6105a4576001600160e01b0319610622565b604051630b135d3f60e11b81526001600160a01b03821690631626ba7e906105d290879087906004016124c8565b60206040518083038186803b1580156105ea57600080fd5b505afa1580156105fe573d6000803e3d6000fd5b505050506040513d601f19601f8201168201806040525081019061062291906122d9565b91505061042f565b610634848461138a565b6001600160a01b0316816001600160a01b03161461065a576001600160e01b0319610622565b50630b135d3f60e11b9392505050565b6000546060906001600160a01b03620100009091041633146106ce5760405162461bcd60e51b815260206004820181905260248201527f4f776e61626c653a2063616c6c6572206973206e6f7420746865206f776e65726044820152606401610492565b60005a9050866107d457844710156107375760405162461bcd60e51b815260206004820152602660248201527f455243373235583a20696e73756666696369656e742062616c616e636520666f6044820152651c8818d85b1b60d21b6064820152608401610492565b61077a868686868080601f0160208091040260200160405190810160405280939291908181526020018383808284376000920191909152508792506113ae915050565b9150846001600160a01b038716887f4810874456b8e6487bd861375cf6abd8e1c8bb5858c8ce36a86a04dabfac199e6107b387896125b4565b6040516001600160e01b0319909116815260200160405180910390a4610d4e565b60038714156108935784156108515760405162461bcd60e51b815260206004820152603860248201527f455243373235583a2063616e6e6f74207472616e736665722076616c7565207760448201527f697468206f7065726174696f6e2053544154494343414c4c00000000000000006064820152608401610492565b61077a8685858080601f01602080910402602001604051908101604052809392919081815260200183838082843760009201919091525086925061142e915050565b60048714156109525784156109105760405162461bcd60e51b815260206004820152603a60248201527f455243373235583a2063616e6e6f74207472616e736665722076616c7565207760448201527f697468206f7065726174696f6e2044454c454741544543414c4c0000000000006064820152608401610492565b61077a8685858080601f0160208091040260200160405190810160405280939291908181526020018383808284376000920191909152508692506114a9915050565b6001871415610af6576001600160a01b038616156109e45760405162461bcd60e51b815260206004820152604360248201527f455243373235583a20435245415445206f7065726174696f6e7320726571756960448201527f726520746865207265636569766572206164647265737320746f20626520656d60648201526270747960e81b608482015260a401610492565b84471015610a435760405162461bcd60e51b815260206004820152602660248201527f455243373235583a20696e73756666696369656e742062616c616e636520666f6044820152651c8818d85b1b60d21b6064820152608401610492565b6000610a858686868080601f01602080910402602001604051908101604052809392919081815260200183838082843760009201919091525061150392505050565b6040516bffffffffffffffffffffffff19606083901b166020820152909150603401604051602081830303815290604052925085816001600160a01b0316897f01c42bd7e97a66166063b02fce6924e6656b6c2c61966630165095c4fb0b7b2f60405160405180910390a450610d4e565b6002871415610d06576001600160a01b03861615610b885760405162461bcd60e51b815260206004820152604360248201527f455243373235583a20435245415445206f7065726174696f6e7320726571756960448201527f726520746865207265636569766572206164647265737320746f20626520656d60648201526270747960e81b608482015260a401610492565b84471015610be75760405162461bcd60e51b815260206004820152602660248201527f455243373235583a20696e73756666696369656e742062616c616e636520666f6044820152651c8818d85b1b60d21b6064820152608401610492565b6000610c3585858080601f016020809104026020016040519081016040528093929190818152602001838380828437600092019190915250610c3092506020915088905061259d565b6115b7565b90506000610c8486868080601f01602080910402602001604051908101604052809392919081815260200183838082843760009201829052509250610c7f9150602090508961259d565b61161d565b90506000610c93888484611745565b6040516bffffffffffffffffffffffff19606083901b166020820152909150603401604051602081830303815290604052945087816001600160a01b03168b7f01c42bd7e97a66166063b02fce6924e6656b6c2c61966630165095c4fb0b7b2f60405160405180910390a4505050610d4e565b60405162461bcd60e51b815260206004820152601460248201527f57726f6e67206f7065726174696f6e20747970650000000000000000000000006044820152606401610492565b5095945050505050565b6060815167ffffffffffffffff811115610d7457610d746126c7565b604051908082528060200260200182016040528015610da757816020015b6060815260200190600190039081610d925790505b50905060005b8251811015610e0657610dd8838281518110610dcb57610dcb6126b1565b602002602001015161184f565b828281518110610dea57610dea6126b1565b6020026020010181905250610dff8160010190565b9050610dad565b50919050565b6002546001600160a01b03163314610e8c5760405162461bcd60e51b815260206004820152602c60248201527f4f776e61626c65436c61696d3a2063616c6c6572206973206e6f74207468652060448201527f70656e64696e674f776e657200000000000000000000000000000000000000006064820152608401610492565b600254610ea1906001600160a01b03166118f1565b6002805473ffffffffffffffffffffffffffffffffffffffff19169055565b606061042f8261184f565b60606000610ef87f0cfc51aec37c55a4d0b1a65c6255c4bf2fbdf6277f3cc0730c45b828b6db8b4761184f565b90506014815110610fb6576000610f0e826125e4565b60601c9050610f248163c2d7bcc160e01b61128c565b15610fb45760405163c2d7bcc160e01b81526001600160a01b0382169063c2d7bcc190610f5b9033908a908a908a9060040161243d565b600060405180830381600087803b158015610f7557600080fd5b505af1158015610f89573d6000803e3d6000fd5b505050506040513d6000823e601f3d908101601f19168201604052610fb191908101906122f6565b92505b505b81604051610fc49190612421565b604051809103902085610fd43390565b6001600160a01b03167f8187df79ab47ad16102e7bc8760349a115b3ba9869b8cedd78996f930ac9cac3878760405161100e9291906124e1565b60405180910390a4509392505050565b6000546001600160a01b036201000090910416331461107f5760405162461bcd60e51b815260206004820181905260248201527f4f776e61626c653a2063616c6c6572206973206e6f7420746865206f776e65726044820152606401610492565b61108960006118f1565b565b6000546001600160a01b03620100009091041633146110ec5760405162461bcd60e51b815260206004820181905260248201527f4f776e61626c653a2063616c6c6572206973206e6f7420746865206f776e65726044820152606401610492565b6110f6828261123d565b5050565b6000611106600161197d565b9050801561111e576000805461ff0019166101001790555b61112782611ab6565b80156110f6576000805461ff0019169055604051600181527f7f26b83ff96e1f2b6a682f133852f6798a09c465da95921460cefb38474024989060200160405180910390a15050565b6000546001600160a01b03620100009091041633146111d15760405162461bcd60e51b815260206004820181905260248201527f4f776e61626c653a2063616c6c6572206973206e6f7420746865206f776e65726044820152606401610492565b6002805473ffffffffffffffffffffffffffffffffffffffff19166001600160a01b03831617905550565b50565b60006001600160e01b031982167f714df77c00000000000000000000000000000000000000000000000000000000148061042f575061042f82611b3c565b6000828152600160209081526040909120825161125c92840190611f07565b5060405182907fcdf4e344c0d23d4cdd0474039d176c55b19d531070dbe17856bfb993a5b5720b90600090a25050565b604080516001600160e01b0319831660248083019190915282518083039091018152604490910182526020810180517bffffffffffffffffffffffffffffffffffffffffffffffffffffffff166301ffc9a760e01b179052905160009190829081906001600160a01b0387169061753090611308908690612421565b6000604051808303818686fa925050503d8060008114611344576040519150601f19603f3d011682016040523d82523d6000602084013e611349565b606091505b5091509150602081511015611364576000935050505061042f565b81801561138057508080602001905181019061138091906121ee565b9695505050505050565b60008060006113998585611b8a565b915091506113a681611bfa565b509392505050565b6060600080866001600160a01b03168487876040516113cd9190612421565b600060405180830381858888f193505050503d806000811461140b576040519150601f19603f3d011682016040523d82523d6000602084013e611410565b606091505b5091509150816113805761142381611db5565b509695505050505050565b6060600080856001600160a01b0316848660405161144c9190612421565b6000604051808303818686fa925050503d8060008114611488576040519150601f19603f3d011682016040523d82523d6000602084013e61148d565b606091505b5091509150816114a057610d4e81611db5565b95945050505050565b6060600080856001600160a01b031684866040516114c79190612421565b6000604051808303818686f4925050503d8060008114611488576040519150601f19603f3d011682016040523d82523d6000602084013e61148d565b60008151600014156115575760405162461bcd60e51b815260206004820152601d60248201527f6e6f20636f6e74726163742062797465636f64652070726f76696465640000006044820152606401610492565b81516020830184f090506001600160a01b03811661042f5760405162461bcd60e51b815260206004820152601960248201527f436f756c64206e6f74206465706c6f7920636f6e7472616374000000000000006044820152606401610492565b60006115c4826020612585565b835110156116145760405162461bcd60e51b815260206004820152601560248201527f746f427974657333325f6f75744f66426f756e647300000000000000000000006044820152606401610492565b50016020015190565b60608161162b81601f612585565b10156116795760405162461bcd60e51b815260206004820152600e60248201527f736c6963655f6f766572666c6f770000000000000000000000000000000000006044820152606401610492565b6116838284612585565b845110156116d35760405162461bcd60e51b815260206004820152601160248201527f736c6963655f6f75744f66426f756e64730000000000000000000000000000006044820152606401610492565b6060821580156116f2576040519150600082526020820160405261173c565b6040519150601f8416801560200281840101858101878315602002848b0101015b8183101561172b578051835260209283019201611713565b5050858452601f01601f1916604052505b50949350505050565b600080844710156117985760405162461bcd60e51b815260206004820152601d60248201527f437265617465323a20696e73756666696369656e742062616c616e63650000006044820152606401610492565b82516117e65760405162461bcd60e51b815260206004820181905260248201527f437265617465323a2062797465636f6465206c656e677468206973207a65726f6044820152606401610492565b8383516020850187f590506001600160a01b0381166118475760405162461bcd60e51b815260206004820152601960248201527f437265617465323a204661696c6564206f6e206465706c6f79000000000000006044820152606401610492565b949350505050565b600081815260016020526040902080546060919061186c90612650565b80601f016020809104026020016040519081016040528092919081815260200182805461189890612650565b80156118e55780601f106118ba576101008083540402835291602001916118e5565b820191906000526020600020905b8154815290600101906020018083116118c857829003601f168201915b50505050509050919050565b6000546001600160a01b038281166201000090920416146111fc57600080546001600160a01b03838116620100008181027fffffffffffffffffffff0000000000000000000000000000000000000000ffff851617855560405193049190911692909183917f8be0079c531659141344cd1fd0a4f28419497f9722a3daafe3b4186f6b6457e091a35050565b60008054610100900460ff1615611a1a578160ff1660011480156119a05750303b155b611a125760405162461bcd60e51b815260206004820152602e60248201527f496e697469616c697a61626c653a20636f6e747261637420697320616c72656160448201527f647920696e697469616c697a65640000000000000000000000000000000000006064820152608401610492565b506000919050565b60005460ff808416911610611a975760405162461bcd60e51b815260206004820152602e60248201527f496e697469616c697a61626c653a20636f6e747261637420697320616c72656160448201527f647920696e697469616c697a65640000000000000000000000000000000000006064820152608401610492565b506000805460ff191660ff92909216919091179055600190565b919050565b600054610100900460ff16611b335760405162461bcd60e51b815260206004820152602b60248201527f496e697469616c697a61626c653a20636f6e7472616374206973206e6f74206960448201527f6e697469616c697a696e670000000000000000000000000000000000000000006064820152608401610492565b6111fc816118f1565b60006001600160e01b031982167f44c028fe00000000000000000000000000000000000000000000000000000000148061042f57506301ffc9a760e01b6001600160e01b031983161461042f565b600080825160411415611bc15760208301516040840151606085015160001a611bb587828585611dc8565b94509450505050611bf3565b825160401415611beb5760208301516040840151611be0868383611eb5565b935093505050611bf3565b506000905060025b9250929050565b6000816004811115611c0e57611c0e61269b565b1415611c175750565b6001816004811115611c2b57611c2b61269b565b1415611c795760405162461bcd60e51b815260206004820152601860248201527f45434453413a20696e76616c6964207369676e617475726500000000000000006044820152606401610492565b6002816004811115611c8d57611c8d61269b565b1415611cdb5760405162461bcd60e51b815260206004820152601f60248201527f45434453413a20696e76616c6964207369676e6174757265206c656e677468006044820152606401610492565b6003816004811115611cef57611cef61269b565b1415611d485760405162461bcd60e51b815260206004820152602260248201527f45434453413a20696e76616c6964207369676e6174757265202773272076616c604482015261756560f01b6064820152608401610492565b6004816004811115611d5c57611d5c61269b565b14156111fc5760405162461bcd60e51b815260206004820152602260248201527f45434453413a20696e76616c6964207369676e6174757265202776272076616c604482015261756560f01b6064820152608401610492565b80516060901561012b5781518083602001fd5b6000807f7fffffffffffffffffffffffffffffff5d576e7357a4501ddfe92f46681b20a0831115611dff5750600090506003611eac565b8460ff16601b14158015611e1757508460ff16601c14155b15611e285750600090506004611eac565b6040805160008082526020820180845289905260ff881692820192909252606081018690526080810185905260019060a0016020604051602081039080840390855afa158015611e7c573d6000803e3d6000fd5b5050604051601f1901519150506001600160a01b038116611ea557600060019250925050611eac565b9150600090505b94509492505050565b6000807f7fffffffffffffffffffffffffffffffffffffffffffffffffffffffffffffff831681611eeb60ff86901c601b612585565b9050611ef987828885611dc8565b935093505050935093915050565b828054611f1390612650565b90600052602060002090601f016020900481019282611f355760008555611f7b565b82601f10611f4e57805160ff1916838001178555611f7b565b82800160010185558215611f7b579182015b82811115611f7b578251825591602001919060010190611f60565b50611f87929150611f8b565b5090565b5b80821115611f875760008155600101611f8c565b80356001600160a01b0381168114611ab157600080fd5b600082601f830112611fc857600080fd5b81356020611fdd611fd883612539565b612508565b80838252828201915082860187848660051b8901011115611ffd57600080fd5b60005b8581101561201c57813584529284019290840190600101612000565b5090979650505050505050565b60008083601f84011261203b57600080fd5b50813567ffffffffffffffff81111561205357600080fd5b602083019150836020828501011115611bf357600080fd5b600082601f83011261207c57600080fd5b813561208a611fd88261255d565b81815284602083860101111561209f57600080fd5b816020850160208301376000918101602001919091529392505050565b6000602082840312156120ce57600080fd5b6120d782611fa0565b9392505050565b6000602082840312156120f057600080fd5b813567ffffffffffffffff81111561210757600080fd5b61184784828501611fb7565b6000806040838503121561212657600080fd5b823567ffffffffffffffff8082111561213e57600080fd5b61214a86838701611fb7565b935060209150818501358181111561216157600080fd5b8501601f8101871361217257600080fd5b8035612180611fd882612539565b8082825285820191508584018a878560051b87010111156121a057600080fd5b6000805b858110156121db578235888111156121ba578283fd5b6121c88e8b838b010161206b565b86525093880193918801916001016121a4565b5050508096505050505050509250929050565b60006020828403121561220057600080fd5b815180151581146120d757600080fd5b60006020828403121561222257600080fd5b5035919050565b60008060006040848603121561223e57600080fd5b83359250602084013567ffffffffffffffff81111561225c57600080fd5b61226886828701612029565b9497909650939450505050565b6000806040838503121561228857600080fd5b82359150602083013567ffffffffffffffff8111156122a657600080fd5b6122b28582860161206b565b9150509250929050565b6000602082840312156122ce57600080fd5b81356120d7816126dd565b6000602082840312156122eb57600080fd5b81516120d7816126dd565b60006020828403121561230857600080fd5b815167ffffffffffffffff81111561231f57600080fd5b8201601f8101841361233057600080fd5b805161233e611fd88261255d565b81815285602083850101111561235357600080fd5b6114a0826020830160208601612620565b60008060008060006080868803121561237c57600080fd5b8535945061238c60208701611fa0565b935060408601359250606086013567ffffffffffffffff8111156123af57600080fd5b6123bb88828901612029565b969995985093965092949392505050565b81835281816020850137506000828201602090810191909152601f909101601f19169091010190565b6000815180845261240d816020860160208601612620565b601f01601f19169290920160200192915050565b60008251612433818460208701612620565b9190910192915050565b6001600160a01b03851681528360208201526060604082015260006113806060830184866123cc565b6000602080830181845280855180835260408601915060408160051b870101925083870160005b828110156124bb57603f198886030184526124a98583516123f5565b9450928501929085019060010161248d565b5092979650505050505050565b82815260406020820152600061184760408301846123f5565b6020815260006118476020830184866123cc565b6020815260006120d760208301846123f5565b604051601f8201601f1916810167ffffffffffffffff81118282101715612531576125316126c7565b604052919050565b600067ffffffffffffffff821115612553576125536126c7565b5060051b60200190565b600067ffffffffffffffff821115612577576125776126c7565b50601f01601f191660200190565b6000821982111561259857612598612685565b500190565b6000828210156125af576125af612685565b500390565b6001600160e01b031981358181169160048510156125dc5780818660040360031b1b83161692505b505092915050565b805160208201516bffffffffffffffffffffffff1980821692919060148310156126185780818460140360031b1b83161693505b505050919050565b60005b8381101561263b578181015183820152602001612623565b8381111561264a576000848401525b50505050565b600181811c9082168061266457607f821691505b60208210811415610e0657634e487b7160e01b600052602260045260246000fd5b634e487b7160e01b600052601160045260246000fd5b634e487b7160e01b600052602160045260246000fd5b634e487b7160e01b600052603260045260246000fd5b634e487b7160e01b600052604160045260246000fd5b6001600160e01b0319811681146111fc57600080fdfea264697066735822122026aa054cf12b470ababe6a4d306190783f3162fc475914ccb4f25e5d1d79285d64736f6c63430008070033",
  "linkReferences": {},
  "deployedLinkReferences": {}
}