{
  "_format": "hh-sol-artifact-1",
  "contractName": "LSP1UniversalReceiverDelegateUP",
  "sourceName": "contracts/LSP1UniversalReceiver/LSP1UniversalReceiverDelegateUP/LSP1UniversalReceiverDelegateUP.sol",
  "abi": [
    {
      "inputs": [
        {
          "internalType": "bytes4",
          "name": "interfaceId",
          "type": "bytes4"
        }
      ],
      "name": "supportsInterface",
      "outputs": [
        {
          "internalType": "bool",
          "name": "",
          "type": "bool"
        }
      ],
      "stateMutability": "view",
      "type": "function"
    },
    {
      "inputs": [
        {
          "internalType": "address",
          "name": "sender",
          "type": "address"
        },
        {
          "internalType": "bytes32",
          "name": "typeId",
          "type": "bytes32"
        },
        {
          "internalType": "bytes",
          "name": "data",
          "type": "bytes"
        }
      ],
      "name": "universalReceiverDelegate",
      "outputs": [
        {
          "internalType": "bytes",
          "name": "result",
          "type": "bytes"
        }
      ],
      "stateMutability": "nonpayable",
      "type": "function"
    }
  ],
  "bytecode": "0x608060405234801561001057600080fd5b50611a12806100206000396000f3fe608060405234801561001057600080fd5b50600436106100365760003560e01c806301ffc9a71461003b578063c2d7bcc114610063575b600080fd5b61004e610049366004611662565b610083565b60405190151581526020015b60405180910390f35b6100766100713660046115a4565b6100d3565b60405161005a919061183a565b60006001600160e01b031982167fc2d7bcc10000000000000000000000000000000000000000000000000000000014806100cd57506301ffc9a760e01b6001600160e01b03198316145b92915050565b60607f40b8bec57d7b5ff0dbd9e9acd0a47dfeb0101e1a203766f5ccab00445fbf39e983148061012257507fdbe2c314e1aee2970c72666f2ebe8933a8575263ea71e5ff6a9178e95d47a26f83145b8061014c57507f3724c94f0815e936299cca424da4140752198e0beb7931a6e0925d11bc97544c83145b8061017657507fc7a120a42b6057a0cbed111fbbfbd52fcd96748c04394f77fc2c3adbe0391e0183145b806101a057507f3ca9f769340018257ac15b3a00e502e8fb730d66086f774210f84d0205af31e783145b806101ca57507f09aaf55960715d8d86b57af40be36b0bfd469c9a3643445d8c65d39e27b4c56f83145b156101dc576101d984846101e3565b90505b9392505050565b60606001600160a01b0383163b61020957506040805160208101909152600081526100cd565b6000336001600160a01b0316638da5cb5b6040518163ffffffff1660e01b815260040160206040518083038186803b15801561024457600080fd5b505afa158015610258573d6000803e3d6000fd5b505050506040513d601f19601f8201168201806040525081019061027c9190611587565b90506102a8817fc403d48f000000000000000000000000000000000000000000000000000000006105b1565b6102c25750506040805160208101909152600081526100cd565b6000816001600160a01b031663d4b839926040518163ffffffff1660e01b815260040160206040518083038186803b1580156102fd57600080fd5b505afa158015610311573d6000803e3d6000fd5b505050506040513d601f19601f820116820180604052508101906103359190611587565b9050336001600160a01b038216146103605760405180602001604052806000815250925050506100cd565b60008060008061036f886106af565b93509350935093506000610386838b60601b610940565b6040516354f6127f60e01b81526004810182905290915060009033906354f6127f9060240160006040518083038186803b1580156103c357600080fd5b505afa1580156103d7573d6000803e3d6000fd5b505050506040513d6000823e601f3d908101601f191682016040526103ff919081019061168c565b905085610461576000610411826118d5565b73ffffffffffffffffffffffffffffffffffffffff19161461044c5760405180602001604052806000815250985050505050505050506100cd565b61045a3386848e878d6109a0565b98506105a3565b85156105a3576000610472826118d5565b73ffffffffffffffffffffffffffffffffffffffff191614156104ae5760405180602001604052806000815250985050505050505050506100cd565b7f3ca9f769340018257ac15b3a00e502e8fb730d66086f774210f84d0205af31e78a14610592576040517f70a082310000000000000000000000000000000000000000000000000000000081523360048201526000906001600160a01b038d16906370a082319060240160206040518083038186803b15801561053057600080fd5b505afa158015610544573d6000803e3d6000fd5b505050506040513d601f19601f8201168201806040525081019061056891906116fa565b90508015610590576040518060200160405280600081525099505050505050505050506100cd565b505b6105a033868685858d6109ce565b98505b505050505050505092915050565b604080516001600160e01b0319831660248083019190915282518083039091018152604490910182526020810180517bffffffffffffffffffffffffffffffffffffffffffffffffffffffff166301ffc9a760e01b179052905160009190829081906001600160a01b038716906175309061062d90869061173f565b6000604051808303818686fa925050503d8060008114610669576040519150601f19603f3d011682016040523d82523d6000602084013e61066e565b606091505b509150915060208151101561068957600093505050506100cd565b8180156106a55750808060200190518101906106a59190611640565b9695505050505050565b60008080807f40b8bec57d7b5ff0dbd9e9acd0a47dfeb0101e1a203766f5ccab00445fbf39e985148061070157507fdbe2c314e1aee2970c72666f2ebe8933a8575263ea71e5ff6a9178e95d47a26f85145b8061072b57507fc7a120a42b6057a0cbed111fbbfbd52fcd96748c04394f77fc2c3adbe0391e0185145b8061075557507f3724c94f0815e936299cca424da4140752198e0beb7931a6e0925d11bc97544c85145b1561089d577f6460ee3c0aac563ccbf76d6e1d07bada78e3a9514e6382b736ed3f478ab7b90b92507f812c4334633eb816c80d0000000000000000000000000000000000000000000091507f40b8bec57d7b5ff0dbd9e9acd0a47dfeb0101e1a203766f5ccab00445fbf39e98514806107ed57507fdbe2c314e1aee2970c72666f2ebe8933a8575263ea71e5ff6a9178e95d47a26f85145b610817577f4939914500000000000000000000000000000000000000000000000000000000610839565b7fe33f65c3000000000000000000000000000000000000000000000000000000005b90507f40b8bec57d7b5ff0dbd9e9acd0a47dfeb0101e1a203766f5ccab00445fbf39e985148061088857507f3724c94f0815e936299cca424da4140752198e0beb7931a6e0925d11bc97544c85145b610893576000610896565b60015b9350610939565b507f55482936e01da86729a45d2b87a6b1d3bc582bea0ec00e38bdb340e3af6f9f0691507f192448c3c0f88c7f238c0000000000000000000000000000000000000000000090507f8c1d44f6000000000000000000000000000000000000000000000000000000007f3ca9f769340018257ac15b3a00e502e8fb730d66086f774210f84d0205af31e78514610933576000610936565b60015b93505b9193509193565b6040805173ffffffffffffffffffffffffffffffffffffffff19841660208201526bffffffffffffffffffffffff198316602c8201526000918291016040516020818303038152906040529050610998816020015190565b949350505050565b60606000806109b289898989896109e0565b915091506109c1848383610d05565b9998505050505050505050565b60606000806109b28989898989610e19565b604080516003808252608082019092526060918291906020820183803683370190505060408051600380825260808201909252919350816020015b6060815260200190600190039081610a1b579050506040516354f6127f60e01b8152600481018890529091506000906001600160a01b038916906354f6127f9060240160006040518083038186803b158015610a7657600080fd5b505afa158015610a8a573d6000803e3d6000fd5b505050506040513d6000823e601f3d908101601f19168201604052610ab2919081019061168c565b90508683600081518110610ac857610ac8611998565b6020026020010181815250508583600281518110610ae857610ae8611998565b6020908102919091010152604080516001600160a01b038716741400000000000000000000000000000000000000001860148201526034810190915282600181518110610b3757610b37611998565b60200260200101819052508051602014610bf257610b56876000611361565b83600181518110610b6957610b69611998565b602002602001018181525050610b7f600161137e565b82600081518110610b9257610b92611998565b6020908102919091018101919091526040516001600160e01b031986169181019190915260006024820152602c0160405160208183030381529060405282600281518110610be257610be2611998565b6020026020010181905250610cfa565b805160201415610cfa57600081806020019051810190610c1291906116fa565b90506000610c218260016118a6565b9050610c3789610c326001846118be565b611361565b85600181518110610c4a57610c4a611998565b602002602001018181525050610c5f8161137e565b84600081518110610c7257610c72611998565b6020026020010181905250858260c01b604051602001610cca9291906001600160e01b03199290921682527fffffffffffffffff000000000000000000000000000000000000000000000000166004820152600c0190565b60405160208183030381529060405284600281518110610cec57610cec611998565b602002602001018190525050505b509550959350505050565b606060008383604051602401610d1c9291906117a2565b60408051601f198184030181529181526020820180517bffffffffffffffffffffffffffffffffffffffffffffffffffffffff167f14a6e29300000000000000000000000000000000000000000000000000000000179052517f09c5eabe0000000000000000000000000000000000000000000000000000000081529091506001600160a01b038616906309c5eabe90610dba90849060040161183a565b600060405180830381600087803b158015610dd457600080fd5b505af1158015610de8573d6000803e3d6000fd5b505050506040513d6000823e601f3d908101601f19168201604052610e10919081019061168c565b95945050505050565b6060806000610e27846113a8565b90506000610e3f888367ffffffffffffffff16611361565b6040516354f6127f60e01b8152600481018a90529091506000906001600160a01b038b16906354f6127f9060240160006040518083038186803b158015610e8557600080fd5b505afa158015610e99573d6000803e3d6000fd5b505050506040513d6000823e601f3d908101601f19168201604052610ec1919081019061168c565b9050600081806020019051810190610ed991906116fa565b90506000610ee86001836118be565b9050610ef56001836118be565b8567ffffffffffffffff16141561103c576040805160038082526080820190925290602082016060803683370190505060408051600380825260808201909252919850816020015b6060815260200190600190039081610f3d5790505095508a87600081518110610f6857610f68611998565b602002602001018181525050610f7d8161137e565b86600081518110610f9057610f90611998565b60200260200101819052508887600181518110610faf57610faf611998565b6020026020010181815250506040518060200160405280600081525086600181518110610fde57610fde611998565b60200260200101819052508387600281518110610ffd57610ffd611998565b602002602001018181525050604051806020016040528060008152508660028151811061102c5761102c611998565b6020026020010181905250611352565b60408051600580825260c08201909252906020820160a0803683370190505060408051600580825260c08201909252919850816020015b60608152602001906001900390816110735790505095508a8760008151811061109e5761109e611998565b6020026020010181815250506110b38161137e565b866000815181106110c6576110c6611998565b602002602001018190525088876001815181106110e5576110e5611998565b602002602001018181525050604051806020016040528060008152508660018151811061111457611114611998565b6020026020010181905250600061112b8c83611361565b6040516354f6127f60e01b8152600481018290529091506000906001600160a01b038f16906354f6127f9060240160006040518083038186803b15801561117157600080fd5b505afa158015611185573d6000803e3d6000fd5b505050506040513d6000823e601f3d908101601f191682016040526111ad919081019061168c565b905060006111c38d6111be8461191a565b610940565b905060008f6001600160a01b03166354f6127f836040518263ffffffff1660e01b81526004016111f591815260200190565b60006040518083038186803b15801561120d57600080fd5b505afa158015611221573d6000803e3d6000fd5b505050506040513d6000823e601f3d908101601f19168201604052611249919081019061168c565b9050600061125a82600060046113c5565b9050888c60028151811061127057611270611998565b602002602001018181525050838b60028151811061129057611290611998565b6020026020010181905250848c6003815181106112af576112af611998565b602002602001018181525050604051806020016040528060008152508b6003815181106112de576112de611998565b6020026020010181905250828c6004815181106112fd576112fd611998565b602002602001018181525050808a60c01b60405160200161131f92919061175b565b6040516020818303038152906040528b60048151811061134157611341611998565b602002602001018190525050505050505b50505050509550959350505050565b600080611371848460801b6114f2565b9050610998816020015190565b60408051602080825281830190925260609160208201818036833750505060208101929092525090565b6000806113b883600460086113c5565b90506101dc816000611521565b6060816113d381601f6118a6565b10156114265760405162461bcd60e51b815260206004820152600e60248201527f736c6963655f6f766572666c6f7700000000000000000000000000000000000060448201526064015b60405180910390fd5b61143082846118a6565b845110156114805760405162461bcd60e51b815260206004820152601160248201527f736c6963655f6f75744f66426f756e6473000000000000000000000000000000604482015260640161141d565b60608215801561149f57604051915060008252602082016040526114e9565b6040519150601f8416801560200281840101858101878315602002848b0101015b818310156114d85780518352602092830192016114c0565b5050858452601f01601f1916604052505b50949350505050565b604080516020808252818301909252606091602082018180368337505050602081019390935250603082015290565b600061152e8260086118a6565b8351101561157e5760405162461bcd60e51b815260206004820152601460248201527f746f55696e7436345f6f75744f66426f756e6473000000000000000000000000604482015260640161141d565b50016008015190565b60006020828403121561159957600080fd5b81516101dc816119c4565b6000806000606084860312156115b957600080fd5b83356115c4816119c4565b925060208401359150604084013567ffffffffffffffff8111156115e757600080fd5b8401601f810186136115f857600080fd5b803561160b6116068261187e565b61184d565b81815287602083850101111561162057600080fd5b816020840160208301376000602083830101528093505050509250925092565b60006020828403121561165257600080fd5b815180151581146101dc57600080fd5b60006020828403121561167457600080fd5b81356001600160e01b0319811681146101dc57600080fd5b60006020828403121561169e57600080fd5b815167ffffffffffffffff8111156116b557600080fd5b8201601f810184136116c657600080fd5b80516116d46116068261187e565b8181528560208385010111156116e957600080fd5b610e10826020830160208601611952565b60006020828403121561170c57600080fd5b5051919050565b6000815180845261172b816020860160208601611952565b601f01601f19169290920160200192915050565b60008251611751818460208701611952565b9190910192915050565b6000835161176d818460208801611952565b7fffffffffffffffff000000000000000000000000000000000000000000000000939093169190920190815260080192915050565b604080825283519082018190526000906020906060840190828701845b828110156117db578151845292840192908401906001016117bf565b50505083810382850152845180825282820190600581901b8301840187850160005b8381101561182b57601f19868403018552611819838351611713565b948701949250908601906001016117fd565b50909998505050505050505050565b6020815260006101dc6020830184611713565b604051601f8201601f1916810167ffffffffffffffff81118282101715611876576118766119ae565b604052919050565b600067ffffffffffffffff821115611898576118986119ae565b50601f01601f191660200190565b600082198211156118b9576118b9611982565b500190565b6000828210156118d0576118d0611982565b500390565b60008151602083015173ffffffffffffffffffffffffffffffffffffffff198082169350600c83101561191257808184600c0360031b1b83161693505b505050919050565b805160208201516bffffffffffffffffffffffff1980821692919060148310156119125760149290920360031b82901b161692915050565b60005b8381101561196d578181015183820152602001611955565b8381111561197c576000848401525b50505050565b634e487b7160e01b600052601160045260246000fd5b634e487b7160e01b600052603260045260246000fd5b634e487b7160e01b600052604160045260246000fd5b6001600160a01b03811681146119d957600080fd5b5056fea264697066735822122028c71adf1f90763f97fc874e56ae6838bc7df2b69c16046f7888f45cd6d63f5764736f6c63430008070033",
  "linkReferences": {},
  "deployedLinkReferences": {}
}