{
  "_format": "hh-sol-artifact-1",
  "contractName": "LSP1UniversalReceiverDelegateVault",
  "sourceName": "contracts/LSP1UniversalReceiver/LSP1UniversalReceiverDelegateVault/LSP1UniversalReceiverDelegateVault.sol",
  "abi": [
    {
      "inputs": [
        {
          "internalType": "bytes4",
          "name": "interfaceId",
          "type": "bytes4"
        }
      ],
      "name": "supportsInterface",
      "outputs": [
        {
          "internalType": "bool",
          "name": "",
          "type": "bool"
        }
      ],
      "stateMutability": "view",
      "type": "function"
    },
    {
      "inputs": [
        {
          "internalType": "address",
          "name": "sender",
          "type": "address"
        },
        {
          "internalType": "bytes32",
          "name": "typeId",
          "type": "bytes32"
        },
        {
          "internalType": "bytes",
          "name": "data",
          "type": "bytes"
        }
      ],
      "name": "universalReceiverDelegate",
      "outputs": [
        {
          "internalType": "bytes",
          "name": "result",
          "type": "bytes"
        }
      ],
      "stateMutability": "nonpayable",
      "type": "function"
    }
  ],
  "bytecode": "0x608060405234801561001057600080fd5b50611790806100206000396000f3fe608060405234801561001057600080fd5b50600436106100365760003560e01c806301ffc9a71461003b578063c2d7bcc114610063575b600080fd5b61004e6100493660046113ef565b610083565b60405190151581526020015b60405180910390f35b610076610071366004611325565b6100d3565b60405161005a91906115d0565b60006001600160e01b031982167fc2d7bcc10000000000000000000000000000000000000000000000000000000014806100cd57506301ffc9a760e01b6001600160e01b03198316145b92915050565b60607f40b8bec57d7b5ff0dbd9e9acd0a47dfeb0101e1a203766f5ccab00445fbf39e983148061012257507fdbe2c314e1aee2970c72666f2ebe8933a8575263ea71e5ff6a9178e95d47a26f83145b8061014c57507f3724c94f0815e936299cca424da4140752198e0beb7931a6e0925d11bc97544c83145b8061017657507fc7a120a42b6057a0cbed111fbbfbd52fcd96748c04394f77fc2c3adbe0391e0183145b1561018857610185848461018f565b90505b9392505050565b60606001600160a01b0383163b6101b557506040805160208101909152600081526100cd565b6101c63363460ea27b60e11b6104bc565b6101df57506040805160208101909152600081526100cd565b6000806000806101ee866105ba565b93509350935093506000610205838960601b610832565b6040516354f6127f60e01b81526004810182905290915060009033906354f6127f9060240160006040518083038186803b15801561024257600080fd5b505afa158015610256573d6000803e3d6000fd5b505050506040513d6000823e601f3d908101601f1916820160405261027e9190810190611419565b90508561033c5760006102908261166b565b73ffffffffffffffffffffffffffffffffffffffff1916146102c9576040518060200160405280600081525096505050505050506100cd565b6000806102d93388868e89610892565b6040516314a6e29360e01b8152919350915033906314a6e293906103039085908590600401611538565b600060405180830381600087803b15801561031d57600080fd5b505af1158015610331573d6000803e3d6000fd5b5050505050506104b0565b85156104b057600061034d8261166b565b73ffffffffffffffffffffffffffffffffffffffff19161415610387576040518060200160405280600081525096505050505050506100cd565b6040517f70a082310000000000000000000000000000000000000000000000000000000081523360048201526000906001600160a01b038b16906370a082319060240160206040518083038186803b1580156103e257600080fd5b505afa1580156103f6573d6000803e3d6000fd5b505050506040513d601f19601f8201168201806040525081019061041a9190611490565b9050801561044057604051806020016040528060008152509750505050505050506100cd565b6000806104503389898888610bb7565b6040516314a6e29360e01b8152919350915033906314a6e2939061047a9085908590600401611538565b600060405180830381600087803b15801561049457600080fd5b505af11580156104a8573d6000803e3d6000fd5b505050505050505b50505050505092915050565b604080516001600160e01b0319831660248083019190915282518083039091018152604490910182526020810180517bffffffffffffffffffffffffffffffffffffffffffffffffffffffff166301ffc9a760e01b179052905160009190829081906001600160a01b03871690617530906105389086906114d5565b6000604051808303818686fa925050503d8060008114610574576040519150601f19603f3d011682016040523d82523d6000602084013e610579565b606091505b509150915060208151101561059457600093505050506100cd565b8180156105b05750808060200190518101906105b091906113cd565b9695505050505050565b60008080807f40b8bec57d7b5ff0dbd9e9acd0a47dfeb0101e1a203766f5ccab00445fbf39e985148061060c57507fdbe2c314e1aee2970c72666f2ebe8933a8575263ea71e5ff6a9178e95d47a26f85145b8061063657507fc7a120a42b6057a0cbed111fbbfbd52fcd96748c04394f77fc2c3adbe0391e0185145b8061066057507f3724c94f0815e936299cca424da4140752198e0beb7931a6e0925d11bc97544c85145b156107a8577f6460ee3c0aac563ccbf76d6e1d07bada78e3a9514e6382b736ed3f478ab7b90b92507f812c4334633eb816c80d0000000000000000000000000000000000000000000091507f40b8bec57d7b5ff0dbd9e9acd0a47dfeb0101e1a203766f5ccab00445fbf39e98514806106f857507fdbe2c314e1aee2970c72666f2ebe8933a8575263ea71e5ff6a9178e95d47a26f85145b610722577f4939914500000000000000000000000000000000000000000000000000000000610744565b7fe33f65c3000000000000000000000000000000000000000000000000000000005b90507f40b8bec57d7b5ff0dbd9e9acd0a47dfeb0101e1a203766f5ccab00445fbf39e985148061079357507f3724c94f0815e936299cca424da4140752198e0beb7931a6e0925d11bc97544c85145b61079e5760006107a1565b60015b935061082b565b507f55482936e01da86729a45d2b87a6b1d3bc582bea0ec00e38bdb340e3af6f9f0691507f192448c3c0f88c7f238c00000000000000000000000000000000000000000000905063460ea27b60e11b7f3ca9f769340018257ac15b3a00e502e8fb730d66086f774210f84d0205af31e78514610825576000610828565b60015b93505b9193509193565b6040805173ffffffffffffffffffffffffffffffffffffffff19841660208201526bffffffffffffffffffffffff198316602c820152600091829101604051602081830303815290604052905061088a816020015190565b949350505050565b604080516003808252608082019092526060918291906020820183803683370190505060408051600380825260808201909252919350816020015b60608152602001906001900390816108cd579050506040516354f6127f60e01b8152600481018890529091506000906001600160a01b038916906354f6127f9060240160006040518083038186803b15801561092857600080fd5b505afa15801561093c573d6000803e3d6000fd5b505050506040513d6000823e601f3d908101601f191682016040526109649190810190611419565b9050868360008151811061097a5761097a61172e565b602002602001018181525050858360028151811061099a5761099a61172e565b6020908102919091010152604080516001600160a01b0387167414000000000000000000000000000000000000000018601482015260348101909152826001815181106109e9576109e961172e565b60200260200101819052508051602014610aa457610a088760006110ff565b83600181518110610a1b57610a1b61172e565b602002602001018181525050610a31600161111c565b82600081518110610a4457610a4461172e565b6020908102919091018101919091526040516001600160e01b031986169181019190915260006024820152602c0160405160208183030381529060405282600281518110610a9457610a9461172e565b6020026020010181905250610bac565b805160201415610bac57600081806020019051810190610ac49190611490565b90506000610ad382600161163c565b9050610ae989610ae4600184611654565b6110ff565b85600181518110610afc57610afc61172e565b602002602001018181525050610b118161111c565b84600081518110610b2457610b2461172e565b6020026020010181905250858260c01b604051602001610b7c9291906001600160e01b03199290921682527fffffffffffffffff000000000000000000000000000000000000000000000000166004820152600c0190565b60405160208183030381529060405284600281518110610b9e57610b9e61172e565b602002602001018190525050505b509550959350505050565b6060806000610bc584611146565b90506000610bdd888367ffffffffffffffff166110ff565b6040516354f6127f60e01b8152600481018a90529091506000906001600160a01b038b16906354f6127f9060240160006040518083038186803b158015610c2357600080fd5b505afa158015610c37573d6000803e3d6000fd5b505050506040513d6000823e601f3d908101601f19168201604052610c5f9190810190611419565b9050600081806020019051810190610c779190611490565b90506000610c86600183611654565b9050610c93600183611654565b8567ffffffffffffffff161415610dda576040805160038082526080820190925290602082016060803683370190505060408051600380825260808201909252919850816020015b6060815260200190600190039081610cdb5790505095508a87600081518110610d0657610d0661172e565b602002602001018181525050610d1b8161111c565b86600081518110610d2e57610d2e61172e565b60200260200101819052508887600181518110610d4d57610d4d61172e565b6020026020010181815250506040518060200160405280600081525086600181518110610d7c57610d7c61172e565b60200260200101819052508387600281518110610d9b57610d9b61172e565b6020026020010181815250506040518060200160405280600081525086600281518110610dca57610dca61172e565b60200260200101819052506110f0565b60408051600580825260c08201909252906020820160a0803683370190505060408051600580825260c08201909252919850816020015b6060815260200190600190039081610e115790505095508a87600081518110610e3c57610e3c61172e565b602002602001018181525050610e518161111c565b86600081518110610e6457610e6461172e565b60200260200101819052508887600181518110610e8357610e8361172e565b6020026020010181815250506040518060200160405280600081525086600181518110610eb257610eb261172e565b60200260200101819052506000610ec98c836110ff565b6040516354f6127f60e01b8152600481018290529091506000906001600160a01b038f16906354f6127f9060240160006040518083038186803b158015610f0f57600080fd5b505afa158015610f23573d6000803e3d6000fd5b505050506040513d6000823e601f3d908101601f19168201604052610f4b9190810190611419565b90506000610f618d610f5c846116b0565b610832565b905060008f6001600160a01b03166354f6127f836040518263ffffffff1660e01b8152600401610f9391815260200190565b60006040518083038186803b158015610fab57600080fd5b505afa158015610fbf573d6000803e3d6000fd5b505050506040513d6000823e601f3d908101601f19168201604052610fe79190810190611419565b90506000610ff88260006004611163565b9050888c60028151811061100e5761100e61172e565b602002602001018181525050838b60028151811061102e5761102e61172e565b6020026020010181905250848c60038151811061104d5761104d61172e565b602002602001018181525050604051806020016040528060008152508b60038151811061107c5761107c61172e565b6020026020010181905250828c60048151811061109b5761109b61172e565b602002602001018181525050808a60c01b6040516020016110bd9291906114f1565b6040516020818303038152906040528b6004815181106110df576110df61172e565b602002602001018190525050505050505b50505050509550959350505050565b60008061110f848460801b611290565b905061088a816020015190565b60408051602080825281830190925260609160208201818036833750505060208101929092525090565b6000806111568360046008611163565b90506101888160006112bf565b60608161117181601f61163c565b10156111c45760405162461bcd60e51b815260206004820152600e60248201527f736c6963655f6f766572666c6f7700000000000000000000000000000000000060448201526064015b60405180910390fd5b6111ce828461163c565b8451101561121e5760405162461bcd60e51b815260206004820152601160248201527f736c6963655f6f75744f66426f756e647300000000000000000000000000000060448201526064016111bb565b60608215801561123d5760405191506000825260208201604052611287565b6040519150601f8416801560200281840101858101878315602002848b0101015b8183101561127657805183526020928301920161125e565b5050858452601f01601f1916604052505b50949350505050565b604080516020808252818301909252606091602082018180368337505050602081019390935250603082015290565b60006112cc82600861163c565b8351101561131c5760405162461bcd60e51b815260206004820152601460248201527f746f55696e7436345f6f75744f66426f756e647300000000000000000000000060448201526064016111bb565b50016008015190565b60008060006060848603121561133a57600080fd5b83356001600160a01b038116811461135157600080fd5b925060208401359150604084013567ffffffffffffffff81111561137457600080fd5b8401601f8101861361138557600080fd5b803561139861139382611614565b6115e3565b8181528760208385010111156113ad57600080fd5b816020840160208301376000602083830101528093505050509250925092565b6000602082840312156113df57600080fd5b8151801515811461018857600080fd5b60006020828403121561140157600080fd5b81356001600160e01b03198116811461018857600080fd5b60006020828403121561142b57600080fd5b815167ffffffffffffffff81111561144257600080fd5b8201601f8101841361145357600080fd5b805161146161139382611614565b81815285602083850101111561147657600080fd5b6114878260208301602086016116e8565b95945050505050565b6000602082840312156114a257600080fd5b5051919050565b600081518084526114c18160208601602086016116e8565b601f01601f19169290920160200192915050565b600082516114e78184602087016116e8565b9190910192915050565b600083516115038184602088016116e8565b7fffffffffffffffff000000000000000000000000000000000000000000000000939093169190920190815260080192915050565b604080825283519082018190526000906020906060840190828701845b8281101561157157815184529284019290840190600101611555565b50505083810382850152845180825282820190600581901b8301840187850160005b838110156115c157601f198684030185526115af8383516114a9565b94870194925090860190600101611593565b50909998505050505050505050565b60208152600061018860208301846114a9565b604051601f8201601f1916810167ffffffffffffffff8111828210171561160c5761160c611744565b604052919050565b600067ffffffffffffffff82111561162e5761162e611744565b50601f01601f191660200190565b6000821982111561164f5761164f611718565b500190565b60008282101561166657611666611718565b500390565b60008151602083015173ffffffffffffffffffffffffffffffffffffffff198082169350600c8310156116a857808184600c0360031b1b83161693505b505050919050565b805160208201516bffffffffffffffffffffffff1980821692919060148310156116a85760149290920360031b82901b161692915050565b60005b838110156117035781810151838201526020016116eb565b83811115611712576000848401525b50505050565b634e487b7160e01b600052601160045260246000fd5b634e487b7160e01b600052603260045260246000fd5b634e487b7160e01b600052604160045260246000fdfea2646970667358221220709384461f570d0e70de3b039dab5a18e0bb2e40f6682395dc6501f1871fb5d064736f6c63430008070033",
  "linkReferences": {},
  "deployedLinkReferences": {}
}