{
  "_format": "hh-sol-artifact-1",
  "contractName": "LSP6KeyManagerInit",
  "sourceName": "contracts/LSP6KeyManager/LSP6KeyManagerInit.sol",
  "abi": [
    {
      "inputs": [
        {
          "internalType": "address",
          "name": "from",
          "type": "address"
        }
      ],
      "name": "NoPermissionsSet",
      "type": "error"
    },
    {
      "inputs": [
        {
          "internalType": "address",
          "name": "from",
          "type": "address"
        },
        {
          "internalType": "address",
          "name": "disallowedAddress",
          "type": "address"
        }
      ],
      "name": "NotAllowedAddress",
      "type": "error"
    },
    {
      "inputs": [
        {
          "internalType": "address",
          "name": "from",
          "type": "address"
        },
        {
          "internalType": "bytes32",
          "name": "disallowedKey",
          "type": "bytes32"
        }
      ],
      "name": "NotAllowedERC725YKey",
      "type": "error"
    },
    {
      "inputs": [
        {
          "internalType": "address",
          "name": "from",
          "type": "address"
        },
        {
          "internalType": "bytes4",
          "name": "disallowedFunction",
          "type": "bytes4"
        }
      ],
      "name": "NotAllowedFunction",
      "type": "error"
    },
    {
      "inputs": [
        {
          "internalType": "address",
          "name": "from",
          "type": "address"
        },
        {
          "internalType": "string",
          "name": "permission",
          "type": "string"
        }
      ],
      "name": "NotAuthorised",
      "type": "error"
    },
    {
      "anonymous": false,
      "inputs": [
        {
          "indexed": true,
          "internalType": "uint256",
          "name": "_value",
          "type": "uint256"
        },
        {
          "indexed": false,
          "internalType": "bytes4",
          "name": "_selector",
          "type": "bytes4"
        }
      ],
      "name": "Executed",
      "type": "event"
    },
    {
      "anonymous": false,
      "inputs": [
        {
          "indexed": false,
          "internalType": "uint8",
          "name": "version",
          "type": "uint8"
        }
      ],
      "name": "Initialized",
      "type": "event"
    },
    {
      "inputs": [
        {
          "internalType": "bytes",
          "name": "_calldata",
          "type": "bytes"
        }
      ],
      "name": "execute",
      "outputs": [
        {
          "internalType": "bytes",
          "name": "",
          "type": "bytes"
        }
      ],
      "stateMutability": "payable",
      "type": "function"
    },
    {
      "inputs": [
        {
          "internalType": "bytes",
          "name": "_signature",
          "type": "bytes"
        },
        {
          "internalType": "uint256",
          "name": "_nonce",
          "type": "uint256"
        },
        {
          "internalType": "bytes",
          "name": "_calldata",
          "type": "bytes"
        }
      ],
      "name": "executeRelayCall",
      "outputs": [
        {
          "internalType": "bytes",
          "name": "",
          "type": "bytes"
        }
      ],
      "stateMutability": "payable",
      "type": "function"
    },
    {
      "inputs": [
        {
          "internalType": "address",
          "name": "_from",
          "type": "address"
        },
        {
          "internalType": "uint256",
          "name": "_channel",
          "type": "uint256"
        }
      ],
      "name": "getNonce",
      "outputs": [
        {
          "internalType": "uint256",
          "name": "",
          "type": "uint256"
        }
      ],
      "stateMutability": "view",
      "type": "function"
    },
    {
      "inputs": [
        {
          "internalType": "address",
          "name": "_account",
          "type": "address"
        }
      ],
      "name": "initialize",
      "outputs": [],
      "stateMutability": "nonpayable",
      "type": "function"
    },
    {
      "inputs": [
        {
          "internalType": "bytes32",
          "name": "_hash",
          "type": "bytes32"
        },
        {
          "internalType": "bytes",
          "name": "_signature",
          "type": "bytes"
        }
      ],
      "name": "isValidSignature",
      "outputs": [
        {
          "internalType": "bytes4",
          "name": "magicValue",
          "type": "bytes4"
        }
      ],
      "stateMutability": "view",
      "type": "function"
    },
    {
      "inputs": [
        {
          "internalType": "bytes4",
          "name": "interfaceId",
          "type": "bytes4"
        }
      ],
      "name": "supportsInterface",
      "outputs": [
        {
          "internalType": "bool",
          "name": "",
          "type": "bool"
        }
      ],
      "stateMutability": "view",
      "type": "function"
    },
    {
      "inputs": [],
      "name": "target",
      "outputs": [
        {
          "internalType": "address",
          "name": "",
          "type": "address"
        }
      ],
      "stateMutability": "view",
      "type": "function"
    }
  ],
  "bytecode": "0x608060405234801561001057600080fd5b50612ff4806100206000396000f3fe6080604052600436106100705760003560e01c8063895358031161004e5780638953580314610103578063902d5fa01461016e578063c4d66de814610181578063d4b83992146101a357600080fd5b806301ffc9a71461007557806309c5eabe146100aa5780631626ba7e146100ca575b600080fd5b34801561008157600080fd5b50610095610090366004612b1a565b6101e1565b60405190151581526020015b60405180910390f35b6100bd6100b8366004612b37565b61024c565b6040516100a19190612d0b565b3480156100d657600080fd5b506100ea6100e5366004612add565b61034a565b6040516001600160e01b031990911681526020016100a1565b34801561010f57600080fd5b5061016061011e36600461280d565b6001600160a01b039190911660009081526001602090815260408083208484529091529020546fffffffffffffffffffffffffffffffff1660809190911b1790565b6040519081526020016100a1565b6100bd61017c366004612be7565b6103a7565b34801561018d57600080fd5b506101a161019c3660046127f0565b6105d4565b005b3480156101af57600080fd5b506000546101c9906201000090046001600160a01b031681565b6040516001600160a01b0390911681526020016100a1565b60006001600160e01b031982167fc403d48f00000000000000000000000000000000000000000000000000000000148061022b57506001600160e01b03198216630b135d3f60e11b145b8061024657506301ffc9a760e01b6001600160e01b03198316145b92915050565b606061025933848461064b565b6000805481906201000090046001600160a01b0316345a908787604051610281929190612c83565b600060405180830381858888f193505050503d80600081146102bf576040519150601f19603f3d011682016040523d82523d6000602084013e6102c4565b606091505b5091509150816102d9576102d781610a77565b505b347f6b9340454526f665e369d7ac17353d0b73774a4a80f746b959ece8130e0f1d726103058688612e66565b6040516001600160e01b0319909116815260200160405180910390a2805161032d5780610341565b808060200190518101906103419190612b79565b95945050505050565b6000806103578484610a8f565b600054909150610384906102009061037e906201000090046001600160a01b031684610ab3565b81161490565b610396576001600160e01b031961039f565b630b135d3f60e11b5b949350505050565b6060600046308686866040516020016103c4959493929190612caf565b6040516020818303038152906040529050600061043f8761043984805190602001206040517f19457468657265756d205369676e6564204d6573736167653a0a3332000000006020820152603c8101829052600090605c01604051602081830303815290604052805190602001209050919050565b90610a8f565b905061044b8187610b5d565b61049c5760405162461bcd60e51b815260206004820152601f60248201527f6578656375746552656c617943616c6c3a20496e76616c6964206e6f6e63650060448201526064015b60405180910390fd5b6001600160a01b038116600090815260016020908152604080832060808a901c845290915281208054916104cf83612efe565b91905055506104df81868661064b565b6000805481906201000090046001600160a01b0316345a908989604051610507929190612c83565b600060405180830381858888f193505050503d8060008114610545576040519150601f19603f3d011682016040523d82523d6000602084013e61054a565b606091505b50915091508161055f5761055d81610a77565b505b347f6b9340454526f665e369d7ac17353d0b73774a4a80f746b959ece8130e0f1d7261058b888a612e66565b6040516001600160e01b0319909116815260200160405180910390a280516105b357806105c7565b808060200190518101906105c79190612b79565b9998505050505050505050565b60006105e06001610ba8565b905080156105f8576000805461ff0019166101001790555b61060182610cdc565b8015610647576000805461ff0019169055604051600181527f7f26b83ff96e1f2b6a682f133852f6798a09c465da95921460cefb38474024989060200160405180910390a15b5050565b600061065a6004828486612d9b565b61066391612e66565b6000805491925090610684906201000090046001600160a01b031686610ab3565b9050806106c8576040517ff292052a0000000000000000000000000000000000000000000000000000000081526001600160a01b0386166004820152602401610493565b6001600160e01b031982167f7f23690c0000000000000000000000000000000000000000000000000000000014156107e65760008061070a8560048189612d9b565b8101906107179190612add565b90925090507fffffffffffff00000000000000000000000000000000000000000000000000008216654b80742de2bf60d01b148061077a57506fffffffffffffffffffffffffffffffff1982166f6f986dd036db5187329aa6cd326304c360811b145b156107905761078b82828986610d99565b6107df565b6040805160018082528183019092526000916020808301908036833701905050905082816000815181106107c6576107c6612f67565b6020026020010181815250506107dd888583611195565b505b5050610a70565b6001600160e01b031982167f14a6e293000000000000000000000000000000000000000000000000000000001415610947576000806108288560048189612d9b565b8101906108359190612966565b915091506000805b835181101561093557600084828151811061085a5761085a612f67565b60200260200101519050600084838151811061087857610878612f67565b602090810291909101015190507fffffffffffff00000000000000000000000000000000000000000000000000008216654b80742de2bf60d01b14806108e357506fffffffffffffffffffffffffffffffff1982166f6f986dd036db5187329aa6cd326304c360811b145b1561091b576108f482828d8a610d99565b6000801b86848151811061090a5761090a612f67565b602002602001018181525050610920565b600193505b5050808061092d90612efe565b91505061083d565b5080156107dd576107dd888585611195565b6001600160e01b031982167f44c028fe00000000000000000000000000000000000000000000000000000000141561098a57610985858286866111c2565b610a70565b6001600160e01b031982167ff2fde38b0000000000000000000000000000000000000000000000000000000014806109eb57506001600160e01b031982167f4e71e0c800000000000000000000000000000000000000000000000000000000145b15610a02576109fc85826001611452565b50610a70565b60405162461bcd60e51b815260206004820152602b60248201527f5f7665726966795065726d697373696f6e733a20696e76616c6964204552433760448201527f32352073656c6563746f720000000000000000000000000000000000000000006064820152608401610493565b5050505050565b8051606090156100705781518083602001fd5b919050565b6000806000610a9e85856114a7565b91509150610aab81611517565b509392505050565b6000806001600160a01b0384166354f6127f610ae0694b80742de2bf82acb36360b01b606087901b6116d5565b6040518263ffffffff1660e01b8152600401610afe91815260200190565b60006040518083038186803b158015610b1657600080fd5b505afa158015610b2a573d6000803e3d6000fd5b505050506040513d6000823e601f3d908101601f19168201604052610b529190810190612b79565b905061039f81612e94565b6001600160a01b0382166000908152600160209081526040808320608085901c8452909152812054610ba070010000000000000000000000000000000084612f19565b149392505050565b60008054610100900460ff1615610c45578160ff166001148015610bcb5750303b155b610c3d5760405162461bcd60e51b815260206004820152602e60248201527f496e697469616c697a61626c653a20636f6e747261637420697320616c72656160448201527f647920696e697469616c697a65640000000000000000000000000000000000006064820152608401610493565b506000919050565b60005460ff808416911610610cc25760405162461bcd60e51b815260206004820152602e60248201527f496e697469616c697a61626c653a20636f6e747261637420697320616c72656160448201527f647920696e697469616c697a65640000000000000000000000000000000000006064820152608401610493565b506000805460ff191660ff92909216919091179055600190565b600054610100900460ff16610d595760405162461bcd60e51b815260206004820152602b60248201527f496e697469616c697a61626c653a20636f6e7472616374206973206e6f74206960448201527f6e697469616c697a696e670000000000000000000000000000000000000000006064820152608401610493565b600080546001600160a01b0390921662010000027fffffffffffffffffffff0000000000000000000000000000000000000000ffff909216919091179055565b6001600160a01b03198416694b80742de2bf82acb36360b01b1415610dc857610dc3848383611720565b61118f565b7fdf30dba06db6a30e65354d9a64c609861f089545ca58c6b4dbe31a5f338cb0e3841415610dfc57610dc3848484846117cd565b6fffffffffffffffffffffffffffffffff1984166f6f986dd036db5187329aa6cd326304c360811b1415610e3c57610e3682826002611452565b5061118f565b6001600160a01b031984166912e01d0b78aff1b75acf60b21b1415610f8d57610e648361189a565b610ed65760405162461bcd60e51b815260206004820152603660248201527f4c5350364b65794d616e616765723a20696e76616c69642041424920656e636f60448201527f646564206172726179206f6620616464726573736573000000000000000000006064820152608401610493565b600080546040516354f6127f60e01b815260048101879052620100009091046001600160a01b0316906354f6127f9060240160006040518083038186803b158015610f2057600080fd5b505afa158015610f34573d6000803e3d6000fd5b505050506040513d6000823e601f3d908101601f19168201604052610f5c9190810190612b79565b9050805160001415610f7a57610f7483836004611452565b50610e36565b610f8683836002611452565b505061118f565b6001600160a01b031984166909700e85bc57f1dfd43d60b31b1480610fc857506001600160a01b03198416694b80742de2bf3efa94a360b01b145b1561104857610fd68361193e565b610ed65760405162461bcd60e51b815260206004820152603360248201527f4c5350364b65794d616e616765723a20696e76616c69642041424920656e636f60448201527f646564206172726179206f6620627974657334000000000000000000000000006064820152608401610493565b6001600160a01b03198416694b80742de2bf90b8b48560b01b141561118f57611070836119d5565b6110e25760405162461bcd60e51b815260206004820152603460248201527f4c5350364b65794d616e616765723a20696e76616c69642041424920656e636f60448201527f646564206172726179206f6620627974657333320000000000000000000000006064820152608401610493565b600080546040516354f6127f60e01b815260048101879052620100009091046001600160a01b0316906354f6127f9060240160006040518083038186803b15801561112c57600080fd5b505afa158015611140573d6000803e3d6000fd5b505050506040513d6000823e601f3d908101601f191682016040526111689190810190612b79565b9050805160001415611180576109fc83836004611452565b61118c83836002611452565b50505b50505050565b61040080831614156111a657505050565b6111b283836008611452565b506111bd8382611a56565b505050565b60006111d2602460048486612d9b565b6111db91612e48565b9050600581106112535760405162461bcd60e51b815260206004820152602660248201527f4c5350364b65794d616e616765723a20696e76616c6964206f7065726174696f60448201527f6e207479706500000000000000000000000000000000000000000000000000006064820152608401610493565b60048114156112ca5760405162461bcd60e51b815260206004820152603e60248201527f4c5350364b65794d616e616765723a206f7065726174696f6e2044454c45474160448201527f544543414c4c2069732063757272656e746c7920646973616c6c6f77656400006064820152608401610493565b60006112da606460448587612d9b565b6112e391612e48565b9050600060018314806112f65750600283145b905060a4841160008261131b5761131661130f86611c46565b8981161490565b61131e565b60005b905081156113425780806113405750611340898961133b88611c7a565b611452565b505b61080088811614841561136557808061136357506113638a8a610100611452565b505b83156113765750505050505061118f565b8180156113805750825b801561138a575084155b1561139a5750505050505061118f565b8080156113a5575082155b80156113b15750600085115b156113c15750505050505061118f565b8180156113cb5750805b156113db5750505050505061118f565b60006113eb604460308a8c612d9b565b6113f491612e13565b60601c90506114038b82611ccd565b6001600160a01b0381163b156114455761141d8b82611dc2565b60a88810611445576114458b61143760a860a48c8e612d9b565b61144091612e66565b611ec1565b5050505050505050505050565b600081831682146114a057600061146883611fc0565b905084816040517f3bdad6e6000000000000000000000000000000000000000000000000000000008152600401610493929190612ce9565b9392505050565b6000808251604114156114de5760208301516040840151606085015160001a6114d287828585612258565b94509450505050611510565b82516040141561150857602083015160408401516114fd868383612345565b935093505050611510565b506000905060025b9250929050565b600081600481111561152b5761152b612f51565b14156115345750565b600181600481111561154857611548612f51565b14156115965760405162461bcd60e51b815260206004820152601860248201527f45434453413a20696e76616c6964207369676e617475726500000000000000006044820152606401610493565b60028160048111156115aa576115aa612f51565b14156115f85760405162461bcd60e51b815260206004820152601f60248201527f45434453413a20696e76616c6964207369676e6174757265206c656e677468006044820152606401610493565b600381600481111561160c5761160c612f51565b14156116655760405162461bcd60e51b815260206004820152602260248201527f45434453413a20696e76616c6964207369676e6174757265202773272076616c604482015261756560f01b6064820152608401610493565b600481600481111561167957611679612f51565b14156116d25760405162461bcd60e51b815260206004820152602260248201527f45434453413a20696e76616c6964207369676e6174757265202776272076616c604482015261756560f01b6064820152608401610493565b50565b604080516001600160a01b0319841660208201526bffffffffffffffffffffffff198316602c820152600091829101604051602081830303815290604052905061039f816020015190565b600080546040516354f6127f60e01b815260048101869052620100009091046001600160a01b0316906354f6127f9060240160006040518083038186803b15801561176a57600080fd5b505afa15801561177e573d6000803e3d6000fd5b505050506040513d6000823e601f3d908101601f191682016040526117a69190810190612b79565b6117af90612e94565b14156117c15761118f82826004611452565b61118f82826002611452565b600080546040516354f6127f60e01b815260048101879052620100009091046001600160a01b0316906354f6127f9060240160006040518083038186803b15801561181757600080fd5b505afa15801561182b573d6000803e3d6000fd5b505050506040513d6000823e601f3d908101601f191682016040526118539190810190612b79565b61185c90612e94565b9050600061186985612e94565b9050818111156118855761187f84846004611452565b5061118c565b61189184846002611452565b50505050505050565b60006118a5826119d5565b6118b157506000919050565b60006118bc83612e94565b905060006118ca8483612397565b905060006118d9836020612dc5565b905060005b828110156119325760006118f287846123fd565b90506001600160a01b0319811615611911575060009695505050505050565b61191c602084612dc5565b925050808061192a90612efe565b9150506118de565b50600195945050505050565b6000611949826119d5565b61195557506000919050565b600061196083612e94565b9050600061196e8483612397565b9050600061197d836020612dc5565b905060005b8281101561193257600061199687846123fd565b90506001600160e01b038116156119b4575060009695505050505050565b6119bf602084612dc5565b92505080806119cd90612efe565b915050611982565b805160009060208110156119ec5750600092915050565b60006119f784612e94565b905080821015611a0b575060009392505050565b6000611a178583612397565b9050611a24816020612ddd565b611a2f836020612dc5565b611a399190612dc5565b831015611a4b57506000949350505050565b506001949350505050565b60008054611a73906201000090046001600160a01b03168461245a565b9050805160001480611a8b5750611a89816119d5565b155b15611a9557505050565b600081806020019051810190611aab91906128da565b905060008060005b8351811015611ba357611ade848281518110611ad157611ad1612f67565b60200260200101516124f6565b925060005b8651811015611b90576000801b878281518110611b0257611b02612f67565b60200260200101511415611b1557611b7e565b600019846008021b925082878281518110611b3257611b32612f67565b602002602001015116858381518110611b4d57611b4d612f67565b60200260200101511415611b7e576000801b878281518110611b7157611b71612f67565b6020026020010181815250505b80611b8881612efe565b915050611ae3565b5080611b9b81612efe565b915050611ab3565b5060005b8551811015611891576000801b868281518110611bc657611bc6612f67565b602002602001015114611c345786868281518110611be657611be6612f67565b60209081029190910101516040517f3003e7ae0000000000000000000000000000000000000000000000000000000081526001600160a01b0390921660048301526024820152604401610493565b80611c3e81612efe565b915050611ba7565b600081611c565750611000919050565b6003821415611c685750612000919050565b6004821415610a8a5750614000919050565b600081611c8957506010919050565b6001821415611c9a57506080919050565b6002821415611cab57506080919050565b6003821415611cbc57506020919050565b6004821415610a8a57506040919050565b60008054611cea906201000090046001600160a01b03168461255f565b9050805160001480611d025750611d008161189a565b155b15611d0c57505050565b600081806020019051810190611d229190612839565b905060005b8151811015611d7c57818181518110611d4257611d42612f67565b60200260200101516001600160a01b0316846001600160a01b03161415611d6a575050505050565b80611d7481612efe565b915050611d27565b506040517f2879b1280000000000000000000000000000000000000000000000000000000081526001600160a01b03808616600483015284166024820152604401610493565b60008054611ddf906201000090046001600160a01b031684612589565b9050805160001480611df75750611df58161193e565b155b15611e0157505050565b600081806020019051810190611e179190612a26565b905060005b8151811015611e7857611e5a828281518110611e3a57611e3a612f67565b6020026020010151856001600160a01b03166125b390919063ffffffff16565b15611e66575050505050565b80611e7081612efe565b915050611e1c565b5060405162461bcd60e51b815260206004820152601560248201527f4e6f7420416c6c6f776564205374616e646172647300000000000000000000006044820152606401610493565b60008054611ede906201000090046001600160a01b03168461269c565b9050805160001480611ef65750611ef48161193e565b155b15611f0057505050565b600081806020019051810190611f169190612a26565b905060005b8151811015611f7257818181518110611f3657611f36612f67565b60200260200101516001600160e01b031916846001600160e01b0319161415611f60575050505050565b80611f6a81612efe565b915050611f1b565b506040517f841351100000000000000000000000000000000000000000000000000000000081526001600160a01b03851660048201526001600160e01b031984166024820152604401610493565b6060600182141561200457505060408051808201909152601181527f5452414e534645524f574e455253484950000000000000000000000000000000602082015290565b600282141561204657505060408051808201909152601181527f4348414e47455045524d495353494f4e53000000000000000000000000000000602082015290565b600482141561208857505060408051808201909152600e81527f4144445045524d495353494f4e53000000000000000000000000000000000000602082015290565b60088214156120ca57505060408051808201909152600781527f5345544441544100000000000000000000000000000000000000000000000000602082015290565b601082141561210c57505060408051808201909152600481527f43414c4c00000000000000000000000000000000000000000000000000000000602082015290565b602082141561214e57505060408051808201909152600a81527f53544154494343414c4c00000000000000000000000000000000000000000000602082015290565b604082141561219057505060408051808201909152600c81527f44454c454741544543414c4c0000000000000000000000000000000000000000602082015290565b60808214156121d257505060408051808201909152600681527f4445504c4f590000000000000000000000000000000000000000000000000000602082015290565b61010082141561221557505060408051808201909152600d81527f5452414e5346455256414c554500000000000000000000000000000000000000602082015290565b610200821415610a8a57505060408051808201909152600481527f5349474e00000000000000000000000000000000000000000000000000000000602082015290565b6000807f7fffffffffffffffffffffffffffffff5d576e7357a4501ddfe92f46681b20a083111561228f575060009050600361233c565b8460ff16601b141580156122a757508460ff16601c14155b156122b8575060009050600461233c565b6040805160008082526020820180845289905260ff881692820192909252606081018690526080810185905260019060a0016020604051602081039080840390855afa15801561230c573d6000803e3d6000fd5b5050604051601f1901519150506001600160a01b0381166123355760006001925092505061233c565b9150600090505b94509492505050565b6000807f7fffffffffffffffffffffffffffffffffffffffffffffffffffffffffffffff83168161237b60ff86901c601b612dc5565b905061238987828885612258565b935093505050935093915050565b60006123a4826020612dc5565b835110156123f45760405162461bcd60e51b815260206004820152601560248201527f746f55696e743235365f6f75744f66426f756e647300000000000000000000006044820152606401610493565b50016020015190565b600061240a826020612dc5565b835110156123f45760405162461bcd60e51b815260206004820152601560248201527f746f427974657333325f6f75744f66426f756e647300000000000000000000006044820152606401610493565b60606001600160a01b0383166354f6127f612484694b80742de2bf90b8b48560b01b85851b6116d5565b6040518263ffffffff1660e01b81526004016124a291815260200190565b60006040518083038186803b1580156124ba57600080fd5b505afa1580156124ce573d6000803e3d6000fd5b505050506040513d6000823e601f3d908101601f191682016040526114a09190810190612b79565b6000601f5b82816020811061250d5761250d612f67565b1a60f81b7fff0000000000000000000000000000000000000000000000000000000000000016612549578061254181612ee7565b9150506124fb565b612554816001612dc5565b6114a0906020612dfc565b60606001600160a01b0383166354f6127f6124846912e01d0b78aff1b75acf60b21b85851b6116d5565b60606001600160a01b0383166354f6127f612484694b80742de2bf3efa94a360b01b85851b6116d5565b604080516001600160e01b0319831660248083019190915282518083039091018152604490910182526020810180516001600160e01b03166301ffc9a760e01b179052905160009190829081906001600160a01b038716906175309061261a908690612c93565b6000604051808303818686fa925050503d8060008114612656576040519150601f19603f3d011682016040523d82523d6000602084013e61265b565b606091505b50915091506020815110156126765760009350505050610246565b8180156126925750808060200190518101906126929190612abb565b9695505050505050565b60606001600160a01b0383166354f6127f6124846909700e85bc57f1dfd43d60b31b85851b6116d5565b600082601f8301126126d757600080fd5b813560206126ec6126e783612d4f565b612d1e565b80838252828201915082860187848660051b890101111561270c57600080fd5b6000805b8681101561274f57823567ffffffffffffffff81111561272e578283fd5b61273c8b88838d010161279f565b8652509385019391850191600101612710565b509198975050505050505050565b60008083601f84011261276f57600080fd5b50813567ffffffffffffffff81111561278757600080fd5b60208301915083602082850101111561151057600080fd5b600082601f8301126127b057600080fd5b81356127be6126e782612d73565b8181528460208386010111156127d357600080fd5b816020850160208301376000918101602001919091529392505050565b60006020828403121561280257600080fd5b81356114a081612f93565b6000806040838503121561282057600080fd5b823561282b81612f93565b946020939093013593505050565b6000602080838503121561284c57600080fd5b825167ffffffffffffffff81111561286357600080fd5b8301601f8101851361287457600080fd5b80516128826126e782612d4f565b80828252848201915084840188868560051b87010111156128a257600080fd5b600094505b838510156128ce5780516128ba81612f93565b8352600194909401939185019185016128a7565b50979650505050505050565b600060208083850312156128ed57600080fd5b825167ffffffffffffffff81111561290457600080fd5b8301601f8101851361291557600080fd5b80516129236126e782612d4f565b80828252848201915084840188868560051b870101111561294357600080fd5b600094505b838510156128ce578051835260019490940193918501918501612948565b6000806040838503121561297957600080fd5b823567ffffffffffffffff8082111561299157600080fd5b818501915085601f8301126129a557600080fd5b813560206129b56126e783612d4f565b8083825282820191508286018a848660051b89010111156129d557600080fd5b600096505b848710156129f85780358352600196909601959183019183016129da565b5096505086013592505080821115612a0f57600080fd5b50612a1c858286016126c6565b9150509250929050565b60006020808385031215612a3957600080fd5b825167ffffffffffffffff811115612a5057600080fd5b8301601f81018513612a6157600080fd5b8051612a6f6126e782612d4f565b80828252848201915084840188868560051b8701011115612a8f57600080fd5b600094505b838510156128ce578051612aa781612fa8565b835260019490940193918501918501612a94565b600060208284031215612acd57600080fd5b815180151581146114a057600080fd5b60008060408385031215612af057600080fd5b82359150602083013567ffffffffffffffff811115612b0e57600080fd5b612a1c8582860161279f565b600060208284031215612b2c57600080fd5b81356114a081612fa8565b60008060208385031215612b4a57600080fd5b823567ffffffffffffffff811115612b6157600080fd5b612b6d8582860161275d565b90969095509350505050565b600060208284031215612b8b57600080fd5b815167ffffffffffffffff811115612ba257600080fd5b8201601f81018413612bb357600080fd5b8051612bc16126e782612d73565b818152856020838501011115612bd657600080fd5b610341826020830160208601612ebb565b60008060008060608587031215612bfd57600080fd5b843567ffffffffffffffff80821115612c1557600080fd5b612c218883890161279f565b9550602087013594506040870135915080821115612c3e57600080fd5b50612c4b8782880161275d565b95989497509550505050565b60008151808452612c6f816020860160208601612ebb565b601f01601f19169290920160200192915050565b8183823760009101908152919050565b60008251612ca5818460208701612ebb565b9190910192915050565b8581526bffffffffffffffffffffffff198560601b1660208201528360348201528183605483013760009101605401908152949350505050565b6001600160a01b038316815260406020820152600061039f6040830184612c57565b6020815260006114a06020830184612c57565b604051601f8201601f1916810167ffffffffffffffff81118282101715612d4757612d47612f7d565b604052919050565b600067ffffffffffffffff821115612d6957612d69612f7d565b5060051b60200190565b600067ffffffffffffffff821115612d8d57612d8d612f7d565b50601f01601f191660200190565b60008085851115612dab57600080fd5b83861115612db857600080fd5b5050820193919092039150565b60008219821115612dd857612dd8612f3b565b500190565b6000816000190483118215151615612df757612df7612f3b565b500290565b600082821015612e0e57612e0e612f3b565b500390565b6bffffffffffffffffffffffff198135818116916014851015612e405780818660140360031b1b83161692505b505092915050565b8035602083101561024657600019602084900360031b1b1692915050565b6001600160e01b03198135818116916004851015612e405760049490940360031b84901b1690921692915050565b80516020808301519190811015612eb5576000198160200360031b1b821691505b50919050565b60005b83811015612ed6578181015183820152602001612ebe565b8381111561118f5750506000910152565b600081612ef657612ef6612f3b565b506000190190565b6000600019821415612f1257612f12612f3b565b5060010190565b600082612f3657634e487b7160e01b600052601260045260246000fd5b500690565b634e487b7160e01b600052601160045260246000fd5b634e487b7160e01b600052602160045260246000fd5b634e487b7160e01b600052603260045260246000fd5b634e487b7160e01b600052604160045260246000fd5b6001600160a01b03811681146116d257600080fd5b6001600160e01b0319811681146116d257600080fdfea2646970667358221220bf9eba9e22dd1c7c701a41391de33f6053610871ef5b0c6078981431ccc96dab64736f6c63430008070033",
  "linkReferences": {},
  "deployedLinkReferences": {}
}