{
  "_format": "hh-sol-artifact-1",
  "contractName": "LSP6KeyManager",
  "sourceName": "contracts/LSP6KeyManager/LSP6KeyManager.sol",
  "abi": [
    {
      "inputs": [
        {
          "internalType": "address",
          "name": "_account",
          "type": "address"
        }
      ],
      "stateMutability": "nonpayable",
      "type": "constructor"
    },
    {
      "inputs": [
        {
          "internalType": "address",
          "name": "from",
          "type": "address"
        }
      ],
      "name": "NoPermissionsSet",
      "type": "error"
    },
    {
      "inputs": [
        {
          "internalType": "address",
          "name": "from",
          "type": "address"
        },
        {
          "internalType": "address",
          "name": "disallowedAddress",
          "type": "address"
        }
      ],
      "name": "NotAllowedAddress",
      "type": "error"
    },
    {
      "inputs": [
        {
          "internalType": "address",
          "name": "from",
          "type": "address"
        },
        {
          "internalType": "bytes32",
          "name": "disallowedKey",
          "type": "bytes32"
        }
      ],
      "name": "NotAllowedERC725YKey",
      "type": "error"
    },
    {
      "inputs": [
        {
          "internalType": "address",
          "name": "from",
          "type": "address"
        },
        {
          "internalType": "bytes4",
          "name": "disallowedFunction",
          "type": "bytes4"
        }
      ],
      "name": "NotAllowedFunction",
      "type": "error"
    },
    {
      "inputs": [
        {
          "internalType": "address",
          "name": "from",
          "type": "address"
        },
        {
          "internalType": "string",
          "name": "permission",
          "type": "string"
        }
      ],
      "name": "NotAuthorised",
      "type": "error"
    },
    {
      "anonymous": false,
      "inputs": [
        {
          "indexed": true,
          "internalType": "uint256",
          "name": "_value",
          "type": "uint256"
        },
        {
          "indexed": false,
          "internalType": "bytes4",
          "name": "_selector",
          "type": "bytes4"
        }
      ],
      "name": "Executed",
      "type": "event"
    },
    {
      "inputs": [
        {
          "internalType": "bytes",
          "name": "_calldata",
          "type": "bytes"
        }
      ],
      "name": "execute",
      "outputs": [
        {
          "internalType": "bytes",
          "name": "",
          "type": "bytes"
        }
      ],
      "stateMutability": "payable",
      "type": "function"
    },
    {
      "inputs": [
        {
          "internalType": "bytes",
          "name": "_signature",
          "type": "bytes"
        },
        {
          "internalType": "uint256",
          "name": "_nonce",
          "type": "uint256"
        },
        {
          "internalType": "bytes",
          "name": "_calldata",
          "type": "bytes"
        }
      ],
      "name": "executeRelayCall",
      "outputs": [
        {
          "internalType": "bytes",
          "name": "",
          "type": "bytes"
        }
      ],
      "stateMutability": "payable",
      "type": "function"
    },
    {
      "inputs": [
        {
          "internalType": "address",
          "name": "_from",
          "type": "address"
        },
        {
          "internalType": "uint256",
          "name": "_channel",
          "type": "uint256"
        }
      ],
      "name": "getNonce",
      "outputs": [
        {
          "internalType": "uint256",
          "name": "",
          "type": "uint256"
        }
      ],
      "stateMutability": "view",
      "type": "function"
    },
    {
      "inputs": [
        {
          "internalType": "bytes32",
          "name": "_hash",
          "type": "bytes32"
        },
        {
          "internalType": "bytes",
          "name": "_signature",
          "type": "bytes"
        }
      ],
      "name": "isValidSignature",
      "outputs": [
        {
          "internalType": "bytes4",
          "name": "magicValue",
          "type": "bytes4"
        }
      ],
      "stateMutability": "view",
      "type": "function"
    },
    {
      "inputs": [
        {
          "internalType": "bytes4",
          "name": "interfaceId",
          "type": "bytes4"
        }
      ],
      "name": "supportsInterface",
      "outputs": [
        {
          "internalType": "bool",
          "name": "",
          "type": "bool"
        }
      ],
      "stateMutability": "view",
      "type": "function"
    },
    {
      "inputs": [],
      "name": "target",
      "outputs": [
        {
          "internalType": "address",
          "name": "",
          "type": "address"
        }
      ],
      "stateMutability": "view",
      "type": "function"
    }
  ],
  "bytecode": "0x60806040523480156200001157600080fd5b5060405162002d9438038062002d9483398101604081905262000034916200005a565b600080546001600160a01b0319166001600160a01b03929092169190911790556200008c565b6000602082840312156200006d57600080fd5b81516001600160a01b03811681146200008557600080fd5b9392505050565b612cf8806200009c6000396000f3fe6080604052600436106100655760003560e01c8063895358031161004357806389535803146100f8578063902d5fa014610163578063d4b839921461017657600080fd5b806301ffc9a71461006a57806309c5eabe1461009f5780631626ba7e146100bf575b600080fd5b34801561007657600080fd5b5061008a61008536600461281e565b6101ae565b60405190151581526020015b60405180910390f35b6100b26100ad36600461283b565b610219565b6040516100969190612a0f565b3480156100cb57600080fd5b506100df6100da3660046127e1565b610311565b6040516001600160e01b03199091168152602001610096565b34801561010457600080fd5b50610155610113366004612511565b6001600160a01b039190911660009081526001602090815260408083208484529091529020546fffffffffffffffffffffffffffffffff1660809190911b1790565b604051908152602001610096565b6100b26101713660046128eb565b610368565b34801561018257600080fd5b50600054610196906001600160a01b031681565b6040516001600160a01b039091168152602001610096565b60006001600160e01b031982167fc403d48f0000000000000000000000000000000000000000000000000000000014806101f857506001600160e01b03198216630b135d3f60e11b145b8061021357506301ffc9a760e01b6001600160e01b03198316145b92915050565b606061022633848461058f565b6000805481906001600160a01b0316345a908787604051610248929190612987565b600060405180830381858888f193505050503d8060008114610286576040519150601f19603f3d011682016040523d82523d6000602084013e61028b565b606091505b5091509150816102a05761029e816109b5565b505b347f6b9340454526f665e369d7ac17353d0b73774a4a80f746b959ece8130e0f1d726102cc8688612b6a565b6040516001600160e01b0319909116815260200160405180910390a280516102f45780610308565b80806020019051810190610308919061287d565b95945050505050565b60008061031e84846109cd565b600054909150610345906102009061033f906001600160a01b0316846109f1565b81161490565b610357576001600160e01b0319610360565b630b135d3f60e11b5b949350505050565b6060600046308686866040516020016103859594939291906129b3565b60405160208183030381529060405290506000610400876103fa84805190602001206040517f19457468657265756d205369676e6564204d6573736167653a0a3332000000006020820152603c8101829052600090605c01604051602081830303815290604052805190602001209050919050565b906109cd565b905061040c8187610a9b565b61045d5760405162461bcd60e51b815260206004820152601f60248201527f6578656375746552656c617943616c6c3a20496e76616c6964206e6f6e63650060448201526064015b60405180910390fd5b6001600160a01b038116600090815260016020908152604080832060808a901c8452909152812080549161049083612c02565b91905055506104a081868661058f565b6000805481906001600160a01b0316345a9089896040516104c2929190612987565b600060405180830381858888f193505050503d8060008114610500576040519150601f19603f3d011682016040523d82523d6000602084013e610505565b606091505b50915091508161051a57610518816109b5565b505b347f6b9340454526f665e369d7ac17353d0b73774a4a80f746b959ece8130e0f1d72610546888a612b6a565b6040516001600160e01b0319909116815260200160405180910390a2805161056e5780610582565b80806020019051810190610582919061287d565b9998505050505050505050565b600061059e6004828486612a9f565b6105a791612b6a565b60008054919250906105c2906001600160a01b0316866109f1565b905080610606576040517ff292052a0000000000000000000000000000000000000000000000000000000081526001600160a01b0386166004820152602401610454565b6001600160e01b031982167f7f23690c000000000000000000000000000000000000000000000000000000001415610724576000806106488560048189612a9f565b81019061065591906127e1565b90925090507fffffffffffff00000000000000000000000000000000000000000000000000008216654b80742de2bf60d01b14806106b857506fffffffffffffffffffffffffffffffff1982166f6f986dd036db5187329aa6cd326304c360811b145b156106ce576106c982828986610ae6565b61071d565b60408051600180825281830190925260009160208083019080368337019050509050828160008151811061070457610704612c6b565b60200260200101818152505061071b888583610ed8565b505b50506109ae565b6001600160e01b031982167f14a6e293000000000000000000000000000000000000000000000000000000001415610885576000806107668560048189612a9f565b810190610773919061266a565b915091506000805b835181101561087357600084828151811061079857610798612c6b565b6020026020010151905060008483815181106107b6576107b6612c6b565b602090810291909101015190507fffffffffffff00000000000000000000000000000000000000000000000000008216654b80742de2bf60d01b148061082157506fffffffffffffffffffffffffffffffff1982166f6f986dd036db5187329aa6cd326304c360811b145b156108595761083282828d8a610ae6565b6000801b86848151811061084857610848612c6b565b60200260200101818152505061085e565b600193505b5050808061086b90612c02565b91505061077b565b50801561071b5761071b888585610ed8565b6001600160e01b031982167f44c028fe0000000000000000000000000000000000000000000000000000000014156108c8576108c385828686610f05565b6109ae565b6001600160e01b031982167ff2fde38b00000000000000000000000000000000000000000000000000000000148061092957506001600160e01b031982167f4e71e0c800000000000000000000000000000000000000000000000000000000145b156109405761093a85826001611195565b506109ae565b60405162461bcd60e51b815260206004820152602b60248201527f5f7665726966795065726d697373696f6e733a20696e76616c6964204552433760448201527f32352073656c6563746f720000000000000000000000000000000000000000006064820152608401610454565b5050505050565b8051606090156100655781518083602001fd5b919050565b60008060006109dc85856111ea565b915091506109e98161125a565b509392505050565b6000806001600160a01b0384166354f6127f610a1e694b80742de2bf82acb36360b01b606087901b611418565b6040518263ffffffff1660e01b8152600401610a3c91815260200190565b60006040518083038186803b158015610a5457600080fd5b505afa158015610a68573d6000803e3d6000fd5b505050506040513d6000823e601f3d908101601f19168201604052610a90919081019061287d565b905061036081612b98565b6001600160a01b0382166000908152600160209081526040808320608085901c8452909152812054610ade70010000000000000000000000000000000084612c1d565b149392505050565b6001600160a01b03198416694b80742de2bf82acb36360b01b1415610b1557610b10848383611463565b610ed2565b7fdf30dba06db6a30e65354d9a64c609861f089545ca58c6b4dbe31a5f338cb0e3841415610b4957610b108484848461150b565b6fffffffffffffffffffffffffffffffff1984166f6f986dd036db5187329aa6cd326304c360811b1415610b8957610b8382826002611195565b50610ed2565b6001600160a01b031984166912e01d0b78aff1b75acf60b21b1415610cd557610bb1836115d3565b610c235760405162461bcd60e51b815260206004820152603660248201527f4c5350364b65794d616e616765723a20696e76616c69642041424920656e636f60448201527f646564206172726179206f6620616464726573736573000000000000000000006064820152608401610454565b600080546040516354f6127f60e01b8152600481018790526001600160a01b03909116906354f6127f9060240160006040518083038186803b158015610c6857600080fd5b505afa158015610c7c573d6000803e3d6000fd5b505050506040513d6000823e601f3d908101601f19168201604052610ca4919081019061287d565b9050805160001415610cc257610cbc83836004611195565b50610b83565b610cce83836002611195565b5050610ed2565b6001600160a01b031984166909700e85bc57f1dfd43d60b31b1480610d1057506001600160a01b03198416694b80742de2bf3efa94a360b01b145b15610d9057610d1e83611677565b610c235760405162461bcd60e51b815260206004820152603360248201527f4c5350364b65794d616e616765723a20696e76616c69642041424920656e636f60448201527f646564206172726179206f6620627974657334000000000000000000000000006064820152608401610454565b6001600160a01b03198416694b80742de2bf90b8b48560b01b1415610ed257610db88361170e565b610e2a5760405162461bcd60e51b815260206004820152603460248201527f4c5350364b65794d616e616765723a20696e76616c69642041424920656e636f60448201527f646564206172726179206f6620627974657333320000000000000000000000006064820152608401610454565b600080546040516354f6127f60e01b8152600481018790526001600160a01b03909116906354f6127f9060240160006040518083038186803b158015610e6f57600080fd5b505afa158015610e83573d6000803e3d6000fd5b505050506040513d6000823e601f3d908101601f19168201604052610eab919081019061287d565b9050805160001415610ec35761093a83836004611195565b610ecf83836002611195565b50505b50505050565b6104008083161415610ee957505050565b610ef583836008611195565b50610f00838261178f565b505050565b6000610f15602460048486612a9f565b610f1e91612b4c565b905060058110610f965760405162461bcd60e51b815260206004820152602660248201527f4c5350364b65794d616e616765723a20696e76616c6964206f7065726174696f60448201527f6e207479706500000000000000000000000000000000000000000000000000006064820152608401610454565b600481141561100d5760405162461bcd60e51b815260206004820152603e60248201527f4c5350364b65794d616e616765723a206f7065726174696f6e2044454c45474160448201527f544543414c4c2069732063757272656e746c7920646973616c6c6f77656400006064820152608401610454565b600061101d606460448587612a9f565b61102691612b4c565b9050600060018314806110395750600283145b905060a4841160008261105e5761105961105286611979565b8981161490565b611061565b60005b905081156110855780806110835750611083898961107e886119ad565b611195565b505b6108008881161484156110a85780806110a657506110a68a8a610100611195565b505b83156110b957505050505050610ed2565b8180156110c35750825b80156110cd575084155b156110dd57505050505050610ed2565b8080156110e8575082155b80156110f45750600085115b1561110457505050505050610ed2565b81801561110e5750805b1561111e57505050505050610ed2565b600061112e604460308a8c612a9f565b61113791612b17565b60601c90506111468b82611a00565b6001600160a01b0381163b15611188576111608b82611aef565b60a88810611188576111888b61117a60a860a48c8e612a9f565b61118391612b6a565b611be8565b5050505050505050505050565b600081831682146111e35760006111ab83611ce1565b905084816040517f3bdad6e60000000000000000000000000000000000000000000000000000000081526004016104549291906129ed565b9392505050565b6000808251604114156112215760208301516040840151606085015160001a61121587828585611f79565b94509450505050611253565b82516040141561124b5760208301516040840151611240868383612066565b935093505050611253565b506000905060025b9250929050565b600081600481111561126e5761126e612c55565b14156112775750565b600181600481111561128b5761128b612c55565b14156112d95760405162461bcd60e51b815260206004820152601860248201527f45434453413a20696e76616c6964207369676e617475726500000000000000006044820152606401610454565b60028160048111156112ed576112ed612c55565b141561133b5760405162461bcd60e51b815260206004820152601f60248201527f45434453413a20696e76616c6964207369676e6174757265206c656e677468006044820152606401610454565b600381600481111561134f5761134f612c55565b14156113a85760405162461bcd60e51b815260206004820152602260248201527f45434453413a20696e76616c6964207369676e6174757265202773272076616c604482015261756560f01b6064820152608401610454565b60048160048111156113bc576113bc612c55565b14156114155760405162461bcd60e51b815260206004820152602260248201527f45434453413a20696e76616c6964207369676e6174757265202776272076616c604482015261756560f01b6064820152608401610454565b50565b604080516001600160a01b0319841660208201526bffffffffffffffffffffffff198316602c8201526000918291016040516020818303038152906040529050610360816020015190565b600080546040516354f6127f60e01b8152600481018690526001600160a01b03909116906354f6127f9060240160006040518083038186803b1580156114a857600080fd5b505afa1580156114bc573d6000803e3d6000fd5b505050506040513d6000823e601f3d908101601f191682016040526114e4919081019061287d565b6114ed90612b98565b14156114ff57610ed282826004611195565b610ed282826002611195565b600080546040516354f6127f60e01b8152600481018790526001600160a01b03909116906354f6127f9060240160006040518083038186803b15801561155057600080fd5b505afa158015611564573d6000803e3d6000fd5b505050506040513d6000823e601f3d908101601f1916820160405261158c919081019061287d565b61159590612b98565b905060006115a285612b98565b9050818111156115be576115b884846004611195565b50610ecf565b6115ca84846002611195565b50505050505050565b60006115de8261170e565b6115ea57506000919050565b60006115f583612b98565b9050600061160384836120b8565b90506000611612836020612ac9565b905060005b8281101561166b57600061162b878461211e565b90506001600160a01b031981161561164a575060009695505050505050565b611655602084612ac9565b925050808061166390612c02565b915050611617565b50600195945050505050565b60006116828261170e565b61168e57506000919050565b600061169983612b98565b905060006116a784836120b8565b905060006116b6836020612ac9565b905060005b8281101561166b5760006116cf878461211e565b90506001600160e01b038116156116ed575060009695505050505050565b6116f8602084612ac9565b925050808061170690612c02565b9150506116bb565b805160009060208110156117255750600092915050565b600061173084612b98565b905080821015611744575060009392505050565b600061175085836120b8565b905061175d816020612ae1565b611768836020612ac9565b6117729190612ac9565b83101561178457506000949350505050565b506001949350505050565b600080546117a6906001600160a01b03168461217b565b90508051600014806117be57506117bc8161170e565b155b156117c857505050565b6000818060200190518101906117de91906125de565b905060008060005b83518110156118d65761181184828151811061180457611804612c6b565b6020026020010151612217565b925060005b86518110156118c3576000801b87828151811061183557611835612c6b565b60200260200101511415611848576118b1565b600019846008021b92508287828151811061186557611865612c6b565b60200260200101511685838151811061188057611880612c6b565b602002602001015114156118b1576000801b8782815181106118a4576118a4612c6b565b6020026020010181815250505b806118bb81612c02565b915050611816565b50806118ce81612c02565b9150506117e6565b5060005b85518110156115ca576000801b8682815181106118f9576118f9612c6b565b602002602001015114611967578686828151811061191957611919612c6b565b60209081029190910101516040517f3003e7ae0000000000000000000000000000000000000000000000000000000081526001600160a01b0390921660048301526024820152604401610454565b8061197181612c02565b9150506118da565b6000816119895750611000919050565b600382141561199b5750612000919050565b60048214156109c85750614000919050565b6000816119bc57506010919050565b60018214156119cd57506080919050565b60028214156119de57506080919050565b60038214156119ef57506020919050565b60048214156109c857506040919050565b60008054611a17906001600160a01b031684612280565b9050805160001480611a2f5750611a2d816115d3565b155b15611a3957505050565b600081806020019051810190611a4f919061253d565b905060005b8151811015611aa957818181518110611a6f57611a6f612c6b565b60200260200101516001600160a01b0316846001600160a01b03161415611a97575050505050565b80611aa181612c02565b915050611a54565b506040517f2879b1280000000000000000000000000000000000000000000000000000000081526001600160a01b03808616600483015284166024820152604401610454565b60008054611b06906001600160a01b0316846122aa565b9050805160001480611b1e5750611b1c81611677565b155b15611b2857505050565b600081806020019051810190611b3e919061272a565b905060005b8151811015611b9f57611b81828281518110611b6157611b61612c6b565b6020026020010151856001600160a01b03166122d490919063ffffffff16565b15611b8d575050505050565b80611b9781612c02565b915050611b43565b5060405162461bcd60e51b815260206004820152601560248201527f4e6f7420416c6c6f776564205374616e646172647300000000000000000000006044820152606401610454565b60008054611bff906001600160a01b0316846123bd565b9050805160001480611c175750611c1581611677565b155b15611c2157505050565b600081806020019051810190611c37919061272a565b905060005b8151811015611c9357818181518110611c5757611c57612c6b565b60200260200101516001600160e01b031916846001600160e01b0319161415611c81575050505050565b80611c8b81612c02565b915050611c3c565b506040517f841351100000000000000000000000000000000000000000000000000000000081526001600160a01b03851660048201526001600160e01b031984166024820152604401610454565b60606001821415611d2557505060408051808201909152601181527f5452414e534645524f574e455253484950000000000000000000000000000000602082015290565b6002821415611d6757505060408051808201909152601181527f4348414e47455045524d495353494f4e53000000000000000000000000000000602082015290565b6004821415611da957505060408051808201909152600e81527f4144445045524d495353494f4e53000000000000000000000000000000000000602082015290565b6008821415611deb57505060408051808201909152600781527f5345544441544100000000000000000000000000000000000000000000000000602082015290565b6010821415611e2d57505060408051808201909152600481527f43414c4c00000000000000000000000000000000000000000000000000000000602082015290565b6020821415611e6f57505060408051808201909152600a81527f53544154494343414c4c00000000000000000000000000000000000000000000602082015290565b6040821415611eb157505060408051808201909152600c81527f44454c454741544543414c4c0000000000000000000000000000000000000000602082015290565b6080821415611ef357505060408051808201909152600681527f4445504c4f590000000000000000000000000000000000000000000000000000602082015290565b610100821415611f3657505060408051808201909152600d81527f5452414e5346455256414c554500000000000000000000000000000000000000602082015290565b6102008214156109c857505060408051808201909152600481527f5349474e00000000000000000000000000000000000000000000000000000000602082015290565b6000807f7fffffffffffffffffffffffffffffff5d576e7357a4501ddfe92f46681b20a0831115611fb0575060009050600361205d565b8460ff16601b14158015611fc857508460ff16601c14155b15611fd9575060009050600461205d565b6040805160008082526020820180845289905260ff881692820192909252606081018690526080810185905260019060a0016020604051602081039080840390855afa15801561202d573d6000803e3d6000fd5b5050604051601f1901519150506001600160a01b0381166120565760006001925092505061205d565b9150600090505b94509492505050565b6000807f7fffffffffffffffffffffffffffffffffffffffffffffffffffffffffffffff83168161209c60ff86901c601b612ac9565b90506120aa87828885611f79565b935093505050935093915050565b60006120c5826020612ac9565b835110156121155760405162461bcd60e51b815260206004820152601560248201527f746f55696e743235365f6f75744f66426f756e647300000000000000000000006044820152606401610454565b50016020015190565b600061212b826020612ac9565b835110156121155760405162461bcd60e51b815260206004820152601560248201527f746f427974657333325f6f75744f66426f756e647300000000000000000000006044820152606401610454565b60606001600160a01b0383166354f6127f6121a5694b80742de2bf90b8b48560b01b85851b611418565b6040518263ffffffff1660e01b81526004016121c391815260200190565b60006040518083038186803b1580156121db57600080fd5b505afa1580156121ef573d6000803e3d6000fd5b505050506040513d6000823e601f3d908101601f191682016040526111e3919081019061287d565b6000601f5b82816020811061222e5761222e612c6b565b1a60f81b7fff000000000000000000000000000000000000000000000000000000000000001661226a578061226281612beb565b91505061221c565b612275816001612ac9565b6111e3906020612b00565b60606001600160a01b0383166354f6127f6121a56912e01d0b78aff1b75acf60b21b85851b611418565b60606001600160a01b0383166354f6127f6121a5694b80742de2bf3efa94a360b01b85851b611418565b604080516001600160e01b0319831660248083019190915282518083039091018152604490910182526020810180516001600160e01b03166301ffc9a760e01b179052905160009190829081906001600160a01b038716906175309061233b908690612997565b6000604051808303818686fa925050503d8060008114612377576040519150601f19603f3d011682016040523d82523d6000602084013e61237c565b606091505b50915091506020815110156123975760009350505050610213565b8180156123b35750808060200190518101906123b391906127bf565b9695505050505050565b60606001600160a01b0383166354f6127f6121a56909700e85bc57f1dfd43d60b31b85851b611418565b600082601f8301126123f857600080fd5b8135602061240d61240883612a53565b612a22565b80838252828201915082860187848660051b890101111561242d57600080fd5b6000805b8681101561247057823567ffffffffffffffff81111561244f578283fd5b61245d8b88838d01016124c0565b8652509385019391850191600101612431565b509198975050505050505050565b60008083601f84011261249057600080fd5b50813567ffffffffffffffff8111156124a857600080fd5b60208301915083602082850101111561125357600080fd5b600082601f8301126124d157600080fd5b81356124df61240882612a77565b8181528460208386010111156124f457600080fd5b816020850160208301376000918101602001919091529392505050565b6000806040838503121561252457600080fd5b823561252f81612c97565b946020939093013593505050565b6000602080838503121561255057600080fd5b825167ffffffffffffffff81111561256757600080fd5b8301601f8101851361257857600080fd5b805161258661240882612a53565b80828252848201915084840188868560051b87010111156125a657600080fd5b600094505b838510156125d25780516125be81612c97565b8352600194909401939185019185016125ab565b50979650505050505050565b600060208083850312156125f157600080fd5b825167ffffffffffffffff81111561260857600080fd5b8301601f8101851361261957600080fd5b805161262761240882612a53565b80828252848201915084840188868560051b870101111561264757600080fd5b600094505b838510156125d257805183526001949094019391850191850161264c565b6000806040838503121561267d57600080fd5b823567ffffffffffffffff8082111561269557600080fd5b818501915085601f8301126126a957600080fd5b813560206126b961240883612a53565b8083825282820191508286018a848660051b89010111156126d957600080fd5b600096505b848710156126fc5780358352600196909601959183019183016126de565b509650508601359250508082111561271357600080fd5b50612720858286016123e7565b9150509250929050565b6000602080838503121561273d57600080fd5b825167ffffffffffffffff81111561275457600080fd5b8301601f8101851361276557600080fd5b805161277361240882612a53565b80828252848201915084840188868560051b870101111561279357600080fd5b600094505b838510156125d25780516127ab81612cac565b835260019490940193918501918501612798565b6000602082840312156127d157600080fd5b815180151581146111e357600080fd5b600080604083850312156127f457600080fd5b82359150602083013567ffffffffffffffff81111561281257600080fd5b612720858286016124c0565b60006020828403121561283057600080fd5b81356111e381612cac565b6000806020838503121561284e57600080fd5b823567ffffffffffffffff81111561286557600080fd5b6128718582860161247e565b90969095509350505050565b60006020828403121561288f57600080fd5b815167ffffffffffffffff8111156128a657600080fd5b8201601f810184136128b757600080fd5b80516128c561240882612a77565b8181528560208385010111156128da57600080fd5b610308826020830160208601612bbf565b6000806000806060858703121561290157600080fd5b843567ffffffffffffffff8082111561291957600080fd5b612925888389016124c0565b955060208701359450604087013591508082111561294257600080fd5b5061294f8782880161247e565b95989497509550505050565b60008151808452612973816020860160208601612bbf565b601f01601f19169290920160200192915050565b8183823760009101908152919050565b600082516129a9818460208701612bbf565b9190910192915050565b8581526bffffffffffffffffffffffff198560601b1660208201528360348201528183605483013760009101605401908152949350505050565b6001600160a01b0383168152604060208201526000610360604083018461295b565b6020815260006111e3602083018461295b565b604051601f8201601f1916810167ffffffffffffffff81118282101715612a4b57612a4b612c81565b604052919050565b600067ffffffffffffffff821115612a6d57612a6d612c81565b5060051b60200190565b600067ffffffffffffffff821115612a9157612a91612c81565b50601f01601f191660200190565b60008085851115612aaf57600080fd5b83861115612abc57600080fd5b5050820193919092039150565b60008219821115612adc57612adc612c3f565b500190565b6000816000190483118215151615612afb57612afb612c3f565b500290565b600082821015612b1257612b12612c3f565b500390565b6bffffffffffffffffffffffff198135818116916014851015612b445780818660140360031b1b83161692505b505092915050565b8035602083101561021357600019602084900360031b1b1692915050565b6001600160e01b03198135818116916004851015612b445760049490940360031b84901b1690921692915050565b80516020808301519190811015612bb9576000198160200360031b1b821691505b50919050565b60005b83811015612bda578181015183820152602001612bc2565b83811115610ed25750506000910152565b600081612bfa57612bfa612c3f565b506000190190565b6000600019821415612c1657612c16612c3f565b5060010190565b600082612c3a57634e487b7160e01b600052601260045260246000fd5b500690565b634e487b7160e01b600052601160045260246000fd5b634e487b7160e01b600052602160045260246000fd5b634e487b7160e01b600052603260045260246000fd5b634e487b7160e01b600052604160045260246000fd5b6001600160a01b038116811461141557600080fd5b6001600160e01b03198116811461141557600080fdfea2646970667358221220a1d94247fa82574970c88bf8af6ae8fa421403e3a492254fb8a24b1685163a3f64736f6c63430008070033",
  "linkReferences": {},
  "deployedLinkReferences": {}
}