{
  "_format": "hh-sol-artifact-1",
  "contractName": "LSP7Mintable",
  "sourceName": "contracts/LSP7DigitalAsset/presets/LSP7Mintable.sol",
  "abi": [
    {
      "inputs": [
        {
          "internalType": "string",
          "name": "name_",
          "type": "string"
        },
        {
          "internalType": "string",
          "name": "symbol_",
          "type": "string"
        },
        {
          "internalType": "address",
          "name": "newOwner_",
          "type": "address"
        },
        {
          "internalType": "bool",
          "name": "isNFT_",
          "type": "bool"
        }
      ],
      "stateMutability": "nonpayable",
      "type": "constructor"
    },
    {
      "inputs": [
        {
          "internalType": "address",
          "name": "tokenOwner",
          "type": "address"
        },
        {
          "internalType": "uint256",
          "name": "authorizedAmount",
          "type": "uint256"
        },
        {
          "internalType": "address",
          "name": "operator",
          "type": "address"
        },
        {
          "internalType": "uint256",
          "name": "amount",
          "type": "uint256"
        }
      ],
      "name": "LSP7AmountExceedsAuthorizedAmount",
      "type": "error"
    },
    {
      "inputs": [
        {
          "internalType": "uint256",
          "name": "balance",
          "type": "uint256"
        },
        {
          "internalType": "address",
          "name": "tokenOwner",
          "type": "address"
        },
        {
          "internalType": "uint256",
          "name": "amount",
          "type": "uint256"
        }
      ],
      "name": "LSP7AmountExceedsBalance",
      "type": "error"
    },
    {
      "inputs": [],
      "name": "LSP7CannotSendWithAddressZero",
      "type": "error"
    },
    {
      "inputs": [],
      "name": "LSP7CannotUseAddressZeroAsOperator",
      "type": "error"
    },
    {
      "inputs": [],
      "name": "LSP7InvalidTransferBatch",
      "type": "error"
    },
    {
      "inputs": [
        {
          "internalType": "address",
          "name": "tokenReceiver",
          "type": "address"
        }
      ],
      "name": "LSP7NotifyTokenReceiverContractMissingLSP1Interface",
      "type": "error"
    },
    {
      "inputs": [
        {
          "internalType": "address",
          "name": "tokenReceiver",
          "type": "address"
        }
      ],
      "name": "LSP7NotifyTokenReceiverIsEOA",
      "type": "error"
    },
    {
      "anonymous": false,
      "inputs": [
        {
          "indexed": true,
          "internalType": "address",
          "name": "operator",
          "type": "address"
        },
        {
          "indexed": true,
          "internalType": "address",
          "name": "tokenOwner",
          "type": "address"
        },
        {
          "indexed": true,
          "internalType": "uint256",
          "name": "amount",
          "type": "uint256"
        }
      ],
      "name": "AuthorizedOperator",
      "type": "event"
    },
    {
      "anonymous": false,
      "inputs": [
        {
          "indexed": true,
          "internalType": "bytes32",
          "name": "key",
          "type": "bytes32"
        }
      ],
      "name": "DataChanged",
      "type": "event"
    },
    {
      "anonymous": false,
      "inputs": [
        {
          "indexed": true,
          "internalType": "address",
          "name": "previousOwner",
          "type": "address"
        },
        {
          "indexed": true,
          "internalType": "address",
          "name": "newOwner",
          "type": "address"
        }
      ],
      "name": "OwnershipTransferred",
      "type": "event"
    },
    {
      "anonymous": false,
      "inputs": [
        {
          "indexed": true,
          "internalType": "address",
          "name": "operator",
          "type": "address"
        },
        {
          "indexed": true,
          "internalType": "address",
          "name": "tokenOwner",
          "type": "address"
        }
      ],
      "name": "RevokedOperator",
      "type": "event"
    },
    {
      "anonymous": false,
      "inputs": [
        {
          "indexed": true,
          "internalType": "address",
          "name": "operator",
          "type": "address"
        },
        {
          "indexed": true,
          "internalType": "address",
          "name": "from",
          "type": "address"
        },
        {
          "indexed": true,
          "internalType": "address",
          "name": "to",
          "type": "address"
        },
        {
          "indexed": false,
          "internalType": "uint256",
          "name": "amount",
          "type": "uint256"
        },
        {
          "indexed": false,
          "internalType": "bool",
          "name": "force",
          "type": "bool"
        },
        {
          "indexed": false,
          "internalType": "bytes",
          "name": "data",
          "type": "bytes"
        }
      ],
      "name": "Transfer",
      "type": "event"
    },
    {
      "inputs": [
        {
          "internalType": "address",
          "name": "operator",
          "type": "address"
        },
        {
          "internalType": "uint256",
          "name": "amount",
          "type": "uint256"
        }
      ],
      "name": "authorizeOperator",
      "outputs": [],
      "stateMutability": "nonpayable",
      "type": "function"
    },
    {
      "inputs": [
        {
          "internalType": "address",
          "name": "tokenOwner",
          "type": "address"
        }
      ],
      "name": "balanceOf",
      "outputs": [
        {
          "internalType": "uint256",
          "name": "",
          "type": "uint256"
        }
      ],
      "stateMutability": "view",
      "type": "function"
    },
    {
      "inputs": [],
      "name": "decimals",
      "outputs": [
        {
          "internalType": "uint256",
          "name": "",
          "type": "uint256"
        }
      ],
      "stateMutability": "view",
      "type": "function"
    },
    {
      "inputs": [
        {
          "internalType": "bytes32[]",
          "name": "keys",
          "type": "bytes32[]"
        }
      ],
      "name": "getData",
      "outputs": [
        {
          "internalType": "bytes[]",
          "name": "values",
          "type": "bytes[]"
        }
      ],
      "stateMutability": "view",
      "type": "function"
    },
    {
      "inputs": [
        {
          "internalType": "bytes32",
          "name": "key",
          "type": "bytes32"
        }
      ],
      "name": "getData",
      "outputs": [
        {
          "internalType": "bytes",
          "name": "value",
          "type": "bytes"
        }
      ],
      "stateMutability": "view",
      "type": "function"
    },
    {
      "inputs": [
        {
          "internalType": "address",
          "name": "operator",
          "type": "address"
        },
        {
          "internalType": "address",
          "name": "tokenOwner",
          "type": "address"
        }
      ],
      "name": "isOperatorFor",
      "outputs": [
        {
          "internalType": "uint256",
          "name": "",
          "type": "uint256"
        }
      ],
      "stateMutability": "view",
      "type": "function"
    },
    {
      "inputs": [
        {
          "internalType": "address",
          "name": "to",
          "type": "address"
        },
        {
          "internalType": "uint256",
          "name": "amount",
          "type": "uint256"
        },
        {
          "internalType": "bool",
          "name": "force",
          "type": "bool"
        },
        {
          "internalType": "bytes",
          "name": "data",
          "type": "bytes"
        }
      ],
      "name": "mint",
      "outputs": [],
      "stateMutability": "nonpayable",
      "type": "function"
    },
    {
      "inputs": [],
      "name": "owner",
      "outputs": [
        {
          "internalType": "address",
          "name": "",
          "type": "address"
        }
      ],
      "stateMutability": "view",
      "type": "function"
    },
    {
      "inputs": [],
      "name": "renounceOwnership",
      "outputs": [],
      "stateMutability": "nonpayable",
      "type": "function"
    },
    {
      "inputs": [
        {
          "internalType": "address",
          "name": "operator",
          "type": "address"
        }
      ],
      "name": "revokeOperator",
      "outputs": [],
      "stateMutability": "nonpayable",
      "type": "function"
    },
    {
      "inputs": [
        {
          "internalType": "bytes32[]",
          "name": "keys",
          "type": "bytes32[]"
        },
        {
          "internalType": "bytes[]",
          "name": "values",
          "type": "bytes[]"
        }
      ],
      "name": "setData",
      "outputs": [],
      "stateMutability": "nonpayable",
      "type": "function"
    },
    {
      "inputs": [
        {
          "internalType": "bytes32",
          "name": "key",
          "type": "bytes32"
        },
        {
          "internalType": "bytes",
          "name": "value",
          "type": "bytes"
        }
      ],
      "name": "setData",
      "outputs": [],
      "stateMutability": "nonpayable",
      "type": "function"
    },
    {
      "inputs": [
        {
          "internalType": "bytes4",
          "name": "interfaceId",
          "type": "bytes4"
        }
      ],
      "name": "supportsInterface",
      "outputs": [
        {
          "internalType": "bool",
          "name": "",
          "type": "bool"
        }
      ],
      "stateMutability": "view",
      "type": "function"
    },
    {
      "inputs": [],
      "name": "totalSupply",
      "outputs": [
        {
          "internalType": "uint256",
          "name": "",
          "type": "uint256"
        }
      ],
      "stateMutability": "view",
      "type": "function"
    },
    {
      "inputs": [
        {
          "internalType": "address",
          "name": "from",
          "type": "address"
        },
        {
          "internalType": "address",
          "name": "to",
          "type": "address"
        },
        {
          "internalType": "uint256",
          "name": "amount",
          "type": "uint256"
        },
        {
          "internalType": "bool",
          "name": "force",
          "type": "bool"
        },
        {
          "internalType": "bytes",
          "name": "data",
          "type": "bytes"
        }
      ],
      "name": "transfer",
      "outputs": [],
      "stateMutability": "nonpayable",
      "type": "function"
    },
    {
      "inputs": [
        {
          "internalType": "address[]",
          "name": "from",
          "type": "address[]"
        },
        {
          "internalType": "address[]",
          "name": "to",
          "type": "address[]"
        },
        {
          "internalType": "uint256[]",
          "name": "amount",
          "type": "uint256[]"
        },
        {
          "internalType": "bool",
          "name": "force",
          "type": "bool"
        },
        {
          "internalType": "bytes[]",
          "name": "data",
          "type": "bytes[]"
        }
      ],
      "name": "transferBatch",
      "outputs": [],
      "stateMutability": "nonpayable",
      "type": "function"
    },
    {
      "inputs": [
        {
          "internalType": "address",
          "name": "newOwner",
          "type": "address"
        }
      ],
      "name": "transferOwnership",
      "outputs": [],
      "stateMutability": "nonpayable",
      "type": "function"
    }
  ],
  "bytecode": "0x60806040523480156200001157600080fd5b506040516200212638038062002126833981016040819052620000349162000355565b838383838383838062000052816200014060201b620009261760201c565b50620000a97feafec4d89fa9619884b60000a4d96624a38f7ac2d8d9a604ecf07c12c77e480c60001b604051806040016040528060048152602001632936598960e21b815250620001a760201b620009a31760201c565b620000e37fdeba1e292f8ba88238e10ab3c7f88bd4be4fac56cad5194b6ecceaf653468af160001b84620001a760201b620009a31760201c565b6200011d7f2f0a68ab07768e01943a599e73362a0e17a63a72e94dd2e384d2c1d4db93275660001b83620001a760201b620009a31760201c565b50506002805460ff191692151592909217909155506200044d9650505050505050565b6000546001600160a01b03828116911614620001a457600080546001600160a01b038381166001600160a01b0319831681178455604051919092169283917f8be0079c531659141344cd1fd0a4f28419497f9722a3daafe3b4186f6b6457e09190a3505b50565b60008281526001602090815260409091208251620001c892840190620001f8565b5060405182907fcdf4e344c0d23d4cdd0474039d176c55b19d531070dbe17856bfb993a5b5720b90600090a25050565b8280546200020690620003fa565b90600052602060002090601f0160209004810192826200022a576000855562000275565b82601f106200024557805160ff191683800117855562000275565b8280016001018555821562000275579182015b828111156200027557825182559160200191906001019062000258565b506200028392915062000287565b5090565b5b8082111562000283576000815560010162000288565b600082601f830112620002b057600080fd5b81516001600160401b0380821115620002cd57620002cd62000437565b604051601f8301601f19908116603f01168101908282118183101715620002f857620002f862000437565b816040528381526020925086838588010111156200031557600080fd5b600091505b838210156200033957858201830151818301840152908201906200031a565b838211156200034b5760008385830101525b9695505050505050565b600080600080608085870312156200036c57600080fd5b84516001600160401b03808211156200038457600080fd5b62000392888389016200029e565b95506020870151915080821115620003a957600080fd5b50620003b8878288016200029e565b604087015190945090506001600160a01b0381168114620003d857600080fd5b60608601519092508015158114620003ef57600080fd5b939692955090935050565b600181811c908216806200040f57607f821691505b602082108114156200043157634e487b7160e01b600052602260045260246000fd5b50919050565b634e487b7160e01b600052604160045260246000fd5b611cc9806200045d6000396000f3fe608060405234801561001057600080fd5b506004361061011b5760003560e01c8063715018a6116100b25780638da5cb5b11610081578063d95b637111610066578063d95b637114610262578063f2fde38b14610275578063fad8b32a1461028857600080fd5b80638da5cb5b14610234578063a8a34e0a1461024f57600080fd5b8063715018a6146101f35780637580d920146101fb578063760d9bba1461020e5780637f23690c1461022157600080fd5b806347980aa3116100ee57806347980aa3146101775780634e3e6e9c1461018a57806354f6127f146101aa57806370a08231146101ca57600080fd5b806301ffc9a71461012057806314a6e2931461014857806318160ddd1461015d578063313ce5671461016f575b600080fd5b61013361012e366004611936565b61029b565b60405190151581526020015b60405180910390f35b61015b61015636600461185f565b6102df565b005b6003545b60405190815260200161013f565b61016161040a565b61015b610185366004611682565b610429565b61019d610198366004611822565b610438565b60405161013f9190611a6c565b6101bd6101b83660046118e0565b6104ec565b60405161013f9190611ae7565b6101616101d83660046115b2565b6001600160a01b031660009081526004602052604090205490565b61015b6104f7565b61015b6102093660046116ac565b61055d565b61015b61021c366004611607565b6105c9565b61015b61022f3660046118f9565b610686565b6000546040516001600160a01b03909116815260200161013f565b61015b61025d366004611716565b6106ea565b6101616102703660046115d4565b6107d0565b61015b6102833660046115b2565b610838565b61015b6102963660046115b2565b61091a565b60006001600160e01b031982167fe33f65c30000000000000000000000000000000000000000000000000000000014806102d957506102d9826109f2565b92915050565b6000546001600160a01b0316331461033e5760405162461bcd60e51b815260206004820181905260248201527f4f776e61626c653a2063616c6c6572206973206e6f7420746865206f776e657260448201526064015b60405180910390fd5b80518251146103b55760405162461bcd60e51b815260206004820152602660248201527f4b657973206c656e677468206e6f7420657175616c20746f2076616c7565732060448201527f6c656e67746800000000000000000000000000000000000000000000000000006064820152608401610335565b60005b8251811015610405576103fd8382815181106103d6576103d6611c59565b60200260200101518383815181106103f0576103f0611c59565b6020026020010151610a40565b6001016103b8565b505050565b60025460009060ff1661041e576012610421565b60005b60ff16905090565b610434338383610b76565b5050565b6060815167ffffffffffffffff81111561045457610454611c6f565b60405190808252806020026020018201604052801561048757816020015b60608152602001906001900390816104725790505b50905060005b82518110156104e6576104b88382815181106104ab576104ab611c59565b6020026020010151610c8e565b8282815181106104ca576104ca611c59565b60200260200101819052506104df8160010190565b905061048d565b50919050565b60606102d982610c8e565b6000546001600160a01b031633146105515760405162461bcd60e51b815260206004820181905260248201527f4f776e61626c653a2063616c6c6572206973206e6f7420746865206f776e65726044820152606401610335565b61055b6000610926565b565b6000546001600160a01b031633146105b75760405162461bcd60e51b815260206004820181905260248201527f4f776e61626c653a2063616c6c6572206973206e6f7420746865206f776e65726044820152606401610335565b6105c384848484610d30565b50505050565b336001600160a01b0386168114610671576001600160a01b038087166000908152600560209081526040808320938516835292905220548085111561065b576040517ff3a6b6910000000000000000000000000000000000000000000000000000000081526001600160a01b038089166004830152602482018390528316604482015260648101869052608401610335565b61066f878361066a8885611bb0565b610b76565b505b61067e8686868686610e02565b505050505050565b6000546001600160a01b031633146106e05760405162461bcd60e51b815260206004820181905260248201527f4f776e61626c653a2063616c6c6572206973206e6f7420746865206f776e65726044820152606401610335565b6104348282610a40565b835185511415806106fd57508251855114155b8061070a57508051855114155b15610741576040517f263eee8d00000000000000000000000000000000000000000000000000000000815260040160405180910390fd5b60005b855181101561067e576107be86828151811061076257610762611c59565b602002602001015186838151811061077c5761077c611c59565b602002602001015186848151811061079657610796611c59565b6020026020010151868686815181106107b1576107b1611c59565b60200260200101516105c9565b806107c881611c28565b915050610744565b6000826001600160a01b0316826001600160a01b0316141561080b57506001600160a01b0381166000908152600460205260409020546102d9565b506001600160a01b0380821660009081526005602090815260408083209386168352929052205492915050565b6000546001600160a01b031633146108925760405162461bcd60e51b815260206004820181905260248201527f4f776e61626c653a2063616c6c6572206973206e6f7420746865206f776e65726044820152606401610335565b6001600160a01b03811661090e5760405162461bcd60e51b815260206004820152602660248201527f4f776e61626c653a206e6577206f776e657220697320746865207a65726f206160448201527f64647265737300000000000000000000000000000000000000000000000000006064820152608401610335565b61091781610926565b50565b61091733826000610b76565b6000546001600160a01b0382811691161461091757600080546001600160a01b038381167fffffffffffffffffffffffff0000000000000000000000000000000000000000831681178455604051919092169283917f8be0079c531659141344cd1fd0a4f28419497f9722a3daafe3b4186f6b6457e09190a35050565b600082815260016020908152604090912082516109c292840190611336565b5060405182907fcdf4e344c0d23d4cdd0474039d176c55b19d531070dbe17856bfb993a5b5720b90600090a25050565b60006001600160e01b031982167f714df77c0000000000000000000000000000000000000000000000000000000014806102d957506301ffc9a760e01b6001600160e01b03198316146102d9565b7fdeba1e292f8ba88238e10ab3c7f88bd4be4fac56cad5194b6ecceaf653468af1821415610ad65760405162461bcd60e51b815260206004820152602d60248201527f4c5350343a2063616e6e6f74206564697420546f6b656e204e616d652061667460448201527f6572206465706c6f796d656e74000000000000000000000000000000000000006064820152608401610335565b7f2f0a68ab07768e01943a599e73362a0e17a63a72e94dd2e384d2c1d4db932756821415610b6c5760405162461bcd60e51b815260206004820152602f60248201527f4c5350343a2063616e6e6f74206564697420546f6b656e2053796d626f6c206160448201527f66746572206465706c6f796d656e7400000000000000000000000000000000006064820152608401610335565b61043482826109a3565b6001600160a01b038216610bb6576040517f6355e76600000000000000000000000000000000000000000000000000000000815260040160405180910390fd5b826001600160a01b0316826001600160a01b03161415610bd557505050565b6001600160a01b0380841660009081526005602090815260408083209386168352929052208190558015610c495780836001600160a01b0316836001600160a01b03167fd66aff874162a96578e919097b6f6d153dfd89a5cec41bb331fdb0c4aec16e2c60405160405180910390a4505050565b826001600160a01b0316826001600160a01b03167f50546e66e5f44d728365dc3908c63bc5cfeeab470722c1677e3073a6ac294aa160405160405180910390a3505050565b6000818152600160205260409020805460609190610cab90611bf3565b80601f0160208091040260200160405190810160405280929190818152602001828054610cd790611bf3565b8015610d245780601f10610cf957610100808354040283529160200191610d24565b820191906000526020600020905b815481529060010190602001808311610d0757829003601f168201915b50505050509050919050565b6001600160a01b038416610d5757604051630d2d5ec360e41b815260040160405180910390fd5b33610d6460008686610f8c565b6001600160a01b03851660009081526004602052604081208054869290610d8c908490611b98565b92505081905550846001600160a01b031660006001600160a01b0316826001600160a01b03167f3997e418d2cef0b3b0e907b1e39605c3f7d32dbd061e82ea5b4a770d46a160a6878787604051610de593929190611afa565b60405180910390a4610dfb600086868686610fdc565b5050505050565b6001600160a01b0385161580610e1f57506001600160a01b038416155b15610e3d57604051630d2d5ec360e41b815260040160405180910390fd5b6001600160a01b03851660009081526004602052604090205480841115610ea9576040517f08d47949000000000000000000000000000000000000000000000000000000008152600481018290526001600160a01b038716602482015260448101859052606401610335565b33610eb5878787610f8c565b6001600160a01b03871660009081526004602052604081208054879290610edd908490611bb0565b90915550506001600160a01b03861660009081526004602052604081208054879290610f0a908490611b98565b92505081905550856001600160a01b0316876001600160a01b0316826001600160a01b03167f3997e418d2cef0b3b0e907b1e39605c3f7d32dbd061e82ea5b4a770d46a160a6888888604051610f6293929190611afa565b60405180910390a4610f7687878786611155565b610f838787878787610fdc565b50505050505050565b6001600160a01b038316610fb2578060036000828254610fac9190611b98565b90915550505b6001600160a01b038216610405578060036000828254610fd29190611bb0565b9091555050505050565b610fed84631aed5a8560e21b611238565b156110c65760008585858460405160200161100b9493929190611a03565b60408051601f1981840301815290829052631aed5a8560e21b825291506001600160a01b03861690636bb56a1490611069907fdbe2c314e1aee2970c72666f2ebe8933a8575263ea71e5ff6a9178e95d47a26f908590600401611ace565b600060405180830381600087803b15801561108357600080fd5b505af1158015611097573d6000803e3d6000fd5b505050506040513d6000823e601f3d908101601f191682016040526110bf9190810190611960565b5050610dfb565b81610dfb576001600160a01b0384163b15611118576040517fa608fbb60000000000000000000000000000000000000000000000000000000081526001600160a01b0385166004820152602401610335565b6040517f26c247f40000000000000000000000000000000000000000000000000000000081526001600160a01b0385166004820152602401610335565b61116684631aed5a8560e21b611238565b156105c3576000848484846040516020016111849493929190611a03565b60408051601f1981840301815290829052631aed5a8560e21b825291506001600160a01b03861690636bb56a14906111e2907f40b8bec57d7b5ff0dbd9e9acd0a47dfeb0101e1a203766f5ccab00445fbf39e9908590600401611ace565b600060405180830381600087803b1580156111fc57600080fd5b505af1158015611210573d6000803e3d6000fd5b505050506040513d6000823e601f3d908101601f1916820160405261067e9190810190611960565b604080516001600160e01b0319831660248083019190915282518083039091018152604490910182526020810180517bffffffffffffffffffffffffffffffffffffffffffffffffffffffff166301ffc9a760e01b179052905160009190829081906001600160a01b03871690617530906112b4908690611a50565b6000604051808303818686fa925050503d80600081146112f0576040519150601f19603f3d011682016040523d82523d6000602084013e6112f5565b606091505b509150915060208151101561131057600093505050506102d9565b81801561132c57508080602001905181019061132c91906118c3565b9695505050505050565b82805461134290611bf3565b90600052602060002090601f01602090048101928261136457600085556113aa565b82601f1061137d57805160ff19168380011785556113aa565b828001600101855582156113aa579182015b828111156113aa57825182559160200191906001019061138f565b506113b69291506113ba565b5090565b5b808211156113b657600081556001016113bb565b80356001600160a01b03811681146113e657600080fd5b919050565b600082601f8301126113fc57600080fd5b8135602061141161140c83611b4c565b611b1b565b80838252828201915082860187848660051b890101111561143157600080fd5b60005b8581101561145757611445826113cf565b84529284019290840190600101611434565b5090979650505050505050565b600082601f83011261147557600080fd5b8135602061148561140c83611b4c565b80838252828201915082860187848660051b89010111156114a557600080fd5b60005b85811015611457578135845292840192908401906001016114a8565b600082601f8301126114d557600080fd5b813560206114e561140c83611b4c565b80838252828201915082860187848660051b890101111561150557600080fd5b6000805b8681101561154857823567ffffffffffffffff811115611527578283fd5b6115358b88838d0101611561565b8652509385019391850191600101611509565b509198975050505050505050565b80356113e681611c85565b600082601f83011261157257600080fd5b813561158061140c82611b70565b81815284602083860101111561159557600080fd5b816020850160208301376000918101602001919091529392505050565b6000602082840312156115c457600080fd5b6115cd826113cf565b9392505050565b600080604083850312156115e757600080fd5b6115f0836113cf565b91506115fe602084016113cf565b90509250929050565b600080600080600060a0868803121561161f57600080fd5b611628866113cf565b9450611636602087016113cf565b935060408601359250606086013561164d81611c85565b9150608086013567ffffffffffffffff81111561166957600080fd5b61167588828901611561565b9150509295509295909350565b6000806040838503121561169557600080fd5b61169e836113cf565b946020939093013593505050565b600080600080608085870312156116c257600080fd5b6116cb856113cf565b93506020850135925060408501356116e281611c85565b9150606085013567ffffffffffffffff8111156116fe57600080fd5b61170a87828801611561565b91505092959194509250565b600080600080600060a0868803121561172e57600080fd5b853567ffffffffffffffff8082111561174657600080fd5b61175289838a016113eb565b965060209150818801358181111561176957600080fd5b6117758a828b016113eb565b96505060408801358181111561178a57600080fd5b8801601f81018a1361179b57600080fd5b80356117a961140c82611b4c565b8082825285820191508584018d878560051b87010111156117c957600080fd5b600094505b838510156117ec5780358352600194909401939186019186016117ce565b5097506117ff9250505060608901611556565b9350608088013591508082111561181557600080fd5b50611675888289016114c4565b60006020828403121561183457600080fd5b813567ffffffffffffffff81111561184b57600080fd5b61185784828501611464565b949350505050565b6000806040838503121561187257600080fd5b823567ffffffffffffffff8082111561188a57600080fd5b61189686838701611464565b935060208501359150808211156118ac57600080fd5b506118b9858286016114c4565b9150509250929050565b6000602082840312156118d557600080fd5b81516115cd81611c85565b6000602082840312156118f257600080fd5b5035919050565b6000806040838503121561190c57600080fd5b82359150602083013567ffffffffffffffff81111561192a57600080fd5b6118b985828601611561565b60006020828403121561194857600080fd5b81356001600160e01b0319811681146115cd57600080fd5b60006020828403121561197257600080fd5b815167ffffffffffffffff81111561198957600080fd5b8201601f8101841361199a57600080fd5b80516119a861140c82611b70565b8181528560208385010111156119bd57600080fd5b6119ce826020830160208601611bc7565b95945050505050565b600081518084526119ef816020860160208601611bc7565b601f01601f19169290920160200192915050565b60006bffffffffffffffffffffffff19808760601b168352808660601b166014840152508360288301528251611a40816048850160208701611bc7565b9190910160480195945050505050565b60008251611a62818460208701611bc7565b9190910192915050565b6000602080830181845280855180835260408601915060408160051b870101925083870160005b82811015611ac157603f19888603018452611aaf8583516119d7565b94509285019290850190600101611a93565b5092979650505050505050565b82815260406020820152600061185760408301846119d7565b6020815260006115cd60208301846119d7565b83815282151560208201526060604082015260006119ce60608301846119d7565b604051601f8201601f1916810167ffffffffffffffff81118282101715611b4457611b44611c6f565b604052919050565b600067ffffffffffffffff821115611b6657611b66611c6f565b5060051b60200190565b600067ffffffffffffffff821115611b8a57611b8a611c6f565b50601f01601f191660200190565b60008219821115611bab57611bab611c43565b500190565b600082821015611bc257611bc2611c43565b500390565b60005b83811015611be2578181015183820152602001611bca565b838111156105c35750506000910152565b600181811c90821680611c0757607f821691505b602082108114156104e657634e487b7160e01b600052602260045260246000fd5b6000600019821415611c3c57611c3c611c43565b5060010190565b634e487b7160e01b600052601160045260246000fd5b634e487b7160e01b600052603260045260246000fd5b634e487b7160e01b600052604160045260246000fd5b801515811461091757600080fdfea264697066735822122068938999acfad7e1224bde241996cf406cc9381cb0cea689cbcc2a756d372bba64736f6c63430008070033",
  "linkReferences": {},
  "deployedLinkReferences": {}
}