{
  "_format": "hh-sol-artifact-1",
  "contractName": "LSP7CompatibilityForERC20Init",
  "sourceName": "contracts/LSP7DigitalAsset/extensions/LSP7CompatibilityForERC20Init.sol",
  "abi": [
    {
      "inputs": [
        {
          "internalType": "address",
          "name": "tokenOwner",
          "type": "address"
        },
        {
          "internalType": "uint256",
          "name": "authorizedAmount",
          "type": "uint256"
        },
        {
          "internalType": "address",
          "name": "operator",
          "type": "address"
        },
        {
          "internalType": "uint256",
          "name": "amount",
          "type": "uint256"
        }
      ],
      "name": "LSP7AmountExceedsAuthorizedAmount",
      "type": "error"
    },
    {
      "inputs": [
        {
          "internalType": "uint256",
          "name": "balance",
          "type": "uint256"
        },
        {
          "internalType": "address",
          "name": "tokenOwner",
          "type": "address"
        },
        {
          "internalType": "uint256",
          "name": "amount",
          "type": "uint256"
        }
      ],
      "name": "LSP7AmountExceedsBalance",
      "type": "error"
    },
    {
      "inputs": [],
      "name": "LSP7CannotSendWithAddressZero",
      "type": "error"
    },
    {
      "inputs": [],
      "name": "LSP7CannotUseAddressZeroAsOperator",
      "type": "error"
    },
    {
      "inputs": [],
      "name": "LSP7InvalidTransferBatch",
      "type": "error"
    },
    {
      "inputs": [
        {
          "internalType": "address",
          "name": "tokenReceiver",
          "type": "address"
        }
      ],
      "name": "LSP7NotifyTokenReceiverContractMissingLSP1Interface",
      "type": "error"
    },
    {
      "inputs": [
        {
          "internalType": "address",
          "name": "tokenReceiver",
          "type": "address"
        }
      ],
      "name": "LSP7NotifyTokenReceiverIsEOA",
      "type": "error"
    },
    {
      "anonymous": false,
      "inputs": [
        {
          "indexed": true,
          "internalType": "address",
          "name": "owner",
          "type": "address"
        },
        {
          "indexed": true,
          "internalType": "address",
          "name": "spender",
          "type": "address"
        },
        {
          "indexed": false,
          "internalType": "uint256",
          "name": "value",
          "type": "uint256"
        }
      ],
      "name": "Approval",
      "type": "event"
    },
    {
      "anonymous": false,
      "inputs": [
        {
          "indexed": true,
          "internalType": "address",
          "name": "operator",
          "type": "address"
        },
        {
          "indexed": true,
          "internalType": "address",
          "name": "tokenOwner",
          "type": "address"
        },
        {
          "indexed": true,
          "internalType": "uint256",
          "name": "amount",
          "type": "uint256"
        }
      ],
      "name": "AuthorizedOperator",
      "type": "event"
    },
    {
      "anonymous": false,
      "inputs": [
        {
          "indexed": true,
          "internalType": "bytes32",
          "name": "key",
          "type": "bytes32"
        }
      ],
      "name": "DataChanged",
      "type": "event"
    },
    {
      "anonymous": false,
      "inputs": [
        {
          "indexed": false,
          "internalType": "uint8",
          "name": "version",
          "type": "uint8"
        }
      ],
      "name": "Initialized",
      "type": "event"
    },
    {
      "anonymous": false,
      "inputs": [
        {
          "indexed": true,
          "internalType": "address",
          "name": "previousOwner",
          "type": "address"
        },
        {
          "indexed": true,
          "internalType": "address",
          "name": "newOwner",
          "type": "address"
        }
      ],
      "name": "OwnershipTransferred",
      "type": "event"
    },
    {
      "anonymous": false,
      "inputs": [
        {
          "indexed": true,
          "internalType": "address",
          "name": "operator",
          "type": "address"
        },
        {
          "indexed": true,
          "internalType": "address",
          "name": "tokenOwner",
          "type": "address"
        }
      ],
      "name": "RevokedOperator",
      "type": "event"
    },
    {
      "anonymous": false,
      "inputs": [
        {
          "indexed": true,
          "internalType": "address",
          "name": "from",
          "type": "address"
        },
        {
          "indexed": true,
          "internalType": "address",
          "name": "to",
          "type": "address"
        },
        {
          "indexed": false,
          "internalType": "uint256",
          "name": "value",
          "type": "uint256"
        }
      ],
      "name": "Transfer",
      "type": "event"
    },
    {
      "anonymous": false,
      "inputs": [
        {
          "indexed": true,
          "internalType": "address",
          "name": "operator",
          "type": "address"
        },
        {
          "indexed": true,
          "internalType": "address",
          "name": "from",
          "type": "address"
        },
        {
          "indexed": true,
          "internalType": "address",
          "name": "to",
          "type": "address"
        },
        {
          "indexed": false,
          "internalType": "uint256",
          "name": "amount",
          "type": "uint256"
        },
        {
          "indexed": false,
          "internalType": "bool",
          "name": "force",
          "type": "bool"
        },
        {
          "indexed": false,
          "internalType": "bytes",
          "name": "data",
          "type": "bytes"
        }
      ],
      "name": "Transfer",
      "type": "event"
    },
    {
      "inputs": [
        {
          "internalType": "address",
          "name": "tokenOwner",
          "type": "address"
        },
        {
          "internalType": "address",
          "name": "operator",
          "type": "address"
        }
      ],
      "name": "allowance",
      "outputs": [
        {
          "internalType": "uint256",
          "name": "",
          "type": "uint256"
        }
      ],
      "stateMutability": "view",
      "type": "function"
    },
    {
      "inputs": [
        {
          "internalType": "address",
          "name": "operator",
          "type": "address"
        },
        {
          "internalType": "uint256",
          "name": "amount",
          "type": "uint256"
        }
      ],
      "name": "approve",
      "outputs": [],
      "stateMutability": "nonpayable",
      "type": "function"
    },
    {
      "inputs": [
        {
          "internalType": "address",
          "name": "operator",
          "type": "address"
        },
        {
          "internalType": "uint256",
          "name": "amount",
          "type": "uint256"
        }
      ],
      "name": "authorizeOperator",
      "outputs": [],
      "stateMutability": "nonpayable",
      "type": "function"
    },
    {
      "inputs": [
        {
          "internalType": "address",
          "name": "tokenOwner",
          "type": "address"
        }
      ],
      "name": "balanceOf",
      "outputs": [
        {
          "internalType": "uint256",
          "name": "",
          "type": "uint256"
        }
      ],
      "stateMutability": "view",
      "type": "function"
    },
    {
      "inputs": [],
      "name": "decimals",
      "outputs": [
        {
          "internalType": "uint256",
          "name": "",
          "type": "uint256"
        }
      ],
      "stateMutability": "view",
      "type": "function"
    },
    {
      "inputs": [
        {
          "internalType": "bytes32[]",
          "name": "keys",
          "type": "bytes32[]"
        }
      ],
      "name": "getData",
      "outputs": [
        {
          "internalType": "bytes[]",
          "name": "values",
          "type": "bytes[]"
        }
      ],
      "stateMutability": "view",
      "type": "function"
    },
    {
      "inputs": [
        {
          "internalType": "bytes32",
          "name": "key",
          "type": "bytes32"
        }
      ],
      "name": "getData",
      "outputs": [
        {
          "internalType": "bytes",
          "name": "value",
          "type": "bytes"
        }
      ],
      "stateMutability": "view",
      "type": "function"
    },
    {
      "inputs": [
        {
          "internalType": "string",
          "name": "name_",
          "type": "string"
        },
        {
          "internalType": "string",
          "name": "symbol_",
          "type": "string"
        },
        {
          "internalType": "address",
          "name": "newOwner_",
          "type": "address"
        }
      ],
      "name": "initialize",
      "outputs": [],
      "stateMutability": "nonpayable",
      "type": "function"
    },
    {
      "inputs": [],
      "name": "initialized",
      "outputs": [
        {
          "internalType": "uint8",
          "name": "",
          "type": "uint8"
        }
      ],
      "stateMutability": "view",
      "type": "function"
    },
    {
      "inputs": [],
      "name": "initializing",
      "outputs": [
        {
          "internalType": "bool",
          "name": "",
          "type": "bool"
        }
      ],
      "stateMutability": "view",
      "type": "function"
    },
    {
      "inputs": [
        {
          "internalType": "address",
          "name": "operator",
          "type": "address"
        },
        {
          "internalType": "address",
          "name": "tokenOwner",
          "type": "address"
        }
      ],
      "name": "isOperatorFor",
      "outputs": [
        {
          "internalType": "uint256",
          "name": "",
          "type": "uint256"
        }
      ],
      "stateMutability": "view",
      "type": "function"
    },
    {
      "inputs": [],
      "name": "name",
      "outputs": [
        {
          "internalType": "string",
          "name": "",
          "type": "string"
        }
      ],
      "stateMutability": "view",
      "type": "function"
    },
    {
      "inputs": [],
      "name": "owner",
      "outputs": [
        {
          "internalType": "address",
          "name": "",
          "type": "address"
        }
      ],
      "stateMutability": "view",
      "type": "function"
    },
    {
      "inputs": [],
      "name": "renounceOwnership",
      "outputs": [],
      "stateMutability": "nonpayable",
      "type": "function"
    },
    {
      "inputs": [
        {
          "internalType": "address",
          "name": "operator",
          "type": "address"
        }
      ],
      "name": "revokeOperator",
      "outputs": [],
      "stateMutability": "nonpayable",
      "type": "function"
    },
    {
      "inputs": [
        {
          "internalType": "bytes32[]",
          "name": "keys",
          "type": "bytes32[]"
        },
        {
          "internalType": "bytes[]",
          "name": "values",
          "type": "bytes[]"
        }
      ],
      "name": "setData",
      "outputs": [],
      "stateMutability": "nonpayable",
      "type": "function"
    },
    {
      "inputs": [
        {
          "internalType": "bytes32",
          "name": "key",
          "type": "bytes32"
        },
        {
          "internalType": "bytes",
          "name": "value",
          "type": "bytes"
        }
      ],
      "name": "setData",
      "outputs": [],
      "stateMutability": "nonpayable",
      "type": "function"
    },
    {
      "inputs": [
        {
          "internalType": "bytes4",
          "name": "interfaceId",
          "type": "bytes4"
        }
      ],
      "name": "supportsInterface",
      "outputs": [
        {
          "internalType": "bool",
          "name": "",
          "type": "bool"
        }
      ],
      "stateMutability": "view",
      "type": "function"
    },
    {
      "inputs": [],
      "name": "symbol",
      "outputs": [
        {
          "internalType": "string",
          "name": "",
          "type": "string"
        }
      ],
      "stateMutability": "view",
      "type": "function"
    },
    {
      "inputs": [],
      "name": "totalSupply",
      "outputs": [
        {
          "internalType": "uint256",
          "name": "",
          "type": "uint256"
        }
      ],
      "stateMutability": "view",
      "type": "function"
    },
    {
      "inputs": [
        {
          "internalType": "address",
          "name": "from",
          "type": "address"
        },
        {
          "internalType": "address",
          "name": "to",
          "type": "address"
        },
        {
          "internalType": "uint256",
          "name": "amount",
          "type": "uint256"
        },
        {
          "internalType": "bool",
          "name": "force",
          "type": "bool"
        },
        {
          "internalType": "bytes",
          "name": "data",
          "type": "bytes"
        }
      ],
      "name": "transfer",
      "outputs": [],
      "stateMutability": "nonpayable",
      "type": "function"
    },
    {
      "inputs": [
        {
          "internalType": "address",
          "name": "to",
          "type": "address"
        },
        {
          "internalType": "uint256",
          "name": "amount",
          "type": "uint256"
        }
      ],
      "name": "transfer",
      "outputs": [],
      "stateMutability": "nonpayable",
      "type": "function"
    },
    {
      "inputs": [
        {
          "internalType": "address[]",
          "name": "from",
          "type": "address[]"
        },
        {
          "internalType": "address[]",
          "name": "to",
          "type": "address[]"
        },
        {
          "internalType": "uint256[]",
          "name": "amount",
          "type": "uint256[]"
        },
        {
          "internalType": "bool",
          "name": "force",
          "type": "bool"
        },
        {
          "internalType": "bytes[]",
          "name": "data",
          "type": "bytes[]"
        }
      ],
      "name": "transferBatch",
      "outputs": [],
      "stateMutability": "nonpayable",
      "type": "function"
    },
    {
      "inputs": [
        {
          "internalType": "address",
          "name": "from",
          "type": "address"
        },
        {
          "internalType": "address",
          "name": "to",
          "type": "address"
        },
        {
          "internalType": "uint256",
          "name": "amount",
          "type": "uint256"
        }
      ],
      "name": "transferFrom",
      "outputs": [],
      "stateMutability": "nonpayable",
      "type": "function"
    },
    {
      "inputs": [
        {
          "internalType": "address",
          "name": "newOwner",
          "type": "address"
        }
      ],
      "name": "transferOwnership",
      "outputs": [],
      "stateMutability": "nonpayable",
      "type": "function"
    }
  ],
  "bytecode": "0x608060405234801561001057600080fd5b506122ea806100206000396000f3fe608060405234801561001057600080fd5b50600436106101a35760003560e01c806354f6127f116100ee57806395d89b4111610097578063d95b637111610071578063d95b637114610367578063dd62ed3e1461037a578063f2fde38b1461038d578063fad8b32a146103a057600080fd5b806395d89b4114610339578063a8a34e0a14610341578063a9059cbb1461035457600080fd5b8063760d9bba116100c8578063760d9bba146102e95780637f23690c146102fc5780638da5cb5b1461030f57600080fd5b806354f6127f146102a557806370a08231146102b8578063715018a6146102e157600080fd5b806318160ddd11610150578063313ce5671161012a578063313ce5671461026a57806347980aa3146102725780634e3e6e9c1461028557600080fd5b806318160ddd1461023557806323b872dd146102475780632599f1591461025a57600080fd5b8063095ea7b311610181578063095ea7b3146101fa57806314a6e2931461020d578063158ef93e1461022057600080fd5b806301ffc9a7146101a857806306fdde03146101d0578063077f224a146101e5575b600080fd5b6101bb6101b6366004611ee3565b6103b3565b60405190151581526020015b60405180910390f35b6101d86103f7565b6040516101c79190612108565b6101f86101f3366004611f84565b610424565b005b6101f8610208366004611c99565b61049f565b6101f861021b366004611e0c565b6104ad565b60005460405160ff90911681526020016101c7565b6003545b6040519081526020016101c7565b6101f8610255366004611be2565b6105df565b600054610100900460ff166101bb565b6102396105fc565b6101f8610280366004611c99565b61061b565b610298610293366004611dcf565b610625565b6040516101c7919061208d565b6101d86102b3366004611e8d565b6106d9565b6102396102c6366004611b94565b6001600160a01b031660009081526004602052604090205490565b6101f86106e4565b6101f86102f7366004611c1e565b610751565b6101f861030a366004611ea6565b61080e565b6000546201000090046001600160a01b03166040516001600160a01b0390911681526020016101c7565b6101d8610879565b6101f861034f366004611cc3565b6108a6565b6101f8610362366004611c99565b61098c565b610239610375366004611baf565b6109a9565b610239610388366004611baf565b610a11565b6101f861039b366004611b94565b610a24565b6101f86103ae366004611b94565b610b0d565b60006001600160e01b031982167fe33f65c30000000000000000000000000000000000000000000000000000000014806103f157506103f182610b19565b92915050565b606060006103f17fdeba1e292f8ba88238e10ab3c7f88bd4be4fac56cad5194b6ecceaf653468af1610b67565b60006104306001610c09565b90508015610448576000805461ff0019166101001790555b610453848484610d42565b8015610499576000805461ff0019169055604051600181527f7f26b83ff96e1f2b6a682f133852f6798a09c465da95921460cefb38474024989060200160405180910390a15b50505050565b6104a9828261061b565b5050565b6000546001600160a01b03620100009091041633146105135760405162461bcd60e51b815260206004820181905260248201527f4f776e61626c653a2063616c6c6572206973206e6f7420746865206f776e657260448201526064015b60405180910390fd5b805182511461058a5760405162461bcd60e51b815260206004820152602660248201527f4b657973206c656e677468206e6f7420657175616c20746f2076616c7565732060448201527f6c656e6774680000000000000000000000000000000000000000000000000000606482015260840161050a565b60005b82518110156105da576105d28382815181106105ab576105ab61227a565b60200260200101518383815181106105c5576105c561227a565b6020026020010151610dba565b60010161058d565b505050565b6105da838383600160405180602001604052806000815250610751565b60025460009060ff16610610576012610613565b60005b60ff16905090565b6104a98282610dc4565b6060815167ffffffffffffffff81111561064157610641612290565b60405190808252806020026020018201604052801561067457816020015b606081526020019060019003908161065f5790505b50905060005b82518110156106d3576106a58382815181106106985761069861227a565b6020026020010151610b67565b8282815181106106b7576106b761227a565b60200260200101819052506106cc8160010190565b905061067a565b50919050565b60606103f182610b67565b6000546001600160a01b03620100009091041633146107455760405162461bcd60e51b815260206004820181905260248201527f4f776e61626c653a2063616c6c6572206973206e6f7420746865206f776e6572604482015260640161050a565b61074f6000610e12565b565b336001600160a01b03861681146107f9576001600160a01b03808716600090815260056020908152604080832093851683529290522054808511156107e3576040517ff3a6b6910000000000000000000000000000000000000000000000000000000081526001600160a01b03808916600483015260248201839052831660448201526064810186905260840161050a565b6107f787836107f288856121d1565b610e9e565b505b6108068686868686610fb6565b505050505050565b6000546001600160a01b036201000090910416331461086f5760405162461bcd60e51b815260206004820181905260248201527f4f776e61626c653a2063616c6c6572206973206e6f7420746865206f776e6572604482015260640161050a565b6104a98282610dba565b606060006103f17f2f0a68ab07768e01943a599e73362a0e17a63a72e94dd2e384d2c1d4db932756610b67565b835185511415806108b957508251855114155b806108c657508051855114155b156108fd576040517f263eee8d00000000000000000000000000000000000000000000000000000000815260040160405180910390fd5b60005b85518110156108065761097a86828151811061091e5761091e61227a565b60200260200101518683815181106109385761093861227a565b60200260200101518684815181106109525761095261227a565b60200260200101518686868151811061096d5761096d61227a565b6020026020010151610751565b8061098481612249565b915050610900565b6104a9338383600160405180602001604052806000815250610751565b6000826001600160a01b0316826001600160a01b031614156109e457506001600160a01b0381166000908152600460205260409020546103f1565b506001600160a01b0380821660009081526005602090815260408083209386168352929052205492915050565b6000610a1d82846109a9565b9392505050565b6000546001600160a01b0362010000909104163314610a855760405162461bcd60e51b815260206004820181905260248201527f4f776e61626c653a2063616c6c6572206973206e6f7420746865206f776e6572604482015260640161050a565b6001600160a01b038116610b015760405162461bcd60e51b815260206004820152602660248201527f4f776e61626c653a206e6577206f776e657220697320746865207a65726f206160448201527f6464726573730000000000000000000000000000000000000000000000000000606482015260840161050a565b610b0a81610e12565b50565b610b0a33826000610e9e565b60006001600160e01b031982167f714df77c0000000000000000000000000000000000000000000000000000000014806103f157506301ffc9a760e01b6001600160e01b03198316146103f1565b6000818152600160205260409020805460609190610b8490612214565b80601f0160208091040260200160405190810160405280929190818152602001828054610bb090612214565b8015610bfd5780601f10610bd257610100808354040283529160200191610bfd565b820191906000526020600020905b815481529060010190602001808311610be057829003601f168201915b50505050509050919050565b60008054610100900460ff1615610ca6578160ff166001148015610c2c5750303b155b610c9e5760405162461bcd60e51b815260206004820152602e60248201527f496e697469616c697a61626c653a20636f6e747261637420697320616c72656160448201527f647920696e697469616c697a6564000000000000000000000000000000000000606482015260840161050a565b506000919050565b60005460ff808416911610610d235760405162461bcd60e51b815260206004820152602e60248201527f496e697469616c697a61626c653a20636f6e747261637420697320616c72656160448201527f647920696e697469616c697a6564000000000000000000000000000000000000606482015260840161050a565b506000805460ff191660ff92909216919091179055600190565b919050565b600054610100900460ff16610dad5760405162461bcd60e51b815260206004820152602b60248201527f496e697469616c697a61626c653a20636f6e7472616374206973206e6f74206960448201526a6e697469616c697a696e6760a81b606482015260840161050a565b6105da8383836000610fca565b6104a9828261104e565b610dce8282611184565b6040518181526001600160a01b0383169033907f8c5be1e5ebec7d5bd14f71427d1e84f3dd0314c0f7b2291e5b200ac8c7c3b9259060200160405180910390a35050565b6000546001600160a01b03828116620100009092041614610b0a57600080546001600160a01b03838116620100008181027fffffffffffffffffffff0000000000000000000000000000000000000000ffff851617855560405193049190911692909183917f8be0079c531659141344cd1fd0a4f28419497f9722a3daafe3b4186f6b6457e091a35050565b6001600160a01b038216610ede576040517f6355e76600000000000000000000000000000000000000000000000000000000815260040160405180910390fd5b826001600160a01b0316826001600160a01b03161415610efd57505050565b6001600160a01b0380841660009081526005602090815260408083209386168352929052208190558015610f715780836001600160a01b0316836001600160a01b03167fd66aff874162a96578e919097b6f6d153dfd89a5cec41bb331fdb0c4aec16e2c60405160405180910390a4505050565b826001600160a01b0316826001600160a01b03167f50546e66e5f44d728365dc3908c63bc5cfeeab470722c1677e3073a6ac294aa160405160405180910390a3505050565b610fc3858585858561118f565b5050505050565b600054610100900460ff166110355760405162461bcd60e51b815260206004820152602b60248201527f496e697469616c697a61626c653a20636f6e7472616374206973206e6f74206960448201526a6e697469616c697a696e6760a81b606482015260840161050a565b6002805460ff19168215151790556104998484846111f0565b7fdeba1e292f8ba88238e10ab3c7f88bd4be4fac56cad5194b6ecceaf653468af18214156110e45760405162461bcd60e51b815260206004820152602d60248201527f4c5350343a2063616e6e6f74206564697420546f6b656e204e616d652061667460448201527f6572206465706c6f796d656e7400000000000000000000000000000000000000606482015260840161050a565b7f2f0a68ab07768e01943a599e73362a0e17a63a72e94dd2e384d2c1d4db93275682141561117a5760405162461bcd60e51b815260206004820152602f60248201527f4c5350343a2063616e6e6f74206564697420546f6b656e2053796d626f6c206160448201527f66746572206465706c6f796d656e740000000000000000000000000000000000606482015260840161050a565b6104a98282611316565b6104a9338383610e9e565b61119c8585858585611365565b836001600160a01b0316856001600160a01b03167fddf252ad1be2c89b69c2b068fc378daa952ba7f163c4a11628f55a4df523b3ef856040516111e191815260200190565b60405180910390a35050505050565b600054610100900460ff1661125b5760405162461bcd60e51b815260206004820152602b60248201527f496e697469616c697a61626c653a20636f6e7472616374206973206e6f74206960448201526a6e697469616c697a696e6760a81b606482015260840161050a565b61126481611508565b6112c67feafec4d89fa9619884b60000a4d96624a38f7ac2d8d9a604ecf07c12c77e480c60001b6040518060400160405280600481526020017fa4d9662400000000000000000000000000000000000000000000000000000000815250611316565b6112f07fdeba1e292f8ba88238e10ab3c7f88bd4be4fac56cad5194b6ecceaf653468af184611316565b6105da7f2f0a68ab07768e01943a599e73362a0e17a63a72e94dd2e384d2c1d4db932756835b600082815260016020908152604090912082516113359284019061191d565b5060405182907fcdf4e344c0d23d4cdd0474039d176c55b19d531070dbe17856bfb993a5b5720b90600090a25050565b6001600160a01b038516158061138257506001600160a01b038416155b156113b9576040517fd2d5ec3000000000000000000000000000000000000000000000000000000000815260040160405180910390fd5b6001600160a01b03851660009081526004602052604090205480841115611425576040517f08d47949000000000000000000000000000000000000000000000000000000008152600481018290526001600160a01b03871660248201526044810185905260640161050a565b33611431878787611573565b6001600160a01b038716600090815260046020526040812080548792906114599084906121d1565b90915550506001600160a01b038616600090815260046020526040812080548792906114869084906121b9565b92505081905550856001600160a01b0316876001600160a01b0316826001600160a01b03167f3997e418d2cef0b3b0e907b1e39605c3f7d32dbd061e82ea5b4a770d46a160a68888886040516114de9392919061211b565b60405180910390a46114f2878787866115c3565b6114ff87878787876116a6565b50505050505050565b600054610100900460ff16610b015760405162461bcd60e51b815260206004820152602b60248201527f496e697469616c697a61626c653a20636f6e7472616374206973206e6f74206960448201526a6e697469616c697a696e6760a81b606482015260840161050a565b6001600160a01b03831661159957806003600082825461159391906121b9565b90915550505b6001600160a01b0382166105da5780600360008282546115b991906121d1565b9091555050505050565b6115d484631aed5a8560e21b61181f565b15610499576000848484846040516020016115f29493929190612024565b60408051601f1981840301815290829052631aed5a8560e21b825291506001600160a01b03861690636bb56a1490611650907f40b8bec57d7b5ff0dbd9e9acd0a47dfeb0101e1a203766f5ccab00445fbf39e99085906004016120ef565b600060405180830381600087803b15801561166a57600080fd5b505af115801561167e573d6000803e3d6000fd5b505050506040513d6000823e601f3d908101601f191682016040526108069190810190611f0d565b6116b784631aed5a8560e21b61181f565b15611790576000858585846040516020016116d59493929190612024565b60408051601f1981840301815290829052631aed5a8560e21b825291506001600160a01b03861690636bb56a1490611733907fdbe2c314e1aee2970c72666f2ebe8933a8575263ea71e5ff6a9178e95d47a26f9085906004016120ef565b600060405180830381600087803b15801561174d57600080fd5b505af1158015611761573d6000803e3d6000fd5b505050506040513d6000823e601f3d908101601f191682016040526117899190810190611f0d565b5050610fc3565b81610fc3576001600160a01b0384163b156117e2576040517fa608fbb60000000000000000000000000000000000000000000000000000000081526001600160a01b038516600482015260240161050a565b6040517f26c247f40000000000000000000000000000000000000000000000000000000081526001600160a01b038516600482015260240161050a565b604080516001600160e01b0319831660248083019190915282518083039091018152604490910182526020810180517bffffffffffffffffffffffffffffffffffffffffffffffffffffffff166301ffc9a760e01b179052905160009190829081906001600160a01b038716906175309061189b908690612071565b6000604051808303818686fa925050503d80600081146118d7576040519150601f19603f3d011682016040523d82523d6000602084013e6118dc565b606091505b50915091506020815110156118f757600093505050506103f1565b8180156119135750808060200190518101906119139190611e70565b9695505050505050565b82805461192990612214565b90600052602060002090601f01602090048101928261194b5760008555611991565b82601f1061196457805160ff1916838001178555611991565b82800160010185558215611991579182015b82811115611991578251825591602001919060010190611976565b5061199d9291506119a1565b5090565b5b8082111561199d57600081556001016119a2565b80356001600160a01b0381168114610d3d57600080fd5b600082601f8301126119de57600080fd5b813560206119f36119ee8361216d565b61213c565b80838252828201915082860187848660051b8901011115611a1357600080fd5b60005b85811015611a3957611a27826119b6565b84529284019290840190600101611a16565b5090979650505050505050565b600082601f830112611a5757600080fd5b81356020611a676119ee8361216d565b80838252828201915082860187848660051b8901011115611a8757600080fd5b60005b85811015611a3957813584529284019290840190600101611a8a565b600082601f830112611ab757600080fd5b81356020611ac76119ee8361216d565b80838252828201915082860187848660051b8901011115611ae757600080fd5b6000805b86811015611b2a57823567ffffffffffffffff811115611b09578283fd5b611b178b88838d0101611b43565b8652509385019391850191600101611aeb565b509198975050505050505050565b8035610d3d816122a6565b600082601f830112611b5457600080fd5b8135611b626119ee82612191565b818152846020838601011115611b7757600080fd5b816020850160208301376000918101602001919091529392505050565b600060208284031215611ba657600080fd5b610a1d826119b6565b60008060408385031215611bc257600080fd5b611bcb836119b6565b9150611bd9602084016119b6565b90509250929050565b600080600060608486031215611bf757600080fd5b611c00846119b6565b9250611c0e602085016119b6565b9150604084013590509250925092565b600080600080600060a08688031215611c3657600080fd5b611c3f866119b6565b9450611c4d602087016119b6565b9350604086013592506060860135611c64816122a6565b9150608086013567ffffffffffffffff811115611c8057600080fd5b611c8c88828901611b43565b9150509295509295909350565b60008060408385031215611cac57600080fd5b611cb5836119b6565b946020939093013593505050565b600080600080600060a08688031215611cdb57600080fd5b853567ffffffffffffffff80821115611cf357600080fd5b611cff89838a016119cd565b9650602091508188013581811115611d1657600080fd5b611d228a828b016119cd565b965050604088013581811115611d3757600080fd5b8801601f81018a13611d4857600080fd5b8035611d566119ee8261216d565b8082825285820191508584018d878560051b8701011115611d7657600080fd5b600094505b83851015611d99578035835260019490940193918601918601611d7b565b509750611dac9250505060608901611b38565b93506080880135915080821115611dc257600080fd5b50611c8c88828901611aa6565b600060208284031215611de157600080fd5b813567ffffffffffffffff811115611df857600080fd5b611e0484828501611a46565b949350505050565b60008060408385031215611e1f57600080fd5b823567ffffffffffffffff80821115611e3757600080fd5b611e4386838701611a46565b93506020850135915080821115611e5957600080fd5b50611e6685828601611aa6565b9150509250929050565b600060208284031215611e8257600080fd5b8151610a1d816122a6565b600060208284031215611e9f57600080fd5b5035919050565b60008060408385031215611eb957600080fd5b82359150602083013567ffffffffffffffff811115611ed757600080fd5b611e6685828601611b43565b600060208284031215611ef557600080fd5b81356001600160e01b031981168114610a1d57600080fd5b600060208284031215611f1f57600080fd5b815167ffffffffffffffff811115611f3657600080fd5b8201601f81018413611f4757600080fd5b8051611f556119ee82612191565b818152856020838501011115611f6a57600080fd5b611f7b8260208301602086016121e8565b95945050505050565b600080600060608486031215611f9957600080fd5b833567ffffffffffffffff80821115611fb157600080fd5b611fbd87838801611b43565b94506020860135915080821115611fd357600080fd5b50611fe086828701611b43565b925050611fef604085016119b6565b90509250925092565b600081518084526120108160208601602086016121e8565b601f01601f19169290920160200192915050565b60006bffffffffffffffffffffffff19808760601b168352808660601b1660148401525083602883015282516120618160488501602087016121e8565b9190910160480195945050505050565b600082516120838184602087016121e8565b9190910192915050565b6000602080830181845280855180835260408601915060408160051b870101925083870160005b828110156120e257603f198886030184526120d0858351611ff8565b945092850192908501906001016120b4565b5092979650505050505050565b828152604060208201526000611e046040830184611ff8565b602081526000610a1d6020830184611ff8565b8381528215156020820152606060408201526000611f7b6060830184611ff8565b604051601f8201601f1916810167ffffffffffffffff8111828210171561216557612165612290565b604052919050565b600067ffffffffffffffff82111561218757612187612290565b5060051b60200190565b600067ffffffffffffffff8211156121ab576121ab612290565b50601f01601f191660200190565b600082198211156121cc576121cc612264565b500190565b6000828210156121e3576121e3612264565b500390565b60005b838110156122035781810151838201526020016121eb565b838111156104995750506000910152565b600181811c9082168061222857607f821691505b602082108114156106d357634e487b7160e01b600052602260045260246000fd5b600060001982141561225d5761225d612264565b5060010190565b634e487b7160e01b600052601160045260246000fd5b634e487b7160e01b600052603260045260246000fd5b634e487b7160e01b600052604160045260246000fd5b8015158114610b0a57600080fdfea26469706673582212206ac00fb00cda23ad68579c2600f6236efb62bbd8131d4161ebafd4dc3f757a5664736f6c63430008070033",
  "linkReferences": {},
  "deployedLinkReferences": {}
}