{
  "_format": "hh-sol-artifact-1",
  "contractName": "LSP7CompatibilityForERC20",
  "sourceName": "contracts/LSP7DigitalAsset/extensions/LSP7CompatibilityForERC20.sol",
  "abi": [
    {
      "inputs": [
        {
          "internalType": "string",
          "name": "name_",
          "type": "string"
        },
        {
          "internalType": "string",
          "name": "symbol_",
          "type": "string"
        },
        {
          "internalType": "address",
          "name": "newOwner_",
          "type": "address"
        }
      ],
      "stateMutability": "nonpayable",
      "type": "constructor"
    },
    {
      "inputs": [
        {
          "internalType": "address",
          "name": "tokenOwner",
          "type": "address"
        },
        {
          "internalType": "uint256",
          "name": "authorizedAmount",
          "type": "uint256"
        },
        {
          "internalType": "address",
          "name": "operator",
          "type": "address"
        },
        {
          "internalType": "uint256",
          "name": "amount",
          "type": "uint256"
        }
      ],
      "name": "LSP7AmountExceedsAuthorizedAmount",
      "type": "error"
    },
    {
      "inputs": [
        {
          "internalType": "uint256",
          "name": "balance",
          "type": "uint256"
        },
        {
          "internalType": "address",
          "name": "tokenOwner",
          "type": "address"
        },
        {
          "internalType": "uint256",
          "name": "amount",
          "type": "uint256"
        }
      ],
      "name": "LSP7AmountExceedsBalance",
      "type": "error"
    },
    {
      "inputs": [],
      "name": "LSP7CannotSendWithAddressZero",
      "type": "error"
    },
    {
      "inputs": [],
      "name": "LSP7CannotUseAddressZeroAsOperator",
      "type": "error"
    },
    {
      "inputs": [],
      "name": "LSP7InvalidTransferBatch",
      "type": "error"
    },
    {
      "inputs": [
        {
          "internalType": "address",
          "name": "tokenReceiver",
          "type": "address"
        }
      ],
      "name": "LSP7NotifyTokenReceiverContractMissingLSP1Interface",
      "type": "error"
    },
    {
      "inputs": [
        {
          "internalType": "address",
          "name": "tokenReceiver",
          "type": "address"
        }
      ],
      "name": "LSP7NotifyTokenReceiverIsEOA",
      "type": "error"
    },
    {
      "anonymous": false,
      "inputs": [
        {
          "indexed": true,
          "internalType": "address",
          "name": "owner",
          "type": "address"
        },
        {
          "indexed": true,
          "internalType": "address",
          "name": "spender",
          "type": "address"
        },
        {
          "indexed": false,
          "internalType": "uint256",
          "name": "value",
          "type": "uint256"
        }
      ],
      "name": "Approval",
      "type": "event"
    },
    {
      "anonymous": false,
      "inputs": [
        {
          "indexed": true,
          "internalType": "address",
          "name": "operator",
          "type": "address"
        },
        {
          "indexed": true,
          "internalType": "address",
          "name": "tokenOwner",
          "type": "address"
        },
        {
          "indexed": true,
          "internalType": "uint256",
          "name": "amount",
          "type": "uint256"
        }
      ],
      "name": "AuthorizedOperator",
      "type": "event"
    },
    {
      "anonymous": false,
      "inputs": [
        {
          "indexed": true,
          "internalType": "bytes32",
          "name": "key",
          "type": "bytes32"
        }
      ],
      "name": "DataChanged",
      "type": "event"
    },
    {
      "anonymous": false,
      "inputs": [
        {
          "indexed": true,
          "internalType": "address",
          "name": "previousOwner",
          "type": "address"
        },
        {
          "indexed": true,
          "internalType": "address",
          "name": "newOwner",
          "type": "address"
        }
      ],
      "name": "OwnershipTransferred",
      "type": "event"
    },
    {
      "anonymous": false,
      "inputs": [
        {
          "indexed": true,
          "internalType": "address",
          "name": "operator",
          "type": "address"
        },
        {
          "indexed": true,
          "internalType": "address",
          "name": "tokenOwner",
          "type": "address"
        }
      ],
      "name": "RevokedOperator",
      "type": "event"
    },
    {
      "anonymous": false,
      "inputs": [
        {
          "indexed": true,
          "internalType": "address",
          "name": "from",
          "type": "address"
        },
        {
          "indexed": true,
          "internalType": "address",
          "name": "to",
          "type": "address"
        },
        {
          "indexed": false,
          "internalType": "uint256",
          "name": "value",
          "type": "uint256"
        }
      ],
      "name": "Transfer",
      "type": "event"
    },
    {
      "anonymous": false,
      "inputs": [
        {
          "indexed": true,
          "internalType": "address",
          "name": "operator",
          "type": "address"
        },
        {
          "indexed": true,
          "internalType": "address",
          "name": "from",
          "type": "address"
        },
        {
          "indexed": true,
          "internalType": "address",
          "name": "to",
          "type": "address"
        },
        {
          "indexed": false,
          "internalType": "uint256",
          "name": "amount",
          "type": "uint256"
        },
        {
          "indexed": false,
          "internalType": "bool",
          "name": "force",
          "type": "bool"
        },
        {
          "indexed": false,
          "internalType": "bytes",
          "name": "data",
          "type": "bytes"
        }
      ],
      "name": "Transfer",
      "type": "event"
    },
    {
      "inputs": [
        {
          "internalType": "address",
          "name": "tokenOwner",
          "type": "address"
        },
        {
          "internalType": "address",
          "name": "operator",
          "type": "address"
        }
      ],
      "name": "allowance",
      "outputs": [
        {
          "internalType": "uint256",
          "name": "",
          "type": "uint256"
        }
      ],
      "stateMutability": "view",
      "type": "function"
    },
    {
      "inputs": [
        {
          "internalType": "address",
          "name": "operator",
          "type": "address"
        },
        {
          "internalType": "uint256",
          "name": "amount",
          "type": "uint256"
        }
      ],
      "name": "approve",
      "outputs": [],
      "stateMutability": "nonpayable",
      "type": "function"
    },
    {
      "inputs": [
        {
          "internalType": "address",
          "name": "operator",
          "type": "address"
        },
        {
          "internalType": "uint256",
          "name": "amount",
          "type": "uint256"
        }
      ],
      "name": "authorizeOperator",
      "outputs": [],
      "stateMutability": "nonpayable",
      "type": "function"
    },
    {
      "inputs": [
        {
          "internalType": "address",
          "name": "tokenOwner",
          "type": "address"
        }
      ],
      "name": "balanceOf",
      "outputs": [
        {
          "internalType": "uint256",
          "name": "",
          "type": "uint256"
        }
      ],
      "stateMutability": "view",
      "type": "function"
    },
    {
      "inputs": [],
      "name": "decimals",
      "outputs": [
        {
          "internalType": "uint256",
          "name": "",
          "type": "uint256"
        }
      ],
      "stateMutability": "view",
      "type": "function"
    },
    {
      "inputs": [
        {
          "internalType": "bytes32[]",
          "name": "keys",
          "type": "bytes32[]"
        }
      ],
      "name": "getData",
      "outputs": [
        {
          "internalType": "bytes[]",
          "name": "values",
          "type": "bytes[]"
        }
      ],
      "stateMutability": "view",
      "type": "function"
    },
    {
      "inputs": [
        {
          "internalType": "bytes32",
          "name": "key",
          "type": "bytes32"
        }
      ],
      "name": "getData",
      "outputs": [
        {
          "internalType": "bytes",
          "name": "value",
          "type": "bytes"
        }
      ],
      "stateMutability": "view",
      "type": "function"
    },
    {
      "inputs": [
        {
          "internalType": "address",
          "name": "operator",
          "type": "address"
        },
        {
          "internalType": "address",
          "name": "tokenOwner",
          "type": "address"
        }
      ],
      "name": "isOperatorFor",
      "outputs": [
        {
          "internalType": "uint256",
          "name": "",
          "type": "uint256"
        }
      ],
      "stateMutability": "view",
      "type": "function"
    },
    {
      "inputs": [],
      "name": "name",
      "outputs": [
        {
          "internalType": "string",
          "name": "",
          "type": "string"
        }
      ],
      "stateMutability": "view",
      "type": "function"
    },
    {
      "inputs": [],
      "name": "owner",
      "outputs": [
        {
          "internalType": "address",
          "name": "",
          "type": "address"
        }
      ],
      "stateMutability": "view",
      "type": "function"
    },
    {
      "inputs": [],
      "name": "renounceOwnership",
      "outputs": [],
      "stateMutability": "nonpayable",
      "type": "function"
    },
    {
      "inputs": [
        {
          "internalType": "address",
          "name": "operator",
          "type": "address"
        }
      ],
      "name": "revokeOperator",
      "outputs": [],
      "stateMutability": "nonpayable",
      "type": "function"
    },
    {
      "inputs": [
        {
          "internalType": "bytes32[]",
          "name": "keys",
          "type": "bytes32[]"
        },
        {
          "internalType": "bytes[]",
          "name": "values",
          "type": "bytes[]"
        }
      ],
      "name": "setData",
      "outputs": [],
      "stateMutability": "nonpayable",
      "type": "function"
    },
    {
      "inputs": [
        {
          "internalType": "bytes32",
          "name": "key",
          "type": "bytes32"
        },
        {
          "internalType": "bytes",
          "name": "value",
          "type": "bytes"
        }
      ],
      "name": "setData",
      "outputs": [],
      "stateMutability": "nonpayable",
      "type": "function"
    },
    {
      "inputs": [
        {
          "internalType": "bytes4",
          "name": "interfaceId",
          "type": "bytes4"
        }
      ],
      "name": "supportsInterface",
      "outputs": [
        {
          "internalType": "bool",
          "name": "",
          "type": "bool"
        }
      ],
      "stateMutability": "view",
      "type": "function"
    },
    {
      "inputs": [],
      "name": "symbol",
      "outputs": [
        {
          "internalType": "string",
          "name": "",
          "type": "string"
        }
      ],
      "stateMutability": "view",
      "type": "function"
    },
    {
      "inputs": [],
      "name": "totalSupply",
      "outputs": [
        {
          "internalType": "uint256",
          "name": "",
          "type": "uint256"
        }
      ],
      "stateMutability": "view",
      "type": "function"
    },
    {
      "inputs": [
        {
          "internalType": "address",
          "name": "from",
          "type": "address"
        },
        {
          "internalType": "address",
          "name": "to",
          "type": "address"
        },
        {
          "internalType": "uint256",
          "name": "amount",
          "type": "uint256"
        },
        {
          "internalType": "bool",
          "name": "force",
          "type": "bool"
        },
        {
          "internalType": "bytes",
          "name": "data",
          "type": "bytes"
        }
      ],
      "name": "transfer",
      "outputs": [],
      "stateMutability": "nonpayable",
      "type": "function"
    },
    {
      "inputs": [
        {
          "internalType": "address",
          "name": "to",
          "type": "address"
        },
        {
          "internalType": "uint256",
          "name": "amount",
          "type": "uint256"
        }
      ],
      "name": "transfer",
      "outputs": [],
      "stateMutability": "nonpayable",
      "type": "function"
    },
    {
      "inputs": [
        {
          "internalType": "address[]",
          "name": "from",
          "type": "address[]"
        },
        {
          "internalType": "address[]",
          "name": "to",
          "type": "address[]"
        },
        {
          "internalType": "uint256[]",
          "name": "amount",
          "type": "uint256[]"
        },
        {
          "internalType": "bool",
          "name": "force",
          "type": "bool"
        },
        {
          "internalType": "bytes[]",
          "name": "data",
          "type": "bytes[]"
        }
      ],
      "name": "transferBatch",
      "outputs": [],
      "stateMutability": "nonpayable",
      "type": "function"
    },
    {
      "inputs": [
        {
          "internalType": "address",
          "name": "from",
          "type": "address"
        },
        {
          "internalType": "address",
          "name": "to",
          "type": "address"
        },
        {
          "internalType": "uint256",
          "name": "amount",
          "type": "uint256"
        }
      ],
      "name": "transferFrom",
      "outputs": [],
      "stateMutability": "nonpayable",
      "type": "function"
    },
    {
      "inputs": [
        {
          "internalType": "address",
          "name": "newOwner",
          "type": "address"
        }
      ],
      "name": "transferOwnership",
      "outputs": [],
      "stateMutability": "nonpayable",
      "type": "function"
    }
  ],
  "bytecode": "0x60806040523480156200001157600080fd5b50604051620021f2380380620021f2833981016040819052620000349162000355565b82828260008383838062000053816200014060201b62000a1a1760201c565b50620000aa7feafec4d89fa9619884b60000a4d96624a38f7ac2d8d9a604ecf07c12c77e480c60001b604051806040016040528060048152602001632936598960e21b815250620001a760201b62000a971760201c565b620000e47fdeba1e292f8ba88238e10ab3c7f88bd4be4fac56cad5194b6ecceaf653468af160001b84620001a760201b62000a971760201c565b6200011e7f2f0a68ab07768e01943a599e73362a0e17a63a72e94dd2e384d2c1d4db93275660001b83620001a760201b62000a971760201c565b50506002805460ff191692151592909217909155506200043595505050505050565b6000546001600160a01b03828116911614620001a457600080546001600160a01b038381166001600160a01b0319831681178455604051919092169283917f8be0079c531659141344cd1fd0a4f28419497f9722a3daafe3b4186f6b6457e09190a3505b50565b60008281526001602090815260409091208251620001c892840190620001f8565b5060405182907fcdf4e344c0d23d4cdd0474039d176c55b19d531070dbe17856bfb993a5b5720b90600090a25050565b8280546200020690620003e2565b90600052602060002090601f0160209004810192826200022a576000855562000275565b82601f106200024557805160ff191683800117855562000275565b8280016001018555821562000275579182015b828111156200027557825182559160200191906001019062000258565b506200028392915062000287565b5090565b5b8082111562000283576000815560010162000288565b600082601f830112620002b057600080fd5b81516001600160401b0380821115620002cd57620002cd6200041f565b604051601f8301601f19908116603f01168101908282118183101715620002f857620002f86200041f565b816040528381526020925086838588010111156200031557600080fd5b600091505b838210156200033957858201830151818301840152908201906200031a565b838211156200034b5760008385830101525b9695505050505050565b6000806000606084860312156200036b57600080fd5b83516001600160401b03808211156200038357600080fd5b62000391878388016200029e565b94506020860151915080821115620003a857600080fd5b50620003b7868287016200029e565b604086015190935090506001600160a01b0381168114620003d757600080fd5b809150509250925092565b600181811c90821680620003f757607f821691505b602082108114156200041957634e487b7160e01b600052602260045260246000fd5b50919050565b634e487b7160e01b600052604160045260246000fd5b611dad80620004456000396000f3fe608060405234801561001057600080fd5b50600436106101825760003560e01c8063715018a6116100d8578063a8a34e0a1161008c578063dd62ed3e11610066578063dd62ed3e14610312578063f2fde38b14610325578063fad8b32a1461033857600080fd5b8063a8a34e0a146102d9578063a9059cbb146102ec578063d95b6371146102ff57600080fd5b80637f23690c116100bd5780637f23690c146102a35780638da5cb5b146102b657806395d89b41146102d157600080fd5b8063715018a614610288578063760d9bba1461029057600080fd5b806323b872dd1161013a5780634e3e6e9c116101145780634e3e6e9c1461022c57806354f6127f1461024c57806370a082311461025f57600080fd5b806323b872dd146101fe578063313ce5671461021157806347980aa31461021957600080fd5b8063095ea7b31161016b578063095ea7b3146101c457806314a6e293146101d957806318160ddd146101ec57600080fd5b806301ffc9a71461018757806306fdde03146101af575b600080fd5b61019a610195366004611a1a565b61034b565b60405190151581526020015b60405180910390f35b6101b761038f565b6040516101a69190611bcb565b6101d76101d23660046117d0565b6103bc565b005b6101d76101e7366004611943565b6103ca565b6003545b6040519081526020016101a6565b6101d761020c366004611719565b6104f5565b6101f0610512565b6101d76102273660046117d0565b610531565b61023f61023a366004611906565b61053b565b6040516101a69190611b50565b6101b761025a3660046119c4565b6105ef565b6101f061026d3660046116cb565b6001600160a01b031660009081526004602052604090205490565b6101d76105fa565b6101d761029e366004611755565b610660565b6101d76102b13660046119dd565b61071d565b6000546040516001600160a01b0390911681526020016101a6565b6101b7610781565b6101d76102e73660046117fa565b6107ae565b6101d76102fa3660046117d0565b610894565b6101f061030d3660046116e6565b6108b1565b6101f06103203660046116e6565b610919565b6101d76103333660046116cb565b61092c565b6101d76103463660046116cb565b610a0e565b60006001600160e01b031982167fe33f65c3000000000000000000000000000000000000000000000000000000001480610389575061038982610ae6565b92915050565b606060006103897fdeba1e292f8ba88238e10ab3c7f88bd4be4fac56cad5194b6ecceaf653468af1610b34565b6103c68282610531565b5050565b6000546001600160a01b031633146104295760405162461bcd60e51b815260206004820181905260248201527f4f776e61626c653a2063616c6c6572206973206e6f7420746865206f776e657260448201526064015b60405180910390fd5b80518251146104a05760405162461bcd60e51b815260206004820152602660248201527f4b657973206c656e677468206e6f7420657175616c20746f2076616c7565732060448201527f6c656e67746800000000000000000000000000000000000000000000000000006064820152608401610420565b60005b82518110156104f0576104e88382815181106104c1576104c1611d3d565b60200260200101518383815181106104db576104db611d3d565b6020026020010151610bd6565b6001016104a3565b505050565b6104f0838383600160405180602001604052806000815250610660565b60025460009060ff16610526576012610529565b60005b60ff16905090565b6103c68282610be0565b6060815167ffffffffffffffff81111561055757610557611d53565b60405190808252806020026020018201604052801561058a57816020015b60608152602001906001900390816105755790505b50905060005b82518110156105e9576105bb8382815181106105ae576105ae611d3d565b6020026020010151610b34565b8282815181106105cd576105cd611d3d565b60200260200101819052506105e28160010190565b9050610590565b50919050565b606061038982610b34565b6000546001600160a01b031633146106545760405162461bcd60e51b815260206004820181905260248201527f4f776e61626c653a2063616c6c6572206973206e6f7420746865206f776e65726044820152606401610420565b61065e6000610a1a565b565b336001600160a01b0386168114610708576001600160a01b03808716600090815260056020908152604080832093851683529290522054808511156106f2576040517ff3a6b6910000000000000000000000000000000000000000000000000000000081526001600160a01b038089166004830152602482018390528316604482015260648101869052608401610420565b61070687836107018885611c94565b610c2e565b505b6107158686868686610d46565b505050505050565b6000546001600160a01b031633146107775760405162461bcd60e51b815260206004820181905260248201527f4f776e61626c653a2063616c6c6572206973206e6f7420746865206f776e65726044820152606401610420565b6103c68282610bd6565b606060006103897f2f0a68ab07768e01943a599e73362a0e17a63a72e94dd2e384d2c1d4db932756610b34565b835185511415806107c157508251855114155b806107ce57508051855114155b15610805576040517f263eee8d00000000000000000000000000000000000000000000000000000000815260040160405180910390fd5b60005b85518110156107155761088286828151811061082657610826611d3d565b602002602001015186838151811061084057610840611d3d565b602002602001015186848151811061085a5761085a611d3d565b60200260200101518686868151811061087557610875611d3d565b6020026020010151610660565b8061088c81611d0c565b915050610808565b6103c6338383600160405180602001604052806000815250610660565b6000826001600160a01b0316826001600160a01b031614156108ec57506001600160a01b038116600090815260046020526040902054610389565b506001600160a01b0380821660009081526005602090815260408083209386168352929052205492915050565b600061092582846108b1565b9392505050565b6000546001600160a01b031633146109865760405162461bcd60e51b815260206004820181905260248201527f4f776e61626c653a2063616c6c6572206973206e6f7420746865206f776e65726044820152606401610420565b6001600160a01b038116610a025760405162461bcd60e51b815260206004820152602660248201527f4f776e61626c653a206e6577206f776e657220697320746865207a65726f206160448201527f64647265737300000000000000000000000000000000000000000000000000006064820152608401610420565b610a0b81610a1a565b50565b610a0b33826000610c2e565b6000546001600160a01b03828116911614610a0b57600080546001600160a01b038381167fffffffffffffffffffffffff0000000000000000000000000000000000000000831681178455604051919092169283917f8be0079c531659141344cd1fd0a4f28419497f9722a3daafe3b4186f6b6457e09190a35050565b60008281526001602090815260409091208251610ab69284019061144f565b5060405182907fcdf4e344c0d23d4cdd0474039d176c55b19d531070dbe17856bfb993a5b5720b90600090a25050565b60006001600160e01b031982167f714df77c00000000000000000000000000000000000000000000000000000000148061038957506301ffc9a760e01b6001600160e01b0319831614610389565b6000818152600160205260409020805460609190610b5190611cd7565b80601f0160208091040260200160405190810160405280929190818152602001828054610b7d90611cd7565b8015610bca5780601f10610b9f57610100808354040283529160200191610bca565b820191906000526020600020905b815481529060010190602001808311610bad57829003601f168201915b50505050509050919050565b6103c68282610d5a565b610bea8282610e90565b6040518181526001600160a01b0383169033907f8c5be1e5ebec7d5bd14f71427d1e84f3dd0314c0f7b2291e5b200ac8c7c3b9259060200160405180910390a35050565b6001600160a01b038216610c6e576040517f6355e76600000000000000000000000000000000000000000000000000000000815260040160405180910390fd5b826001600160a01b0316826001600160a01b03161415610c8d57505050565b6001600160a01b0380841660009081526005602090815260408083209386168352929052208190558015610d015780836001600160a01b0316836001600160a01b03167fd66aff874162a96578e919097b6f6d153dfd89a5cec41bb331fdb0c4aec16e2c60405160405180910390a4505050565b826001600160a01b0316826001600160a01b03167f50546e66e5f44d728365dc3908c63bc5cfeeab470722c1677e3073a6ac294aa160405160405180910390a3505050565b610d538585858585610e9b565b5050505050565b7fdeba1e292f8ba88238e10ab3c7f88bd4be4fac56cad5194b6ecceaf653468af1821415610df05760405162461bcd60e51b815260206004820152602d60248201527f4c5350343a2063616e6e6f74206564697420546f6b656e204e616d652061667460448201527f6572206465706c6f796d656e74000000000000000000000000000000000000006064820152608401610420565b7f2f0a68ab07768e01943a599e73362a0e17a63a72e94dd2e384d2c1d4db932756821415610e865760405162461bcd60e51b815260206004820152602f60248201527f4c5350343a2063616e6e6f74206564697420546f6b656e2053796d626f6c206160448201527f66746572206465706c6f796d656e7400000000000000000000000000000000006064820152608401610420565b6103c68282610a97565b6103c6338383610c2e565b610ea88585858585610efc565b836001600160a01b0316856001600160a01b03167fddf252ad1be2c89b69c2b068fc378daa952ba7f163c4a11628f55a4df523b3ef85604051610eed91815260200190565b60405180910390a35050505050565b6001600160a01b0385161580610f1957506001600160a01b038416155b15610f50576040517fd2d5ec3000000000000000000000000000000000000000000000000000000000815260040160405180910390fd5b6001600160a01b03851660009081526004602052604090205480841115610fbc576040517f08d47949000000000000000000000000000000000000000000000000000000008152600481018290526001600160a01b038716602482015260448101859052606401610420565b33610fc887878761109f565b6001600160a01b03871660009081526004602052604081208054879290610ff0908490611c94565b90915550506001600160a01b0386166000908152600460205260408120805487929061101d908490611c7c565b92505081905550856001600160a01b0316876001600160a01b0316826001600160a01b03167f3997e418d2cef0b3b0e907b1e39605c3f7d32dbd061e82ea5b4a770d46a160a688888860405161107593929190611bde565b60405180910390a4611089878787866110ef565b61109687878787876111d8565b50505050505050565b6001600160a01b0383166110c55780600360008282546110bf9190611c7c565b90915550505b6001600160a01b0382166104f05780600360008282546110e59190611c94565b9091555050505050565b61110084631aed5a8560e21b611351565b156111d25760008484848460405160200161111e9493929190611ae7565b60408051601f1981840301815290829052631aed5a8560e21b825291506001600160a01b03861690636bb56a149061117c907f40b8bec57d7b5ff0dbd9e9acd0a47dfeb0101e1a203766f5ccab00445fbf39e9908590600401611bb2565b600060405180830381600087803b15801561119657600080fd5b505af11580156111aa573d6000803e3d6000fd5b505050506040513d6000823e601f3d908101601f191682016040526107159190810190611a44565b50505050565b6111e984631aed5a8560e21b611351565b156112c2576000858585846040516020016112079493929190611ae7565b60408051601f1981840301815290829052631aed5a8560e21b825291506001600160a01b03861690636bb56a1490611265907fdbe2c314e1aee2970c72666f2ebe8933a8575263ea71e5ff6a9178e95d47a26f908590600401611bb2565b600060405180830381600087803b15801561127f57600080fd5b505af1158015611293573d6000803e3d6000fd5b505050506040513d6000823e601f3d908101601f191682016040526112bb9190810190611a44565b5050610d53565b81610d53576001600160a01b0384163b15611314576040517fa608fbb60000000000000000000000000000000000000000000000000000000081526001600160a01b0385166004820152602401610420565b6040517f26c247f40000000000000000000000000000000000000000000000000000000081526001600160a01b0385166004820152602401610420565b604080516001600160e01b0319831660248083019190915282518083039091018152604490910182526020810180517bffffffffffffffffffffffffffffffffffffffffffffffffffffffff166301ffc9a760e01b179052905160009190829081906001600160a01b03871690617530906113cd908690611b34565b6000604051808303818686fa925050503d8060008114611409576040519150601f19603f3d011682016040523d82523d6000602084013e61140e565b606091505b50915091506020815110156114295760009350505050610389565b81801561144557508080602001905181019061144591906119a7565b9695505050505050565b82805461145b90611cd7565b90600052602060002090601f01602090048101928261147d57600085556114c3565b82601f1061149657805160ff19168380011785556114c3565b828001600101855582156114c3579182015b828111156114c35782518255916020019190600101906114a8565b506114cf9291506114d3565b5090565b5b808211156114cf57600081556001016114d4565b80356001600160a01b03811681146114ff57600080fd5b919050565b600082601f83011261151557600080fd5b8135602061152a61152583611c30565b611bff565b80838252828201915082860187848660051b890101111561154a57600080fd5b60005b858110156115705761155e826114e8565b8452928401929084019060010161154d565b5090979650505050505050565b600082601f83011261158e57600080fd5b8135602061159e61152583611c30565b80838252828201915082860187848660051b89010111156115be57600080fd5b60005b85811015611570578135845292840192908401906001016115c1565b600082601f8301126115ee57600080fd5b813560206115fe61152583611c30565b80838252828201915082860187848660051b890101111561161e57600080fd5b6000805b8681101561166157823567ffffffffffffffff811115611640578283fd5b61164e8b88838d010161167a565b8652509385019391850191600101611622565b509198975050505050505050565b80356114ff81611d69565b600082601f83011261168b57600080fd5b813561169961152582611c54565b8181528460208386010111156116ae57600080fd5b816020850160208301376000918101602001919091529392505050565b6000602082840312156116dd57600080fd5b610925826114e8565b600080604083850312156116f957600080fd5b611702836114e8565b9150611710602084016114e8565b90509250929050565b60008060006060848603121561172e57600080fd5b611737846114e8565b9250611745602085016114e8565b9150604084013590509250925092565b600080600080600060a0868803121561176d57600080fd5b611776866114e8565b9450611784602087016114e8565b935060408601359250606086013561179b81611d69565b9150608086013567ffffffffffffffff8111156117b757600080fd5b6117c38882890161167a565b9150509295509295909350565b600080604083850312156117e357600080fd5b6117ec836114e8565b946020939093013593505050565b600080600080600060a0868803121561181257600080fd5b853567ffffffffffffffff8082111561182a57600080fd5b61183689838a01611504565b965060209150818801358181111561184d57600080fd5b6118598a828b01611504565b96505060408801358181111561186e57600080fd5b8801601f81018a1361187f57600080fd5b803561188d61152582611c30565b8082825285820191508584018d878560051b87010111156118ad57600080fd5b600094505b838510156118d05780358352600194909401939186019186016118b2565b5097506118e3925050506060890161166f565b935060808801359150808211156118f957600080fd5b506117c3888289016115dd565b60006020828403121561191857600080fd5b813567ffffffffffffffff81111561192f57600080fd5b61193b8482850161157d565b949350505050565b6000806040838503121561195657600080fd5b823567ffffffffffffffff8082111561196e57600080fd5b61197a8683870161157d565b9350602085013591508082111561199057600080fd5b5061199d858286016115dd565b9150509250929050565b6000602082840312156119b957600080fd5b815161092581611d69565b6000602082840312156119d657600080fd5b5035919050565b600080604083850312156119f057600080fd5b82359150602083013567ffffffffffffffff811115611a0e57600080fd5b61199d8582860161167a565b600060208284031215611a2c57600080fd5b81356001600160e01b03198116811461092557600080fd5b600060208284031215611a5657600080fd5b815167ffffffffffffffff811115611a6d57600080fd5b8201601f81018413611a7e57600080fd5b8051611a8c61152582611c54565b818152856020838501011115611aa157600080fd5b611ab2826020830160208601611cab565b95945050505050565b60008151808452611ad3816020860160208601611cab565b601f01601f19169290920160200192915050565b60006bffffffffffffffffffffffff19808760601b168352808660601b166014840152508360288301528251611b24816048850160208701611cab565b9190910160480195945050505050565b60008251611b46818460208701611cab565b9190910192915050565b6000602080830181845280855180835260408601915060408160051b870101925083870160005b82811015611ba557603f19888603018452611b93858351611abb565b94509285019290850190600101611b77565b5092979650505050505050565b82815260406020820152600061193b6040830184611abb565b6020815260006109256020830184611abb565b8381528215156020820152606060408201526000611ab26060830184611abb565b604051601f8201601f1916810167ffffffffffffffff81118282101715611c2857611c28611d53565b604052919050565b600067ffffffffffffffff821115611c4a57611c4a611d53565b5060051b60200190565b600067ffffffffffffffff821115611c6e57611c6e611d53565b50601f01601f191660200190565b60008219821115611c8f57611c8f611d27565b500190565b600082821015611ca657611ca6611d27565b500390565b60005b83811015611cc6578181015183820152602001611cae565b838111156111d25750506000910152565b600181811c90821680611ceb57607f821691505b602082108114156105e957634e487b7160e01b600052602260045260246000fd5b6000600019821415611d2057611d20611d27565b5060010190565b634e487b7160e01b600052601160045260246000fd5b634e487b7160e01b600052603260045260246000fd5b634e487b7160e01b600052604160045260246000fd5b8015158114610a0b57600080fdfea264697066735822122032e0ec4033c206eec9c9639f9dc5a3c4dd8a03466bfd6edac3f9e8c2a1e41f3064736f6c63430008070033",
  "linkReferences": {},
  "deployedLinkReferences": {}
}