{
  "_format": "hh-sol-artifact-1",
  "contractName": "LSP7MintableInit",
  "sourceName": "contracts/LSP7DigitalAsset/presets/LSP7MintableInit.sol",
  "abi": [
    {
      "inputs": [
        {
          "internalType": "address",
          "name": "tokenOwner",
          "type": "address"
        },
        {
          "internalType": "uint256",
          "name": "authorizedAmount",
          "type": "uint256"
        },
        {
          "internalType": "address",
          "name": "operator",
          "type": "address"
        },
        {
          "internalType": "uint256",
          "name": "amount",
          "type": "uint256"
        }
      ],
      "name": "LSP7AmountExceedsAuthorizedAmount",
      "type": "error"
    },
    {
      "inputs": [
        {
          "internalType": "uint256",
          "name": "balance",
          "type": "uint256"
        },
        {
          "internalType": "address",
          "name": "tokenOwner",
          "type": "address"
        },
        {
          "internalType": "uint256",
          "name": "amount",
          "type": "uint256"
        }
      ],
      "name": "LSP7AmountExceedsBalance",
      "type": "error"
    },
    {
      "inputs": [],
      "name": "LSP7CannotSendWithAddressZero",
      "type": "error"
    },
    {
      "inputs": [],
      "name": "LSP7CannotUseAddressZeroAsOperator",
      "type": "error"
    },
    {
      "inputs": [],
      "name": "LSP7InvalidTransferBatch",
      "type": "error"
    },
    {
      "inputs": [
        {
          "internalType": "address",
          "name": "tokenReceiver",
          "type": "address"
        }
      ],
      "name": "LSP7NotifyTokenReceiverContractMissingLSP1Interface",
      "type": "error"
    },
    {
      "inputs": [
        {
          "internalType": "address",
          "name": "tokenReceiver",
          "type": "address"
        }
      ],
      "name": "LSP7NotifyTokenReceiverIsEOA",
      "type": "error"
    },
    {
      "anonymous": false,
      "inputs": [
        {
          "indexed": true,
          "internalType": "address",
          "name": "operator",
          "type": "address"
        },
        {
          "indexed": true,
          "internalType": "address",
          "name": "tokenOwner",
          "type": "address"
        },
        {
          "indexed": true,
          "internalType": "uint256",
          "name": "amount",
          "type": "uint256"
        }
      ],
      "name": "AuthorizedOperator",
      "type": "event"
    },
    {
      "anonymous": false,
      "inputs": [
        {
          "indexed": true,
          "internalType": "bytes32",
          "name": "key",
          "type": "bytes32"
        }
      ],
      "name": "DataChanged",
      "type": "event"
    },
    {
      "anonymous": false,
      "inputs": [
        {
          "indexed": false,
          "internalType": "uint8",
          "name": "version",
          "type": "uint8"
        }
      ],
      "name": "Initialized",
      "type": "event"
    },
    {
      "anonymous": false,
      "inputs": [
        {
          "indexed": true,
          "internalType": "address",
          "name": "previousOwner",
          "type": "address"
        },
        {
          "indexed": true,
          "internalType": "address",
          "name": "newOwner",
          "type": "address"
        }
      ],
      "name": "OwnershipTransferred",
      "type": "event"
    },
    {
      "anonymous": false,
      "inputs": [
        {
          "indexed": true,
          "internalType": "address",
          "name": "operator",
          "type": "address"
        },
        {
          "indexed": true,
          "internalType": "address",
          "name": "tokenOwner",
          "type": "address"
        }
      ],
      "name": "RevokedOperator",
      "type": "event"
    },
    {
      "anonymous": false,
      "inputs": [
        {
          "indexed": true,
          "internalType": "address",
          "name": "operator",
          "type": "address"
        },
        {
          "indexed": true,
          "internalType": "address",
          "name": "from",
          "type": "address"
        },
        {
          "indexed": true,
          "internalType": "address",
          "name": "to",
          "type": "address"
        },
        {
          "indexed": false,
          "internalType": "uint256",
          "name": "amount",
          "type": "uint256"
        },
        {
          "indexed": false,
          "internalType": "bool",
          "name": "force",
          "type": "bool"
        },
        {
          "indexed": false,
          "internalType": "bytes",
          "name": "data",
          "type": "bytes"
        }
      ],
      "name": "Transfer",
      "type": "event"
    },
    {
      "inputs": [
        {
          "internalType": "address",
          "name": "operator",
          "type": "address"
        },
        {
          "internalType": "uint256",
          "name": "amount",
          "type": "uint256"
        }
      ],
      "name": "authorizeOperator",
      "outputs": [],
      "stateMutability": "nonpayable",
      "type": "function"
    },
    {
      "inputs": [
        {
          "internalType": "address",
          "name": "tokenOwner",
          "type": "address"
        }
      ],
      "name": "balanceOf",
      "outputs": [
        {
          "internalType": "uint256",
          "name": "",
          "type": "uint256"
        }
      ],
      "stateMutability": "view",
      "type": "function"
    },
    {
      "inputs": [],
      "name": "decimals",
      "outputs": [
        {
          "internalType": "uint256",
          "name": "",
          "type": "uint256"
        }
      ],
      "stateMutability": "view",
      "type": "function"
    },
    {
      "inputs": [
        {
          "internalType": "bytes32[]",
          "name": "keys",
          "type": "bytes32[]"
        }
      ],
      "name": "getData",
      "outputs": [
        {
          "internalType": "bytes[]",
          "name": "values",
          "type": "bytes[]"
        }
      ],
      "stateMutability": "view",
      "type": "function"
    },
    {
      "inputs": [
        {
          "internalType": "bytes32",
          "name": "key",
          "type": "bytes32"
        }
      ],
      "name": "getData",
      "outputs": [
        {
          "internalType": "bytes",
          "name": "value",
          "type": "bytes"
        }
      ],
      "stateMutability": "view",
      "type": "function"
    },
    {
      "inputs": [
        {
          "internalType": "string",
          "name": "name_",
          "type": "string"
        },
        {
          "internalType": "string",
          "name": "symbol_",
          "type": "string"
        },
        {
          "internalType": "address",
          "name": "newOwner_",
          "type": "address"
        },
        {
          "internalType": "bool",
          "name": "isNFT_",
          "type": "bool"
        }
      ],
      "name": "initialize",
      "outputs": [],
      "stateMutability": "nonpayable",
      "type": "function"
    },
    {
      "inputs": [],
      "name": "initialized",
      "outputs": [
        {
          "internalType": "uint8",
          "name": "",
          "type": "uint8"
        }
      ],
      "stateMutability": "view",
      "type": "function"
    },
    {
      "inputs": [],
      "name": "initializing",
      "outputs": [
        {
          "internalType": "bool",
          "name": "",
          "type": "bool"
        }
      ],
      "stateMutability": "view",
      "type": "function"
    },
    {
      "inputs": [
        {
          "internalType": "address",
          "name": "operator",
          "type": "address"
        },
        {
          "internalType": "address",
          "name": "tokenOwner",
          "type": "address"
        }
      ],
      "name": "isOperatorFor",
      "outputs": [
        {
          "internalType": "uint256",
          "name": "",
          "type": "uint256"
        }
      ],
      "stateMutability": "view",
      "type": "function"
    },
    {
      "inputs": [
        {
          "internalType": "address",
          "name": "to",
          "type": "address"
        },
        {
          "internalType": "uint256",
          "name": "amount",
          "type": "uint256"
        },
        {
          "internalType": "bool",
          "name": "force",
          "type": "bool"
        },
        {
          "internalType": "bytes",
          "name": "data",
          "type": "bytes"
        }
      ],
      "name": "mint",
      "outputs": [],
      "stateMutability": "nonpayable",
      "type": "function"
    },
    {
      "inputs": [],
      "name": "owner",
      "outputs": [
        {
          "internalType": "address",
          "name": "",
          "type": "address"
        }
      ],
      "stateMutability": "view",
      "type": "function"
    },
    {
      "inputs": [],
      "name": "renounceOwnership",
      "outputs": [],
      "stateMutability": "nonpayable",
      "type": "function"
    },
    {
      "inputs": [
        {
          "internalType": "address",
          "name": "operator",
          "type": "address"
        }
      ],
      "name": "revokeOperator",
      "outputs": [],
      "stateMutability": "nonpayable",
      "type": "function"
    },
    {
      "inputs": [
        {
          "internalType": "bytes32[]",
          "name": "keys",
          "type": "bytes32[]"
        },
        {
          "internalType": "bytes[]",
          "name": "values",
          "type": "bytes[]"
        }
      ],
      "name": "setData",
      "outputs": [],
      "stateMutability": "nonpayable",
      "type": "function"
    },
    {
      "inputs": [
        {
          "internalType": "bytes32",
          "name": "key",
          "type": "bytes32"
        },
        {
          "internalType": "bytes",
          "name": "value",
          "type": "bytes"
        }
      ],
      "name": "setData",
      "outputs": [],
      "stateMutability": "nonpayable",
      "type": "function"
    },
    {
      "inputs": [
        {
          "internalType": "bytes4",
          "name": "interfaceId",
          "type": "bytes4"
        }
      ],
      "name": "supportsInterface",
      "outputs": [
        {
          "internalType": "bool",
          "name": "",
          "type": "bool"
        }
      ],
      "stateMutability": "view",
      "type": "function"
    },
    {
      "inputs": [],
      "name": "totalSupply",
      "outputs": [
        {
          "internalType": "uint256",
          "name": "",
          "type": "uint256"
        }
      ],
      "stateMutability": "view",
      "type": "function"
    },
    {
      "inputs": [
        {
          "internalType": "address",
          "name": "from",
          "type": "address"
        },
        {
          "internalType": "address",
          "name": "to",
          "type": "address"
        },
        {
          "internalType": "uint256",
          "name": "amount",
          "type": "uint256"
        },
        {
          "internalType": "bool",
          "name": "force",
          "type": "bool"
        },
        {
          "internalType": "bytes",
          "name": "data",
          "type": "bytes"
        }
      ],
      "name": "transfer",
      "outputs": [],
      "stateMutability": "nonpayable",
      "type": "function"
    },
    {
      "inputs": [
        {
          "internalType": "address[]",
          "name": "from",
          "type": "address[]"
        },
        {
          "internalType": "address[]",
          "name": "to",
          "type": "address[]"
        },
        {
          "internalType": "uint256[]",
          "name": "amount",
          "type": "uint256[]"
        },
        {
          "internalType": "bool",
          "name": "force",
          "type": "bool"
        },
        {
          "internalType": "bytes[]",
          "name": "data",
          "type": "bytes[]"
        }
      ],
      "name": "transferBatch",
      "outputs": [],
      "stateMutability": "nonpayable",
      "type": "function"
    },
    {
      "inputs": [
        {
          "internalType": "address",
          "name": "newOwner",
          "type": "address"
        }
      ],
      "name": "transferOwnership",
      "outputs": [],
      "stateMutability": "nonpayable",
      "type": "function"
    }
  ],
  "bytecode": "0x608060405234801561001057600080fd5b50612254806100206000396000f3fe608060405234801561001057600080fd5b506004361061016c5760003560e01c806370a08231116100cd5780638da5cb5b11610081578063d95b637111610066578063d95b6371146102fa578063f2fde38b1461030d578063fad8b32a1461032057600080fd5b80638da5cb5b146102bd578063a8a34e0a146102e757600080fd5b80637580d920116100b25780637580d92014610284578063760d9bba146102975780637f23690c146102aa57600080fd5b806370a0823114610253578063715018a61461027c57600080fd5b8063313ce567116101245780634e3e6e9c116101095780634e3e6e9c1461020057806354f6127f146102205780635c108a431461024057600080fd5b8063313ce567146101e557806347980aa3146101ed57600080fd5b8063158ef93e11610155578063158ef93e146101ae57806318160ddd146101c35780632599f159146101d557600080fd5b806301ffc9a71461017157806314a6e29314610199575b600080fd5b61018461017f366004611e3a565b610333565b60405190151581526020015b60405180910390f35b6101ac6101a7366004611d63565b610377565b005b60005460405160ff9091168152602001610190565b6003545b604051908152602001610190565b600054610100900460ff16610184565b6101c76104a9565b6101ac6101fb366004611b86565b6104c8565b61021361020e366004611d26565b6104d7565b6040516101909190611ff7565b61023361022e366004611de4565b61058b565b6040516101909190612072565b6101ac61024e366004611edb565b610596565b6101c7610261366004611ab6565b6001600160a01b031660009081526004602052604090205490565b6101ac610613565b6101ac610292366004611bb0565b610680565b6101ac6102a5366004611b0b565b6106f3565b6101ac6102b8366004611dfd565b6107b0565b6000546201000090046001600160a01b03166040516001600160a01b039091168152602001610190565b6101ac6102f5366004611c1a565b61081b565b6101c7610308366004611ad8565b610901565b6101ac61031b366004611ab6565b610969565b6101ac61032e366004611ab6565b610a52565b60006001600160e01b031982167fe33f65c3000000000000000000000000000000000000000000000000000000001480610371575061037182610a5e565b92915050565b6000546001600160a01b03620100009091041633146103dd5760405162461bcd60e51b815260206004820181905260248201527f4f776e61626c653a2063616c6c6572206973206e6f7420746865206f776e657260448201526064015b60405180910390fd5b80518251146104545760405162461bcd60e51b815260206004820152602660248201527f4b657973206c656e677468206e6f7420657175616c20746f2076616c7565732060448201527f6c656e677468000000000000000000000000000000000000000000000000000060648201526084016103d4565b60005b82518110156104a45761049c838281518110610475576104756121e4565b602002602001015183838151811061048f5761048f6121e4565b6020026020010151610aac565b600101610457565b505050565b60025460009060ff166104bd5760126104c0565b60005b60ff16905090565b6104d3338383610be2565b5050565b6060815167ffffffffffffffff8111156104f3576104f36121fa565b60405190808252806020026020018201604052801561052657816020015b60608152602001906001900390816105115790505b50905060005b82518110156105855761055783828151811061054a5761054a6121e4565b6020026020010151610cfa565b828281518110610569576105696121e4565b602002602001018190525061057e8160010190565b905061052c565b50919050565b606061037182610cfa565b60006105a26001610d9c565b905080156105ba576000805461ff0019166101001790555b6105c685858585610ed5565b801561060c576000805461ff0019169055604051600181527f7f26b83ff96e1f2b6a682f133852f6798a09c465da95921460cefb38474024989060200160405180910390a15b5050505050565b6000546001600160a01b03620100009091041633146106745760405162461bcd60e51b815260206004820181905260248201527f4f776e61626c653a2063616c6c6572206973206e6f7420746865206f776e657260448201526064016103d4565b61067e6000610f4c565b565b6000546001600160a01b03620100009091041633146106e15760405162461bcd60e51b815260206004820181905260248201527f4f776e61626c653a2063616c6c6572206973206e6f7420746865206f776e657260448201526064016103d4565b6106ed84848484610fd8565b50505050565b336001600160a01b038616811461079b576001600160a01b0380871660009081526005602090815260408083209385168352929052205480851115610785576040517ff3a6b6910000000000000000000000000000000000000000000000000000000081526001600160a01b0380891660048301526024820183905283166044820152606481018690526084016103d4565b6107998783610794888561213b565b610be2565b505b6107a886868686866110a3565b505050505050565b6000546001600160a01b03620100009091041633146108115760405162461bcd60e51b815260206004820181905260248201527f4f776e61626c653a2063616c6c6572206973206e6f7420746865206f776e657260448201526064016103d4565b6104d38282610aac565b8351855114158061082e57508251855114155b8061083b57508051855114155b15610872576040517f263eee8d00000000000000000000000000000000000000000000000000000000815260040160405180910390fd5b60005b85518110156107a8576108ef868281518110610893576108936121e4565b60200260200101518683815181106108ad576108ad6121e4565b60200260200101518684815181106108c7576108c76121e4565b6020026020010151868686815181106108e2576108e26121e4565b60200260200101516106f3565b806108f9816121b3565b915050610875565b6000826001600160a01b0316826001600160a01b0316141561093c57506001600160a01b038116600090815260046020526040902054610371565b506001600160a01b0380821660009081526005602090815260408083209386168352929052205492915050565b6000546001600160a01b03620100009091041633146109ca5760405162461bcd60e51b815260206004820181905260248201527f4f776e61626c653a2063616c6c6572206973206e6f7420746865206f776e657260448201526064016103d4565b6001600160a01b038116610a465760405162461bcd60e51b815260206004820152602660248201527f4f776e61626c653a206e6577206f776e657220697320746865207a65726f206160448201527f646472657373000000000000000000000000000000000000000000000000000060648201526084016103d4565b610a4f81610f4c565b50565b610a4f33826000610be2565b60006001600160e01b031982167f714df77c00000000000000000000000000000000000000000000000000000000148061037157506301ffc9a760e01b6001600160e01b0319831614610371565b7fdeba1e292f8ba88238e10ab3c7f88bd4be4fac56cad5194b6ecceaf653468af1821415610b425760405162461bcd60e51b815260206004820152602d60248201527f4c5350343a2063616e6e6f74206564697420546f6b656e204e616d652061667460448201527f6572206465706c6f796d656e740000000000000000000000000000000000000060648201526084016103d4565b7f2f0a68ab07768e01943a599e73362a0e17a63a72e94dd2e384d2c1d4db932756821415610bd85760405162461bcd60e51b815260206004820152602f60248201527f4c5350343a2063616e6e6f74206564697420546f6b656e2053796d626f6c206160448201527f66746572206465706c6f796d656e74000000000000000000000000000000000060648201526084016103d4565b6104d3828261122d565b6001600160a01b038216610c22576040517f6355e76600000000000000000000000000000000000000000000000000000000815260040160405180910390fd5b826001600160a01b0316826001600160a01b03161415610c4157505050565b6001600160a01b0380841660009081526005602090815260408083209386168352929052208190558015610cb55780836001600160a01b0316836001600160a01b03167fd66aff874162a96578e919097b6f6d153dfd89a5cec41bb331fdb0c4aec16e2c60405160405180910390a4505050565b826001600160a01b0316826001600160a01b03167f50546e66e5f44d728365dc3908c63bc5cfeeab470722c1677e3073a6ac294aa160405160405180910390a3505050565b6000818152600160205260409020805460609190610d179061217e565b80601f0160208091040260200160405190810160405280929190818152602001828054610d439061217e565b8015610d905780601f10610d6557610100808354040283529160200191610d90565b820191906000526020600020905b815481529060010190602001808311610d7357829003601f168201915b50505050509050919050565b60008054610100900460ff1615610e39578160ff166001148015610dbf5750303b155b610e315760405162461bcd60e51b815260206004820152602e60248201527f496e697469616c697a61626c653a20636f6e747261637420697320616c72656160448201527f647920696e697469616c697a656400000000000000000000000000000000000060648201526084016103d4565b506000919050565b60005460ff808416911610610eb65760405162461bcd60e51b815260206004820152602e60248201527f496e697469616c697a61626c653a20636f6e747261637420697320616c72656160448201527f647920696e697469616c697a656400000000000000000000000000000000000060648201526084016103d4565b506000805460ff191660ff92909216919091179055600190565b919050565b600054610100900460ff16610f405760405162461bcd60e51b815260206004820152602b60248201527f496e697469616c697a61626c653a20636f6e7472616374206973206e6f74206960448201526a6e697469616c697a696e6760a81b60648201526084016103d4565b6106ed8484848461127c565b6000546001600160a01b03828116620100009092041614610a4f57600080546001600160a01b03838116620100008181027fffffffffffffffffffff0000000000000000000000000000000000000000ffff851617855560405193049190911692909183917f8be0079c531659141344cd1fd0a4f28419497f9722a3daafe3b4186f6b6457e091a35050565b6001600160a01b038416610fff57604051630d2d5ec360e41b815260040160405180910390fd5b3361100c60008686611300565b6001600160a01b03851660009081526004602052604081208054869290611034908490612123565b92505081905550846001600160a01b031660006001600160a01b0316826001600160a01b03167f3997e418d2cef0b3b0e907b1e39605c3f7d32dbd061e82ea5b4a770d46a160a687878760405161108d93929190612085565b60405180910390a461060c600086868686611350565b6001600160a01b03851615806110c057506001600160a01b038416155b156110de57604051630d2d5ec360e41b815260040160405180910390fd5b6001600160a01b0385166000908152600460205260409020548084111561114a576040517f08d47949000000000000000000000000000000000000000000000000000000008152600481018290526001600160a01b0387166024820152604481018590526064016103d4565b33611156878787611300565b6001600160a01b0387166000908152600460205260408120805487929061117e90849061213b565b90915550506001600160a01b038616600090815260046020526040812080548792906111ab908490612123565b92505081905550856001600160a01b0316876001600160a01b0316826001600160a01b03167f3997e418d2cef0b3b0e907b1e39605c3f7d32dbd061e82ea5b4a770d46a160a688888860405161120393929190612085565b60405180910390a4611217878787866114c9565b6112248787878787611350565b50505050505050565b6000828152600160209081526040909120825161124c9284019061183f565b5060405182907fcdf4e344c0d23d4cdd0474039d176c55b19d531070dbe17856bfb993a5b5720b90600090a25050565b600054610100900460ff166112e75760405162461bcd60e51b815260206004820152602b60248201527f496e697469616c697a61626c653a20636f6e7472616374206973206e6f74206960448201526a6e697469616c697a696e6760a81b60648201526084016103d4565b6002805460ff19168215151790556106ed8484846115ac565b6001600160a01b0383166113265780600360008282546113209190612123565b90915550505b6001600160a01b0382166104a4578060036000828254611346919061213b565b9091555050505050565b61136184631aed5a8560e21b6116d6565b1561143a5760008585858460405160200161137f9493929190611f8e565b60408051601f1981840301815290829052631aed5a8560e21b825291506001600160a01b03861690636bb56a14906113dd907fdbe2c314e1aee2970c72666f2ebe8933a8575263ea71e5ff6a9178e95d47a26f908590600401612059565b600060405180830381600087803b1580156113f757600080fd5b505af115801561140b573d6000803e3d6000fd5b505050506040513d6000823e601f3d908101601f191682016040526114339190810190611e64565b505061060c565b8161060c576001600160a01b0384163b1561148c576040517fa608fbb60000000000000000000000000000000000000000000000000000000081526001600160a01b03851660048201526024016103d4565b6040517f26c247f40000000000000000000000000000000000000000000000000000000081526001600160a01b03851660048201526024016103d4565b6114da84631aed5a8560e21b6116d6565b156106ed576000848484846040516020016114f89493929190611f8e565b60408051601f1981840301815290829052631aed5a8560e21b825291506001600160a01b03861690636bb56a1490611556907f40b8bec57d7b5ff0dbd9e9acd0a47dfeb0101e1a203766f5ccab00445fbf39e9908590600401612059565b600060405180830381600087803b15801561157057600080fd5b505af1158015611584573d6000803e3d6000fd5b505050506040513d6000823e601f3d908101601f191682016040526107a89190810190611e64565b600054610100900460ff166116175760405162461bcd60e51b815260206004820152602b60248201527f496e697469616c697a61626c653a20636f6e7472616374206973206e6f74206960448201526a6e697469616c697a696e6760a81b60648201526084016103d4565b611620816117d4565b6116827feafec4d89fa9619884b60000a4d96624a38f7ac2d8d9a604ecf07c12c77e480c60001b6040518060400160405280600481526020017fa4d966240000000000000000000000000000000000000000000000000000000081525061122d565b6116ac7fdeba1e292f8ba88238e10ab3c7f88bd4be4fac56cad5194b6ecceaf653468af18461122d565b6104a47f2f0a68ab07768e01943a599e73362a0e17a63a72e94dd2e384d2c1d4db9327568361122d565b604080516001600160e01b0319831660248083019190915282518083039091018152604490910182526020810180517bffffffffffffffffffffffffffffffffffffffffffffffffffffffff166301ffc9a760e01b179052905160009190829081906001600160a01b0387169061753090611752908690611fdb565b6000604051808303818686fa925050503d806000811461178e576040519150601f19603f3d011682016040523d82523d6000602084013e611793565b606091505b50915091506020815110156117ae5760009350505050610371565b8180156117ca5750808060200190518101906117ca9190611dc7565b9695505050505050565b600054610100900460ff16610a465760405162461bcd60e51b815260206004820152602b60248201527f496e697469616c697a61626c653a20636f6e7472616374206973206e6f74206960448201526a6e697469616c697a696e6760a81b60648201526084016103d4565b82805461184b9061217e565b90600052602060002090601f01602090048101928261186d57600085556118b3565b82601f1061188657805160ff19168380011785556118b3565b828001600101855582156118b3579182015b828111156118b3578251825591602001919060010190611898565b506118bf9291506118c3565b5090565b5b808211156118bf57600081556001016118c4565b80356001600160a01b0381168114610ed057600080fd5b600082601f83011261190057600080fd5b81356020611915611910836120d7565b6120a6565b80838252828201915082860187848660051b890101111561193557600080fd5b60005b8581101561195b57611949826118d8565b84529284019290840190600101611938565b5090979650505050505050565b600082601f83011261197957600080fd5b81356020611989611910836120d7565b80838252828201915082860187848660051b89010111156119a957600080fd5b60005b8581101561195b578135845292840192908401906001016119ac565b600082601f8301126119d957600080fd5b813560206119e9611910836120d7565b80838252828201915082860187848660051b8901011115611a0957600080fd5b6000805b86811015611a4c57823567ffffffffffffffff811115611a2b578283fd5b611a398b88838d0101611a65565b8652509385019391850191600101611a0d565b509198975050505050505050565b8035610ed081612210565b600082601f830112611a7657600080fd5b8135611a84611910826120fb565b818152846020838601011115611a9957600080fd5b816020850160208301376000918101602001919091529392505050565b600060208284031215611ac857600080fd5b611ad1826118d8565b9392505050565b60008060408385031215611aeb57600080fd5b611af4836118d8565b9150611b02602084016118d8565b90509250929050565b600080600080600060a08688031215611b2357600080fd5b611b2c866118d8565b9450611b3a602087016118d8565b9350604086013592506060860135611b5181612210565b9150608086013567ffffffffffffffff811115611b6d57600080fd5b611b7988828901611a65565b9150509295509295909350565b60008060408385031215611b9957600080fd5b611ba2836118d8565b946020939093013593505050565b60008060008060808587031215611bc657600080fd5b611bcf856118d8565b9350602085013592506040850135611be681612210565b9150606085013567ffffffffffffffff811115611c0257600080fd5b611c0e87828801611a65565b91505092959194509250565b600080600080600060a08688031215611c3257600080fd5b853567ffffffffffffffff80821115611c4a57600080fd5b611c5689838a016118ef565b9650602091508188013581811115611c6d57600080fd5b611c798a828b016118ef565b965050604088013581811115611c8e57600080fd5b8801601f81018a13611c9f57600080fd5b8035611cad611910826120d7565b8082825285820191508584018d878560051b8701011115611ccd57600080fd5b600094505b83851015611cf0578035835260019490940193918601918601611cd2565b509750611d039250505060608901611a5a565b93506080880135915080821115611d1957600080fd5b50611b79888289016119c8565b600060208284031215611d3857600080fd5b813567ffffffffffffffff811115611d4f57600080fd5b611d5b84828501611968565b949350505050565b60008060408385031215611d7657600080fd5b823567ffffffffffffffff80821115611d8e57600080fd5b611d9a86838701611968565b93506020850135915080821115611db057600080fd5b50611dbd858286016119c8565b9150509250929050565b600060208284031215611dd957600080fd5b8151611ad181612210565b600060208284031215611df657600080fd5b5035919050565b60008060408385031215611e1057600080fd5b82359150602083013567ffffffffffffffff811115611e2e57600080fd5b611dbd85828601611a65565b600060208284031215611e4c57600080fd5b81356001600160e01b031981168114611ad157600080fd5b600060208284031215611e7657600080fd5b815167ffffffffffffffff811115611e8d57600080fd5b8201601f81018413611e9e57600080fd5b8051611eac611910826120fb565b818152856020838501011115611ec157600080fd5b611ed2826020830160208601612152565b95945050505050565b60008060008060808587031215611ef157600080fd5b843567ffffffffffffffff80821115611f0957600080fd5b611f1588838901611a65565b95506020870135915080821115611f2b57600080fd5b50611f3887828801611a65565b935050611f47604086016118d8565b91506060850135611f5781612210565b939692955090935050565b60008151808452611f7a816020860160208601612152565b601f01601f19169290920160200192915050565b60006bffffffffffffffffffffffff19808760601b168352808660601b166014840152508360288301528251611fcb816048850160208701612152565b9190910160480195945050505050565b60008251611fed818460208701612152565b9190910192915050565b6000602080830181845280855180835260408601915060408160051b870101925083870160005b8281101561204c57603f1988860301845261203a858351611f62565b9450928501929085019060010161201e565b5092979650505050505050565b828152604060208201526000611d5b6040830184611f62565b602081526000611ad16020830184611f62565b8381528215156020820152606060408201526000611ed26060830184611f62565b604051601f8201601f1916810167ffffffffffffffff811182821017156120cf576120cf6121fa565b604052919050565b600067ffffffffffffffff8211156120f1576120f16121fa565b5060051b60200190565b600067ffffffffffffffff821115612115576121156121fa565b50601f01601f191660200190565b60008219821115612136576121366121ce565b500190565b60008282101561214d5761214d6121ce565b500390565b60005b8381101561216d578181015183820152602001612155565b838111156106ed5750506000910152565b600181811c9082168061219257607f821691505b6020821081141561058557634e487b7160e01b600052602260045260246000fd5b60006000198214156121c7576121c76121ce565b5060010190565b634e487b7160e01b600052601160045260246000fd5b634e487b7160e01b600052603260045260246000fd5b634e487b7160e01b600052604160045260246000fd5b8015158114610a4f57600080fdfea26469706673582212206c9422406848892ae9e677d45dbb96f9b08431199941ea590599e0c0ca1b54c064736f6c63430008070033",
  "linkReferences": {},
  "deployedLinkReferences": {}
}