{
  "_format": "hh-sol-artifact-1",
  "contractName": "LSP7DigitalAssetInit",
  "sourceName": "contracts/LSP7DigitalAsset/LSP7DigitalAssetInit.sol",
  "abi": [
    {
      "inputs": [
        {
          "internalType": "address",
          "name": "tokenOwner",
          "type": "address"
        },
        {
          "internalType": "uint256",
          "name": "authorizedAmount",
          "type": "uint256"
        },
        {
          "internalType": "address",
          "name": "operator",
          "type": "address"
        },
        {
          "internalType": "uint256",
          "name": "amount",
          "type": "uint256"
        }
      ],
      "name": "LSP7AmountExceedsAuthorizedAmount",
      "type": "error"
    },
    {
      "inputs": [
        {
          "internalType": "uint256",
          "name": "balance",
          "type": "uint256"
        },
        {
          "internalType": "address",
          "name": "tokenOwner",
          "type": "address"
        },
        {
          "internalType": "uint256",
          "name": "amount",
          "type": "uint256"
        }
      ],
      "name": "LSP7AmountExceedsBalance",
      "type": "error"
    },
    {
      "inputs": [],
      "name": "LSP7CannotSendWithAddressZero",
      "type": "error"
    },
    {
      "inputs": [],
      "name": "LSP7CannotUseAddressZeroAsOperator",
      "type": "error"
    },
    {
      "inputs": [],
      "name": "LSP7InvalidTransferBatch",
      "type": "error"
    },
    {
      "inputs": [
        {
          "internalType": "address",
          "name": "tokenReceiver",
          "type": "address"
        }
      ],
      "name": "LSP7NotifyTokenReceiverContractMissingLSP1Interface",
      "type": "error"
    },
    {
      "inputs": [
        {
          "internalType": "address",
          "name": "tokenReceiver",
          "type": "address"
        }
      ],
      "name": "LSP7NotifyTokenReceiverIsEOA",
      "type": "error"
    },
    {
      "anonymous": false,
      "inputs": [
        {
          "indexed": true,
          "internalType": "address",
          "name": "operator",
          "type": "address"
        },
        {
          "indexed": true,
          "internalType": "address",
          "name": "tokenOwner",
          "type": "address"
        },
        {
          "indexed": true,
          "internalType": "uint256",
          "name": "amount",
          "type": "uint256"
        }
      ],
      "name": "AuthorizedOperator",
      "type": "event"
    },
    {
      "anonymous": false,
      "inputs": [
        {
          "indexed": true,
          "internalType": "bytes32",
          "name": "key",
          "type": "bytes32"
        }
      ],
      "name": "DataChanged",
      "type": "event"
    },
    {
      "anonymous": false,
      "inputs": [
        {
          "indexed": false,
          "internalType": "uint8",
          "name": "version",
          "type": "uint8"
        }
      ],
      "name": "Initialized",
      "type": "event"
    },
    {
      "anonymous": false,
      "inputs": [
        {
          "indexed": true,
          "internalType": "address",
          "name": "previousOwner",
          "type": "address"
        },
        {
          "indexed": true,
          "internalType": "address",
          "name": "newOwner",
          "type": "address"
        }
      ],
      "name": "OwnershipTransferred",
      "type": "event"
    },
    {
      "anonymous": false,
      "inputs": [
        {
          "indexed": true,
          "internalType": "address",
          "name": "operator",
          "type": "address"
        },
        {
          "indexed": true,
          "internalType": "address",
          "name": "tokenOwner",
          "type": "address"
        }
      ],
      "name": "RevokedOperator",
      "type": "event"
    },
    {
      "anonymous": false,
      "inputs": [
        {
          "indexed": true,
          "internalType": "address",
          "name": "operator",
          "type": "address"
        },
        {
          "indexed": true,
          "internalType": "address",
          "name": "from",
          "type": "address"
        },
        {
          "indexed": true,
          "internalType": "address",
          "name": "to",
          "type": "address"
        },
        {
          "indexed": false,
          "internalType": "uint256",
          "name": "amount",
          "type": "uint256"
        },
        {
          "indexed": false,
          "internalType": "bool",
          "name": "force",
          "type": "bool"
        },
        {
          "indexed": false,
          "internalType": "bytes",
          "name": "data",
          "type": "bytes"
        }
      ],
      "name": "Transfer",
      "type": "event"
    },
    {
      "inputs": [
        {
          "internalType": "address",
          "name": "operator",
          "type": "address"
        },
        {
          "internalType": "uint256",
          "name": "amount",
          "type": "uint256"
        }
      ],
      "name": "authorizeOperator",
      "outputs": [],
      "stateMutability": "nonpayable",
      "type": "function"
    },
    {
      "inputs": [
        {
          "internalType": "address",
          "name": "tokenOwner",
          "type": "address"
        }
      ],
      "name": "balanceOf",
      "outputs": [
        {
          "internalType": "uint256",
          "name": "",
          "type": "uint256"
        }
      ],
      "stateMutability": "view",
      "type": "function"
    },
    {
      "inputs": [],
      "name": "decimals",
      "outputs": [
        {
          "internalType": "uint256",
          "name": "",
          "type": "uint256"
        }
      ],
      "stateMutability": "view",
      "type": "function"
    },
    {
      "inputs": [
        {
          "internalType": "bytes32[]",
          "name": "keys",
          "type": "bytes32[]"
        }
      ],
      "name": "getData",
      "outputs": [
        {
          "internalType": "bytes[]",
          "name": "values",
          "type": "bytes[]"
        }
      ],
      "stateMutability": "view",
      "type": "function"
    },
    {
      "inputs": [
        {
          "internalType": "bytes32",
          "name": "key",
          "type": "bytes32"
        }
      ],
      "name": "getData",
      "outputs": [
        {
          "internalType": "bytes",
          "name": "value",
          "type": "bytes"
        }
      ],
      "stateMutability": "view",
      "type": "function"
    },
    {
      "inputs": [
        {
          "internalType": "string",
          "name": "name_",
          "type": "string"
        },
        {
          "internalType": "string",
          "name": "symbol_",
          "type": "string"
        },
        {
          "internalType": "address",
          "name": "newOwner_",
          "type": "address"
        },
        {
          "internalType": "bool",
          "name": "isNFT_",
          "type": "bool"
        }
      ],
      "name": "initialize",
      "outputs": [],
      "stateMutability": "nonpayable",
      "type": "function"
    },
    {
      "inputs": [],
      "name": "initialized",
      "outputs": [
        {
          "internalType": "uint8",
          "name": "",
          "type": "uint8"
        }
      ],
      "stateMutability": "view",
      "type": "function"
    },
    {
      "inputs": [],
      "name": "initializing",
      "outputs": [
        {
          "internalType": "bool",
          "name": "",
          "type": "bool"
        }
      ],
      "stateMutability": "view",
      "type": "function"
    },
    {
      "inputs": [
        {
          "internalType": "address",
          "name": "operator",
          "type": "address"
        },
        {
          "internalType": "address",
          "name": "tokenOwner",
          "type": "address"
        }
      ],
      "name": "isOperatorFor",
      "outputs": [
        {
          "internalType": "uint256",
          "name": "",
          "type": "uint256"
        }
      ],
      "stateMutability": "view",
      "type": "function"
    },
    {
      "inputs": [],
      "name": "owner",
      "outputs": [
        {
          "internalType": "address",
          "name": "",
          "type": "address"
        }
      ],
      "stateMutability": "view",
      "type": "function"
    },
    {
      "inputs": [],
      "name": "renounceOwnership",
      "outputs": [],
      "stateMutability": "nonpayable",
      "type": "function"
    },
    {
      "inputs": [
        {
          "internalType": "address",
          "name": "operator",
          "type": "address"
        }
      ],
      "name": "revokeOperator",
      "outputs": [],
      "stateMutability": "nonpayable",
      "type": "function"
    },
    {
      "inputs": [
        {
          "internalType": "bytes32[]",
          "name": "keys",
          "type": "bytes32[]"
        },
        {
          "internalType": "bytes[]",
          "name": "values",
          "type": "bytes[]"
        }
      ],
      "name": "setData",
      "outputs": [],
      "stateMutability": "nonpayable",
      "type": "function"
    },
    {
      "inputs": [
        {
          "internalType": "bytes32",
          "name": "key",
          "type": "bytes32"
        },
        {
          "internalType": "bytes",
          "name": "value",
          "type": "bytes"
        }
      ],
      "name": "setData",
      "outputs": [],
      "stateMutability": "nonpayable",
      "type": "function"
    },
    {
      "inputs": [
        {
          "internalType": "bytes4",
          "name": "interfaceId",
          "type": "bytes4"
        }
      ],
      "name": "supportsInterface",
      "outputs": [
        {
          "internalType": "bool",
          "name": "",
          "type": "bool"
        }
      ],
      "stateMutability": "view",
      "type": "function"
    },
    {
      "inputs": [],
      "name": "totalSupply",
      "outputs": [
        {
          "internalType": "uint256",
          "name": "",
          "type": "uint256"
        }
      ],
      "stateMutability": "view",
      "type": "function"
    },
    {
      "inputs": [
        {
          "internalType": "address",
          "name": "from",
          "type": "address"
        },
        {
          "internalType": "address",
          "name": "to",
          "type": "address"
        },
        {
          "internalType": "uint256",
          "name": "amount",
          "type": "uint256"
        },
        {
          "internalType": "bool",
          "name": "force",
          "type": "bool"
        },
        {
          "internalType": "bytes",
          "name": "data",
          "type": "bytes"
        }
      ],
      "name": "transfer",
      "outputs": [],
      "stateMutability": "nonpayable",
      "type": "function"
    },
    {
      "inputs": [
        {
          "internalType": "address[]",
          "name": "from",
          "type": "address[]"
        },
        {
          "internalType": "address[]",
          "name": "to",
          "type": "address[]"
        },
        {
          "internalType": "uint256[]",
          "name": "amount",
          "type": "uint256[]"
        },
        {
          "internalType": "bool",
          "name": "force",
          "type": "bool"
        },
        {
          "internalType": "bytes[]",
          "name": "data",
          "type": "bytes[]"
        }
      ],
      "name": "transferBatch",
      "outputs": [],
      "stateMutability": "nonpayable",
      "type": "function"
    },
    {
      "inputs": [
        {
          "internalType": "address",
          "name": "newOwner",
          "type": "address"
        }
      ],
      "name": "transferOwnership",
      "outputs": [],
      "stateMutability": "nonpayable",
      "type": "function"
    }
  ],
  "bytecode": "0x608060405234801561001057600080fd5b50612026806100206000396000f3fe608060405234801561001057600080fd5b50600436106101515760003560e01c80635c108a43116100cd5780638da5cb5b11610081578063d95b637111610066578063d95b6371146102cc578063f2fde38b146102df578063fad8b32a146102f257600080fd5b80638da5cb5b1461028f578063a8a34e0a146102b957600080fd5b8063715018a6116100b2578063715018a614610261578063760d9bba146102695780637f23690c1461027c57600080fd5b80635c108a431461022557806370a082311461023857600080fd5b80632599f1591161012457806347980aa31161010957806347980aa3146101d25780634e3e6e9c146101e557806354f6127f1461020557600080fd5b80632599f159146101ba578063313ce567146101ca57600080fd5b806301ffc9a71461015657806314a6e2931461017e578063158ef93e1461019357806318160ddd146101a8575b600080fd5b610169610164366004611c0c565b610305565b60405190151581526020015b60405180910390f35b61019161018c366004611b35565b610349565b005b60005460405160ff9091168152602001610175565b6003545b604051908152602001610175565b600054610100900460ff16610169565b6101ac61047b565b6101916101e03660046119c2565b61049a565b6101f86101f3366004611af8565b6104a9565b6040516101759190611dc9565b610218610213366004611bb6565b61055d565b6040516101759190611e44565b610191610233366004611cad565b610568565b6101ac6102463660046118f2565b6001600160a01b031660009081526004602052604090205490565b6101916105e5565b610191610277366004611947565b610652565b61019161028a366004611bcf565b61070f565b6000546201000090046001600160a01b03166040516001600160a01b039091168152602001610175565b6101916102c73660046119ec565b61077a565b6101ac6102da366004611914565b610860565b6101916102ed3660046118f2565b6108c8565b6101916103003660046118f2565b6109b1565b60006001600160e01b031982167fe33f65c30000000000000000000000000000000000000000000000000000000014806103435750610343826109bd565b92915050565b6000546001600160a01b03620100009091041633146103af5760405162461bcd60e51b815260206004820181905260248201527f4f776e61626c653a2063616c6c6572206973206e6f7420746865206f776e657260448201526064015b60405180910390fd5b80518251146104265760405162461bcd60e51b815260206004820152602660248201527f4b657973206c656e677468206e6f7420657175616c20746f2076616c7565732060448201527f6c656e677468000000000000000000000000000000000000000000000000000060648201526084016103a6565b60005b82518110156104765761046e83828151811061044757610447611fb6565b602002602001015183838151811061046157610461611fb6565b6020026020010151610a0b565b600101610429565b505050565b60025460009060ff1661048f576012610492565b60005b60ff16905090565b6104a5338383610b41565b5050565b6060815167ffffffffffffffff8111156104c5576104c5611fcc565b6040519080825280602002602001820160405280156104f857816020015b60608152602001906001900390816104e35790505b50905060005b82518110156105575761052983828151811061051c5761051c611fb6565b6020026020010151610c59565b82828151811061053b5761053b611fb6565b60200260200101819052506105508160010190565b90506104fe565b50919050565b606061034382610c59565b60006105746001610cfb565b9050801561058c576000805461ff0019166101001790555b61059885858585610e34565b80156105de576000805461ff0019169055604051600181527f7f26b83ff96e1f2b6a682f133852f6798a09c465da95921460cefb38474024989060200160405180910390a15b5050505050565b6000546001600160a01b03620100009091041633146106465760405162461bcd60e51b815260206004820181905260248201527f4f776e61626c653a2063616c6c6572206973206e6f7420746865206f776e657260448201526064016103a6565b6106506000610ebe565b565b336001600160a01b03861681146106fa576001600160a01b03808716600090815260056020908152604080832093851683529290522054808511156106e4576040517ff3a6b6910000000000000000000000000000000000000000000000000000000081526001600160a01b0380891660048301526024820183905283166044820152606481018690526084016103a6565b6106f887836106f38885611f0d565b610b41565b505b6107078686868686610f4a565b505050505050565b6000546001600160a01b03620100009091041633146107705760405162461bcd60e51b815260206004820181905260248201527f4f776e61626c653a2063616c6c6572206973206e6f7420746865206f776e657260448201526064016103a6565b6104a58282610a0b565b8351855114158061078d57508251855114155b8061079a57508051855114155b156107d1576040517f263eee8d00000000000000000000000000000000000000000000000000000000815260040160405180910390fd5b60005b85518110156107075761084e8682815181106107f2576107f2611fb6565b602002602001015186838151811061080c5761080c611fb6565b602002602001015186848151811061082657610826611fb6565b60200260200101518686868151811061084157610841611fb6565b6020026020010151610652565b8061085881611f85565b9150506107d4565b6000826001600160a01b0316826001600160a01b0316141561089b57506001600160a01b038116600090815260046020526040902054610343565b506001600160a01b0380821660009081526005602090815260408083209386168352929052205492915050565b6000546001600160a01b03620100009091041633146109295760405162461bcd60e51b815260206004820181905260248201527f4f776e61626c653a2063616c6c6572206973206e6f7420746865206f776e657260448201526064016103a6565b6001600160a01b0381166109a55760405162461bcd60e51b815260206004820152602660248201527f4f776e61626c653a206e6577206f776e657220697320746865207a65726f206160448201527f646472657373000000000000000000000000000000000000000000000000000060648201526084016103a6565b6109ae81610ebe565b50565b6109ae33826000610b41565b60006001600160e01b031982167f714df77c00000000000000000000000000000000000000000000000000000000148061034357506301ffc9a760e01b6001600160e01b0319831614610343565b7fdeba1e292f8ba88238e10ab3c7f88bd4be4fac56cad5194b6ecceaf653468af1821415610aa15760405162461bcd60e51b815260206004820152602d60248201527f4c5350343a2063616e6e6f74206564697420546f6b656e204e616d652061667460448201527f6572206465706c6f796d656e740000000000000000000000000000000000000060648201526084016103a6565b7f2f0a68ab07768e01943a599e73362a0e17a63a72e94dd2e384d2c1d4db932756821415610b375760405162461bcd60e51b815260206004820152602f60248201527f4c5350343a2063616e6e6f74206564697420546f6b656e2053796d626f6c206160448201527f66746572206465706c6f796d656e74000000000000000000000000000000000060648201526084016103a6565b6104a582826110ed565b6001600160a01b038216610b81576040517f6355e76600000000000000000000000000000000000000000000000000000000815260040160405180910390fd5b826001600160a01b0316826001600160a01b03161415610ba057505050565b6001600160a01b0380841660009081526005602090815260408083209386168352929052208190558015610c145780836001600160a01b0316836001600160a01b03167fd66aff874162a96578e919097b6f6d153dfd89a5cec41bb331fdb0c4aec16e2c60405160405180910390a4505050565b826001600160a01b0316826001600160a01b03167f50546e66e5f44d728365dc3908c63bc5cfeeab470722c1677e3073a6ac294aa160405160405180910390a3505050565b6000818152600160205260409020805460609190610c7690611f50565b80601f0160208091040260200160405190810160405280929190818152602001828054610ca290611f50565b8015610cef5780601f10610cc457610100808354040283529160200191610cef565b820191906000526020600020905b815481529060010190602001808311610cd257829003601f168201915b50505050509050919050565b60008054610100900460ff1615610d98578160ff166001148015610d1e5750303b155b610d905760405162461bcd60e51b815260206004820152602e60248201527f496e697469616c697a61626c653a20636f6e747261637420697320616c72656160448201527f647920696e697469616c697a656400000000000000000000000000000000000060648201526084016103a6565b506000919050565b60005460ff808416911610610e155760405162461bcd60e51b815260206004820152602e60248201527f496e697469616c697a61626c653a20636f6e747261637420697320616c72656160448201527f647920696e697469616c697a656400000000000000000000000000000000000060648201526084016103a6565b506000805460ff191660ff92909216919091179055600190565b919050565b600054610100900460ff16610e9f5760405162461bcd60e51b815260206004820152602b60248201527f496e697469616c697a61626c653a20636f6e7472616374206973206e6f74206960448201526a6e697469616c697a696e6760a81b60648201526084016103a6565b6002805460ff1916821515179055610eb884848461113c565b50505050565b6000546001600160a01b038281166201000090920416146109ae57600080546001600160a01b03838116620100008181027fffffffffffffffffffff0000000000000000000000000000000000000000ffff851617855560405193049190911692909183917f8be0079c531659141344cd1fd0a4f28419497f9722a3daafe3b4186f6b6457e091a35050565b6001600160a01b0385161580610f6757506001600160a01b038416155b15610f9e576040517fd2d5ec3000000000000000000000000000000000000000000000000000000000815260040160405180910390fd5b6001600160a01b0385166000908152600460205260409020548084111561100a576040517f08d47949000000000000000000000000000000000000000000000000000000008152600481018290526001600160a01b0387166024820152604481018590526064016103a6565b33611016878787611266565b6001600160a01b0387166000908152600460205260408120805487929061103e908490611f0d565b90915550506001600160a01b0386166000908152600460205260408120805487929061106b908490611ef5565b92505081905550856001600160a01b0316876001600160a01b0316826001600160a01b03167f3997e418d2cef0b3b0e907b1e39605c3f7d32dbd061e82ea5b4a770d46a160a68888886040516110c393929190611e57565b60405180910390a46110d7878787866112b6565b6110e48787878787611399565b50505050505050565b6000828152600160209081526040909120825161110c9284019061167b565b5060405182907fcdf4e344c0d23d4cdd0474039d176c55b19d531070dbe17856bfb993a5b5720b90600090a25050565b600054610100900460ff166111a75760405162461bcd60e51b815260206004820152602b60248201527f496e697469616c697a61626c653a20636f6e7472616374206973206e6f74206960448201526a6e697469616c697a696e6760a81b60648201526084016103a6565b6111b081611512565b6112127feafec4d89fa9619884b60000a4d96624a38f7ac2d8d9a604ecf07c12c77e480c60001b6040518060400160405280600481526020017fa4d96624000000000000000000000000000000000000000000000000000000008152506110ed565b61123c7fdeba1e292f8ba88238e10ab3c7f88bd4be4fac56cad5194b6ecceaf653468af1846110ed565b6104767f2f0a68ab07768e01943a599e73362a0e17a63a72e94dd2e384d2c1d4db932756836110ed565b6001600160a01b03831661128c5780600360008282546112869190611ef5565b90915550505b6001600160a01b0382166104765780600360008282546112ac9190611f0d565b9091555050505050565b6112c784631aed5a8560e21b61157d565b15610eb8576000848484846040516020016112e59493929190611d60565b60408051601f1981840301815290829052631aed5a8560e21b825291506001600160a01b03861690636bb56a1490611343907f40b8bec57d7b5ff0dbd9e9acd0a47dfeb0101e1a203766f5ccab00445fbf39e9908590600401611e2b565b600060405180830381600087803b15801561135d57600080fd5b505af1158015611371573d6000803e3d6000fd5b505050506040513d6000823e601f3d908101601f191682016040526107079190810190611c36565b6113aa84631aed5a8560e21b61157d565b15611483576000858585846040516020016113c89493929190611d60565b60408051601f1981840301815290829052631aed5a8560e21b825291506001600160a01b03861690636bb56a1490611426907fdbe2c314e1aee2970c72666f2ebe8933a8575263ea71e5ff6a9178e95d47a26f908590600401611e2b565b600060405180830381600087803b15801561144057600080fd5b505af1158015611454573d6000803e3d6000fd5b505050506040513d6000823e601f3d908101601f1916820160405261147c9190810190611c36565b50506105de565b816105de576001600160a01b0384163b156114d5576040517fa608fbb60000000000000000000000000000000000000000000000000000000081526001600160a01b03851660048201526024016103a6565b6040517f26c247f40000000000000000000000000000000000000000000000000000000081526001600160a01b03851660048201526024016103a6565b600054610100900460ff166109a55760405162461bcd60e51b815260206004820152602b60248201527f496e697469616c697a61626c653a20636f6e7472616374206973206e6f74206960448201526a6e697469616c697a696e6760a81b60648201526084016103a6565b604080516001600160e01b0319831660248083019190915282518083039091018152604490910182526020810180517bffffffffffffffffffffffffffffffffffffffffffffffffffffffff166301ffc9a760e01b179052905160009190829081906001600160a01b03871690617530906115f9908690611dad565b6000604051808303818686fa925050503d8060008114611635576040519150601f19603f3d011682016040523d82523d6000602084013e61163a565b606091505b50915091506020815110156116555760009350505050610343565b8180156116715750808060200190518101906116719190611b99565b9695505050505050565b82805461168790611f50565b90600052602060002090601f0160209004810192826116a957600085556116ef565b82601f106116c257805160ff19168380011785556116ef565b828001600101855582156116ef579182015b828111156116ef5782518255916020019190600101906116d4565b506116fb9291506116ff565b5090565b5b808211156116fb5760008155600101611700565b80356001600160a01b0381168114610e2f57600080fd5b600082601f83011261173c57600080fd5b8135602061175161174c83611ea9565b611e78565b80838252828201915082860187848660051b890101111561177157600080fd5b60005b858110156117975761178582611714565b84529284019290840190600101611774565b5090979650505050505050565b600082601f8301126117b557600080fd5b813560206117c561174c83611ea9565b80838252828201915082860187848660051b89010111156117e557600080fd5b60005b85811015611797578135845292840192908401906001016117e8565b600082601f83011261181557600080fd5b8135602061182561174c83611ea9565b80838252828201915082860187848660051b890101111561184557600080fd5b6000805b8681101561188857823567ffffffffffffffff811115611867578283fd5b6118758b88838d01016118a1565b8652509385019391850191600101611849565b509198975050505050505050565b8035610e2f81611fe2565b600082601f8301126118b257600080fd5b81356118c061174c82611ecd565b8181528460208386010111156118d557600080fd5b816020850160208301376000918101602001919091529392505050565b60006020828403121561190457600080fd5b61190d82611714565b9392505050565b6000806040838503121561192757600080fd5b61193083611714565b915061193e60208401611714565b90509250929050565b600080600080600060a0868803121561195f57600080fd5b61196886611714565b945061197660208701611714565b935060408601359250606086013561198d81611fe2565b9150608086013567ffffffffffffffff8111156119a957600080fd5b6119b5888289016118a1565b9150509295509295909350565b600080604083850312156119d557600080fd5b6119de83611714565b946020939093013593505050565b600080600080600060a08688031215611a0457600080fd5b853567ffffffffffffffff80821115611a1c57600080fd5b611a2889838a0161172b565b9650602091508188013581811115611a3f57600080fd5b611a4b8a828b0161172b565b965050604088013581811115611a6057600080fd5b8801601f81018a13611a7157600080fd5b8035611a7f61174c82611ea9565b8082825285820191508584018d878560051b8701011115611a9f57600080fd5b600094505b83851015611ac2578035835260019490940193918601918601611aa4565b509750611ad59250505060608901611896565b93506080880135915080821115611aeb57600080fd5b506119b588828901611804565b600060208284031215611b0a57600080fd5b813567ffffffffffffffff811115611b2157600080fd5b611b2d848285016117a4565b949350505050565b60008060408385031215611b4857600080fd5b823567ffffffffffffffff80821115611b6057600080fd5b611b6c868387016117a4565b93506020850135915080821115611b8257600080fd5b50611b8f85828601611804565b9150509250929050565b600060208284031215611bab57600080fd5b815161190d81611fe2565b600060208284031215611bc857600080fd5b5035919050565b60008060408385031215611be257600080fd5b82359150602083013567ffffffffffffffff811115611c0057600080fd5b611b8f858286016118a1565b600060208284031215611c1e57600080fd5b81356001600160e01b03198116811461190d57600080fd5b600060208284031215611c4857600080fd5b815167ffffffffffffffff811115611c5f57600080fd5b8201601f81018413611c7057600080fd5b8051611c7e61174c82611ecd565b818152856020838501011115611c9357600080fd5b611ca4826020830160208601611f24565b95945050505050565b60008060008060808587031215611cc357600080fd5b843567ffffffffffffffff80821115611cdb57600080fd5b611ce7888389016118a1565b95506020870135915080821115611cfd57600080fd5b50611d0a878288016118a1565b935050611d1960408601611714565b91506060850135611d2981611fe2565b939692955090935050565b60008151808452611d4c816020860160208601611f24565b601f01601f19169290920160200192915050565b60006bffffffffffffffffffffffff19808760601b168352808660601b166014840152508360288301528251611d9d816048850160208701611f24565b9190910160480195945050505050565b60008251611dbf818460208701611f24565b9190910192915050565b6000602080830181845280855180835260408601915060408160051b870101925083870160005b82811015611e1e57603f19888603018452611e0c858351611d34565b94509285019290850190600101611df0565b5092979650505050505050565b828152604060208201526000611b2d6040830184611d34565b60208152600061190d6020830184611d34565b8381528215156020820152606060408201526000611ca46060830184611d34565b604051601f8201601f1916810167ffffffffffffffff81118282101715611ea157611ea1611fcc565b604052919050565b600067ffffffffffffffff821115611ec357611ec3611fcc565b5060051b60200190565b600067ffffffffffffffff821115611ee757611ee7611fcc565b50601f01601f191660200190565b60008219821115611f0857611f08611fa0565b500190565b600082821015611f1f57611f1f611fa0565b500390565b60005b83811015611f3f578181015183820152602001611f27565b83811115610eb85750506000910152565b600181811c90821680611f6457607f821691505b6020821081141561055757634e487b7160e01b600052602260045260246000fd5b6000600019821415611f9957611f99611fa0565b5060010190565b634e487b7160e01b600052601160045260246000fd5b634e487b7160e01b600052603260045260246000fd5b634e487b7160e01b600052604160045260246000fd5b80151581146109ae57600080fdfea2646970667358221220a8beef7a4cae513b61e6c542692746b5313ebeffb13d67a074d9a521c91e8d6e64736f6c63430008070033",
  "linkReferences": {},
  "deployedLinkReferences": {}
}