{
  "_format": "hh-sol-artifact-1",
  "contractName": "LSP7DigitalAsset",
  "sourceName": "contracts/LSP7DigitalAsset/LSP7DigitalAsset.sol",
  "abi": [
    {
      "inputs": [
        {
          "internalType": "string",
          "name": "name_",
          "type": "string"
        },
        {
          "internalType": "string",
          "name": "symbol_",
          "type": "string"
        },
        {
          "internalType": "address",
          "name": "newOwner_",
          "type": "address"
        },
        {
          "internalType": "bool",
          "name": "isNFT_",
          "type": "bool"
        }
      ],
      "stateMutability": "nonpayable",
      "type": "constructor"
    },
    {
      "inputs": [
        {
          "internalType": "address",
          "name": "tokenOwner",
          "type": "address"
        },
        {
          "internalType": "uint256",
          "name": "authorizedAmount",
          "type": "uint256"
        },
        {
          "internalType": "address",
          "name": "operator",
          "type": "address"
        },
        {
          "internalType": "uint256",
          "name": "amount",
          "type": "uint256"
        }
      ],
      "name": "LSP7AmountExceedsAuthorizedAmount",
      "type": "error"
    },
    {
      "inputs": [
        {
          "internalType": "uint256",
          "name": "balance",
          "type": "uint256"
        },
        {
          "internalType": "address",
          "name": "tokenOwner",
          "type": "address"
        },
        {
          "internalType": "uint256",
          "name": "amount",
          "type": "uint256"
        }
      ],
      "name": "LSP7AmountExceedsBalance",
      "type": "error"
    },
    {
      "inputs": [],
      "name": "LSP7CannotSendWithAddressZero",
      "type": "error"
    },
    {
      "inputs": [],
      "name": "LSP7CannotUseAddressZeroAsOperator",
      "type": "error"
    },
    {
      "inputs": [],
      "name": "LSP7InvalidTransferBatch",
      "type": "error"
    },
    {
      "inputs": [
        {
          "internalType": "address",
          "name": "tokenReceiver",
          "type": "address"
        }
      ],
      "name": "LSP7NotifyTokenReceiverContractMissingLSP1Interface",
      "type": "error"
    },
    {
      "inputs": [
        {
          "internalType": "address",
          "name": "tokenReceiver",
          "type": "address"
        }
      ],
      "name": "LSP7NotifyTokenReceiverIsEOA",
      "type": "error"
    },
    {
      "anonymous": false,
      "inputs": [
        {
          "indexed": true,
          "internalType": "address",
          "name": "operator",
          "type": "address"
        },
        {
          "indexed": true,
          "internalType": "address",
          "name": "tokenOwner",
          "type": "address"
        },
        {
          "indexed": true,
          "internalType": "uint256",
          "name": "amount",
          "type": "uint256"
        }
      ],
      "name": "AuthorizedOperator",
      "type": "event"
    },
    {
      "anonymous": false,
      "inputs": [
        {
          "indexed": true,
          "internalType": "bytes32",
          "name": "key",
          "type": "bytes32"
        }
      ],
      "name": "DataChanged",
      "type": "event"
    },
    {
      "anonymous": false,
      "inputs": [
        {
          "indexed": true,
          "internalType": "address",
          "name": "previousOwner",
          "type": "address"
        },
        {
          "indexed": true,
          "internalType": "address",
          "name": "newOwner",
          "type": "address"
        }
      ],
      "name": "OwnershipTransferred",
      "type": "event"
    },
    {
      "anonymous": false,
      "inputs": [
        {
          "indexed": true,
          "internalType": "address",
          "name": "operator",
          "type": "address"
        },
        {
          "indexed": true,
          "internalType": "address",
          "name": "tokenOwner",
          "type": "address"
        }
      ],
      "name": "RevokedOperator",
      "type": "event"
    },
    {
      "anonymous": false,
      "inputs": [
        {
          "indexed": true,
          "internalType": "address",
          "name": "operator",
          "type": "address"
        },
        {
          "indexed": true,
          "internalType": "address",
          "name": "from",
          "type": "address"
        },
        {
          "indexed": true,
          "internalType": "address",
          "name": "to",
          "type": "address"
        },
        {
          "indexed": false,
          "internalType": "uint256",
          "name": "amount",
          "type": "uint256"
        },
        {
          "indexed": false,
          "internalType": "bool",
          "name": "force",
          "type": "bool"
        },
        {
          "indexed": false,
          "internalType": "bytes",
          "name": "data",
          "type": "bytes"
        }
      ],
      "name": "Transfer",
      "type": "event"
    },
    {
      "inputs": [
        {
          "internalType": "address",
          "name": "operator",
          "type": "address"
        },
        {
          "internalType": "uint256",
          "name": "amount",
          "type": "uint256"
        }
      ],
      "name": "authorizeOperator",
      "outputs": [],
      "stateMutability": "nonpayable",
      "type": "function"
    },
    {
      "inputs": [
        {
          "internalType": "address",
          "name": "tokenOwner",
          "type": "address"
        }
      ],
      "name": "balanceOf",
      "outputs": [
        {
          "internalType": "uint256",
          "name": "",
          "type": "uint256"
        }
      ],
      "stateMutability": "view",
      "type": "function"
    },
    {
      "inputs": [],
      "name": "decimals",
      "outputs": [
        {
          "internalType": "uint256",
          "name": "",
          "type": "uint256"
        }
      ],
      "stateMutability": "view",
      "type": "function"
    },
    {
      "inputs": [
        {
          "internalType": "bytes32[]",
          "name": "keys",
          "type": "bytes32[]"
        }
      ],
      "name": "getData",
      "outputs": [
        {
          "internalType": "bytes[]",
          "name": "values",
          "type": "bytes[]"
        }
      ],
      "stateMutability": "view",
      "type": "function"
    },
    {
      "inputs": [
        {
          "internalType": "bytes32",
          "name": "key",
          "type": "bytes32"
        }
      ],
      "name": "getData",
      "outputs": [
        {
          "internalType": "bytes",
          "name": "value",
          "type": "bytes"
        }
      ],
      "stateMutability": "view",
      "type": "function"
    },
    {
      "inputs": [
        {
          "internalType": "address",
          "name": "operator",
          "type": "address"
        },
        {
          "internalType": "address",
          "name": "tokenOwner",
          "type": "address"
        }
      ],
      "name": "isOperatorFor",
      "outputs": [
        {
          "internalType": "uint256",
          "name": "",
          "type": "uint256"
        }
      ],
      "stateMutability": "view",
      "type": "function"
    },
    {
      "inputs": [],
      "name": "owner",
      "outputs": [
        {
          "internalType": "address",
          "name": "",
          "type": "address"
        }
      ],
      "stateMutability": "view",
      "type": "function"
    },
    {
      "inputs": [],
      "name": "renounceOwnership",
      "outputs": [],
      "stateMutability": "nonpayable",
      "type": "function"
    },
    {
      "inputs": [
        {
          "internalType": "address",
          "name": "operator",
          "type": "address"
        }
      ],
      "name": "revokeOperator",
      "outputs": [],
      "stateMutability": "nonpayable",
      "type": "function"
    },
    {
      "inputs": [
        {
          "internalType": "bytes32[]",
          "name": "keys",
          "type": "bytes32[]"
        },
        {
          "internalType": "bytes[]",
          "name": "values",
          "type": "bytes[]"
        }
      ],
      "name": "setData",
      "outputs": [],
      "stateMutability": "nonpayable",
      "type": "function"
    },
    {
      "inputs": [
        {
          "internalType": "bytes32",
          "name": "key",
          "type": "bytes32"
        },
        {
          "internalType": "bytes",
          "name": "value",
          "type": "bytes"
        }
      ],
      "name": "setData",
      "outputs": [],
      "stateMutability": "nonpayable",
      "type": "function"
    },
    {
      "inputs": [
        {
          "internalType": "bytes4",
          "name": "interfaceId",
          "type": "bytes4"
        }
      ],
      "name": "supportsInterface",
      "outputs": [
        {
          "internalType": "bool",
          "name": "",
          "type": "bool"
        }
      ],
      "stateMutability": "view",
      "type": "function"
    },
    {
      "inputs": [],
      "name": "totalSupply",
      "outputs": [
        {
          "internalType": "uint256",
          "name": "",
          "type": "uint256"
        }
      ],
      "stateMutability": "view",
      "type": "function"
    },
    {
      "inputs": [
        {
          "internalType": "address",
          "name": "from",
          "type": "address"
        },
        {
          "internalType": "address",
          "name": "to",
          "type": "address"
        },
        {
          "internalType": "uint256",
          "name": "amount",
          "type": "uint256"
        },
        {
          "internalType": "bool",
          "name": "force",
          "type": "bool"
        },
        {
          "internalType": "bytes",
          "name": "data",
          "type": "bytes"
        }
      ],
      "name": "transfer",
      "outputs": [],
      "stateMutability": "nonpayable",
      "type": "function"
    },
    {
      "inputs": [
        {
          "internalType": "address[]",
          "name": "from",
          "type": "address[]"
        },
        {
          "internalType": "address[]",
          "name": "to",
          "type": "address[]"
        },
        {
          "internalType": "uint256[]",
          "name": "amount",
          "type": "uint256[]"
        },
        {
          "internalType": "bool",
          "name": "force",
          "type": "bool"
        },
        {
          "internalType": "bytes[]",
          "name": "data",
          "type": "bytes[]"
        }
      ],
      "name": "transferBatch",
      "outputs": [],
      "stateMutability": "nonpayable",
      "type": "function"
    },
    {
      "inputs": [
        {
          "internalType": "address",
          "name": "newOwner",
          "type": "address"
        }
      ],
      "name": "transferOwnership",
      "outputs": [],
      "stateMutability": "nonpayable",
      "type": "function"
    }
  ],
  "bytecode": "0x60806040523480156200001157600080fd5b5060405162001f6e38038062001f6e83398101604081905262000034916200034d565b838383806200004e816200013860201b6200088c1760201c565b50620000a57feafec4d89fa9619884b60000a4d96624a38f7ac2d8d9a604ecf07c12c77e480c60001b604051806040016040528060048152602001632936598960e21b8152506200019f60201b620009091760201c565b620000df7fdeba1e292f8ba88238e10ab3c7f88bd4be4fac56cad5194b6ecceaf653468af160001b846200019f60201b620009091760201c565b620001197f2f0a68ab07768e01943a599e73362a0e17a63a72e94dd2e384d2c1d4db93275660001b836200019f60201b620009091760201c565b50506002805460ff191692151592909217909155506200044592505050565b6000546001600160a01b038281169116146200019c57600080546001600160a01b038381166001600160a01b0319831681178455604051919092169283917f8be0079c531659141344cd1fd0a4f28419497f9722a3daafe3b4186f6b6457e09190a3505b50565b60008281526001602090815260409091208251620001c092840190620001f0565b5060405182907fcdf4e344c0d23d4cdd0474039d176c55b19d531070dbe17856bfb993a5b5720b90600090a25050565b828054620001fe90620003f2565b90600052602060002090601f0160209004810192826200022257600085556200026d565b82601f106200023d57805160ff19168380011785556200026d565b828001600101855582156200026d579182015b828111156200026d57825182559160200191906001019062000250565b506200027b9291506200027f565b5090565b5b808211156200027b576000815560010162000280565b600082601f830112620002a857600080fd5b81516001600160401b0380821115620002c557620002c56200042f565b604051601f8301601f19908116603f01168101908282118183101715620002f057620002f06200042f565b816040528381526020925086838588010111156200030d57600080fd5b600091505b8382101562000331578582018301518183018401529082019062000312565b83821115620003435760008385830101525b9695505050505050565b600080600080608085870312156200036457600080fd5b84516001600160401b03808211156200037c57600080fd5b6200038a8883890162000296565b95506020870151915080821115620003a157600080fd5b50620003b08782880162000296565b604087015190945090506001600160a01b0381168114620003d057600080fd5b60608601519092508015158114620003e757600080fd5b939692955090935050565b600181811c908216806200040757607f821691505b602082108114156200042957634e487b7160e01b600052602260045260246000fd5b50919050565b634e487b7160e01b600052604160045260246000fd5b611b1980620004556000396000f3fe608060405234801561001057600080fd5b50600436106101005760003560e01c8063715018a611610097578063a8a34e0a11610066578063a8a34e0a14610221578063d95b637114610234578063f2fde38b14610247578063fad8b32a1461025a57600080fd5b8063715018a6146101d8578063760d9bba146101e05780637f23690c146101f35780638da5cb5b1461020657600080fd5b806347980aa3116100d357806347980aa31461015c5780634e3e6e9c1461016f57806354f6127f1461018f57806370a08231146101af57600080fd5b806301ffc9a71461010557806314a6e2931461012d57806318160ddd14610142578063313ce56714610154575b600080fd5b610118610113366004611786565b61026d565b60405190151581526020015b60405180910390f35b61014061013b3660046116af565b6102b1565b005b6003545b604051908152602001610124565b6101466103dc565b61014061016a36600461153c565b6103fb565b61018261017d366004611672565b61040a565b60405161012491906118bc565b6101a261019d366004611730565b6104be565b6040516101249190611937565b6101466101bd36600461146c565b6001600160a01b031660009081526004602052604090205490565b6101406104c9565b6101406101ee3660046114c1565b61052f565b610140610201366004611749565b6105ec565b6000546040516001600160a01b039091168152602001610124565b61014061022f366004611566565b610650565b61014661024236600461148e565b610736565b61014061025536600461146c565b61079e565b61014061026836600461146c565b610880565b60006001600160e01b031982167fe33f65c30000000000000000000000000000000000000000000000000000000014806102ab57506102ab82610958565b92915050565b6000546001600160a01b031633146103105760405162461bcd60e51b815260206004820181905260248201527f4f776e61626c653a2063616c6c6572206973206e6f7420746865206f776e657260448201526064015b60405180910390fd5b80518251146103875760405162461bcd60e51b815260206004820152602660248201527f4b657973206c656e677468206e6f7420657175616c20746f2076616c7565732060448201527f6c656e67746800000000000000000000000000000000000000000000000000006064820152608401610307565b60005b82518110156103d7576103cf8382815181106103a8576103a8611aa9565b60200260200101518383815181106103c2576103c2611aa9565b60200260200101516109a6565b60010161038a565b505050565b60025460009060ff166103f05760126103f3565b60005b60ff16905090565b610406338383610adc565b5050565b6060815167ffffffffffffffff81111561042657610426611abf565b60405190808252806020026020018201604052801561045957816020015b60608152602001906001900390816104445790505b50905060005b82518110156104b85761048a83828151811061047d5761047d611aa9565b6020026020010151610bf4565b82828151811061049c5761049c611aa9565b60200260200101819052506104b18160010190565b905061045f565b50919050565b60606102ab82610bf4565b6000546001600160a01b031633146105235760405162461bcd60e51b815260206004820181905260248201527f4f776e61626c653a2063616c6c6572206973206e6f7420746865206f776e65726044820152606401610307565b61052d600061088c565b565b336001600160a01b03861681146105d7576001600160a01b03808716600090815260056020908152604080832093851683529290522054808511156105c1576040517ff3a6b6910000000000000000000000000000000000000000000000000000000081526001600160a01b038089166004830152602482018390528316604482015260648101869052608401610307565b6105d587836105d08885611a00565b610adc565b505b6105e48686868686610c96565b505050505050565b6000546001600160a01b031633146106465760405162461bcd60e51b815260206004820181905260248201527f4f776e61626c653a2063616c6c6572206973206e6f7420746865206f776e65726044820152606401610307565b61040682826109a6565b8351855114158061066357508251855114155b8061067057508051855114155b156106a7576040517f263eee8d00000000000000000000000000000000000000000000000000000000815260040160405180910390fd5b60005b85518110156105e4576107248682815181106106c8576106c8611aa9565b60200260200101518683815181106106e2576106e2611aa9565b60200260200101518684815181106106fc576106fc611aa9565b60200260200101518686868151811061071757610717611aa9565b602002602001015161052f565b8061072e81611a78565b9150506106aa565b6000826001600160a01b0316826001600160a01b0316141561077157506001600160a01b0381166000908152600460205260409020546102ab565b506001600160a01b0380821660009081526005602090815260408083209386168352929052205492915050565b6000546001600160a01b031633146107f85760405162461bcd60e51b815260206004820181905260248201527f4f776e61626c653a2063616c6c6572206973206e6f7420746865206f776e65726044820152606401610307565b6001600160a01b0381166108745760405162461bcd60e51b815260206004820152602660248201527f4f776e61626c653a206e6577206f776e657220697320746865207a65726f206160448201527f64647265737300000000000000000000000000000000000000000000000000006064820152608401610307565b61087d8161088c565b50565b61087d33826000610adc565b6000546001600160a01b0382811691161461087d57600080546001600160a01b038381167fffffffffffffffffffffffff0000000000000000000000000000000000000000831681178455604051919092169283917f8be0079c531659141344cd1fd0a4f28419497f9722a3daafe3b4186f6b6457e09190a35050565b60008281526001602090815260409091208251610928928401906111f0565b5060405182907fcdf4e344c0d23d4cdd0474039d176c55b19d531070dbe17856bfb993a5b5720b90600090a25050565b60006001600160e01b031982167f714df77c0000000000000000000000000000000000000000000000000000000014806102ab57506301ffc9a760e01b6001600160e01b03198316146102ab565b7fdeba1e292f8ba88238e10ab3c7f88bd4be4fac56cad5194b6ecceaf653468af1821415610a3c5760405162461bcd60e51b815260206004820152602d60248201527f4c5350343a2063616e6e6f74206564697420546f6b656e204e616d652061667460448201527f6572206465706c6f796d656e74000000000000000000000000000000000000006064820152608401610307565b7f2f0a68ab07768e01943a599e73362a0e17a63a72e94dd2e384d2c1d4db932756821415610ad25760405162461bcd60e51b815260206004820152602f60248201527f4c5350343a2063616e6e6f74206564697420546f6b656e2053796d626f6c206160448201527f66746572206465706c6f796d656e7400000000000000000000000000000000006064820152608401610307565b6104068282610909565b6001600160a01b038216610b1c576040517f6355e76600000000000000000000000000000000000000000000000000000000815260040160405180910390fd5b826001600160a01b0316826001600160a01b03161415610b3b57505050565b6001600160a01b0380841660009081526005602090815260408083209386168352929052208190558015610baf5780836001600160a01b0316836001600160a01b03167fd66aff874162a96578e919097b6f6d153dfd89a5cec41bb331fdb0c4aec16e2c60405160405180910390a4505050565b826001600160a01b0316826001600160a01b03167f50546e66e5f44d728365dc3908c63bc5cfeeab470722c1677e3073a6ac294aa160405160405180910390a3505050565b6000818152600160205260409020805460609190610c1190611a43565b80601f0160208091040260200160405190810160405280929190818152602001828054610c3d90611a43565b8015610c8a5780601f10610c5f57610100808354040283529160200191610c8a565b820191906000526020600020905b815481529060010190602001808311610c6d57829003601f168201915b50505050509050919050565b6001600160a01b0385161580610cb357506001600160a01b038416155b15610cea576040517fd2d5ec3000000000000000000000000000000000000000000000000000000000815260040160405180910390fd5b6001600160a01b03851660009081526004602052604090205480841115610d56576040517f08d47949000000000000000000000000000000000000000000000000000000008152600481018290526001600160a01b038716602482015260448101859052606401610307565b33610d62878787610e39565b6001600160a01b03871660009081526004602052604081208054879290610d8a908490611a00565b90915550506001600160a01b03861660009081526004602052604081208054879290610db79084906119e8565b92505081905550856001600160a01b0316876001600160a01b0316826001600160a01b03167f3997e418d2cef0b3b0e907b1e39605c3f7d32dbd061e82ea5b4a770d46a160a6888888604051610e0f9392919061194a565b60405180910390a4610e2387878786610e89565b610e308787878787610f72565b50505050505050565b6001600160a01b038316610e5f578060036000828254610e5991906119e8565b90915550505b6001600160a01b0382166103d7578060036000828254610e7f9190611a00565b9091555050505050565b610e9a84631aed5a8560e21b6110f2565b15610f6c57600084848484604051602001610eb89493929190611853565b60408051601f1981840301815290829052631aed5a8560e21b825291506001600160a01b03861690636bb56a1490610f16907f40b8bec57d7b5ff0dbd9e9acd0a47dfeb0101e1a203766f5ccab00445fbf39e990859060040161191e565b600060405180830381600087803b158015610f3057600080fd5b505af1158015610f44573d6000803e3d6000fd5b505050506040513d6000823e601f3d908101601f191682016040526105e491908101906117b0565b50505050565b610f8384631aed5a8560e21b6110f2565b1561105c57600085858584604051602001610fa19493929190611853565b60408051601f1981840301815290829052631aed5a8560e21b825291506001600160a01b03861690636bb56a1490610fff907fdbe2c314e1aee2970c72666f2ebe8933a8575263ea71e5ff6a9178e95d47a26f90859060040161191e565b600060405180830381600087803b15801561101957600080fd5b505af115801561102d573d6000803e3d6000fd5b505050506040513d6000823e601f3d908101601f1916820160405261105591908101906117b0565b50506110eb565b816110eb576001600160a01b0384163b156110ae576040517fa608fbb60000000000000000000000000000000000000000000000000000000081526001600160a01b0385166004820152602401610307565b6040517f26c247f40000000000000000000000000000000000000000000000000000000081526001600160a01b0385166004820152602401610307565b5050505050565b604080516001600160e01b0319831660248083019190915282518083039091018152604490910182526020810180517bffffffffffffffffffffffffffffffffffffffffffffffffffffffff166301ffc9a760e01b179052905160009190829081906001600160a01b038716906175309061116e9086906118a0565b6000604051808303818686fa925050503d80600081146111aa576040519150601f19603f3d011682016040523d82523d6000602084013e6111af565b606091505b50915091506020815110156111ca57600093505050506102ab565b8180156111e65750808060200190518101906111e69190611713565b9695505050505050565b8280546111fc90611a43565b90600052602060002090601f01602090048101928261121e5760008555611264565b82601f1061123757805160ff1916838001178555611264565b82800160010185558215611264579182015b82811115611264578251825591602001919060010190611249565b50611270929150611274565b5090565b5b808211156112705760008155600101611275565b80356001600160a01b03811681146112a057600080fd5b919050565b600082601f8301126112b657600080fd5b813560206112cb6112c68361199c565b61196b565b80838252828201915082860187848660051b89010111156112eb57600080fd5b60005b85811015611311576112ff82611289565b845292840192908401906001016112ee565b5090979650505050505050565b600082601f83011261132f57600080fd5b8135602061133f6112c68361199c565b80838252828201915082860187848660051b890101111561135f57600080fd5b60005b8581101561131157813584529284019290840190600101611362565b600082601f83011261138f57600080fd5b8135602061139f6112c68361199c565b80838252828201915082860187848660051b89010111156113bf57600080fd5b6000805b8681101561140257823567ffffffffffffffff8111156113e1578283fd5b6113ef8b88838d010161141b565b86525093850193918501916001016113c3565b509198975050505050505050565b80356112a081611ad5565b600082601f83011261142c57600080fd5b813561143a6112c6826119c0565b81815284602083860101111561144f57600080fd5b816020850160208301376000918101602001919091529392505050565b60006020828403121561147e57600080fd5b61148782611289565b9392505050565b600080604083850312156114a157600080fd5b6114aa83611289565b91506114b860208401611289565b90509250929050565b600080600080600060a086880312156114d957600080fd5b6114e286611289565b94506114f060208701611289565b935060408601359250606086013561150781611ad5565b9150608086013567ffffffffffffffff81111561152357600080fd5b61152f8882890161141b565b9150509295509295909350565b6000806040838503121561154f57600080fd5b61155883611289565b946020939093013593505050565b600080600080600060a0868803121561157e57600080fd5b853567ffffffffffffffff8082111561159657600080fd5b6115a289838a016112a5565b96506020915081880135818111156115b957600080fd5b6115c58a828b016112a5565b9650506040880135818111156115da57600080fd5b8801601f81018a136115eb57600080fd5b80356115f96112c68261199c565b8082825285820191508584018d878560051b870101111561161957600080fd5b600094505b8385101561163c57803583526001949094019391860191860161161e565b50975061164f9250505060608901611410565b9350608088013591508082111561166557600080fd5b5061152f8882890161137e565b60006020828403121561168457600080fd5b813567ffffffffffffffff81111561169b57600080fd5b6116a78482850161131e565b949350505050565b600080604083850312156116c257600080fd5b823567ffffffffffffffff808211156116da57600080fd5b6116e68683870161131e565b935060208501359150808211156116fc57600080fd5b506117098582860161137e565b9150509250929050565b60006020828403121561172557600080fd5b815161148781611ad5565b60006020828403121561174257600080fd5b5035919050565b6000806040838503121561175c57600080fd5b82359150602083013567ffffffffffffffff81111561177a57600080fd5b6117098582860161141b565b60006020828403121561179857600080fd5b81356001600160e01b03198116811461148757600080fd5b6000602082840312156117c257600080fd5b815167ffffffffffffffff8111156117d957600080fd5b8201601f810184136117ea57600080fd5b80516117f86112c6826119c0565b81815285602083850101111561180d57600080fd5b61181e826020830160208601611a17565b95945050505050565b6000815180845261183f816020860160208601611a17565b601f01601f19169290920160200192915050565b60006bffffffffffffffffffffffff19808760601b168352808660601b166014840152508360288301528251611890816048850160208701611a17565b9190910160480195945050505050565b600082516118b2818460208701611a17565b9190910192915050565b6000602080830181845280855180835260408601915060408160051b870101925083870160005b8281101561191157603f198886030184526118ff858351611827565b945092850192908501906001016118e3565b5092979650505050505050565b8281526040602082015260006116a76040830184611827565b6020815260006114876020830184611827565b838152821515602082015260606040820152600061181e6060830184611827565b604051601f8201601f1916810167ffffffffffffffff8111828210171561199457611994611abf565b604052919050565b600067ffffffffffffffff8211156119b6576119b6611abf565b5060051b60200190565b600067ffffffffffffffff8211156119da576119da611abf565b50601f01601f191660200190565b600082198211156119fb576119fb611a93565b500190565b600082821015611a1257611a12611a93565b500390565b60005b83811015611a32578181015183820152602001611a1a565b83811115610f6c5750506000910152565b600181811c90821680611a5757607f821691505b602082108114156104b857634e487b7160e01b600052602260045260246000fd5b6000600019821415611a8c57611a8c611a93565b5060010190565b634e487b7160e01b600052601160045260246000fd5b634e487b7160e01b600052603260045260246000fd5b634e487b7160e01b600052604160045260246000fd5b801515811461087d57600080fdfea2646970667358221220db75878ee974bd536db3138c2d25b6256e61c755fcf77b1a9dff84da4108e08e64736f6c63430008070033",
  "linkReferences": {},
  "deployedLinkReferences": {}
}