{
  "_format": "hh-sol-artifact-1",
  "contractName": "LSP8IdentifiableDigitalAsset",
  "sourceName": "contracts/LSP8IdentifiableDigitalAsset/LSP8IdentifiableDigitalAsset.sol",
  "abi": [
    {
      "inputs": [
        {
          "internalType": "string",
          "name": "name_",
          "type": "string"
        },
        {
          "internalType": "string",
          "name": "symbol_",
          "type": "string"
        },
        {
          "internalType": "address",
          "name": "newOwner_",
          "type": "address"
        }
      ],
      "stateMutability": "nonpayable",
      "type": "constructor"
    },
    {
      "inputs": [],
      "name": "LSP8CannotSendToAddressZero",
      "type": "error"
    },
    {
      "inputs": [],
      "name": "LSP8CannotUseAddressZeroAsOperator",
      "type": "error"
    },
    {
      "inputs": [],
      "name": "LSP8InvalidTransferBatch",
      "type": "error"
    },
    {
      "inputs": [
        {
          "internalType": "bytes32",
          "name": "tokenId",
          "type": "bytes32"
        }
      ],
      "name": "LSP8NonExistentTokenId",
      "type": "error"
    },
    {
      "inputs": [
        {
          "internalType": "bytes32",
          "name": "tokenId",
          "type": "bytes32"
        },
        {
          "internalType": "address",
          "name": "caller",
          "type": "address"
        }
      ],
      "name": "LSP8NotTokenOperator",
      "type": "error"
    },
    {
      "inputs": [
        {
          "internalType": "address",
          "name": "tokenOwner",
          "type": "address"
        },
        {
          "internalType": "bytes32",
          "name": "tokenId",
          "type": "bytes32"
        },
        {
          "internalType": "address",
          "name": "caller",
          "type": "address"
        }
      ],
      "name": "LSP8NotTokenOwner",
      "type": "error"
    },
    {
      "inputs": [
        {
          "internalType": "address",
          "name": "tokenReceiver",
          "type": "address"
        }
      ],
      "name": "LSP8NotifyTokenReceiverContractMissingLSP1Interface",
      "type": "error"
    },
    {
      "inputs": [
        {
          "internalType": "address",
          "name": "tokenReceiver",
          "type": "address"
        }
      ],
      "name": "LSP8NotifyTokenReceiverIsEOA",
      "type": "error"
    },
    {
      "anonymous": false,
      "inputs": [
        {
          "indexed": true,
          "internalType": "address",
          "name": "operator",
          "type": "address"
        },
        {
          "indexed": true,
          "internalType": "address",
          "name": "tokenOwner",
          "type": "address"
        },
        {
          "indexed": true,
          "internalType": "bytes32",
          "name": "tokenId",
          "type": "bytes32"
        }
      ],
      "name": "AuthorizedOperator",
      "type": "event"
    },
    {
      "anonymous": false,
      "inputs": [
        {
          "indexed": true,
          "internalType": "bytes32",
          "name": "key",
          "type": "bytes32"
        }
      ],
      "name": "DataChanged",
      "type": "event"
    },
    {
      "anonymous": false,
      "inputs": [
        {
          "indexed": true,
          "internalType": "address",
          "name": "previousOwner",
          "type": "address"
        },
        {
          "indexed": true,
          "internalType": "address",
          "name": "newOwner",
          "type": "address"
        }
      ],
      "name": "OwnershipTransferred",
      "type": "event"
    },
    {
      "anonymous": false,
      "inputs": [
        {
          "indexed": true,
          "internalType": "address",
          "name": "operator",
          "type": "address"
        },
        {
          "indexed": true,
          "internalType": "address",
          "name": "tokenOwner",
          "type": "address"
        },
        {
          "indexed": true,
          "internalType": "bytes32",
          "name": "tokenId",
          "type": "bytes32"
        }
      ],
      "name": "RevokedOperator",
      "type": "event"
    },
    {
      "anonymous": false,
      "inputs": [
        {
          "indexed": false,
          "internalType": "address",
          "name": "operator",
          "type": "address"
        },
        {
          "indexed": true,
          "internalType": "address",
          "name": "from",
          "type": "address"
        },
        {
          "indexed": true,
          "internalType": "address",
          "name": "to",
          "type": "address"
        },
        {
          "indexed": true,
          "internalType": "bytes32",
          "name": "tokenId",
          "type": "bytes32"
        },
        {
          "indexed": false,
          "internalType": "bool",
          "name": "force",
          "type": "bool"
        },
        {
          "indexed": false,
          "internalType": "bytes",
          "name": "data",
          "type": "bytes"
        }
      ],
      "name": "Transfer",
      "type": "event"
    },
    {
      "inputs": [
        {
          "internalType": "address",
          "name": "operator",
          "type": "address"
        },
        {
          "internalType": "bytes32",
          "name": "tokenId",
          "type": "bytes32"
        }
      ],
      "name": "authorizeOperator",
      "outputs": [],
      "stateMutability": "nonpayable",
      "type": "function"
    },
    {
      "inputs": [
        {
          "internalType": "address",
          "name": "tokenOwner",
          "type": "address"
        }
      ],
      "name": "balanceOf",
      "outputs": [
        {
          "internalType": "uint256",
          "name": "",
          "type": "uint256"
        }
      ],
      "stateMutability": "view",
      "type": "function"
    },
    {
      "inputs": [
        {
          "internalType": "bytes32[]",
          "name": "keys",
          "type": "bytes32[]"
        }
      ],
      "name": "getData",
      "outputs": [
        {
          "internalType": "bytes[]",
          "name": "values",
          "type": "bytes[]"
        }
      ],
      "stateMutability": "view",
      "type": "function"
    },
    {
      "inputs": [
        {
          "internalType": "bytes32",
          "name": "key",
          "type": "bytes32"
        }
      ],
      "name": "getData",
      "outputs": [
        {
          "internalType": "bytes",
          "name": "value",
          "type": "bytes"
        }
      ],
      "stateMutability": "view",
      "type": "function"
    },
    {
      "inputs": [
        {
          "internalType": "bytes32",
          "name": "tokenId",
          "type": "bytes32"
        }
      ],
      "name": "getOperatorsOf",
      "outputs": [
        {
          "internalType": "address[]",
          "name": "",
          "type": "address[]"
        }
      ],
      "stateMutability": "view",
      "type": "function"
    },
    {
      "inputs": [
        {
          "internalType": "address",
          "name": "operator",
          "type": "address"
        },
        {
          "internalType": "bytes32",
          "name": "tokenId",
          "type": "bytes32"
        }
      ],
      "name": "isOperatorFor",
      "outputs": [
        {
          "internalType": "bool",
          "name": "",
          "type": "bool"
        }
      ],
      "stateMutability": "view",
      "type": "function"
    },
    {
      "inputs": [],
      "name": "owner",
      "outputs": [
        {
          "internalType": "address",
          "name": "",
          "type": "address"
        }
      ],
      "stateMutability": "view",
      "type": "function"
    },
    {
      "inputs": [],
      "name": "renounceOwnership",
      "outputs": [],
      "stateMutability": "nonpayable",
      "type": "function"
    },
    {
      "inputs": [
        {
          "internalType": "address",
          "name": "operator",
          "type": "address"
        },
        {
          "internalType": "bytes32",
          "name": "tokenId",
          "type": "bytes32"
        }
      ],
      "name": "revokeOperator",
      "outputs": [],
      "stateMutability": "nonpayable",
      "type": "function"
    },
    {
      "inputs": [
        {
          "internalType": "bytes32[]",
          "name": "keys",
          "type": "bytes32[]"
        },
        {
          "internalType": "bytes[]",
          "name": "values",
          "type": "bytes[]"
        }
      ],
      "name": "setData",
      "outputs": [],
      "stateMutability": "nonpayable",
      "type": "function"
    },
    {
      "inputs": [
        {
          "internalType": "bytes32",
          "name": "key",
          "type": "bytes32"
        },
        {
          "internalType": "bytes",
          "name": "value",
          "type": "bytes"
        }
      ],
      "name": "setData",
      "outputs": [],
      "stateMutability": "nonpayable",
      "type": "function"
    },
    {
      "inputs": [
        {
          "internalType": "bytes4",
          "name": "interfaceId",
          "type": "bytes4"
        }
      ],
      "name": "supportsInterface",
      "outputs": [
        {
          "internalType": "bool",
          "name": "",
          "type": "bool"
        }
      ],
      "stateMutability": "view",
      "type": "function"
    },
    {
      "inputs": [
        {
          "internalType": "address",
          "name": "tokenOwner",
          "type": "address"
        }
      ],
      "name": "tokenIdsOf",
      "outputs": [
        {
          "internalType": "bytes32[]",
          "name": "",
          "type": "bytes32[]"
        }
      ],
      "stateMutability": "view",
      "type": "function"
    },
    {
      "inputs": [
        {
          "internalType": "bytes32",
          "name": "tokenId",
          "type": "bytes32"
        }
      ],
      "name": "tokenOwnerOf",
      "outputs": [
        {
          "internalType": "address",
          "name": "",
          "type": "address"
        }
      ],
      "stateMutability": "view",
      "type": "function"
    },
    {
      "inputs": [],
      "name": "totalSupply",
      "outputs": [
        {
          "internalType": "uint256",
          "name": "",
          "type": "uint256"
        }
      ],
      "stateMutability": "view",
      "type": "function"
    },
    {
      "inputs": [
        {
          "internalType": "address",
          "name": "from",
          "type": "address"
        },
        {
          "internalType": "address",
          "name": "to",
          "type": "address"
        },
        {
          "internalType": "bytes32",
          "name": "tokenId",
          "type": "bytes32"
        },
        {
          "internalType": "bool",
          "name": "force",
          "type": "bool"
        },
        {
          "internalType": "bytes",
          "name": "data",
          "type": "bytes"
        }
      ],
      "name": "transfer",
      "outputs": [],
      "stateMutability": "nonpayable",
      "type": "function"
    },
    {
      "inputs": [
        {
          "internalType": "address[]",
          "name": "from",
          "type": "address[]"
        },
        {
          "internalType": "address[]",
          "name": "to",
          "type": "address[]"
        },
        {
          "internalType": "bytes32[]",
          "name": "tokenId",
          "type": "bytes32[]"
        },
        {
          "internalType": "bool",
          "name": "force",
          "type": "bool"
        },
        {
          "internalType": "bytes[]",
          "name": "data",
          "type": "bytes[]"
        }
      ],
      "name": "transferBatch",
      "outputs": [],
      "stateMutability": "nonpayable",
      "type": "function"
    },
    {
      "inputs": [
        {
          "internalType": "address",
          "name": "newOwner",
          "type": "address"
        }
      ],
      "name": "transferOwnership",
      "outputs": [],
      "stateMutability": "nonpayable",
      "type": "function"
    }
  ],
  "bytecode": "0x60806040523480156200001157600080fd5b50604051620023783803806200237883398101604081905262000034916200033a565b828282806200004e816200012560201b62000a6f1760201c565b50620000a57feafec4d89fa9619884b60000a4d96624a38f7ac2d8d9a604ecf07c12c77e480c60001b604051806040016040528060048152602001632936598960e21b8152506200018c60201b62000ae11760201c565b620000df7fdeba1e292f8ba88238e10ab3c7f88bd4be4fac56cad5194b6ecceaf653468af160001b846200018c60201b62000ae11760201c565b620001197f2f0a68ab07768e01943a599e73362a0e17a63a72e94dd2e384d2c1d4db93275660001b836200018c60201b62000ae11760201c565b5050505050506200041a565b6000546001600160a01b038281169116146200018957600080546001600160a01b038381166001600160a01b0319831681178455604051919092169283917f8be0079c531659141344cd1fd0a4f28419497f9722a3daafe3b4186f6b6457e09190a3505b50565b60008281526001602090815260409091208251620001ad92840190620001dd565b5060405182907fcdf4e344c0d23d4cdd0474039d176c55b19d531070dbe17856bfb993a5b5720b90600090a25050565b828054620001eb90620003c7565b90600052602060002090601f0160209004810192826200020f57600085556200025a565b82601f106200022a57805160ff19168380011785556200025a565b828001600101855582156200025a579182015b828111156200025a5782518255916020019190600101906200023d565b50620002689291506200026c565b5090565b5b808211156200026857600081556001016200026d565b600082601f8301126200029557600080fd5b81516001600160401b0380821115620002b257620002b262000404565b604051601f8301601f19908116603f01168101908282118183101715620002dd57620002dd62000404565b81604052838152602092508683858801011115620002fa57600080fd5b600091505b838210156200031e5785820183015181830184015290820190620002ff565b83821115620003305760008385830101525b9695505050505050565b6000806000606084860312156200035057600080fd5b83516001600160401b03808211156200036857600080fd5b620003768783880162000283565b945060208601519150808211156200038d57600080fd5b506200039c8682870162000283565b604086015190935090506001600160a01b0381168114620003bc57600080fd5b809150509250925092565b600181811c90821680620003dc57607f821691505b60208210811415620003fe57634e487b7160e01b600052602260045260246000fd5b50919050565b634e487b7160e01b600052604160045260246000fd5b611f4e806200042a6000396000f3fe608060405234801561001057600080fd5b50600436106101365760003560e01c806354f6127f116100b25780637f23690c11610081578063a3b261f211610066578063a3b261f2146102a0578063cf5182ba146102c0578063f2fde38b146102d357600080fd5b80637f23690c1461027c5780638da5cb5b1461028f57600080fd5b806354f6127f1461022e578063559088681461024e57806370a0823114610261578063715018a61461027457600080fd5b8063217b22701161010957806349a6078d116100ee57806349a6078d146101db5780634e3e6e9c146101fb578063511b69521461021b57600080fd5b8063217b22701461019d5780632a3654a4146101c857600080fd5b806301ffc9a71461013b5780630b0c6d821461016357806314a6e2931461017857806318160ddd1461018b575b600080fd5b61014e610149366004611b17565b6102e6565b60405190151581526020015b60405180910390f35b61017661017136600461192c565b61032a565b005b610176610186366004611a40565b6103d8565b6002545b60405190815260200161015a565b6101b06101ab366004611ac1565b6104fe565b6040516001600160a01b03909116815260200161015a565b61014e6101d636600461192c565b610537565b6101ee6101e9366004611ac1565b610553565b60405161015a9190611c77565b61020e610209366004611a0b565b610575565b60405161015a9190611cfc565b6101766102293660046118b1565b610629565b61024161023c366004611ac1565b610691565b60405161015a9190611d77565b61017661025c366004611956565b61069c565b61018f61026f366004611896565b610782565b6101766107a3565b61017661028a366004611ada565b610809565b6000546001600160a01b03166101b0565b6102b36102ae366004611896565b610871565b60405161015a9190611cc4565b6101766102ce36600461192c565b610895565b6101766102e1366004611896565b61098d565b60006001600160e01b031982167f49399145000000000000000000000000000000000000000000000000000000001480610324575061032482610b30565b92915050565b6000610335826104fe565b9050336001600160a01b038216811461038057604051632d938f5160e11b81526001600160a01b03808416600483015260248201859052821660448201526064015b60405180910390fd5b6001600160a01b0384166103a757604051639577b8b360e01b815260040160405180910390fd5b836001600160a01b0316826001600160a01b031614156103c75750505050565b6103d2848385610b7e565b50505050565b6000546001600160a01b031633146104325760405162461bcd60e51b815260206004820181905260248201527f4f776e61626c653a2063616c6c6572206973206e6f7420746865206f776e65726044820152606401610377565b80518251146104a95760405162461bcd60e51b815260206004820152602660248201527f4b657973206c656e677468206e6f7420657175616c20746f2076616c7565732060448201527f6c656e67746800000000000000000000000000000000000000000000000000006064820152608401610377565b60005b82518110156104f9576104f18382815181106104ca576104ca611ede565b60200260200101518383815181106104e4576104e4611ede565b6020026020010151610bdd565b6001016104ac565b505050565b6000818152600360205260408120546001600160a01b03168061032457604051635747cd1b60e11b815260048101849052602401610377565b600061054282610d13565b61054c8383610d4b565b9392505050565b606061055e82610d13565b600082815260056020526040902061032490610d94565b6060815167ffffffffffffffff81111561059157610591611ef4565b6040519080825280602002602001820160405280156105c457816020015b60608152602001906001900390816105af5790505b50905060005b8251811015610623576105f58382815181106105e8576105e8611ede565b6020026020010151610da1565b82828151811061060757610607611ede565b602002602001018190525061061c8160010190565b90506105ca565b50919050565b336106348185610d4b565b61067c576040517f1294d2a9000000000000000000000000000000000000000000000000000000008152600481018590526001600160a01b0382166024820152604401610377565b6106898686868686610e43565b505050505050565b606061032482610da1565b835185511415806106af57508251855114155b806106bc57508051855114155b156106f3576040517f93a8311900000000000000000000000000000000000000000000000000000000815260040160405180910390fd5b60005b85518110156106895761077086828151811061071457610714611ede565b602002602001015186838151811061072e5761072e611ede565b602002602001015186848151811061074857610748611ede565b60200260200101518686868151811061076357610763611ede565b6020026020010151610629565b8061077a81611e97565b9150506106f6565b6001600160a01b038116600090815260046020526040812061032490610fd5565b6000546001600160a01b031633146107fd5760405162461bcd60e51b815260206004820181905260248201527f4f776e61626c653a2063616c6c6572206973206e6f7420746865206f776e65726044820152606401610377565b6108076000610a6f565b565b6000546001600160a01b031633146108635760405162461bcd60e51b815260206004820181905260248201527f4f776e61626c653a2063616c6c6572206973206e6f7420746865206f776e65726044820152606401610377565b61086d8282610bdd565b5050565b6001600160a01b038116600090815260046020526040902060609061032490610fdf565b60006108a0826104fe565b9050336001600160a01b03821681146108e657604051632d938f5160e11b81526001600160a01b0380841660048301526024820185905282166044820152606401610377565b6001600160a01b03841661090d57604051639577b8b360e01b815260040160405180910390fd5b836001600160a01b0316826001600160a01b0316141561092d5750505050565b60008381526005602052604090206109459085610fea565b5082826001600160a01b0316856001600160a01b03167f34b797fc5a526f7bf1d2b5de25f6564fd85ae364e3ee939aee7c1ac27871a98860405160405180910390a450505050565b6000546001600160a01b031633146109e75760405162461bcd60e51b815260206004820181905260248201527f4f776e61626c653a2063616c6c6572206973206e6f7420746865206f776e65726044820152606401610377565b6001600160a01b038116610a635760405162461bcd60e51b815260206004820152602660248201527f4f776e61626c653a206e6577206f776e657220697320746865207a65726f206160448201527f64647265737300000000000000000000000000000000000000000000000000006064820152608401610377565b610a6c81610a6f565b50565b6000546001600160a01b03828116911614610a6c57600080546001600160a01b0383811673ffffffffffffffffffffffffffffffffffffffff19831681178455604051919092169283917f8be0079c531659141344cd1fd0a4f28419497f9722a3daafe3b4186f6b6457e09190a35050565b60008281526001602090815260409091208251610b0092840190611625565b5060405182907fcdf4e344c0d23d4cdd0474039d176c55b19d531070dbe17856bfb993a5b5720b90600090a25050565b60006001600160e01b031982167f714df77c00000000000000000000000000000000000000000000000000000000148061032457506301ffc9a760e01b6001600160e01b0319831614610324565b6000818152600560205260409020610b969084610fff565b5080826001600160a01b0316846001600160a01b03167f17d5389f6ab6adb2647dfa0aa365c323d37adacc30b33a65310b6158ce1373d560405160405180910390a4505050565b7fdeba1e292f8ba88238e10ab3c7f88bd4be4fac56cad5194b6ecceaf653468af1821415610c735760405162461bcd60e51b815260206004820152602d60248201527f4c5350343a2063616e6e6f74206564697420546f6b656e204e616d652061667460448201527f6572206465706c6f796d656e74000000000000000000000000000000000000006064820152608401610377565b7f2f0a68ab07768e01943a599e73362a0e17a63a72e94dd2e384d2c1d4db932756821415610d095760405162461bcd60e51b815260206004820152602f60248201527f4c5350343a2063616e6e6f74206564697420546f6b656e2053796d626f6c206160448201527f66746572206465706c6f796d656e7400000000000000000000000000000000006064820152608401610377565b61086d8282610ae1565b6000818152600360205260409020546001600160a01b0316610a6c57604051635747cd1b60e11b815260048101829052602401610377565b600080610d57836104fe565b9050806001600160a01b0316846001600160a01b03161480610d8c57506000838152600560205260409020610d8c9085611014565b949350505050565b6060600061054c83611036565b6000818152600160205260409020805460609190610dbe90611e62565b80601f0160208091040260200160405190810160405280929190818152602001828054610dea90611e62565b8015610e375780601f10610e0c57610100808354040283529160200191610e37565b820191906000526020600020905b815481529060010190602001808311610e1a57829003601f168201915b50505050509050919050565b6000610e4e846104fe565b9050856001600160a01b0316816001600160a01b031614610e9c57604051632d938f5160e11b81526001600160a01b0380831660048301526024820186905287166044820152606401610377565b6001600160a01b038516610edc576040517f24ecef4d00000000000000000000000000000000000000000000000000000000815260040160405180910390fd5b33610ee8878787611091565b610ef287866110e3565b6001600160a01b0387166000908152600460205260409020610f14908661113b565b506001600160a01b0386166000908152600460205260409020610f379086611147565b5060008581526003602052604090819020805473ffffffffffffffffffffffffffffffffffffffff19166001600160a01b0389811691821790925591518792918a16907fb333c813a7426a7a11e2b190cad52c44119421594b47f6f32ace6d8c7207b2bf90610fab9086908a908a90611c4d565b60405180910390a4610fbf87878786611153565b610fcc8787878787611236565b50505050505050565b6000610324825490565b606061032482611036565b600061054c836001600160a01b0384166113af565b600061054c836001600160a01b0384166113fe565b6001600160a01b0381166000908152600183016020526040812054151561054c565b606081600001805480602002602001604051908101604052809291908181526020018280548015610e3757602002820191906000526020600020905b8154815260200190600101908083116110725750505050509050919050565b6001600160a01b0383166110b8576001600260008282546110b29190611e07565b90915550505b6001600160a01b0382166104f9576001600260008282546110d99190611e1f565b9091555050505050565b6000818152600560205260408120906110fb82610fd5565b905060005b8181101561113457600061111484826114f1565b9050611121818787610b7e565b508061112c81611e97565b915050611100565b5050505050565b600061054c83836113fe565b600061054c83836113af565b61116484631aed5a8560e21b6114fd565b156103d2576000848484846040516020016111829493929190611be4565b60408051601f1981840301815290829052631aed5a8560e21b825291506001600160a01b03861690636bb56a14906111e0907f3724c94f0815e936299cca424da4140752198e0beb7931a6e0925d11bc97544c908590600401611d5e565b600060405180830381600087803b1580156111fa57600080fd5b505af115801561120e573d6000803e3d6000fd5b505050506040513d6000823e601f3d908101601f191682016040526106899190810190611b41565b61124784631aed5a8560e21b6114fd565b15611320576000858585846040516020016112659493929190611be4565b60408051601f1981840301815290829052631aed5a8560e21b825291506001600160a01b03861690636bb56a14906112c3907fc7a120a42b6057a0cbed111fbbfbd52fcd96748c04394f77fc2c3adbe0391e01908590600401611d5e565b600060405180830381600087803b1580156112dd57600080fd5b505af11580156112f1573d6000803e3d6000fd5b505050506040513d6000823e601f3d908101601f191682016040526113199190810190611b41565b5050611134565b81611134576001600160a01b0384163b15611372576040517f4349776d0000000000000000000000000000000000000000000000000000000081526001600160a01b0385166004820152602401610377565b6040517f031731370000000000000000000000000000000000000000000000000000000081526001600160a01b0385166004820152602401610377565b60008181526001830160205260408120546113f657508154600181810184556000848152602080822090930184905584548482528286019093526040902091909155610324565b506000610324565b600081815260018301602052604081205480156114e7576000611422600183611e1f565b855490915060009061143690600190611e1f565b905081811461149b57600086600001828154811061145657611456611ede565b906000526020600020015490508087600001848154811061147957611479611ede565b6000918252602080832090910192909255918252600188019052604090208390555b85548690806114ac576114ac611ec8565b600190038181906000526020600020016000905590558560010160008681526020019081526020016000206000905560019350505050610324565b6000915050610324565b600061054c83836115fb565b604080516001600160e01b0319831660248083019190915282518083039091018152604490910182526020810180517bffffffffffffffffffffffffffffffffffffffffffffffffffffffff166301ffc9a760e01b179052905160009190829081906001600160a01b0387169061753090611579908690611c31565b6000604051808303818686fa925050503d80600081146115b5576040519150601f19603f3d011682016040523d82523d6000602084013e6115ba565b606091505b50915091506020815110156115d55760009350505050610324565b8180156115f15750808060200190518101906115f19190611aa4565b9695505050505050565b600082600001828154811061161257611612611ede565b9060005260206000200154905092915050565b82805461163190611e62565b90600052602060002090601f0160209004810192826116535760008555611699565b82601f1061166c57805160ff1916838001178555611699565b82800160010185558215611699579182015b8281111561169957825182559160200191906001019061167e565b506116a59291506116a9565b5090565b5b808211156116a557600081556001016116aa565b80356001600160a01b03811681146116d557600080fd5b919050565b600082601f8301126116eb57600080fd5b813560206117006116fb83611dbb565b611d8a565b80838252828201915082860187848660051b890101111561172057600080fd5b60005b8581101561174657611734826116be565b84529284019290840190600101611723565b5090979650505050505050565b600082601f83011261176457600080fd5b813560206117746116fb83611dbb565b80838252828201915082860187848660051b890101111561179457600080fd5b60005b8581101561174657813584529284019290840190600101611797565b600082601f8301126117c457600080fd5b813560206117d46116fb83611dbb565b80838252828201915082860187848660051b89010111156117f457600080fd5b6000805b8681101561183757823567ffffffffffffffff811115611816578283fd5b6118248b88838d0101611845565b86525093850193918501916001016117f8565b509198975050505050505050565b600082601f83011261185657600080fd5b81356118646116fb82611ddf565b81815284602083860101111561187957600080fd5b816020850160208301376000918101602001919091529392505050565b6000602082840312156118a857600080fd5b61054c826116be565b600080600080600060a086880312156118c957600080fd5b6118d2866116be565b94506118e0602087016116be565b93506040860135925060608601356118f781611f0a565b9150608086013567ffffffffffffffff81111561191357600080fd5b61191f88828901611845565b9150509295509295909350565b6000806040838503121561193f57600080fd5b611948836116be565b946020939093013593505050565b600080600080600060a0868803121561196e57600080fd5b853567ffffffffffffffff8082111561198657600080fd5b61199289838a016116da565b965060208801359150808211156119a857600080fd5b6119b489838a016116da565b955060408801359150808211156119ca57600080fd5b6119d689838a01611753565b9450606088013591506119e882611f0a565b909250608087013590808211156119fe57600080fd5b5061191f888289016117b3565b600060208284031215611a1d57600080fd5b813567ffffffffffffffff811115611a3457600080fd5b610d8c84828501611753565b60008060408385031215611a5357600080fd5b823567ffffffffffffffff80821115611a6b57600080fd5b611a7786838701611753565b93506020850135915080821115611a8d57600080fd5b50611a9a858286016117b3565b9150509250929050565b600060208284031215611ab657600080fd5b815161054c81611f0a565b600060208284031215611ad357600080fd5b5035919050565b60008060408385031215611aed57600080fd5b82359150602083013567ffffffffffffffff811115611b0b57600080fd5b611a9a85828601611845565b600060208284031215611b2957600080fd5b81356001600160e01b03198116811461054c57600080fd5b600060208284031215611b5357600080fd5b815167ffffffffffffffff811115611b6a57600080fd5b8201601f81018413611b7b57600080fd5b8051611b896116fb82611ddf565b818152856020838501011115611b9e57600080fd5b611baf826020830160208601611e36565b95945050505050565b60008151808452611bd0816020860160208601611e36565b601f01601f19169290920160200192915050565b60006bffffffffffffffffffffffff19808760601b168352808660601b166014840152508360288301528251611c21816048850160208701611e36565b9190910160480195945050505050565b60008251611c43818460208701611e36565b9190910192915050565b6001600160a01b03841681528215156020820152606060408201526000611baf6060830184611bb8565b6020808252825182820181905260009190848201906040850190845b81811015611cb85783516001600160a01b031683529284019291840191600101611c93565b50909695505050505050565b6020808252825182820181905260009190848201906040850190845b81811015611cb857835183529284019291840191600101611ce0565b6000602080830181845280855180835260408601915060408160051b870101925083870160005b82811015611d5157603f19888603018452611d3f858351611bb8565b94509285019290850190600101611d23565b5092979650505050505050565b828152604060208201526000610d8c6040830184611bb8565b60208152600061054c6020830184611bb8565b604051601f8201601f1916810167ffffffffffffffff81118282101715611db357611db3611ef4565b604052919050565b600067ffffffffffffffff821115611dd557611dd5611ef4565b5060051b60200190565b600067ffffffffffffffff821115611df957611df9611ef4565b50601f01601f191660200190565b60008219821115611e1a57611e1a611eb2565b500190565b600082821015611e3157611e31611eb2565b500390565b60005b83811015611e51578181015183820152602001611e39565b838111156103d25750506000910152565b600181811c90821680611e7657607f821691505b6020821081141561062357634e487b7160e01b600052602260045260246000fd5b6000600019821415611eab57611eab611eb2565b5060010190565b634e487b7160e01b600052601160045260246000fd5b634e487b7160e01b600052603160045260246000fd5b634e487b7160e01b600052603260045260246000fd5b634e487b7160e01b600052604160045260246000fd5b8015158114610a6c57600080fdfea2646970667358221220d3163ce38fab42a45d1f19b29ac546fa8cb23fca50c0044a24d4857ca3191bf964736f6c63430008070033",
  "linkReferences": {},
  "deployedLinkReferences": {}
}