{
  "_format": "hh-sol-artifact-1",
  "contractName": "LSP8CompatibilityForERC721",
  "sourceName": "contracts/LSP8IdentifiableDigitalAsset/extensions/LSP8CompatibilityForERC721.sol",
  "abi": [
    {
      "inputs": [
        {
          "internalType": "string",
          "name": "name_",
          "type": "string"
        },
        {
          "internalType": "string",
          "name": "symbol_",
          "type": "string"
        },
        {
          "internalType": "address",
          "name": "newOwner_",
          "type": "address"
        }
      ],
      "stateMutability": "nonpayable",
      "type": "constructor"
    },
    {
      "inputs": [],
      "name": "LSP8CannotSendToAddressZero",
      "type": "error"
    },
    {
      "inputs": [],
      "name": "LSP8CannotUseAddressZeroAsOperator",
      "type": "error"
    },
    {
      "inputs": [],
      "name": "LSP8InvalidTransferBatch",
      "type": "error"
    },
    {
      "inputs": [
        {
          "internalType": "bytes32",
          "name": "tokenId",
          "type": "bytes32"
        }
      ],
      "name": "LSP8NonExistentTokenId",
      "type": "error"
    },
    {
      "inputs": [
        {
          "internalType": "bytes32",
          "name": "tokenId",
          "type": "bytes32"
        },
        {
          "internalType": "address",
          "name": "caller",
          "type": "address"
        }
      ],
      "name": "LSP8NotTokenOperator",
      "type": "error"
    },
    {
      "inputs": [
        {
          "internalType": "address",
          "name": "tokenOwner",
          "type": "address"
        },
        {
          "internalType": "bytes32",
          "name": "tokenId",
          "type": "bytes32"
        },
        {
          "internalType": "address",
          "name": "caller",
          "type": "address"
        }
      ],
      "name": "LSP8NotTokenOwner",
      "type": "error"
    },
    {
      "inputs": [
        {
          "internalType": "address",
          "name": "tokenReceiver",
          "type": "address"
        }
      ],
      "name": "LSP8NotifyTokenReceiverContractMissingLSP1Interface",
      "type": "error"
    },
    {
      "inputs": [
        {
          "internalType": "address",
          "name": "tokenReceiver",
          "type": "address"
        }
      ],
      "name": "LSP8NotifyTokenReceiverIsEOA",
      "type": "error"
    },
    {
      "anonymous": false,
      "inputs": [
        {
          "indexed": true,
          "internalType": "address",
          "name": "owner",
          "type": "address"
        },
        {
          "indexed": true,
          "internalType": "address",
          "name": "approved",
          "type": "address"
        },
        {
          "indexed": true,
          "internalType": "uint256",
          "name": "tokenId",
          "type": "uint256"
        }
      ],
      "name": "Approval",
      "type": "event"
    },
    {
      "anonymous": false,
      "inputs": [
        {
          "indexed": true,
          "internalType": "address",
          "name": "operator",
          "type": "address"
        },
        {
          "indexed": true,
          "internalType": "address",
          "name": "tokenOwner",
          "type": "address"
        },
        {
          "indexed": true,
          "internalType": "bytes32",
          "name": "tokenId",
          "type": "bytes32"
        }
      ],
      "name": "AuthorizedOperator",
      "type": "event"
    },
    {
      "anonymous": false,
      "inputs": [
        {
          "indexed": true,
          "internalType": "bytes32",
          "name": "key",
          "type": "bytes32"
        }
      ],
      "name": "DataChanged",
      "type": "event"
    },
    {
      "anonymous": false,
      "inputs": [
        {
          "indexed": true,
          "internalType": "address",
          "name": "previousOwner",
          "type": "address"
        },
        {
          "indexed": true,
          "internalType": "address",
          "name": "newOwner",
          "type": "address"
        }
      ],
      "name": "OwnershipTransferred",
      "type": "event"
    },
    {
      "anonymous": false,
      "inputs": [
        {
          "indexed": true,
          "internalType": "address",
          "name": "operator",
          "type": "address"
        },
        {
          "indexed": true,
          "internalType": "address",
          "name": "tokenOwner",
          "type": "address"
        },
        {
          "indexed": true,
          "internalType": "bytes32",
          "name": "tokenId",
          "type": "bytes32"
        }
      ],
      "name": "RevokedOperator",
      "type": "event"
    },
    {
      "anonymous": false,
      "inputs": [
        {
          "indexed": true,
          "internalType": "address",
          "name": "from",
          "type": "address"
        },
        {
          "indexed": true,
          "internalType": "address",
          "name": "to",
          "type": "address"
        },
        {
          "indexed": true,
          "internalType": "uint256",
          "name": "tokenId",
          "type": "uint256"
        }
      ],
      "name": "Transfer",
      "type": "event"
    },
    {
      "anonymous": false,
      "inputs": [
        {
          "indexed": false,
          "internalType": "address",
          "name": "operator",
          "type": "address"
        },
        {
          "indexed": true,
          "internalType": "address",
          "name": "from",
          "type": "address"
        },
        {
          "indexed": true,
          "internalType": "address",
          "name": "to",
          "type": "address"
        },
        {
          "indexed": true,
          "internalType": "bytes32",
          "name": "tokenId",
          "type": "bytes32"
        },
        {
          "indexed": false,
          "internalType": "bool",
          "name": "force",
          "type": "bool"
        },
        {
          "indexed": false,
          "internalType": "bytes",
          "name": "data",
          "type": "bytes"
        }
      ],
      "name": "Transfer",
      "type": "event"
    },
    {
      "inputs": [
        {
          "internalType": "address",
          "name": "operator",
          "type": "address"
        },
        {
          "internalType": "uint256",
          "name": "tokenId",
          "type": "uint256"
        }
      ],
      "name": "approve",
      "outputs": [],
      "stateMutability": "nonpayable",
      "type": "function"
    },
    {
      "inputs": [
        {
          "internalType": "address",
          "name": "operator",
          "type": "address"
        },
        {
          "internalType": "bytes32",
          "name": "tokenId",
          "type": "bytes32"
        }
      ],
      "name": "authorizeOperator",
      "outputs": [],
      "stateMutability": "nonpayable",
      "type": "function"
    },
    {
      "inputs": [
        {
          "internalType": "address",
          "name": "tokenOwner",
          "type": "address"
        }
      ],
      "name": "balanceOf",
      "outputs": [
        {
          "internalType": "uint256",
          "name": "",
          "type": "uint256"
        }
      ],
      "stateMutability": "view",
      "type": "function"
    },
    {
      "inputs": [
        {
          "internalType": "uint256",
          "name": "tokenId",
          "type": "uint256"
        }
      ],
      "name": "getApproved",
      "outputs": [
        {
          "internalType": "address",
          "name": "",
          "type": "address"
        }
      ],
      "stateMutability": "view",
      "type": "function"
    },
    {
      "inputs": [
        {
          "internalType": "bytes32[]",
          "name": "keys",
          "type": "bytes32[]"
        }
      ],
      "name": "getData",
      "outputs": [
        {
          "internalType": "bytes[]",
          "name": "values",
          "type": "bytes[]"
        }
      ],
      "stateMutability": "view",
      "type": "function"
    },
    {
      "inputs": [
        {
          "internalType": "bytes32",
          "name": "key",
          "type": "bytes32"
        }
      ],
      "name": "getData",
      "outputs": [
        {
          "internalType": "bytes",
          "name": "value",
          "type": "bytes"
        }
      ],
      "stateMutability": "view",
      "type": "function"
    },
    {
      "inputs": [
        {
          "internalType": "bytes32",
          "name": "tokenId",
          "type": "bytes32"
        }
      ],
      "name": "getOperatorsOf",
      "outputs": [
        {
          "internalType": "address[]",
          "name": "",
          "type": "address[]"
        }
      ],
      "stateMutability": "view",
      "type": "function"
    },
    {
      "inputs": [
        {
          "internalType": "address",
          "name": "tokenOwner",
          "type": "address"
        },
        {
          "internalType": "address",
          "name": "operator",
          "type": "address"
        }
      ],
      "name": "isApprovedForAll",
      "outputs": [
        {
          "internalType": "bool",
          "name": "",
          "type": "bool"
        }
      ],
      "stateMutability": "view",
      "type": "function"
    },
    {
      "inputs": [
        {
          "internalType": "address",
          "name": "operator",
          "type": "address"
        },
        {
          "internalType": "bytes32",
          "name": "tokenId",
          "type": "bytes32"
        }
      ],
      "name": "isOperatorFor",
      "outputs": [
        {
          "internalType": "bool",
          "name": "",
          "type": "bool"
        }
      ],
      "stateMutability": "view",
      "type": "function"
    },
    {
      "inputs": [],
      "name": "name",
      "outputs": [
        {
          "internalType": "string",
          "name": "",
          "type": "string"
        }
      ],
      "stateMutability": "view",
      "type": "function"
    },
    {
      "inputs": [],
      "name": "owner",
      "outputs": [
        {
          "internalType": "address",
          "name": "",
          "type": "address"
        }
      ],
      "stateMutability": "view",
      "type": "function"
    },
    {
      "inputs": [
        {
          "internalType": "uint256",
          "name": "tokenId",
          "type": "uint256"
        }
      ],
      "name": "ownerOf",
      "outputs": [
        {
          "internalType": "address",
          "name": "",
          "type": "address"
        }
      ],
      "stateMutability": "view",
      "type": "function"
    },
    {
      "inputs": [],
      "name": "renounceOwnership",
      "outputs": [],
      "stateMutability": "nonpayable",
      "type": "function"
    },
    {
      "inputs": [
        {
          "internalType": "address",
          "name": "operator",
          "type": "address"
        },
        {
          "internalType": "bytes32",
          "name": "tokenId",
          "type": "bytes32"
        }
      ],
      "name": "revokeOperator",
      "outputs": [],
      "stateMutability": "nonpayable",
      "type": "function"
    },
    {
      "inputs": [
        {
          "internalType": "address",
          "name": "from",
          "type": "address"
        },
        {
          "internalType": "address",
          "name": "to",
          "type": "address"
        },
        {
          "internalType": "uint256",
          "name": "tokenId",
          "type": "uint256"
        }
      ],
      "name": "safeTransferFrom",
      "outputs": [],
      "stateMutability": "nonpayable",
      "type": "function"
    },
    {
      "inputs": [
        {
          "internalType": "address",
          "name": "from",
          "type": "address"
        },
        {
          "internalType": "address",
          "name": "to",
          "type": "address"
        },
        {
          "internalType": "uint256",
          "name": "tokenId",
          "type": "uint256"
        },
        {
          "internalType": "bytes",
          "name": "data",
          "type": "bytes"
        }
      ],
      "name": "safeTransferFrom",
      "outputs": [],
      "stateMutability": "nonpayable",
      "type": "function"
    },
    {
      "inputs": [
        {
          "internalType": "bytes32[]",
          "name": "keys",
          "type": "bytes32[]"
        },
        {
          "internalType": "bytes[]",
          "name": "values",
          "type": "bytes[]"
        }
      ],
      "name": "setData",
      "outputs": [],
      "stateMutability": "nonpayable",
      "type": "function"
    },
    {
      "inputs": [
        {
          "internalType": "bytes32",
          "name": "key",
          "type": "bytes32"
        },
        {
          "internalType": "bytes",
          "name": "value",
          "type": "bytes"
        }
      ],
      "name": "setData",
      "outputs": [],
      "stateMutability": "nonpayable",
      "type": "function"
    },
    {
      "inputs": [
        {
          "internalType": "bytes4",
          "name": "interfaceId",
          "type": "bytes4"
        }
      ],
      "name": "supportsInterface",
      "outputs": [
        {
          "internalType": "bool",
          "name": "",
          "type": "bool"
        }
      ],
      "stateMutability": "view",
      "type": "function"
    },
    {
      "inputs": [],
      "name": "symbol",
      "outputs": [
        {
          "internalType": "string",
          "name": "",
          "type": "string"
        }
      ],
      "stateMutability": "view",
      "type": "function"
    },
    {
      "inputs": [
        {
          "internalType": "address",
          "name": "tokenOwner",
          "type": "address"
        }
      ],
      "name": "tokenIdsOf",
      "outputs": [
        {
          "internalType": "bytes32[]",
          "name": "",
          "type": "bytes32[]"
        }
      ],
      "stateMutability": "view",
      "type": "function"
    },
    {
      "inputs": [
        {
          "internalType": "bytes32",
          "name": "tokenId",
          "type": "bytes32"
        }
      ],
      "name": "tokenOwnerOf",
      "outputs": [
        {
          "internalType": "address",
          "name": "",
          "type": "address"
        }
      ],
      "stateMutability": "view",
      "type": "function"
    },
    {
      "inputs": [
        {
          "internalType": "uint256",
          "name": "tokenId",
          "type": "uint256"
        }
      ],
      "name": "tokenURI",
      "outputs": [
        {
          "internalType": "string",
          "name": "",
          "type": "string"
        }
      ],
      "stateMutability": "view",
      "type": "function"
    },
    {
      "inputs": [],
      "name": "totalSupply",
      "outputs": [
        {
          "internalType": "uint256",
          "name": "",
          "type": "uint256"
        }
      ],
      "stateMutability": "view",
      "type": "function"
    },
    {
      "inputs": [
        {
          "internalType": "address",
          "name": "from",
          "type": "address"
        },
        {
          "internalType": "address",
          "name": "to",
          "type": "address"
        },
        {
          "internalType": "bytes32",
          "name": "tokenId",
          "type": "bytes32"
        },
        {
          "internalType": "bool",
          "name": "force",
          "type": "bool"
        },
        {
          "internalType": "bytes",
          "name": "data",
          "type": "bytes"
        }
      ],
      "name": "transfer",
      "outputs": [],
      "stateMutability": "nonpayable",
      "type": "function"
    },
    {
      "inputs": [
        {
          "internalType": "address[]",
          "name": "from",
          "type": "address[]"
        },
        {
          "internalType": "address[]",
          "name": "to",
          "type": "address[]"
        },
        {
          "internalType": "bytes32[]",
          "name": "tokenId",
          "type": "bytes32[]"
        },
        {
          "internalType": "bool",
          "name": "force",
          "type": "bool"
        },
        {
          "internalType": "bytes[]",
          "name": "data",
          "type": "bytes[]"
        }
      ],
      "name": "transferBatch",
      "outputs": [],
      "stateMutability": "nonpayable",
      "type": "function"
    },
    {
      "inputs": [
        {
          "internalType": "address",
          "name": "from",
          "type": "address"
        },
        {
          "internalType": "address",
          "name": "to",
          "type": "address"
        },
        {
          "internalType": "uint256",
          "name": "tokenId",
          "type": "uint256"
        }
      ],
      "name": "transferFrom",
      "outputs": [],
      "stateMutability": "nonpayable",
      "type": "function"
    },
    {
      "inputs": [
        {
          "internalType": "address",
          "name": "newOwner",
          "type": "address"
        }
      ],
      "name": "transferOwnership",
      "outputs": [],
      "stateMutability": "nonpayable",
      "type": "function"
    }
  ],
  "bytecode": "0x60806040523480156200001157600080fd5b50604051620029d2380380620029d2833981016040819052620000349162000340565b8282828282828062000051816200012b60201b62000c9a1760201c565b50620000a87feafec4d89fa9619884b60000a4d96624a38f7ac2d8d9a604ecf07c12c77e480c60001b604051806040016040528060048152602001632936598960e21b8152506200019260201b62000d0c1760201c565b620000e27fdeba1e292f8ba88238e10ab3c7f88bd4be4fac56cad5194b6ecceaf653468af160001b846200019260201b62000d0c1760201c565b6200011c7f2f0a68ab07768e01943a599e73362a0e17a63a72e94dd2e384d2c1d4db93275660001b836200019260201b62000d0c1760201c565b50505050505050505062000420565b6000546001600160a01b038281169116146200018f57600080546001600160a01b038381166001600160a01b0319831681178455604051919092169283917f8be0079c531659141344cd1fd0a4f28419497f9722a3daafe3b4186f6b6457e09190a3505b50565b60008281526001602090815260409091208251620001b392840190620001e3565b5060405182907fcdf4e344c0d23d4cdd0474039d176c55b19d531070dbe17856bfb993a5b5720b90600090a25050565b828054620001f190620003cd565b90600052602060002090601f01602090048101928262000215576000855562000260565b82601f106200023057805160ff191683800117855562000260565b8280016001018555821562000260579182015b828111156200026057825182559160200191906001019062000243565b506200026e92915062000272565b5090565b5b808211156200026e576000815560010162000273565b600082601f8301126200029b57600080fd5b81516001600160401b0380821115620002b857620002b86200040a565b604051601f8301601f19908116603f01168101908282118183101715620002e357620002e36200040a565b816040528381526020925086838588010111156200030057600080fd5b600091505b8382101562000324578582018301518183018401529082019062000305565b83821115620003365760008385830101525b9695505050505050565b6000806000606084860312156200035657600080fd5b83516001600160401b03808211156200036e57600080fd5b6200037c8783880162000289565b945060208601519150808211156200039357600080fd5b50620003a28682870162000289565b604086015190935090506001600160a01b0381168114620003c257600080fd5b809150509250925092565b600181811c90821680620003e257607f821691505b602082108114156200040457634e487b7160e01b600052602260045260246000fd5b50919050565b634e487b7160e01b600052604160045260246000fd5b6125a280620004306000396000f3fe608060405234801561001057600080fd5b50600436106101c45760003560e01c806354f6127f116100f957806395d89b4111610097578063c87b56dd11610071578063c87b56dd146103d0578063cf5182ba146103e3578063e985e9c5146103f6578063f2fde38b1461040c57600080fd5b806395d89b4114610395578063a3b261f21461039d578063b88d4fde146103bd57600080fd5b806370a08231116100d357806370a0823114610356578063715018a6146103695780637f23690c146103715780638da5cb5b1461038457600080fd5b806354f6127f1461031d57806355908868146103305780636352211e1461034357600080fd5b8063217b22701161016657806342842e0e1161014057806342842e0e146102b757806349a6078d146102ca5780634e3e6e9c146102ea578063511b69521461030a57600080fd5b8063217b22701461027e57806323b872dd146102915780632a3654a4146102a457600080fd5b8063095ea7b3116101a2578063095ea7b3146102315780630b0c6d821461024657806314a6e2931461025957806318160ddd1461026c57600080fd5b806301ffc9a7146101c957806306fdde03146101f1578063081812fc14610206575b600080fd5b6101dc6101d736600461215b565b61041f565b60405190151581526020015b60405180910390f35b6101f9610497565b6040516101e891906123cb565b610219610214366004612105565b6104c4565b6040516001600160a01b0390911681526020016101e8565b61024461023f366004611f70565b610518565b005b610244610254366004611f70565b61056f565b610244610267366004612084565b61061d565b6002545b6040519081526020016101e8565b61021961028c366004612105565b610743565b61024461029f366004611ecc565b61077c565b6101dc6102b2366004611f70565b61079c565b6102446102c5366004611ecc565b6107b8565b6102dd6102d8366004612105565b6107d8565b6040516101e891906122cb565b6102fd6102f836600461204f565b6107fa565b6040516101e89190612350565b610244610318366004611e51565b6108ae565b6101f961032b366004612105565b610916565b61024461033e366004611f9a565b610921565b610219610351366004612105565b610a07565b610270610364366004611e03565b610a12565b610244610a33565b61024461037f36600461211e565b610a99565b6000546001600160a01b0316610219565b6101f9610b01565b6103b06103ab366004611e03565b610b2e565b6040516101e89190612318565b6102446103cb366004611f08565b610b52565b6101f96103de366004612105565b610b60565b6102446103f1366004611f70565b610bae565b6101dc610404366004611e1e565b600092915050565b61024461041a366004611e03565b610bb8565b60006001600160e01b031982167f80ac58cd00000000000000000000000000000000000000000000000000000000148061048257506001600160e01b031982167f5b5e139f00000000000000000000000000000000000000000000000000000000145b80610491575061049182610d5b565b92915050565b606060006104917fdeba1e292f8ba88238e10ab3c7f88bd4be4fac56cad5194b6ecceaf653468af1610d99565b6000816104d081610e3b565b6000818152600560205260408120906104e882610e73565b9050806104fa57506000949350505050565b61050f610508600183612473565b8390610e7d565b95945050505050565b6105228282610bae565b806001600160a01b03831661053682610743565b6001600160a01b03167f8c5be1e5ebec7d5bd14f71427d1e84f3dd0314c0f7b2291e5b200ac8c7c3b92560405160405180910390a45050565b600061057a82610743565b9050336001600160a01b03821681146105c557604051632d938f5160e11b81526001600160a01b03808416600483015260248201859052821660448201526064015b60405180910390fd5b6001600160a01b0384166105ec57604051639577b8b360e01b815260040160405180910390fd5b836001600160a01b0316826001600160a01b0316141561060c5750505050565b610617848385610e89565b50505050565b6000546001600160a01b031633146106775760405162461bcd60e51b815260206004820181905260248201527f4f776e61626c653a2063616c6c6572206973206e6f7420746865206f776e657260448201526064016105bc565b80518251146106ee5760405162461bcd60e51b815260206004820152602660248201527f4b657973206c656e677468206e6f7420657175616c20746f2076616c7565732060448201527f6c656e677468000000000000000000000000000000000000000000000000000060648201526084016105bc565b60005b825181101561073e5761073683828151811061070f5761070f612532565b602002602001015183838151811061072957610729612532565b6020026020010151610ee8565b6001016106f1565b505050565b6000818152600360205260408120546001600160a01b03168061049157604051635747cd1b60e11b8152600481018490526024016105bc565b61073e83838360001b6001604051806020016040528060008152506108ae565b60006107a782610e3b565b6107b18383610ef2565b9392505050565b61073e83838360001b6000604051806020016040528060008152506108ae565b60606107e382610e3b565b600082815260056020526040902061049190610f3b565b6060815167ffffffffffffffff81111561081657610816612548565b60405190808252806020026020018201604052801561084957816020015b60608152602001906001900390816108345790505b50905060005b82518110156108a85761087a83828151811061086d5761086d612532565b6020026020010151610d99565b82828151811061088c5761088c612532565b60200260200101819052506108a18160010190565b905061084f565b50919050565b336108b98185610ef2565b610901576040517f1294d2a9000000000000000000000000000000000000000000000000000000008152600481018590526001600160a01b03821660248201526044016105bc565b61090e8686868686610f48565b505050505050565b606061049182610d99565b8351855114158061093457508251855114155b8061094157508051855114155b15610978576040517f93a8311900000000000000000000000000000000000000000000000000000000815260040160405180910390fd5b60005b855181101561090e576109f586828151811061099957610999612532565b60200260200101518683815181106109b3576109b3612532565b60200260200101518684815181106109cd576109cd612532565b6020026020010151868686815181106109e8576109e8612532565b60200260200101516108ae565b806109ff816124eb565b91505061097b565b600061049182610743565b6001600160a01b038116600090815260046020526040812061049190610e73565b6000546001600160a01b03163314610a8d5760405162461bcd60e51b815260206004820181905260248201527f4f776e61626c653a2063616c6c6572206973206e6f7420746865206f776e657260448201526064016105bc565b610a976000610c9a565b565b6000546001600160a01b03163314610af35760405162461bcd60e51b815260206004820181905260248201527f4f776e61626c653a2063616c6c6572206973206e6f7420746865206f776e657260448201526064016105bc565b610afd8282610ee8565b5050565b606060006104917f2f0a68ab07768e01943a599e73362a0e17a63a72e94dd2e384d2c1d4db932756610d99565b6001600160a01b038116600090815260046020526040902060609061049190610f5c565b6106178484846000856108ae565b60606000610b8d7f9afb95cacc9f95858ec44aa8c3b685511002e30ae54415823f406128b85b238e610d99565b9050600060249050600061050f8383848651610ba99190612473565b610f67565b610afd828261108f565b6000546001600160a01b03163314610c125760405162461bcd60e51b815260206004820181905260248201527f4f776e61626c653a2063616c6c6572206973206e6f7420746865206f776e657260448201526064016105bc565b6001600160a01b038116610c8e5760405162461bcd60e51b815260206004820152602660248201527f4f776e61626c653a206e6577206f776e657220697320746865207a65726f206160448201527f646472657373000000000000000000000000000000000000000000000000000060648201526084016105bc565b610c9781610c9a565b50565b6000546001600160a01b03828116911614610c9757600080546001600160a01b0383811673ffffffffffffffffffffffffffffffffffffffff19831681178455604051919092169283917f8be0079c531659141344cd1fd0a4f28419497f9722a3daafe3b4186f6b6457e09190a35050565b60008281526001602090815260409091208251610d2b92840190611b92565b5060405182907fcdf4e344c0d23d4cdd0474039d176c55b19d531070dbe17856bfb993a5b5720b90600090a25050565b60006001600160e01b031982167f493991450000000000000000000000000000000000000000000000000000000014806104915750610491826110da565b6000818152600160205260409020805460609190610db6906124b6565b80601f0160208091040260200160405190810160405280929190818152602001828054610de2906124b6565b8015610e2f5780601f10610e0457610100808354040283529160200191610e2f565b820191906000526020600020905b815481529060010190602001808311610e1257829003601f168201915b50505050509050919050565b6000818152600360205260409020546001600160a01b0316610c9757604051635747cd1b60e11b8152600481018290526024016105bc565b6000610491825490565b60006107b18383611128565b6000818152600560205260409020610ea19084611152565b5080826001600160a01b0316846001600160a01b03167f17d5389f6ab6adb2647dfa0aa365c323d37adacc30b33a65310b6158ce1373d560405160405180910390a4505050565b610afd8282611167565b600080610efe83610743565b9050806001600160a01b0316846001600160a01b03161480610f3357506000838152600560205260409020610f33908561129d565b949350505050565b606060006107b1836112bf565b610f55858585858561131a565b5050505050565b6060610491826112bf565b606081610f7581601f61245b565b1015610fc35760405162461bcd60e51b815260206004820152600e60248201527f736c6963655f6f766572666c6f7700000000000000000000000000000000000060448201526064016105bc565b610fcd828461245b565b8451101561101d5760405162461bcd60e51b815260206004820152601160248201527f736c6963655f6f75744f66426f756e647300000000000000000000000000000060448201526064016105bc565b60608215801561103c5760405191506000825260208201604052611086565b6040519150601f8416801560200281840101858101878315602002848b0101015b8183101561107557805183526020928301920161105d565b5050858452601f01601f1916604052505b50949350505050565b611099828261139c565b6040805160208101839052016040516020818303038152906040528060200190518101906110c791906121f3565b826001600160a01b031661053683610743565b60006001600160e01b031982167f714df77c00000000000000000000000000000000000000000000000000000000148061049157506301ffc9a760e01b6001600160e01b0319831614610491565b600082600001828154811061113f5761113f612532565b9060005260206000200154905092915050565b60006107b1836001600160a01b038416611494565b7fdeba1e292f8ba88238e10ab3c7f88bd4be4fac56cad5194b6ecceaf653468af18214156111fd5760405162461bcd60e51b815260206004820152602d60248201527f4c5350343a2063616e6e6f74206564697420546f6b656e204e616d652061667460448201527f6572206465706c6f796d656e740000000000000000000000000000000000000060648201526084016105bc565b7f2f0a68ab07768e01943a599e73362a0e17a63a72e94dd2e384d2c1d4db9327568214156112935760405162461bcd60e51b815260206004820152602f60248201527f4c5350343a2063616e6e6f74206564697420546f6b656e2053796d626f6c206160448201527f66746572206465706c6f796d656e74000000000000000000000000000000000060648201526084016105bc565b610afd8282610d0c565b6001600160a01b038116600090815260018301602052604081205415156107b1565b606081600001805480602002602001604051908101604052809291908181526020018280548015610e2f57602002820191906000526020600020905b8154815260200190600101908083116112fb5750505050509050919050565b6113278585858585611587565b60408051602081018590520160405160208183030381529060405280602001905181019061135591906121f3565b846001600160a01b0316866001600160a01b03167fddf252ad1be2c89b69c2b068fc378daa952ba7f163c4a11628f55a4df523b3ef60405160405180910390a45050505050565b60006113a782610743565b9050336001600160a01b03821681146113ed57604051632d938f5160e11b81526001600160a01b03808416600483015260248201859052821660448201526064016105bc565b6001600160a01b03841661141457604051639577b8b360e01b815260040160405180910390fd5b836001600160a01b0316826001600160a01b031614156114345750505050565b600083815260056020526040902061144c9085611719565b5082826001600160a01b0316856001600160a01b03167f34b797fc5a526f7bf1d2b5de25f6564fd85ae364e3ee939aee7c1ac27871a98860405160405180910390a450505050565b6000818152600183016020526040812054801561157d5760006114b8600183612473565b85549091506000906114cc90600190612473565b90508181146115315760008660000182815481106114ec576114ec612532565b906000526020600020015490508087600001848154811061150f5761150f612532565b6000918252602080832090910192909255918252600188019052604090208390555b85548690806115425761154261251c565b600190038181906000526020600020016000905590558560010160008681526020019081526020016000206000905560019350505050610491565b6000915050610491565b600061159284610743565b9050856001600160a01b0316816001600160a01b0316146115e057604051632d938f5160e11b81526001600160a01b03808316600483015260248201869052871660448201526064016105bc565b6001600160a01b038516611620576040517f24ecef4d00000000000000000000000000000000000000000000000000000000815260040160405180910390fd5b3361162c87878761172e565b6116368786611780565b6001600160a01b038716600090815260046020526040902061165890866117d1565b506001600160a01b038616600090815260046020526040902061167b90866117dd565b5060008581526003602052604090819020805473ffffffffffffffffffffffffffffffffffffffff19166001600160a01b0389811691821790925591518792918a16907fb333c813a7426a7a11e2b190cad52c44119421594b47f6f32ace6d8c7207b2bf906116ef9086908a908a906122a1565b60405180910390a4611703878787866117e9565b61171087878787876118cc565b50505050505050565b60006107b1836001600160a01b038416611a45565b6001600160a01b0383166117555760016002600082825461174f919061245b565b90915550505b6001600160a01b03821661073e576001600260008282546117769190612473565b9091555050505050565b60008181526005602052604081209061179882610e73565b905060005b81811015610f555760006117b18482610e7d565b90506117be818787610e89565b50806117c9816124eb565b91505061179d565b60006107b18383611494565b60006107b18383611a45565b6117fa84631aed5a8560e21b611a94565b15610617576000848484846040516020016118189493929190612238565b60408051601f1981840301815290829052631aed5a8560e21b825291506001600160a01b03861690636bb56a1490611876907f3724c94f0815e936299cca424da4140752198e0beb7931a6e0925d11bc97544c9085906004016123b2565b600060405180830381600087803b15801561189057600080fd5b505af11580156118a4573d6000803e3d6000fd5b505050506040513d6000823e601f3d908101601f1916820160405261090e9190810190612185565b6118dd84631aed5a8560e21b611a94565b156119b6576000858585846040516020016118fb9493929190612238565b60408051601f1981840301815290829052631aed5a8560e21b825291506001600160a01b03861690636bb56a1490611959907fc7a120a42b6057a0cbed111fbbfbd52fcd96748c04394f77fc2c3adbe0391e019085906004016123b2565b600060405180830381600087803b15801561197357600080fd5b505af1158015611987573d6000803e3d6000fd5b505050506040513d6000823e601f3d908101601f191682016040526119af9190810190612185565b5050610f55565b81610f55576001600160a01b0384163b15611a08576040517f4349776d0000000000000000000000000000000000000000000000000000000081526001600160a01b03851660048201526024016105bc565b6040517f031731370000000000000000000000000000000000000000000000000000000081526001600160a01b03851660048201526024016105bc565b6000818152600183016020526040812054611a8c57508154600181810184556000848152602080822090930184905584548482528286019093526040902091909155610491565b506000610491565b604080516001600160e01b0319831660248083019190915282518083039091018152604490910182526020810180517bffffffffffffffffffffffffffffffffffffffffffffffffffffffff166301ffc9a760e01b179052905160009190829081906001600160a01b0387169061753090611b10908690612285565b6000604051808303818686fa925050503d8060008114611b4c576040519150601f19603f3d011682016040523d82523d6000602084013e611b51565b606091505b5091509150602081511015611b6c5760009350505050610491565b818015611b88575080806020019051810190611b8891906120e8565b9695505050505050565b828054611b9e906124b6565b90600052602060002090601f016020900481019282611bc05760008555611c06565b82601f10611bd957805160ff1916838001178555611c06565b82800160010185558215611c06579182015b82811115611c06578251825591602001919060010190611beb565b50611c12929150611c16565b5090565b5b80821115611c125760008155600101611c17565b80356001600160a01b0381168114611c4257600080fd5b919050565b600082601f830112611c5857600080fd5b81356020611c6d611c688361240f565b6123de565b80838252828201915082860187848660051b8901011115611c8d57600080fd5b60005b85811015611cb357611ca182611c2b565b84529284019290840190600101611c90565b5090979650505050505050565b600082601f830112611cd157600080fd5b81356020611ce1611c688361240f565b80838252828201915082860187848660051b8901011115611d0157600080fd5b60005b85811015611cb357813584529284019290840190600101611d04565b600082601f830112611d3157600080fd5b81356020611d41611c688361240f565b80838252828201915082860187848660051b8901011115611d6157600080fd5b6000805b86811015611da457823567ffffffffffffffff811115611d83578283fd5b611d918b88838d0101611db2565b8652509385019391850191600101611d65565b509198975050505050505050565b600082601f830112611dc357600080fd5b8135611dd1611c6882612433565b818152846020838601011115611de657600080fd5b816020850160208301376000918101602001919091529392505050565b600060208284031215611e1557600080fd5b6107b182611c2b565b60008060408385031215611e3157600080fd5b611e3a83611c2b565b9150611e4860208401611c2b565b90509250929050565b600080600080600060a08688031215611e6957600080fd5b611e7286611c2b565b9450611e8060208701611c2b565b9350604086013592506060860135611e978161255e565b9150608086013567ffffffffffffffff811115611eb357600080fd5b611ebf88828901611db2565b9150509295509295909350565b600080600060608486031215611ee157600080fd5b611eea84611c2b565b9250611ef860208501611c2b565b9150604084013590509250925092565b60008060008060808587031215611f1e57600080fd5b611f2785611c2b565b9350611f3560208601611c2b565b925060408501359150606085013567ffffffffffffffff811115611f5857600080fd5b611f6487828801611db2565b91505092959194509250565b60008060408385031215611f8357600080fd5b611f8c83611c2b565b946020939093013593505050565b600080600080600060a08688031215611fb257600080fd5b853567ffffffffffffffff80821115611fca57600080fd5b611fd689838a01611c47565b96506020880135915080821115611fec57600080fd5b611ff889838a01611c47565b9550604088013591508082111561200e57600080fd5b61201a89838a01611cc0565b94506060880135915061202c8261255e565b9092506080870135908082111561204257600080fd5b50611ebf88828901611d20565b60006020828403121561206157600080fd5b813567ffffffffffffffff81111561207857600080fd5b610f3384828501611cc0565b6000806040838503121561209757600080fd5b823567ffffffffffffffff808211156120af57600080fd5b6120bb86838701611cc0565b935060208501359150808211156120d157600080fd5b506120de85828601611d20565b9150509250929050565b6000602082840312156120fa57600080fd5b81516107b18161255e565b60006020828403121561211757600080fd5b5035919050565b6000806040838503121561213157600080fd5b82359150602083013567ffffffffffffffff81111561214f57600080fd5b6120de85828601611db2565b60006020828403121561216d57600080fd5b81356001600160e01b0319811681146107b157600080fd5b60006020828403121561219757600080fd5b815167ffffffffffffffff8111156121ae57600080fd5b8201601f810184136121bf57600080fd5b80516121cd611c6882612433565b8181528560208385010111156121e257600080fd5b61050f82602083016020860161248a565b60006020828403121561220557600080fd5b5051919050565b6000815180845261222481602086016020860161248a565b601f01601f19169290920160200192915050565b60006bffffffffffffffffffffffff19808760601b168352808660601b16601484015250836028830152825161227581604885016020870161248a565b9190910160480195945050505050565b6000825161229781846020870161248a565b9190910192915050565b6001600160a01b0384168152821515602082015260606040820152600061050f606083018461220c565b6020808252825182820181905260009190848201906040850190845b8181101561230c5783516001600160a01b0316835292840192918401916001016122e7565b50909695505050505050565b6020808252825182820181905260009190848201906040850190845b8181101561230c57835183529284019291840191600101612334565b6000602080830181845280855180835260408601915060408160051b870101925083870160005b828110156123a557603f1988860301845261239385835161220c565b94509285019290850190600101612377565b5092979650505050505050565b828152604060208201526000610f33604083018461220c565b6020815260006107b1602083018461220c565b604051601f8201601f1916810167ffffffffffffffff8111828210171561240757612407612548565b604052919050565b600067ffffffffffffffff82111561242957612429612548565b5060051b60200190565b600067ffffffffffffffff82111561244d5761244d612548565b50601f01601f191660200190565b6000821982111561246e5761246e612506565b500190565b60008282101561248557612485612506565b500390565b60005b838110156124a557818101518382015260200161248d565b838111156106175750506000910152565b600181811c908216806124ca57607f821691505b602082108114156108a857634e487b7160e01b600052602260045260246000fd5b60006000198214156124ff576124ff612506565b5060010190565b634e487b7160e01b600052601160045260246000fd5b634e487b7160e01b600052603160045260246000fd5b634e487b7160e01b600052603260045260246000fd5b634e487b7160e01b600052604160045260246000fd5b8015158114610c9757600080fdfea26469706673582212206c9a4515b67f676a388ab24cf8792c03c39dee32b543a03e2b3f8d0a7cb5572d64736f6c63430008070033",
  "linkReferences": {},
  "deployedLinkReferences": {}
}