{
  "_format": "hh-sol-artifact-1",
  "contractName": "LSP8CompatibilityForERC721Init",
  "sourceName": "contracts/LSP8IdentifiableDigitalAsset/extensions/LSP8CompatibilityForERC721Init.sol",
  "abi": [
    {
      "inputs": [],
      "name": "LSP8CannotSendToAddressZero",
      "type": "error"
    },
    {
      "inputs": [],
      "name": "LSP8CannotUseAddressZeroAsOperator",
      "type": "error"
    },
    {
      "inputs": [],
      "name": "LSP8InvalidTransferBatch",
      "type": "error"
    },
    {
      "inputs": [
        {
          "internalType": "bytes32",
          "name": "tokenId",
          "type": "bytes32"
        }
      ],
      "name": "LSP8NonExistentTokenId",
      "type": "error"
    },
    {
      "inputs": [
        {
          "internalType": "bytes32",
          "name": "tokenId",
          "type": "bytes32"
        },
        {
          "internalType": "address",
          "name": "caller",
          "type": "address"
        }
      ],
      "name": "LSP8NotTokenOperator",
      "type": "error"
    },
    {
      "inputs": [
        {
          "internalType": "address",
          "name": "tokenOwner",
          "type": "address"
        },
        {
          "internalType": "bytes32",
          "name": "tokenId",
          "type": "bytes32"
        },
        {
          "internalType": "address",
          "name": "caller",
          "type": "address"
        }
      ],
      "name": "LSP8NotTokenOwner",
      "type": "error"
    },
    {
      "inputs": [
        {
          "internalType": "address",
          "name": "tokenReceiver",
          "type": "address"
        }
      ],
      "name": "LSP8NotifyTokenReceiverContractMissingLSP1Interface",
      "type": "error"
    },
    {
      "inputs": [
        {
          "internalType": "address",
          "name": "tokenReceiver",
          "type": "address"
        }
      ],
      "name": "LSP8NotifyTokenReceiverIsEOA",
      "type": "error"
    },
    {
      "anonymous": false,
      "inputs": [
        {
          "indexed": true,
          "internalType": "address",
          "name": "owner",
          "type": "address"
        },
        {
          "indexed": true,
          "internalType": "address",
          "name": "approved",
          "type": "address"
        },
        {
          "indexed": true,
          "internalType": "uint256",
          "name": "tokenId",
          "type": "uint256"
        }
      ],
      "name": "Approval",
      "type": "event"
    },
    {
      "anonymous": false,
      "inputs": [
        {
          "indexed": true,
          "internalType": "address",
          "name": "operator",
          "type": "address"
        },
        {
          "indexed": true,
          "internalType": "address",
          "name": "tokenOwner",
          "type": "address"
        },
        {
          "indexed": true,
          "internalType": "bytes32",
          "name": "tokenId",
          "type": "bytes32"
        }
      ],
      "name": "AuthorizedOperator",
      "type": "event"
    },
    {
      "anonymous": false,
      "inputs": [
        {
          "indexed": true,
          "internalType": "bytes32",
          "name": "key",
          "type": "bytes32"
        }
      ],
      "name": "DataChanged",
      "type": "event"
    },
    {
      "anonymous": false,
      "inputs": [
        {
          "indexed": false,
          "internalType": "uint8",
          "name": "version",
          "type": "uint8"
        }
      ],
      "name": "Initialized",
      "type": "event"
    },
    {
      "anonymous": false,
      "inputs": [
        {
          "indexed": true,
          "internalType": "address",
          "name": "previousOwner",
          "type": "address"
        },
        {
          "indexed": true,
          "internalType": "address",
          "name": "newOwner",
          "type": "address"
        }
      ],
      "name": "OwnershipTransferred",
      "type": "event"
    },
    {
      "anonymous": false,
      "inputs": [
        {
          "indexed": true,
          "internalType": "address",
          "name": "operator",
          "type": "address"
        },
        {
          "indexed": true,
          "internalType": "address",
          "name": "tokenOwner",
          "type": "address"
        },
        {
          "indexed": true,
          "internalType": "bytes32",
          "name": "tokenId",
          "type": "bytes32"
        }
      ],
      "name": "RevokedOperator",
      "type": "event"
    },
    {
      "anonymous": false,
      "inputs": [
        {
          "indexed": true,
          "internalType": "address",
          "name": "from",
          "type": "address"
        },
        {
          "indexed": true,
          "internalType": "address",
          "name": "to",
          "type": "address"
        },
        {
          "indexed": true,
          "internalType": "uint256",
          "name": "tokenId",
          "type": "uint256"
        }
      ],
      "name": "Transfer",
      "type": "event"
    },
    {
      "anonymous": false,
      "inputs": [
        {
          "indexed": false,
          "internalType": "address",
          "name": "operator",
          "type": "address"
        },
        {
          "indexed": true,
          "internalType": "address",
          "name": "from",
          "type": "address"
        },
        {
          "indexed": true,
          "internalType": "address",
          "name": "to",
          "type": "address"
        },
        {
          "indexed": true,
          "internalType": "bytes32",
          "name": "tokenId",
          "type": "bytes32"
        },
        {
          "indexed": false,
          "internalType": "bool",
          "name": "force",
          "type": "bool"
        },
        {
          "indexed": false,
          "internalType": "bytes",
          "name": "data",
          "type": "bytes"
        }
      ],
      "name": "Transfer",
      "type": "event"
    },
    {
      "inputs": [
        {
          "internalType": "address",
          "name": "operator",
          "type": "address"
        },
        {
          "internalType": "uint256",
          "name": "tokenId",
          "type": "uint256"
        }
      ],
      "name": "approve",
      "outputs": [],
      "stateMutability": "nonpayable",
      "type": "function"
    },
    {
      "inputs": [
        {
          "internalType": "address",
          "name": "operator",
          "type": "address"
        },
        {
          "internalType": "bytes32",
          "name": "tokenId",
          "type": "bytes32"
        }
      ],
      "name": "authorizeOperator",
      "outputs": [],
      "stateMutability": "nonpayable",
      "type": "function"
    },
    {
      "inputs": [
        {
          "internalType": "address",
          "name": "tokenOwner",
          "type": "address"
        }
      ],
      "name": "balanceOf",
      "outputs": [
        {
          "internalType": "uint256",
          "name": "",
          "type": "uint256"
        }
      ],
      "stateMutability": "view",
      "type": "function"
    },
    {
      "inputs": [
        {
          "internalType": "uint256",
          "name": "tokenId",
          "type": "uint256"
        }
      ],
      "name": "getApproved",
      "outputs": [
        {
          "internalType": "address",
          "name": "",
          "type": "address"
        }
      ],
      "stateMutability": "view",
      "type": "function"
    },
    {
      "inputs": [
        {
          "internalType": "bytes32[]",
          "name": "keys",
          "type": "bytes32[]"
        }
      ],
      "name": "getData",
      "outputs": [
        {
          "internalType": "bytes[]",
          "name": "values",
          "type": "bytes[]"
        }
      ],
      "stateMutability": "view",
      "type": "function"
    },
    {
      "inputs": [
        {
          "internalType": "bytes32",
          "name": "key",
          "type": "bytes32"
        }
      ],
      "name": "getData",
      "outputs": [
        {
          "internalType": "bytes",
          "name": "value",
          "type": "bytes"
        }
      ],
      "stateMutability": "view",
      "type": "function"
    },
    {
      "inputs": [
        {
          "internalType": "bytes32",
          "name": "tokenId",
          "type": "bytes32"
        }
      ],
      "name": "getOperatorsOf",
      "outputs": [
        {
          "internalType": "address[]",
          "name": "",
          "type": "address[]"
        }
      ],
      "stateMutability": "view",
      "type": "function"
    },
    {
      "inputs": [
        {
          "internalType": "string",
          "name": "name_",
          "type": "string"
        },
        {
          "internalType": "string",
          "name": "symbol_",
          "type": "string"
        },
        {
          "internalType": "address",
          "name": "newOwner_",
          "type": "address"
        }
      ],
      "name": "initialize",
      "outputs": [],
      "stateMutability": "nonpayable",
      "type": "function"
    },
    {
      "inputs": [],
      "name": "initialized",
      "outputs": [
        {
          "internalType": "uint8",
          "name": "",
          "type": "uint8"
        }
      ],
      "stateMutability": "view",
      "type": "function"
    },
    {
      "inputs": [],
      "name": "initializing",
      "outputs": [
        {
          "internalType": "bool",
          "name": "",
          "type": "bool"
        }
      ],
      "stateMutability": "view",
      "type": "function"
    },
    {
      "inputs": [
        {
          "internalType": "address",
          "name": "tokenOwner",
          "type": "address"
        },
        {
          "internalType": "address",
          "name": "operator",
          "type": "address"
        }
      ],
      "name": "isApprovedForAll",
      "outputs": [
        {
          "internalType": "bool",
          "name": "",
          "type": "bool"
        }
      ],
      "stateMutability": "view",
      "type": "function"
    },
    {
      "inputs": [
        {
          "internalType": "address",
          "name": "operator",
          "type": "address"
        },
        {
          "internalType": "bytes32",
          "name": "tokenId",
          "type": "bytes32"
        }
      ],
      "name": "isOperatorFor",
      "outputs": [
        {
          "internalType": "bool",
          "name": "",
          "type": "bool"
        }
      ],
      "stateMutability": "view",
      "type": "function"
    },
    {
      "inputs": [],
      "name": "name",
      "outputs": [
        {
          "internalType": "string",
          "name": "",
          "type": "string"
        }
      ],
      "stateMutability": "view",
      "type": "function"
    },
    {
      "inputs": [],
      "name": "owner",
      "outputs": [
        {
          "internalType": "address",
          "name": "",
          "type": "address"
        }
      ],
      "stateMutability": "view",
      "type": "function"
    },
    {
      "inputs": [
        {
          "internalType": "uint256",
          "name": "tokenId",
          "type": "uint256"
        }
      ],
      "name": "ownerOf",
      "outputs": [
        {
          "internalType": "address",
          "name": "",
          "type": "address"
        }
      ],
      "stateMutability": "view",
      "type": "function"
    },
    {
      "inputs": [],
      "name": "renounceOwnership",
      "outputs": [],
      "stateMutability": "nonpayable",
      "type": "function"
    },
    {
      "inputs": [
        {
          "internalType": "address",
          "name": "operator",
          "type": "address"
        },
        {
          "internalType": "bytes32",
          "name": "tokenId",
          "type": "bytes32"
        }
      ],
      "name": "revokeOperator",
      "outputs": [],
      "stateMutability": "nonpayable",
      "type": "function"
    },
    {
      "inputs": [
        {
          "internalType": "address",
          "name": "from",
          "type": "address"
        },
        {
          "internalType": "address",
          "name": "to",
          "type": "address"
        },
        {
          "internalType": "uint256",
          "name": "tokenId",
          "type": "uint256"
        }
      ],
      "name": "safeTransferFrom",
      "outputs": [],
      "stateMutability": "nonpayable",
      "type": "function"
    },
    {
      "inputs": [
        {
          "internalType": "address",
          "name": "from",
          "type": "address"
        },
        {
          "internalType": "address",
          "name": "to",
          "type": "address"
        },
        {
          "internalType": "uint256",
          "name": "tokenId",
          "type": "uint256"
        },
        {
          "internalType": "bytes",
          "name": "data",
          "type": "bytes"
        }
      ],
      "name": "safeTransferFrom",
      "outputs": [],
      "stateMutability": "nonpayable",
      "type": "function"
    },
    {
      "inputs": [
        {
          "internalType": "bytes32[]",
          "name": "keys",
          "type": "bytes32[]"
        },
        {
          "internalType": "bytes[]",
          "name": "values",
          "type": "bytes[]"
        }
      ],
      "name": "setData",
      "outputs": [],
      "stateMutability": "nonpayable",
      "type": "function"
    },
    {
      "inputs": [
        {
          "internalType": "bytes32",
          "name": "key",
          "type": "bytes32"
        },
        {
          "internalType": "bytes",
          "name": "value",
          "type": "bytes"
        }
      ],
      "name": "setData",
      "outputs": [],
      "stateMutability": "nonpayable",
      "type": "function"
    },
    {
      "inputs": [
        {
          "internalType": "bytes4",
          "name": "interfaceId",
          "type": "bytes4"
        }
      ],
      "name": "supportsInterface",
      "outputs": [
        {
          "internalType": "bool",
          "name": "",
          "type": "bool"
        }
      ],
      "stateMutability": "view",
      "type": "function"
    },
    {
      "inputs": [],
      "name": "symbol",
      "outputs": [
        {
          "internalType": "string",
          "name": "",
          "type": "string"
        }
      ],
      "stateMutability": "view",
      "type": "function"
    },
    {
      "inputs": [
        {
          "internalType": "address",
          "name": "tokenOwner",
          "type": "address"
        }
      ],
      "name": "tokenIdsOf",
      "outputs": [
        {
          "internalType": "bytes32[]",
          "name": "",
          "type": "bytes32[]"
        }
      ],
      "stateMutability": "view",
      "type": "function"
    },
    {
      "inputs": [
        {
          "internalType": "bytes32",
          "name": "tokenId",
          "type": "bytes32"
        }
      ],
      "name": "tokenOwnerOf",
      "outputs": [
        {
          "internalType": "address",
          "name": "",
          "type": "address"
        }
      ],
      "stateMutability": "view",
      "type": "function"
    },
    {
      "inputs": [
        {
          "internalType": "uint256",
          "name": "tokenId",
          "type": "uint256"
        }
      ],
      "name": "tokenURI",
      "outputs": [
        {
          "internalType": "string",
          "name": "",
          "type": "string"
        }
      ],
      "stateMutability": "view",
      "type": "function"
    },
    {
      "inputs": [],
      "name": "totalSupply",
      "outputs": [
        {
          "internalType": "uint256",
          "name": "",
          "type": "uint256"
        }
      ],
      "stateMutability": "view",
      "type": "function"
    },
    {
      "inputs": [
        {
          "internalType": "address",
          "name": "from",
          "type": "address"
        },
        {
          "internalType": "address",
          "name": "to",
          "type": "address"
        },
        {
          "internalType": "bytes32",
          "name": "tokenId",
          "type": "bytes32"
        },
        {
          "internalType": "bool",
          "name": "force",
          "type": "bool"
        },
        {
          "internalType": "bytes",
          "name": "data",
          "type": "bytes"
        }
      ],
      "name": "transfer",
      "outputs": [],
      "stateMutability": "nonpayable",
      "type": "function"
    },
    {
      "inputs": [
        {
          "internalType": "address[]",
          "name": "from",
          "type": "address[]"
        },
        {
          "internalType": "address[]",
          "name": "to",
          "type": "address[]"
        },
        {
          "internalType": "bytes32[]",
          "name": "tokenId",
          "type": "bytes32[]"
        },
        {
          "internalType": "bool",
          "name": "force",
          "type": "bool"
        },
        {
          "internalType": "bytes[]",
          "name": "data",
          "type": "bytes[]"
        }
      ],
      "name": "transferBatch",
      "outputs": [],
      "stateMutability": "nonpayable",
      "type": "function"
    },
    {
      "inputs": [
        {
          "internalType": "address",
          "name": "from",
          "type": "address"
        },
        {
          "internalType": "address",
          "name": "to",
          "type": "address"
        },
        {
          "internalType": "uint256",
          "name": "tokenId",
          "type": "uint256"
        }
      ],
      "name": "transferFrom",
      "outputs": [],
      "stateMutability": "nonpayable",
      "type": "function"
    },
    {
      "inputs": [
        {
          "internalType": "address",
          "name": "newOwner",
          "type": "address"
        }
      ],
      "name": "transferOwnership",
      "outputs": [],
      "stateMutability": "nonpayable",
      "type": "function"
    }
  ],
  "bytecode": "0x608060405234801561001057600080fd5b50612ae0806100206000396000f3fe608060405234801561001057600080fd5b50600436106101e55760003560e01c80634e3e6e9c1161010f5780638da5cb5b116100a2578063c87b56dd11610071578063c87b56dd1461042f578063cf5182ba14610442578063e985e9c514610455578063f2fde38b1461046b57600080fd5b80638da5cb5b146103dd57806395d89b41146103f4578063a3b261f2146103fc578063b88d4fde1461041c57600080fd5b80636352211e116100de5780636352211e1461039c57806370a08231146103af578063715018a6146103c25780637f23690c146103ca57600080fd5b80634e3e6e9c14610343578063511b69521461036357806354f6127f14610376578063559088681461038957600080fd5b8063158ef93e116101875780632599f159116101565780632599f159146102ed5780632a3654a4146102fd57806342842e0e1461031057806349a6078d1461032357600080fd5b8063158ef93e146102a057806318160ddd146102b5578063217b2270146102c757806323b872dd146102da57600080fd5b8063081812fc116101c3578063081812fc1461023c578063095ea7b3146102675780630b0c6d821461027a57806314a6e2931461028d57600080fd5b806301ffc9a7146101ea57806306fdde0314610212578063077f224a14610227575b600080fd5b6101fd6101f8366004612625565b61047e565b60405190151581526020015b60405180910390f35b61021a6104f6565b6040516102099190612909565b61023a6102353660046126bd565b610523565b005b61024f61024a3660046125cf565b61059e565b6040516001600160a01b039091168152602001610209565b61023a61027536600461243a565b6105f2565b61023a61028836600461243a565b610649565b61023a61029b36600461254e565b6106f1565b60005460405160ff9091168152602001610209565b6002545b604051908152602001610209565b61024f6102d53660046125cf565b61081e565b61023a6102e8366004612396565b610857565b600054610100900460ff166101fd565b6101fd61030b36600461243a565b610877565b61023a61031e366004612396565b610893565b6103366103313660046125cf565b6108b3565b6040516102099190612809565b610356610351366004612519565b6108d5565b604051610209919061288e565b61023a61037136600461231b565b610989565b61021a6103843660046125cf565b6109f1565b61023a610397366004612464565b6109fc565b61024f6103aa3660046125cf565b610ae2565b6102b96103bd3660046122cd565b610aed565b61023a610b0e565b61023a6103d83660046125e8565b610b7b565b6000546201000090046001600160a01b031661024f565b61021a610bea565b61040f61040a3660046122cd565b610c17565b6040516102099190612856565b61023a61042a3660046123d2565b610c3b565b61021a61043d3660046125cf565b610c49565b61023a61045036600461243a565b610c97565b6101fd6104633660046122e8565b600092915050565b61023a6104793660046122cd565b610ca1565b60006001600160e01b031982167f80ac58cd0000000000000000000000000000000000000000000000000000000014806104e157506001600160e01b031982167f5b5e139f00000000000000000000000000000000000000000000000000000000145b806104f057506104f082610d8a565b92915050565b606060006104f07fdeba1e292f8ba88238e10ab3c7f88bd4be4fac56cad5194b6ecceaf653468af1610dc8565b600061052f6001610e6a565b90508015610547576000805461ff0019166101001790555b610552848484610fa3565b8015610598576000805461ff0019169055604051600181527f7f26b83ff96e1f2b6a682f133852f6798a09c465da95921460cefb38474024989060200160405180910390a15b50505050565b6000816105aa81611019565b6000818152600560205260408120906105c282611051565b9050806105d457506000949350505050565b6105e96105e26001836129b1565b839061105b565b95945050505050565b6105fc8282610c97565b806001600160a01b0383166106108261081e565b6001600160a01b03167f8c5be1e5ebec7d5bd14f71427d1e84f3dd0314c0f7b2291e5b200ac8c7c3b92560405160405180910390a45050565b60006106548261081e565b9050336001600160a01b038216811461069f57604051632d938f5160e11b81526001600160a01b03808416600483015260248201859052821660448201526064015b60405180910390fd5b6001600160a01b0384166106c657604051639577b8b360e01b815260040160405180910390fd5b836001600160a01b0316826001600160a01b031614156106e65750505050565b610598848385611067565b6000546001600160a01b03620100009091041633146107525760405162461bcd60e51b815260206004820181905260248201527f4f776e61626c653a2063616c6c6572206973206e6f7420746865206f776e65726044820152606401610696565b80518251146107c95760405162461bcd60e51b815260206004820152602660248201527f4b657973206c656e677468206e6f7420657175616c20746f2076616c7565732060448201527f6c656e67746800000000000000000000000000000000000000000000000000006064820152608401610696565b60005b8251811015610819576108118382815181106107ea576107ea612a70565b602002602001015183838151811061080457610804612a70565b60200260200101516110c6565b6001016107cc565b505050565b6000818152600360205260408120546001600160a01b0316806104f057604051635747cd1b60e11b815260048101849052602401610696565b61081983838360001b600160405180602001604052806000815250610989565b600061088282611019565b61088c83836110d0565b9392505050565b61081983838360001b600060405180602001604052806000815250610989565b60606108be82611019565b60008281526005602052604090206104f090611119565b6060815167ffffffffffffffff8111156108f1576108f1612a86565b60405190808252806020026020018201604052801561092457816020015b606081526020019060019003908161090f5790505b50905060005b82518110156109835761095583828151811061094857610948612a70565b6020026020010151610dc8565b82828151811061096757610967612a70565b602002602001018190525061097c8160010190565b905061092a565b50919050565b3361099481856110d0565b6109dc576040517f1294d2a9000000000000000000000000000000000000000000000000000000008152600481018590526001600160a01b0382166024820152604401610696565b6109e98686868686611126565b505050505050565b60606104f082610dc8565b83518551141580610a0f57508251855114155b80610a1c57508051855114155b15610a53576040517f93a8311900000000000000000000000000000000000000000000000000000000815260040160405180910390fd5b60005b85518110156109e957610ad0868281518110610a7457610a74612a70565b6020026020010151868381518110610a8e57610a8e612a70565b6020026020010151868481518110610aa857610aa8612a70565b602002602001015186868681518110610ac357610ac3612a70565b6020026020010151610989565b80610ada81612a29565b915050610a56565b60006104f08261081e565b6001600160a01b03811660009081526004602052604081206104f090611051565b6000546001600160a01b0362010000909104163314610b6f5760405162461bcd60e51b815260206004820181905260248201527f4f776e61626c653a2063616c6c6572206973206e6f7420746865206f776e65726044820152606401610696565b610b79600061113a565b565b6000546001600160a01b0362010000909104163314610bdc5760405162461bcd60e51b815260206004820181905260248201527f4f776e61626c653a2063616c6c6572206973206e6f7420746865206f776e65726044820152606401610696565b610be682826110c6565b5050565b606060006104f07f2f0a68ab07768e01943a599e73362a0e17a63a72e94dd2e384d2c1d4db932756610dc8565b6001600160a01b03811660009081526004602052604090206060906104f0906111c6565b610598848484600085610989565b60606000610c767f9afb95cacc9f95858ec44aa8c3b685511002e30ae54415823f406128b85b238e610dc8565b905060006024905060006105e98383848651610c9291906129b1565b6111d1565b610be682826112f9565b6000546001600160a01b0362010000909104163314610d025760405162461bcd60e51b815260206004820181905260248201527f4f776e61626c653a2063616c6c6572206973206e6f7420746865206f776e65726044820152606401610696565b6001600160a01b038116610d7e5760405162461bcd60e51b815260206004820152602660248201527f4f776e61626c653a206e6577206f776e657220697320746865207a65726f206160448201527f64647265737300000000000000000000000000000000000000000000000000006064820152608401610696565b610d878161113a565b50565b60006001600160e01b031982167f493991450000000000000000000000000000000000000000000000000000000014806104f057506104f082611344565b6000818152600160205260409020805460609190610de5906129f4565b80601f0160208091040260200160405190810160405280929190818152602001828054610e11906129f4565b8015610e5e5780601f10610e3357610100808354040283529160200191610e5e565b820191906000526020600020905b815481529060010190602001808311610e4157829003601f168201915b50505050509050919050565b60008054610100900460ff1615610f07578160ff166001148015610e8d5750303b155b610eff5760405162461bcd60e51b815260206004820152602e60248201527f496e697469616c697a61626c653a20636f6e747261637420697320616c72656160448201527f647920696e697469616c697a65640000000000000000000000000000000000006064820152608401610696565b506000919050565b60005460ff808416911610610f845760405162461bcd60e51b815260206004820152602e60248201527f496e697469616c697a61626c653a20636f6e747261637420697320616c72656160448201527f647920696e697469616c697a65640000000000000000000000000000000000006064820152608401610696565b506000805460ff191660ff92909216919091179055600190565b919050565b600054610100900460ff1661100e5760405162461bcd60e51b815260206004820152602b60248201527f496e697469616c697a61626c653a20636f6e7472616374206973206e6f74206960448201526a6e697469616c697a696e6760a81b6064820152608401610696565b610819838383611392565b6000818152600360205260409020546001600160a01b0316610d8757604051635747cd1b60e11b815260048101829052602401610696565b60006104f0825490565b600061088c8383611408565b600081815260056020526040902061107f9084611432565b5080826001600160a01b0316846001600160a01b03167f17d5389f6ab6adb2647dfa0aa365c323d37adacc30b33a65310b6158ce1373d560405160405180910390a4505050565b610be68282611447565b6000806110dc8361081e565b9050806001600160a01b0316846001600160a01b0316148061111157506000838152600560205260409020611111908561157d565b949350505050565b6060600061088c8361159f565b61113385858585856115fa565b5050505050565b6000546001600160a01b03828116620100009092041614610d8757600080546001600160a01b03838116620100008181027fffffffffffffffffffff0000000000000000000000000000000000000000ffff851617855560405193049190911692909183917f8be0079c531659141344cd1fd0a4f28419497f9722a3daafe3b4186f6b6457e091a35050565b60606104f08261159f565b6060816111df81601f612999565b101561122d5760405162461bcd60e51b815260206004820152600e60248201527f736c6963655f6f766572666c6f770000000000000000000000000000000000006044820152606401610696565b6112378284612999565b845110156112875760405162461bcd60e51b815260206004820152601160248201527f736c6963655f6f75744f66426f756e64730000000000000000000000000000006044820152606401610696565b6060821580156112a657604051915060008252602082016040526112f0565b6040519150601f8416801560200281840101858101878315602002848b0101015b818310156112df5780518352602092830192016112c7565b5050858452601f01601f1916604052505b50949350505050565b611303828261167c565b6040805160208101839052016040516020818303038152906040528060200190518101906113319190612731565b826001600160a01b03166106108361081e565b60006001600160e01b031982167f714df77c0000000000000000000000000000000000000000000000000000000014806104f057506301ffc9a760e01b6001600160e01b03198316146104f0565b600054610100900460ff166113fd5760405162461bcd60e51b815260206004820152602b60248201527f496e697469616c697a61626c653a20636f6e7472616374206973206e6f74206960448201526a6e697469616c697a696e6760a81b6064820152608401610696565b610819838383611774565b600082600001828154811061141f5761141f612a70565b9060005260206000200154905092915050565b600061088c836001600160a01b03841661189e565b7fdeba1e292f8ba88238e10ab3c7f88bd4be4fac56cad5194b6ecceaf653468af18214156114dd5760405162461bcd60e51b815260206004820152602d60248201527f4c5350343a2063616e6e6f74206564697420546f6b656e204e616d652061667460448201527f6572206465706c6f796d656e74000000000000000000000000000000000000006064820152608401610696565b7f2f0a68ab07768e01943a599e73362a0e17a63a72e94dd2e384d2c1d4db9327568214156115735760405162461bcd60e51b815260206004820152602f60248201527f4c5350343a2063616e6e6f74206564697420546f6b656e2053796d626f6c206160448201527f66746572206465706c6f796d656e7400000000000000000000000000000000006064820152608401610696565b610be68282611991565b6001600160a01b0381166000908152600183016020526040812054151561088c565b606081600001805480602002602001604051908101604052809291908181526020018280548015610e5e57602002820191906000526020600020905b8154815260200190600101908083116115db5750505050509050919050565b61160785858585856119e0565b6040805160208101859052016040516020818303038152906040528060200190518101906116359190612731565b846001600160a01b0316866001600160a01b03167fddf252ad1be2c89b69c2b068fc378daa952ba7f163c4a11628f55a4df523b3ef60405160405180910390a45050505050565b60006116878261081e565b9050336001600160a01b03821681146116cd57604051632d938f5160e11b81526001600160a01b0380841660048301526024820185905282166044820152606401610696565b6001600160a01b0384166116f457604051639577b8b360e01b815260040160405180910390fd5b836001600160a01b0316826001600160a01b031614156117145750505050565b600083815260056020526040902061172c9085611b7d565b5082826001600160a01b0316856001600160a01b03167f34b797fc5a526f7bf1d2b5de25f6564fd85ae364e3ee939aee7c1ac27871a98860405160405180910390a450505050565b600054610100900460ff166117df5760405162461bcd60e51b815260206004820152602b60248201527f496e697469616c697a61626c653a20636f6e7472616374206973206e6f74206960448201526a6e697469616c697a696e6760a81b6064820152608401610696565b6117e881611b92565b61184a7feafec4d89fa9619884b60000a4d96624a38f7ac2d8d9a604ecf07c12c77e480c60001b6040518060400160405280600481526020017fa4d9662400000000000000000000000000000000000000000000000000000000815250611991565b6118747fdeba1e292f8ba88238e10ab3c7f88bd4be4fac56cad5194b6ecceaf653468af184611991565b6108197f2f0a68ab07768e01943a599e73362a0e17a63a72e94dd2e384d2c1d4db93275683611991565b600081815260018301602052604081205480156119875760006118c26001836129b1565b85549091506000906118d6906001906129b1565b905081811461193b5760008660000182815481106118f6576118f6612a70565b906000526020600020015490508087600001848154811061191957611919612a70565b6000918252602080832090910192909255918252600188019052604090208390555b855486908061194c5761194c612a5a565b6001900381819060005260206000200160009055905585600101600086815260200190815260200160002060009055600193505050506104f0565b60009150506104f0565b600082815260016020908152604090912082516119b092840190612061565b5060405182907fcdf4e344c0d23d4cdd0474039d176c55b19d531070dbe17856bfb993a5b5720b90600090a25050565b60006119eb8461081e565b9050856001600160a01b0316816001600160a01b031614611a3957604051632d938f5160e11b81526001600160a01b0380831660048301526024820186905287166044820152606401610696565b6001600160a01b038516611a79576040517f24ecef4d00000000000000000000000000000000000000000000000000000000815260040160405180910390fd5b33611a85878787611bfd565b611a8f8786611c4f565b6001600160a01b0387166000908152600460205260409020611ab19086611ca0565b506001600160a01b0386166000908152600460205260409020611ad49086611cac565b506000858152600360205260409081902080547fffffffffffffffffffffffff0000000000000000000000000000000000000000166001600160a01b0389811691821790925591518792918a16907fb333c813a7426a7a11e2b190cad52c44119421594b47f6f32ace6d8c7207b2bf90611b539086908a908a906127df565b60405180910390a4611b6787878786611cb8565b611b748787878787611d9b565b50505050505050565b600061088c836001600160a01b038416611f14565b600054610100900460ff16610d7e5760405162461bcd60e51b815260206004820152602b60248201527f496e697469616c697a61626c653a20636f6e7472616374206973206e6f74206960448201526a6e697469616c697a696e6760a81b6064820152608401610696565b6001600160a01b038316611c2457600160026000828254611c1e9190612999565b90915550505b6001600160a01b03821661081957600160026000828254611c4591906129b1565b9091555050505050565b600081815260056020526040812090611c6782611051565b905060005b81811015611133576000611c80848261105b565b9050611c8d818787611067565b5080611c9881612a29565b915050611c6c565b600061088c838361189e565b600061088c8383611f14565b611cc984631aed5a8560e21b611f63565b1561059857600084848484604051602001611ce79493929190612776565b60408051601f1981840301815290829052631aed5a8560e21b825291506001600160a01b03861690636bb56a1490611d45907f3724c94f0815e936299cca424da4140752198e0beb7931a6e0925d11bc97544c9085906004016128f0565b600060405180830381600087803b158015611d5f57600080fd5b505af1158015611d73573d6000803e3d6000fd5b505050506040513d6000823e601f3d908101601f191682016040526109e9919081019061264f565b611dac84631aed5a8560e21b611f63565b15611e8557600085858584604051602001611dca9493929190612776565b60408051601f1981840301815290829052631aed5a8560e21b825291506001600160a01b03861690636bb56a1490611e28907fc7a120a42b6057a0cbed111fbbfbd52fcd96748c04394f77fc2c3adbe0391e019085906004016128f0565b600060405180830381600087803b158015611e4257600080fd5b505af1158015611e56573d6000803e3d6000fd5b505050506040513d6000823e601f3d908101601f19168201604052611e7e919081019061264f565b5050611133565b81611133576001600160a01b0384163b15611ed7576040517f4349776d0000000000000000000000000000000000000000000000000000000081526001600160a01b0385166004820152602401610696565b6040517f031731370000000000000000000000000000000000000000000000000000000081526001600160a01b0385166004820152602401610696565b6000818152600183016020526040812054611f5b575081546001818101845560008481526020808220909301849055845484825282860190935260409020919091556104f0565b5060006104f0565b604080516001600160e01b0319831660248083019190915282518083039091018152604490910182526020810180517bffffffffffffffffffffffffffffffffffffffffffffffffffffffff166301ffc9a760e01b179052905160009190829081906001600160a01b0387169061753090611fdf9086906127c3565b6000604051808303818686fa925050503d806000811461201b576040519150601f19603f3d011682016040523d82523d6000602084013e612020565b606091505b509150915060208151101561203b57600093505050506104f0565b81801561205757508080602001905181019061205791906125b2565b9695505050505050565b82805461206d906129f4565b90600052602060002090601f01602090048101928261208f57600085556120d5565b82601f106120a857805160ff19168380011785556120d5565b828001600101855582156120d5579182015b828111156120d55782518255916020019190600101906120ba565b506120e19291506120e5565b5090565b5b808211156120e157600081556001016120e6565b80356001600160a01b0381168114610f9e57600080fd5b600082601f83011261212257600080fd5b813560206121376121328361294d565b61291c565b80838252828201915082860187848660051b890101111561215757600080fd5b60005b8581101561217d5761216b826120fa565b8452928401929084019060010161215a565b5090979650505050505050565b600082601f83011261219b57600080fd5b813560206121ab6121328361294d565b80838252828201915082860187848660051b89010111156121cb57600080fd5b60005b8581101561217d578135845292840192908401906001016121ce565b600082601f8301126121fb57600080fd5b8135602061220b6121328361294d565b80838252828201915082860187848660051b890101111561222b57600080fd5b6000805b8681101561226e57823567ffffffffffffffff81111561224d578283fd5b61225b8b88838d010161227c565b865250938501939185019160010161222f565b509198975050505050505050565b600082601f83011261228d57600080fd5b813561229b61213282612971565b8181528460208386010111156122b057600080fd5b816020850160208301376000918101602001919091529392505050565b6000602082840312156122df57600080fd5b61088c826120fa565b600080604083850312156122fb57600080fd5b612304836120fa565b9150612312602084016120fa565b90509250929050565b600080600080600060a0868803121561233357600080fd5b61233c866120fa565b945061234a602087016120fa565b935060408601359250606086013561236181612a9c565b9150608086013567ffffffffffffffff81111561237d57600080fd5b6123898882890161227c565b9150509295509295909350565b6000806000606084860312156123ab57600080fd5b6123b4846120fa565b92506123c2602085016120fa565b9150604084013590509250925092565b600080600080608085870312156123e857600080fd5b6123f1856120fa565b93506123ff602086016120fa565b925060408501359150606085013567ffffffffffffffff81111561242257600080fd5b61242e8782880161227c565b91505092959194509250565b6000806040838503121561244d57600080fd5b612456836120fa565b946020939093013593505050565b600080600080600060a0868803121561247c57600080fd5b853567ffffffffffffffff8082111561249457600080fd5b6124a089838a01612111565b965060208801359150808211156124b657600080fd5b6124c289838a01612111565b955060408801359150808211156124d857600080fd5b6124e489838a0161218a565b9450606088013591506124f682612a9c565b9092506080870135908082111561250c57600080fd5b50612389888289016121ea565b60006020828403121561252b57600080fd5b813567ffffffffffffffff81111561254257600080fd5b6111118482850161218a565b6000806040838503121561256157600080fd5b823567ffffffffffffffff8082111561257957600080fd5b6125858683870161218a565b9350602085013591508082111561259b57600080fd5b506125a8858286016121ea565b9150509250929050565b6000602082840312156125c457600080fd5b815161088c81612a9c565b6000602082840312156125e157600080fd5b5035919050565b600080604083850312156125fb57600080fd5b82359150602083013567ffffffffffffffff81111561261957600080fd5b6125a88582860161227c565b60006020828403121561263757600080fd5b81356001600160e01b03198116811461088c57600080fd5b60006020828403121561266157600080fd5b815167ffffffffffffffff81111561267857600080fd5b8201601f8101841361268957600080fd5b805161269761213282612971565b8181528560208385010111156126ac57600080fd5b6105e98260208301602086016129c8565b6000806000606084860312156126d257600080fd5b833567ffffffffffffffff808211156126ea57600080fd5b6126f68783880161227c565b9450602086013591508082111561270c57600080fd5b506127198682870161227c565b925050612728604085016120fa565b90509250925092565b60006020828403121561274357600080fd5b5051919050565b600081518084526127628160208601602086016129c8565b601f01601f19169290920160200192915050565b60006bffffffffffffffffffffffff19808760601b168352808660601b1660148401525083602883015282516127b38160488501602087016129c8565b9190910160480195945050505050565b600082516127d58184602087016129c8565b9190910192915050565b6001600160a01b038416815282151560208201526060604082015260006105e9606083018461274a565b6020808252825182820181905260009190848201906040850190845b8181101561284a5783516001600160a01b031683529284019291840191600101612825565b50909695505050505050565b6020808252825182820181905260009190848201906040850190845b8181101561284a57835183529284019291840191600101612872565b6000602080830181845280855180835260408601915060408160051b870101925083870160005b828110156128e357603f198886030184526128d185835161274a565b945092850192908501906001016128b5565b5092979650505050505050565b828152604060208201526000611111604083018461274a565b60208152600061088c602083018461274a565b604051601f8201601f1916810167ffffffffffffffff8111828210171561294557612945612a86565b604052919050565b600067ffffffffffffffff82111561296757612967612a86565b5060051b60200190565b600067ffffffffffffffff82111561298b5761298b612a86565b50601f01601f191660200190565b600082198211156129ac576129ac612a44565b500190565b6000828210156129c3576129c3612a44565b500390565b60005b838110156129e35781810151838201526020016129cb565b838111156105985750506000910152565b600181811c90821680612a0857607f821691505b6020821081141561098357634e487b7160e01b600052602260045260246000fd5b6000600019821415612a3d57612a3d612a44565b5060010190565b634e487b7160e01b600052601160045260246000fd5b634e487b7160e01b600052603160045260246000fd5b634e487b7160e01b600052603260045260246000fd5b634e487b7160e01b600052604160045260246000fd5b8015158114610d8757600080fdfea264697066735822122033cc0eab0dcd5db77aa927ec41509d168bb9cd7324982bd9f2a3eff15f35499164736f6c63430008070033",
  "linkReferences": {},
  "deployedLinkReferences": {}
}