{
  "_format": "hh-sol-artifact-1",
  "contractName": "LSP8Mintable",
  "sourceName": "contracts/LSP8IdentifiableDigitalAsset/presets/LSP8Mintable.sol",
  "abi": [
    {
      "inputs": [
        {
          "internalType": "string",
          "name": "name_",
          "type": "string"
        },
        {
          "internalType": "string",
          "name": "symbol_",
          "type": "string"
        },
        {
          "internalType": "address",
          "name": "newOwner_",
          "type": "address"
        }
      ],
      "stateMutability": "nonpayable",
      "type": "constructor"
    },
    {
      "inputs": [],
      "name": "LSP8CannotSendToAddressZero",
      "type": "error"
    },
    {
      "inputs": [],
      "name": "LSP8CannotUseAddressZeroAsOperator",
      "type": "error"
    },
    {
      "inputs": [],
      "name": "LSP8InvalidTransferBatch",
      "type": "error"
    },
    {
      "inputs": [
        {
          "internalType": "bytes32",
          "name": "tokenId",
          "type": "bytes32"
        }
      ],
      "name": "LSP8NonExistentTokenId",
      "type": "error"
    },
    {
      "inputs": [
        {
          "internalType": "bytes32",
          "name": "tokenId",
          "type": "bytes32"
        },
        {
          "internalType": "address",
          "name": "caller",
          "type": "address"
        }
      ],
      "name": "LSP8NotTokenOperator",
      "type": "error"
    },
    {
      "inputs": [
        {
          "internalType": "address",
          "name": "tokenOwner",
          "type": "address"
        },
        {
          "internalType": "bytes32",
          "name": "tokenId",
          "type": "bytes32"
        },
        {
          "internalType": "address",
          "name": "caller",
          "type": "address"
        }
      ],
      "name": "LSP8NotTokenOwner",
      "type": "error"
    },
    {
      "inputs": [
        {
          "internalType": "address",
          "name": "tokenReceiver",
          "type": "address"
        }
      ],
      "name": "LSP8NotifyTokenReceiverContractMissingLSP1Interface",
      "type": "error"
    },
    {
      "inputs": [
        {
          "internalType": "address",
          "name": "tokenReceiver",
          "type": "address"
        }
      ],
      "name": "LSP8NotifyTokenReceiverIsEOA",
      "type": "error"
    },
    {
      "inputs": [
        {
          "internalType": "bytes32",
          "name": "tokenId",
          "type": "bytes32"
        }
      ],
      "name": "LSP8TokenIdAlreadyMinted",
      "type": "error"
    },
    {
      "anonymous": false,
      "inputs": [
        {
          "indexed": true,
          "internalType": "address",
          "name": "operator",
          "type": "address"
        },
        {
          "indexed": true,
          "internalType": "address",
          "name": "tokenOwner",
          "type": "address"
        },
        {
          "indexed": true,
          "internalType": "bytes32",
          "name": "tokenId",
          "type": "bytes32"
        }
      ],
      "name": "AuthorizedOperator",
      "type": "event"
    },
    {
      "anonymous": false,
      "inputs": [
        {
          "indexed": true,
          "internalType": "bytes32",
          "name": "key",
          "type": "bytes32"
        }
      ],
      "name": "DataChanged",
      "type": "event"
    },
    {
      "anonymous": false,
      "inputs": [
        {
          "indexed": true,
          "internalType": "address",
          "name": "previousOwner",
          "type": "address"
        },
        {
          "indexed": true,
          "internalType": "address",
          "name": "newOwner",
          "type": "address"
        }
      ],
      "name": "OwnershipTransferred",
      "type": "event"
    },
    {
      "anonymous": false,
      "inputs": [
        {
          "indexed": true,
          "internalType": "address",
          "name": "operator",
          "type": "address"
        },
        {
          "indexed": true,
          "internalType": "address",
          "name": "tokenOwner",
          "type": "address"
        },
        {
          "indexed": true,
          "internalType": "bytes32",
          "name": "tokenId",
          "type": "bytes32"
        }
      ],
      "name": "RevokedOperator",
      "type": "event"
    },
    {
      "anonymous": false,
      "inputs": [
        {
          "indexed": false,
          "internalType": "address",
          "name": "operator",
          "type": "address"
        },
        {
          "indexed": true,
          "internalType": "address",
          "name": "from",
          "type": "address"
        },
        {
          "indexed": true,
          "internalType": "address",
          "name": "to",
          "type": "address"
        },
        {
          "indexed": true,
          "internalType": "bytes32",
          "name": "tokenId",
          "type": "bytes32"
        },
        {
          "indexed": false,
          "internalType": "bool",
          "name": "force",
          "type": "bool"
        },
        {
          "indexed": false,
          "internalType": "bytes",
          "name": "data",
          "type": "bytes"
        }
      ],
      "name": "Transfer",
      "type": "event"
    },
    {
      "inputs": [
        {
          "internalType": "address",
          "name": "operator",
          "type": "address"
        },
        {
          "internalType": "bytes32",
          "name": "tokenId",
          "type": "bytes32"
        }
      ],
      "name": "authorizeOperator",
      "outputs": [],
      "stateMutability": "nonpayable",
      "type": "function"
    },
    {
      "inputs": [
        {
          "internalType": "address",
          "name": "tokenOwner",
          "type": "address"
        }
      ],
      "name": "balanceOf",
      "outputs": [
        {
          "internalType": "uint256",
          "name": "",
          "type": "uint256"
        }
      ],
      "stateMutability": "view",
      "type": "function"
    },
    {
      "inputs": [
        {
          "internalType": "bytes32[]",
          "name": "keys",
          "type": "bytes32[]"
        }
      ],
      "name": "getData",
      "outputs": [
        {
          "internalType": "bytes[]",
          "name": "values",
          "type": "bytes[]"
        }
      ],
      "stateMutability": "view",
      "type": "function"
    },
    {
      "inputs": [
        {
          "internalType": "bytes32",
          "name": "key",
          "type": "bytes32"
        }
      ],
      "name": "getData",
      "outputs": [
        {
          "internalType": "bytes",
          "name": "value",
          "type": "bytes"
        }
      ],
      "stateMutability": "view",
      "type": "function"
    },
    {
      "inputs": [
        {
          "internalType": "bytes32",
          "name": "tokenId",
          "type": "bytes32"
        }
      ],
      "name": "getOperatorsOf",
      "outputs": [
        {
          "internalType": "address[]",
          "name": "",
          "type": "address[]"
        }
      ],
      "stateMutability": "view",
      "type": "function"
    },
    {
      "inputs": [
        {
          "internalType": "address",
          "name": "operator",
          "type": "address"
        },
        {
          "internalType": "bytes32",
          "name": "tokenId",
          "type": "bytes32"
        }
      ],
      "name": "isOperatorFor",
      "outputs": [
        {
          "internalType": "bool",
          "name": "",
          "type": "bool"
        }
      ],
      "stateMutability": "view",
      "type": "function"
    },
    {
      "inputs": [
        {
          "internalType": "address",
          "name": "to",
          "type": "address"
        },
        {
          "internalType": "bytes32",
          "name": "tokenId",
          "type": "bytes32"
        },
        {
          "internalType": "bool",
          "name": "force",
          "type": "bool"
        },
        {
          "internalType": "bytes",
          "name": "data",
          "type": "bytes"
        }
      ],
      "name": "mint",
      "outputs": [],
      "stateMutability": "nonpayable",
      "type": "function"
    },
    {
      "inputs": [],
      "name": "owner",
      "outputs": [
        {
          "internalType": "address",
          "name": "",
          "type": "address"
        }
      ],
      "stateMutability": "view",
      "type": "function"
    },
    {
      "inputs": [],
      "name": "renounceOwnership",
      "outputs": [],
      "stateMutability": "nonpayable",
      "type": "function"
    },
    {
      "inputs": [
        {
          "internalType": "address",
          "name": "operator",
          "type": "address"
        },
        {
          "internalType": "bytes32",
          "name": "tokenId",
          "type": "bytes32"
        }
      ],
      "name": "revokeOperator",
      "outputs": [],
      "stateMutability": "nonpayable",
      "type": "function"
    },
    {
      "inputs": [
        {
          "internalType": "bytes32[]",
          "name": "keys",
          "type": "bytes32[]"
        },
        {
          "internalType": "bytes[]",
          "name": "values",
          "type": "bytes[]"
        }
      ],
      "name": "setData",
      "outputs": [],
      "stateMutability": "nonpayable",
      "type": "function"
    },
    {
      "inputs": [
        {
          "internalType": "bytes32",
          "name": "key",
          "type": "bytes32"
        },
        {
          "internalType": "bytes",
          "name": "value",
          "type": "bytes"
        }
      ],
      "name": "setData",
      "outputs": [],
      "stateMutability": "nonpayable",
      "type": "function"
    },
    {
      "inputs": [
        {
          "internalType": "bytes4",
          "name": "interfaceId",
          "type": "bytes4"
        }
      ],
      "name": "supportsInterface",
      "outputs": [
        {
          "internalType": "bool",
          "name": "",
          "type": "bool"
        }
      ],
      "stateMutability": "view",
      "type": "function"
    },
    {
      "inputs": [
        {
          "internalType": "address",
          "name": "tokenOwner",
          "type": "address"
        }
      ],
      "name": "tokenIdsOf",
      "outputs": [
        {
          "internalType": "bytes32[]",
          "name": "",
          "type": "bytes32[]"
        }
      ],
      "stateMutability": "view",
      "type": "function"
    },
    {
      "inputs": [
        {
          "internalType": "bytes32",
          "name": "tokenId",
          "type": "bytes32"
        }
      ],
      "name": "tokenOwnerOf",
      "outputs": [
        {
          "internalType": "address",
          "name": "",
          "type": "address"
        }
      ],
      "stateMutability": "view",
      "type": "function"
    },
    {
      "inputs": [],
      "name": "totalSupply",
      "outputs": [
        {
          "internalType": "uint256",
          "name": "",
          "type": "uint256"
        }
      ],
      "stateMutability": "view",
      "type": "function"
    },
    {
      "inputs": [
        {
          "internalType": "address",
          "name": "from",
          "type": "address"
        },
        {
          "internalType": "address",
          "name": "to",
          "type": "address"
        },
        {
          "internalType": "bytes32",
          "name": "tokenId",
          "type": "bytes32"
        },
        {
          "internalType": "bool",
          "name": "force",
          "type": "bool"
        },
        {
          "internalType": "bytes",
          "name": "data",
          "type": "bytes"
        }
      ],
      "name": "transfer",
      "outputs": [],
      "stateMutability": "nonpayable",
      "type": "function"
    },
    {
      "inputs": [
        {
          "internalType": "address[]",
          "name": "from",
          "type": "address[]"
        },
        {
          "internalType": "address[]",
          "name": "to",
          "type": "address[]"
        },
        {
          "internalType": "bytes32[]",
          "name": "tokenId",
          "type": "bytes32[]"
        },
        {
          "internalType": "bool",
          "name": "force",
          "type": "bool"
        },
        {
          "internalType": "bytes[]",
          "name": "data",
          "type": "bytes[]"
        }
      ],
      "name": "transferBatch",
      "outputs": [],
      "stateMutability": "nonpayable",
      "type": "function"
    },
    {
      "inputs": [
        {
          "internalType": "address",
          "name": "newOwner",
          "type": "address"
        }
      ],
      "name": "transferOwnership",
      "outputs": [],
      "stateMutability": "nonpayable",
      "type": "function"
    }
  ],
  "bytecode": "0x60806040523480156200001157600080fd5b506040516200259038038062002590833981016040819052620000349162000340565b8282828282828062000051816200012b60201b62000b031760201c565b50620000a87feafec4d89fa9619884b60000a4d96624a38f7ac2d8d9a604ecf07c12c77e480c60001b604051806040016040528060048152602001632936598960e21b8152506200019260201b62000b751760201c565b620000e27fdeba1e292f8ba88238e10ab3c7f88bd4be4fac56cad5194b6ecceaf653468af160001b846200019260201b62000b751760201c565b6200011c7f2f0a68ab07768e01943a599e73362a0e17a63a72e94dd2e384d2c1d4db93275660001b836200019260201b62000b751760201c565b50505050505050505062000420565b6000546001600160a01b038281169116146200018f57600080546001600160a01b038381166001600160a01b0319831681178455604051919092169283917f8be0079c531659141344cd1fd0a4f28419497f9722a3daafe3b4186f6b6457e09190a3505b50565b60008281526001602090815260409091208251620001b392840190620001e3565b5060405182907fcdf4e344c0d23d4cdd0474039d176c55b19d531070dbe17856bfb993a5b5720b90600090a25050565b828054620001f190620003cd565b90600052602060002090601f01602090048101928262000215576000855562000260565b82601f106200023057805160ff191683800117855562000260565b8280016001018555821562000260579182015b828111156200026057825182559160200191906001019062000243565b506200026e92915062000272565b5090565b5b808211156200026e576000815560010162000273565b600082601f8301126200029b57600080fd5b81516001600160401b0380821115620002b857620002b86200040a565b604051601f8301601f19908116603f01168101908282118183101715620002e357620002e36200040a565b816040528381526020925086838588010111156200030057600080fd5b600091505b8382101562000324578582018301518183018401529082019062000305565b83821115620003365760008385830101525b9695505050505050565b6000806000606084860312156200035657600080fd5b83516001600160401b03808211156200036e57600080fd5b6200037c8783880162000289565b945060208601519150808211156200039357600080fd5b50620003a28682870162000289565b604086015190935090506001600160a01b0381168114620003c257600080fd5b809150509250925092565b600181811c90821680620003e257607f821691505b602082108114156200040457634e487b7160e01b600052602260045260246000fd5b50919050565b634e487b7160e01b600052604160045260246000fd5b61216080620004306000396000f3fe608060405234801561001057600080fd5b50600436106101515760003560e01c806354f6127f116100cd5780638da5cb5b11610081578063af255b6111610066578063af255b61146102db578063cf5182ba146102ee578063f2fde38b1461030157600080fd5b80638da5cb5b146102aa578063a3b261f2146102bb57600080fd5b806370a08231116100b257806370a082311461027c578063715018a61461028f5780637f23690c1461029757600080fd5b806354f6127f14610249578063559088681461026957600080fd5b8063217b22701161012457806349a6078d1161010957806349a6078d146101f65780634e3e6e9c14610216578063511b69521461023657600080fd5b8063217b2270146101b85780632a3654a4146101e357600080fd5b806301ffc9a7146101565780630b0c6d821461017e57806314a6e2931461019357806318160ddd146101a6575b600080fd5b610169610164366004611d29565b610314565b60405190151581526020015b60405180910390f35b61019161018c366004611ad4565b610358565b005b6101916101a1366004611c52565b610406565b6002545b604051908152602001610175565b6101cb6101c6366004611cd3565b61052c565b6040516001600160a01b039091168152602001610175565b6101696101f1366004611ad4565b610565565b610209610204366004611cd3565b610581565b6040516101759190611e89565b610229610224366004611c1d565b6105a3565b6040516101759190611f0e565b610191610244366004611a59565b610657565b61025c610257366004611cd3565b6106bf565b6040516101759190611f89565b610191610277366004611b68565b6106ca565b6101aa61028a366004611a3e565b6107b0565b6101916107d1565b6101916102a5366004611cec565b610837565b6000546001600160a01b03166101cb565b6102ce6102c9366004611a3e565b61089f565b6040516101759190611ed6565b6101916102e9366004611afe565b6108c3565b6101916102fc366004611ad4565b610929565b61019161030f366004611a3e565b610a21565b60006001600160e01b031982167f49399145000000000000000000000000000000000000000000000000000000001480610352575061035282610bc4565b92915050565b60006103638261052c565b9050336001600160a01b03821681146103ae57604051632d938f5160e11b81526001600160a01b03808416600483015260248201859052821660448201526064015b60405180910390fd5b6001600160a01b0384166103d557604051639577b8b360e01b815260040160405180910390fd5b836001600160a01b0316826001600160a01b031614156103f55750505050565b610400848385610c12565b50505050565b6000546001600160a01b031633146104605760405162461bcd60e51b815260206004820181905260248201527f4f776e61626c653a2063616c6c6572206973206e6f7420746865206f776e657260448201526064016103a5565b80518251146104d75760405162461bcd60e51b815260206004820152602660248201527f4b657973206c656e677468206e6f7420657175616c20746f2076616c7565732060448201527f6c656e677468000000000000000000000000000000000000000000000000000060648201526084016103a5565b60005b82518110156105275761051f8382815181106104f8576104f86120f0565b6020026020010151838381518110610512576105126120f0565b6020026020010151610c71565b6001016104da565b505050565b6000818152600360205260408120546001600160a01b03168061035257604051635747cd1b60e11b8152600481018490526024016103a5565b600061057082610da7565b61057a8383610ddf565b9392505050565b606061058c82610da7565b600082815260056020526040902061035290610e28565b6060815167ffffffffffffffff8111156105bf576105bf612106565b6040519080825280602002602001820160405280156105f257816020015b60608152602001906001900390816105dd5790505b50905060005b825181101561065157610623838281518110610616576106166120f0565b6020026020010151610e35565b828281518110610635576106356120f0565b602002602001018190525061064a8160010190565b90506105f8565b50919050565b336106628185610ddf565b6106aa576040517f1294d2a9000000000000000000000000000000000000000000000000000000008152600481018590526001600160a01b03821660248201526044016103a5565b6106b78686868686610ed7565b505050505050565b606061035282610e35565b835185511415806106dd57508251855114155b806106ea57508051855114155b15610721576040517f93a8311900000000000000000000000000000000000000000000000000000000815260040160405180910390fd5b60005b85518110156106b75761079e868281518110610742576107426120f0565b602002602001015186838151811061075c5761075c6120f0565b6020026020010151868481518110610776576107766120f0565b602002602001015186868681518110610791576107916120f0565b6020026020010151610657565b806107a8816120a9565b915050610724565b6001600160a01b038116600090815260046020526040812061035290611050565b6000546001600160a01b0316331461082b5760405162461bcd60e51b815260206004820181905260248201527f4f776e61626c653a2063616c6c6572206973206e6f7420746865206f776e657260448201526064016103a5565b6108356000610b03565b565b6000546001600160a01b031633146108915760405162461bcd60e51b815260206004820181905260248201527f4f776e61626c653a2063616c6c6572206973206e6f7420746865206f776e657260448201526064016103a5565b61089b8282610c71565b5050565b6001600160a01b03811660009081526004602052604090206060906103529061105a565b6000546001600160a01b0316331461091d5760405162461bcd60e51b815260206004820181905260248201527f4f776e61626c653a2063616c6c6572206973206e6f7420746865206f776e657260448201526064016103a5565b61040084848484611065565b60006109348261052c565b9050336001600160a01b038216811461097a57604051632d938f5160e11b81526001600160a01b03808416600483015260248201859052821660448201526064016103a5565b6001600160a01b0384166109a157604051639577b8b360e01b815260040160405180910390fd5b836001600160a01b0316826001600160a01b031614156109c15750505050565b60008381526005602052604090206109d99085611199565b5082826001600160a01b0316856001600160a01b03167f34b797fc5a526f7bf1d2b5de25f6564fd85ae364e3ee939aee7c1ac27871a98860405160405180910390a450505050565b6000546001600160a01b03163314610a7b5760405162461bcd60e51b815260206004820181905260248201527f4f776e61626c653a2063616c6c6572206973206e6f7420746865206f776e657260448201526064016103a5565b6001600160a01b038116610af75760405162461bcd60e51b815260206004820152602660248201527f4f776e61626c653a206e6577206f776e657220697320746865207a65726f206160448201527f646472657373000000000000000000000000000000000000000000000000000060648201526084016103a5565b610b0081610b03565b50565b6000546001600160a01b03828116911614610b0057600080546001600160a01b0383811673ffffffffffffffffffffffffffffffffffffffff19831681178455604051919092169283917f8be0079c531659141344cd1fd0a4f28419497f9722a3daafe3b4186f6b6457e09190a35050565b60008281526001602090815260409091208251610b94928401906117cd565b5060405182907fcdf4e344c0d23d4cdd0474039d176c55b19d531070dbe17856bfb993a5b5720b90600090a25050565b60006001600160e01b031982167f714df77c00000000000000000000000000000000000000000000000000000000148061035257506301ffc9a760e01b6001600160e01b0319831614610352565b6000818152600560205260409020610c2a90846111ae565b5080826001600160a01b0316846001600160a01b03167f17d5389f6ab6adb2647dfa0aa365c323d37adacc30b33a65310b6158ce1373d560405160405180910390a4505050565b7fdeba1e292f8ba88238e10ab3c7f88bd4be4fac56cad5194b6ecceaf653468af1821415610d075760405162461bcd60e51b815260206004820152602d60248201527f4c5350343a2063616e6e6f74206564697420546f6b656e204e616d652061667460448201527f6572206465706c6f796d656e740000000000000000000000000000000000000060648201526084016103a5565b7f2f0a68ab07768e01943a599e73362a0e17a63a72e94dd2e384d2c1d4db932756821415610d9d5760405162461bcd60e51b815260206004820152602f60248201527f4c5350343a2063616e6e6f74206564697420546f6b656e2053796d626f6c206160448201527f66746572206465706c6f796d656e74000000000000000000000000000000000060648201526084016103a5565b61089b8282610b75565b6000818152600360205260409020546001600160a01b0316610b0057604051635747cd1b60e11b8152600481018290526024016103a5565b600080610deb8361052c565b9050806001600160a01b0316846001600160a01b03161480610e2057506000838152600560205260409020610e2090856111c3565b949350505050565b6060600061057a836111e5565b6000818152600160205260409020805460609190610e5290612074565b80601f0160208091040260200160405190810160405280929190818152602001828054610e7e90612074565b8015610ecb5780601f10610ea057610100808354040283529160200191610ecb565b820191906000526020600020905b815481529060010190602001808311610eae57829003601f168201915b50505050509050919050565b6000610ee28461052c565b9050856001600160a01b0316816001600160a01b031614610f3057604051632d938f5160e11b81526001600160a01b03808316600483015260248201869052871660448201526064016103a5565b6001600160a01b038516610f57576040516324ecef4d60e01b815260040160405180910390fd5b33610f63878787611240565b610f6d8786611292565b6001600160a01b0387166000908152600460205260409020610f8f90866112e3565b506001600160a01b0386166000908152600460205260409020610fb290866112ef565b5060008581526003602052604090819020805473ffffffffffffffffffffffffffffffffffffffff19166001600160a01b0389811691821790925591518792918a16907fb333c813a7426a7a11e2b190cad52c44119421594b47f6f32ace6d8c7207b2bf906110269086908a908a90611e5f565b60405180910390a461103a878787866112fb565b61104787878787876113de565b50505050505050565b6000610352825490565b6060610352826111e5565b6001600160a01b03841661108c576040516324ecef4d60e01b815260040160405180910390fd5b6000838152600360205260409020546001600160a01b0316156110de576040517f34c7b511000000000000000000000000000000000000000000000000000000008152600481018490526024016103a5565b336110eb60008686611240565b6001600160a01b038516600090815260046020526040902061110d90856112ef565b50600084815260036020526040808220805473ffffffffffffffffffffffffffffffffffffffff19166001600160a01b03891690811790915590518692907fb333c813a7426a7a11e2b190cad52c44119421594b47f6f32ace6d8c7207b2bf9061117c90869089908990611e5f565b60405180910390a46111926000868686866113de565b5050505050565b600061057a836001600160a01b038416611557565b600061057a836001600160a01b0384166115a6565b6001600160a01b0381166000908152600183016020526040812054151561057a565b606081600001805480602002602001604051908101604052809291908181526020018280548015610ecb57602002820191906000526020600020905b8154815260200190600101908083116112215750505050509050919050565b6001600160a01b038316611267576001600260008282546112619190612019565b90915550505b6001600160a01b038216610527576001600260008282546112889190612031565b9091555050505050565b6000818152600560205260408120906112aa82611050565b905060005b818110156111925760006112c38482611699565b90506112d0818787610c12565b50806112db816120a9565b9150506112af565b600061057a83836115a6565b600061057a8383611557565b61130c84631aed5a8560e21b6116a5565b156104005760008484848460405160200161132a9493929190611df6565b60408051601f1981840301815290829052631aed5a8560e21b825291506001600160a01b03861690636bb56a1490611388907f3724c94f0815e936299cca424da4140752198e0beb7931a6e0925d11bc97544c908590600401611f70565b600060405180830381600087803b1580156113a257600080fd5b505af11580156113b6573d6000803e3d6000fd5b505050506040513d6000823e601f3d908101601f191682016040526106b79190810190611d53565b6113ef84631aed5a8560e21b6116a5565b156114c85760008585858460405160200161140d9493929190611df6565b60408051601f1981840301815290829052631aed5a8560e21b825291506001600160a01b03861690636bb56a149061146b907fc7a120a42b6057a0cbed111fbbfbd52fcd96748c04394f77fc2c3adbe0391e01908590600401611f70565b600060405180830381600087803b15801561148557600080fd5b505af1158015611499573d6000803e3d6000fd5b505050506040513d6000823e601f3d908101601f191682016040526114c19190810190611d53565b5050611192565b81611192576001600160a01b0384163b1561151a576040517f4349776d0000000000000000000000000000000000000000000000000000000081526001600160a01b03851660048201526024016103a5565b6040517f031731370000000000000000000000000000000000000000000000000000000081526001600160a01b03851660048201526024016103a5565b600081815260018301602052604081205461159e57508154600181810184556000848152602080822090930184905584548482528286019093526040902091909155610352565b506000610352565b6000818152600183016020526040812054801561168f5760006115ca600183612031565b85549091506000906115de90600190612031565b90508181146116435760008660000182815481106115fe576115fe6120f0565b9060005260206000200154905080876000018481548110611621576116216120f0565b6000918252602080832090910192909255918252600188019052604090208390555b8554869080611654576116546120da565b600190038181906000526020600020016000905590558560010160008681526020019081526020016000206000905560019350505050610352565b6000915050610352565b600061057a83836117a3565b604080516001600160e01b0319831660248083019190915282518083039091018152604490910182526020810180517bffffffffffffffffffffffffffffffffffffffffffffffffffffffff166301ffc9a760e01b179052905160009190829081906001600160a01b0387169061753090611721908690611e43565b6000604051808303818686fa925050503d806000811461175d576040519150601f19603f3d011682016040523d82523d6000602084013e611762565b606091505b509150915060208151101561177d5760009350505050610352565b8180156117995750808060200190518101906117999190611cb6565b9695505050505050565b60008260000182815481106117ba576117ba6120f0565b9060005260206000200154905092915050565b8280546117d990612074565b90600052602060002090601f0160209004810192826117fb5760008555611841565b82601f1061181457805160ff1916838001178555611841565b82800160010185558215611841579182015b82811115611841578251825591602001919060010190611826565b5061184d929150611851565b5090565b5b8082111561184d5760008155600101611852565b80356001600160a01b038116811461187d57600080fd5b919050565b600082601f83011261189357600080fd5b813560206118a86118a383611fcd565b611f9c565b80838252828201915082860187848660051b89010111156118c857600080fd5b60005b858110156118ee576118dc82611866565b845292840192908401906001016118cb565b5090979650505050505050565b600082601f83011261190c57600080fd5b8135602061191c6118a383611fcd565b80838252828201915082860187848660051b890101111561193c57600080fd5b60005b858110156118ee5781358452928401929084019060010161193f565b600082601f83011261196c57600080fd5b8135602061197c6118a383611fcd565b80838252828201915082860187848660051b890101111561199c57600080fd5b6000805b868110156119df57823567ffffffffffffffff8111156119be578283fd5b6119cc8b88838d01016119ed565b86525093850193918501916001016119a0565b509198975050505050505050565b600082601f8301126119fe57600080fd5b8135611a0c6118a382611ff1565b818152846020838601011115611a2157600080fd5b816020850160208301376000918101602001919091529392505050565b600060208284031215611a5057600080fd5b61057a82611866565b600080600080600060a08688031215611a7157600080fd5b611a7a86611866565b9450611a8860208701611866565b9350604086013592506060860135611a9f8161211c565b9150608086013567ffffffffffffffff811115611abb57600080fd5b611ac7888289016119ed565b9150509295509295909350565b60008060408385031215611ae757600080fd5b611af083611866565b946020939093013593505050565b60008060008060808587031215611b1457600080fd5b611b1d85611866565b9350602085013592506040850135611b348161211c565b9150606085013567ffffffffffffffff811115611b5057600080fd5b611b5c878288016119ed565b91505092959194509250565b600080600080600060a08688031215611b8057600080fd5b853567ffffffffffffffff80821115611b9857600080fd5b611ba489838a01611882565b96506020880135915080821115611bba57600080fd5b611bc689838a01611882565b95506040880135915080821115611bdc57600080fd5b611be889838a016118fb565b945060608801359150611bfa8261211c565b90925060808701359080821115611c1057600080fd5b50611ac78882890161195b565b600060208284031215611c2f57600080fd5b813567ffffffffffffffff811115611c4657600080fd5b610e20848285016118fb565b60008060408385031215611c6557600080fd5b823567ffffffffffffffff80821115611c7d57600080fd5b611c89868387016118fb565b93506020850135915080821115611c9f57600080fd5b50611cac8582860161195b565b9150509250929050565b600060208284031215611cc857600080fd5b815161057a8161211c565b600060208284031215611ce557600080fd5b5035919050565b60008060408385031215611cff57600080fd5b82359150602083013567ffffffffffffffff811115611d1d57600080fd5b611cac858286016119ed565b600060208284031215611d3b57600080fd5b81356001600160e01b03198116811461057a57600080fd5b600060208284031215611d6557600080fd5b815167ffffffffffffffff811115611d7c57600080fd5b8201601f81018413611d8d57600080fd5b8051611d9b6118a382611ff1565b818152856020838501011115611db057600080fd5b611dc1826020830160208601612048565b95945050505050565b60008151808452611de2816020860160208601612048565b601f01601f19169290920160200192915050565b60006bffffffffffffffffffffffff19808760601b168352808660601b166014840152508360288301528251611e33816048850160208701612048565b9190910160480195945050505050565b60008251611e55818460208701612048565b9190910192915050565b6001600160a01b03841681528215156020820152606060408201526000611dc16060830184611dca565b6020808252825182820181905260009190848201906040850190845b81811015611eca5783516001600160a01b031683529284019291840191600101611ea5565b50909695505050505050565b6020808252825182820181905260009190848201906040850190845b81811015611eca57835183529284019291840191600101611ef2565b6000602080830181845280855180835260408601915060408160051b870101925083870160005b82811015611f6357603f19888603018452611f51858351611dca565b94509285019290850190600101611f35565b5092979650505050505050565b828152604060208201526000610e206040830184611dca565b60208152600061057a6020830184611dca565b604051601f8201601f1916810167ffffffffffffffff81118282101715611fc557611fc5612106565b604052919050565b600067ffffffffffffffff821115611fe757611fe7612106565b5060051b60200190565b600067ffffffffffffffff82111561200b5761200b612106565b50601f01601f191660200190565b6000821982111561202c5761202c6120c4565b500190565b600082821015612043576120436120c4565b500390565b60005b8381101561206357818101518382015260200161204b565b838111156104005750506000910152565b600181811c9082168061208857607f821691505b6020821081141561065157634e487b7160e01b600052602260045260246000fd5b60006000198214156120bd576120bd6120c4565b5060010190565b634e487b7160e01b600052601160045260246000fd5b634e487b7160e01b600052603160045260246000fd5b634e487b7160e01b600052603260045260246000fd5b634e487b7160e01b600052604160045260246000fd5b8015158114610b0057600080fdfea2646970667358221220b017d2d7974c88bc39848c113af51ea0bf7c2aeab5ed8fa863c46d4d14606c1c64736f6c63430008070033",
  "linkReferences": {},
  "deployedLinkReferences": {}
}