{
  "_format": "hh-sol-artifact-1",
  "contractName": "LSP8MintableInit",
  "sourceName": "contracts/LSP8IdentifiableDigitalAsset/presets/LSP8MintableInit.sol",
  "abi": [
    {
      "inputs": [],
      "name": "LSP8CannotSendToAddressZero",
      "type": "error"
    },
    {
      "inputs": [],
      "name": "LSP8CannotUseAddressZeroAsOperator",
      "type": "error"
    },
    {
      "inputs": [],
      "name": "LSP8InvalidTransferBatch",
      "type": "error"
    },
    {
      "inputs": [
        {
          "internalType": "bytes32",
          "name": "tokenId",
          "type": "bytes32"
        }
      ],
      "name": "LSP8NonExistentTokenId",
      "type": "error"
    },
    {
      "inputs": [
        {
          "internalType": "bytes32",
          "name": "tokenId",
          "type": "bytes32"
        },
        {
          "internalType": "address",
          "name": "caller",
          "type": "address"
        }
      ],
      "name": "LSP8NotTokenOperator",
      "type": "error"
    },
    {
      "inputs": [
        {
          "internalType": "address",
          "name": "tokenOwner",
          "type": "address"
        },
        {
          "internalType": "bytes32",
          "name": "tokenId",
          "type": "bytes32"
        },
        {
          "internalType": "address",
          "name": "caller",
          "type": "address"
        }
      ],
      "name": "LSP8NotTokenOwner",
      "type": "error"
    },
    {
      "inputs": [
        {
          "internalType": "address",
          "name": "tokenReceiver",
          "type": "address"
        }
      ],
      "name": "LSP8NotifyTokenReceiverContractMissingLSP1Interface",
      "type": "error"
    },
    {
      "inputs": [
        {
          "internalType": "address",
          "name": "tokenReceiver",
          "type": "address"
        }
      ],
      "name": "LSP8NotifyTokenReceiverIsEOA",
      "type": "error"
    },
    {
      "inputs": [
        {
          "internalType": "bytes32",
          "name": "tokenId",
          "type": "bytes32"
        }
      ],
      "name": "LSP8TokenIdAlreadyMinted",
      "type": "error"
    },
    {
      "anonymous": false,
      "inputs": [
        {
          "indexed": true,
          "internalType": "address",
          "name": "operator",
          "type": "address"
        },
        {
          "indexed": true,
          "internalType": "address",
          "name": "tokenOwner",
          "type": "address"
        },
        {
          "indexed": true,
          "internalType": "bytes32",
          "name": "tokenId",
          "type": "bytes32"
        }
      ],
      "name": "AuthorizedOperator",
      "type": "event"
    },
    {
      "anonymous": false,
      "inputs": [
        {
          "indexed": true,
          "internalType": "bytes32",
          "name": "key",
          "type": "bytes32"
        }
      ],
      "name": "DataChanged",
      "type": "event"
    },
    {
      "anonymous": false,
      "inputs": [
        {
          "indexed": false,
          "internalType": "uint8",
          "name": "version",
          "type": "uint8"
        }
      ],
      "name": "Initialized",
      "type": "event"
    },
    {
      "anonymous": false,
      "inputs": [
        {
          "indexed": true,
          "internalType": "address",
          "name": "previousOwner",
          "type": "address"
        },
        {
          "indexed": true,
          "internalType": "address",
          "name": "newOwner",
          "type": "address"
        }
      ],
      "name": "OwnershipTransferred",
      "type": "event"
    },
    {
      "anonymous": false,
      "inputs": [
        {
          "indexed": true,
          "internalType": "address",
          "name": "operator",
          "type": "address"
        },
        {
          "indexed": true,
          "internalType": "address",
          "name": "tokenOwner",
          "type": "address"
        },
        {
          "indexed": true,
          "internalType": "bytes32",
          "name": "tokenId",
          "type": "bytes32"
        }
      ],
      "name": "RevokedOperator",
      "type": "event"
    },
    {
      "anonymous": false,
      "inputs": [
        {
          "indexed": false,
          "internalType": "address",
          "name": "operator",
          "type": "address"
        },
        {
          "indexed": true,
          "internalType": "address",
          "name": "from",
          "type": "address"
        },
        {
          "indexed": true,
          "internalType": "address",
          "name": "to",
          "type": "address"
        },
        {
          "indexed": true,
          "internalType": "bytes32",
          "name": "tokenId",
          "type": "bytes32"
        },
        {
          "indexed": false,
          "internalType": "bool",
          "name": "force",
          "type": "bool"
        },
        {
          "indexed": false,
          "internalType": "bytes",
          "name": "data",
          "type": "bytes"
        }
      ],
      "name": "Transfer",
      "type": "event"
    },
    {
      "inputs": [
        {
          "internalType": "address",
          "name": "operator",
          "type": "address"
        },
        {
          "internalType": "bytes32",
          "name": "tokenId",
          "type": "bytes32"
        }
      ],
      "name": "authorizeOperator",
      "outputs": [],
      "stateMutability": "nonpayable",
      "type": "function"
    },
    {
      "inputs": [
        {
          "internalType": "address",
          "name": "tokenOwner",
          "type": "address"
        }
      ],
      "name": "balanceOf",
      "outputs": [
        {
          "internalType": "uint256",
          "name": "",
          "type": "uint256"
        }
      ],
      "stateMutability": "view",
      "type": "function"
    },
    {
      "inputs": [
        {
          "internalType": "bytes32[]",
          "name": "keys",
          "type": "bytes32[]"
        }
      ],
      "name": "getData",
      "outputs": [
        {
          "internalType": "bytes[]",
          "name": "values",
          "type": "bytes[]"
        }
      ],
      "stateMutability": "view",
      "type": "function"
    },
    {
      "inputs": [
        {
          "internalType": "bytes32",
          "name": "key",
          "type": "bytes32"
        }
      ],
      "name": "getData",
      "outputs": [
        {
          "internalType": "bytes",
          "name": "value",
          "type": "bytes"
        }
      ],
      "stateMutability": "view",
      "type": "function"
    },
    {
      "inputs": [
        {
          "internalType": "bytes32",
          "name": "tokenId",
          "type": "bytes32"
        }
      ],
      "name": "getOperatorsOf",
      "outputs": [
        {
          "internalType": "address[]",
          "name": "",
          "type": "address[]"
        }
      ],
      "stateMutability": "view",
      "type": "function"
    },
    {
      "inputs": [
        {
          "internalType": "string",
          "name": "name_",
          "type": "string"
        },
        {
          "internalType": "string",
          "name": "symbol_",
          "type": "string"
        },
        {
          "internalType": "address",
          "name": "newOwner_",
          "type": "address"
        }
      ],
      "name": "initialize",
      "outputs": [],
      "stateMutability": "nonpayable",
      "type": "function"
    },
    {
      "inputs": [],
      "name": "initialized",
      "outputs": [
        {
          "internalType": "uint8",
          "name": "",
          "type": "uint8"
        }
      ],
      "stateMutability": "view",
      "type": "function"
    },
    {
      "inputs": [],
      "name": "initializing",
      "outputs": [
        {
          "internalType": "bool",
          "name": "",
          "type": "bool"
        }
      ],
      "stateMutability": "view",
      "type": "function"
    },
    {
      "inputs": [
        {
          "internalType": "address",
          "name": "operator",
          "type": "address"
        },
        {
          "internalType": "bytes32",
          "name": "tokenId",
          "type": "bytes32"
        }
      ],
      "name": "isOperatorFor",
      "outputs": [
        {
          "internalType": "bool",
          "name": "",
          "type": "bool"
        }
      ],
      "stateMutability": "view",
      "type": "function"
    },
    {
      "inputs": [
        {
          "internalType": "address",
          "name": "to",
          "type": "address"
        },
        {
          "internalType": "bytes32",
          "name": "tokenId",
          "type": "bytes32"
        },
        {
          "internalType": "bool",
          "name": "force",
          "type": "bool"
        },
        {
          "internalType": "bytes",
          "name": "data",
          "type": "bytes"
        }
      ],
      "name": "mint",
      "outputs": [],
      "stateMutability": "nonpayable",
      "type": "function"
    },
    {
      "inputs": [],
      "name": "owner",
      "outputs": [
        {
          "internalType": "address",
          "name": "",
          "type": "address"
        }
      ],
      "stateMutability": "view",
      "type": "function"
    },
    {
      "inputs": [],
      "name": "renounceOwnership",
      "outputs": [],
      "stateMutability": "nonpayable",
      "type": "function"
    },
    {
      "inputs": [
        {
          "internalType": "address",
          "name": "operator",
          "type": "address"
        },
        {
          "internalType": "bytes32",
          "name": "tokenId",
          "type": "bytes32"
        }
      ],
      "name": "revokeOperator",
      "outputs": [],
      "stateMutability": "nonpayable",
      "type": "function"
    },
    {
      "inputs": [
        {
          "internalType": "bytes32[]",
          "name": "keys",
          "type": "bytes32[]"
        },
        {
          "internalType": "bytes[]",
          "name": "values",
          "type": "bytes[]"
        }
      ],
      "name": "setData",
      "outputs": [],
      "stateMutability": "nonpayable",
      "type": "function"
    },
    {
      "inputs": [
        {
          "internalType": "bytes32",
          "name": "key",
          "type": "bytes32"
        },
        {
          "internalType": "bytes",
          "name": "value",
          "type": "bytes"
        }
      ],
      "name": "setData",
      "outputs": [],
      "stateMutability": "nonpayable",
      "type": "function"
    },
    {
      "inputs": [
        {
          "internalType": "bytes4",
          "name": "interfaceId",
          "type": "bytes4"
        }
      ],
      "name": "supportsInterface",
      "outputs": [
        {
          "internalType": "bool",
          "name": "",
          "type": "bool"
        }
      ],
      "stateMutability": "view",
      "type": "function"
    },
    {
      "inputs": [
        {
          "internalType": "address",
          "name": "tokenOwner",
          "type": "address"
        }
      ],
      "name": "tokenIdsOf",
      "outputs": [
        {
          "internalType": "bytes32[]",
          "name": "",
          "type": "bytes32[]"
        }
      ],
      "stateMutability": "view",
      "type": "function"
    },
    {
      "inputs": [
        {
          "internalType": "bytes32",
          "name": "tokenId",
          "type": "bytes32"
        }
      ],
      "name": "tokenOwnerOf",
      "outputs": [
        {
          "internalType": "address",
          "name": "",
          "type": "address"
        }
      ],
      "stateMutability": "view",
      "type": "function"
    },
    {
      "inputs": [],
      "name": "totalSupply",
      "outputs": [
        {
          "internalType": "uint256",
          "name": "",
          "type": "uint256"
        }
      ],
      "stateMutability": "view",
      "type": "function"
    },
    {
      "inputs": [
        {
          "internalType": "address",
          "name": "from",
          "type": "address"
        },
        {
          "internalType": "address",
          "name": "to",
          "type": "address"
        },
        {
          "internalType": "bytes32",
          "name": "tokenId",
          "type": "bytes32"
        },
        {
          "internalType": "bool",
          "name": "force",
          "type": "bool"
        },
        {
          "internalType": "bytes",
          "name": "data",
          "type": "bytes"
        }
      ],
      "name": "transfer",
      "outputs": [],
      "stateMutability": "nonpayable",
      "type": "function"
    },
    {
      "inputs": [
        {
          "internalType": "address[]",
          "name": "from",
          "type": "address[]"
        },
        {
          "internalType": "address[]",
          "name": "to",
          "type": "address[]"
        },
        {
          "internalType": "bytes32[]",
          "name": "tokenId",
          "type": "bytes32[]"
        },
        {
          "internalType": "bool",
          "name": "force",
          "type": "bool"
        },
        {
          "internalType": "bytes[]",
          "name": "data",
          "type": "bytes[]"
        }
      ],
      "name": "transferBatch",
      "outputs": [],
      "stateMutability": "nonpayable",
      "type": "function"
    },
    {
      "inputs": [
        {
          "internalType": "address",
          "name": "newOwner",
          "type": "address"
        }
      ],
      "name": "transferOwnership",
      "outputs": [],
      "stateMutability": "nonpayable",
      "type": "function"
    }
  ],
  "bytecode": "0x608060405234801561001057600080fd5b506126aa806100206000396000f3fe608060405234801561001057600080fd5b50600436106101825760003560e01c8063511b6952116100d85780637f23690c1161008c578063af255b6111610066578063af255b611461034a578063cf5182ba1461035d578063f2fde38b1461037057600080fd5b80637f23690c146103005780638da5cb5b14610313578063a3b261f21461032a57600080fd5b806355908868116100bd57806355908868146102d257806370a08231146102e5578063715018a6146102f857600080fd5b8063511b69521461029f57806354f6127f146102b257600080fd5b806318160ddd1161013a5780632a3654a4116101145780632a3654a41461024c57806349a6078d1461025f5780634e3e6e9c1461027f57600080fd5b806318160ddd146101ff578063217b2270146102115780632599f1591461023c57600080fd5b80630b0c6d821161016b5780630b0c6d82146101c457806314a6e293146101d7578063158ef93e146101ea57600080fd5b806301ffc9a714610187578063077f224a146101af575b600080fd5b61019a6101953660046121ff565b610383565b60405190151581526020015b60405180910390f35b6101c26101bd3660046122a0565b6103c7565b005b6101c26101d2366004611faa565b610442565b6101c26101e5366004612128565b6104ea565b60005460405160ff90911681526020016101a6565b6002545b6040519081526020016101a6565b61022461021f3660046121a9565b610617565b6040516001600160a01b0390911681526020016101a6565b600054610100900460ff1661019a565b61019a61025a366004611faa565b610650565b61027261026d3660046121a9565b61066c565b6040516101a691906123d3565b61029261028d3660046120f3565b61068e565b6040516101a69190612458565b6101c26102ad366004611f2f565b610742565b6102c56102c03660046121a9565b6107aa565b6040516101a691906124d3565b6101c26102e036600461203e565b6107b5565b6102036102f3366004611f14565b61089b565b6101c26108bc565b6101c261030e3660046121c2565b610929565b6000546201000090046001600160a01b0316610224565b61033d610338366004611f14565b610998565b6040516101a69190612420565b6101c2610358366004611fd4565b6109bc565b6101c261036b366004611faa565b610a29565b6101c261037e366004611f14565b610b21565b60006001600160e01b031982167f493991450000000000000000000000000000000000000000000000000000000014806103c157506103c182610c0a565b92915050565b60006103d36001610c58565b905080156103eb576000805461ff0019166101001790555b6103f6848484610d91565b801561043c576000805461ff0019169055604051600181527f7f26b83ff96e1f2b6a682f133852f6798a09c465da95921460cefb38474024989060200160405180910390a15b50505050565b600061044d82610617565b9050336001600160a01b038216811461049857604051632d938f5160e11b81526001600160a01b03808416600483015260248201859052821660448201526064015b60405180910390fd5b6001600160a01b0384166104bf57604051639577b8b360e01b815260040160405180910390fd5b836001600160a01b0316826001600160a01b031614156104df5750505050565b61043c848385610e07565b6000546001600160a01b036201000090910416331461054b5760405162461bcd60e51b815260206004820181905260248201527f4f776e61626c653a2063616c6c6572206973206e6f7420746865206f776e6572604482015260640161048f565b80518251146105c25760405162461bcd60e51b815260206004820152602660248201527f4b657973206c656e677468206e6f7420657175616c20746f2076616c7565732060448201527f6c656e6774680000000000000000000000000000000000000000000000000000606482015260840161048f565b60005b82518110156106125761060a8382815181106105e3576105e361263a565b60200260200101518383815181106105fd576105fd61263a565b6020026020010151610e66565b6001016105c5565b505050565b6000818152600360205260408120546001600160a01b0316806103c157604051635747cd1b60e11b81526004810184905260240161048f565b600061065b82610f9c565b6106658383610fd4565b9392505050565b606061067782610f9c565b60008281526005602052604090206103c19061101d565b6060815167ffffffffffffffff8111156106aa576106aa612650565b6040519080825280602002602001820160405280156106dd57816020015b60608152602001906001900390816106c85790505b50905060005b825181101561073c5761070e8382815181106107015761070161263a565b602002602001015161102a565b8282815181106107205761072061263a565b60200260200101819052506107358160010190565b90506106e3565b50919050565b3361074d8185610fd4565b610795576040517f1294d2a9000000000000000000000000000000000000000000000000000000008152600481018590526001600160a01b038216602482015260440161048f565b6107a286868686866110cc565b505050505050565b60606103c18261102a565b835185511415806107c857508251855114155b806107d557508051855114155b1561080c576040517f93a8311900000000000000000000000000000000000000000000000000000000815260040160405180910390fd5b60005b85518110156107a25761088986828151811061082d5761082d61263a565b60200260200101518683815181106108475761084761263a565b60200260200101518684815181106108615761086161263a565b60200260200101518686868151811061087c5761087c61263a565b6020026020010151610742565b80610893816125f3565b91505061080f565b6001600160a01b03811660009081526004602052604081206103c190611245565b6000546001600160a01b036201000090910416331461091d5760405162461bcd60e51b815260206004820181905260248201527f4f776e61626c653a2063616c6c6572206973206e6f7420746865206f776e6572604482015260640161048f565b610927600061124f565b565b6000546001600160a01b036201000090910416331461098a5760405162461bcd60e51b815260206004820181905260248201527f4f776e61626c653a2063616c6c6572206973206e6f7420746865206f776e6572604482015260640161048f565b6109948282610e66565b5050565b6001600160a01b03811660009081526004602052604090206060906103c1906112db565b6000546001600160a01b0362010000909104163314610a1d5760405162461bcd60e51b815260206004820181905260248201527f4f776e61626c653a2063616c6c6572206973206e6f7420746865206f776e6572604482015260640161048f565b61043c848484846112e6565b6000610a3482610617565b9050336001600160a01b0382168114610a7a57604051632d938f5160e11b81526001600160a01b038084166004830152602482018590528216604482015260640161048f565b6001600160a01b038416610aa157604051639577b8b360e01b815260040160405180910390fd5b836001600160a01b0316826001600160a01b03161415610ac15750505050565b6000838152600560205260409020610ad9908561141a565b5082826001600160a01b0316856001600160a01b03167f34b797fc5a526f7bf1d2b5de25f6564fd85ae364e3ee939aee7c1ac27871a98860405160405180910390a450505050565b6000546001600160a01b0362010000909104163314610b825760405162461bcd60e51b815260206004820181905260248201527f4f776e61626c653a2063616c6c6572206973206e6f7420746865206f776e6572604482015260640161048f565b6001600160a01b038116610bfe5760405162461bcd60e51b815260206004820152602660248201527f4f776e61626c653a206e6577206f776e657220697320746865207a65726f206160448201527f6464726573730000000000000000000000000000000000000000000000000000606482015260840161048f565b610c078161124f565b50565b60006001600160e01b031982167f714df77c0000000000000000000000000000000000000000000000000000000014806103c157506301ffc9a760e01b6001600160e01b03198316146103c1565b60008054610100900460ff1615610cf5578160ff166001148015610c7b5750303b155b610ced5760405162461bcd60e51b815260206004820152602e60248201527f496e697469616c697a61626c653a20636f6e747261637420697320616c72656160448201527f647920696e697469616c697a6564000000000000000000000000000000000000606482015260840161048f565b506000919050565b60005460ff808416911610610d725760405162461bcd60e51b815260206004820152602e60248201527f496e697469616c697a61626c653a20636f6e747261637420697320616c72656160448201527f647920696e697469616c697a6564000000000000000000000000000000000000606482015260840161048f565b506000805460ff191660ff92909216919091179055600190565b919050565b600054610100900460ff16610dfc5760405162461bcd60e51b815260206004820152602b60248201527f496e697469616c697a61626c653a20636f6e7472616374206973206e6f74206960448201526a6e697469616c697a696e6760a81b606482015260840161048f565b61061283838361142f565b6000818152600560205260409020610e1f90846114a5565b5080826001600160a01b0316846001600160a01b03167f17d5389f6ab6adb2647dfa0aa365c323d37adacc30b33a65310b6158ce1373d560405160405180910390a4505050565b7fdeba1e292f8ba88238e10ab3c7f88bd4be4fac56cad5194b6ecceaf653468af1821415610efc5760405162461bcd60e51b815260206004820152602d60248201527f4c5350343a2063616e6e6f74206564697420546f6b656e204e616d652061667460448201527f6572206465706c6f796d656e7400000000000000000000000000000000000000606482015260840161048f565b7f2f0a68ab07768e01943a599e73362a0e17a63a72e94dd2e384d2c1d4db932756821415610f925760405162461bcd60e51b815260206004820152602f60248201527f4c5350343a2063616e6e6f74206564697420546f6b656e2053796d626f6c206160448201527f66746572206465706c6f796d656e740000000000000000000000000000000000606482015260840161048f565b61099482826114ba565b6000818152600360205260409020546001600160a01b0316610c0757604051635747cd1b60e11b81526004810182905260240161048f565b600080610fe083610617565b9050806001600160a01b0316846001600160a01b03161480611015575060008381526005602052604090206110159085611509565b949350505050565b606060006106658361152b565b6000818152600160205260409020805460609190611047906125be565b80601f0160208091040260200160405190810160405280929190818152602001828054611073906125be565b80156110c05780601f10611095576101008083540402835291602001916110c0565b820191906000526020600020905b8154815290600101906020018083116110a357829003601f168201915b50505050509050919050565b60006110d784610617565b9050856001600160a01b0316816001600160a01b03161461112557604051632d938f5160e11b81526001600160a01b038083166004830152602482018690528716604482015260640161048f565b6001600160a01b03851661114c576040516324ecef4d60e01b815260040160405180910390fd5b33611158878787611586565b61116287866115d8565b6001600160a01b03871660009081526004602052604090206111849086611629565b506001600160a01b03861660009081526004602052604090206111a79086611635565b5060008581526003602052604090819020805473ffffffffffffffffffffffffffffffffffffffff19166001600160a01b0389811691821790925591518792918a16907fb333c813a7426a7a11e2b190cad52c44119421594b47f6f32ace6d8c7207b2bf9061121b9086908a908a906123a9565b60405180910390a461122f87878786611641565b61123c8787878787611724565b50505050505050565b60006103c1825490565b6000546001600160a01b03828116620100009092041614610c0757600080546001600160a01b03838116620100008181027fffffffffffffffffffff0000000000000000000000000000000000000000ffff851617855560405193049190911692909183917f8be0079c531659141344cd1fd0a4f28419497f9722a3daafe3b4186f6b6457e091a35050565b60606103c18261152b565b6001600160a01b03841661130d576040516324ecef4d60e01b815260040160405180910390fd5b6000838152600360205260409020546001600160a01b03161561135f576040517f34c7b5110000000000000000000000000000000000000000000000000000000081526004810184905260240161048f565b3361136c60008686611586565b6001600160a01b038516600090815260046020526040902061138e9085611635565b50600084815260036020526040808220805473ffffffffffffffffffffffffffffffffffffffff19166001600160a01b03891690811790915590518692907fb333c813a7426a7a11e2b190cad52c44119421594b47f6f32ace6d8c7207b2bf906113fd908690899089906123a9565b60405180910390a4611413600086868686611724565b5050505050565b6000610665836001600160a01b03841661189d565b600054610100900460ff1661149a5760405162461bcd60e51b815260206004820152602b60248201527f496e697469616c697a61626c653a20636f6e7472616374206973206e6f74206960448201526a6e697469616c697a696e6760a81b606482015260840161048f565b6106128383836118ec565b6000610665836001600160a01b038416611a16565b600082815260016020908152604090912082516114d992840190611ca8565b5060405182907fcdf4e344c0d23d4cdd0474039d176c55b19d531070dbe17856bfb993a5b5720b90600090a25050565b6001600160a01b03811660009081526001830160205260408120541515610665565b6060816000018054806020026020016040519081016040528092919081815260200182805480156110c057602002820191906000526020600020905b8154815260200190600101908083116115675750505050509050919050565b6001600160a01b0383166115ad576001600260008282546115a79190612563565b90915550505b6001600160a01b038216610612576001600260008282546115ce919061257b565b9091555050505050565b6000818152600560205260408120906115f082611245565b905060005b818110156114135760006116098482611b09565b9050611616818787610e07565b5080611621816125f3565b9150506115f5565b60006106658383611a16565b6000610665838361189d565b61165284631aed5a8560e21b611b15565b1561043c576000848484846040516020016116709493929190612340565b60408051601f1981840301815290829052631aed5a8560e21b825291506001600160a01b03861690636bb56a14906116ce907f3724c94f0815e936299cca424da4140752198e0beb7931a6e0925d11bc97544c9085906004016124ba565b600060405180830381600087803b1580156116e857600080fd5b505af11580156116fc573d6000803e3d6000fd5b505050506040513d6000823e601f3d908101601f191682016040526107a29190810190612229565b61173584631aed5a8560e21b611b15565b1561180e576000858585846040516020016117539493929190612340565b60408051601f1981840301815290829052631aed5a8560e21b825291506001600160a01b03861690636bb56a14906117b1907fc7a120a42b6057a0cbed111fbbfbd52fcd96748c04394f77fc2c3adbe0391e019085906004016124ba565b600060405180830381600087803b1580156117cb57600080fd5b505af11580156117df573d6000803e3d6000fd5b505050506040513d6000823e601f3d908101601f191682016040526118079190810190612229565b5050611413565b81611413576001600160a01b0384163b15611860576040517f4349776d0000000000000000000000000000000000000000000000000000000081526001600160a01b038516600482015260240161048f565b6040517f031731370000000000000000000000000000000000000000000000000000000081526001600160a01b038516600482015260240161048f565b60008181526001830160205260408120546118e4575081546001818101845560008481526020808220909301849055845484825282860190935260409020919091556103c1565b5060006103c1565b600054610100900460ff166119575760405162461bcd60e51b815260206004820152602b60248201527f496e697469616c697a61626c653a20636f6e7472616374206973206e6f74206960448201526a6e697469616c697a696e6760a81b606482015260840161048f565b61196081611c13565b6119c27feafec4d89fa9619884b60000a4d96624a38f7ac2d8d9a604ecf07c12c77e480c60001b6040518060400160405280600481526020017fa4d96624000000000000000000000000000000000000000000000000000000008152506114ba565b6119ec7fdeba1e292f8ba88238e10ab3c7f88bd4be4fac56cad5194b6ecceaf653468af1846114ba565b6106127f2f0a68ab07768e01943a599e73362a0e17a63a72e94dd2e384d2c1d4db932756836114ba565b60008181526001830160205260408120548015611aff576000611a3a60018361257b565b8554909150600090611a4e9060019061257b565b9050818114611ab3576000866000018281548110611a6e57611a6e61263a565b9060005260206000200154905080876000018481548110611a9157611a9161263a565b6000918252602080832090910192909255918252600188019052604090208390555b8554869080611ac457611ac4612624565b6001900381819060005260206000200160009055905585600101600086815260200190815260200160002060009055600193505050506103c1565b60009150506103c1565b60006106658383611c7e565b604080516001600160e01b0319831660248083019190915282518083039091018152604490910182526020810180517bffffffffffffffffffffffffffffffffffffffffffffffffffffffff166301ffc9a760e01b179052905160009190829081906001600160a01b0387169061753090611b9190869061238d565b6000604051808303818686fa925050503d8060008114611bcd576040519150601f19603f3d011682016040523d82523d6000602084013e611bd2565b606091505b5091509150602081511015611bed57600093505050506103c1565b818015611c09575080806020019051810190611c09919061218c565b9695505050505050565b600054610100900460ff16610bfe5760405162461bcd60e51b815260206004820152602b60248201527f496e697469616c697a61626c653a20636f6e7472616374206973206e6f74206960448201526a6e697469616c697a696e6760a81b606482015260840161048f565b6000826000018281548110611c9557611c9561263a565b9060005260206000200154905092915050565b828054611cb4906125be565b90600052602060002090601f016020900481019282611cd65760008555611d1c565b82601f10611cef57805160ff1916838001178555611d1c565b82800160010185558215611d1c579182015b82811115611d1c578251825591602001919060010190611d01565b50611d28929150611d2c565b5090565b5b80821115611d285760008155600101611d2d565b80356001600160a01b0381168114610d8c57600080fd5b600082601f830112611d6957600080fd5b81356020611d7e611d7983612517565b6124e6565b80838252828201915082860187848660051b8901011115611d9e57600080fd5b60005b85811015611dc457611db282611d41565b84529284019290840190600101611da1565b5090979650505050505050565b600082601f830112611de257600080fd5b81356020611df2611d7983612517565b80838252828201915082860187848660051b8901011115611e1257600080fd5b60005b85811015611dc457813584529284019290840190600101611e15565b600082601f830112611e4257600080fd5b81356020611e52611d7983612517565b80838252828201915082860187848660051b8901011115611e7257600080fd5b6000805b86811015611eb557823567ffffffffffffffff811115611e94578283fd5b611ea28b88838d0101611ec3565b8652509385019391850191600101611e76565b509198975050505050505050565b600082601f830112611ed457600080fd5b8135611ee2611d798261253b565b818152846020838601011115611ef757600080fd5b816020850160208301376000918101602001919091529392505050565b600060208284031215611f2657600080fd5b61066582611d41565b600080600080600060a08688031215611f4757600080fd5b611f5086611d41565b9450611f5e60208701611d41565b9350604086013592506060860135611f7581612666565b9150608086013567ffffffffffffffff811115611f9157600080fd5b611f9d88828901611ec3565b9150509295509295909350565b60008060408385031215611fbd57600080fd5b611fc683611d41565b946020939093013593505050565b60008060008060808587031215611fea57600080fd5b611ff385611d41565b935060208501359250604085013561200a81612666565b9150606085013567ffffffffffffffff81111561202657600080fd5b61203287828801611ec3565b91505092959194509250565b600080600080600060a0868803121561205657600080fd5b853567ffffffffffffffff8082111561206e57600080fd5b61207a89838a01611d58565b9650602088013591508082111561209057600080fd5b61209c89838a01611d58565b955060408801359150808211156120b257600080fd5b6120be89838a01611dd1565b9450606088013591506120d082612666565b909250608087013590808211156120e657600080fd5b50611f9d88828901611e31565b60006020828403121561210557600080fd5b813567ffffffffffffffff81111561211c57600080fd5b61101584828501611dd1565b6000806040838503121561213b57600080fd5b823567ffffffffffffffff8082111561215357600080fd5b61215f86838701611dd1565b9350602085013591508082111561217557600080fd5b5061218285828601611e31565b9150509250929050565b60006020828403121561219e57600080fd5b815161066581612666565b6000602082840312156121bb57600080fd5b5035919050565b600080604083850312156121d557600080fd5b82359150602083013567ffffffffffffffff8111156121f357600080fd5b61218285828601611ec3565b60006020828403121561221157600080fd5b81356001600160e01b03198116811461066557600080fd5b60006020828403121561223b57600080fd5b815167ffffffffffffffff81111561225257600080fd5b8201601f8101841361226357600080fd5b8051612271611d798261253b565b81815285602083850101111561228657600080fd5b612297826020830160208601612592565b95945050505050565b6000806000606084860312156122b557600080fd5b833567ffffffffffffffff808211156122cd57600080fd5b6122d987838801611ec3565b945060208601359150808211156122ef57600080fd5b506122fc86828701611ec3565b92505061230b60408501611d41565b90509250925092565b6000815180845261232c816020860160208601612592565b601f01601f19169290920160200192915050565b60006bffffffffffffffffffffffff19808760601b168352808660601b16601484015250836028830152825161237d816048850160208701612592565b9190910160480195945050505050565b6000825161239f818460208701612592565b9190910192915050565b6001600160a01b038416815282151560208201526060604082015260006122976060830184612314565b6020808252825182820181905260009190848201906040850190845b818110156124145783516001600160a01b0316835292840192918401916001016123ef565b50909695505050505050565b6020808252825182820181905260009190848201906040850190845b818110156124145783518352928401929184019160010161243c565b6000602080830181845280855180835260408601915060408160051b870101925083870160005b828110156124ad57603f1988860301845261249b858351612314565b9450928501929085019060010161247f565b5092979650505050505050565b8281526040602082015260006110156040830184612314565b6020815260006106656020830184612314565b604051601f8201601f1916810167ffffffffffffffff8111828210171561250f5761250f612650565b604052919050565b600067ffffffffffffffff82111561253157612531612650565b5060051b60200190565b600067ffffffffffffffff82111561255557612555612650565b50601f01601f191660200190565b600082198211156125765761257661260e565b500190565b60008282101561258d5761258d61260e565b500390565b60005b838110156125ad578181015183820152602001612595565b8381111561043c5750506000910152565b600181811c908216806125d257607f821691505b6020821081141561073c57634e487b7160e01b600052602260045260246000fd5b60006000198214156126075761260761260e565b5060010190565b634e487b7160e01b600052601160045260246000fd5b634e487b7160e01b600052603160045260246000fd5b634e487b7160e01b600052603260045260246000fd5b634e487b7160e01b600052604160045260246000fd5b8015158114610c0757600080fdfea264697066735822122048c61a62101b713d89f294744c2796ba1f65381b0465e0072c0a633e43d2f15164736f6c63430008070033",
  "linkReferences": {},
  "deployedLinkReferences": {}
}