{
  "_format": "hh-sol-artifact-1",
  "contractName": "LSP8IdentifiableDigitalAssetInit",
  "sourceName": "contracts/LSP8IdentifiableDigitalAsset/LSP8IdentifiableDigitalAssetInit.sol",
  "abi": [
    {
      "inputs": [],
      "name": "LSP8CannotSendToAddressZero",
      "type": "error"
    },
    {
      "inputs": [],
      "name": "LSP8CannotUseAddressZeroAsOperator",
      "type": "error"
    },
    {
      "inputs": [],
      "name": "LSP8InvalidTransferBatch",
      "type": "error"
    },
    {
      "inputs": [
        {
          "internalType": "bytes32",
          "name": "tokenId",
          "type": "bytes32"
        }
      ],
      "name": "LSP8NonExistentTokenId",
      "type": "error"
    },
    {
      "inputs": [
        {
          "internalType": "bytes32",
          "name": "tokenId",
          "type": "bytes32"
        },
        {
          "internalType": "address",
          "name": "caller",
          "type": "address"
        }
      ],
      "name": "LSP8NotTokenOperator",
      "type": "error"
    },
    {
      "inputs": [
        {
          "internalType": "address",
          "name": "tokenOwner",
          "type": "address"
        },
        {
          "internalType": "bytes32",
          "name": "tokenId",
          "type": "bytes32"
        },
        {
          "internalType": "address",
          "name": "caller",
          "type": "address"
        }
      ],
      "name": "LSP8NotTokenOwner",
      "type": "error"
    },
    {
      "inputs": [
        {
          "internalType": "address",
          "name": "tokenReceiver",
          "type": "address"
        }
      ],
      "name": "LSP8NotifyTokenReceiverContractMissingLSP1Interface",
      "type": "error"
    },
    {
      "inputs": [
        {
          "internalType": "address",
          "name": "tokenReceiver",
          "type": "address"
        }
      ],
      "name": "LSP8NotifyTokenReceiverIsEOA",
      "type": "error"
    },
    {
      "anonymous": false,
      "inputs": [
        {
          "indexed": true,
          "internalType": "address",
          "name": "operator",
          "type": "address"
        },
        {
          "indexed": true,
          "internalType": "address",
          "name": "tokenOwner",
          "type": "address"
        },
        {
          "indexed": true,
          "internalType": "bytes32",
          "name": "tokenId",
          "type": "bytes32"
        }
      ],
      "name": "AuthorizedOperator",
      "type": "event"
    },
    {
      "anonymous": false,
      "inputs": [
        {
          "indexed": true,
          "internalType": "bytes32",
          "name": "key",
          "type": "bytes32"
        }
      ],
      "name": "DataChanged",
      "type": "event"
    },
    {
      "anonymous": false,
      "inputs": [
        {
          "indexed": false,
          "internalType": "uint8",
          "name": "version",
          "type": "uint8"
        }
      ],
      "name": "Initialized",
      "type": "event"
    },
    {
      "anonymous": false,
      "inputs": [
        {
          "indexed": true,
          "internalType": "address",
          "name": "previousOwner",
          "type": "address"
        },
        {
          "indexed": true,
          "internalType": "address",
          "name": "newOwner",
          "type": "address"
        }
      ],
      "name": "OwnershipTransferred",
      "type": "event"
    },
    {
      "anonymous": false,
      "inputs": [
        {
          "indexed": true,
          "internalType": "address",
          "name": "operator",
          "type": "address"
        },
        {
          "indexed": true,
          "internalType": "address",
          "name": "tokenOwner",
          "type": "address"
        },
        {
          "indexed": true,
          "internalType": "bytes32",
          "name": "tokenId",
          "type": "bytes32"
        }
      ],
      "name": "RevokedOperator",
      "type": "event"
    },
    {
      "anonymous": false,
      "inputs": [
        {
          "indexed": false,
          "internalType": "address",
          "name": "operator",
          "type": "address"
        },
        {
          "indexed": true,
          "internalType": "address",
          "name": "from",
          "type": "address"
        },
        {
          "indexed": true,
          "internalType": "address",
          "name": "to",
          "type": "address"
        },
        {
          "indexed": true,
          "internalType": "bytes32",
          "name": "tokenId",
          "type": "bytes32"
        },
        {
          "indexed": false,
          "internalType": "bool",
          "name": "force",
          "type": "bool"
        },
        {
          "indexed": false,
          "internalType": "bytes",
          "name": "data",
          "type": "bytes"
        }
      ],
      "name": "Transfer",
      "type": "event"
    },
    {
      "inputs": [
        {
          "internalType": "address",
          "name": "operator",
          "type": "address"
        },
        {
          "internalType": "bytes32",
          "name": "tokenId",
          "type": "bytes32"
        }
      ],
      "name": "authorizeOperator",
      "outputs": [],
      "stateMutability": "nonpayable",
      "type": "function"
    },
    {
      "inputs": [
        {
          "internalType": "address",
          "name": "tokenOwner",
          "type": "address"
        }
      ],
      "name": "balanceOf",
      "outputs": [
        {
          "internalType": "uint256",
          "name": "",
          "type": "uint256"
        }
      ],
      "stateMutability": "view",
      "type": "function"
    },
    {
      "inputs": [
        {
          "internalType": "bytes32[]",
          "name": "keys",
          "type": "bytes32[]"
        }
      ],
      "name": "getData",
      "outputs": [
        {
          "internalType": "bytes[]",
          "name": "values",
          "type": "bytes[]"
        }
      ],
      "stateMutability": "view",
      "type": "function"
    },
    {
      "inputs": [
        {
          "internalType": "bytes32",
          "name": "key",
          "type": "bytes32"
        }
      ],
      "name": "getData",
      "outputs": [
        {
          "internalType": "bytes",
          "name": "value",
          "type": "bytes"
        }
      ],
      "stateMutability": "view",
      "type": "function"
    },
    {
      "inputs": [
        {
          "internalType": "bytes32",
          "name": "tokenId",
          "type": "bytes32"
        }
      ],
      "name": "getOperatorsOf",
      "outputs": [
        {
          "internalType": "address[]",
          "name": "",
          "type": "address[]"
        }
      ],
      "stateMutability": "view",
      "type": "function"
    },
    {
      "inputs": [
        {
          "internalType": "string",
          "name": "name_",
          "type": "string"
        },
        {
          "internalType": "string",
          "name": "symbol_",
          "type": "string"
        },
        {
          "internalType": "address",
          "name": "newOwner_",
          "type": "address"
        }
      ],
      "name": "initialize",
      "outputs": [],
      "stateMutability": "nonpayable",
      "type": "function"
    },
    {
      "inputs": [],
      "name": "initialized",
      "outputs": [
        {
          "internalType": "uint8",
          "name": "",
          "type": "uint8"
        }
      ],
      "stateMutability": "view",
      "type": "function"
    },
    {
      "inputs": [],
      "name": "initializing",
      "outputs": [
        {
          "internalType": "bool",
          "name": "",
          "type": "bool"
        }
      ],
      "stateMutability": "view",
      "type": "function"
    },
    {
      "inputs": [
        {
          "internalType": "address",
          "name": "operator",
          "type": "address"
        },
        {
          "internalType": "bytes32",
          "name": "tokenId",
          "type": "bytes32"
        }
      ],
      "name": "isOperatorFor",
      "outputs": [
        {
          "internalType": "bool",
          "name": "",
          "type": "bool"
        }
      ],
      "stateMutability": "view",
      "type": "function"
    },
    {
      "inputs": [],
      "name": "owner",
      "outputs": [
        {
          "internalType": "address",
          "name": "",
          "type": "address"
        }
      ],
      "stateMutability": "view",
      "type": "function"
    },
    {
      "inputs": [],
      "name": "renounceOwnership",
      "outputs": [],
      "stateMutability": "nonpayable",
      "type": "function"
    },
    {
      "inputs": [
        {
          "internalType": "address",
          "name": "operator",
          "type": "address"
        },
        {
          "internalType": "bytes32",
          "name": "tokenId",
          "type": "bytes32"
        }
      ],
      "name": "revokeOperator",
      "outputs": [],
      "stateMutability": "nonpayable",
      "type": "function"
    },
    {
      "inputs": [
        {
          "internalType": "bytes32[]",
          "name": "keys",
          "type": "bytes32[]"
        },
        {
          "internalType": "bytes[]",
          "name": "values",
          "type": "bytes[]"
        }
      ],
      "name": "setData",
      "outputs": [],
      "stateMutability": "nonpayable",
      "type": "function"
    },
    {
      "inputs": [
        {
          "internalType": "bytes32",
          "name": "key",
          "type": "bytes32"
        },
        {
          "internalType": "bytes",
          "name": "value",
          "type": "bytes"
        }
      ],
      "name": "setData",
      "outputs": [],
      "stateMutability": "nonpayable",
      "type": "function"
    },
    {
      "inputs": [
        {
          "internalType": "bytes4",
          "name": "interfaceId",
          "type": "bytes4"
        }
      ],
      "name": "supportsInterface",
      "outputs": [
        {
          "internalType": "bool",
          "name": "",
          "type": "bool"
        }
      ],
      "stateMutability": "view",
      "type": "function"
    },
    {
      "inputs": [
        {
          "internalType": "address",
          "name": "tokenOwner",
          "type": "address"
        }
      ],
      "name": "tokenIdsOf",
      "outputs": [
        {
          "internalType": "bytes32[]",
          "name": "",
          "type": "bytes32[]"
        }
      ],
      "stateMutability": "view",
      "type": "function"
    },
    {
      "inputs": [
        {
          "internalType": "bytes32",
          "name": "tokenId",
          "type": "bytes32"
        }
      ],
      "name": "tokenOwnerOf",
      "outputs": [
        {
          "internalType": "address",
          "name": "",
          "type": "address"
        }
      ],
      "stateMutability": "view",
      "type": "function"
    },
    {
      "inputs": [],
      "name": "totalSupply",
      "outputs": [
        {
          "internalType": "uint256",
          "name": "",
          "type": "uint256"
        }
      ],
      "stateMutability": "view",
      "type": "function"
    },
    {
      "inputs": [
        {
          "internalType": "address",
          "name": "from",
          "type": "address"
        },
        {
          "internalType": "address",
          "name": "to",
          "type": "address"
        },
        {
          "internalType": "bytes32",
          "name": "tokenId",
          "type": "bytes32"
        },
        {
          "internalType": "bool",
          "name": "force",
          "type": "bool"
        },
        {
          "internalType": "bytes",
          "name": "data",
          "type": "bytes"
        }
      ],
      "name": "transfer",
      "outputs": [],
      "stateMutability": "nonpayable",
      "type": "function"
    },
    {
      "inputs": [
        {
          "internalType": "address[]",
          "name": "from",
          "type": "address[]"
        },
        {
          "internalType": "address[]",
          "name": "to",
          "type": "address[]"
        },
        {
          "internalType": "bytes32[]",
          "name": "tokenId",
          "type": "bytes32[]"
        },
        {
          "internalType": "bool",
          "name": "force",
          "type": "bool"
        },
        {
          "internalType": "bytes[]",
          "name": "data",
          "type": "bytes[]"
        }
      ],
      "name": "transferBatch",
      "outputs": [],
      "stateMutability": "nonpayable",
      "type": "function"
    },
    {
      "inputs": [
        {
          "internalType": "address",
          "name": "newOwner",
          "type": "address"
        }
      ],
      "name": "transferOwnership",
      "outputs": [],
      "stateMutability": "nonpayable",
      "type": "function"
    }
  ],
  "bytecode": "0x608060405234801561001057600080fd5b50612436806100206000396000f3fe608060405234801561001057600080fd5b50600436106101775760003560e01c80634e3e6e9c116100d8578063715018a61161008c578063a3b261f211610066578063a3b261f21461031f578063cf5182ba1461033f578063f2fde38b1461035257600080fd5b8063715018a6146102ed5780637f23690c146102f55780638da5cb5b1461030857600080fd5b806354f6127f116100bd57806354f6127f146102a757806355908868146102c757806370a08231146102da57600080fd5b80634e3e6e9c14610274578063511b69521461029457600080fd5b806318160ddd1161012f5780632599f159116101145780632599f159146102315780632a3654a41461024157806349a6078d1461025457600080fd5b806318160ddd146101f4578063217b22701461020657600080fd5b80630b0c6d82116101605780630b0c6d82146101b957806314a6e293146101cc578063158ef93e146101df57600080fd5b806301ffc9a71461017c578063077f224a146101a4575b600080fd5b61018f61018a366004611f8b565b610365565b60405190151581526020015b60405180910390f35b6101b76101b236600461202c565b6103a9565b005b6101b76101c7366004611da0565b610424565b6101b76101da366004611eb4565b6104cc565b60005460405160ff909116815260200161019b565b6002545b60405190815260200161019b565b610219610214366004611f35565b6105f9565b6040516001600160a01b03909116815260200161019b565b600054610100900460ff1661018f565b61018f61024f366004611da0565b610632565b610267610262366004611f35565b61064e565b60405161019b919061215f565b610287610282366004611e7f565b610670565b60405161019b91906121e4565b6101b76102a2366004611d25565b610724565b6102ba6102b5366004611f35565b61078c565b60405161019b919061225f565b6101b76102d5366004611dca565b610797565b6101f86102e8366004611d0a565b61087d565b6101b761089e565b6101b7610303366004611f4e565b61090b565b6000546201000090046001600160a01b0316610219565b61033261032d366004611d0a565b61097a565b60405161019b91906121ac565b6101b761034d366004611da0565b61099e565b6101b7610360366004611d0a565b610a96565b60006001600160e01b031982167f493991450000000000000000000000000000000000000000000000000000000014806103a357506103a382610b7f565b92915050565b60006103b56001610bcd565b905080156103cd576000805461ff0019166101001790555b6103d8848484610d06565b801561041e576000805461ff0019169055604051600181527f7f26b83ff96e1f2b6a682f133852f6798a09c465da95921460cefb38474024989060200160405180910390a15b50505050565b600061042f826105f9565b9050336001600160a01b038216811461047a57604051632d938f5160e11b81526001600160a01b03808416600483015260248201859052821660448201526064015b60405180910390fd5b6001600160a01b0384166104a157604051639577b8b360e01b815260040160405180910390fd5b836001600160a01b0316826001600160a01b031614156104c15750505050565b61041e848385610d7c565b6000546001600160a01b036201000090910416331461052d5760405162461bcd60e51b815260206004820181905260248201527f4f776e61626c653a2063616c6c6572206973206e6f7420746865206f776e65726044820152606401610471565b80518251146105a45760405162461bcd60e51b815260206004820152602660248201527f4b657973206c656e677468206e6f7420657175616c20746f2076616c7565732060448201527f6c656e67746800000000000000000000000000000000000000000000000000006064820152608401610471565b60005b82518110156105f4576105ec8382815181106105c5576105c56123c6565b60200260200101518383815181106105df576105df6123c6565b6020026020010151610ddb565b6001016105a7565b505050565b6000818152600360205260408120546001600160a01b0316806103a357604051635747cd1b60e11b815260048101849052602401610471565b600061063d82610f11565b6106478383610f49565b9392505050565b606061065982610f11565b60008281526005602052604090206103a390610f92565b6060815167ffffffffffffffff81111561068c5761068c6123dc565b6040519080825280602002602001820160405280156106bf57816020015b60608152602001906001900390816106aa5790505b50905060005b825181101561071e576106f08382815181106106e3576106e36123c6565b6020026020010151610f9f565b828281518110610702576107026123c6565b60200260200101819052506107178160010190565b90506106c5565b50919050565b3361072f8185610f49565b610777576040517f1294d2a9000000000000000000000000000000000000000000000000000000008152600481018590526001600160a01b0382166024820152604401610471565b6107848686868686611041565b505050505050565b60606103a382610f9f565b835185511415806107aa57508251855114155b806107b757508051855114155b156107ee576040517f93a8311900000000000000000000000000000000000000000000000000000000815260040160405180910390fd5b60005b85518110156107845761086b86828151811061080f5761080f6123c6565b6020026020010151868381518110610829576108296123c6565b6020026020010151868481518110610843576108436123c6565b60200260200101518686868151811061085e5761085e6123c6565b6020026020010151610724565b806108758161237f565b9150506107f1565b6001600160a01b03811660009081526004602052604081206103a3906111de565b6000546001600160a01b03620100009091041633146108ff5760405162461bcd60e51b815260206004820181905260248201527f4f776e61626c653a2063616c6c6572206973206e6f7420746865206f776e65726044820152606401610471565b61090960006111e8565b565b6000546001600160a01b036201000090910416331461096c5760405162461bcd60e51b815260206004820181905260248201527f4f776e61626c653a2063616c6c6572206973206e6f7420746865206f776e65726044820152606401610471565b6109768282610ddb565b5050565b6001600160a01b03811660009081526004602052604090206060906103a390611274565b60006109a9826105f9565b9050336001600160a01b03821681146109ef57604051632d938f5160e11b81526001600160a01b0380841660048301526024820185905282166044820152606401610471565b6001600160a01b038416610a1657604051639577b8b360e01b815260040160405180910390fd5b836001600160a01b0316826001600160a01b03161415610a365750505050565b6000838152600560205260409020610a4e908561127f565b5082826001600160a01b0316856001600160a01b03167f34b797fc5a526f7bf1d2b5de25f6564fd85ae364e3ee939aee7c1ac27871a98860405160405180910390a450505050565b6000546001600160a01b0362010000909104163314610af75760405162461bcd60e51b815260206004820181905260248201527f4f776e61626c653a2063616c6c6572206973206e6f7420746865206f776e65726044820152606401610471565b6001600160a01b038116610b735760405162461bcd60e51b815260206004820152602660248201527f4f776e61626c653a206e6577206f776e657220697320746865207a65726f206160448201527f64647265737300000000000000000000000000000000000000000000000000006064820152608401610471565b610b7c816111e8565b50565b60006001600160e01b031982167f714df77c0000000000000000000000000000000000000000000000000000000014806103a357506301ffc9a760e01b6001600160e01b03198316146103a3565b60008054610100900460ff1615610c6a578160ff166001148015610bf05750303b155b610c625760405162461bcd60e51b815260206004820152602e60248201527f496e697469616c697a61626c653a20636f6e747261637420697320616c72656160448201527f647920696e697469616c697a65640000000000000000000000000000000000006064820152608401610471565b506000919050565b60005460ff808416911610610ce75760405162461bcd60e51b815260206004820152602e60248201527f496e697469616c697a61626c653a20636f6e747261637420697320616c72656160448201527f647920696e697469616c697a65640000000000000000000000000000000000006064820152608401610471565b506000805460ff191660ff92909216919091179055600190565b919050565b600054610100900460ff16610d715760405162461bcd60e51b815260206004820152602b60248201527f496e697469616c697a61626c653a20636f6e7472616374206973206e6f74206960448201526a6e697469616c697a696e6760a81b6064820152608401610471565b6105f4838383611294565b6000818152600560205260409020610d9490846113be565b5080826001600160a01b0316846001600160a01b03167f17d5389f6ab6adb2647dfa0aa365c323d37adacc30b33a65310b6158ce1373d560405160405180910390a4505050565b7fdeba1e292f8ba88238e10ab3c7f88bd4be4fac56cad5194b6ecceaf653468af1821415610e715760405162461bcd60e51b815260206004820152602d60248201527f4c5350343a2063616e6e6f74206564697420546f6b656e204e616d652061667460448201527f6572206465706c6f796d656e74000000000000000000000000000000000000006064820152608401610471565b7f2f0a68ab07768e01943a599e73362a0e17a63a72e94dd2e384d2c1d4db932756821415610f075760405162461bcd60e51b815260206004820152602f60248201527f4c5350343a2063616e6e6f74206564697420546f6b656e2053796d626f6c206160448201527f66746572206465706c6f796d656e7400000000000000000000000000000000006064820152608401610471565b61097682826113d3565b6000818152600360205260409020546001600160a01b0316610b7c57604051635747cd1b60e11b815260048101829052602401610471565b600080610f55836105f9565b9050806001600160a01b0316846001600160a01b03161480610f8a57506000838152600560205260409020610f8a9085611422565b949350505050565b6060600061064783611444565b6000818152600160205260409020805460609190610fbc9061234a565b80601f0160208091040260200160405190810160405280929190818152602001828054610fe89061234a565b80156110355780601f1061100a57610100808354040283529160200191611035565b820191906000526020600020905b81548152906001019060200180831161101857829003601f168201915b50505050509050919050565b600061104c846105f9565b9050856001600160a01b0316816001600160a01b03161461109a57604051632d938f5160e11b81526001600160a01b0380831660048301526024820186905287166044820152606401610471565b6001600160a01b0385166110da576040517f24ecef4d00000000000000000000000000000000000000000000000000000000815260040160405180910390fd5b336110e687878761149f565b6110f087866114f1565b6001600160a01b03871660009081526004602052604090206111129086611549565b506001600160a01b03861660009081526004602052604090206111359086611555565b506000858152600360205260409081902080547fffffffffffffffffffffffff0000000000000000000000000000000000000000166001600160a01b0389811691821790925591518792918a16907fb333c813a7426a7a11e2b190cad52c44119421594b47f6f32ace6d8c7207b2bf906111b49086908a908a90612135565b60405180910390a46111c887878786611561565b6111d58787878787611644565b50505050505050565b60006103a3825490565b6000546001600160a01b03828116620100009092041614610b7c57600080546001600160a01b03838116620100008181027fffffffffffffffffffff0000000000000000000000000000000000000000ffff851617855560405193049190911692909183917f8be0079c531659141344cd1fd0a4f28419497f9722a3daafe3b4186f6b6457e091a35050565b60606103a382611444565b6000610647836001600160a01b0384166117bd565b600054610100900460ff166112ff5760405162461bcd60e51b815260206004820152602b60248201527f496e697469616c697a61626c653a20636f6e7472616374206973206e6f74206960448201526a6e697469616c697a696e6760a81b6064820152608401610471565b6113088161180c565b61136a7feafec4d89fa9619884b60000a4d96624a38f7ac2d8d9a604ecf07c12c77e480c60001b6040518060400160405280600481526020017fa4d96624000000000000000000000000000000000000000000000000000000008152506113d3565b6113947fdeba1e292f8ba88238e10ab3c7f88bd4be4fac56cad5194b6ecceaf653468af1846113d3565b6105f47f2f0a68ab07768e01943a599e73362a0e17a63a72e94dd2e384d2c1d4db932756836113d3565b6000610647836001600160a01b038416611877565b600082815260016020908152604090912082516113f292840190611a9e565b5060405182907fcdf4e344c0d23d4cdd0474039d176c55b19d531070dbe17856bfb993a5b5720b90600090a25050565b6001600160a01b03811660009081526001830160205260408120541515610647565b60608160000180548060200260200160405190810160405280929190818152602001828054801561103557602002820191906000526020600020905b8154815260200190600101908083116114805750505050509050919050565b6001600160a01b0383166114c6576001600260008282546114c091906122ef565b90915550505b6001600160a01b0382166105f4576001600260008282546114e79190612307565b9091555050505050565b600081815260056020526040812090611509826111de565b905060005b81811015611542576000611522848261196a565b905061152f818787610d7c565b508061153a8161237f565b91505061150e565b5050505050565b60006106478383611877565b600061064783836117bd565b61157284631aed5a8560e21b611976565b1561041e5760008484848460405160200161159094939291906120cc565b60408051601f1981840301815290829052631aed5a8560e21b825291506001600160a01b03861690636bb56a14906115ee907f3724c94f0815e936299cca424da4140752198e0beb7931a6e0925d11bc97544c908590600401612246565b600060405180830381600087803b15801561160857600080fd5b505af115801561161c573d6000803e3d6000fd5b505050506040513d6000823e601f3d908101601f191682016040526107849190810190611fb5565b61165584631aed5a8560e21b611976565b1561172e5760008585858460405160200161167394939291906120cc565b60408051601f1981840301815290829052631aed5a8560e21b825291506001600160a01b03861690636bb56a14906116d1907fc7a120a42b6057a0cbed111fbbfbd52fcd96748c04394f77fc2c3adbe0391e01908590600401612246565b600060405180830381600087803b1580156116eb57600080fd5b505af11580156116ff573d6000803e3d6000fd5b505050506040513d6000823e601f3d908101601f191682016040526117279190810190611fb5565b5050611542565b81611542576001600160a01b0384163b15611780576040517f4349776d0000000000000000000000000000000000000000000000000000000081526001600160a01b0385166004820152602401610471565b6040517f031731370000000000000000000000000000000000000000000000000000000081526001600160a01b0385166004820152602401610471565b6000818152600183016020526040812054611804575081546001818101845560008481526020808220909301849055845484825282860190935260409020919091556103a3565b5060006103a3565b600054610100900460ff16610b735760405162461bcd60e51b815260206004820152602b60248201527f496e697469616c697a61626c653a20636f6e7472616374206973206e6f74206960448201526a6e697469616c697a696e6760a81b6064820152608401610471565b6000818152600183016020526040812054801561196057600061189b600183612307565b85549091506000906118af90600190612307565b90508181146119145760008660000182815481106118cf576118cf6123c6565b90600052602060002001549050808760000184815481106118f2576118f26123c6565b6000918252602080832090910192909255918252600188019052604090208390555b8554869080611925576119256123b0565b6001900381819060005260206000200160009055905585600101600086815260200190815260200160002060009055600193505050506103a3565b60009150506103a3565b60006106478383611a74565b604080516001600160e01b0319831660248083019190915282518083039091018152604490910182526020810180517bffffffffffffffffffffffffffffffffffffffffffffffffffffffff166301ffc9a760e01b179052905160009190829081906001600160a01b03871690617530906119f2908690612119565b6000604051808303818686fa925050503d8060008114611a2e576040519150601f19603f3d011682016040523d82523d6000602084013e611a33565b606091505b5091509150602081511015611a4e57600093505050506103a3565b818015611a6a575080806020019051810190611a6a9190611f18565b9695505050505050565b6000826000018281548110611a8b57611a8b6123c6565b9060005260206000200154905092915050565b828054611aaa9061234a565b90600052602060002090601f016020900481019282611acc5760008555611b12565b82601f10611ae557805160ff1916838001178555611b12565b82800160010185558215611b12579182015b82811115611b12578251825591602001919060010190611af7565b50611b1e929150611b22565b5090565b5b80821115611b1e5760008155600101611b23565b80356001600160a01b0381168114610d0157600080fd5b600082601f830112611b5f57600080fd5b81356020611b74611b6f836122a3565b612272565b80838252828201915082860187848660051b8901011115611b9457600080fd5b60005b85811015611bba57611ba882611b37565b84529284019290840190600101611b97565b5090979650505050505050565b600082601f830112611bd857600080fd5b81356020611be8611b6f836122a3565b80838252828201915082860187848660051b8901011115611c0857600080fd5b60005b85811015611bba57813584529284019290840190600101611c0b565b600082601f830112611c3857600080fd5b81356020611c48611b6f836122a3565b80838252828201915082860187848660051b8901011115611c6857600080fd5b6000805b86811015611cab57823567ffffffffffffffff811115611c8a578283fd5b611c988b88838d0101611cb9565b8652509385019391850191600101611c6c565b509198975050505050505050565b600082601f830112611cca57600080fd5b8135611cd8611b6f826122c7565b818152846020838601011115611ced57600080fd5b816020850160208301376000918101602001919091529392505050565b600060208284031215611d1c57600080fd5b61064782611b37565b600080600080600060a08688031215611d3d57600080fd5b611d4686611b37565b9450611d5460208701611b37565b9350604086013592506060860135611d6b816123f2565b9150608086013567ffffffffffffffff811115611d8757600080fd5b611d9388828901611cb9565b9150509295509295909350565b60008060408385031215611db357600080fd5b611dbc83611b37565b946020939093013593505050565b600080600080600060a08688031215611de257600080fd5b853567ffffffffffffffff80821115611dfa57600080fd5b611e0689838a01611b4e565b96506020880135915080821115611e1c57600080fd5b611e2889838a01611b4e565b95506040880135915080821115611e3e57600080fd5b611e4a89838a01611bc7565b945060608801359150611e5c826123f2565b90925060808701359080821115611e7257600080fd5b50611d9388828901611c27565b600060208284031215611e9157600080fd5b813567ffffffffffffffff811115611ea857600080fd5b610f8a84828501611bc7565b60008060408385031215611ec757600080fd5b823567ffffffffffffffff80821115611edf57600080fd5b611eeb86838701611bc7565b93506020850135915080821115611f0157600080fd5b50611f0e85828601611c27565b9150509250929050565b600060208284031215611f2a57600080fd5b8151610647816123f2565b600060208284031215611f4757600080fd5b5035919050565b60008060408385031215611f6157600080fd5b82359150602083013567ffffffffffffffff811115611f7f57600080fd5b611f0e85828601611cb9565b600060208284031215611f9d57600080fd5b81356001600160e01b03198116811461064757600080fd5b600060208284031215611fc757600080fd5b815167ffffffffffffffff811115611fde57600080fd5b8201601f81018413611fef57600080fd5b8051611ffd611b6f826122c7565b81815285602083850101111561201257600080fd5b61202382602083016020860161231e565b95945050505050565b60008060006060848603121561204157600080fd5b833567ffffffffffffffff8082111561205957600080fd5b61206587838801611cb9565b9450602086013591508082111561207b57600080fd5b5061208886828701611cb9565b92505061209760408501611b37565b90509250925092565b600081518084526120b881602086016020860161231e565b601f01601f19169290920160200192915050565b60006bffffffffffffffffffffffff19808760601b168352808660601b16601484015250836028830152825161210981604885016020870161231e565b9190910160480195945050505050565b6000825161212b81846020870161231e565b9190910192915050565b6001600160a01b0384168152821515602082015260606040820152600061202360608301846120a0565b6020808252825182820181905260009190848201906040850190845b818110156121a05783516001600160a01b03168352928401929184019160010161217b565b50909695505050505050565b6020808252825182820181905260009190848201906040850190845b818110156121a0578351835292840192918401916001016121c8565b6000602080830181845280855180835260408601915060408160051b870101925083870160005b8281101561223957603f198886030184526122278583516120a0565b9450928501929085019060010161220b565b5092979650505050505050565b828152604060208201526000610f8a60408301846120a0565b60208152600061064760208301846120a0565b604051601f8201601f1916810167ffffffffffffffff8111828210171561229b5761229b6123dc565b604052919050565b600067ffffffffffffffff8211156122bd576122bd6123dc565b5060051b60200190565b600067ffffffffffffffff8211156122e1576122e16123dc565b50601f01601f191660200190565b600082198211156123025761230261239a565b500190565b6000828210156123195761231961239a565b500390565b60005b83811015612339578181015183820152602001612321565b8381111561041e5750506000910152565b600181811c9082168061235e57607f821691505b6020821081141561071e57634e487b7160e01b600052602260045260246000fd5b60006000198214156123935761239361239a565b5060010190565b634e487b7160e01b600052601160045260246000fd5b634e487b7160e01b600052603160045260246000fd5b634e487b7160e01b600052603260045260246000fd5b634e487b7160e01b600052604160045260246000fd5b8015158114610b7c57600080fdfea26469706673582212206900c2afc8a10ab5994baa709dd6b76197def81e8e8dde6d4d7b485cefefe08564736f6c63430008070033",
  "linkReferences": {},
  "deployedLinkReferences": {}
}