{
  "_format": "hh-sol-artifact-1",
  "contractName": "LSP9VaultInit",
  "sourceName": "contracts/LSP9Vault/LSP9VaultInit.sol",
  "abi": [
    {
      "anonymous": false,
      "inputs": [
        {
          "indexed": true,
          "internalType": "uint256",
          "name": "operation",
          "type": "uint256"
        },
        {
          "indexed": true,
          "internalType": "address",
          "name": "contractAddress",
          "type": "address"
        },
        {
          "indexed": true,
          "internalType": "uint256",
          "name": "value",
          "type": "uint256"
        }
      ],
      "name": "ContractCreated",
      "type": "event"
    },
    {
      "anonymous": false,
      "inputs": [
        {
          "indexed": true,
          "internalType": "bytes32",
          "name": "key",
          "type": "bytes32"
        }
      ],
      "name": "DataChanged",
      "type": "event"
    },
    {
      "anonymous": false,
      "inputs": [
        {
          "indexed": true,
          "internalType": "uint256",
          "name": "operation",
          "type": "uint256"
        },
        {
          "indexed": true,
          "internalType": "address",
          "name": "to",
          "type": "address"
        },
        {
          "indexed": true,
          "internalType": "uint256",
          "name": "value",
          "type": "uint256"
        },
        {
          "indexed": false,
          "internalType": "bytes4",
          "name": "selector",
          "type": "bytes4"
        }
      ],
      "name": "Executed",
      "type": "event"
    },
    {
      "anonymous": false,
      "inputs": [
        {
          "indexed": false,
          "internalType": "uint8",
          "name": "version",
          "type": "uint8"
        }
      ],
      "name": "Initialized",
      "type": "event"
    },
    {
      "anonymous": false,
      "inputs": [
        {
          "indexed": true,
          "internalType": "address",
          "name": "previousOwner",
          "type": "address"
        },
        {
          "indexed": true,
          "internalType": "address",
          "name": "newOwner",
          "type": "address"
        }
      ],
      "name": "OwnershipTransferred",
      "type": "event"
    },
    {
      "anonymous": false,
      "inputs": [
        {
          "indexed": true,
          "internalType": "address",
          "name": "from",
          "type": "address"
        },
        {
          "indexed": true,
          "internalType": "bytes32",
          "name": "typeId",
          "type": "bytes32"
        },
        {
          "indexed": true,
          "internalType": "bytes",
          "name": "returnedValue",
          "type": "bytes"
        },
        {
          "indexed": false,
          "internalType": "bytes",
          "name": "receivedData",
          "type": "bytes"
        }
      ],
      "name": "UniversalReceiver",
      "type": "event"
    },
    {
      "anonymous": false,
      "inputs": [
        {
          "indexed": true,
          "internalType": "address",
          "name": "sender",
          "type": "address"
        },
        {
          "indexed": true,
          "internalType": "uint256",
          "name": "value",
          "type": "uint256"
        }
      ],
      "name": "ValueReceived",
      "type": "event"
    },
    {
      "inputs": [],
      "name": "claimOwnership",
      "outputs": [],
      "stateMutability": "nonpayable",
      "type": "function"
    },
    {
      "inputs": [
        {
          "internalType": "uint256",
          "name": "_operation",
          "type": "uint256"
        },
        {
          "internalType": "address",
          "name": "_to",
          "type": "address"
        },
        {
          "internalType": "uint256",
          "name": "_value",
          "type": "uint256"
        },
        {
          "internalType": "bytes",
          "name": "_data",
          "type": "bytes"
        }
      ],
      "name": "execute",
      "outputs": [
        {
          "internalType": "bytes",
          "name": "result",
          "type": "bytes"
        }
      ],
      "stateMutability": "payable",
      "type": "function"
    },
    {
      "inputs": [
        {
          "internalType": "bytes32[]",
          "name": "keys",
          "type": "bytes32[]"
        }
      ],
      "name": "getData",
      "outputs": [
        {
          "internalType": "bytes[]",
          "name": "values",
          "type": "bytes[]"
        }
      ],
      "stateMutability": "view",
      "type": "function"
    },
    {
      "inputs": [
        {
          "internalType": "bytes32",
          "name": "key",
          "type": "bytes32"
        }
      ],
      "name": "getData",
      "outputs": [
        {
          "internalType": "bytes",
          "name": "value",
          "type": "bytes"
        }
      ],
      "stateMutability": "view",
      "type": "function"
    },
    {
      "inputs": [
        {
          "internalType": "address",
          "name": "_newOwner",
          "type": "address"
        }
      ],
      "name": "initialize",
      "outputs": [],
      "stateMutability": "nonpayable",
      "type": "function"
    },
    {
      "inputs": [],
      "name": "initialized",
      "outputs": [
        {
          "internalType": "uint8",
          "name": "",
          "type": "uint8"
        }
      ],
      "stateMutability": "view",
      "type": "function"
    },
    {
      "inputs": [],
      "name": "initializing",
      "outputs": [
        {
          "internalType": "bool",
          "name": "",
          "type": "bool"
        }
      ],
      "stateMutability": "view",
      "type": "function"
    },
    {
      "inputs": [],
      "name": "owner",
      "outputs": [
        {
          "internalType": "address",
          "name": "",
          "type": "address"
        }
      ],
      "stateMutability": "view",
      "type": "function"
    },
    {
      "inputs": [],
      "name": "pendingOwner",
      "outputs": [
        {
          "internalType": "address",
          "name": "",
          "type": "address"
        }
      ],
      "stateMutability": "view",
      "type": "function"
    },
    {
      "inputs": [],
      "name": "renounceOwnership",
      "outputs": [],
      "stateMutability": "nonpayable",
      "type": "function"
    },
    {
      "inputs": [
        {
          "internalType": "bytes32[]",
          "name": "_keys",
          "type": "bytes32[]"
        },
        {
          "internalType": "bytes[]",
          "name": "_values",
          "type": "bytes[]"
        }
      ],
      "name": "setData",
      "outputs": [],
      "stateMutability": "nonpayable",
      "type": "function"
    },
    {
      "inputs": [
        {
          "internalType": "bytes32",
          "name": "_key",
          "type": "bytes32"
        },
        {
          "internalType": "bytes",
          "name": "_value",
          "type": "bytes"
        }
      ],
      "name": "setData",
      "outputs": [],
      "stateMutability": "nonpayable",
      "type": "function"
    },
    {
      "inputs": [
        {
          "internalType": "bytes4",
          "name": "interfaceId",
          "type": "bytes4"
        }
      ],
      "name": "supportsInterface",
      "outputs": [
        {
          "internalType": "bool",
          "name": "",
          "type": "bool"
        }
      ],
      "stateMutability": "view",
      "type": "function"
    },
    {
      "inputs": [
        {
          "internalType": "address",
          "name": "newOwner",
          "type": "address"
        }
      ],
      "name": "transferOwnership",
      "outputs": [],
      "stateMutability": "nonpayable",
      "type": "function"
    },
    {
      "inputs": [
        {
          "internalType": "bytes32",
          "name": "_typeId",
          "type": "bytes32"
        },
        {
          "internalType": "bytes",
          "name": "_data",
          "type": "bytes"
        }
      ],
      "name": "universalReceiver",
      "outputs": [
        {
          "internalType": "bytes",
          "name": "returnValue",
          "type": "bytes"
        }
      ],
      "stateMutability": "nonpayable",
      "type": "function"
    },
    {
      "stateMutability": "payable",
      "type": "receive"
    }
  ],
  "bytecode": "0x608060405234801561001057600080fd5b506124fa806100206000396000f3fe6080604052600436106100ec5760003560e01c806354f6127f1161008a5780638da5cb5b116100595780638da5cb5b14610292578063c4d66de8146102ca578063e30c3978146102ea578063f2fde38b1461030a57600080fd5b806354f6127f1461021d5780636bb56a141461023d578063715018a61461025d5780637f23690c1461027257600080fd5b80632599f159116100c65780632599f1591461019e57806344c028fe146101bb5780634e3e6e9c146101db5780634e71e0c81461020857600080fd5b806301ffc9a71461012557806314a6e2931461015a578063158ef93e1461017c57600080fd5b3661012057604051349033907f7e71433ddf847725166244795048ecf3e3f9f35628254ecbf73605666423349390600090a3005b600080fd5b34801561013157600080fd5b506101456101403660046120c7565b61032a565b60405190151581526020015b60405180910390f35b34801561016657600080fd5b5061017a610175366004611f1e565b6103bd565b005b34801561018857600080fd5b5060005460405160ff9091168152602001610151565b3480156101aa57600080fd5b50600054610100900460ff16610145565b6101ce6101c936600461215f565b610594565b60405161015191906122d7565b3480156101e757600080fd5b506101fb6101f6366004611ee9565b610c82565b6040516101519190612261565b34801561021457600080fd5b5061017a610d36565b34801561022957600080fd5b506101ce61023836600461201b565b610d65565b34801561024957600080fd5b506101ce610258366004612034565b610d70565b34801561026957600080fd5b5061017a610ec3565b34801561027e57600080fd5b5061017a61028d366004612080565b610f30565b34801561029e57600080fd5b506000546201000090046001600160a01b03165b6040516001600160a01b039091168152602001610151565b3480156102d657600080fd5b5061017a6102e5366004611ec7565b61103a565b3480156102f657600080fd5b506002546102b2906001600160a01b031681565b34801561031657600080fd5b5061017a610325366004611ec7565b6110b0565b60006001600160e01b031982167f8c1d44f600000000000000000000000000000000000000000000000000000000148061037457506001600160e01b03198216631aed5a8560e21b145b806103a857506001600160e01b031982167fad7dd9b000000000000000000000000000000000000000000000000000000000145b806103b757506103b78261113c565b92915050565b6000546201000090046001600160a01b03166001600160a01b0316336001600160a01b0316146104be5760006104127f0cfc51aec37c55a4d0b1a65c6255c4bf2fbdf6277f3cc0730c45b828b6db8b4761117a565b61041b906123c6565b60601c90506104313363c2d7bcc160e01b61121c565b80156104455750336001600160a01b038216145b6104bc5760405162461bcd60e51b815260206004820152603160248201527f4f6e6c79204f776e6572206f7220556e6976657273616c20526563656976657260448201527f2044656c656761746520616c6c6f77656400000000000000000000000000000060648201526084015b60405180910390fd5b505b80518251146105355760405162461bcd60e51b815260206004820152602660248201527f4b657973206c656e677468206e6f7420657175616c20746f2076616c7565732060448201527f6c656e677468000000000000000000000000000000000000000000000000000060648201526084016104b3565b60005b825181101561058f5761057d83828151811061055657610556612498565b602002602001015183838151811061057057610570612498565b602002602001015161131a565b8061058781612467565b915050610538565b505050565b6000546060906001600160a01b03620100009091041633146105f85760405162461bcd60e51b815260206004820181905260248201527f4f776e61626c653a2063616c6c6572206973206e6f7420746865206f776e657260448201526064016104b3565b60005a9050866106fe57844710156106615760405162461bcd60e51b815260206004820152602660248201527f455243373235583a20696e73756666696369656e742062616c616e636520666f6044820152651c8818d85b1b60d21b60648201526084016104b3565b6106a4868686868080601f016020809104026020016040519081016040528093929190818152602001838380828437600092019190915250879250611369915050565b9150846001600160a01b038716887f4810874456b8e6487bd861375cf6abd8e1c8bb5858c8ce36a86a04dabfac199e6106dd8789612396565b6040516001600160e01b0319909116815260200160405180910390a4610c78565b60038714156107bd57841561077b5760405162461bcd60e51b815260206004820152603860248201527f455243373235583a2063616e6e6f74207472616e736665722076616c7565207760448201527f697468206f7065726174696f6e2053544154494343414c4c000000000000000060648201526084016104b3565b6106a48685858080601f0160208091040260200160405190810160405280939291908181526020018383808284376000920191909152508692506113e9915050565b600487141561087c57841561083a5760405162461bcd60e51b815260206004820152603a60248201527f455243373235583a2063616e6e6f74207472616e736665722076616c7565207760448201527f697468206f7065726174696f6e2044454c454741544543414c4c00000000000060648201526084016104b3565b6106a48685858080601f016020809104026020016040519081016040528093929190818152602001838380828437600092019190915250869250611464915050565b6001871415610a20576001600160a01b0386161561090e5760405162461bcd60e51b815260206004820152604360248201527f455243373235583a20435245415445206f7065726174696f6e7320726571756960448201527f726520746865207265636569766572206164647265737320746f20626520656d60648201526270747960e81b608482015260a4016104b3565b8447101561096d5760405162461bcd60e51b815260206004820152602660248201527f455243373235583a20696e73756666696369656e742062616c616e636520666f6044820152651c8818d85b1b60d21b60648201526084016104b3565b60006109af8686868080601f0160208091040260200160405190810160405280939291908181526020018383808284376000920191909152506114be92505050565b6040516bffffffffffffffffffffffff19606083901b166020820152909150603401604051602081830303815290604052925085816001600160a01b0316897f01c42bd7e97a66166063b02fce6924e6656b6c2c61966630165095c4fb0b7b2f60405160405180910390a450610c78565b6002871415610c30576001600160a01b03861615610ab25760405162461bcd60e51b815260206004820152604360248201527f455243373235583a20435245415445206f7065726174696f6e7320726571756960448201527f726520746865207265636569766572206164647265737320746f20626520656d60648201526270747960e81b608482015260a4016104b3565b84471015610b115760405162461bcd60e51b815260206004820152602660248201527f455243373235583a20696e73756666696369656e742062616c616e636520666f6044820152651c8818d85b1b60d21b60648201526084016104b3565b6000610b5f85858080601f016020809104026020016040519081016040528093929190818152602001838380828437600092019190915250610b5a92506020915088905061237f565b611572565b90506000610bae86868080601f01602080910402602001604051908101604052809392919081815260200183838082843760009201829052509250610ba99150602090508961237f565b6115d8565b90506000610bbd888484611700565b6040516bffffffffffffffffffffffff19606083901b166020820152909150603401604051602081830303815290604052945087816001600160a01b03168b7f01c42bd7e97a66166063b02fce6924e6656b6c2c61966630165095c4fb0b7b2f60405160405180910390a4505050610c78565b60405162461bcd60e51b815260206004820152601460248201527f57726f6e67206f7065726174696f6e207479706500000000000000000000000060448201526064016104b3565b5095945050505050565b6060815167ffffffffffffffff811115610c9e57610c9e6124ae565b604051908082528060200260200182016040528015610cd157816020015b6060815260200190600190039081610cbc5790505b50905060005b8251811015610d3057610d02838281518110610cf557610cf5612498565b602002602001015161117a565b828281518110610d1457610d14612498565b6020026020010181905250610d298160010190565b9050610cd7565b50919050565b6000546201000090046001600160a01b0316610d5061180a565b610d59816118be565b610d6233611982565b50565b60606103b78261117a565b60606000610d9d7f0cfc51aec37c55a4d0b1a65c6255c4bf2fbdf6277f3cc0730c45b828b6db8b4761117a565b90506014815110610e5b576000610db3826123c6565b60601c9050610dc98163c2d7bcc160e01b61121c565b15610e595760405163c2d7bcc160e01b81526001600160a01b0382169063c2d7bcc190610e009033908a908a908a90600401612238565b600060405180830381600087803b158015610e1a57600080fd5b505af1158015610e2e573d6000803e3d6000fd5b505050506040513d6000823e601f3d908101601f19168201604052610e5691908101906120f1565b92505b505b81604051610e69919061221c565b604051809103902085610e793390565b6001600160a01b03167f8187df79ab47ad16102e7bc8760349a115b3ba9869b8cedd78996f930ac9cac38787604051610eb39291906122c3565b60405180910390a4509392505050565b6000546001600160a01b0362010000909104163314610f245760405162461bcd60e51b815260206004820181905260248201527f4f776e61626c653a2063616c6c6572206973206e6f7420746865206f776e657260448201526064016104b3565b610f2e60006119f4565b565b6000546201000090046001600160a01b03166001600160a01b0316336001600160a01b03161461102c576000610f857f0cfc51aec37c55a4d0b1a65c6255c4bf2fbdf6277f3cc0730c45b828b6db8b4761117a565b610f8e906123c6565b60601c9050610fa43363c2d7bcc160e01b61121c565b8015610fb85750336001600160a01b038216145b61102a5760405162461bcd60e51b815260206004820152603160248201527f4f6e6c79204f776e6572206f7220556e6976657273616c20526563656976657260448201527f2044656c656761746520616c6c6f77656400000000000000000000000000000060648201526084016104b3565b505b611036828261131a565b5050565b60006110466001611a80565b9050801561105e576000805461ff0019166101001790555b61106782611bb9565b8015611036576000805461ff0019169055604051600181527f7f26b83ff96e1f2b6a682f133852f6798a09c465da95921460cefb38474024989060200160405180910390a15050565b6000546001600160a01b03620100009091041633146111115760405162461bcd60e51b815260206004820181905260248201527f4f776e61626c653a2063616c6c6572206973206e6f7420746865206f776e657260448201526064016104b3565b6002805473ffffffffffffffffffffffffffffffffffffffff19166001600160a01b03831617905550565b60006001600160e01b031982167f714df77c0000000000000000000000000000000000000000000000000000000014806103b757506103b782611caa565b600081815260016020526040902080546060919061119790612432565b80601f01602080910402602001604051908101604052809291908181526020018280546111c390612432565b80156112105780601f106111e557610100808354040283529160200191611210565b820191906000526020600020905b8154815290600101906020018083116111f357829003601f168201915b50505050509050919050565b604080516001600160e01b0319831660248083019190915282518083039091018152604490910182526020810180517bffffffffffffffffffffffffffffffffffffffffffffffffffffffff166301ffc9a760e01b179052905160009190829081906001600160a01b038716906175309061129890869061221c565b6000604051808303818686fa925050503d80600081146112d4576040519150601f19603f3d011682016040523d82523d6000602084013e6112d9565b606091505b50915091506020815110156112f457600093505050506103b7565b8180156113105750808060200190518101906113109190611ff9565b9695505050505050565b6000828152600160209081526040909120825161133992840190611d0b565b5060405182907fcdf4e344c0d23d4cdd0474039d176c55b19d531070dbe17856bfb993a5b5720b90600090a25050565b6060600080866001600160a01b0316848787604051611388919061221c565b600060405180830381858888f193505050503d80600081146113c6576040519150601f19603f3d011682016040523d82523d6000602084013e6113cb565b606091505b509150915081611310576113de81611cf8565b509695505050505050565b6060600080856001600160a01b03168486604051611407919061221c565b6000604051808303818686fa925050503d8060008114611443576040519150601f19603f3d011682016040523d82523d6000602084013e611448565b606091505b50915091508161145b57610c7881611cf8565b95945050505050565b6060600080856001600160a01b03168486604051611482919061221c565b6000604051808303818686f4925050503d8060008114611443576040519150601f19603f3d011682016040523d82523d6000602084013e611448565b60008151600014156115125760405162461bcd60e51b815260206004820152601d60248201527f6e6f20636f6e74726163742062797465636f64652070726f766964656400000060448201526064016104b3565b81516020830184f090506001600160a01b0381166103b75760405162461bcd60e51b815260206004820152601960248201527f436f756c64206e6f74206465706c6f7920636f6e74726163740000000000000060448201526064016104b3565b600061157f826020612367565b835110156115cf5760405162461bcd60e51b815260206004820152601560248201527f746f427974657333325f6f75744f66426f756e6473000000000000000000000060448201526064016104b3565b50016020015190565b6060816115e681601f612367565b10156116345760405162461bcd60e51b815260206004820152600e60248201527f736c6963655f6f766572666c6f7700000000000000000000000000000000000060448201526064016104b3565b61163e8284612367565b8451101561168e5760405162461bcd60e51b815260206004820152601160248201527f736c6963655f6f75744f66426f756e647300000000000000000000000000000060448201526064016104b3565b6060821580156116ad57604051915060008252602082016040526116f7565b6040519150601f8416801560200281840101858101878315602002848b0101015b818310156116e65780518352602092830192016116ce565b5050858452601f01601f1916604052505b50949350505050565b600080844710156117535760405162461bcd60e51b815260206004820152601d60248201527f437265617465323a20696e73756666696369656e742062616c616e636500000060448201526064016104b3565b82516117a15760405162461bcd60e51b815260206004820181905260248201527f437265617465323a2062797465636f6465206c656e677468206973207a65726f60448201526064016104b3565b8383516020850187f590506001600160a01b0381166118025760405162461bcd60e51b815260206004820152601960248201527f437265617465323a204661696c6564206f6e206465706c6f790000000000000060448201526064016104b3565b949350505050565b6002546001600160a01b0316331461188a5760405162461bcd60e51b815260206004820152602c60248201527f4f776e61626c65436c61696d3a2063616c6c6572206973206e6f74207468652060448201527f70656e64696e674f776e6572000000000000000000000000000000000000000060648201526084016104b3565b60025461189f906001600160a01b03166119f4565b6002805473ffffffffffffffffffffffffffffffffffffffff19169055565b6118cf81631aed5a8560e21b61121c565b15610d625760408051631aed5a8560e21b81527f3ca9f769340018257ac15b3a00e502e8fb730d66086f774210f84d0205af31e760048201526024810191909152600060448201526001600160a01b03821690636bb56a14906064015b600060405180830381600087803b15801561194657600080fd5b505af115801561195a573d6000803e3d6000fd5b505050506040513d6000823e601f3d908101601f1916820160405261103691908101906120f1565b61199381631aed5a8560e21b61121c565b15610d625760408051631aed5a8560e21b81527f09aaf55960715d8d86b57af40be36b0bfd469c9a3643445d8c65d39e27b4c56f60048201526024810191909152600060448201526001600160a01b03821690636bb56a149060640161192c565b6000546001600160a01b03828116620100009092041614610d6257600080546001600160a01b03838116620100008181027fffffffffffffffffffff0000000000000000000000000000000000000000ffff851617855560405193049190911692909183917f8be0079c531659141344cd1fd0a4f28419497f9722a3daafe3b4186f6b6457e091a35050565b60008054610100900460ff1615611b1d578160ff166001148015611aa35750303b155b611b155760405162461bcd60e51b815260206004820152602e60248201527f496e697469616c697a61626c653a20636f6e747261637420697320616c72656160448201527f647920696e697469616c697a656400000000000000000000000000000000000060648201526084016104b3565b506000919050565b60005460ff808416911610611b9a5760405162461bcd60e51b815260206004820152602e60248201527f496e697469616c697a61626c653a20636f6e747261637420697320616c72656160448201527f647920696e697469616c697a656400000000000000000000000000000000000060648201526084016104b3565b506000805460ff191660ff92909216919091179055600190565b919050565b600054610100900460ff16611c365760405162461bcd60e51b815260206004820152602b60248201527f496e697469616c697a61626c653a20636f6e7472616374206973206e6f74206960448201527f6e697469616c697a696e6700000000000000000000000000000000000000000060648201526084016104b3565b611c3f816119f4565b611ca17feafec4d89fa9619884b600007c0334a14085fefa8b51ae5a40895018882bdb9060001b6040518060400160405280600481526020017f7c0334a10000000000000000000000000000000000000000000000000000000081525061131a565b610d6281611982565b60006001600160e01b031982167f44c028fe0000000000000000000000000000000000000000000000000000000014806103b757506301ffc9a760e01b6001600160e01b03198316146103b7565b8051606090156101205781518083602001fd5b828054611d1790612432565b90600052602060002090601f016020900481019282611d395760008555611d7f565b82601f10611d5257805160ff1916838001178555611d7f565b82800160010185558215611d7f579182015b82811115611d7f578251825591602001919060010190611d64565b50611d8b929150611d8f565b5090565b5b80821115611d8b5760008155600101611d90565b80356001600160a01b0381168114611bb457600080fd5b600082601f830112611dcc57600080fd5b81356020611de1611ddc8361231b565b6122ea565b80838252828201915082860187848660051b8901011115611e0157600080fd5b60005b85811015611e2057813584529284019290840190600101611e04565b5090979650505050505050565b60008083601f840112611e3f57600080fd5b50813567ffffffffffffffff811115611e5757600080fd5b602083019150836020828501011115611e6f57600080fd5b9250929050565b600082601f830112611e8757600080fd5b8135611e95611ddc8261233f565b818152846020838601011115611eaa57600080fd5b816020850160208301376000918101602001919091529392505050565b600060208284031215611ed957600080fd5b611ee282611da4565b9392505050565b600060208284031215611efb57600080fd5b813567ffffffffffffffff811115611f1257600080fd5b61180284828501611dbb565b60008060408385031215611f3157600080fd5b823567ffffffffffffffff80821115611f4957600080fd5b611f5586838701611dbb565b9350602091508185013581811115611f6c57600080fd5b8501601f81018713611f7d57600080fd5b8035611f8b611ddc8261231b565b8082825285820191508584018a878560051b8701011115611fab57600080fd5b6000805b85811015611fe657823588811115611fc5578283fd5b611fd38e8b838b0101611e76565b8652509388019391880191600101611faf565b5050508096505050505050509250929050565b60006020828403121561200b57600080fd5b81518015158114611ee257600080fd5b60006020828403121561202d57600080fd5b5035919050565b60008060006040848603121561204957600080fd5b83359250602084013567ffffffffffffffff81111561206757600080fd5b61207386828701611e2d565b9497909650939450505050565b6000806040838503121561209357600080fd5b82359150602083013567ffffffffffffffff8111156120b157600080fd5b6120bd85828601611e76565b9150509250929050565b6000602082840312156120d957600080fd5b81356001600160e01b031981168114611ee257600080fd5b60006020828403121561210357600080fd5b815167ffffffffffffffff81111561211a57600080fd5b8201601f8101841361212b57600080fd5b8051612139611ddc8261233f565b81815285602083850101111561214e57600080fd5b61145b826020830160208601612402565b60008060008060006080868803121561217757600080fd5b8535945061218760208701611da4565b935060408601359250606086013567ffffffffffffffff8111156121aa57600080fd5b6121b688828901611e2d565b969995985093965092949392505050565b81835281816020850137506000828201602090810191909152601f909101601f19169091010190565b60008151808452612208816020860160208601612402565b601f01601f19169290920160200192915050565b6000825161222e818460208701612402565b9190910192915050565b6001600160a01b03851681528360208201526060604082015260006113106060830184866121c7565b6000602080830181845280855180835260408601915060408160051b870101925083870160005b828110156122b657603f198886030184526122a48583516121f0565b94509285019290850190600101612288565b5092979650505050505050565b6020815260006118026020830184866121c7565b602081526000611ee260208301846121f0565b604051601f8201601f1916810167ffffffffffffffff81118282101715612313576123136124ae565b604052919050565b600067ffffffffffffffff821115612335576123356124ae565b5060051b60200190565b600067ffffffffffffffff821115612359576123596124ae565b50601f01601f191660200190565b6000821982111561237a5761237a612482565b500190565b60008282101561239157612391612482565b500390565b6001600160e01b031981358181169160048510156123be5780818660040360031b1b83161692505b505092915050565b805160208201516bffffffffffffffffffffffff1980821692919060148310156123fa5780818460140360031b1b83161693505b505050919050565b60005b8381101561241d578181015183820152602001612405565b8381111561242c576000848401525b50505050565b600181811c9082168061244657607f821691505b60208210811415610d3057634e487b7160e01b600052602260045260246000fd5b600060001982141561247b5761247b612482565b5060010190565b634e487b7160e01b600052601160045260246000fd5b634e487b7160e01b600052603260045260246000fd5b634e487b7160e01b600052604160045260246000fdfea2646970667358221220d2e1d4a1b33595c2696306cce533da7a2843f1c471bb2a2cbb8e9b7fda2a7ac064736f6c63430008070033",
  "linkReferences": {},
  "deployedLinkReferences": {}
}