{
  "_format": "hh-sol-artifact-1",
  "contractName": "LSP9Vault",
  "sourceName": "contracts/LSP9Vault/LSP9Vault.sol",
  "abi": [
    {
      "inputs": [
        {
          "internalType": "address",
          "name": "_newOwner",
          "type": "address"
        }
      ],
      "stateMutability": "nonpayable",
      "type": "constructor"
    },
    {
      "anonymous": false,
      "inputs": [
        {
          "indexed": true,
          "internalType": "uint256",
          "name": "operation",
          "type": "uint256"
        },
        {
          "indexed": true,
          "internalType": "address",
          "name": "contractAddress",
          "type": "address"
        },
        {
          "indexed": true,
          "internalType": "uint256",
          "name": "value",
          "type": "uint256"
        }
      ],
      "name": "ContractCreated",
      "type": "event"
    },
    {
      "anonymous": false,
      "inputs": [
        {
          "indexed": true,
          "internalType": "bytes32",
          "name": "key",
          "type": "bytes32"
        }
      ],
      "name": "DataChanged",
      "type": "event"
    },
    {
      "anonymous": false,
      "inputs": [
        {
          "indexed": true,
          "internalType": "uint256",
          "name": "operation",
          "type": "uint256"
        },
        {
          "indexed": true,
          "internalType": "address",
          "name": "to",
          "type": "address"
        },
        {
          "indexed": true,
          "internalType": "uint256",
          "name": "value",
          "type": "uint256"
        },
        {
          "indexed": false,
          "internalType": "bytes4",
          "name": "selector",
          "type": "bytes4"
        }
      ],
      "name": "Executed",
      "type": "event"
    },
    {
      "anonymous": false,
      "inputs": [
        {
          "indexed": true,
          "internalType": "address",
          "name": "previousOwner",
          "type": "address"
        },
        {
          "indexed": true,
          "internalType": "address",
          "name": "newOwner",
          "type": "address"
        }
      ],
      "name": "OwnershipTransferred",
      "type": "event"
    },
    {
      "anonymous": false,
      "inputs": [
        {
          "indexed": true,
          "internalType": "address",
          "name": "from",
          "type": "address"
        },
        {
          "indexed": true,
          "internalType": "bytes32",
          "name": "typeId",
          "type": "bytes32"
        },
        {
          "indexed": true,
          "internalType": "bytes",
          "name": "returnedValue",
          "type": "bytes"
        },
        {
          "indexed": false,
          "internalType": "bytes",
          "name": "receivedData",
          "type": "bytes"
        }
      ],
      "name": "UniversalReceiver",
      "type": "event"
    },
    {
      "anonymous": false,
      "inputs": [
        {
          "indexed": true,
          "internalType": "address",
          "name": "sender",
          "type": "address"
        },
        {
          "indexed": true,
          "internalType": "uint256",
          "name": "value",
          "type": "uint256"
        }
      ],
      "name": "ValueReceived",
      "type": "event"
    },
    {
      "inputs": [],
      "name": "claimOwnership",
      "outputs": [],
      "stateMutability": "nonpayable",
      "type": "function"
    },
    {
      "inputs": [
        {
          "internalType": "uint256",
          "name": "_operation",
          "type": "uint256"
        },
        {
          "internalType": "address",
          "name": "_to",
          "type": "address"
        },
        {
          "internalType": "uint256",
          "name": "_value",
          "type": "uint256"
        },
        {
          "internalType": "bytes",
          "name": "_data",
          "type": "bytes"
        }
      ],
      "name": "execute",
      "outputs": [
        {
          "internalType": "bytes",
          "name": "result",
          "type": "bytes"
        }
      ],
      "stateMutability": "payable",
      "type": "function"
    },
    {
      "inputs": [
        {
          "internalType": "bytes32[]",
          "name": "keys",
          "type": "bytes32[]"
        }
      ],
      "name": "getData",
      "outputs": [
        {
          "internalType": "bytes[]",
          "name": "values",
          "type": "bytes[]"
        }
      ],
      "stateMutability": "view",
      "type": "function"
    },
    {
      "inputs": [
        {
          "internalType": "bytes32",
          "name": "key",
          "type": "bytes32"
        }
      ],
      "name": "getData",
      "outputs": [
        {
          "internalType": "bytes",
          "name": "value",
          "type": "bytes"
        }
      ],
      "stateMutability": "view",
      "type": "function"
    },
    {
      "inputs": [],
      "name": "owner",
      "outputs": [
        {
          "internalType": "address",
          "name": "",
          "type": "address"
        }
      ],
      "stateMutability": "view",
      "type": "function"
    },
    {
      "inputs": [],
      "name": "pendingOwner",
      "outputs": [
        {
          "internalType": "address",
          "name": "",
          "type": "address"
        }
      ],
      "stateMutability": "view",
      "type": "function"
    },
    {
      "inputs": [],
      "name": "renounceOwnership",
      "outputs": [],
      "stateMutability": "nonpayable",
      "type": "function"
    },
    {
      "inputs": [
        {
          "internalType": "bytes32[]",
          "name": "_keys",
          "type": "bytes32[]"
        },
        {
          "internalType": "bytes[]",
          "name": "_values",
          "type": "bytes[]"
        }
      ],
      "name": "setData",
      "outputs": [],
      "stateMutability": "nonpayable",
      "type": "function"
    },
    {
      "inputs": [
        {
          "internalType": "bytes32",
          "name": "_key",
          "type": "bytes32"
        },
        {
          "internalType": "bytes",
          "name": "_value",
          "type": "bytes"
        }
      ],
      "name": "setData",
      "outputs": [],
      "stateMutability": "nonpayable",
      "type": "function"
    },
    {
      "inputs": [
        {
          "internalType": "bytes4",
          "name": "interfaceId",
          "type": "bytes4"
        }
      ],
      "name": "supportsInterface",
      "outputs": [
        {
          "internalType": "bool",
          "name": "",
          "type": "bool"
        }
      ],
      "stateMutability": "view",
      "type": "function"
    },
    {
      "inputs": [
        {
          "internalType": "address",
          "name": "newOwner",
          "type": "address"
        }
      ],
      "name": "transferOwnership",
      "outputs": [],
      "stateMutability": "nonpayable",
      "type": "function"
    },
    {
      "inputs": [
        {
          "internalType": "bytes32",
          "name": "_typeId",
          "type": "bytes32"
        },
        {
          "internalType": "bytes",
          "name": "_data",
          "type": "bytes"
        }
      ],
      "name": "universalReceiver",
      "outputs": [
        {
          "internalType": "bytes",
          "name": "returnValue",
          "type": "bytes"
        }
      ],
      "stateMutability": "nonpayable",
      "type": "function"
    },
    {
      "stateMutability": "payable",
      "type": "receive"
    }
  ],
  "bytecode": "0x60806040523480156200001157600080fd5b5060405162002705380380620027058339810160408190526200003491620003cf565b6200004a81620000a460201b62000ff51760201c565b6040805180820190915260048152637c0334a160e01b602082015262000092907feafec4d89fa9619884b600007c0334a14085fefa8b51ae5a40895018882bdb90906200010b565b6200009d816200015c565b5062000581565b6000546001600160a01b038281169116146200010857600080546001600160a01b038381166001600160a01b0319831681178455604051919092169283917f8be0079c531659141344cd1fd0a4f28419497f9722a3daafe3b4186f6b6457e09190a3505b50565b600082815260016020908152604090912082516200012c9284019062000329565b5060405182907fcdf4e344c0d23d4cdd0474039d176c55b19d531070dbe17856bfb993a5b5720b90600090a25050565b6200017a81636bb56a1460e01b6200023560201b620010671760201c565b15620001085760408051631aed5a8560e21b81527f09aaf55960715d8d86b57af40be36b0bfd469c9a3643445d8c65d39e27b4c56f60048201526024810191909152600060448201526001600160a01b03821690636bb56a1490606401600060405180830381600087803b158015620001f257600080fd5b505af115801562000207573d6000803e3d6000fd5b505050506040513d6000823e601f3d908101601f1916820160405262000231919081019062000425565b5050565b604080516001600160e01b0319831660248083019190915282518083039091018152604490910182526020810180516001600160e01b03166301ffc9a760e01b179052905160009190829081906001600160a01b03871690617530906200029e908690620004dd565b6000604051808303818686fa925050503d8060008114620002dc576040519150601f19603f3d011682016040523d82523d6000602084013e620002e1565b606091505b5091509150602081511015620002fe576000935050505062000323565b8180156200031d5750808060200190518101906200031d919062000401565b93505050505b92915050565b82805462000337906200052e565b90600052602060002090601f0160209004810192826200035b5760008555620003a6565b82601f106200037657805160ff1916838001178555620003a6565b82800160010185558215620003a6579182015b82811115620003a657825182559160200191906001019062000389565b50620003b4929150620003b8565b5090565b5b80821115620003b45760008155600101620003b9565b600060208284031215620003e257600080fd5b81516001600160a01b0381168114620003fa57600080fd5b9392505050565b6000602082840312156200041457600080fd5b81518015158114620003fa57600080fd5b6000602082840312156200043857600080fd5b81516001600160401b03808211156200045057600080fd5b818401915084601f8301126200046557600080fd5b8151818111156200047a576200047a6200056b565b604051601f8201601f19908116603f01168101908382118183101715620004a557620004a56200056b565b81604052828152876020848701011115620004bf57600080fd5b620004d2836020830160208801620004fb565b979650505050505050565b60008251620004f1818460208701620004fb565b9190910192915050565b60005b8381101562000518578181015183820152602001620004fe565b8381111562000528576000848401525b50505050565b600181811c908216806200054357607f821691505b602082108114156200056557634e487b7160e01b600052602260045260246000fd5b50919050565b634e487b7160e01b600052604160045260246000fd5b61217480620005916000396000f3fe6080604052600436106100cb5760003560e01c80636bb56a14116100745780638da5cb5b1161004e5780638da5cb5b14610232578063e30c397814610264578063f2fde38b1461028457600080fd5b80636bb56a14146101dd578063715018a6146101fd5780637f23690c1461021257600080fd5b80634e3e6e9c116100a55780634e3e6e9c1461017b5780634e71e0c8146101a857806354f6127f146101bd57600080fd5b806301ffc9a71461010457806314a6e2931461013957806344c028fe1461015b57600080fd5b366100ff57604051349033907f7e71433ddf847725166244795048ecf3e3f9f35628254ecbf73605666423349390600090a3005b600080fd5b34801561011057600080fd5b5061012461011f366004611d41565b6102a4565b60405190151581526020015b60405180910390f35b34801561014557600080fd5b50610159610154366004611b98565b610337565b005b61016e610169366004611dd9565b6104f6565b6040516101309190611f51565b34801561018757600080fd5b5061019b610196366004611b63565b610bdd565b6040516101309190611edb565b3480156101b457600080fd5b50610159610c91565b3480156101c957600080fd5b5061016e6101d8366004611c95565b610cba565b3480156101e957600080fd5b5061016e6101f8366004611cae565b610cc5565b34801561020957600080fd5b50610159610e18565b34801561021e57600080fd5b5061015961022d366004611cfa565b610e7e565b34801561023e57600080fd5b506000546001600160a01b03165b6040516001600160a01b039091168152602001610130565b34801561027057600080fd5b5060025461024c906001600160a01b031681565b34801561029057600080fd5b5061015961029f366004611b41565b610f70565b60006001600160e01b031982167f8c1d44f60000000000000000000000000000000000000000000000000000000014806102ee57506001600160e01b03198216631aed5a8560e21b145b8061032257506001600160e01b031982167fad7dd9b000000000000000000000000000000000000000000000000000000000145b80610331575061033182611165565b92915050565b6000546001600160a01b031633146104205760006103747f0cfc51aec37c55a4d0b1a65c6255c4bf2fbdf6277f3cc0730c45b828b6db8b476111a3565b61037d90612040565b60601c90506103933363c2d7bcc160e01b611067565b80156103a75750336001600160a01b038216145b61041e5760405162461bcd60e51b815260206004820152603160248201527f4f6e6c79204f776e6572206f7220556e6976657273616c20526563656976657260448201527f2044656c656761746520616c6c6f77656400000000000000000000000000000060648201526084015b60405180910390fd5b505b80518251146104975760405162461bcd60e51b815260206004820152602660248201527f4b657973206c656e677468206e6f7420657175616c20746f2076616c7565732060448201527f6c656e67746800000000000000000000000000000000000000000000000000006064820152608401610415565b60005b82518110156104f1576104df8382815181106104b8576104b8612112565b60200260200101518383815181106104d2576104d2612112565b6020026020010151611245565b806104e9816120e1565b91505061049a565b505050565b6000546060906001600160a01b031633146105535760405162461bcd60e51b815260206004820181905260248201527f4f776e61626c653a2063616c6c6572206973206e6f7420746865206f776e65726044820152606401610415565b60005a90508661065957844710156105bc5760405162461bcd60e51b815260206004820152602660248201527f455243373235583a20696e73756666696369656e742062616c616e636520666f6044820152651c8818d85b1b60d21b6064820152608401610415565b6105ff868686868080601f016020809104026020016040519081016040528093929190818152602001838380828437600092019190915250879250611294915050565b9150846001600160a01b038716887f4810874456b8e6487bd861375cf6abd8e1c8bb5858c8ce36a86a04dabfac199e6106388789612010565b6040516001600160e01b0319909116815260200160405180910390a4610bd3565b60038714156107185784156106d65760405162461bcd60e51b815260206004820152603860248201527f455243373235583a2063616e6e6f74207472616e736665722076616c7565207760448201527f697468206f7065726174696f6e2053544154494343414c4c00000000000000006064820152608401610415565b6105ff8685858080601f016020809104026020016040519081016040528093929190818152602001838380828437600092019190915250869250611314915050565b60048714156107d75784156107955760405162461bcd60e51b815260206004820152603a60248201527f455243373235583a2063616e6e6f74207472616e736665722076616c7565207760448201527f697468206f7065726174696f6e2044454c454741544543414c4c0000000000006064820152608401610415565b6105ff8685858080601f01602080910402602001604051908101604052809392919081815260200183838082843760009201919091525086925061138f915050565b600187141561097b576001600160a01b038616156108695760405162461bcd60e51b815260206004820152604360248201527f455243373235583a20435245415445206f7065726174696f6e7320726571756960448201527f726520746865207265636569766572206164647265737320746f20626520656d60648201526270747960e81b608482015260a401610415565b844710156108c85760405162461bcd60e51b815260206004820152602660248201527f455243373235583a20696e73756666696369656e742062616c616e636520666f6044820152651c8818d85b1b60d21b6064820152608401610415565b600061090a8686868080601f0160208091040260200160405190810160405280939291908181526020018383808284376000920191909152506113e992505050565b6040516bffffffffffffffffffffffff19606083901b166020820152909150603401604051602081830303815290604052925085816001600160a01b0316897f01c42bd7e97a66166063b02fce6924e6656b6c2c61966630165095c4fb0b7b2f60405160405180910390a450610bd3565b6002871415610b8b576001600160a01b03861615610a0d5760405162461bcd60e51b815260206004820152604360248201527f455243373235583a20435245415445206f7065726174696f6e7320726571756960448201527f726520746865207265636569766572206164647265737320746f20626520656d60648201526270747960e81b608482015260a401610415565b84471015610a6c5760405162461bcd60e51b815260206004820152602660248201527f455243373235583a20696e73756666696369656e742062616c616e636520666f6044820152651c8818d85b1b60d21b6064820152608401610415565b6000610aba85858080601f016020809104026020016040519081016040528093929190818152602001838380828437600092019190915250610ab5925060209150889050611ff9565b61149d565b90506000610b0986868080601f01602080910402602001604051908101604052809392919081815260200183838082843760009201829052509250610b0491506020905089611ff9565b611503565b90506000610b1888848461162b565b6040516bffffffffffffffffffffffff19606083901b166020820152909150603401604051602081830303815290604052945087816001600160a01b03168b7f01c42bd7e97a66166063b02fce6924e6656b6c2c61966630165095c4fb0b7b2f60405160405180910390a4505050610bd3565b60405162461bcd60e51b815260206004820152601460248201527f57726f6e67206f7065726174696f6e20747970650000000000000000000000006044820152606401610415565b5095945050505050565b6060815167ffffffffffffffff811115610bf957610bf9612128565b604051908082528060200260200182016040528015610c2c57816020015b6060815260200190600190039081610c175790505b50905060005b8251811015610c8b57610c5d838281518110610c5057610c50612112565b60200260200101516111a3565b828281518110610c6f57610c6f612112565b6020026020010181905250610c848160010190565b9050610c32565b50919050565b6000546001600160a01b0316610ca5611735565b610cae816117e9565b610cb7336118ad565b50565b6060610331826111a3565b60606000610cf27f0cfc51aec37c55a4d0b1a65c6255c4bf2fbdf6277f3cc0730c45b828b6db8b476111a3565b90506014815110610db0576000610d0882612040565b60601c9050610d1e8163c2d7bcc160e01b611067565b15610dae5760405163c2d7bcc160e01b81526001600160a01b0382169063c2d7bcc190610d559033908a908a908a90600401611eb2565b600060405180830381600087803b158015610d6f57600080fd5b505af1158015610d83573d6000803e3d6000fd5b505050506040513d6000823e601f3d908101601f19168201604052610dab9190810190611d6b565b92505b505b81604051610dbe9190611e96565b604051809103902085610dce3390565b6001600160a01b03167f8187df79ab47ad16102e7bc8760349a115b3ba9869b8cedd78996f930ac9cac38787604051610e08929190611f3d565b60405180910390a4509392505050565b6000546001600160a01b03163314610e725760405162461bcd60e51b815260206004820181905260248201527f4f776e61626c653a2063616c6c6572206973206e6f7420746865206f776e65726044820152606401610415565b610e7c6000610ff5565b565b6000546001600160a01b03163314610f62576000610ebb7f0cfc51aec37c55a4d0b1a65c6255c4bf2fbdf6277f3cc0730c45b828b6db8b476111a3565b610ec490612040565b60601c9050610eda3363c2d7bcc160e01b611067565b8015610eee5750336001600160a01b038216145b610f605760405162461bcd60e51b815260206004820152603160248201527f4f6e6c79204f776e6572206f7220556e6976657273616c20526563656976657260448201527f2044656c656761746520616c6c6f7765640000000000000000000000000000006064820152608401610415565b505b610f6c8282611245565b5050565b6000546001600160a01b03163314610fca5760405162461bcd60e51b815260206004820181905260248201527f4f776e61626c653a2063616c6c6572206973206e6f7420746865206f776e65726044820152606401610415565b6002805473ffffffffffffffffffffffffffffffffffffffff19166001600160a01b03831617905550565b6000546001600160a01b03828116911614610cb757600080546001600160a01b0383811673ffffffffffffffffffffffffffffffffffffffff19831681178455604051919092169283917f8be0079c531659141344cd1fd0a4f28419497f9722a3daafe3b4186f6b6457e09190a35050565b604080516001600160e01b0319831660248083019190915282518083039091018152604490910182526020810180517bffffffffffffffffffffffffffffffffffffffffffffffffffffffff166301ffc9a760e01b179052905160009190829081906001600160a01b03871690617530906110e3908690611e96565b6000604051808303818686fa925050503d806000811461111f576040519150601f19603f3d011682016040523d82523d6000602084013e611124565b606091505b509150915060208151101561113f5760009350505050610331565b81801561115b57508080602001905181019061115b9190611c73565b9695505050505050565b60006001600160e01b031982167f714df77c00000000000000000000000000000000000000000000000000000000148061033157506103318261191f565b60008181526001602052604090208054606091906111c0906120ac565b80601f01602080910402602001604051908101604052809291908181526020018280546111ec906120ac565b80156112395780601f1061120e57610100808354040283529160200191611239565b820191906000526020600020905b81548152906001019060200180831161121c57829003601f168201915b50505050509050919050565b6000828152600160209081526040909120825161126492840190611985565b5060405182907fcdf4e344c0d23d4cdd0474039d176c55b19d531070dbe17856bfb993a5b5720b90600090a25050565b6060600080866001600160a01b03168487876040516112b39190611e96565b600060405180830381858888f193505050503d80600081146112f1576040519150601f19603f3d011682016040523d82523d6000602084013e6112f6565b606091505b50915091508161115b576113098161196d565b509695505050505050565b6060600080856001600160a01b031684866040516113329190611e96565b6000604051808303818686fa925050503d806000811461136e576040519150601f19603f3d011682016040523d82523d6000602084013e611373565b606091505b50915091508161138657610bd38161196d565b95945050505050565b6060600080856001600160a01b031684866040516113ad9190611e96565b6000604051808303818686f4925050503d806000811461136e576040519150601f19603f3d011682016040523d82523d6000602084013e611373565b600081516000141561143d5760405162461bcd60e51b815260206004820152601d60248201527f6e6f20636f6e74726163742062797465636f64652070726f76696465640000006044820152606401610415565b81516020830184f090506001600160a01b0381166103315760405162461bcd60e51b815260206004820152601960248201527f436f756c64206e6f74206465706c6f7920636f6e7472616374000000000000006044820152606401610415565b60006114aa826020611fe1565b835110156114fa5760405162461bcd60e51b815260206004820152601560248201527f746f427974657333325f6f75744f66426f756e647300000000000000000000006044820152606401610415565b50016020015190565b60608161151181601f611fe1565b101561155f5760405162461bcd60e51b815260206004820152600e60248201527f736c6963655f6f766572666c6f770000000000000000000000000000000000006044820152606401610415565b6115698284611fe1565b845110156115b95760405162461bcd60e51b815260206004820152601160248201527f736c6963655f6f75744f66426f756e64730000000000000000000000000000006044820152606401610415565b6060821580156115d85760405191506000825260208201604052611622565b6040519150601f8416801560200281840101858101878315602002848b0101015b818310156116115780518352602092830192016115f9565b5050858452601f01601f1916604052505b50949350505050565b6000808447101561167e5760405162461bcd60e51b815260206004820152601d60248201527f437265617465323a20696e73756666696369656e742062616c616e63650000006044820152606401610415565b82516116cc5760405162461bcd60e51b815260206004820181905260248201527f437265617465323a2062797465636f6465206c656e677468206973207a65726f6044820152606401610415565b8383516020850187f590506001600160a01b03811661172d5760405162461bcd60e51b815260206004820152601960248201527f437265617465323a204661696c6564206f6e206465706c6f79000000000000006044820152606401610415565b949350505050565b6002546001600160a01b031633146117b55760405162461bcd60e51b815260206004820152602c60248201527f4f776e61626c65436c61696d3a2063616c6c6572206973206e6f74207468652060448201527f70656e64696e674f776e657200000000000000000000000000000000000000006064820152608401610415565b6002546117ca906001600160a01b0316610ff5565b6002805473ffffffffffffffffffffffffffffffffffffffff19169055565b6117fa81631aed5a8560e21b611067565b15610cb75760408051631aed5a8560e21b81527f3ca9f769340018257ac15b3a00e502e8fb730d66086f774210f84d0205af31e760048201526024810191909152600060448201526001600160a01b03821690636bb56a14906064015b600060405180830381600087803b15801561187157600080fd5b505af1158015611885573d6000803e3d6000fd5b505050506040513d6000823e601f3d908101601f19168201604052610f6c9190810190611d6b565b6118be81631aed5a8560e21b611067565b15610cb75760408051631aed5a8560e21b81527f09aaf55960715d8d86b57af40be36b0bfd469c9a3643445d8c65d39e27b4c56f60048201526024810191909152600060448201526001600160a01b03821690636bb56a1490606401611857565b60006001600160e01b031982167f44c028fe00000000000000000000000000000000000000000000000000000000148061033157506301ffc9a760e01b6001600160e01b0319831614610331565b8051606090156100ff5781518083602001fd5b919050565b828054611991906120ac565b90600052602060002090601f0160209004810192826119b357600085556119f9565b82601f106119cc57805160ff19168380011785556119f9565b828001600101855582156119f9579182015b828111156119f95782518255916020019190600101906119de565b50611a05929150611a09565b5090565b5b80821115611a055760008155600101611a0a565b80356001600160a01b038116811461198057600080fd5b600082601f830112611a4657600080fd5b81356020611a5b611a5683611f95565b611f64565b80838252828201915082860187848660051b8901011115611a7b57600080fd5b60005b85811015611a9a57813584529284019290840190600101611a7e565b5090979650505050505050565b60008083601f840112611ab957600080fd5b50813567ffffffffffffffff811115611ad157600080fd5b602083019150836020828501011115611ae957600080fd5b9250929050565b600082601f830112611b0157600080fd5b8135611b0f611a5682611fb9565b818152846020838601011115611b2457600080fd5b816020850160208301376000918101602001919091529392505050565b600060208284031215611b5357600080fd5b611b5c82611a1e565b9392505050565b600060208284031215611b7557600080fd5b813567ffffffffffffffff811115611b8c57600080fd5b61172d84828501611a35565b60008060408385031215611bab57600080fd5b823567ffffffffffffffff80821115611bc357600080fd5b611bcf86838701611a35565b9350602091508185013581811115611be657600080fd5b8501601f81018713611bf757600080fd5b8035611c05611a5682611f95565b8082825285820191508584018a878560051b8701011115611c2557600080fd5b6000805b85811015611c6057823588811115611c3f578283fd5b611c4d8e8b838b0101611af0565b8652509388019391880191600101611c29565b5050508096505050505050509250929050565b600060208284031215611c8557600080fd5b81518015158114611b5c57600080fd5b600060208284031215611ca757600080fd5b5035919050565b600080600060408486031215611cc357600080fd5b83359250602084013567ffffffffffffffff811115611ce157600080fd5b611ced86828701611aa7565b9497909650939450505050565b60008060408385031215611d0d57600080fd5b82359150602083013567ffffffffffffffff811115611d2b57600080fd5b611d3785828601611af0565b9150509250929050565b600060208284031215611d5357600080fd5b81356001600160e01b031981168114611b5c57600080fd5b600060208284031215611d7d57600080fd5b815167ffffffffffffffff811115611d9457600080fd5b8201601f81018413611da557600080fd5b8051611db3611a5682611fb9565b818152856020838501011115611dc857600080fd5b61138682602083016020860161207c565b600080600080600060808688031215611df157600080fd5b85359450611e0160208701611a1e565b935060408601359250606086013567ffffffffffffffff811115611e2457600080fd5b611e3088828901611aa7565b969995985093965092949392505050565b81835281816020850137506000828201602090810191909152601f909101601f19169091010190565b60008151808452611e8281602086016020860161207c565b601f01601f19169290920160200192915050565b60008251611ea881846020870161207c565b9190910192915050565b6001600160a01b038516815283602082015260606040820152600061115b606083018486611e41565b6000602080830181845280855180835260408601915060408160051b870101925083870160005b82811015611f3057603f19888603018452611f1e858351611e6a565b94509285019290850190600101611f02565b5092979650505050505050565b60208152600061172d602083018486611e41565b602081526000611b5c6020830184611e6a565b604051601f8201601f1916810167ffffffffffffffff81118282101715611f8d57611f8d612128565b604052919050565b600067ffffffffffffffff821115611faf57611faf612128565b5060051b60200190565b600067ffffffffffffffff821115611fd357611fd3612128565b50601f01601f191660200190565b60008219821115611ff457611ff46120fc565b500190565b60008282101561200b5761200b6120fc565b500390565b6001600160e01b031981358181169160048510156120385780818660040360031b1b83161692505b505092915050565b805160208201516bffffffffffffffffffffffff1980821692919060148310156120745780818460140360031b1b83161693505b505050919050565b60005b8381101561209757818101518382015260200161207f565b838111156120a6576000848401525b50505050565b600181811c908216806120c057607f821691505b60208210811415610c8b57634e487b7160e01b600052602260045260246000fd5b60006000198214156120f5576120f56120fc565b5060010190565b634e487b7160e01b600052601160045260246000fd5b634e487b7160e01b600052603260045260246000fd5b634e487b7160e01b600052604160045260246000fdfea2646970667358221220b91a2eb31d6838bbb4441406c01ef5bd6f1d308f6cb3d1ad02b4749e198141ac64736f6c63430008070033",
  "linkReferences": {},
  "deployedLinkReferences": {}
}