{
  "_format": "hh-sol-artifact-1",
  "contractName": "UniversalFactory",
  "sourceName": "contracts/Factories/UniversalFactory.sol",
  "abi": [
    {
      "inputs": [
        {
          "internalType": "bytes32",
          "name": "byteCodeHash",
          "type": "bytes32"
        },
        {
          "internalType": "bytes32",
          "name": "salt",
          "type": "bytes32"
        },
        {
          "internalType": "bytes",
          "name": "initializeCallData",
          "type": "bytes"
        }
      ],
      "name": "calculateAddress",
      "outputs": [
        {
          "internalType": "address",
          "name": "",
          "type": "address"
        }
      ],
      "stateMutability": "view",
      "type": "function"
    },
    {
      "inputs": [
        {
          "internalType": "address",
          "name": "baseContract",
          "type": "address"
        },
        {
          "internalType": "bytes32",
          "name": "salt",
          "type": "bytes32"
        },
        {
          "internalType": "bytes",
          "name": "initializeCallData",
          "type": "bytes"
        }
      ],
      "name": "calculateProxyAddress",
      "outputs": [
        {
          "internalType": "address",
          "name": "",
          "type": "address"
        }
      ],
      "stateMutability": "view",
      "type": "function"
    },
    {
      "inputs": [
        {
          "internalType": "bytes",
          "name": "byteCode",
          "type": "bytes"
        },
        {
          "internalType": "bytes32",
          "name": "salt",
          "type": "bytes32"
        },
        {
          "internalType": "bytes",
          "name": "initializeCallData",
          "type": "bytes"
        }
      ],
      "name": "deployCreate2",
      "outputs": [
        {
          "internalType": "address",
          "name": "contractCreated",
          "type": "address"
        }
      ],
      "stateMutability": "payable",
      "type": "function"
    },
    {
      "inputs": [
        {
          "internalType": "address",
          "name": "baseContract",
          "type": "address"
        },
        {
          "internalType": "bytes32",
          "name": "salt",
          "type": "bytes32"
        },
        {
          "internalType": "bytes",
          "name": "initializeCallData",
          "type": "bytes"
        }
      ],
      "name": "deployCreate2Proxy",
      "outputs": [
        {
          "internalType": "address",
          "name": "proxy",
          "type": "address"
        }
      ],
      "stateMutability": "payable",
      "type": "function"
    }
  ],
  "bytecode": "0x608060405234801561001057600080fd5b50610a63806100206000396000f3fe60806040526004361061003f5760003560e01c806321d7987d146100445780633de7bd0b14610080578063b58941e114610093578063fcf5dcf3146100a6575b600080fd5b34801561005057600080fd5b5061006461005f366004610883565b6100c6565b6040516001600160a01b03909116815260200160405180910390f35b61006461008e366004610922565b6100e8565b6100646100a1366004610883565b610282565b3480156100b257600080fd5b506100646100c13660046108e8565b61038c565b6000806100d38385610414565b90506100df8582610477565b95945050505050565b6000838051603714156101e1577f72307939328b75c6e301a012c75e0a4e690a99036b95f6e6f4f1b5aba02a9ce461012382600060146104fa565b8051906020012014801561016957507f11a195f66c9175f46895bae2006d40848a680c7068b9fc4af248ff9a54a47e45610160826028600f6104fa565b80519060200120145b156101e15760405162461bcd60e51b815260206004820152602660248201527f4d696e696d616c2050726f78696573206465706c6f796d656e74206e6f74206160448201527f6c6c6f776564000000000000000000000000000000000000000000000000000060648201526084015b60405180910390fd5b60006101ed8486610414565b90506101fa348288610622565b84519093501561027957600080846001600160a01b03168660405161021f91906109e5565b6000604051808303816000865af19150503d806000811461025c576040519150601f19603f3d011682016040523d82523d6000602084013e610261565b606091505b509150915081610276576102748161072c565b505b50505b50509392505050565b60008061028f8385610414565b905061029b858261073f565b83519092501561031f57600080836001600160a01b031634866040516102c191906109e5565b60006040518083038185875af1925050503d80600081146102fe576040519150601f19603f3d011682016040523d82523d6000602084013e610303565b606091505b509150915081610318576103168161072c565b505b5050610384565b3415610384576040516000908190339034908381818185875af1925050503d8060008114610369576040519150601f19603f3d011682016040523d82523d6000602084013e61036e565b606091505b509150915081610381576102768161072c565b50505b509392505050565b6000806103998385610414565b90506100df8186604080517fff000000000000000000000000000000000000000000000000000000000000006020808301919091523060601b6bffffffffffffffffffffffff1916602183015260358201859052605580830185905283518084039091018152607590920190925280519101206000906104f3565b81516000901580159061045457808484604051602001610436939291906109c0565b60405160208183030381529060405280519060200120915050610471565b60405181151560f81b602082015260218101849052604101610436565b92915050565b60006104f38383306040517f3d602d80600a3d3981f3363d3d373d3d3d363d730000000000000000000000008152606093841b60148201527f5af43d82803e903d91602b57fd5bf3ff000000000000000000000000000000006028820152921b6038830152604c8201526037808220606c830152605591012090565b9392505050565b60608161050881601f6109f1565b10156105565760405162461bcd60e51b815260206004820152600e60248201527f736c6963655f6f766572666c6f7700000000000000000000000000000000000060448201526064016101d8565b61056082846109f1565b845110156105b05760405162461bcd60e51b815260206004820152601160248201527f736c6963655f6f75744f66426f756e647300000000000000000000000000000060448201526064016101d8565b6060821580156105cf5760405191506000825260208201604052610619565b6040519150601f8416801560200281840101858101878315602002848b0101015b818310156106085780518352602092830192016105f0565b5050858452601f01601f1916604052505b50949350505050565b600080844710156106755760405162461bcd60e51b815260206004820152601d60248201527f437265617465323a20696e73756666696369656e742062616c616e636500000060448201526064016101d8565b82516106c35760405162461bcd60e51b815260206004820181905260248201527f437265617465323a2062797465636f6465206c656e677468206973207a65726f60448201526064016101d8565b8383516020850187f590506001600160a01b0381166107245760405162461bcd60e51b815260206004820152601960248201527f437265617465323a204661696c6564206f6e206465706c6f790000000000000060448201526064016101d8565b949350505050565b80516060901561003f5781518083602001fd5b60006040517f3d602d80600a3d3981f3363d3d373d3d3d363d7300000000000000000000000081528360601b60148201527f5af43d82803e903d91602b57fd5bf300000000000000000000000000000000006028820152826037826000f59150506001600160a01b0381166104715760405162461bcd60e51b815260206004820152601760248201527f455243313136373a2063726561746532206661696c656400000000000000000060448201526064016101d8565b600082601f83011261080757600080fd5b813567ffffffffffffffff8082111561082257610822610a17565b604051601f8301601f19908116603f0116810190828211818310171561084a5761084a610a17565b8160405283815286602085880101111561086357600080fd5b836020870160208301376000602085830101528094505050505092915050565b60008060006060848603121561089857600080fd5b83356001600160a01b03811681146108af57600080fd5b925060208401359150604084013567ffffffffffffffff8111156108d257600080fd5b6108de868287016107f6565b9150509250925092565b6000806000606084860312156108fd57600080fd5b8335925060208401359150604084013567ffffffffffffffff8111156108d257600080fd5b60008060006060848603121561093757600080fd5b833567ffffffffffffffff8082111561094f57600080fd5b61095b878388016107f6565b945060208601359350604086013591508082111561097857600080fd5b506108de868287016107f6565b6000815160005b818110156109a6576020818501810151868301520161098c565b818111156109b5576000828601525b509290920192915050565b83151560f81b815260006109d76001830185610985565b928352505060200192915050565b60006104f38284610985565b60008219821115610a1257634e487b7160e01b600052601160045260246000fd5b500190565b634e487b7160e01b600052604160045260246000fdfea26469706673582212203fe1b3da9e1758f5c563b9e34cbe7d92207f35a30eef1aaef5e9bf9cc87ec46364736f6c63430008070033",
  "linkReferences": {},
  "deployedLinkReferences": {}
}