{
  "_format": "hh-sol-artifact-1",
  "contractName": "UniversalReceiverAddressStore",
  "sourceName": "contracts/Legacy/UniversalReceiverAddressStore.sol",
  "abi": [
    {
      "inputs": [
        {
          "internalType": "address",
          "name": "_account",
          "type": "address"
        }
      ],
      "stateMutability": "nonpayable",
      "type": "constructor"
    },
    {
      "inputs": [],
      "name": "account",
      "outputs": [
        {
          "internalType": "address",
          "name": "",
          "type": "address"
        }
      ],
      "stateMutability": "view",
      "type": "function"
    },
    {
      "inputs": [
        {
          "internalType": "address",
          "name": "_address",
          "type": "address"
        }
      ],
      "name": "addAddress",
      "outputs": [
        {
          "internalType": "bool",
          "name": "",
          "type": "bool"
        }
      ],
      "stateMutability": "nonpayable",
      "type": "function"
    },
    {
      "inputs": [
        {
          "internalType": "address",
          "name": "_address",
          "type": "address"
        }
      ],
      "name": "containsAddress",
      "outputs": [
        {
          "internalType": "bool",
          "name": "",
          "type": "bool"
        }
      ],
      "stateMutability": "view",
      "type": "function"
    },
    {
      "inputs": [
        {
          "internalType": "uint256",
          "name": "_index",
          "type": "uint256"
        }
      ],
      "name": "getAddress",
      "outputs": [
        {
          "internalType": "address",
          "name": "",
          "type": "address"
        }
      ],
      "stateMutability": "view",
      "type": "function"
    },
    {
      "inputs": [],
      "name": "getAllRawValues",
      "outputs": [
        {
          "internalType": "bytes32[]",
          "name": "",
          "type": "bytes32[]"
        }
      ],
      "stateMutability": "view",
      "type": "function"
    },
    {
      "inputs": [
        {
          "internalType": "address",
          "name": "_address",
          "type": "address"
        }
      ],
      "name": "getIndex",
      "outputs": [
        {
          "internalType": "uint256",
          "name": "",
          "type": "uint256"
        }
      ],
      "stateMutability": "view",
      "type": "function"
    },
    {
      "inputs": [],
      "name": "length",
      "outputs": [
        {
          "internalType": "uint256",
          "name": "",
          "type": "uint256"
        }
      ],
      "stateMutability": "view",
      "type": "function"
    },
    {
      "inputs": [
        {
          "internalType": "address",
          "name": "_address",
          "type": "address"
        }
      ],
      "name": "removeAddress",
      "outputs": [
        {
          "internalType": "bool",
          "name": "",
          "type": "bool"
        }
      ],
      "stateMutability": "nonpayable",
      "type": "function"
    },
    {
      "inputs": [
        {
          "internalType": "bytes4",
          "name": "interfaceId",
          "type": "bytes4"
        }
      ],
      "name": "supportsInterface",
      "outputs": [
        {
          "internalType": "bool",
          "name": "",
          "type": "bool"
        }
      ],
      "stateMutability": "view",
      "type": "function"
    },
    {
      "inputs": [
        {
          "internalType": "address",
          "name": "sender",
          "type": "address"
        },
        {
          "internalType": "bytes32",
          "name": "typeId",
          "type": "bytes32"
        },
        {
          "internalType": "bytes",
          "name": "",
          "type": "bytes"
        }
      ],
      "name": "universalReceiverDelegate",
      "outputs": [
        {
          "internalType": "bytes",
          "name": "",
          "type": "bytes"
        }
      ],
      "stateMutability": "nonpayable",
      "type": "function"
    }
  ],
  "bytecode": "0x608060405234801561001057600080fd5b50604051610a9a380380610a9a83398101604081905261002f916100e3565b600380546001600160a01b0319166001600160a01b03831617905561005a63c2d7bcc160e01b610060565b50610113565b6001600160e01b031980821614156100be5760405162461bcd60e51b815260206004820152601c60248201527f4552433136353a20696e76616c696420696e7465726661636520696400000000604482015260640160405180910390fd5b6001600160e01b0319166000908152602081905260409020805460ff19166001179055565b6000602082840312156100f557600080fd5b81516001600160a01b038116811461010c57600080fd5b9392505050565b610978806101226000396000f3fe608060405234801561001057600080fd5b50600436106100be5760003560e01c80635dab242011610076578063b93f9b0a1161005b578063b93f9b0a14610178578063c0a4ebf41461018b578063c2d7bcc1146101a057600080fd5b80635dab24201461013a578063b31610db1461016557600080fd5b8063322433e3116100a7578063322433e31461010157806338eada1c146101145780634ba79dfe1461012757600080fd5b806301ffc9a7146100c35780631f7b6d32146100eb575b600080fd5b6100d66100d13660046107e7565b6101c0565b60405190151581526020015b60405180910390f35b6100f3610249565b6040519081526020016100e2565b6100d661010f366004610701565b61025a565b6100d6610122366004610701565b610267565b6100d6610135366004610701565b6102ef565b60035461014d906001600160a01b031681565b6040516001600160a01b0390911681526020016100e2565b6100f3610173366004610701565b61036d565b61014d610186366004610829565b6103eb565b6101936103f8565b6040516100e29190610842565b6101b36101ae36600461071c565b61044f565b6040516100e29190610886565b60007f01ffc9a7000000000000000000000000000000000000000000000000000000007fffffffff000000000000000000000000000000000000000000000000000000008316148061024357507fffffffff00000000000000000000000000000000000000000000000000000000821660009081526020819052604090205460ff165b92915050565b60006102556001610519565b905090565b6000610243600183610523565b6003546000906001600160a01b031633146102df5760405162461bcd60e51b815260206004820152602d60248201527f4f6e6c792074686520636f6e6e6563746564206163636f756e742063616c6c2060448201526c3a3434b990333ab731ba34b7b760991b60648201526084015b60405180910390fd5b610243600183610548565b919050565b6003546000906001600160a01b031633146103625760405162461bcd60e51b815260206004820152602d60248201527f4f6e6c792074686520636f6e6e6563746564206163636f756e742063616c6c2060448201526c3a3434b990333ab731ba34b7b760991b60648201526084016102d6565b61024360018361055d565b600061037a600183610523565b6103c65760405162461bcd60e51b815260206004820152601e60248201527f456e756d657261626c655365743a20496e646578206e6f7420666f756e64000060448201526064016102d6565b6001600160a01b038216600090815260026020526040902054610243906001906108db565b6000610243600183610572565b60018054604080516020808402820181019092528281526060939092909183018282801561044557602002820191906000526020600020905b815481526020019060010190808311610431575b5050505050905090565b6003546060906001600160a01b031633146104c25760405162461bcd60e51b815260206004820152602d60248201527f4f6e6c792074686520636f6e6e6563746564206163636f756e742063616c6c2060448201526c3a3434b990333ab731ba34b7b760991b60648201526084016102d6565b7fb281fc8c12954d22544db45de3159a39272895b169a852b314f9cc762e44c53b8314156104f5576104f384610267565b505b60408051602081018590520160405160208183030381529060405290509392505050565b6000610243825490565b6001600160a01b038116600090815260018301602052604081205415155b9392505050565b6000610541836001600160a01b03841661057e565b6000610541836001600160a01b0384166105cd565b600061054183836106c0565b60008181526001830160205260408120546105c557508154600181810184556000848152602080822090930184905584548482528286019093526040902091909155610243565b506000610243565b600081815260018301602052604081205480156106b65760006105f16001836108db565b8554909150600090610605906001906108db565b905081811461066a57600086600001828154811061062557610625610916565b906000526020600020015490508087600001848154811061064857610648610916565b6000918252602080832090910192909255918252600188019052604090208390555b855486908061067b5761067b610900565b600190038181906000526020600020016000905590558560010160008681526020019081526020016000206000905560019350505050610243565b6000915050610243565b60008260000182815481106106d7576106d7610916565b9060005260206000200154905092915050565b80356001600160a01b03811681146102ea57600080fd5b60006020828403121561071357600080fd5b610541826106ea565b60008060006060848603121561073157600080fd5b61073a846106ea565b925060208401359150604084013567ffffffffffffffff8082111561075e57600080fd5b818601915086601f83011261077257600080fd5b8135818111156107845761078461092c565b604051601f8201601f19908116603f011681019083821181831017156107ac576107ac61092c565b816040528281528960208487010111156107c557600080fd5b8260208601602083013760006020848301015280955050505050509250925092565b6000602082840312156107f957600080fd5b81357fffffffff000000000000000000000000000000000000000000000000000000008116811461054157600080fd5b60006020828403121561083b57600080fd5b5035919050565b6020808252825182820181905260009190848201906040850190845b8181101561087a5783518352928401929184019160010161085e565b50909695505050505050565b600060208083528351808285015260005b818110156108b357858101830151858201604001528201610897565b818111156108c5576000604083870101525b50601f01601f1916929092016040019392505050565b6000828210156108fb57634e487b7160e01b600052601160045260246000fd5b500390565b634e487b7160e01b600052603160045260246000fd5b634e487b7160e01b600052603260045260246000fd5b634e487b7160e01b600052604160045260246000fdfea2646970667358221220d9a5929570532bd66048ad22a6211173fd2329684470c4f85bb96a2e5d5254d564736f6c63430008070033",
  "linkReferences": {},
  "deployedLinkReferences": {}
}