{
  "_format": "hh-sol-artifact-1",
  "contractName": "LSP0ERC725Account",
  "sourceName": "contracts/LSP0ERC725Account/LSP0ERC725Account.sol",
  "abi": [
    {
      "inputs": [
        {
          "internalType": "address",
          "name": "newOwner",
          "type": "address"
        }
      ],
      "stateMutability": "payable",
      "type": "constructor"
    },
    {
      "inputs": [],
      "name": "CannotTransferOwnershipToSelf",
      "type": "error"
    },
    {
      "inputs": [
        {
          "internalType": "uint256",
          "name": "renounceOwnershipStart",
          "type": "uint256"
        },
        {
          "internalType": "uint256",
          "name": "renounceOwnershipEnd",
          "type": "uint256"
        }
      ],
      "name": "NotInRenounceOwnershipInterval",
      "type": "error"
    },
    {
      "anonymous": false,
      "inputs": [
        {
          "indexed": true,
          "internalType": "uint256",
          "name": "operation",
          "type": "uint256"
        },
        {
          "indexed": true,
          "internalType": "address",
          "name": "contractAddress",
          "type": "address"
        },
        {
          "indexed": true,
          "internalType": "uint256",
          "name": "value",
          "type": "uint256"
        }
      ],
      "name": "ContractCreated",
      "type": "event"
    },
    {
      "anonymous": false,
      "inputs": [
        {
          "indexed": true,
          "internalType": "bytes32",
          "name": "dataKey",
          "type": "bytes32"
        },
        {
          "indexed": false,
          "internalType": "bytes",
          "name": "dataValue",
          "type": "bytes"
        }
      ],
      "name": "DataChanged",
      "type": "event"
    },
    {
      "anonymous": false,
      "inputs": [
        {
          "indexed": true,
          "internalType": "uint256",
          "name": "operation",
          "type": "uint256"
        },
        {
          "indexed": true,
          "internalType": "address",
          "name": "to",
          "type": "address"
        },
        {
          "indexed": true,
          "internalType": "uint256",
          "name": "value",
          "type": "uint256"
        },
        {
          "indexed": false,
          "internalType": "bytes4",
          "name": "selector",
          "type": "bytes4"
        }
      ],
      "name": "Executed",
      "type": "event"
    },
    {
      "anonymous": false,
      "inputs": [
        {
          "indexed": true,
          "internalType": "address",
          "name": "previousOwner",
          "type": "address"
        },
        {
          "indexed": true,
          "internalType": "address",
          "name": "newOwner",
          "type": "address"
        }
      ],
      "name": "OwnershipTransferred",
      "type": "event"
    },
    {
      "anonymous": false,
      "inputs": [],
      "name": "RenounceOwnershipInitiated",
      "type": "event"
    },
    {
      "anonymous": false,
      "inputs": [
        {
          "indexed": true,
          "internalType": "address",
          "name": "from",
          "type": "address"
        },
        {
          "indexed": false,
          "internalType": "uint256",
          "name": "value",
          "type": "uint256"
        },
        {
          "indexed": true,
          "internalType": "bytes32",
          "name": "typeId",
          "type": "bytes32"
        },
        {
          "indexed": true,
          "internalType": "bytes",
          "name": "returnedValue",
          "type": "bytes"
        },
        {
          "indexed": false,
          "internalType": "bytes",
          "name": "receivedData",
          "type": "bytes"
        }
      ],
      "name": "UniversalReceiver",
      "type": "event"
    },
    {
      "anonymous": false,
      "inputs": [
        {
          "indexed": true,
          "internalType": "address",
          "name": "sender",
          "type": "address"
        },
        {
          "indexed": true,
          "internalType": "uint256",
          "name": "value",
          "type": "uint256"
        }
      ],
      "name": "ValueReceived",
      "type": "event"
    },
    {
      "stateMutability": "payable",
      "type": "fallback"
    },
    {
      "inputs": [],
      "name": "claimOwnership",
      "outputs": [],
      "stateMutability": "nonpayable",
      "type": "function"
    },
    {
      "inputs": [
        {
          "internalType": "uint256",
          "name": "operation",
          "type": "uint256"
        },
        {
          "internalType": "address",
          "name": "to",
          "type": "address"
        },
        {
          "internalType": "uint256",
          "name": "value",
          "type": "uint256"
        },
        {
          "internalType": "bytes",
          "name": "data",
          "type": "bytes"
        }
      ],
      "name": "execute",
      "outputs": [
        {
          "internalType": "bytes",
          "name": "",
          "type": "bytes"
        }
      ],
      "stateMutability": "payable",
      "type": "function"
    },
    {
      "inputs": [
        {
          "internalType": "bytes32[]",
          "name": "dataKeys",
          "type": "bytes32[]"
        }
      ],
      "name": "getData",
      "outputs": [
        {
          "internalType": "bytes[]",
          "name": "dataValues",
          "type": "bytes[]"
        }
      ],
      "stateMutability": "view",
      "type": "function"
    },
    {
      "inputs": [
        {
          "internalType": "bytes32",
          "name": "dataKey",
          "type": "bytes32"
        }
      ],
      "name": "getData",
      "outputs": [
        {
          "internalType": "bytes",
          "name": "dataValue",
          "type": "bytes"
        }
      ],
      "stateMutability": "view",
      "type": "function"
    },
    {
      "inputs": [
        {
          "internalType": "bytes32",
          "name": "dataHash",
          "type": "bytes32"
        },
        {
          "internalType": "bytes",
          "name": "signature",
          "type": "bytes"
        }
      ],
      "name": "isValidSignature",
      "outputs": [
        {
          "internalType": "bytes4",
          "name": "magicValue",
          "type": "bytes4"
        }
      ],
      "stateMutability": "view",
      "type": "function"
    },
    {
      "inputs": [],
      "name": "owner",
      "outputs": [
        {
          "internalType": "address",
          "name": "",
          "type": "address"
        }
      ],
      "stateMutability": "view",
      "type": "function"
    },
    {
      "inputs": [],
      "name": "pendingOwner",
      "outputs": [
        {
          "internalType": "address",
          "name": "",
          "type": "address"
        }
      ],
      "stateMutability": "view",
      "type": "function"
    },
    {
      "inputs": [],
      "name": "renounceOwnership",
      "outputs": [],
      "stateMutability": "nonpayable",
      "type": "function"
    },
    {
      "inputs": [
        {
          "internalType": "bytes32[]",
          "name": "dataKeys",
          "type": "bytes32[]"
        },
        {
          "internalType": "bytes[]",
          "name": "dataValues",
          "type": "bytes[]"
        }
      ],
      "name": "setData",
      "outputs": [],
      "stateMutability": "nonpayable",
      "type": "function"
    },
    {
      "inputs": [
        {
          "internalType": "bytes32",
          "name": "dataKey",
          "type": "bytes32"
        },
        {
          "internalType": "bytes",
          "name": "dataValue",
          "type": "bytes"
        }
      ],
      "name": "setData",
      "outputs": [],
      "stateMutability": "nonpayable",
      "type": "function"
    },
    {
      "inputs": [
        {
          "internalType": "bytes4",
          "name": "interfaceId",
          "type": "bytes4"
        }
      ],
      "name": "supportsInterface",
      "outputs": [
        {
          "internalType": "bool",
          "name": "",
          "type": "bool"
        }
      ],
      "stateMutability": "view",
      "type": "function"
    },
    {
      "inputs": [
        {
          "internalType": "address",
          "name": "_newOwner",
          "type": "address"
        }
      ],
      "name": "transferOwnership",
      "outputs": [],
      "stateMutability": "nonpayable",
      "type": "function"
    },
    {
      "inputs": [
        {
          "internalType": "bytes32",
          "name": "typeId",
          "type": "bytes32"
        },
        {
          "internalType": "bytes",
          "name": "data",
          "type": "bytes"
        }
      ],
      "name": "universalReceiver",
      "outputs": [
        {
          "internalType": "bytes",
          "name": "returnValue",
          "type": "bytes"
        }
      ],
      "stateMutability": "payable",
      "type": "function"
    }
  ],
  "bytecode": "0x608060405260405162002430380380620024308339810160408190526200002691620000aa565b6200003c816200004360201b620008c91760201c565b50620000dc565b6000546001600160a01b03828116911614620000a757600080546001600160a01b038381166001600160a01b0319831681178455604051919092169283917f8be0079c531659141344cd1fd0a4f28419497f9722a3daafe3b4186f6b6457e09190a3505b50565b600060208284031215620000bd57600080fd5b81516001600160a01b0381168114620000d557600080fd5b9392505050565b61234480620000ec6000396000f3fe6080604052600436106100d25760003560e01c806354f6127f1161007f5780637f23690c116100595780637f23690c146102405780638da5cb5b14610260578063e30c397814610292578063f2fde38b146102b2576100d2565b806354f6127f146101f85780636bb56a1414610218578063715018a61461022b576100d2565b806344c028fe116100b057806344c028fe146101965780634e3e6e9c146101b65780634e71e0c8146101e3576100d2565b806301ffc9a71461010857806314a6e2931461013d5780631626ba7e1461015d575b341561010657604051349033907f7e71433ddf847725166244795048ecf3e3f9f35628254ecbf73605666423349390600090a35b005b34801561011457600080fd5b50610128610123366004611bde565b6102d2565b60405190151581526020015b60405180910390f35b34801561014957600080fd5b50610106610158366004611d4a565b610399565b34801561016957600080fd5b5061017d610178366004611e1f565b610472565b6040516001600160e01b03199091168152602001610134565b6101a96101a4366004611e82565b610573565b6040516101349190611f3f565b3480156101c257600080fd5b506101d66101d1366004611f52565b610684565b6040516101349190611f87565b3480156101ef57600080fd5b50610106610738565b34801561020457600080fd5b506101a9610213366004611fe9565b610742565b6101a9610226366004612002565b61074d565b34801561023757600080fd5b5061010661088f565b34801561024c57600080fd5b5061010661025b366004611e1f565b61089f565b34801561026c57600080fd5b506000546001600160a01b03165b6040516001600160a01b039091168152602001610134565b34801561029e57600080fd5b5060035461027a906001600160a01b031681565b3480156102be57600080fd5b506101066102cd36600461207e565b6108b5565b60006001600160e01b03198216630b135d3f60e11b148061031c57506001600160e01b031982167feb6be62e00000000000000000000000000000000000000000000000000000000145b8061035057506001600160e01b031982167f6bb56a1400000000000000000000000000000000000000000000000000000000145b8061038457506001600160e01b031982167fa375e9c600000000000000000000000000000000000000000000000000000000145b8061039357506103938261093b565b92915050565b6103a1610979565b805182511461041d5760405162461bcd60e51b815260206004820152602660248201527f4b657973206c656e677468206e6f7420657175616c20746f2076616c7565732060448201527f6c656e677468000000000000000000000000000000000000000000000000000060648201526084015b60405180910390fd5b60005b825181101561046d5761046583828151811061043e5761043e612099565b602002602001015183838151811061045857610458612099565b60200260200101516109e2565b600101610420565b505050565b6000806104876000546001600160a01b031690565b90506001600160a01b0381163b15610533576104aa81630b135d3f60e11b610a5d565b6104bc576001600160e01b031961052b565b604051630b135d3f60e11b81526001600160a01b03821690631626ba7e906104ea90879087906004016120af565b602060405180830381865afa158015610507573d6000803e3d6000fd5b505050506040513d601f19601f8201168201806040525081019061052b91906120c8565b915050610393565b61053d8484610b5f565b6001600160a01b0316816001600160a01b031614610563576001600160e01b031961052b565b50630b135d3f60e11b9392505050565b606061057d610979565b824710156105cd5760405162461bcd60e51b815260206004820152601d60248201527f455243373235583a20696e73756666696369656e742062616c616e63650000006044820152606401610414565b846105e4576105dd848484610b83565b905061067c565b60018514156105f8576105dd848484610c86565b600285141561060c576105dd848484610e67565b6003851415610620576105dd84848461100a565b6004851415610634576105dd848484611159565b60405162461bcd60e51b815260206004820152601f60248201527f455243373235583a20556e6b6e6f776e206f7065726174696f6e2074797065006044820152606401610414565b949350505050565b6060815167ffffffffffffffff8111156106a0576106a0611bfb565b6040519080825280602002602001820160405280156106d357816020015b60608152602001906001900390816106be5790505b50905060005b8251811015610732576107048382815181106106f7576106f7612099565b60200260200101516112a8565b82828151811061071657610716612099565b602002602001018190525061072b8160010190565b90506106d9565b50919050565b61074061134a565b565b6060610393826112a8565b6060600061077a7f0cfc51aec37c55a4d0b1a65c6255c4bf2fbdf6277f3cc0730c45b828b6db8b476112a8565b9050601481511061082b576000610790826120e5565b60601c90506107a681635122dded60e11b610a5d565b1561082957604051635122dded60e11b81526001600160a01b0382169063a245bbda906107df90339034908b908b908b9060040161214a565b6000604051808303816000875af11580156107fe573d6000803e3d6000fd5b505050506040513d6000823e601f3d908101601f191682016040526108269190810190612184565b92505b505b8160405161083991906121fb565b604051809103902085336001600160a01b03167f9c3ba68eb5742b8e3961aea0afc7371a71bf433c8a67a831803b64c064a178c234888860405161087f93929190612217565b60405180910390a4509392505050565b610897610979565b6107406113fe565b6108a7610979565b6108b182826109e2565b5050565b6108bd610979565b6108c6816114b6565b50565b6000546001600160a01b038281169116146108c657600080546001600160a01b0383811673ffffffffffffffffffffffffffffffffffffffff19831681178455604051919092169283917f8be0079c531659141344cd1fd0a4f28419497f9722a3daafe3b4186f6b6457e09190a35050565b60006001600160e01b031982167f714df77c000000000000000000000000000000000000000000000000000000001480610393575061039382611528565b3361098c6000546001600160a01b031690565b6001600160a01b0316146107405760405162461bcd60e51b815260206004820181905260248201527f4f776e61626c653a2063616c6c6572206973206e6f7420746865206f776e65726044820152606401610414565b60008281526001602090815260409091208251610a0192840190611b2f565b50817fece574603820d07bc9b91f2a932baadf4628aabcb8afba49776529c14a6104b261010083511115610a4257610a3d836000610100611576565b610a44565b825b604051610a519190611f3f565b60405180910390a25050565b604080516001600160e01b0319831660248083019190915282518083039091018152604490910182526020810180517bffffffffffffffffffffffffffffffffffffffffffffffffffffffff166301ffc9a760e01b179052905160009190829081906001600160a01b0387169061753090610ad99086906121fb565b6000604051808303818686fa925050503d8060008114610b15576040519150601f19603f3d011682016040523d82523d6000602084013e610b1a565b606091505b5091509150602081511015610b355760009350505050610393565b818015610b555750600081806020019051810190610b539190612231565b115b9695505050505050565b6000806000610b6e85856116a0565b91509150610b7b816116e6565b509392505050565b6060600080856001600160a01b03168585604051610ba191906121fb565b60006040518083038185875af1925050503d8060008114610bde576040519150601f19603f3d011682016040523d82523d6000602084013e610be3565b606091505b5091509150610c2882826040518060400160405280601681526020017f455243373235583a20556e6b6e6f776e204572726f72000000000000000000008152506118a1565b9250846001600160a01b03871660007f4810874456b8e6487bd861375cf6abd8e1c8bb5858c8ce36a86a04dabfac199e610c618861224a565b6040516001600160e01b0319909116815260200160405180910390a450509392505050565b60606001600160a01b03841615610d115760405162461bcd60e51b815260206004820152604360248201527f455243373235583a20435245415445206f7065726174696f6e7320726571756960448201527f726520746865207265636569766572206164647265737320746f20626520656d60648201526270747960e81b608482015260a401610414565b8151610d6e5760405162461bcd60e51b815260206004820152602660248201527f455243373235583a204e6f20636f6e74726163742062797465636f64652070726044820152651bdd9a59195960d21b6064820152608401610414565b600082516020840185f090506001600160a01b038116610df65760405162461bcd60e51b815260206004820152602260248201527f455243373235583a20436f756c64206e6f74206465706c6f7920636f6e74726160448201527f63740000000000000000000000000000000000000000000000000000000000006064820152608401610414565b6040516bffffffffffffffffffffffff19606083901b166020820152603401604051602081830303815290604052915083816001600160a01b031660017f01c42bd7e97a66166063b02fce6924e6656b6c2c61966630165095c4fb0b7b2f60405160405180910390a4509392505050565b60606001600160a01b03841615610ef25760405162461bcd60e51b815260206004820152604360248201527f455243373235583a20435245415445206f7065726174696f6e7320726571756960448201527f726520746865207265636569766572206164647265737320746f20626520656d60648201526270747960e81b608482015260a401610414565b8151610f4f5760405162461bcd60e51b815260206004820152602660248201527f455243373235583a204e6f20636f6e74726163742062797465636f64652070726044820152651bdd9a59195960d21b6064820152608401610414565b6000610f688360208551610f639190612294565b6118da565b90506000610f8584600060208751610f809190612294565b611576565b90506000610f94868484611940565b6040516bffffffffffffffffffffffff19606083901b166020820152909150603401604051602081830303815290604052935085816001600160a01b031660027f01c42bd7e97a66166063b02fce6924e6656b6c2c61966630165095c4fb0b7b2f60405160405180910390a45050509392505050565b606082156110805760405162461bcd60e51b815260206004820152603860248201527f455243373235583a2063616e6e6f74207472616e736665722076616c7565207760448201527f697468206f7065726174696f6e2053544154494343414c4c00000000000000006064820152608401610414565b600080856001600160a01b03168460405161109b91906121fb565b600060405180830381855afa9150503d80600081146110d6576040519150601f19603f3d011682016040523d82523d6000602084013e6110db565b606091505b509150915061112082826040518060400160405280601681526020017f455243373235583a20556e6b6e6f776e204572726f72000000000000000000008152506118a1565b9250846001600160a01b03871660037f4810874456b8e6487bd861375cf6abd8e1c8bb5858c8ce36a86a04dabfac199e610c618861224a565b606082156111cf5760405162461bcd60e51b815260206004820152603a60248201527f455243373235583a2063616e6e6f74207472616e736665722076616c7565207760448201527f697468206f7065726174696f6e2044454c454741544543414c4c0000000000006064820152608401610414565b600080856001600160a01b0316846040516111ea91906121fb565b600060405180830381855af49150503d8060008114611225576040519150601f19603f3d011682016040523d82523d6000602084013e61122a565b606091505b509150915061126f82826040518060400160405280601681526020017f455243373235583a20556e6b6e6f776e204572726f72000000000000000000008152506118a1565b9250846001600160a01b03871660047f4810874456b8e6487bd861375cf6abd8e1c8bb5858c8ce36a86a04dabfac199e610c618861224a565b60008181526001602052604090208054606091906112c5906122ab565b80601f01602080910402602001604051908101604052809291908181526020018280546112f1906122ab565b801561133e5780601f106113135761010080835404028352916020019161133e565b820191906000526020600020905b81548152906001019060200180831161132157829003601f168201915b50505050509050919050565b6003546001600160a01b031633146113ca5760405162461bcd60e51b815260206004820152602e60248201527f436c61696d4f776e6572736869703a2063616c6c6572206973206e6f7420746860448201527f652070656e64696e674f776e65720000000000000000000000000000000000006064820152608401610414565b6003546113df906001600160a01b03166108c9565b6003805473ffffffffffffffffffffffffffffffffffffffff19169055565b6002544390600090611412906064906122e0565b905060006114216064836122e0565b90508083111561145e5760028390556040517f56272768d104766ae5e663c58927d0a9e47effb40b9a8f6644ac5dfbc9e56f8490600090a1505050565b818310156114a2576040517f8b9bf5070000000000000000000000000000000000000000000000000000000081526004810183905260248101829052604401610414565b6114ac60006108c9565b5050600060025550565b6001600160a01b0381163014156114f9576040517f43b248cd00000000000000000000000000000000000000000000000000000000815260040160405180910390fd5b6003805473ffffffffffffffffffffffffffffffffffffffff19166001600160a01b0392909216919091179055565b60006001600160e01b031982167f44c028fe00000000000000000000000000000000000000000000000000000000148061039357506301ffc9a760e01b6001600160e01b0319831614610393565b60608161158481601f6122e0565b10156115d25760405162461bcd60e51b815260206004820152600e60248201527f736c6963655f6f766572666c6f770000000000000000000000000000000000006044820152606401610414565b6115dc82846122e0565b8451101561162c5760405162461bcd60e51b815260206004820152601160248201527f736c6963655f6f75744f66426f756e64730000000000000000000000000000006044820152606401610414565b60608215801561164b5760405191506000825260208201604052611695565b6040519150601f8416801560200281840101858101878315602002848b0101015b8183101561168457805183526020928301920161166c565b5050858452601f01601f1916604052505b5090505b9392505050565b6000808251604114156116d75760208301516040840151606085015160001a6116cb87828585611a42565b945094505050506116df565b506000905060025b9250929050565b60008160048111156116fa576116fa6122f8565b14156117035750565b6001816004811115611717576117176122f8565b14156117655760405162461bcd60e51b815260206004820152601860248201527f45434453413a20696e76616c6964207369676e617475726500000000000000006044820152606401610414565b6002816004811115611779576117796122f8565b14156117c75760405162461bcd60e51b815260206004820152601f60248201527f45434453413a20696e76616c6964207369676e6174757265206c656e677468006044820152606401610414565b60038160048111156117db576117db6122f8565b14156118345760405162461bcd60e51b815260206004820152602260248201527f45434453413a20696e76616c6964207369676e6174757265202773272076616c604482015261756560f01b6064820152608401610414565b6004816004811115611848576118486122f8565b14156108c65760405162461bcd60e51b815260206004820152602260248201527f45434453413a20696e76616c6964207369676e6174757265202776272076616c604482015261756560f01b6064820152608401610414565b606083156118b0575081611699565b8251156118c05782518084602001fd5b8160405162461bcd60e51b81526004016104149190611f3f565b60006118e78260206122e0565b835110156119375760405162461bcd60e51b815260206004820152601560248201527f746f427974657333325f6f75744f66426f756e647300000000000000000000006044820152606401610414565b50016020015190565b600080844710156119935760405162461bcd60e51b815260206004820152601d60248201527f437265617465323a20696e73756666696369656e742062616c616e63650000006044820152606401610414565b82516119e15760405162461bcd60e51b815260206004820181905260248201527f437265617465323a2062797465636f6465206c656e677468206973207a65726f6044820152606401610414565b8383516020850187f590506001600160a01b03811661067c5760405162461bcd60e51b815260206004820152601960248201527f437265617465323a204661696c6564206f6e206465706c6f79000000000000006044820152606401610414565b6000807f7fffffffffffffffffffffffffffffff5d576e7357a4501ddfe92f46681b20a0831115611a795750600090506003611b26565b8460ff16601b14158015611a9157508460ff16601c14155b15611aa25750600090506004611b26565b6040805160008082526020820180845289905260ff881692820192909252606081018690526080810185905260019060a0016020604051602081039080840390855afa158015611af6573d6000803e3d6000fd5b5050604051601f1901519150506001600160a01b038116611b1f57600060019250925050611b26565b9150600090505b94509492505050565b828054611b3b906122ab565b90600052602060002090601f016020900481019282611b5d5760008555611ba3565b82601f10611b7657805160ff1916838001178555611ba3565b82800160010185558215611ba3579182015b82811115611ba3578251825591602001919060010190611b88565b50611baf929150611bb3565b5090565b5b80821115611baf5760008155600101611bb4565b6001600160e01b0319811681146108c657600080fd5b600060208284031215611bf057600080fd5b813561169981611bc8565b634e487b7160e01b600052604160045260246000fd5b604051601f8201601f1916810167ffffffffffffffff81118282101715611c3a57611c3a611bfb565b604052919050565b600067ffffffffffffffff821115611c5c57611c5c611bfb565b5060051b60200190565b600082601f830112611c7757600080fd5b81356020611c8c611c8783611c42565b611c11565b82815260059290921b84018101918181019086841115611cab57600080fd5b8286015b84811015611cc65780358352918301918301611caf565b509695505050505050565b600067ffffffffffffffff821115611ceb57611ceb611bfb565b50601f01601f191660200190565b600082601f830112611d0a57600080fd5b8135611d18611c8782611cd1565b818152846020838601011115611d2d57600080fd5b816020850160208301376000918101602001919091529392505050565b60008060408385031215611d5d57600080fd5b823567ffffffffffffffff80821115611d7557600080fd5b611d8186838701611c66565b9350602091508185013581811115611d9857600080fd5b8501601f81018713611da957600080fd5b8035611db7611c8782611c42565b81815260059190911b82018401908481019089831115611dd657600080fd5b8584015b83811015611e0e57803586811115611df25760008081fd5b611e008c8983890101611cf9565b845250918601918601611dda565b508096505050505050509250929050565b60008060408385031215611e3257600080fd5b82359150602083013567ffffffffffffffff811115611e5057600080fd5b611e5c85828601611cf9565b9150509250929050565b80356001600160a01b0381168114611e7d57600080fd5b919050565b60008060008060808587031215611e9857600080fd5b84359350611ea860208601611e66565b925060408501359150606085013567ffffffffffffffff811115611ecb57600080fd5b611ed787828801611cf9565b91505092959194509250565b60005b83811015611efe578181015183820152602001611ee6565b83811115611f0d576000848401525b50505050565b60008151808452611f2b816020860160208601611ee3565b601f01601f19169290920160200192915050565b6020815260006116996020830184611f13565b600060208284031215611f6457600080fd5b813567ffffffffffffffff811115611f7b57600080fd5b61067c84828501611c66565b6000602080830181845280855180835260408601915060408160051b870101925083870160005b82811015611fdc57603f19888603018452611fca858351611f13565b94509285019290850190600101611fae565b5092979650505050505050565b600060208284031215611ffb57600080fd5b5035919050565b60008060006040848603121561201757600080fd5b83359250602084013567ffffffffffffffff8082111561203657600080fd5b818601915086601f83011261204a57600080fd5b81358181111561205957600080fd5b87602082850101111561206b57600080fd5b6020830194508093505050509250925092565b60006020828403121561209057600080fd5b61169982611e66565b634e487b7160e01b600052603260045260246000fd5b82815260406020820152600061067c6040830184611f13565b6000602082840312156120da57600080fd5b815161169981611bc8565b805160208201516bffffffffffffffffffffffff1980821692919060148310156121195780818460140360031b1b83161693505b505050919050565b81835281816020850137506000828201602090810191909152601f909101601f19169091010190565b6001600160a01b0386168152846020820152836040820152608060608201526000612179608083018486612121565b979650505050505050565b60006020828403121561219657600080fd5b815167ffffffffffffffff8111156121ad57600080fd5b8201601f810184136121be57600080fd5b80516121cc611c8782611cd1565b8181528560208385010111156121e157600080fd5b6121f2826020830160208601611ee3565b95945050505050565b6000825161220d818460208701611ee3565b9190910192915050565b8381526040602082015260006121f2604083018486612121565b60006020828403121561224357600080fd5b5051919050565b6000815160208301516001600160e01b0319808216935060048310156121195760049290920360031b82901b161692915050565b634e487b7160e01b600052601160045260246000fd5b6000828210156122a6576122a661227e565b500390565b600181811c908216806122bf57607f821691505b6020821081141561073257634e487b7160e01b600052602260045260246000fd5b600082198211156122f3576122f361227e565b500190565b634e487b7160e01b600052602160045260246000fdfea2646970667358221220965732aa05de525019b77e0ea29364634186bd47050dec89085a6ed19d7c147a64736f6c634300080a0033",
  "linkReferences": {},
  "deployedLinkReferences": {}
}