{
  "_format": "hh-sol-artifact-1",
  "contractName": "LSP0ERC725AccountInit",
  "sourceName": "contracts/LSP0ERC725Account/LSP0ERC725AccountInit.sol",
  "abi": [
    {
      "inputs": [],
      "stateMutability": "nonpayable",
      "type": "constructor"
    },
    {
      "inputs": [],
      "name": "CannotTransferOwnershipToSelf",
      "type": "error"
    },
    {
      "inputs": [
        {
          "internalType": "uint256",
          "name": "renounceOwnershipStart",
          "type": "uint256"
        },
        {
          "internalType": "uint256",
          "name": "renounceOwnershipEnd",
          "type": "uint256"
        }
      ],
      "name": "NotInRenounceOwnershipInterval",
      "type": "error"
    },
    {
      "anonymous": false,
      "inputs": [
        {
          "indexed": true,
          "internalType": "uint256",
          "name": "operation",
          "type": "uint256"
        },
        {
          "indexed": true,
          "internalType": "address",
          "name": "contractAddress",
          "type": "address"
        },
        {
          "indexed": true,
          "internalType": "uint256",
          "name": "value",
          "type": "uint256"
        }
      ],
      "name": "ContractCreated",
      "type": "event"
    },
    {
      "anonymous": false,
      "inputs": [
        {
          "indexed": true,
          "internalType": "bytes32",
          "name": "dataKey",
          "type": "bytes32"
        },
        {
          "indexed": false,
          "internalType": "bytes",
          "name": "dataValue",
          "type": "bytes"
        }
      ],
      "name": "DataChanged",
      "type": "event"
    },
    {
      "anonymous": false,
      "inputs": [
        {
          "indexed": true,
          "internalType": "uint256",
          "name": "operation",
          "type": "uint256"
        },
        {
          "indexed": true,
          "internalType": "address",
          "name": "to",
          "type": "address"
        },
        {
          "indexed": true,
          "internalType": "uint256",
          "name": "value",
          "type": "uint256"
        },
        {
          "indexed": false,
          "internalType": "bytes4",
          "name": "selector",
          "type": "bytes4"
        }
      ],
      "name": "Executed",
      "type": "event"
    },
    {
      "anonymous": false,
      "inputs": [
        {
          "indexed": false,
          "internalType": "uint8",
          "name": "version",
          "type": "uint8"
        }
      ],
      "name": "Initialized",
      "type": "event"
    },
    {
      "anonymous": false,
      "inputs": [
        {
          "indexed": true,
          "internalType": "address",
          "name": "previousOwner",
          "type": "address"
        },
        {
          "indexed": true,
          "internalType": "address",
          "name": "newOwner",
          "type": "address"
        }
      ],
      "name": "OwnershipTransferred",
      "type": "event"
    },
    {
      "anonymous": false,
      "inputs": [],
      "name": "RenounceOwnershipInitiated",
      "type": "event"
    },
    {
      "anonymous": false,
      "inputs": [
        {
          "indexed": true,
          "internalType": "address",
          "name": "from",
          "type": "address"
        },
        {
          "indexed": false,
          "internalType": "uint256",
          "name": "value",
          "type": "uint256"
        },
        {
          "indexed": true,
          "internalType": "bytes32",
          "name": "typeId",
          "type": "bytes32"
        },
        {
          "indexed": true,
          "internalType": "bytes",
          "name": "returnedValue",
          "type": "bytes"
        },
        {
          "indexed": false,
          "internalType": "bytes",
          "name": "receivedData",
          "type": "bytes"
        }
      ],
      "name": "UniversalReceiver",
      "type": "event"
    },
    {
      "anonymous": false,
      "inputs": [
        {
          "indexed": true,
          "internalType": "address",
          "name": "sender",
          "type": "address"
        },
        {
          "indexed": true,
          "internalType": "uint256",
          "name": "value",
          "type": "uint256"
        }
      ],
      "name": "ValueReceived",
      "type": "event"
    },
    {
      "stateMutability": "payable",
      "type": "fallback"
    },
    {
      "inputs": [],
      "name": "claimOwnership",
      "outputs": [],
      "stateMutability": "nonpayable",
      "type": "function"
    },
    {
      "inputs": [
        {
          "internalType": "uint256",
          "name": "operation",
          "type": "uint256"
        },
        {
          "internalType": "address",
          "name": "to",
          "type": "address"
        },
        {
          "internalType": "uint256",
          "name": "value",
          "type": "uint256"
        },
        {
          "internalType": "bytes",
          "name": "data",
          "type": "bytes"
        }
      ],
      "name": "execute",
      "outputs": [
        {
          "internalType": "bytes",
          "name": "",
          "type": "bytes"
        }
      ],
      "stateMutability": "payable",
      "type": "function"
    },
    {
      "inputs": [
        {
          "internalType": "bytes32[]",
          "name": "dataKeys",
          "type": "bytes32[]"
        }
      ],
      "name": "getData",
      "outputs": [
        {
          "internalType": "bytes[]",
          "name": "dataValues",
          "type": "bytes[]"
        }
      ],
      "stateMutability": "view",
      "type": "function"
    },
    {
      "inputs": [
        {
          "internalType": "bytes32",
          "name": "dataKey",
          "type": "bytes32"
        }
      ],
      "name": "getData",
      "outputs": [
        {
          "internalType": "bytes",
          "name": "dataValue",
          "type": "bytes"
        }
      ],
      "stateMutability": "view",
      "type": "function"
    },
    {
      "inputs": [
        {
          "internalType": "address",
          "name": "newOwner",
          "type": "address"
        }
      ],
      "name": "initialize",
      "outputs": [],
      "stateMutability": "payable",
      "type": "function"
    },
    {
      "inputs": [
        {
          "internalType": "bytes32",
          "name": "dataHash",
          "type": "bytes32"
        },
        {
          "internalType": "bytes",
          "name": "signature",
          "type": "bytes"
        }
      ],
      "name": "isValidSignature",
      "outputs": [
        {
          "internalType": "bytes4",
          "name": "magicValue",
          "type": "bytes4"
        }
      ],
      "stateMutability": "view",
      "type": "function"
    },
    {
      "inputs": [],
      "name": "owner",
      "outputs": [
        {
          "internalType": "address",
          "name": "",
          "type": "address"
        }
      ],
      "stateMutability": "view",
      "type": "function"
    },
    {
      "inputs": [],
      "name": "pendingOwner",
      "outputs": [
        {
          "internalType": "address",
          "name": "",
          "type": "address"
        }
      ],
      "stateMutability": "view",
      "type": "function"
    },
    {
      "inputs": [],
      "name": "renounceOwnership",
      "outputs": [],
      "stateMutability": "nonpayable",
      "type": "function"
    },
    {
      "inputs": [
        {
          "internalType": "bytes32[]",
          "name": "dataKeys",
          "type": "bytes32[]"
        },
        {
          "internalType": "bytes[]",
          "name": "dataValues",
          "type": "bytes[]"
        }
      ],
      "name": "setData",
      "outputs": [],
      "stateMutability": "nonpayable",
      "type": "function"
    },
    {
      "inputs": [
        {
          "internalType": "bytes32",
          "name": "dataKey",
          "type": "bytes32"
        },
        {
          "internalType": "bytes",
          "name": "dataValue",
          "type": "bytes"
        }
      ],
      "name": "setData",
      "outputs": [],
      "stateMutability": "nonpayable",
      "type": "function"
    },
    {
      "inputs": [
        {
          "internalType": "bytes4",
          "name": "interfaceId",
          "type": "bytes4"
        }
      ],
      "name": "supportsInterface",
      "outputs": [
        {
          "internalType": "bool",
          "name": "",
          "type": "bool"
        }
      ],
      "stateMutability": "view",
      "type": "function"
    },
    {
      "inputs": [
        {
          "internalType": "address",
          "name": "_newOwner",
          "type": "address"
        }
      ],
      "name": "transferOwnership",
      "outputs": [],
      "stateMutability": "nonpayable",
      "type": "function"
    },
    {
      "inputs": [
        {
          "internalType": "bytes32",
          "name": "typeId",
          "type": "bytes32"
        },
        {
          "internalType": "bytes",
          "name": "data",
          "type": "bytes"
        }
      ],
      "name": "universalReceiver",
      "outputs": [
        {
          "internalType": "bytes",
          "name": "returnValue",
          "type": "bytes"
        }
      ],
      "stateMutability": "payable",
      "type": "function"
    }
  ],
  "bytecode": "0x60806040523480156200001157600080fd5b506200001c62000022565b620000e4565b600054610100900460ff16156200008f5760405162461bcd60e51b815260206004820152602760248201527f496e697469616c697a61626c653a20636f6e747261637420697320696e697469604482015266616c697a696e6760c81b606482015260840160405180910390fd5b60005460ff9081161015620000e2576000805460ff191660ff9081179091556040519081527f7f26b83ff96e1f2b6a682f133852f6798a09c465da95921460cefb38474024989060200160405180910390a15b565b61251480620000f46000396000f3fe6080604052600436106100dd5760003560e01c80636bb56a141161007f5780638da5cb5b116100595780638da5cb5b1461026b578063c4d66de8146102a3578063e30c3978146102b6578063f2fde38b146102d6576100dd565b80636bb56a1414610223578063715018a6146102365780637f23690c1461024b576100dd565b806344c028fe116100bb57806344c028fe146101a15780634e3e6e9c146101c15780634e71e0c8146101ee57806354f6127f14610203576100dd565b806301ffc9a71461011357806314a6e293146101485780631626ba7e14610168575b341561011157604051349033907f7e71433ddf847725166244795048ecf3e3f9f35628254ecbf73605666423349390600090a35b005b34801561011f57600080fd5b5061013361012e366004611dae565b6102f6565b60405190151581526020015b60405180910390f35b34801561015457600080fd5b50610111610163366004611f1a565b6103bd565b34801561017457600080fd5b50610188610183366004611fef565b610496565b6040516001600160e01b0319909116815260200161013f565b6101b46101af366004612052565b61058a565b60405161013f919061210f565b3480156101cd57600080fd5b506101e16101dc366004612122565b61069b565b60405161013f9190612157565b3480156101fa57600080fd5b5061011161074f565b34801561020f57600080fd5b506101b461021e3660046121b9565b610759565b6101b46102313660046121d2565b610764565b34801561024257600080fd5b506101116108a6565b34801561025757600080fd5b50610111610266366004611fef565b6108b6565b34801561027757600080fd5b506000546201000090046001600160a01b03165b6040516001600160a01b03909116815260200161013f565b6101116102b136600461224e565b6108cc565b3480156102c257600080fd5b5060035461028b906001600160a01b031681565b3480156102e257600080fd5b506101116102f136600461224e565b6109ed565b60006001600160e01b03198216630b135d3f60e11b148061034057506001600160e01b031982167feb6be62e00000000000000000000000000000000000000000000000000000000145b8061037457506001600160e01b031982167f6bb56a1400000000000000000000000000000000000000000000000000000000145b806103a857506001600160e01b031982167fa375e9c600000000000000000000000000000000000000000000000000000000145b806103b757506103b782610a01565b92915050565b6103c5610a3f565b80518251146104415760405162461bcd60e51b815260206004820152602660248201527f4b657973206c656e677468206e6f7420657175616c20746f2076616c7565732060448201527f6c656e677468000000000000000000000000000000000000000000000000000060648201526084015b60405180910390fd5b60005b82518110156104915761048983828151811061046257610462612269565b602002602001015183838151811061047c5761047c612269565b6020026020010151610aa0565b600101610444565b505050565b600080546201000090046001600160a01b0316803b1561054a576104c181630b135d3f60e11b610b1b565b6104d3576001600160e01b0319610542565b604051630b135d3f60e11b81526001600160a01b03821690631626ba7e90610501908790879060040161227f565b602060405180830381865afa15801561051e573d6000803e3d6000fd5b505050506040513d601f19601f820116820180604052508101906105429190612298565b9150506103b7565b6105548484610c1d565b6001600160a01b0316816001600160a01b03161461057a576001600160e01b0319610542565b50630b135d3f60e11b9392505050565b6060610594610a3f565b824710156105e45760405162461bcd60e51b815260206004820152601d60248201527f455243373235583a20696e73756666696369656e742062616c616e63650000006044820152606401610438565b846105fb576105f4848484610c41565b9050610693565b600185141561060f576105f4848484610d44565b6002851415610623576105f4848484610f25565b6003851415610637576105f48484846110c8565b600485141561064b576105f4848484611217565b60405162461bcd60e51b815260206004820152601f60248201527f455243373235583a20556e6b6e6f776e206f7065726174696f6e2074797065006044820152606401610438565b949350505050565b6060815167ffffffffffffffff8111156106b7576106b7611dcb565b6040519080825280602002602001820160405280156106ea57816020015b60608152602001906001900390816106d55790505b50905060005b82518110156107495761071b83828151811061070e5761070e612269565b6020026020010151611366565b82828151811061072d5761072d612269565b60200260200101819052506107428160010190565b90506106f0565b50919050565b610757611408565b565b60606103b782611366565b606060006107917f0cfc51aec37c55a4d0b1a65c6255c4bf2fbdf6277f3cc0730c45b828b6db8b47611366565b905060148151106108425760006107a7826122b5565b60601c90506107bd81635122dded60e11b610b1b565b1561084057604051635122dded60e11b81526001600160a01b0382169063a245bbda906107f690339034908b908b908b9060040161231a565b6000604051808303816000875af1158015610815573d6000803e3d6000fd5b505050506040513d6000823e601f3d908101601f1916820160405261083d9190810190612354565b92505b505b8160405161085091906123cb565b604051809103902085336001600160a01b03167f9c3ba68eb5742b8e3961aea0afc7371a71bf433c8a67a831803b64c064a178c2348888604051610896939291906123e7565b60405180910390a4509392505050565b6108ae610a3f565b6107576114bc565b6108be610a3f565b6108c88282610aa0565b5050565b600054610100900460ff16158080156108ec5750600054600160ff909116105b806109065750303b158015610906575060005460ff166001145b6109785760405162461bcd60e51b815260206004820152602e60248201527f496e697469616c697a61626c653a20636f6e747261637420697320616c72656160448201527f647920696e697469616c697a65640000000000000000000000000000000000006064820152608401610438565b6000805460ff19166001179055801561099b576000805461ff0019166101001790555b6109a482611574565b80156108c8576000805461ff0019169055604051600181527f7f26b83ff96e1f2b6a682f133852f6798a09c465da95921460cefb38474024989060200160405180910390a15050565b6109f5610a3f565b6109fe816115fa565b50565b60006001600160e01b031982167f714df77c0000000000000000000000000000000000000000000000000000000014806103b757506103b78261166c565b6000546001600160a01b03620100009091041633146107575760405162461bcd60e51b815260206004820181905260248201527f4f776e61626c653a2063616c6c6572206973206e6f7420746865206f776e65726044820152606401610438565b60008281526001602090815260409091208251610abf92840190611cff565b50817fece574603820d07bc9b91f2a932baadf4628aabcb8afba49776529c14a6104b261010083511115610b0057610afb8360006101006116ba565b610b02565b825b604051610b0f919061210f565b60405180910390a25050565b604080516001600160e01b0319831660248083019190915282518083039091018152604490910182526020810180517bffffffffffffffffffffffffffffffffffffffffffffffffffffffff166301ffc9a760e01b179052905160009190829081906001600160a01b0387169061753090610b979086906123cb565b6000604051808303818686fa925050503d8060008114610bd3576040519150601f19603f3d011682016040523d82523d6000602084013e610bd8565b606091505b5091509150602081511015610bf357600093505050506103b7565b818015610c135750600081806020019051810190610c119190612401565b115b9695505050505050565b6000806000610c2c85856117e4565b91509150610c398161182a565b509392505050565b6060600080856001600160a01b03168585604051610c5f91906123cb565b60006040518083038185875af1925050503d8060008114610c9c576040519150601f19603f3d011682016040523d82523d6000602084013e610ca1565b606091505b5091509150610ce682826040518060400160405280601681526020017f455243373235583a20556e6b6e6f776e204572726f72000000000000000000008152506119e5565b9250846001600160a01b03871660007f4810874456b8e6487bd861375cf6abd8e1c8bb5858c8ce36a86a04dabfac199e610d1f8861241a565b6040516001600160e01b0319909116815260200160405180910390a450509392505050565b60606001600160a01b03841615610dcf5760405162461bcd60e51b815260206004820152604360248201527f455243373235583a20435245415445206f7065726174696f6e7320726571756960448201527f726520746865207265636569766572206164647265737320746f20626520656d60648201526270747960e81b608482015260a401610438565b8151610e2c5760405162461bcd60e51b815260206004820152602660248201527f455243373235583a204e6f20636f6e74726163742062797465636f64652070726044820152651bdd9a59195960d21b6064820152608401610438565b600082516020840185f090506001600160a01b038116610eb45760405162461bcd60e51b815260206004820152602260248201527f455243373235583a20436f756c64206e6f74206465706c6f7920636f6e74726160448201527f63740000000000000000000000000000000000000000000000000000000000006064820152608401610438565b6040516bffffffffffffffffffffffff19606083901b166020820152603401604051602081830303815290604052915083816001600160a01b031660017f01c42bd7e97a66166063b02fce6924e6656b6c2c61966630165095c4fb0b7b2f60405160405180910390a4509392505050565b60606001600160a01b03841615610fb05760405162461bcd60e51b815260206004820152604360248201527f455243373235583a20435245415445206f7065726174696f6e7320726571756960448201527f726520746865207265636569766572206164647265737320746f20626520656d60648201526270747960e81b608482015260a401610438565b815161100d5760405162461bcd60e51b815260206004820152602660248201527f455243373235583a204e6f20636f6e74726163742062797465636f64652070726044820152651bdd9a59195960d21b6064820152608401610438565b600061102683602085516110219190612464565b611a1e565b905060006110438460006020875161103e9190612464565b6116ba565b90506000611052868484611a84565b6040516bffffffffffffffffffffffff19606083901b166020820152909150603401604051602081830303815290604052935085816001600160a01b031660027f01c42bd7e97a66166063b02fce6924e6656b6c2c61966630165095c4fb0b7b2f60405160405180910390a45050509392505050565b6060821561113e5760405162461bcd60e51b815260206004820152603860248201527f455243373235583a2063616e6e6f74207472616e736665722076616c7565207760448201527f697468206f7065726174696f6e2053544154494343414c4c00000000000000006064820152608401610438565b600080856001600160a01b03168460405161115991906123cb565b600060405180830381855afa9150503d8060008114611194576040519150601f19603f3d011682016040523d82523d6000602084013e611199565b606091505b50915091506111de82826040518060400160405280601681526020017f455243373235583a20556e6b6e6f776e204572726f72000000000000000000008152506119e5565b9250846001600160a01b03871660037f4810874456b8e6487bd861375cf6abd8e1c8bb5858c8ce36a86a04dabfac199e610d1f8861241a565b6060821561128d5760405162461bcd60e51b815260206004820152603a60248201527f455243373235583a2063616e6e6f74207472616e736665722076616c7565207760448201527f697468206f7065726174696f6e2044454c454741544543414c4c0000000000006064820152608401610438565b600080856001600160a01b0316846040516112a891906123cb565b600060405180830381855af49150503d80600081146112e3576040519150601f19603f3d011682016040523d82523d6000602084013e6112e8565b606091505b509150915061132d82826040518060400160405280601681526020017f455243373235583a20556e6b6e6f776e204572726f72000000000000000000008152506119e5565b9250846001600160a01b03871660047f4810874456b8e6487bd861375cf6abd8e1c8bb5858c8ce36a86a04dabfac199e610d1f8861241a565b60008181526001602052604090208054606091906113839061247b565b80601f01602080910402602001604051908101604052809291908181526020018280546113af9061247b565b80156113fc5780601f106113d1576101008083540402835291602001916113fc565b820191906000526020600020905b8154815290600101906020018083116113df57829003601f168201915b50505050509050919050565b6003546001600160a01b031633146114885760405162461bcd60e51b815260206004820152602e60248201527f436c61696d4f776e6572736869703a2063616c6c6572206973206e6f7420746860448201527f652070656e64696e674f776e65720000000000000000000000000000000000006064820152608401610438565b60035461149d906001600160a01b0316611b86565b6003805473ffffffffffffffffffffffffffffffffffffffff19169055565b60025443906000906114d0906064906124b0565b905060006114df6064836124b0565b90508083111561151c5760028390556040517f56272768d104766ae5e663c58927d0a9e47effb40b9a8f6644ac5dfbc9e56f8490600090a1505050565b81831015611560576040517f8b9bf5070000000000000000000000000000000000000000000000000000000081526004810183905260248101829052604401610438565b61156a6000611b86565b5050600060025550565b600054610100900460ff166115f15760405162461bcd60e51b815260206004820152602b60248201527f496e697469616c697a61626c653a20636f6e7472616374206973206e6f74206960448201527f6e697469616c697a696e670000000000000000000000000000000000000000006064820152608401610438565b6109fe81611b86565b6001600160a01b03811630141561163d576040517f43b248cd00000000000000000000000000000000000000000000000000000000815260040160405180910390fd5b6003805473ffffffffffffffffffffffffffffffffffffffff19166001600160a01b0392909216919091179055565b60006001600160e01b031982167f44c028fe0000000000000000000000000000000000000000000000000000000014806103b757506301ffc9a760e01b6001600160e01b03198316146103b7565b6060816116c881601f6124b0565b10156117165760405162461bcd60e51b815260206004820152600e60248201527f736c6963655f6f766572666c6f770000000000000000000000000000000000006044820152606401610438565b61172082846124b0565b845110156117705760405162461bcd60e51b815260206004820152601160248201527f736c6963655f6f75744f66426f756e64730000000000000000000000000000006044820152606401610438565b60608215801561178f57604051915060008252602082016040526117d9565b6040519150601f8416801560200281840101858101878315602002848b0101015b818310156117c85780518352602092830192016117b0565b5050858452601f01601f1916604052505b5090505b9392505050565b60008082516041141561181b5760208301516040840151606085015160001a61180f87828585611c12565b94509450505050611823565b506000905060025b9250929050565b600081600481111561183e5761183e6124c8565b14156118475750565b600181600481111561185b5761185b6124c8565b14156118a95760405162461bcd60e51b815260206004820152601860248201527f45434453413a20696e76616c6964207369676e617475726500000000000000006044820152606401610438565b60028160048111156118bd576118bd6124c8565b141561190b5760405162461bcd60e51b815260206004820152601f60248201527f45434453413a20696e76616c6964207369676e6174757265206c656e677468006044820152606401610438565b600381600481111561191f5761191f6124c8565b14156119785760405162461bcd60e51b815260206004820152602260248201527f45434453413a20696e76616c6964207369676e6174757265202773272076616c604482015261756560f01b6064820152608401610438565b600481600481111561198c5761198c6124c8565b14156109fe5760405162461bcd60e51b815260206004820152602260248201527f45434453413a20696e76616c6964207369676e6174757265202776272076616c604482015261756560f01b6064820152608401610438565b606083156119f45750816117dd565b825115611a045782518084602001fd5b8160405162461bcd60e51b8152600401610438919061210f565b6000611a2b8260206124b0565b83511015611a7b5760405162461bcd60e51b815260206004820152601560248201527f746f427974657333325f6f75744f66426f756e647300000000000000000000006044820152606401610438565b50016020015190565b60008084471015611ad75760405162461bcd60e51b815260206004820152601d60248201527f437265617465323a20696e73756666696369656e742062616c616e63650000006044820152606401610438565b8251611b255760405162461bcd60e51b815260206004820181905260248201527f437265617465323a2062797465636f6465206c656e677468206973207a65726f6044820152606401610438565b8383516020850187f590506001600160a01b0381166106935760405162461bcd60e51b815260206004820152601960248201527f437265617465323a204661696c6564206f6e206465706c6f79000000000000006044820152606401610438565b6000546001600160a01b038281166201000090920416146109fe57600080546001600160a01b03838116620100008181027fffffffffffffffffffff0000000000000000000000000000000000000000ffff851617855560405193049190911692909183917f8be0079c531659141344cd1fd0a4f28419497f9722a3daafe3b4186f6b6457e091a35050565b6000807f7fffffffffffffffffffffffffffffff5d576e7357a4501ddfe92f46681b20a0831115611c495750600090506003611cf6565b8460ff16601b14158015611c6157508460ff16601c14155b15611c725750600090506004611cf6565b6040805160008082526020820180845289905260ff881692820192909252606081018690526080810185905260019060a0016020604051602081039080840390855afa158015611cc6573d6000803e3d6000fd5b5050604051601f1901519150506001600160a01b038116611cef57600060019250925050611cf6565b9150600090505b94509492505050565b828054611d0b9061247b565b90600052602060002090601f016020900481019282611d2d5760008555611d73565b82601f10611d4657805160ff1916838001178555611d73565b82800160010185558215611d73579182015b82811115611d73578251825591602001919060010190611d58565b50611d7f929150611d83565b5090565b5b80821115611d7f5760008155600101611d84565b6001600160e01b0319811681146109fe57600080fd5b600060208284031215611dc057600080fd5b81356117dd81611d98565b634e487b7160e01b600052604160045260246000fd5b604051601f8201601f1916810167ffffffffffffffff81118282101715611e0a57611e0a611dcb565b604052919050565b600067ffffffffffffffff821115611e2c57611e2c611dcb565b5060051b60200190565b600082601f830112611e4757600080fd5b81356020611e5c611e5783611e12565b611de1565b82815260059290921b84018101918181019086841115611e7b57600080fd5b8286015b84811015611e965780358352918301918301611e7f565b509695505050505050565b600067ffffffffffffffff821115611ebb57611ebb611dcb565b50601f01601f191660200190565b600082601f830112611eda57600080fd5b8135611ee8611e5782611ea1565b818152846020838601011115611efd57600080fd5b816020850160208301376000918101602001919091529392505050565b60008060408385031215611f2d57600080fd5b823567ffffffffffffffff80821115611f4557600080fd5b611f5186838701611e36565b9350602091508185013581811115611f6857600080fd5b8501601f81018713611f7957600080fd5b8035611f87611e5782611e12565b81815260059190911b82018401908481019089831115611fa657600080fd5b8584015b83811015611fde57803586811115611fc25760008081fd5b611fd08c8983890101611ec9565b845250918601918601611faa565b508096505050505050509250929050565b6000806040838503121561200257600080fd5b82359150602083013567ffffffffffffffff81111561202057600080fd5b61202c85828601611ec9565b9150509250929050565b80356001600160a01b038116811461204d57600080fd5b919050565b6000806000806080858703121561206857600080fd5b8435935061207860208601612036565b925060408501359150606085013567ffffffffffffffff81111561209b57600080fd5b6120a787828801611ec9565b91505092959194509250565b60005b838110156120ce5781810151838201526020016120b6565b838111156120dd576000848401525b50505050565b600081518084526120fb8160208601602086016120b3565b601f01601f19169290920160200192915050565b6020815260006117dd60208301846120e3565b60006020828403121561213457600080fd5b813567ffffffffffffffff81111561214b57600080fd5b61069384828501611e36565b6000602080830181845280855180835260408601915060408160051b870101925083870160005b828110156121ac57603f1988860301845261219a8583516120e3565b9450928501929085019060010161217e565b5092979650505050505050565b6000602082840312156121cb57600080fd5b5035919050565b6000806000604084860312156121e757600080fd5b83359250602084013567ffffffffffffffff8082111561220657600080fd5b818601915086601f83011261221a57600080fd5b81358181111561222957600080fd5b87602082850101111561223b57600080fd5b6020830194508093505050509250925092565b60006020828403121561226057600080fd5b6117dd82612036565b634e487b7160e01b600052603260045260246000fd5b82815260406020820152600061069360408301846120e3565b6000602082840312156122aa57600080fd5b81516117dd81611d98565b805160208201516bffffffffffffffffffffffff1980821692919060148310156122e95780818460140360031b1b83161693505b505050919050565b81835281816020850137506000828201602090810191909152601f909101601f19169091010190565b6001600160a01b03861681528460208201528360408201526080606082015260006123496080830184866122f1565b979650505050505050565b60006020828403121561236657600080fd5b815167ffffffffffffffff81111561237d57600080fd5b8201601f8101841361238e57600080fd5b805161239c611e5782611ea1565b8181528560208385010111156123b157600080fd5b6123c28260208301602086016120b3565b95945050505050565b600082516123dd8184602087016120b3565b9190910192915050565b8381526040602082015260006123c26040830184866122f1565b60006020828403121561241357600080fd5b5051919050565b6000815160208301516001600160e01b0319808216935060048310156122e95760049290920360031b82901b161692915050565b634e487b7160e01b600052601160045260246000fd5b6000828210156124765761247661244e565b500390565b600181811c9082168061248f57607f821691505b6020821081141561074957634e487b7160e01b600052602260045260246000fd5b600082198211156124c3576124c361244e565b500190565b634e487b7160e01b600052602160045260246000fdfea2646970667358221220c9703266964edc6c05ca1ce1a615bd75c5638025b208e943cd35e6ff9ba5e7aa64736f6c634300080a0033",
  "linkReferences": {},
  "deployedLinkReferences": {}
}