{
  "_format": "hh-sol-artifact-1",
  "contractName": "LSP1UniversalReceiverDelegateVault",
  "sourceName": "contracts/LSP1UniversalReceiver/LSP1UniversalReceiverDelegateVault/LSP1UniversalReceiverDelegateVault.sol",
  "abi": [
    {
      "inputs": [
        {
          "internalType": "bytes",
          "name": "invalidValue",
          "type": "bytes"
        },
        {
          "internalType": "uint256",
          "name": "invalidValueLength",
          "type": "uint256"
        }
      ],
      "name": "InvalidLSP5ReceivedAssetsArrayLength",
      "type": "error"
    },
    {
      "inputs": [
        {
          "internalType": "bytes4",
          "name": "interfaceId",
          "type": "bytes4"
        }
      ],
      "name": "supportsInterface",
      "outputs": [
        {
          "internalType": "bool",
          "name": "",
          "type": "bool"
        }
      ],
      "stateMutability": "view",
      "type": "function"
    },
    {
      "inputs": [
        {
          "internalType": "address",
          "name": "sender",
          "type": "address"
        },
        {
          "internalType": "uint256",
          "name": "value",
          "type": "uint256"
        },
        {
          "internalType": "bytes32",
          "name": "typeId",
          "type": "bytes32"
        },
        {
          "internalType": "bytes",
          "name": "data",
          "type": "bytes"
        }
      ],
      "name": "universalReceiverDelegate",
      "outputs": [
        {
          "internalType": "bytes",
          "name": "result",
          "type": "bytes"
        }
      ],
      "stateMutability": "nonpayable",
      "type": "function"
    }
  ],
  "bytecode": "0x608060405234801561001057600080fd5b5061180f806100206000396000f3fe608060405234801561001057600080fd5b50600436106100365760003560e01c806301ffc9a71461003b578063a245bbda14610063575b600080fd5b61004e610049366004611373565b610083565b60405190151581526020015b60405180910390f35b61007661007136600461140c565b6100d3565b60405161005a919061151a565b60006001600160e01b031982167fa245bbda0000000000000000000000000000000000000000000000000000000014806100cd57506301ffc9a760e01b6001600160e01b03198316145b92915050565b60607f40b8bec57d7b5ff0dbd9e9acd0a47dfeb0101e1a203766f5ccab00445fbf39e983148061012257507fdbe2c314e1aee2970c72666f2ebe8933a8575263ea71e5ff6a9178e95d47a26f83145b8061014c57507f3724c94f0815e936299cca424da4140752198e0beb7931a6e0925d11bc97544c83145b8061017657507fc7a120a42b6057a0cbed111fbbfbd52fcd96748c04394f77fc2c3adbe0391e0183145b15610188576101858584610190565b90505b949350505050565b60606101a333630fd4d5c560e41b610476565b6101bc57506040805160208101909152600081526100cd565b6000806000806101cb86610578565b935093509350935060006101e2838960601b6107f0565b6040516354f6127f60e01b81526004810182905290915060009033906354f6127f90602401600060405180830381865afa158015610224573d6000803e3d6000fd5b505050506040513d6000823e601f3d908101601f1916820160405261024c919081019061152d565b9050851561030b57600061025f826115a4565b73ffffffffffffffffffffffffffffffffffffffff191614610298576040518060200160405280600081525096505050505050506100cd565b6000806102a83388868e89610859565b6040516314a6e29360e01b8152919350915033906314a6e293906102d290859085906004016115e9565b600060405180830381600087803b1580156102ec57600080fd5b505af1158015610300573d6000803e3d6000fd5b50505050505061046a565b6000610316826115a4565b73ffffffffffffffffffffffffffffffffffffffff19161415610350576040518060200160405280600081525096505050505050506100cd565b6040517f70a082310000000000000000000000000000000000000000000000000000000081523360048201526000906001600160a01b038b16906370a0823190602401602060405180830381865afa1580156103b0573d6000803e3d6000fd5b505050506040513d601f19601f820116820180604052508101906103d49190611681565b905080156103fa57604051806020016040528060008152509750505050505050506100cd565b60008061040a3389898888610bf2565b6040516314a6e29360e01b8152919350915033906314a6e2939061043490859085906004016115e9565b600060405180830381600087803b15801561044e57600080fd5b505af1158015610462573d6000803e3d6000fd5b505050505050505b50505050505092915050565b604080516001600160e01b0319831660248083019190915282518083039091018152604490910182526020810180517bffffffffffffffffffffffffffffffffffffffffffffffffffffffff166301ffc9a760e01b179052905160009190829081906001600160a01b03871690617530906104f290869061169a565b6000604051808303818686fa925050503d806000811461052e576040519150601f19603f3d011682016040523d82523d6000602084013e610533565b606091505b509150915060208151101561054e57600093505050506100cd565b81801561056e575060008180602001905181019061056c9190611681565b115b9695505050505050565b60008080807f40b8bec57d7b5ff0dbd9e9acd0a47dfeb0101e1a203766f5ccab00445fbf39e98514806105ca57507fdbe2c314e1aee2970c72666f2ebe8933a8575263ea71e5ff6a9178e95d47a26f85145b806105f457507fc7a120a42b6057a0cbed111fbbfbd52fcd96748c04394f77fc2c3adbe0391e0185145b8061061e57507f3724c94f0815e936299cca424da4140752198e0beb7931a6e0925d11bc97544c85145b15610766577f6460ee3c0aac563ccbf76d6e1d07bada78e3a9514e6382b736ed3f478ab7b90b92507f812c4334633eb816c80d0000000000000000000000000000000000000000000091507f40b8bec57d7b5ff0dbd9e9acd0a47dfeb0101e1a203766f5ccab00445fbf39e98514806106b657507fdbe2c314e1aee2970c72666f2ebe8933a8575263ea71e5ff6a9178e95d47a26f85145b6106e0577f4939914500000000000000000000000000000000000000000000000000000000610702565b7f5fcaac27000000000000000000000000000000000000000000000000000000005b90507fdbe2c314e1aee2970c72666f2ebe8933a8575263ea71e5ff6a9178e95d47a26f85148061075157507fc7a120a42b6057a0cbed111fbbfbd52fcd96748c04394f77fc2c3adbe0391e0185145b61075c57600061075f565b60015b93506107e9565b507f55482936e01da86729a45d2b87a6b1d3bc582bea0ec00e38bdb340e3af6f9f0691507f192448c3c0f88c7f238c000000000000000000000000000000000000000000009050630fd4d5c560e41b7f09aaf55960715d8d86b57af40be36b0bfd469c9a3643445d8c65d39e27b4c56f85146107e35760006107e6565b60015b93505b9193509193565b604080517fffffffffffffffffffff00000000000000000000000000000000000000000000841660208201526000602a82018190526bffffffffffffffffffffffff198416602c83015291829101604051602081830303815290604052905080610188906116b6565b604080516003808252608082019092526060918291906020820183803683370190505060408051600380825260808201909252919350816020015b6060815260200190600190039081610894579050506040516354f6127f60e01b8152600481018890529091506000906001600160a01b038916906354f6127f90602401600060405180830381865afa1580156108f4573d6000803e3d6000fd5b505050506040513d6000823e601f3d908101601f1916820160405261091c919081019061152d565b9050805160001415610a3557868360008151811061093c5761093c6116dd565b6020026020010181815250506109526001611111565b82600081518110610965576109656116dd565b602002602001018190525061097b876000611137565b8360018151811061098e5761098e6116dd565b6020026020010181815250506109a38561119c565b826001815181106109b6576109b66116dd565b602002602001018190525085836002815181106109d5576109d56116dd565b6020908102919091018101919091526040516001600160e01b031986169181019190915260006024820152602c0160405160208183030381529060405282600281518110610a2557610a256116dd565b6020026020010181905250610be7565b805160201415610ba857600081806020019051810190610a559190611681565b90506000610a64826001611709565b90508885600081518110610a7a57610a7a6116dd565b602002602001018181525050610a8f81611111565b84600081518110610aa257610aa26116dd565b6020908102919091010152610ac189610abc600184611721565b611137565b85600181518110610ad457610ad46116dd565b602002602001018181525050610ae98761119c565b84600181518110610afc57610afc6116dd565b60200260200101819052508785600281518110610b1b57610b1b6116dd565b602002602001018181525050858260c01b604051602001610b749291906001600160e01b03199290921682527fffffffffffffffff000000000000000000000000000000000000000000000000166004820152600c0190565b60405160208183030381529060405284600281518110610b9657610b966116dd565b60200260200101819052505050610be7565b80516040517fecba7af8000000000000000000000000000000000000000000000000000000008152610bde918391600401611738565b60405180910390fd5b509550959350505050565b6060806000876001600160a01b03166354f6127f886040518263ffffffff1660e01b8152600401610c2591815260200190565b600060405180830381865afa158015610c42573d6000803e3d6000fd5b505050506040513d6000823e601f3d908101601f19168201604052610c6a919081019061152d565b9050600081806020019051810190610c829190611681565b90506000610c91600183611721565b90506000610c9e876111c1565b90506000610cb68b8367ffffffffffffffff16611137565b9050610cc3600185611721565b8267ffffffffffffffff161415610e0a576040805160038082526080820190925290602082016060803683370190505060408051600380825260808201909252919850816020015b6060815260200190600190039081610d0b5790505095508a87600081518110610d3657610d366116dd565b602002602001018181525050610d4b83611111565b86600081518110610d5e57610d5e6116dd565b60200260200101819052508887600181518110610d7d57610d7d6116dd565b6020026020010181815250506040518060200160405280600081525086600181518110610dac57610dac6116dd565b60200260200101819052508087600281518110610dcb57610dcb6116dd565b6020026020010181815250506040518060200160405280600081525086600281518110610dfa57610dfa6116dd565b6020026020010181905250611102565b60408051600580825260c08201909252906020820160a0803683370190505060408051600580825260c08201909252919850816020015b6060815260200190600190039081610e415790505095508a87600081518110610e6c57610e6c6116dd565b602002602001018181525050610e8183611111565b86600081518110610e9457610e946116dd565b60200260200101819052508887600181518110610eb357610eb36116dd565b6020026020010181815250506040518060200160405280600081525086600181518110610ee257610ee26116dd565b60200260200101819052506000610ef98c85611137565b6040516354f6127f60e01b8152600481018290529091506000906001600160a01b038f16906354f6127f90602401600060405180830381865afa158015610f44573d6000803e3d6000fd5b505050506040513d6000823e601f3d908101601f19168201604052610f6c919081019061152d565b90506000610f828d610f7d8461175a565b6107f0565b905060008f6001600160a01b03166354f6127f836040518263ffffffff1660e01b8152600401610fb491815260200190565b600060405180830381865afa158015610fd1573d6000803e3d6000fd5b505050506040513d6000823e601f3d908101601f19168201604052610ff9919081019061152d565b9050600061100a82600060046111e5565b9050858c600281518110611020576110206116dd565b602002602001018181525050838b600281518110611040576110406116dd565b6020026020010181905250848c60038151811061105f5761105f6116dd565b602002602001018181525050604051806020016040528060008152508b60038151811061108e5761108e6116dd565b6020026020010181905250828c6004815181106110ad576110ad6116dd565b602002602001018181525050808760c01b6040516020016110cf929190611792565b6040516020818303038152906040528b6004815181106110f1576110f16116dd565b602002602001018190525050505050505b50505050509550959350505050565b6040805160208101839052606091015b6040516020818303038152906040529050919050565b600080611191848460801b604080517fffffffffffffffffffffffffffffffff0000000000000000000000000000000080851660208301528316603082015260609101604051602081830303815290604052905092915050565b9050610188816116b6565b604051606082811b6bffffffffffffffffffffffff1916602083015290603401611121565b6000806111d183600460086111e5565b90506111de81600061130d565b9392505050565b6060816111f381601f611709565b10156112415760405162461bcd60e51b815260206004820152600e60248201527f736c6963655f6f766572666c6f770000000000000000000000000000000000006044820152606401610bde565b61124b8284611709565b8451101561129b5760405162461bcd60e51b815260206004820152601160248201527f736c6963655f6f75744f66426f756e64730000000000000000000000000000006044820152606401610bde565b6060821580156112ba5760405191506000825260208201604052611304565b6040519150601f8416801560200281840101858101878315602002848b0101015b818310156112f35780518352602092830192016112db565b5050858452601f01601f1916604052505b50949350505050565b600061131a826008611709565b8351101561136a5760405162461bcd60e51b815260206004820152601460248201527f746f55696e7436345f6f75744f66426f756e64730000000000000000000000006044820152606401610bde565b50016008015190565b60006020828403121561138557600080fd5b81356001600160e01b0319811681146111de57600080fd5b634e487b7160e01b600052604160045260246000fd5b604051601f8201601f1916810167ffffffffffffffff811182821017156113dc576113dc61139d565b604052919050565b600067ffffffffffffffff8211156113fe576113fe61139d565b50601f01601f191660200190565b6000806000806080858703121561142257600080fd5b84356001600160a01b038116811461143957600080fd5b93506020850135925060408501359150606085013567ffffffffffffffff81111561146357600080fd5b8501601f8101871361147457600080fd5b8035611487611482826113e4565b6113b3565b81815288602083850101111561149c57600080fd5b8160208401602083013760006020838301015280935050505092959194509250565b60005b838110156114d95781810151838201526020016114c1565b838111156114e8576000848401525b50505050565b600081518084526115068160208601602086016114be565b601f01601f19169290920160200192915050565b6020815260006111de60208301846114ee565b60006020828403121561153f57600080fd5b815167ffffffffffffffff81111561155657600080fd5b8201601f8101841361156757600080fd5b8051611575611482826113e4565b81815285602083850101111561158a57600080fd5b61159b8260208301602086016114be565b95945050505050565b60008151602083015173ffffffffffffffffffffffffffffffffffffffff198082169350600c8310156115e157808184600c0360031b1b83161693505b505050919050565b604080825283519082018190526000906020906060840190828701845b8281101561162257815184529284019290840190600101611606565b50505083810382850152845180825282820190600581901b8301840187850160005b8381101561167257601f198684030185526116608383516114ee565b94870194925090860190600101611644565b50909998505050505050505050565b60006020828403121561169357600080fd5b5051919050565b600082516116ac8184602087016114be565b9190910192915050565b805160208083015191908110156116d7576000198160200360031b1b821691505b50919050565b634e487b7160e01b600052603260045260246000fd5b634e487b7160e01b600052601160045260246000fd5b6000821982111561171c5761171c6116f3565b500190565b600082821015611733576117336116f3565b500390565b60408152600061174b60408301856114ee565b90508260208301529392505050565b805160208201516bffffffffffffffffffffffff1980821692919060148310156115e15760149290920360031b82901b161692915050565b600083516117a48184602088016114be565b7fffffffffffffffff00000000000000000000000000000000000000000000000093909316919092019081526008019291505056fea2646970667358221220c4abd63d27ca18eed06071dcbdbdc16c979c5938979ab178e4ba74ed10df379764736f6c634300080a0033",
  "linkReferences": {},
  "deployedLinkReferences": {}
}