{
  "_format": "hh-sol-artifact-1",
  "contractName": "LSP1UniversalReceiverDelegateUP",
  "sourceName": "contracts/LSP1UniversalReceiver/LSP1UniversalReceiverDelegateUP/LSP1UniversalReceiverDelegateUP.sol",
  "abi": [
    {
      "inputs": [
        {
          "internalType": "bytes",
          "name": "invalidValue",
          "type": "bytes"
        },
        {
          "internalType": "uint256",
          "name": "invalidValueLength",
          "type": "uint256"
        }
      ],
      "name": "InvalidLSP5ReceivedAssetsArrayLength",
      "type": "error"
    },
    {
      "inputs": [
        {
          "internalType": "bytes4",
          "name": "interfaceId",
          "type": "bytes4"
        }
      ],
      "name": "supportsInterface",
      "outputs": [
        {
          "internalType": "bool",
          "name": "",
          "type": "bool"
        }
      ],
      "stateMutability": "view",
      "type": "function"
    },
    {
      "inputs": [
        {
          "internalType": "address",
          "name": "sender",
          "type": "address"
        },
        {
          "internalType": "uint256",
          "name": "value",
          "type": "uint256"
        },
        {
          "internalType": "bytes32",
          "name": "typeId",
          "type": "bytes32"
        },
        {
          "internalType": "bytes",
          "name": "data",
          "type": "bytes"
        }
      ],
      "name": "universalReceiverDelegate",
      "outputs": [
        {
          "internalType": "bytes",
          "name": "result",
          "type": "bytes"
        }
      ],
      "stateMutability": "nonpayable",
      "type": "function"
    }
  ],
  "bytecode": "0x608060405234801561001057600080fd5b50611a75806100206000396000f3fe608060405234801561001057600080fd5b50600436106100365760003560e01c806301ffc9a71461003b578063a245bbda14610063575b600080fd5b61004e6100493660046115b9565b610083565b60405190151581526020015b60405180910390f35b61007661007136600461166a565b6100d3565b60405161005a919061176c565b60006001600160e01b031982167fa245bbda0000000000000000000000000000000000000000000000000000000014806100cd57506301ffc9a760e01b6001600160e01b03198316145b92915050565b60607f40b8bec57d7b5ff0dbd9e9acd0a47dfeb0101e1a203766f5ccab00445fbf39e983148061012257507fdbe2c314e1aee2970c72666f2ebe8933a8575263ea71e5ff6a9178e95d47a26f83145b8061014c57507f3724c94f0815e936299cca424da4140752198e0beb7931a6e0925d11bc97544c83145b8061017657507fc7a120a42b6057a0cbed111fbbfbd52fcd96748c04394f77fc2c3adbe0391e0183145b806101a057507f3ca9f769340018257ac15b3a00e502e8fb730d66086f774210f84d0205af31e783145b806101ca57507f09aaf55960715d8d86b57af40be36b0bfd469c9a3643445d8c65d39e27b4c56f83145b156101dc576101d985846101e4565b90505b949350505050565b60606000336001600160a01b0316638da5cb5b6040518163ffffffff1660e01b8152600401602060405180830381865afa158015610226573d6000803e3d6000fd5b505050506040513d601f19601f8201168201806040525081019061024a919061177f565b9050610276817fc403d48f0000000000000000000000000000000000000000000000000000000061054d565b6102905750506040805160208101909152600081526100cd565b6000816001600160a01b031663d4b839926040518163ffffffff1660e01b8152600401602060405180830381865afa1580156102d0573d6000803e3d6000fd5b505050506040513d601f19601f820116820180604052508101906102f4919061177f565b9050336001600160a01b0382161461031f5760405180602001604052806000815250925050506100cd565b60008060008061032e8861064f565b93509350935093506000610345838b60601b6108e0565b6040516354f6127f60e01b81526004810182905290915060009033906354f6127f90602401600060405180830381865afa158015610387573d6000803e3d6000fd5b505050506040513d6000823e601f3d908101601f191682016040526103af919081019061179c565b905085156104125760006103c28261180a565b73ffffffffffffffffffffffffffffffffffffffff1916146103fd5760405180602001604052806000815250985050505050505050506100cd565b61040b3386848e878d610949565b985061053f565b600061041d8261180a565b73ffffffffffffffffffffffffffffffffffffffff191614156104595760405180602001604052806000815250985050505050505050506100cd565b7f3ca9f769340018257ac15b3a00e502e8fb730d66086f774210f84d0205af31e78a1461052e576040517f70a082310000000000000000000000000000000000000000000000000000000081523360048201526000906001600160a01b038d16906370a0823190602401602060405180830381865afa1580156104e0573d6000803e3d6000fd5b505050506040513d601f19601f82011682018060405250810190610504919061184f565b9050801561052c576040518060200160405280600081525099505050505050505050506100cd565b505b61053c33868685858d610977565b98505b505050505050505092915050565b604080516001600160e01b0319831660248083019190915282518083039091018152604490910182526020810180517bffffffffffffffffffffffffffffffffffffffffffffffffffffffff166301ffc9a760e01b179052905160009190829081906001600160a01b03871690617530906105c9908690611868565b6000604051808303818686fa925050503d8060008114610605576040519150601f19603f3d011682016040523d82523d6000602084013e61060a565b606091505b509150915060208151101561062557600093505050506100cd565b8180156106455750600081806020019051810190610643919061184f565b115b9695505050505050565b60008080807f40b8bec57d7b5ff0dbd9e9acd0a47dfeb0101e1a203766f5ccab00445fbf39e98514806106a157507fdbe2c314e1aee2970c72666f2ebe8933a8575263ea71e5ff6a9178e95d47a26f85145b806106cb57507fc7a120a42b6057a0cbed111fbbfbd52fcd96748c04394f77fc2c3adbe0391e0185145b806106f557507f3724c94f0815e936299cca424da4140752198e0beb7931a6e0925d11bc97544c85145b1561083d577f6460ee3c0aac563ccbf76d6e1d07bada78e3a9514e6382b736ed3f478ab7b90b92507f812c4334633eb816c80d0000000000000000000000000000000000000000000091507f40b8bec57d7b5ff0dbd9e9acd0a47dfeb0101e1a203766f5ccab00445fbf39e985148061078d57507fdbe2c314e1aee2970c72666f2ebe8933a8575263ea71e5ff6a9178e95d47a26f85145b6107b7577f49399145000000000000000000000000000000000000000000000000000000006107d9565b7f5fcaac27000000000000000000000000000000000000000000000000000000005b90507fdbe2c314e1aee2970c72666f2ebe8933a8575263ea71e5ff6a9178e95d47a26f85148061082857507fc7a120a42b6057a0cbed111fbbfbd52fcd96748c04394f77fc2c3adbe0391e0185145b610833576000610836565b60015b93506108d9565b507f55482936e01da86729a45d2b87a6b1d3bc582bea0ec00e38bdb340e3af6f9f0691507f192448c3c0f88c7f238c0000000000000000000000000000000000000000000090507ffd4d5c50000000000000000000000000000000000000000000000000000000007f09aaf55960715d8d86b57af40be36b0bfd469c9a3643445d8c65d39e27b4c56f85146108d35760006108d6565b60015b93505b9193509193565b604080517fffffffffffffffffffff00000000000000000000000000000000000000000000841660208201526000602a82018190526bffffffffffffffffffffffff198416602c830152918291016040516020818303038152906040529050806101dc90611884565b606060008061095b8989898989610989565b9150915061096a848383610d22565b9998505050505050505050565b606060008061095b8989898989610e38565b604080516003808252608082019092526060918291906020820183803683370190505060408051600380825260808201909252919350816020015b60608152602001906001900390816109c4579050506040516354f6127f60e01b8152600481018890529091506000906001600160a01b038916906354f6127f90602401600060405180830381865afa158015610a24573d6000803e3d6000fd5b505050506040513d6000823e601f3d908101601f19168201604052610a4c919081019061179c565b9050805160001415610b65578683600081518110610a6c57610a6c6118ab565b602002602001018181525050610a826001611357565b82600081518110610a9557610a956118ab565b6020026020010181905250610aab87600061137d565b83600181518110610abe57610abe6118ab565b602002602001018181525050610ad3856113e2565b82600181518110610ae657610ae66118ab565b60200260200101819052508583600281518110610b0557610b056118ab565b6020908102919091018101919091526040516001600160e01b031986169181019190915260006024820152602c0160405160208183030381529060405282600281518110610b5557610b556118ab565b6020026020010181905250610d17565b805160201415610cd857600081806020019051810190610b85919061184f565b90506000610b948260016118d7565b90508885600081518110610baa57610baa6118ab565b602002602001018181525050610bbf81611357565b84600081518110610bd257610bd26118ab565b6020908102919091010152610bf189610bec6001846118ef565b61137d565b85600181518110610c0457610c046118ab565b602002602001018181525050610c19876113e2565b84600181518110610c2c57610c2c6118ab565b60200260200101819052508785600281518110610c4b57610c4b6118ab565b602002602001018181525050858260c01b604051602001610ca49291906001600160e01b03199290921682527fffffffffffffffff000000000000000000000000000000000000000000000000166004820152600c0190565b60405160208183030381529060405284600281518110610cc657610cc66118ab565b60200260200101819052505050610d17565b80516040517fecba7af8000000000000000000000000000000000000000000000000000000008152610d0e918391600401611906565b60405180910390fd5b509550959350505050565b606060007f14a6e2931875c22579e483160c8d2832a3fb3acbd575a49f6a0f7fc5e135f7898484604051602401610d5a929190611928565b60408051601f198184030181529181526020820180517bffffffffffffffffffffffffffffffffffffffffffffffffffffffff166001600160e01b03199094169390931790925290517f09c5eabe0000000000000000000000000000000000000000000000000000000081529091506001600160a01b038616906309c5eabe90610de890849060040161176c565b6000604051808303816000875af1158015610e07573d6000803e3d6000fd5b505050506040513d6000823e601f3d908101601f19168201604052610e2f919081019061179c565b95945050505050565b6060806000876001600160a01b03166354f6127f886040518263ffffffff1660e01b8152600401610e6b91815260200190565b600060405180830381865afa158015610e88573d6000803e3d6000fd5b505050506040513d6000823e601f3d908101601f19168201604052610eb0919081019061179c565b9050600081806020019051810190610ec8919061184f565b90506000610ed76001836118ef565b90506000610ee487611407565b90506000610efc8b8367ffffffffffffffff1661137d565b9050610f096001856118ef565b8267ffffffffffffffff161415611050576040805160038082526080820190925290602082016060803683370190505060408051600380825260808201909252919850816020015b6060815260200190600190039081610f515790505095508a87600081518110610f7c57610f7c6118ab565b602002602001018181525050610f9183611357565b86600081518110610fa457610fa46118ab565b60200260200101819052508887600181518110610fc357610fc36118ab565b6020026020010181815250506040518060200160405280600081525086600181518110610ff257610ff26118ab565b60200260200101819052508087600281518110611011576110116118ab565b6020026020010181815250506040518060200160405280600081525086600281518110611040576110406118ab565b6020026020010181905250611348565b60408051600580825260c08201909252906020820160a0803683370190505060408051600580825260c08201909252919850816020015b60608152602001906001900390816110875790505095508a876000815181106110b2576110b26118ab565b6020026020010181815250506110c783611357565b866000815181106110da576110da6118ab565b602002602001018190525088876001815181106110f9576110f96118ab565b6020026020010181815250506040518060200160405280600081525086600181518110611128576111286118ab565b6020026020010181905250600061113f8c8561137d565b6040516354f6127f60e01b8152600481018290529091506000906001600160a01b038f16906354f6127f90602401600060405180830381865afa15801561118a573d6000803e3d6000fd5b505050506040513d6000823e601f3d908101601f191682016040526111b2919081019061179c565b905060006111c88d6111c3846119c0565b6108e0565b905060008f6001600160a01b03166354f6127f836040518263ffffffff1660e01b81526004016111fa91815260200190565b600060405180830381865afa158015611217573d6000803e3d6000fd5b505050506040513d6000823e601f3d908101601f1916820160405261123f919081019061179c565b90506000611250826000600461142b565b9050858c600281518110611266576112666118ab565b602002602001018181525050838b600281518110611286576112866118ab565b6020026020010181905250848c6003815181106112a5576112a56118ab565b602002602001018181525050604051806020016040528060008152508b6003815181106112d4576112d46118ab565b6020026020010181905250828c6004815181106112f3576112f36118ab565b602002602001018181525050808760c01b6040516020016113159291906119f8565b6040516020818303038152906040528b600481518110611337576113376118ab565b602002602001018190525050505050505b50505050509550959350505050565b6040805160208101839052606091015b6040516020818303038152906040529050919050565b6000806113d7848460801b604080517fffffffffffffffffffffffffffffffff0000000000000000000000000000000080851660208301528316603082015260609101604051602081830303815290604052905092915050565b90506101dc81611884565b604051606082811b6bffffffffffffffffffffffff1916602083015290603401611367565b600080611417836004600861142b565b9050611424816000611553565b9392505050565b60608161143981601f6118d7565b10156114875760405162461bcd60e51b815260206004820152600e60248201527f736c6963655f6f766572666c6f770000000000000000000000000000000000006044820152606401610d0e565b61149182846118d7565b845110156114e15760405162461bcd60e51b815260206004820152601160248201527f736c6963655f6f75744f66426f756e64730000000000000000000000000000006044820152606401610d0e565b606082158015611500576040519150600082526020820160405261154a565b6040519150601f8416801560200281840101858101878315602002848b0101015b81831015611539578051835260209283019201611521565b5050858452601f01601f1916604052505b50949350505050565b60006115608260086118d7565b835110156115b05760405162461bcd60e51b815260206004820152601460248201527f746f55696e7436345f6f75744f66426f756e64730000000000000000000000006044820152606401610d0e565b50016008015190565b6000602082840312156115cb57600080fd5b81356001600160e01b03198116811461142457600080fd5b6001600160a01b03811681146115f857600080fd5b50565b634e487b7160e01b600052604160045260246000fd5b604051601f8201601f1916810167ffffffffffffffff8111828210171561163a5761163a6115fb565b604052919050565b600067ffffffffffffffff82111561165c5761165c6115fb565b50601f01601f191660200190565b6000806000806080858703121561168057600080fd5b843561168b816115e3565b93506020850135925060408501359150606085013567ffffffffffffffff8111156116b557600080fd5b8501601f810187136116c657600080fd5b80356116d96116d482611642565b611611565b8181528860208385010111156116ee57600080fd5b8160208401602083013760006020838301015280935050505092959194509250565b60005b8381101561172b578181015183820152602001611713565b8381111561173a576000848401525b50505050565b60008151808452611758816020860160208601611710565b601f01601f19169290920160200192915050565b6020815260006114246020830184611740565b60006020828403121561179157600080fd5b8151611424816115e3565b6000602082840312156117ae57600080fd5b815167ffffffffffffffff8111156117c557600080fd5b8201601f810184136117d657600080fd5b80516117e46116d482611642565b8181528560208385010111156117f957600080fd5b610e2f826020830160208601611710565b60008151602083015173ffffffffffffffffffffffffffffffffffffffff198082169350600c83101561184757808184600c0360031b1b83161693505b505050919050565b60006020828403121561186157600080fd5b5051919050565b6000825161187a818460208701611710565b9190910192915050565b805160208083015191908110156118a5576000198160200360031b1b821691505b50919050565b634e487b7160e01b600052603260045260246000fd5b634e487b7160e01b600052601160045260246000fd5b600082198211156118ea576118ea6118c1565b500190565b600082821015611901576119016118c1565b500390565b6040815260006119196040830185611740565b90508260208301529392505050565b604080825283519082018190526000906020906060840190828701845b8281101561196157815184529284019290840190600101611945565b50505083810382850152845180825282820190600581901b8301840187850160005b838110156119b157601f1986840301855261199f838351611740565b94870194925090860190600101611983565b50909998505050505050505050565b805160208201516bffffffffffffffffffffffff1980821692919060148310156118475760149290920360031b82901b161692915050565b60008351611a0a818460208801611710565b7fffffffffffffffff00000000000000000000000000000000000000000000000093909316919092019081526008019291505056fea264697066735822122063796d27abc49303370f9be41ee24c543dc1c836c814e0b88702785d1c28c91764736f6c634300080a0033",
  "linkReferences": {},
  "deployedLinkReferences": {}
}