{
  "_format": "hh-sol-artifact-1",
  "contractName": "LSP6KeyManagerInit",
  "sourceName": "contracts/LSP6KeyManager/LSP6KeyManagerInit.sol",
  "abi": [
    {
      "inputs": [],
      "stateMutability": "nonpayable",
      "type": "constructor"
    },
    {
      "inputs": [
        {
          "internalType": "bytes",
          "name": "value",
          "type": "bytes"
        },
        {
          "internalType": "string",
          "name": "valueType",
          "type": "string"
        }
      ],
      "name": "InvalidABIEncodedArray",
      "type": "error"
    },
    {
      "inputs": [
        {
          "internalType": "bytes4",
          "name": "invalidFunction",
          "type": "bytes4"
        }
      ],
      "name": "InvalidERC725Function",
      "type": "error"
    },
    {
      "inputs": [],
      "name": "InvalidLSP6Target",
      "type": "error"
    },
    {
      "inputs": [
        {
          "internalType": "address",
          "name": "signer",
          "type": "address"
        },
        {
          "internalType": "uint256",
          "name": "invalidNonce",
          "type": "uint256"
        },
        {
          "internalType": "bytes",
          "name": "signature",
          "type": "bytes"
        }
      ],
      "name": "InvalidRelayNonce",
      "type": "error"
    },
    {
      "inputs": [
        {
          "internalType": "address",
          "name": "from",
          "type": "address"
        }
      ],
      "name": "NoPermissionsSet",
      "type": "error"
    },
    {
      "inputs": [
        {
          "internalType": "address",
          "name": "from",
          "type": "address"
        },
        {
          "internalType": "address",
          "name": "disallowedAddress",
          "type": "address"
        }
      ],
      "name": "NotAllowedAddress",
      "type": "error"
    },
    {
      "inputs": [
        {
          "internalType": "address",
          "name": "from",
          "type": "address"
        },
        {
          "internalType": "bytes32",
          "name": "disallowedKey",
          "type": "bytes32"
        }
      ],
      "name": "NotAllowedERC725YKey",
      "type": "error"
    },
    {
      "inputs": [
        {
          "internalType": "address",
          "name": "from",
          "type": "address"
        },
        {
          "internalType": "bytes4",
          "name": "disallowedFunction",
          "type": "bytes4"
        }
      ],
      "name": "NotAllowedFunction",
      "type": "error"
    },
    {
      "inputs": [
        {
          "internalType": "address",
          "name": "from",
          "type": "address"
        },
        {
          "internalType": "address",
          "name": "addressNotImplementingAllowedStandard",
          "type": "address"
        }
      ],
      "name": "NotAllowedStandard",
      "type": "error"
    },
    {
      "inputs": [
        {
          "internalType": "address",
          "name": "from",
          "type": "address"
        },
        {
          "internalType": "string",
          "name": "permission",
          "type": "string"
        }
      ],
      "name": "NotAuthorised",
      "type": "error"
    },
    {
      "inputs": [
        {
          "internalType": "bytes32",
          "name": "dataKey",
          "type": "bytes32"
        }
      ],
      "name": "NotRecognisedPermissionKey",
      "type": "error"
    },
    {
      "anonymous": false,
      "inputs": [
        {
          "indexed": true,
          "internalType": "uint256",
          "name": "value",
          "type": "uint256"
        },
        {
          "indexed": false,
          "internalType": "bytes4",
          "name": "selector",
          "type": "bytes4"
        }
      ],
      "name": "Executed",
      "type": "event"
    },
    {
      "anonymous": false,
      "inputs": [
        {
          "indexed": false,
          "internalType": "uint8",
          "name": "version",
          "type": "uint8"
        }
      ],
      "name": "Initialized",
      "type": "event"
    },
    {
      "inputs": [
        {
          "internalType": "bytes",
          "name": "payload",
          "type": "bytes"
        }
      ],
      "name": "execute",
      "outputs": [
        {
          "internalType": "bytes",
          "name": "",
          "type": "bytes"
        }
      ],
      "stateMutability": "payable",
      "type": "function"
    },
    {
      "inputs": [
        {
          "internalType": "bytes",
          "name": "signature",
          "type": "bytes"
        },
        {
          "internalType": "uint256",
          "name": "nonce",
          "type": "uint256"
        },
        {
          "internalType": "bytes",
          "name": "payload",
          "type": "bytes"
        }
      ],
      "name": "executeRelayCall",
      "outputs": [
        {
          "internalType": "bytes",
          "name": "",
          "type": "bytes"
        }
      ],
      "stateMutability": "payable",
      "type": "function"
    },
    {
      "inputs": [
        {
          "internalType": "address",
          "name": "from",
          "type": "address"
        },
        {
          "internalType": "uint256",
          "name": "channelId",
          "type": "uint256"
        }
      ],
      "name": "getNonce",
      "outputs": [
        {
          "internalType": "uint256",
          "name": "",
          "type": "uint256"
        }
      ],
      "stateMutability": "view",
      "type": "function"
    },
    {
      "inputs": [
        {
          "internalType": "address",
          "name": "target_",
          "type": "address"
        }
      ],
      "name": "initialize",
      "outputs": [],
      "stateMutability": "nonpayable",
      "type": "function"
    },
    {
      "inputs": [
        {
          "internalType": "bytes32",
          "name": "dataHash",
          "type": "bytes32"
        },
        {
          "internalType": "bytes",
          "name": "signature",
          "type": "bytes"
        }
      ],
      "name": "isValidSignature",
      "outputs": [
        {
          "internalType": "bytes4",
          "name": "magicValue",
          "type": "bytes4"
        }
      ],
      "stateMutability": "view",
      "type": "function"
    },
    {
      "inputs": [
        {
          "internalType": "bytes4",
          "name": "interfaceId",
          "type": "bytes4"
        }
      ],
      "name": "supportsInterface",
      "outputs": [
        {
          "internalType": "bool",
          "name": "",
          "type": "bool"
        }
      ],
      "stateMutability": "view",
      "type": "function"
    },
    {
      "inputs": [],
      "name": "target",
      "outputs": [
        {
          "internalType": "address",
          "name": "",
          "type": "address"
        }
      ],
      "stateMutability": "view",
      "type": "function"
    }
  ],
  "bytecode": "0x60806040523480156200001157600080fd5b506200001c62000022565b620000e4565b600054610100900460ff16156200008f5760405162461bcd60e51b815260206004820152602760248201527f496e697469616c697a61626c653a20636f6e747261637420697320696e697469604482015266616c697a696e6760c81b606482015260840160405180910390fd5b60005460ff9081161015620000e2576000805460ff191660ff9081179091556040519081527f7f26b83ff96e1f2b6a682f133852f6798a09c465da95921460cefb38474024989060200160405180910390a15b565b612db080620000f46000396000f3fe6080604052600436106100705760003560e01c8063895358031161004e5780638953580314610103578063902d5fa01461016e578063c4d66de814610181578063d4b83992146101a357600080fd5b806301ffc9a71461007557806309c5eabe146100aa5780631626ba7e146100ca575b600080fd5b34801561008157600080fd5b50610095610090366004612363565b6101e1565b60405190151581526020015b60405180910390f35b6100bd6100b83660046123c2565b61024c565b6040516100a1919061245c565b3480156100d657600080fd5b506100ea6100e5366004612534565b61026a565b6040516001600160e01b031990911681526020016100a1565b34801561010f57600080fd5b5061016061011e366004612590565b6001600160a01b039190911660009081526001602090815260408083208484529091529020546fffffffffffffffffffffffffffffffff1660809190911b1790565b6040519081526020016100a1565b6100bd61017c3660046125bc565b6102c7565b34801561018d57600080fd5b506101a161019c36600461262c565b610408565b005b3480156101af57600080fd5b506000546101c9906201000090046001600160a01b031681565b6040516001600160a01b0390911681526020016100a1565b60006001600160e01b031982167fc403d48f00000000000000000000000000000000000000000000000000000000148061022b57506001600160e01b03198216630b135d3f60e11b145b8061024657506301ffc9a760e01b6001600160e01b03198316145b92915050565b606061025933848461052a565b6102638383610943565b9392505050565b6000806102778484610a50565b6000549091506102a4906102009061029e906201000090046001600160a01b031684610a74565b81161490565b6102b6576001600160e01b03196102bf565b630b135d3f60e11b5b949350505050565b6060600046308686866040516020016102e4959493929190612649565b6040516020818303038152906040529050600061035f8761035984805190602001206040517f19457468657265756d205369676e6564204d6573736167653a0a3332000000006020820152603c8101829052600090605c01604051602081830303815290604052805190602001209050919050565b90610a50565b905061036b8187610b0f565b6103b0578086886040517fc9bd9eb90000000000000000000000000000000000000000000000000000000081526004016103a793929190612683565b60405180910390fd5b6001600160a01b038116600090815260016020908152604080832060808a901c845290915281208054916103e3836126ca565b91905055506103f381868661052a565b6103fd8585610943565b979650505050505050565b600054610100900460ff16158080156104285750600054600160ff909116105b806104425750303b158015610442575060005460ff166001145b6104b45760405162461bcd60e51b815260206004820152602e60248201527f496e697469616c697a61626c653a20636f6e747261637420697320616c72656160448201527f647920696e697469616c697a656400000000000000000000000000000000000060648201526084016103a7565b6000805460ff1916600117905580156104d7576000805461ff0019166101001790555b6104e082610b5a565b8015610526576000805461ff0019169055604051600181527f7f26b83ff96e1f2b6a682f133852f6798a09c465da95921460cefb38474024989060200160405180910390a15b5050565b600061053960048284866126e5565b6105429161270f565b6000805491925090610563906201000090046001600160a01b031686610a74565b9050806105a7576040517ff292052a0000000000000000000000000000000000000000000000000000000081526001600160a01b03861660048201526024016103a7565b6001600160e01b031982167f7f23690c0000000000000000000000000000000000000000000000000000000014156106dc576000806105e985600481896126e5565b8101906105f69190612534565b90925090506fffffffffffffffffffffffffffffffff1982167fdf30dba06db6a30e65354d9a64c609860000000000000000000000000000000014156106475761064282828986610c57565b6106d5565b7fffffffffffff00000000000000000000000000000000000000000000000000008216654b80742de2bf60d01b14156106865761064282828986610d4c565b6040805160018082528183019092526000916020808301908036833701905050905082816000815181106106bc576106bc61273f565b6020026020010181815250506106d3888583610f5f565b505b505061093c565b6001600160e01b031982167f14a6e2930000000000000000000000000000000000000000000000000000000014156108495760008061071e85600481896126e5565b81019061072b9190612804565b915091506000805b83518110156108375760008482815181106107505761075061273f565b60200260200101519050600084838151811061076e5761076e61273f565b602090810291909101015190506fffffffffffffffffffffffffffffffff1982167fdf30dba06db6a30e65354d9a64c609860000000000000000000000000000000014156107e9576107c282828d8a610c57565b6000801b8684815181106107d8576107d861273f565b60200260200101818152505061082d565b7fffffffffffff00000000000000000000000000000000000000000000000000008216654b80742de2bf60d01b1415610828576107c282828d8a610d4c565b600193505b5050600101610733565b5080156106d3576106d3888585610f5f565b6001600160e01b031982167f44c028fe00000000000000000000000000000000000000000000000000000000141561088c5761088785828686610f8b565b61093c565b6001600160e01b031982167ff2fde38b0000000000000000000000000000000000000000000000000000000014806108ed57506001600160e01b031982167f4e71e0c800000000000000000000000000000000000000000000000000000000145b156108fe576108878582600161121e565b6040517f2ba8851c0000000000000000000000000000000000000000000000000000000081526001600160e01b0319831660048201526024016103a7565b5050505050565b600080546060919081906201000090046001600160a01b0316345a90878760405161096f9291906128b3565b600060405180830381858888f193505050503d80600081146109ad576040519150601f19603f3d011682016040523d82523d6000602084013e6109b2565b606091505b509150915060006109dc8383604051806080016040528060438152602001612d386043913961126a565b9050347f6b9340454526f665e369d7ac17353d0b73774a4a80f746b959ece8130e0f1d72610a0a878961270f565b6040516001600160e01b0319909116815260200160405180910390a28051610a325780610a46565b80806020019051810190610a4691906128c3565b9695505050505050565b6000806000610a5f85856112a3565b91509150610a6c816112e9565b509392505050565b6000806001600160a01b0384166354f6127f610aa1694b80742de2bf82acb36360b01b606087901b6114a7565b6040518263ffffffff1660e01b8152600401610abf91815260200190565b600060405180830381865afa158015610adc573d6000803e3d6000fd5b505050506040513d6000823e601f3d908101601f19168201604052610b0491908101906128c3565b90506102bf81612931565b6001600160a01b0382166000908152600160209081526040808320608085901c8452909152812054610b5270010000000000000000000000000000000084612958565b149392505050565b600054610100900460ff16610bd75760405162461bcd60e51b815260206004820152602b60248201527f496e697469616c697a61626c653a20636f6e7472616374206973206e6f74206960448201527f6e697469616c697a696e6700000000000000000000000000000000000000000060648201526084016103a7565b6001600160a01b038116610c17576040517ffc85457900000000000000000000000000000000000000000000000000000000815260040160405180910390fd5b600080546001600160a01b0390921662010000027fffffffffffffffffffff0000000000000000000000000000000000000000ffff909216919091179055565b7fdf30dba06db6a30e65354d9a64c609861f089545ca58c6b4dbe31a5f338cb0e3841415610d3a57600080546040516354f6127f60e01b815260048101879052620100009091046001600160a01b0316906354f6127f90602401600060405180830381865afa158015610cce573d6000803e3d6000fd5b505050506040513d6000823e601f3d908101601f19168201604052610cf691908101906128c3565b610cff90612931565b90506000610d0c85612931565b905081811115610d2757610d228484600461121e565b610d33565b610d338484600261121e565b5050610d46565b610d468282600261121e565b50505050565b6001600160a01b03198416694b80742de2bf82acb36360b01b1415610d7b57610d76848383611510565b610d46565b6001600160a01b031984166912e01d0b78aff1b75acf60b21b1415610e5f57825115801581610db05750610dae846115ae565b155b15610dd05783604051635b0a748f60e11b81526004016103a7919061297a565b600080546040516354f6127f60e01b815260048101889052620100009091046001600160a01b0316906354f6127f90602401600060405180830381865afa158015610e1f573d6000803e3d6000fd5b505050506040513d6000823e601f3d908101601f19168201604052610e4791908101906128c3565b9050805160001415610d2757610d228484600461121e565b6001600160a01b03198416694b80742de2bf3efa94a360b01b1480610e9a57506001600160a01b031984166909700e85bc57f1dfd43d60b31b145b15610ed557825115801581610eb55750610eb384611647565b155b15610dd05783604051635b0a748f60e11b81526004016103a791906129cc565b6001600160a01b03198416694b80742de2bf90b8b48560b01b1415610f2a57825115801581610f0a5750610f08846116d3565b155b15610dd05783604051635b0a748f60e11b81526004016103a79190612a1e565b6040517f0f7d735b000000000000000000000000000000000000000000000000000000008152600481018590526024016103a7565b6108008083161415610f7057505050565b610f7c8383600861121e565b610f868382611754565b505050565b6000610f9b6024600484866126e5565b610fa491612a70565b90506005811061101c5760405162461bcd60e51b815260206004820152602660248201527f4c5350364b65794d616e616765723a20696e76616c6964206f7065726174696f60448201527f6e2074797065000000000000000000000000000000000000000000000000000060648201526084016103a7565b60048114156110935760405162461bcd60e51b815260206004820152603e60248201527f4c5350364b65794d616e616765723a206f7065726174696f6e2044454c45474160448201527f544543414c4c2069732063757272656e746c7920646973616c6c6f776564000060648201526084016103a7565b60006110a36064604485876126e5565b6110ac91612a70565b9050600060018314806110bf5750600283145b905060a484116000826110e4576110df6110d88661193a565b8981161490565b6110e7565b60005b90508180156110f4575080155b1561110c5761110c898961110788611973565b61121e565b611000888116148415801590611120575080155b15611132576111328a8a61010061121e565b831561114357505050505050610d46565b81801561114d5750825b8015611157575084155b1561116757505050505050610d46565b808015611172575082155b801561117d57508415155b1561118d57505050505050610d46565b8180156111975750805b156111a757505050505050610d46565b60006111b7604460308a8c6126e5565b6111c091612a8e565b60601c90506111cf8b826119c6565b6001600160a01b0381163b15611211576111e98b82611ab1565b60a88810611211576112118b61120360a860a48c8e6126e5565b61120c9161270f565b611ba3565b5050505050505050505050565b8082168114610f8657600061123282611c98565b905083816040517f3bdad6e60000000000000000000000000000000000000000000000000000000081526004016103a7929190612ac1565b60608315611279575081610263565b8251156112895782518084602001fd5b8160405162461bcd60e51b81526004016103a7919061245c565b6000808251604114156112da5760208301516040840151606085015160001a6112ce87828585611f30565b945094505050506112e2565b506000905060025b9250929050565b60008160048111156112fd576112fd612ae3565b14156113065750565b600181600481111561131a5761131a612ae3565b14156113685760405162461bcd60e51b815260206004820152601860248201527f45434453413a20696e76616c6964207369676e6174757265000000000000000060448201526064016103a7565b600281600481111561137c5761137c612ae3565b14156113ca5760405162461bcd60e51b815260206004820152601f60248201527f45434453413a20696e76616c6964207369676e6174757265206c656e6774680060448201526064016103a7565b60038160048111156113de576113de612ae3565b14156114375760405162461bcd60e51b815260206004820152602260248201527f45434453413a20696e76616c6964207369676e6174757265202773272076616c604482015261756560f01b60648201526084016103a7565b600481600481111561144b5761144b612ae3565b14156114a45760405162461bcd60e51b815260206004820152602260248201527f45434453413a20696e76616c6964207369676e6174757265202776272076616c604482015261756560f01b60648201526084016103a7565b50565b604080517fffffffffffffffffffff00000000000000000000000000000000000000000000841660208201526000602a82018190526bffffffffffffffffffffffff198416602c830152918291016040516020818303038152906040529050806102bf90612931565b600080546040516354f6127f60e01b815260048101869052620100009091046001600160a01b0316906354f6127f90602401600060405180830381865afa15801561155f573d6000803e3d6000fd5b505050506040513d6000823e601f3d908101601f1916820160405261158791908101906128c3565b61159090612931565b14156115a257610f868282600461121e565b610f868282600261121e565b60006115b9826116d3565b6115c557506000919050565b60006115d083612931565b905060006115de848361201d565b905060006115ed836020612af9565b905060005b8281101561163b5760006116068784612083565b90506001600160a01b0319811615611625575060009695505050505050565b611630602084612af9565b9250506001016115f2565b50600195945050505050565b6000611652826116d3565b61165e57506000919050565b600061166983612931565b90506000611677848361201d565b90506000611686836020612af9565b905060005b8281101561163b57600061169f8784612083565b90506001600160e01b038116156116bd575060009695505050505050565b6116c8602084612af9565b92505060010161168b565b805160009060208110156116ea5750600092915050565b60006116f584612931565b905080821015611709575060009392505050565b6000611715858361201d565b9050611722816020612b11565b61172d836020612af9565b6117379190612af9565b83101561174957506000949350505050565b506001949350505050565b60008054611771906201000090046001600160a01b0316846120e0565b90508051600014806117895750611787816116d3565b155b1561179357505050565b6000818060200190518101906117a99190612b30565b905060008060005b8351811015611898576117dc8482815181106117cf576117cf61273f565b602002602001015161216d565b925060005b865181101561188f576000801b8782815181106118005761180061273f565b6020026020010151141561181357611887565b61181e846008612b11565b60001960001b901b92508287828151811061183b5761183b61273f565b6020026020010151168583815181106118565761185661273f565b60200260200101511415611887576000801b87828151811061187a5761187a61273f565b6020026020010181815250505b6001016117e1565b506001016117b1565b5060005b8551811015611931576000801b8682815181106118bb576118bb61273f565b60200260200101511461192957868682815181106118db576118db61273f565b60209081029190910101516040517f3003e7ae0000000000000000000000000000000000000000000000000000000081526001600160a01b03909216600483015260248201526044016103a7565b60010161189c565b50505050505050565b60008161194a5750612000919050565b600382141561195c5750614000919050565b600482141561196e5750618000919050565b919050565b60008161198257506010919050565b600182141561199357506080919050565b60028214156119a457506080919050565b60038214156119b557506020919050565b600482141561196e57506040919050565b600080546119e3906201000090046001600160a01b0316846121e3565b90508051600014806119fb57506119f9816115ae565b155b15611a0557505050565b600081806020019051810190611a1b9190612bb6565b905060005b8151811015611a6b57818181518110611a3b57611a3b61273f565b60200260200101516001600160a01b0316846001600160a01b03161415611a63575050505050565b600101611a20565b506040517f2879b1280000000000000000000000000000000000000000000000000000000081526001600160a01b038086166004830152841660248201526044016103a7565b60008054611ace906201000090046001600160a01b03168461220d565b9050805160001480611ae65750611ae481611647565b155b15611af057505050565b600081806020019051810190611b069190612c45565b905060005b8151811015611b5d57611b49828281518110611b2957611b2961273f565b6020026020010151856001600160a01b031661223790919063ffffffff16565b15611b55575050505050565b600101611b0b565b506040517f42013ee40000000000000000000000000000000000000000000000000000000081526001600160a01b038086166004830152841660248201526044016103a7565b60008054611bc0906201000090046001600160a01b031684612323565b9050805160001480611bd85750611bd681611647565b155b15611be257505050565b600081806020019051810190611bf89190612c45565b905060005b8151811015611c4a57818181518110611c1857611c1861273f565b60200260200101516001600160e01b031916846001600160e01b0319161415611c42575050505050565b600101611bfd565b506040517f841351100000000000000000000000000000000000000000000000000000000081526001600160a01b03851660048201526001600160e01b0319841660248201526044016103a7565b60606001821415611cdc57505060408051808201909152601181527f5452414e534645524f574e455253484950000000000000000000000000000000602082015290565b6002821415611d1e57505060408051808201909152601181527f4348414e47455045524d495353494f4e53000000000000000000000000000000602082015290565b6004821415611d6057505060408051808201909152600e81527f4144445045524d495353494f4e53000000000000000000000000000000000000602082015290565b6008821415611da257505060408051808201909152600781527f5345544441544100000000000000000000000000000000000000000000000000602082015290565b6010821415611de457505060408051808201909152600481527f43414c4c00000000000000000000000000000000000000000000000000000000602082015290565b6020821415611e2657505060408051808201909152600a81527f53544154494343414c4c00000000000000000000000000000000000000000000602082015290565b6040821415611e6857505060408051808201909152600c81527f44454c454741544543414c4c0000000000000000000000000000000000000000602082015290565b6080821415611eaa57505060408051808201909152600681527f4445504c4f590000000000000000000000000000000000000000000000000000602082015290565b610100821415611eed57505060408051808201909152600d81527f5452414e5346455256414c554500000000000000000000000000000000000000602082015290565b61020082141561196e57505060408051808201909152600481527f5349474e00000000000000000000000000000000000000000000000000000000602082015290565b6000807f7fffffffffffffffffffffffffffffff5d576e7357a4501ddfe92f46681b20a0831115611f675750600090506003612014565b8460ff16601b14158015611f7f57508460ff16601c14155b15611f905750600090506004612014565b6040805160008082526020820180845289905260ff881692820192909252606081018690526080810185905260019060a0016020604051602081039080840390855afa158015611fe4573d6000803e3d6000fd5b5050604051601f1901519150506001600160a01b03811661200d57600060019250925050612014565b9150600090505b94509492505050565b600061202a826020612af9565b8351101561207a5760405162461bcd60e51b815260206004820152601560248201527f746f55696e743235365f6f75744f66426f756e6473000000000000000000000060448201526064016103a7565b50016020015190565b6000612090826020612af9565b8351101561207a5760405162461bcd60e51b815260206004820152601560248201527f746f427974657333325f6f75744f66426f756e6473000000000000000000000060448201526064016103a7565b60606001600160a01b0383166354f6127f61210a694b80742de2bf90b8b48560b01b85851b6114a7565b6040518263ffffffff1660e01b815260040161212891815260200190565b600060405180830381865afa158015612145573d6000803e3d6000fd5b505050506040513d6000823e601f3d908101601f1916820160405261026391908101906128c3565b600060205b6000811180156121c1575082612189600183612cd4565b602081106121995761219961273f565b1a60f81b7fff0000000000000000000000000000000000000000000000000000000000000016155b156121d857806121d081612ceb565b915050612172565b610263816020612cd4565b60606001600160a01b0383166354f6127f61210a6912e01d0b78aff1b75acf60b21b85851b6114a7565b60606001600160a01b0383166354f6127f61210a694b80742de2bf3efa94a360b01b85851b6114a7565b604080516001600160e01b0319831660248083019190915282518083039091018152604490910182526020810180516001600160e01b03166301ffc9a760e01b179052905160009190829081906001600160a01b038716906175309061229e908690612d02565b6000604051808303818686fa925050503d80600081146122da576040519150601f19603f3d011682016040523d82523d6000602084013e6122df565b606091505b50915091506020815110156122fa5760009350505050610246565b818015610a4657506000818060200190518101906123189190612d1e565b119695505050505050565b60606001600160a01b0383166354f6127f61210a6909700e85bc57f1dfd43d60b31b85851b6114a7565b6001600160e01b0319811681146114a457600080fd5b60006020828403121561237557600080fd5b81356102638161234d565b60008083601f84011261239257600080fd5b50813567ffffffffffffffff8111156123aa57600080fd5b6020830191508360208285010111156112e257600080fd5b600080602083850312156123d557600080fd5b823567ffffffffffffffff8111156123ec57600080fd5b6123f885828601612380565b90969095509350505050565b60005b8381101561241f578181015183820152602001612407565b83811115610d465750506000910152565b60008151808452612448816020860160208601612404565b601f01601f19169290920160200192915050565b6020815260006102636020830184612430565b634e487b7160e01b600052604160045260246000fd5b604051601f8201601f1916810167ffffffffffffffff811182821017156124ae576124ae61246f565b604052919050565b600067ffffffffffffffff8211156124d0576124d061246f565b50601f01601f191660200190565b600082601f8301126124ef57600080fd5b81356125026124fd826124b6565b612485565b81815284602083860101111561251757600080fd5b816020850160208301376000918101602001919091529392505050565b6000806040838503121561254757600080fd5b82359150602083013567ffffffffffffffff81111561256557600080fd5b612571858286016124de565b9150509250929050565b6001600160a01b03811681146114a457600080fd5b600080604083850312156125a357600080fd5b82356125ae8161257b565b946020939093013593505050565b600080600080606085870312156125d257600080fd5b843567ffffffffffffffff808211156125ea57600080fd5b6125f6888389016124de565b955060208701359450604087013591508082111561261357600080fd5b5061262087828801612380565b95989497509550505050565b60006020828403121561263e57600080fd5b81356102638161257b565b8581526bffffffffffffffffffffffff198560601b1660208201528360348201528183605483013760009101605401908152949350505050565b6001600160a01b03841681528260208201526060604082015260006126ab6060830184612430565b95945050505050565b634e487b7160e01b600052601160045260246000fd5b60006000198214156126de576126de6126b4565b5060010190565b600080858511156126f557600080fd5b8386111561270257600080fd5b5050820193919092039150565b6001600160e01b031981358181169160048510156127375780818660040360031b1b83161692505b505092915050565b634e487b7160e01b600052603260045260246000fd5b600067ffffffffffffffff82111561276f5761276f61246f565b5060051b60200190565b600082601f83011261278a57600080fd5b8135602061279a6124fd83612755565b82815260059290921b840181019181810190868411156127b957600080fd5b8286015b848110156127f957803567ffffffffffffffff8111156127dd5760008081fd5b6127eb8986838b01016124de565b8452509183019183016127bd565b509695505050505050565b6000806040838503121561281757600080fd5b823567ffffffffffffffff8082111561282f57600080fd5b818501915085601f83011261284357600080fd5b813560206128536124fd83612755565b82815260059290921b8401810191818101908984111561287257600080fd5b948201945b8386101561289057853582529482019490820190612877565b965050860135925050808211156128a657600080fd5b5061257185828601612779565b8183823760009101908152919050565b6000602082840312156128d557600080fd5b815167ffffffffffffffff8111156128ec57600080fd5b8201601f810184136128fd57600080fd5b805161290b6124fd826124b6565b81815285602083850101111561292057600080fd5b6126ab826020830160208601612404565b80516020808301519190811015612952576000198160200360031b1b821691505b50919050565b60008261297557634e487b7160e01b600052601260045260246000fd5b500690565b60408152600061298d6040830184612430565b8281036020840152600781527f616464726573730000000000000000000000000000000000000000000000000060208201526040810191505092915050565b6040815260006129df6040830184612430565b8281036020840152600681527f627974657334000000000000000000000000000000000000000000000000000060208201526040810191505092915050565b604081526000612a316040830184612430565b8281036020840152600781527f627974657333320000000000000000000000000000000000000000000000000060208201526040810191505092915050565b8035602083101561024657600019602084900360031b1b1692915050565b6bffffffffffffffffffffffff1981358181169160148510156127375760149490940360031b84901b1690921692915050565b6001600160a01b03831681526040602082015260006102bf6040830184612430565b634e487b7160e01b600052602160045260246000fd5b60008219821115612b0c57612b0c6126b4565b500190565b6000816000190483118215151615612b2b57612b2b6126b4565b500290565b60006020808385031215612b4357600080fd5b825167ffffffffffffffff811115612b5a57600080fd5b8301601f81018513612b6b57600080fd5b8051612b796124fd82612755565b81815260059190911b82018301908381019087831115612b9857600080fd5b928401925b828410156103fd57835182529284019290840190612b9d565b60006020808385031215612bc957600080fd5b825167ffffffffffffffff811115612be057600080fd5b8301601f81018513612bf157600080fd5b8051612bff6124fd82612755565b81815260059190911b82018301908381019087831115612c1e57600080fd5b928401925b828410156103fd578351612c368161257b565b82529284019290840190612c23565b60006020808385031215612c5857600080fd5b825167ffffffffffffffff811115612c6f57600080fd5b8301601f81018513612c8057600080fd5b8051612c8e6124fd82612755565b81815260059190911b82018301908381019087831115612cad57600080fd5b928401925b828410156103fd578351612cc58161234d565b82529284019290840190612cb2565b600082821015612ce657612ce66126b4565b500390565b600081612cfa57612cfa6126b4565b506000190190565b60008251612d14818460208701612404565b9190910192915050565b600060208284031215612d3057600080fd5b505191905056fe4c5350363a20556e6b6e6f776e204572726f72206f636375726564207768656e2063616c6c696e6720746865206c696e6b65642074617267657420636f6e7472616374a26469706673582212203f3a5b0ef56ea4b80f08d8b22d8d40b0468ec60e16ef658d39246bd516ab923c64736f6c634300080a0033",
  "linkReferences": {},
  "deployedLinkReferences": {}
}