{
  "_format": "hh-sol-artifact-1",
  "contractName": "LSP6KeyManager",
  "sourceName": "contracts/LSP6KeyManager/LSP6KeyManager.sol",
  "abi": [
    {
      "inputs": [
        {
          "internalType": "address",
          "name": "target_",
          "type": "address"
        }
      ],
      "stateMutability": "nonpayable",
      "type": "constructor"
    },
    {
      "inputs": [
        {
          "internalType": "bytes",
          "name": "value",
          "type": "bytes"
        },
        {
          "internalType": "string",
          "name": "valueType",
          "type": "string"
        }
      ],
      "name": "InvalidABIEncodedArray",
      "type": "error"
    },
    {
      "inputs": [
        {
          "internalType": "bytes4",
          "name": "invalidFunction",
          "type": "bytes4"
        }
      ],
      "name": "InvalidERC725Function",
      "type": "error"
    },
    {
      "inputs": [],
      "name": "InvalidLSP6Target",
      "type": "error"
    },
    {
      "inputs": [
        {
          "internalType": "address",
          "name": "signer",
          "type": "address"
        },
        {
          "internalType": "uint256",
          "name": "invalidNonce",
          "type": "uint256"
        },
        {
          "internalType": "bytes",
          "name": "signature",
          "type": "bytes"
        }
      ],
      "name": "InvalidRelayNonce",
      "type": "error"
    },
    {
      "inputs": [
        {
          "internalType": "address",
          "name": "from",
          "type": "address"
        }
      ],
      "name": "NoPermissionsSet",
      "type": "error"
    },
    {
      "inputs": [
        {
          "internalType": "address",
          "name": "from",
          "type": "address"
        },
        {
          "internalType": "address",
          "name": "disallowedAddress",
          "type": "address"
        }
      ],
      "name": "NotAllowedAddress",
      "type": "error"
    },
    {
      "inputs": [
        {
          "internalType": "address",
          "name": "from",
          "type": "address"
        },
        {
          "internalType": "bytes32",
          "name": "disallowedKey",
          "type": "bytes32"
        }
      ],
      "name": "NotAllowedERC725YKey",
      "type": "error"
    },
    {
      "inputs": [
        {
          "internalType": "address",
          "name": "from",
          "type": "address"
        },
        {
          "internalType": "bytes4",
          "name": "disallowedFunction",
          "type": "bytes4"
        }
      ],
      "name": "NotAllowedFunction",
      "type": "error"
    },
    {
      "inputs": [
        {
          "internalType": "address",
          "name": "from",
          "type": "address"
        },
        {
          "internalType": "address",
          "name": "addressNotImplementingAllowedStandard",
          "type": "address"
        }
      ],
      "name": "NotAllowedStandard",
      "type": "error"
    },
    {
      "inputs": [
        {
          "internalType": "address",
          "name": "from",
          "type": "address"
        },
        {
          "internalType": "string",
          "name": "permission",
          "type": "string"
        }
      ],
      "name": "NotAuthorised",
      "type": "error"
    },
    {
      "inputs": [
        {
          "internalType": "bytes32",
          "name": "dataKey",
          "type": "bytes32"
        }
      ],
      "name": "NotRecognisedPermissionKey",
      "type": "error"
    },
    {
      "anonymous": false,
      "inputs": [
        {
          "indexed": true,
          "internalType": "uint256",
          "name": "value",
          "type": "uint256"
        },
        {
          "indexed": false,
          "internalType": "bytes4",
          "name": "selector",
          "type": "bytes4"
        }
      ],
      "name": "Executed",
      "type": "event"
    },
    {
      "inputs": [
        {
          "internalType": "bytes",
          "name": "payload",
          "type": "bytes"
        }
      ],
      "name": "execute",
      "outputs": [
        {
          "internalType": "bytes",
          "name": "",
          "type": "bytes"
        }
      ],
      "stateMutability": "payable",
      "type": "function"
    },
    {
      "inputs": [
        {
          "internalType": "bytes",
          "name": "signature",
          "type": "bytes"
        },
        {
          "internalType": "uint256",
          "name": "nonce",
          "type": "uint256"
        },
        {
          "internalType": "bytes",
          "name": "payload",
          "type": "bytes"
        }
      ],
      "name": "executeRelayCall",
      "outputs": [
        {
          "internalType": "bytes",
          "name": "",
          "type": "bytes"
        }
      ],
      "stateMutability": "payable",
      "type": "function"
    },
    {
      "inputs": [
        {
          "internalType": "address",
          "name": "from",
          "type": "address"
        },
        {
          "internalType": "uint256",
          "name": "channelId",
          "type": "uint256"
        }
      ],
      "name": "getNonce",
      "outputs": [
        {
          "internalType": "uint256",
          "name": "",
          "type": "uint256"
        }
      ],
      "stateMutability": "view",
      "type": "function"
    },
    {
      "inputs": [
        {
          "internalType": "bytes32",
          "name": "dataHash",
          "type": "bytes32"
        },
        {
          "internalType": "bytes",
          "name": "signature",
          "type": "bytes"
        }
      ],
      "name": "isValidSignature",
      "outputs": [
        {
          "internalType": "bytes4",
          "name": "magicValue",
          "type": "bytes4"
        }
      ],
      "stateMutability": "view",
      "type": "function"
    },
    {
      "inputs": [
        {
          "internalType": "bytes4",
          "name": "interfaceId",
          "type": "bytes4"
        }
      ],
      "name": "supportsInterface",
      "outputs": [
        {
          "internalType": "bool",
          "name": "",
          "type": "bool"
        }
      ],
      "stateMutability": "view",
      "type": "function"
    },
    {
      "inputs": [],
      "name": "target",
      "outputs": [
        {
          "internalType": "address",
          "name": "",
          "type": "address"
        }
      ],
      "stateMutability": "view",
      "type": "function"
    }
  ],
  "bytecode": "0x60806040523480156200001157600080fd5b5060405162002bcc38038062002bcc833981016040819052620000349162000082565b6001600160a01b0381166200005c5760405163fc85457960e01b815260040160405180910390fd5b600080546001600160a01b0319166001600160a01b0392909216919091179055620000b4565b6000602082840312156200009557600080fd5b81516001600160a01b0381168114620000ad57600080fd5b9392505050565b612b0880620000c46000396000f3fe6080604052600436106100655760003560e01c8063895358031161004357806389535803146100f8578063902d5fa014610163578063d4b839921461017657600080fd5b806301ffc9a71461006a57806309c5eabe1461009f5780631626ba7e146100bf575b600080fd5b34801561007657600080fd5b5061008a6100853660046120d8565b6101ae565b60405190151581526020015b60405180910390f35b6100b26100ad366004612137565b610219565b60405161009691906121d1565b3480156100cb57600080fd5b506100df6100da3660046122a9565b610237565b6040516001600160e01b03199091168152602001610096565b34801561010457600080fd5b50610155610113366004612305565b6001600160a01b039190911660009081526001602090815260408083208484529091529020546fffffffffffffffffffffffffffffffff1660809190911b1790565b604051908152602001610096565b6100b2610171366004612331565b61028e565b34801561018257600080fd5b50600054610196906001600160a01b031681565b6040516001600160a01b039091168152602001610096565b60006001600160e01b031982167fc403d48f0000000000000000000000000000000000000000000000000000000014806101f857506001600160e01b03198216630b135d3f60e11b145b8061021357506301ffc9a760e01b6001600160e01b03198316145b92915050565b60606102263384846103cf565b61023083836107e2565b9392505050565b60008061024484846108e9565b60005490915061026b9061020090610265906001600160a01b03168461090d565b81161490565b61027d576001600160e01b0319610286565b630b135d3f60e11b5b949350505050565b6060600046308686866040516020016102ab9594939291906123a1565b604051602081830303815290604052905060006103268761032084805190602001206040517f19457468657265756d205369676e6564204d6573736167653a0a3332000000006020820152603c8101829052600090605c01604051602081830303815290604052805190602001209050919050565b906108e9565b905061033281876109a8565b610377578086886040517fc9bd9eb900000000000000000000000000000000000000000000000000000000815260040161036e939291906123db565b60405180910390fd5b6001600160a01b038116600090815260016020908152604080832060808a901c845290915281208054916103aa83612422565b91905055506103ba8186866103cf565b6103c485856107e2565b979650505050505050565b60006103de600482848661243d565b6103e791612467565b6000805491925090610402906001600160a01b03168661090d565b905080610446576040517ff292052a0000000000000000000000000000000000000000000000000000000081526001600160a01b038616600482015260240161036e565b6001600160e01b031982167f7f23690c00000000000000000000000000000000000000000000000000000000141561057b57600080610488856004818961243d565b81019061049591906122a9565b90925090506fffffffffffffffffffffffffffffffff1982167fdf30dba06db6a30e65354d9a64c609860000000000000000000000000000000014156104e6576104e1828289866109f3565b610574565b7fffffffffffff00000000000000000000000000000000000000000000000000008216654b80742de2bf60d01b1415610525576104e182828986610ae3565b60408051600180825281830190925260009160208083019080368337019050509050828160008151811061055b5761055b612497565b602002602001018181525050610572888583610cf1565b505b50506107db565b6001600160e01b031982167f14a6e2930000000000000000000000000000000000000000000000000000000014156106e8576000806105bd856004818961243d565b8101906105ca919061255c565b915091506000805b83518110156106d65760008482815181106105ef576105ef612497565b60200260200101519050600084838151811061060d5761060d612497565b602090810291909101015190506fffffffffffffffffffffffffffffffff1982167fdf30dba06db6a30e65354d9a64c609860000000000000000000000000000000014156106885761066182828d8a6109f3565b6000801b86848151811061067757610677612497565b6020026020010181815250506106cc565b7fffffffffffff00000000000000000000000000000000000000000000000000008216654b80742de2bf60d01b14156106c75761066182828d8a610ae3565b600193505b50506001016105d2565b50801561057257610572888585610cf1565b6001600160e01b031982167f44c028fe00000000000000000000000000000000000000000000000000000000141561072b5761072685828686610d1d565b6107db565b6001600160e01b031982167ff2fde38b00000000000000000000000000000000000000000000000000000000148061078c57506001600160e01b031982167f4e71e0c800000000000000000000000000000000000000000000000000000000145b1561079d5761072685826001610fb0565b6040517f2ba8851c0000000000000000000000000000000000000000000000000000000081526001600160e01b03198316600482015260240161036e565b5050505050565b600080546060919081906001600160a01b0316345a90878760405161080892919061260b565b600060405180830381858888f193505050503d8060008114610846576040519150601f19603f3d011682016040523d82523d6000602084013e61084b565b606091505b509150915060006108758383604051806080016040528060438152602001612a9060439139610ffc565b9050347f6b9340454526f665e369d7ac17353d0b73774a4a80f746b959ece8130e0f1d726108a38789612467565b6040516001600160e01b0319909116815260200160405180910390a280516108cb57806108df565b808060200190518101906108df919061261b565b9695505050505050565b60008060006108f88585611035565b915091506109058161107b565b509392505050565b6000806001600160a01b0384166354f6127f61093a694b80742de2bf82acb36360b01b606087901b611239565b6040518263ffffffff1660e01b815260040161095891815260200190565b600060405180830381865afa158015610975573d6000803e3d6000fd5b505050506040513d6000823e601f3d908101601f1916820160405261099d919081019061261b565b905061028681612689565b6001600160a01b0382166000908152600160209081526040808320608085901c84529091528120546109eb700100000000000000000000000000000000846126b0565b149392505050565b7fdf30dba06db6a30e65354d9a64c609861f089545ca58c6b4dbe31a5f338cb0e3841415610ad157600080546040516354f6127f60e01b8152600481018790526001600160a01b03909116906354f6127f90602401600060405180830381865afa158015610a65573d6000803e3d6000fd5b505050506040513d6000823e601f3d908101601f19168201604052610a8d919081019061261b565b610a9690612689565b90506000610aa385612689565b905081811115610abe57610ab984846004610fb0565b610aca565b610aca84846002610fb0565b5050610add565b610add82826002610fb0565b50505050565b6001600160a01b03198416694b80742de2bf82acb36360b01b1415610b1257610b0d8483836112a2565b610add565b6001600160a01b031984166912e01d0b78aff1b75acf60b21b1415610bf157825115801581610b475750610b458461133b565b155b15610b675783604051635b0a748f60e11b815260040161036e91906126d2565b600080546040516354f6127f60e01b8152600481018890526001600160a01b03909116906354f6127f90602401600060405180830381865afa158015610bb1573d6000803e3d6000fd5b505050506040513d6000823e601f3d908101601f19168201604052610bd9919081019061261b565b9050805160001415610abe57610ab984846004610fb0565b6001600160a01b03198416694b80742de2bf3efa94a360b01b1480610c2c57506001600160a01b031984166909700e85bc57f1dfd43d60b31b145b15610c6757825115801581610c475750610c45846113d4565b155b15610b675783604051635b0a748f60e11b815260040161036e9190612724565b6001600160a01b03198416694b80742de2bf90b8b48560b01b1415610cbc57825115801581610c9c5750610c9a84611460565b155b15610b675783604051635b0a748f60e11b815260040161036e9190612776565b6040517f0f7d735b0000000000000000000000000000000000000000000000000000000081526004810185905260240161036e565b6108008083161415610d0257505050565b610d0e83836008610fb0565b610d1883826114e1565b505050565b6000610d2d60246004848661243d565b610d36916127c8565b905060058110610dae5760405162461bcd60e51b815260206004820152602660248201527f4c5350364b65794d616e616765723a20696e76616c6964206f7065726174696f60448201527f6e20747970650000000000000000000000000000000000000000000000000000606482015260840161036e565b6004811415610e255760405162461bcd60e51b815260206004820152603e60248201527f4c5350364b65794d616e616765723a206f7065726174696f6e2044454c45474160448201527f544543414c4c2069732063757272656e746c7920646973616c6c6f7765640000606482015260840161036e565b6000610e3560646044858761243d565b610e3e916127c8565b905060006001831480610e515750600283145b905060a48411600082610e7657610e71610e6a866116c1565b8981161490565b610e79565b60005b9050818015610e86575080155b15610e9e57610e9e8989610e99886116fa565b610fb0565b611000888116148415801590610eb2575080155b15610ec457610ec48a8a610100610fb0565b8315610ed557505050505050610add565b818015610edf5750825b8015610ee9575084155b15610ef957505050505050610add565b808015610f04575082155b8015610f0f57508415155b15610f1f57505050505050610add565b818015610f295750805b15610f3957505050505050610add565b6000610f49604460308a8c61243d565b610f52916127e6565b60601c9050610f618b8261174d565b6001600160a01b0381163b15610fa357610f7b8b82611832565b60a88810610fa357610fa38b610f9560a860a48c8e61243d565b610f9e91612467565b61191e565b5050505050505050505050565b8082168114610d18576000610fc482611a0d565b905083816040517f3bdad6e600000000000000000000000000000000000000000000000000000000815260040161036e929190612819565b6060831561100b575081610230565b82511561101b5782518084602001fd5b8160405162461bcd60e51b815260040161036e91906121d1565b60008082516041141561106c5760208301516040840151606085015160001a61106087828585611ca5565b94509450505050611074565b506000905060025b9250929050565b600081600481111561108f5761108f61283b565b14156110985750565b60018160048111156110ac576110ac61283b565b14156110fa5760405162461bcd60e51b815260206004820152601860248201527f45434453413a20696e76616c6964207369676e61747572650000000000000000604482015260640161036e565b600281600481111561110e5761110e61283b565b141561115c5760405162461bcd60e51b815260206004820152601f60248201527f45434453413a20696e76616c6964207369676e6174757265206c656e67746800604482015260640161036e565b60038160048111156111705761117061283b565b14156111c95760405162461bcd60e51b815260206004820152602260248201527f45434453413a20696e76616c6964207369676e6174757265202773272076616c604482015261756560f01b606482015260840161036e565b60048160048111156111dd576111dd61283b565b14156112365760405162461bcd60e51b815260206004820152602260248201527f45434453413a20696e76616c6964207369676e6174757265202776272076616c604482015261756560f01b606482015260840161036e565b50565b604080517fffffffffffffffffffff00000000000000000000000000000000000000000000841660208201526000602a82018190526bffffffffffffffffffffffff198416602c8301529182910160405160208183030381529060405290508061028690612689565b600080546040516354f6127f60e01b8152600481018690526001600160a01b03909116906354f6127f90602401600060405180830381865afa1580156112ec573d6000803e3d6000fd5b505050506040513d6000823e601f3d908101601f19168201604052611314919081019061261b565b61131d90612689565b141561132f57610d1882826004610fb0565b610d1882826002610fb0565b600061134682611460565b61135257506000919050565b600061135d83612689565b9050600061136b8483611d92565b9050600061137a836020612851565b905060005b828110156113c85760006113938784611df8565b90506001600160a01b03198116156113b2575060009695505050505050565b6113bd602084612851565b92505060010161137f565b50600195945050505050565b60006113df82611460565b6113eb57506000919050565b60006113f683612689565b905060006114048483611d92565b90506000611413836020612851565b905060005b828110156113c857600061142c8784611df8565b90506001600160e01b0381161561144a575060009695505050505050565b611455602084612851565b925050600101611418565b805160009060208110156114775750600092915050565b600061148284612689565b905080821015611496575060009392505050565b60006114a28583611d92565b90506114af816020612869565b6114ba836020612851565b6114c49190612851565b8310156114d657506000949350505050565b506001949350505050565b600080546114f8906001600160a01b031684611e55565b9050805160001480611510575061150e81611460565b155b1561151a57505050565b6000818060200190518101906115309190612888565b905060008060005b835181101561161f5761156384828151811061155657611556612497565b6020026020010151611ee2565b925060005b8651811015611616576000801b87828151811061158757611587612497565b6020026020010151141561159a5761160e565b6115a5846008612869565b60001960001b901b9250828782815181106115c2576115c2612497565b6020026020010151168583815181106115dd576115dd612497565b6020026020010151141561160e576000801b87828151811061160157611601612497565b6020026020010181815250505b600101611568565b50600101611538565b5060005b85518110156116b8576000801b86828151811061164257611642612497565b6020026020010151146116b0578686828151811061166257611662612497565b60209081029190910101516040517f3003e7ae0000000000000000000000000000000000000000000000000000000081526001600160a01b039092166004830152602482015260440161036e565b600101611623565b50505050505050565b6000816116d15750612000919050565b60038214156116e35750614000919050565b60048214156116f55750618000919050565b919050565b60008161170957506010919050565b600182141561171a57506080919050565b600282141561172b57506080919050565b600382141561173c57506020919050565b60048214156116f557506040919050565b60008054611764906001600160a01b031684611f58565b905080516000148061177c575061177a8161133b565b155b1561178657505050565b60008180602001905181019061179c919061290e565b905060005b81518110156117ec578181815181106117bc576117bc612497565b60200260200101516001600160a01b0316846001600160a01b031614156117e4575050505050565b6001016117a1565b506040517f2879b1280000000000000000000000000000000000000000000000000000000081526001600160a01b0380861660048301528416602482015260440161036e565b60008054611849906001600160a01b031684611f82565b9050805160001480611861575061185f816113d4565b155b1561186b57505050565b600081806020019051810190611881919061299d565b905060005b81518110156118d8576118c48282815181106118a4576118a4612497565b6020026020010151856001600160a01b0316611fac90919063ffffffff16565b156118d0575050505050565b600101611886565b506040517f42013ee40000000000000000000000000000000000000000000000000000000081526001600160a01b0380861660048301528416602482015260440161036e565b60008054611935906001600160a01b031684612098565b905080516000148061194d575061194b816113d4565b155b1561195757505050565b60008180602001905181019061196d919061299d565b905060005b81518110156119bf5781818151811061198d5761198d612497565b60200260200101516001600160e01b031916846001600160e01b03191614156119b7575050505050565b600101611972565b506040517f841351100000000000000000000000000000000000000000000000000000000081526001600160a01b03851660048201526001600160e01b03198416602482015260440161036e565b60606001821415611a5157505060408051808201909152601181527f5452414e534645524f574e455253484950000000000000000000000000000000602082015290565b6002821415611a9357505060408051808201909152601181527f4348414e47455045524d495353494f4e53000000000000000000000000000000602082015290565b6004821415611ad557505060408051808201909152600e81527f4144445045524d495353494f4e53000000000000000000000000000000000000602082015290565b6008821415611b1757505060408051808201909152600781527f5345544441544100000000000000000000000000000000000000000000000000602082015290565b6010821415611b5957505060408051808201909152600481527f43414c4c00000000000000000000000000000000000000000000000000000000602082015290565b6020821415611b9b57505060408051808201909152600a81527f53544154494343414c4c00000000000000000000000000000000000000000000602082015290565b6040821415611bdd57505060408051808201909152600c81527f44454c454741544543414c4c0000000000000000000000000000000000000000602082015290565b6080821415611c1f57505060408051808201909152600681527f4445504c4f590000000000000000000000000000000000000000000000000000602082015290565b610100821415611c6257505060408051808201909152600d81527f5452414e5346455256414c554500000000000000000000000000000000000000602082015290565b6102008214156116f557505060408051808201909152600481527f5349474e00000000000000000000000000000000000000000000000000000000602082015290565b6000807f7fffffffffffffffffffffffffffffff5d576e7357a4501ddfe92f46681b20a0831115611cdc5750600090506003611d89565b8460ff16601b14158015611cf457508460ff16601c14155b15611d055750600090506004611d89565b6040805160008082526020820180845289905260ff881692820192909252606081018690526080810185905260019060a0016020604051602081039080840390855afa158015611d59573d6000803e3d6000fd5b5050604051601f1901519150506001600160a01b038116611d8257600060019250925050611d89565b9150600090505b94509492505050565b6000611d9f826020612851565b83511015611def5760405162461bcd60e51b815260206004820152601560248201527f746f55696e743235365f6f75744f66426f756e64730000000000000000000000604482015260640161036e565b50016020015190565b6000611e05826020612851565b83511015611def5760405162461bcd60e51b815260206004820152601560248201527f746f427974657333325f6f75744f66426f756e64730000000000000000000000604482015260640161036e565b60606001600160a01b0383166354f6127f611e7f694b80742de2bf90b8b48560b01b85851b611239565b6040518263ffffffff1660e01b8152600401611e9d91815260200190565b600060405180830381865afa158015611eba573d6000803e3d6000fd5b505050506040513d6000823e601f3d908101601f19168201604052610230919081019061261b565b600060205b600081118015611f36575082611efe600183612a2c565b60208110611f0e57611f0e612497565b1a60f81b7fff0000000000000000000000000000000000000000000000000000000000000016155b15611f4d5780611f4581612a43565b915050611ee7565b610230816020612a2c565b60606001600160a01b0383166354f6127f611e7f6912e01d0b78aff1b75acf60b21b85851b611239565b60606001600160a01b0383166354f6127f611e7f694b80742de2bf3efa94a360b01b85851b611239565b604080516001600160e01b0319831660248083019190915282518083039091018152604490910182526020810180516001600160e01b03166301ffc9a760e01b179052905160009190829081906001600160a01b0387169061753090612013908690612a5a565b6000604051808303818686fa925050503d806000811461204f576040519150601f19603f3d011682016040523d82523d6000602084013e612054565b606091505b509150915060208151101561206f5760009350505050610213565b8180156108df575060008180602001905181019061208d9190612a76565b119695505050505050565b60606001600160a01b0383166354f6127f611e7f6909700e85bc57f1dfd43d60b31b85851b611239565b6001600160e01b03198116811461123657600080fd5b6000602082840312156120ea57600080fd5b8135610230816120c2565b60008083601f84011261210757600080fd5b50813567ffffffffffffffff81111561211f57600080fd5b60208301915083602082850101111561107457600080fd5b6000806020838503121561214a57600080fd5b823567ffffffffffffffff81111561216157600080fd5b61216d858286016120f5565b90969095509350505050565b60005b8381101561219457818101518382015260200161217c565b83811115610add5750506000910152565b600081518084526121bd816020860160208601612179565b601f01601f19169290920160200192915050565b60208152600061023060208301846121a5565b634e487b7160e01b600052604160045260246000fd5b604051601f8201601f1916810167ffffffffffffffff81118282101715612223576122236121e4565b604052919050565b600067ffffffffffffffff821115612245576122456121e4565b50601f01601f191660200190565b600082601f83011261226457600080fd5b81356122776122728261222b565b6121fa565b81815284602083860101111561228c57600080fd5b816020850160208301376000918101602001919091529392505050565b600080604083850312156122bc57600080fd5b82359150602083013567ffffffffffffffff8111156122da57600080fd5b6122e685828601612253565b9150509250929050565b6001600160a01b038116811461123657600080fd5b6000806040838503121561231857600080fd5b8235612323816122f0565b946020939093013593505050565b6000806000806060858703121561234757600080fd5b843567ffffffffffffffff8082111561235f57600080fd5b61236b88838901612253565b955060208701359450604087013591508082111561238857600080fd5b50612395878288016120f5565b95989497509550505050565b8581526bffffffffffffffffffffffff198560601b1660208201528360348201528183605483013760009101605401908152949350505050565b6001600160a01b038416815282602082015260606040820152600061240360608301846121a5565b95945050505050565b634e487b7160e01b600052601160045260246000fd5b60006000198214156124365761243661240c565b5060010190565b6000808585111561244d57600080fd5b8386111561245a57600080fd5b5050820193919092039150565b6001600160e01b0319813581811691600485101561248f5780818660040360031b1b83161692505b505092915050565b634e487b7160e01b600052603260045260246000fd5b600067ffffffffffffffff8211156124c7576124c76121e4565b5060051b60200190565b600082601f8301126124e257600080fd5b813560206124f2612272836124ad565b82815260059290921b8401810191818101908684111561251157600080fd5b8286015b8481101561255157803567ffffffffffffffff8111156125355760008081fd5b6125438986838b0101612253565b845250918301918301612515565b509695505050505050565b6000806040838503121561256f57600080fd5b823567ffffffffffffffff8082111561258757600080fd5b818501915085601f83011261259b57600080fd5b813560206125ab612272836124ad565b82815260059290921b840181019181810190898411156125ca57600080fd5b948201945b838610156125e8578535825294820194908201906125cf565b965050860135925050808211156125fe57600080fd5b506122e6858286016124d1565b8183823760009101908152919050565b60006020828403121561262d57600080fd5b815167ffffffffffffffff81111561264457600080fd5b8201601f8101841361265557600080fd5b80516126636122728261222b565b81815285602083850101111561267857600080fd5b612403826020830160208601612179565b805160208083015191908110156126aa576000198160200360031b1b821691505b50919050565b6000826126cd57634e487b7160e01b600052601260045260246000fd5b500690565b6040815260006126e560408301846121a5565b8281036020840152600781527f616464726573730000000000000000000000000000000000000000000000000060208201526040810191505092915050565b60408152600061273760408301846121a5565b8281036020840152600681527f627974657334000000000000000000000000000000000000000000000000000060208201526040810191505092915050565b60408152600061278960408301846121a5565b8281036020840152600781527f627974657333320000000000000000000000000000000000000000000000000060208201526040810191505092915050565b8035602083101561021357600019602084900360031b1b1692915050565b6bffffffffffffffffffffffff19813581811691601485101561248f5760149490940360031b84901b1690921692915050565b6001600160a01b038316815260406020820152600061028660408301846121a5565b634e487b7160e01b600052602160045260246000fd5b600082198211156128645761286461240c565b500190565b60008160001904831182151516156128835761288361240c565b500290565b6000602080838503121561289b57600080fd5b825167ffffffffffffffff8111156128b257600080fd5b8301601f810185136128c357600080fd5b80516128d1612272826124ad565b81815260059190911b820183019083810190878311156128f057600080fd5b928401925b828410156103c4578351825292840192908401906128f5565b6000602080838503121561292157600080fd5b825167ffffffffffffffff81111561293857600080fd5b8301601f8101851361294957600080fd5b8051612957612272826124ad565b81815260059190911b8201830190838101908783111561297657600080fd5b928401925b828410156103c457835161298e816122f0565b8252928401929084019061297b565b600060208083850312156129b057600080fd5b825167ffffffffffffffff8111156129c757600080fd5b8301601f810185136129d857600080fd5b80516129e6612272826124ad565b81815260059190911b82018301908381019087831115612a0557600080fd5b928401925b828410156103c4578351612a1d816120c2565b82529284019290840190612a0a565b600082821015612a3e57612a3e61240c565b500390565b600081612a5257612a5261240c565b506000190190565b60008251612a6c818460208701612179565b9190910192915050565b600060208284031215612a8857600080fd5b505191905056fe4c5350363a20556e6b6e6f776e204572726f72206f636375726564207768656e2063616c6c696e6720746865206c696e6b65642074617267657420636f6e7472616374a2646970667358221220262d3e761142ace688134800c39a0185a53522f2a44923be1292641d884a5a3364736f6c634300080a0033",
  "linkReferences": {},
  "deployedLinkReferences": {}
}