{
  "_format": "hh-sol-artifact-1",
  "contractName": "LSP7CompatibleERC20MintableInit",
  "sourceName": "contracts/LSP7DigitalAsset/presets/LSP7CompatibleERC20MintableInit.sol",
  "abi": [
    {
      "inputs": [],
      "stateMutability": "nonpayable",
      "type": "constructor"
    },
    {
      "inputs": [],
      "name": "LSP4TokenNameNotEditable",
      "type": "error"
    },
    {
      "inputs": [],
      "name": "LSP4TokenSymbolNotEditable",
      "type": "error"
    },
    {
      "inputs": [
        {
          "internalType": "address",
          "name": "tokenOwner",
          "type": "address"
        },
        {
          "internalType": "uint256",
          "name": "authorizedAmount",
          "type": "uint256"
        },
        {
          "internalType": "address",
          "name": "operator",
          "type": "address"
        },
        {
          "internalType": "uint256",
          "name": "amount",
          "type": "uint256"
        }
      ],
      "name": "LSP7AmountExceedsAuthorizedAmount",
      "type": "error"
    },
    {
      "inputs": [
        {
          "internalType": "uint256",
          "name": "balance",
          "type": "uint256"
        },
        {
          "internalType": "address",
          "name": "tokenOwner",
          "type": "address"
        },
        {
          "internalType": "uint256",
          "name": "amount",
          "type": "uint256"
        }
      ],
      "name": "LSP7AmountExceedsBalance",
      "type": "error"
    },
    {
      "inputs": [],
      "name": "LSP7CannotSendToSelf",
      "type": "error"
    },
    {
      "inputs": [],
      "name": "LSP7CannotSendWithAddressZero",
      "type": "error"
    },
    {
      "inputs": [],
      "name": "LSP7CannotUseAddressZeroAsOperator",
      "type": "error"
    },
    {
      "inputs": [],
      "name": "LSP7InvalidTransferBatch",
      "type": "error"
    },
    {
      "inputs": [
        {
          "internalType": "address",
          "name": "tokenReceiver",
          "type": "address"
        }
      ],
      "name": "LSP7NotifyTokenReceiverContractMissingLSP1Interface",
      "type": "error"
    },
    {
      "inputs": [
        {
          "internalType": "address",
          "name": "tokenReceiver",
          "type": "address"
        }
      ],
      "name": "LSP7NotifyTokenReceiverIsEOA",
      "type": "error"
    },
    {
      "anonymous": false,
      "inputs": [
        {
          "indexed": true,
          "internalType": "address",
          "name": "owner",
          "type": "address"
        },
        {
          "indexed": true,
          "internalType": "address",
          "name": "spender",
          "type": "address"
        },
        {
          "indexed": false,
          "internalType": "uint256",
          "name": "value",
          "type": "uint256"
        }
      ],
      "name": "Approval",
      "type": "event"
    },
    {
      "anonymous": false,
      "inputs": [
        {
          "indexed": true,
          "internalType": "address",
          "name": "operator",
          "type": "address"
        },
        {
          "indexed": true,
          "internalType": "address",
          "name": "tokenOwner",
          "type": "address"
        },
        {
          "indexed": true,
          "internalType": "uint256",
          "name": "amount",
          "type": "uint256"
        }
      ],
      "name": "AuthorizedOperator",
      "type": "event"
    },
    {
      "anonymous": false,
      "inputs": [
        {
          "indexed": true,
          "internalType": "bytes32",
          "name": "dataKey",
          "type": "bytes32"
        },
        {
          "indexed": false,
          "internalType": "bytes",
          "name": "dataValue",
          "type": "bytes"
        }
      ],
      "name": "DataChanged",
      "type": "event"
    },
    {
      "anonymous": false,
      "inputs": [
        {
          "indexed": false,
          "internalType": "uint8",
          "name": "version",
          "type": "uint8"
        }
      ],
      "name": "Initialized",
      "type": "event"
    },
    {
      "anonymous": false,
      "inputs": [
        {
          "indexed": true,
          "internalType": "address",
          "name": "previousOwner",
          "type": "address"
        },
        {
          "indexed": true,
          "internalType": "address",
          "name": "newOwner",
          "type": "address"
        }
      ],
      "name": "OwnershipTransferred",
      "type": "event"
    },
    {
      "anonymous": false,
      "inputs": [
        {
          "indexed": true,
          "internalType": "address",
          "name": "operator",
          "type": "address"
        },
        {
          "indexed": true,
          "internalType": "address",
          "name": "tokenOwner",
          "type": "address"
        }
      ],
      "name": "RevokedOperator",
      "type": "event"
    },
    {
      "anonymous": false,
      "inputs": [
        {
          "indexed": true,
          "internalType": "address",
          "name": "from",
          "type": "address"
        },
        {
          "indexed": true,
          "internalType": "address",
          "name": "to",
          "type": "address"
        },
        {
          "indexed": false,
          "internalType": "uint256",
          "name": "value",
          "type": "uint256"
        }
      ],
      "name": "Transfer",
      "type": "event"
    },
    {
      "anonymous": false,
      "inputs": [
        {
          "indexed": true,
          "internalType": "address",
          "name": "operator",
          "type": "address"
        },
        {
          "indexed": true,
          "internalType": "address",
          "name": "from",
          "type": "address"
        },
        {
          "indexed": true,
          "internalType": "address",
          "name": "to",
          "type": "address"
        },
        {
          "indexed": false,
          "internalType": "uint256",
          "name": "amount",
          "type": "uint256"
        },
        {
          "indexed": false,
          "internalType": "bool",
          "name": "force",
          "type": "bool"
        },
        {
          "indexed": false,
          "internalType": "bytes",
          "name": "data",
          "type": "bytes"
        }
      ],
      "name": "Transfer",
      "type": "event"
    },
    {
      "inputs": [
        {
          "internalType": "address",
          "name": "tokenOwner",
          "type": "address"
        },
        {
          "internalType": "address",
          "name": "operator",
          "type": "address"
        }
      ],
      "name": "allowance",
      "outputs": [
        {
          "internalType": "uint256",
          "name": "",
          "type": "uint256"
        }
      ],
      "stateMutability": "view",
      "type": "function"
    },
    {
      "inputs": [
        {
          "internalType": "address",
          "name": "operator",
          "type": "address"
        },
        {
          "internalType": "uint256",
          "name": "amount",
          "type": "uint256"
        }
      ],
      "name": "approve",
      "outputs": [
        {
          "internalType": "bool",
          "name": "",
          "type": "bool"
        }
      ],
      "stateMutability": "nonpayable",
      "type": "function"
    },
    {
      "inputs": [
        {
          "internalType": "address",
          "name": "operator",
          "type": "address"
        },
        {
          "internalType": "uint256",
          "name": "amount",
          "type": "uint256"
        }
      ],
      "name": "authorizeOperator",
      "outputs": [],
      "stateMutability": "nonpayable",
      "type": "function"
    },
    {
      "inputs": [
        {
          "internalType": "address",
          "name": "operator",
          "type": "address"
        },
        {
          "internalType": "address",
          "name": "tokenOwner",
          "type": "address"
        }
      ],
      "name": "authorizedAmountFor",
      "outputs": [
        {
          "internalType": "uint256",
          "name": "",
          "type": "uint256"
        }
      ],
      "stateMutability": "view",
      "type": "function"
    },
    {
      "inputs": [
        {
          "internalType": "address",
          "name": "tokenOwner",
          "type": "address"
        }
      ],
      "name": "balanceOf",
      "outputs": [
        {
          "internalType": "uint256",
          "name": "",
          "type": "uint256"
        }
      ],
      "stateMutability": "view",
      "type": "function"
    },
    {
      "inputs": [],
      "name": "decimals",
      "outputs": [
        {
          "internalType": "uint8",
          "name": "",
          "type": "uint8"
        }
      ],
      "stateMutability": "view",
      "type": "function"
    },
    {
      "inputs": [
        {
          "internalType": "bytes32[]",
          "name": "dataKeys",
          "type": "bytes32[]"
        }
      ],
      "name": "getData",
      "outputs": [
        {
          "internalType": "bytes[]",
          "name": "dataValues",
          "type": "bytes[]"
        }
      ],
      "stateMutability": "view",
      "type": "function"
    },
    {
      "inputs": [
        {
          "internalType": "bytes32",
          "name": "dataKey",
          "type": "bytes32"
        }
      ],
      "name": "getData",
      "outputs": [
        {
          "internalType": "bytes",
          "name": "dataValue",
          "type": "bytes"
        }
      ],
      "stateMutability": "view",
      "type": "function"
    },
    {
      "inputs": [
        {
          "internalType": "string",
          "name": "name_",
          "type": "string"
        },
        {
          "internalType": "string",
          "name": "symbol_",
          "type": "string"
        },
        {
          "internalType": "address",
          "name": "newOwner_",
          "type": "address"
        }
      ],
      "name": "initialize",
      "outputs": [],
      "stateMutability": "nonpayable",
      "type": "function"
    },
    {
      "inputs": [
        {
          "internalType": "address",
          "name": "to",
          "type": "address"
        },
        {
          "internalType": "uint256",
          "name": "amount",
          "type": "uint256"
        },
        {
          "internalType": "bool",
          "name": "force",
          "type": "bool"
        },
        {
          "internalType": "bytes",
          "name": "data",
          "type": "bytes"
        }
      ],
      "name": "mint",
      "outputs": [],
      "stateMutability": "nonpayable",
      "type": "function"
    },
    {
      "inputs": [],
      "name": "name",
      "outputs": [
        {
          "internalType": "string",
          "name": "",
          "type": "string"
        }
      ],
      "stateMutability": "view",
      "type": "function"
    },
    {
      "inputs": [],
      "name": "owner",
      "outputs": [
        {
          "internalType": "address",
          "name": "",
          "type": "address"
        }
      ],
      "stateMutability": "view",
      "type": "function"
    },
    {
      "inputs": [],
      "name": "renounceOwnership",
      "outputs": [],
      "stateMutability": "nonpayable",
      "type": "function"
    },
    {
      "inputs": [
        {
          "internalType": "address",
          "name": "operator",
          "type": "address"
        }
      ],
      "name": "revokeOperator",
      "outputs": [],
      "stateMutability": "nonpayable",
      "type": "function"
    },
    {
      "inputs": [
        {
          "internalType": "bytes32[]",
          "name": "dataKeys",
          "type": "bytes32[]"
        },
        {
          "internalType": "bytes[]",
          "name": "dataValues",
          "type": "bytes[]"
        }
      ],
      "name": "setData",
      "outputs": [],
      "stateMutability": "nonpayable",
      "type": "function"
    },
    {
      "inputs": [
        {
          "internalType": "bytes32",
          "name": "dataKey",
          "type": "bytes32"
        },
        {
          "internalType": "bytes",
          "name": "dataValue",
          "type": "bytes"
        }
      ],
      "name": "setData",
      "outputs": [],
      "stateMutability": "nonpayable",
      "type": "function"
    },
    {
      "inputs": [
        {
          "internalType": "bytes4",
          "name": "interfaceId",
          "type": "bytes4"
        }
      ],
      "name": "supportsInterface",
      "outputs": [
        {
          "internalType": "bool",
          "name": "",
          "type": "bool"
        }
      ],
      "stateMutability": "view",
      "type": "function"
    },
    {
      "inputs": [],
      "name": "symbol",
      "outputs": [
        {
          "internalType": "string",
          "name": "",
          "type": "string"
        }
      ],
      "stateMutability": "view",
      "type": "function"
    },
    {
      "inputs": [],
      "name": "totalSupply",
      "outputs": [
        {
          "internalType": "uint256",
          "name": "",
          "type": "uint256"
        }
      ],
      "stateMutability": "view",
      "type": "function"
    },
    {
      "inputs": [
        {
          "internalType": "address",
          "name": "from",
          "type": "address"
        },
        {
          "internalType": "address",
          "name": "to",
          "type": "address"
        },
        {
          "internalType": "uint256",
          "name": "amount",
          "type": "uint256"
        },
        {
          "internalType": "bool",
          "name": "force",
          "type": "bool"
        },
        {
          "internalType": "bytes",
          "name": "data",
          "type": "bytes"
        }
      ],
      "name": "transfer",
      "outputs": [],
      "stateMutability": "nonpayable",
      "type": "function"
    },
    {
      "inputs": [
        {
          "internalType": "address",
          "name": "to",
          "type": "address"
        },
        {
          "internalType": "uint256",
          "name": "amount",
          "type": "uint256"
        }
      ],
      "name": "transfer",
      "outputs": [
        {
          "internalType": "bool",
          "name": "",
          "type": "bool"
        }
      ],
      "stateMutability": "nonpayable",
      "type": "function"
    },
    {
      "inputs": [
        {
          "internalType": "address[]",
          "name": "from",
          "type": "address[]"
        },
        {
          "internalType": "address[]",
          "name": "to",
          "type": "address[]"
        },
        {
          "internalType": "uint256[]",
          "name": "amount",
          "type": "uint256[]"
        },
        {
          "internalType": "bool",
          "name": "force",
          "type": "bool"
        },
        {
          "internalType": "bytes[]",
          "name": "data",
          "type": "bytes[]"
        }
      ],
      "name": "transferBatch",
      "outputs": [],
      "stateMutability": "nonpayable",
      "type": "function"
    },
    {
      "inputs": [
        {
          "internalType": "address",
          "name": "from",
          "type": "address"
        },
        {
          "internalType": "address",
          "name": "to",
          "type": "address"
        },
        {
          "internalType": "uint256",
          "name": "amount",
          "type": "uint256"
        }
      ],
      "name": "transferFrom",
      "outputs": [
        {
          "internalType": "bool",
          "name": "",
          "type": "bool"
        }
      ],
      "stateMutability": "nonpayable",
      "type": "function"
    },
    {
      "inputs": [
        {
          "internalType": "address",
          "name": "newOwner",
          "type": "address"
        }
      ],
      "name": "transferOwnership",
      "outputs": [],
      "stateMutability": "nonpayable",
      "type": "function"
    }
  ],
  "bytecode": "0x60806040523480156200001157600080fd5b506200001c62000022565b620000e4565b600054610100900460ff16156200008f5760405162461bcd60e51b815260206004820152602760248201527f496e697469616c697a61626c653a20636f6e747261637420697320696e697469604482015266616c697a696e6760c81b606482015260840160405180910390fd5b60005460ff9081161015620000e2576000805460ff191660ff9081179091556040519081527f7f26b83ff96e1f2b6a682f133852f6798a09c465da95921460cefb38474024989060200160405180910390a15b565b6124ed80620000f46000396000f3fe608060405234801561001057600080fd5b50600436106101985760003560e01c806370a08231116100e357806395d89b411161008c578063dd62ed3e11610066578063dd62ed3e1461036f578063f2fde38b14610382578063fad8b32a1461039557600080fd5b806395d89b4114610341578063a8a34e0a14610349578063a9059cbb1461035c57600080fd5b8063760d9bba116100bd578063760d9bba146102f15780637f23690c146103045780638da5cb5b1461031757600080fd5b806370a08231146102ad578063715018a6146102d65780637580d920146102de57600080fd5b806323b872dd116101455780634e3e6e9c1161011f5780634e3e6e9c1461026757806354f6127f1461028757806365aeaa951461029a57600080fd5b806323b872dd14610227578063313ce5671461023a57806347980aa31461025457600080fd5b8063095ea7b311610176578063095ea7b3146101ef57806314a6e2931461020257806318160ddd1461021557600080fd5b806301ffc9a71461019d57806306fdde03146101c5578063077f224a146101da575b600080fd5b6101b06101ab366004611b9b565b6103a8565b60405190151581526020015b60405180910390f35b6101cd6103ec565b6040516101bc9190611c1d565b6101ed6101e8366004611d11565b610419565b005b6101b06101fd366004611d85565b610544565b6101ed610210366004611eb9565b610559565b6003545b6040519081526020016101bc565b6101b0610235366004611f1d565b61062d565b610242610656565b60405160ff90911681526020016101bc565b6101ed610262366004611d85565b61066f565b61027a610275366004611f59565b61067d565b6040516101bc9190611f96565b6101cd610295366004611ff8565b610731565b6102196102a8366004612011565b61073c565b6102196102bb366004612044565b6001600160a01b031660009081526004602052604090205490565b6101ed6107a3565b6101ed6102ec36600461206f565b6107b7565b6101ed6102ff3660046120d7565b6107cb565b6101ed610312366004612150565b6108d4565b6000546201000090046001600160a01b03166040516001600160a01b0390911681526020016101bc565b6101cd6108e6565b6101ed6103573660046121ef565b610913565b6101b061036a366004611d85565b6109ef565b61021961037d366004612011565b610a0e565b6101ed610390366004612044565b610a21565b6101ed6103a3366004612044565b610ab1565b60006001600160e01b031982167f5fcaac270000000000000000000000000000000000000000000000000000000014806103e657506103e682610abd565b92915050565b606060006103e67fdeba1e292f8ba88238e10ab3c7f88bd4be4fac56cad5194b6ecceaf653468af1610b0b565b600054610100900460ff16158080156104395750600054600160ff909116105b806104535750303b158015610453575060005460ff166001145b6104ca5760405162461bcd60e51b815260206004820152602e60248201527f496e697469616c697a61626c653a20636f6e747261637420697320616c72656160448201527f647920696e697469616c697a656400000000000000000000000000000000000060648201526084015b60405180910390fd5b6000805460ff1916600117905580156104ed576000805461ff0019166101001790555b6104f8848484610bad565b801561053e576000805461ff0019169055604051600181527f7f26b83ff96e1f2b6a682f133852f6798a09c465da95921460cefb38474024989060200160405180910390a15b50505050565b6000610550838361066f565b50600192915050565b610561610c23565b80518251146105d85760405162461bcd60e51b815260206004820152602660248201527f4b657973206c656e677468206e6f7420657175616c20746f2076616c7565732060448201527f6c656e677468000000000000000000000000000000000000000000000000000060648201526084016104c1565b60005b8251811015610628576106208382815181106105f9576105f96122f4565b6020026020010151838381518110610613576106136122f4565b6020026020010151610c84565b6001016105db565b505050565b600061064c8484846001604051806020016040528060008152506107cb565b5060019392505050565b60025460009060ff166106695750601290565b50600090565b6106798282610c8e565b5050565b6060815167ffffffffffffffff81111561069957610699611c30565b6040519080825280602002602001820160405280156106cc57816020015b60608152602001906001900390816106b75790505b50905060005b825181101561072b576106fd8382815181106106f0576106f06122f4565b6020026020010151610b0b565b82828151811061070f5761070f6122f4565b60200260200101819052506107248160010190565b90506106d2565b50919050565b60606103e682610b0b565b6000826001600160a01b0316826001600160a01b0316141561077757506001600160a01b0381166000908152600460205260409020546103e6565b506001600160a01b038082166000908152600560209081526040808320938616835292905220546103e6565b6107ab610c23565b6107b56000610cdc565b565b6107bf610c23565b61053e84848484610d68565b836001600160a01b0316856001600160a01b03161415610817576040517fb9afb00000000000000000000000000000000000000000000000000000000000815260040160405180910390fd5b336001600160a01b03861681146108bf576001600160a01b03808716600090815260056020908152604080832093851683529290522054808511156108a9576040517ff3a6b6910000000000000000000000000000000000000000000000000000000081526001600160a01b0380891660048301526024820183905283166044820152606481018690526084016104c1565b6108bd87836108b88885612320565b610d74565b505b6108cc8686868686610e8c565b505050505050565b6108dc610c23565b6106798282610c84565b606060006103e67f2f0a68ab07768e01943a599e73362a0e17a63a72e94dd2e384d2c1d4db932756610b0b565b8351855114158061092657508251855114155b8061093357508051855114155b1561096a576040517f263eee8d00000000000000000000000000000000000000000000000000000000815260040160405180910390fd5b60005b85518110156108cc576109e786828151811061098b5761098b6122f4565b60200260200101518683815181106109a5576109a56122f4565b60200260200101518684815181106109bf576109bf6122f4565b6020026020010151868686815181106109da576109da6122f4565b60200260200101516107cb565b60010161096d565b60006105503384846001604051806020016040528060008152506107cb565b6000610a1a828461073c565b9392505050565b610a29610c23565b6001600160a01b038116610aa55760405162461bcd60e51b815260206004820152602660248201527f4f776e61626c653a206e6577206f776e657220697320746865207a65726f206160448201527f646472657373000000000000000000000000000000000000000000000000000060648201526084016104c1565b610aae81610cdc565b50565b610aae33826000610d74565b60006001600160e01b031982167f714df77c0000000000000000000000000000000000000000000000000000000014806103e657506301ffc9a760e01b6001600160e01b03198316146103e6565b6000818152600160205260409020805460609190610b2890612337565b80601f0160208091040260200160405190810160405280929190818152602001828054610b5490612337565b8015610ba15780601f10610b7657610100808354040283529160200191610ba1565b820191906000526020600020905b815481529060010190602001808311610b8457829003601f168201915b50505050509050919050565b600054610100900460ff16610c185760405162461bcd60e51b815260206004820152602b60248201527f496e697469616c697a61626c653a20636f6e7472616374206973206e6f74206960448201526a6e697469616c697a696e6760a81b60648201526084016104c1565b610628838383610ea0565b6000546001600160a01b03620100009091041633146107b55760405162461bcd60e51b815260206004820181905260248201527f4f776e61626c653a2063616c6c6572206973206e6f7420746865206f776e657260448201526064016104c1565b6106798282610f18565b610c988282611047565b6040518181526001600160a01b0383169033907f8c5be1e5ebec7d5bd14f71427d1e84f3dd0314c0f7b2291e5b200ac8c7c3b9259060200160405180910390a35050565b6000546001600160a01b03828116620100009092041614610aae57600080546001600160a01b03838116620100008181027fffffffffffffffffffff0000000000000000000000000000000000000000ffff851617855560405193049190911692909183917f8be0079c531659141344cd1fd0a4f28419497f9722a3daafe3b4186f6b6457e091a35050565b61053e84848484611052565b6001600160a01b038216610db4576040517f6355e76600000000000000000000000000000000000000000000000000000000815260040160405180910390fd5b826001600160a01b0316826001600160a01b03161415610dd357505050565b6001600160a01b0380841660009081526005602090815260408083209386168352929052208190558015610e475780836001600160a01b0316836001600160a01b03167fd66aff874162a96578e919097b6f6d153dfd89a5cec41bb331fdb0c4aec16e2c60405160405180910390a4505050565b826001600160a01b0316826001600160a01b03167f50546e66e5f44d728365dc3908c63bc5cfeeab470722c1677e3073a6ac294aa160405160405180910390a3505050565b610e9985858585856110a5565b5050505050565b600054610100900460ff16610f0b5760405162461bcd60e51b815260206004820152602b60248201527f496e697469616c697a61626c653a20636f6e7472616374206973206e6f74206960448201526a6e697469616c697a696e6760a81b60648201526084016104c1565b6106288383836000611106565b7fdeba1e292f8ba88238e10ab3c7f88bd4be4fac56cad5194b6ecceaf653468af1821415610f72576040517f85c169bd00000000000000000000000000000000000000000000000000000000815260040160405180910390fd5b7f2f0a68ab07768e01943a599e73362a0e17a63a72e94dd2e384d2c1d4db932756821415610fcc576040517f76755b3800000000000000000000000000000000000000000000000000000000815260040160405180910390fd5b60008281526001602090815260409091208251610feb92840190611b02565b50817fece574603820d07bc9b91f2a932baadf4628aabcb8afba49776529c14a6104b26101008351111561102c5761102783600061010061118a565b61102e565b825b60405161103b9190611c1d565b60405180910390a25050565b610679338383610d74565b61105e848484846112b2565b6040518381526001600160a01b038516906000907fddf252ad1be2c89b69c2b068fc378daa952ba7f163c4a11628f55a4df523b3ef9060200160405180910390a350505050565b6110b2858585858561137d565b836001600160a01b0316856001600160a01b03167fddf252ad1be2c89b69c2b068fc378daa952ba7f163c4a11628f55a4df523b3ef856040516110f791815260200190565b60405180910390a35050505050565b600054610100900460ff166111715760405162461bcd60e51b815260206004820152602b60248201527f496e697469616c697a61626c653a20636f6e7472616374206973206e6f74206960448201526a6e697469616c697a696e6760a81b60648201526084016104c1565b6002805460ff191682151517905561053e848484611507565b60608161119881601f61236c565b10156111e65760405162461bcd60e51b815260206004820152600e60248201527f736c6963655f6f766572666c6f7700000000000000000000000000000000000060448201526064016104c1565b6111f0828461236c565b845110156112405760405162461bcd60e51b815260206004820152601160248201527f736c6963655f6f75744f66426f756e647300000000000000000000000000000060448201526064016104c1565b60608215801561125f57604051915060008252602082016040526112a9565b6040519150601f8416801560200281840101858101878315602002848b0101015b81831015611298578051835260209283019201611280565b5050858452601f01601f1916604052505b50949350505050565b6001600160a01b0384166112d957604051630d2d5ec360e41b815260040160405180910390fd5b336112e660008686611631565b6001600160a01b0385166000908152600460205260408120805486929061130e90849061236c565b92505081905550846001600160a01b031660006001600160a01b0316826001600160a01b03167f3997e418d2cef0b3b0e907b1e39605c3f7d32dbd061e82ea5b4a770d46a160a687878760405161136793929190612384565b60405180910390a4610e99600086868686611681565b6001600160a01b038516158061139a57506001600160a01b038416155b156113b857604051630d2d5ec360e41b815260040160405180910390fd5b6001600160a01b03851660009081526004602052604090205480841115611424576040517f08d47949000000000000000000000000000000000000000000000000000000008152600481018290526001600160a01b0387166024820152604481018590526064016104c1565b33611430878787611631565b6001600160a01b03871660009081526004602052604081208054879290611458908490612320565b90915550506001600160a01b0386166000908152600460205260408120805487929061148590849061236c565b92505081905550856001600160a01b0316876001600160a01b0316826001600160a01b03167f3997e418d2cef0b3b0e907b1e39605c3f7d32dbd061e82ea5b4a770d46a160a68888886040516114dd93929190612384565b60405180910390a46114f1878787866117eb565b6114fe8787878787611681565b50505050505050565b600054610100900460ff166115725760405162461bcd60e51b815260206004820152602b60248201527f496e697469616c697a61626c653a20636f6e7472616374206973206e6f74206960448201526a6e697469616c697a696e6760a81b60648201526084016104c1565b61157b816118bf565b6115dd7feafec4d89fa9619884b60000a4d96624a38f7ac2d8d9a604ecf07c12c77e480c60001b6040518060400160405280600481526020017fa4d96624000000000000000000000000000000000000000000000000000000008152506119b0565b6116077fdeba1e292f8ba88238e10ab3c7f88bd4be4fac56cad5194b6ecceaf653468af1846119b0565b6106287f2f0a68ab07768e01943a599e73362a0e17a63a72e94dd2e384d2c1d4db932756836119b0565b6001600160a01b038316611657578060036000828254611651919061236c565b90915550505b6001600160a01b0382166106285780600360008282546116779190612320565b9091555050505050565b61169284631aed5a8560e21b611a00565b1561175c576000858585846040516020016116b094939291906123ae565b60408051601f1981840301815290829052631aed5a8560e21b825291506001600160a01b03861690636bb56a149061170e907fdbe2c314e1aee2970c72666f2ebe8933a8575263ea71e5ff6a9178e95d47a26f9085906004016123fb565b6000604051808303816000875af115801561172d573d6000803e3d6000fd5b505050506040513d6000823e601f3d908101601f191682016040526117559190810190612414565b5050610e99565b81610e99576001600160a01b0384163b156117ae576040517fa608fbb60000000000000000000000000000000000000000000000000000000081526001600160a01b03851660048201526024016104c1565b6040517f26c247f40000000000000000000000000000000000000000000000000000000081526001600160a01b03851660048201526024016104c1565b6117fc84631aed5a8560e21b611a00565b1561053e5760008484848460405160200161181a94939291906123ae565b60408051601f1981840301815290829052631aed5a8560e21b825291506001600160a01b03861690636bb56a1490611878907f40b8bec57d7b5ff0dbd9e9acd0a47dfeb0101e1a203766f5ccab00445fbf39e99085906004016123fb565b6000604051808303816000875af1158015611897573d6000803e3d6000fd5b505050506040513d6000823e601f3d908101601f191682016040526108cc9190810190612414565b600054610100900460ff1661192a5760405162461bcd60e51b815260206004820152602b60248201527f496e697469616c697a61626c653a20636f6e7472616374206973206e6f74206960448201526a6e697469616c697a696e6760a81b60648201526084016104c1565b806001600160a01b0381166119a75760405162461bcd60e51b815260206004820152603260248201527f4f776e61626c653a20636f6e7472616374206f776e65722063616e6e6f74206260448201527f6520746865207a65726f2061646472657373000000000000000000000000000060648201526084016104c1565b61067982610cdc565b600082815260016020908152604090912082516119cf92840190611b02565b50817fece574603820d07bc9b91f2a932baadf4628aabcb8afba49776529c14a6104b28260405161103b9190611c1d565b604080516001600160e01b0319831660248083019190915282518083039091018152604490910182526020810180517bffffffffffffffffffffffffffffffffffffffffffffffffffffffff166301ffc9a760e01b179052905160009190829081906001600160a01b0387169061753090611a7c908690612482565b6000604051808303818686fa925050503d8060008114611ab8576040519150601f19603f3d011682016040523d82523d6000602084013e611abd565b606091505b5091509150602081511015611ad857600093505050506103e6565b818015611af85750600081806020019051810190611af6919061249e565b115b9695505050505050565b828054611b0e90612337565b90600052602060002090601f016020900481019282611b305760008555611b76565b82601f10611b4957805160ff1916838001178555611b76565b82800160010185558215611b76579182015b82811115611b76578251825591602001919060010190611b5b565b50611b82929150611b86565b5090565b5b80821115611b825760008155600101611b87565b600060208284031215611bad57600080fd5b81356001600160e01b031981168114610a1a57600080fd5b60005b83811015611be0578181015183820152602001611bc8565b8381111561053e5750506000910152565b60008151808452611c09816020860160208601611bc5565b601f01601f19169290920160200192915050565b602081526000610a1a6020830184611bf1565b634e487b7160e01b600052604160045260246000fd5b604051601f8201601f1916810167ffffffffffffffff81118282101715611c6f57611c6f611c30565b604052919050565b600067ffffffffffffffff821115611c9157611c91611c30565b50601f01601f191660200190565b600082601f830112611cb057600080fd5b8135611cc3611cbe82611c77565b611c46565b818152846020838601011115611cd857600080fd5b816020850160208301376000918101602001919091529392505050565b80356001600160a01b0381168114611d0c57600080fd5b919050565b600080600060608486031215611d2657600080fd5b833567ffffffffffffffff80821115611d3e57600080fd5b611d4a87838801611c9f565b94506020860135915080821115611d6057600080fd5b50611d6d86828701611c9f565b925050611d7c60408501611cf5565b90509250925092565b60008060408385031215611d9857600080fd5b611da183611cf5565b946020939093013593505050565b600067ffffffffffffffff821115611dc957611dc9611c30565b5060051b60200190565b600082601f830112611de457600080fd5b81356020611df4611cbe83611daf565b82815260059290921b84018101918181019086841115611e1357600080fd5b8286015b84811015611e2e5780358352918301918301611e17565b509695505050505050565b600082601f830112611e4a57600080fd5b81356020611e5a611cbe83611daf565b82815260059290921b84018101918181019086841115611e7957600080fd5b8286015b84811015611e2e57803567ffffffffffffffff811115611e9d5760008081fd5b611eab8986838b0101611c9f565b845250918301918301611e7d565b60008060408385031215611ecc57600080fd5b823567ffffffffffffffff80821115611ee457600080fd5b611ef086838701611dd3565b93506020850135915080821115611f0657600080fd5b50611f1385828601611e39565b9150509250929050565b600080600060608486031215611f3257600080fd5b611f3b84611cf5565b9250611f4960208501611cf5565b9150604084013590509250925092565b600060208284031215611f6b57600080fd5b813567ffffffffffffffff811115611f8257600080fd5b611f8e84828501611dd3565b949350505050565b6000602080830181845280855180835260408601915060408160051b870101925083870160005b82811015611feb57603f19888603018452611fd9858351611bf1565b94509285019290850190600101611fbd565b5092979650505050505050565b60006020828403121561200a57600080fd5b5035919050565b6000806040838503121561202457600080fd5b61202d83611cf5565b915061203b60208401611cf5565b90509250929050565b60006020828403121561205657600080fd5b610a1a82611cf5565b80358015158114611d0c57600080fd5b6000806000806080858703121561208557600080fd5b61208e85611cf5565b9350602085013592506120a36040860161205f565b9150606085013567ffffffffffffffff8111156120bf57600080fd5b6120cb87828801611c9f565b91505092959194509250565b600080600080600060a086880312156120ef57600080fd5b6120f886611cf5565b945061210660208701611cf5565b93506040860135925061211b6060870161205f565b9150608086013567ffffffffffffffff81111561213757600080fd5b61214388828901611c9f565b9150509295509295909350565b6000806040838503121561216357600080fd5b82359150602083013567ffffffffffffffff81111561218157600080fd5b611f1385828601611c9f565b600082601f83011261219e57600080fd5b813560206121ae611cbe83611daf565b82815260059290921b840181019181810190868411156121cd57600080fd5b8286015b84811015611e2e576121e281611cf5565b83529183019183016121d1565b600080600080600060a0868803121561220757600080fd5b853567ffffffffffffffff8082111561221f57600080fd5b61222b89838a0161218d565b965060209150818801358181111561224257600080fd5b61224e8a828b0161218d565b96505060408801358181111561226357600080fd5b8801601f81018a1361227457600080fd5b8035612282611cbe82611daf565b81815260059190911b8201840190848101908c8311156122a157600080fd5b928501925b828410156122bf578335825292850192908501906122a6565b97506122d1925050506060890161205f565b935060808801359150808211156122e757600080fd5b5061214388828901611e39565b634e487b7160e01b600052603260045260246000fd5b634e487b7160e01b600052601160045260246000fd5b6000828210156123325761233261230a565b500390565b600181811c9082168061234b57607f821691505b6020821081141561072b57634e487b7160e01b600052602260045260246000fd5b6000821982111561237f5761237f61230a565b500190565b83815282151560208201526060604082015260006123a56060830184611bf1565b95945050505050565b60006bffffffffffffffffffffffff19808760601b168352808660601b1660148401525083602883015282516123eb816048850160208701611bc5565b9190910160480195945050505050565b828152604060208201526000611f8e6040830184611bf1565b60006020828403121561242657600080fd5b815167ffffffffffffffff81111561243d57600080fd5b8201601f8101841361244e57600080fd5b805161245c611cbe82611c77565b81815285602083850101111561247157600080fd5b6123a5826020830160208601611bc5565b60008251612494818460208701611bc5565b9190910192915050565b6000602082840312156124b057600080fd5b505191905056fea26469706673582212206e671c630d449bbddd25913944dad61201ae54e108ef7af2ece5f225028f109a64736f6c634300080a0033",
  "linkReferences": {},
  "deployedLinkReferences": {}
}