{
  "_format": "hh-sol-artifact-1",
  "contractName": "LSP7Mintable",
  "sourceName": "contracts/LSP7DigitalAsset/presets/LSP7Mintable.sol",
  "abi": [
    {
      "inputs": [
        {
          "internalType": "string",
          "name": "name_",
          "type": "string"
        },
        {
          "internalType": "string",
          "name": "symbol_",
          "type": "string"
        },
        {
          "internalType": "address",
          "name": "newOwner_",
          "type": "address"
        },
        {
          "internalType": "bool",
          "name": "isNonDivisible_",
          "type": "bool"
        }
      ],
      "stateMutability": "nonpayable",
      "type": "constructor"
    },
    {
      "inputs": [],
      "name": "LSP4TokenNameNotEditable",
      "type": "error"
    },
    {
      "inputs": [],
      "name": "LSP4TokenSymbolNotEditable",
      "type": "error"
    },
    {
      "inputs": [
        {
          "internalType": "address",
          "name": "tokenOwner",
          "type": "address"
        },
        {
          "internalType": "uint256",
          "name": "authorizedAmount",
          "type": "uint256"
        },
        {
          "internalType": "address",
          "name": "operator",
          "type": "address"
        },
        {
          "internalType": "uint256",
          "name": "amount",
          "type": "uint256"
        }
      ],
      "name": "LSP7AmountExceedsAuthorizedAmount",
      "type": "error"
    },
    {
      "inputs": [
        {
          "internalType": "uint256",
          "name": "balance",
          "type": "uint256"
        },
        {
          "internalType": "address",
          "name": "tokenOwner",
          "type": "address"
        },
        {
          "internalType": "uint256",
          "name": "amount",
          "type": "uint256"
        }
      ],
      "name": "LSP7AmountExceedsBalance",
      "type": "error"
    },
    {
      "inputs": [],
      "name": "LSP7CannotSendToSelf",
      "type": "error"
    },
    {
      "inputs": [],
      "name": "LSP7CannotSendWithAddressZero",
      "type": "error"
    },
    {
      "inputs": [],
      "name": "LSP7CannotUseAddressZeroAsOperator",
      "type": "error"
    },
    {
      "inputs": [],
      "name": "LSP7InvalidTransferBatch",
      "type": "error"
    },
    {
      "inputs": [
        {
          "internalType": "address",
          "name": "tokenReceiver",
          "type": "address"
        }
      ],
      "name": "LSP7NotifyTokenReceiverContractMissingLSP1Interface",
      "type": "error"
    },
    {
      "inputs": [
        {
          "internalType": "address",
          "name": "tokenReceiver",
          "type": "address"
        }
      ],
      "name": "LSP7NotifyTokenReceiverIsEOA",
      "type": "error"
    },
    {
      "anonymous": false,
      "inputs": [
        {
          "indexed": true,
          "internalType": "address",
          "name": "operator",
          "type": "address"
        },
        {
          "indexed": true,
          "internalType": "address",
          "name": "tokenOwner",
          "type": "address"
        },
        {
          "indexed": true,
          "internalType": "uint256",
          "name": "amount",
          "type": "uint256"
        }
      ],
      "name": "AuthorizedOperator",
      "type": "event"
    },
    {
      "anonymous": false,
      "inputs": [
        {
          "indexed": true,
          "internalType": "bytes32",
          "name": "dataKey",
          "type": "bytes32"
        },
        {
          "indexed": false,
          "internalType": "bytes",
          "name": "dataValue",
          "type": "bytes"
        }
      ],
      "name": "DataChanged",
      "type": "event"
    },
    {
      "anonymous": false,
      "inputs": [
        {
          "indexed": true,
          "internalType": "address",
          "name": "previousOwner",
          "type": "address"
        },
        {
          "indexed": true,
          "internalType": "address",
          "name": "newOwner",
          "type": "address"
        }
      ],
      "name": "OwnershipTransferred",
      "type": "event"
    },
    {
      "anonymous": false,
      "inputs": [
        {
          "indexed": true,
          "internalType": "address",
          "name": "operator",
          "type": "address"
        },
        {
          "indexed": true,
          "internalType": "address",
          "name": "tokenOwner",
          "type": "address"
        }
      ],
      "name": "RevokedOperator",
      "type": "event"
    },
    {
      "anonymous": false,
      "inputs": [
        {
          "indexed": true,
          "internalType": "address",
          "name": "operator",
          "type": "address"
        },
        {
          "indexed": true,
          "internalType": "address",
          "name": "from",
          "type": "address"
        },
        {
          "indexed": true,
          "internalType": "address",
          "name": "to",
          "type": "address"
        },
        {
          "indexed": false,
          "internalType": "uint256",
          "name": "amount",
          "type": "uint256"
        },
        {
          "indexed": false,
          "internalType": "bool",
          "name": "force",
          "type": "bool"
        },
        {
          "indexed": false,
          "internalType": "bytes",
          "name": "data",
          "type": "bytes"
        }
      ],
      "name": "Transfer",
      "type": "event"
    },
    {
      "inputs": [
        {
          "internalType": "address",
          "name": "operator",
          "type": "address"
        },
        {
          "internalType": "uint256",
          "name": "amount",
          "type": "uint256"
        }
      ],
      "name": "authorizeOperator",
      "outputs": [],
      "stateMutability": "nonpayable",
      "type": "function"
    },
    {
      "inputs": [
        {
          "internalType": "address",
          "name": "operator",
          "type": "address"
        },
        {
          "internalType": "address",
          "name": "tokenOwner",
          "type": "address"
        }
      ],
      "name": "authorizedAmountFor",
      "outputs": [
        {
          "internalType": "uint256",
          "name": "",
          "type": "uint256"
        }
      ],
      "stateMutability": "view",
      "type": "function"
    },
    {
      "inputs": [
        {
          "internalType": "address",
          "name": "tokenOwner",
          "type": "address"
        }
      ],
      "name": "balanceOf",
      "outputs": [
        {
          "internalType": "uint256",
          "name": "",
          "type": "uint256"
        }
      ],
      "stateMutability": "view",
      "type": "function"
    },
    {
      "inputs": [],
      "name": "decimals",
      "outputs": [
        {
          "internalType": "uint8",
          "name": "",
          "type": "uint8"
        }
      ],
      "stateMutability": "view",
      "type": "function"
    },
    {
      "inputs": [
        {
          "internalType": "bytes32[]",
          "name": "dataKeys",
          "type": "bytes32[]"
        }
      ],
      "name": "getData",
      "outputs": [
        {
          "internalType": "bytes[]",
          "name": "dataValues",
          "type": "bytes[]"
        }
      ],
      "stateMutability": "view",
      "type": "function"
    },
    {
      "inputs": [
        {
          "internalType": "bytes32",
          "name": "dataKey",
          "type": "bytes32"
        }
      ],
      "name": "getData",
      "outputs": [
        {
          "internalType": "bytes",
          "name": "dataValue",
          "type": "bytes"
        }
      ],
      "stateMutability": "view",
      "type": "function"
    },
    {
      "inputs": [
        {
          "internalType": "address",
          "name": "to",
          "type": "address"
        },
        {
          "internalType": "uint256",
          "name": "amount",
          "type": "uint256"
        },
        {
          "internalType": "bool",
          "name": "force",
          "type": "bool"
        },
        {
          "internalType": "bytes",
          "name": "data",
          "type": "bytes"
        }
      ],
      "name": "mint",
      "outputs": [],
      "stateMutability": "nonpayable",
      "type": "function"
    },
    {
      "inputs": [],
      "name": "owner",
      "outputs": [
        {
          "internalType": "address",
          "name": "",
          "type": "address"
        }
      ],
      "stateMutability": "view",
      "type": "function"
    },
    {
      "inputs": [],
      "name": "renounceOwnership",
      "outputs": [],
      "stateMutability": "nonpayable",
      "type": "function"
    },
    {
      "inputs": [
        {
          "internalType": "address",
          "name": "operator",
          "type": "address"
        }
      ],
      "name": "revokeOperator",
      "outputs": [],
      "stateMutability": "nonpayable",
      "type": "function"
    },
    {
      "inputs": [
        {
          "internalType": "bytes32[]",
          "name": "dataKeys",
          "type": "bytes32[]"
        },
        {
          "internalType": "bytes[]",
          "name": "dataValues",
          "type": "bytes[]"
        }
      ],
      "name": "setData",
      "outputs": [],
      "stateMutability": "nonpayable",
      "type": "function"
    },
    {
      "inputs": [
        {
          "internalType": "bytes32",
          "name": "dataKey",
          "type": "bytes32"
        },
        {
          "internalType": "bytes",
          "name": "dataValue",
          "type": "bytes"
        }
      ],
      "name": "setData",
      "outputs": [],
      "stateMutability": "nonpayable",
      "type": "function"
    },
    {
      "inputs": [
        {
          "internalType": "bytes4",
          "name": "interfaceId",
          "type": "bytes4"
        }
      ],
      "name": "supportsInterface",
      "outputs": [
        {
          "internalType": "bool",
          "name": "",
          "type": "bool"
        }
      ],
      "stateMutability": "view",
      "type": "function"
    },
    {
      "inputs": [],
      "name": "totalSupply",
      "outputs": [
        {
          "internalType": "uint256",
          "name": "",
          "type": "uint256"
        }
      ],
      "stateMutability": "view",
      "type": "function"
    },
    {
      "inputs": [
        {
          "internalType": "address",
          "name": "from",
          "type": "address"
        },
        {
          "internalType": "address",
          "name": "to",
          "type": "address"
        },
        {
          "internalType": "uint256",
          "name": "amount",
          "type": "uint256"
        },
        {
          "internalType": "bool",
          "name": "force",
          "type": "bool"
        },
        {
          "internalType": "bytes",
          "name": "data",
          "type": "bytes"
        }
      ],
      "name": "transfer",
      "outputs": [],
      "stateMutability": "nonpayable",
      "type": "function"
    },
    {
      "inputs": [
        {
          "internalType": "address[]",
          "name": "from",
          "type": "address[]"
        },
        {
          "internalType": "address[]",
          "name": "to",
          "type": "address[]"
        },
        {
          "internalType": "uint256[]",
          "name": "amount",
          "type": "uint256[]"
        },
        {
          "internalType": "bool",
          "name": "force",
          "type": "bool"
        },
        {
          "internalType": "bytes[]",
          "name": "data",
          "type": "bytes[]"
        }
      ],
      "name": "transferBatch",
      "outputs": [],
      "stateMutability": "nonpayable",
      "type": "function"
    },
    {
      "inputs": [
        {
          "internalType": "address",
          "name": "newOwner",
          "type": "address"
        }
      ],
      "name": "transferOwnership",
      "outputs": [],
      "stateMutability": "nonpayable",
      "type": "function"
    }
  ],
  "bytecode": "0x60806040523480156200001157600080fd5b50604051620021c3380380620021c38339810160408190526200003491620003ff565b8383838383838380806001600160a01b038116620000b35760405162461bcd60e51b815260206004820152603260248201527f4f776e61626c653a20636f6e7472616374206f776e65722063616e6e6f7420626044820152716520746865207a65726f206164647265737360701b606482015260840160405180910390fd5b620000c982620001b860201b620007da1760201c565b5050620001217feafec4d89fa9619884b60000a4d96624a38f7ac2d8d9a604ecf07c12c77e480c60001b604051806040016040528060048152602001632936598960e21b8152506200021f60201b620008571760201c565b6200015b7fdeba1e292f8ba88238e10ab3c7f88bd4be4fac56cad5194b6ecceaf653468af160001b846200021f60201b620008571760201c565b620001957f2f0a68ab07768e01943a599e73362a0e17a63a72e94dd2e384d2c1d4db93275660001b836200021f60201b620008571760201c565b50506002805460ff19169215159290921790915550620005169650505050505050565b6000546001600160a01b038281169116146200021c57600080546001600160a01b038381166001600160a01b0319831681178455604051919092169283917f8be0079c531659141344cd1fd0a4f28419497f9722a3daafe3b4186f6b6457e09190a3505b50565b6000828152600160209081526040909120825162000240928401906200027f565b50817fece574603820d07bc9b91f2a932baadf4628aabcb8afba49776529c14a6104b282604051620002739190620004a4565b60405180910390a25050565b8280546200028d90620004d9565b90600052602060002090601f016020900481019282620002b15760008555620002fc565b82601f10620002cc57805160ff1916838001178555620002fc565b82800160010185558215620002fc579182015b82811115620002fc578251825591602001919060010190620002df565b506200030a9291506200030e565b5090565b5b808211156200030a57600081556001016200030f565b634e487b7160e01b600052604160045260246000fd5b60005b83811015620003585781810151838201526020016200033e565b8381111562000368576000848401525b50505050565b600082601f8301126200038057600080fd5b81516001600160401b03808211156200039d576200039d62000325565b604051601f8301601f19908116603f01168101908282118183101715620003c857620003c862000325565b81604052838152866020858801011115620003e257600080fd5b620003f58460208301602089016200033b565b9695505050505050565b600080600080608085870312156200041657600080fd5b84516001600160401b03808211156200042e57600080fd5b6200043c888389016200036e565b955060208701519150808211156200045357600080fd5b5062000462878288016200036e565b604087015190945090506001600160a01b03811681146200048257600080fd5b606086015190925080151581146200049957600080fd5b939692955090935050565b6020815260008251806020840152620004c58160408501602087016200033b565b601f01601f19169190910160400192915050565b600181811c90821680620004ee57607f821691505b602082108114156200051057634e487b7160e01b600052602260045260246000fd5b50919050565b611c9d80620005266000396000f3fe608060405234801561001057600080fd5b506004361061011b5760003560e01c806370a08231116100b25780637f23690c11610081578063a8a34e0a11610066578063a8a34e0a14610274578063f2fde38b14610287578063fad8b32a1461029a57600080fd5b80637f23690c146102465780638da5cb5b1461025957600080fd5b806370a08231146101ef578063715018a6146102185780637580d92014610220578063760d9bba1461023357600080fd5b806347980aa3116100ee57806347980aa3146101895780634e3e6e9c1461019c57806354f6127f146101bc57806365aeaa95146101dc57600080fd5b806301ffc9a71461012057806314a6e2931461014857806318160ddd1461015d578063313ce5671461016f575b600080fd5b61013361012e3660046113f4565b6102ad565b60405190151581526020015b60405180910390f35b61015b6101563660046115f4565b6102f1565b005b6003545b60405190815260200161013f565b6101776103ca565b60405160ff909116815260200161013f565b61015b610197366004611674565b6103e3565b6101af6101aa36600461169e565b6103f2565b60405161013f9190611733565b6101cf6101ca366004611795565b6104a6565b60405161013f91906117ae565b6101616101ea3660046117c1565b6104b1565b6101616101fd3660046117f4565b6001600160a01b031660009081526004602052604090205490565b61015b610519565b61015b61022e36600461181f565b61052d565b61015b610241366004611887565b610547565b61015b610254366004611900565b610650565b6000546040516001600160a01b03909116815260200161013f565b61015b61028236600461199f565b610662565b61015b6102953660046117f4565b61073e565b61015b6102a83660046117f4565b6107ce565b60006001600160e01b031982167f5fcaac270000000000000000000000000000000000000000000000000000000014806102eb57506102eb826108b3565b92915050565b6102f9610901565b80518251146103755760405162461bcd60e51b815260206004820152602660248201527f4b657973206c656e677468206e6f7420657175616c20746f2076616c7565732060448201527f6c656e677468000000000000000000000000000000000000000000000000000060648201526084015b60405180910390fd5b60005b82518110156103c5576103bd83828151811061039657610396611aa4565b60200260200101518383815181106103b0576103b0611aa4565b602002602001015161096a565b600101610378565b505050565b60025460009060ff166103dd5750601290565b50600090565b6103ee338383610a8d565b5050565b6060815167ffffffffffffffff81111561040e5761040e611425565b60405190808252806020026020018201604052801561044157816020015b606081526020019060019003908161042c5790505b50905060005b82518110156104a05761047283828151811061046557610465611aa4565b6020026020010151610ba5565b82828151811061048457610484611aa4565b60200260200101819052506104998160010190565b9050610447565b50919050565b60606102eb82610ba5565b6000826001600160a01b0316826001600160a01b031614156104ec57506001600160a01b0381166000908152600460205260409020546102eb565b506001600160a01b0380821660009081526005602090815260408083209386168352929052205492915050565b610521610901565b61052b60006107da565b565b610535610901565b61054184848484610c47565b50505050565b836001600160a01b0316856001600160a01b03161415610593576040517fb9afb00000000000000000000000000000000000000000000000000000000000815260040160405180910390fd5b336001600160a01b038616811461063b576001600160a01b0380871660009081526005602090815260408083209385168352929052205480851115610625576040517ff3a6b6910000000000000000000000000000000000000000000000000000000081526001600160a01b03808916600483015260248201839052831660448201526064810186905260840161036c565b61063987836106348885611ad0565b610a8d565b505b6106488686868686610d19565b505050505050565b610658610901565b6103ee828261096a565b8351855114158061067557508251855114155b8061068257508051855114155b156106b9576040517f263eee8d00000000000000000000000000000000000000000000000000000000815260040160405180910390fd5b60005b8551811015610648576107368682815181106106da576106da611aa4565b60200260200101518683815181106106f4576106f4611aa4565b602002602001015186848151811061070e5761070e611aa4565b60200260200101518686868151811061072957610729611aa4565b6020026020010151610547565b6001016106bc565b610746610901565b6001600160a01b0381166107c25760405162461bcd60e51b815260206004820152602660248201527f4f776e61626c653a206e6577206f776e657220697320746865207a65726f206160448201527f6464726573730000000000000000000000000000000000000000000000000000606482015260840161036c565b6107cb816107da565b50565b6107cb33826000610a8d565b6000546001600160a01b038281169116146107cb57600080546001600160a01b038381167fffffffffffffffffffffffff0000000000000000000000000000000000000000831681178455604051919092169283917f8be0079c531659141344cd1fd0a4f28419497f9722a3daafe3b4186f6b6457e09190a35050565b600082815260016020908152604090912082516108769284019061135b565b50817fece574603820d07bc9b91f2a932baadf4628aabcb8afba49776529c14a6104b2826040516108a791906117ae565b60405180910390a25050565b60006001600160e01b031982167f714df77c0000000000000000000000000000000000000000000000000000000014806102eb57506301ffc9a760e01b6001600160e01b03198316146102eb565b336109146000546001600160a01b031690565b6001600160a01b03161461052b5760405162461bcd60e51b815260206004820181905260248201527f4f776e61626c653a2063616c6c6572206973206e6f7420746865206f776e6572604482015260640161036c565b7fdeba1e292f8ba88238e10ab3c7f88bd4be4fac56cad5194b6ecceaf653468af18214156109c4576040517f85c169bd00000000000000000000000000000000000000000000000000000000815260040160405180910390fd5b7f2f0a68ab07768e01943a599e73362a0e17a63a72e94dd2e384d2c1d4db932756821415610a1e576040517f76755b3800000000000000000000000000000000000000000000000000000000815260040160405180910390fd5b60008281526001602090815260409091208251610a3d9284019061135b565b50817fece574603820d07bc9b91f2a932baadf4628aabcb8afba49776529c14a6104b261010083511115610a7e57610a79836000610100610ea3565b610a80565b825b6040516108a791906117ae565b6001600160a01b038216610acd576040517f6355e76600000000000000000000000000000000000000000000000000000000815260040160405180910390fd5b826001600160a01b0316826001600160a01b03161415610aec57505050565b6001600160a01b0380841660009081526005602090815260408083209386168352929052208190558015610b605780836001600160a01b0316836001600160a01b03167fd66aff874162a96578e919097b6f6d153dfd89a5cec41bb331fdb0c4aec16e2c60405160405180910390a4505050565b826001600160a01b0316826001600160a01b03167f50546e66e5f44d728365dc3908c63bc5cfeeab470722c1677e3073a6ac294aa160405160405180910390a3505050565b6000818152600160205260409020805460609190610bc290611ae7565b80601f0160208091040260200160405190810160405280929190818152602001828054610bee90611ae7565b8015610c3b5780601f10610c1057610100808354040283529160200191610c3b565b820191906000526020600020905b815481529060010190602001808311610c1e57829003601f168201915b50505050509050919050565b6001600160a01b038416610c6e57604051630d2d5ec360e41b815260040160405180910390fd5b33610c7b60008686610fcb565b6001600160a01b03851660009081526004602052604081208054869290610ca3908490611b1c565b92505081905550846001600160a01b031660006001600160a01b0316826001600160a01b03167f3997e418d2cef0b3b0e907b1e39605c3f7d32dbd061e82ea5b4a770d46a160a6878787604051610cfc93929190611b34565b60405180910390a4610d1260008686868661101b565b5050505050565b6001600160a01b0385161580610d3657506001600160a01b038416155b15610d5457604051630d2d5ec360e41b815260040160405180910390fd5b6001600160a01b03851660009081526004602052604090205480841115610dc0576040517f08d47949000000000000000000000000000000000000000000000000000000008152600481018290526001600160a01b03871660248201526044810185905260640161036c565b33610dcc878787610fcb565b6001600160a01b03871660009081526004602052604081208054879290610df4908490611ad0565b90915550506001600160a01b03861660009081526004602052604081208054879290610e21908490611b1c565b92505081905550856001600160a01b0316876001600160a01b0316826001600160a01b03167f3997e418d2cef0b3b0e907b1e39605c3f7d32dbd061e82ea5b4a770d46a160a6888888604051610e7993929190611b34565b60405180910390a4610e8d87878786611185565b610e9a878787878761101b565b50505050505050565b606081610eb181601f611b1c565b1015610eff5760405162461bcd60e51b815260206004820152600e60248201527f736c6963655f6f766572666c6f77000000000000000000000000000000000000604482015260640161036c565b610f098284611b1c565b84511015610f595760405162461bcd60e51b815260206004820152601160248201527f736c6963655f6f75744f66426f756e6473000000000000000000000000000000604482015260640161036c565b606082158015610f785760405191506000825260208201604052610fc2565b6040519150601f8416801560200281840101858101878315602002848b0101015b81831015610fb1578051835260209283019201610f99565b5050858452601f01601f1916604052505b50949350505050565b6001600160a01b038316610ff1578060036000828254610feb9190611b1c565b90915550505b6001600160a01b0382166103c55780600360008282546110119190611ad0565b9091555050505050565b61102c84631aed5a8560e21b611259565b156110f65760008585858460405160200161104a9493929190611b5e565b60408051601f1981840301815290829052631aed5a8560e21b825291506001600160a01b03861690636bb56a14906110a8907fdbe2c314e1aee2970c72666f2ebe8933a8575263ea71e5ff6a9178e95d47a26f908590600401611bab565b6000604051808303816000875af11580156110c7573d6000803e3d6000fd5b505050506040513d6000823e601f3d908101601f191682016040526110ef9190810190611bc4565b5050610d12565b81610d12576001600160a01b0384163b15611148576040517fa608fbb60000000000000000000000000000000000000000000000000000000081526001600160a01b038516600482015260240161036c565b6040517f26c247f40000000000000000000000000000000000000000000000000000000081526001600160a01b038516600482015260240161036c565b61119684631aed5a8560e21b611259565b15610541576000848484846040516020016111b49493929190611b5e565b60408051601f1981840301815290829052631aed5a8560e21b825291506001600160a01b03861690636bb56a1490611212907f40b8bec57d7b5ff0dbd9e9acd0a47dfeb0101e1a203766f5ccab00445fbf39e9908590600401611bab565b6000604051808303816000875af1158015611231573d6000803e3d6000fd5b505050506040513d6000823e601f3d908101601f191682016040526106489190810190611bc4565b604080516001600160e01b0319831660248083019190915282518083039091018152604490910182526020810180517bffffffffffffffffffffffffffffffffffffffffffffffffffffffff166301ffc9a760e01b179052905160009190829081906001600160a01b03871690617530906112d5908690611c32565b6000604051808303818686fa925050503d8060008114611311576040519150601f19603f3d011682016040523d82523d6000602084013e611316565b606091505b509150915060208151101561133157600093505050506102eb565b818015611351575060008180602001905181019061134f9190611c4e565b115b9695505050505050565b82805461136790611ae7565b90600052602060002090601f01602090048101928261138957600085556113cf565b82601f106113a257805160ff19168380011785556113cf565b828001600101855582156113cf579182015b828111156113cf5782518255916020019190600101906113b4565b506113db9291506113df565b5090565b5b808211156113db57600081556001016113e0565b60006020828403121561140657600080fd5b81356001600160e01b03198116811461141e57600080fd5b9392505050565b634e487b7160e01b600052604160045260246000fd5b604051601f8201601f1916810167ffffffffffffffff8111828210171561146457611464611425565b604052919050565b600067ffffffffffffffff82111561148657611486611425565b5060051b60200190565b600082601f8301126114a157600080fd5b813560206114b66114b18361146c565b61143b565b82815260059290921b840181019181810190868411156114d557600080fd5b8286015b848110156114f057803583529183019183016114d9565b509695505050505050565b600067ffffffffffffffff82111561151557611515611425565b50601f01601f191660200190565b600082601f83011261153457600080fd5b81356115426114b1826114fb565b81815284602083860101111561155757600080fd5b816020850160208301376000918101602001919091529392505050565b600082601f83011261158557600080fd5b813560206115956114b18361146c565b82815260059290921b840181019181810190868411156115b457600080fd5b8286015b848110156114f057803567ffffffffffffffff8111156115d85760008081fd5b6115e68986838b0101611523565b8452509183019183016115b8565b6000806040838503121561160757600080fd5b823567ffffffffffffffff8082111561161f57600080fd5b61162b86838701611490565b9350602085013591508082111561164157600080fd5b5061164e85828601611574565b9150509250929050565b80356001600160a01b038116811461166f57600080fd5b919050565b6000806040838503121561168757600080fd5b61169083611658565b946020939093013593505050565b6000602082840312156116b057600080fd5b813567ffffffffffffffff8111156116c757600080fd5b6116d384828501611490565b949350505050565b60005b838110156116f65781810151838201526020016116de565b838111156105415750506000910152565b6000815180845261171f8160208601602086016116db565b601f01601f19169290920160200192915050565b6000602080830181845280855180835260408601915060408160051b870101925083870160005b8281101561178857603f19888603018452611776858351611707565b9450928501929085019060010161175a565b5092979650505050505050565b6000602082840312156117a757600080fd5b5035919050565b60208152600061141e6020830184611707565b600080604083850312156117d457600080fd5b6117dd83611658565b91506117eb60208401611658565b90509250929050565b60006020828403121561180657600080fd5b61141e82611658565b8035801515811461166f57600080fd5b6000806000806080858703121561183557600080fd5b61183e85611658565b9350602085013592506118536040860161180f565b9150606085013567ffffffffffffffff81111561186f57600080fd5b61187b87828801611523565b91505092959194509250565b600080600080600060a0868803121561189f57600080fd5b6118a886611658565b94506118b660208701611658565b9350604086013592506118cb6060870161180f565b9150608086013567ffffffffffffffff8111156118e757600080fd5b6118f388828901611523565b9150509295509295909350565b6000806040838503121561191357600080fd5b82359150602083013567ffffffffffffffff81111561193157600080fd5b61164e85828601611523565b600082601f83011261194e57600080fd5b8135602061195e6114b18361146c565b82815260059290921b8401810191818101908684111561197d57600080fd5b8286015b848110156114f05761199281611658565b8352918301918301611981565b600080600080600060a086880312156119b757600080fd5b853567ffffffffffffffff808211156119cf57600080fd5b6119db89838a0161193d565b96506020915081880135818111156119f257600080fd5b6119fe8a828b0161193d565b965050604088013581811115611a1357600080fd5b8801601f81018a13611a2457600080fd5b8035611a326114b18261146c565b81815260059190911b8201840190848101908c831115611a5157600080fd5b928501925b82841015611a6f57833582529285019290850190611a56565b9750611a81925050506060890161180f565b93506080880135915080821115611a9757600080fd5b506118f388828901611574565b634e487b7160e01b600052603260045260246000fd5b634e487b7160e01b600052601160045260246000fd5b600082821015611ae257611ae2611aba565b500390565b600181811c90821680611afb57607f821691505b602082108114156104a057634e487b7160e01b600052602260045260246000fd5b60008219821115611b2f57611b2f611aba565b500190565b8381528215156020820152606060408201526000611b556060830184611707565b95945050505050565b60006bffffffffffffffffffffffff19808760601b168352808660601b166014840152508360288301528251611b9b8160488501602087016116db565b9190910160480195945050505050565b8281526040602082015260006116d36040830184611707565b600060208284031215611bd657600080fd5b815167ffffffffffffffff811115611bed57600080fd5b8201601f81018413611bfe57600080fd5b8051611c0c6114b1826114fb565b818152856020838501011115611c2157600080fd5b611b558260208301602086016116db565b60008251611c448184602087016116db565b9190910192915050565b600060208284031215611c6057600080fd5b505191905056fea2646970667358221220aba7047f35827796313e229a81d51d05b270c11f858921e3fc3299eb54b744a464736f6c634300080a0033",
  "linkReferences": {},
  "deployedLinkReferences": {}
}