{
  "_format": "hh-sol-artifact-1",
  "contractName": "LSP7CompatibleERC20InitAbstract",
  "sourceName": "contracts/LSP7DigitalAsset/extensions/LSP7CompatibleERC20InitAbstract.sol",
  "abi": [
    {
      "inputs": [],
      "name": "LSP4TokenNameNotEditable",
      "type": "error"
    },
    {
      "inputs": [],
      "name": "LSP4TokenSymbolNotEditable",
      "type": "error"
    },
    {
      "inputs": [
        {
          "internalType": "address",
          "name": "tokenOwner",
          "type": "address"
        },
        {
          "internalType": "uint256",
          "name": "authorizedAmount",
          "type": "uint256"
        },
        {
          "internalType": "address",
          "name": "operator",
          "type": "address"
        },
        {
          "internalType": "uint256",
          "name": "amount",
          "type": "uint256"
        }
      ],
      "name": "LSP7AmountExceedsAuthorizedAmount",
      "type": "error"
    },
    {
      "inputs": [
        {
          "internalType": "uint256",
          "name": "balance",
          "type": "uint256"
        },
        {
          "internalType": "address",
          "name": "tokenOwner",
          "type": "address"
        },
        {
          "internalType": "uint256",
          "name": "amount",
          "type": "uint256"
        }
      ],
      "name": "LSP7AmountExceedsBalance",
      "type": "error"
    },
    {
      "inputs": [],
      "name": "LSP7CannotSendToSelf",
      "type": "error"
    },
    {
      "inputs": [],
      "name": "LSP7CannotSendWithAddressZero",
      "type": "error"
    },
    {
      "inputs": [],
      "name": "LSP7CannotUseAddressZeroAsOperator",
      "type": "error"
    },
    {
      "inputs": [],
      "name": "LSP7InvalidTransferBatch",
      "type": "error"
    },
    {
      "inputs": [
        {
          "internalType": "address",
          "name": "tokenReceiver",
          "type": "address"
        }
      ],
      "name": "LSP7NotifyTokenReceiverContractMissingLSP1Interface",
      "type": "error"
    },
    {
      "inputs": [
        {
          "internalType": "address",
          "name": "tokenReceiver",
          "type": "address"
        }
      ],
      "name": "LSP7NotifyTokenReceiverIsEOA",
      "type": "error"
    },
    {
      "anonymous": false,
      "inputs": [
        {
          "indexed": true,
          "internalType": "address",
          "name": "owner",
          "type": "address"
        },
        {
          "indexed": true,
          "internalType": "address",
          "name": "spender",
          "type": "address"
        },
        {
          "indexed": false,
          "internalType": "uint256",
          "name": "value",
          "type": "uint256"
        }
      ],
      "name": "Approval",
      "type": "event"
    },
    {
      "anonymous": false,
      "inputs": [
        {
          "indexed": true,
          "internalType": "address",
          "name": "operator",
          "type": "address"
        },
        {
          "indexed": true,
          "internalType": "address",
          "name": "tokenOwner",
          "type": "address"
        },
        {
          "indexed": true,
          "internalType": "uint256",
          "name": "amount",
          "type": "uint256"
        }
      ],
      "name": "AuthorizedOperator",
      "type": "event"
    },
    {
      "anonymous": false,
      "inputs": [
        {
          "indexed": true,
          "internalType": "bytes32",
          "name": "dataKey",
          "type": "bytes32"
        },
        {
          "indexed": false,
          "internalType": "bytes",
          "name": "dataValue",
          "type": "bytes"
        }
      ],
      "name": "DataChanged",
      "type": "event"
    },
    {
      "anonymous": false,
      "inputs": [
        {
          "indexed": false,
          "internalType": "uint8",
          "name": "version",
          "type": "uint8"
        }
      ],
      "name": "Initialized",
      "type": "event"
    },
    {
      "anonymous": false,
      "inputs": [
        {
          "indexed": true,
          "internalType": "address",
          "name": "previousOwner",
          "type": "address"
        },
        {
          "indexed": true,
          "internalType": "address",
          "name": "newOwner",
          "type": "address"
        }
      ],
      "name": "OwnershipTransferred",
      "type": "event"
    },
    {
      "anonymous": false,
      "inputs": [
        {
          "indexed": true,
          "internalType": "address",
          "name": "operator",
          "type": "address"
        },
        {
          "indexed": true,
          "internalType": "address",
          "name": "tokenOwner",
          "type": "address"
        }
      ],
      "name": "RevokedOperator",
      "type": "event"
    },
    {
      "anonymous": false,
      "inputs": [
        {
          "indexed": true,
          "internalType": "address",
          "name": "from",
          "type": "address"
        },
        {
          "indexed": true,
          "internalType": "address",
          "name": "to",
          "type": "address"
        },
        {
          "indexed": false,
          "internalType": "uint256",
          "name": "value",
          "type": "uint256"
        }
      ],
      "name": "Transfer",
      "type": "event"
    },
    {
      "anonymous": false,
      "inputs": [
        {
          "indexed": true,
          "internalType": "address",
          "name": "operator",
          "type": "address"
        },
        {
          "indexed": true,
          "internalType": "address",
          "name": "from",
          "type": "address"
        },
        {
          "indexed": true,
          "internalType": "address",
          "name": "to",
          "type": "address"
        },
        {
          "indexed": false,
          "internalType": "uint256",
          "name": "amount",
          "type": "uint256"
        },
        {
          "indexed": false,
          "internalType": "bool",
          "name": "force",
          "type": "bool"
        },
        {
          "indexed": false,
          "internalType": "bytes",
          "name": "data",
          "type": "bytes"
        }
      ],
      "name": "Transfer",
      "type": "event"
    },
    {
      "inputs": [
        {
          "internalType": "address",
          "name": "tokenOwner",
          "type": "address"
        },
        {
          "internalType": "address",
          "name": "operator",
          "type": "address"
        }
      ],
      "name": "allowance",
      "outputs": [
        {
          "internalType": "uint256",
          "name": "",
          "type": "uint256"
        }
      ],
      "stateMutability": "view",
      "type": "function"
    },
    {
      "inputs": [
        {
          "internalType": "address",
          "name": "operator",
          "type": "address"
        },
        {
          "internalType": "uint256",
          "name": "amount",
          "type": "uint256"
        }
      ],
      "name": "approve",
      "outputs": [
        {
          "internalType": "bool",
          "name": "",
          "type": "bool"
        }
      ],
      "stateMutability": "nonpayable",
      "type": "function"
    },
    {
      "inputs": [
        {
          "internalType": "address",
          "name": "operator",
          "type": "address"
        },
        {
          "internalType": "uint256",
          "name": "amount",
          "type": "uint256"
        }
      ],
      "name": "authorizeOperator",
      "outputs": [],
      "stateMutability": "nonpayable",
      "type": "function"
    },
    {
      "inputs": [
        {
          "internalType": "address",
          "name": "operator",
          "type": "address"
        },
        {
          "internalType": "address",
          "name": "tokenOwner",
          "type": "address"
        }
      ],
      "name": "authorizedAmountFor",
      "outputs": [
        {
          "internalType": "uint256",
          "name": "",
          "type": "uint256"
        }
      ],
      "stateMutability": "view",
      "type": "function"
    },
    {
      "inputs": [
        {
          "internalType": "address",
          "name": "tokenOwner",
          "type": "address"
        }
      ],
      "name": "balanceOf",
      "outputs": [
        {
          "internalType": "uint256",
          "name": "",
          "type": "uint256"
        }
      ],
      "stateMutability": "view",
      "type": "function"
    },
    {
      "inputs": [],
      "name": "decimals",
      "outputs": [
        {
          "internalType": "uint8",
          "name": "",
          "type": "uint8"
        }
      ],
      "stateMutability": "view",
      "type": "function"
    },
    {
      "inputs": [
        {
          "internalType": "bytes32[]",
          "name": "dataKeys",
          "type": "bytes32[]"
        }
      ],
      "name": "getData",
      "outputs": [
        {
          "internalType": "bytes[]",
          "name": "dataValues",
          "type": "bytes[]"
        }
      ],
      "stateMutability": "view",
      "type": "function"
    },
    {
      "inputs": [
        {
          "internalType": "bytes32",
          "name": "dataKey",
          "type": "bytes32"
        }
      ],
      "name": "getData",
      "outputs": [
        {
          "internalType": "bytes",
          "name": "dataValue",
          "type": "bytes"
        }
      ],
      "stateMutability": "view",
      "type": "function"
    },
    {
      "inputs": [],
      "name": "name",
      "outputs": [
        {
          "internalType": "string",
          "name": "",
          "type": "string"
        }
      ],
      "stateMutability": "view",
      "type": "function"
    },
    {
      "inputs": [],
      "name": "owner",
      "outputs": [
        {
          "internalType": "address",
          "name": "",
          "type": "address"
        }
      ],
      "stateMutability": "view",
      "type": "function"
    },
    {
      "inputs": [],
      "name": "renounceOwnership",
      "outputs": [],
      "stateMutability": "nonpayable",
      "type": "function"
    },
    {
      "inputs": [
        {
          "internalType": "address",
          "name": "operator",
          "type": "address"
        }
      ],
      "name": "revokeOperator",
      "outputs": [],
      "stateMutability": "nonpayable",
      "type": "function"
    },
    {
      "inputs": [
        {
          "internalType": "bytes32[]",
          "name": "dataKeys",
          "type": "bytes32[]"
        },
        {
          "internalType": "bytes[]",
          "name": "dataValues",
          "type": "bytes[]"
        }
      ],
      "name": "setData",
      "outputs": [],
      "stateMutability": "nonpayable",
      "type": "function"
    },
    {
      "inputs": [
        {
          "internalType": "bytes32",
          "name": "dataKey",
          "type": "bytes32"
        },
        {
          "internalType": "bytes",
          "name": "dataValue",
          "type": "bytes"
        }
      ],
      "name": "setData",
      "outputs": [],
      "stateMutability": "nonpayable",
      "type": "function"
    },
    {
      "inputs": [
        {
          "internalType": "bytes4",
          "name": "interfaceId",
          "type": "bytes4"
        }
      ],
      "name": "supportsInterface",
      "outputs": [
        {
          "internalType": "bool",
          "name": "",
          "type": "bool"
        }
      ],
      "stateMutability": "view",
      "type": "function"
    },
    {
      "inputs": [],
      "name": "symbol",
      "outputs": [
        {
          "internalType": "string",
          "name": "",
          "type": "string"
        }
      ],
      "stateMutability": "view",
      "type": "function"
    },
    {
      "inputs": [],
      "name": "totalSupply",
      "outputs": [
        {
          "internalType": "uint256",
          "name": "",
          "type": "uint256"
        }
      ],
      "stateMutability": "view",
      "type": "function"
    },
    {
      "inputs": [
        {
          "internalType": "address",
          "name": "from",
          "type": "address"
        },
        {
          "internalType": "address",
          "name": "to",
          "type": "address"
        },
        {
          "internalType": "uint256",
          "name": "amount",
          "type": "uint256"
        },
        {
          "internalType": "bool",
          "name": "force",
          "type": "bool"
        },
        {
          "internalType": "bytes",
          "name": "data",
          "type": "bytes"
        }
      ],
      "name": "transfer",
      "outputs": [],
      "stateMutability": "nonpayable",
      "type": "function"
    },
    {
      "inputs": [
        {
          "internalType": "address",
          "name": "to",
          "type": "address"
        },
        {
          "internalType": "uint256",
          "name": "amount",
          "type": "uint256"
        }
      ],
      "name": "transfer",
      "outputs": [
        {
          "internalType": "bool",
          "name": "",
          "type": "bool"
        }
      ],
      "stateMutability": "nonpayable",
      "type": "function"
    },
    {
      "inputs": [
        {
          "internalType": "address[]",
          "name": "from",
          "type": "address[]"
        },
        {
          "internalType": "address[]",
          "name": "to",
          "type": "address[]"
        },
        {
          "internalType": "uint256[]",
          "name": "amount",
          "type": "uint256[]"
        },
        {
          "internalType": "bool",
          "name": "force",
          "type": "bool"
        },
        {
          "internalType": "bytes[]",
          "name": "data",
          "type": "bytes[]"
        }
      ],
      "name": "transferBatch",
      "outputs": [],
      "stateMutability": "nonpayable",
      "type": "function"
    },
    {
      "inputs": [
        {
          "internalType": "address",
          "name": "from",
          "type": "address"
        },
        {
          "internalType": "address",
          "name": "to",
          "type": "address"
        },
        {
          "internalType": "uint256",
          "name": "amount",
          "type": "uint256"
        }
      ],
      "name": "transferFrom",
      "outputs": [
        {
          "internalType": "bool",
          "name": "",
          "type": "bool"
        }
      ],
      "stateMutability": "nonpayable",
      "type": "function"
    },
    {
      "inputs": [
        {
          "internalType": "address",
          "name": "newOwner",
          "type": "address"
        }
      ],
      "name": "transferOwnership",
      "outputs": [],
      "stateMutability": "nonpayable",
      "type": "function"
    }
  ],
  "bytecode": "0x608060405234801561001057600080fd5b50611db3806100206000396000f3fe608060405234801561001057600080fd5b50600436106101825760003560e01c806370a08231116100d857806395d89b411161008c578063dd62ed3e11610066578063dd62ed3e14610333578063f2fde38b14610346578063fad8b32a1461035957600080fd5b806395d89b4114610305578063a8a34e0a1461030d578063a9059cbb1461032057600080fd5b8063760d9bba116100bd578063760d9bba146102b55780637f23690c146102c85780638da5cb5b146102db57600080fd5b806370a0823114610284578063715018a6146102ad57600080fd5b806323b872dd1161013a5780634e3e6e9c116101145780634e3e6e9c1461023e57806354f6127f1461025e57806365aeaa951461027157600080fd5b806323b872dd146101fe578063313ce5671461021157806347980aa31461022b57600080fd5b8063095ea7b31161016b578063095ea7b3146101c457806314a6e293146101d757806318160ddd146101ec57600080fd5b806301ffc9a71461018757806306fdde03146101af575b600080fd5b61019a61019536600461153d565b61036c565b60405190151581526020015b60405180910390f35b6101b76103b0565b6040516101a691906115bf565b61019a6101d23660046115ee565b6103dd565b6101ea6101e53660046117e7565b6103f2565b005b6003545b6040519081526020016101a6565b61019a61020c36600461184b565b6104cb565b6102196104f4565b60405160ff90911681526020016101a6565b6101ea6102393660046115ee565b61050d565b61025161024c366004611887565b61051b565b6040516101a691906118c4565b6101b761026c366004611926565b6105cf565b6101f061027f36600461193f565b6105da565b6101f0610292366004611972565b6001600160a01b031660009081526004602052604090205490565b6101ea610641565b6101ea6102c336600461199d565b610655565b6101ea6102d6366004611a16565b61075e565b6000546201000090046001600160a01b03166040516001600160a01b0390911681526020016101a6565b6101b7610770565b6101ea61031b366004611ab5565b61079d565b61019a61032e3660046115ee565b610879565b6101f061034136600461193f565b610898565b6101ea610354366004611972565b6108ab565b6101ea610367366004611972565b61093b565b60006001600160e01b031982167f5fcaac270000000000000000000000000000000000000000000000000000000014806103aa57506103aa82610947565b92915050565b606060006103aa7fdeba1e292f8ba88238e10ab3c7f88bd4be4fac56cad5194b6ecceaf653468af1610995565b60006103e9838361050d565b50600192915050565b6103fa610a37565b80518251146104765760405162461bcd60e51b815260206004820152602660248201527f4b657973206c656e677468206e6f7420657175616c20746f2076616c7565732060448201527f6c656e677468000000000000000000000000000000000000000000000000000060648201526084015b60405180910390fd5b60005b82518110156104c6576104be83828151811061049757610497611bba565b60200260200101518383815181106104b1576104b1611bba565b6020026020010151610a98565b600101610479565b505050565b60006104ea848484600160405180602001604052806000815250610655565b5060019392505050565b60025460009060ff166105075750601290565b50600090565b6105178282610aa2565b5050565b6060815167ffffffffffffffff81111561053757610537611618565b60405190808252806020026020018201604052801561056a57816020015b60608152602001906001900390816105555790505b50905060005b82518110156105c95761059b83828151811061058e5761058e611bba565b6020026020010151610995565b8282815181106105ad576105ad611bba565b60200260200101819052506105c28160010190565b9050610570565b50919050565b60606103aa82610995565b6000826001600160a01b0316826001600160a01b0316141561061557506001600160a01b0381166000908152600460205260409020546103aa565b506001600160a01b038082166000908152600560209081526040808320938616835292905220546103aa565b610649610a37565b6106536000610af0565b565b836001600160a01b0316856001600160a01b031614156106a1576040517fb9afb00000000000000000000000000000000000000000000000000000000000815260040160405180910390fd5b336001600160a01b0386168114610749576001600160a01b0380871660009081526005602090815260408083209385168352929052205480851115610733576040517ff3a6b6910000000000000000000000000000000000000000000000000000000081526001600160a01b03808916600483015260248201839052831660448201526064810186905260840161046d565b61074787836107428885611be6565b610b7c565b505b6107568686868686610c94565b505050505050565b610766610a37565b6105178282610a98565b606060006103aa7f2f0a68ab07768e01943a599e73362a0e17a63a72e94dd2e384d2c1d4db932756610995565b835185511415806107b057508251855114155b806107bd57508051855114155b156107f4576040517f263eee8d00000000000000000000000000000000000000000000000000000000815260040160405180910390fd5b60005b85518110156107565761087186828151811061081557610815611bba565b602002602001015186838151811061082f5761082f611bba565b602002602001015186848151811061084957610849611bba565b60200260200101518686868151811061086457610864611bba565b6020026020010151610655565b6001016107f7565b60006103e9338484600160405180602001604052806000815250610655565b60006108a482846105da565b9392505050565b6108b3610a37565b6001600160a01b03811661092f5760405162461bcd60e51b815260206004820152602660248201527f4f776e61626c653a206e6577206f776e657220697320746865207a65726f206160448201527f6464726573730000000000000000000000000000000000000000000000000000606482015260840161046d565b61093881610af0565b50565b61093833826000610b7c565b60006001600160e01b031982167f714df77c0000000000000000000000000000000000000000000000000000000014806103aa57506301ffc9a760e01b6001600160e01b03198316146103aa565b60008181526001602052604090208054606091906109b290611bfd565b80601f01602080910402602001604051908101604052809291908181526020018280546109de90611bfd565b8015610a2b5780601f10610a0057610100808354040283529160200191610a2b565b820191906000526020600020905b815481529060010190602001808311610a0e57829003601f168201915b50505050509050919050565b6000546001600160a01b03620100009091041633146106535760405162461bcd60e51b815260206004820181905260248201527f4f776e61626c653a2063616c6c6572206973206e6f7420746865206f776e6572604482015260640161046d565b6105178282610ca8565b610aac8282610dd7565b6040518181526001600160a01b0383169033907f8c5be1e5ebec7d5bd14f71427d1e84f3dd0314c0f7b2291e5b200ac8c7c3b9259060200160405180910390a35050565b6000546001600160a01b0382811662010000909204161461093857600080546001600160a01b03838116620100008181027fffffffffffffffffffff0000000000000000000000000000000000000000ffff851617855560405193049190911692909183917f8be0079c531659141344cd1fd0a4f28419497f9722a3daafe3b4186f6b6457e091a35050565b6001600160a01b038216610bbc576040517f6355e76600000000000000000000000000000000000000000000000000000000815260040160405180910390fd5b826001600160a01b0316826001600160a01b03161415610bdb57505050565b6001600160a01b0380841660009081526005602090815260408083209386168352929052208190558015610c4f5780836001600160a01b0316836001600160a01b03167fd66aff874162a96578e919097b6f6d153dfd89a5cec41bb331fdb0c4aec16e2c60405160405180910390a4505050565b826001600160a01b0316826001600160a01b03167f50546e66e5f44d728365dc3908c63bc5cfeeab470722c1677e3073a6ac294aa160405160405180910390a3505050565b610ca18585858585610de2565b5050505050565b7fdeba1e292f8ba88238e10ab3c7f88bd4be4fac56cad5194b6ecceaf653468af1821415610d02576040517f85c169bd00000000000000000000000000000000000000000000000000000000815260040160405180910390fd5b7f2f0a68ab07768e01943a599e73362a0e17a63a72e94dd2e384d2c1d4db932756821415610d5c576040517f76755b3800000000000000000000000000000000000000000000000000000000815260040160405180910390fd5b60008281526001602090815260409091208251610d7b928401906114a4565b50817fece574603820d07bc9b91f2a932baadf4628aabcb8afba49776529c14a6104b261010083511115610dbc57610db7836000610100610e43565b610dbe565b825b604051610dcb91906115bf565b60405180910390a25050565b610517338383610b7c565b610def8585858585610f6b565b836001600160a01b0316856001600160a01b03167fddf252ad1be2c89b69c2b068fc378daa952ba7f163c4a11628f55a4df523b3ef85604051610e3491815260200190565b60405180910390a35050505050565b606081610e5181601f611c32565b1015610e9f5760405162461bcd60e51b815260206004820152600e60248201527f736c6963655f6f766572666c6f77000000000000000000000000000000000000604482015260640161046d565b610ea98284611c32565b84511015610ef95760405162461bcd60e51b815260206004820152601160248201527f736c6963655f6f75744f66426f756e6473000000000000000000000000000000604482015260640161046d565b606082158015610f185760405191506000825260208201604052610f62565b6040519150601f8416801560200281840101858101878315602002848b0101015b81831015610f51578051835260209283019201610f39565b5050858452601f01601f1916604052505b50949350505050565b6001600160a01b0385161580610f8857506001600160a01b038416155b15610fbf576040517fd2d5ec3000000000000000000000000000000000000000000000000000000000815260040160405180910390fd5b6001600160a01b0385166000908152600460205260409020548084111561102b576040517f08d47949000000000000000000000000000000000000000000000000000000008152600481018290526001600160a01b03871660248201526044810185905260640161046d565b3361103787878761110e565b6001600160a01b0387166000908152600460205260408120805487929061105f908490611be6565b90915550506001600160a01b0386166000908152600460205260408120805487929061108c908490611c32565b92505081905550856001600160a01b0316876001600160a01b0316826001600160a01b03167f3997e418d2cef0b3b0e907b1e39605c3f7d32dbd061e82ea5b4a770d46a160a68888886040516110e493929190611c4a565b60405180910390a46110f88787878661115e565b6111058787878787611238565b50505050505050565b6001600160a01b03831661113457806003600082825461112e9190611c32565b90915550505b6001600160a01b0382166104c65780600360008282546111549190611be6565b9091555050505050565b61116f84631aed5a8560e21b6113a2565b156112325760008484848460405160200161118d9493929190611c74565b60408051601f1981840301815290829052631aed5a8560e21b825291506001600160a01b03861690636bb56a14906111eb907f40b8bec57d7b5ff0dbd9e9acd0a47dfeb0101e1a203766f5ccab00445fbf39e9908590600401611cc1565b6000604051808303816000875af115801561120a573d6000803e3d6000fd5b505050506040513d6000823e601f3d908101601f191682016040526107569190810190611cda565b50505050565b61124984631aed5a8560e21b6113a2565b15611313576000858585846040516020016112679493929190611c74565b60408051601f1981840301815290829052631aed5a8560e21b825291506001600160a01b03861690636bb56a14906112c5907fdbe2c314e1aee2970c72666f2ebe8933a8575263ea71e5ff6a9178e95d47a26f908590600401611cc1565b6000604051808303816000875af11580156112e4573d6000803e3d6000fd5b505050506040513d6000823e601f3d908101601f1916820160405261130c9190810190611cda565b5050610ca1565b81610ca1576001600160a01b0384163b15611365576040517fa608fbb60000000000000000000000000000000000000000000000000000000081526001600160a01b038516600482015260240161046d565b6040517f26c247f40000000000000000000000000000000000000000000000000000000081526001600160a01b038516600482015260240161046d565b604080516001600160e01b0319831660248083019190915282518083039091018152604490910182526020810180517bffffffffffffffffffffffffffffffffffffffffffffffffffffffff166301ffc9a760e01b179052905160009190829081906001600160a01b038716906175309061141e908690611d48565b6000604051808303818686fa925050503d806000811461145a576040519150601f19603f3d011682016040523d82523d6000602084013e61145f565b606091505b509150915060208151101561147a57600093505050506103aa565b81801561149a57506000818060200190518101906114989190611d64565b115b9695505050505050565b8280546114b090611bfd565b90600052602060002090601f0160209004810192826114d25760008555611518565b82601f106114eb57805160ff1916838001178555611518565b82800160010185558215611518579182015b828111156115185782518255916020019190600101906114fd565b50611524929150611528565b5090565b5b808211156115245760008155600101611529565b60006020828403121561154f57600080fd5b81356001600160e01b0319811681146108a457600080fd5b60005b8381101561158257818101518382015260200161156a565b838111156112325750506000910152565b600081518084526115ab816020860160208601611567565b601f01601f19169290920160200192915050565b6020815260006108a46020830184611593565b80356001600160a01b03811681146115e957600080fd5b919050565b6000806040838503121561160157600080fd5b61160a836115d2565b946020939093013593505050565b634e487b7160e01b600052604160045260246000fd5b604051601f8201601f1916810167ffffffffffffffff8111828210171561165757611657611618565b604052919050565b600067ffffffffffffffff82111561167957611679611618565b5060051b60200190565b600082601f83011261169457600080fd5b813560206116a96116a48361165f565b61162e565b82815260059290921b840181019181810190868411156116c857600080fd5b8286015b848110156116e357803583529183019183016116cc565b509695505050505050565b600067ffffffffffffffff82111561170857611708611618565b50601f01601f191660200190565b600082601f83011261172757600080fd5b81356117356116a4826116ee565b81815284602083860101111561174a57600080fd5b816020850160208301376000918101602001919091529392505050565b600082601f83011261177857600080fd5b813560206117886116a48361165f565b82815260059290921b840181019181810190868411156117a757600080fd5b8286015b848110156116e357803567ffffffffffffffff8111156117cb5760008081fd5b6117d98986838b0101611716565b8452509183019183016117ab565b600080604083850312156117fa57600080fd5b823567ffffffffffffffff8082111561181257600080fd5b61181e86838701611683565b9350602085013591508082111561183457600080fd5b5061184185828601611767565b9150509250929050565b60008060006060848603121561186057600080fd5b611869846115d2565b9250611877602085016115d2565b9150604084013590509250925092565b60006020828403121561189957600080fd5b813567ffffffffffffffff8111156118b057600080fd5b6118bc84828501611683565b949350505050565b6000602080830181845280855180835260408601915060408160051b870101925083870160005b8281101561191957603f19888603018452611907858351611593565b945092850192908501906001016118eb565b5092979650505050505050565b60006020828403121561193857600080fd5b5035919050565b6000806040838503121561195257600080fd5b61195b836115d2565b9150611969602084016115d2565b90509250929050565b60006020828403121561198457600080fd5b6108a4826115d2565b803580151581146115e957600080fd5b600080600080600060a086880312156119b557600080fd5b6119be866115d2565b94506119cc602087016115d2565b9350604086013592506119e16060870161198d565b9150608086013567ffffffffffffffff8111156119fd57600080fd5b611a0988828901611716565b9150509295509295909350565b60008060408385031215611a2957600080fd5b82359150602083013567ffffffffffffffff811115611a4757600080fd5b61184185828601611716565b600082601f830112611a6457600080fd5b81356020611a746116a48361165f565b82815260059290921b84018101918181019086841115611a9357600080fd5b8286015b848110156116e357611aa8816115d2565b8352918301918301611a97565b600080600080600060a08688031215611acd57600080fd5b853567ffffffffffffffff80821115611ae557600080fd5b611af189838a01611a53565b9650602091508188013581811115611b0857600080fd5b611b148a828b01611a53565b965050604088013581811115611b2957600080fd5b8801601f81018a13611b3a57600080fd5b8035611b486116a48261165f565b81815260059190911b8201840190848101908c831115611b6757600080fd5b928501925b82841015611b8557833582529285019290850190611b6c565b9750611b97925050506060890161198d565b93506080880135915080821115611bad57600080fd5b50611a0988828901611767565b634e487b7160e01b600052603260045260246000fd5b634e487b7160e01b600052601160045260246000fd5b600082821015611bf857611bf8611bd0565b500390565b600181811c90821680611c1157607f821691505b602082108114156105c957634e487b7160e01b600052602260045260246000fd5b60008219821115611c4557611c45611bd0565b500190565b8381528215156020820152606060408201526000611c6b6060830184611593565b95945050505050565b60006bffffffffffffffffffffffff19808760601b168352808660601b166014840152508360288301528251611cb1816048850160208701611567565b9190910160480195945050505050565b8281526040602082015260006118bc6040830184611593565b600060208284031215611cec57600080fd5b815167ffffffffffffffff811115611d0357600080fd5b8201601f81018413611d1457600080fd5b8051611d226116a4826116ee565b818152856020838501011115611d3757600080fd5b611c6b826020830160208601611567565b60008251611d5a818460208701611567565b9190910192915050565b600060208284031215611d7657600080fd5b505191905056fea26469706673582212200ea23803bbf7323c96cedd36de2e0e7806c78809e3c0db97ca56a0d9960ed33d64736f6c634300080a0033",
  "linkReferences": {},
  "deployedLinkReferences": {}
}