{
  "_format": "hh-sol-artifact-1",
  "contractName": "LSP7CompatibleERC20Mintable",
  "sourceName": "contracts/LSP7DigitalAsset/presets/LSP7CompatibleERC20Mintable.sol",
  "abi": [
    {
      "inputs": [
        {
          "internalType": "string",
          "name": "name_",
          "type": "string"
        },
        {
          "internalType": "string",
          "name": "symbol_",
          "type": "string"
        },
        {
          "internalType": "address",
          "name": "newOwner_",
          "type": "address"
        }
      ],
      "stateMutability": "nonpayable",
      "type": "constructor"
    },
    {
      "inputs": [],
      "name": "LSP4TokenNameNotEditable",
      "type": "error"
    },
    {
      "inputs": [],
      "name": "LSP4TokenSymbolNotEditable",
      "type": "error"
    },
    {
      "inputs": [
        {
          "internalType": "address",
          "name": "tokenOwner",
          "type": "address"
        },
        {
          "internalType": "uint256",
          "name": "authorizedAmount",
          "type": "uint256"
        },
        {
          "internalType": "address",
          "name": "operator",
          "type": "address"
        },
        {
          "internalType": "uint256",
          "name": "amount",
          "type": "uint256"
        }
      ],
      "name": "LSP7AmountExceedsAuthorizedAmount",
      "type": "error"
    },
    {
      "inputs": [
        {
          "internalType": "uint256",
          "name": "balance",
          "type": "uint256"
        },
        {
          "internalType": "address",
          "name": "tokenOwner",
          "type": "address"
        },
        {
          "internalType": "uint256",
          "name": "amount",
          "type": "uint256"
        }
      ],
      "name": "LSP7AmountExceedsBalance",
      "type": "error"
    },
    {
      "inputs": [],
      "name": "LSP7CannotSendToSelf",
      "type": "error"
    },
    {
      "inputs": [],
      "name": "LSP7CannotSendWithAddressZero",
      "type": "error"
    },
    {
      "inputs": [],
      "name": "LSP7CannotUseAddressZeroAsOperator",
      "type": "error"
    },
    {
      "inputs": [],
      "name": "LSP7InvalidTransferBatch",
      "type": "error"
    },
    {
      "inputs": [
        {
          "internalType": "address",
          "name": "tokenReceiver",
          "type": "address"
        }
      ],
      "name": "LSP7NotifyTokenReceiverContractMissingLSP1Interface",
      "type": "error"
    },
    {
      "inputs": [
        {
          "internalType": "address",
          "name": "tokenReceiver",
          "type": "address"
        }
      ],
      "name": "LSP7NotifyTokenReceiverIsEOA",
      "type": "error"
    },
    {
      "anonymous": false,
      "inputs": [
        {
          "indexed": true,
          "internalType": "address",
          "name": "owner",
          "type": "address"
        },
        {
          "indexed": true,
          "internalType": "address",
          "name": "spender",
          "type": "address"
        },
        {
          "indexed": false,
          "internalType": "uint256",
          "name": "value",
          "type": "uint256"
        }
      ],
      "name": "Approval",
      "type": "event"
    },
    {
      "anonymous": false,
      "inputs": [
        {
          "indexed": true,
          "internalType": "address",
          "name": "operator",
          "type": "address"
        },
        {
          "indexed": true,
          "internalType": "address",
          "name": "tokenOwner",
          "type": "address"
        },
        {
          "indexed": true,
          "internalType": "uint256",
          "name": "amount",
          "type": "uint256"
        }
      ],
      "name": "AuthorizedOperator",
      "type": "event"
    },
    {
      "anonymous": false,
      "inputs": [
        {
          "indexed": true,
          "internalType": "bytes32",
          "name": "dataKey",
          "type": "bytes32"
        },
        {
          "indexed": false,
          "internalType": "bytes",
          "name": "dataValue",
          "type": "bytes"
        }
      ],
      "name": "DataChanged",
      "type": "event"
    },
    {
      "anonymous": false,
      "inputs": [
        {
          "indexed": true,
          "internalType": "address",
          "name": "previousOwner",
          "type": "address"
        },
        {
          "indexed": true,
          "internalType": "address",
          "name": "newOwner",
          "type": "address"
        }
      ],
      "name": "OwnershipTransferred",
      "type": "event"
    },
    {
      "anonymous": false,
      "inputs": [
        {
          "indexed": true,
          "internalType": "address",
          "name": "operator",
          "type": "address"
        },
        {
          "indexed": true,
          "internalType": "address",
          "name": "tokenOwner",
          "type": "address"
        }
      ],
      "name": "RevokedOperator",
      "type": "event"
    },
    {
      "anonymous": false,
      "inputs": [
        {
          "indexed": true,
          "internalType": "address",
          "name": "from",
          "type": "address"
        },
        {
          "indexed": true,
          "internalType": "address",
          "name": "to",
          "type": "address"
        },
        {
          "indexed": false,
          "internalType": "uint256",
          "name": "value",
          "type": "uint256"
        }
      ],
      "name": "Transfer",
      "type": "event"
    },
    {
      "anonymous": false,
      "inputs": [
        {
          "indexed": true,
          "internalType": "address",
          "name": "operator",
          "type": "address"
        },
        {
          "indexed": true,
          "internalType": "address",
          "name": "from",
          "type": "address"
        },
        {
          "indexed": true,
          "internalType": "address",
          "name": "to",
          "type": "address"
        },
        {
          "indexed": false,
          "internalType": "uint256",
          "name": "amount",
          "type": "uint256"
        },
        {
          "indexed": false,
          "internalType": "bool",
          "name": "force",
          "type": "bool"
        },
        {
          "indexed": false,
          "internalType": "bytes",
          "name": "data",
          "type": "bytes"
        }
      ],
      "name": "Transfer",
      "type": "event"
    },
    {
      "inputs": [
        {
          "internalType": "address",
          "name": "tokenOwner",
          "type": "address"
        },
        {
          "internalType": "address",
          "name": "operator",
          "type": "address"
        }
      ],
      "name": "allowance",
      "outputs": [
        {
          "internalType": "uint256",
          "name": "",
          "type": "uint256"
        }
      ],
      "stateMutability": "view",
      "type": "function"
    },
    {
      "inputs": [
        {
          "internalType": "address",
          "name": "operator",
          "type": "address"
        },
        {
          "internalType": "uint256",
          "name": "amount",
          "type": "uint256"
        }
      ],
      "name": "approve",
      "outputs": [
        {
          "internalType": "bool",
          "name": "",
          "type": "bool"
        }
      ],
      "stateMutability": "nonpayable",
      "type": "function"
    },
    {
      "inputs": [
        {
          "internalType": "address",
          "name": "operator",
          "type": "address"
        },
        {
          "internalType": "uint256",
          "name": "amount",
          "type": "uint256"
        }
      ],
      "name": "authorizeOperator",
      "outputs": [],
      "stateMutability": "nonpayable",
      "type": "function"
    },
    {
      "inputs": [
        {
          "internalType": "address",
          "name": "operator",
          "type": "address"
        },
        {
          "internalType": "address",
          "name": "tokenOwner",
          "type": "address"
        }
      ],
      "name": "authorizedAmountFor",
      "outputs": [
        {
          "internalType": "uint256",
          "name": "",
          "type": "uint256"
        }
      ],
      "stateMutability": "view",
      "type": "function"
    },
    {
      "inputs": [
        {
          "internalType": "address",
          "name": "tokenOwner",
          "type": "address"
        }
      ],
      "name": "balanceOf",
      "outputs": [
        {
          "internalType": "uint256",
          "name": "",
          "type": "uint256"
        }
      ],
      "stateMutability": "view",
      "type": "function"
    },
    {
      "inputs": [],
      "name": "decimals",
      "outputs": [
        {
          "internalType": "uint8",
          "name": "",
          "type": "uint8"
        }
      ],
      "stateMutability": "view",
      "type": "function"
    },
    {
      "inputs": [
        {
          "internalType": "bytes32[]",
          "name": "dataKeys",
          "type": "bytes32[]"
        }
      ],
      "name": "getData",
      "outputs": [
        {
          "internalType": "bytes[]",
          "name": "dataValues",
          "type": "bytes[]"
        }
      ],
      "stateMutability": "view",
      "type": "function"
    },
    {
      "inputs": [
        {
          "internalType": "bytes32",
          "name": "dataKey",
          "type": "bytes32"
        }
      ],
      "name": "getData",
      "outputs": [
        {
          "internalType": "bytes",
          "name": "dataValue",
          "type": "bytes"
        }
      ],
      "stateMutability": "view",
      "type": "function"
    },
    {
      "inputs": [
        {
          "internalType": "address",
          "name": "to",
          "type": "address"
        },
        {
          "internalType": "uint256",
          "name": "amount",
          "type": "uint256"
        },
        {
          "internalType": "bool",
          "name": "force",
          "type": "bool"
        },
        {
          "internalType": "bytes",
          "name": "data",
          "type": "bytes"
        }
      ],
      "name": "mint",
      "outputs": [],
      "stateMutability": "nonpayable",
      "type": "function"
    },
    {
      "inputs": [],
      "name": "name",
      "outputs": [
        {
          "internalType": "string",
          "name": "",
          "type": "string"
        }
      ],
      "stateMutability": "view",
      "type": "function"
    },
    {
      "inputs": [],
      "name": "owner",
      "outputs": [
        {
          "internalType": "address",
          "name": "",
          "type": "address"
        }
      ],
      "stateMutability": "view",
      "type": "function"
    },
    {
      "inputs": [],
      "name": "renounceOwnership",
      "outputs": [],
      "stateMutability": "nonpayable",
      "type": "function"
    },
    {
      "inputs": [
        {
          "internalType": "address",
          "name": "operator",
          "type": "address"
        }
      ],
      "name": "revokeOperator",
      "outputs": [],
      "stateMutability": "nonpayable",
      "type": "function"
    },
    {
      "inputs": [
        {
          "internalType": "bytes32[]",
          "name": "dataKeys",
          "type": "bytes32[]"
        },
        {
          "internalType": "bytes[]",
          "name": "dataValues",
          "type": "bytes[]"
        }
      ],
      "name": "setData",
      "outputs": [],
      "stateMutability": "nonpayable",
      "type": "function"
    },
    {
      "inputs": [
        {
          "internalType": "bytes32",
          "name": "dataKey",
          "type": "bytes32"
        },
        {
          "internalType": "bytes",
          "name": "dataValue",
          "type": "bytes"
        }
      ],
      "name": "setData",
      "outputs": [],
      "stateMutability": "nonpayable",
      "type": "function"
    },
    {
      "inputs": [
        {
          "internalType": "bytes4",
          "name": "interfaceId",
          "type": "bytes4"
        }
      ],
      "name": "supportsInterface",
      "outputs": [
        {
          "internalType": "bool",
          "name": "",
          "type": "bool"
        }
      ],
      "stateMutability": "view",
      "type": "function"
    },
    {
      "inputs": [],
      "name": "symbol",
      "outputs": [
        {
          "internalType": "string",
          "name": "",
          "type": "string"
        }
      ],
      "stateMutability": "view",
      "type": "function"
    },
    {
      "inputs": [],
      "name": "totalSupply",
      "outputs": [
        {
          "internalType": "uint256",
          "name": "",
          "type": "uint256"
        }
      ],
      "stateMutability": "view",
      "type": "function"
    },
    {
      "inputs": [
        {
          "internalType": "address",
          "name": "from",
          "type": "address"
        },
        {
          "internalType": "address",
          "name": "to",
          "type": "address"
        },
        {
          "internalType": "uint256",
          "name": "amount",
          "type": "uint256"
        },
        {
          "internalType": "bool",
          "name": "force",
          "type": "bool"
        },
        {
          "internalType": "bytes",
          "name": "data",
          "type": "bytes"
        }
      ],
      "name": "transfer",
      "outputs": [],
      "stateMutability": "nonpayable",
      "type": "function"
    },
    {
      "inputs": [
        {
          "internalType": "address",
          "name": "to",
          "type": "address"
        },
        {
          "internalType": "uint256",
          "name": "amount",
          "type": "uint256"
        }
      ],
      "name": "transfer",
      "outputs": [
        {
          "internalType": "bool",
          "name": "",
          "type": "bool"
        }
      ],
      "stateMutability": "nonpayable",
      "type": "function"
    },
    {
      "inputs": [
        {
          "internalType": "address[]",
          "name": "from",
          "type": "address[]"
        },
        {
          "internalType": "address[]",
          "name": "to",
          "type": "address[]"
        },
        {
          "internalType": "uint256[]",
          "name": "amount",
          "type": "uint256[]"
        },
        {
          "internalType": "bool",
          "name": "force",
          "type": "bool"
        },
        {
          "internalType": "bytes[]",
          "name": "data",
          "type": "bytes[]"
        }
      ],
      "name": "transferBatch",
      "outputs": [],
      "stateMutability": "nonpayable",
      "type": "function"
    },
    {
      "inputs": [
        {
          "internalType": "address",
          "name": "from",
          "type": "address"
        },
        {
          "internalType": "address",
          "name": "to",
          "type": "address"
        },
        {
          "internalType": "uint256",
          "name": "amount",
          "type": "uint256"
        }
      ],
      "name": "transferFrom",
      "outputs": [
        {
          "internalType": "bool",
          "name": "",
          "type": "bool"
        }
      ],
      "stateMutability": "nonpayable",
      "type": "function"
    },
    {
      "inputs": [
        {
          "internalType": "address",
          "name": "newOwner",
          "type": "address"
        }
      ],
      "name": "transferOwnership",
      "outputs": [],
      "stateMutability": "nonpayable",
      "type": "function"
    }
  ],
  "bytecode": "0x60806040523480156200001157600080fd5b50604051620024ac380380620024ac833981016040819052620000349162000405565b828282828282600083838380806001600160a01b038116620000b75760405162461bcd60e51b815260206004820152603260248201527f4f776e61626c653a20636f6e7472616374206f776e65722063616e6e6f7420626044820152716520746865207a65726f206164647265737360701b606482015260840160405180910390fd5b620000cd82620001be60201b620009701760201c565b5050620001257feafec4d89fa9619884b60000a4d96624a38f7ac2d8d9a604ecf07c12c77e480c60001b604051806040016040528060048152602001632936598960e21b8152506200022560201b620009ed1760201c565b6200015f7fdeba1e292f8ba88238e10ab3c7f88bd4be4fac56cad5194b6ecceaf653468af160001b846200022560201b620009ed1760201c565b620001997f2f0a68ab07768e01943a599e73362a0e17a63a72e94dd2e384d2c1d4db93275660001b836200022560201b620009ed1760201c565b50506002805460ff191692151592909217909155506200050498505050505050505050565b6000546001600160a01b038281169116146200022257600080546001600160a01b038381166001600160a01b0319831681178455604051919092169283917f8be0079c531659141344cd1fd0a4f28419497f9722a3daafe3b4186f6b6457e09190a3505b50565b60008281526001602090815260409091208251620002469284019062000285565b50817fece574603820d07bc9b91f2a932baadf4628aabcb8afba49776529c14a6104b28260405162000279919062000492565b60405180910390a25050565b8280546200029390620004c7565b90600052602060002090601f016020900481019282620002b7576000855562000302565b82601f10620002d257805160ff191683800117855562000302565b8280016001018555821562000302579182015b8281111562000302578251825591602001919060010190620002e5565b506200031092915062000314565b5090565b5b8082111562000310576000815560010162000315565b634e487b7160e01b600052604160045260246000fd5b60005b838110156200035e57818101518382015260200162000344565b838111156200036e576000848401525b50505050565b600082601f8301126200038657600080fd5b81516001600160401b0380821115620003a357620003a36200032b565b604051601f8301601f19908116603f01168101908282118183101715620003ce57620003ce6200032b565b81604052838152866020858801011115620003e857600080fd5b620003fb84602083016020890162000341565b9695505050505050565b6000806000606084860312156200041b57600080fd5b83516001600160401b03808211156200043357600080fd5b620004418783880162000374565b945060208601519150808211156200045857600080fd5b50620004678682870162000374565b604086015190935090506001600160a01b03811681146200048757600080fd5b809150509250925092565b6020815260008251806020840152620004b381604085016020870162000341565b601f01601f19169190910160400192915050565b600181811c90821680620004dc57607f821691505b60208210811415620004fe57634e487b7160e01b600052602260045260246000fd5b50919050565b611f9880620005146000396000f3fe608060405234801561001057600080fd5b506004361061018d5760003560e01c806370a08231116100e357806395d89b411161008c578063dd62ed3e11610066578063dd62ed3e14610342578063f2fde38b14610355578063fad8b32a1461036857600080fd5b806395d89b4114610314578063a8a34e0a1461031c578063a9059cbb1461032f57600080fd5b8063760d9bba116100bd578063760d9bba146102d35780637f23690c146102e65780638da5cb5b146102f957600080fd5b806370a082311461028f578063715018a6146102b85780637580d920146102c057600080fd5b806323b872dd116101455780634e3e6e9c1161011f5780634e3e6e9c1461024957806354f6127f1461026957806365aeaa951461027c57600080fd5b806323b872dd14610209578063313ce5671461021c57806347980aa31461023657600080fd5b8063095ea7b311610176578063095ea7b3146101cf57806314a6e293146101e257806318160ddd146101f757600080fd5b806301ffc9a71461019257806306fdde03146101ba575b600080fd5b6101a56101a03660046116ba565b61037b565b60405190151581526020015b60405180910390f35b6101c26103bf565b6040516101b1919061173c565b6101a56101dd36600461176b565b6103ec565b6101f56101f0366004611964565b610401565b005b6003545b6040519081526020016101b1565b6101a56102173660046119c8565b6104da565b610224610503565b60405160ff90911681526020016101b1565b6101f561024436600461176b565b61051c565b61025c610257366004611a04565b61052a565b6040516101b19190611a41565b6101c2610277366004611aa3565b6105de565b6101fb61028a366004611abc565b6105e9565b6101fb61029d366004611aef565b6001600160a01b031660009081526004602052604090205490565b6101f5610650565b6101f56102ce366004611b1a565b610664565b6101f56102e1366004611b82565b61067e565b6101f56102f4366004611bfb565b610787565b6000546040516001600160a01b0390911681526020016101b1565b6101c2610799565b6101f561032a366004611c9a565b6107c6565b6101a561033d36600461176b565b6108a2565b6101fb610350366004611abc565b6108c1565b6101f5610363366004611aef565b6108d4565b6101f5610376366004611aef565b610964565b60006001600160e01b031982167f5fcaac270000000000000000000000000000000000000000000000000000000014806103b957506103b982610a49565b92915050565b606060006103b97fdeba1e292f8ba88238e10ab3c7f88bd4be4fac56cad5194b6ecceaf653468af1610a97565b60006103f8838361051c565b50600192915050565b610409610b39565b80518251146104855760405162461bcd60e51b815260206004820152602660248201527f4b657973206c656e677468206e6f7420657175616c20746f2076616c7565732060448201527f6c656e677468000000000000000000000000000000000000000000000000000060648201526084015b60405180910390fd5b60005b82518110156104d5576104cd8382815181106104a6576104a6611d9f565b60200260200101518383815181106104c0576104c0611d9f565b6020026020010151610ba2565b600101610488565b505050565b60006104f984848460016040518060200160405280600081525061067e565b5060019392505050565b60025460009060ff166105165750601290565b50600090565b6105268282610bac565b5050565b6060815167ffffffffffffffff81111561054657610546611795565b60405190808252806020026020018201604052801561057957816020015b60608152602001906001900390816105645790505b50905060005b82518110156105d8576105aa83828151811061059d5761059d611d9f565b6020026020010151610a97565b8282815181106105bc576105bc611d9f565b60200260200101819052506105d18160010190565b905061057f565b50919050565b60606103b982610a97565b6000826001600160a01b0316826001600160a01b0316141561062457506001600160a01b0381166000908152600460205260409020546103b9565b506001600160a01b038082166000908152600560209081526040808320938616835292905220546103b9565b610658610b39565b6106626000610970565b565b61066c610b39565b61067884848484610bfa565b50505050565b836001600160a01b0316856001600160a01b031614156106ca576040517fb9afb00000000000000000000000000000000000000000000000000000000000815260040160405180910390fd5b336001600160a01b0386168114610772576001600160a01b038087166000908152600560209081526040808320938516835292905220548085111561075c576040517ff3a6b6910000000000000000000000000000000000000000000000000000000081526001600160a01b03808916600483015260248201839052831660448201526064810186905260840161047c565b610770878361076b8885611dcb565b610c06565b505b61077f8686868686610d1e565b505050505050565b61078f610b39565b6105268282610ba2565b606060006103b97f2f0a68ab07768e01943a599e73362a0e17a63a72e94dd2e384d2c1d4db932756610a97565b835185511415806107d957508251855114155b806107e657508051855114155b1561081d576040517f263eee8d00000000000000000000000000000000000000000000000000000000815260040160405180910390fd5b60005b855181101561077f5761089a86828151811061083e5761083e611d9f565b602002602001015186838151811061085857610858611d9f565b602002602001015186848151811061087257610872611d9f565b60200260200101518686868151811061088d5761088d611d9f565b602002602001015161067e565b600101610820565b60006103f833848460016040518060200160405280600081525061067e565b60006108cd82846105e9565b9392505050565b6108dc610b39565b6001600160a01b0381166109585760405162461bcd60e51b815260206004820152602660248201527f4f776e61626c653a206e6577206f776e657220697320746865207a65726f206160448201527f6464726573730000000000000000000000000000000000000000000000000000606482015260840161047c565b61096181610970565b50565b61096133826000610c06565b6000546001600160a01b0382811691161461096157600080546001600160a01b038381167fffffffffffffffffffffffff0000000000000000000000000000000000000000831681178455604051919092169283917f8be0079c531659141344cd1fd0a4f28419497f9722a3daafe3b4186f6b6457e09190a35050565b60008281526001602090815260409091208251610a0c92840190611621565b50817fece574603820d07bc9b91f2a932baadf4628aabcb8afba49776529c14a6104b282604051610a3d919061173c565b60405180910390a25050565b60006001600160e01b031982167f714df77c0000000000000000000000000000000000000000000000000000000014806103b957506301ffc9a760e01b6001600160e01b03198316146103b9565b6000818152600160205260409020805460609190610ab490611de2565b80601f0160208091040260200160405190810160405280929190818152602001828054610ae090611de2565b8015610b2d5780601f10610b0257610100808354040283529160200191610b2d565b820191906000526020600020905b815481529060010190602001808311610b1057829003601f168201915b50505050509050919050565b33610b4c6000546001600160a01b031690565b6001600160a01b0316146106625760405162461bcd60e51b815260206004820181905260248201527f4f776e61626c653a2063616c6c6572206973206e6f7420746865206f776e6572604482015260640161047c565b6105268282610d32565b610bb68282610e55565b6040518181526001600160a01b0383169033907f8c5be1e5ebec7d5bd14f71427d1e84f3dd0314c0f7b2291e5b200ac8c7c3b9259060200160405180910390a35050565b61067884848484610e60565b6001600160a01b038216610c46576040517f6355e76600000000000000000000000000000000000000000000000000000000815260040160405180910390fd5b826001600160a01b0316826001600160a01b03161415610c6557505050565b6001600160a01b0380841660009081526005602090815260408083209386168352929052208190558015610cd95780836001600160a01b0316836001600160a01b03167fd66aff874162a96578e919097b6f6d153dfd89a5cec41bb331fdb0c4aec16e2c60405160405180910390a4505050565b826001600160a01b0316826001600160a01b03167f50546e66e5f44d728365dc3908c63bc5cfeeab470722c1677e3073a6ac294aa160405160405180910390a3505050565b610d2b8585858585610eb3565b5050505050565b7fdeba1e292f8ba88238e10ab3c7f88bd4be4fac56cad5194b6ecceaf653468af1821415610d8c576040517f85c169bd00000000000000000000000000000000000000000000000000000000815260040160405180910390fd5b7f2f0a68ab07768e01943a599e73362a0e17a63a72e94dd2e384d2c1d4db932756821415610de6576040517f76755b3800000000000000000000000000000000000000000000000000000000815260040160405180910390fd5b60008281526001602090815260409091208251610e0592840190611621565b50817fece574603820d07bc9b91f2a932baadf4628aabcb8afba49776529c14a6104b261010083511115610e4657610e41836000610100610f14565b610e48565b825b604051610a3d919061173c565b610526338383610c06565b610e6c8484848461103c565b6040518381526001600160a01b038516906000907fddf252ad1be2c89b69c2b068fc378daa952ba7f163c4a11628f55a4df523b3ef9060200160405180910390a350505050565b610ec08585858585611107565b836001600160a01b0316856001600160a01b03167fddf252ad1be2c89b69c2b068fc378daa952ba7f163c4a11628f55a4df523b3ef85604051610f0591815260200190565b60405180910390a35050505050565b606081610f2281601f611e17565b1015610f705760405162461bcd60e51b815260206004820152600e60248201527f736c6963655f6f766572666c6f77000000000000000000000000000000000000604482015260640161047c565b610f7a8284611e17565b84511015610fca5760405162461bcd60e51b815260206004820152601160248201527f736c6963655f6f75744f66426f756e6473000000000000000000000000000000604482015260640161047c565b606082158015610fe95760405191506000825260208201604052611033565b6040519150601f8416801560200281840101858101878315602002848b0101015b8183101561102257805183526020928301920161100a565b5050858452601f01601f1916604052505b50949350505050565b6001600160a01b03841661106357604051630d2d5ec360e41b815260040160405180910390fd5b3361107060008686611291565b6001600160a01b03851660009081526004602052604081208054869290611098908490611e17565b92505081905550846001600160a01b031660006001600160a01b0316826001600160a01b03167f3997e418d2cef0b3b0e907b1e39605c3f7d32dbd061e82ea5b4a770d46a160a68787876040516110f193929190611e2f565b60405180910390a4610d2b6000868686866112e1565b6001600160a01b038516158061112457506001600160a01b038416155b1561114257604051630d2d5ec360e41b815260040160405180910390fd5b6001600160a01b038516600090815260046020526040902054808411156111ae576040517f08d47949000000000000000000000000000000000000000000000000000000008152600481018290526001600160a01b03871660248201526044810185905260640161047c565b336111ba878787611291565b6001600160a01b038716600090815260046020526040812080548792906111e2908490611dcb565b90915550506001600160a01b0386166000908152600460205260408120805487929061120f908490611e17565b92505081905550856001600160a01b0316876001600160a01b0316826001600160a01b03167f3997e418d2cef0b3b0e907b1e39605c3f7d32dbd061e82ea5b4a770d46a160a688888860405161126793929190611e2f565b60405180910390a461127b8787878661144b565b61128887878787876112e1565b50505050505050565b6001600160a01b0383166112b75780600360008282546112b19190611e17565b90915550505b6001600160a01b0382166104d55780600360008282546112d79190611dcb565b9091555050505050565b6112f284631aed5a8560e21b61151f565b156113bc576000858585846040516020016113109493929190611e59565b60408051601f1981840301815290829052631aed5a8560e21b825291506001600160a01b03861690636bb56a149061136e907fdbe2c314e1aee2970c72666f2ebe8933a8575263ea71e5ff6a9178e95d47a26f908590600401611ea6565b6000604051808303816000875af115801561138d573d6000803e3d6000fd5b505050506040513d6000823e601f3d908101601f191682016040526113b59190810190611ebf565b5050610d2b565b81610d2b576001600160a01b0384163b1561140e576040517fa608fbb60000000000000000000000000000000000000000000000000000000081526001600160a01b038516600482015260240161047c565b6040517f26c247f40000000000000000000000000000000000000000000000000000000081526001600160a01b038516600482015260240161047c565b61145c84631aed5a8560e21b61151f565b156106785760008484848460405160200161147a9493929190611e59565b60408051601f1981840301815290829052631aed5a8560e21b825291506001600160a01b03861690636bb56a14906114d8907f40b8bec57d7b5ff0dbd9e9acd0a47dfeb0101e1a203766f5ccab00445fbf39e9908590600401611ea6565b6000604051808303816000875af11580156114f7573d6000803e3d6000fd5b505050506040513d6000823e601f3d908101601f1916820160405261077f9190810190611ebf565b604080516001600160e01b0319831660248083019190915282518083039091018152604490910182526020810180517bffffffffffffffffffffffffffffffffffffffffffffffffffffffff166301ffc9a760e01b179052905160009190829081906001600160a01b038716906175309061159b908690611f2d565b6000604051808303818686fa925050503d80600081146115d7576040519150601f19603f3d011682016040523d82523d6000602084013e6115dc565b606091505b50915091506020815110156115f757600093505050506103b9565b81801561161757506000818060200190518101906116159190611f49565b115b9695505050505050565b82805461162d90611de2565b90600052602060002090601f01602090048101928261164f5760008555611695565b82601f1061166857805160ff1916838001178555611695565b82800160010185558215611695579182015b8281111561169557825182559160200191906001019061167a565b506116a19291506116a5565b5090565b5b808211156116a157600081556001016116a6565b6000602082840312156116cc57600080fd5b81356001600160e01b0319811681146108cd57600080fd5b60005b838110156116ff5781810151838201526020016116e7565b838111156106785750506000910152565b600081518084526117288160208601602086016116e4565b601f01601f19169290920160200192915050565b6020815260006108cd6020830184611710565b80356001600160a01b038116811461176657600080fd5b919050565b6000806040838503121561177e57600080fd5b6117878361174f565b946020939093013593505050565b634e487b7160e01b600052604160045260246000fd5b604051601f8201601f1916810167ffffffffffffffff811182821017156117d4576117d4611795565b604052919050565b600067ffffffffffffffff8211156117f6576117f6611795565b5060051b60200190565b600082601f83011261181157600080fd5b81356020611826611821836117dc565b6117ab565b82815260059290921b8401810191818101908684111561184557600080fd5b8286015b848110156118605780358352918301918301611849565b509695505050505050565b600067ffffffffffffffff82111561188557611885611795565b50601f01601f191660200190565b600082601f8301126118a457600080fd5b81356118b26118218261186b565b8181528460208386010111156118c757600080fd5b816020850160208301376000918101602001919091529392505050565b600082601f8301126118f557600080fd5b81356020611905611821836117dc565b82815260059290921b8401810191818101908684111561192457600080fd5b8286015b8481101561186057803567ffffffffffffffff8111156119485760008081fd5b6119568986838b0101611893565b845250918301918301611928565b6000806040838503121561197757600080fd5b823567ffffffffffffffff8082111561198f57600080fd5b61199b86838701611800565b935060208501359150808211156119b157600080fd5b506119be858286016118e4565b9150509250929050565b6000806000606084860312156119dd57600080fd5b6119e68461174f565b92506119f46020850161174f565b9150604084013590509250925092565b600060208284031215611a1657600080fd5b813567ffffffffffffffff811115611a2d57600080fd5b611a3984828501611800565b949350505050565b6000602080830181845280855180835260408601915060408160051b870101925083870160005b82811015611a9657603f19888603018452611a84858351611710565b94509285019290850190600101611a68565b5092979650505050505050565b600060208284031215611ab557600080fd5b5035919050565b60008060408385031215611acf57600080fd5b611ad88361174f565b9150611ae66020840161174f565b90509250929050565b600060208284031215611b0157600080fd5b6108cd8261174f565b8035801515811461176657600080fd5b60008060008060808587031215611b3057600080fd5b611b398561174f565b935060208501359250611b4e60408601611b0a565b9150606085013567ffffffffffffffff811115611b6a57600080fd5b611b7687828801611893565b91505092959194509250565b600080600080600060a08688031215611b9a57600080fd5b611ba38661174f565b9450611bb16020870161174f565b935060408601359250611bc660608701611b0a565b9150608086013567ffffffffffffffff811115611be257600080fd5b611bee88828901611893565b9150509295509295909350565b60008060408385031215611c0e57600080fd5b82359150602083013567ffffffffffffffff811115611c2c57600080fd5b6119be85828601611893565b600082601f830112611c4957600080fd5b81356020611c59611821836117dc565b82815260059290921b84018101918181019086841115611c7857600080fd5b8286015b8481101561186057611c8d8161174f565b8352918301918301611c7c565b600080600080600060a08688031215611cb257600080fd5b853567ffffffffffffffff80821115611cca57600080fd5b611cd689838a01611c38565b9650602091508188013581811115611ced57600080fd5b611cf98a828b01611c38565b965050604088013581811115611d0e57600080fd5b8801601f81018a13611d1f57600080fd5b8035611d2d611821826117dc565b81815260059190911b8201840190848101908c831115611d4c57600080fd5b928501925b82841015611d6a57833582529285019290850190611d51565b9750611d7c9250505060608901611b0a565b93506080880135915080821115611d9257600080fd5b50611bee888289016118e4565b634e487b7160e01b600052603260045260246000fd5b634e487b7160e01b600052601160045260246000fd5b600082821015611ddd57611ddd611db5565b500390565b600181811c90821680611df657607f821691505b602082108114156105d857634e487b7160e01b600052602260045260246000fd5b60008219821115611e2a57611e2a611db5565b500190565b8381528215156020820152606060408201526000611e506060830184611710565b95945050505050565b60006bffffffffffffffffffffffff19808760601b168352808660601b166014840152508360288301528251611e968160488501602087016116e4565b9190910160480195945050505050565b828152604060208201526000611a396040830184611710565b600060208284031215611ed157600080fd5b815167ffffffffffffffff811115611ee857600080fd5b8201601f81018413611ef957600080fd5b8051611f076118218261186b565b818152856020838501011115611f1c57600080fd5b611e508260208301602086016116e4565b60008251611f3f8184602087016116e4565b9190910192915050565b600060208284031215611f5b57600080fd5b505191905056fea264697066735822122030389af2112fd472c59b02acf0a810960034693128ee9c8d05a34aa4c7ccb81464736f6c634300080a0033",
  "linkReferences": {},
  "deployedLinkReferences": {}
}