{
  "_format": "hh-sol-artifact-1",
  "contractName": "LSP7MintableInit",
  "sourceName": "contracts/LSP7DigitalAsset/presets/LSP7MintableInit.sol",
  "abi": [
    {
      "inputs": [],
      "stateMutability": "nonpayable",
      "type": "constructor"
    },
    {
      "inputs": [],
      "name": "LSP4TokenNameNotEditable",
      "type": "error"
    },
    {
      "inputs": [],
      "name": "LSP4TokenSymbolNotEditable",
      "type": "error"
    },
    {
      "inputs": [
        {
          "internalType": "address",
          "name": "tokenOwner",
          "type": "address"
        },
        {
          "internalType": "uint256",
          "name": "authorizedAmount",
          "type": "uint256"
        },
        {
          "internalType": "address",
          "name": "operator",
          "type": "address"
        },
        {
          "internalType": "uint256",
          "name": "amount",
          "type": "uint256"
        }
      ],
      "name": "LSP7AmountExceedsAuthorizedAmount",
      "type": "error"
    },
    {
      "inputs": [
        {
          "internalType": "uint256",
          "name": "balance",
          "type": "uint256"
        },
        {
          "internalType": "address",
          "name": "tokenOwner",
          "type": "address"
        },
        {
          "internalType": "uint256",
          "name": "amount",
          "type": "uint256"
        }
      ],
      "name": "LSP7AmountExceedsBalance",
      "type": "error"
    },
    {
      "inputs": [],
      "name": "LSP7CannotSendToSelf",
      "type": "error"
    },
    {
      "inputs": [],
      "name": "LSP7CannotSendWithAddressZero",
      "type": "error"
    },
    {
      "inputs": [],
      "name": "LSP7CannotUseAddressZeroAsOperator",
      "type": "error"
    },
    {
      "inputs": [],
      "name": "LSP7InvalidTransferBatch",
      "type": "error"
    },
    {
      "inputs": [
        {
          "internalType": "address",
          "name": "tokenReceiver",
          "type": "address"
        }
      ],
      "name": "LSP7NotifyTokenReceiverContractMissingLSP1Interface",
      "type": "error"
    },
    {
      "inputs": [
        {
          "internalType": "address",
          "name": "tokenReceiver",
          "type": "address"
        }
      ],
      "name": "LSP7NotifyTokenReceiverIsEOA",
      "type": "error"
    },
    {
      "anonymous": false,
      "inputs": [
        {
          "indexed": true,
          "internalType": "address",
          "name": "operator",
          "type": "address"
        },
        {
          "indexed": true,
          "internalType": "address",
          "name": "tokenOwner",
          "type": "address"
        },
        {
          "indexed": true,
          "internalType": "uint256",
          "name": "amount",
          "type": "uint256"
        }
      ],
      "name": "AuthorizedOperator",
      "type": "event"
    },
    {
      "anonymous": false,
      "inputs": [
        {
          "indexed": true,
          "internalType": "bytes32",
          "name": "dataKey",
          "type": "bytes32"
        },
        {
          "indexed": false,
          "internalType": "bytes",
          "name": "dataValue",
          "type": "bytes"
        }
      ],
      "name": "DataChanged",
      "type": "event"
    },
    {
      "anonymous": false,
      "inputs": [
        {
          "indexed": false,
          "internalType": "uint8",
          "name": "version",
          "type": "uint8"
        }
      ],
      "name": "Initialized",
      "type": "event"
    },
    {
      "anonymous": false,
      "inputs": [
        {
          "indexed": true,
          "internalType": "address",
          "name": "previousOwner",
          "type": "address"
        },
        {
          "indexed": true,
          "internalType": "address",
          "name": "newOwner",
          "type": "address"
        }
      ],
      "name": "OwnershipTransferred",
      "type": "event"
    },
    {
      "anonymous": false,
      "inputs": [
        {
          "indexed": true,
          "internalType": "address",
          "name": "operator",
          "type": "address"
        },
        {
          "indexed": true,
          "internalType": "address",
          "name": "tokenOwner",
          "type": "address"
        }
      ],
      "name": "RevokedOperator",
      "type": "event"
    },
    {
      "anonymous": false,
      "inputs": [
        {
          "indexed": true,
          "internalType": "address",
          "name": "operator",
          "type": "address"
        },
        {
          "indexed": true,
          "internalType": "address",
          "name": "from",
          "type": "address"
        },
        {
          "indexed": true,
          "internalType": "address",
          "name": "to",
          "type": "address"
        },
        {
          "indexed": false,
          "internalType": "uint256",
          "name": "amount",
          "type": "uint256"
        },
        {
          "indexed": false,
          "internalType": "bool",
          "name": "force",
          "type": "bool"
        },
        {
          "indexed": false,
          "internalType": "bytes",
          "name": "data",
          "type": "bytes"
        }
      ],
      "name": "Transfer",
      "type": "event"
    },
    {
      "inputs": [
        {
          "internalType": "address",
          "name": "operator",
          "type": "address"
        },
        {
          "internalType": "uint256",
          "name": "amount",
          "type": "uint256"
        }
      ],
      "name": "authorizeOperator",
      "outputs": [],
      "stateMutability": "nonpayable",
      "type": "function"
    },
    {
      "inputs": [
        {
          "internalType": "address",
          "name": "operator",
          "type": "address"
        },
        {
          "internalType": "address",
          "name": "tokenOwner",
          "type": "address"
        }
      ],
      "name": "authorizedAmountFor",
      "outputs": [
        {
          "internalType": "uint256",
          "name": "",
          "type": "uint256"
        }
      ],
      "stateMutability": "view",
      "type": "function"
    },
    {
      "inputs": [
        {
          "internalType": "address",
          "name": "tokenOwner",
          "type": "address"
        }
      ],
      "name": "balanceOf",
      "outputs": [
        {
          "internalType": "uint256",
          "name": "",
          "type": "uint256"
        }
      ],
      "stateMutability": "view",
      "type": "function"
    },
    {
      "inputs": [],
      "name": "decimals",
      "outputs": [
        {
          "internalType": "uint8",
          "name": "",
          "type": "uint8"
        }
      ],
      "stateMutability": "view",
      "type": "function"
    },
    {
      "inputs": [
        {
          "internalType": "bytes32[]",
          "name": "dataKeys",
          "type": "bytes32[]"
        }
      ],
      "name": "getData",
      "outputs": [
        {
          "internalType": "bytes[]",
          "name": "dataValues",
          "type": "bytes[]"
        }
      ],
      "stateMutability": "view",
      "type": "function"
    },
    {
      "inputs": [
        {
          "internalType": "bytes32",
          "name": "dataKey",
          "type": "bytes32"
        }
      ],
      "name": "getData",
      "outputs": [
        {
          "internalType": "bytes",
          "name": "dataValue",
          "type": "bytes"
        }
      ],
      "stateMutability": "view",
      "type": "function"
    },
    {
      "inputs": [
        {
          "internalType": "string",
          "name": "name_",
          "type": "string"
        },
        {
          "internalType": "string",
          "name": "symbol_",
          "type": "string"
        },
        {
          "internalType": "address",
          "name": "newOwner_",
          "type": "address"
        },
        {
          "internalType": "bool",
          "name": "isNonDivisible_",
          "type": "bool"
        }
      ],
      "name": "initialize",
      "outputs": [],
      "stateMutability": "nonpayable",
      "type": "function"
    },
    {
      "inputs": [
        {
          "internalType": "address",
          "name": "to",
          "type": "address"
        },
        {
          "internalType": "uint256",
          "name": "amount",
          "type": "uint256"
        },
        {
          "internalType": "bool",
          "name": "force",
          "type": "bool"
        },
        {
          "internalType": "bytes",
          "name": "data",
          "type": "bytes"
        }
      ],
      "name": "mint",
      "outputs": [],
      "stateMutability": "nonpayable",
      "type": "function"
    },
    {
      "inputs": [],
      "name": "owner",
      "outputs": [
        {
          "internalType": "address",
          "name": "",
          "type": "address"
        }
      ],
      "stateMutability": "view",
      "type": "function"
    },
    {
      "inputs": [],
      "name": "renounceOwnership",
      "outputs": [],
      "stateMutability": "nonpayable",
      "type": "function"
    },
    {
      "inputs": [
        {
          "internalType": "address",
          "name": "operator",
          "type": "address"
        }
      ],
      "name": "revokeOperator",
      "outputs": [],
      "stateMutability": "nonpayable",
      "type": "function"
    },
    {
      "inputs": [
        {
          "internalType": "bytes32[]",
          "name": "dataKeys",
          "type": "bytes32[]"
        },
        {
          "internalType": "bytes[]",
          "name": "dataValues",
          "type": "bytes[]"
        }
      ],
      "name": "setData",
      "outputs": [],
      "stateMutability": "nonpayable",
      "type": "function"
    },
    {
      "inputs": [
        {
          "internalType": "bytes32",
          "name": "dataKey",
          "type": "bytes32"
        },
        {
          "internalType": "bytes",
          "name": "dataValue",
          "type": "bytes"
        }
      ],
      "name": "setData",
      "outputs": [],
      "stateMutability": "nonpayable",
      "type": "function"
    },
    {
      "inputs": [
        {
          "internalType": "bytes4",
          "name": "interfaceId",
          "type": "bytes4"
        }
      ],
      "name": "supportsInterface",
      "outputs": [
        {
          "internalType": "bool",
          "name": "",
          "type": "bool"
        }
      ],
      "stateMutability": "view",
      "type": "function"
    },
    {
      "inputs": [],
      "name": "totalSupply",
      "outputs": [
        {
          "internalType": "uint256",
          "name": "",
          "type": "uint256"
        }
      ],
      "stateMutability": "view",
      "type": "function"
    },
    {
      "inputs": [
        {
          "internalType": "address",
          "name": "from",
          "type": "address"
        },
        {
          "internalType": "address",
          "name": "to",
          "type": "address"
        },
        {
          "internalType": "uint256",
          "name": "amount",
          "type": "uint256"
        },
        {
          "internalType": "bool",
          "name": "force",
          "type": "bool"
        },
        {
          "internalType": "bytes",
          "name": "data",
          "type": "bytes"
        }
      ],
      "name": "transfer",
      "outputs": [],
      "stateMutability": "nonpayable",
      "type": "function"
    },
    {
      "inputs": [
        {
          "internalType": "address[]",
          "name": "from",
          "type": "address[]"
        },
        {
          "internalType": "address[]",
          "name": "to",
          "type": "address[]"
        },
        {
          "internalType": "uint256[]",
          "name": "amount",
          "type": "uint256[]"
        },
        {
          "internalType": "bool",
          "name": "force",
          "type": "bool"
        },
        {
          "internalType": "bytes[]",
          "name": "data",
          "type": "bytes[]"
        }
      ],
      "name": "transferBatch",
      "outputs": [],
      "stateMutability": "nonpayable",
      "type": "function"
    },
    {
      "inputs": [
        {
          "internalType": "address",
          "name": "newOwner",
          "type": "address"
        }
      ],
      "name": "transferOwnership",
      "outputs": [],
      "stateMutability": "nonpayable",
      "type": "function"
    }
  ],
  "bytecode": "0x608060405234801561001057600080fd5b5061001961001e565b6100de565b600054610100900460ff161561008a5760405162461bcd60e51b815260206004820152602760248201527f496e697469616c697a61626c653a20636f6e747261637420697320696e697469604482015266616c697a696e6760c81b606482015260840160405180910390fd5b60005460ff90811610156100dc576000805460ff191660ff9081179091556040519081527f7f26b83ff96e1f2b6a682f133852f6798a09c465da95921460cefb38474024989060200160405180910390a15b565b61219d80620000ee6000396000f3fe608060405234801561001057600080fd5b50600436106101365760003560e01c806370a08231116100b25780637f23690c11610081578063a8a34e0a11610066578063a8a34e0a146102b1578063f2fde38b146102c4578063fad8b32a146102d757600080fd5b80637f23690c146102745780638da5cb5b1461028757600080fd5b806370a082311461021d578063715018a6146102465780637580d9201461024e578063760d9bba1461026157600080fd5b806347980aa31161010957806354f6127f116100ee57806354f6127f146101d75780635c108a43146101f757806365aeaa951461020a57600080fd5b806347980aa3146101a45780634e3e6e9c146101b757600080fd5b806301ffc9a71461013b57806314a6e2931461016357806318160ddd14610178578063313ce5671461018a575b600080fd5b61014e61014936600461186f565b6102ea565b60405190151581526020015b60405180910390f35b610176610171366004611a6f565b61032e565b005b6003545b60405190815260200161015a565b610192610407565b60405160ff909116815260200161015a565b6101766101b2366004611aef565b610420565b6101ca6101c5366004611b19565b61042f565b60405161015a9190611bae565b6101ea6101e5366004611c10565b6104e3565b60405161015a9190611c29565b610176610205366004611c4c565b6104ee565b61017c610218366004611cd1565b610616565b61017c61022b366004611d04565b6001600160a01b031660009081526004602052604090205490565b61017661067e565b61017661025c366004611d1f565b610692565b61017661026f366004611d87565b6106ac565b610176610282366004611e00565b6107b5565b6000546201000090046001600160a01b03166040516001600160a01b03909116815260200161015a565b6101766102bf366004611e9f565b6107c7565b6101766102d2366004611d04565b6108a3565b6101766102e5366004611d04565b610933565b60006001600160e01b031982167f5fcaac2700000000000000000000000000000000000000000000000000000000148061032857506103288261093f565b92915050565b61033661098d565b80518251146103b25760405162461bcd60e51b815260206004820152602660248201527f4b657973206c656e677468206e6f7420657175616c20746f2076616c7565732060448201527f6c656e677468000000000000000000000000000000000000000000000000000060648201526084015b60405180910390fd5b60005b8251811015610402576103fa8382815181106103d3576103d3611fa4565b60200260200101518383815181106103ed576103ed611fa4565b60200260200101516109ee565b6001016103b5565b505050565b60025460009060ff1661041a5750601290565b50600090565b61042b338383610b1d565b5050565b6060815167ffffffffffffffff81111561044b5761044b6118a0565b60405190808252806020026020018201604052801561047e57816020015b60608152602001906001900390816104695790505b50905060005b82518110156104dd576104af8382815181106104a2576104a2611fa4565b6020026020010151610c35565b8282815181106104c1576104c1611fa4565b60200260200101819052506104d68160010190565b9050610484565b50919050565b606061032882610c35565b600054610100900460ff161580801561050e5750600054600160ff909116105b806105285750303b158015610528575060005460ff166001145b61059a5760405162461bcd60e51b815260206004820152602e60248201527f496e697469616c697a61626c653a20636f6e747261637420697320616c72656160448201527f647920696e697469616c697a656400000000000000000000000000000000000060648201526084016103a9565b6000805460ff1916600117905580156105bd576000805461ff0019166101001790555b6105c985858585610cd7565b801561060f576000805461ff0019169055604051600181527f7f26b83ff96e1f2b6a682f133852f6798a09c465da95921460cefb38474024989060200160405180910390a15b5050505050565b6000826001600160a01b0316826001600160a01b0316141561065157506001600160a01b038116600090815260046020526040902054610328565b506001600160a01b0380821660009081526005602090815260408083209386168352929052205492915050565b61068661098d565b6106906000610d4e565b565b61069a61098d565b6106a684848484610dda565b50505050565b836001600160a01b0316856001600160a01b031614156106f8576040517fb9afb00000000000000000000000000000000000000000000000000000000000815260040160405180910390fd5b336001600160a01b03861681146107a0576001600160a01b038087166000908152600560209081526040808320938516835292905220548085111561078a576040517ff3a6b6910000000000000000000000000000000000000000000000000000000081526001600160a01b0380891660048301526024820183905283166044820152606481018690526084016103a9565b61079e87836107998885611fd0565b610b1d565b505b6107ad8686868686610ea5565b505050505050565b6107bd61098d565b61042b82826109ee565b835185511415806107da57508251855114155b806107e757508051855114155b1561081e576040517f263eee8d00000000000000000000000000000000000000000000000000000000815260040160405180910390fd5b60005b85518110156107ad5761089b86828151811061083f5761083f611fa4565b602002602001015186838151811061085957610859611fa4565b602002602001015186848151811061087357610873611fa4565b60200260200101518686868151811061088e5761088e611fa4565b60200260200101516106ac565b600101610821565b6108ab61098d565b6001600160a01b0381166109275760405162461bcd60e51b815260206004820152602660248201527f4f776e61626c653a206e6577206f776e657220697320746865207a65726f206160448201527f646472657373000000000000000000000000000000000000000000000000000060648201526084016103a9565b61093081610d4e565b50565b61093033826000610b1d565b60006001600160e01b031982167f714df77c00000000000000000000000000000000000000000000000000000000148061032857506301ffc9a760e01b6001600160e01b0319831614610328565b6000546001600160a01b03620100009091041633146106905760405162461bcd60e51b815260206004820181905260248201527f4f776e61626c653a2063616c6c6572206973206e6f7420746865206f776e657260448201526064016103a9565b7fdeba1e292f8ba88238e10ab3c7f88bd4be4fac56cad5194b6ecceaf653468af1821415610a48576040517f85c169bd00000000000000000000000000000000000000000000000000000000815260040160405180910390fd5b7f2f0a68ab07768e01943a599e73362a0e17a63a72e94dd2e384d2c1d4db932756821415610aa2576040517f76755b3800000000000000000000000000000000000000000000000000000000815260040160405180910390fd5b60008281526001602090815260409091208251610ac1928401906117d6565b50817fece574603820d07bc9b91f2a932baadf4628aabcb8afba49776529c14a6104b261010083511115610b0257610afd83600061010061102f565b610b04565b825b604051610b119190611c29565b60405180910390a25050565b6001600160a01b038216610b5d576040517f6355e76600000000000000000000000000000000000000000000000000000000815260040160405180910390fd5b826001600160a01b0316826001600160a01b03161415610b7c57505050565b6001600160a01b0380841660009081526005602090815260408083209386168352929052208190558015610bf05780836001600160a01b0316836001600160a01b03167fd66aff874162a96578e919097b6f6d153dfd89a5cec41bb331fdb0c4aec16e2c60405160405180910390a4505050565b826001600160a01b0316826001600160a01b03167f50546e66e5f44d728365dc3908c63bc5cfeeab470722c1677e3073a6ac294aa160405160405180910390a3505050565b6000818152600160205260409020805460609190610c5290611fe7565b80601f0160208091040260200160405190810160405280929190818152602001828054610c7e90611fe7565b8015610ccb5780601f10610ca057610100808354040283529160200191610ccb565b820191906000526020600020905b815481529060010190602001808311610cae57829003601f168201915b50505050509050919050565b600054610100900460ff16610d425760405162461bcd60e51b815260206004820152602b60248201527f496e697469616c697a61626c653a20636f6e7472616374206973206e6f74206960448201526a6e697469616c697a696e6760a81b60648201526084016103a9565b6106a684848484611157565b6000546001600160a01b0382811662010000909204161461093057600080546001600160a01b03838116620100008181027fffffffffffffffffffff0000000000000000000000000000000000000000ffff851617855560405193049190911692909183917f8be0079c531659141344cd1fd0a4f28419497f9722a3daafe3b4186f6b6457e091a35050565b6001600160a01b038416610e0157604051630d2d5ec360e41b815260040160405180910390fd5b33610e0e600086866111db565b6001600160a01b03851660009081526004602052604081208054869290610e3690849061201c565b92505081905550846001600160a01b031660006001600160a01b0316826001600160a01b03167f3997e418d2cef0b3b0e907b1e39605c3f7d32dbd061e82ea5b4a770d46a160a6878787604051610e8f93929190612034565b60405180910390a461060f60008686868661122b565b6001600160a01b0385161580610ec257506001600160a01b038416155b15610ee057604051630d2d5ec360e41b815260040160405180910390fd5b6001600160a01b03851660009081526004602052604090205480841115610f4c576040517f08d47949000000000000000000000000000000000000000000000000000000008152600481018290526001600160a01b0387166024820152604481018590526064016103a9565b33610f588787876111db565b6001600160a01b03871660009081526004602052604081208054879290610f80908490611fd0565b90915550506001600160a01b03861660009081526004602052604081208054879290610fad90849061201c565b92505081905550856001600160a01b0316876001600160a01b0316826001600160a01b03167f3997e418d2cef0b3b0e907b1e39605c3f7d32dbd061e82ea5b4a770d46a160a688888860405161100593929190612034565b60405180910390a461101987878786611395565b611026878787878761122b565b50505050505050565b60608161103d81601f61201c565b101561108b5760405162461bcd60e51b815260206004820152600e60248201527f736c6963655f6f766572666c6f7700000000000000000000000000000000000060448201526064016103a9565b611095828461201c565b845110156110e55760405162461bcd60e51b815260206004820152601160248201527f736c6963655f6f75744f66426f756e647300000000000000000000000000000060448201526064016103a9565b606082158015611104576040519150600082526020820160405261114e565b6040519150601f8416801560200281840101858101878315602002848b0101015b8183101561113d578051835260209283019201611125565b5050858452601f01601f1916604052505b50949350505050565b600054610100900460ff166111c25760405162461bcd60e51b815260206004820152602b60248201527f496e697469616c697a61626c653a20636f6e7472616374206973206e6f74206960448201526a6e697469616c697a696e6760a81b60648201526084016103a9565b6002805460ff19168215151790556106a6848484611469565b6001600160a01b0383166112015780600360008282546111fb919061201c565b90915550505b6001600160a01b0382166104025780600360008282546112219190611fd0565b9091555050505050565b61123c84631aed5a8560e21b611593565b156113065760008585858460405160200161125a949392919061205e565b60408051601f1981840301815290829052631aed5a8560e21b825291506001600160a01b03861690636bb56a14906112b8907fdbe2c314e1aee2970c72666f2ebe8933a8575263ea71e5ff6a9178e95d47a26f9085906004016120ab565b6000604051808303816000875af11580156112d7573d6000803e3d6000fd5b505050506040513d6000823e601f3d908101601f191682016040526112ff91908101906120c4565b505061060f565b8161060f576001600160a01b0384163b15611358576040517fa608fbb60000000000000000000000000000000000000000000000000000000081526001600160a01b03851660048201526024016103a9565b6040517f26c247f40000000000000000000000000000000000000000000000000000000081526001600160a01b03851660048201526024016103a9565b6113a684631aed5a8560e21b611593565b156106a6576000848484846040516020016113c4949392919061205e565b60408051601f1981840301815290829052631aed5a8560e21b825291506001600160a01b03861690636bb56a1490611422907f40b8bec57d7b5ff0dbd9e9acd0a47dfeb0101e1a203766f5ccab00445fbf39e99085906004016120ab565b6000604051808303816000875af1158015611441573d6000803e3d6000fd5b505050506040513d6000823e601f3d908101601f191682016040526107ad91908101906120c4565b600054610100900460ff166114d45760405162461bcd60e51b815260206004820152602b60248201527f496e697469616c697a61626c653a20636f6e7472616374206973206e6f74206960448201526a6e697469616c697a696e6760a81b60648201526084016103a9565b6114dd81611695565b61153f7feafec4d89fa9619884b60000a4d96624a38f7ac2d8d9a604ecf07c12c77e480c60001b6040518060400160405280600481526020017fa4d9662400000000000000000000000000000000000000000000000000000000815250611786565b6115697fdeba1e292f8ba88238e10ab3c7f88bd4be4fac56cad5194b6ecceaf653468af184611786565b6104027f2f0a68ab07768e01943a599e73362a0e17a63a72e94dd2e384d2c1d4db93275683611786565b604080516001600160e01b0319831660248083019190915282518083039091018152604490910182526020810180517bffffffffffffffffffffffffffffffffffffffffffffffffffffffff166301ffc9a760e01b179052905160009190829081906001600160a01b038716906175309061160f908690612132565b6000604051808303818686fa925050503d806000811461164b576040519150601f19603f3d011682016040523d82523d6000602084013e611650565b606091505b509150915060208151101561166b5760009350505050610328565b81801561168b5750600081806020019051810190611689919061214e565b115b9695505050505050565b600054610100900460ff166117005760405162461bcd60e51b815260206004820152602b60248201527f496e697469616c697a61626c653a20636f6e7472616374206973206e6f74206960448201526a6e697469616c697a696e6760a81b60648201526084016103a9565b806001600160a01b03811661177d5760405162461bcd60e51b815260206004820152603260248201527f4f776e61626c653a20636f6e7472616374206f776e65722063616e6e6f74206260448201527f6520746865207a65726f2061646472657373000000000000000000000000000060648201526084016103a9565b61042b82610d4e565b600082815260016020908152604090912082516117a5928401906117d6565b50817fece574603820d07bc9b91f2a932baadf4628aabcb8afba49776529c14a6104b282604051610b119190611c29565b8280546117e290611fe7565b90600052602060002090601f016020900481019282611804576000855561184a565b82601f1061181d57805160ff191683800117855561184a565b8280016001018555821561184a579182015b8281111561184a57825182559160200191906001019061182f565b5061185692915061185a565b5090565b5b80821115611856576000815560010161185b565b60006020828403121561188157600080fd5b81356001600160e01b03198116811461189957600080fd5b9392505050565b634e487b7160e01b600052604160045260246000fd5b604051601f8201601f1916810167ffffffffffffffff811182821017156118df576118df6118a0565b604052919050565b600067ffffffffffffffff821115611901576119016118a0565b5060051b60200190565b600082601f83011261191c57600080fd5b8135602061193161192c836118e7565b6118b6565b82815260059290921b8401810191818101908684111561195057600080fd5b8286015b8481101561196b5780358352918301918301611954565b509695505050505050565b600067ffffffffffffffff821115611990576119906118a0565b50601f01601f191660200190565b600082601f8301126119af57600080fd5b81356119bd61192c82611976565b8181528460208386010111156119d257600080fd5b816020850160208301376000918101602001919091529392505050565b600082601f830112611a0057600080fd5b81356020611a1061192c836118e7565b82815260059290921b84018101918181019086841115611a2f57600080fd5b8286015b8481101561196b57803567ffffffffffffffff811115611a535760008081fd5b611a618986838b010161199e565b845250918301918301611a33565b60008060408385031215611a8257600080fd5b823567ffffffffffffffff80821115611a9a57600080fd5b611aa68683870161190b565b93506020850135915080821115611abc57600080fd5b50611ac9858286016119ef565b9150509250929050565b80356001600160a01b0381168114611aea57600080fd5b919050565b60008060408385031215611b0257600080fd5b611b0b83611ad3565b946020939093013593505050565b600060208284031215611b2b57600080fd5b813567ffffffffffffffff811115611b4257600080fd5b611b4e8482850161190b565b949350505050565b60005b83811015611b71578181015183820152602001611b59565b838111156106a65750506000910152565b60008151808452611b9a816020860160208601611b56565b601f01601f19169290920160200192915050565b6000602080830181845280855180835260408601915060408160051b870101925083870160005b82811015611c0357603f19888603018452611bf1858351611b82565b94509285019290850190600101611bd5565b5092979650505050505050565b600060208284031215611c2257600080fd5b5035919050565b6020815260006118996020830184611b82565b80358015158114611aea57600080fd5b60008060008060808587031215611c6257600080fd5b843567ffffffffffffffff80821115611c7a57600080fd5b611c868883890161199e565b95506020870135915080821115611c9c57600080fd5b50611ca98782880161199e565b935050611cb860408601611ad3565b9150611cc660608601611c3c565b905092959194509250565b60008060408385031215611ce457600080fd5b611ced83611ad3565b9150611cfb60208401611ad3565b90509250929050565b600060208284031215611d1657600080fd5b61189982611ad3565b60008060008060808587031215611d3557600080fd5b611d3e85611ad3565b935060208501359250611d5360408601611c3c565b9150606085013567ffffffffffffffff811115611d6f57600080fd5b611d7b8782880161199e565b91505092959194509250565b600080600080600060a08688031215611d9f57600080fd5b611da886611ad3565b9450611db660208701611ad3565b935060408601359250611dcb60608701611c3c565b9150608086013567ffffffffffffffff811115611de757600080fd5b611df38882890161199e565b9150509295509295909350565b60008060408385031215611e1357600080fd5b82359150602083013567ffffffffffffffff811115611e3157600080fd5b611ac98582860161199e565b600082601f830112611e4e57600080fd5b81356020611e5e61192c836118e7565b82815260059290921b84018101918181019086841115611e7d57600080fd5b8286015b8481101561196b57611e9281611ad3565b8352918301918301611e81565b600080600080600060a08688031215611eb757600080fd5b853567ffffffffffffffff80821115611ecf57600080fd5b611edb89838a01611e3d565b9650602091508188013581811115611ef257600080fd5b611efe8a828b01611e3d565b965050604088013581811115611f1357600080fd5b8801601f81018a13611f2457600080fd5b8035611f3261192c826118e7565b81815260059190911b8201840190848101908c831115611f5157600080fd5b928501925b82841015611f6f57833582529285019290850190611f56565b9750611f819250505060608901611c3c565b93506080880135915080821115611f9757600080fd5b50611df3888289016119ef565b634e487b7160e01b600052603260045260246000fd5b634e487b7160e01b600052601160045260246000fd5b600082821015611fe257611fe2611fba565b500390565b600181811c90821680611ffb57607f821691505b602082108114156104dd57634e487b7160e01b600052602260045260246000fd5b6000821982111561202f5761202f611fba565b500190565b83815282151560208201526060604082015260006120556060830184611b82565b95945050505050565b60006bffffffffffffffffffffffff19808760601b168352808660601b16601484015250836028830152825161209b816048850160208701611b56565b9190910160480195945050505050565b828152604060208201526000611b4e6040830184611b82565b6000602082840312156120d657600080fd5b815167ffffffffffffffff8111156120ed57600080fd5b8201601f810184136120fe57600080fd5b805161210c61192c82611976565b81815285602083850101111561212157600080fd5b612055826020830160208601611b56565b60008251612144818460208701611b56565b9190910192915050565b60006020828403121561216057600080fd5b505191905056fea264697066735822122063ca6993c85def5fa8ca9390074f9c4074f952c2a86bd410384baa7db9ddcaae64736f6c634300080a0033",
  "linkReferences": {},
  "deployedLinkReferences": {}
}