{
  "_format": "hh-sol-artifact-1",
  "contractName": "LSP8CompatibleERC721MintableInit",
  "sourceName": "contracts/LSP8IdentifiableDigitalAsset/presets/LSP8CompatibleERC721MintableInit.sol",
  "abi": [
    {
      "inputs": [],
      "stateMutability": "nonpayable",
      "type": "constructor"
    },
    {
      "inputs": [],
      "name": "LSP4TokenNameNotEditable",
      "type": "error"
    },
    {
      "inputs": [],
      "name": "LSP4TokenSymbolNotEditable",
      "type": "error"
    },
    {
      "inputs": [],
      "name": "LSP8CannotSendToAddressZero",
      "type": "error"
    },
    {
      "inputs": [],
      "name": "LSP8CannotSendToSelf",
      "type": "error"
    },
    {
      "inputs": [],
      "name": "LSP8CannotUseAddressZeroAsOperator",
      "type": "error"
    },
    {
      "inputs": [],
      "name": "LSP8InvalidTransferBatch",
      "type": "error"
    },
    {
      "inputs": [
        {
          "internalType": "bytes32",
          "name": "tokenId",
          "type": "bytes32"
        }
      ],
      "name": "LSP8NonExistentTokenId",
      "type": "error"
    },
    {
      "inputs": [
        {
          "internalType": "address",
          "name": "_address",
          "type": "address"
        },
        {
          "internalType": "bytes32",
          "name": "tokenId",
          "type": "bytes32"
        }
      ],
      "name": "LSP8NonExistingOperator",
      "type": "error"
    },
    {
      "inputs": [
        {
          "internalType": "bytes32",
          "name": "tokenId",
          "type": "bytes32"
        },
        {
          "internalType": "address",
          "name": "caller",
          "type": "address"
        }
      ],
      "name": "LSP8NotTokenOperator",
      "type": "error"
    },
    {
      "inputs": [
        {
          "internalType": "address",
          "name": "tokenOwner",
          "type": "address"
        },
        {
          "internalType": "bytes32",
          "name": "tokenId",
          "type": "bytes32"
        },
        {
          "internalType": "address",
          "name": "caller",
          "type": "address"
        }
      ],
      "name": "LSP8NotTokenOwner",
      "type": "error"
    },
    {
      "inputs": [
        {
          "internalType": "address",
          "name": "tokenReceiver",
          "type": "address"
        }
      ],
      "name": "LSP8NotifyTokenReceiverContractMissingLSP1Interface",
      "type": "error"
    },
    {
      "inputs": [
        {
          "internalType": "address",
          "name": "tokenReceiver",
          "type": "address"
        }
      ],
      "name": "LSP8NotifyTokenReceiverIsEOA",
      "type": "error"
    },
    {
      "inputs": [
        {
          "internalType": "address",
          "name": "operator",
          "type": "address"
        },
        {
          "internalType": "bytes32",
          "name": "tokenId",
          "type": "bytes32"
        }
      ],
      "name": "LSP8OperatorAlreadyAuthorized",
      "type": "error"
    },
    {
      "inputs": [
        {
          "internalType": "bytes32",
          "name": "tokenId",
          "type": "bytes32"
        }
      ],
      "name": "LSP8TokenIdAlreadyMinted",
      "type": "error"
    },
    {
      "anonymous": false,
      "inputs": [
        {
          "indexed": true,
          "internalType": "address",
          "name": "owner",
          "type": "address"
        },
        {
          "indexed": true,
          "internalType": "address",
          "name": "approved",
          "type": "address"
        },
        {
          "indexed": true,
          "internalType": "uint256",
          "name": "tokenId",
          "type": "uint256"
        }
      ],
      "name": "Approval",
      "type": "event"
    },
    {
      "anonymous": false,
      "inputs": [
        {
          "indexed": true,
          "internalType": "address",
          "name": "_owner",
          "type": "address"
        },
        {
          "indexed": true,
          "internalType": "address",
          "name": "_operator",
          "type": "address"
        },
        {
          "indexed": false,
          "internalType": "bool",
          "name": "_approved",
          "type": "bool"
        }
      ],
      "name": "ApprovalForAll",
      "type": "event"
    },
    {
      "anonymous": false,
      "inputs": [
        {
          "indexed": true,
          "internalType": "address",
          "name": "operator",
          "type": "address"
        },
        {
          "indexed": true,
          "internalType": "address",
          "name": "tokenOwner",
          "type": "address"
        },
        {
          "indexed": true,
          "internalType": "bytes32",
          "name": "tokenId",
          "type": "bytes32"
        }
      ],
      "name": "AuthorizedOperator",
      "type": "event"
    },
    {
      "anonymous": false,
      "inputs": [
        {
          "indexed": true,
          "internalType": "bytes32",
          "name": "dataKey",
          "type": "bytes32"
        },
        {
          "indexed": false,
          "internalType": "bytes",
          "name": "dataValue",
          "type": "bytes"
        }
      ],
      "name": "DataChanged",
      "type": "event"
    },
    {
      "anonymous": false,
      "inputs": [
        {
          "indexed": false,
          "internalType": "uint8",
          "name": "version",
          "type": "uint8"
        }
      ],
      "name": "Initialized",
      "type": "event"
    },
    {
      "anonymous": false,
      "inputs": [
        {
          "indexed": true,
          "internalType": "address",
          "name": "previousOwner",
          "type": "address"
        },
        {
          "indexed": true,
          "internalType": "address",
          "name": "newOwner",
          "type": "address"
        }
      ],
      "name": "OwnershipTransferred",
      "type": "event"
    },
    {
      "anonymous": false,
      "inputs": [
        {
          "indexed": true,
          "internalType": "address",
          "name": "operator",
          "type": "address"
        },
        {
          "indexed": true,
          "internalType": "address",
          "name": "tokenOwner",
          "type": "address"
        },
        {
          "indexed": true,
          "internalType": "bytes32",
          "name": "tokenId",
          "type": "bytes32"
        }
      ],
      "name": "RevokedOperator",
      "type": "event"
    },
    {
      "anonymous": false,
      "inputs": [
        {
          "indexed": true,
          "internalType": "address",
          "name": "from",
          "type": "address"
        },
        {
          "indexed": true,
          "internalType": "address",
          "name": "to",
          "type": "address"
        },
        {
          "indexed": true,
          "internalType": "uint256",
          "name": "tokenId",
          "type": "uint256"
        }
      ],
      "name": "Transfer",
      "type": "event"
    },
    {
      "anonymous": false,
      "inputs": [
        {
          "indexed": false,
          "internalType": "address",
          "name": "operator",
          "type": "address"
        },
        {
          "indexed": true,
          "internalType": "address",
          "name": "from",
          "type": "address"
        },
        {
          "indexed": true,
          "internalType": "address",
          "name": "to",
          "type": "address"
        },
        {
          "indexed": true,
          "internalType": "bytes32",
          "name": "tokenId",
          "type": "bytes32"
        },
        {
          "indexed": false,
          "internalType": "bool",
          "name": "force",
          "type": "bool"
        },
        {
          "indexed": false,
          "internalType": "bytes",
          "name": "data",
          "type": "bytes"
        }
      ],
      "name": "Transfer",
      "type": "event"
    },
    {
      "inputs": [
        {
          "internalType": "address",
          "name": "operator",
          "type": "address"
        },
        {
          "internalType": "uint256",
          "name": "tokenId",
          "type": "uint256"
        }
      ],
      "name": "approve",
      "outputs": [],
      "stateMutability": "nonpayable",
      "type": "function"
    },
    {
      "inputs": [
        {
          "internalType": "address",
          "name": "operator",
          "type": "address"
        },
        {
          "internalType": "bytes32",
          "name": "tokenId",
          "type": "bytes32"
        }
      ],
      "name": "authorizeOperator",
      "outputs": [],
      "stateMutability": "nonpayable",
      "type": "function"
    },
    {
      "inputs": [
        {
          "internalType": "address",
          "name": "tokenOwner",
          "type": "address"
        }
      ],
      "name": "balanceOf",
      "outputs": [
        {
          "internalType": "uint256",
          "name": "",
          "type": "uint256"
        }
      ],
      "stateMutability": "view",
      "type": "function"
    },
    {
      "inputs": [
        {
          "internalType": "uint256",
          "name": "tokenId",
          "type": "uint256"
        }
      ],
      "name": "getApproved",
      "outputs": [
        {
          "internalType": "address",
          "name": "",
          "type": "address"
        }
      ],
      "stateMutability": "view",
      "type": "function"
    },
    {
      "inputs": [
        {
          "internalType": "bytes32[]",
          "name": "dataKeys",
          "type": "bytes32[]"
        }
      ],
      "name": "getData",
      "outputs": [
        {
          "internalType": "bytes[]",
          "name": "dataValues",
          "type": "bytes[]"
        }
      ],
      "stateMutability": "view",
      "type": "function"
    },
    {
      "inputs": [
        {
          "internalType": "bytes32",
          "name": "dataKey",
          "type": "bytes32"
        }
      ],
      "name": "getData",
      "outputs": [
        {
          "internalType": "bytes",
          "name": "dataValue",
          "type": "bytes"
        }
      ],
      "stateMutability": "view",
      "type": "function"
    },
    {
      "inputs": [
        {
          "internalType": "bytes32",
          "name": "tokenId",
          "type": "bytes32"
        }
      ],
      "name": "getOperatorsOf",
      "outputs": [
        {
          "internalType": "address[]",
          "name": "",
          "type": "address[]"
        }
      ],
      "stateMutability": "view",
      "type": "function"
    },
    {
      "inputs": [
        {
          "internalType": "string",
          "name": "name_",
          "type": "string"
        },
        {
          "internalType": "string",
          "name": "symbol_",
          "type": "string"
        },
        {
          "internalType": "address",
          "name": "newOwner_",
          "type": "address"
        }
      ],
      "name": "initialize",
      "outputs": [],
      "stateMutability": "nonpayable",
      "type": "function"
    },
    {
      "inputs": [
        {
          "internalType": "address",
          "name": "tokenOwner",
          "type": "address"
        },
        {
          "internalType": "address",
          "name": "operator",
          "type": "address"
        }
      ],
      "name": "isApprovedForAll",
      "outputs": [
        {
          "internalType": "bool",
          "name": "",
          "type": "bool"
        }
      ],
      "stateMutability": "view",
      "type": "function"
    },
    {
      "inputs": [
        {
          "internalType": "address",
          "name": "operator",
          "type": "address"
        },
        {
          "internalType": "bytes32",
          "name": "tokenId",
          "type": "bytes32"
        }
      ],
      "name": "isOperatorFor",
      "outputs": [
        {
          "internalType": "bool",
          "name": "",
          "type": "bool"
        }
      ],
      "stateMutability": "view",
      "type": "function"
    },
    {
      "inputs": [
        {
          "internalType": "address",
          "name": "to",
          "type": "address"
        },
        {
          "internalType": "bytes32",
          "name": "tokenId",
          "type": "bytes32"
        },
        {
          "internalType": "bool",
          "name": "force",
          "type": "bool"
        },
        {
          "internalType": "bytes",
          "name": "data",
          "type": "bytes"
        }
      ],
      "name": "mint",
      "outputs": [],
      "stateMutability": "nonpayable",
      "type": "function"
    },
    {
      "inputs": [],
      "name": "name",
      "outputs": [
        {
          "internalType": "string",
          "name": "",
          "type": "string"
        }
      ],
      "stateMutability": "view",
      "type": "function"
    },
    {
      "inputs": [],
      "name": "owner",
      "outputs": [
        {
          "internalType": "address",
          "name": "",
          "type": "address"
        }
      ],
      "stateMutability": "view",
      "type": "function"
    },
    {
      "inputs": [
        {
          "internalType": "uint256",
          "name": "tokenId",
          "type": "uint256"
        }
      ],
      "name": "ownerOf",
      "outputs": [
        {
          "internalType": "address",
          "name": "",
          "type": "address"
        }
      ],
      "stateMutability": "view",
      "type": "function"
    },
    {
      "inputs": [],
      "name": "renounceOwnership",
      "outputs": [],
      "stateMutability": "nonpayable",
      "type": "function"
    },
    {
      "inputs": [
        {
          "internalType": "address",
          "name": "operator",
          "type": "address"
        },
        {
          "internalType": "bytes32",
          "name": "tokenId",
          "type": "bytes32"
        }
      ],
      "name": "revokeOperator",
      "outputs": [],
      "stateMutability": "nonpayable",
      "type": "function"
    },
    {
      "inputs": [
        {
          "internalType": "address",
          "name": "from",
          "type": "address"
        },
        {
          "internalType": "address",
          "name": "to",
          "type": "address"
        },
        {
          "internalType": "uint256",
          "name": "tokenId",
          "type": "uint256"
        }
      ],
      "name": "safeTransferFrom",
      "outputs": [],
      "stateMutability": "nonpayable",
      "type": "function"
    },
    {
      "inputs": [
        {
          "internalType": "address",
          "name": "from",
          "type": "address"
        },
        {
          "internalType": "address",
          "name": "to",
          "type": "address"
        },
        {
          "internalType": "uint256",
          "name": "tokenId",
          "type": "uint256"
        },
        {
          "internalType": "bytes",
          "name": "data",
          "type": "bytes"
        }
      ],
      "name": "safeTransferFrom",
      "outputs": [],
      "stateMutability": "nonpayable",
      "type": "function"
    },
    {
      "inputs": [
        {
          "internalType": "address",
          "name": "operator",
          "type": "address"
        },
        {
          "internalType": "bool",
          "name": "approved",
          "type": "bool"
        }
      ],
      "name": "setApprovalForAll",
      "outputs": [],
      "stateMutability": "nonpayable",
      "type": "function"
    },
    {
      "inputs": [
        {
          "internalType": "bytes32[]",
          "name": "dataKeys",
          "type": "bytes32[]"
        },
        {
          "internalType": "bytes[]",
          "name": "dataValues",
          "type": "bytes[]"
        }
      ],
      "name": "setData",
      "outputs": [],
      "stateMutability": "nonpayable",
      "type": "function"
    },
    {
      "inputs": [
        {
          "internalType": "bytes32",
          "name": "dataKey",
          "type": "bytes32"
        },
        {
          "internalType": "bytes",
          "name": "dataValue",
          "type": "bytes"
        }
      ],
      "name": "setData",
      "outputs": [],
      "stateMutability": "nonpayable",
      "type": "function"
    },
    {
      "inputs": [
        {
          "internalType": "bytes4",
          "name": "interfaceId",
          "type": "bytes4"
        }
      ],
      "name": "supportsInterface",
      "outputs": [
        {
          "internalType": "bool",
          "name": "",
          "type": "bool"
        }
      ],
      "stateMutability": "view",
      "type": "function"
    },
    {
      "inputs": [],
      "name": "symbol",
      "outputs": [
        {
          "internalType": "string",
          "name": "",
          "type": "string"
        }
      ],
      "stateMutability": "view",
      "type": "function"
    },
    {
      "inputs": [
        {
          "internalType": "address",
          "name": "tokenOwner",
          "type": "address"
        }
      ],
      "name": "tokenIdsOf",
      "outputs": [
        {
          "internalType": "bytes32[]",
          "name": "",
          "type": "bytes32[]"
        }
      ],
      "stateMutability": "view",
      "type": "function"
    },
    {
      "inputs": [
        {
          "internalType": "bytes32",
          "name": "tokenId",
          "type": "bytes32"
        }
      ],
      "name": "tokenOwnerOf",
      "outputs": [
        {
          "internalType": "address",
          "name": "",
          "type": "address"
        }
      ],
      "stateMutability": "view",
      "type": "function"
    },
    {
      "inputs": [
        {
          "internalType": "uint256",
          "name": "tokenId",
          "type": "uint256"
        }
      ],
      "name": "tokenURI",
      "outputs": [
        {
          "internalType": "string",
          "name": "",
          "type": "string"
        }
      ],
      "stateMutability": "view",
      "type": "function"
    },
    {
      "inputs": [],
      "name": "totalSupply",
      "outputs": [
        {
          "internalType": "uint256",
          "name": "",
          "type": "uint256"
        }
      ],
      "stateMutability": "view",
      "type": "function"
    },
    {
      "inputs": [
        {
          "internalType": "address",
          "name": "from",
          "type": "address"
        },
        {
          "internalType": "address",
          "name": "to",
          "type": "address"
        },
        {
          "internalType": "bytes32",
          "name": "tokenId",
          "type": "bytes32"
        },
        {
          "internalType": "bool",
          "name": "force",
          "type": "bool"
        },
        {
          "internalType": "bytes",
          "name": "data",
          "type": "bytes"
        }
      ],
      "name": "transfer",
      "outputs": [],
      "stateMutability": "nonpayable",
      "type": "function"
    },
    {
      "inputs": [
        {
          "internalType": "address[]",
          "name": "from",
          "type": "address[]"
        },
        {
          "internalType": "address[]",
          "name": "to",
          "type": "address[]"
        },
        {
          "internalType": "bytes32[]",
          "name": "tokenId",
          "type": "bytes32[]"
        },
        {
          "internalType": "bool",
          "name": "force",
          "type": "bool"
        },
        {
          "internalType": "bytes[]",
          "name": "data",
          "type": "bytes[]"
        }
      ],
      "name": "transferBatch",
      "outputs": [],
      "stateMutability": "nonpayable",
      "type": "function"
    },
    {
      "inputs": [
        {
          "internalType": "address",
          "name": "from",
          "type": "address"
        },
        {
          "internalType": "address",
          "name": "to",
          "type": "address"
        },
        {
          "internalType": "uint256",
          "name": "tokenId",
          "type": "uint256"
        }
      ],
      "name": "transferFrom",
      "outputs": [],
      "stateMutability": "nonpayable",
      "type": "function"
    },
    {
      "inputs": [
        {
          "internalType": "address",
          "name": "newOwner",
          "type": "address"
        }
      ],
      "name": "transferOwnership",
      "outputs": [],
      "stateMutability": "nonpayable",
      "type": "function"
    }
  ],
  "bytecode": "0x60806040523480156200001157600080fd5b506200001c62000022565b620000e4565b600054610100900460ff16156200008f5760405162461bcd60e51b815260206004820152602760248201527f496e697469616c697a61626c653a20636f6e747261637420697320696e697469604482015266616c697a696e6760c81b606482015260840160405180910390fd5b60005460ff9081161015620000e2576000805460ff191660ff9081179091556040519081527f7f26b83ff96e1f2b6a682f133852f6798a09c465da95921460cefb38474024989060200160405180910390a15b565b612d9880620000f46000396000f3fe608060405234801561001057600080fd5b50600436106101e55760003560e01c806354f6127f1161010f578063a22cb465116100a2578063c87b56dd11610071578063c87b56dd14610430578063cf5182ba14610443578063e985e9c514610456578063f2fde38b1461049257600080fd5b8063a22cb465146103d7578063a3b261f2146103ea578063af255b611461040a578063b88d4fde1461041d57600080fd5b8063715018a6116100de578063715018a61461039d5780637f23690c146103a55780638da5cb5b146103b857806395d89b41146103cf57600080fd5b806354f6127f1461035157806355908868146103645780636352211e1461037757806370a082311461038a57600080fd5b806318160ddd1161018757806342842e0e1161015657806342842e0e146102eb57806349a6078d146102fe5780634e3e6e9c1461031e578063511b69521461033e57600080fd5b806318160ddd146102a0578063217b2270146102b257806323b872dd146102c55780632a3654a4146102d857600080fd5b8063081812fc116101c3578063081812fc1461023c578063095ea7b3146102675780630b0c6d821461027a57806314a6e2931461028d57600080fd5b806301ffc9a7146101ea57806306fdde0314610212578063077f224a14610227575b600080fd5b6101fd6101f836600461238d565b6104a5565b60405190151581526020015b60405180910390f35b61021a61051d565b604051610209919061240f565b61023a610235366004612503565b61054a565b005b61024f61024a366004612577565b610675565b6040516001600160a01b039091168152602001610209565b61023a610275366004612590565b6106c9565b61023a610288366004612590565b610720565b61023a61029b3660046126c4565b6107c3565b6002545b604051908152602001610209565b61024f6102c0366004612577565b610897565b61023a6102d3366004612728565b6108d0565b6101fd6102e6366004612590565b6108f0565b61023a6102f9366004612728565b61090c565b61031161030c366004612577565b61092c565b6040516102099190612764565b61033161032c3660046127b1565b61094e565b60405161020991906127e6565b61023a61034c366004612858565b610a02565b61021a61035f366004612577565b610a51565b61023a610372366004612933565b610a5c565b61024f610385366004612577565b610b38565b6102a46103983660046129e4565b610b43565b61023a610b64565b61023a6103b33660046129ff565b610b78565b6000546201000090046001600160a01b031661024f565b61021a610b8e565b61023a6103e5366004612a3c565b610bbb565b6103fd6103f83660046129e4565b610bc6565b6040516102099190612a6f565b61023a610418366004612aa7565b610bea565b61023a61042b366004612b0f565b610bfe565b61021a61043e366004612577565b610c0c565b61023a610451366004612590565b610c5a565b6101fd610464366004612b5f565b6001600160a01b03918216600090815260076020908152604080832093909416825291909152205460ff1690565b61023a6104a03660046129e4565b610c64565b60006001600160e01b031982167f80ac58cd00000000000000000000000000000000000000000000000000000000148061050857506001600160e01b031982167f5b5e139f00000000000000000000000000000000000000000000000000000000145b80610517575061051782610cf4565b92915050565b606060006105177fdeba1e292f8ba88238e10ab3c7f88bd4be4fac56cad5194b6ecceaf653468af1610d32565b600054610100900460ff161580801561056a5750600054600160ff909116105b806105845750303b158015610584575060005460ff166001145b6105fb5760405162461bcd60e51b815260206004820152602e60248201527f496e697469616c697a61626c653a20636f6e747261637420697320616c72656160448201527f647920696e697469616c697a656400000000000000000000000000000000000060648201526084015b60405180910390fd5b6000805460ff19166001179055801561061e576000805461ff0019166101001790555b610629848484610dd4565b801561066f576000805461ff0019169055604051600181527f7f26b83ff96e1f2b6a682f133852f6798a09c465da95921460cefb38474024989060200160405180910390a15b50505050565b60008161068181610e4a565b60008181526005602052604081209061069982610e82565b9050806106ab57506000949350505050565b6106c06106b9600183612b9f565b8390610e8c565b95945050505050565b6106d38282610c5a565b806001600160a01b0383166106e782610897565b6001600160a01b03167f8c5be1e5ebec7d5bd14f71427d1e84f3dd0314c0f7b2291e5b200ac8c7c3b92560405160405180910390a45050565b600061072b82610897565b9050336001600160a01b038216811461077157604051632d938f5160e11b81526001600160a01b03808416600483015260248201859052821660448201526064016105f2565b6001600160a01b03841661079857604051639577b8b360e01b815260040160405180910390fd5b836001600160a01b0316826001600160a01b031614156107b85750505050565b61066f848385610e98565b6107cb610f42565b80518251146108425760405162461bcd60e51b815260206004820152602660248201527f4b657973206c656e677468206e6f7420657175616c20746f2076616c7565732060448201527f6c656e677468000000000000000000000000000000000000000000000000000060648201526084016105f2565b60005b82518110156108925761088a83828151811061086357610863612bb6565b602002602001015183838151811061087d5761087d612bb6565b6020026020010151610fa3565b600101610845565b505050565b6000818152600360205260408120546001600160a01b03168061051757604051635747cd1b60e11b8152600481018490526024016105f2565b61089283838360001b600160405180602001604052806000815250610fad565b60006108fb82610e4a565b6109058383610fc1565b9392505050565b61089283838360001b600060405180602001604052806000815250610fad565b606061093782610e4a565b60008281526005602052604090206105179061100a565b6060815167ffffffffffffffff81111561096a5761096a612422565b60405190808252806020026020018201604052801561099d57816020015b60608152602001906001900390816109885790505b50905060005b82518110156109fc576109ce8382815181106109c1576109c1612bb6565b6020026020010151610d32565b8282815181106109e0576109e0612bb6565b60200260200101819052506109f58160010190565b90506109a3565b50919050565b33610a0d8185610fc1565b610a3c57604051631294d2a960e01b8152600481018590526001600160a01b03821660248201526044016105f2565b610a498686868686610fad565b505050505050565b606061051782610d32565b83518551141580610a6f57508251855114155b80610a7c57508051855114155b15610ab3576040517f93a8311900000000000000000000000000000000000000000000000000000000815260040160405180910390fd5b60005b8551811015610a4957610b30868281518110610ad457610ad4612bb6565b6020026020010151868381518110610aee57610aee612bb6565b6020026020010151868481518110610b0857610b08612bb6565b602002602001015186868681518110610b2357610b23612bb6565b6020026020010151610a02565b600101610ab6565b600061051782610897565b6001600160a01b038116600090815260046020526040812061051790610e82565b610b6c610f42565b610b766000611017565b565b610b80610f42565b610b8a8282610fa3565b5050565b606060006105177f2f0a68ab07768e01943a599e73362a0e17a63a72e94dd2e384d2c1d4db932756610d32565b610b8a3383836110a3565b6001600160a01b038116600090815260046020526040902060609061051790611198565b610bf2610f42565b61066f848484846111a3565b61066f848484600085610fad565b60606000610c397f9afb95cacc9f95858ec44aa8c3b685511002e30ae54415823f406128b85b238e610d32565b905060006024905060006106c08383848651610c559190612b9f565b6111af565b610b8a82826112d7565b610c6c610f42565b6001600160a01b038116610ce85760405162461bcd60e51b815260206004820152602660248201527f4f776e61626c653a206e6577206f776e657220697320746865207a65726f206160448201527f646472657373000000000000000000000000000000000000000000000000000060648201526084016105f2565b610cf181611017565b50565b60006001600160e01b031982167f493991450000000000000000000000000000000000000000000000000000000014806105175750610517826112e1565b6000818152600160205260409020805460609190610d4f90612bcc565b80601f0160208091040260200160405190810160405280929190818152602001828054610d7b90612bcc565b8015610dc85780601f10610d9d57610100808354040283529160200191610dc8565b820191906000526020600020905b815481529060010190602001808311610dab57829003601f168201915b50505050509050919050565b600054610100900460ff16610e3f5760405162461bcd60e51b815260206004820152602b60248201527f496e697469616c697a61626c653a20636f6e7472616374206973206e6f74206960448201526a6e697469616c697a696e6760a81b60648201526084016105f2565b61089283838361132f565b6000818152600360205260409020546001600160a01b0316610cf157604051635747cd1b60e11b8152600481018290526024016105f2565b6000610517825490565b600061090583836113a5565b6000818152600560205260408120610eb090856113cf565b905080610efb576040517f4aa31a8c0000000000000000000000000000000000000000000000000000000081526001600160a01b0385166004820152602481018390526044016105f2565b81836001600160a01b0316856001600160a01b03167f17d5389f6ab6adb2647dfa0aa365c323d37adacc30b33a65310b6158ce1373d560405160405180910390a450505050565b6000546001600160a01b0362010000909104163314610b765760405162461bcd60e51b815260206004820181905260248201527f4f776e61626c653a2063616c6c6572206973206e6f7420746865206f776e657260448201526064016105f2565b610b8a82826113e4565b610fba8585858585611513565b5050505050565b600080610fcd83610897565b9050806001600160a01b0316846001600160a01b031614806110025750600083815260056020526040902061100290856115cf565b949350505050565b60606000610905836115f1565b6000546001600160a01b03828116620100009092041614610cf157600080546001600160a01b03838116620100008181027fffffffffffffffffffff0000000000000000000000000000000000000000ffff851617855560405193049190911692909183917f8be0079c531659141344cd1fd0a4f28419497f9722a3daafe3b4186f6b6457e091a35050565b816001600160a01b0316836001600160a01b0316141561112b5760405162461bcd60e51b815260206004820152602760248201527f4c535038436f6d70617469626c654552433732313a20617070726f766520746f60448201527f2063616c6c65720000000000000000000000000000000000000000000000000060648201526084016105f2565b6001600160a01b03838116600081815260076020908152604080832094871680845294825291829020805460ff191686151590811790915591519182527f17307eab39ab6107e8899845ad3d59bd9653f200f220920489ca2b5937696c31910160405180910390a3505050565b6060610517826115f1565b61066f8484848461164c565b6060816111bd81601f612c01565b101561120b5760405162461bcd60e51b815260206004820152600e60248201527f736c6963655f6f766572666c6f7700000000000000000000000000000000000060448201526064016105f2565b6112158284612c01565b845110156112655760405162461bcd60e51b815260206004820152601160248201527f736c6963655f6f75744f66426f756e647300000000000000000000000000000060448201526064016105f2565b60608215801561128457604051915060008252602082016040526112ce565b6040519150601f8416801560200281840101858101878315602002848b0101015b818310156112bd5780518352602092830192016112a5565b5050858452601f01601f1916604052505b50949350505050565b6106d38282611696565b60006001600160e01b031982167f714df77c00000000000000000000000000000000000000000000000000000000148061051757506301ffc9a760e01b6001600160e01b0319831614610517565b600054610100900460ff1661139a5760405162461bcd60e51b815260206004820152602b60248201527f496e697469616c697a61626c653a20636f6e7472616374206973206e6f74206960448201526a6e697469616c697a696e6760a81b60648201526084016105f2565b6108928383836117d9565b60008260000182815481106113bc576113bc612bb6565b9060005260206000200154905092915050565b6000610905836001600160a01b03841661184f565b7fdeba1e292f8ba88238e10ab3c7f88bd4be4fac56cad5194b6ecceaf653468af182141561143e576040517f85c169bd00000000000000000000000000000000000000000000000000000000815260040160405180910390fd5b7f2f0a68ab07768e01943a599e73362a0e17a63a72e94dd2e384d2c1d4db932756821415611498576040517f76755b3800000000000000000000000000000000000000000000000000000000815260040160405180910390fd5b600082815260016020908152604090912082516114b7928401906122f4565b50817fece574603820d07bc9b91f2a932baadf4628aabcb8afba49776529c14a6104b2610100835111156114f8576114f38360006101006111af565b6114fa565b825b604051611507919061240f565b60405180910390a25050565b6001600160a01b03851660009081526007602090815260408083203380855292529091205460ff1615801561154f575061154d8185610fc1565b155b1561157f57604051631294d2a960e01b8152600481018590526001600160a01b03821660248201526044016105f2565b61158c8686868686611942565b60405184906001600160a01b0380881691908916907fddf252ad1be2c89b69c2b068fc378daa952ba7f163c4a11628f55a4df523b3ef90600090a4505050505050565b6001600160a01b03811660009081526001830160205260408120541515610905565b606081600001805480602002602001604051908101604052809291908181526020018280548015610dc857602002820191906000526020600020905b81548152602001906001019080831161162d5750505050509050919050565b61165884848484611b07565b60405183906001600160a01b038616906000907fddf252ad1be2c89b69c2b068fc378daa952ba7f163c4a11628f55a4df523b3ef908290a450505050565b60006116a182610897565b9050336001600160a01b03821681146116e757604051632d938f5160e11b81526001600160a01b03808416600483015260248201859052821660448201526064016105f2565b6001600160a01b03841661170e57604051639577b8b360e01b815260040160405180910390fd5b836001600160a01b0316826001600160a01b0316141561172e5750505050565b60008381526005602052604081206117469086611c34565b905080611791576040517fa7626b680000000000000000000000000000000000000000000000000000000081526001600160a01b0386166004820152602481018590526044016105f2565b83836001600160a01b0316866001600160a01b03167f34b797fc5a526f7bf1d2b5de25f6564fd85ae364e3ee939aee7c1ac27871a98860405160405180910390a45050505050565b600054610100900460ff166118445760405162461bcd60e51b815260206004820152602b60248201527f496e697469616c697a61626c653a20636f6e7472616374206973206e6f74206960448201526a6e697469616c697a696e6760a81b60648201526084016105f2565b610892838383611c49565b60008181526001830160205260408120548015611938576000611873600183612b9f565b855490915060009061188790600190612b9f565b90508181146118ec5760008660000182815481106118a7576118a7612bb6565b90600052602060002001549050808760000184815481106118ca576118ca612bb6565b6000918252602080832090910192909255918252600188019052604090208390555b85548690806118fd576118fd612c19565b600190038181906000526020600020016000905590558560010160008681526020019081526020016000206000905560019350505050610517565b6000915050610517565b836001600160a01b0316856001600160a01b0316141561198e576040517f5d67d6c100000000000000000000000000000000000000000000000000000000815260040160405180910390fd5b600061199984610897565b9050856001600160a01b0316816001600160a01b0316146119e757604051632d938f5160e11b81526001600160a01b03808316600483015260248201869052871660448201526064016105f2565b6001600160a01b038516611a0e576040516324ecef4d60e01b815260040160405180910390fd5b33611a1a878787611d73565b611a248786611dc5565b6001600160a01b0387166000908152600460205260409020611a469086611e0c565b506001600160a01b0386166000908152600460205260409020611a699086611e18565b5060008581526003602052604090819020805473ffffffffffffffffffffffffffffffffffffffff19166001600160a01b0389811691821790925591518792918a16907fb333c813a7426a7a11e2b190cad52c44119421594b47f6f32ace6d8c7207b2bf90611add9086908a908a90612c2f565b60405180910390a4611af187878786611e24565b611afe8787878787611ef8565b50505050505050565b6001600160a01b038416611b2e576040516324ecef4d60e01b815260040160405180910390fd5b6000838152600360205260409020546001600160a01b031615611b80576040517f34c7b511000000000000000000000000000000000000000000000000000000008152600481018490526024016105f2565b33611b8d60008686611d73565b6001600160a01b0385166000908152600460205260409020611baf9085611e18565b50600084815260036020526040808220805473ffffffffffffffffffffffffffffffffffffffff19166001600160a01b03891690811790915590518692907fb333c813a7426a7a11e2b190cad52c44119421594b47f6f32ace6d8c7207b2bf90611c1e90869089908990612c2f565b60405180910390a4610fba600086868686611ef8565b6000610905836001600160a01b038416612062565b600054610100900460ff16611cb45760405162461bcd60e51b815260206004820152602b60248201527f496e697469616c697a61626c653a20636f6e7472616374206973206e6f74206960448201526a6e697469616c697a696e6760a81b60648201526084016105f2565b611cbd816120b1565b611d1f7feafec4d89fa9619884b60000a4d96624a38f7ac2d8d9a604ecf07c12c77e480c60001b6040518060400160405280600481526020017fa4d96624000000000000000000000000000000000000000000000000000000008152506121a2565b611d497fdeba1e292f8ba88238e10ab3c7f88bd4be4fac56cad5194b6ecceaf653468af1846121a2565b6108927f2f0a68ab07768e01943a599e73362a0e17a63a72e94dd2e384d2c1d4db932756836121a2565b6001600160a01b038316611d9a57600160026000828254611d949190612c01565b90915550505b6001600160a01b03821661089257600160026000828254611dbb9190612b9f565b9091555050505050565b600081815260056020526040812090611ddd82610e82565b905060005b81811015610fba576000611df68482610e8c565b9050611e03818787610e98565b50600101611de2565b6000610905838361184f565b60006109058383612062565b611e3584631aed5a8560e21b6121f2565b1561066f57600084848484604051602001611e539493929190612c59565b60408051601f1981840301815290829052631aed5a8560e21b825291506001600160a01b03861690636bb56a1490611eb1907f3724c94f0815e936299cca424da4140752198e0beb7931a6e0925d11bc97544c908590600401612ca6565b6000604051808303816000875af1158015611ed0573d6000803e3d6000fd5b505050506040513d6000823e601f3d908101601f19168201604052610a499190810190612cbf565b611f0984631aed5a8560e21b6121f2565b15611fd357600085858584604051602001611f279493929190612c59565b60408051601f1981840301815290829052631aed5a8560e21b825291506001600160a01b03861690636bb56a1490611f85907fc7a120a42b6057a0cbed111fbbfbd52fcd96748c04394f77fc2c3adbe0391e01908590600401612ca6565b6000604051808303816000875af1158015611fa4573d6000803e3d6000fd5b505050506040513d6000823e601f3d908101601f19168201604052611fcc9190810190612cbf565b5050610fba565b81610fba576001600160a01b0384163b15612025576040517f4349776d0000000000000000000000000000000000000000000000000000000081526001600160a01b03851660048201526024016105f2565b6040517f031731370000000000000000000000000000000000000000000000000000000081526001600160a01b03851660048201526024016105f2565b60008181526001830160205260408120546120a957508154600181810184556000848152602080822090930184905584548482528286019093526040902091909155610517565b506000610517565b600054610100900460ff1661211c5760405162461bcd60e51b815260206004820152602b60248201527f496e697469616c697a61626c653a20636f6e7472616374206973206e6f74206960448201526a6e697469616c697a696e6760a81b60648201526084016105f2565b806001600160a01b0381166121995760405162461bcd60e51b815260206004820152603260248201527f4f776e61626c653a20636f6e7472616374206f776e65722063616e6e6f74206260448201527f6520746865207a65726f2061646472657373000000000000000000000000000060648201526084016105f2565b610b8a82611017565b600082815260016020908152604090912082516121c1928401906122f4565b50817fece574603820d07bc9b91f2a932baadf4628aabcb8afba49776529c14a6104b282604051611507919061240f565b604080516001600160e01b0319831660248083019190915282518083039091018152604490910182526020810180517bffffffffffffffffffffffffffffffffffffffffffffffffffffffff166301ffc9a760e01b179052905160009190829081906001600160a01b038716906175309061226e908690612d2d565b6000604051808303818686fa925050503d80600081146122aa576040519150601f19603f3d011682016040523d82523d6000602084013e6122af565b606091505b50915091506020815110156122ca5760009350505050610517565b8180156122ea57506000818060200190518101906122e89190612d49565b115b9695505050505050565b82805461230090612bcc565b90600052602060002090601f0160209004810192826123225760008555612368565b82601f1061233b57805160ff1916838001178555612368565b82800160010185558215612368579182015b8281111561236857825182559160200191906001019061234d565b50612374929150612378565b5090565b5b808211156123745760008155600101612379565b60006020828403121561239f57600080fd5b81356001600160e01b03198116811461090557600080fd5b60005b838110156123d25781810151838201526020016123ba565b8381111561066f5750506000910152565b600081518084526123fb8160208601602086016123b7565b601f01601f19169290920160200192915050565b60208152600061090560208301846123e3565b634e487b7160e01b600052604160045260246000fd5b604051601f8201601f1916810167ffffffffffffffff8111828210171561246157612461612422565b604052919050565b600067ffffffffffffffff82111561248357612483612422565b50601f01601f191660200190565b600082601f8301126124a257600080fd5b81356124b56124b082612469565b612438565b8181528460208386010111156124ca57600080fd5b816020850160208301376000918101602001919091529392505050565b80356001600160a01b03811681146124fe57600080fd5b919050565b60008060006060848603121561251857600080fd5b833567ffffffffffffffff8082111561253057600080fd5b61253c87838801612491565b9450602086013591508082111561255257600080fd5b5061255f86828701612491565b92505061256e604085016124e7565b90509250925092565b60006020828403121561258957600080fd5b5035919050565b600080604083850312156125a357600080fd5b6125ac836124e7565b946020939093013593505050565b600067ffffffffffffffff8211156125d4576125d4612422565b5060051b60200190565b600082601f8301126125ef57600080fd5b813560206125ff6124b0836125ba565b82815260059290921b8401810191818101908684111561261e57600080fd5b8286015b848110156126395780358352918301918301612622565b509695505050505050565b600082601f83011261265557600080fd5b813560206126656124b0836125ba565b82815260059290921b8401810191818101908684111561268457600080fd5b8286015b8481101561263957803567ffffffffffffffff8111156126a85760008081fd5b6126b68986838b0101612491565b845250918301918301612688565b600080604083850312156126d757600080fd5b823567ffffffffffffffff808211156126ef57600080fd5b6126fb868387016125de565b9350602085013591508082111561271157600080fd5b5061271e85828601612644565b9150509250929050565b60008060006060848603121561273d57600080fd5b612746846124e7565b9250612754602085016124e7565b9150604084013590509250925092565b6020808252825182820181905260009190848201906040850190845b818110156127a55783516001600160a01b031683529284019291840191600101612780565b50909695505050505050565b6000602082840312156127c357600080fd5b813567ffffffffffffffff8111156127da57600080fd5b611002848285016125de565b6000602080830181845280855180835260408601915060408160051b870101925083870160005b8281101561283b57603f198886030184526128298583516123e3565b9450928501929085019060010161280d565b5092979650505050505050565b803580151581146124fe57600080fd5b600080600080600060a0868803121561287057600080fd5b612879866124e7565b9450612887602087016124e7565b93506040860135925061289c60608701612848565b9150608086013567ffffffffffffffff8111156128b857600080fd5b6128c488828901612491565b9150509295509295909350565b600082601f8301126128e257600080fd5b813560206128f26124b0836125ba565b82815260059290921b8401810191818101908684111561291157600080fd5b8286015b8481101561263957612926816124e7565b8352918301918301612915565b600080600080600060a0868803121561294b57600080fd5b853567ffffffffffffffff8082111561296357600080fd5b61296f89838a016128d1565b9650602088013591508082111561298557600080fd5b61299189838a016128d1565b955060408801359150808211156129a757600080fd5b6129b389838a016125de565b94506129c160608901612848565b935060808801359150808211156129d757600080fd5b506128c488828901612644565b6000602082840312156129f657600080fd5b610905826124e7565b60008060408385031215612a1257600080fd5b82359150602083013567ffffffffffffffff811115612a3057600080fd5b61271e85828601612491565b60008060408385031215612a4f57600080fd5b612a58836124e7565b9150612a6660208401612848565b90509250929050565b6020808252825182820181905260009190848201906040850190845b818110156127a557835183529284019291840191600101612a8b565b60008060008060808587031215612abd57600080fd5b612ac6856124e7565b935060208501359250612adb60408601612848565b9150606085013567ffffffffffffffff811115612af757600080fd5b612b0387828801612491565b91505092959194509250565b60008060008060808587031215612b2557600080fd5b612b2e856124e7565b9350612b3c602086016124e7565b925060408501359150606085013567ffffffffffffffff811115612af757600080fd5b60008060408385031215612b7257600080fd5b612b7b836124e7565b9150612a66602084016124e7565b634e487b7160e01b600052601160045260246000fd5b600082821015612bb157612bb1612b89565b500390565b634e487b7160e01b600052603260045260246000fd5b600181811c90821680612be057607f821691505b602082108114156109fc57634e487b7160e01b600052602260045260246000fd5b60008219821115612c1457612c14612b89565b500190565b634e487b7160e01b600052603160045260246000fd5b6001600160a01b038416815282151560208201526060604082015260006106c060608301846123e3565b60006bffffffffffffffffffffffff19808760601b168352808660601b166014840152508360288301528251612c968160488501602087016123b7565b9190910160480195945050505050565b82815260406020820152600061100260408301846123e3565b600060208284031215612cd157600080fd5b815167ffffffffffffffff811115612ce857600080fd5b8201601f81018413612cf957600080fd5b8051612d076124b082612469565b818152856020838501011115612d1c57600080fd5b6106c08260208301602086016123b7565b60008251612d3f8184602087016123b7565b9190910192915050565b600060208284031215612d5b57600080fd5b505191905056fea2646970667358221220c1cb98d57b932815b66c24e508dd83f36acd89ad6f38ae59d6abc40281078b5e64736f6c634300080a0033",
  "linkReferences": {},
  "deployedLinkReferences": {}
}