{
  "_format": "hh-sol-artifact-1",
  "contractName": "LSP8MintableInit",
  "sourceName": "contracts/LSP8IdentifiableDigitalAsset/presets/LSP8MintableInit.sol",
  "abi": [
    {
      "inputs": [],
      "stateMutability": "nonpayable",
      "type": "constructor"
    },
    {
      "inputs": [],
      "name": "LSP4TokenNameNotEditable",
      "type": "error"
    },
    {
      "inputs": [],
      "name": "LSP4TokenSymbolNotEditable",
      "type": "error"
    },
    {
      "inputs": [],
      "name": "LSP8CannotSendToAddressZero",
      "type": "error"
    },
    {
      "inputs": [],
      "name": "LSP8CannotSendToSelf",
      "type": "error"
    },
    {
      "inputs": [],
      "name": "LSP8CannotUseAddressZeroAsOperator",
      "type": "error"
    },
    {
      "inputs": [],
      "name": "LSP8InvalidTransferBatch",
      "type": "error"
    },
    {
      "inputs": [
        {
          "internalType": "bytes32",
          "name": "tokenId",
          "type": "bytes32"
        }
      ],
      "name": "LSP8NonExistentTokenId",
      "type": "error"
    },
    {
      "inputs": [
        {
          "internalType": "address",
          "name": "_address",
          "type": "address"
        },
        {
          "internalType": "bytes32",
          "name": "tokenId",
          "type": "bytes32"
        }
      ],
      "name": "LSP8NonExistingOperator",
      "type": "error"
    },
    {
      "inputs": [
        {
          "internalType": "bytes32",
          "name": "tokenId",
          "type": "bytes32"
        },
        {
          "internalType": "address",
          "name": "caller",
          "type": "address"
        }
      ],
      "name": "LSP8NotTokenOperator",
      "type": "error"
    },
    {
      "inputs": [
        {
          "internalType": "address",
          "name": "tokenOwner",
          "type": "address"
        },
        {
          "internalType": "bytes32",
          "name": "tokenId",
          "type": "bytes32"
        },
        {
          "internalType": "address",
          "name": "caller",
          "type": "address"
        }
      ],
      "name": "LSP8NotTokenOwner",
      "type": "error"
    },
    {
      "inputs": [
        {
          "internalType": "address",
          "name": "tokenReceiver",
          "type": "address"
        }
      ],
      "name": "LSP8NotifyTokenReceiverContractMissingLSP1Interface",
      "type": "error"
    },
    {
      "inputs": [
        {
          "internalType": "address",
          "name": "tokenReceiver",
          "type": "address"
        }
      ],
      "name": "LSP8NotifyTokenReceiverIsEOA",
      "type": "error"
    },
    {
      "inputs": [
        {
          "internalType": "address",
          "name": "operator",
          "type": "address"
        },
        {
          "internalType": "bytes32",
          "name": "tokenId",
          "type": "bytes32"
        }
      ],
      "name": "LSP8OperatorAlreadyAuthorized",
      "type": "error"
    },
    {
      "inputs": [
        {
          "internalType": "bytes32",
          "name": "tokenId",
          "type": "bytes32"
        }
      ],
      "name": "LSP8TokenIdAlreadyMinted",
      "type": "error"
    },
    {
      "anonymous": false,
      "inputs": [
        {
          "indexed": true,
          "internalType": "address",
          "name": "operator",
          "type": "address"
        },
        {
          "indexed": true,
          "internalType": "address",
          "name": "tokenOwner",
          "type": "address"
        },
        {
          "indexed": true,
          "internalType": "bytes32",
          "name": "tokenId",
          "type": "bytes32"
        }
      ],
      "name": "AuthorizedOperator",
      "type": "event"
    },
    {
      "anonymous": false,
      "inputs": [
        {
          "indexed": true,
          "internalType": "bytes32",
          "name": "dataKey",
          "type": "bytes32"
        },
        {
          "indexed": false,
          "internalType": "bytes",
          "name": "dataValue",
          "type": "bytes"
        }
      ],
      "name": "DataChanged",
      "type": "event"
    },
    {
      "anonymous": false,
      "inputs": [
        {
          "indexed": false,
          "internalType": "uint8",
          "name": "version",
          "type": "uint8"
        }
      ],
      "name": "Initialized",
      "type": "event"
    },
    {
      "anonymous": false,
      "inputs": [
        {
          "indexed": true,
          "internalType": "address",
          "name": "previousOwner",
          "type": "address"
        },
        {
          "indexed": true,
          "internalType": "address",
          "name": "newOwner",
          "type": "address"
        }
      ],
      "name": "OwnershipTransferred",
      "type": "event"
    },
    {
      "anonymous": false,
      "inputs": [
        {
          "indexed": true,
          "internalType": "address",
          "name": "operator",
          "type": "address"
        },
        {
          "indexed": true,
          "internalType": "address",
          "name": "tokenOwner",
          "type": "address"
        },
        {
          "indexed": true,
          "internalType": "bytes32",
          "name": "tokenId",
          "type": "bytes32"
        }
      ],
      "name": "RevokedOperator",
      "type": "event"
    },
    {
      "anonymous": false,
      "inputs": [
        {
          "indexed": false,
          "internalType": "address",
          "name": "operator",
          "type": "address"
        },
        {
          "indexed": true,
          "internalType": "address",
          "name": "from",
          "type": "address"
        },
        {
          "indexed": true,
          "internalType": "address",
          "name": "to",
          "type": "address"
        },
        {
          "indexed": true,
          "internalType": "bytes32",
          "name": "tokenId",
          "type": "bytes32"
        },
        {
          "indexed": false,
          "internalType": "bool",
          "name": "force",
          "type": "bool"
        },
        {
          "indexed": false,
          "internalType": "bytes",
          "name": "data",
          "type": "bytes"
        }
      ],
      "name": "Transfer",
      "type": "event"
    },
    {
      "inputs": [
        {
          "internalType": "address",
          "name": "operator",
          "type": "address"
        },
        {
          "internalType": "bytes32",
          "name": "tokenId",
          "type": "bytes32"
        }
      ],
      "name": "authorizeOperator",
      "outputs": [],
      "stateMutability": "nonpayable",
      "type": "function"
    },
    {
      "inputs": [
        {
          "internalType": "address",
          "name": "tokenOwner",
          "type": "address"
        }
      ],
      "name": "balanceOf",
      "outputs": [
        {
          "internalType": "uint256",
          "name": "",
          "type": "uint256"
        }
      ],
      "stateMutability": "view",
      "type": "function"
    },
    {
      "inputs": [
        {
          "internalType": "bytes32[]",
          "name": "dataKeys",
          "type": "bytes32[]"
        }
      ],
      "name": "getData",
      "outputs": [
        {
          "internalType": "bytes[]",
          "name": "dataValues",
          "type": "bytes[]"
        }
      ],
      "stateMutability": "view",
      "type": "function"
    },
    {
      "inputs": [
        {
          "internalType": "bytes32",
          "name": "dataKey",
          "type": "bytes32"
        }
      ],
      "name": "getData",
      "outputs": [
        {
          "internalType": "bytes",
          "name": "dataValue",
          "type": "bytes"
        }
      ],
      "stateMutability": "view",
      "type": "function"
    },
    {
      "inputs": [
        {
          "internalType": "bytes32",
          "name": "tokenId",
          "type": "bytes32"
        }
      ],
      "name": "getOperatorsOf",
      "outputs": [
        {
          "internalType": "address[]",
          "name": "",
          "type": "address[]"
        }
      ],
      "stateMutability": "view",
      "type": "function"
    },
    {
      "inputs": [
        {
          "internalType": "string",
          "name": "name_",
          "type": "string"
        },
        {
          "internalType": "string",
          "name": "symbol_",
          "type": "string"
        },
        {
          "internalType": "address",
          "name": "newOwner_",
          "type": "address"
        }
      ],
      "name": "initialize",
      "outputs": [],
      "stateMutability": "nonpayable",
      "type": "function"
    },
    {
      "inputs": [
        {
          "internalType": "address",
          "name": "operator",
          "type": "address"
        },
        {
          "internalType": "bytes32",
          "name": "tokenId",
          "type": "bytes32"
        }
      ],
      "name": "isOperatorFor",
      "outputs": [
        {
          "internalType": "bool",
          "name": "",
          "type": "bool"
        }
      ],
      "stateMutability": "view",
      "type": "function"
    },
    {
      "inputs": [
        {
          "internalType": "address",
          "name": "to",
          "type": "address"
        },
        {
          "internalType": "bytes32",
          "name": "tokenId",
          "type": "bytes32"
        },
        {
          "internalType": "bool",
          "name": "force",
          "type": "bool"
        },
        {
          "internalType": "bytes",
          "name": "data",
          "type": "bytes"
        }
      ],
      "name": "mint",
      "outputs": [],
      "stateMutability": "nonpayable",
      "type": "function"
    },
    {
      "inputs": [],
      "name": "owner",
      "outputs": [
        {
          "internalType": "address",
          "name": "",
          "type": "address"
        }
      ],
      "stateMutability": "view",
      "type": "function"
    },
    {
      "inputs": [],
      "name": "renounceOwnership",
      "outputs": [],
      "stateMutability": "nonpayable",
      "type": "function"
    },
    {
      "inputs": [
        {
          "internalType": "address",
          "name": "operator",
          "type": "address"
        },
        {
          "internalType": "bytes32",
          "name": "tokenId",
          "type": "bytes32"
        }
      ],
      "name": "revokeOperator",
      "outputs": [],
      "stateMutability": "nonpayable",
      "type": "function"
    },
    {
      "inputs": [
        {
          "internalType": "bytes32[]",
          "name": "dataKeys",
          "type": "bytes32[]"
        },
        {
          "internalType": "bytes[]",
          "name": "dataValues",
          "type": "bytes[]"
        }
      ],
      "name": "setData",
      "outputs": [],
      "stateMutability": "nonpayable",
      "type": "function"
    },
    {
      "inputs": [
        {
          "internalType": "bytes32",
          "name": "dataKey",
          "type": "bytes32"
        },
        {
          "internalType": "bytes",
          "name": "dataValue",
          "type": "bytes"
        }
      ],
      "name": "setData",
      "outputs": [],
      "stateMutability": "nonpayable",
      "type": "function"
    },
    {
      "inputs": [
        {
          "internalType": "bytes4",
          "name": "interfaceId",
          "type": "bytes4"
        }
      ],
      "name": "supportsInterface",
      "outputs": [
        {
          "internalType": "bool",
          "name": "",
          "type": "bool"
        }
      ],
      "stateMutability": "view",
      "type": "function"
    },
    {
      "inputs": [
        {
          "internalType": "address",
          "name": "tokenOwner",
          "type": "address"
        }
      ],
      "name": "tokenIdsOf",
      "outputs": [
        {
          "internalType": "bytes32[]",
          "name": "",
          "type": "bytes32[]"
        }
      ],
      "stateMutability": "view",
      "type": "function"
    },
    {
      "inputs": [
        {
          "internalType": "bytes32",
          "name": "tokenId",
          "type": "bytes32"
        }
      ],
      "name": "tokenOwnerOf",
      "outputs": [
        {
          "internalType": "address",
          "name": "",
          "type": "address"
        }
      ],
      "stateMutability": "view",
      "type": "function"
    },
    {
      "inputs": [],
      "name": "totalSupply",
      "outputs": [
        {
          "internalType": "uint256",
          "name": "",
          "type": "uint256"
        }
      ],
      "stateMutability": "view",
      "type": "function"
    },
    {
      "inputs": [
        {
          "internalType": "address",
          "name": "from",
          "type": "address"
        },
        {
          "internalType": "address",
          "name": "to",
          "type": "address"
        },
        {
          "internalType": "bytes32",
          "name": "tokenId",
          "type": "bytes32"
        },
        {
          "internalType": "bool",
          "name": "force",
          "type": "bool"
        },
        {
          "internalType": "bytes",
          "name": "data",
          "type": "bytes"
        }
      ],
      "name": "transfer",
      "outputs": [],
      "stateMutability": "nonpayable",
      "type": "function"
    },
    {
      "inputs": [
        {
          "internalType": "address[]",
          "name": "from",
          "type": "address[]"
        },
        {
          "internalType": "address[]",
          "name": "to",
          "type": "address[]"
        },
        {
          "internalType": "bytes32[]",
          "name": "tokenId",
          "type": "bytes32[]"
        },
        {
          "internalType": "bool",
          "name": "force",
          "type": "bool"
        },
        {
          "internalType": "bytes[]",
          "name": "data",
          "type": "bytes[]"
        }
      ],
      "name": "transferBatch",
      "outputs": [],
      "stateMutability": "nonpayable",
      "type": "function"
    },
    {
      "inputs": [
        {
          "internalType": "address",
          "name": "newOwner",
          "type": "address"
        }
      ],
      "name": "transferOwnership",
      "outputs": [],
      "stateMutability": "nonpayable",
      "type": "function"
    }
  ],
  "bytecode": "0x60806040523480156200001157600080fd5b506200001c62000022565b620000e4565b600054610100900460ff16156200008f5760405162461bcd60e51b815260206004820152602760248201527f496e697469616c697a61626c653a20636f6e747261637420697320696e697469604482015266616c697a696e6760c81b606482015260840160405180910390fd5b60005460ff9081161015620000e2576000805460ff191660ff9081179091556040519081527f7f26b83ff96e1f2b6a682f133852f6798a09c465da95921460cefb38474024989060200160405180910390a15b565b6126a380620000f46000396000f3fe608060405234801561001057600080fd5b506004361061016c5760003560e01c806354f6127f116100cd5780638da5cb5b11610081578063af255b6111610066578063af255b611461030f578063cf5182ba14610322578063f2fde38b1461033557600080fd5b80638da5cb5b146102d8578063a3b261f2146102ef57600080fd5b806370a08231116100b257806370a08231146102aa578063715018a6146102bd5780637f23690c146102c557600080fd5b806354f6127f14610277578063559088681461029757600080fd5b8063217b22701161012457806349a6078d1161010957806349a6078d146102245780634e3e6e9c14610244578063511b69521461026457600080fd5b8063217b2270146101e65780632a3654a41461021157600080fd5b80630b0c6d82116101555780630b0c6d82146101ae57806314a6e293146101c157806318160ddd146101d457600080fd5b806301ffc9a714610171578063077f224a14610199575b600080fd5b61018461017f366004611d78565b610348565b60405190151581526020015b60405180910390f35b6101ac6101a7366004611e83565b61038c565b005b6101ac6101bc366004611ef7565b6104b7565b6101ac6101cf36600461202b565b61055a565b6002545b604051908152602001610190565b6101f96101f436600461208f565b61062e565b6040516001600160a01b039091168152602001610190565b61018461021f366004611ef7565b610667565b61023761023236600461208f565b610683565b60405161019091906120a8565b6102576102523660046120f5565b6106a5565b6040516101909190612182565b6101ac6102723660046121f4565b610759565b61028a61028536600461208f565b6107c1565b604051610190919061226d565b6101ac6102a53660046122e2565b6107cc565b6101d86102b8366004612393565b6108a8565b6101ac6108c9565b6101ac6102d33660046123ae565b6108dd565b6000546201000090046001600160a01b03166101f9565b6103026102fd366004612393565b6108f3565b60405161019091906123eb565b6101ac61031d366004612423565b610917565b6101ac610330366004611ef7565b61092b565b6101ac610343366004612393565b610a6e565b60006001600160e01b031982167f49399145000000000000000000000000000000000000000000000000000000001480610386575061038682610afe565b92915050565b600054610100900460ff16158080156103ac5750600054600160ff909116105b806103c65750303b1580156103c6575060005460ff166001145b61043d5760405162461bcd60e51b815260206004820152602e60248201527f496e697469616c697a61626c653a20636f6e747261637420697320616c72656160448201527f647920696e697469616c697a656400000000000000000000000000000000000060648201526084015b60405180910390fd5b6000805460ff191660011790558015610460576000805461ff0019166101001790555b61046b848484610b4c565b80156104b1576000805461ff0019169055604051600181527f7f26b83ff96e1f2b6a682f133852f6798a09c465da95921460cefb38474024989060200160405180910390a15b50505050565b60006104c28261062e565b9050336001600160a01b038216811461050857604051632d938f5160e11b81526001600160a01b0380841660048301526024820185905282166044820152606401610434565b6001600160a01b03841661052f57604051639577b8b360e01b815260040160405180910390fd5b836001600160a01b0316826001600160a01b0316141561054f5750505050565b6104b1848385610bc2565b610562610c6c565b80518251146105d95760405162461bcd60e51b815260206004820152602660248201527f4b657973206c656e677468206e6f7420657175616c20746f2076616c7565732060448201527f6c656e67746800000000000000000000000000000000000000000000000000006064820152608401610434565b60005b8251811015610629576106218382815181106105fa576105fa61248b565b60200260200101518383815181106106145761061461248b565b6020026020010151610ccd565b6001016105dc565b505050565b6000818152600360205260408120546001600160a01b03168061038657604051635747cd1b60e11b815260048101849052602401610434565b600061067282610dfc565b61067c8383610e34565b9392505050565b606061068e82610dfc565b600082815260056020526040902061038690610e7d565b6060815167ffffffffffffffff8111156106c1576106c1611da2565b6040519080825280602002602001820160405280156106f457816020015b60608152602001906001900390816106df5790505b50905060005b8251811015610753576107258382815181106107185761071861248b565b6020026020010151610e8a565b8282815181106107375761073761248b565b602002602001018190525061074c8160010190565b90506106fa565b50919050565b336107648185610e34565b6107ac576040517f1294d2a9000000000000000000000000000000000000000000000000000000008152600481018590526001600160a01b0382166024820152604401610434565b6107b98686868686610f2c565b505050505050565b606061038682610e8a565b835185511415806107df57508251855114155b806107ec57508051855114155b15610823576040517f93a8311900000000000000000000000000000000000000000000000000000000815260040160405180910390fd5b60005b85518110156107b9576108a08682815181106108445761084461248b565b602002602001015186838151811061085e5761085e61248b565b60200260200101518684815181106108785761087861248b565b6020026020010151868686815181106108935761089361248b565b6020026020010151610759565b600101610826565b6001600160a01b0381166000908152600460205260408120610386906110f1565b6108d1610c6c565b6108db60006110fb565b565b6108e5610c6c565b6108ef8282610ccd565b5050565b6001600160a01b038116600090815260046020526040902060609061038690611187565b61091f610c6c565b6104b184848484611192565b60006109368261062e565b9050336001600160a01b038216811461097c57604051632d938f5160e11b81526001600160a01b0380841660048301526024820185905282166044820152606401610434565b6001600160a01b0384166109a357604051639577b8b360e01b815260040160405180910390fd5b836001600160a01b0316826001600160a01b031614156109c35750505050565b60008381526005602052604081206109db90866112c6565b905080610a26576040517fa7626b680000000000000000000000000000000000000000000000000000000081526001600160a01b038616600482015260248101859052604401610434565b83836001600160a01b0316866001600160a01b03167f34b797fc5a526f7bf1d2b5de25f6564fd85ae364e3ee939aee7c1ac27871a98860405160405180910390a45050505050565b610a76610c6c565b6001600160a01b038116610af25760405162461bcd60e51b815260206004820152602660248201527f4f776e61626c653a206e6577206f776e657220697320746865207a65726f206160448201527f64647265737300000000000000000000000000000000000000000000000000006064820152608401610434565b610afb816110fb565b50565b60006001600160e01b031982167f714df77c00000000000000000000000000000000000000000000000000000000148061038657506301ffc9a760e01b6001600160e01b0319831614610386565b600054610100900460ff16610bb75760405162461bcd60e51b815260206004820152602b60248201527f496e697469616c697a61626c653a20636f6e7472616374206973206e6f74206960448201526a6e697469616c697a696e6760a81b6064820152608401610434565b6106298383836112db565b6000818152600560205260408120610bda9085611351565b905080610c25576040517f4aa31a8c0000000000000000000000000000000000000000000000000000000081526001600160a01b038516600482015260248101839052604401610434565b81836001600160a01b0316856001600160a01b03167f17d5389f6ab6adb2647dfa0aa365c323d37adacc30b33a65310b6158ce1373d560405160405180910390a450505050565b6000546001600160a01b03620100009091041633146108db5760405162461bcd60e51b815260206004820181905260248201527f4f776e61626c653a2063616c6c6572206973206e6f7420746865206f776e65726044820152606401610434565b7fdeba1e292f8ba88238e10ab3c7f88bd4be4fac56cad5194b6ecceaf653468af1821415610d27576040517f85c169bd00000000000000000000000000000000000000000000000000000000815260040160405180910390fd5b7f2f0a68ab07768e01943a599e73362a0e17a63a72e94dd2e384d2c1d4db932756821415610d81576040517f76755b3800000000000000000000000000000000000000000000000000000000815260040160405180910390fd5b60008281526001602090815260409091208251610da092840190611cdf565b50817fece574603820d07bc9b91f2a932baadf4628aabcb8afba49776529c14a6104b261010083511115610de157610ddc836000610100611366565b610de3565b825b604051610df0919061226d565b60405180910390a25050565b6000818152600360205260409020546001600160a01b0316610afb57604051635747cd1b60e11b815260048101829052602401610434565b600080610e408361062e565b9050806001600160a01b0316846001600160a01b03161480610e7557506000838152600560205260409020610e75908561148e565b949350505050565b6060600061067c836114b0565b6000818152600160205260409020805460609190610ea7906124a1565b80601f0160208091040260200160405190810160405280929190818152602001828054610ed3906124a1565b8015610f205780601f10610ef557610100808354040283529160200191610f20565b820191906000526020600020905b815481529060010190602001808311610f0357829003601f168201915b50505050509050919050565b836001600160a01b0316856001600160a01b03161415610f78576040517f5d67d6c100000000000000000000000000000000000000000000000000000000815260040160405180910390fd5b6000610f838461062e565b9050856001600160a01b0316816001600160a01b031614610fd157604051632d938f5160e11b81526001600160a01b0380831660048301526024820186905287166044820152606401610434565b6001600160a01b038516610ff8576040516324ecef4d60e01b815260040160405180910390fd5b3361100487878761150b565b61100e878661155d565b6001600160a01b038716600090815260046020526040902061103090866115a4565b506001600160a01b038616600090815260046020526040902061105390866115b0565b5060008581526003602052604090819020805473ffffffffffffffffffffffffffffffffffffffff19166001600160a01b0389811691821790925591518792918a16907fb333c813a7426a7a11e2b190cad52c44119421594b47f6f32ace6d8c7207b2bf906110c79086908a908a906124d6565b60405180910390a46110db878787866115bc565b6110e88787878787611690565b50505050505050565b6000610386825490565b6000546001600160a01b03828116620100009092041614610afb57600080546001600160a01b03838116620100008181027fffffffffffffffffffff0000000000000000000000000000000000000000ffff851617855560405193049190911692909183917f8be0079c531659141344cd1fd0a4f28419497f9722a3daafe3b4186f6b6457e091a35050565b6060610386826114b0565b6001600160a01b0384166111b9576040516324ecef4d60e01b815260040160405180910390fd5b6000838152600360205260409020546001600160a01b03161561120b576040517f34c7b51100000000000000000000000000000000000000000000000000000000815260048101849052602401610434565b336112186000868661150b565b6001600160a01b038516600090815260046020526040902061123a90856115b0565b50600084815260036020526040808220805473ffffffffffffffffffffffffffffffffffffffff19166001600160a01b03891690811790915590518692907fb333c813a7426a7a11e2b190cad52c44119421594b47f6f32ace6d8c7207b2bf906112a9908690899089906124d6565b60405180910390a46112bf600086868686611690565b5050505050565b600061067c836001600160a01b0384166117fa565b600054610100900460ff166113465760405162461bcd60e51b815260206004820152602b60248201527f496e697469616c697a61626c653a20636f6e7472616374206973206e6f74206960448201526a6e697469616c697a696e6760a81b6064820152608401610434565b610629838383611849565b600061067c836001600160a01b038416611973565b60608161137481601f61251f565b10156113c25760405162461bcd60e51b815260206004820152600e60248201527f736c6963655f6f766572666c6f770000000000000000000000000000000000006044820152606401610434565b6113cc828461251f565b8451101561141c5760405162461bcd60e51b815260206004820152601160248201527f736c6963655f6f75744f66426f756e64730000000000000000000000000000006044820152606401610434565b60608215801561143b5760405191506000825260208201604052611485565b6040519150601f8416801560200281840101858101878315602002848b0101015b8183101561147457805183526020928301920161145c565b5050858452601f01601f1916604052505b50949350505050565b6001600160a01b0381166000908152600183016020526040812054151561067c565b606081600001805480602002602001604051908101604052809291908181526020018280548015610f2057602002820191906000526020600020905b8154815260200190600101908083116114ec5750505050509050919050565b6001600160a01b0383166115325760016002600082825461152c919061251f565b90915550505b6001600160a01b038216610629576001600260008282546115539190612537565b9091555050505050565b600081815260056020526040812090611575826110f1565b905060005b818110156112bf57600061158e8482611a66565b905061159b818787610bc2565b5060010161157a565b600061067c8383611973565b600061067c83836117fa565b6115cd84631aed5a8560e21b611a72565b156104b1576000848484846040516020016115eb949392919061254e565b60408051601f1981840301815290829052631aed5a8560e21b825291506001600160a01b03861690636bb56a1490611649907f3724c94f0815e936299cca424da4140752198e0beb7931a6e0925d11bc97544c90859060040161259b565b6000604051808303816000875af1158015611668573d6000803e3d6000fd5b505050506040513d6000823e601f3d908101601f191682016040526107b991908101906125b4565b6116a184631aed5a8560e21b611a72565b1561176b576000858585846040516020016116bf949392919061254e565b60408051601f1981840301815290829052631aed5a8560e21b825291506001600160a01b03861690636bb56a149061171d907fc7a120a42b6057a0cbed111fbbfbd52fcd96748c04394f77fc2c3adbe0391e0190859060040161259b565b6000604051808303816000875af115801561173c573d6000803e3d6000fd5b505050506040513d6000823e601f3d908101601f1916820160405261176491908101906125b4565b50506112bf565b816112bf576001600160a01b0384163b156117bd576040517f4349776d0000000000000000000000000000000000000000000000000000000081526001600160a01b0385166004820152602401610434565b6040517f031731370000000000000000000000000000000000000000000000000000000081526001600160a01b0385166004820152602401610434565b600081815260018301602052604081205461184157508154600181810184556000848152602080822090930184905584548482528286019093526040902091909155610386565b506000610386565b600054610100900460ff166118b45760405162461bcd60e51b815260206004820152602b60248201527f496e697469616c697a61626c653a20636f6e7472616374206973206e6f74206960448201526a6e697469616c697a696e6760a81b6064820152608401610434565b6118bd81611b74565b61191f7feafec4d89fa9619884b60000a4d96624a38f7ac2d8d9a604ecf07c12c77e480c60001b6040518060400160405280600481526020017fa4d9662400000000000000000000000000000000000000000000000000000000815250611c65565b6119497fdeba1e292f8ba88238e10ab3c7f88bd4be4fac56cad5194b6ecceaf653468af184611c65565b6106297f2f0a68ab07768e01943a599e73362a0e17a63a72e94dd2e384d2c1d4db93275683611c65565b60008181526001830160205260408120548015611a5c576000611997600183612537565b85549091506000906119ab90600190612537565b9050818114611a105760008660000182815481106119cb576119cb61248b565b90600052602060002001549050808760000184815481106119ee576119ee61248b565b6000918252602080832090910192909255918252600188019052604090208390555b8554869080611a2157611a21612622565b600190038181906000526020600020016000905590558560010160008681526020019081526020016000206000905560019350505050610386565b6000915050610386565b600061067c8383611cb5565b604080516001600160e01b0319831660248083019190915282518083039091018152604490910182526020810180517bffffffffffffffffffffffffffffffffffffffffffffffffffffffff166301ffc9a760e01b179052905160009190829081906001600160a01b0387169061753090611aee908690612638565b6000604051808303818686fa925050503d8060008114611b2a576040519150601f19603f3d011682016040523d82523d6000602084013e611b2f565b606091505b5091509150602081511015611b4a5760009350505050610386565b818015611b6a5750600081806020019051810190611b689190612654565b115b9695505050505050565b600054610100900460ff16611bdf5760405162461bcd60e51b815260206004820152602b60248201527f496e697469616c697a61626c653a20636f6e7472616374206973206e6f74206960448201526a6e697469616c697a696e6760a81b6064820152608401610434565b806001600160a01b038116611c5c5760405162461bcd60e51b815260206004820152603260248201527f4f776e61626c653a20636f6e7472616374206f776e65722063616e6e6f74206260448201527f6520746865207a65726f206164647265737300000000000000000000000000006064820152608401610434565b6108ef826110fb565b60008281526001602090815260409091208251611c8492840190611cdf565b50817fece574603820d07bc9b91f2a932baadf4628aabcb8afba49776529c14a6104b282604051610df0919061226d565b6000826000018281548110611ccc57611ccc61248b565b9060005260206000200154905092915050565b828054611ceb906124a1565b90600052602060002090601f016020900481019282611d0d5760008555611d53565b82601f10611d2657805160ff1916838001178555611d53565b82800160010185558215611d53579182015b82811115611d53578251825591602001919060010190611d38565b50611d5f929150611d63565b5090565b5b80821115611d5f5760008155600101611d64565b600060208284031215611d8a57600080fd5b81356001600160e01b03198116811461067c57600080fd5b634e487b7160e01b600052604160045260246000fd5b604051601f8201601f1916810167ffffffffffffffff81118282101715611de157611de1611da2565b604052919050565b600067ffffffffffffffff821115611e0357611e03611da2565b50601f01601f191660200190565b600082601f830112611e2257600080fd5b8135611e35611e3082611de9565b611db8565b818152846020838601011115611e4a57600080fd5b816020850160208301376000918101602001919091529392505050565b80356001600160a01b0381168114611e7e57600080fd5b919050565b600080600060608486031215611e9857600080fd5b833567ffffffffffffffff80821115611eb057600080fd5b611ebc87838801611e11565b94506020860135915080821115611ed257600080fd5b50611edf86828701611e11565b925050611eee60408501611e67565b90509250925092565b60008060408385031215611f0a57600080fd5b611f1383611e67565b946020939093013593505050565b600067ffffffffffffffff821115611f3b57611f3b611da2565b5060051b60200190565b600082601f830112611f5657600080fd5b81356020611f66611e3083611f21565b82815260059290921b84018101918181019086841115611f8557600080fd5b8286015b84811015611fa05780358352918301918301611f89565b509695505050505050565b600082601f830112611fbc57600080fd5b81356020611fcc611e3083611f21565b82815260059290921b84018101918181019086841115611feb57600080fd5b8286015b84811015611fa057803567ffffffffffffffff81111561200f5760008081fd5b61201d8986838b0101611e11565b845250918301918301611fef565b6000806040838503121561203e57600080fd5b823567ffffffffffffffff8082111561205657600080fd5b61206286838701611f45565b9350602085013591508082111561207857600080fd5b5061208585828601611fab565b9150509250929050565b6000602082840312156120a157600080fd5b5035919050565b6020808252825182820181905260009190848201906040850190845b818110156120e95783516001600160a01b0316835292840192918401916001016120c4565b50909695505050505050565b60006020828403121561210757600080fd5b813567ffffffffffffffff81111561211e57600080fd5b610e7584828501611f45565b60005b8381101561214557818101518382015260200161212d565b838111156104b15750506000910152565b6000815180845261216e81602086016020860161212a565b601f01601f19169290920160200192915050565b6000602080830181845280855180835260408601915060408160051b870101925083870160005b828110156121d757603f198886030184526121c5858351612156565b945092850192908501906001016121a9565b5092979650505050505050565b80358015158114611e7e57600080fd5b600080600080600060a0868803121561220c57600080fd5b61221586611e67565b945061222360208701611e67565b935060408601359250612238606087016121e4565b9150608086013567ffffffffffffffff81111561225457600080fd5b61226088828901611e11565b9150509295509295909350565b60208152600061067c6020830184612156565b600082601f83011261229157600080fd5b813560206122a1611e3083611f21565b82815260059290921b840181019181810190868411156122c057600080fd5b8286015b84811015611fa0576122d581611e67565b83529183019183016122c4565b600080600080600060a086880312156122fa57600080fd5b853567ffffffffffffffff8082111561231257600080fd5b61231e89838a01612280565b9650602088013591508082111561233457600080fd5b61234089838a01612280565b9550604088013591508082111561235657600080fd5b61236289838a01611f45565b9450612370606089016121e4565b9350608088013591508082111561238657600080fd5b5061226088828901611fab565b6000602082840312156123a557600080fd5b61067c82611e67565b600080604083850312156123c157600080fd5b82359150602083013567ffffffffffffffff8111156123df57600080fd5b61208585828601611e11565b6020808252825182820181905260009190848201906040850190845b818110156120e957835183529284019291840191600101612407565b6000806000806080858703121561243957600080fd5b61244285611e67565b935060208501359250612457604086016121e4565b9150606085013567ffffffffffffffff81111561247357600080fd5b61247f87828801611e11565b91505092959194509250565b634e487b7160e01b600052603260045260246000fd5b600181811c908216806124b557607f821691505b6020821081141561075357634e487b7160e01b600052602260045260246000fd5b6001600160a01b038416815282151560208201526060604082015260006125006060830184612156565b95945050505050565b634e487b7160e01b600052601160045260246000fd5b6000821982111561253257612532612509565b500190565b60008282101561254957612549612509565b500390565b60006bffffffffffffffffffffffff19808760601b168352808660601b16601484015250836028830152825161258b81604885016020870161212a565b9190910160480195945050505050565b828152604060208201526000610e756040830184612156565b6000602082840312156125c657600080fd5b815167ffffffffffffffff8111156125dd57600080fd5b8201601f810184136125ee57600080fd5b80516125fc611e3082611de9565b81815285602083850101111561261157600080fd5b61250082602083016020860161212a565b634e487b7160e01b600052603160045260246000fd5b6000825161264a81846020870161212a565b9190910192915050565b60006020828403121561266657600080fd5b505191905056fea2646970667358221220aeca874928b612025ce9d8a36d50995b3cdee4ad02b8894c32f33c787026b66864736f6c634300080a0033",
  "linkReferences": {},
  "deployedLinkReferences": {}
}