{
  "_format": "hh-sol-artifact-1",
  "contractName": "LSP8Mintable",
  "sourceName": "contracts/LSP8IdentifiableDigitalAsset/presets/LSP8Mintable.sol",
  "abi": [
    {
      "inputs": [
        {
          "internalType": "string",
          "name": "name_",
          "type": "string"
        },
        {
          "internalType": "string",
          "name": "symbol_",
          "type": "string"
        },
        {
          "internalType": "address",
          "name": "newOwner_",
          "type": "address"
        }
      ],
      "stateMutability": "nonpayable",
      "type": "constructor"
    },
    {
      "inputs": [],
      "name": "LSP4TokenNameNotEditable",
      "type": "error"
    },
    {
      "inputs": [],
      "name": "LSP4TokenSymbolNotEditable",
      "type": "error"
    },
    {
      "inputs": [],
      "name": "LSP8CannotSendToAddressZero",
      "type": "error"
    },
    {
      "inputs": [],
      "name": "LSP8CannotSendToSelf",
      "type": "error"
    },
    {
      "inputs": [],
      "name": "LSP8CannotUseAddressZeroAsOperator",
      "type": "error"
    },
    {
      "inputs": [],
      "name": "LSP8InvalidTransferBatch",
      "type": "error"
    },
    {
      "inputs": [
        {
          "internalType": "bytes32",
          "name": "tokenId",
          "type": "bytes32"
        }
      ],
      "name": "LSP8NonExistentTokenId",
      "type": "error"
    },
    {
      "inputs": [
        {
          "internalType": "address",
          "name": "_address",
          "type": "address"
        },
        {
          "internalType": "bytes32",
          "name": "tokenId",
          "type": "bytes32"
        }
      ],
      "name": "LSP8NonExistingOperator",
      "type": "error"
    },
    {
      "inputs": [
        {
          "internalType": "bytes32",
          "name": "tokenId",
          "type": "bytes32"
        },
        {
          "internalType": "address",
          "name": "caller",
          "type": "address"
        }
      ],
      "name": "LSP8NotTokenOperator",
      "type": "error"
    },
    {
      "inputs": [
        {
          "internalType": "address",
          "name": "tokenOwner",
          "type": "address"
        },
        {
          "internalType": "bytes32",
          "name": "tokenId",
          "type": "bytes32"
        },
        {
          "internalType": "address",
          "name": "caller",
          "type": "address"
        }
      ],
      "name": "LSP8NotTokenOwner",
      "type": "error"
    },
    {
      "inputs": [
        {
          "internalType": "address",
          "name": "tokenReceiver",
          "type": "address"
        }
      ],
      "name": "LSP8NotifyTokenReceiverContractMissingLSP1Interface",
      "type": "error"
    },
    {
      "inputs": [
        {
          "internalType": "address",
          "name": "tokenReceiver",
          "type": "address"
        }
      ],
      "name": "LSP8NotifyTokenReceiverIsEOA",
      "type": "error"
    },
    {
      "inputs": [
        {
          "internalType": "address",
          "name": "operator",
          "type": "address"
        },
        {
          "internalType": "bytes32",
          "name": "tokenId",
          "type": "bytes32"
        }
      ],
      "name": "LSP8OperatorAlreadyAuthorized",
      "type": "error"
    },
    {
      "inputs": [
        {
          "internalType": "bytes32",
          "name": "tokenId",
          "type": "bytes32"
        }
      ],
      "name": "LSP8TokenIdAlreadyMinted",
      "type": "error"
    },
    {
      "anonymous": false,
      "inputs": [
        {
          "indexed": true,
          "internalType": "address",
          "name": "operator",
          "type": "address"
        },
        {
          "indexed": true,
          "internalType": "address",
          "name": "tokenOwner",
          "type": "address"
        },
        {
          "indexed": true,
          "internalType": "bytes32",
          "name": "tokenId",
          "type": "bytes32"
        }
      ],
      "name": "AuthorizedOperator",
      "type": "event"
    },
    {
      "anonymous": false,
      "inputs": [
        {
          "indexed": true,
          "internalType": "bytes32",
          "name": "dataKey",
          "type": "bytes32"
        },
        {
          "indexed": false,
          "internalType": "bytes",
          "name": "dataValue",
          "type": "bytes"
        }
      ],
      "name": "DataChanged",
      "type": "event"
    },
    {
      "anonymous": false,
      "inputs": [
        {
          "indexed": true,
          "internalType": "address",
          "name": "previousOwner",
          "type": "address"
        },
        {
          "indexed": true,
          "internalType": "address",
          "name": "newOwner",
          "type": "address"
        }
      ],
      "name": "OwnershipTransferred",
      "type": "event"
    },
    {
      "anonymous": false,
      "inputs": [
        {
          "indexed": true,
          "internalType": "address",
          "name": "operator",
          "type": "address"
        },
        {
          "indexed": true,
          "internalType": "address",
          "name": "tokenOwner",
          "type": "address"
        },
        {
          "indexed": true,
          "internalType": "bytes32",
          "name": "tokenId",
          "type": "bytes32"
        }
      ],
      "name": "RevokedOperator",
      "type": "event"
    },
    {
      "anonymous": false,
      "inputs": [
        {
          "indexed": false,
          "internalType": "address",
          "name": "operator",
          "type": "address"
        },
        {
          "indexed": true,
          "internalType": "address",
          "name": "from",
          "type": "address"
        },
        {
          "indexed": true,
          "internalType": "address",
          "name": "to",
          "type": "address"
        },
        {
          "indexed": true,
          "internalType": "bytes32",
          "name": "tokenId",
          "type": "bytes32"
        },
        {
          "indexed": false,
          "internalType": "bool",
          "name": "force",
          "type": "bool"
        },
        {
          "indexed": false,
          "internalType": "bytes",
          "name": "data",
          "type": "bytes"
        }
      ],
      "name": "Transfer",
      "type": "event"
    },
    {
      "inputs": [
        {
          "internalType": "address",
          "name": "operator",
          "type": "address"
        },
        {
          "internalType": "bytes32",
          "name": "tokenId",
          "type": "bytes32"
        }
      ],
      "name": "authorizeOperator",
      "outputs": [],
      "stateMutability": "nonpayable",
      "type": "function"
    },
    {
      "inputs": [
        {
          "internalType": "address",
          "name": "tokenOwner",
          "type": "address"
        }
      ],
      "name": "balanceOf",
      "outputs": [
        {
          "internalType": "uint256",
          "name": "",
          "type": "uint256"
        }
      ],
      "stateMutability": "view",
      "type": "function"
    },
    {
      "inputs": [
        {
          "internalType": "bytes32[]",
          "name": "dataKeys",
          "type": "bytes32[]"
        }
      ],
      "name": "getData",
      "outputs": [
        {
          "internalType": "bytes[]",
          "name": "dataValues",
          "type": "bytes[]"
        }
      ],
      "stateMutability": "view",
      "type": "function"
    },
    {
      "inputs": [
        {
          "internalType": "bytes32",
          "name": "dataKey",
          "type": "bytes32"
        }
      ],
      "name": "getData",
      "outputs": [
        {
          "internalType": "bytes",
          "name": "dataValue",
          "type": "bytes"
        }
      ],
      "stateMutability": "view",
      "type": "function"
    },
    {
      "inputs": [
        {
          "internalType": "bytes32",
          "name": "tokenId",
          "type": "bytes32"
        }
      ],
      "name": "getOperatorsOf",
      "outputs": [
        {
          "internalType": "address[]",
          "name": "",
          "type": "address[]"
        }
      ],
      "stateMutability": "view",
      "type": "function"
    },
    {
      "inputs": [
        {
          "internalType": "address",
          "name": "operator",
          "type": "address"
        },
        {
          "internalType": "bytes32",
          "name": "tokenId",
          "type": "bytes32"
        }
      ],
      "name": "isOperatorFor",
      "outputs": [
        {
          "internalType": "bool",
          "name": "",
          "type": "bool"
        }
      ],
      "stateMutability": "view",
      "type": "function"
    },
    {
      "inputs": [
        {
          "internalType": "address",
          "name": "to",
          "type": "address"
        },
        {
          "internalType": "bytes32",
          "name": "tokenId",
          "type": "bytes32"
        },
        {
          "internalType": "bool",
          "name": "force",
          "type": "bool"
        },
        {
          "internalType": "bytes",
          "name": "data",
          "type": "bytes"
        }
      ],
      "name": "mint",
      "outputs": [],
      "stateMutability": "nonpayable",
      "type": "function"
    },
    {
      "inputs": [],
      "name": "owner",
      "outputs": [
        {
          "internalType": "address",
          "name": "",
          "type": "address"
        }
      ],
      "stateMutability": "view",
      "type": "function"
    },
    {
      "inputs": [],
      "name": "renounceOwnership",
      "outputs": [],
      "stateMutability": "nonpayable",
      "type": "function"
    },
    {
      "inputs": [
        {
          "internalType": "address",
          "name": "operator",
          "type": "address"
        },
        {
          "internalType": "bytes32",
          "name": "tokenId",
          "type": "bytes32"
        }
      ],
      "name": "revokeOperator",
      "outputs": [],
      "stateMutability": "nonpayable",
      "type": "function"
    },
    {
      "inputs": [
        {
          "internalType": "bytes32[]",
          "name": "dataKeys",
          "type": "bytes32[]"
        },
        {
          "internalType": "bytes[]",
          "name": "dataValues",
          "type": "bytes[]"
        }
      ],
      "name": "setData",
      "outputs": [],
      "stateMutability": "nonpayable",
      "type": "function"
    },
    {
      "inputs": [
        {
          "internalType": "bytes32",
          "name": "dataKey",
          "type": "bytes32"
        },
        {
          "internalType": "bytes",
          "name": "dataValue",
          "type": "bytes"
        }
      ],
      "name": "setData",
      "outputs": [],
      "stateMutability": "nonpayable",
      "type": "function"
    },
    {
      "inputs": [
        {
          "internalType": "bytes4",
          "name": "interfaceId",
          "type": "bytes4"
        }
      ],
      "name": "supportsInterface",
      "outputs": [
        {
          "internalType": "bool",
          "name": "",
          "type": "bool"
        }
      ],
      "stateMutability": "view",
      "type": "function"
    },
    {
      "inputs": [
        {
          "internalType": "address",
          "name": "tokenOwner",
          "type": "address"
        }
      ],
      "name": "tokenIdsOf",
      "outputs": [
        {
          "internalType": "bytes32[]",
          "name": "",
          "type": "bytes32[]"
        }
      ],
      "stateMutability": "view",
      "type": "function"
    },
    {
      "inputs": [
        {
          "internalType": "bytes32",
          "name": "tokenId",
          "type": "bytes32"
        }
      ],
      "name": "tokenOwnerOf",
      "outputs": [
        {
          "internalType": "address",
          "name": "",
          "type": "address"
        }
      ],
      "stateMutability": "view",
      "type": "function"
    },
    {
      "inputs": [],
      "name": "totalSupply",
      "outputs": [
        {
          "internalType": "uint256",
          "name": "",
          "type": "uint256"
        }
      ],
      "stateMutability": "view",
      "type": "function"
    },
    {
      "inputs": [
        {
          "internalType": "address",
          "name": "from",
          "type": "address"
        },
        {
          "internalType": "address",
          "name": "to",
          "type": "address"
        },
        {
          "internalType": "bytes32",
          "name": "tokenId",
          "type": "bytes32"
        },
        {
          "internalType": "bool",
          "name": "force",
          "type": "bool"
        },
        {
          "internalType": "bytes",
          "name": "data",
          "type": "bytes"
        }
      ],
      "name": "transfer",
      "outputs": [],
      "stateMutability": "nonpayable",
      "type": "function"
    },
    {
      "inputs": [
        {
          "internalType": "address[]",
          "name": "from",
          "type": "address[]"
        },
        {
          "internalType": "address[]",
          "name": "to",
          "type": "address[]"
        },
        {
          "internalType": "bytes32[]",
          "name": "tokenId",
          "type": "bytes32[]"
        },
        {
          "internalType": "bool",
          "name": "force",
          "type": "bool"
        },
        {
          "internalType": "bytes[]",
          "name": "data",
          "type": "bytes[]"
        }
      ],
      "name": "transferBatch",
      "outputs": [],
      "stateMutability": "nonpayable",
      "type": "function"
    },
    {
      "inputs": [
        {
          "internalType": "address",
          "name": "newOwner",
          "type": "address"
        }
      ],
      "name": "transferOwnership",
      "outputs": [],
      "stateMutability": "nonpayable",
      "type": "function"
    }
  ],
  "bytecode": "0x60806040523480156200001157600080fd5b50604051620026bb380380620026bb8339810160408190526200003491620003ea565b82828282828280806001600160a01b038116620000b25760405162461bcd60e51b815260206004820152603260248201527f4f776e61626c653a20636f6e7472616374206f776e65722063616e6e6f7420626044820152716520746865207a65726f206164647265737360701b606482015260840160405180910390fd5b620000c882620001a360201b620009aa1760201c565b5050620001207feafec4d89fa9619884b60000a4d96624a38f7ac2d8d9a604ecf07c12c77e480c60001b604051806040016040528060048152602001632936598960e21b8152506200020a60201b62000a1c1760201c565b6200015a7fdeba1e292f8ba88238e10ab3c7f88bd4be4fac56cad5194b6ecceaf653468af160001b846200020a60201b62000a1c1760201c565b620001947f2f0a68ab07768e01943a599e73362a0e17a63a72e94dd2e384d2c1d4db93275660001b836200020a60201b62000a1c1760201c565b505050505050505050620004e9565b6000546001600160a01b038281169116146200020757600080546001600160a01b038381166001600160a01b0319831681178455604051919092169283917f8be0079c531659141344cd1fd0a4f28419497f9722a3daafe3b4186f6b6457e09190a3505b50565b600082815260016020908152604090912082516200022b928401906200026a565b50817fece574603820d07bc9b91f2a932baadf4628aabcb8afba49776529c14a6104b2826040516200025e919062000477565b60405180910390a25050565b8280546200027890620004ac565b90600052602060002090601f0160209004810192826200029c5760008555620002e7565b82601f10620002b757805160ff1916838001178555620002e7565b82800160010185558215620002e7579182015b82811115620002e7578251825591602001919060010190620002ca565b50620002f5929150620002f9565b5090565b5b80821115620002f55760008155600101620002fa565b634e487b7160e01b600052604160045260246000fd5b60005b838110156200034357818101518382015260200162000329565b8381111562000353576000848401525b50505050565b600082601f8301126200036b57600080fd5b81516001600160401b038082111562000388576200038862000310565b604051601f8301601f19908116603f01168101908282118183101715620003b357620003b362000310565b81604052838152866020858801011115620003cd57600080fd5b620003e084602083016020890162000326565b9695505050505050565b6000806000606084860312156200040057600080fd5b83516001600160401b03808211156200041857600080fd5b620004268783880162000359565b945060208601519150808211156200043d57600080fd5b506200044c8682870162000359565b604086015190935090506001600160a01b03811681146200046c57600080fd5b809150509250925092565b60208152600082518060208401526200049881604085016020870162000326565b601f01601f19169190910160400192915050565b600181811c90821680620004c157607f821691505b60208210811415620004e357634e487b7160e01b600052602260045260246000fd5b50919050565b6121c280620004f96000396000f3fe608060405234801561001057600080fd5b50600436106101515760003560e01c806354f6127f116100cd5780638da5cb5b11610081578063af255b6111610066578063af255b61146102db578063cf5182ba146102ee578063f2fde38b1461030157600080fd5b80638da5cb5b146102aa578063a3b261f2146102bb57600080fd5b806370a08231116100b257806370a082311461027c578063715018a61461028f5780637f23690c1461029757600080fd5b806354f6127f14610249578063559088681461026957600080fd5b8063217b22701161012457806349a6078d1161010957806349a6078d146101f65780634e3e6e9c14610216578063511b69521461023657600080fd5b8063217b2270146101b85780632a3654a4146101e357600080fd5b806301ffc9a7146101565780630b0c6d821461017e57806314a6e2931461019357806318160ddd146101a6575b600080fd5b61016961016436600461190b565b610314565b60405190151581526020015b60405180910390f35b61019161018c366004611951565b610358565b005b6101916101a1366004611b4a565b610406565b6002545b604051908152602001610175565b6101cb6101c6366004611bae565b6104da565b6040516001600160a01b039091168152602001610175565b6101696101f1366004611951565b610513565b610209610204366004611bae565b61052f565b6040516101759190611bc7565b610229610224366004611c14565b610551565b6040516101759190611ca1565b610191610244366004611d13565b610605565b61025c610257366004611bae565b61066d565b6040516101759190611d8c565b610191610277366004611e01565b610678565b6101aa61028a366004611eb2565b610754565b610191610775565b6101916102a5366004611ecd565b610789565b6000546001600160a01b03166101cb565b6102ce6102c9366004611eb2565b61079f565b6040516101759190611f0a565b6101916102e9366004611f42565b6107c3565b6101916102fc366004611951565b6107d7565b61019161030f366004611eb2565b61091a565b60006001600160e01b031982167f49399145000000000000000000000000000000000000000000000000000000001480610352575061035282610a78565b92915050565b6000610363826104da565b9050336001600160a01b03821681146103ae57604051632d938f5160e11b81526001600160a01b03808416600483015260248201859052821660448201526064015b60405180910390fd5b6001600160a01b0384166103d557604051639577b8b360e01b815260040160405180910390fd5b836001600160a01b0316826001600160a01b031614156103f55750505050565b610400848385610ac6565b50505050565b61040e610b70565b80518251146104855760405162461bcd60e51b815260206004820152602660248201527f4b657973206c656e677468206e6f7420657175616c20746f2076616c7565732060448201527f6c656e677468000000000000000000000000000000000000000000000000000060648201526084016103a5565b60005b82518110156104d5576104cd8382815181106104a6576104a6611faa565b60200260200101518383815181106104c0576104c0611faa565b6020026020010151610bd9565b600101610488565b505050565b6000818152600360205260408120546001600160a01b03168061035257604051635747cd1b60e11b8152600481018490526024016103a5565b600061051e82610cfc565b6105288383610d34565b9392505050565b606061053a82610cfc565b600082815260056020526040902061035290610d7d565b6060815167ffffffffffffffff81111561056d5761056d61197b565b6040519080825280602002602001820160405280156105a057816020015b606081526020019060019003908161058b5790505b50905060005b82518110156105ff576105d18382815181106105c4576105c4611faa565b6020026020010151610d8a565b8282815181106105e3576105e3611faa565b60200260200101819052506105f88160010190565b90506105a6565b50919050565b336106108185610d34565b610658576040517f1294d2a9000000000000000000000000000000000000000000000000000000008152600481018590526001600160a01b03821660248201526044016103a5565b6106658686868686610e2c565b505050505050565b606061035282610d8a565b8351855114158061068b57508251855114155b8061069857508051855114155b156106cf576040517f93a8311900000000000000000000000000000000000000000000000000000000815260040160405180910390fd5b60005b85518110156106655761074c8682815181106106f0576106f0611faa565b602002602001015186838151811061070a5761070a611faa565b602002602001015186848151811061072457610724611faa565b60200260200101518686868151811061073f5761073f611faa565b6020026020010151610605565b6001016106d2565b6001600160a01b038116600090815260046020526040812061035290610ff1565b61077d610b70565b61078760006109aa565b565b610791610b70565b61079b8282610bd9565b5050565b6001600160a01b038116600090815260046020526040902060609061035290610ffb565b6107cb610b70565b61040084848484611006565b60006107e2826104da565b9050336001600160a01b038216811461082857604051632d938f5160e11b81526001600160a01b03808416600483015260248201859052821660448201526064016103a5565b6001600160a01b03841661084f57604051639577b8b360e01b815260040160405180910390fd5b836001600160a01b0316826001600160a01b0316141561086f5750505050565b6000838152600560205260408120610887908661113a565b9050806108d2576040517fa7626b680000000000000000000000000000000000000000000000000000000081526001600160a01b0386166004820152602481018590526044016103a5565b83836001600160a01b0316866001600160a01b03167f34b797fc5a526f7bf1d2b5de25f6564fd85ae364e3ee939aee7c1ac27871a98860405160405180910390a45050505050565b610922610b70565b6001600160a01b03811661099e5760405162461bcd60e51b815260206004820152602660248201527f4f776e61626c653a206e6577206f776e657220697320746865207a65726f206160448201527f646472657373000000000000000000000000000000000000000000000000000060648201526084016103a5565b6109a7816109aa565b50565b6000546001600160a01b038281169116146109a757600080546001600160a01b0383811673ffffffffffffffffffffffffffffffffffffffff19831681178455604051919092169283917f8be0079c531659141344cd1fd0a4f28419497f9722a3daafe3b4186f6b6457e09190a35050565b60008281526001602090815260409091208251610a3b92840190611872565b50817fece574603820d07bc9b91f2a932baadf4628aabcb8afba49776529c14a6104b282604051610a6c9190611d8c565b60405180910390a25050565b60006001600160e01b031982167f714df77c00000000000000000000000000000000000000000000000000000000148061035257506301ffc9a760e01b6001600160e01b0319831614610352565b6000818152600560205260408120610ade908561114f565b905080610b29576040517f4aa31a8c0000000000000000000000000000000000000000000000000000000081526001600160a01b0385166004820152602481018390526044016103a5565b81836001600160a01b0316856001600160a01b03167f17d5389f6ab6adb2647dfa0aa365c323d37adacc30b33a65310b6158ce1373d560405160405180910390a450505050565b33610b836000546001600160a01b031690565b6001600160a01b0316146107875760405162461bcd60e51b815260206004820181905260248201527f4f776e61626c653a2063616c6c6572206973206e6f7420746865206f776e657260448201526064016103a5565b7fdeba1e292f8ba88238e10ab3c7f88bd4be4fac56cad5194b6ecceaf653468af1821415610c33576040517f85c169bd00000000000000000000000000000000000000000000000000000000815260040160405180910390fd5b7f2f0a68ab07768e01943a599e73362a0e17a63a72e94dd2e384d2c1d4db932756821415610c8d576040517f76755b3800000000000000000000000000000000000000000000000000000000815260040160405180910390fd5b60008281526001602090815260409091208251610cac92840190611872565b50817fece574603820d07bc9b91f2a932baadf4628aabcb8afba49776529c14a6104b261010083511115610ced57610ce8836000610100611164565b610cef565b825b604051610a6c9190611d8c565b6000818152600360205260409020546001600160a01b03166109a757604051635747cd1b60e11b8152600481018290526024016103a5565b600080610d40836104da565b9050806001600160a01b0316846001600160a01b03161480610d7557506000838152600560205260409020610d75908561128c565b949350505050565b60606000610528836112ae565b6000818152600160205260409020805460609190610da790611fc0565b80601f0160208091040260200160405190810160405280929190818152602001828054610dd390611fc0565b8015610e205780601f10610df557610100808354040283529160200191610e20565b820191906000526020600020905b815481529060010190602001808311610e0357829003601f168201915b50505050509050919050565b836001600160a01b0316856001600160a01b03161415610e78576040517f5d67d6c100000000000000000000000000000000000000000000000000000000815260040160405180910390fd5b6000610e83846104da565b9050856001600160a01b0316816001600160a01b031614610ed157604051632d938f5160e11b81526001600160a01b03808316600483015260248201869052871660448201526064016103a5565b6001600160a01b038516610ef8576040516324ecef4d60e01b815260040160405180910390fd5b33610f04878787611309565b610f0e878661135b565b6001600160a01b0387166000908152600460205260409020610f3090866113a2565b506001600160a01b0386166000908152600460205260409020610f5390866113ae565b5060008581526003602052604090819020805473ffffffffffffffffffffffffffffffffffffffff19166001600160a01b0389811691821790925591518792918a16907fb333c813a7426a7a11e2b190cad52c44119421594b47f6f32ace6d8c7207b2bf90610fc79086908a908a90611ff5565b60405180910390a4610fdb878787866113ba565b610fe8878787878761148e565b50505050505050565b6000610352825490565b6060610352826112ae565b6001600160a01b03841661102d576040516324ecef4d60e01b815260040160405180910390fd5b6000838152600360205260409020546001600160a01b03161561107f576040517f34c7b511000000000000000000000000000000000000000000000000000000008152600481018490526024016103a5565b3361108c60008686611309565b6001600160a01b03851660009081526004602052604090206110ae90856113ae565b50600084815260036020526040808220805473ffffffffffffffffffffffffffffffffffffffff19166001600160a01b03891690811790915590518692907fb333c813a7426a7a11e2b190cad52c44119421594b47f6f32ace6d8c7207b2bf9061111d90869089908990611ff5565b60405180910390a461113360008686868661148e565b5050505050565b6000610528836001600160a01b0384166115f8565b6000610528836001600160a01b038416611647565b60608161117281601f61203e565b10156111c05760405162461bcd60e51b815260206004820152600e60248201527f736c6963655f6f766572666c6f7700000000000000000000000000000000000060448201526064016103a5565b6111ca828461203e565b8451101561121a5760405162461bcd60e51b815260206004820152601160248201527f736c6963655f6f75744f66426f756e647300000000000000000000000000000060448201526064016103a5565b6060821580156112395760405191506000825260208201604052611283565b6040519150601f8416801560200281840101858101878315602002848b0101015b8183101561127257805183526020928301920161125a565b5050858452601f01601f1916604052505b50949350505050565b6001600160a01b03811660009081526001830160205260408120541515610528565b606081600001805480602002602001604051908101604052809291908181526020018280548015610e2057602002820191906000526020600020905b8154815260200190600101908083116112ea5750505050509050919050565b6001600160a01b0383166113305760016002600082825461132a919061203e565b90915550505b6001600160a01b0382166104d5576001600260008282546113519190612056565b9091555050505050565b60008181526005602052604081209061137382610ff1565b905060005b8181101561113357600061138c848261173a565b9050611399818787610ac6565b50600101611378565b60006105288383611647565b600061052883836115f8565b6113cb84631aed5a8560e21b611746565b15610400576000848484846040516020016113e9949392919061206d565b60408051601f1981840301815290829052631aed5a8560e21b825291506001600160a01b03861690636bb56a1490611447907f3724c94f0815e936299cca424da4140752198e0beb7931a6e0925d11bc97544c9085906004016120ba565b6000604051808303816000875af1158015611466573d6000803e3d6000fd5b505050506040513d6000823e601f3d908101601f1916820160405261066591908101906120d3565b61149f84631aed5a8560e21b611746565b15611569576000858585846040516020016114bd949392919061206d565b60408051601f1981840301815290829052631aed5a8560e21b825291506001600160a01b03861690636bb56a149061151b907fc7a120a42b6057a0cbed111fbbfbd52fcd96748c04394f77fc2c3adbe0391e019085906004016120ba565b6000604051808303816000875af115801561153a573d6000803e3d6000fd5b505050506040513d6000823e601f3d908101601f1916820160405261156291908101906120d3565b5050611133565b81611133576001600160a01b0384163b156115bb576040517f4349776d0000000000000000000000000000000000000000000000000000000081526001600160a01b03851660048201526024016103a5565b6040517f031731370000000000000000000000000000000000000000000000000000000081526001600160a01b03851660048201526024016103a5565b600081815260018301602052604081205461163f57508154600181810184556000848152602080822090930184905584548482528286019093526040902091909155610352565b506000610352565b6000818152600183016020526040812054801561173057600061166b600183612056565b855490915060009061167f90600190612056565b90508181146116e457600086600001828154811061169f5761169f611faa565b90600052602060002001549050808760000184815481106116c2576116c2611faa565b6000918252602080832090910192909255918252600188019052604090208390555b85548690806116f5576116f5612141565b600190038181906000526020600020016000905590558560010160008681526020019081526020016000206000905560019350505050610352565b6000915050610352565b60006105288383611848565b604080516001600160e01b0319831660248083019190915282518083039091018152604490910182526020810180517bffffffffffffffffffffffffffffffffffffffffffffffffffffffff166301ffc9a760e01b179052905160009190829081906001600160a01b03871690617530906117c2908690612157565b6000604051808303818686fa925050503d80600081146117fe576040519150601f19603f3d011682016040523d82523d6000602084013e611803565b606091505b509150915060208151101561181e5760009350505050610352565b81801561183e575060008180602001905181019061183c9190612173565b115b9695505050505050565b600082600001828154811061185f5761185f611faa565b9060005260206000200154905092915050565b82805461187e90611fc0565b90600052602060002090601f0160209004810192826118a057600085556118e6565b82601f106118b957805160ff19168380011785556118e6565b828001600101855582156118e6579182015b828111156118e65782518255916020019190600101906118cb565b506118f29291506118f6565b5090565b5b808211156118f257600081556001016118f7565b60006020828403121561191d57600080fd5b81356001600160e01b03198116811461052857600080fd5b80356001600160a01b038116811461194c57600080fd5b919050565b6000806040838503121561196457600080fd5b61196d83611935565b946020939093013593505050565b634e487b7160e01b600052604160045260246000fd5b604051601f8201601f1916810167ffffffffffffffff811182821017156119ba576119ba61197b565b604052919050565b600067ffffffffffffffff8211156119dc576119dc61197b565b5060051b60200190565b600082601f8301126119f757600080fd5b81356020611a0c611a07836119c2565b611991565b82815260059290921b84018101918181019086841115611a2b57600080fd5b8286015b84811015611a465780358352918301918301611a2f565b509695505050505050565b600067ffffffffffffffff821115611a6b57611a6b61197b565b50601f01601f191660200190565b600082601f830112611a8a57600080fd5b8135611a98611a0782611a51565b818152846020838601011115611aad57600080fd5b816020850160208301376000918101602001919091529392505050565b600082601f830112611adb57600080fd5b81356020611aeb611a07836119c2565b82815260059290921b84018101918181019086841115611b0a57600080fd5b8286015b84811015611a4657803567ffffffffffffffff811115611b2e5760008081fd5b611b3c8986838b0101611a79565b845250918301918301611b0e565b60008060408385031215611b5d57600080fd5b823567ffffffffffffffff80821115611b7557600080fd5b611b81868387016119e6565b93506020850135915080821115611b9757600080fd5b50611ba485828601611aca565b9150509250929050565b600060208284031215611bc057600080fd5b5035919050565b6020808252825182820181905260009190848201906040850190845b81811015611c085783516001600160a01b031683529284019291840191600101611be3565b50909695505050505050565b600060208284031215611c2657600080fd5b813567ffffffffffffffff811115611c3d57600080fd5b610d75848285016119e6565b60005b83811015611c64578181015183820152602001611c4c565b838111156104005750506000910152565b60008151808452611c8d816020860160208601611c49565b601f01601f19169290920160200192915050565b6000602080830181845280855180835260408601915060408160051b870101925083870160005b82811015611cf657603f19888603018452611ce4858351611c75565b94509285019290850190600101611cc8565b5092979650505050505050565b8035801515811461194c57600080fd5b600080600080600060a08688031215611d2b57600080fd5b611d3486611935565b9450611d4260208701611935565b935060408601359250611d5760608701611d03565b9150608086013567ffffffffffffffff811115611d7357600080fd5b611d7f88828901611a79565b9150509295509295909350565b6020815260006105286020830184611c75565b600082601f830112611db057600080fd5b81356020611dc0611a07836119c2565b82815260059290921b84018101918181019086841115611ddf57600080fd5b8286015b84811015611a4657611df481611935565b8352918301918301611de3565b600080600080600060a08688031215611e1957600080fd5b853567ffffffffffffffff80821115611e3157600080fd5b611e3d89838a01611d9f565b96506020880135915080821115611e5357600080fd5b611e5f89838a01611d9f565b95506040880135915080821115611e7557600080fd5b611e8189838a016119e6565b9450611e8f60608901611d03565b93506080880135915080821115611ea557600080fd5b50611d7f88828901611aca565b600060208284031215611ec457600080fd5b61052882611935565b60008060408385031215611ee057600080fd5b82359150602083013567ffffffffffffffff811115611efe57600080fd5b611ba485828601611a79565b6020808252825182820181905260009190848201906040850190845b81811015611c0857835183529284019291840191600101611f26565b60008060008060808587031215611f5857600080fd5b611f6185611935565b935060208501359250611f7660408601611d03565b9150606085013567ffffffffffffffff811115611f9257600080fd5b611f9e87828801611a79565b91505092959194509250565b634e487b7160e01b600052603260045260246000fd5b600181811c90821680611fd457607f821691505b602082108114156105ff57634e487b7160e01b600052602260045260246000fd5b6001600160a01b0384168152821515602082015260606040820152600061201f6060830184611c75565b95945050505050565b634e487b7160e01b600052601160045260246000fd5b6000821982111561205157612051612028565b500190565b60008282101561206857612068612028565b500390565b60006bffffffffffffffffffffffff19808760601b168352808660601b1660148401525083602883015282516120aa816048850160208701611c49565b9190910160480195945050505050565b828152604060208201526000610d756040830184611c75565b6000602082840312156120e557600080fd5b815167ffffffffffffffff8111156120fc57600080fd5b8201601f8101841361210d57600080fd5b805161211b611a0782611a51565b81815285602083850101111561213057600080fd5b61201f826020830160208601611c49565b634e487b7160e01b600052603160045260246000fd5b60008251612169818460208701611c49565b9190910192915050565b60006020828403121561218557600080fd5b505191905056fea2646970667358221220200b674b8581dec936e328647c192c992a706c1949c20e7d3db4a0d85b589b8b64736f6c634300080a0033",
  "linkReferences": {},
  "deployedLinkReferences": {}
}