{
  "_format": "hh-sol-artifact-1",
  "contractName": "LSP9VaultInit",
  "sourceName": "contracts/LSP9Vault/LSP9VaultInit.sol",
  "abi": [
    {
      "inputs": [],
      "stateMutability": "nonpayable",
      "type": "constructor"
    },
    {
      "inputs": [],
      "name": "CannotTransferOwnershipToSelf",
      "type": "error"
    },
    {
      "inputs": [
        {
          "internalType": "uint256",
          "name": "renounceOwnershipStart",
          "type": "uint256"
        },
        {
          "internalType": "uint256",
          "name": "renounceOwnershipEnd",
          "type": "uint256"
        }
      ],
      "name": "NotInRenounceOwnershipInterval",
      "type": "error"
    },
    {
      "anonymous": false,
      "inputs": [
        {
          "indexed": true,
          "internalType": "uint256",
          "name": "operation",
          "type": "uint256"
        },
        {
          "indexed": true,
          "internalType": "address",
          "name": "contractAddress",
          "type": "address"
        },
        {
          "indexed": true,
          "internalType": "uint256",
          "name": "value",
          "type": "uint256"
        }
      ],
      "name": "ContractCreated",
      "type": "event"
    },
    {
      "anonymous": false,
      "inputs": [
        {
          "indexed": true,
          "internalType": "bytes32",
          "name": "dataKey",
          "type": "bytes32"
        },
        {
          "indexed": false,
          "internalType": "bytes",
          "name": "dataValue",
          "type": "bytes"
        }
      ],
      "name": "DataChanged",
      "type": "event"
    },
    {
      "anonymous": false,
      "inputs": [
        {
          "indexed": true,
          "internalType": "uint256",
          "name": "operation",
          "type": "uint256"
        },
        {
          "indexed": true,
          "internalType": "address",
          "name": "to",
          "type": "address"
        },
        {
          "indexed": true,
          "internalType": "uint256",
          "name": "value",
          "type": "uint256"
        },
        {
          "indexed": false,
          "internalType": "bytes4",
          "name": "selector",
          "type": "bytes4"
        }
      ],
      "name": "Executed",
      "type": "event"
    },
    {
      "anonymous": false,
      "inputs": [
        {
          "indexed": false,
          "internalType": "uint8",
          "name": "version",
          "type": "uint8"
        }
      ],
      "name": "Initialized",
      "type": "event"
    },
    {
      "anonymous": false,
      "inputs": [
        {
          "indexed": true,
          "internalType": "address",
          "name": "previousOwner",
          "type": "address"
        },
        {
          "indexed": true,
          "internalType": "address",
          "name": "newOwner",
          "type": "address"
        }
      ],
      "name": "OwnershipTransferred",
      "type": "event"
    },
    {
      "anonymous": false,
      "inputs": [],
      "name": "RenounceOwnershipInitiated",
      "type": "event"
    },
    {
      "anonymous": false,
      "inputs": [
        {
          "indexed": true,
          "internalType": "address",
          "name": "from",
          "type": "address"
        },
        {
          "indexed": false,
          "internalType": "uint256",
          "name": "value",
          "type": "uint256"
        },
        {
          "indexed": true,
          "internalType": "bytes32",
          "name": "typeId",
          "type": "bytes32"
        },
        {
          "indexed": true,
          "internalType": "bytes",
          "name": "returnedValue",
          "type": "bytes"
        },
        {
          "indexed": false,
          "internalType": "bytes",
          "name": "receivedData",
          "type": "bytes"
        }
      ],
      "name": "UniversalReceiver",
      "type": "event"
    },
    {
      "anonymous": false,
      "inputs": [
        {
          "indexed": true,
          "internalType": "address",
          "name": "sender",
          "type": "address"
        },
        {
          "indexed": true,
          "internalType": "uint256",
          "name": "value",
          "type": "uint256"
        }
      ],
      "name": "ValueReceived",
      "type": "event"
    },
    {
      "stateMutability": "payable",
      "type": "fallback"
    },
    {
      "inputs": [],
      "name": "claimOwnership",
      "outputs": [],
      "stateMutability": "nonpayable",
      "type": "function"
    },
    {
      "inputs": [
        {
          "internalType": "uint256",
          "name": "operation",
          "type": "uint256"
        },
        {
          "internalType": "address",
          "name": "to",
          "type": "address"
        },
        {
          "internalType": "uint256",
          "name": "value",
          "type": "uint256"
        },
        {
          "internalType": "bytes",
          "name": "data",
          "type": "bytes"
        }
      ],
      "name": "execute",
      "outputs": [
        {
          "internalType": "bytes",
          "name": "",
          "type": "bytes"
        }
      ],
      "stateMutability": "payable",
      "type": "function"
    },
    {
      "inputs": [
        {
          "internalType": "bytes32[]",
          "name": "dataKeys",
          "type": "bytes32[]"
        }
      ],
      "name": "getData",
      "outputs": [
        {
          "internalType": "bytes[]",
          "name": "dataValues",
          "type": "bytes[]"
        }
      ],
      "stateMutability": "view",
      "type": "function"
    },
    {
      "inputs": [
        {
          "internalType": "bytes32",
          "name": "dataKey",
          "type": "bytes32"
        }
      ],
      "name": "getData",
      "outputs": [
        {
          "internalType": "bytes",
          "name": "dataValue",
          "type": "bytes"
        }
      ],
      "stateMutability": "view",
      "type": "function"
    },
    {
      "inputs": [
        {
          "internalType": "address",
          "name": "newOwner",
          "type": "address"
        }
      ],
      "name": "initialize",
      "outputs": [],
      "stateMutability": "nonpayable",
      "type": "function"
    },
    {
      "inputs": [],
      "name": "owner",
      "outputs": [
        {
          "internalType": "address",
          "name": "",
          "type": "address"
        }
      ],
      "stateMutability": "view",
      "type": "function"
    },
    {
      "inputs": [],
      "name": "pendingOwner",
      "outputs": [
        {
          "internalType": "address",
          "name": "",
          "type": "address"
        }
      ],
      "stateMutability": "view",
      "type": "function"
    },
    {
      "inputs": [],
      "name": "renounceOwnership",
      "outputs": [],
      "stateMutability": "nonpayable",
      "type": "function"
    },
    {
      "inputs": [
        {
          "internalType": "bytes32[]",
          "name": "dataKeys",
          "type": "bytes32[]"
        },
        {
          "internalType": "bytes[]",
          "name": "dataValues",
          "type": "bytes[]"
        }
      ],
      "name": "setData",
      "outputs": [],
      "stateMutability": "nonpayable",
      "type": "function"
    },
    {
      "inputs": [
        {
          "internalType": "bytes32",
          "name": "dataKey",
          "type": "bytes32"
        },
        {
          "internalType": "bytes",
          "name": "dataValue",
          "type": "bytes"
        }
      ],
      "name": "setData",
      "outputs": [],
      "stateMutability": "nonpayable",
      "type": "function"
    },
    {
      "inputs": [
        {
          "internalType": "bytes4",
          "name": "interfaceId",
          "type": "bytes4"
        }
      ],
      "name": "supportsInterface",
      "outputs": [
        {
          "internalType": "bool",
          "name": "",
          "type": "bool"
        }
      ],
      "stateMutability": "view",
      "type": "function"
    },
    {
      "inputs": [
        {
          "internalType": "address",
          "name": "newOwner",
          "type": "address"
        }
      ],
      "name": "transferOwnership",
      "outputs": [],
      "stateMutability": "nonpayable",
      "type": "function"
    },
    {
      "inputs": [
        {
          "internalType": "bytes32",
          "name": "typeId",
          "type": "bytes32"
        },
        {
          "internalType": "bytes",
          "name": "data",
          "type": "bytes"
        }
      ],
      "name": "universalReceiver",
      "outputs": [
        {
          "internalType": "bytes",
          "name": "returnValue",
          "type": "bytes"
        }
      ],
      "stateMutability": "payable",
      "type": "function"
    }
  ],
  "bytecode": "0x608060405234801561001057600080fd5b5061001961001e565b6100de565b600054610100900460ff161561008a5760405162461bcd60e51b815260206004820152602760248201527f496e697469616c697a61626c653a20636f6e747261637420697320696e697469604482015266616c697a696e6760c81b606482015260840160405180910390fd5b60005460ff90811610156100dc576000805460ff191660ff9081179091556040519081527f7f26b83ff96e1f2b6a682f133852f6798a09c465da95921460cefb38474024989060200160405180910390a15b565b61230480620000ee6000396000f3fe6080604052600436106100d25760003560e01c80636bb56a141161007f5780638da5cb5b116100595780638da5cb5b14610227578063c4d66de81461025f578063e30c39781461027f578063f2fde38b1461029f576100d2565b80636bb56a14146101df578063715018a6146101f25780637f23690c14610207576100d2565b80634e3e6e9c116100b05780634e3e6e9c1461017d5780634e71e0c8146101aa57806354f6127f146101bf576100d2565b806301ffc9a71461010857806314a6e2931461013d57806344c028fe1461015d575b341561010657604051349033907f7e71433ddf847725166244795048ecf3e3f9f35628254ecbf73605666423349390600090a35b005b34801561011457600080fd5b50610128610123366004611bdd565b6102bf565b60405190151581526020015b60405180910390f35b34801561014957600080fd5b50610106610158366004611d56565b610352565b61017061016b366004611e47565b61051f565b6040516101349190611f04565b34801561018957600080fd5b5061019d610198366004611f17565b61061c565b6040516101349190611f4c565b3480156101b657600080fd5b506101066106d0565b3480156101cb57600080fd5b506101706101da366004611fae565b6106ff565b6101706101ed366004611fc7565b61070a565b3480156101fe57600080fd5b5061010661084c565b34801561021357600080fd5b50610106610222366004612043565b61085e565b34801561023357600080fd5b506000546201000090046001600160a01b03165b6040516001600160a01b039091168152602001610134565b34801561026b57600080fd5b5061010661027a36600461208a565b610968565b34801561028b57600080fd5b50600354610247906001600160a01b031681565b3480156102ab57600080fd5b506101066102ba36600461208a565b610a89565b60006001600160e01b031982167ffd4d5c5000000000000000000000000000000000000000000000000000000000148061030957506001600160e01b03198216631aed5a8560e21b145b8061033d57506001600160e01b031982167fa375e9c600000000000000000000000000000000000000000000000000000000145b8061034c575061034c82610aa3565b92915050565b6000546201000090046001600160a01b03166001600160a01b0316336001600160a01b0316146104535760006103a77f0cfc51aec37c55a4d0b1a65c6255c4bf2fbdf6277f3cc0730c45b828b6db8b47610ae1565b6103b0906120a5565b60601c90506103c633635122dded60e11b610b83565b80156103da5750336001600160a01b038216145b6104515760405162461bcd60e51b815260206004820152603160248201527f4f6e6c79204f776e6572206f7220556e6976657273616c20526563656976657260448201527f2044656c656761746520616c6c6f77656400000000000000000000000000000060648201526084015b60405180910390fd5b505b80518251146104ca5760405162461bcd60e51b815260206004820152602660248201527f4b657973206c656e677468206e6f7420657175616c20746f2076616c7565732060448201527f6c656e67746800000000000000000000000000000000000000000000000000006064820152608401610448565b60005b825181101561051a576105128382815181106104eb576104eb6120e1565b6020026020010151838381518110610505576105056120e1565b6020026020010151610c85565b6001016104cd565b505050565b6060610529610d00565b824710156105795760405162461bcd60e51b815260206004820152601d60248201527f455243373235583a20696e73756666696369656e742062616c616e63650000006044820152606401610448565b8461059057610589848484610d61565b9050610614565b60018514156105a457610589848484610e64565b60028514156105b857610589848484611045565b60038514156105cc576105898484846111e8565b60405162461bcd60e51b815260206004820152601f60248201527f455243373235583a20556e6b6e6f776e206f7065726174696f6e2074797065006044820152606401610448565b949350505050565b6060815167ffffffffffffffff81111561063857610638611c07565b60405190808252806020026020018201604052801561066b57816020015b60608152602001906001900390816106565790505b50905060005b82518110156106ca5761069c83828151811061068f5761068f6120e1565b6020026020010151610ae1565b8282815181106106ae576106ae6120e1565b60200260200101819052506106c38160010190565b9050610671565b50919050565b6000546201000090046001600160a01b03166106ea611337565b6106f3816113eb565b6106fc336114a0565b50565b606061034c82610ae1565b606060006107377f0cfc51aec37c55a4d0b1a65c6255c4bf2fbdf6277f3cc0730c45b828b6db8b47610ae1565b905060148151106107e857600061074d826120a5565b60601c905061076381635122dded60e11b610b83565b156107e657604051635122dded60e11b81526001600160a01b0382169063a245bbda9061079c90339034908b908b908b90600401612120565b6000604051808303816000875af11580156107bb573d6000803e3d6000fd5b505050506040513d6000823e601f3d908101601f191682016040526107e3919081019061215a565b92505b505b816040516107f691906121d1565b604051809103902085336001600160a01b03167f9c3ba68eb5742b8e3961aea0afc7371a71bf433c8a67a831803b64c064a178c234888860405161083c939291906121ed565b60405180910390a4509392505050565b610854610d00565b61085c611512565b565b6000546201000090046001600160a01b03166001600160a01b0316336001600160a01b03161461095a5760006108b37f0cfc51aec37c55a4d0b1a65c6255c4bf2fbdf6277f3cc0730c45b828b6db8b47610ae1565b6108bc906120a5565b60601c90506108d233635122dded60e11b610b83565b80156108e65750336001600160a01b038216145b6109585760405162461bcd60e51b815260206004820152603160248201527f4f6e6c79204f776e6572206f7220556e6976657273616c20526563656976657260448201527f2044656c656761746520616c6c6f7765640000000000000000000000000000006064820152608401610448565b505b6109648282610c85565b5050565b600054610100900460ff16158080156109885750600054600160ff909116105b806109a25750303b1580156109a2575060005460ff166001145b610a145760405162461bcd60e51b815260206004820152602e60248201527f496e697469616c697a61626c653a20636f6e747261637420697320616c72656160448201527f647920696e697469616c697a65640000000000000000000000000000000000006064820152608401610448565b6000805460ff191660011790558015610a37576000805461ff0019166101001790555b610a40826115ca565b8015610964576000805461ff0019169055604051600181527f7f26b83ff96e1f2b6a682f133852f6798a09c465da95921460cefb38474024989060200160405180910390a15050565b610a91610d00565b610a9a816116bb565b6106fc8161172d565b60006001600160e01b031982167f714df77c00000000000000000000000000000000000000000000000000000000148061034c575061034c8261179f565b6000818152600160205260409020805460609190610afe90612207565b80601f0160208091040260200160405190810160405280929190818152602001828054610b2a90612207565b8015610b775780601f10610b4c57610100808354040283529160200191610b77565b820191906000526020600020905b815481529060010190602001808311610b5a57829003601f168201915b50505050509050919050565b604080516001600160e01b0319831660248083019190915282518083039091018152604490910182526020810180517bffffffffffffffffffffffffffffffffffffffffffffffffffffffff166301ffc9a760e01b179052905160009190829081906001600160a01b0387169061753090610bff9086906121d1565b6000604051808303818686fa925050503d8060008114610c3b576040519150601f19603f3d011682016040523d82523d6000602084013e610c40565b606091505b5091509150602081511015610c5b576000935050505061034c565b818015610c7b5750600081806020019051810190610c79919061223c565b115b9695505050505050565b60008281526001602090815260409091208251610ca492840190611b44565b50817fece574603820d07bc9b91f2a932baadf4628aabcb8afba49776529c14a6104b261010083511115610ce557610ce08360006101006117ed565b610ce7565b825b604051610cf49190611f04565b60405180910390a25050565b6000546001600160a01b036201000090910416331461085c5760405162461bcd60e51b815260206004820181905260248201527f4f776e61626c653a2063616c6c6572206973206e6f7420746865206f776e65726044820152606401610448565b6060600080856001600160a01b03168585604051610d7f91906121d1565b60006040518083038185875af1925050503d8060008114610dbc576040519150601f19603f3d011682016040523d82523d6000602084013e610dc1565b606091505b5091509150610e0682826040518060400160405280601681526020017f455243373235583a20556e6b6e6f776e204572726f7200000000000000000000815250611917565b9250846001600160a01b03871660007f4810874456b8e6487bd861375cf6abd8e1c8bb5858c8ce36a86a04dabfac199e610e3f88612255565b6040516001600160e01b0319909116815260200160405180910390a450509392505050565b60606001600160a01b03841615610eef5760405162461bcd60e51b815260206004820152604360248201527f455243373235583a20435245415445206f7065726174696f6e7320726571756960448201527f726520746865207265636569766572206164647265737320746f20626520656d60648201526270747960e81b608482015260a401610448565b8151610f4c5760405162461bcd60e51b815260206004820152602660248201527f455243373235583a204e6f20636f6e74726163742062797465636f64652070726044820152651bdd9a59195960d21b6064820152608401610448565b600082516020840185f090506001600160a01b038116610fd45760405162461bcd60e51b815260206004820152602260248201527f455243373235583a20436f756c64206e6f74206465706c6f7920636f6e74726160448201527f63740000000000000000000000000000000000000000000000000000000000006064820152608401610448565b6040516bffffffffffffffffffffffff19606083901b166020820152603401604051602081830303815290604052915083816001600160a01b031660017f01c42bd7e97a66166063b02fce6924e6656b6c2c61966630165095c4fb0b7b2f60405160405180910390a4509392505050565b60606001600160a01b038416156110d05760405162461bcd60e51b815260206004820152604360248201527f455243373235583a20435245415445206f7065726174696f6e7320726571756960448201527f726520746865207265636569766572206164647265737320746f20626520656d60648201526270747960e81b608482015260a401610448565b815161112d5760405162461bcd60e51b815260206004820152602660248201527f455243373235583a204e6f20636f6e74726163742062797465636f64652070726044820152651bdd9a59195960d21b6064820152608401610448565b60006111468360208551611141919061229f565b611950565b905060006111638460006020875161115e919061229f565b6117ed565b905060006111728684846119b6565b6040516bffffffffffffffffffffffff19606083901b166020820152909150603401604051602081830303815290604052935085816001600160a01b031660027f01c42bd7e97a66166063b02fce6924e6656b6c2c61966630165095c4fb0b7b2f60405160405180910390a45050509392505050565b6060821561125e5760405162461bcd60e51b815260206004820152603860248201527f455243373235583a2063616e6e6f74207472616e736665722076616c7565207760448201527f697468206f7065726174696f6e2053544154494343414c4c00000000000000006064820152608401610448565b600080856001600160a01b03168460405161127991906121d1565b600060405180830381855afa9150503d80600081146112b4576040519150601f19603f3d011682016040523d82523d6000602084013e6112b9565b606091505b50915091506112fe82826040518060400160405280601681526020017f455243373235583a20556e6b6e6f776e204572726f7200000000000000000000815250611917565b9250846001600160a01b03871660037f4810874456b8e6487bd861375cf6abd8e1c8bb5858c8ce36a86a04dabfac199e610e3f88612255565b6003546001600160a01b031633146113b75760405162461bcd60e51b815260206004820152602e60248201527f436c61696d4f776e6572736869703a2063616c6c6572206973206e6f7420746860448201527f652070656e64696e674f776e65720000000000000000000000000000000000006064820152608401610448565b6003546113cc906001600160a01b0316611ab8565b6003805473ffffffffffffffffffffffffffffffffffffffff19169055565b6113fc81631aed5a8560e21b610b83565b156106fc5760408051631aed5a8560e21b81527f3ca9f769340018257ac15b3a00e502e8fb730d66086f774210f84d0205af31e760048201526024810191909152600060448201526001600160a01b03821690636bb56a14906064015b6000604051808303816000875af1158015611478573d6000803e3d6000fd5b505050506040513d6000823e601f3d908101601f19168201604052610964919081019061215a565b6114b181631aed5a8560e21b610b83565b156106fc5760408051631aed5a8560e21b81527f09aaf55960715d8d86b57af40be36b0bfd469c9a3643445d8c65d39e27b4c56f60048201526024810191909152600060448201526001600160a01b03821690636bb56a1490606401611459565b6002544390600090611526906064906122b6565b905060006115356064836122b6565b9050808311156115725760028390556040517f56272768d104766ae5e663c58927d0a9e47effb40b9a8f6644ac5dfbc9e56f8490600090a1505050565b818310156115b6576040517f8b9bf5070000000000000000000000000000000000000000000000000000000081526004810183905260248101829052604401610448565b6115c06000611ab8565b5050600060025550565b600054610100900460ff166116475760405162461bcd60e51b815260206004820152602b60248201527f496e697469616c697a61626c653a20636f6e7472616374206973206e6f74206960448201527f6e697469616c697a696e670000000000000000000000000000000000000000006064820152608401610448565b61165081611ab8565b6116b27feafec4d89fa9619884b600007c0334a14085fefa8b51ae5a40895018882bdb9060001b6040518060400160405280600481526020017f7c0334a100000000000000000000000000000000000000000000000000000000815250610c85565b6106fc816114a0565b6001600160a01b0381163014156116fe576040517f43b248cd00000000000000000000000000000000000000000000000000000000815260040160405180910390fd5b6003805473ffffffffffffffffffffffffffffffffffffffff19166001600160a01b0392909216919091179055565b61173e81631aed5a8560e21b610b83565b156106fc5760408051631aed5a8560e21b81527f50d401f7017708f51f2a7a1c24146f786926c831079107140037b8ebef9fd32660048201526024810191909152600060448201526001600160a01b03821690636bb56a1490606401611459565b60006001600160e01b031982167f44c028fe00000000000000000000000000000000000000000000000000000000148061034c57506301ffc9a760e01b6001600160e01b031983161461034c565b6060816117fb81601f6122b6565b10156118495760405162461bcd60e51b815260206004820152600e60248201527f736c6963655f6f766572666c6f770000000000000000000000000000000000006044820152606401610448565b61185382846122b6565b845110156118a35760405162461bcd60e51b815260206004820152601160248201527f736c6963655f6f75744f66426f756e64730000000000000000000000000000006044820152606401610448565b6060821580156118c2576040519150600082526020820160405261190c565b6040519150601f8416801560200281840101858101878315602002848b0101015b818310156118fb5780518352602092830192016118e3565b5050858452601f01601f1916604052505b5090505b9392505050565b60608315611926575081611910565b8251156119365782518084602001fd5b8160405162461bcd60e51b81526004016104489190611f04565b600061195d8260206122b6565b835110156119ad5760405162461bcd60e51b815260206004820152601560248201527f746f427974657333325f6f75744f66426f756e647300000000000000000000006044820152606401610448565b50016020015190565b60008084471015611a095760405162461bcd60e51b815260206004820152601d60248201527f437265617465323a20696e73756666696369656e742062616c616e63650000006044820152606401610448565b8251611a575760405162461bcd60e51b815260206004820181905260248201527f437265617465323a2062797465636f6465206c656e677468206973207a65726f6044820152606401610448565b8383516020850187f590506001600160a01b0381166106145760405162461bcd60e51b815260206004820152601960248201527f437265617465323a204661696c6564206f6e206465706c6f79000000000000006044820152606401610448565b6000546001600160a01b038281166201000090920416146106fc57600080546001600160a01b03838116620100008181027fffffffffffffffffffff0000000000000000000000000000000000000000ffff851617855560405193049190911692909183917f8be0079c531659141344cd1fd0a4f28419497f9722a3daafe3b4186f6b6457e091a35050565b828054611b5090612207565b90600052602060002090601f016020900481019282611b725760008555611bb8565b82601f10611b8b57805160ff1916838001178555611bb8565b82800160010185558215611bb8579182015b82811115611bb8578251825591602001919060010190611b9d565b50611bc4929150611bc8565b5090565b5b80821115611bc45760008155600101611bc9565b600060208284031215611bef57600080fd5b81356001600160e01b03198116811461191057600080fd5b634e487b7160e01b600052604160045260246000fd5b604051601f8201601f1916810167ffffffffffffffff81118282101715611c4657611c46611c07565b604052919050565b600067ffffffffffffffff821115611c6857611c68611c07565b5060051b60200190565b600082601f830112611c8357600080fd5b81356020611c98611c9383611c4e565b611c1d565b82815260059290921b84018101918181019086841115611cb757600080fd5b8286015b84811015611cd25780358352918301918301611cbb565b509695505050505050565b600067ffffffffffffffff821115611cf757611cf7611c07565b50601f01601f191660200190565b600082601f830112611d1657600080fd5b8135611d24611c9382611cdd565b818152846020838601011115611d3957600080fd5b816020850160208301376000918101602001919091529392505050565b60008060408385031215611d6957600080fd5b823567ffffffffffffffff80821115611d8157600080fd5b611d8d86838701611c72565b9350602091508185013581811115611da457600080fd5b8501601f81018713611db557600080fd5b8035611dc3611c9382611c4e565b81815260059190911b82018401908481019089831115611de257600080fd5b8584015b83811015611e1a57803586811115611dfe5760008081fd5b611e0c8c8983890101611d05565b845250918601918601611de6565b508096505050505050509250929050565b80356001600160a01b0381168114611e4257600080fd5b919050565b60008060008060808587031215611e5d57600080fd5b84359350611e6d60208601611e2b565b925060408501359150606085013567ffffffffffffffff811115611e9057600080fd5b611e9c87828801611d05565b91505092959194509250565b60005b83811015611ec3578181015183820152602001611eab565b83811115611ed2576000848401525b50505050565b60008151808452611ef0816020860160208601611ea8565b601f01601f19169290920160200192915050565b6020815260006119106020830184611ed8565b600060208284031215611f2957600080fd5b813567ffffffffffffffff811115611f4057600080fd5b61061484828501611c72565b6000602080830181845280855180835260408601915060408160051b870101925083870160005b82811015611fa157603f19888603018452611f8f858351611ed8565b94509285019290850190600101611f73565b5092979650505050505050565b600060208284031215611fc057600080fd5b5035919050565b600080600060408486031215611fdc57600080fd5b83359250602084013567ffffffffffffffff80821115611ffb57600080fd5b818601915086601f83011261200f57600080fd5b81358181111561201e57600080fd5b87602082850101111561203057600080fd5b6020830194508093505050509250925092565b6000806040838503121561205657600080fd5b82359150602083013567ffffffffffffffff81111561207457600080fd5b61208085828601611d05565b9150509250929050565b60006020828403121561209c57600080fd5b61191082611e2b565b805160208201516bffffffffffffffffffffffff1980821692919060148310156120d95780818460140360031b1b83161693505b505050919050565b634e487b7160e01b600052603260045260246000fd5b81835281816020850137506000828201602090810191909152601f909101601f19169091010190565b6001600160a01b038616815284602082015283604082015260806060820152600061214f6080830184866120f7565b979650505050505050565b60006020828403121561216c57600080fd5b815167ffffffffffffffff81111561218357600080fd5b8201601f8101841361219457600080fd5b80516121a2611c9382611cdd565b8181528560208385010111156121b757600080fd5b6121c8826020830160208601611ea8565b95945050505050565b600082516121e3818460208701611ea8565b9190910192915050565b8381526040602082015260006121c86040830184866120f7565b600181811c9082168061221b57607f821691505b602082108114156106ca57634e487b7160e01b600052602260045260246000fd5b60006020828403121561224e57600080fd5b5051919050565b6000815160208301516001600160e01b0319808216935060048310156120d95760049290920360031b82901b161692915050565b634e487b7160e01b600052601160045260246000fd5b6000828210156122b1576122b1612289565b500390565b600082198211156122c9576122c9612289565b50019056fea2646970667358221220a5013404e25b38ea05a8023821758ac42f93a5f6f91b504e517d94deda42b59f64736f6c634300080a0033",
  "linkReferences": {},
  "deployedLinkReferences": {}
}