{
  "_format": "hh-sol-artifact-1",
  "contractName": "LSP9Vault",
  "sourceName": "contracts/LSP9Vault/LSP9Vault.sol",
  "abi": [
    {
      "inputs": [
        {
          "internalType": "address",
          "name": "newOwner",
          "type": "address"
        }
      ],
      "stateMutability": "nonpayable",
      "type": "constructor"
    },
    {
      "inputs": [],
      "name": "CannotTransferOwnershipToSelf",
      "type": "error"
    },
    {
      "inputs": [
        {
          "internalType": "uint256",
          "name": "renounceOwnershipStart",
          "type": "uint256"
        },
        {
          "internalType": "uint256",
          "name": "renounceOwnershipEnd",
          "type": "uint256"
        }
      ],
      "name": "NotInRenounceOwnershipInterval",
      "type": "error"
    },
    {
      "anonymous": false,
      "inputs": [
        {
          "indexed": true,
          "internalType": "uint256",
          "name": "operation",
          "type": "uint256"
        },
        {
          "indexed": true,
          "internalType": "address",
          "name": "contractAddress",
          "type": "address"
        },
        {
          "indexed": true,
          "internalType": "uint256",
          "name": "value",
          "type": "uint256"
        }
      ],
      "name": "ContractCreated",
      "type": "event"
    },
    {
      "anonymous": false,
      "inputs": [
        {
          "indexed": true,
          "internalType": "bytes32",
          "name": "dataKey",
          "type": "bytes32"
        },
        {
          "indexed": false,
          "internalType": "bytes",
          "name": "dataValue",
          "type": "bytes"
        }
      ],
      "name": "DataChanged",
      "type": "event"
    },
    {
      "anonymous": false,
      "inputs": [
        {
          "indexed": true,
          "internalType": "uint256",
          "name": "operation",
          "type": "uint256"
        },
        {
          "indexed": true,
          "internalType": "address",
          "name": "to",
          "type": "address"
        },
        {
          "indexed": true,
          "internalType": "uint256",
          "name": "value",
          "type": "uint256"
        },
        {
          "indexed": false,
          "internalType": "bytes4",
          "name": "selector",
          "type": "bytes4"
        }
      ],
      "name": "Executed",
      "type": "event"
    },
    {
      "anonymous": false,
      "inputs": [
        {
          "indexed": true,
          "internalType": "address",
          "name": "previousOwner",
          "type": "address"
        },
        {
          "indexed": true,
          "internalType": "address",
          "name": "newOwner",
          "type": "address"
        }
      ],
      "name": "OwnershipTransferred",
      "type": "event"
    },
    {
      "anonymous": false,
      "inputs": [],
      "name": "RenounceOwnershipInitiated",
      "type": "event"
    },
    {
      "anonymous": false,
      "inputs": [
        {
          "indexed": true,
          "internalType": "address",
          "name": "from",
          "type": "address"
        },
        {
          "indexed": false,
          "internalType": "uint256",
          "name": "value",
          "type": "uint256"
        },
        {
          "indexed": true,
          "internalType": "bytes32",
          "name": "typeId",
          "type": "bytes32"
        },
        {
          "indexed": true,
          "internalType": "bytes",
          "name": "returnedValue",
          "type": "bytes"
        },
        {
          "indexed": false,
          "internalType": "bytes",
          "name": "receivedData",
          "type": "bytes"
        }
      ],
      "name": "UniversalReceiver",
      "type": "event"
    },
    {
      "anonymous": false,
      "inputs": [
        {
          "indexed": true,
          "internalType": "address",
          "name": "sender",
          "type": "address"
        },
        {
          "indexed": true,
          "internalType": "uint256",
          "name": "value",
          "type": "uint256"
        }
      ],
      "name": "ValueReceived",
      "type": "event"
    },
    {
      "stateMutability": "payable",
      "type": "fallback"
    },
    {
      "inputs": [],
      "name": "claimOwnership",
      "outputs": [],
      "stateMutability": "nonpayable",
      "type": "function"
    },
    {
      "inputs": [
        {
          "internalType": "uint256",
          "name": "operation",
          "type": "uint256"
        },
        {
          "internalType": "address",
          "name": "to",
          "type": "address"
        },
        {
          "internalType": "uint256",
          "name": "value",
          "type": "uint256"
        },
        {
          "internalType": "bytes",
          "name": "data",
          "type": "bytes"
        }
      ],
      "name": "execute",
      "outputs": [
        {
          "internalType": "bytes",
          "name": "",
          "type": "bytes"
        }
      ],
      "stateMutability": "payable",
      "type": "function"
    },
    {
      "inputs": [
        {
          "internalType": "bytes32[]",
          "name": "dataKeys",
          "type": "bytes32[]"
        }
      ],
      "name": "getData",
      "outputs": [
        {
          "internalType": "bytes[]",
          "name": "dataValues",
          "type": "bytes[]"
        }
      ],
      "stateMutability": "view",
      "type": "function"
    },
    {
      "inputs": [
        {
          "internalType": "bytes32",
          "name": "dataKey",
          "type": "bytes32"
        }
      ],
      "name": "getData",
      "outputs": [
        {
          "internalType": "bytes",
          "name": "dataValue",
          "type": "bytes"
        }
      ],
      "stateMutability": "view",
      "type": "function"
    },
    {
      "inputs": [],
      "name": "owner",
      "outputs": [
        {
          "internalType": "address",
          "name": "",
          "type": "address"
        }
      ],
      "stateMutability": "view",
      "type": "function"
    },
    {
      "inputs": [],
      "name": "pendingOwner",
      "outputs": [
        {
          "internalType": "address",
          "name": "",
          "type": "address"
        }
      ],
      "stateMutability": "view",
      "type": "function"
    },
    {
      "inputs": [],
      "name": "renounceOwnership",
      "outputs": [],
      "stateMutability": "nonpayable",
      "type": "function"
    },
    {
      "inputs": [
        {
          "internalType": "bytes32[]",
          "name": "dataKeys",
          "type": "bytes32[]"
        },
        {
          "internalType": "bytes[]",
          "name": "dataValues",
          "type": "bytes[]"
        }
      ],
      "name": "setData",
      "outputs": [],
      "stateMutability": "nonpayable",
      "type": "function"
    },
    {
      "inputs": [
        {
          "internalType": "bytes32",
          "name": "dataKey",
          "type": "bytes32"
        },
        {
          "internalType": "bytes",
          "name": "dataValue",
          "type": "bytes"
        }
      ],
      "name": "setData",
      "outputs": [],
      "stateMutability": "nonpayable",
      "type": "function"
    },
    {
      "inputs": [
        {
          "internalType": "bytes4",
          "name": "interfaceId",
          "type": "bytes4"
        }
      ],
      "name": "supportsInterface",
      "outputs": [
        {
          "internalType": "bool",
          "name": "",
          "type": "bool"
        }
      ],
      "stateMutability": "view",
      "type": "function"
    },
    {
      "inputs": [
        {
          "internalType": "address",
          "name": "newOwner",
          "type": "address"
        }
      ],
      "name": "transferOwnership",
      "outputs": [],
      "stateMutability": "nonpayable",
      "type": "function"
    },
    {
      "inputs": [
        {
          "internalType": "bytes32",
          "name": "typeId",
          "type": "bytes32"
        },
        {
          "internalType": "bytes",
          "name": "data",
          "type": "bytes"
        }
      ],
      "name": "universalReceiver",
      "outputs": [
        {
          "internalType": "bytes",
          "name": "returnValue",
          "type": "bytes"
        }
      ],
      "stateMutability": "payable",
      "type": "function"
    }
  ],
  "bytecode": "0x60806040523480156200001157600080fd5b50604051620027aa380380620027aa83398101604081905262000034916200051d565b6200004a81620000a460201b6200091b1760201c565b6040805180820190915260048152637c0334a160e01b602082015262000092907feafec4d89fa9619884b600007c0334a14085fefa8b51ae5a40895018882bdb90906200010b565b6200009d8162000199565b5062000721565b6000546001600160a01b038281169116146200010857600080546001600160a01b038381166001600160a01b0319831681178455604051919092169283917f8be0079c531659141344cd1fd0a4f28419497f9722a3daafe3b4186f6b6457e09190a3505b50565b600082815260016020908152604090912082516200012c9284019062000477565b50817fece574603820d07bc9b91f2a932baadf4628aabcb8afba49776529c14a6104b2610100835111156200017c57620001768360006101006200026260201b6200098d1760201c565b6200017e565b825b6040516200018d919062000582565b60405180910390a25050565b620001b781636bb56a1460e01b6200037f60201b62000ab71760201c565b15620001085760408051631aed5a8560e21b81527f09aaf55960715d8d86b57af40be36b0bfd469c9a3643445d8c65d39e27b4c56f60048201526024810191909152600060448201526001600160a01b03821690636bb56a14906064016000604051808303816000875af115801562000234573d6000803e3d6000fd5b505050506040513d6000823e601f3d908101601f191682016040526200025e9190810190620005cd565b5050565b6060816200027281601f62000685565b1015620002b75760405162461bcd60e51b815260206004820152600e60248201526d736c6963655f6f766572666c6f7760901b60448201526064015b60405180910390fd5b620002c3828462000685565b84511015620003095760405162461bcd60e51b8152602060048201526011602482015270736c6963655f6f75744f66426f756e647360781b6044820152606401620002ae565b6060821580156200032a576040519150600082526020820160405262000376565b6040519150601f8416801560200281840101858101878315602002848b0101015b81831015620003655780518352602092830192016200034b565b5050858452601f01601f1916604052505b50949350505050565b604080516001600160e01b0319831660248083019190915282518083039091018152604490910182526020810180516001600160e01b03166301ffc9a760e01b179052905160009190829081906001600160a01b0387169061753090620003e8908690620006ac565b6000604051808303818686fa925050503d806000811462000426576040519150601f19603f3d011682016040523d82523d6000602084013e6200042b565b606091505b509150915060208151101562000448576000935050505062000471565b8180156200046b5750600081806020019051810190620004699190620006ca565b115b93505050505b92915050565b8280546200048590620006e4565b90600052602060002090601f016020900481019282620004a95760008555620004f4565b82601f10620004c457805160ff1916838001178555620004f4565b82800160010185558215620004f4579182015b82811115620004f4578251825591602001919060010190620004d7565b506200050292915062000506565b5090565b5b8082111562000502576000815560010162000507565b6000602082840312156200053057600080fd5b81516001600160a01b03811681146200054857600080fd5b9392505050565b60005b838110156200056c57818101518382015260200162000552565b838111156200057c576000848401525b50505050565b6020815260008251806020840152620005a38160408501602087016200054f565b601f01601f19169190910160400192915050565b634e487b7160e01b600052604160045260246000fd5b600060208284031215620005e057600080fd5b81516001600160401b0380821115620005f857600080fd5b818401915084601f8301126200060d57600080fd5b815181811115620006225762000622620005b7565b604051601f8201601f19908116603f011681019083821181831017156200064d576200064d620005b7565b816040528281528760208487010111156200066757600080fd5b6200067a8360208301602088016200054f565b979650505050505050565b60008219821115620006a757634e487b7160e01b600052601160045260246000fd5b500190565b60008251620006c08184602087016200054f565b9190910192915050565b600060208284031215620006dd57600080fd5b5051919050565b600181811c90821680620006f957607f821691505b602082108114156200071b57634e487b7160e01b600052602260045260246000fd5b50919050565b61207980620007316000396000f3fe6080604052600436106100c75760003560e01c80636bb56a14116100745780638da5cb5b1161004e5780638da5cb5b1461021c578063e30c39781461024e578063f2fde38b1461026e576100c7565b80636bb56a14146101d4578063715018a6146101e75780637f23690c146101fc576100c7565b80634e3e6e9c116100a55780634e3e6e9c146101725780634e71e0c81461019f57806354f6127f146101b4576100c7565b806301ffc9a7146100fd57806314a6e2931461013257806344c028fe14610152575b34156100fb57604051349033907f7e71433ddf847725166244795048ecf3e3f9f35628254ecbf73605666423349390600090a35b005b34801561010957600080fd5b5061011d610118366004611952565b61028e565b60405190151581526020015b60405180910390f35b34801561013e57600080fd5b506100fb61014d366004611acb565b610321565b610165610160366004611bbc565b6104d6565b6040516101299190611c79565b34801561017e57600080fd5b5061019261018d366004611c8c565b6105d3565b6040516101299190611cc1565b3480156101ab57600080fd5b506100fb610687565b3480156101c057600080fd5b506101656101cf366004611d23565b6106b0565b6101656101e2366004611d3c565b6106bb565b3480156101f357600080fd5b506100fb6107fd565b34801561020857600080fd5b506100fb610217366004611db8565b61080f565b34801561022857600080fd5b506000546001600160a01b03165b6040516001600160a01b039091168152602001610129565b34801561025a57600080fd5b50600354610236906001600160a01b031681565b34801561027a57600080fd5b506100fb610289366004611dff565b610901565b60006001600160e01b031982167ffd4d5c500000000000000000000000000000000000000000000000000000000014806102d857506001600160e01b03198216631aed5a8560e21b145b8061030c57506001600160e01b031982167fa375e9c600000000000000000000000000000000000000000000000000000000145b8061031b575061031b82610bb9565b92915050565b6000546001600160a01b0316331461040a57600061035e7f0cfc51aec37c55a4d0b1a65c6255c4bf2fbdf6277f3cc0730c45b828b6db8b47610bf7565b61036790611e1a565b60601c905061037d33635122dded60e11b610ab7565b80156103915750336001600160a01b038216145b6104085760405162461bcd60e51b815260206004820152603160248201527f4f6e6c79204f776e6572206f7220556e6976657273616c20526563656976657260448201527f2044656c656761746520616c6c6f77656400000000000000000000000000000060648201526084015b60405180910390fd5b505b80518251146104815760405162461bcd60e51b815260206004820152602660248201527f4b657973206c656e677468206e6f7420657175616c20746f2076616c7565732060448201527f6c656e677468000000000000000000000000000000000000000000000000000060648201526084016103ff565b60005b82518110156104d1576104c98382815181106104a2576104a2611e56565b60200260200101518383815181106104bc576104bc611e56565b6020026020010151610c99565b600101610484565b505050565b60606104e0610d14565b824710156105305760405162461bcd60e51b815260206004820152601d60248201527f455243373235583a20696e73756666696369656e742062616c616e636500000060448201526064016103ff565b8461054757610540848484610d7d565b90506105cb565b600185141561055b57610540848484610e80565b600285141561056f57610540848484611061565b600385141561058357610540848484611204565b60405162461bcd60e51b815260206004820152601f60248201527f455243373235583a20556e6b6e6f776e206f7065726174696f6e20747970650060448201526064016103ff565b949350505050565b6060815167ffffffffffffffff8111156105ef576105ef61197c565b60405190808252806020026020018201604052801561062257816020015b606081526020019060019003908161060d5790505b50905060005b82518110156106815761065383828151811061064657610646611e56565b6020026020010151610bf7565b82828151811061066557610665611e56565b602002602001018190525061067a8160010190565b9050610628565b50919050565b6000546001600160a01b031661069b611353565b6106a481611407565b6106ad336114bc565b50565b606061031b82610bf7565b606060006106e87f0cfc51aec37c55a4d0b1a65c6255c4bf2fbdf6277f3cc0730c45b828b6db8b47610bf7565b905060148151106107995760006106fe82611e1a565b60601c905061071481635122dded60e11b610ab7565b1561079757604051635122dded60e11b81526001600160a01b0382169063a245bbda9061074d90339034908b908b908b90600401611e95565b6000604051808303816000875af115801561076c573d6000803e3d6000fd5b505050506040513d6000823e601f3d908101601f191682016040526107949190810190611ecf565b92505b505b816040516107a79190611f46565b604051809103902085336001600160a01b03167f9c3ba68eb5742b8e3961aea0afc7371a71bf433c8a67a831803b64c064a178c23488886040516107ed93929190611f62565b60405180910390a4509392505050565b610805610d14565b61080d61152e565b565b6000546001600160a01b031633146108f357600061084c7f0cfc51aec37c55a4d0b1a65c6255c4bf2fbdf6277f3cc0730c45b828b6db8b47610bf7565b61085590611e1a565b60601c905061086b33635122dded60e11b610ab7565b801561087f5750336001600160a01b038216145b6108f15760405162461bcd60e51b815260206004820152603160248201527f4f6e6c79204f776e6572206f7220556e6976657273616c20526563656976657260448201527f2044656c656761746520616c6c6f77656400000000000000000000000000000060648201526084016103ff565b505b6108fd8282610c99565b5050565b610909610d14565b610912816115e6565b6106ad81611658565b6000546001600160a01b038281169116146106ad57600080546001600160a01b0383811673ffffffffffffffffffffffffffffffffffffffff19831681178455604051919092169283917f8be0079c531659141344cd1fd0a4f28419497f9722a3daafe3b4186f6b6457e09190a35050565b60608161099b81601f611f92565b10156109e95760405162461bcd60e51b815260206004820152600e60248201527f736c6963655f6f766572666c6f7700000000000000000000000000000000000060448201526064016103ff565b6109f38284611f92565b84511015610a435760405162461bcd60e51b815260206004820152601160248201527f736c6963655f6f75744f66426f756e647300000000000000000000000000000060448201526064016103ff565b606082158015610a625760405191506000825260208201604052610aac565b6040519150601f8416801560200281840101858101878315602002848b0101015b81831015610a9b578051835260209283019201610a83565b5050858452601f01601f1916604052505b5090505b9392505050565b604080516001600160e01b0319831660248083019190915282518083039091018152604490910182526020810180517bffffffffffffffffffffffffffffffffffffffffffffffffffffffff166301ffc9a760e01b179052905160009190829081906001600160a01b0387169061753090610b33908690611f46565b6000604051808303818686fa925050503d8060008114610b6f576040519150601f19603f3d011682016040523d82523d6000602084013e610b74565b606091505b5091509150602081511015610b8f576000935050505061031b565b818015610baf5750600081806020019051810190610bad9190611faa565b115b9695505050505050565b60006001600160e01b031982167f714df77c00000000000000000000000000000000000000000000000000000000148061031b575061031b826116ca565b6000818152600160205260409020805460609190610c1490611fc3565b80601f0160208091040260200160405190810160405280929190818152602001828054610c4090611fc3565b8015610c8d5780601f10610c6257610100808354040283529160200191610c8d565b820191906000526020600020905b815481529060010190602001808311610c7057829003601f168201915b50505050509050919050565b60008281526001602090815260409091208251610cb8928401906118b9565b50817fece574603820d07bc9b91f2a932baadf4628aabcb8afba49776529c14a6104b261010083511115610cf957610cf483600061010061098d565b610cfb565b825b604051610d089190611c79565b60405180910390a25050565b33610d276000546001600160a01b031690565b6001600160a01b03161461080d5760405162461bcd60e51b815260206004820181905260248201527f4f776e61626c653a2063616c6c6572206973206e6f7420746865206f776e657260448201526064016103ff565b6060600080856001600160a01b03168585604051610d9b9190611f46565b60006040518083038185875af1925050503d8060008114610dd8576040519150601f19603f3d011682016040523d82523d6000602084013e610ddd565b606091505b5091509150610e2282826040518060400160405280601681526020017f455243373235583a20556e6b6e6f776e204572726f7200000000000000000000815250611718565b9250846001600160a01b03871660007f4810874456b8e6487bd861375cf6abd8e1c8bb5858c8ce36a86a04dabfac199e610e5b88611ff8565b6040516001600160e01b0319909116815260200160405180910390a450509392505050565b60606001600160a01b03841615610f0b5760405162461bcd60e51b815260206004820152604360248201527f455243373235583a20435245415445206f7065726174696f6e7320726571756960448201527f726520746865207265636569766572206164647265737320746f20626520656d60648201526270747960e81b608482015260a4016103ff565b8151610f685760405162461bcd60e51b815260206004820152602660248201527f455243373235583a204e6f20636f6e74726163742062797465636f64652070726044820152651bdd9a59195960d21b60648201526084016103ff565b600082516020840185f090506001600160a01b038116610ff05760405162461bcd60e51b815260206004820152602260248201527f455243373235583a20436f756c64206e6f74206465706c6f7920636f6e74726160448201527f637400000000000000000000000000000000000000000000000000000000000060648201526084016103ff565b6040516bffffffffffffffffffffffff19606083901b166020820152603401604051602081830303815290604052915083816001600160a01b031660017f01c42bd7e97a66166063b02fce6924e6656b6c2c61966630165095c4fb0b7b2f60405160405180910390a4509392505050565b60606001600160a01b038416156110ec5760405162461bcd60e51b815260206004820152604360248201527f455243373235583a20435245415445206f7065726174696f6e7320726571756960448201527f726520746865207265636569766572206164647265737320746f20626520656d60648201526270747960e81b608482015260a4016103ff565b81516111495760405162461bcd60e51b815260206004820152602660248201527f455243373235583a204e6f20636f6e74726163742062797465636f64652070726044820152651bdd9a59195960d21b60648201526084016103ff565b6000611162836020855161115d919061202c565b611751565b9050600061117f8460006020875161117a919061202c565b61098d565b9050600061118e8684846117b7565b6040516bffffffffffffffffffffffff19606083901b166020820152909150603401604051602081830303815290604052935085816001600160a01b031660027f01c42bd7e97a66166063b02fce6924e6656b6c2c61966630165095c4fb0b7b2f60405160405180910390a45050509392505050565b6060821561127a5760405162461bcd60e51b815260206004820152603860248201527f455243373235583a2063616e6e6f74207472616e736665722076616c7565207760448201527f697468206f7065726174696f6e2053544154494343414c4c000000000000000060648201526084016103ff565b600080856001600160a01b0316846040516112959190611f46565b600060405180830381855afa9150503d80600081146112d0576040519150601f19603f3d011682016040523d82523d6000602084013e6112d5565b606091505b509150915061131a82826040518060400160405280601681526020017f455243373235583a20556e6b6e6f776e204572726f7200000000000000000000815250611718565b9250846001600160a01b03871660037f4810874456b8e6487bd861375cf6abd8e1c8bb5858c8ce36a86a04dabfac199e610e5b88611ff8565b6003546001600160a01b031633146113d35760405162461bcd60e51b815260206004820152602e60248201527f436c61696d4f776e6572736869703a2063616c6c6572206973206e6f7420746860448201527f652070656e64696e674f776e657200000000000000000000000000000000000060648201526084016103ff565b6003546113e8906001600160a01b031661091b565b6003805473ffffffffffffffffffffffffffffffffffffffff19169055565b61141881631aed5a8560e21b610ab7565b156106ad5760408051631aed5a8560e21b81527f3ca9f769340018257ac15b3a00e502e8fb730d66086f774210f84d0205af31e760048201526024810191909152600060448201526001600160a01b03821690636bb56a14906064015b6000604051808303816000875af1158015611494573d6000803e3d6000fd5b505050506040513d6000823e601f3d908101601f191682016040526108fd9190810190611ecf565b6114cd81631aed5a8560e21b610ab7565b156106ad5760408051631aed5a8560e21b81527f09aaf55960715d8d86b57af40be36b0bfd469c9a3643445d8c65d39e27b4c56f60048201526024810191909152600060448201526001600160a01b03821690636bb56a1490606401611475565b600254439060009061154290606490611f92565b90506000611551606483611f92565b90508083111561158e5760028390556040517f56272768d104766ae5e663c58927d0a9e47effb40b9a8f6644ac5dfbc9e56f8490600090a1505050565b818310156115d2576040517f8b9bf50700000000000000000000000000000000000000000000000000000000815260048101839052602481018290526044016103ff565b6115dc600061091b565b5050600060025550565b6001600160a01b038116301415611629576040517f43b248cd00000000000000000000000000000000000000000000000000000000815260040160405180910390fd5b6003805473ffffffffffffffffffffffffffffffffffffffff19166001600160a01b0392909216919091179055565b61166981631aed5a8560e21b610ab7565b156106ad5760408051631aed5a8560e21b81527f50d401f7017708f51f2a7a1c24146f786926c831079107140037b8ebef9fd32660048201526024810191909152600060448201526001600160a01b03821690636bb56a1490606401611475565b60006001600160e01b031982167f44c028fe00000000000000000000000000000000000000000000000000000000148061031b57506301ffc9a760e01b6001600160e01b031983161461031b565b60608315611727575081610ab0565b8251156117375782518084602001fd5b8160405162461bcd60e51b81526004016103ff9190611c79565b600061175e826020611f92565b835110156117ae5760405162461bcd60e51b815260206004820152601560248201527f746f427974657333325f6f75744f66426f756e6473000000000000000000000060448201526064016103ff565b50016020015190565b6000808447101561180a5760405162461bcd60e51b815260206004820152601d60248201527f437265617465323a20696e73756666696369656e742062616c616e636500000060448201526064016103ff565b82516118585760405162461bcd60e51b815260206004820181905260248201527f437265617465323a2062797465636f6465206c656e677468206973207a65726f60448201526064016103ff565b8383516020850187f590506001600160a01b0381166105cb5760405162461bcd60e51b815260206004820152601960248201527f437265617465323a204661696c6564206f6e206465706c6f790000000000000060448201526064016103ff565b8280546118c590611fc3565b90600052602060002090601f0160209004810192826118e7576000855561192d565b82601f1061190057805160ff191683800117855561192d565b8280016001018555821561192d579182015b8281111561192d578251825591602001919060010190611912565b5061193992915061193d565b5090565b5b80821115611939576000815560010161193e565b60006020828403121561196457600080fd5b81356001600160e01b031981168114610ab057600080fd5b634e487b7160e01b600052604160045260246000fd5b604051601f8201601f1916810167ffffffffffffffff811182821017156119bb576119bb61197c565b604052919050565b600067ffffffffffffffff8211156119dd576119dd61197c565b5060051b60200190565b600082601f8301126119f857600080fd5b81356020611a0d611a08836119c3565b611992565b82815260059290921b84018101918181019086841115611a2c57600080fd5b8286015b84811015611a475780358352918301918301611a30565b509695505050505050565b600067ffffffffffffffff821115611a6c57611a6c61197c565b50601f01601f191660200190565b600082601f830112611a8b57600080fd5b8135611a99611a0882611a52565b818152846020838601011115611aae57600080fd5b816020850160208301376000918101602001919091529392505050565b60008060408385031215611ade57600080fd5b823567ffffffffffffffff80821115611af657600080fd5b611b02868387016119e7565b9350602091508185013581811115611b1957600080fd5b8501601f81018713611b2a57600080fd5b8035611b38611a08826119c3565b81815260059190911b82018401908481019089831115611b5757600080fd5b8584015b83811015611b8f57803586811115611b735760008081fd5b611b818c8983890101611a7a565b845250918601918601611b5b565b508096505050505050509250929050565b80356001600160a01b0381168114611bb757600080fd5b919050565b60008060008060808587031215611bd257600080fd5b84359350611be260208601611ba0565b925060408501359150606085013567ffffffffffffffff811115611c0557600080fd5b611c1187828801611a7a565b91505092959194509250565b60005b83811015611c38578181015183820152602001611c20565b83811115611c47576000848401525b50505050565b60008151808452611c65816020860160208601611c1d565b601f01601f19169290920160200192915050565b602081526000610ab06020830184611c4d565b600060208284031215611c9e57600080fd5b813567ffffffffffffffff811115611cb557600080fd5b6105cb848285016119e7565b6000602080830181845280855180835260408601915060408160051b870101925083870160005b82811015611d1657603f19888603018452611d04858351611c4d565b94509285019290850190600101611ce8565b5092979650505050505050565b600060208284031215611d3557600080fd5b5035919050565b600080600060408486031215611d5157600080fd5b83359250602084013567ffffffffffffffff80821115611d7057600080fd5b818601915086601f830112611d8457600080fd5b813581811115611d9357600080fd5b876020828501011115611da557600080fd5b6020830194508093505050509250925092565b60008060408385031215611dcb57600080fd5b82359150602083013567ffffffffffffffff811115611de957600080fd5b611df585828601611a7a565b9150509250929050565b600060208284031215611e1157600080fd5b610ab082611ba0565b805160208201516bffffffffffffffffffffffff198082169291906014831015611e4e5780818460140360031b1b83161693505b505050919050565b634e487b7160e01b600052603260045260246000fd5b81835281816020850137506000828201602090810191909152601f909101601f19169091010190565b6001600160a01b0386168152846020820152836040820152608060608201526000611ec4608083018486611e6c565b979650505050505050565b600060208284031215611ee157600080fd5b815167ffffffffffffffff811115611ef857600080fd5b8201601f81018413611f0957600080fd5b8051611f17611a0882611a52565b818152856020838501011115611f2c57600080fd5b611f3d826020830160208601611c1d565b95945050505050565b60008251611f58818460208701611c1d565b9190910192915050565b838152604060208201526000611f3d604083018486611e6c565b634e487b7160e01b600052601160045260246000fd5b60008219821115611fa557611fa5611f7c565b500190565b600060208284031215611fbc57600080fd5b5051919050565b600181811c90821680611fd757607f821691505b6020821081141561068157634e487b7160e01b600052602260045260246000fd5b6000815160208301516001600160e01b031980821693506004831015611e4e5760049290920360031b82901b161692915050565b60008282101561203e5761203e611f7c565b50039056fea2646970667358221220f6ffc76d0a94cc665d70d7fa14dfd555fffed9a2ee3c335d7d5a14fcfd3bb50964736f6c634300080a0033",
  "linkReferences": {},
  "deployedLinkReferences": {}
}