{
  "_format": "hh-sol-artifact-1",
  "contractName": "UniversalFactory",
  "sourceName": "contracts/Factories/UniversalFactory.sol",
  "abi": [
    {
      "inputs": [
        {
          "internalType": "bytes32",
          "name": "byteCodeHash",
          "type": "bytes32"
        },
        {
          "internalType": "bytes32",
          "name": "salt",
          "type": "bytes32"
        },
        {
          "internalType": "bytes",
          "name": "initializeCallData",
          "type": "bytes"
        }
      ],
      "name": "calculateAddress",
      "outputs": [
        {
          "internalType": "address",
          "name": "",
          "type": "address"
        }
      ],
      "stateMutability": "view",
      "type": "function"
    },
    {
      "inputs": [
        {
          "internalType": "address",
          "name": "baseContract",
          "type": "address"
        },
        {
          "internalType": "bytes32",
          "name": "salt",
          "type": "bytes32"
        },
        {
          "internalType": "bytes",
          "name": "initializeCallData",
          "type": "bytes"
        }
      ],
      "name": "calculateProxyAddress",
      "outputs": [
        {
          "internalType": "address",
          "name": "",
          "type": "address"
        }
      ],
      "stateMutability": "view",
      "type": "function"
    },
    {
      "inputs": [
        {
          "internalType": "bytes",
          "name": "byteCode",
          "type": "bytes"
        },
        {
          "internalType": "bytes32",
          "name": "salt",
          "type": "bytes32"
        },
        {
          "internalType": "bytes",
          "name": "initializeCallData",
          "type": "bytes"
        }
      ],
      "name": "deployCreate2",
      "outputs": [
        {
          "internalType": "address",
          "name": "contractCreated",
          "type": "address"
        }
      ],
      "stateMutability": "payable",
      "type": "function"
    },
    {
      "inputs": [
        {
          "internalType": "address",
          "name": "baseContract",
          "type": "address"
        },
        {
          "internalType": "bytes32",
          "name": "salt",
          "type": "bytes32"
        },
        {
          "internalType": "bytes",
          "name": "initializeCallData",
          "type": "bytes"
        }
      ],
      "name": "deployCreate2Proxy",
      "outputs": [
        {
          "internalType": "address",
          "name": "proxy",
          "type": "address"
        }
      ],
      "stateMutability": "payable",
      "type": "function"
    }
  ],
  "bytecode": "0x608060405234801561001057600080fd5b50610b63806100206000396000f3fe60806040526004361061003f5760003560e01c806321d7987d146100445780633de7bd0b14610080578063b58941e114610093578063fcf5dcf3146100a6575b600080fd5b34801561005057600080fd5b5061006461005f366004610919565b6100c6565b6040516001600160a01b03909116815260200160405180910390f35b61006461008e36600461097e565b6100ea565b6100646100a1366004610919565b610299565b3480156100b257600080fd5b506100646100c13660046109e1565b6103ed565b6000806100d38385610475565b90506100df85826104d8565b9150505b9392505050565b6000838051603714156101e3577f72307939328b75c6e301a012c75e0a4e690a99036b95f6e6f4f1b5aba02a9ce46101258260006014610554565b8051906020012014801561016b57507f11a195f66c9175f46895bae2006d40848a680c7068b9fc4af248ff9a54a47e45610162826028600f610554565b80519060200120145b156101e35760405162461bcd60e51b815260206004820152602660248201527f4d696e696d616c2050726f78696573206465706c6f796d656e74206e6f74206160448201527f6c6c6f776564000000000000000000000000000000000000000000000000000060648201526084015b60405180910390fd5b60006101ef8486610475565b90506101fc34828861067c565b9250835160001461029057600080846001600160a01b0316866040516102229190610a4b565b6000604051808303816000865af19150503d806000811461025f576040519150601f19603f3d011682016040523d82523d6000602084013e610264565b606091505b509150915061028c82826040518060600160405280603b8152602001610af3603b9139610786565b5050505b50509392505050565b6000806102a68385610475565b90506102b285826107bf565b9150825160001461034b57600080836001600160a01b031634866040516102d99190610a4b565b60006040518083038185875af1925050503d8060008114610316576040519150601f19603f3d011682016040523d82523d6000602084013e61031b565b606091505b509150915061034382826040518060600160405280603b8152602001610af3603b9139610786565b5050506103e5565b34156103e55760405162461bcd60e51b815260206004820152605460248201527f556e6976657273616c466163746f72793a2076616c75652063616e6e6f74206260448201527f652073656e7420746f2074686520666163746f727920696620696e697469616c60648201527f697a6543616c6c4461746120697320656d707479000000000000000000000000608482015260a4016101da565b509392505050565b6000806103fa8385610475565b90506100df8186604080517fff000000000000000000000000000000000000000000000000000000000000006020808301919091523060601b6bffffffffffffffffffffffff1916602183015260358201859052605580830185905283518084039091018152607590920190925280519101206000906100e3565b8151600090158015906104b55780848460405160200161049793929190610a67565b604051602081830303815290604052805190602001209150506104d2565b60405181151560f81b602082015260218101849052604101610497565b92915050565b60006100e38383306040517f3d602d80600a3d3981f3363d3d373d3d3d363d730000000000000000000000008152606093841b60148201527f5af43d82803e903d91602b57fd5bf3ff000000000000000000000000000000006028820152921b6038830152604c8201526037808220606c830152605591012090565b60608161056281601f610a99565b10156105b05760405162461bcd60e51b815260206004820152600e60248201527f736c6963655f6f766572666c6f7700000000000000000000000000000000000060448201526064016101da565b6105ba8284610a99565b8451101561060a5760405162461bcd60e51b815260206004820152601160248201527f736c6963655f6f75744f66426f756e647300000000000000000000000000000060448201526064016101da565b6060821580156106295760405191506000825260208201604052610673565b6040519150601f8416801560200281840101858101878315602002848b0101015b8183101561066257805183526020928301920161064a565b5050858452601f01601f1916604052505b50949350505050565b600080844710156106cf5760405162461bcd60e51b815260206004820152601d60248201527f437265617465323a20696e73756666696369656e742062616c616e636500000060448201526064016101da565b825161071d5760405162461bcd60e51b815260206004820181905260248201527f437265617465323a2062797465636f6465206c656e677468206973207a65726f60448201526064016101da565b8383516020850187f590506001600160a01b03811661077e5760405162461bcd60e51b815260206004820152601960248201527f437265617465323a204661696c6564206f6e206465706c6f790000000000000060448201526064016101da565b949350505050565b606083156107955750816100e3565b8251156107a55782518084602001fd5b8160405162461bcd60e51b81526004016101da9190610abf565b60006040517f3d602d80600a3d3981f3363d3d373d3d3d363d7300000000000000000000000081528360601b60148201527f5af43d82803e903d91602b57fd5bf300000000000000000000000000000000006028820152826037826000f59150506001600160a01b0381166104d25760405162461bcd60e51b815260206004820152601760248201527f455243313136373a2063726561746532206661696c656400000000000000000060448201526064016101da565b634e487b7160e01b600052604160045260246000fd5b600082601f83011261089d57600080fd5b813567ffffffffffffffff808211156108b8576108b8610876565b604051601f8301601f19908116603f011681019082821181831017156108e0576108e0610876565b816040528381528660208588010111156108f957600080fd5b836020870160208301376000602085830101528094505050505092915050565b60008060006060848603121561092e57600080fd5b83356001600160a01b038116811461094557600080fd5b925060208401359150604084013567ffffffffffffffff81111561096857600080fd5b6109748682870161088c565b9150509250925092565b60008060006060848603121561099357600080fd5b833567ffffffffffffffff808211156109ab57600080fd5b6109b78783880161088c565b94506020860135935060408601359150808211156109d457600080fd5b506109748682870161088c565b6000806000606084860312156109f657600080fd5b8335925060208401359150604084013567ffffffffffffffff81111561096857600080fd5b60005b83811015610a36578181015183820152602001610a1e565b83811115610a45576000848401525b50505050565b60008251610a5d818460208701610a1b565b9190910192915050565b83151560f81b815260008351610a84816001850160208801610a1b565b60019201918201929092526021019392505050565b60008219821115610aba57634e487b7160e01b600052601160045260246000fd5b500190565b6020815260008251806020840152610ade816040850160208701610a1b565b601f01601f1916919091016040019291505056fe556e6976657273616c466163746f72793a20636f756c64206e6f7420696e697469616c697a6520746865206372656174656420636f6e7472616374a26469706673582212207f7a7abe0175d4425696541404b4e23fcc9a554a31c0e5284a5ad4e18942fb6364736f6c634300080a0033",
  "linkReferences": {},
  "deployedLinkReferences": {}
}