{
  "_format": "hh-sol-artifact-1",
  "contractName": "UniversalProfileInit",
  "sourceName": "contracts/UniversalProfileInit.sol",
  "abi": [
    {
      "inputs": [],
      "stateMutability": "nonpayable",
      "type": "constructor"
    },
    {
      "inputs": [],
      "name": "CannotTransferOwnershipToSelf",
      "type": "error"
    },
    {
      "inputs": [
        {
          "internalType": "uint256",
          "name": "renounceOwnershipStart",
          "type": "uint256"
        },
        {
          "internalType": "uint256",
          "name": "renounceOwnershipEnd",
          "type": "uint256"
        }
      ],
      "name": "NotInRenounceOwnershipInterval",
      "type": "error"
    },
    {
      "anonymous": false,
      "inputs": [
        {
          "indexed": true,
          "internalType": "uint256",
          "name": "operation",
          "type": "uint256"
        },
        {
          "indexed": true,
          "internalType": "address",
          "name": "contractAddress",
          "type": "address"
        },
        {
          "indexed": true,
          "internalType": "uint256",
          "name": "value",
          "type": "uint256"
        }
      ],
      "name": "ContractCreated",
      "type": "event"
    },
    {
      "anonymous": false,
      "inputs": [
        {
          "indexed": true,
          "internalType": "bytes32",
          "name": "dataKey",
          "type": "bytes32"
        },
        {
          "indexed": false,
          "internalType": "bytes",
          "name": "dataValue",
          "type": "bytes"
        }
      ],
      "name": "DataChanged",
      "type": "event"
    },
    {
      "anonymous": false,
      "inputs": [
        {
          "indexed": true,
          "internalType": "uint256",
          "name": "operation",
          "type": "uint256"
        },
        {
          "indexed": true,
          "internalType": "address",
          "name": "to",
          "type": "address"
        },
        {
          "indexed": true,
          "internalType": "uint256",
          "name": "value",
          "type": "uint256"
        },
        {
          "indexed": false,
          "internalType": "bytes4",
          "name": "selector",
          "type": "bytes4"
        }
      ],
      "name": "Executed",
      "type": "event"
    },
    {
      "anonymous": false,
      "inputs": [
        {
          "indexed": false,
          "internalType": "uint8",
          "name": "version",
          "type": "uint8"
        }
      ],
      "name": "Initialized",
      "type": "event"
    },
    {
      "anonymous": false,
      "inputs": [
        {
          "indexed": true,
          "internalType": "address",
          "name": "previousOwner",
          "type": "address"
        },
        {
          "indexed": true,
          "internalType": "address",
          "name": "newOwner",
          "type": "address"
        }
      ],
      "name": "OwnershipTransferred",
      "type": "event"
    },
    {
      "anonymous": false,
      "inputs": [],
      "name": "RenounceOwnershipInitiated",
      "type": "event"
    },
    {
      "anonymous": false,
      "inputs": [
        {
          "indexed": true,
          "internalType": "address",
          "name": "from",
          "type": "address"
        },
        {
          "indexed": false,
          "internalType": "uint256",
          "name": "value",
          "type": "uint256"
        },
        {
          "indexed": true,
          "internalType": "bytes32",
          "name": "typeId",
          "type": "bytes32"
        },
        {
          "indexed": true,
          "internalType": "bytes",
          "name": "returnedValue",
          "type": "bytes"
        },
        {
          "indexed": false,
          "internalType": "bytes",
          "name": "receivedData",
          "type": "bytes"
        }
      ],
      "name": "UniversalReceiver",
      "type": "event"
    },
    {
      "anonymous": false,
      "inputs": [
        {
          "indexed": true,
          "internalType": "address",
          "name": "sender",
          "type": "address"
        },
        {
          "indexed": true,
          "internalType": "uint256",
          "name": "value",
          "type": "uint256"
        }
      ],
      "name": "ValueReceived",
      "type": "event"
    },
    {
      "stateMutability": "payable",
      "type": "fallback"
    },
    {
      "inputs": [],
      "name": "claimOwnership",
      "outputs": [],
      "stateMutability": "nonpayable",
      "type": "function"
    },
    {
      "inputs": [
        {
          "internalType": "uint256",
          "name": "operation",
          "type": "uint256"
        },
        {
          "internalType": "address",
          "name": "to",
          "type": "address"
        },
        {
          "internalType": "uint256",
          "name": "value",
          "type": "uint256"
        },
        {
          "internalType": "bytes",
          "name": "data",
          "type": "bytes"
        }
      ],
      "name": "execute",
      "outputs": [
        {
          "internalType": "bytes",
          "name": "",
          "type": "bytes"
        }
      ],
      "stateMutability": "payable",
      "type": "function"
    },
    {
      "inputs": [
        {
          "internalType": "bytes32[]",
          "name": "dataKeys",
          "type": "bytes32[]"
        }
      ],
      "name": "getData",
      "outputs": [
        {
          "internalType": "bytes[]",
          "name": "dataValues",
          "type": "bytes[]"
        }
      ],
      "stateMutability": "view",
      "type": "function"
    },
    {
      "inputs": [
        {
          "internalType": "bytes32",
          "name": "dataKey",
          "type": "bytes32"
        }
      ],
      "name": "getData",
      "outputs": [
        {
          "internalType": "bytes",
          "name": "dataValue",
          "type": "bytes"
        }
      ],
      "stateMutability": "view",
      "type": "function"
    },
    {
      "inputs": [
        {
          "internalType": "address",
          "name": "newOwner",
          "type": "address"
        }
      ],
      "name": "initialize",
      "outputs": [],
      "stateMutability": "payable",
      "type": "function"
    },
    {
      "inputs": [
        {
          "internalType": "bytes32",
          "name": "dataHash",
          "type": "bytes32"
        },
        {
          "internalType": "bytes",
          "name": "signature",
          "type": "bytes"
        }
      ],
      "name": "isValidSignature",
      "outputs": [
        {
          "internalType": "bytes4",
          "name": "magicValue",
          "type": "bytes4"
        }
      ],
      "stateMutability": "view",
      "type": "function"
    },
    {
      "inputs": [],
      "name": "owner",
      "outputs": [
        {
          "internalType": "address",
          "name": "",
          "type": "address"
        }
      ],
      "stateMutability": "view",
      "type": "function"
    },
    {
      "inputs": [],
      "name": "pendingOwner",
      "outputs": [
        {
          "internalType": "address",
          "name": "",
          "type": "address"
        }
      ],
      "stateMutability": "view",
      "type": "function"
    },
    {
      "inputs": [],
      "name": "renounceOwnership",
      "outputs": [],
      "stateMutability": "nonpayable",
      "type": "function"
    },
    {
      "inputs": [
        {
          "internalType": "bytes32[]",
          "name": "dataKeys",
          "type": "bytes32[]"
        },
        {
          "internalType": "bytes[]",
          "name": "dataValues",
          "type": "bytes[]"
        }
      ],
      "name": "setData",
      "outputs": [],
      "stateMutability": "nonpayable",
      "type": "function"
    },
    {
      "inputs": [
        {
          "internalType": "bytes32",
          "name": "dataKey",
          "type": "bytes32"
        },
        {
          "internalType": "bytes",
          "name": "dataValue",
          "type": "bytes"
        }
      ],
      "name": "setData",
      "outputs": [],
      "stateMutability": "nonpayable",
      "type": "function"
    },
    {
      "inputs": [
        {
          "internalType": "bytes4",
          "name": "interfaceId",
          "type": "bytes4"
        }
      ],
      "name": "supportsInterface",
      "outputs": [
        {
          "internalType": "bool",
          "name": "",
          "type": "bool"
        }
      ],
      "stateMutability": "view",
      "type": "function"
    },
    {
      "inputs": [
        {
          "internalType": "address",
          "name": "_newOwner",
          "type": "address"
        }
      ],
      "name": "transferOwnership",
      "outputs": [],
      "stateMutability": "nonpayable",
      "type": "function"
    },
    {
      "inputs": [
        {
          "internalType": "bytes32",
          "name": "typeId",
          "type": "bytes32"
        },
        {
          "internalType": "bytes",
          "name": "data",
          "type": "bytes"
        }
      ],
      "name": "universalReceiver",
      "outputs": [
        {
          "internalType": "bytes",
          "name": "returnValue",
          "type": "bytes"
        }
      ],
      "stateMutability": "payable",
      "type": "function"
    }
  ],
  "bytecode": "0x60806040523480156200001157600080fd5b506200001c62000022565b620000e4565b600054610100900460ff16156200008f5760405162461bcd60e51b815260206004820152602760248201527f496e697469616c697a61626c653a20636f6e747261637420697320696e697469604482015266616c697a696e6760c81b606482015260840160405180910390fd5b60005460ff9081161015620000e2576000805460ff191660ff9081179091556040519081527f7f26b83ff96e1f2b6a682f133852f6798a09c465da95921460cefb38474024989060200160405180910390a15b565b6125d880620000f46000396000f3fe6080604052600436106100dd5760003560e01c80636bb56a141161007f5780638da5cb5b116100595780638da5cb5b1461026b578063c4d66de8146102a3578063e30c3978146102b6578063f2fde38b146102d6576100dd565b80636bb56a1414610223578063715018a6146102365780637f23690c1461024b576100dd565b806344c028fe116100bb57806344c028fe146101a15780634e3e6e9c146101c15780634e71e0c8146101ee57806354f6127f14610203576100dd565b806301ffc9a71461011357806314a6e293146101485780631626ba7e14610168575b341561011157604051349033907f7e71433ddf847725166244795048ecf3e3f9f35628254ecbf73605666423349390600090a35b005b34801561011f57600080fd5b5061013361012e366004611e72565b6102f6565b60405190151581526020015b60405180910390f35b34801561015457600080fd5b50610111610163366004611fde565b6103bd565b34801561017457600080fd5b506101886101833660046120b3565b610496565b6040516001600160e01b0319909116815260200161013f565b6101b46101af366004612116565b61058a565b60405161013f91906121d3565b3480156101cd57600080fd5b506101e16101dc3660046121e6565b61069b565b60405161013f919061221b565b3480156101fa57600080fd5b5061011161074f565b34801561020f57600080fd5b506101b461021e36600461227d565b610759565b6101b4610231366004612296565b610764565b34801561024257600080fd5b506101116108a6565b34801561025757600080fd5b506101116102663660046120b3565b6108b6565b34801561027757600080fd5b506000546201000090046001600160a01b03165b6040516001600160a01b03909116815260200161013f565b6101116102b1366004612312565b6108cc565b3480156102c257600080fd5b5060035461028b906001600160a01b031681565b3480156102e257600080fd5b506101116102f1366004612312565b6109ed565b60006001600160e01b03198216630b135d3f60e11b148061034057506001600160e01b031982167feb6be62e00000000000000000000000000000000000000000000000000000000145b8061037457506001600160e01b031982167f6bb56a1400000000000000000000000000000000000000000000000000000000145b806103a857506001600160e01b031982167fa375e9c600000000000000000000000000000000000000000000000000000000145b806103b757506103b782610a01565b92915050565b6103c5610a3f565b80518251146104415760405162461bcd60e51b815260206004820152602660248201527f4b657973206c656e677468206e6f7420657175616c20746f2076616c7565732060448201527f6c656e677468000000000000000000000000000000000000000000000000000060648201526084015b60405180910390fd5b60005b8251811015610491576104898382815181106104625761046261232d565b602002602001015183838151811061047c5761047c61232d565b6020026020010151610aa0565b600101610444565b505050565b600080546201000090046001600160a01b0316803b1561054a576104c181630b135d3f60e11b610b1b565b6104d3576001600160e01b0319610542565b604051630b135d3f60e11b81526001600160a01b03821690631626ba7e906105019087908790600401612343565b602060405180830381865afa15801561051e573d6000803e3d6000fd5b505050506040513d601f19601f82011682018060405250810190610542919061235c565b9150506103b7565b6105548484610c1d565b6001600160a01b0316816001600160a01b03161461057a576001600160e01b0319610542565b50630b135d3f60e11b9392505050565b6060610594610a3f565b824710156105e45760405162461bcd60e51b815260206004820152601d60248201527f455243373235583a20696e73756666696369656e742062616c616e63650000006044820152606401610438565b846105fb576105f4848484610c41565b9050610693565b600185141561060f576105f4848484610d44565b6002851415610623576105f4848484610f25565b6003851415610637576105f48484846110c8565b600485141561064b576105f4848484611217565b60405162461bcd60e51b815260206004820152601f60248201527f455243373235583a20556e6b6e6f776e206f7065726174696f6e2074797065006044820152606401610438565b949350505050565b6060815167ffffffffffffffff8111156106b7576106b7611e8f565b6040519080825280602002602001820160405280156106ea57816020015b60608152602001906001900390816106d55790505b50905060005b82518110156107495761071b83828151811061070e5761070e61232d565b6020026020010151611366565b82828151811061072d5761072d61232d565b60200260200101819052506107428160010190565b90506106f0565b50919050565b610757611408565b565b60606103b782611366565b606060006107917f0cfc51aec37c55a4d0b1a65c6255c4bf2fbdf6277f3cc0730c45b828b6db8b47611366565b905060148151106108425760006107a782612379565b60601c90506107bd81635122dded60e11b610b1b565b1561084057604051635122dded60e11b81526001600160a01b0382169063a245bbda906107f690339034908b908b908b906004016123de565b6000604051808303816000875af1158015610815573d6000803e3d6000fd5b505050506040513d6000823e601f3d908101601f1916820160405261083d9190810190612418565b92505b505b81604051610850919061248f565b604051809103902085336001600160a01b03167f9c3ba68eb5742b8e3961aea0afc7371a71bf433c8a67a831803b64c064a178c2348888604051610896939291906124ab565b60405180910390a4509392505050565b6108ae610a3f565b6107576114bc565b6108be610a3f565b6108c88282610aa0565b5050565b600054610100900460ff16158080156108ec5750600054600160ff909116105b806109065750303b158015610906575060005460ff166001145b6109785760405162461bcd60e51b815260206004820152602e60248201527f496e697469616c697a61626c653a20636f6e747261637420697320616c72656160448201527f647920696e697469616c697a65640000000000000000000000000000000000006064820152608401610438565b6000805460ff19166001179055801561099b576000805461ff0019166101001790555b6109a482611574565b80156108c8576000805461ff0019169055604051600181527f7f26b83ff96e1f2b6a682f133852f6798a09c465da95921460cefb38474024989060200160405180910390a15050565b6109f5610a3f565b6109fe8161164a565b50565b60006001600160e01b031982167f714df77c0000000000000000000000000000000000000000000000000000000014806103b757506103b7826116bc565b6000546001600160a01b03620100009091041633146107575760405162461bcd60e51b815260206004820181905260248201527f4f776e61626c653a2063616c6c6572206973206e6f7420746865206f776e65726044820152606401610438565b60008281526001602090815260409091208251610abf92840190611dc3565b50817fece574603820d07bc9b91f2a932baadf4628aabcb8afba49776529c14a6104b261010083511115610b0057610afb83600061010061170a565b610b02565b825b604051610b0f91906121d3565b60405180910390a25050565b604080516001600160e01b0319831660248083019190915282518083039091018152604490910182526020810180517bffffffffffffffffffffffffffffffffffffffffffffffffffffffff166301ffc9a760e01b179052905160009190829081906001600160a01b0387169061753090610b9790869061248f565b6000604051808303818686fa925050503d8060008114610bd3576040519150601f19603f3d011682016040523d82523d6000602084013e610bd8565b606091505b5091509150602081511015610bf357600093505050506103b7565b818015610c135750600081806020019051810190610c1191906124c5565b115b9695505050505050565b6000806000610c2c8585611834565b91509150610c398161187a565b509392505050565b6060600080856001600160a01b03168585604051610c5f919061248f565b60006040518083038185875af1925050503d8060008114610c9c576040519150601f19603f3d011682016040523d82523d6000602084013e610ca1565b606091505b5091509150610ce682826040518060400160405280601681526020017f455243373235583a20556e6b6e6f776e204572726f7200000000000000000000815250611a35565b9250846001600160a01b03871660007f4810874456b8e6487bd861375cf6abd8e1c8bb5858c8ce36a86a04dabfac199e610d1f886124de565b6040516001600160e01b0319909116815260200160405180910390a450509392505050565b60606001600160a01b03841615610dcf5760405162461bcd60e51b815260206004820152604360248201527f455243373235583a20435245415445206f7065726174696f6e7320726571756960448201527f726520746865207265636569766572206164647265737320746f20626520656d60648201526270747960e81b608482015260a401610438565b8151610e2c5760405162461bcd60e51b815260206004820152602660248201527f455243373235583a204e6f20636f6e74726163742062797465636f64652070726044820152651bdd9a59195960d21b6064820152608401610438565b600082516020840185f090506001600160a01b038116610eb45760405162461bcd60e51b815260206004820152602260248201527f455243373235583a20436f756c64206e6f74206465706c6f7920636f6e74726160448201527f63740000000000000000000000000000000000000000000000000000000000006064820152608401610438565b6040516bffffffffffffffffffffffff19606083901b166020820152603401604051602081830303815290604052915083816001600160a01b031660017f01c42bd7e97a66166063b02fce6924e6656b6c2c61966630165095c4fb0b7b2f60405160405180910390a4509392505050565b60606001600160a01b03841615610fb05760405162461bcd60e51b815260206004820152604360248201527f455243373235583a20435245415445206f7065726174696f6e7320726571756960448201527f726520746865207265636569766572206164647265737320746f20626520656d60648201526270747960e81b608482015260a401610438565b815161100d5760405162461bcd60e51b815260206004820152602660248201527f455243373235583a204e6f20636f6e74726163742062797465636f64652070726044820152651bdd9a59195960d21b6064820152608401610438565b600061102683602085516110219190612528565b611a6e565b905060006110438460006020875161103e9190612528565b61170a565b90506000611052868484611ad4565b6040516bffffffffffffffffffffffff19606083901b166020820152909150603401604051602081830303815290604052935085816001600160a01b031660027f01c42bd7e97a66166063b02fce6924e6656b6c2c61966630165095c4fb0b7b2f60405160405180910390a45050509392505050565b6060821561113e5760405162461bcd60e51b815260206004820152603860248201527f455243373235583a2063616e6e6f74207472616e736665722076616c7565207760448201527f697468206f7065726174696f6e2053544154494343414c4c00000000000000006064820152608401610438565b600080856001600160a01b031684604051611159919061248f565b600060405180830381855afa9150503d8060008114611194576040519150601f19603f3d011682016040523d82523d6000602084013e611199565b606091505b50915091506111de82826040518060400160405280601681526020017f455243373235583a20556e6b6e6f776e204572726f7200000000000000000000815250611a35565b9250846001600160a01b03871660037f4810874456b8e6487bd861375cf6abd8e1c8bb5858c8ce36a86a04dabfac199e610d1f886124de565b6060821561128d5760405162461bcd60e51b815260206004820152603a60248201527f455243373235583a2063616e6e6f74207472616e736665722076616c7565207760448201527f697468206f7065726174696f6e2044454c454741544543414c4c0000000000006064820152608401610438565b600080856001600160a01b0316846040516112a8919061248f565b600060405180830381855af49150503d80600081146112e3576040519150601f19603f3d011682016040523d82523d6000602084013e6112e8565b606091505b509150915061132d82826040518060400160405280601681526020017f455243373235583a20556e6b6e6f776e204572726f7200000000000000000000815250611a35565b9250846001600160a01b03871660047f4810874456b8e6487bd861375cf6abd8e1c8bb5858c8ce36a86a04dabfac199e610d1f886124de565b60008181526001602052604090208054606091906113839061253f565b80601f01602080910402602001604051908101604052809291908181526020018280546113af9061253f565b80156113fc5780601f106113d1576101008083540402835291602001916113fc565b820191906000526020600020905b8154815290600101906020018083116113df57829003601f168201915b50505050509050919050565b6003546001600160a01b031633146114885760405162461bcd60e51b815260206004820152602e60248201527f436c61696d4f776e6572736869703a2063616c6c6572206973206e6f7420746860448201527f652070656e64696e674f776e65720000000000000000000000000000000000006064820152608401610438565b60035461149d906001600160a01b0316611bd6565b6003805473ffffffffffffffffffffffffffffffffffffffff19169055565b60025443906000906114d090606490612574565b905060006114df606483612574565b90508083111561151c5760028390556040517f56272768d104766ae5e663c58927d0a9e47effb40b9a8f6644ac5dfbc9e56f8490600090a1505050565b81831015611560576040517f8b9bf5070000000000000000000000000000000000000000000000000000000081526004810183905260248101829052604401610438565b61156a6000611bd6565b5050600060025550565b600054610100900460ff166115df5760405162461bcd60e51b815260206004820152602b60248201527f496e697469616c697a61626c653a20636f6e7472616374206973206e6f74206960448201526a6e697469616c697a696e6760a81b6064820152608401610438565b6115e881611c62565b6109fe7feafec4d89fa9619884b60000abe425d64acd861a49b8ddf5c0b6962110481f3860001b6040518060400160405280600481526020017fabe425d600000000000000000000000000000000000000000000000000000000815250610aa0565b6001600160a01b03811630141561168d576040517f43b248cd00000000000000000000000000000000000000000000000000000000815260040160405180910390fd5b6003805473ffffffffffffffffffffffffffffffffffffffff19166001600160a01b0392909216919091179055565b60006001600160e01b031982167f44c028fe0000000000000000000000000000000000000000000000000000000014806103b757506301ffc9a760e01b6001600160e01b03198316146103b7565b60608161171881601f612574565b10156117665760405162461bcd60e51b815260206004820152600e60248201527f736c6963655f6f766572666c6f770000000000000000000000000000000000006044820152606401610438565b6117708284612574565b845110156117c05760405162461bcd60e51b815260206004820152601160248201527f736c6963655f6f75744f66426f756e64730000000000000000000000000000006044820152606401610438565b6060821580156117df5760405191506000825260208201604052611829565b6040519150601f8416801560200281840101858101878315602002848b0101015b81831015611818578051835260209283019201611800565b5050858452601f01601f1916604052505b5090505b9392505050565b60008082516041141561186b5760208301516040840151606085015160001a61185f87828585611cd6565b94509450505050611873565b506000905060025b9250929050565b600081600481111561188e5761188e61258c565b14156118975750565b60018160048111156118ab576118ab61258c565b14156118f95760405162461bcd60e51b815260206004820152601860248201527f45434453413a20696e76616c6964207369676e617475726500000000000000006044820152606401610438565b600281600481111561190d5761190d61258c565b141561195b5760405162461bcd60e51b815260206004820152601f60248201527f45434453413a20696e76616c6964207369676e6174757265206c656e677468006044820152606401610438565b600381600481111561196f5761196f61258c565b14156119c85760405162461bcd60e51b815260206004820152602260248201527f45434453413a20696e76616c6964207369676e6174757265202773272076616c604482015261756560f01b6064820152608401610438565b60048160048111156119dc576119dc61258c565b14156109fe5760405162461bcd60e51b815260206004820152602260248201527f45434453413a20696e76616c6964207369676e6174757265202776272076616c604482015261756560f01b6064820152608401610438565b60608315611a4457508161182d565b825115611a545782518084602001fd5b8160405162461bcd60e51b815260040161043891906121d3565b6000611a7b826020612574565b83511015611acb5760405162461bcd60e51b815260206004820152601560248201527f746f427974657333325f6f75744f66426f756e647300000000000000000000006044820152606401610438565b50016020015190565b60008084471015611b275760405162461bcd60e51b815260206004820152601d60248201527f437265617465323a20696e73756666696369656e742062616c616e63650000006044820152606401610438565b8251611b755760405162461bcd60e51b815260206004820181905260248201527f437265617465323a2062797465636f6465206c656e677468206973207a65726f6044820152606401610438565b8383516020850187f590506001600160a01b0381166106935760405162461bcd60e51b815260206004820152601960248201527f437265617465323a204661696c6564206f6e206465706c6f79000000000000006044820152606401610438565b6000546001600160a01b038281166201000090920416146109fe57600080546001600160a01b03838116620100008181027fffffffffffffffffffff0000000000000000000000000000000000000000ffff851617855560405193049190911692909183917f8be0079c531659141344cd1fd0a4f28419497f9722a3daafe3b4186f6b6457e091a35050565b600054610100900460ff16611ccd5760405162461bcd60e51b815260206004820152602b60248201527f496e697469616c697a61626c653a20636f6e7472616374206973206e6f74206960448201526a6e697469616c697a696e6760a81b6064820152608401610438565b6109fe81611bd6565b6000807f7fffffffffffffffffffffffffffffff5d576e7357a4501ddfe92f46681b20a0831115611d0d5750600090506003611dba565b8460ff16601b14158015611d2557508460ff16601c14155b15611d365750600090506004611dba565b6040805160008082526020820180845289905260ff881692820192909252606081018690526080810185905260019060a0016020604051602081039080840390855afa158015611d8a573d6000803e3d6000fd5b5050604051601f1901519150506001600160a01b038116611db357600060019250925050611dba565b9150600090505b94509492505050565b828054611dcf9061253f565b90600052602060002090601f016020900481019282611df15760008555611e37565b82601f10611e0a57805160ff1916838001178555611e37565b82800160010185558215611e37579182015b82811115611e37578251825591602001919060010190611e1c565b50611e43929150611e47565b5090565b5b80821115611e435760008155600101611e48565b6001600160e01b0319811681146109fe57600080fd5b600060208284031215611e8457600080fd5b813561182d81611e5c565b634e487b7160e01b600052604160045260246000fd5b604051601f8201601f1916810167ffffffffffffffff81118282101715611ece57611ece611e8f565b604052919050565b600067ffffffffffffffff821115611ef057611ef0611e8f565b5060051b60200190565b600082601f830112611f0b57600080fd5b81356020611f20611f1b83611ed6565b611ea5565b82815260059290921b84018101918181019086841115611f3f57600080fd5b8286015b84811015611f5a5780358352918301918301611f43565b509695505050505050565b600067ffffffffffffffff821115611f7f57611f7f611e8f565b50601f01601f191660200190565b600082601f830112611f9e57600080fd5b8135611fac611f1b82611f65565b818152846020838601011115611fc157600080fd5b816020850160208301376000918101602001919091529392505050565b60008060408385031215611ff157600080fd5b823567ffffffffffffffff8082111561200957600080fd5b61201586838701611efa565b935060209150818501358181111561202c57600080fd5b8501601f8101871361203d57600080fd5b803561204b611f1b82611ed6565b81815260059190911b8201840190848101908983111561206a57600080fd5b8584015b838110156120a2578035868111156120865760008081fd5b6120948c8983890101611f8d565b84525091860191860161206e565b508096505050505050509250929050565b600080604083850312156120c657600080fd5b82359150602083013567ffffffffffffffff8111156120e457600080fd5b6120f085828601611f8d565b9150509250929050565b80356001600160a01b038116811461211157600080fd5b919050565b6000806000806080858703121561212c57600080fd5b8435935061213c602086016120fa565b925060408501359150606085013567ffffffffffffffff81111561215f57600080fd5b61216b87828801611f8d565b91505092959194509250565b60005b8381101561219257818101518382015260200161217a565b838111156121a1576000848401525b50505050565b600081518084526121bf816020860160208601612177565b601f01601f19169290920160200192915050565b60208152600061182d60208301846121a7565b6000602082840312156121f857600080fd5b813567ffffffffffffffff81111561220f57600080fd5b61069384828501611efa565b6000602080830181845280855180835260408601915060408160051b870101925083870160005b8281101561227057603f1988860301845261225e8583516121a7565b94509285019290850190600101612242565b5092979650505050505050565b60006020828403121561228f57600080fd5b5035919050565b6000806000604084860312156122ab57600080fd5b83359250602084013567ffffffffffffffff808211156122ca57600080fd5b818601915086601f8301126122de57600080fd5b8135818111156122ed57600080fd5b8760208285010111156122ff57600080fd5b6020830194508093505050509250925092565b60006020828403121561232457600080fd5b61182d826120fa565b634e487b7160e01b600052603260045260246000fd5b82815260406020820152600061069360408301846121a7565b60006020828403121561236e57600080fd5b815161182d81611e5c565b805160208201516bffffffffffffffffffffffff1980821692919060148310156123ad5780818460140360031b1b83161693505b505050919050565b81835281816020850137506000828201602090810191909152601f909101601f19169091010190565b6001600160a01b038616815284602082015283604082015260806060820152600061240d6080830184866123b5565b979650505050505050565b60006020828403121561242a57600080fd5b815167ffffffffffffffff81111561244157600080fd5b8201601f8101841361245257600080fd5b8051612460611f1b82611f65565b81815285602083850101111561247557600080fd5b612486826020830160208601612177565b95945050505050565b600082516124a1818460208701612177565b9190910192915050565b8381526040602082015260006124866040830184866123b5565b6000602082840312156124d757600080fd5b5051919050565b6000815160208301516001600160e01b0319808216935060048310156123ad5760049290920360031b82901b161692915050565b634e487b7160e01b600052601160045260246000fd5b60008282101561253a5761253a612512565b500390565b600181811c9082168061255357607f821691505b6020821081141561074957634e487b7160e01b600052602260045260246000fd5b6000821982111561258757612587612512565b500190565b634e487b7160e01b600052602160045260246000fdfea2646970667358221220c869bfc0203f826f892f64a2b6a56b803fcf27ea6a9c32cc8d3e8e48074f67ff64736f6c634300080a0033",
  "linkReferences": {},
  "deployedLinkReferences": {}
}